{
	"compilerInput": "{\"language\":\"Solidity\",\"sources\":{\"Genesis.sol\":{\"content\":\"// SPDX-License-Identifier: MIT\\r\\npragma solidity ^0.8.9;\\r\\n\\r\\nimport \\\"@openzeppelin/contracts/token/ERC20/ERC20.sol\\\";\\r\\nimport \\\"./TreeCollection.sol\\\";\\r\\n\\r\\ncontract Genesis is ERC20 {\\r\\n\\r\\n    using Counters for Counters.Counter;\\r\\n    Counters.Counter public TreeCollectionCounter;\\r\\n    \\r\\n    uint256 immutable base = 1e24;\\r\\n    uint256 immutable gne = 1e18;\\r\\n    ERC20 immutable STNEAR;\\r\\n\\r\\n    address private admin;\\r\\n\\r\\n    constructor(address _token) ERC20(\\\"Genesis\\\", \\\"GNE\\\"){\\r\\n        admin = msg.sender;\\r\\n        STNEAR = ERC20(_token);\\r\\n    }\\r\\n\\r\\n    function mint(address to, uint256 amount) internal{\\r\\n        _mint(to, amount);\\r\\n    }\\r\\n\\r\\n    struct TreeDetails{\\r\\n        uint256 lastWatered;\\r\\n        uint256 lastClaimed;\\r\\n        uint256 wateredTimes;\\r\\n        uint256 tokensYielded;\\r\\n        bool isInitialized;\\r\\n    }\\r\\n\\r\\n    struct UserTreeMapping {\\r\\n        mapping(uint256 => TreeDetails) treeDetails; // mapping to store user details with its tokenID\\r\\n    }\\r\\n\\r\\n    mapping(uint256 => TreeCollection) public treecollections; // to keep record of collection with their IDs\\r\\n    mapping(uint256 => UserTreeMapping) userTree; // mapping of a Tree with its collection\\r\\n    mapping(uint256 => bool) collectionInitialized; // mapping to assign collectionID with bool\\r\\n\\r\\n    function mintNewTreeCollection() public {\\r\\n        require(msg.sender == admin, \\\"Nope!\\\");\\r\\n\\r\\n        TreeCollectionCounter.increment();\\r\\n        uint256 collectionID = TreeCollectionCounter.current();\\r\\n        TreeCollection newCollection = new TreeCollection();\\r\\n        treecollections[collectionID] = newCollection;\\r\\n        collectionInitialized[collectionID] = true;\\r\\n    }\\r\\n\\r\\n    function mintTree(uint256 collectionID, string memory _uri) public {\\r\\n\\r\\n        require(collectionInitialized[collectionID] == true, \\\"Collection is not yet minted!\\\");\\r\\n\\r\\n        require(STNEAR.transferFrom(msg.sender, address(this), 5 * base), \\\"STNEAR: transferFrom failed\\\"); \\r\\n\\r\\n        TreeCollection treecollection = TreeCollection(treecollections[collectionID]);\\r\\n        treecollection.safeMint(msg.sender, _uri); \\r\\n        uint256 tokenID = treecollection.tokenIdCounter();\\r\\n        userTree[collectionID].treeDetails[tokenID] = TreeDetails(0, 0, 0, 0, true);\\r\\n    }\\r\\n\\r\\n    function water(uint256 _collectionID, uint256 _tokenID) public returns(bool) {\\r\\n\\r\\n        require(collectionInitialized[_collectionID] == true, \\\"Collection is not yet minted!\\\");\\r\\n\\r\\n        require(userTree[_collectionID].treeDetails[_tokenID].isInitialized, \\\"Tree does not exist\\\");\\r\\n\\r\\n        TreeCollection treecollection = TreeCollection(treecollections[_collectionID]);\\r\\n\\r\\n        require(treecollection.ownerOf(_tokenID) == msg.sender, \\\"You are not the owner\\\");\\r\\n\\r\\n        require(STNEAR.transferFrom(msg.sender, address(this), 1 * base), \\\"STNEAR: transferFrom failed\\\"); \\r\\n\\r\\n        userTree[_collectionID].treeDetails[_tokenID].lastWatered = block.timestamp;\\r\\n        userTree[_collectionID].treeDetails[_tokenID].wateredTimes += 1;\\r\\n\\r\\n        return true;\\r\\n    }\\r\\n\\r\\n    function claim(uint256 _collectionID, uint256 _tokenID) public returns(bool) {\\r\\n\\r\\n        require(collectionInitialized[_collectionID] == true, \\\"Collection is not yet minted\\\");\\r\\n\\r\\n        require(userTree[_collectionID].treeDetails[_tokenID].isInitialized, \\\"Tree does not exist\\\");\\r\\n\\r\\n        TreeCollection treecollection = TreeCollection(treecollections[_collectionID]);\\r\\n\\r\\n        require(treecollection.ownerOf(_tokenID) == msg.sender, \\\"You are not the owner\\\");\\r\\n\\r\\n        require(\\r\\n            block.timestamp - userTree[_collectionID].treeDetails[_tokenID].lastWatered <= 43200, \\r\\n            \\\"Water First\\\"\\r\\n        );\\r\\n        require(\\r\\n            block.timestamp - userTree[_collectionID].treeDetails[_tokenID].lastClaimed > 86400,\\r\\n            \\\"Can't Claim\\\"\\r\\n        );\\r\\n\\r\\n        userTree[_collectionID].treeDetails[_tokenID].lastClaimed = block.timestamp;\\r\\n        userTree[_collectionID].treeDetails[_tokenID].tokensYielded += 5;\\r\\n        mint(msg.sender, 5 * gne);\\r\\n\\r\\n        return true;\\r\\n    }\\r\\n\\r\\n    function getTreeDetails(uint256 collectionId, uint256 tokenId) public view returns(TreeDetails memory) {\\r\\n        return userTree[collectionId].treeDetails[tokenId];\\r\\n        //returns details related to a particula NFT(Tree)\\r\\n    }\\r\\n\\r\\n    function returnNFTcount(uint256 collectionID) public view returns(uint256) {\\r\\n        return (treecollections[collectionID].tokenIdCounter());\\r\\n        //returns NFTs minted in a particular collection\\r\\n    }\\r\\n}\"},\"TreeCollection.sol\":{\"content\":\"// SPDX-License-Identifier: MIT\\r\\npragma solidity ^0.8.9;\\r\\nimport \\\"@openzeppelin/contracts/token/ERC721/ERC721.sol\\\";\\r\\nimport \\\"@openzeppelin/contracts/token/ERC721/extensions/ERC721URIStorage.sol\\\";\\r\\nimport \\\"@openzeppelin/contracts/utils/Counters.sol\\\";\\r\\n\\r\\ncontract TreeCollection is ERC721, ERC721URIStorage{\\r\\n\\r\\n    address parent;\\r\\n\\r\\n    modifier onlyGenesis {\\r\\n        require(msg.sender == parent, \\\"You do not have access!\\\");\\r\\n        _;\\r\\n    }\\r\\n\\r\\n    using Counters for Counters.Counter;\\r\\n    Counters.Counter public tokenIdCounter;\\r\\n\\r\\n    constructor() ERC721(\\\"Genesis\\\", \\\"GNE\\\") {\\r\\n        parent = msg.sender;\\r\\n    }\\r\\n\\r\\n    function safeMint(address to, string memory uri) public onlyGenesis {\\r\\n        tokenIdCounter.increment();\\r\\n        uint256 tokenId = tokenIdCounter.current();\\r\\n        require(tokenId <= 30, \\\"There can be only 30 NFTs in a Tree Collection!\\\");\\r\\n        _safeMint(to, tokenId);\\r\\n        _setTokenURI(tokenId, uri);\\r\\n    }\\r\\n\\r\\n    function _burn(uint256 tokenId) internal override(ERC721, ERC721URIStorage) {\\r\\n        super._burn(tokenId);\\r\\n    }\\r\\n\\r\\n    function tokenURI(uint256 tokenId) public view override(ERC721, ERC721URIStorage) returns (string memory) {\\r\\n        return super.tokenURI(tokenId);\\r\\n    }\\r\\n\\r\\n    function supportsInterface(bytes4 interfaceId) public view override(ERC721, ERC721URIStorage) returns (bool) {\\r\\n        return super.supportsInterface(interfaceId);\\r\\n    }\\r\\n}\"},\"@openzeppelin/contracts/token/ERC20/ERC20.sol\":{\"content\":\"// SPDX-License-Identifier: MIT\\n// OpenZeppelin Contracts (last updated v4.9.0) (token/ERC20/ERC20.sol)\\n\\npragma solidity ^0.8.0;\\n\\nimport \\\"./IERC20.sol\\\";\\nimport \\\"./extensions/IERC20Metadata.sol\\\";\\nimport \\\"../../utils/Context.sol\\\";\\n\\n/**\\n * @dev Implementation of the {IERC20} interface.\\n *\\n * This implementation is agnostic to the way tokens are created. This means\\n * that a supply mechanism has to be added in a derived contract using {_mint}.\\n * For a generic mechanism see {ERC20PresetMinterPauser}.\\n *\\n * TIP: For a detailed writeup see our guide\\n * https://forum.openzeppelin.com/t/how-to-implement-erc20-supply-mechanisms/226[How\\n * to implement supply mechanisms].\\n *\\n * The default value of {decimals} is 18. To change this, you should override\\n * this function so it returns a different value.\\n *\\n * We have followed general OpenZeppelin Contracts guidelines: functions revert\\n * instead returning `false` on failure. This behavior is nonetheless\\n * conventional and does not conflict with the expectations of ERC20\\n * applications.\\n *\\n * Additionally, an {Approval} event is emitted on calls to {transferFrom}.\\n * This allows applications to reconstruct the allowance for all accounts just\\n * by listening to said events. Other implementations of the EIP may not emit\\n * these events, as it isn't required by the specification.\\n *\\n * Finally, the non-standard {decreaseAllowance} and {increaseAllowance}\\n * functions have been added to mitigate the well-known issues around setting\\n * allowances. See {IERC20-approve}.\\n */\\ncontract ERC20 is Context, IERC20, IERC20Metadata {\\n    mapping(address => uint256) private _balances;\\n\\n    mapping(address => mapping(address => uint256)) private _allowances;\\n\\n    uint256 private _totalSupply;\\n\\n    string private _name;\\n    string private _symbol;\\n\\n    /**\\n     * @dev Sets the values for {name} and {symbol}.\\n     *\\n     * All two of these values are immutable: they can only be set once during\\n     * construction.\\n     */\\n    constructor(string memory name_, string memory symbol_) {\\n        _name = name_;\\n        _symbol = symbol_;\\n    }\\n\\n    /**\\n     * @dev Returns the name of the token.\\n     */\\n    function name() public view virtual override returns (string memory) {\\n        return _name;\\n    }\\n\\n    /**\\n     * @dev Returns the symbol of the token, usually a shorter version of the\\n     * name.\\n     */\\n    function symbol() public view virtual override returns (string memory) {\\n        return _symbol;\\n    }\\n\\n    /**\\n     * @dev Returns the number of decimals used to get its user representation.\\n     * For example, if `decimals` equals `2`, a balance of `505` tokens should\\n     * be displayed to a user as `5.05` (`505 / 10 ** 2`).\\n     *\\n     * Tokens usually opt for a value of 18, imitating the relationship between\\n     * Ether and Wei. This is the default value returned by this function, unless\\n     * it's overridden.\\n     *\\n     * NOTE: This information is only used for _display_ purposes: it in\\n     * no way affects any of the arithmetic of the contract, including\\n     * {IERC20-balanceOf} and {IERC20-transfer}.\\n     */\\n    function decimals() public view virtual override returns (uint8) {\\n        return 18;\\n    }\\n\\n    /**\\n     * @dev See {IERC20-totalSupply}.\\n     */\\n    function totalSupply() public view virtual override returns (uint256) {\\n        return _totalSupply;\\n    }\\n\\n    /**\\n     * @dev See {IERC20-balanceOf}.\\n     */\\n    function balanceOf(address account) public view virtual override returns (uint256) {\\n        return _balances[account];\\n    }\\n\\n    /**\\n     * @dev See {IERC20-transfer}.\\n     *\\n     * Requirements:\\n     *\\n     * - `to` cannot be the zero address.\\n     * - the caller must have a balance of at least `amount`.\\n     */\\n    function transfer(address to, uint256 amount) public virtual override returns (bool) {\\n        address owner = _msgSender();\\n        _transfer(owner, to, amount);\\n        return true;\\n    }\\n\\n    /**\\n     * @dev See {IERC20-allowance}.\\n     */\\n    function allowance(address owner, address spender) public view virtual override returns (uint256) {\\n        return _allowances[owner][spender];\\n    }\\n\\n    /**\\n     * @dev See {IERC20-approve}.\\n     *\\n     * NOTE: If `amount` is the maximum `uint256`, the allowance is not updated on\\n     * `transferFrom`. This is semantically equivalent to an infinite approval.\\n     *\\n     * Requirements:\\n     *\\n     * - `spender` cannot be the zero address.\\n     */\\n    function approve(address spender, uint256 amount) public virtual override returns (bool) {\\n        address owner = _msgSender();\\n        _approve(owner, spender, amount);\\n        return true;\\n    }\\n\\n    /**\\n     * @dev See {IERC20-transferFrom}.\\n     *\\n     * Emits an {Approval} event indicating the updated allowance. This is not\\n     * required by the EIP. See the note at the beginning of {ERC20}.\\n     *\\n     * NOTE: Does not update the allowance if the current allowance\\n     * is the maximum `uint256`.\\n     *\\n     * Requirements:\\n     *\\n     * - `from` and `to` cannot be the zero address.\\n     * - `from` must have a balance of at least `amount`.\\n     * - the caller must have allowance for ``from``'s tokens of at least\\n     * `amount`.\\n     */\\n    function transferFrom(address from, address to, uint256 amount) public virtual override returns (bool) {\\n        address spender = _msgSender();\\n        _spendAllowance(from, spender, amount);\\n        _transfer(from, to, amount);\\n        return true;\\n    }\\n\\n    /**\\n     * @dev Atomically increases the allowance granted to `spender` by the caller.\\n     *\\n     * This is an alternative to {approve} that can be used as a mitigation for\\n     * problems described in {IERC20-approve}.\\n     *\\n     * Emits an {Approval} event indicating the updated allowance.\\n     *\\n     * Requirements:\\n     *\\n     * - `spender` cannot be the zero address.\\n     */\\n    function increaseAllowance(address spender, uint256 addedValue) public virtual returns (bool) {\\n        address owner = _msgSender();\\n        _approve(owner, spender, allowance(owner, spender) + addedValue);\\n        return true;\\n    }\\n\\n    /**\\n     * @dev Atomically decreases the allowance granted to `spender` by the caller.\\n     *\\n     * This is an alternative to {approve} that can be used as a mitigation for\\n     * problems described in {IERC20-approve}.\\n     *\\n     * Emits an {Approval} event indicating the updated allowance.\\n     *\\n     * Requirements:\\n     *\\n     * - `spender` cannot be the zero address.\\n     * - `spender` must have allowance for the caller of at least\\n     * `subtractedValue`.\\n     */\\n    function decreaseAllowance(address spender, uint256 subtractedValue) public virtual returns (bool) {\\n        address owner = _msgSender();\\n        uint256 currentAllowance = allowance(owner, spender);\\n        require(currentAllowance >= subtractedValue, \\\"ERC20: decreased allowance below zero\\\");\\n        unchecked {\\n            _approve(owner, spender, currentAllowance - subtractedValue);\\n        }\\n\\n        return true;\\n    }\\n\\n    /**\\n     * @dev Moves `amount` of tokens from `from` to `to`.\\n     *\\n     * This internal function is equivalent to {transfer}, and can be used to\\n     * e.g. implement automatic token fees, slashing mechanisms, etc.\\n     *\\n     * Emits a {Transfer} event.\\n     *\\n     * Requirements:\\n     *\\n     * - `from` cannot be the zero address.\\n     * - `to` cannot be the zero address.\\n     * - `from` must have a balance of at least `amount`.\\n     */\\n    function _transfer(address from, address to, uint256 amount) internal virtual {\\n        require(from != address(0), \\\"ERC20: transfer from the zero address\\\");\\n        require(to != address(0), \\\"ERC20: transfer to the zero address\\\");\\n\\n        _beforeTokenTransfer(from, to, amount);\\n\\n        uint256 fromBalance = _balances[from];\\n        require(fromBalance >= amount, \\\"ERC20: transfer amount exceeds balance\\\");\\n        unchecked {\\n            _balances[from] = fromBalance - amount;\\n            // Overflow not possible: the sum of all balances is capped by totalSupply, and the sum is preserved by\\n            // decrementing then incrementing.\\n            _balances[to] += amount;\\n        }\\n\\n        emit Transfer(from, to, amount);\\n\\n        _afterTokenTransfer(from, to, amount);\\n    }\\n\\n    /** @dev Creates `amount` tokens and assigns them to `account`, increasing\\n     * the total supply.\\n     *\\n     * Emits a {Transfer} event with `from` set to the zero address.\\n     *\\n     * Requirements:\\n     *\\n     * - `account` cannot be the zero address.\\n     */\\n    function _mint(address account, uint256 amount) internal virtual {\\n        require(account != address(0), \\\"ERC20: mint to the zero address\\\");\\n\\n        _beforeTokenTransfer(address(0), account, amount);\\n\\n        _totalSupply += amount;\\n        unchecked {\\n            // Overflow not possible: balance + amount is at most totalSupply + amount, which is checked above.\\n            _balances[account] += amount;\\n        }\\n        emit Transfer(address(0), account, amount);\\n\\n        _afterTokenTransfer(address(0), account, amount);\\n    }\\n\\n    /**\\n     * @dev Destroys `amount` tokens from `account`, reducing the\\n     * total supply.\\n     *\\n     * Emits a {Transfer} event with `to` set to the zero address.\\n     *\\n     * Requirements:\\n     *\\n     * - `account` cannot be the zero address.\\n     * - `account` must have at least `amount` tokens.\\n     */\\n    function _burn(address account, uint256 amount) internal virtual {\\n        require(account != address(0), \\\"ERC20: burn from the zero address\\\");\\n\\n        _beforeTokenTransfer(account, address(0), amount);\\n\\n        uint256 accountBalance = _balances[account];\\n        require(accountBalance >= amount, \\\"ERC20: burn amount exceeds balance\\\");\\n        unchecked {\\n            _balances[account] = accountBalance - amount;\\n            // Overflow not possible: amount <= accountBalance <= totalSupply.\\n            _totalSupply -= amount;\\n        }\\n\\n        emit Transfer(account, address(0), amount);\\n\\n        _afterTokenTransfer(account, address(0), amount);\\n    }\\n\\n    /**\\n     * @dev Sets `amount` as the allowance of `spender` over the `owner` s tokens.\\n     *\\n     * This internal function is equivalent to `approve`, and can be used to\\n     * e.g. set automatic allowances for certain subsystems, etc.\\n     *\\n     * Emits an {Approval} event.\\n     *\\n     * Requirements:\\n     *\\n     * - `owner` cannot be the zero address.\\n     * - `spender` cannot be the zero address.\\n     */\\n    function _approve(address owner, address spender, uint256 amount) internal virtual {\\n        require(owner != address(0), \\\"ERC20: approve from the zero address\\\");\\n        require(spender != address(0), \\\"ERC20: approve to the zero address\\\");\\n\\n        _allowances[owner][spender] = amount;\\n        emit Approval(owner, spender, amount);\\n    }\\n\\n    /**\\n     * @dev Updates `owner` s allowance for `spender` based on spent `amount`.\\n     *\\n     * Does not update the allowance amount in case of infinite allowance.\\n     * Revert if not enough allowance is available.\\n     *\\n     * Might emit an {Approval} event.\\n     */\\n    function _spendAllowance(address owner, address spender, uint256 amount) internal virtual {\\n        uint256 currentAllowance = allowance(owner, spender);\\n        if (currentAllowance != type(uint256).max) {\\n            require(currentAllowance >= amount, \\\"ERC20: insufficient allowance\\\");\\n            unchecked {\\n                _approve(owner, spender, currentAllowance - amount);\\n            }\\n        }\\n    }\\n\\n    /**\\n     * @dev Hook that is called before any transfer of tokens. This includes\\n     * minting and burning.\\n     *\\n     * Calling conditions:\\n     *\\n     * - when `from` and `to` are both non-zero, `amount` of ``from``'s tokens\\n     * will be transferred to `to`.\\n     * - when `from` is zero, `amount` tokens will be minted for `to`.\\n     * - when `to` is zero, `amount` of ``from``'s tokens will be burned.\\n     * - `from` and `to` are never both zero.\\n     *\\n     * To learn more about hooks, head to xref:ROOT:extending-contracts.adoc#using-hooks[Using Hooks].\\n     */\\n    function _beforeTokenTransfer(address from, address to, uint256 amount) internal virtual {}\\n\\n    /**\\n     * @dev Hook that is called after any transfer of tokens. This includes\\n     * minting and burning.\\n     *\\n     * Calling conditions:\\n     *\\n     * - when `from` and `to` are both non-zero, `amount` of ``from``'s tokens\\n     * has been transferred to `to`.\\n     * - when `from` is zero, `amount` tokens have been minted for `to`.\\n     * - when `to` is zero, `amount` of ``from``'s tokens have been burned.\\n     * - `from` and `to` are never both zero.\\n     *\\n     * To learn more about hooks, head to xref:ROOT:extending-contracts.adoc#using-hooks[Using Hooks].\\n     */\\n    function _afterTokenTransfer(address from, address to, uint256 amount) internal virtual {}\\n}\\n\"},\"@openzeppelin/contracts/utils/Counters.sol\":{\"content\":\"// SPDX-License-Identifier: MIT\\n// OpenZeppelin Contracts v4.4.1 (utils/Counters.sol)\\n\\npragma solidity ^0.8.0;\\n\\n/**\\n * @title Counters\\n * @author Matt Condon (@shrugs)\\n * @dev Provides counters that can only be incremented, decremented or reset. This can be used e.g. to track the number\\n * of elements in a mapping, issuing ERC721 ids, or counting request ids.\\n *\\n * Include with `using Counters for Counters.Counter;`\\n */\\nlibrary Counters {\\n    struct Counter {\\n        // This variable should never be directly accessed by users of the library: interactions must be restricted to\\n        // the library's function. As of Solidity v0.5.2, this cannot be enforced, though there is a proposal to add\\n        // this feature: see https://github.com/ethereum/solidity/issues/4637\\n        uint256 _value; // default: 0\\n    }\\n\\n    function current(Counter storage counter) internal view returns (uint256) {\\n        return counter._value;\\n    }\\n\\n    function increment(Counter storage counter) internal {\\n        unchecked {\\n            counter._value += 1;\\n        }\\n    }\\n\\n    function decrement(Counter storage counter) internal {\\n        uint256 value = counter._value;\\n        require(value > 0, \\\"Counter: decrement overflow\\\");\\n        unchecked {\\n            counter._value = value - 1;\\n        }\\n    }\\n\\n    function reset(Counter storage counter) internal {\\n        counter._value = 0;\\n    }\\n}\\n\"},\"@openzeppelin/contracts/token/ERC721/extensions/ERC721URIStorage.sol\":{\"content\":\"// SPDX-License-Identifier: MIT\\n// OpenZeppelin Contracts (last updated v4.9.0) (token/ERC721/extensions/ERC721URIStorage.sol)\\n\\npragma solidity ^0.8.0;\\n\\nimport \\\"../ERC721.sol\\\";\\nimport \\\"../../../interfaces/IERC4906.sol\\\";\\n\\n/**\\n * @dev ERC721 token with storage based token URI management.\\n */\\nabstract contract ERC721URIStorage is IERC4906, ERC721 {\\n    using Strings for uint256;\\n\\n    // Optional mapping for token URIs\\n    mapping(uint256 => string) private _tokenURIs;\\n\\n    /**\\n     * @dev See {IERC165-supportsInterface}\\n     */\\n    function supportsInterface(bytes4 interfaceId) public view virtual override(ERC721, IERC165) returns (bool) {\\n        return interfaceId == bytes4(0x49064906) || super.supportsInterface(interfaceId);\\n    }\\n\\n    /**\\n     * @dev See {IERC721Metadata-tokenURI}.\\n     */\\n    function tokenURI(uint256 tokenId) public view virtual override returns (string memory) {\\n        _requireMinted(tokenId);\\n\\n        string memory _tokenURI = _tokenURIs[tokenId];\\n        string memory base = _baseURI();\\n\\n        // If there is no base URI, return the token URI.\\n        if (bytes(base).length == 0) {\\n            return _tokenURI;\\n        }\\n        // If both are set, concatenate the baseURI and tokenURI (via abi.encodePacked).\\n        if (bytes(_tokenURI).length > 0) {\\n            return string(abi.encodePacked(base, _tokenURI));\\n        }\\n\\n        return super.tokenURI(tokenId);\\n    }\\n\\n    /**\\n     * @dev Sets `_tokenURI` as the tokenURI of `tokenId`.\\n     *\\n     * Emits {MetadataUpdate}.\\n     *\\n     * Requirements:\\n     *\\n     * - `tokenId` must exist.\\n     */\\n    function _setTokenURI(uint256 tokenId, string memory _tokenURI) internal virtual {\\n        require(_exists(tokenId), \\\"ERC721URIStorage: URI set of nonexistent token\\\");\\n        _tokenURIs[tokenId] = _tokenURI;\\n\\n        emit MetadataUpdate(tokenId);\\n    }\\n\\n    /**\\n     * @dev See {ERC721-_burn}. This override additionally checks to see if a\\n     * token-specific URI was set for the token, and if so, it deletes the token URI from\\n     * the storage mapping.\\n     */\\n    function _burn(uint256 tokenId) internal virtual override {\\n        super._burn(tokenId);\\n\\n        if (bytes(_tokenURIs[tokenId]).length != 0) {\\n            delete _tokenURIs[tokenId];\\n        }\\n    }\\n}\\n\"},\"@openzeppelin/contracts/token/ERC721/ERC721.sol\":{\"content\":\"// SPDX-License-Identifier: MIT\\n// OpenZeppelin Contracts (last updated v4.9.0) (token/ERC721/ERC721.sol)\\n\\npragma solidity ^0.8.0;\\n\\nimport \\\"./IERC721.sol\\\";\\nimport \\\"./IERC721Receiver.sol\\\";\\nimport \\\"./extensions/IERC721Metadata.sol\\\";\\nimport \\\"../../utils/Address.sol\\\";\\nimport \\\"../../utils/Context.sol\\\";\\nimport \\\"../../utils/Strings.sol\\\";\\nimport \\\"../../utils/introspection/ERC165.sol\\\";\\n\\n/**\\n * @dev Implementation of https://eips.ethereum.org/EIPS/eip-721[ERC721] Non-Fungible Token Standard, including\\n * the Metadata extension, but not including the Enumerable extension, which is available separately as\\n * {ERC721Enumerable}.\\n */\\ncontract ERC721 is Context, ERC165, IERC721, IERC721Metadata {\\n    using Address for address;\\n    using Strings for uint256;\\n\\n    // Token name\\n    string private _name;\\n\\n    // Token symbol\\n    string private _symbol;\\n\\n    // Mapping from token ID to owner address\\n    mapping(uint256 => address) private _owners;\\n\\n    // Mapping owner address to token count\\n    mapping(address => uint256) private _balances;\\n\\n    // Mapping from token ID to approved address\\n    mapping(uint256 => address) private _tokenApprovals;\\n\\n    // Mapping from owner to operator approvals\\n    mapping(address => mapping(address => bool)) private _operatorApprovals;\\n\\n    /**\\n     * @dev Initializes the contract by setting a `name` and a `symbol` to the token collection.\\n     */\\n    constructor(string memory name_, string memory symbol_) {\\n        _name = name_;\\n        _symbol = symbol_;\\n    }\\n\\n    /**\\n     * @dev See {IERC165-supportsInterface}.\\n     */\\n    function supportsInterface(bytes4 interfaceId) public view virtual override(ERC165, IERC165) returns (bool) {\\n        return\\n            interfaceId == type(IERC721).interfaceId ||\\n            interfaceId == type(IERC721Metadata).interfaceId ||\\n            super.supportsInterface(interfaceId);\\n    }\\n\\n    /**\\n     * @dev See {IERC721-balanceOf}.\\n     */\\n    function balanceOf(address owner) public view virtual override returns (uint256) {\\n        require(owner != address(0), \\\"ERC721: address zero is not a valid owner\\\");\\n        return _balances[owner];\\n    }\\n\\n    /**\\n     * @dev See {IERC721-ownerOf}.\\n     */\\n    function ownerOf(uint256 tokenId) public view virtual override returns (address) {\\n        address owner = _ownerOf(tokenId);\\n        require(owner != address(0), \\\"ERC721: invalid token ID\\\");\\n        return owner;\\n    }\\n\\n    /**\\n     * @dev See {IERC721Metadata-name}.\\n     */\\n    function name() public view virtual override returns (string memory) {\\n        return _name;\\n    }\\n\\n    /**\\n     * @dev See {IERC721Metadata-symbol}.\\n     */\\n    function symbol() public view virtual override returns (string memory) {\\n        return _symbol;\\n    }\\n\\n    /**\\n     * @dev See {IERC721Metadata-tokenURI}.\\n     */\\n    function tokenURI(uint256 tokenId) public view virtual override returns (string memory) {\\n        _requireMinted(tokenId);\\n\\n        string memory baseURI = _baseURI();\\n        return bytes(baseURI).length > 0 ? string(abi.encodePacked(baseURI, tokenId.toString())) : \\\"\\\";\\n    }\\n\\n    /**\\n     * @dev Base URI for computing {tokenURI}. If set, the resulting URI for each\\n     * token will be the concatenation of the `baseURI` and the `tokenId`. Empty\\n     * by default, can be overridden in child contracts.\\n     */\\n    function _baseURI() internal view virtual returns (string memory) {\\n        return \\\"\\\";\\n    }\\n\\n    /**\\n     * @dev See {IERC721-approve}.\\n     */\\n    function approve(address to, uint256 tokenId) public virtual override {\\n        address owner = ERC721.ownerOf(tokenId);\\n        require(to != owner, \\\"ERC721: approval to current owner\\\");\\n\\n        require(\\n            _msgSender() == owner || isApprovedForAll(owner, _msgSender()),\\n            \\\"ERC721: approve caller is not token owner or approved for all\\\"\\n        );\\n\\n        _approve(to, tokenId);\\n    }\\n\\n    /**\\n     * @dev See {IERC721-getApproved}.\\n     */\\n    function getApproved(uint256 tokenId) public view virtual override returns (address) {\\n        _requireMinted(tokenId);\\n\\n        return _tokenApprovals[tokenId];\\n    }\\n\\n    /**\\n     * @dev See {IERC721-setApprovalForAll}.\\n     */\\n    function setApprovalForAll(address operator, bool approved) public virtual override {\\n        _setApprovalForAll(_msgSender(), operator, approved);\\n    }\\n\\n    /**\\n     * @dev See {IERC721-isApprovedForAll}.\\n     */\\n    function isApprovedForAll(address owner, address operator) public view virtual override returns (bool) {\\n        return _operatorApprovals[owner][operator];\\n    }\\n\\n    /**\\n     * @dev See {IERC721-transferFrom}.\\n     */\\n    function transferFrom(address from, address to, uint256 tokenId) public virtual override {\\n        //solhint-disable-next-line max-line-length\\n        require(_isApprovedOrOwner(_msgSender(), tokenId), \\\"ERC721: caller is not token owner or approved\\\");\\n\\n        _transfer(from, to, tokenId);\\n    }\\n\\n    /**\\n     * @dev See {IERC721-safeTransferFrom}.\\n     */\\n    function safeTransferFrom(address from, address to, uint256 tokenId) public virtual override {\\n        safeTransferFrom(from, to, tokenId, \\\"\\\");\\n    }\\n\\n    /**\\n     * @dev See {IERC721-safeTransferFrom}.\\n     */\\n    function safeTransferFrom(address from, address to, uint256 tokenId, bytes memory data) public virtual override {\\n        require(_isApprovedOrOwner(_msgSender(), tokenId), \\\"ERC721: caller is not token owner or approved\\\");\\n        _safeTransfer(from, to, tokenId, data);\\n    }\\n\\n    /**\\n     * @dev Safely transfers `tokenId` token from `from` to `to`, checking first that contract recipients\\n     * are aware of the ERC721 protocol to prevent tokens from being forever locked.\\n     *\\n     * `data` is additional data, it has no specified format and it is sent in call to `to`.\\n     *\\n     * This internal function is equivalent to {safeTransferFrom}, and can be used to e.g.\\n     * implement alternative mechanisms to perform token transfer, such as signature-based.\\n     *\\n     * Requirements:\\n     *\\n     * - `from` cannot be the zero address.\\n     * - `to` cannot be the zero address.\\n     * - `tokenId` token must exist and be owned by `from`.\\n     * - If `to` refers to a smart contract, it must implement {IERC721Receiver-onERC721Received}, which is called upon a safe transfer.\\n     *\\n     * Emits a {Transfer} event.\\n     */\\n    function _safeTransfer(address from, address to, uint256 tokenId, bytes memory data) internal virtual {\\n        _transfer(from, to, tokenId);\\n        require(_checkOnERC721Received(from, to, tokenId, data), \\\"ERC721: transfer to non ERC721Receiver implementer\\\");\\n    }\\n\\n    /**\\n     * @dev Returns the owner of the `tokenId`. Does NOT revert if token doesn't exist\\n     */\\n    function _ownerOf(uint256 tokenId) internal view virtual returns (address) {\\n        return _owners[tokenId];\\n    }\\n\\n    /**\\n     * @dev Returns whether `tokenId` exists.\\n     *\\n     * Tokens can be managed by their owner or approved accounts via {approve} or {setApprovalForAll}.\\n     *\\n     * Tokens start existing when they are minted (`_mint`),\\n     * and stop existing when they are burned (`_burn`).\\n     */\\n    function _exists(uint256 tokenId) internal view virtual returns (bool) {\\n        return _ownerOf(tokenId) != address(0);\\n    }\\n\\n    /**\\n     * @dev Returns whether `spender` is allowed to manage `tokenId`.\\n     *\\n     * Requirements:\\n     *\\n     * - `tokenId` must exist.\\n     */\\n    function _isApprovedOrOwner(address spender, uint256 tokenId) internal view virtual returns (bool) {\\n        address owner = ERC721.ownerOf(tokenId);\\n        return (spender == owner || isApprovedForAll(owner, spender) || getApproved(tokenId) == spender);\\n    }\\n\\n    /**\\n     * @dev Safely mints `tokenId` and transfers it to `to`.\\n     *\\n     * Requirements:\\n     *\\n     * - `tokenId` must not exist.\\n     * - If `to` refers to a smart contract, it must implement {IERC721Receiver-onERC721Received}, which is called upon a safe transfer.\\n     *\\n     * Emits a {Transfer} event.\\n     */\\n    function _safeMint(address to, uint256 tokenId) internal virtual {\\n        _safeMint(to, tokenId, \\\"\\\");\\n    }\\n\\n    /**\\n     * @dev Same as {xref-ERC721-_safeMint-address-uint256-}[`_safeMint`], with an additional `data` parameter which is\\n     * forwarded in {IERC721Receiver-onERC721Received} to contract recipients.\\n     */\\n    function _safeMint(address to, uint256 tokenId, bytes memory data) internal virtual {\\n        _mint(to, tokenId);\\n        require(\\n            _checkOnERC721Received(address(0), to, tokenId, data),\\n            \\\"ERC721: transfer to non ERC721Receiver implementer\\\"\\n        );\\n    }\\n\\n    /**\\n     * @dev Mints `tokenId` and transfers it to `to`.\\n     *\\n     * WARNING: Usage of this method is discouraged, use {_safeMint} whenever possible\\n     *\\n     * Requirements:\\n     *\\n     * - `tokenId` must not exist.\\n     * - `to` cannot be the zero address.\\n     *\\n     * Emits a {Transfer} event.\\n     */\\n    function _mint(address to, uint256 tokenId) internal virtual {\\n        require(to != address(0), \\\"ERC721: mint to the zero address\\\");\\n        require(!_exists(tokenId), \\\"ERC721: token already minted\\\");\\n\\n        _beforeTokenTransfer(address(0), to, tokenId, 1);\\n\\n        // Check that tokenId was not minted by `_beforeTokenTransfer` hook\\n        require(!_exists(tokenId), \\\"ERC721: token already minted\\\");\\n\\n        unchecked {\\n            // Will not overflow unless all 2**256 token ids are minted to the same owner.\\n            // Given that tokens are minted one by one, it is impossible in practice that\\n            // this ever happens. Might change if we allow batch minting.\\n            // The ERC fails to describe this case.\\n            _balances[to] += 1;\\n        }\\n\\n        _owners[tokenId] = to;\\n\\n        emit Transfer(address(0), to, tokenId);\\n\\n        _afterTokenTransfer(address(0), to, tokenId, 1);\\n    }\\n\\n    /**\\n     * @dev Destroys `tokenId`.\\n     * The approval is cleared when the token is burned.\\n     * This is an internal function that does not check if the sender is authorized to operate on the token.\\n     *\\n     * Requirements:\\n     *\\n     * - `tokenId` must exist.\\n     *\\n     * Emits a {Transfer} event.\\n     */\\n    function _burn(uint256 tokenId) internal virtual {\\n        address owner = ERC721.ownerOf(tokenId);\\n\\n        _beforeTokenTransfer(owner, address(0), tokenId, 1);\\n\\n        // Update ownership in case tokenId was transferred by `_beforeTokenTransfer` hook\\n        owner = ERC721.ownerOf(tokenId);\\n\\n        // Clear approvals\\n        delete _tokenApprovals[tokenId];\\n\\n        unchecked {\\n            // Cannot overflow, as that would require more tokens to be burned/transferred\\n            // out than the owner initially received through minting and transferring in.\\n            _balances[owner] -= 1;\\n        }\\n        delete _owners[tokenId];\\n\\n        emit Transfer(owner, address(0), tokenId);\\n\\n        _afterTokenTransfer(owner, address(0), tokenId, 1);\\n    }\\n\\n    /**\\n     * @dev Transfers `tokenId` from `from` to `to`.\\n     *  As opposed to {transferFrom}, this imposes no restrictions on msg.sender.\\n     *\\n     * Requirements:\\n     *\\n     * - `to` cannot be the zero address.\\n     * - `tokenId` token must be owned by `from`.\\n     *\\n     * Emits a {Transfer} event.\\n     */\\n    function _transfer(address from, address to, uint256 tokenId) internal virtual {\\n        require(ERC721.ownerOf(tokenId) == from, \\\"ERC721: transfer from incorrect owner\\\");\\n        require(to != address(0), \\\"ERC721: transfer to the zero address\\\");\\n\\n        _beforeTokenTransfer(from, to, tokenId, 1);\\n\\n        // Check that tokenId was not transferred by `_beforeTokenTransfer` hook\\n        require(ERC721.ownerOf(tokenId) == from, \\\"ERC721: transfer from incorrect owner\\\");\\n\\n        // Clear approvals from the previous owner\\n        delete _tokenApprovals[tokenId];\\n\\n        unchecked {\\n            // `_balances[from]` cannot overflow for the same reason as described in `_burn`:\\n            // `from`'s balance is the number of token held, which is at least one before the current\\n            // transfer.\\n            // `_balances[to]` could overflow in the conditions described in `_mint`. That would require\\n            // all 2**256 token ids to be minted, which in practice is impossible.\\n            _balances[from] -= 1;\\n            _balances[to] += 1;\\n        }\\n        _owners[tokenId] = to;\\n\\n        emit Transfer(from, to, tokenId);\\n\\n        _afterTokenTransfer(from, to, tokenId, 1);\\n    }\\n\\n    /**\\n     * @dev Approve `to` to operate on `tokenId`\\n     *\\n     * Emits an {Approval} event.\\n     */\\n    function _approve(address to, uint256 tokenId) internal virtual {\\n        _tokenApprovals[tokenId] = to;\\n        emit Approval(ERC721.ownerOf(tokenId), to, tokenId);\\n    }\\n\\n    /**\\n     * @dev Approve `operator` to operate on all of `owner` tokens\\n     *\\n     * Emits an {ApprovalForAll} event.\\n     */\\n    function _setApprovalForAll(address owner, address operator, bool approved) internal virtual {\\n        require(owner != operator, \\\"ERC721: approve to caller\\\");\\n        _operatorApprovals[owner][operator] = approved;\\n        emit ApprovalForAll(owner, operator, approved);\\n    }\\n\\n    /**\\n     * @dev Reverts if the `tokenId` has not been minted yet.\\n     */\\n    function _requireMinted(uint256 tokenId) internal view virtual {\\n        require(_exists(tokenId), \\\"ERC721: invalid token ID\\\");\\n    }\\n\\n    /**\\n     * @dev Internal function to invoke {IERC721Receiver-onERC721Received} on a target address.\\n     * The call is not executed if the target address is not a contract.\\n     *\\n     * @param from address representing the previous owner of the given token ID\\n     * @param to target address that will receive the tokens\\n     * @param tokenId uint256 ID of the token to be transferred\\n     * @param data bytes optional data to send along with the call\\n     * @return bool whether the call correctly returned the expected magic value\\n     */\\n    function _checkOnERC721Received(\\n        address from,\\n        address to,\\n        uint256 tokenId,\\n        bytes memory data\\n    ) private returns (bool) {\\n        if (to.isContract()) {\\n            try IERC721Receiver(to).onERC721Received(_msgSender(), from, tokenId, data) returns (bytes4 retval) {\\n                return retval == IERC721Receiver.onERC721Received.selector;\\n            } catch (bytes memory reason) {\\n                if (reason.length == 0) {\\n                    revert(\\\"ERC721: transfer to non ERC721Receiver implementer\\\");\\n                } else {\\n                    /// @solidity memory-safe-assembly\\n                    assembly {\\n                        revert(add(32, reason), mload(reason))\\n                    }\\n                }\\n            }\\n        } else {\\n            return true;\\n        }\\n    }\\n\\n    /**\\n     * @dev Hook that is called before any token transfer. This includes minting and burning. If {ERC721Consecutive} is\\n     * used, the hook may be called as part of a consecutive (batch) mint, as indicated by `batchSize` greater than 1.\\n     *\\n     * Calling conditions:\\n     *\\n     * - When `from` and `to` are both non-zero, ``from``'s tokens will be transferred to `to`.\\n     * - When `from` is zero, the tokens will be minted for `to`.\\n     * - When `to` is zero, ``from``'s tokens will be burned.\\n     * - `from` and `to` are never both zero.\\n     * - `batchSize` is non-zero.\\n     *\\n     * To learn more about hooks, head to xref:ROOT:extending-contracts.adoc#using-hooks[Using Hooks].\\n     */\\n    function _beforeTokenTransfer(address from, address to, uint256 firstTokenId, uint256 batchSize) internal virtual {}\\n\\n    /**\\n     * @dev Hook that is called after any token transfer. This includes minting and burning. If {ERC721Consecutive} is\\n     * used, the hook may be called as part of a consecutive (batch) mint, as indicated by `batchSize` greater than 1.\\n     *\\n     * Calling conditions:\\n     *\\n     * - When `from` and `to` are both non-zero, ``from``'s tokens were transferred to `to`.\\n     * - When `from` is zero, the tokens were minted for `to`.\\n     * - When `to` is zero, ``from``'s tokens were burned.\\n     * - `from` and `to` are never both zero.\\n     * - `batchSize` is non-zero.\\n     *\\n     * To learn more about hooks, head to xref:ROOT:extending-contracts.adoc#using-hooks[Using Hooks].\\n     */\\n    function _afterTokenTransfer(address from, address to, uint256 firstTokenId, uint256 batchSize) internal virtual {}\\n\\n    /**\\n     * @dev Unsafe write access to the balances, used by extensions that \\\"mint\\\" tokens using an {ownerOf} override.\\n     *\\n     * WARNING: Anyone calling this MUST ensure that the balances remain consistent with the ownership. The invariant\\n     * being that for any address `a` the value returned by `balanceOf(a)` must be equal to the number of tokens such\\n     * that `ownerOf(tokenId)` is `a`.\\n     */\\n    // solhint-disable-next-line func-name-mixedcase\\n    function __unsafe_increaseBalance(address account, uint256 amount) internal {\\n        _balances[account] += amount;\\n    }\\n}\\n\"},\"@openzeppelin/contracts/utils/Context.sol\":{\"content\":\"// SPDX-License-Identifier: MIT\\n// OpenZeppelin Contracts v4.4.1 (utils/Context.sol)\\n\\npragma solidity ^0.8.0;\\n\\n/**\\n * @dev Provides information about the current execution context, including the\\n * sender of the transaction and its data. While these are generally available\\n * via msg.sender and msg.data, they should not be accessed in such a direct\\n * manner, since when dealing with meta-transactions the account sending and\\n * paying for execution may not be the actual sender (as far as an application\\n * is concerned).\\n *\\n * This contract is only required for intermediate, library-like contracts.\\n */\\nabstract contract Context {\\n    function _msgSender() internal view virtual returns (address) {\\n        return msg.sender;\\n    }\\n\\n    function _msgData() internal view virtual returns (bytes calldata) {\\n        return msg.data;\\n    }\\n}\\n\"},\"@openzeppelin/contracts/token/ERC20/extensions/IERC20Metadata.sol\":{\"content\":\"// SPDX-License-Identifier: MIT\\n// OpenZeppelin Contracts v4.4.1 (token/ERC20/extensions/IERC20Metadata.sol)\\n\\npragma solidity ^0.8.0;\\n\\nimport \\\"../IERC20.sol\\\";\\n\\n/**\\n * @dev Interface for the optional metadata functions from the ERC20 standard.\\n *\\n * _Available since v4.1._\\n */\\ninterface IERC20Metadata is IERC20 {\\n    /**\\n     * @dev Returns the name of the token.\\n     */\\n    function name() external view returns (string memory);\\n\\n    /**\\n     * @dev Returns the symbol of the token.\\n     */\\n    function symbol() external view returns (string memory);\\n\\n    /**\\n     * @dev Returns the decimals places of the token.\\n     */\\n    function decimals() external view returns (uint8);\\n}\\n\"},\"@openzeppelin/contracts/token/ERC20/IERC20.sol\":{\"content\":\"// SPDX-License-Identifier: MIT\\n// OpenZeppelin Contracts (last updated v4.9.0) (token/ERC20/IERC20.sol)\\n\\npragma solidity ^0.8.0;\\n\\n/**\\n * @dev Interface of the ERC20 standard as defined in the EIP.\\n */\\ninterface IERC20 {\\n    /**\\n     * @dev Emitted when `value` tokens are moved from one account (`from`) to\\n     * another (`to`).\\n     *\\n     * Note that `value` may be zero.\\n     */\\n    event Transfer(address indexed from, address indexed to, uint256 value);\\n\\n    /**\\n     * @dev Emitted when the allowance of a `spender` for an `owner` is set by\\n     * a call to {approve}. `value` is the new allowance.\\n     */\\n    event Approval(address indexed owner, address indexed spender, uint256 value);\\n\\n    /**\\n     * @dev Returns the amount of tokens in existence.\\n     */\\n    function totalSupply() external view returns (uint256);\\n\\n    /**\\n     * @dev Returns the amount of tokens owned by `account`.\\n     */\\n    function balanceOf(address account) external view returns (uint256);\\n\\n    /**\\n     * @dev Moves `amount` tokens from the caller's account to `to`.\\n     *\\n     * Returns a boolean value indicating whether the operation succeeded.\\n     *\\n     * Emits a {Transfer} event.\\n     */\\n    function transfer(address to, uint256 amount) external returns (bool);\\n\\n    /**\\n     * @dev Returns the remaining number of tokens that `spender` will be\\n     * allowed to spend on behalf of `owner` through {transferFrom}. This is\\n     * zero by default.\\n     *\\n     * This value changes when {approve} or {transferFrom} are called.\\n     */\\n    function allowance(address owner, address spender) external view returns (uint256);\\n\\n    /**\\n     * @dev Sets `amount` as the allowance of `spender` over the caller's tokens.\\n     *\\n     * Returns a boolean value indicating whether the operation succeeded.\\n     *\\n     * IMPORTANT: Beware that changing an allowance with this method brings the risk\\n     * that someone may use both the old and the new allowance by unfortunate\\n     * transaction ordering. One possible solution to mitigate this race\\n     * condition is to first reduce the spender's allowance to 0 and set the\\n     * desired value afterwards:\\n     * https://github.com/ethereum/EIPs/issues/20#issuecomment-263524729\\n     *\\n     * Emits an {Approval} event.\\n     */\\n    function approve(address spender, uint256 amount) external returns (bool);\\n\\n    /**\\n     * @dev Moves `amount` tokens from `from` to `to` using the\\n     * allowance mechanism. `amount` is then deducted from the caller's\\n     * allowance.\\n     *\\n     * Returns a boolean value indicating whether the operation succeeded.\\n     *\\n     * Emits a {Transfer} event.\\n     */\\n    function transferFrom(address from, address to, uint256 amount) external returns (bool);\\n}\\n\"},\"@openzeppelin/contracts/interfaces/IERC4906.sol\":{\"content\":\"// SPDX-License-Identifier: MIT\\n// OpenZeppelin Contracts (last updated v4.9.0) (interfaces/IERC4906.sol)\\n\\npragma solidity ^0.8.0;\\n\\nimport \\\"./IERC165.sol\\\";\\nimport \\\"./IERC721.sol\\\";\\n\\n/// @title EIP-721 Metadata Update Extension\\ninterface IERC4906 is IERC165, IERC721 {\\n    /// @dev This event emits when the metadata of a token is changed.\\n    /// So that the third-party platforms such as NFT market could\\n    /// timely update the images and related attributes of the NFT.\\n    event MetadataUpdate(uint256 _tokenId);\\n\\n    /// @dev This event emits when the metadata of a range of tokens is changed.\\n    /// So that the third-party platforms such as NFT market could\\n    /// timely update the images and related attributes of the NFTs.\\n    event BatchMetadataUpdate(uint256 _fromTokenId, uint256 _toTokenId);\\n}\\n\"},\"@openzeppelin/contracts/utils/introspection/ERC165.sol\":{\"content\":\"// SPDX-License-Identifier: MIT\\n// OpenZeppelin Contracts v4.4.1 (utils/introspection/ERC165.sol)\\n\\npragma solidity ^0.8.0;\\n\\nimport \\\"./IERC165.sol\\\";\\n\\n/**\\n * @dev Implementation of the {IERC165} interface.\\n *\\n * Contracts that want to implement ERC165 should inherit from this contract and override {supportsInterface} to check\\n * for the additional interface id that will be supported. For example:\\n *\\n * ```solidity\\n * function supportsInterface(bytes4 interfaceId) public view virtual override returns (bool) {\\n *     return interfaceId == type(MyInterface).interfaceId || super.supportsInterface(interfaceId);\\n * }\\n * ```\\n *\\n * Alternatively, {ERC165Storage} provides an easier to use but more expensive implementation.\\n */\\nabstract contract ERC165 is IERC165 {\\n    /**\\n     * @dev See {IERC165-supportsInterface}.\\n     */\\n    function supportsInterface(bytes4 interfaceId) public view virtual override returns (bool) {\\n        return interfaceId == type(IERC165).interfaceId;\\n    }\\n}\\n\"},\"@openzeppelin/contracts/utils/Strings.sol\":{\"content\":\"// SPDX-License-Identifier: MIT\\n// OpenZeppelin Contracts (last updated v4.9.0) (utils/Strings.sol)\\n\\npragma solidity ^0.8.0;\\n\\nimport \\\"./math/Math.sol\\\";\\nimport \\\"./math/SignedMath.sol\\\";\\n\\n/**\\n * @dev String operations.\\n */\\nlibrary Strings {\\n    bytes16 private constant _SYMBOLS = \\\"0123456789abcdef\\\";\\n    uint8 private constant _ADDRESS_LENGTH = 20;\\n\\n    /**\\n     * @dev Converts a `uint256` to its ASCII `string` decimal representation.\\n     */\\n    function toString(uint256 value) internal pure returns (string memory) {\\n        unchecked {\\n            uint256 length = Math.log10(value) + 1;\\n            string memory buffer = new string(length);\\n            uint256 ptr;\\n            /// @solidity memory-safe-assembly\\n            assembly {\\n                ptr := add(buffer, add(32, length))\\n            }\\n            while (true) {\\n                ptr--;\\n                /// @solidity memory-safe-assembly\\n                assembly {\\n                    mstore8(ptr, byte(mod(value, 10), _SYMBOLS))\\n                }\\n                value /= 10;\\n                if (value == 0) break;\\n            }\\n            return buffer;\\n        }\\n    }\\n\\n    /**\\n     * @dev Converts a `int256` to its ASCII `string` decimal representation.\\n     */\\n    function toString(int256 value) internal pure returns (string memory) {\\n        return string(abi.encodePacked(value < 0 ? \\\"-\\\" : \\\"\\\", toString(SignedMath.abs(value))));\\n    }\\n\\n    /**\\n     * @dev Converts a `uint256` to its ASCII `string` hexadecimal representation.\\n     */\\n    function toHexString(uint256 value) internal pure returns (string memory) {\\n        unchecked {\\n            return toHexString(value, Math.log256(value) + 1);\\n        }\\n    }\\n\\n    /**\\n     * @dev Converts a `uint256` to its ASCII `string` hexadecimal representation with fixed length.\\n     */\\n    function toHexString(uint256 value, uint256 length) internal pure returns (string memory) {\\n        bytes memory buffer = new bytes(2 * length + 2);\\n        buffer[0] = \\\"0\\\";\\n        buffer[1] = \\\"x\\\";\\n        for (uint256 i = 2 * length + 1; i > 1; --i) {\\n            buffer[i] = _SYMBOLS[value & 0xf];\\n            value >>= 4;\\n        }\\n        require(value == 0, \\\"Strings: hex length insufficient\\\");\\n        return string(buffer);\\n    }\\n\\n    /**\\n     * @dev Converts an `address` with fixed length of 20 bytes to its not checksummed ASCII `string` hexadecimal representation.\\n     */\\n    function toHexString(address addr) internal pure returns (string memory) {\\n        return toHexString(uint256(uint160(addr)), _ADDRESS_LENGTH);\\n    }\\n\\n    /**\\n     * @dev Returns true if the two strings are equal.\\n     */\\n    function equal(string memory a, string memory b) internal pure returns (bool) {\\n        return keccak256(bytes(a)) == keccak256(bytes(b));\\n    }\\n}\\n\"},\"@openzeppelin/contracts/utils/Address.sol\":{\"content\":\"// SPDX-License-Identifier: MIT\\n// OpenZeppelin Contracts (last updated v4.9.0) (utils/Address.sol)\\n\\npragma solidity ^0.8.1;\\n\\n/**\\n * @dev Collection of functions related to the address type\\n */\\nlibrary Address {\\n    /**\\n     * @dev Returns true if `account` is a contract.\\n     *\\n     * [IMPORTANT]\\n     * ====\\n     * It is unsafe to assume that an address for which this function returns\\n     * false is an externally-owned account (EOA) and not a contract.\\n     *\\n     * Among others, `isContract` will return false for the following\\n     * types of addresses:\\n     *\\n     *  - an externally-owned account\\n     *  - a contract in construction\\n     *  - an address where a contract will be created\\n     *  - an address where a contract lived, but was destroyed\\n     *\\n     * Furthermore, `isContract` will also return true if the target contract within\\n     * the same transaction is already scheduled for destruction by `SELFDESTRUCT`,\\n     * which only has an effect at the end of a transaction.\\n     * ====\\n     *\\n     * [IMPORTANT]\\n     * ====\\n     * You shouldn't rely on `isContract` to protect against flash loan attacks!\\n     *\\n     * Preventing calls from contracts is highly discouraged. It breaks composability, breaks support for smart wallets\\n     * like Gnosis Safe, and does not provide security since it can be circumvented by calling from a contract\\n     * constructor.\\n     * ====\\n     */\\n    function isContract(address account) internal view returns (bool) {\\n        // This method relies on extcodesize/address.code.length, which returns 0\\n        // for contracts in construction, since the code is only stored at the end\\n        // of the constructor execution.\\n\\n        return account.code.length > 0;\\n    }\\n\\n    /**\\n     * @dev Replacement for Solidity's `transfer`: sends `amount` wei to\\n     * `recipient`, forwarding all available gas and reverting on errors.\\n     *\\n     * https://eips.ethereum.org/EIPS/eip-1884[EIP1884] increases the gas cost\\n     * of certain opcodes, possibly making contracts go over the 2300 gas limit\\n     * imposed by `transfer`, making them unable to receive funds via\\n     * `transfer`. {sendValue} removes this limitation.\\n     *\\n     * https://consensys.net/diligence/blog/2019/09/stop-using-soliditys-transfer-now/[Learn more].\\n     *\\n     * IMPORTANT: because control is transferred to `recipient`, care must be\\n     * taken to not create reentrancy vulnerabilities. Consider using\\n     * {ReentrancyGuard} or the\\n     * https://solidity.readthedocs.io/en/v0.8.0/security-considerations.html#use-the-checks-effects-interactions-pattern[checks-effects-interactions pattern].\\n     */\\n    function sendValue(address payable recipient, uint256 amount) internal {\\n        require(address(this).balance >= amount, \\\"Address: insufficient balance\\\");\\n\\n        (bool success, ) = recipient.call{value: amount}(\\\"\\\");\\n        require(success, \\\"Address: unable to send value, recipient may have reverted\\\");\\n    }\\n\\n    /**\\n     * @dev Performs a Solidity function call using a low level `call`. A\\n     * plain `call` is an unsafe replacement for a function call: use this\\n     * function instead.\\n     *\\n     * If `target` reverts with a revert reason, it is bubbled up by this\\n     * function (like regular Solidity function calls).\\n     *\\n     * Returns the raw returned data. To convert to the expected return value,\\n     * use https://solidity.readthedocs.io/en/latest/units-and-global-variables.html?highlight=abi.decode#abi-encoding-and-decoding-functions[`abi.decode`].\\n     *\\n     * Requirements:\\n     *\\n     * - `target` must be a contract.\\n     * - calling `target` with `data` must not revert.\\n     *\\n     * _Available since v3.1._\\n     */\\n    function functionCall(address target, bytes memory data) internal returns (bytes memory) {\\n        return functionCallWithValue(target, data, 0, \\\"Address: low-level call failed\\\");\\n    }\\n\\n    /**\\n     * @dev Same as {xref-Address-functionCall-address-bytes-}[`functionCall`], but with\\n     * `errorMessage` as a fallback revert reason when `target` reverts.\\n     *\\n     * _Available since v3.1._\\n     */\\n    function functionCall(\\n        address target,\\n        bytes memory data,\\n        string memory errorMessage\\n    ) internal returns (bytes memory) {\\n        return functionCallWithValue(target, data, 0, errorMessage);\\n    }\\n\\n    /**\\n     * @dev Same as {xref-Address-functionCall-address-bytes-}[`functionCall`],\\n     * but also transferring `value` wei to `target`.\\n     *\\n     * Requirements:\\n     *\\n     * - the calling contract must have an ETH balance of at least `value`.\\n     * - the called Solidity function must be `payable`.\\n     *\\n     * _Available since v3.1._\\n     */\\n    function functionCallWithValue(address target, bytes memory data, uint256 value) internal returns (bytes memory) {\\n        return functionCallWithValue(target, data, value, \\\"Address: low-level call with value failed\\\");\\n    }\\n\\n    /**\\n     * @dev Same as {xref-Address-functionCallWithValue-address-bytes-uint256-}[`functionCallWithValue`], but\\n     * with `errorMessage` as a fallback revert reason when `target` reverts.\\n     *\\n     * _Available since v3.1._\\n     */\\n    function functionCallWithValue(\\n        address target,\\n        bytes memory data,\\n        uint256 value,\\n        string memory errorMessage\\n    ) internal returns (bytes memory) {\\n        require(address(this).balance >= value, \\\"Address: insufficient balance for call\\\");\\n        (bool success, bytes memory returndata) = target.call{value: value}(data);\\n        return verifyCallResultFromTarget(target, success, returndata, errorMessage);\\n    }\\n\\n    /**\\n     * @dev Same as {xref-Address-functionCall-address-bytes-}[`functionCall`],\\n     * but performing a static call.\\n     *\\n     * _Available since v3.3._\\n     */\\n    function functionStaticCall(address target, bytes memory data) internal view returns (bytes memory) {\\n        return functionStaticCall(target, data, \\\"Address: low-level static call failed\\\");\\n    }\\n\\n    /**\\n     * @dev Same as {xref-Address-functionCall-address-bytes-string-}[`functionCall`],\\n     * but performing a static call.\\n     *\\n     * _Available since v3.3._\\n     */\\n    function functionStaticCall(\\n        address target,\\n        bytes memory data,\\n        string memory errorMessage\\n    ) internal view returns (bytes memory) {\\n        (bool success, bytes memory returndata) = target.staticcall(data);\\n        return verifyCallResultFromTarget(target, success, returndata, errorMessage);\\n    }\\n\\n    /**\\n     * @dev Same as {xref-Address-functionCall-address-bytes-}[`functionCall`],\\n     * but performing a delegate call.\\n     *\\n     * _Available since v3.4._\\n     */\\n    function functionDelegateCall(address target, bytes memory data) internal returns (bytes memory) {\\n        return functionDelegateCall(target, data, \\\"Address: low-level delegate call failed\\\");\\n    }\\n\\n    /**\\n     * @dev Same as {xref-Address-functionCall-address-bytes-string-}[`functionCall`],\\n     * but performing a delegate call.\\n     *\\n     * _Available since v3.4._\\n     */\\n    function functionDelegateCall(\\n        address target,\\n        bytes memory data,\\n        string memory errorMessage\\n    ) internal returns (bytes memory) {\\n        (bool success, bytes memory returndata) = target.delegatecall(data);\\n        return verifyCallResultFromTarget(target, success, returndata, errorMessage);\\n    }\\n\\n    /**\\n     * @dev Tool to verify that a low level call to smart-contract was successful, and revert (either by bubbling\\n     * the revert reason or using the provided one) in case of unsuccessful call or if target was not a contract.\\n     *\\n     * _Available since v4.8._\\n     */\\n    function verifyCallResultFromTarget(\\n        address target,\\n        bool success,\\n        bytes memory returndata,\\n        string memory errorMessage\\n    ) internal view returns (bytes memory) {\\n        if (success) {\\n            if (returndata.length == 0) {\\n                // only check isContract if the call was successful and the return data is empty\\n                // otherwise we already know that it was a contract\\n                require(isContract(target), \\\"Address: call to non-contract\\\");\\n            }\\n            return returndata;\\n        } else {\\n            _revert(returndata, errorMessage);\\n        }\\n    }\\n\\n    /**\\n     * @dev Tool to verify that a low level call was successful, and revert if it wasn't, either by bubbling the\\n     * revert reason or using the provided one.\\n     *\\n     * _Available since v4.3._\\n     */\\n    function verifyCallResult(\\n        bool success,\\n        bytes memory returndata,\\n        string memory errorMessage\\n    ) internal pure returns (bytes memory) {\\n        if (success) {\\n            return returndata;\\n        } else {\\n            _revert(returndata, errorMessage);\\n        }\\n    }\\n\\n    function _revert(bytes memory returndata, string memory errorMessage) private pure {\\n        // Look for revert reason and bubble it up if present\\n        if (returndata.length > 0) {\\n            // The easiest way to bubble the revert reason is using memory via assembly\\n            /// @solidity memory-safe-assembly\\n            assembly {\\n                let returndata_size := mload(returndata)\\n                revert(add(32, returndata), returndata_size)\\n            }\\n        } else {\\n            revert(errorMessage);\\n        }\\n    }\\n}\\n\"},\"@openzeppelin/contracts/token/ERC721/extensions/IERC721Metadata.sol\":{\"content\":\"// SPDX-License-Identifier: MIT\\n// OpenZeppelin Contracts v4.4.1 (token/ERC721/extensions/IERC721Metadata.sol)\\n\\npragma solidity ^0.8.0;\\n\\nimport \\\"../IERC721.sol\\\";\\n\\n/**\\n * @title ERC-721 Non-Fungible Token Standard, optional metadata extension\\n * @dev See https://eips.ethereum.org/EIPS/eip-721\\n */\\ninterface IERC721Metadata is IERC721 {\\n    /**\\n     * @dev Returns the token collection name.\\n     */\\n    function name() external view returns (string memory);\\n\\n    /**\\n     * @dev Returns the token collection symbol.\\n     */\\n    function symbol() external view returns (string memory);\\n\\n    /**\\n     * @dev Returns the Uniform Resource Identifier (URI) for `tokenId` token.\\n     */\\n    function tokenURI(uint256 tokenId) external view returns (string memory);\\n}\\n\"},\"@openzeppelin/contracts/token/ERC721/IERC721Receiver.sol\":{\"content\":\"// SPDX-License-Identifier: MIT\\n// OpenZeppelin Contracts (last updated v4.6.0) (token/ERC721/IERC721Receiver.sol)\\n\\npragma solidity ^0.8.0;\\n\\n/**\\n * @title ERC721 token receiver interface\\n * @dev Interface for any contract that wants to support safeTransfers\\n * from ERC721 asset contracts.\\n */\\ninterface IERC721Receiver {\\n    /**\\n     * @dev Whenever an {IERC721} `tokenId` token is transferred to this contract via {IERC721-safeTransferFrom}\\n     * by `operator` from `from`, this function is called.\\n     *\\n     * It must return its Solidity selector to confirm the token transfer.\\n     * If any other value is returned or the interface is not implemented by the recipient, the transfer will be reverted.\\n     *\\n     * The selector can be obtained in Solidity with `IERC721Receiver.onERC721Received.selector`.\\n     */\\n    function onERC721Received(\\n        address operator,\\n        address from,\\n        uint256 tokenId,\\n        bytes calldata data\\n    ) external returns (bytes4);\\n}\\n\"},\"@openzeppelin/contracts/token/ERC721/IERC721.sol\":{\"content\":\"// SPDX-License-Identifier: MIT\\n// OpenZeppelin Contracts (last updated v4.9.0) (token/ERC721/IERC721.sol)\\n\\npragma solidity ^0.8.0;\\n\\nimport \\\"../../utils/introspection/IERC165.sol\\\";\\n\\n/**\\n * @dev Required interface of an ERC721 compliant contract.\\n */\\ninterface IERC721 is IERC165 {\\n    /**\\n     * @dev Emitted when `tokenId` token is transferred from `from` to `to`.\\n     */\\n    event Transfer(address indexed from, address indexed to, uint256 indexed tokenId);\\n\\n    /**\\n     * @dev Emitted when `owner` enables `approved` to manage the `tokenId` token.\\n     */\\n    event Approval(address indexed owner, address indexed approved, uint256 indexed tokenId);\\n\\n    /**\\n     * @dev Emitted when `owner` enables or disables (`approved`) `operator` to manage all of its assets.\\n     */\\n    event ApprovalForAll(address indexed owner, address indexed operator, bool approved);\\n\\n    /**\\n     * @dev Returns the number of tokens in ``owner``'s account.\\n     */\\n    function balanceOf(address owner) external view returns (uint256 balance);\\n\\n    /**\\n     * @dev Returns the owner of the `tokenId` token.\\n     *\\n     * Requirements:\\n     *\\n     * - `tokenId` must exist.\\n     */\\n    function ownerOf(uint256 tokenId) external view returns (address owner);\\n\\n    /**\\n     * @dev Safely transfers `tokenId` token from `from` to `to`.\\n     *\\n     * Requirements:\\n     *\\n     * - `from` cannot be the zero address.\\n     * - `to` cannot be the zero address.\\n     * - `tokenId` token must exist and be owned by `from`.\\n     * - If the caller is not `from`, it must be approved to move this token by either {approve} or {setApprovalForAll}.\\n     * - If `to` refers to a smart contract, it must implement {IERC721Receiver-onERC721Received}, which is called upon a safe transfer.\\n     *\\n     * Emits a {Transfer} event.\\n     */\\n    function safeTransferFrom(address from, address to, uint256 tokenId, bytes calldata data) external;\\n\\n    /**\\n     * @dev Safely transfers `tokenId` token from `from` to `to`, checking first that contract recipients\\n     * are aware of the ERC721 protocol to prevent tokens from being forever locked.\\n     *\\n     * Requirements:\\n     *\\n     * - `from` cannot be the zero address.\\n     * - `to` cannot be the zero address.\\n     * - `tokenId` token must exist and be owned by `from`.\\n     * - If the caller is not `from`, it must have been allowed to move this token by either {approve} or {setApprovalForAll}.\\n     * - If `to` refers to a smart contract, it must implement {IERC721Receiver-onERC721Received}, which is called upon a safe transfer.\\n     *\\n     * Emits a {Transfer} event.\\n     */\\n    function safeTransferFrom(address from, address to, uint256 tokenId) external;\\n\\n    /**\\n     * @dev Transfers `tokenId` token from `from` to `to`.\\n     *\\n     * WARNING: Note that the caller is responsible to confirm that the recipient is capable of receiving ERC721\\n     * or else they may be permanently lost. Usage of {safeTransferFrom} prevents loss, though the caller must\\n     * understand this adds an external call which potentially creates a reentrancy vulnerability.\\n     *\\n     * Requirements:\\n     *\\n     * - `from` cannot be the zero address.\\n     * - `to` cannot be the zero address.\\n     * - `tokenId` token must be owned by `from`.\\n     * - If the caller is not `from`, it must be approved to move this token by either {approve} or {setApprovalForAll}.\\n     *\\n     * Emits a {Transfer} event.\\n     */\\n    function transferFrom(address from, address to, uint256 tokenId) external;\\n\\n    /**\\n     * @dev Gives permission to `to` to transfer `tokenId` token to another account.\\n     * The approval is cleared when the token is transferred.\\n     *\\n     * Only a single account can be approved at a time, so approving the zero address clears previous approvals.\\n     *\\n     * Requirements:\\n     *\\n     * - The caller must own the token or be an approved operator.\\n     * - `tokenId` must exist.\\n     *\\n     * Emits an {Approval} event.\\n     */\\n    function approve(address to, uint256 tokenId) external;\\n\\n    /**\\n     * @dev Approve or remove `operator` as an operator for the caller.\\n     * Operators can call {transferFrom} or {safeTransferFrom} for any token owned by the caller.\\n     *\\n     * Requirements:\\n     *\\n     * - The `operator` cannot be the caller.\\n     *\\n     * Emits an {ApprovalForAll} event.\\n     */\\n    function setApprovalForAll(address operator, bool approved) external;\\n\\n    /**\\n     * @dev Returns the account approved for `tokenId` token.\\n     *\\n     * Requirements:\\n     *\\n     * - `tokenId` must exist.\\n     */\\n    function getApproved(uint256 tokenId) external view returns (address operator);\\n\\n    /**\\n     * @dev Returns if the `operator` is allowed to manage all of the assets of `owner`.\\n     *\\n     * See {setApprovalForAll}\\n     */\\n    function isApprovedForAll(address owner, address operator) external view returns (bool);\\n}\\n\"},\"@openzeppelin/contracts/utils/introspection/IERC165.sol\":{\"content\":\"// SPDX-License-Identifier: MIT\\n// OpenZeppelin Contracts v4.4.1 (utils/introspection/IERC165.sol)\\n\\npragma solidity ^0.8.0;\\n\\n/**\\n * @dev Interface of the ERC165 standard, as defined in the\\n * https://eips.ethereum.org/EIPS/eip-165[EIP].\\n *\\n * Implementers can declare support of contract interfaces, which can then be\\n * queried by others ({ERC165Checker}).\\n *\\n * For an implementation, see {ERC165}.\\n */\\ninterface IERC165 {\\n    /**\\n     * @dev Returns true if this contract implements the interface defined by\\n     * `interfaceId`. See the corresponding\\n     * https://eips.ethereum.org/EIPS/eip-165#how-interfaces-are-identified[EIP section]\\n     * to learn more about how these ids are created.\\n     *\\n     * This function call must use less than 30 000 gas.\\n     */\\n    function supportsInterface(bytes4 interfaceId) external view returns (bool);\\n}\\n\"},\"@openzeppelin/contracts/utils/math/SignedMath.sol\":{\"content\":\"// SPDX-License-Identifier: MIT\\n// OpenZeppelin Contracts (last updated v4.8.0) (utils/math/SignedMath.sol)\\n\\npragma solidity ^0.8.0;\\n\\n/**\\n * @dev Standard signed math utilities missing in the Solidity language.\\n */\\nlibrary SignedMath {\\n    /**\\n     * @dev Returns the largest of two signed numbers.\\n     */\\n    function max(int256 a, int256 b) internal pure returns (int256) {\\n        return a > b ? a : b;\\n    }\\n\\n    /**\\n     * @dev Returns the smallest of two signed numbers.\\n     */\\n    function min(int256 a, int256 b) internal pure returns (int256) {\\n        return a < b ? a : b;\\n    }\\n\\n    /**\\n     * @dev Returns the average of two signed numbers without overflow.\\n     * The result is rounded towards zero.\\n     */\\n    function average(int256 a, int256 b) internal pure returns (int256) {\\n        // Formula from the book \\\"Hacker's Delight\\\"\\n        int256 x = (a & b) + ((a ^ b) >> 1);\\n        return x + (int256(uint256(x) >> 255) & (a ^ b));\\n    }\\n\\n    /**\\n     * @dev Returns the absolute unsigned value of a signed value.\\n     */\\n    function abs(int256 n) internal pure returns (uint256) {\\n        unchecked {\\n            // must be unchecked in order to support `n = type(int256).min`\\n            return uint256(n >= 0 ? n : -n);\\n        }\\n    }\\n}\\n\"},\"@openzeppelin/contracts/utils/math/Math.sol\":{\"content\":\"// SPDX-License-Identifier: MIT\\n// OpenZeppelin Contracts (last updated v4.9.0) (utils/math/Math.sol)\\n\\npragma solidity ^0.8.0;\\n\\n/**\\n * @dev Standard math utilities missing in the Solidity language.\\n */\\nlibrary Math {\\n    enum Rounding {\\n        Down, // Toward negative infinity\\n        Up, // Toward infinity\\n        Zero // Toward zero\\n    }\\n\\n    /**\\n     * @dev Returns the largest of two numbers.\\n     */\\n    function max(uint256 a, uint256 b) internal pure returns (uint256) {\\n        return a > b ? a : b;\\n    }\\n\\n    /**\\n     * @dev Returns the smallest of two numbers.\\n     */\\n    function min(uint256 a, uint256 b) internal pure returns (uint256) {\\n        return a < b ? a : b;\\n    }\\n\\n    /**\\n     * @dev Returns the average of two numbers. The result is rounded towards\\n     * zero.\\n     */\\n    function average(uint256 a, uint256 b) internal pure returns (uint256) {\\n        // (a + b) / 2 can overflow.\\n        return (a & b) + (a ^ b) / 2;\\n    }\\n\\n    /**\\n     * @dev Returns the ceiling of the division of two numbers.\\n     *\\n     * This differs from standard division with `/` in that it rounds up instead\\n     * of rounding down.\\n     */\\n    function ceilDiv(uint256 a, uint256 b) internal pure returns (uint256) {\\n        // (a + b - 1) / b can overflow on addition, so we distribute.\\n        return a == 0 ? 0 : (a - 1) / b + 1;\\n    }\\n\\n    /**\\n     * @notice Calculates floor(x * y / denominator) with full precision. Throws if result overflows a uint256 or denominator == 0\\n     * @dev Original credit to Remco Bloemen under MIT license (https://xn--2-umb.com/21/muldiv)\\n     * with further edits by Uniswap Labs also under MIT license.\\n     */\\n    function mulDiv(uint256 x, uint256 y, uint256 denominator) internal pure returns (uint256 result) {\\n        unchecked {\\n            // 512-bit multiply [prod1 prod0] = x * y. Compute the product mod 2^256 and mod 2^256 - 1, then use\\n            // use the Chinese Remainder Theorem to reconstruct the 512 bit result. The result is stored in two 256\\n            // variables such that product = prod1 * 2^256 + prod0.\\n            uint256 prod0; // Least significant 256 bits of the product\\n            uint256 prod1; // Most significant 256 bits of the product\\n            assembly {\\n                let mm := mulmod(x, y, not(0))\\n                prod0 := mul(x, y)\\n                prod1 := sub(sub(mm, prod0), lt(mm, prod0))\\n            }\\n\\n            // Handle non-overflow cases, 256 by 256 division.\\n            if (prod1 == 0) {\\n                // Solidity will revert if denominator == 0, unlike the div opcode on its own.\\n                // The surrounding unchecked block does not change this fact.\\n                // See https://docs.soliditylang.org/en/latest/control-structures.html#checked-or-unchecked-arithmetic.\\n                return prod0 / denominator;\\n            }\\n\\n            // Make sure the result is less than 2^256. Also prevents denominator == 0.\\n            require(denominator > prod1, \\\"Math: mulDiv overflow\\\");\\n\\n            ///////////////////////////////////////////////\\n            // 512 by 256 division.\\n            ///////////////////////////////////////////////\\n\\n            // Make division exact by subtracting the remainder from [prod1 prod0].\\n            uint256 remainder;\\n            assembly {\\n                // Compute remainder using mulmod.\\n                remainder := mulmod(x, y, denominator)\\n\\n                // Subtract 256 bit number from 512 bit number.\\n                prod1 := sub(prod1, gt(remainder, prod0))\\n                prod0 := sub(prod0, remainder)\\n            }\\n\\n            // Factor powers of two out of denominator and compute largest power of two divisor of denominator. Always >= 1.\\n            // See https://cs.stackexchange.com/q/138556/92363.\\n\\n            // Does not overflow because the denominator cannot be zero at this stage in the function.\\n            uint256 twos = denominator & (~denominator + 1);\\n            assembly {\\n                // Divide denominator by twos.\\n                denominator := div(denominator, twos)\\n\\n                // Divide [prod1 prod0] by twos.\\n                prod0 := div(prod0, twos)\\n\\n                // Flip twos such that it is 2^256 / twos. If twos is zero, then it becomes one.\\n                twos := add(div(sub(0, twos), twos), 1)\\n            }\\n\\n            // Shift in bits from prod1 into prod0.\\n            prod0 |= prod1 * twos;\\n\\n            // Invert denominator mod 2^256. Now that denominator is an odd number, it has an inverse modulo 2^256 such\\n            // that denominator * inv = 1 mod 2^256. Compute the inverse by starting with a seed that is correct for\\n            // four bits. That is, denominator * inv = 1 mod 2^4.\\n            uint256 inverse = (3 * denominator) ^ 2;\\n\\n            // Use the Newton-Raphson iteration to improve the precision. Thanks to Hensel's lifting lemma, this also works\\n            // in modular arithmetic, doubling the correct bits in each step.\\n            inverse *= 2 - denominator * inverse; // inverse mod 2^8\\n            inverse *= 2 - denominator * inverse; // inverse mod 2^16\\n            inverse *= 2 - denominator * inverse; // inverse mod 2^32\\n            inverse *= 2 - denominator * inverse; // inverse mod 2^64\\n            inverse *= 2 - denominator * inverse; // inverse mod 2^128\\n            inverse *= 2 - denominator * inverse; // inverse mod 2^256\\n\\n            // Because the division is now exact we can divide by multiplying with the modular inverse of denominator.\\n            // This will give us the correct result modulo 2^256. Since the preconditions guarantee that the outcome is\\n            // less than 2^256, this is the final result. We don't need to compute the high bits of the result and prod1\\n            // is no longer required.\\n            result = prod0 * inverse;\\n            return result;\\n        }\\n    }\\n\\n    /**\\n     * @notice Calculates x * y / denominator with full precision, following the selected rounding direction.\\n     */\\n    function mulDiv(uint256 x, uint256 y, uint256 denominator, Rounding rounding) internal pure returns (uint256) {\\n        uint256 result = mulDiv(x, y, denominator);\\n        if (rounding == Rounding.Up && mulmod(x, y, denominator) > 0) {\\n            result += 1;\\n        }\\n        return result;\\n    }\\n\\n    /**\\n     * @dev Returns the square root of a number. If the number is not a perfect square, the value is rounded down.\\n     *\\n     * Inspired by Henry S. Warren, Jr.'s \\\"Hacker's Delight\\\" (Chapter 11).\\n     */\\n    function sqrt(uint256 a) internal pure returns (uint256) {\\n        if (a == 0) {\\n            return 0;\\n        }\\n\\n        // For our first guess, we get the biggest power of 2 which is smaller than the square root of the target.\\n        //\\n        // We know that the \\\"msb\\\" (most significant bit) of our target number `a` is a power of 2 such that we have\\n        // `msb(a) <= a < 2*msb(a)`. This value can be written `msb(a)=2**k` with `k=log2(a)`.\\n        //\\n        // This can be rewritten `2**log2(a) <= a < 2**(log2(a) + 1)`\\n        //  `sqrt(2**k) <= sqrt(a) < sqrt(2**(k+1))`\\n        //  `2**(k/2) <= sqrt(a) < 2**((k+1)/2) <= 2**(k/2 + 1)`\\n        //\\n        // Consequently, `2**(log2(a) / 2)` is a good first approximation of `sqrt(a)` with at least 1 correct bit.\\n        uint256 result = 1 << (log2(a) >> 1);\\n\\n        // At this point `result` is an estimation with one bit of precision. We know the true value is a uint128,\\n        // since it is the square root of a uint256. Newton's method converges quadratically (precision doubles at\\n        // every iteration). We thus need at most 7 iteration to turn our partial result with one bit of precision\\n        // into the expected uint128 result.\\n        unchecked {\\n            result = (result + a / result) >> 1;\\n            result = (result + a / result) >> 1;\\n            result = (result + a / result) >> 1;\\n            result = (result + a / result) >> 1;\\n            result = (result + a / result) >> 1;\\n            result = (result + a / result) >> 1;\\n            result = (result + a / result) >> 1;\\n            return min(result, a / result);\\n        }\\n    }\\n\\n    /**\\n     * @notice Calculates sqrt(a), following the selected rounding direction.\\n     */\\n    function sqrt(uint256 a, Rounding rounding) internal pure returns (uint256) {\\n        unchecked {\\n            uint256 result = sqrt(a);\\n            return result + (rounding == Rounding.Up && result * result < a ? 1 : 0);\\n        }\\n    }\\n\\n    /**\\n     * @dev Return the log in base 2, rounded down, of a positive value.\\n     * Returns 0 if given 0.\\n     */\\n    function log2(uint256 value) internal pure returns (uint256) {\\n        uint256 result = 0;\\n        unchecked {\\n            if (value >> 128 > 0) {\\n                value >>= 128;\\n                result += 128;\\n            }\\n            if (value >> 64 > 0) {\\n                value >>= 64;\\n                result += 64;\\n            }\\n            if (value >> 32 > 0) {\\n                value >>= 32;\\n                result += 32;\\n            }\\n            if (value >> 16 > 0) {\\n                value >>= 16;\\n                result += 16;\\n            }\\n            if (value >> 8 > 0) {\\n                value >>= 8;\\n                result += 8;\\n            }\\n            if (value >> 4 > 0) {\\n                value >>= 4;\\n                result += 4;\\n            }\\n            if (value >> 2 > 0) {\\n                value >>= 2;\\n                result += 2;\\n            }\\n            if (value >> 1 > 0) {\\n                result += 1;\\n            }\\n        }\\n        return result;\\n    }\\n\\n    /**\\n     * @dev Return the log in base 2, following the selected rounding direction, of a positive value.\\n     * Returns 0 if given 0.\\n     */\\n    function log2(uint256 value, Rounding rounding) internal pure returns (uint256) {\\n        unchecked {\\n            uint256 result = log2(value);\\n            return result + (rounding == Rounding.Up && 1 << result < value ? 1 : 0);\\n        }\\n    }\\n\\n    /**\\n     * @dev Return the log in base 10, rounded down, of a positive value.\\n     * Returns 0 if given 0.\\n     */\\n    function log10(uint256 value) internal pure returns (uint256) {\\n        uint256 result = 0;\\n        unchecked {\\n            if (value >= 10 ** 64) {\\n                value /= 10 ** 64;\\n                result += 64;\\n            }\\n            if (value >= 10 ** 32) {\\n                value /= 10 ** 32;\\n                result += 32;\\n            }\\n            if (value >= 10 ** 16) {\\n                value /= 10 ** 16;\\n                result += 16;\\n            }\\n            if (value >= 10 ** 8) {\\n                value /= 10 ** 8;\\n                result += 8;\\n            }\\n            if (value >= 10 ** 4) {\\n                value /= 10 ** 4;\\n                result += 4;\\n            }\\n            if (value >= 10 ** 2) {\\n                value /= 10 ** 2;\\n                result += 2;\\n            }\\n            if (value >= 10 ** 1) {\\n                result += 1;\\n            }\\n        }\\n        return result;\\n    }\\n\\n    /**\\n     * @dev Return the log in base 10, following the selected rounding direction, of a positive value.\\n     * Returns 0 if given 0.\\n     */\\n    function log10(uint256 value, Rounding rounding) internal pure returns (uint256) {\\n        unchecked {\\n            uint256 result = log10(value);\\n            return result + (rounding == Rounding.Up && 10 ** result < value ? 1 : 0);\\n        }\\n    }\\n\\n    /**\\n     * @dev Return the log in base 256, rounded down, of a positive value.\\n     * Returns 0 if given 0.\\n     *\\n     * Adding one to the result gives the number of pairs of hex symbols needed to represent `value` as a hex string.\\n     */\\n    function log256(uint256 value) internal pure returns (uint256) {\\n        uint256 result = 0;\\n        unchecked {\\n            if (value >> 128 > 0) {\\n                value >>= 128;\\n                result += 16;\\n            }\\n            if (value >> 64 > 0) {\\n                value >>= 64;\\n                result += 8;\\n            }\\n            if (value >> 32 > 0) {\\n                value >>= 32;\\n                result += 4;\\n            }\\n            if (value >> 16 > 0) {\\n                value >>= 16;\\n                result += 2;\\n            }\\n            if (value >> 8 > 0) {\\n                result += 1;\\n            }\\n        }\\n        return result;\\n    }\\n\\n    /**\\n     * @dev Return the log in base 256, following the selected rounding direction, of a positive value.\\n     * Returns 0 if given 0.\\n     */\\n    function log256(uint256 value, Rounding rounding) internal pure returns (uint256) {\\n        unchecked {\\n            uint256 result = log256(value);\\n            return result + (rounding == Rounding.Up && 1 << (result << 3) < value ? 1 : 0);\\n        }\\n    }\\n}\\n\"},\"@openzeppelin/contracts/interfaces/IERC721.sol\":{\"content\":\"// SPDX-License-Identifier: MIT\\n// OpenZeppelin Contracts v4.4.1 (interfaces/IERC721.sol)\\n\\npragma solidity ^0.8.0;\\n\\nimport \\\"../token/ERC721/IERC721.sol\\\";\\n\"},\"@openzeppelin/contracts/interfaces/IERC165.sol\":{\"content\":\"// SPDX-License-Identifier: MIT\\n// OpenZeppelin Contracts v4.4.1 (interfaces/IERC165.sol)\\n\\npragma solidity ^0.8.0;\\n\\nimport \\\"../utils/introspection/IERC165.sol\\\";\\n\"}},\"settings\":{\"optimizer\":{\"enabled\":false,\"runs\":200},\"outputSelection\":{\"*\":{\"\":[\"ast\"],\"*\":[\"abi\",\"metadata\",\"devdoc\",\"userdoc\",\"storageLayout\",\"evm.legacyAssembly\",\"evm.bytecode\",\"evm.deployedBytecode\",\"evm.methodIdentifiers\",\"evm.gasEstimates\",\"evm.assembly\"]}}}}",
	"name": "Genesis",
	"bytecode": {
		"linkReferences": {},
		"object": "60e060405269d3c21bcecceda1000000608090815250670de0b6b3a764000060a0908152503480156200003157600080fd5b5060405162006547380380620065478339818101604052810190620000579190620001cf565b6040518060400160405280600781526020017f47656e65736973000000000000000000000000000000000000000000000000008152506040518060400160405280600381526020017f474e4500000000000000000000000000000000000000000000000000000000008152508160039081620000d491906200047b565b508060049081620000e691906200047b565b50505033600660006101000a81548173ffffffffffffffffffffffffffffffffffffffff021916908373ffffffffffffffffffffffffffffffffffffffff1602179055508073ffffffffffffffffffffffffffffffffffffffff1660c08173ffffffffffffffffffffffffffffffffffffffff16815250505062000562565b600080fd5b600073ffffffffffffffffffffffffffffffffffffffff82169050919050565b600062000197826200016a565b9050919050565b620001a9816200018a565b8114620001b557600080fd5b50565b600081519050620001c9816200019e565b92915050565b600060208284031215620001e857620001e762000165565b5b6000620001f884828501620001b8565b91505092915050565b600081519050919050565b7f4e487b7100000000000000000000000000000000000000000000000000000000600052604160045260246000fd5b7f4e487b7100000000000000000000000000000000000000000000000000000000600052602260045260246000fd5b600060028204905060018216806200028357607f821691505b6020821081036200029957620002986200023b565b5b50919050565b60008190508160005260206000209050919050565b60006020601f8301049050919050565b600082821b905092915050565b600060088302620003037fffffffffffffffffffffffffffffffffffffffffffffffffffffffffffffffff82620002c4565b6200030f8683620002c4565b95508019841693508086168417925050509392505050565b6000819050919050565b6000819050919050565b60006200035c62000356620003508462000327565b62000331565b62000327565b9050919050565b6000819050919050565b62000378836200033b565b62000390620003878262000363565b848454620002d1565b825550505050565b600090565b620003a762000398565b620003b48184846200036d565b505050565b5b81811015620003dc57620003d06000826200039d565b600181019050620003ba565b5050565b601f8211156200042b57620003f5816200029f565b6200040084620002b4565b8101602085101562000410578190505b620004286200041f85620002b4565b830182620003b9565b50505b505050565b600082821c905092915050565b6000620004506000198460080262000430565b1980831691505092915050565b60006200046b83836200043d565b9150826002028217905092915050565b620004868262000201565b67ffffffffffffffff811115620004a257620004a16200020c565b5b620004ae82546200026a565b620004bb828285620003e0565b600060209050601f831160018114620004f35760008415620004de578287015190505b620004ea85826200045d565b8655506200055a565b601f19841662000503866200029f565b60005b828110156200052d5784890151825560018201915060208501945060208101905062000506565b868310156200054d578489015162000549601f8916826200043d565b8355505b6001600288020188555050505b505050505050565b60805160a05160c051615fa7620005a0600039600081816106da01526113e20152600061110e01526000818161071801526114200152615fa76000f3fe60806040523480156200001157600080fd5b50600436106200013c5760003560e01c806370a0823111620000bd578063a9059cbb116200007b578063a9059cbb1462000391578063aea3ee4314620003c7578063c349026314620003fd578063dd62ed3e1462000433578063f2ee634d1462000469576200013c565b806370a0823114620002d55780639427e64a146200030b57806395d89b411462000317578063a457c2d71462000339578063a85292df146200036f576200013c565b806323b872dd116200010b57806323b872dd14620001f1578063313ce567146200022757806339509351146200024957806343a46931146200027f5780636407019c146200029f576200013c565b806306fdde031462000141578063095ea7b3146200016357806318160ddd14620001995780632331a50e14620001bb575b600080fd5b6200014b6200049f565b6040516200015a919062001cdd565b60405180910390f35b6200018160048036038101906200017b919062001db5565b62000539565b60405162000190919062001e19565b60405180910390f35b620001a362000560565b604051620001b2919062001e47565b60405180910390f35b620001d96004803603810190620001d3919062001e64565b6200056a565b604051620001e8919062001f3f565b60405180910390f35b6200020f600480360381019062000209919062001f5c565b620005f1565b6040516200021e919062001e19565b60405180910390f35b6200023162000626565b60405162000240919062001fd6565b60405180910390f35b62000267600480360381019062000261919062001db5565b6200062f565b60405162000276919062001e19565b60405180910390f35b6200029d600480360381019062000297919062002144565b6200066e565b005b620002bd6004803603810190620002b79190620021aa565b620009b2565b604051620002cc919062001e47565b60405180910390f35b620002f36004803603810190620002ed9190620021dc565b62000a60565b60405162000302919062001e47565b60405180910390f35b6200031562000aa8565b005b6200032162000c09565b60405162000330919062001cdd565b60405180910390f35b62000357600480360381019062000351919062001db5565b62000ca3565b60405162000366919062001e19565b60405180910390f35b6200037962000d23565b60405162000388919062001e47565b60405180910390f35b620003af6004803603810190620003a9919062001db5565b62000d2f565b604051620003be919062001e19565b60405180910390f35b620003e56004803603810190620003df9190620021aa565b62000d56565b604051620003f4919062002279565b60405180910390f35b6200041b600480360381019062000415919062001e64565b62000d89565b6040516200042a919062001e19565b60405180910390f35b6200045160048036038101906200044b919062002296565b6200114c565b60405162000460919062001e47565b60405180910390f35b62000487600480360381019062000481919062001e64565b620011d3565b60405162000496919062001e19565b60405180910390f35b606060038054620004b0906200230c565b80601f0160208091040260200160405190810160405280929190818152602001828054620004de906200230c565b80156200052f5780601f1062000503576101008083540402835291602001916200052f565b820191906000526020600020905b8154815290600101906020018083116200051157829003601f168201915b5050505050905090565b6000806200054662001573565b9050620005558185856200157b565b600191505092915050565b6000600254905090565b6200057462001c04565b6008600084815260200190815260200160002060000160008381526020019081526020016000206040518060a0016040529081600082015481526020016001820154815260200160028201548152602001600382015481526020016004820160009054906101000a900460ff161515151581525050905092915050565b600080620005fe62001573565b90506200060d8582856200174c565b6200061a858585620017e0565b60019150509392505050565b60006012905090565b6000806200063c62001573565b9050620006638185856200065185896200114c565b6200065d919062002370565b6200157b565b600191505092915050565b600115156009600084815260200190815260200160002060009054906101000a900460ff16151514620006d8576040517f08c379a0000000000000000000000000000000000000000000000000000000008152600401620006cf90620023fb565b60405180910390fd5b7f000000000000000000000000000000000000000000000000000000000000000073ffffffffffffffffffffffffffffffffffffffff166323b872dd33307f000000000000000000000000000000000000000000000000000000000000000060056200074591906200241d565b6040518463ffffffff1660e01b8152600401620007659392919062002479565b6020604051808303816000875af115801562000785573d6000803e3d6000fd5b505050506040513d601f19601f82011682018060405250810190620007ab9190620024e7565b620007ed576040517f08c379a0000000000000000000000000000000000000000000000000000000008152600401620007e49062002569565b60405180910390fd5b60006007600084815260200190815260200160002060009054906101000a900473ffffffffffffffffffffffffffffffffffffffff1690508073ffffffffffffffffffffffffffffffffffffffff1663d204c45e33846040518363ffffffff1660e01b8152600401620008629291906200258b565b600060405180830381600087803b1580156200087d57600080fd5b505af115801562000892573d6000803e3d6000fd5b5050505060008173ffffffffffffffffffffffffffffffffffffffff166398bdf6f56040518163ffffffff1660e01b8152600401602060405180830381865afa158015620008e4573d6000803e3d6000fd5b505050506040513d601f19601f820116820180604052508101906200090a9190620025d6565b90506040518060a0016040528060008152602001600081526020016000815260200160008152602001600115158152506008600086815260200190815260200160002060000160008381526020019081526020016000206000820151816000015560208201518160010155604082015181600201556060820151816003015560808201518160040160006101000a81548160ff02191690831515021790555090505050505050565b60006007600083815260200190815260200160002060009054906101000a900473ffffffffffffffffffffffffffffffffffffffff1673ffffffffffffffffffffffffffffffffffffffff166398bdf6f56040518163ffffffff1660e01b8152600401602060405180830381865afa15801562000a33573d6000803e3d6000fd5b505050506040513d601f19601f8201168201806040525081019062000a599190620025d6565b9050919050565b60008060008373ffffffffffffffffffffffffffffffffffffffff1673ffffffffffffffffffffffffffffffffffffffff168152602001908152602001600020549050919050565b600660009054906101000a900473ffffffffffffffffffffffffffffffffffffffff1673ffffffffffffffffffffffffffffffffffffffff163373ffffffffffffffffffffffffffffffffffffffff161462000b3b576040517f08c379a000000000000000000000000000000000000000000000000000000000815260040162000b329062002658565b60405180910390fd5b62000b47600562001a65565b600062000b55600562001a7b565b9050600060405162000b679062001c35565b604051809103906000f08015801562000b84573d6000803e3d6000fd5b509050806007600084815260200190815260200160002060006101000a81548173ffffffffffffffffffffffffffffffffffffffff021916908373ffffffffffffffffffffffffffffffffffffffff16021790555060016009600084815260200190815260200160002060006101000a81548160ff0219169083151502179055505050565b60606004805462000c1a906200230c565b80601f016020809104026020016040519081016040528092919081815260200182805462000c48906200230c565b801562000c995780601f1062000c6d5761010080835404028352916020019162000c99565b820191906000526020600020905b81548152906001019060200180831162000c7b57829003601f168201915b5050505050905090565b60008062000cb062001573565b9050600062000cc082866200114c565b90508381101562000d08576040517f08c379a000000000000000000000000000000000000000000000000000000000815260040162000cff90620026f0565b60405180910390fd5b62000d1782868684036200157b565b60019250505092915050565b60058060000154905081565b60008062000d3c62001573565b905062000d4b818585620017e0565b600191505092915050565b60076020528060005260406000206000915054906101000a900473ffffffffffffffffffffffffffffffffffffffff1681565b6000600115156009600085815260200190815260200160002060009054906101000a900460ff1615151462000df5576040517f08c379a000000000000000000000000000000000000000000000000000000000815260040162000dec9062002762565b60405180910390fd5b60086000848152602001908152602001600020600001600083815260200190815260200160002060040160009054906101000a900460ff1662000e6f576040517f08c379a000000000000000000000000000000000000000000000000000000000815260040162000e6690620027d4565b60405180910390fd5b60006007600085815260200190815260200160002060009054906101000a900473ffffffffffffffffffffffffffffffffffffffff1690503373ffffffffffffffffffffffffffffffffffffffff168173ffffffffffffffffffffffffffffffffffffffff16636352211e856040518263ffffffff1660e01b815260040162000ef9919062001e47565b602060405180830381865afa15801562000f17573d6000803e3d6000fd5b505050506040513d601f19601f8201168201806040525081019062000f3d91906200280d565b73ffffffffffffffffffffffffffffffffffffffff161462000f96576040517f08c379a000000000000000000000000000000000000000000000000000000000815260040162000f8d906200288f565b60405180910390fd5b61a8c0600860008681526020019081526020016000206000016000858152602001908152602001600020600001544262000fd19190620028b1565b111562001015576040517f08c379a00000000000000000000000000000000000000000000000000000000081526004016200100c906200293c565b60405180910390fd5b620151806008600086815260200190815260200160002060000160008581526020019081526020016000206001015442620010519190620028b1565b1162001094576040517f08c379a00000000000000000000000000000000000000000000000000000000081526004016200108b90620029ae565b60405180910390fd5b42600860008681526020019081526020016000206000016000858152602001908152602001600020600101819055506005600860008681526020019081526020016000206000016000858152602001908152602001600020600301600082825462001100919062002370565b9250508190555062001141337f000000000000000000000000000000000000000000000000000000000000000060056200113b91906200241d565b62001a89565b600191505092915050565b6000600160008473ffffffffffffffffffffffffffffffffffffffff1673ffffffffffffffffffffffffffffffffffffffff16815260200190815260200160002060008373ffffffffffffffffffffffffffffffffffffffff1673ffffffffffffffffffffffffffffffffffffffff16815260200190815260200160002054905092915050565b6000600115156009600085815260200190815260200160002060009054906101000a900460ff161515146200123f576040517f08c379a00000000000000000000000000000000000000000000000000000000081526004016200123690620023fb565b60405180910390fd5b60086000848152602001908152602001600020600001600083815260200190815260200160002060040160009054906101000a900460ff16620012b9576040517f08c379a0000000000000000000000000000000000000000000000000000000008152600401620012b090620027d4565b60405180910390fd5b60006007600085815260200190815260200160002060009054906101000a900473ffffffffffffffffffffffffffffffffffffffff1690503373ffffffffffffffffffffffffffffffffffffffff168173ffffffffffffffffffffffffffffffffffffffff16636352211e856040518263ffffffff1660e01b815260040162001343919062001e47565b602060405180830381865afa15801562001361573d6000803e3d6000fd5b505050506040513d601f19601f820116820180604052508101906200138791906200280d565b73ffffffffffffffffffffffffffffffffffffffff1614620013e0576040517f08c379a0000000000000000000000000000000000000000000000000000000008152600401620013d7906200288f565b60405180910390fd5b7f000000000000000000000000000000000000000000000000000000000000000073ffffffffffffffffffffffffffffffffffffffff166323b872dd33307f000000000000000000000000000000000000000000000000000000000000000060016200144d91906200241d565b6040518463ffffffff1660e01b81526004016200146d9392919062002479565b6020604051808303816000875af11580156200148d573d6000803e3d6000fd5b505050506040513d601f19601f82011682018060405250810190620014b39190620024e7565b620014f5576040517f08c379a0000000000000000000000000000000000000000000000000000000008152600401620014ec9062002569565b60405180910390fd5b42600860008681526020019081526020016000206000016000858152602001908152602001600020600001819055506001600860008681526020019081526020016000206000016000858152602001908152602001600020600201600082825462001561919062002370565b92505081905550600191505092915050565b600033905090565b600073ffffffffffffffffffffffffffffffffffffffff168373ffffffffffffffffffffffffffffffffffffffff1603620015ed576040517f08c379a0000000000000000000000000000000000000000000000000000000008152600401620015e49062002a46565b60405180910390fd5b600073ffffffffffffffffffffffffffffffffffffffff168273ffffffffffffffffffffffffffffffffffffffff16036200165f576040517f08c379a0000000000000000000000000000000000000000000000000000000008152600401620016569062002ade565b60405180910390fd5b80600160008573ffffffffffffffffffffffffffffffffffffffff1673ffffffffffffffffffffffffffffffffffffffff16815260200190815260200160002060008473ffffffffffffffffffffffffffffffffffffffff1673ffffffffffffffffffffffffffffffffffffffff168152602001908152602001600020819055508173ffffffffffffffffffffffffffffffffffffffff168373ffffffffffffffffffffffffffffffffffffffff167f8c5be1e5ebec7d5bd14f71427d1e84f3dd0314c0f7b2291e5b200ac8c7c3b925836040516200173f919062001e47565b60405180910390a3505050565b60006200175a84846200114c565b90507fffffffffffffffffffffffffffffffffffffffffffffffffffffffffffffffff8114620017da5781811015620017ca576040517f08c379a0000000000000000000000000000000000000000000000000000000008152600401620017c19062002b50565b60405180910390fd5b620017d984848484036200157b565b5b50505050565b600073ffffffffffffffffffffffffffffffffffffffff168373ffffffffffffffffffffffffffffffffffffffff160362001852576040517f08c379a0000000000000000000000000000000000000000000000000000000008152600401620018499062002be8565b60405180910390fd5b600073ffffffffffffffffffffffffffffffffffffffff168273ffffffffffffffffffffffffffffffffffffffff1603620018c4576040517f08c379a0000000000000000000000000000000000000000000000000000000008152600401620018bb9062002c80565b60405180910390fd5b620018d183838362001a99565b60008060008573ffffffffffffffffffffffffffffffffffffffff1673ffffffffffffffffffffffffffffffffffffffff168152602001908152602001600020549050818110156200195a576040517f08c379a0000000000000000000000000000000000000000000000000000000008152600401620019519062002d18565b60405180910390fd5b8181036000808673ffffffffffffffffffffffffffffffffffffffff1673ffffffffffffffffffffffffffffffffffffffff16815260200190815260200160002081905550816000808573ffffffffffffffffffffffffffffffffffffffff1673ffffffffffffffffffffffffffffffffffffffff168152602001908152602001600020600082825401925050819055508273ffffffffffffffffffffffffffffffffffffffff168473ffffffffffffffffffffffffffffffffffffffff167fddf252ad1be2c89b69c2b068fc378daa952ba7f163c4a11628f55a4df523b3ef8460405162001a4a919062001e47565b60405180910390a362001a5f84848462001a9e565b50505050565b6001816000016000828254019250508190555050565b600081600001549050919050565b62001a95828262001aa3565b5050565b505050565b505050565b600073ffffffffffffffffffffffffffffffffffffffff168273ffffffffffffffffffffffffffffffffffffffff160362001b15576040517f08c379a000000000000000000000000000000000000000000000000000000000815260040162001b0c9062002d8a565b60405180910390fd5b62001b236000838362001a99565b806002600082825462001b37919062002370565b92505081905550806000808473ffffffffffffffffffffffffffffffffffffffff1673ffffffffffffffffffffffffffffffffffffffff168152602001908152602001600020600082825401925050819055508173ffffffffffffffffffffffffffffffffffffffff16600073ffffffffffffffffffffffffffffffffffffffff167fddf252ad1be2c89b69c2b068fc378daa952ba7f163c4a11628f55a4df523b3ef8360405162001bea919062001e47565b60405180910390a362001c006000838362001a9e565b5050565b6040518060a00160405280600081526020016000815260200160008152602001600081526020016000151581525090565b6131c58062002dad83390190565b600081519050919050565b600082825260208201905092915050565b60005b8381101562001c7f57808201518184015260208101905062001c62565b60008484015250505050565b6000601f19601f8301169050919050565b600062001ca98262001c43565b62001cb5818562001c4e565b935062001cc781856020860162001c5f565b62001cd28162001c8b565b840191505092915050565b6000602082019050818103600083015262001cf9818462001c9c565b905092915050565b6000604051905090565b600080fd5b600080fd5b600073ffffffffffffffffffffffffffffffffffffffff82169050919050565b600062001d428262001d15565b9050919050565b62001d548162001d35565b811462001d6057600080fd5b50565b60008135905062001d748162001d49565b92915050565b6000819050919050565b62001d8f8162001d7a565b811462001d9b57600080fd5b50565b60008135905062001daf8162001d84565b92915050565b6000806040838503121562001dcf5762001dce62001d0b565b5b600062001ddf8582860162001d63565b925050602062001df28582860162001d9e565b9150509250929050565b60008115159050919050565b62001e138162001dfc565b82525050565b600060208201905062001e30600083018462001e08565b92915050565b62001e418162001d7a565b82525050565b600060208201905062001e5e600083018462001e36565b92915050565b6000806040838503121562001e7e5762001e7d62001d0b565b5b600062001e8e8582860162001d9e565b925050602062001ea18582860162001d9e565b9150509250929050565b62001eb68162001d7a565b82525050565b62001ec78162001dfc565b82525050565b60a08201600082015162001ee5600085018262001eab565b50602082015162001efa602085018262001eab565b50604082015162001f0f604085018262001eab565b50606082015162001f24606085018262001eab565b50608082015162001f39608085018262001ebc565b50505050565b600060a08201905062001f56600083018462001ecd565b92915050565b60008060006060848603121562001f785762001f7762001d0b565b5b600062001f888682870162001d63565b935050602062001f9b8682870162001d63565b925050604062001fae8682870162001d9e565b9150509250925092565b600060ff82169050919050565b62001fd08162001fb8565b82525050565b600060208201905062001fed600083018462001fc5565b92915050565b600080fd5b600080fd5b7f4e487b7100000000000000000000000000000000000000000000000000000000600052604160045260246000fd5b620020378262001c8b565b810181811067ffffffffffffffff8211171562002059576200205862001ffd565b5b80604052505050565b60006200206e62001d01565b90506200207c82826200202c565b919050565b600067ffffffffffffffff8211156200209f576200209e62001ffd565b5b620020aa8262001c8b565b9050602081019050919050565b82818337600083830152505050565b6000620020dd620020d78462002081565b62002062565b905082815260208101848484011115620020fc57620020fb62001ff8565b5b62002109848285620020b7565b509392505050565b600082601f83011262002129576200212862001ff3565b5b81356200213b848260208601620020c6565b91505092915050565b600080604083850312156200215e576200215d62001d0b565b5b60006200216e8582860162001d9e565b925050602083013567ffffffffffffffff81111562002192576200219162001d10565b5b620021a08582860162002111565b9150509250929050565b600060208284031215620021c357620021c262001d0b565b5b6000620021d38482850162001d9e565b91505092915050565b600060208284031215620021f557620021f462001d0b565b5b6000620022058482850162001d63565b91505092915050565b6000819050919050565b600062002239620022336200222d8462001d15565b6200220e565b62001d15565b9050919050565b60006200224d8262002218565b9050919050565b6000620022618262002240565b9050919050565b620022738162002254565b82525050565b600060208201905062002290600083018462002268565b92915050565b60008060408385031215620022b057620022af62001d0b565b5b6000620022c08582860162001d63565b9250506020620022d38582860162001d63565b9150509250929050565b7f4e487b7100000000000000000000000000000000000000000000000000000000600052602260045260246000fd5b600060028204905060018216806200232557607f821691505b6020821081036200233b576200233a620022dd565b5b50919050565b7f4e487b7100000000000000000000000000000000000000000000000000000000600052601160045260246000fd5b60006200237d8262001d7a565b91506200238a8362001d7a565b9250828201905080821115620023a557620023a462002341565b5b92915050565b7f436f6c6c656374696f6e206973206e6f7420796574206d696e74656421000000600082015250565b6000620023e3601d8362001c4e565b9150620023f082620023ab565b602082019050919050565b600060208201905081810360008301526200241681620023d4565b9050919050565b60006200242a8262001d7a565b9150620024378362001d7a565b9250828202620024478162001d7a565b9150828204841483151762002461576200246062002341565b5b5092915050565b620024738162001d35565b82525050565b600060608201905062002490600083018662002468565b6200249f602083018562002468565b620024ae604083018462001e36565b949350505050565b620024c18162001dfc565b8114620024cd57600080fd5b50565b600081519050620024e181620024b6565b92915050565b6000602082840312156200250057620024ff62001d0b565b5b60006200251084828501620024d0565b91505092915050565b7f53544e4541523a207472616e7366657246726f6d206661696c65640000000000600082015250565b600062002551601b8362001c4e565b91506200255e8262002519565b602082019050919050565b60006020820190508181036000830152620025848162002542565b9050919050565b6000604082019050620025a2600083018562002468565b8181036020830152620025b6818462001c9c565b90509392505050565b600081519050620025d08162001d84565b92915050565b600060208284031215620025ef57620025ee62001d0b565b5b6000620025ff84828501620025bf565b91505092915050565b7f4e6f706521000000000000000000000000000000000000000000000000000000600082015250565b60006200264060058362001c4e565b91506200264d8262002608565b602082019050919050565b60006020820190508181036000830152620026738162002631565b9050919050565b7f45524332303a2064656372656173656420616c6c6f77616e63652062656c6f7760008201527f207a65726f000000000000000000000000000000000000000000000000000000602082015250565b6000620026d860258362001c4e565b9150620026e5826200267a565b604082019050919050565b600060208201905081810360008301526200270b81620026c9565b9050919050565b7f436f6c6c656374696f6e206973206e6f7420796574206d696e74656400000000600082015250565b60006200274a601c8362001c4e565b9150620027578262002712565b602082019050919050565b600060208201905081810360008301526200277d816200273b565b9050919050565b7f5472656520646f6573206e6f7420657869737400000000000000000000000000600082015250565b6000620027bc60138362001c4e565b9150620027c98262002784565b602082019050919050565b60006020820190508181036000830152620027ef81620027ad565b9050919050565b600081519050620028078162001d49565b92915050565b60006020828403121562002826576200282562001d0b565b5b60006200283684828501620027f6565b91505092915050565b7f596f7520617265206e6f7420746865206f776e65720000000000000000000000600082015250565b60006200287760158362001c4e565b915062002884826200283f565b602082019050919050565b60006020820190508181036000830152620028aa8162002868565b9050919050565b6000620028be8262001d7a565b9150620028cb8362001d7a565b9250828203905081811115620028e657620028e562002341565b5b92915050565b7f5761746572204669727374000000000000000000000000000000000000000000600082015250565b600062002924600b8362001c4e565b91506200293182620028ec565b602082019050919050565b60006020820190508181036000830152620029578162002915565b9050919050565b7f43616e277420436c61696d000000000000000000000000000000000000000000600082015250565b600062002996600b8362001c4e565b9150620029a3826200295e565b602082019050919050565b60006020820190508181036000830152620029c98162002987565b9050919050565b7f45524332303a20617070726f76652066726f6d20746865207a65726f2061646460008201527f7265737300000000000000000000000000000000000000000000000000000000602082015250565b600062002a2e60248362001c4e565b915062002a3b82620029d0565b604082019050919050565b6000602082019050818103600083015262002a618162002a1f565b9050919050565b7f45524332303a20617070726f766520746f20746865207a65726f20616464726560008201527f7373000000000000000000000000000000000000000000000000000000000000602082015250565b600062002ac660228362001c4e565b915062002ad38262002a68565b604082019050919050565b6000602082019050818103600083015262002af98162002ab7565b9050919050565b7f45524332303a20696e73756666696369656e7420616c6c6f77616e6365000000600082015250565b600062002b38601d8362001c4e565b915062002b458262002b00565b602082019050919050565b6000602082019050818103600083015262002b6b8162002b29565b9050919050565b7f45524332303a207472616e736665722066726f6d20746865207a65726f20616460008201527f6472657373000000000000000000000000000000000000000000000000000000602082015250565b600062002bd060258362001c4e565b915062002bdd8262002b72565b604082019050919050565b6000602082019050818103600083015262002c038162002bc1565b9050919050565b7f45524332303a207472616e7366657220746f20746865207a65726f206164647260008201527f6573730000000000000000000000000000000000000000000000000000000000602082015250565b600062002c6860238362001c4e565b915062002c758262002c0a565b604082019050919050565b6000602082019050818103600083015262002c9b8162002c59565b9050919050565b7f45524332303a207472616e7366657220616d6f756e742065786365656473206260008201527f616c616e63650000000000000000000000000000000000000000000000000000602082015250565b600062002d0060268362001c4e565b915062002d0d8262002ca2565b604082019050919050565b6000602082019050818103600083015262002d338162002cf1565b9050919050565b7f45524332303a206d696e7420746f20746865207a65726f206164647265737300600082015250565b600062002d72601f8362001c4e565b915062002d7f8262002d3a565b602082019050919050565b6000602082019050818103600083015262002da58162002d63565b905091905056fe60806040523480156200001157600080fd5b506040518060400160405280600781526020017f47656e65736973000000000000000000000000000000000000000000000000008152506040518060400160405280600381526020017f474e45000000000000000000000000000000000000000000000000000000000081525081600090816200008f919062000365565b508060019081620000a1919062000365565b50505033600760006101000a81548173ffffffffffffffffffffffffffffffffffffffff021916908373ffffffffffffffffffffffffffffffffffffffff1602179055506200044c565b600081519050919050565b7f4e487b7100000000000000000000000000000000000000000000000000000000600052604160045260246000fd5b7f4e487b7100000000000000000000000000000000000000000000000000000000600052602260045260246000fd5b600060028204905060018216806200016d57607f821691505b60208210810362000183576200018262000125565b5b50919050565b60008190508160005260206000209050919050565b60006020601f8301049050919050565b600082821b905092915050565b600060088302620001ed7fffffffffffffffffffffffffffffffffffffffffffffffffffffffffffffffff82620001ae565b620001f98683620001ae565b95508019841693508086168417925050509392505050565b6000819050919050565b6000819050919050565b600062000246620002406200023a8462000211565b6200021b565b62000211565b9050919050565b6000819050919050565b620002628362000225565b6200027a62000271826200024d565b848454620001bb565b825550505050565b600090565b6200029162000282565b6200029e81848462000257565b505050565b5b81811015620002c657620002ba60008262000287565b600181019050620002a4565b5050565b601f8211156200031557620002df8162000189565b620002ea846200019e565b81016020851015620002fa578190505b6200031262000309856200019e565b830182620002a3565b50505b505050565b600082821c905092915050565b60006200033a600019846008026200031a565b1980831691505092915050565b600062000355838362000327565b9150826002028217905092915050565b6200037082620000eb565b67ffffffffffffffff8111156200038c576200038b620000f6565b5b62000398825462000154565b620003a5828285620002ca565b600060209050601f831160018114620003dd5760008415620003c8578287015190505b620003d4858262000347565b86555062000444565b601f198416620003ed8662000189565b60005b828110156200041757848901518255600182019150602085019450602081019050620003f0565b8683101562000437578489015162000433601f89168262000327565b8355505b6001600288020188555050505b505050505050565b612d69806200045c6000396000f3fe608060405234801561001057600080fd5b50600436106100f55760003560e01c806370a0823111610097578063b88d4fde11610066578063b88d4fde14610284578063c87b56dd146102a0578063d204c45e146102d0578063e985e9c5146102ec576100f5565b806370a08231146101fc57806395d89b411461022c57806398bdf6f51461024a578063a22cb46514610268576100f5565b8063095ea7b3116100d3578063095ea7b31461017857806323b872dd1461019457806342842e0e146101b05780636352211e146101cc576100f5565b806301ffc9a7146100fa57806306fdde031461012a578063081812fc14610148575b600080fd5b610114600480360381019061010f9190611b5a565b61031c565b6040516101219190611ba2565b60405180910390f35b61013261032e565b60405161013f9190611c4d565b60405180910390f35b610162600480360381019061015d9190611ca5565b6103c0565b60405161016f9190611d13565b60405180910390f35b610192600480360381019061018d9190611d5a565b610406565b005b6101ae60048036038101906101a99190611d9a565b61051d565b005b6101ca60048036038101906101c59190611d9a565b61057d565b005b6101e660048036038101906101e19190611ca5565b61059d565b6040516101f39190611d13565b60405180910390f35b61021660048036038101906102119190611ded565b610623565b6040516102239190611e29565b60405180910390f35b6102346106da565b6040516102419190611c4d565b60405180910390f35b61025261076c565b60405161025f9190611e29565b60405180910390f35b610282600480360381019061027d9190611e70565b610778565b005b61029e60048036038101906102999190611fe5565b61078e565b005b6102ba60048036038101906102b59190611ca5565b6107f0565b6040516102c79190611c4d565b60405180910390f35b6102ea60048036038101906102e59190612109565b610802565b005b61030660048036038101906103019190612165565b610907565b6040516103139190611ba2565b60405180910390f35b60006103278261099b565b9050919050565b60606000805461033d906121d4565b80601f0160208091040260200160405190810160405280929190818152602001828054610369906121d4565b80156103b65780601f1061038b576101008083540402835291602001916103b6565b820191906000526020600020905b81548152906001019060200180831161039957829003601f168201915b5050505050905090565b60006103cb826109fc565b6004600083815260200190815260200160002060009054906101000a900473ffffffffffffffffffffffffffffffffffffffff169050919050565b60006104118261059d565b90508073ffffffffffffffffffffffffffffffffffffffff168373ffffffffffffffffffffffffffffffffffffffff1603610481576040517f08c379a000000000000000000000000000000000000000000000000000000000815260040161047890612277565b60405180910390fd5b8073ffffffffffffffffffffffffffffffffffffffff166104a0610a47565b73ffffffffffffffffffffffffffffffffffffffff1614806104cf57506104ce816104c9610a47565b610907565b5b61050e576040517f08c379a000000000000000000000000000000000000000000000000000000000815260040161050590612309565b60405180910390fd5b6105188383610a4f565b505050565b61052e610528610a47565b82610b08565b61056d576040517f08c379a00000000000000000000000000000000000000000000000000000000081526004016105649061239b565b60405180910390fd5b610578838383610b9d565b505050565b6105988383836040518060200160405280600081525061078e565b505050565b6000806105a983610e96565b9050600073ffffffffffffffffffffffffffffffffffffffff168173ffffffffffffffffffffffffffffffffffffffff160361061a576040517f08c379a000000000000000000000000000000000000000000000000000000000815260040161061190612407565b60405180910390fd5b80915050919050565b60008073ffffffffffffffffffffffffffffffffffffffff168273ffffffffffffffffffffffffffffffffffffffff1603610693576040517f08c379a000000000000000000000000000000000000000000000000000000000815260040161068a90612499565b60405180910390fd5b600360008373ffffffffffffffffffffffffffffffffffffffff1673ffffffffffffffffffffffffffffffffffffffff168152602001908152602001600020549050919050565b6060600180546106e9906121d4565b80601f0160208091040260200160405190810160405280929190818152602001828054610715906121d4565b80156107625780601f1061073757610100808354040283529160200191610762565b820191906000526020600020905b81548152906001019060200180831161074557829003601f168201915b5050505050905090565b60088060000154905081565b61078a610783610a47565b8383610ed3565b5050565b61079f610799610a47565b83610b08565b6107de576040517f08c379a00000000000000000000000000000000000000000000000000000000081526004016107d59061239b565b60405180910390fd5b6107ea8484848461103f565b50505050565b60606107fb8261109b565b9050919050565b600760009054906101000a900473ffffffffffffffffffffffffffffffffffffffff1673ffffffffffffffffffffffffffffffffffffffff163373ffffffffffffffffffffffffffffffffffffffff1614610892576040517f08c379a000000000000000000000000000000000000000000000000000000000815260040161088990612505565b60405180910390fd5b61089c60086111ad565b60006108a860086111c3565b9050601e8111156108ee576040517f08c379a00000000000000000000000000000000000000000000000000000000081526004016108e590612597565b60405180910390fd5b6108f883826111d1565b61090281836111ef565b505050565b6000600560008473ffffffffffffffffffffffffffffffffffffffff1673ffffffffffffffffffffffffffffffffffffffff16815260200190815260200160002060008373ffffffffffffffffffffffffffffffffffffffff1673ffffffffffffffffffffffffffffffffffffffff16815260200190815260200160002060009054906101000a900460ff16905092915050565b6000634906490660e01b7bffffffffffffffffffffffffffffffffffffffffffffffffffffffff1916827bffffffffffffffffffffffffffffffffffffffffffffffffffffffff191614806109f557506109f482611293565b5b9050919050565b610a0581611375565b610a44576040517f08c379a0000000000000000000000000000000000000000000000000000000008152600401610a3b90612407565b60405180910390fd5b50565b600033905090565b816004600083815260200190815260200160002060006101000a81548173ffffffffffffffffffffffffffffffffffffffff021916908373ffffffffffffffffffffffffffffffffffffffff160217905550808273ffffffffffffffffffffffffffffffffffffffff16610ac28361059d565b73ffffffffffffffffffffffffffffffffffffffff167f8c5be1e5ebec7d5bd14f71427d1e84f3dd0314c0f7b2291e5b200ac8c7c3b92560405160405180910390a45050565b600080610b148361059d565b90508073ffffffffffffffffffffffffffffffffffffffff168473ffffffffffffffffffffffffffffffffffffffff161480610b565750610b558185610907565b5b80610b9457508373ffffffffffffffffffffffffffffffffffffffff16610b7c846103c0565b73ffffffffffffffffffffffffffffffffffffffff16145b91505092915050565b8273ffffffffffffffffffffffffffffffffffffffff16610bbd8261059d565b73ffffffffffffffffffffffffffffffffffffffff1614610c13576040517f08c379a0000000000000000000000000000000000000000000000000000000008152600401610c0a90612629565b60405180910390fd5b600073ffffffffffffffffffffffffffffffffffffffff168273ffffffffffffffffffffffffffffffffffffffff1603610c82576040517f08c379a0000000000000000000000000000000000000000000000000000000008152600401610c79906126bb565b60405180910390fd5b610c8f83838360016113b6565b8273ffffffffffffffffffffffffffffffffffffffff16610caf8261059d565b73ffffffffffffffffffffffffffffffffffffffff1614610d05576040517f08c379a0000000000000000000000000000000000000000000000000000000008152600401610cfc90612629565b60405180910390fd5b6004600082815260200190815260200160002060006101000a81549073ffffffffffffffffffffffffffffffffffffffff02191690556001600360008573ffffffffffffffffffffffffffffffffffffffff1673ffffffffffffffffffffffffffffffffffffffff168152602001908152602001600020600082825403925050819055506001600360008473ffffffffffffffffffffffffffffffffffffffff1673ffffffffffffffffffffffffffffffffffffffff16815260200190815260200160002060008282540192505081905550816002600083815260200190815260200160002060006101000a81548173ffffffffffffffffffffffffffffffffffffffff021916908373ffffffffffffffffffffffffffffffffffffffff160217905550808273ffffffffffffffffffffffffffffffffffffffff168473ffffffffffffffffffffffffffffffffffffffff167fddf252ad1be2c89b69c2b068fc378daa952ba7f163c4a11628f55a4df523b3ef60405160405180910390a4610e9183838360016113bc565b505050565b60006002600083815260200190815260200160002060009054906101000a900473ffffffffffffffffffffffffffffffffffffffff169050919050565b8173ffffffffffffffffffffffffffffffffffffffff168373ffffffffffffffffffffffffffffffffffffffff1603610f41576040517f08c379a0000000000000000000000000000000000000000000000000000000008152600401610f3890612727565b60405180910390fd5b80600560008573ffffffffffffffffffffffffffffffffffffffff1673ffffffffffffffffffffffffffffffffffffffff16815260200190815260200160002060008473ffffffffffffffffffffffffffffffffffffffff1673ffffffffffffffffffffffffffffffffffffffff16815260200190815260200160002060006101000a81548160ff0219169083151502179055508173ffffffffffffffffffffffffffffffffffffffff168373ffffffffffffffffffffffffffffffffffffffff167f17307eab39ab6107e8899845ad3d59bd9653f200f220920489ca2b5937696c31836040516110329190611ba2565b60405180910390a3505050565b61104a848484610b9d565b611056848484846113c2565b611095576040517f08c379a000000000000000000000000000000000000000000000000000000000815260040161108c906127b9565b60405180910390fd5b50505050565b60606110a6826109fc565b60006006600084815260200190815260200160002080546110c6906121d4565b80601f01602080910402602001604051908101604052809291908181526020018280546110f2906121d4565b801561113f5780601f106111145761010080835404028352916020019161113f565b820191906000526020600020905b81548152906001019060200180831161112257829003601f168201915b505050505090506000611150611549565b905060008151036111655781925050506111a8565b60008251111561119a578082604051602001611182929190612815565b604051602081830303815290604052925050506111a8565b6111a384611560565b925050505b919050565b6001816000016000828254019250508190555050565b600081600001549050919050565b6111eb8282604051806020016040528060008152506115c8565b5050565b6111f882611375565b611237576040517f08c379a000000000000000000000000000000000000000000000000000000000815260040161122e906128ab565b60405180910390fd5b806006600084815260200190815260200160002090816112579190612a77565b507ff8e1a15aba9398e019f0b49df1a4fde98ee17ae345cb5f6b5e2c27f5033e8ce7826040516112879190611e29565b60405180910390a15050565b60007f80ac58cd000000000000000000000000000000000000000000000000000000007bffffffffffffffffffffffffffffffffffffffffffffffffffffffff1916827bffffffffffffffffffffffffffffffffffffffffffffffffffffffff1916148061135e57507f5b5e139f000000000000000000000000000000000000000000000000000000007bffffffffffffffffffffffffffffffffffffffffffffffffffffffff1916827bffffffffffffffffffffffffffffffffffffffffffffffffffffffff1916145b8061136e575061136d82611623565b5b9050919050565b60008073ffffffffffffffffffffffffffffffffffffffff1661139783610e96565b73ffffffffffffffffffffffffffffffffffffffff1614159050919050565b50505050565b50505050565b60006113e38473ffffffffffffffffffffffffffffffffffffffff1661168d565b1561153c578373ffffffffffffffffffffffffffffffffffffffff1663150b7a0261140c610a47565b8786866040518563ffffffff1660e01b815260040161142e9493929190612b9e565b6020604051808303816000875af192505050801561146a57506040513d601f19601f820116820180604052508101906114679190612bff565b60015b6114ec573d806000811461149a576040519150601f19603f3d011682016040523d82523d6000602084013e61149f565b606091505b5060008151036114e4576040517f08c379a00000000000000000000000000000000000000000000000000000000081526004016114db906127b9565b60405180910390fd5b805181602001fd5b63150b7a0260e01b7bffffffffffffffffffffffffffffffffffffffffffffffffffffffff1916817bffffffffffffffffffffffffffffffffffffffffffffffffffffffff191614915050611541565b600190505b949350505050565b606060405180602001604052806000815250905090565b606061156b826109fc565b6000611575611549565b9050600081511161159557604051806020016040528060008152506115c0565b8061159f846116b0565b6040516020016115b0929190612815565b6040516020818303038152906040525b915050919050565b6115d2838361177e565b6115df60008484846113c2565b61161e576040517f08c379a0000000000000000000000000000000000000000000000000000000008152600401611615906127b9565b60405180910390fd5b505050565b60007f01ffc9a7000000000000000000000000000000000000000000000000000000007bffffffffffffffffffffffffffffffffffffffffffffffffffffffff1916827bffffffffffffffffffffffffffffffffffffffffffffffffffffffff1916149050919050565b6000808273ffffffffffffffffffffffffffffffffffffffff163b119050919050565b6060600060016116bf8461199b565b01905060008167ffffffffffffffff8111156116de576116dd611eba565b5b6040519080825280601f01601f1916602001820160405280156117105781602001600182028036833780820191505090505b509050600082602001820190505b600115611773578080600190039150507f3031323334353637383961626364656600000000000000000000000000000000600a86061a8153600a858161176757611766612c2c565b5b0494506000850361171e575b819350505050919050565b600073ffffffffffffffffffffffffffffffffffffffff168273ffffffffffffffffffffffffffffffffffffffff16036117ed576040517f08c379a00000000000000000000000000000000000000000000000000000000081526004016117e490612ca7565b60405180910390fd5b6117f681611375565b15611836576040517f08c379a000000000000000000000000000000000000000000000000000000000815260040161182d90612d13565b60405180910390fd5b6118446000838360016113b6565b61184d81611375565b1561188d576040517f08c379a000000000000000000000000000000000000000000000000000000000815260040161188490612d13565b60405180910390fd5b6001600360008473ffffffffffffffffffffffffffffffffffffffff1673ffffffffffffffffffffffffffffffffffffffff16815260200190815260200160002060008282540192505081905550816002600083815260200190815260200160002060006101000a81548173ffffffffffffffffffffffffffffffffffffffff021916908373ffffffffffffffffffffffffffffffffffffffff160217905550808273ffffffffffffffffffffffffffffffffffffffff16600073ffffffffffffffffffffffffffffffffffffffff167fddf252ad1be2c89b69c2b068fc378daa952ba7f163c4a11628f55a4df523b3ef60405160405180910390a46119976000838360016113bc565b5050565b600080600090507a184f03e93ff9f4daa797ed6e38ed64bf6a1f01000000000000000083106119f9577a184f03e93ff9f4daa797ed6e38ed64bf6a1f01000000000000000083816119ef576119ee612c2c565b5b0492506040810190505b6d04ee2d6d415b85acef81000000008310611a36576d04ee2d6d415b85acef81000000008381611a2c57611a2b612c2c565b5b0492506020810190505b662386f26fc100008310611a6557662386f26fc100008381611a5b57611a5a612c2c565b5b0492506010810190505b6305f5e1008310611a8e576305f5e1008381611a8457611a83612c2c565b5b0492506008810190505b6127108310611ab3576127108381611aa957611aa8612c2c565b5b0492506004810190505b60648310611ad65760648381611acc57611acb612c2c565b5b0492506002810190505b600a8310611ae5576001810190505b80915050919050565b6000604051905090565b600080fd5b600080fd5b60007fffffffff0000000000000000000000000000000000000000000000000000000082169050919050565b611b3781611b02565b8114611b4257600080fd5b50565b600081359050611b5481611b2e565b92915050565b600060208284031215611b7057611b6f611af8565b5b6000611b7e84828501611b45565b91505092915050565b60008115159050919050565b611b9c81611b87565b82525050565b6000602082019050611bb76000830184611b93565b92915050565b600081519050919050565b600082825260208201905092915050565b60005b83811015611bf7578082015181840152602081019050611bdc565b60008484015250505050565b6000601f19601f8301169050919050565b6000611c1f82611bbd565b611c298185611bc8565b9350611c39818560208601611bd9565b611c4281611c03565b840191505092915050565b60006020820190508181036000830152611c678184611c14565b905092915050565b6000819050919050565b611c8281611c6f565b8114611c8d57600080fd5b50565b600081359050611c9f81611c79565b92915050565b600060208284031215611cbb57611cba611af8565b5b6000611cc984828501611c90565b91505092915050565b600073ffffffffffffffffffffffffffffffffffffffff82169050919050565b6000611cfd82611cd2565b9050919050565b611d0d81611cf2565b82525050565b6000602082019050611d286000830184611d04565b92915050565b611d3781611cf2565b8114611d4257600080fd5b50565b600081359050611d5481611d2e565b92915050565b60008060408385031215611d7157611d70611af8565b5b6000611d7f85828601611d45565b9250506020611d9085828601611c90565b9150509250929050565b600080600060608486031215611db357611db2611af8565b5b6000611dc186828701611d45565b9350506020611dd286828701611d45565b9250506040611de386828701611c90565b9150509250925092565b600060208284031215611e0357611e02611af8565b5b6000611e1184828501611d45565b91505092915050565b611e2381611c6f565b82525050565b6000602082019050611e3e6000830184611e1a565b92915050565b611e4d81611b87565b8114611e5857600080fd5b50565b600081359050611e6a81611e44565b92915050565b60008060408385031215611e8757611e86611af8565b5b6000611e9585828601611d45565b9250506020611ea685828601611e5b565b9150509250929050565b600080fd5b600080fd5b7f4e487b7100000000000000000000000000000000000000000000000000000000600052604160045260246000fd5b611ef282611c03565b810181811067ffffffffffffffff82111715611f1157611f10611eba565b5b80604052505050565b6000611f24611aee565b9050611f308282611ee9565b919050565b600067ffffffffffffffff821115611f5057611f4f611eba565b5b611f5982611c03565b9050602081019050919050565b82818337600083830152505050565b6000611f88611f8384611f35565b611f1a565b905082815260208101848484011115611fa457611fa3611eb5565b5b611faf848285611f66565b509392505050565b600082601f830112611fcc57611fcb611eb0565b5b8135611fdc848260208601611f75565b91505092915050565b60008060008060808587031215611fff57611ffe611af8565b5b600061200d87828801611d45565b945050602061201e87828801611d45565b935050604061202f87828801611c90565b925050606085013567ffffffffffffffff8111156120505761204f611afd565b5b61205c87828801611fb7565b91505092959194509250565b600067ffffffffffffffff82111561208357612082611eba565b5b61208c82611c03565b9050602081019050919050565b60006120ac6120a784612068565b611f1a565b9050828152602081018484840111156120c8576120c7611eb5565b5b6120d3848285611f66565b509392505050565b600082601f8301126120f0576120ef611eb0565b5b8135612100848260208601612099565b91505092915050565b600080604083850312156121205761211f611af8565b5b600061212e85828601611d45565b925050602083013567ffffffffffffffff81111561214f5761214e611afd565b5b61215b858286016120db565b9150509250929050565b6000806040838503121561217c5761217b611af8565b5b600061218a85828601611d45565b925050602061219b85828601611d45565b9150509250929050565b7f4e487b7100000000000000000000000000000000000000000000000000000000600052602260045260246000fd5b600060028204905060018216806121ec57607f821691505b6020821081036121ff576121fe6121a5565b5b50919050565b7f4552433732313a20617070726f76616c20746f2063757272656e74206f776e6560008201527f7200000000000000000000000000000000000000000000000000000000000000602082015250565b6000612261602183611bc8565b915061226c82612205565b604082019050919050565b6000602082019050818103600083015261229081612254565b9050919050565b7f4552433732313a20617070726f76652063616c6c6572206973206e6f7420746f60008201527f6b656e206f776e6572206f7220617070726f76656420666f7220616c6c000000602082015250565b60006122f3603d83611bc8565b91506122fe82612297565b604082019050919050565b60006020820190508181036000830152612322816122e6565b9050919050565b7f4552433732313a2063616c6c6572206973206e6f7420746f6b656e206f776e6560008201527f72206f7220617070726f76656400000000000000000000000000000000000000602082015250565b6000612385602d83611bc8565b915061239082612329565b604082019050919050565b600060208201905081810360008301526123b481612378565b9050919050565b7f4552433732313a20696e76616c696420746f6b656e2049440000000000000000600082015250565b60006123f1601883611bc8565b91506123fc826123bb565b602082019050919050565b60006020820190508181036000830152612420816123e4565b9050919050565b7f4552433732313a2061646472657373207a65726f206973206e6f74206120766160008201527f6c6964206f776e65720000000000000000000000000000000000000000000000602082015250565b6000612483602983611bc8565b915061248e82612427565b604082019050919050565b600060208201905081810360008301526124b281612476565b9050919050565b7f596f7520646f206e6f7420686176652061636365737321000000000000000000600082015250565b60006124ef601783611bc8565b91506124fa826124b9565b602082019050919050565b6000602082019050818103600083015261251e816124e2565b9050919050565b7f54686572652063616e206265206f6e6c79203330204e46547320696e2061205460008201527f72656520436f6c6c656374696f6e210000000000000000000000000000000000602082015250565b6000612581602f83611bc8565b915061258c82612525565b604082019050919050565b600060208201905081810360008301526125b081612574565b9050919050565b7f4552433732313a207472616e736665722066726f6d20696e636f72726563742060008201527f6f776e6572000000000000000000000000000000000000000000000000000000602082015250565b6000612613602583611bc8565b915061261e826125b7565b604082019050919050565b6000602082019050818103600083015261264281612606565b9050919050565b7f4552433732313a207472616e7366657220746f20746865207a65726f2061646460008201527f7265737300000000000000000000000000000000000000000000000000000000602082015250565b60006126a5602483611bc8565b91506126b082612649565b604082019050919050565b600060208201905081810360008301526126d481612698565b9050919050565b7f4552433732313a20617070726f766520746f2063616c6c657200000000000000600082015250565b6000612711601983611bc8565b915061271c826126db565b602082019050919050565b6000602082019050818103600083015261274081612704565b9050919050565b7f4552433732313a207472616e7366657220746f206e6f6e20455243373231526560008201527f63656976657220696d706c656d656e7465720000000000000000000000000000602082015250565b60006127a3603283611bc8565b91506127ae82612747565b604082019050919050565b600060208201905081810360008301526127d281612796565b9050919050565b600081905092915050565b60006127ef82611bbd565b6127f981856127d9565b9350612809818560208601611bd9565b80840191505092915050565b600061282182856127e4565b915061282d82846127e4565b91508190509392505050565b7f45524337323155524953746f726167653a2055524920736574206f66206e6f6e60008201527f6578697374656e7420746f6b656e000000000000000000000000000000000000602082015250565b6000612895602e83611bc8565b91506128a082612839565b604082019050919050565b600060208201905081810360008301526128c481612888565b9050919050565b60008190508160005260206000209050919050565b60006020601f8301049050919050565b600082821b905092915050565b60006008830261292d7fffffffffffffffffffffffffffffffffffffffffffffffffffffffffffffffff826128f0565b61293786836128f0565b95508019841693508086168417925050509392505050565b6000819050919050565b600061297461296f61296a84611c6f565b61294f565b611c6f565b9050919050565b6000819050919050565b61298e83612959565b6129a261299a8261297b565b8484546128fd565b825550505050565b600090565b6129b76129aa565b6129c2818484612985565b505050565b5b818110156129e6576129db6000826129af565b6001810190506129c8565b5050565b601f821115612a2b576129fc816128cb565b612a05846128e0565b81016020851015612a14578190505b612a28612a20856128e0565b8301826129c7565b50505b505050565b600082821c905092915050565b6000612a4e60001984600802612a30565b1980831691505092915050565b6000612a678383612a3d565b9150826002028217905092915050565b612a8082611bbd565b67ffffffffffffffff811115612a9957612a98611eba565b5b612aa382546121d4565b612aae8282856129ea565b600060209050601f831160018114612ae15760008415612acf578287015190505b612ad98582612a5b565b865550612b41565b601f198416612aef866128cb565b60005b82811015612b1757848901518255600182019150602085019450602081019050612af2565b86831015612b345784890151612b30601f891682612a3d565b8355505b6001600288020188555050505b505050505050565b600081519050919050565b600082825260208201905092915050565b6000612b7082612b49565b612b7a8185612b54565b9350612b8a818560208601611bd9565b612b9381611c03565b840191505092915050565b6000608082019050612bb36000830187611d04565b612bc06020830186611d04565b612bcd6040830185611e1a565b8181036060830152612bdf8184612b65565b905095945050505050565b600081519050612bf981611b2e565b92915050565b600060208284031215612c1557612c14611af8565b5b6000612c2384828501612bea565b91505092915050565b7f4e487b7100000000000000000000000000000000000000000000000000000000600052601260045260246000fd5b7f4552433732313a206d696e7420746f20746865207a65726f2061646472657373600082015250565b6000612c91602083611bc8565b9150612c9c82612c5b565b602082019050919050565b60006020820190508181036000830152612cc081612c84565b9050919050565b7f4552433732313a20746f6b656e20616c7265616479206d696e74656400000000600082015250565b6000612cfd601c83611bc8565b9150612d0882612cc7565b602082019050919050565b60006020820190508181036000830152612d2c81612cf0565b905091905056fea264697066735822122006480fb9604f9618ec52e43ed055284991df4153d46aaa828a03fd80ea6ee82364736f6c63430008120033a2646970667358221220cca82c9f258b8bc334a291cf0f5b5adca59cb649d1f42c3a471640a7930b4cf364736f6c63430008120033",
		"opcodes": "PUSH1 0xE0 PUSH1 0x40 MSTORE PUSH10 0xD3C21BCECCEDA1000000 PUSH1 0x80 SWAP1 DUP2 MSTORE POP PUSH8 0xDE0B6B3A7640000 PUSH1 0xA0 SWAP1 DUP2 MSTORE POP CALLVALUE DUP1 ISZERO PUSH3 0x31 JUMPI PUSH1 0x0 DUP1 REVERT JUMPDEST POP PUSH1 0x40 MLOAD PUSH3 0x6547 CODESIZE SUB DUP1 PUSH3 0x6547 DUP4 CODECOPY DUP2 DUP2 ADD PUSH1 0x40 MSTORE DUP2 ADD SWAP1 PUSH3 0x57 SWAP2 SWAP1 PUSH3 0x1CF JUMP JUMPDEST PUSH1 0x40 MLOAD DUP1 PUSH1 0x40 ADD PUSH1 0x40 MSTORE DUP1 PUSH1 0x7 DUP2 MSTORE PUSH1 0x20 ADD PUSH32 0x47656E6573697300000000000000000000000000000000000000000000000000 DUP2 MSTORE POP PUSH1 0x40 MLOAD DUP1 PUSH1 0x40 ADD PUSH1 0x40 MSTORE DUP1 PUSH1 0x3 DUP2 MSTORE PUSH1 0x20 ADD PUSH32 0x474E450000000000000000000000000000000000000000000000000000000000 DUP2 MSTORE POP DUP2 PUSH1 0x3 SWAP1 DUP2 PUSH3 0xD4 SWAP2 SWAP1 PUSH3 0x47B JUMP JUMPDEST POP DUP1 PUSH1 0x4 SWAP1 DUP2 PUSH3 0xE6 SWAP2 SWAP1 PUSH3 0x47B JUMP JUMPDEST POP POP POP CALLER PUSH1 0x6 PUSH1 0x0 PUSH2 0x100 EXP DUP2 SLOAD DUP2 PUSH20 0xFFFFFFFFFFFFFFFFFFFFFFFFFFFFFFFFFFFFFFFF MUL NOT AND SWAP1 DUP4 PUSH20 0xFFFFFFFFFFFFFFFFFFFFFFFFFFFFFFFFFFFFFFFF AND MUL OR SWAP1 SSTORE POP DUP1 PUSH20 0xFFFFFFFFFFFFFFFFFFFFFFFFFFFFFFFFFFFFFFFF AND PUSH1 0xC0 DUP2 PUSH20 0xFFFFFFFFFFFFFFFFFFFFFFFFFFFFFFFFFFFFFFFF AND DUP2 MSTORE POP POP POP PUSH3 0x562 JUMP JUMPDEST PUSH1 0x0 DUP1 REVERT JUMPDEST PUSH1 0x0 PUSH20 0xFFFFFFFFFFFFFFFFFFFFFFFFFFFFFFFFFFFFFFFF DUP3 AND SWAP1 POP SWAP2 SWAP1 POP JUMP JUMPDEST PUSH1 0x0 PUSH3 0x197 DUP3 PUSH3 0x16A JUMP JUMPDEST SWAP1 POP SWAP2 SWAP1 POP JUMP JUMPDEST PUSH3 0x1A9 DUP2 PUSH3 0x18A JUMP JUMPDEST DUP2 EQ PUSH3 0x1B5 JUMPI PUSH1 0x0 DUP1 REVERT JUMPDEST POP JUMP JUMPDEST PUSH1 0x0 DUP2 MLOAD SWAP1 POP PUSH3 0x1C9 DUP2 PUSH3 0x19E JUMP JUMPDEST SWAP3 SWAP2 POP POP JUMP JUMPDEST PUSH1 0x0 PUSH1 0x20 DUP3 DUP5 SUB SLT ISZERO PUSH3 0x1E8 JUMPI PUSH3 0x1E7 PUSH3 0x165 JUMP JUMPDEST JUMPDEST PUSH1 0x0 PUSH3 0x1F8 DUP5 DUP3 DUP6 ADD PUSH3 0x1B8 JUMP JUMPDEST SWAP2 POP POP SWAP3 SWAP2 POP POP JUMP JUMPDEST PUSH1 0x0 DUP2 MLOAD SWAP1 POP SWAP2 SWAP1 POP JUMP JUMPDEST PUSH32 0x4E487B7100000000000000000000000000000000000000000000000000000000 PUSH1 0x0 MSTORE PUSH1 0x41 PUSH1 0x4 MSTORE PUSH1 0x24 PUSH1 0x0 REVERT JUMPDEST PUSH32 0x4E487B7100000000000000000000000000000000000000000000000000000000 PUSH1 0x0 MSTORE PUSH1 0x22 PUSH1 0x4 MSTORE PUSH1 0x24 PUSH1 0x0 REVERT JUMPDEST PUSH1 0x0 PUSH1 0x2 DUP3 DIV SWAP1 POP PUSH1 0x1 DUP3 AND DUP1 PUSH3 0x283 JUMPI PUSH1 0x7F DUP3 AND SWAP2 POP JUMPDEST PUSH1 0x20 DUP3 LT DUP2 SUB PUSH3 0x299 JUMPI PUSH3 0x298 PUSH3 0x23B JUMP JUMPDEST JUMPDEST POP SWAP2 SWAP1 POP JUMP JUMPDEST PUSH1 0x0 DUP2 SWAP1 POP DUP2 PUSH1 0x0 MSTORE PUSH1 0x20 PUSH1 0x0 KECCAK256 SWAP1 POP SWAP2 SWAP1 POP JUMP JUMPDEST PUSH1 0x0 PUSH1 0x20 PUSH1 0x1F DUP4 ADD DIV SWAP1 POP SWAP2 SWAP1 POP JUMP JUMPDEST PUSH1 0x0 DUP3 DUP3 SHL SWAP1 POP SWAP3 SWAP2 POP POP JUMP JUMPDEST PUSH1 0x0 PUSH1 0x8 DUP4 MUL PUSH3 0x303 PUSH32 0xFFFFFFFFFFFFFFFFFFFFFFFFFFFFFFFFFFFFFFFFFFFFFFFFFFFFFFFFFFFFFFFF DUP3 PUSH3 0x2C4 JUMP JUMPDEST PUSH3 0x30F DUP7 DUP4 PUSH3 0x2C4 JUMP JUMPDEST SWAP6 POP DUP1 NOT DUP5 AND SWAP4 POP DUP1 DUP7 AND DUP5 OR SWAP3 POP POP POP SWAP4 SWAP3 POP POP POP JUMP JUMPDEST PUSH1 0x0 DUP2 SWAP1 POP SWAP2 SWAP1 POP JUMP JUMPDEST PUSH1 0x0 DUP2 SWAP1 POP SWAP2 SWAP1 POP JUMP JUMPDEST PUSH1 0x0 PUSH3 0x35C PUSH3 0x356 PUSH3 0x350 DUP5 PUSH3 0x327 JUMP JUMPDEST PUSH3 0x331 JUMP JUMPDEST PUSH3 0x327 JUMP JUMPDEST SWAP1 POP SWAP2 SWAP1 POP JUMP JUMPDEST PUSH1 0x0 DUP2 SWAP1 POP SWAP2 SWAP1 POP JUMP JUMPDEST PUSH3 0x378 DUP4 PUSH3 0x33B JUMP JUMPDEST PUSH3 0x390 PUSH3 0x387 DUP3 PUSH3 0x363 JUMP JUMPDEST DUP5 DUP5 SLOAD PUSH3 0x2D1 JUMP JUMPDEST DUP3 SSTORE POP POP POP POP JUMP JUMPDEST PUSH1 0x0 SWAP1 JUMP JUMPDEST PUSH3 0x3A7 PUSH3 0x398 JUMP JUMPDEST PUSH3 0x3B4 DUP2 DUP5 DUP5 PUSH3 0x36D JUMP JUMPDEST POP POP POP JUMP JUMPDEST JUMPDEST DUP2 DUP2 LT ISZERO PUSH3 0x3DC JUMPI PUSH3 0x3D0 PUSH1 0x0 DUP3 PUSH3 0x39D JUMP JUMPDEST PUSH1 0x1 DUP2 ADD SWAP1 POP PUSH3 0x3BA JUMP JUMPDEST POP POP JUMP JUMPDEST PUSH1 0x1F DUP3 GT ISZERO PUSH3 0x42B JUMPI PUSH3 0x3F5 DUP2 PUSH3 0x29F JUMP JUMPDEST PUSH3 0x400 DUP5 PUSH3 0x2B4 JUMP JUMPDEST DUP2 ADD PUSH1 0x20 DUP6 LT ISZERO PUSH3 0x410 JUMPI DUP2 SWAP1 POP JUMPDEST PUSH3 0x428 PUSH3 0x41F DUP6 PUSH3 0x2B4 JUMP JUMPDEST DUP4 ADD DUP3 PUSH3 0x3B9 JUMP JUMPDEST POP POP JUMPDEST POP POP POP JUMP JUMPDEST PUSH1 0x0 DUP3 DUP3 SHR SWAP1 POP SWAP3 SWAP2 POP POP JUMP JUMPDEST PUSH1 0x0 PUSH3 0x450 PUSH1 0x0 NOT DUP5 PUSH1 0x8 MUL PUSH3 0x430 JUMP JUMPDEST NOT DUP1 DUP4 AND SWAP2 POP POP SWAP3 SWAP2 POP POP JUMP JUMPDEST PUSH1 0x0 PUSH3 0x46B DUP4 DUP4 PUSH3 0x43D JUMP JUMPDEST SWAP2 POP DUP3 PUSH1 0x2 MUL DUP3 OR SWAP1 POP SWAP3 SWAP2 POP POP JUMP JUMPDEST PUSH3 0x486 DUP3 PUSH3 0x201 JUMP JUMPDEST PUSH8 0xFFFFFFFFFFFFFFFF DUP2 GT ISZERO PUSH3 0x4A2 JUMPI PUSH3 0x4A1 PUSH3 0x20C JUMP JUMPDEST JUMPDEST PUSH3 0x4AE DUP3 SLOAD PUSH3 0x26A JUMP JUMPDEST PUSH3 0x4BB DUP3 DUP3 DUP6 PUSH3 0x3E0 JUMP JUMPDEST PUSH1 0x0 PUSH1 0x20 SWAP1 POP PUSH1 0x1F DUP4 GT PUSH1 0x1 DUP2 EQ PUSH3 0x4F3 JUMPI PUSH1 0x0 DUP5 ISZERO PUSH3 0x4DE JUMPI DUP3 DUP8 ADD MLOAD SWAP1 POP JUMPDEST PUSH3 0x4EA DUP6 DUP3 PUSH3 0x45D JUMP JUMPDEST DUP7 SSTORE POP PUSH3 0x55A JUMP JUMPDEST PUSH1 0x1F NOT DUP5 AND PUSH3 0x503 DUP7 PUSH3 0x29F JUMP JUMPDEST PUSH1 0x0 JUMPDEST DUP3 DUP2 LT ISZERO PUSH3 0x52D JUMPI DUP5 DUP10 ADD MLOAD DUP3 SSTORE PUSH1 0x1 DUP3 ADD SWAP2 POP PUSH1 0x20 DUP6 ADD SWAP5 POP PUSH1 0x20 DUP2 ADD SWAP1 POP PUSH3 0x506 JUMP JUMPDEST DUP7 DUP4 LT ISZERO PUSH3 0x54D JUMPI DUP5 DUP10 ADD MLOAD PUSH3 0x549 PUSH1 0x1F DUP10 AND DUP3 PUSH3 0x43D JUMP JUMPDEST DUP4 SSTORE POP JUMPDEST PUSH1 0x1 PUSH1 0x2 DUP9 MUL ADD DUP9 SSTORE POP POP POP JUMPDEST POP POP POP POP POP POP JUMP JUMPDEST PUSH1 0x80 MLOAD PUSH1 0xA0 MLOAD PUSH1 0xC0 MLOAD PUSH2 0x5FA7 PUSH3 0x5A0 PUSH1 0x0 CODECOPY PUSH1 0x0 DUP2 DUP2 PUSH2 0x6DA ADD MSTORE PUSH2 0x13E2 ADD MSTORE PUSH1 0x0 PUSH2 0x110E ADD MSTORE PUSH1 0x0 DUP2 DUP2 PUSH2 0x718 ADD MSTORE PUSH2 0x1420 ADD MSTORE PUSH2 0x5FA7 PUSH1 0x0 RETURN INVALID PUSH1 0x80 PUSH1 0x40 MSTORE CALLVALUE DUP1 ISZERO PUSH3 0x11 JUMPI PUSH1 0x0 DUP1 REVERT JUMPDEST POP PUSH1 0x4 CALLDATASIZE LT PUSH3 0x13C JUMPI PUSH1 0x0 CALLDATALOAD PUSH1 0xE0 SHR DUP1 PUSH4 0x70A08231 GT PUSH3 0xBD JUMPI DUP1 PUSH4 0xA9059CBB GT PUSH3 0x7B JUMPI DUP1 PUSH4 0xA9059CBB EQ PUSH3 0x391 JUMPI DUP1 PUSH4 0xAEA3EE43 EQ PUSH3 0x3C7 JUMPI DUP1 PUSH4 0xC3490263 EQ PUSH3 0x3FD JUMPI DUP1 PUSH4 0xDD62ED3E EQ PUSH3 0x433 JUMPI DUP1 PUSH4 0xF2EE634D EQ PUSH3 0x469 JUMPI PUSH3 0x13C JUMP JUMPDEST DUP1 PUSH4 0x70A08231 EQ PUSH3 0x2D5 JUMPI DUP1 PUSH4 0x9427E64A EQ PUSH3 0x30B JUMPI DUP1 PUSH4 0x95D89B41 EQ PUSH3 0x317 JUMPI DUP1 PUSH4 0xA457C2D7 EQ PUSH3 0x339 JUMPI DUP1 PUSH4 0xA85292DF EQ PUSH3 0x36F JUMPI PUSH3 0x13C JUMP JUMPDEST DUP1 PUSH4 0x23B872DD GT PUSH3 0x10B JUMPI DUP1 PUSH4 0x23B872DD EQ PUSH3 0x1F1 JUMPI DUP1 PUSH4 0x313CE567 EQ PUSH3 0x227 JUMPI DUP1 PUSH4 0x39509351 EQ PUSH3 0x249 JUMPI DUP1 PUSH4 0x43A46931 EQ PUSH3 0x27F JUMPI DUP1 PUSH4 0x6407019C EQ PUSH3 0x29F JUMPI PUSH3 0x13C JUMP JUMPDEST DUP1 PUSH4 0x6FDDE03 EQ PUSH3 0x141 JUMPI DUP1 PUSH4 0x95EA7B3 EQ PUSH3 0x163 JUMPI DUP1 PUSH4 0x18160DDD EQ PUSH3 0x199 JUMPI DUP1 PUSH4 0x2331A50E EQ PUSH3 0x1BB JUMPI JUMPDEST PUSH1 0x0 DUP1 REVERT JUMPDEST PUSH3 0x14B PUSH3 0x49F JUMP JUMPDEST PUSH1 0x40 MLOAD PUSH3 0x15A SWAP2 SWAP1 PUSH3 0x1CDD JUMP JUMPDEST PUSH1 0x40 MLOAD DUP1 SWAP2 SUB SWAP1 RETURN JUMPDEST PUSH3 0x181 PUSH1 0x4 DUP1 CALLDATASIZE SUB DUP2 ADD SWAP1 PUSH3 0x17B SWAP2 SWAP1 PUSH3 0x1DB5 JUMP JUMPDEST PUSH3 0x539 JUMP JUMPDEST PUSH1 0x40 MLOAD PUSH3 0x190 SWAP2 SWAP1 PUSH3 0x1E19 JUMP JUMPDEST PUSH1 0x40 MLOAD DUP1 SWAP2 SUB SWAP1 RETURN JUMPDEST PUSH3 0x1A3 PUSH3 0x560 JUMP JUMPDEST PUSH1 0x40 MLOAD PUSH3 0x1B2 SWAP2 SWAP1 PUSH3 0x1E47 JUMP JUMPDEST PUSH1 0x40 MLOAD DUP1 SWAP2 SUB SWAP1 RETURN JUMPDEST PUSH3 0x1D9 PUSH1 0x4 DUP1 CALLDATASIZE SUB DUP2 ADD SWAP1 PUSH3 0x1D3 SWAP2 SWAP1 PUSH3 0x1E64 JUMP JUMPDEST PUSH3 0x56A JUMP JUMPDEST PUSH1 0x40 MLOAD PUSH3 0x1E8 SWAP2 SWAP1 PUSH3 0x1F3F JUMP JUMPDEST PUSH1 0x40 MLOAD DUP1 SWAP2 SUB SWAP1 RETURN JUMPDEST PUSH3 0x20F PUSH1 0x4 DUP1 CALLDATASIZE SUB DUP2 ADD SWAP1 PUSH3 0x209 SWAP2 SWAP1 PUSH3 0x1F5C JUMP JUMPDEST PUSH3 0x5F1 JUMP JUMPDEST PUSH1 0x40 MLOAD PUSH3 0x21E SWAP2 SWAP1 PUSH3 0x1E19 JUMP JUMPDEST PUSH1 0x40 MLOAD DUP1 SWAP2 SUB SWAP1 RETURN JUMPDEST PUSH3 0x231 PUSH3 0x626 JUMP JUMPDEST PUSH1 0x40 MLOAD PUSH3 0x240 SWAP2 SWAP1 PUSH3 0x1FD6 JUMP JUMPDEST PUSH1 0x40 MLOAD DUP1 SWAP2 SUB SWAP1 RETURN JUMPDEST PUSH3 0x267 PUSH1 0x4 DUP1 CALLDATASIZE SUB DUP2 ADD SWAP1 PUSH3 0x261 SWAP2 SWAP1 PUSH3 0x1DB5 JUMP JUMPDEST PUSH3 0x62F JUMP JUMPDEST PUSH1 0x40 MLOAD PUSH3 0x276 SWAP2 SWAP1 PUSH3 0x1E19 JUMP JUMPDEST PUSH1 0x40 MLOAD DUP1 SWAP2 SUB SWAP1 RETURN JUMPDEST PUSH3 0x29D PUSH1 0x4 DUP1 CALLDATASIZE SUB DUP2 ADD SWAP1 PUSH3 0x297 SWAP2 SWAP1 PUSH3 0x2144 JUMP JUMPDEST PUSH3 0x66E JUMP JUMPDEST STOP JUMPDEST PUSH3 0x2BD PUSH1 0x4 DUP1 CALLDATASIZE SUB DUP2 ADD SWAP1 PUSH3 0x2B7 SWAP2 SWAP1 PUSH3 0x21AA JUMP JUMPDEST PUSH3 0x9B2 JUMP JUMPDEST PUSH1 0x40 MLOAD PUSH3 0x2CC SWAP2 SWAP1 PUSH3 0x1E47 JUMP JUMPDEST PUSH1 0x40 MLOAD DUP1 SWAP2 SUB SWAP1 RETURN JUMPDEST PUSH3 0x2F3 PUSH1 0x4 DUP1 CALLDATASIZE SUB DUP2 ADD SWAP1 PUSH3 0x2ED SWAP2 SWAP1 PUSH3 0x21DC JUMP JUMPDEST PUSH3 0xA60 JUMP JUMPDEST PUSH1 0x40 MLOAD PUSH3 0x302 SWAP2 SWAP1 PUSH3 0x1E47 JUMP JUMPDEST PUSH1 0x40 MLOAD DUP1 SWAP2 SUB SWAP1 RETURN JUMPDEST PUSH3 0x315 PUSH3 0xAA8 JUMP JUMPDEST STOP JUMPDEST PUSH3 0x321 PUSH3 0xC09 JUMP JUMPDEST PUSH1 0x40 MLOAD PUSH3 0x330 SWAP2 SWAP1 PUSH3 0x1CDD JUMP JUMPDEST PUSH1 0x40 MLOAD DUP1 SWAP2 SUB SWAP1 RETURN JUMPDEST PUSH3 0x357 PUSH1 0x4 DUP1 CALLDATASIZE SUB DUP2 ADD SWAP1 PUSH3 0x351 SWAP2 SWAP1 PUSH3 0x1DB5 JUMP JUMPDEST PUSH3 0xCA3 JUMP JUMPDEST PUSH1 0x40 MLOAD PUSH3 0x366 SWAP2 SWAP1 PUSH3 0x1E19 JUMP JUMPDEST PUSH1 0x40 MLOAD DUP1 SWAP2 SUB SWAP1 RETURN JUMPDEST PUSH3 0x379 PUSH3 0xD23 JUMP JUMPDEST PUSH1 0x40 MLOAD PUSH3 0x388 SWAP2 SWAP1 PUSH3 0x1E47 JUMP JUMPDEST PUSH1 0x40 MLOAD DUP1 SWAP2 SUB SWAP1 RETURN JUMPDEST PUSH3 0x3AF PUSH1 0x4 DUP1 CALLDATASIZE SUB DUP2 ADD SWAP1 PUSH3 0x3A9 SWAP2 SWAP1 PUSH3 0x1DB5 JUMP JUMPDEST PUSH3 0xD2F JUMP JUMPDEST PUSH1 0x40 MLOAD PUSH3 0x3BE SWAP2 SWAP1 PUSH3 0x1E19 JUMP JUMPDEST PUSH1 0x40 MLOAD DUP1 SWAP2 SUB SWAP1 RETURN JUMPDEST PUSH3 0x3E5 PUSH1 0x4 DUP1 CALLDATASIZE SUB DUP2 ADD SWAP1 PUSH3 0x3DF SWAP2 SWAP1 PUSH3 0x21AA JUMP JUMPDEST PUSH3 0xD56 JUMP JUMPDEST PUSH1 0x40 MLOAD PUSH3 0x3F4 SWAP2 SWAP1 PUSH3 0x2279 JUMP JUMPDEST PUSH1 0x40 MLOAD DUP1 SWAP2 SUB SWAP1 RETURN JUMPDEST PUSH3 0x41B PUSH1 0x4 DUP1 CALLDATASIZE SUB DUP2 ADD SWAP1 PUSH3 0x415 SWAP2 SWAP1 PUSH3 0x1E64 JUMP JUMPDEST PUSH3 0xD89 JUMP JUMPDEST PUSH1 0x40 MLOAD PUSH3 0x42A SWAP2 SWAP1 PUSH3 0x1E19 JUMP JUMPDEST PUSH1 0x40 MLOAD DUP1 SWAP2 SUB SWAP1 RETURN JUMPDEST PUSH3 0x451 PUSH1 0x4 DUP1 CALLDATASIZE SUB DUP2 ADD SWAP1 PUSH3 0x44B SWAP2 SWAP1 PUSH3 0x2296 JUMP JUMPDEST PUSH3 0x114C JUMP JUMPDEST PUSH1 0x40 MLOAD PUSH3 0x460 SWAP2 SWAP1 PUSH3 0x1E47 JUMP JUMPDEST PUSH1 0x40 MLOAD DUP1 SWAP2 SUB SWAP1 RETURN JUMPDEST PUSH3 0x487 PUSH1 0x4 DUP1 CALLDATASIZE SUB DUP2 ADD SWAP1 PUSH3 0x481 SWAP2 SWAP1 PUSH3 0x1E64 JUMP JUMPDEST PUSH3 0x11D3 JUMP JUMPDEST PUSH1 0x40 MLOAD PUSH3 0x496 SWAP2 SWAP1 PUSH3 0x1E19 JUMP JUMPDEST PUSH1 0x40 MLOAD DUP1 SWAP2 SUB SWAP1 RETURN JUMPDEST PUSH1 0x60 PUSH1 0x3 DUP1 SLOAD PUSH3 0x4B0 SWAP1 PUSH3 0x230C JUMP JUMPDEST DUP1 PUSH1 0x1F ADD PUSH1 0x20 DUP1 SWAP2 DIV MUL PUSH1 0x20 ADD PUSH1 0x40 MLOAD SWAP1 DUP2 ADD PUSH1 0x40 MSTORE DUP1 SWAP3 SWAP2 SWAP1 DUP2 DUP2 MSTORE PUSH1 0x20 ADD DUP3 DUP1 SLOAD PUSH3 0x4DE SWAP1 PUSH3 0x230C JUMP JUMPDEST DUP1 ISZERO PUSH3 0x52F JUMPI DUP1 PUSH1 0x1F LT PUSH3 0x503 JUMPI PUSH2 0x100 DUP1 DUP4 SLOAD DIV MUL DUP4 MSTORE SWAP2 PUSH1 0x20 ADD SWAP2 PUSH3 0x52F JUMP JUMPDEST DUP3 ADD SWAP2 SWAP1 PUSH1 0x0 MSTORE PUSH1 0x20 PUSH1 0x0 KECCAK256 SWAP1 JUMPDEST DUP2 SLOAD DUP2 MSTORE SWAP1 PUSH1 0x1 ADD SWAP1 PUSH1 0x20 ADD DUP1 DUP4 GT PUSH3 0x511 JUMPI DUP3 SWAP1 SUB PUSH1 0x1F AND DUP3 ADD SWAP2 JUMPDEST POP POP POP POP POP SWAP1 POP SWAP1 JUMP JUMPDEST PUSH1 0x0 DUP1 PUSH3 0x546 PUSH3 0x1573 JUMP JUMPDEST SWAP1 POP PUSH3 0x555 DUP2 DUP6 DUP6 PUSH3 0x157B JUMP JUMPDEST PUSH1 0x1 SWAP2 POP POP SWAP3 SWAP2 POP POP JUMP JUMPDEST PUSH1 0x0 PUSH1 0x2 SLOAD SWAP1 POP SWAP1 JUMP JUMPDEST PUSH3 0x574 PUSH3 0x1C04 JUMP JUMPDEST PUSH1 0x8 PUSH1 0x0 DUP5 DUP2 MSTORE PUSH1 0x20 ADD SWAP1 DUP2 MSTORE PUSH1 0x20 ADD PUSH1 0x0 KECCAK256 PUSH1 0x0 ADD PUSH1 0x0 DUP4 DUP2 MSTORE PUSH1 0x20 ADD SWAP1 DUP2 MSTORE PUSH1 0x20 ADD PUSH1 0x0 KECCAK256 PUSH1 0x40 MLOAD DUP1 PUSH1 0xA0 ADD PUSH1 0x40 MSTORE SWAP1 DUP2 PUSH1 0x0 DUP3 ADD SLOAD DUP2 MSTORE PUSH1 0x20 ADD PUSH1 0x1 DUP3 ADD SLOAD DUP2 MSTORE PUSH1 0x20 ADD PUSH1 0x2 DUP3 ADD SLOAD DUP2 MSTORE PUSH1 0x20 ADD PUSH1 0x3 DUP3 ADD SLOAD DUP2 MSTORE PUSH1 0x20 ADD PUSH1 0x4 DUP3 ADD PUSH1 0x0 SWAP1 SLOAD SWAP1 PUSH2 0x100 EXP SWAP1 DIV PUSH1 0xFF AND ISZERO ISZERO ISZERO ISZERO DUP2 MSTORE POP POP SWAP1 POP SWAP3 SWAP2 POP POP JUMP JUMPDEST PUSH1 0x0 DUP1 PUSH3 0x5FE PUSH3 0x1573 JUMP JUMPDEST SWAP1 POP PUSH3 0x60D DUP6 DUP3 DUP6 PUSH3 0x174C JUMP JUMPDEST PUSH3 0x61A DUP6 DUP6 DUP6 PUSH3 0x17E0 JUMP JUMPDEST PUSH1 0x1 SWAP2 POP POP SWAP4 SWAP3 POP POP POP JUMP JUMPDEST PUSH1 0x0 PUSH1 0x12 SWAP1 POP SWAP1 JUMP JUMPDEST PUSH1 0x0 DUP1 PUSH3 0x63C PUSH3 0x1573 JUMP JUMPDEST SWAP1 POP PUSH3 0x663 DUP2 DUP6 DUP6 PUSH3 0x651 DUP6 DUP10 PUSH3 0x114C JUMP JUMPDEST PUSH3 0x65D SWAP2 SWAP1 PUSH3 0x2370 JUMP JUMPDEST PUSH3 0x157B JUMP JUMPDEST PUSH1 0x1 SWAP2 POP POP SWAP3 SWAP2 POP POP JUMP JUMPDEST PUSH1 0x1 ISZERO ISZERO PUSH1 0x9 PUSH1 0x0 DUP5 DUP2 MSTORE PUSH1 0x20 ADD SWAP1 DUP2 MSTORE PUSH1 0x20 ADD PUSH1 0x0 KECCAK256 PUSH1 0x0 SWAP1 SLOAD SWAP1 PUSH2 0x100 EXP SWAP1 DIV PUSH1 0xFF AND ISZERO ISZERO EQ PUSH3 0x6D8 JUMPI PUSH1 0x40 MLOAD PUSH32 0x8C379A000000000000000000000000000000000000000000000000000000000 DUP2 MSTORE PUSH1 0x4 ADD PUSH3 0x6CF SWAP1 PUSH3 0x23FB JUMP JUMPDEST PUSH1 0x40 MLOAD DUP1 SWAP2 SUB SWAP1 REVERT JUMPDEST PUSH32 0x0 PUSH20 0xFFFFFFFFFFFFFFFFFFFFFFFFFFFFFFFFFFFFFFFF AND PUSH4 0x23B872DD CALLER ADDRESS PUSH32 0x0 PUSH1 0x5 PUSH3 0x745 SWAP2 SWAP1 PUSH3 0x241D JUMP JUMPDEST PUSH1 0x40 MLOAD DUP5 PUSH4 0xFFFFFFFF AND PUSH1 0xE0 SHL DUP2 MSTORE PUSH1 0x4 ADD PUSH3 0x765 SWAP4 SWAP3 SWAP2 SWAP1 PUSH3 0x2479 JUMP JUMPDEST PUSH1 0x20 PUSH1 0x40 MLOAD DUP1 DUP4 SUB DUP2 PUSH1 0x0 DUP8 GAS CALL ISZERO DUP1 ISZERO PUSH3 0x785 JUMPI RETURNDATASIZE PUSH1 0x0 DUP1 RETURNDATACOPY RETURNDATASIZE PUSH1 0x0 REVERT JUMPDEST POP POP POP POP PUSH1 0x40 MLOAD RETURNDATASIZE PUSH1 0x1F NOT PUSH1 0x1F DUP3 ADD AND DUP3 ADD DUP1 PUSH1 0x40 MSTORE POP DUP2 ADD SWAP1 PUSH3 0x7AB SWAP2 SWAP1 PUSH3 0x24E7 JUMP JUMPDEST PUSH3 0x7ED JUMPI PUSH1 0x40 MLOAD PUSH32 0x8C379A000000000000000000000000000000000000000000000000000000000 DUP2 MSTORE PUSH1 0x4 ADD PUSH3 0x7E4 SWAP1 PUSH3 0x2569 JUMP JUMPDEST PUSH1 0x40 MLOAD DUP1 SWAP2 SUB SWAP1 REVERT JUMPDEST PUSH1 0x0 PUSH1 0x7 PUSH1 0x0 DUP5 DUP2 MSTORE PUSH1 0x20 ADD SWAP1 DUP2 MSTORE PUSH1 0x20 ADD PUSH1 0x0 KECCAK256 PUSH1 0x0 SWAP1 SLOAD SWAP1 PUSH2 0x100 EXP SWAP1 DIV PUSH20 0xFFFFFFFFFFFFFFFFFFFFFFFFFFFFFFFFFFFFFFFF AND SWAP1 POP DUP1 PUSH20 0xFFFFFFFFFFFFFFFFFFFFFFFFFFFFFFFFFFFFFFFF AND PUSH4 0xD204C45E CALLER DUP5 PUSH1 0x40 MLOAD DUP4 PUSH4 0xFFFFFFFF AND PUSH1 0xE0 SHL DUP2 MSTORE PUSH1 0x4 ADD PUSH3 0x862 SWAP3 SWAP2 SWAP1 PUSH3 0x258B JUMP JUMPDEST PUSH1 0x0 PUSH1 0x40 MLOAD DUP1 DUP4 SUB DUP2 PUSH1 0x0 DUP8 DUP1 EXTCODESIZE ISZERO DUP1 ISZERO PUSH3 0x87D JUMPI PUSH1 0x0 DUP1 REVERT JUMPDEST POP GAS CALL ISZERO DUP1 ISZERO PUSH3 0x892 JUMPI RETURNDATASIZE PUSH1 0x0 DUP1 RETURNDATACOPY RETURNDATASIZE PUSH1 0x0 REVERT JUMPDEST POP POP POP POP PUSH1 0x0 DUP2 PUSH20 0xFFFFFFFFFFFFFFFFFFFFFFFFFFFFFFFFFFFFFFFF AND PUSH4 0x98BDF6F5 PUSH1 0x40 MLOAD DUP2 PUSH4 0xFFFFFFFF AND PUSH1 0xE0 SHL DUP2 MSTORE PUSH1 0x4 ADD PUSH1 0x20 PUSH1 0x40 MLOAD DUP1 DUP4 SUB DUP2 DUP7 GAS STATICCALL ISZERO DUP1 ISZERO PUSH3 0x8E4 JUMPI RETURNDATASIZE PUSH1 0x0 DUP1 RETURNDATACOPY RETURNDATASIZE PUSH1 0x0 REVERT JUMPDEST POP POP POP POP PUSH1 0x40 MLOAD RETURNDATASIZE PUSH1 0x1F NOT PUSH1 0x1F DUP3 ADD AND DUP3 ADD DUP1 PUSH1 0x40 MSTORE POP DUP2 ADD SWAP1 PUSH3 0x90A SWAP2 SWAP1 PUSH3 0x25D6 JUMP JUMPDEST SWAP1 POP PUSH1 0x40 MLOAD DUP1 PUSH1 0xA0 ADD PUSH1 0x40 MSTORE DUP1 PUSH1 0x0 DUP2 MSTORE PUSH1 0x20 ADD PUSH1 0x0 DUP2 MSTORE PUSH1 0x20 ADD PUSH1 0x0 DUP2 MSTORE PUSH1 0x20 ADD PUSH1 0x0 DUP2 MSTORE PUSH1 0x20 ADD PUSH1 0x1 ISZERO ISZERO DUP2 MSTORE POP PUSH1 0x8 PUSH1 0x0 DUP7 DUP2 MSTORE PUSH1 0x20 ADD SWAP1 DUP2 MSTORE PUSH1 0x20 ADD PUSH1 0x0 KECCAK256 PUSH1 0x0 ADD PUSH1 0x0 DUP4 DUP2 MSTORE PUSH1 0x20 ADD SWAP1 DUP2 MSTORE PUSH1 0x20 ADD PUSH1 0x0 KECCAK256 PUSH1 0x0 DUP3 ADD MLOAD DUP2 PUSH1 0x0 ADD SSTORE PUSH1 0x20 DUP3 ADD MLOAD DUP2 PUSH1 0x1 ADD SSTORE PUSH1 0x40 DUP3 ADD MLOAD DUP2 PUSH1 0x2 ADD SSTORE PUSH1 0x60 DUP3 ADD MLOAD DUP2 PUSH1 0x3 ADD SSTORE PUSH1 0x80 DUP3 ADD MLOAD DUP2 PUSH1 0x4 ADD PUSH1 0x0 PUSH2 0x100 EXP DUP2 SLOAD DUP2 PUSH1 0xFF MUL NOT AND SWAP1 DUP4 ISZERO ISZERO MUL OR SWAP1 SSTORE POP SWAP1 POP POP POP POP POP POP JUMP JUMPDEST PUSH1 0x0 PUSH1 0x7 PUSH1 0x0 DUP4 DUP2 MSTORE PUSH1 0x20 ADD SWAP1 DUP2 MSTORE PUSH1 0x20 ADD PUSH1 0x0 KECCAK256 PUSH1 0x0 SWAP1 SLOAD SWAP1 PUSH2 0x100 EXP SWAP1 DIV PUSH20 0xFFFFFFFFFFFFFFFFFFFFFFFFFFFFFFFFFFFFFFFF AND PUSH20 0xFFFFFFFFFFFFFFFFFFFFFFFFFFFFFFFFFFFFFFFF AND PUSH4 0x98BDF6F5 PUSH1 0x40 MLOAD DUP2 PUSH4 0xFFFFFFFF AND PUSH1 0xE0 SHL DUP2 MSTORE PUSH1 0x4 ADD PUSH1 0x20 PUSH1 0x40 MLOAD DUP1 DUP4 SUB DUP2 DUP7 GAS STATICCALL ISZERO DUP1 ISZERO PUSH3 0xA33 JUMPI RETURNDATASIZE PUSH1 0x0 DUP1 RETURNDATACOPY RETURNDATASIZE PUSH1 0x0 REVERT JUMPDEST POP POP POP POP PUSH1 0x40 MLOAD RETURNDATASIZE PUSH1 0x1F NOT PUSH1 0x1F DUP3 ADD AND DUP3 ADD DUP1 PUSH1 0x40 MSTORE POP DUP2 ADD SWAP1 PUSH3 0xA59 SWAP2 SWAP1 PUSH3 0x25D6 JUMP JUMPDEST SWAP1 POP SWAP2 SWAP1 POP JUMP JUMPDEST PUSH1 0x0 DUP1 PUSH1 0x0 DUP4 PUSH20 0xFFFFFFFFFFFFFFFFFFFFFFFFFFFFFFFFFFFFFFFF AND PUSH20 0xFFFFFFFFFFFFFFFFFFFFFFFFFFFFFFFFFFFFFFFF AND DUP2 MSTORE PUSH1 0x20 ADD SWAP1 DUP2 MSTORE PUSH1 0x20 ADD PUSH1 0x0 KECCAK256 SLOAD SWAP1 POP SWAP2 SWAP1 POP JUMP JUMPDEST PUSH1 0x6 PUSH1 0x0 SWAP1 SLOAD SWAP1 PUSH2 0x100 EXP SWAP1 DIV PUSH20 0xFFFFFFFFFFFFFFFFFFFFFFFFFFFFFFFFFFFFFFFF AND PUSH20 0xFFFFFFFFFFFFFFFFFFFFFFFFFFFFFFFFFFFFFFFF AND CALLER PUSH20 0xFFFFFFFFFFFFFFFFFFFFFFFFFFFFFFFFFFFFFFFF AND EQ PUSH3 0xB3B JUMPI PUSH1 0x40 MLOAD PUSH32 0x8C379A000000000000000000000000000000000000000000000000000000000 DUP2 MSTORE PUSH1 0x4 ADD PUSH3 0xB32 SWAP1 PUSH3 0x2658 JUMP JUMPDEST PUSH1 0x40 MLOAD DUP1 SWAP2 SUB SWAP1 REVERT JUMPDEST PUSH3 0xB47 PUSH1 0x5 PUSH3 0x1A65 JUMP JUMPDEST PUSH1 0x0 PUSH3 0xB55 PUSH1 0x5 PUSH3 0x1A7B JUMP JUMPDEST SWAP1 POP PUSH1 0x0 PUSH1 0x40 MLOAD PUSH3 0xB67 SWAP1 PUSH3 0x1C35 JUMP JUMPDEST PUSH1 0x40 MLOAD DUP1 SWAP2 SUB SWAP1 PUSH1 0x0 CREATE DUP1 ISZERO DUP1 ISZERO PUSH3 0xB84 JUMPI RETURNDATASIZE PUSH1 0x0 DUP1 RETURNDATACOPY RETURNDATASIZE PUSH1 0x0 REVERT JUMPDEST POP SWAP1 POP DUP1 PUSH1 0x7 PUSH1 0x0 DUP5 DUP2 MSTORE PUSH1 0x20 ADD SWAP1 DUP2 MSTORE PUSH1 0x20 ADD PUSH1 0x0 KECCAK256 PUSH1 0x0 PUSH2 0x100 EXP DUP2 SLOAD DUP2 PUSH20 0xFFFFFFFFFFFFFFFFFFFFFFFFFFFFFFFFFFFFFFFF MUL NOT AND SWAP1 DUP4 PUSH20 0xFFFFFFFFFFFFFFFFFFFFFFFFFFFFFFFFFFFFFFFF AND MUL OR SWAP1 SSTORE POP PUSH1 0x1 PUSH1 0x9 PUSH1 0x0 DUP5 DUP2 MSTORE PUSH1 0x20 ADD SWAP1 DUP2 MSTORE PUSH1 0x20 ADD PUSH1 0x0 KECCAK256 PUSH1 0x0 PUSH2 0x100 EXP DUP2 SLOAD DUP2 PUSH1 0xFF MUL NOT AND SWAP1 DUP4 ISZERO ISZERO MUL OR SWAP1 SSTORE POP POP POP JUMP JUMPDEST PUSH1 0x60 PUSH1 0x4 DUP1 SLOAD PUSH3 0xC1A SWAP1 PUSH3 0x230C JUMP JUMPDEST DUP1 PUSH1 0x1F ADD PUSH1 0x20 DUP1 SWAP2 DIV MUL PUSH1 0x20 ADD PUSH1 0x40 MLOAD SWAP1 DUP2 ADD PUSH1 0x40 MSTORE DUP1 SWAP3 SWAP2 SWAP1 DUP2 DUP2 MSTORE PUSH1 0x20 ADD DUP3 DUP1 SLOAD PUSH3 0xC48 SWAP1 PUSH3 0x230C JUMP JUMPDEST DUP1 ISZERO PUSH3 0xC99 JUMPI DUP1 PUSH1 0x1F LT PUSH3 0xC6D JUMPI PUSH2 0x100 DUP1 DUP4 SLOAD DIV MUL DUP4 MSTORE SWAP2 PUSH1 0x20 ADD SWAP2 PUSH3 0xC99 JUMP JUMPDEST DUP3 ADD SWAP2 SWAP1 PUSH1 0x0 MSTORE PUSH1 0x20 PUSH1 0x0 KECCAK256 SWAP1 JUMPDEST DUP2 SLOAD DUP2 MSTORE SWAP1 PUSH1 0x1 ADD SWAP1 PUSH1 0x20 ADD DUP1 DUP4 GT PUSH3 0xC7B JUMPI DUP3 SWAP1 SUB PUSH1 0x1F AND DUP3 ADD SWAP2 JUMPDEST POP POP POP POP POP SWAP1 POP SWAP1 JUMP JUMPDEST PUSH1 0x0 DUP1 PUSH3 0xCB0 PUSH3 0x1573 JUMP JUMPDEST SWAP1 POP PUSH1 0x0 PUSH3 0xCC0 DUP3 DUP7 PUSH3 0x114C JUMP JUMPDEST SWAP1 POP DUP4 DUP2 LT ISZERO PUSH3 0xD08 JUMPI PUSH1 0x40 MLOAD PUSH32 0x8C379A000000000000000000000000000000000000000000000000000000000 DUP2 MSTORE PUSH1 0x4 ADD PUSH3 0xCFF SWAP1 PUSH3 0x26F0 JUMP JUMPDEST PUSH1 0x40 MLOAD DUP1 SWAP2 SUB SWAP1 REVERT JUMPDEST PUSH3 0xD17 DUP3 DUP7 DUP7 DUP5 SUB PUSH3 0x157B JUMP JUMPDEST PUSH1 0x1 SWAP3 POP POP POP SWAP3 SWAP2 POP POP JUMP JUMPDEST PUSH1 0x5 DUP1 PUSH1 0x0 ADD SLOAD SWAP1 POP DUP2 JUMP JUMPDEST PUSH1 0x0 DUP1 PUSH3 0xD3C PUSH3 0x1573 JUMP JUMPDEST SWAP1 POP PUSH3 0xD4B DUP2 DUP6 DUP6 PUSH3 0x17E0 JUMP JUMPDEST PUSH1 0x1 SWAP2 POP POP SWAP3 SWAP2 POP POP JUMP JUMPDEST PUSH1 0x7 PUSH1 0x20 MSTORE DUP1 PUSH1 0x0 MSTORE PUSH1 0x40 PUSH1 0x0 KECCAK256 PUSH1 0x0 SWAP2 POP SLOAD SWAP1 PUSH2 0x100 EXP SWAP1 DIV PUSH20 0xFFFFFFFFFFFFFFFFFFFFFFFFFFFFFFFFFFFFFFFF AND DUP2 JUMP JUMPDEST PUSH1 0x0 PUSH1 0x1 ISZERO ISZERO PUSH1 0x9 PUSH1 0x0 DUP6 DUP2 MSTORE PUSH1 0x20 ADD SWAP1 DUP2 MSTORE PUSH1 0x20 ADD PUSH1 0x0 KECCAK256 PUSH1 0x0 SWAP1 SLOAD SWAP1 PUSH2 0x100 EXP SWAP1 DIV PUSH1 0xFF AND ISZERO ISZERO EQ PUSH3 0xDF5 JUMPI PUSH1 0x40 MLOAD PUSH32 0x8C379A000000000000000000000000000000000000000000000000000000000 DUP2 MSTORE PUSH1 0x4 ADD PUSH3 0xDEC SWAP1 PUSH3 0x2762 JUMP JUMPDEST PUSH1 0x40 MLOAD DUP1 SWAP2 SUB SWAP1 REVERT JUMPDEST PUSH1 0x8 PUSH1 0x0 DUP5 DUP2 MSTORE PUSH1 0x20 ADD SWAP1 DUP2 MSTORE PUSH1 0x20 ADD PUSH1 0x0 KECCAK256 PUSH1 0x0 ADD PUSH1 0x0 DUP4 DUP2 MSTORE PUSH1 0x20 ADD SWAP1 DUP2 MSTORE PUSH1 0x20 ADD PUSH1 0x0 KECCAK256 PUSH1 0x4 ADD PUSH1 0x0 SWAP1 SLOAD SWAP1 PUSH2 0x100 EXP SWAP1 DIV PUSH1 0xFF AND PUSH3 0xE6F JUMPI PUSH1 0x40 MLOAD PUSH32 0x8C379A000000000000000000000000000000000000000000000000000000000 DUP2 MSTORE PUSH1 0x4 ADD PUSH3 0xE66 SWAP1 PUSH3 0x27D4 JUMP JUMPDEST PUSH1 0x40 MLOAD DUP1 SWAP2 SUB SWAP1 REVERT JUMPDEST PUSH1 0x0 PUSH1 0x7 PUSH1 0x0 DUP6 DUP2 MSTORE PUSH1 0x20 ADD SWAP1 DUP2 MSTORE PUSH1 0x20 ADD PUSH1 0x0 KECCAK256 PUSH1 0x0 SWAP1 SLOAD SWAP1 PUSH2 0x100 EXP SWAP1 DIV PUSH20 0xFFFFFFFFFFFFFFFFFFFFFFFFFFFFFFFFFFFFFFFF AND SWAP1 POP CALLER PUSH20 0xFFFFFFFFFFFFFFFFFFFFFFFFFFFFFFFFFFFFFFFF AND DUP2 PUSH20 0xFFFFFFFFFFFFFFFFFFFFFFFFFFFFFFFFFFFFFFFF AND PUSH4 0x6352211E DUP6 PUSH1 0x40 MLOAD DUP3 PUSH4 0xFFFFFFFF AND PUSH1 0xE0 SHL DUP2 MSTORE PUSH1 0x4 ADD PUSH3 0xEF9 SWAP2 SWAP1 PUSH3 0x1E47 JUMP JUMPDEST PUSH1 0x20 PUSH1 0x40 MLOAD DUP1 DUP4 SUB DUP2 DUP7 GAS STATICCALL ISZERO DUP1 ISZERO PUSH3 0xF17 JUMPI RETURNDATASIZE PUSH1 0x0 DUP1 RETURNDATACOPY RETURNDATASIZE PUSH1 0x0 REVERT JUMPDEST POP POP POP POP PUSH1 0x40 MLOAD RETURNDATASIZE PUSH1 0x1F NOT PUSH1 0x1F DUP3 ADD AND DUP3 ADD DUP1 PUSH1 0x40 MSTORE POP DUP2 ADD SWAP1 PUSH3 0xF3D SWAP2 SWAP1 PUSH3 0x280D JUMP JUMPDEST PUSH20 0xFFFFFFFFFFFFFFFFFFFFFFFFFFFFFFFFFFFFFFFF AND EQ PUSH3 0xF96 JUMPI PUSH1 0x40 MLOAD PUSH32 0x8C379A000000000000000000000000000000000000000000000000000000000 DUP2 MSTORE PUSH1 0x4 ADD PUSH3 0xF8D SWAP1 PUSH3 0x288F JUMP JUMPDEST PUSH1 0x40 MLOAD DUP1 SWAP2 SUB SWAP1 REVERT JUMPDEST PUSH2 0xA8C0 PUSH1 0x8 PUSH1 0x0 DUP7 DUP2 MSTORE PUSH1 0x20 ADD SWAP1 DUP2 MSTORE PUSH1 0x20 ADD PUSH1 0x0 KECCAK256 PUSH1 0x0 ADD PUSH1 0x0 DUP6 DUP2 MSTORE PUSH1 0x20 ADD SWAP1 DUP2 MSTORE PUSH1 0x20 ADD PUSH1 0x0 KECCAK256 PUSH1 0x0 ADD SLOAD TIMESTAMP PUSH3 0xFD1 SWAP2 SWAP1 PUSH3 0x28B1 JUMP JUMPDEST GT ISZERO PUSH3 0x1015 JUMPI PUSH1 0x40 MLOAD PUSH32 0x8C379A000000000000000000000000000000000000000000000000000000000 DUP2 MSTORE PUSH1 0x4 ADD PUSH3 0x100C SWAP1 PUSH3 0x293C JUMP JUMPDEST PUSH1 0x40 MLOAD DUP1 SWAP2 SUB SWAP1 REVERT JUMPDEST PUSH3 0x15180 PUSH1 0x8 PUSH1 0x0 DUP7 DUP2 MSTORE PUSH1 0x20 ADD SWAP1 DUP2 MSTORE PUSH1 0x20 ADD PUSH1 0x0 KECCAK256 PUSH1 0x0 ADD PUSH1 0x0 DUP6 DUP2 MSTORE PUSH1 0x20 ADD SWAP1 DUP2 MSTORE PUSH1 0x20 ADD PUSH1 0x0 KECCAK256 PUSH1 0x1 ADD SLOAD TIMESTAMP PUSH3 0x1051 SWAP2 SWAP1 PUSH3 0x28B1 JUMP JUMPDEST GT PUSH3 0x1094 JUMPI PUSH1 0x40 MLOAD PUSH32 0x8C379A000000000000000000000000000000000000000000000000000000000 DUP2 MSTORE PUSH1 0x4 ADD PUSH3 0x108B SWAP1 PUSH3 0x29AE JUMP JUMPDEST PUSH1 0x40 MLOAD DUP1 SWAP2 SUB SWAP1 REVERT JUMPDEST TIMESTAMP PUSH1 0x8 PUSH1 0x0 DUP7 DUP2 MSTORE PUSH1 0x20 ADD SWAP1 DUP2 MSTORE PUSH1 0x20 ADD PUSH1 0x0 KECCAK256 PUSH1 0x0 ADD PUSH1 0x0 DUP6 DUP2 MSTORE PUSH1 0x20 ADD SWAP1 DUP2 MSTORE PUSH1 0x20 ADD PUSH1 0x0 KECCAK256 PUSH1 0x1 ADD DUP2 SWAP1 SSTORE POP PUSH1 0x5 PUSH1 0x8 PUSH1 0x0 DUP7 DUP2 MSTORE PUSH1 0x20 ADD SWAP1 DUP2 MSTORE PUSH1 0x20 ADD PUSH1 0x0 KECCAK256 PUSH1 0x0 ADD PUSH1 0x0 DUP6 DUP2 MSTORE PUSH1 0x20 ADD SWAP1 DUP2 MSTORE PUSH1 0x20 ADD PUSH1 0x0 KECCAK256 PUSH1 0x3 ADD PUSH1 0x0 DUP3 DUP3 SLOAD PUSH3 0x1100 SWAP2 SWAP1 PUSH3 0x2370 JUMP JUMPDEST SWAP3 POP POP DUP2 SWAP1 SSTORE POP PUSH3 0x1141 CALLER PUSH32 0x0 PUSH1 0x5 PUSH3 0x113B SWAP2 SWAP1 PUSH3 0x241D JUMP JUMPDEST PUSH3 0x1A89 JUMP JUMPDEST PUSH1 0x1 SWAP2 POP POP SWAP3 SWAP2 POP POP JUMP JUMPDEST PUSH1 0x0 PUSH1 0x1 PUSH1 0x0 DUP5 PUSH20 0xFFFFFFFFFFFFFFFFFFFFFFFFFFFFFFFFFFFFFFFF AND PUSH20 0xFFFFFFFFFFFFFFFFFFFFFFFFFFFFFFFFFFFFFFFF AND DUP2 MSTORE PUSH1 0x20 ADD SWAP1 DUP2 MSTORE PUSH1 0x20 ADD PUSH1 0x0 KECCAK256 PUSH1 0x0 DUP4 PUSH20 0xFFFFFFFFFFFFFFFFFFFFFFFFFFFFFFFFFFFFFFFF AND PUSH20 0xFFFFFFFFFFFFFFFFFFFFFFFFFFFFFFFFFFFFFFFF AND DUP2 MSTORE PUSH1 0x20 ADD SWAP1 DUP2 MSTORE PUSH1 0x20 ADD PUSH1 0x0 KECCAK256 SLOAD SWAP1 POP SWAP3 SWAP2 POP POP JUMP JUMPDEST PUSH1 0x0 PUSH1 0x1 ISZERO ISZERO PUSH1 0x9 PUSH1 0x0 DUP6 DUP2 MSTORE PUSH1 0x20 ADD SWAP1 DUP2 MSTORE PUSH1 0x20 ADD PUSH1 0x0 KECCAK256 PUSH1 0x0 SWAP1 SLOAD SWAP1 PUSH2 0x100 EXP SWAP1 DIV PUSH1 0xFF AND ISZERO ISZERO EQ PUSH3 0x123F JUMPI PUSH1 0x40 MLOAD PUSH32 0x8C379A000000000000000000000000000000000000000000000000000000000 DUP2 MSTORE PUSH1 0x4 ADD PUSH3 0x1236 SWAP1 PUSH3 0x23FB JUMP JUMPDEST PUSH1 0x40 MLOAD DUP1 SWAP2 SUB SWAP1 REVERT JUMPDEST PUSH1 0x8 PUSH1 0x0 DUP5 DUP2 MSTORE PUSH1 0x20 ADD SWAP1 DUP2 MSTORE PUSH1 0x20 ADD PUSH1 0x0 KECCAK256 PUSH1 0x0 ADD PUSH1 0x0 DUP4 DUP2 MSTORE PUSH1 0x20 ADD SWAP1 DUP2 MSTORE PUSH1 0x20 ADD PUSH1 0x0 KECCAK256 PUSH1 0x4 ADD PUSH1 0x0 SWAP1 SLOAD SWAP1 PUSH2 0x100 EXP SWAP1 DIV PUSH1 0xFF AND PUSH3 0x12B9 JUMPI PUSH1 0x40 MLOAD PUSH32 0x8C379A000000000000000000000000000000000000000000000000000000000 DUP2 MSTORE PUSH1 0x4 ADD PUSH3 0x12B0 SWAP1 PUSH3 0x27D4 JUMP JUMPDEST PUSH1 0x40 MLOAD DUP1 SWAP2 SUB SWAP1 REVERT JUMPDEST PUSH1 0x0 PUSH1 0x7 PUSH1 0x0 DUP6 DUP2 MSTORE PUSH1 0x20 ADD SWAP1 DUP2 MSTORE PUSH1 0x20 ADD PUSH1 0x0 KECCAK256 PUSH1 0x0 SWAP1 SLOAD SWAP1 PUSH2 0x100 EXP SWAP1 DIV PUSH20 0xFFFFFFFFFFFFFFFFFFFFFFFFFFFFFFFFFFFFFFFF AND SWAP1 POP CALLER PUSH20 0xFFFFFFFFFFFFFFFFFFFFFFFFFFFFFFFFFFFFFFFF AND DUP2 PUSH20 0xFFFFFFFFFFFFFFFFFFFFFFFFFFFFFFFFFFFFFFFF AND PUSH4 0x6352211E DUP6 PUSH1 0x40 MLOAD DUP3 PUSH4 0xFFFFFFFF AND PUSH1 0xE0 SHL DUP2 MSTORE PUSH1 0x4 ADD PUSH3 0x1343 SWAP2 SWAP1 PUSH3 0x1E47 JUMP JUMPDEST PUSH1 0x20 PUSH1 0x40 MLOAD DUP1 DUP4 SUB DUP2 DUP7 GAS STATICCALL ISZERO DUP1 ISZERO PUSH3 0x1361 JUMPI RETURNDATASIZE PUSH1 0x0 DUP1 RETURNDATACOPY RETURNDATASIZE PUSH1 0x0 REVERT JUMPDEST POP POP POP POP PUSH1 0x40 MLOAD RETURNDATASIZE PUSH1 0x1F NOT PUSH1 0x1F DUP3 ADD AND DUP3 ADD DUP1 PUSH1 0x40 MSTORE POP DUP2 ADD SWAP1 PUSH3 0x1387 SWAP2 SWAP1 PUSH3 0x280D JUMP JUMPDEST PUSH20 0xFFFFFFFFFFFFFFFFFFFFFFFFFFFFFFFFFFFFFFFF AND EQ PUSH3 0x13E0 JUMPI PUSH1 0x40 MLOAD PUSH32 0x8C379A000000000000000000000000000000000000000000000000000000000 DUP2 MSTORE PUSH1 0x4 ADD PUSH3 0x13D7 SWAP1 PUSH3 0x288F JUMP JUMPDEST PUSH1 0x40 MLOAD DUP1 SWAP2 SUB SWAP1 REVERT JUMPDEST PUSH32 0x0 PUSH20 0xFFFFFFFFFFFFFFFFFFFFFFFFFFFFFFFFFFFFFFFF AND PUSH4 0x23B872DD CALLER ADDRESS PUSH32 0x0 PUSH1 0x1 PUSH3 0x144D SWAP2 SWAP1 PUSH3 0x241D JUMP JUMPDEST PUSH1 0x40 MLOAD DUP5 PUSH4 0xFFFFFFFF AND PUSH1 0xE0 SHL DUP2 MSTORE PUSH1 0x4 ADD PUSH3 0x146D SWAP4 SWAP3 SWAP2 SWAP1 PUSH3 0x2479 JUMP JUMPDEST PUSH1 0x20 PUSH1 0x40 MLOAD DUP1 DUP4 SUB DUP2 PUSH1 0x0 DUP8 GAS CALL ISZERO DUP1 ISZERO PUSH3 0x148D JUMPI RETURNDATASIZE PUSH1 0x0 DUP1 RETURNDATACOPY RETURNDATASIZE PUSH1 0x0 REVERT JUMPDEST POP POP POP POP PUSH1 0x40 MLOAD RETURNDATASIZE PUSH1 0x1F NOT PUSH1 0x1F DUP3 ADD AND DUP3 ADD DUP1 PUSH1 0x40 MSTORE POP DUP2 ADD SWAP1 PUSH3 0x14B3 SWAP2 SWAP1 PUSH3 0x24E7 JUMP JUMPDEST PUSH3 0x14F5 JUMPI PUSH1 0x40 MLOAD PUSH32 0x8C379A000000000000000000000000000000000000000000000000000000000 DUP2 MSTORE PUSH1 0x4 ADD PUSH3 0x14EC SWAP1 PUSH3 0x2569 JUMP JUMPDEST PUSH1 0x40 MLOAD DUP1 SWAP2 SUB SWAP1 REVERT JUMPDEST TIMESTAMP PUSH1 0x8 PUSH1 0x0 DUP7 DUP2 MSTORE PUSH1 0x20 ADD SWAP1 DUP2 MSTORE PUSH1 0x20 ADD PUSH1 0x0 KECCAK256 PUSH1 0x0 ADD PUSH1 0x0 DUP6 DUP2 MSTORE PUSH1 0x20 ADD SWAP1 DUP2 MSTORE PUSH1 0x20 ADD PUSH1 0x0 KECCAK256 PUSH1 0x0 ADD DUP2 SWAP1 SSTORE POP PUSH1 0x1 PUSH1 0x8 PUSH1 0x0 DUP7 DUP2 MSTORE PUSH1 0x20 ADD SWAP1 DUP2 MSTORE PUSH1 0x20 ADD PUSH1 0x0 KECCAK256 PUSH1 0x0 ADD PUSH1 0x0 DUP6 DUP2 MSTORE PUSH1 0x20 ADD SWAP1 DUP2 MSTORE PUSH1 0x20 ADD PUSH1 0x0 KECCAK256 PUSH1 0x2 ADD PUSH1 0x0 DUP3 DUP3 SLOAD PUSH3 0x1561 SWAP2 SWAP1 PUSH3 0x2370 JUMP JUMPDEST SWAP3 POP POP DUP2 SWAP1 SSTORE POP PUSH1 0x1 SWAP2 POP POP SWAP3 SWAP2 POP POP JUMP JUMPDEST PUSH1 0x0 CALLER SWAP1 POP SWAP1 JUMP JUMPDEST PUSH1 0x0 PUSH20 0xFFFFFFFFFFFFFFFFFFFFFFFFFFFFFFFFFFFFFFFF AND DUP4 PUSH20 0xFFFFFFFFFFFFFFFFFFFFFFFFFFFFFFFFFFFFFFFF AND SUB PUSH3 0x15ED JUMPI PUSH1 0x40 MLOAD PUSH32 0x8C379A000000000000000000000000000000000000000000000000000000000 DUP2 MSTORE PUSH1 0x4 ADD PUSH3 0x15E4 SWAP1 PUSH3 0x2A46 JUMP JUMPDEST PUSH1 0x40 MLOAD DUP1 SWAP2 SUB SWAP1 REVERT JUMPDEST PUSH1 0x0 PUSH20 0xFFFFFFFFFFFFFFFFFFFFFFFFFFFFFFFFFFFFFFFF AND DUP3 PUSH20 0xFFFFFFFFFFFFFFFFFFFFFFFFFFFFFFFFFFFFFFFF AND SUB PUSH3 0x165F JUMPI PUSH1 0x40 MLOAD PUSH32 0x8C379A000000000000000000000000000000000000000000000000000000000 DUP2 MSTORE PUSH1 0x4 ADD PUSH3 0x1656 SWAP1 PUSH3 0x2ADE JUMP JUMPDEST PUSH1 0x40 MLOAD DUP1 SWAP2 SUB SWAP1 REVERT JUMPDEST DUP1 PUSH1 0x1 PUSH1 0x0 DUP6 PUSH20 0xFFFFFFFFFFFFFFFFFFFFFFFFFFFFFFFFFFFFFFFF AND PUSH20 0xFFFFFFFFFFFFFFFFFFFFFFFFFFFFFFFFFFFFFFFF AND DUP2 MSTORE PUSH1 0x20 ADD SWAP1 DUP2 MSTORE PUSH1 0x20 ADD PUSH1 0x0 KECCAK256 PUSH1 0x0 DUP5 PUSH20 0xFFFFFFFFFFFFFFFFFFFFFFFFFFFFFFFFFFFFFFFF AND PUSH20 0xFFFFFFFFFFFFFFFFFFFFFFFFFFFFFFFFFFFFFFFF AND DUP2 MSTORE PUSH1 0x20 ADD SWAP1 DUP2 MSTORE PUSH1 0x20 ADD PUSH1 0x0 KECCAK256 DUP2 SWAP1 SSTORE POP DUP2 PUSH20 0xFFFFFFFFFFFFFFFFFFFFFFFFFFFFFFFFFFFFFFFF AND DUP4 PUSH20 0xFFFFFFFFFFFFFFFFFFFFFFFFFFFFFFFFFFFFFFFF AND PUSH32 0x8C5BE1E5EBEC7D5BD14F71427D1E84F3DD0314C0F7B2291E5B200AC8C7C3B925 DUP4 PUSH1 0x40 MLOAD PUSH3 0x173F SWAP2 SWAP1 PUSH3 0x1E47 JUMP JUMPDEST PUSH1 0x40 MLOAD DUP1 SWAP2 SUB SWAP1 LOG3 POP POP POP JUMP JUMPDEST PUSH1 0x0 PUSH3 0x175A DUP5 DUP5 PUSH3 0x114C JUMP JUMPDEST SWAP1 POP PUSH32 0xFFFFFFFFFFFFFFFFFFFFFFFFFFFFFFFFFFFFFFFFFFFFFFFFFFFFFFFFFFFFFFFF DUP2 EQ PUSH3 0x17DA JUMPI DUP2 DUP2 LT ISZERO PUSH3 0x17CA JUMPI PUSH1 0x40 MLOAD PUSH32 0x8C379A000000000000000000000000000000000000000000000000000000000 DUP2 MSTORE PUSH1 0x4 ADD PUSH3 0x17C1 SWAP1 PUSH3 0x2B50 JUMP JUMPDEST PUSH1 0x40 MLOAD DUP1 SWAP2 SUB SWAP1 REVERT JUMPDEST PUSH3 0x17D9 DUP5 DUP5 DUP5 DUP5 SUB PUSH3 0x157B JUMP JUMPDEST JUMPDEST POP POP POP POP JUMP JUMPDEST PUSH1 0x0 PUSH20 0xFFFFFFFFFFFFFFFFFFFFFFFFFFFFFFFFFFFFFFFF AND DUP4 PUSH20 0xFFFFFFFFFFFFFFFFFFFFFFFFFFFFFFFFFFFFFFFF AND SUB PUSH3 0x1852 JUMPI PUSH1 0x40 MLOAD PUSH32 0x8C379A000000000000000000000000000000000000000000000000000000000 DUP2 MSTORE PUSH1 0x4 ADD PUSH3 0x1849 SWAP1 PUSH3 0x2BE8 JUMP JUMPDEST PUSH1 0x40 MLOAD DUP1 SWAP2 SUB SWAP1 REVERT JUMPDEST PUSH1 0x0 PUSH20 0xFFFFFFFFFFFFFFFFFFFFFFFFFFFFFFFFFFFFFFFF AND DUP3 PUSH20 0xFFFFFFFFFFFFFFFFFFFFFFFFFFFFFFFFFFFFFFFF AND SUB PUSH3 0x18C4 JUMPI PUSH1 0x40 MLOAD PUSH32 0x8C379A000000000000000000000000000000000000000000000000000000000 DUP2 MSTORE PUSH1 0x4 ADD PUSH3 0x18BB SWAP1 PUSH3 0x2C80 JUMP JUMPDEST PUSH1 0x40 MLOAD DUP1 SWAP2 SUB SWAP1 REVERT JUMPDEST PUSH3 0x18D1 DUP4 DUP4 DUP4 PUSH3 0x1A99 JUMP JUMPDEST PUSH1 0x0 DUP1 PUSH1 0x0 DUP6 PUSH20 0xFFFFFFFFFFFFFFFFFFFFFFFFFFFFFFFFFFFFFFFF AND PUSH20 0xFFFFFFFFFFFFFFFFFFFFFFFFFFFFFFFFFFFFFFFF AND DUP2 MSTORE PUSH1 0x20 ADD SWAP1 DUP2 MSTORE PUSH1 0x20 ADD PUSH1 0x0 KECCAK256 SLOAD SWAP1 POP DUP2 DUP2 LT ISZERO PUSH3 0x195A JUMPI PUSH1 0x40 MLOAD PUSH32 0x8C379A000000000000000000000000000000000000000000000000000000000 DUP2 MSTORE PUSH1 0x4 ADD PUSH3 0x1951 SWAP1 PUSH3 0x2D18 JUMP JUMPDEST PUSH1 0x40 MLOAD DUP1 SWAP2 SUB SWAP1 REVERT JUMPDEST DUP2 DUP2 SUB PUSH1 0x0 DUP1 DUP7 PUSH20 0xFFFFFFFFFFFFFFFFFFFFFFFFFFFFFFFFFFFFFFFF AND PUSH20 0xFFFFFFFFFFFFFFFFFFFFFFFFFFFFFFFFFFFFFFFF AND DUP2 MSTORE PUSH1 0x20 ADD SWAP1 DUP2 MSTORE PUSH1 0x20 ADD PUSH1 0x0 KECCAK256 DUP2 SWAP1 SSTORE POP DUP2 PUSH1 0x0 DUP1 DUP6 PUSH20 0xFFFFFFFFFFFFFFFFFFFFFFFFFFFFFFFFFFFFFFFF AND PUSH20 0xFFFFFFFFFFFFFFFFFFFFFFFFFFFFFFFFFFFFFFFF AND DUP2 MSTORE PUSH1 0x20 ADD SWAP1 DUP2 MSTORE PUSH1 0x20 ADD PUSH1 0x0 KECCAK256 PUSH1 0x0 DUP3 DUP3 SLOAD ADD SWAP3 POP POP DUP2 SWAP1 SSTORE POP DUP3 PUSH20 0xFFFFFFFFFFFFFFFFFFFFFFFFFFFFFFFFFFFFFFFF AND DUP5 PUSH20 0xFFFFFFFFFFFFFFFFFFFFFFFFFFFFFFFFFFFFFFFF AND PUSH32 0xDDF252AD1BE2C89B69C2B068FC378DAA952BA7F163C4A11628F55A4DF523B3EF DUP5 PUSH1 0x40 MLOAD PUSH3 0x1A4A SWAP2 SWAP1 PUSH3 0x1E47 JUMP JUMPDEST PUSH1 0x40 MLOAD DUP1 SWAP2 SUB SWAP1 LOG3 PUSH3 0x1A5F DUP5 DUP5 DUP5 PUSH3 0x1A9E JUMP JUMPDEST POP POP POP POP JUMP JUMPDEST PUSH1 0x1 DUP2 PUSH1 0x0 ADD PUSH1 0x0 DUP3 DUP3 SLOAD ADD SWAP3 POP POP DUP2 SWAP1 SSTORE POP POP JUMP JUMPDEST PUSH1 0x0 DUP2 PUSH1 0x0 ADD SLOAD SWAP1 POP SWAP2 SWAP1 POP JUMP JUMPDEST PUSH3 0x1A95 DUP3 DUP3 PUSH3 0x1AA3 JUMP JUMPDEST POP POP JUMP JUMPDEST POP POP POP JUMP JUMPDEST POP POP POP JUMP JUMPDEST PUSH1 0x0 PUSH20 0xFFFFFFFFFFFFFFFFFFFFFFFFFFFFFFFFFFFFFFFF AND DUP3 PUSH20 0xFFFFFFFFFFFFFFFFFFFFFFFFFFFFFFFFFFFFFFFF AND SUB PUSH3 0x1B15 JUMPI PUSH1 0x40 MLOAD PUSH32 0x8C379A000000000000000000000000000000000000000000000000000000000 DUP2 MSTORE PUSH1 0x4 ADD PUSH3 0x1B0C SWAP1 PUSH3 0x2D8A JUMP JUMPDEST PUSH1 0x40 MLOAD DUP1 SWAP2 SUB SWAP1 REVERT JUMPDEST PUSH3 0x1B23 PUSH1 0x0 DUP4 DUP4 PUSH3 0x1A99 JUMP JUMPDEST DUP1 PUSH1 0x2 PUSH1 0x0 DUP3 DUP3 SLOAD PUSH3 0x1B37 SWAP2 SWAP1 PUSH3 0x2370 JUMP JUMPDEST SWAP3 POP POP DUP2 SWAP1 SSTORE POP DUP1 PUSH1 0x0 DUP1 DUP5 PUSH20 0xFFFFFFFFFFFFFFFFFFFFFFFFFFFFFFFFFFFFFFFF AND PUSH20 0xFFFFFFFFFFFFFFFFFFFFFFFFFFFFFFFFFFFFFFFF AND DUP2 MSTORE PUSH1 0x20 ADD SWAP1 DUP2 MSTORE PUSH1 0x20 ADD PUSH1 0x0 KECCAK256 PUSH1 0x0 DUP3 DUP3 SLOAD ADD SWAP3 POP POP DUP2 SWAP1 SSTORE POP DUP2 PUSH20 0xFFFFFFFFFFFFFFFFFFFFFFFFFFFFFFFFFFFFFFFF AND PUSH1 0x0 PUSH20 0xFFFFFFFFFFFFFFFFFFFFFFFFFFFFFFFFFFFFFFFF AND PUSH32 0xDDF252AD1BE2C89B69C2B068FC378DAA952BA7F163C4A11628F55A4DF523B3EF DUP4 PUSH1 0x40 MLOAD PUSH3 0x1BEA SWAP2 SWAP1 PUSH3 0x1E47 JUMP JUMPDEST PUSH1 0x40 MLOAD DUP1 SWAP2 SUB SWAP1 LOG3 PUSH3 0x1C00 PUSH1 0x0 DUP4 DUP4 PUSH3 0x1A9E JUMP JUMPDEST POP POP JUMP JUMPDEST PUSH1 0x40 MLOAD DUP1 PUSH1 0xA0 ADD PUSH1 0x40 MSTORE DUP1 PUSH1 0x0 DUP2 MSTORE PUSH1 0x20 ADD PUSH1 0x0 DUP2 MSTORE PUSH1 0x20 ADD PUSH1 0x0 DUP2 MSTORE PUSH1 0x20 ADD PUSH1 0x0 DUP2 MSTORE PUSH1 0x20 ADD PUSH1 0x0 ISZERO ISZERO DUP2 MSTORE POP SWAP1 JUMP JUMPDEST PUSH2 0x31C5 DUP1 PUSH3 0x2DAD DUP4 CODECOPY ADD SWAP1 JUMP JUMPDEST PUSH1 0x0 DUP2 MLOAD SWAP1 POP SWAP2 SWAP1 POP JUMP JUMPDEST PUSH1 0x0 DUP3 DUP3 MSTORE PUSH1 0x20 DUP3 ADD SWAP1 POP SWAP3 SWAP2 POP POP JUMP JUMPDEST PUSH1 0x0 JUMPDEST DUP4 DUP2 LT ISZERO PUSH3 0x1C7F JUMPI DUP1 DUP3 ADD MLOAD DUP2 DUP5 ADD MSTORE PUSH1 0x20 DUP2 ADD SWAP1 POP PUSH3 0x1C62 JUMP JUMPDEST PUSH1 0x0 DUP5 DUP5 ADD MSTORE POP POP POP POP JUMP JUMPDEST PUSH1 0x0 PUSH1 0x1F NOT PUSH1 0x1F DUP4 ADD AND SWAP1 POP SWAP2 SWAP1 POP JUMP JUMPDEST PUSH1 0x0 PUSH3 0x1CA9 DUP3 PUSH3 0x1C43 JUMP JUMPDEST PUSH3 0x1CB5 DUP2 DUP6 PUSH3 0x1C4E JUMP JUMPDEST SWAP4 POP PUSH3 0x1CC7 DUP2 DUP6 PUSH1 0x20 DUP7 ADD PUSH3 0x1C5F JUMP JUMPDEST PUSH3 0x1CD2 DUP2 PUSH3 0x1C8B JUMP JUMPDEST DUP5 ADD SWAP2 POP POP SWAP3 SWAP2 POP POP JUMP JUMPDEST PUSH1 0x0 PUSH1 0x20 DUP3 ADD SWAP1 POP DUP2 DUP2 SUB PUSH1 0x0 DUP4 ADD MSTORE PUSH3 0x1CF9 DUP2 DUP5 PUSH3 0x1C9C JUMP JUMPDEST SWAP1 POP SWAP3 SWAP2 POP POP JUMP JUMPDEST PUSH1 0x0 PUSH1 0x40 MLOAD SWAP1 POP SWAP1 JUMP JUMPDEST PUSH1 0x0 DUP1 REVERT JUMPDEST PUSH1 0x0 DUP1 REVERT JUMPDEST PUSH1 0x0 PUSH20 0xFFFFFFFFFFFFFFFFFFFFFFFFFFFFFFFFFFFFFFFF DUP3 AND SWAP1 POP SWAP2 SWAP1 POP JUMP JUMPDEST PUSH1 0x0 PUSH3 0x1D42 DUP3 PUSH3 0x1D15 JUMP JUMPDEST SWAP1 POP SWAP2 SWAP1 POP JUMP JUMPDEST PUSH3 0x1D54 DUP2 PUSH3 0x1D35 JUMP JUMPDEST DUP2 EQ PUSH3 0x1D60 JUMPI PUSH1 0x0 DUP1 REVERT JUMPDEST POP JUMP JUMPDEST PUSH1 0x0 DUP2 CALLDATALOAD SWAP1 POP PUSH3 0x1D74 DUP2 PUSH3 0x1D49 JUMP JUMPDEST SWAP3 SWAP2 POP POP JUMP JUMPDEST PUSH1 0x0 DUP2 SWAP1 POP SWAP2 SWAP1 POP JUMP JUMPDEST PUSH3 0x1D8F DUP2 PUSH3 0x1D7A JUMP JUMPDEST DUP2 EQ PUSH3 0x1D9B JUMPI PUSH1 0x0 DUP1 REVERT JUMPDEST POP JUMP JUMPDEST PUSH1 0x0 DUP2 CALLDATALOAD SWAP1 POP PUSH3 0x1DAF DUP2 PUSH3 0x1D84 JUMP JUMPDEST SWAP3 SWAP2 POP POP JUMP JUMPDEST PUSH1 0x0 DUP1 PUSH1 0x40 DUP4 DUP6 SUB SLT ISZERO PUSH3 0x1DCF JUMPI PUSH3 0x1DCE PUSH3 0x1D0B JUMP JUMPDEST JUMPDEST PUSH1 0x0 PUSH3 0x1DDF DUP6 DUP3 DUP7 ADD PUSH3 0x1D63 JUMP JUMPDEST SWAP3 POP POP PUSH1 0x20 PUSH3 0x1DF2 DUP6 DUP3 DUP7 ADD PUSH3 0x1D9E JUMP JUMPDEST SWAP2 POP POP SWAP3 POP SWAP3 SWAP1 POP JUMP JUMPDEST PUSH1 0x0 DUP2 ISZERO ISZERO SWAP1 POP SWAP2 SWAP1 POP JUMP JUMPDEST PUSH3 0x1E13 DUP2 PUSH3 0x1DFC JUMP JUMPDEST DUP3 MSTORE POP POP JUMP JUMPDEST PUSH1 0x0 PUSH1 0x20 DUP3 ADD SWAP1 POP PUSH3 0x1E30 PUSH1 0x0 DUP4 ADD DUP5 PUSH3 0x1E08 JUMP JUMPDEST SWAP3 SWAP2 POP POP JUMP JUMPDEST PUSH3 0x1E41 DUP2 PUSH3 0x1D7A JUMP JUMPDEST DUP3 MSTORE POP POP JUMP JUMPDEST PUSH1 0x0 PUSH1 0x20 DUP3 ADD SWAP1 POP PUSH3 0x1E5E PUSH1 0x0 DUP4 ADD DUP5 PUSH3 0x1E36 JUMP JUMPDEST SWAP3 SWAP2 POP POP JUMP JUMPDEST PUSH1 0x0 DUP1 PUSH1 0x40 DUP4 DUP6 SUB SLT ISZERO PUSH3 0x1E7E JUMPI PUSH3 0x1E7D PUSH3 0x1D0B JUMP JUMPDEST JUMPDEST PUSH1 0x0 PUSH3 0x1E8E DUP6 DUP3 DUP7 ADD PUSH3 0x1D9E JUMP JUMPDEST SWAP3 POP POP PUSH1 0x20 PUSH3 0x1EA1 DUP6 DUP3 DUP7 ADD PUSH3 0x1D9E JUMP JUMPDEST SWAP2 POP POP SWAP3 POP SWAP3 SWAP1 POP JUMP JUMPDEST PUSH3 0x1EB6 DUP2 PUSH3 0x1D7A JUMP JUMPDEST DUP3 MSTORE POP POP JUMP JUMPDEST PUSH3 0x1EC7 DUP2 PUSH3 0x1DFC JUMP JUMPDEST DUP3 MSTORE POP POP JUMP JUMPDEST PUSH1 0xA0 DUP3 ADD PUSH1 0x0 DUP3 ADD MLOAD PUSH3 0x1EE5 PUSH1 0x0 DUP6 ADD DUP3 PUSH3 0x1EAB JUMP JUMPDEST POP PUSH1 0x20 DUP3 ADD MLOAD PUSH3 0x1EFA PUSH1 0x20 DUP6 ADD DUP3 PUSH3 0x1EAB JUMP JUMPDEST POP PUSH1 0x40 DUP3 ADD MLOAD PUSH3 0x1F0F PUSH1 0x40 DUP6 ADD DUP3 PUSH3 0x1EAB JUMP JUMPDEST POP PUSH1 0x60 DUP3 ADD MLOAD PUSH3 0x1F24 PUSH1 0x60 DUP6 ADD DUP3 PUSH3 0x1EAB JUMP JUMPDEST POP PUSH1 0x80 DUP3 ADD MLOAD PUSH3 0x1F39 PUSH1 0x80 DUP6 ADD DUP3 PUSH3 0x1EBC JUMP JUMPDEST POP POP POP POP JUMP JUMPDEST PUSH1 0x0 PUSH1 0xA0 DUP3 ADD SWAP1 POP PUSH3 0x1F56 PUSH1 0x0 DUP4 ADD DUP5 PUSH3 0x1ECD JUMP JUMPDEST SWAP3 SWAP2 POP POP JUMP JUMPDEST PUSH1 0x0 DUP1 PUSH1 0x0 PUSH1 0x60 DUP5 DUP7 SUB SLT ISZERO PUSH3 0x1F78 JUMPI PUSH3 0x1F77 PUSH3 0x1D0B JUMP JUMPDEST JUMPDEST PUSH1 0x0 PUSH3 0x1F88 DUP7 DUP3 DUP8 ADD PUSH3 0x1D63 JUMP JUMPDEST SWAP4 POP POP PUSH1 0x20 PUSH3 0x1F9B DUP7 DUP3 DUP8 ADD PUSH3 0x1D63 JUMP JUMPDEST SWAP3 POP POP PUSH1 0x40 PUSH3 0x1FAE DUP7 DUP3 DUP8 ADD PUSH3 0x1D9E JUMP JUMPDEST SWAP2 POP POP SWAP3 POP SWAP3 POP SWAP3 JUMP JUMPDEST PUSH1 0x0 PUSH1 0xFF DUP3 AND SWAP1 POP SWAP2 SWAP1 POP JUMP JUMPDEST PUSH3 0x1FD0 DUP2 PUSH3 0x1FB8 JUMP JUMPDEST DUP3 MSTORE POP POP JUMP JUMPDEST PUSH1 0x0 PUSH1 0x20 DUP3 ADD SWAP1 POP PUSH3 0x1FED PUSH1 0x0 DUP4 ADD DUP5 PUSH3 0x1FC5 JUMP JUMPDEST SWAP3 SWAP2 POP POP JUMP JUMPDEST PUSH1 0x0 DUP1 REVERT JUMPDEST PUSH1 0x0 DUP1 REVERT JUMPDEST PUSH32 0x4E487B7100000000000000000000000000000000000000000000000000000000 PUSH1 0x0 MSTORE PUSH1 0x41 PUSH1 0x4 MSTORE PUSH1 0x24 PUSH1 0x0 REVERT JUMPDEST PUSH3 0x2037 DUP3 PUSH3 0x1C8B JUMP JUMPDEST DUP2 ADD DUP2 DUP2 LT PUSH8 0xFFFFFFFFFFFFFFFF DUP3 GT OR ISZERO PUSH3 0x2059 JUMPI PUSH3 0x2058 PUSH3 0x1FFD JUMP JUMPDEST JUMPDEST DUP1 PUSH1 0x40 MSTORE POP POP POP JUMP JUMPDEST PUSH1 0x0 PUSH3 0x206E PUSH3 0x1D01 JUMP JUMPDEST SWAP1 POP PUSH3 0x207C DUP3 DUP3 PUSH3 0x202C JUMP JUMPDEST SWAP2 SWAP1 POP JUMP JUMPDEST PUSH1 0x0 PUSH8 0xFFFFFFFFFFFFFFFF DUP3 GT ISZERO PUSH3 0x209F JUMPI PUSH3 0x209E PUSH3 0x1FFD JUMP JUMPDEST JUMPDEST PUSH3 0x20AA DUP3 PUSH3 0x1C8B JUMP JUMPDEST SWAP1 POP PUSH1 0x20 DUP2 ADD SWAP1 POP SWAP2 SWAP1 POP JUMP JUMPDEST DUP3 DUP2 DUP4 CALLDATACOPY PUSH1 0x0 DUP4 DUP4 ADD MSTORE POP POP POP JUMP JUMPDEST PUSH1 0x0 PUSH3 0x20DD PUSH3 0x20D7 DUP5 PUSH3 0x2081 JUMP JUMPDEST PUSH3 0x2062 JUMP JUMPDEST SWAP1 POP DUP3 DUP2 MSTORE PUSH1 0x20 DUP2 ADD DUP5 DUP5 DUP5 ADD GT ISZERO PUSH3 0x20FC JUMPI PUSH3 0x20FB PUSH3 0x1FF8 JUMP JUMPDEST JUMPDEST PUSH3 0x2109 DUP5 DUP3 DUP6 PUSH3 0x20B7 JUMP JUMPDEST POP SWAP4 SWAP3 POP POP POP JUMP JUMPDEST PUSH1 0x0 DUP3 PUSH1 0x1F DUP4 ADD SLT PUSH3 0x2129 JUMPI PUSH3 0x2128 PUSH3 0x1FF3 JUMP JUMPDEST JUMPDEST DUP2 CALLDATALOAD PUSH3 0x213B DUP5 DUP3 PUSH1 0x20 DUP7 ADD PUSH3 0x20C6 JUMP JUMPDEST SWAP2 POP POP SWAP3 SWAP2 POP POP JUMP JUMPDEST PUSH1 0x0 DUP1 PUSH1 0x40 DUP4 DUP6 SUB SLT ISZERO PUSH3 0x215E JUMPI PUSH3 0x215D PUSH3 0x1D0B JUMP JUMPDEST JUMPDEST PUSH1 0x0 PUSH3 0x216E DUP6 DUP3 DUP7 ADD PUSH3 0x1D9E JUMP JUMPDEST SWAP3 POP POP PUSH1 0x20 DUP4 ADD CALLDATALOAD PUSH8 0xFFFFFFFFFFFFFFFF DUP2 GT ISZERO PUSH3 0x2192 JUMPI PUSH3 0x2191 PUSH3 0x1D10 JUMP JUMPDEST JUMPDEST PUSH3 0x21A0 DUP6 DUP3 DUP7 ADD PUSH3 0x2111 JUMP JUMPDEST SWAP2 POP POP SWAP3 POP SWAP3 SWAP1 POP JUMP JUMPDEST PUSH1 0x0 PUSH1 0x20 DUP3 DUP5 SUB SLT ISZERO PUSH3 0x21C3 JUMPI PUSH3 0x21C2 PUSH3 0x1D0B JUMP JUMPDEST JUMPDEST PUSH1 0x0 PUSH3 0x21D3 DUP5 DUP3 DUP6 ADD PUSH3 0x1D9E JUMP JUMPDEST SWAP2 POP POP SWAP3 SWAP2 POP POP JUMP JUMPDEST PUSH1 0x0 PUSH1 0x20 DUP3 DUP5 SUB SLT ISZERO PUSH3 0x21F5 JUMPI PUSH3 0x21F4 PUSH3 0x1D0B JUMP JUMPDEST JUMPDEST PUSH1 0x0 PUSH3 0x2205 DUP5 DUP3 DUP6 ADD PUSH3 0x1D63 JUMP JUMPDEST SWAP2 POP POP SWAP3 SWAP2 POP POP JUMP JUMPDEST PUSH1 0x0 DUP2 SWAP1 POP SWAP2 SWAP1 POP JUMP JUMPDEST PUSH1 0x0 PUSH3 0x2239 PUSH3 0x2233 PUSH3 0x222D DUP5 PUSH3 0x1D15 JUMP JUMPDEST PUSH3 0x220E JUMP JUMPDEST PUSH3 0x1D15 JUMP JUMPDEST SWAP1 POP SWAP2 SWAP1 POP JUMP JUMPDEST PUSH1 0x0 PUSH3 0x224D DUP3 PUSH3 0x2218 JUMP JUMPDEST SWAP1 POP SWAP2 SWAP1 POP JUMP JUMPDEST PUSH1 0x0 PUSH3 0x2261 DUP3 PUSH3 0x2240 JUMP JUMPDEST SWAP1 POP SWAP2 SWAP1 POP JUMP JUMPDEST PUSH3 0x2273 DUP2 PUSH3 0x2254 JUMP JUMPDEST DUP3 MSTORE POP POP JUMP JUMPDEST PUSH1 0x0 PUSH1 0x20 DUP3 ADD SWAP1 POP PUSH3 0x2290 PUSH1 0x0 DUP4 ADD DUP5 PUSH3 0x2268 JUMP JUMPDEST SWAP3 SWAP2 POP POP JUMP JUMPDEST PUSH1 0x0 DUP1 PUSH1 0x40 DUP4 DUP6 SUB SLT ISZERO PUSH3 0x22B0 JUMPI PUSH3 0x22AF PUSH3 0x1D0B JUMP JUMPDEST JUMPDEST PUSH1 0x0 PUSH3 0x22C0 DUP6 DUP3 DUP7 ADD PUSH3 0x1D63 JUMP JUMPDEST SWAP3 POP POP PUSH1 0x20 PUSH3 0x22D3 DUP6 DUP3 DUP7 ADD PUSH3 0x1D63 JUMP JUMPDEST SWAP2 POP POP SWAP3 POP SWAP3 SWAP1 POP JUMP JUMPDEST PUSH32 0x4E487B7100000000000000000000000000000000000000000000000000000000 PUSH1 0x0 MSTORE PUSH1 0x22 PUSH1 0x4 MSTORE PUSH1 0x24 PUSH1 0x0 REVERT JUMPDEST PUSH1 0x0 PUSH1 0x2 DUP3 DIV SWAP1 POP PUSH1 0x1 DUP3 AND DUP1 PUSH3 0x2325 JUMPI PUSH1 0x7F DUP3 AND SWAP2 POP JUMPDEST PUSH1 0x20 DUP3 LT DUP2 SUB PUSH3 0x233B JUMPI PUSH3 0x233A PUSH3 0x22DD JUMP JUMPDEST JUMPDEST POP SWAP2 SWAP1 POP JUMP JUMPDEST PUSH32 0x4E487B7100000000000000000000000000000000000000000000000000000000 PUSH1 0x0 MSTORE PUSH1 0x11 PUSH1 0x4 MSTORE PUSH1 0x24 PUSH1 0x0 REVERT JUMPDEST PUSH1 0x0 PUSH3 0x237D DUP3 PUSH3 0x1D7A JUMP JUMPDEST SWAP2 POP PUSH3 0x238A DUP4 PUSH3 0x1D7A JUMP JUMPDEST SWAP3 POP DUP3 DUP3 ADD SWAP1 POP DUP1 DUP3 GT ISZERO PUSH3 0x23A5 JUMPI PUSH3 0x23A4 PUSH3 0x2341 JUMP JUMPDEST JUMPDEST SWAP3 SWAP2 POP POP JUMP JUMPDEST PUSH32 0x436F6C6C656374696F6E206973206E6F7420796574206D696E74656421000000 PUSH1 0x0 DUP3 ADD MSTORE POP JUMP JUMPDEST PUSH1 0x0 PUSH3 0x23E3 PUSH1 0x1D DUP4 PUSH3 0x1C4E JUMP JUMPDEST SWAP2 POP PUSH3 0x23F0 DUP3 PUSH3 0x23AB JUMP JUMPDEST PUSH1 0x20 DUP3 ADD SWAP1 POP SWAP2 SWAP1 POP JUMP JUMPDEST PUSH1 0x0 PUSH1 0x20 DUP3 ADD SWAP1 POP DUP2 DUP2 SUB PUSH1 0x0 DUP4 ADD MSTORE PUSH3 0x2416 DUP2 PUSH3 0x23D4 JUMP JUMPDEST SWAP1 POP SWAP2 SWAP1 POP JUMP JUMPDEST PUSH1 0x0 PUSH3 0x242A DUP3 PUSH3 0x1D7A JUMP JUMPDEST SWAP2 POP PUSH3 0x2437 DUP4 PUSH3 0x1D7A JUMP JUMPDEST SWAP3 POP DUP3 DUP3 MUL PUSH3 0x2447 DUP2 PUSH3 0x1D7A JUMP JUMPDEST SWAP2 POP DUP3 DUP3 DIV DUP5 EQ DUP4 ISZERO OR PUSH3 0x2461 JUMPI PUSH3 0x2460 PUSH3 0x2341 JUMP JUMPDEST JUMPDEST POP SWAP3 SWAP2 POP POP JUMP JUMPDEST PUSH3 0x2473 DUP2 PUSH3 0x1D35 JUMP JUMPDEST DUP3 MSTORE POP POP JUMP JUMPDEST PUSH1 0x0 PUSH1 0x60 DUP3 ADD SWAP1 POP PUSH3 0x2490 PUSH1 0x0 DUP4 ADD DUP7 PUSH3 0x2468 JUMP JUMPDEST PUSH3 0x249F PUSH1 0x20 DUP4 ADD DUP6 PUSH3 0x2468 JUMP JUMPDEST PUSH3 0x24AE PUSH1 0x40 DUP4 ADD DUP5 PUSH3 0x1E36 JUMP JUMPDEST SWAP5 SWAP4 POP POP POP POP JUMP JUMPDEST PUSH3 0x24C1 DUP2 PUSH3 0x1DFC JUMP JUMPDEST DUP2 EQ PUSH3 0x24CD JUMPI PUSH1 0x0 DUP1 REVERT JUMPDEST POP JUMP JUMPDEST PUSH1 0x0 DUP2 MLOAD SWAP1 POP PUSH3 0x24E1 DUP2 PUSH3 0x24B6 JUMP JUMPDEST SWAP3 SWAP2 POP POP JUMP JUMPDEST PUSH1 0x0 PUSH1 0x20 DUP3 DUP5 SUB SLT ISZERO PUSH3 0x2500 JUMPI PUSH3 0x24FF PUSH3 0x1D0B JUMP JUMPDEST JUMPDEST PUSH1 0x0 PUSH3 0x2510 DUP5 DUP3 DUP6 ADD PUSH3 0x24D0 JUMP JUMPDEST SWAP2 POP POP SWAP3 SWAP2 POP POP JUMP JUMPDEST PUSH32 0x53544E4541523A207472616E7366657246726F6D206661696C65640000000000 PUSH1 0x0 DUP3 ADD MSTORE POP JUMP JUMPDEST PUSH1 0x0 PUSH3 0x2551 PUSH1 0x1B DUP4 PUSH3 0x1C4E JUMP JUMPDEST SWAP2 POP PUSH3 0x255E DUP3 PUSH3 0x2519 JUMP JUMPDEST PUSH1 0x20 DUP3 ADD SWAP1 POP SWAP2 SWAP1 POP JUMP JUMPDEST PUSH1 0x0 PUSH1 0x20 DUP3 ADD SWAP1 POP DUP2 DUP2 SUB PUSH1 0x0 DUP4 ADD MSTORE PUSH3 0x2584 DUP2 PUSH3 0x2542 JUMP JUMPDEST SWAP1 POP SWAP2 SWAP1 POP JUMP JUMPDEST PUSH1 0x0 PUSH1 0x40 DUP3 ADD SWAP1 POP PUSH3 0x25A2 PUSH1 0x0 DUP4 ADD DUP6 PUSH3 0x2468 JUMP JUMPDEST DUP2 DUP2 SUB PUSH1 0x20 DUP4 ADD MSTORE PUSH3 0x25B6 DUP2 DUP5 PUSH3 0x1C9C JUMP JUMPDEST SWAP1 POP SWAP4 SWAP3 POP POP POP JUMP JUMPDEST PUSH1 0x0 DUP2 MLOAD SWAP1 POP PUSH3 0x25D0 DUP2 PUSH3 0x1D84 JUMP JUMPDEST SWAP3 SWAP2 POP POP JUMP JUMPDEST PUSH1 0x0 PUSH1 0x20 DUP3 DUP5 SUB SLT ISZERO PUSH3 0x25EF JUMPI PUSH3 0x25EE PUSH3 0x1D0B JUMP JUMPDEST JUMPDEST PUSH1 0x0 PUSH3 0x25FF DUP5 DUP3 DUP6 ADD PUSH3 0x25BF JUMP JUMPDEST SWAP2 POP POP SWAP3 SWAP2 POP POP JUMP JUMPDEST PUSH32 0x4E6F706521000000000000000000000000000000000000000000000000000000 PUSH1 0x0 DUP3 ADD MSTORE POP JUMP JUMPDEST PUSH1 0x0 PUSH3 0x2640 PUSH1 0x5 DUP4 PUSH3 0x1C4E JUMP JUMPDEST SWAP2 POP PUSH3 0x264D DUP3 PUSH3 0x2608 JUMP JUMPDEST PUSH1 0x20 DUP3 ADD SWAP1 POP SWAP2 SWAP1 POP JUMP JUMPDEST PUSH1 0x0 PUSH1 0x20 DUP3 ADD SWAP1 POP DUP2 DUP2 SUB PUSH1 0x0 DUP4 ADD MSTORE PUSH3 0x2673 DUP2 PUSH3 0x2631 JUMP JUMPDEST SWAP1 POP SWAP2 SWAP1 POP JUMP JUMPDEST PUSH32 0x45524332303A2064656372656173656420616C6C6F77616E63652062656C6F77 PUSH1 0x0 DUP3 ADD MSTORE PUSH32 0x207A65726F000000000000000000000000000000000000000000000000000000 PUSH1 0x20 DUP3 ADD MSTORE POP JUMP JUMPDEST PUSH1 0x0 PUSH3 0x26D8 PUSH1 0x25 DUP4 PUSH3 0x1C4E JUMP JUMPDEST SWAP2 POP PUSH3 0x26E5 DUP3 PUSH3 0x267A JUMP JUMPDEST PUSH1 0x40 DUP3 ADD SWAP1 POP SWAP2 SWAP1 POP JUMP JUMPDEST PUSH1 0x0 PUSH1 0x20 DUP3 ADD SWAP1 POP DUP2 DUP2 SUB PUSH1 0x0 DUP4 ADD MSTORE PUSH3 0x270B DUP2 PUSH3 0x26C9 JUMP JUMPDEST SWAP1 POP SWAP2 SWAP1 POP JUMP JUMPDEST PUSH32 0x436F6C6C656374696F6E206973206E6F7420796574206D696E74656400000000 PUSH1 0x0 DUP3 ADD MSTORE POP JUMP JUMPDEST PUSH1 0x0 PUSH3 0x274A PUSH1 0x1C DUP4 PUSH3 0x1C4E JUMP JUMPDEST SWAP2 POP PUSH3 0x2757 DUP3 PUSH3 0x2712 JUMP JUMPDEST PUSH1 0x20 DUP3 ADD SWAP1 POP SWAP2 SWAP1 POP JUMP JUMPDEST PUSH1 0x0 PUSH1 0x20 DUP3 ADD SWAP1 POP DUP2 DUP2 SUB PUSH1 0x0 DUP4 ADD MSTORE PUSH3 0x277D DUP2 PUSH3 0x273B JUMP JUMPDEST SWAP1 POP SWAP2 SWAP1 POP JUMP JUMPDEST PUSH32 0x5472656520646F6573206E6F7420657869737400000000000000000000000000 PUSH1 0x0 DUP3 ADD MSTORE POP JUMP JUMPDEST PUSH1 0x0 PUSH3 0x27BC PUSH1 0x13 DUP4 PUSH3 0x1C4E JUMP JUMPDEST SWAP2 POP PUSH3 0x27C9 DUP3 PUSH3 0x2784 JUMP JUMPDEST PUSH1 0x20 DUP3 ADD SWAP1 POP SWAP2 SWAP1 POP JUMP JUMPDEST PUSH1 0x0 PUSH1 0x20 DUP3 ADD SWAP1 POP DUP2 DUP2 SUB PUSH1 0x0 DUP4 ADD MSTORE PUSH3 0x27EF DUP2 PUSH3 0x27AD JUMP JUMPDEST SWAP1 POP SWAP2 SWAP1 POP JUMP JUMPDEST PUSH1 0x0 DUP2 MLOAD SWAP1 POP PUSH3 0x2807 DUP2 PUSH3 0x1D49 JUMP JUMPDEST SWAP3 SWAP2 POP POP JUMP JUMPDEST PUSH1 0x0 PUSH1 0x20 DUP3 DUP5 SUB SLT ISZERO PUSH3 0x2826 JUMPI PUSH3 0x2825 PUSH3 0x1D0B JUMP JUMPDEST JUMPDEST PUSH1 0x0 PUSH3 0x2836 DUP5 DUP3 DUP6 ADD PUSH3 0x27F6 JUMP JUMPDEST SWAP2 POP POP SWAP3 SWAP2 POP POP JUMP JUMPDEST PUSH32 0x596F7520617265206E6F7420746865206F776E65720000000000000000000000 PUSH1 0x0 DUP3 ADD MSTORE POP JUMP JUMPDEST PUSH1 0x0 PUSH3 0x2877 PUSH1 0x15 DUP4 PUSH3 0x1C4E JUMP JUMPDEST SWAP2 POP PUSH3 0x2884 DUP3 PUSH3 0x283F JUMP JUMPDEST PUSH1 0x20 DUP3 ADD SWAP1 POP SWAP2 SWAP1 POP JUMP JUMPDEST PUSH1 0x0 PUSH1 0x20 DUP3 ADD SWAP1 POP DUP2 DUP2 SUB PUSH1 0x0 DUP4 ADD MSTORE PUSH3 0x28AA DUP2 PUSH3 0x2868 JUMP JUMPDEST SWAP1 POP SWAP2 SWAP1 POP JUMP JUMPDEST PUSH1 0x0 PUSH3 0x28BE DUP3 PUSH3 0x1D7A JUMP JUMPDEST SWAP2 POP PUSH3 0x28CB DUP4 PUSH3 0x1D7A JUMP JUMPDEST SWAP3 POP DUP3 DUP3 SUB SWAP1 POP DUP2 DUP2 GT ISZERO PUSH3 0x28E6 JUMPI PUSH3 0x28E5 PUSH3 0x2341 JUMP JUMPDEST JUMPDEST SWAP3 SWAP2 POP POP JUMP JUMPDEST PUSH32 0x5761746572204669727374000000000000000000000000000000000000000000 PUSH1 0x0 DUP3 ADD MSTORE POP JUMP JUMPDEST PUSH1 0x0 PUSH3 0x2924 PUSH1 0xB DUP4 PUSH3 0x1C4E JUMP JUMPDEST SWAP2 POP PUSH3 0x2931 DUP3 PUSH3 0x28EC JUMP JUMPDEST PUSH1 0x20 DUP3 ADD SWAP1 POP SWAP2 SWAP1 POP JUMP JUMPDEST PUSH1 0x0 PUSH1 0x20 DUP3 ADD SWAP1 POP DUP2 DUP2 SUB PUSH1 0x0 DUP4 ADD MSTORE PUSH3 0x2957 DUP2 PUSH3 0x2915 JUMP JUMPDEST SWAP1 POP SWAP2 SWAP1 POP JUMP JUMPDEST PUSH32 0x43616E277420436C61696D000000000000000000000000000000000000000000 PUSH1 0x0 DUP3 ADD MSTORE POP JUMP JUMPDEST PUSH1 0x0 PUSH3 0x2996 PUSH1 0xB DUP4 PUSH3 0x1C4E JUMP JUMPDEST SWAP2 POP PUSH3 0x29A3 DUP3 PUSH3 0x295E JUMP JUMPDEST PUSH1 0x20 DUP3 ADD SWAP1 POP SWAP2 SWAP1 POP JUMP JUMPDEST PUSH1 0x0 PUSH1 0x20 DUP3 ADD SWAP1 POP DUP2 DUP2 SUB PUSH1 0x0 DUP4 ADD MSTORE PUSH3 0x29C9 DUP2 PUSH3 0x2987 JUMP JUMPDEST SWAP1 POP SWAP2 SWAP1 POP JUMP JUMPDEST PUSH32 0x45524332303A20617070726F76652066726F6D20746865207A65726F20616464 PUSH1 0x0 DUP3 ADD MSTORE PUSH32 0x7265737300000000000000000000000000000000000000000000000000000000 PUSH1 0x20 DUP3 ADD MSTORE POP JUMP JUMPDEST PUSH1 0x0 PUSH3 0x2A2E PUSH1 0x24 DUP4 PUSH3 0x1C4E JUMP JUMPDEST SWAP2 POP PUSH3 0x2A3B DUP3 PUSH3 0x29D0 JUMP JUMPDEST PUSH1 0x40 DUP3 ADD SWAP1 POP SWAP2 SWAP1 POP JUMP JUMPDEST PUSH1 0x0 PUSH1 0x20 DUP3 ADD SWAP1 POP DUP2 DUP2 SUB PUSH1 0x0 DUP4 ADD MSTORE PUSH3 0x2A61 DUP2 PUSH3 0x2A1F JUMP JUMPDEST SWAP1 POP SWAP2 SWAP1 POP JUMP JUMPDEST PUSH32 0x45524332303A20617070726F766520746F20746865207A65726F206164647265 PUSH1 0x0 DUP3 ADD MSTORE PUSH32 0x7373000000000000000000000000000000000000000000000000000000000000 PUSH1 0x20 DUP3 ADD MSTORE POP JUMP JUMPDEST PUSH1 0x0 PUSH3 0x2AC6 PUSH1 0x22 DUP4 PUSH3 0x1C4E JUMP JUMPDEST SWAP2 POP PUSH3 0x2AD3 DUP3 PUSH3 0x2A68 JUMP JUMPDEST PUSH1 0x40 DUP3 ADD SWAP1 POP SWAP2 SWAP1 POP JUMP JUMPDEST PUSH1 0x0 PUSH1 0x20 DUP3 ADD SWAP1 POP DUP2 DUP2 SUB PUSH1 0x0 DUP4 ADD MSTORE PUSH3 0x2AF9 DUP2 PUSH3 0x2AB7 JUMP JUMPDEST SWAP1 POP SWAP2 SWAP1 POP JUMP JUMPDEST PUSH32 0x45524332303A20696E73756666696369656E7420616C6C6F77616E6365000000 PUSH1 0x0 DUP3 ADD MSTORE POP JUMP JUMPDEST PUSH1 0x0 PUSH3 0x2B38 PUSH1 0x1D DUP4 PUSH3 0x1C4E JUMP JUMPDEST SWAP2 POP PUSH3 0x2B45 DUP3 PUSH3 0x2B00 JUMP JUMPDEST PUSH1 0x20 DUP3 ADD SWAP1 POP SWAP2 SWAP1 POP JUMP JUMPDEST PUSH1 0x0 PUSH1 0x20 DUP3 ADD SWAP1 POP DUP2 DUP2 SUB PUSH1 0x0 DUP4 ADD MSTORE PUSH3 0x2B6B DUP2 PUSH3 0x2B29 JUMP JUMPDEST SWAP1 POP SWAP2 SWAP1 POP JUMP JUMPDEST PUSH32 0x45524332303A207472616E736665722066726F6D20746865207A65726F206164 PUSH1 0x0 DUP3 ADD MSTORE PUSH32 0x6472657373000000000000000000000000000000000000000000000000000000 PUSH1 0x20 DUP3 ADD MSTORE POP JUMP JUMPDEST PUSH1 0x0 PUSH3 0x2BD0 PUSH1 0x25 DUP4 PUSH3 0x1C4E JUMP JUMPDEST SWAP2 POP PUSH3 0x2BDD DUP3 PUSH3 0x2B72 JUMP JUMPDEST PUSH1 0x40 DUP3 ADD SWAP1 POP SWAP2 SWAP1 POP JUMP JUMPDEST PUSH1 0x0 PUSH1 0x20 DUP3 ADD SWAP1 POP DUP2 DUP2 SUB PUSH1 0x0 DUP4 ADD MSTORE PUSH3 0x2C03 DUP2 PUSH3 0x2BC1 JUMP JUMPDEST SWAP1 POP SWAP2 SWAP1 POP JUMP JUMPDEST PUSH32 0x45524332303A207472616E7366657220746F20746865207A65726F2061646472 PUSH1 0x0 DUP3 ADD MSTORE PUSH32 0x6573730000000000000000000000000000000000000000000000000000000000 PUSH1 0x20 DUP3 ADD MSTORE POP JUMP JUMPDEST PUSH1 0x0 PUSH3 0x2C68 PUSH1 0x23 DUP4 PUSH3 0x1C4E JUMP JUMPDEST SWAP2 POP PUSH3 0x2C75 DUP3 PUSH3 0x2C0A JUMP JUMPDEST PUSH1 0x40 DUP3 ADD SWAP1 POP SWAP2 SWAP1 POP JUMP JUMPDEST PUSH1 0x0 PUSH1 0x20 DUP3 ADD SWAP1 POP DUP2 DUP2 SUB PUSH1 0x0 DUP4 ADD MSTORE PUSH3 0x2C9B DUP2 PUSH3 0x2C59 JUMP JUMPDEST SWAP1 POP SWAP2 SWAP1 POP JUMP JUMPDEST PUSH32 0x45524332303A207472616E7366657220616D6F756E7420657863656564732062 PUSH1 0x0 DUP3 ADD MSTORE PUSH32 0x616C616E63650000000000000000000000000000000000000000000000000000 PUSH1 0x20 DUP3 ADD MSTORE POP JUMP JUMPDEST PUSH1 0x0 PUSH3 0x2D00 PUSH1 0x26 DUP4 PUSH3 0x1C4E JUMP JUMPDEST SWAP2 POP PUSH3 0x2D0D DUP3 PUSH3 0x2CA2 JUMP JUMPDEST PUSH1 0x40 DUP3 ADD SWAP1 POP SWAP2 SWAP1 POP JUMP JUMPDEST PUSH1 0x0 PUSH1 0x20 DUP3 ADD SWAP1 POP DUP2 DUP2 SUB PUSH1 0x0 DUP4 ADD MSTORE PUSH3 0x2D33 DUP2 PUSH3 0x2CF1 JUMP JUMPDEST SWAP1 POP SWAP2 SWAP1 POP JUMP JUMPDEST PUSH32 0x45524332303A206D696E7420746F20746865207A65726F206164647265737300 PUSH1 0x0 DUP3 ADD MSTORE POP JUMP JUMPDEST PUSH1 0x0 PUSH3 0x2D72 PUSH1 0x1F DUP4 PUSH3 0x1C4E JUMP JUMPDEST SWAP2 POP PUSH3 0x2D7F DUP3 PUSH3 0x2D3A JUMP JUMPDEST PUSH1 0x20 DUP3 ADD SWAP1 POP SWAP2 SWAP1 POP JUMP JUMPDEST PUSH1 0x0 PUSH1 0x20 DUP3 ADD SWAP1 POP DUP2 DUP2 SUB PUSH1 0x0 DUP4 ADD MSTORE PUSH3 0x2DA5 DUP2 PUSH3 0x2D63 JUMP JUMPDEST SWAP1 POP SWAP2 SWAP1 POP JUMP INVALID PUSH1 0x80 PUSH1 0x40 MSTORE CALLVALUE DUP1 ISZERO PUSH3 0x11 JUMPI PUSH1 0x0 DUP1 REVERT JUMPDEST POP PUSH1 0x40 MLOAD DUP1 PUSH1 0x40 ADD PUSH1 0x40 MSTORE DUP1 PUSH1 0x7 DUP2 MSTORE PUSH1 0x20 ADD PUSH32 0x47656E6573697300000000000000000000000000000000000000000000000000 DUP2 MSTORE POP PUSH1 0x40 MLOAD DUP1 PUSH1 0x40 ADD PUSH1 0x40 MSTORE DUP1 PUSH1 0x3 DUP2 MSTORE PUSH1 0x20 ADD PUSH32 0x474E450000000000000000000000000000000000000000000000000000000000 DUP2 MSTORE POP DUP2 PUSH1 0x0 SWAP1 DUP2 PUSH3 0x8F SWAP2 SWAP1 PUSH3 0x365 JUMP JUMPDEST POP DUP1 PUSH1 0x1 SWAP1 DUP2 PUSH3 0xA1 SWAP2 SWAP1 PUSH3 0x365 JUMP JUMPDEST POP POP POP CALLER PUSH1 0x7 PUSH1 0x0 PUSH2 0x100 EXP DUP2 SLOAD DUP2 PUSH20 0xFFFFFFFFFFFFFFFFFFFFFFFFFFFFFFFFFFFFFFFF MUL NOT AND SWAP1 DUP4 PUSH20 0xFFFFFFFFFFFFFFFFFFFFFFFFFFFFFFFFFFFFFFFF AND MUL OR SWAP1 SSTORE POP PUSH3 0x44C JUMP JUMPDEST PUSH1 0x0 DUP2 MLOAD SWAP1 POP SWAP2 SWAP1 POP JUMP JUMPDEST PUSH32 0x4E487B7100000000000000000000000000000000000000000000000000000000 PUSH1 0x0 MSTORE PUSH1 0x41 PUSH1 0x4 MSTORE PUSH1 0x24 PUSH1 0x0 REVERT JUMPDEST PUSH32 0x4E487B7100000000000000000000000000000000000000000000000000000000 PUSH1 0x0 MSTORE PUSH1 0x22 PUSH1 0x4 MSTORE PUSH1 0x24 PUSH1 0x0 REVERT JUMPDEST PUSH1 0x0 PUSH1 0x2 DUP3 DIV SWAP1 POP PUSH1 0x1 DUP3 AND DUP1 PUSH3 0x16D JUMPI PUSH1 0x7F DUP3 AND SWAP2 POP JUMPDEST PUSH1 0x20 DUP3 LT DUP2 SUB PUSH3 0x183 JUMPI PUSH3 0x182 PUSH3 0x125 JUMP JUMPDEST JUMPDEST POP SWAP2 SWAP1 POP JUMP JUMPDEST PUSH1 0x0 DUP2 SWAP1 POP DUP2 PUSH1 0x0 MSTORE PUSH1 0x20 PUSH1 0x0 KECCAK256 SWAP1 POP SWAP2 SWAP1 POP JUMP JUMPDEST PUSH1 0x0 PUSH1 0x20 PUSH1 0x1F DUP4 ADD DIV SWAP1 POP SWAP2 SWAP1 POP JUMP JUMPDEST PUSH1 0x0 DUP3 DUP3 SHL SWAP1 POP SWAP3 SWAP2 POP POP JUMP JUMPDEST PUSH1 0x0 PUSH1 0x8 DUP4 MUL PUSH3 0x1ED PUSH32 0xFFFFFFFFFFFFFFFFFFFFFFFFFFFFFFFFFFFFFFFFFFFFFFFFFFFFFFFFFFFFFFFF DUP3 PUSH3 0x1AE JUMP JUMPDEST PUSH3 0x1F9 DUP7 DUP4 PUSH3 0x1AE JUMP JUMPDEST SWAP6 POP DUP1 NOT DUP5 AND SWAP4 POP DUP1 DUP7 AND DUP5 OR SWAP3 POP POP POP SWAP4 SWAP3 POP POP POP JUMP JUMPDEST PUSH1 0x0 DUP2 SWAP1 POP SWAP2 SWAP1 POP JUMP JUMPDEST PUSH1 0x0 DUP2 SWAP1 POP SWAP2 SWAP1 POP JUMP JUMPDEST PUSH1 0x0 PUSH3 0x246 PUSH3 0x240 PUSH3 0x23A DUP5 PUSH3 0x211 JUMP JUMPDEST PUSH3 0x21B JUMP JUMPDEST PUSH3 0x211 JUMP JUMPDEST SWAP1 POP SWAP2 SWAP1 POP JUMP JUMPDEST PUSH1 0x0 DUP2 SWAP1 POP SWAP2 SWAP1 POP JUMP JUMPDEST PUSH3 0x262 DUP4 PUSH3 0x225 JUMP JUMPDEST PUSH3 0x27A PUSH3 0x271 DUP3 PUSH3 0x24D JUMP JUMPDEST DUP5 DUP5 SLOAD PUSH3 0x1BB JUMP JUMPDEST DUP3 SSTORE POP POP POP POP JUMP JUMPDEST PUSH1 0x0 SWAP1 JUMP JUMPDEST PUSH3 0x291 PUSH3 0x282 JUMP JUMPDEST PUSH3 0x29E DUP2 DUP5 DUP5 PUSH3 0x257 JUMP JUMPDEST POP POP POP JUMP JUMPDEST JUMPDEST DUP2 DUP2 LT ISZERO PUSH3 0x2C6 JUMPI PUSH3 0x2BA PUSH1 0x0 DUP3 PUSH3 0x287 JUMP JUMPDEST PUSH1 0x1 DUP2 ADD SWAP1 POP PUSH3 0x2A4 JUMP JUMPDEST POP POP JUMP JUMPDEST PUSH1 0x1F DUP3 GT ISZERO PUSH3 0x315 JUMPI PUSH3 0x2DF DUP2 PUSH3 0x189 JUMP JUMPDEST PUSH3 0x2EA DUP5 PUSH3 0x19E JUMP JUMPDEST DUP2 ADD PUSH1 0x20 DUP6 LT ISZERO PUSH3 0x2FA JUMPI DUP2 SWAP1 POP JUMPDEST PUSH3 0x312 PUSH3 0x309 DUP6 PUSH3 0x19E JUMP JUMPDEST DUP4 ADD DUP3 PUSH3 0x2A3 JUMP JUMPDEST POP POP JUMPDEST POP POP POP JUMP JUMPDEST PUSH1 0x0 DUP3 DUP3 SHR SWAP1 POP SWAP3 SWAP2 POP POP JUMP JUMPDEST PUSH1 0x0 PUSH3 0x33A PUSH1 0x0 NOT DUP5 PUSH1 0x8 MUL PUSH3 0x31A JUMP JUMPDEST NOT DUP1 DUP4 AND SWAP2 POP POP SWAP3 SWAP2 POP POP JUMP JUMPDEST PUSH1 0x0 PUSH3 0x355 DUP4 DUP4 PUSH3 0x327 JUMP JUMPDEST SWAP2 POP DUP3 PUSH1 0x2 MUL DUP3 OR SWAP1 POP SWAP3 SWAP2 POP POP JUMP JUMPDEST PUSH3 0x370 DUP3 PUSH3 0xEB JUMP JUMPDEST PUSH8 0xFFFFFFFFFFFFFFFF DUP2 GT ISZERO PUSH3 0x38C JUMPI PUSH3 0x38B PUSH3 0xF6 JUMP JUMPDEST JUMPDEST PUSH3 0x398 DUP3 SLOAD PUSH3 0x154 JUMP JUMPDEST PUSH3 0x3A5 DUP3 DUP3 DUP6 PUSH3 0x2CA JUMP JUMPDEST PUSH1 0x0 PUSH1 0x20 SWAP1 POP PUSH1 0x1F DUP4 GT PUSH1 0x1 DUP2 EQ PUSH3 0x3DD JUMPI PUSH1 0x0 DUP5 ISZERO PUSH3 0x3C8 JUMPI DUP3 DUP8 ADD MLOAD SWAP1 POP JUMPDEST PUSH3 0x3D4 DUP6 DUP3 PUSH3 0x347 JUMP JUMPDEST DUP7 SSTORE POP PUSH3 0x444 JUMP JUMPDEST PUSH1 0x1F NOT DUP5 AND PUSH3 0x3ED DUP7 PUSH3 0x189 JUMP JUMPDEST PUSH1 0x0 JUMPDEST DUP3 DUP2 LT ISZERO PUSH3 0x417 JUMPI DUP5 DUP10 ADD MLOAD DUP3 SSTORE PUSH1 0x1 DUP3 ADD SWAP2 POP PUSH1 0x20 DUP6 ADD SWAP5 POP PUSH1 0x20 DUP2 ADD SWAP1 POP PUSH3 0x3F0 JUMP JUMPDEST DUP7 DUP4 LT ISZERO PUSH3 0x437 JUMPI DUP5 DUP10 ADD MLOAD PUSH3 0x433 PUSH1 0x1F DUP10 AND DUP3 PUSH3 0x327 JUMP JUMPDEST DUP4 SSTORE POP JUMPDEST PUSH1 0x1 PUSH1 0x2 DUP9 MUL ADD DUP9 SSTORE POP POP POP JUMPDEST POP POP POP POP POP POP JUMP JUMPDEST PUSH2 0x2D69 DUP1 PUSH3 0x45C PUSH1 0x0 CODECOPY PUSH1 0x0 RETURN INVALID PUSH1 0x80 PUSH1 0x40 MSTORE CALLVALUE DUP1 ISZERO PUSH2 0x10 JUMPI PUSH1 0x0 DUP1 REVERT JUMPDEST POP PUSH1 0x4 CALLDATASIZE LT PUSH2 0xF5 JUMPI PUSH1 0x0 CALLDATALOAD PUSH1 0xE0 SHR DUP1 PUSH4 0x70A08231 GT PUSH2 0x97 JUMPI DUP1 PUSH4 0xB88D4FDE GT PUSH2 0x66 JUMPI DUP1 PUSH4 0xB88D4FDE EQ PUSH2 0x284 JUMPI DUP1 PUSH4 0xC87B56DD EQ PUSH2 0x2A0 JUMPI DUP1 PUSH4 0xD204C45E EQ PUSH2 0x2D0 JUMPI DUP1 PUSH4 0xE985E9C5 EQ PUSH2 0x2EC JUMPI PUSH2 0xF5 JUMP JUMPDEST DUP1 PUSH4 0x70A08231 EQ PUSH2 0x1FC JUMPI DUP1 PUSH4 0x95D89B41 EQ PUSH2 0x22C JUMPI DUP1 PUSH4 0x98BDF6F5 EQ PUSH2 0x24A JUMPI DUP1 PUSH4 0xA22CB465 EQ PUSH2 0x268 JUMPI PUSH2 0xF5 JUMP JUMPDEST DUP1 PUSH4 0x95EA7B3 GT PUSH2 0xD3 JUMPI DUP1 PUSH4 0x95EA7B3 EQ PUSH2 0x178 JUMPI DUP1 PUSH4 0x23B872DD EQ PUSH2 0x194 JUMPI DUP1 PUSH4 0x42842E0E EQ PUSH2 0x1B0 JUMPI DUP1 PUSH4 0x6352211E EQ PUSH2 0x1CC JUMPI PUSH2 0xF5 JUMP JUMPDEST DUP1 PUSH4 0x1FFC9A7 EQ PUSH2 0xFA JUMPI DUP1 PUSH4 0x6FDDE03 EQ PUSH2 0x12A JUMPI DUP1 PUSH4 0x81812FC EQ PUSH2 0x148 JUMPI JUMPDEST PUSH1 0x0 DUP1 REVERT JUMPDEST PUSH2 0x114 PUSH1 0x4 DUP1 CALLDATASIZE SUB DUP2 ADD SWAP1 PUSH2 0x10F SWAP2 SWAP1 PUSH2 0x1B5A JUMP JUMPDEST PUSH2 0x31C JUMP JUMPDEST PUSH1 0x40 MLOAD PUSH2 0x121 SWAP2 SWAP1 PUSH2 0x1BA2 JUMP JUMPDEST PUSH1 0x40 MLOAD DUP1 SWAP2 SUB SWAP1 RETURN JUMPDEST PUSH2 0x132 PUSH2 0x32E JUMP JUMPDEST PUSH1 0x40 MLOAD PUSH2 0x13F SWAP2 SWAP1 PUSH2 0x1C4D JUMP JUMPDEST PUSH1 0x40 MLOAD DUP1 SWAP2 SUB SWAP1 RETURN JUMPDEST PUSH2 0x162 PUSH1 0x4 DUP1 CALLDATASIZE SUB DUP2 ADD SWAP1 PUSH2 0x15D SWAP2 SWAP1 PUSH2 0x1CA5 JUMP JUMPDEST PUSH2 0x3C0 JUMP JUMPDEST PUSH1 0x40 MLOAD PUSH2 0x16F SWAP2 SWAP1 PUSH2 0x1D13 JUMP JUMPDEST PUSH1 0x40 MLOAD DUP1 SWAP2 SUB SWAP1 RETURN JUMPDEST PUSH2 0x192 PUSH1 0x4 DUP1 CALLDATASIZE SUB DUP2 ADD SWAP1 PUSH2 0x18D SWAP2 SWAP1 PUSH2 0x1D5A JUMP JUMPDEST PUSH2 0x406 JUMP JUMPDEST STOP JUMPDEST PUSH2 0x1AE PUSH1 0x4 DUP1 CALLDATASIZE SUB DUP2 ADD SWAP1 PUSH2 0x1A9 SWAP2 SWAP1 PUSH2 0x1D9A JUMP JUMPDEST PUSH2 0x51D JUMP JUMPDEST STOP JUMPDEST PUSH2 0x1CA PUSH1 0x4 DUP1 CALLDATASIZE SUB DUP2 ADD SWAP1 PUSH2 0x1C5 SWAP2 SWAP1 PUSH2 0x1D9A JUMP JUMPDEST PUSH2 0x57D JUMP JUMPDEST STOP JUMPDEST PUSH2 0x1E6 PUSH1 0x4 DUP1 CALLDATASIZE SUB DUP2 ADD SWAP1 PUSH2 0x1E1 SWAP2 SWAP1 PUSH2 0x1CA5 JUMP JUMPDEST PUSH2 0x59D JUMP JUMPDEST PUSH1 0x40 MLOAD PUSH2 0x1F3 SWAP2 SWAP1 PUSH2 0x1D13 JUMP JUMPDEST PUSH1 0x40 MLOAD DUP1 SWAP2 SUB SWAP1 RETURN JUMPDEST PUSH2 0x216 PUSH1 0x4 DUP1 CALLDATASIZE SUB DUP2 ADD SWAP1 PUSH2 0x211 SWAP2 SWAP1 PUSH2 0x1DED JUMP JUMPDEST PUSH2 0x623 JUMP JUMPDEST PUSH1 0x40 MLOAD PUSH2 0x223 SWAP2 SWAP1 PUSH2 0x1E29 JUMP JUMPDEST PUSH1 0x40 MLOAD DUP1 SWAP2 SUB SWAP1 RETURN JUMPDEST PUSH2 0x234 PUSH2 0x6DA JUMP JUMPDEST PUSH1 0x40 MLOAD PUSH2 0x241 SWAP2 SWAP1 PUSH2 0x1C4D JUMP JUMPDEST PUSH1 0x40 MLOAD DUP1 SWAP2 SUB SWAP1 RETURN JUMPDEST PUSH2 0x252 PUSH2 0x76C JUMP JUMPDEST PUSH1 0x40 MLOAD PUSH2 0x25F SWAP2 SWAP1 PUSH2 0x1E29 JUMP JUMPDEST PUSH1 0x40 MLOAD DUP1 SWAP2 SUB SWAP1 RETURN JUMPDEST PUSH2 0x282 PUSH1 0x4 DUP1 CALLDATASIZE SUB DUP2 ADD SWAP1 PUSH2 0x27D SWAP2 SWAP1 PUSH2 0x1E70 JUMP JUMPDEST PUSH2 0x778 JUMP JUMPDEST STOP JUMPDEST PUSH2 0x29E PUSH1 0x4 DUP1 CALLDATASIZE SUB DUP2 ADD SWAP1 PUSH2 0x299 SWAP2 SWAP1 PUSH2 0x1FE5 JUMP JUMPDEST PUSH2 0x78E JUMP JUMPDEST STOP JUMPDEST PUSH2 0x2BA PUSH1 0x4 DUP1 CALLDATASIZE SUB DUP2 ADD SWAP1 PUSH2 0x2B5 SWAP2 SWAP1 PUSH2 0x1CA5 JUMP JUMPDEST PUSH2 0x7F0 JUMP JUMPDEST PUSH1 0x40 MLOAD PUSH2 0x2C7 SWAP2 SWAP1 PUSH2 0x1C4D JUMP JUMPDEST PUSH1 0x40 MLOAD DUP1 SWAP2 SUB SWAP1 RETURN JUMPDEST PUSH2 0x2EA PUSH1 0x4 DUP1 CALLDATASIZE SUB DUP2 ADD SWAP1 PUSH2 0x2E5 SWAP2 SWAP1 PUSH2 0x2109 JUMP JUMPDEST PUSH2 0x802 JUMP JUMPDEST STOP JUMPDEST PUSH2 0x306 PUSH1 0x4 DUP1 CALLDATASIZE SUB DUP2 ADD SWAP1 PUSH2 0x301 SWAP2 SWAP1 PUSH2 0x2165 JUMP JUMPDEST PUSH2 0x907 JUMP JUMPDEST PUSH1 0x40 MLOAD PUSH2 0x313 SWAP2 SWAP1 PUSH2 0x1BA2 JUMP JUMPDEST PUSH1 0x40 MLOAD DUP1 SWAP2 SUB SWAP1 RETURN JUMPDEST PUSH1 0x0 PUSH2 0x327 DUP3 PUSH2 0x99B JUMP JUMPDEST SWAP1 POP SWAP2 SWAP1 POP JUMP JUMPDEST PUSH1 0x60 PUSH1 0x0 DUP1 SLOAD PUSH2 0x33D SWAP1 PUSH2 0x21D4 JUMP JUMPDEST DUP1 PUSH1 0x1F ADD PUSH1 0x20 DUP1 SWAP2 DIV MUL PUSH1 0x20 ADD PUSH1 0x40 MLOAD SWAP1 DUP2 ADD PUSH1 0x40 MSTORE DUP1 SWAP3 SWAP2 SWAP1 DUP2 DUP2 MSTORE PUSH1 0x20 ADD DUP3 DUP1 SLOAD PUSH2 0x369 SWAP1 PUSH2 0x21D4 JUMP JUMPDEST DUP1 ISZERO PUSH2 0x3B6 JUMPI DUP1 PUSH1 0x1F LT PUSH2 0x38B JUMPI PUSH2 0x100 DUP1 DUP4 SLOAD DIV MUL DUP4 MSTORE SWAP2 PUSH1 0x20 ADD SWAP2 PUSH2 0x3B6 JUMP JUMPDEST DUP3 ADD SWAP2 SWAP1 PUSH1 0x0 MSTORE PUSH1 0x20 PUSH1 0x0 KECCAK256 SWAP1 JUMPDEST DUP2 SLOAD DUP2 MSTORE SWAP1 PUSH1 0x1 ADD SWAP1 PUSH1 0x20 ADD DUP1 DUP4 GT PUSH2 0x399 JUMPI DUP3 SWAP1 SUB PUSH1 0x1F AND DUP3 ADD SWAP2 JUMPDEST POP POP POP POP POP SWAP1 POP SWAP1 JUMP JUMPDEST PUSH1 0x0 PUSH2 0x3CB DUP3 PUSH2 0x9FC JUMP JUMPDEST PUSH1 0x4 PUSH1 0x0 DUP4 DUP2 MSTORE PUSH1 0x20 ADD SWAP1 DUP2 MSTORE PUSH1 0x20 ADD PUSH1 0x0 KECCAK256 PUSH1 0x0 SWAP1 SLOAD SWAP1 PUSH2 0x100 EXP SWAP1 DIV PUSH20 0xFFFFFFFFFFFFFFFFFFFFFFFFFFFFFFFFFFFFFFFF AND SWAP1 POP SWAP2 SWAP1 POP JUMP JUMPDEST PUSH1 0x0 PUSH2 0x411 DUP3 PUSH2 0x59D JUMP JUMPDEST SWAP1 POP DUP1 PUSH20 0xFFFFFFFFFFFFFFFFFFFFFFFFFFFFFFFFFFFFFFFF AND DUP4 PUSH20 0xFFFFFFFFFFFFFFFFFFFFFFFFFFFFFFFFFFFFFFFF AND SUB PUSH2 0x481 JUMPI PUSH1 0x40 MLOAD PUSH32 0x8C379A000000000000000000000000000000000000000000000000000000000 DUP2 MSTORE PUSH1 0x4 ADD PUSH2 0x478 SWAP1 PUSH2 0x2277 JUMP JUMPDEST PUSH1 0x40 MLOAD DUP1 SWAP2 SUB SWAP1 REVERT JUMPDEST DUP1 PUSH20 0xFFFFFFFFFFFFFFFFFFFFFFFFFFFFFFFFFFFFFFFF AND PUSH2 0x4A0 PUSH2 0xA47 JUMP JUMPDEST PUSH20 0xFFFFFFFFFFFFFFFFFFFFFFFFFFFFFFFFFFFFFFFF AND EQ DUP1 PUSH2 0x4CF JUMPI POP PUSH2 0x4CE DUP2 PUSH2 0x4C9 PUSH2 0xA47 JUMP JUMPDEST PUSH2 0x907 JUMP JUMPDEST JUMPDEST PUSH2 0x50E JUMPI PUSH1 0x40 MLOAD PUSH32 0x8C379A000000000000000000000000000000000000000000000000000000000 DUP2 MSTORE PUSH1 0x4 ADD PUSH2 0x505 SWAP1 PUSH2 0x2309 JUMP JUMPDEST PUSH1 0x40 MLOAD DUP1 SWAP2 SUB SWAP1 REVERT JUMPDEST PUSH2 0x518 DUP4 DUP4 PUSH2 0xA4F JUMP JUMPDEST POP POP POP JUMP JUMPDEST PUSH2 0x52E PUSH2 0x528 PUSH2 0xA47 JUMP JUMPDEST DUP3 PUSH2 0xB08 JUMP JUMPDEST PUSH2 0x56D JUMPI PUSH1 0x40 MLOAD PUSH32 0x8C379A000000000000000000000000000000000000000000000000000000000 DUP2 MSTORE PUSH1 0x4 ADD PUSH2 0x564 SWAP1 PUSH2 0x239B JUMP JUMPDEST PUSH1 0x40 MLOAD DUP1 SWAP2 SUB SWAP1 REVERT JUMPDEST PUSH2 0x578 DUP4 DUP4 DUP4 PUSH2 0xB9D JUMP JUMPDEST POP POP POP JUMP JUMPDEST PUSH2 0x598 DUP4 DUP4 DUP4 PUSH1 0x40 MLOAD DUP1 PUSH1 0x20 ADD PUSH1 0x40 MSTORE DUP1 PUSH1 0x0 DUP2 MSTORE POP PUSH2 0x78E JUMP JUMPDEST POP POP POP JUMP JUMPDEST PUSH1 0x0 DUP1 PUSH2 0x5A9 DUP4 PUSH2 0xE96 JUMP JUMPDEST SWAP1 POP PUSH1 0x0 PUSH20 0xFFFFFFFFFFFFFFFFFFFFFFFFFFFFFFFFFFFFFFFF AND DUP2 PUSH20 0xFFFFFFFFFFFFFFFFFFFFFFFFFFFFFFFFFFFFFFFF AND SUB PUSH2 0x61A JUMPI PUSH1 0x40 MLOAD PUSH32 0x8C379A000000000000000000000000000000000000000000000000000000000 DUP2 MSTORE PUSH1 0x4 ADD PUSH2 0x611 SWAP1 PUSH2 0x2407 JUMP JUMPDEST PUSH1 0x40 MLOAD DUP1 SWAP2 SUB SWAP1 REVERT JUMPDEST DUP1 SWAP2 POP POP SWAP2 SWAP1 POP JUMP JUMPDEST PUSH1 0x0 DUP1 PUSH20 0xFFFFFFFFFFFFFFFFFFFFFFFFFFFFFFFFFFFFFFFF AND DUP3 PUSH20 0xFFFFFFFFFFFFFFFFFFFFFFFFFFFFFFFFFFFFFFFF AND SUB PUSH2 0x693 JUMPI PUSH1 0x40 MLOAD PUSH32 0x8C379A000000000000000000000000000000000000000000000000000000000 DUP2 MSTORE PUSH1 0x4 ADD PUSH2 0x68A SWAP1 PUSH2 0x2499 JUMP JUMPDEST PUSH1 0x40 MLOAD DUP1 SWAP2 SUB SWAP1 REVERT JUMPDEST PUSH1 0x3 PUSH1 0x0 DUP4 PUSH20 0xFFFFFFFFFFFFFFFFFFFFFFFFFFFFFFFFFFFFFFFF AND PUSH20 0xFFFFFFFFFFFFFFFFFFFFFFFFFFFFFFFFFFFFFFFF AND DUP2 MSTORE PUSH1 0x20 ADD SWAP1 DUP2 MSTORE PUSH1 0x20 ADD PUSH1 0x0 KECCAK256 SLOAD SWAP1 POP SWAP2 SWAP1 POP JUMP JUMPDEST PUSH1 0x60 PUSH1 0x1 DUP1 SLOAD PUSH2 0x6E9 SWAP1 PUSH2 0x21D4 JUMP JUMPDEST DUP1 PUSH1 0x1F ADD PUSH1 0x20 DUP1 SWAP2 DIV MUL PUSH1 0x20 ADD PUSH1 0x40 MLOAD SWAP1 DUP2 ADD PUSH1 0x40 MSTORE DUP1 SWAP3 SWAP2 SWAP1 DUP2 DUP2 MSTORE PUSH1 0x20 ADD DUP3 DUP1 SLOAD PUSH2 0x715 SWAP1 PUSH2 0x21D4 JUMP JUMPDEST DUP1 ISZERO PUSH2 0x762 JUMPI DUP1 PUSH1 0x1F LT PUSH2 0x737 JUMPI PUSH2 0x100 DUP1 DUP4 SLOAD DIV MUL DUP4 MSTORE SWAP2 PUSH1 0x20 ADD SWAP2 PUSH2 0x762 JUMP JUMPDEST DUP3 ADD SWAP2 SWAP1 PUSH1 0x0 MSTORE PUSH1 0x20 PUSH1 0x0 KECCAK256 SWAP1 JUMPDEST DUP2 SLOAD DUP2 MSTORE SWAP1 PUSH1 0x1 ADD SWAP1 PUSH1 0x20 ADD DUP1 DUP4 GT PUSH2 0x745 JUMPI DUP3 SWAP1 SUB PUSH1 0x1F AND DUP3 ADD SWAP2 JUMPDEST POP POP POP POP POP SWAP1 POP SWAP1 JUMP JUMPDEST PUSH1 0x8 DUP1 PUSH1 0x0 ADD SLOAD SWAP1 POP DUP2 JUMP JUMPDEST PUSH2 0x78A PUSH2 0x783 PUSH2 0xA47 JUMP JUMPDEST DUP4 DUP4 PUSH2 0xED3 JUMP JUMPDEST POP POP JUMP JUMPDEST PUSH2 0x79F PUSH2 0x799 PUSH2 0xA47 JUMP JUMPDEST DUP4 PUSH2 0xB08 JUMP JUMPDEST PUSH2 0x7DE JUMPI PUSH1 0x40 MLOAD PUSH32 0x8C379A000000000000000000000000000000000000000000000000000000000 DUP2 MSTORE PUSH1 0x4 ADD PUSH2 0x7D5 SWAP1 PUSH2 0x239B JUMP JUMPDEST PUSH1 0x40 MLOAD DUP1 SWAP2 SUB SWAP1 REVERT JUMPDEST PUSH2 0x7EA DUP5 DUP5 DUP5 DUP5 PUSH2 0x103F JUMP JUMPDEST POP POP POP POP JUMP JUMPDEST PUSH1 0x60 PUSH2 0x7FB DUP3 PUSH2 0x109B JUMP JUMPDEST SWAP1 POP SWAP2 SWAP1 POP JUMP JUMPDEST PUSH1 0x7 PUSH1 0x0 SWAP1 SLOAD SWAP1 PUSH2 0x100 EXP SWAP1 DIV PUSH20 0xFFFFFFFFFFFFFFFFFFFFFFFFFFFFFFFFFFFFFFFF AND PUSH20 0xFFFFFFFFFFFFFFFFFFFFFFFFFFFFFFFFFFFFFFFF AND CALLER PUSH20 0xFFFFFFFFFFFFFFFFFFFFFFFFFFFFFFFFFFFFFFFF AND EQ PUSH2 0x892 JUMPI PUSH1 0x40 MLOAD PUSH32 0x8C379A000000000000000000000000000000000000000000000000000000000 DUP2 MSTORE PUSH1 0x4 ADD PUSH2 0x889 SWAP1 PUSH2 0x2505 JUMP JUMPDEST PUSH1 0x40 MLOAD DUP1 SWAP2 SUB SWAP1 REVERT JUMPDEST PUSH2 0x89C PUSH1 0x8 PUSH2 0x11AD JUMP JUMPDEST PUSH1 0x0 PUSH2 0x8A8 PUSH1 0x8 PUSH2 0x11C3 JUMP JUMPDEST SWAP1 POP PUSH1 0x1E DUP2 GT ISZERO PUSH2 0x8EE JUMPI PUSH1 0x40 MLOAD PUSH32 0x8C379A000000000000000000000000000000000000000000000000000000000 DUP2 MSTORE PUSH1 0x4 ADD PUSH2 0x8E5 SWAP1 PUSH2 0x2597 JUMP JUMPDEST PUSH1 0x40 MLOAD DUP1 SWAP2 SUB SWAP1 REVERT JUMPDEST PUSH2 0x8F8 DUP4 DUP3 PUSH2 0x11D1 JUMP JUMPDEST PUSH2 0x902 DUP2 DUP4 PUSH2 0x11EF JUMP JUMPDEST POP POP POP JUMP JUMPDEST PUSH1 0x0 PUSH1 0x5 PUSH1 0x0 DUP5 PUSH20 0xFFFFFFFFFFFFFFFFFFFFFFFFFFFFFFFFFFFFFFFF AND PUSH20 0xFFFFFFFFFFFFFFFFFFFFFFFFFFFFFFFFFFFFFFFF AND DUP2 MSTORE PUSH1 0x20 ADD SWAP1 DUP2 MSTORE PUSH1 0x20 ADD PUSH1 0x0 KECCAK256 PUSH1 0x0 DUP4 PUSH20 0xFFFFFFFFFFFFFFFFFFFFFFFFFFFFFFFFFFFFFFFF AND PUSH20 0xFFFFFFFFFFFFFFFFFFFFFFFFFFFFFFFFFFFFFFFF AND DUP2 MSTORE PUSH1 0x20 ADD SWAP1 DUP2 MSTORE PUSH1 0x20 ADD PUSH1 0x0 KECCAK256 PUSH1 0x0 SWAP1 SLOAD SWAP1 PUSH2 0x100 EXP SWAP1 DIV PUSH1 0xFF AND SWAP1 POP SWAP3 SWAP2 POP POP JUMP JUMPDEST PUSH1 0x0 PUSH4 0x49064906 PUSH1 0xE0 SHL PUSH28 0xFFFFFFFFFFFFFFFFFFFFFFFFFFFFFFFFFFFFFFFFFFFFFFFFFFFFFFFF NOT AND DUP3 PUSH28 0xFFFFFFFFFFFFFFFFFFFFFFFFFFFFFFFFFFFFFFFFFFFFFFFFFFFFFFFF NOT AND EQ DUP1 PUSH2 0x9F5 JUMPI POP PUSH2 0x9F4 DUP3 PUSH2 0x1293 JUMP JUMPDEST JUMPDEST SWAP1 POP SWAP2 SWAP1 POP JUMP JUMPDEST PUSH2 0xA05 DUP2 PUSH2 0x1375 JUMP JUMPDEST PUSH2 0xA44 JUMPI PUSH1 0x40 MLOAD PUSH32 0x8C379A000000000000000000000000000000000000000000000000000000000 DUP2 MSTORE PUSH1 0x4 ADD PUSH2 0xA3B SWAP1 PUSH2 0x2407 JUMP JUMPDEST PUSH1 0x40 MLOAD DUP1 SWAP2 SUB SWAP1 REVERT JUMPDEST POP JUMP JUMPDEST PUSH1 0x0 CALLER SWAP1 POP SWAP1 JUMP JUMPDEST DUP2 PUSH1 0x4 PUSH1 0x0 DUP4 DUP2 MSTORE PUSH1 0x20 ADD SWAP1 DUP2 MSTORE PUSH1 0x20 ADD PUSH1 0x0 KECCAK256 PUSH1 0x0 PUSH2 0x100 EXP DUP2 SLOAD DUP2 PUSH20 0xFFFFFFFFFFFFFFFFFFFFFFFFFFFFFFFFFFFFFFFF MUL NOT AND SWAP1 DUP4 PUSH20 0xFFFFFFFFFFFFFFFFFFFFFFFFFFFFFFFFFFFFFFFF AND MUL OR SWAP1 SSTORE POP DUP1 DUP3 PUSH20 0xFFFFFFFFFFFFFFFFFFFFFFFFFFFFFFFFFFFFFFFF AND PUSH2 0xAC2 DUP4 PUSH2 0x59D JUMP JUMPDEST PUSH20 0xFFFFFFFFFFFFFFFFFFFFFFFFFFFFFFFFFFFFFFFF AND PUSH32 0x8C5BE1E5EBEC7D5BD14F71427D1E84F3DD0314C0F7B2291E5B200AC8C7C3B925 PUSH1 0x40 MLOAD PUSH1 0x40 MLOAD DUP1 SWAP2 SUB SWAP1 LOG4 POP POP JUMP JUMPDEST PUSH1 0x0 DUP1 PUSH2 0xB14 DUP4 PUSH2 0x59D JUMP JUMPDEST SWAP1 POP DUP1 PUSH20 0xFFFFFFFFFFFFFFFFFFFFFFFFFFFFFFFFFFFFFFFF AND DUP5 PUSH20 0xFFFFFFFFFFFFFFFFFFFFFFFFFFFFFFFFFFFFFFFF AND EQ DUP1 PUSH2 0xB56 JUMPI POP PUSH2 0xB55 DUP2 DUP6 PUSH2 0x907 JUMP JUMPDEST JUMPDEST DUP1 PUSH2 0xB94 JUMPI POP DUP4 PUSH20 0xFFFFFFFFFFFFFFFFFFFFFFFFFFFFFFFFFFFFFFFF AND PUSH2 0xB7C DUP5 PUSH2 0x3C0 JUMP JUMPDEST PUSH20 0xFFFFFFFFFFFFFFFFFFFFFFFFFFFFFFFFFFFFFFFF AND EQ JUMPDEST SWAP2 POP POP SWAP3 SWAP2 POP POP JUMP JUMPDEST DUP3 PUSH20 0xFFFFFFFFFFFFFFFFFFFFFFFFFFFFFFFFFFFFFFFF AND PUSH2 0xBBD DUP3 PUSH2 0x59D JUMP JUMPDEST PUSH20 0xFFFFFFFFFFFFFFFFFFFFFFFFFFFFFFFFFFFFFFFF AND EQ PUSH2 0xC13 JUMPI PUSH1 0x40 MLOAD PUSH32 0x8C379A000000000000000000000000000000000000000000000000000000000 DUP2 MSTORE PUSH1 0x4 ADD PUSH2 0xC0A SWAP1 PUSH2 0x2629 JUMP JUMPDEST PUSH1 0x40 MLOAD DUP1 SWAP2 SUB SWAP1 REVERT JUMPDEST PUSH1 0x0 PUSH20 0xFFFFFFFFFFFFFFFFFFFFFFFFFFFFFFFFFFFFFFFF AND DUP3 PUSH20 0xFFFFFFFFFFFFFFFFFFFFFFFFFFFFFFFFFFFFFFFF AND SUB PUSH2 0xC82 JUMPI PUSH1 0x40 MLOAD PUSH32 0x8C379A000000000000000000000000000000000000000000000000000000000 DUP2 MSTORE PUSH1 0x4 ADD PUSH2 0xC79 SWAP1 PUSH2 0x26BB JUMP JUMPDEST PUSH1 0x40 MLOAD DUP1 SWAP2 SUB SWAP1 REVERT JUMPDEST PUSH2 0xC8F DUP4 DUP4 DUP4 PUSH1 0x1 PUSH2 0x13B6 JUMP JUMPDEST DUP3 PUSH20 0xFFFFFFFFFFFFFFFFFFFFFFFFFFFFFFFFFFFFFFFF AND PUSH2 0xCAF DUP3 PUSH2 0x59D JUMP JUMPDEST PUSH20 0xFFFFFFFFFFFFFFFFFFFFFFFFFFFFFFFFFFFFFFFF AND EQ PUSH2 0xD05 JUMPI PUSH1 0x40 MLOAD PUSH32 0x8C379A000000000000000000000000000000000000000000000000000000000 DUP2 MSTORE PUSH1 0x4 ADD PUSH2 0xCFC SWAP1 PUSH2 0x2629 JUMP JUMPDEST PUSH1 0x40 MLOAD DUP1 SWAP2 SUB SWAP1 REVERT JUMPDEST PUSH1 0x4 PUSH1 0x0 DUP3 DUP2 MSTORE PUSH1 0x20 ADD SWAP1 DUP2 MSTORE PUSH1 0x20 ADD PUSH1 0x0 KECCAK256 PUSH1 0x0 PUSH2 0x100 EXP DUP2 SLOAD SWAP1 PUSH20 0xFFFFFFFFFFFFFFFFFFFFFFFFFFFFFFFFFFFFFFFF MUL NOT AND SWAP1 SSTORE PUSH1 0x1 PUSH1 0x3 PUSH1 0x0 DUP6 PUSH20 0xFFFFFFFFFFFFFFFFFFFFFFFFFFFFFFFFFFFFFFFF AND PUSH20 0xFFFFFFFFFFFFFFFFFFFFFFFFFFFFFFFFFFFFFFFF AND DUP2 MSTORE PUSH1 0x20 ADD SWAP1 DUP2 MSTORE PUSH1 0x20 ADD PUSH1 0x0 KECCAK256 PUSH1 0x0 DUP3 DUP3 SLOAD SUB SWAP3 POP POP DUP2 SWAP1 SSTORE POP PUSH1 0x1 PUSH1 0x3 PUSH1 0x0 DUP5 PUSH20 0xFFFFFFFFFFFFFFFFFFFFFFFFFFFFFFFFFFFFFFFF AND PUSH20 0xFFFFFFFFFFFFFFFFFFFFFFFFFFFFFFFFFFFFFFFF AND DUP2 MSTORE PUSH1 0x20 ADD SWAP1 DUP2 MSTORE PUSH1 0x20 ADD PUSH1 0x0 KECCAK256 PUSH1 0x0 DUP3 DUP3 SLOAD ADD SWAP3 POP POP DUP2 SWAP1 SSTORE POP DUP2 PUSH1 0x2 PUSH1 0x0 DUP4 DUP2 MSTORE PUSH1 0x20 ADD SWAP1 DUP2 MSTORE PUSH1 0x20 ADD PUSH1 0x0 KECCAK256 PUSH1 0x0 PUSH2 0x100 EXP DUP2 SLOAD DUP2 PUSH20 0xFFFFFFFFFFFFFFFFFFFFFFFFFFFFFFFFFFFFFFFF MUL NOT AND SWAP1 DUP4 PUSH20 0xFFFFFFFFFFFFFFFFFFFFFFFFFFFFFFFFFFFFFFFF AND MUL OR SWAP1 SSTORE POP DUP1 DUP3 PUSH20 0xFFFFFFFFFFFFFFFFFFFFFFFFFFFFFFFFFFFFFFFF AND DUP5 PUSH20 0xFFFFFFFFFFFFFFFFFFFFFFFFFFFFFFFFFFFFFFFF AND PUSH32 0xDDF252AD1BE2C89B69C2B068FC378DAA952BA7F163C4A11628F55A4DF523B3EF PUSH1 0x40 MLOAD PUSH1 0x40 MLOAD DUP1 SWAP2 SUB SWAP1 LOG4 PUSH2 0xE91 DUP4 DUP4 DUP4 PUSH1 0x1 PUSH2 0x13BC JUMP JUMPDEST POP POP POP JUMP JUMPDEST PUSH1 0x0 PUSH1 0x2 PUSH1 0x0 DUP4 DUP2 MSTORE PUSH1 0x20 ADD SWAP1 DUP2 MSTORE PUSH1 0x20 ADD PUSH1 0x0 KECCAK256 PUSH1 0x0 SWAP1 SLOAD SWAP1 PUSH2 0x100 EXP SWAP1 DIV PUSH20 0xFFFFFFFFFFFFFFFFFFFFFFFFFFFFFFFFFFFFFFFF AND SWAP1 POP SWAP2 SWAP1 POP JUMP JUMPDEST DUP2 PUSH20 0xFFFFFFFFFFFFFFFFFFFFFFFFFFFFFFFFFFFFFFFF AND DUP4 PUSH20 0xFFFFFFFFFFFFFFFFFFFFFFFFFFFFFFFFFFFFFFFF AND SUB PUSH2 0xF41 JUMPI PUSH1 0x40 MLOAD PUSH32 0x8C379A000000000000000000000000000000000000000000000000000000000 DUP2 MSTORE PUSH1 0x4 ADD PUSH2 0xF38 SWAP1 PUSH2 0x2727 JUMP JUMPDEST PUSH1 0x40 MLOAD DUP1 SWAP2 SUB SWAP1 REVERT JUMPDEST DUP1 PUSH1 0x5 PUSH1 0x0 DUP6 PUSH20 0xFFFFFFFFFFFFFFFFFFFFFFFFFFFFFFFFFFFFFFFF AND PUSH20 0xFFFFFFFFFFFFFFFFFFFFFFFFFFFFFFFFFFFFFFFF AND DUP2 MSTORE PUSH1 0x20 ADD SWAP1 DUP2 MSTORE PUSH1 0x20 ADD PUSH1 0x0 KECCAK256 PUSH1 0x0 DUP5 PUSH20 0xFFFFFFFFFFFFFFFFFFFFFFFFFFFFFFFFFFFFFFFF AND PUSH20 0xFFFFFFFFFFFFFFFFFFFFFFFFFFFFFFFFFFFFFFFF AND DUP2 MSTORE PUSH1 0x20 ADD SWAP1 DUP2 MSTORE PUSH1 0x20 ADD PUSH1 0x0 KECCAK256 PUSH1 0x0 PUSH2 0x100 EXP DUP2 SLOAD DUP2 PUSH1 0xFF MUL NOT AND SWAP1 DUP4 ISZERO ISZERO MUL OR SWAP1 SSTORE POP DUP2 PUSH20 0xFFFFFFFFFFFFFFFFFFFFFFFFFFFFFFFFFFFFFFFF AND DUP4 PUSH20 0xFFFFFFFFFFFFFFFFFFFFFFFFFFFFFFFFFFFFFFFF AND PUSH32 0x17307EAB39AB6107E8899845AD3D59BD9653F200F220920489CA2B5937696C31 DUP4 PUSH1 0x40 MLOAD PUSH2 0x1032 SWAP2 SWAP1 PUSH2 0x1BA2 JUMP JUMPDEST PUSH1 0x40 MLOAD DUP1 SWAP2 SUB SWAP1 LOG3 POP POP POP JUMP JUMPDEST PUSH2 0x104A DUP5 DUP5 DUP5 PUSH2 0xB9D JUMP JUMPDEST PUSH2 0x1056 DUP5 DUP5 DUP5 DUP5 PUSH2 0x13C2 JUMP JUMPDEST PUSH2 0x1095 JUMPI PUSH1 0x40 MLOAD PUSH32 0x8C379A000000000000000000000000000000000000000000000000000000000 DUP2 MSTORE PUSH1 0x4 ADD PUSH2 0x108C SWAP1 PUSH2 0x27B9 JUMP JUMPDEST PUSH1 0x40 MLOAD DUP1 SWAP2 SUB SWAP1 REVERT JUMPDEST POP POP POP POP JUMP JUMPDEST PUSH1 0x60 PUSH2 0x10A6 DUP3 PUSH2 0x9FC JUMP JUMPDEST PUSH1 0x0 PUSH1 0x6 PUSH1 0x0 DUP5 DUP2 MSTORE PUSH1 0x20 ADD SWAP1 DUP2 MSTORE PUSH1 0x20 ADD PUSH1 0x0 KECCAK256 DUP1 SLOAD PUSH2 0x10C6 SWAP1 PUSH2 0x21D4 JUMP JUMPDEST DUP1 PUSH1 0x1F ADD PUSH1 0x20 DUP1 SWAP2 DIV MUL PUSH1 0x20 ADD PUSH1 0x40 MLOAD SWAP1 DUP2 ADD PUSH1 0x40 MSTORE DUP1 SWAP3 SWAP2 SWAP1 DUP2 DUP2 MSTORE PUSH1 0x20 ADD DUP3 DUP1 SLOAD PUSH2 0x10F2 SWAP1 PUSH2 0x21D4 JUMP JUMPDEST DUP1 ISZERO PUSH2 0x113F JUMPI DUP1 PUSH1 0x1F LT PUSH2 0x1114 JUMPI PUSH2 0x100 DUP1 DUP4 SLOAD DIV MUL DUP4 MSTORE SWAP2 PUSH1 0x20 ADD SWAP2 PUSH2 0x113F JUMP JUMPDEST DUP3 ADD SWAP2 SWAP1 PUSH1 0x0 MSTORE PUSH1 0x20 PUSH1 0x0 KECCAK256 SWAP1 JUMPDEST DUP2 SLOAD DUP2 MSTORE SWAP1 PUSH1 0x1 ADD SWAP1 PUSH1 0x20 ADD DUP1 DUP4 GT PUSH2 0x1122 JUMPI DUP3 SWAP1 SUB PUSH1 0x1F AND DUP3 ADD SWAP2 JUMPDEST POP POP POP POP POP SWAP1 POP PUSH1 0x0 PUSH2 0x1150 PUSH2 0x1549 JUMP JUMPDEST SWAP1 POP PUSH1 0x0 DUP2 MLOAD SUB PUSH2 0x1165 JUMPI DUP2 SWAP3 POP POP POP PUSH2 0x11A8 JUMP JUMPDEST PUSH1 0x0 DUP3 MLOAD GT ISZERO PUSH2 0x119A JUMPI DUP1 DUP3 PUSH1 0x40 MLOAD PUSH1 0x20 ADD PUSH2 0x1182 SWAP3 SWAP2 SWAP1 PUSH2 0x2815 JUMP JUMPDEST PUSH1 0x40 MLOAD PUSH1 0x20 DUP2 DUP4 SUB SUB DUP2 MSTORE SWAP1 PUSH1 0x40 MSTORE SWAP3 POP POP POP PUSH2 0x11A8 JUMP JUMPDEST PUSH2 0x11A3 DUP5 PUSH2 0x1560 JUMP JUMPDEST SWAP3 POP POP POP JUMPDEST SWAP2 SWAP1 POP JUMP JUMPDEST PUSH1 0x1 DUP2 PUSH1 0x0 ADD PUSH1 0x0 DUP3 DUP3 SLOAD ADD SWAP3 POP POP DUP2 SWAP1 SSTORE POP POP JUMP JUMPDEST PUSH1 0x0 DUP2 PUSH1 0x0 ADD SLOAD SWAP1 POP SWAP2 SWAP1 POP JUMP JUMPDEST PUSH2 0x11EB DUP3 DUP3 PUSH1 0x40 MLOAD DUP1 PUSH1 0x20 ADD PUSH1 0x40 MSTORE DUP1 PUSH1 0x0 DUP2 MSTORE POP PUSH2 0x15C8 JUMP JUMPDEST POP POP JUMP JUMPDEST PUSH2 0x11F8 DUP3 PUSH2 0x1375 JUMP JUMPDEST PUSH2 0x1237 JUMPI PUSH1 0x40 MLOAD PUSH32 0x8C379A000000000000000000000000000000000000000000000000000000000 DUP2 MSTORE PUSH1 0x4 ADD PUSH2 0x122E SWAP1 PUSH2 0x28AB JUMP JUMPDEST PUSH1 0x40 MLOAD DUP1 SWAP2 SUB SWAP1 REVERT JUMPDEST DUP1 PUSH1 0x6 PUSH1 0x0 DUP5 DUP2 MSTORE PUSH1 0x20 ADD SWAP1 DUP2 MSTORE PUSH1 0x20 ADD PUSH1 0x0 KECCAK256 SWAP1 DUP2 PUSH2 0x1257 SWAP2 SWAP1 PUSH2 0x2A77 JUMP JUMPDEST POP PUSH32 0xF8E1A15ABA9398E019F0B49DF1A4FDE98EE17AE345CB5F6B5E2C27F5033E8CE7 DUP3 PUSH1 0x40 MLOAD PUSH2 0x1287 SWAP2 SWAP1 PUSH2 0x1E29 JUMP JUMPDEST PUSH1 0x40 MLOAD DUP1 SWAP2 SUB SWAP1 LOG1 POP POP JUMP JUMPDEST PUSH1 0x0 PUSH32 0x80AC58CD00000000000000000000000000000000000000000000000000000000 PUSH28 0xFFFFFFFFFFFFFFFFFFFFFFFFFFFFFFFFFFFFFFFFFFFFFFFFFFFFFFFF NOT AND DUP3 PUSH28 0xFFFFFFFFFFFFFFFFFFFFFFFFFFFFFFFFFFFFFFFFFFFFFFFFFFFFFFFF NOT AND EQ DUP1 PUSH2 0x135E JUMPI POP PUSH32 0x5B5E139F00000000000000000000000000000000000000000000000000000000 PUSH28 0xFFFFFFFFFFFFFFFFFFFFFFFFFFFFFFFFFFFFFFFFFFFFFFFFFFFFFFFF NOT AND DUP3 PUSH28 0xFFFFFFFFFFFFFFFFFFFFFFFFFFFFFFFFFFFFFFFFFFFFFFFFFFFFFFFF NOT AND EQ JUMPDEST DUP1 PUSH2 0x136E JUMPI POP PUSH2 0x136D DUP3 PUSH2 0x1623 JUMP JUMPDEST JUMPDEST SWAP1 POP SWAP2 SWAP1 POP JUMP JUMPDEST PUSH1 0x0 DUP1 PUSH20 0xFFFFFFFFFFFFFFFFFFFFFFFFFFFFFFFFFFFFFFFF AND PUSH2 0x1397 DUP4 PUSH2 0xE96 JUMP JUMPDEST PUSH20 0xFFFFFFFFFFFFFFFFFFFFFFFFFFFFFFFFFFFFFFFF AND EQ ISZERO SWAP1 POP SWAP2 SWAP1 POP JUMP JUMPDEST POP POP POP POP JUMP JUMPDEST POP POP POP POP JUMP JUMPDEST PUSH1 0x0 PUSH2 0x13E3 DUP5 PUSH20 0xFFFFFFFFFFFFFFFFFFFFFFFFFFFFFFFFFFFFFFFF AND PUSH2 0x168D JUMP JUMPDEST ISZERO PUSH2 0x153C JUMPI DUP4 PUSH20 0xFFFFFFFFFFFFFFFFFFFFFFFFFFFFFFFFFFFFFFFF AND PUSH4 0x150B7A02 PUSH2 0x140C PUSH2 0xA47 JUMP JUMPDEST DUP8 DUP7 DUP7 PUSH1 0x40 MLOAD DUP6 PUSH4 0xFFFFFFFF AND PUSH1 0xE0 SHL DUP2 MSTORE PUSH1 0x4 ADD PUSH2 0x142E SWAP5 SWAP4 SWAP3 SWAP2 SWAP1 PUSH2 0x2B9E JUMP JUMPDEST PUSH1 0x20 PUSH1 0x40 MLOAD DUP1 DUP4 SUB DUP2 PUSH1 0x0 DUP8 GAS CALL SWAP3 POP POP POP DUP1 ISZERO PUSH2 0x146A JUMPI POP PUSH1 0x40 MLOAD RETURNDATASIZE PUSH1 0x1F NOT PUSH1 0x1F DUP3 ADD AND DUP3 ADD DUP1 PUSH1 0x40 MSTORE POP DUP2 ADD SWAP1 PUSH2 0x1467 SWAP2 SWAP1 PUSH2 0x2BFF JUMP JUMPDEST PUSH1 0x1 JUMPDEST PUSH2 0x14EC JUMPI RETURNDATASIZE DUP1 PUSH1 0x0 DUP2 EQ PUSH2 0x149A JUMPI PUSH1 0x40 MLOAD SWAP2 POP PUSH1 0x1F NOT PUSH1 0x3F RETURNDATASIZE ADD AND DUP3 ADD PUSH1 0x40 MSTORE RETURNDATASIZE DUP3 MSTORE RETURNDATASIZE PUSH1 0x0 PUSH1 0x20 DUP5 ADD RETURNDATACOPY PUSH2 0x149F JUMP JUMPDEST PUSH1 0x60 SWAP2 POP JUMPDEST POP PUSH1 0x0 DUP2 MLOAD SUB PUSH2 0x14E4 JUMPI PUSH1 0x40 MLOAD PUSH32 0x8C379A000000000000000000000000000000000000000000000000000000000 DUP2 MSTORE PUSH1 0x4 ADD PUSH2 0x14DB SWAP1 PUSH2 0x27B9 JUMP JUMPDEST PUSH1 0x40 MLOAD DUP1 SWAP2 SUB SWAP1 REVERT JUMPDEST DUP1 MLOAD DUP2 PUSH1 0x20 ADD REVERT JUMPDEST PUSH4 0x150B7A02 PUSH1 0xE0 SHL PUSH28 0xFFFFFFFFFFFFFFFFFFFFFFFFFFFFFFFFFFFFFFFFFFFFFFFFFFFFFFFF NOT AND DUP2 PUSH28 0xFFFFFFFFFFFFFFFFFFFFFFFFFFFFFFFFFFFFFFFFFFFFFFFFFFFFFFFF NOT AND EQ SWAP2 POP POP PUSH2 0x1541 JUMP JUMPDEST PUSH1 0x1 SWAP1 POP JUMPDEST SWAP5 SWAP4 POP POP POP POP JUMP JUMPDEST PUSH1 0x60 PUSH1 0x40 MLOAD DUP1 PUSH1 0x20 ADD PUSH1 0x40 MSTORE DUP1 PUSH1 0x0 DUP2 MSTORE POP SWAP1 POP SWAP1 JUMP JUMPDEST PUSH1 0x60 PUSH2 0x156B DUP3 PUSH2 0x9FC JUMP JUMPDEST PUSH1 0x0 PUSH2 0x1575 PUSH2 0x1549 JUMP JUMPDEST SWAP1 POP PUSH1 0x0 DUP2 MLOAD GT PUSH2 0x1595 JUMPI PUSH1 0x40 MLOAD DUP1 PUSH1 0x20 ADD PUSH1 0x40 MSTORE DUP1 PUSH1 0x0 DUP2 MSTORE POP PUSH2 0x15C0 JUMP JUMPDEST DUP1 PUSH2 0x159F DUP5 PUSH2 0x16B0 JUMP JUMPDEST PUSH1 0x40 MLOAD PUSH1 0x20 ADD PUSH2 0x15B0 SWAP3 SWAP2 SWAP1 PUSH2 0x2815 JUMP JUMPDEST PUSH1 0x40 MLOAD PUSH1 0x20 DUP2 DUP4 SUB SUB DUP2 MSTORE SWAP1 PUSH1 0x40 MSTORE JUMPDEST SWAP2 POP POP SWAP2 SWAP1 POP JUMP JUMPDEST PUSH2 0x15D2 DUP4 DUP4 PUSH2 0x177E JUMP JUMPDEST PUSH2 0x15DF PUSH1 0x0 DUP5 DUP5 DUP5 PUSH2 0x13C2 JUMP JUMPDEST PUSH2 0x161E JUMPI PUSH1 0x40 MLOAD PUSH32 0x8C379A000000000000000000000000000000000000000000000000000000000 DUP2 MSTORE PUSH1 0x4 ADD PUSH2 0x1615 SWAP1 PUSH2 0x27B9 JUMP JUMPDEST PUSH1 0x40 MLOAD DUP1 SWAP2 SUB SWAP1 REVERT JUMPDEST POP POP POP JUMP JUMPDEST PUSH1 0x0 PUSH32 0x1FFC9A700000000000000000000000000000000000000000000000000000000 PUSH28 0xFFFFFFFFFFFFFFFFFFFFFFFFFFFFFFFFFFFFFFFFFFFFFFFFFFFFFFFF NOT AND DUP3 PUSH28 0xFFFFFFFFFFFFFFFFFFFFFFFFFFFFFFFFFFFFFFFFFFFFFFFFFFFFFFFF NOT AND EQ SWAP1 POP SWAP2 SWAP1 POP JUMP JUMPDEST PUSH1 0x0 DUP1 DUP3 PUSH20 0xFFFFFFFFFFFFFFFFFFFFFFFFFFFFFFFFFFFFFFFF AND EXTCODESIZE GT SWAP1 POP SWAP2 SWAP1 POP JUMP JUMPDEST PUSH1 0x60 PUSH1 0x0 PUSH1 0x1 PUSH2 0x16BF DUP5 PUSH2 0x199B JUMP JUMPDEST ADD SWAP1 POP PUSH1 0x0 DUP2 PUSH8 0xFFFFFFFFFFFFFFFF DUP2 GT ISZERO PUSH2 0x16DE JUMPI PUSH2 0x16DD PUSH2 0x1EBA JUMP JUMPDEST JUMPDEST PUSH1 0x40 MLOAD SWAP1 DUP1 DUP3 MSTORE DUP1 PUSH1 0x1F ADD PUSH1 0x1F NOT AND PUSH1 0x20 ADD DUP3 ADD PUSH1 0x40 MSTORE DUP1 ISZERO PUSH2 0x1710 JUMPI DUP2 PUSH1 0x20 ADD PUSH1 0x1 DUP3 MUL DUP1 CALLDATASIZE DUP4 CALLDATACOPY DUP1 DUP3 ADD SWAP2 POP POP SWAP1 POP JUMPDEST POP SWAP1 POP PUSH1 0x0 DUP3 PUSH1 0x20 ADD DUP3 ADD SWAP1 POP JUMPDEST PUSH1 0x1 ISZERO PUSH2 0x1773 JUMPI DUP1 DUP1 PUSH1 0x1 SWAP1 SUB SWAP2 POP POP PUSH32 0x3031323334353637383961626364656600000000000000000000000000000000 PUSH1 0xA DUP7 MOD BYTE DUP2 MSTORE8 PUSH1 0xA DUP6 DUP2 PUSH2 0x1767 JUMPI PUSH2 0x1766 PUSH2 0x2C2C JUMP JUMPDEST JUMPDEST DIV SWAP5 POP PUSH1 0x0 DUP6 SUB PUSH2 0x171E JUMPI JUMPDEST DUP2 SWAP4 POP POP POP POP SWAP2 SWAP1 POP JUMP JUMPDEST PUSH1 0x0 PUSH20 0xFFFFFFFFFFFFFFFFFFFFFFFFFFFFFFFFFFFFFFFF AND DUP3 PUSH20 0xFFFFFFFFFFFFFFFFFFFFFFFFFFFFFFFFFFFFFFFF AND SUB PUSH2 0x17ED JUMPI PUSH1 0x40 MLOAD PUSH32 0x8C379A000000000000000000000000000000000000000000000000000000000 DUP2 MSTORE PUSH1 0x4 ADD PUSH2 0x17E4 SWAP1 PUSH2 0x2CA7 JUMP JUMPDEST PUSH1 0x40 MLOAD DUP1 SWAP2 SUB SWAP1 REVERT JUMPDEST PUSH2 0x17F6 DUP2 PUSH2 0x1375 JUMP JUMPDEST ISZERO PUSH2 0x1836 JUMPI PUSH1 0x40 MLOAD PUSH32 0x8C379A000000000000000000000000000000000000000000000000000000000 DUP2 MSTORE PUSH1 0x4 ADD PUSH2 0x182D SWAP1 PUSH2 0x2D13 JUMP JUMPDEST PUSH1 0x40 MLOAD DUP1 SWAP2 SUB SWAP1 REVERT JUMPDEST PUSH2 0x1844 PUSH1 0x0 DUP4 DUP4 PUSH1 0x1 PUSH2 0x13B6 JUMP JUMPDEST PUSH2 0x184D DUP2 PUSH2 0x1375 JUMP JUMPDEST ISZERO PUSH2 0x188D JUMPI PUSH1 0x40 MLOAD PUSH32 0x8C379A000000000000000000000000000000000000000000000000000000000 DUP2 MSTORE PUSH1 0x4 ADD PUSH2 0x1884 SWAP1 PUSH2 0x2D13 JUMP JUMPDEST PUSH1 0x40 MLOAD DUP1 SWAP2 SUB SWAP1 REVERT JUMPDEST PUSH1 0x1 PUSH1 0x3 PUSH1 0x0 DUP5 PUSH20 0xFFFFFFFFFFFFFFFFFFFFFFFFFFFFFFFFFFFFFFFF AND PUSH20 0xFFFFFFFFFFFFFFFFFFFFFFFFFFFFFFFFFFFFFFFF AND DUP2 MSTORE PUSH1 0x20 ADD SWAP1 DUP2 MSTORE PUSH1 0x20 ADD PUSH1 0x0 KECCAK256 PUSH1 0x0 DUP3 DUP3 SLOAD ADD SWAP3 POP POP DUP2 SWAP1 SSTORE POP DUP2 PUSH1 0x2 PUSH1 0x0 DUP4 DUP2 MSTORE PUSH1 0x20 ADD SWAP1 DUP2 MSTORE PUSH1 0x20 ADD PUSH1 0x0 KECCAK256 PUSH1 0x0 PUSH2 0x100 EXP DUP2 SLOAD DUP2 PUSH20 0xFFFFFFFFFFFFFFFFFFFFFFFFFFFFFFFFFFFFFFFF MUL NOT AND SWAP1 DUP4 PUSH20 0xFFFFFFFFFFFFFFFFFFFFFFFFFFFFFFFFFFFFFFFF AND MUL OR SWAP1 SSTORE POP DUP1 DUP3 PUSH20 0xFFFFFFFFFFFFFFFFFFFFFFFFFFFFFFFFFFFFFFFF AND PUSH1 0x0 PUSH20 0xFFFFFFFFFFFFFFFFFFFFFFFFFFFFFFFFFFFFFFFF AND PUSH32 0xDDF252AD1BE2C89B69C2B068FC378DAA952BA7F163C4A11628F55A4DF523B3EF PUSH1 0x40 MLOAD PUSH1 0x40 MLOAD DUP1 SWAP2 SUB SWAP1 LOG4 PUSH2 0x1997 PUSH1 0x0 DUP4 DUP4 PUSH1 0x1 PUSH2 0x13BC JUMP JUMPDEST POP POP JUMP JUMPDEST PUSH1 0x0 DUP1 PUSH1 0x0 SWAP1 POP PUSH27 0x184F03E93FF9F4DAA797ED6E38ED64BF6A1F010000000000000000 DUP4 LT PUSH2 0x19F9 JUMPI PUSH27 0x184F03E93FF9F4DAA797ED6E38ED64BF6A1F010000000000000000 DUP4 DUP2 PUSH2 0x19EF JUMPI PUSH2 0x19EE PUSH2 0x2C2C JUMP JUMPDEST JUMPDEST DIV SWAP3 POP PUSH1 0x40 DUP2 ADD SWAP1 POP JUMPDEST PUSH14 0x4EE2D6D415B85ACEF8100000000 DUP4 LT PUSH2 0x1A36 JUMPI PUSH14 0x4EE2D6D415B85ACEF8100000000 DUP4 DUP2 PUSH2 0x1A2C JUMPI PUSH2 0x1A2B PUSH2 0x2C2C JUMP JUMPDEST JUMPDEST DIV SWAP3 POP PUSH1 0x20 DUP2 ADD SWAP1 POP JUMPDEST PUSH7 0x2386F26FC10000 DUP4 LT PUSH2 0x1A65 JUMPI PUSH7 0x2386F26FC10000 DUP4 DUP2 PUSH2 0x1A5B JUMPI PUSH2 0x1A5A PUSH2 0x2C2C JUMP JUMPDEST JUMPDEST DIV SWAP3 POP PUSH1 0x10 DUP2 ADD SWAP1 POP JUMPDEST PUSH4 0x5F5E100 DUP4 LT PUSH2 0x1A8E JUMPI PUSH4 0x5F5E100 DUP4 DUP2 PUSH2 0x1A84 JUMPI PUSH2 0x1A83 PUSH2 0x2C2C JUMP JUMPDEST JUMPDEST DIV SWAP3 POP PUSH1 0x8 DUP2 ADD SWAP1 POP JUMPDEST PUSH2 0x2710 DUP4 LT PUSH2 0x1AB3 JUMPI PUSH2 0x2710 DUP4 DUP2 PUSH2 0x1AA9 JUMPI PUSH2 0x1AA8 PUSH2 0x2C2C JUMP JUMPDEST JUMPDEST DIV SWAP3 POP PUSH1 0x4 DUP2 ADD SWAP1 POP JUMPDEST PUSH1 0x64 DUP4 LT PUSH2 0x1AD6 JUMPI PUSH1 0x64 DUP4 DUP2 PUSH2 0x1ACC JUMPI PUSH2 0x1ACB PUSH2 0x2C2C JUMP JUMPDEST JUMPDEST DIV SWAP3 POP PUSH1 0x2 DUP2 ADD SWAP1 POP JUMPDEST PUSH1 0xA DUP4 LT PUSH2 0x1AE5 JUMPI PUSH1 0x1 DUP2 ADD SWAP1 POP JUMPDEST DUP1 SWAP2 POP POP SWAP2 SWAP1 POP JUMP JUMPDEST PUSH1 0x0 PUSH1 0x40 MLOAD SWAP1 POP SWAP1 JUMP JUMPDEST PUSH1 0x0 DUP1 REVERT JUMPDEST PUSH1 0x0 DUP1 REVERT JUMPDEST PUSH1 0x0 PUSH32 0xFFFFFFFF00000000000000000000000000000000000000000000000000000000 DUP3 AND SWAP1 POP SWAP2 SWAP1 POP JUMP JUMPDEST PUSH2 0x1B37 DUP2 PUSH2 0x1B02 JUMP JUMPDEST DUP2 EQ PUSH2 0x1B42 JUMPI PUSH1 0x0 DUP1 REVERT JUMPDEST POP JUMP JUMPDEST PUSH1 0x0 DUP2 CALLDATALOAD SWAP1 POP PUSH2 0x1B54 DUP2 PUSH2 0x1B2E JUMP JUMPDEST SWAP3 SWAP2 POP POP JUMP JUMPDEST PUSH1 0x0 PUSH1 0x20 DUP3 DUP5 SUB SLT ISZERO PUSH2 0x1B70 JUMPI PUSH2 0x1B6F PUSH2 0x1AF8 JUMP JUMPDEST JUMPDEST PUSH1 0x0 PUSH2 0x1B7E DUP5 DUP3 DUP6 ADD PUSH2 0x1B45 JUMP JUMPDEST SWAP2 POP POP SWAP3 SWAP2 POP POP JUMP JUMPDEST PUSH1 0x0 DUP2 ISZERO ISZERO SWAP1 POP SWAP2 SWAP1 POP JUMP JUMPDEST PUSH2 0x1B9C DUP2 PUSH2 0x1B87 JUMP JUMPDEST DUP3 MSTORE POP POP JUMP JUMPDEST PUSH1 0x0 PUSH1 0x20 DUP3 ADD SWAP1 POP PUSH2 0x1BB7 PUSH1 0x0 DUP4 ADD DUP5 PUSH2 0x1B93 JUMP JUMPDEST SWAP3 SWAP2 POP POP JUMP JUMPDEST PUSH1 0x0 DUP2 MLOAD SWAP1 POP SWAP2 SWAP1 POP JUMP JUMPDEST PUSH1 0x0 DUP3 DUP3 MSTORE PUSH1 0x20 DUP3 ADD SWAP1 POP SWAP3 SWAP2 POP POP JUMP JUMPDEST PUSH1 0x0 JUMPDEST DUP4 DUP2 LT ISZERO PUSH2 0x1BF7 JUMPI DUP1 DUP3 ADD MLOAD DUP2 DUP5 ADD MSTORE PUSH1 0x20 DUP2 ADD SWAP1 POP PUSH2 0x1BDC JUMP JUMPDEST PUSH1 0x0 DUP5 DUP5 ADD MSTORE POP POP POP POP JUMP JUMPDEST PUSH1 0x0 PUSH1 0x1F NOT PUSH1 0x1F DUP4 ADD AND SWAP1 POP SWAP2 SWAP1 POP JUMP JUMPDEST PUSH1 0x0 PUSH2 0x1C1F DUP3 PUSH2 0x1BBD JUMP JUMPDEST PUSH2 0x1C29 DUP2 DUP6 PUSH2 0x1BC8 JUMP JUMPDEST SWAP4 POP PUSH2 0x1C39 DUP2 DUP6 PUSH1 0x20 DUP7 ADD PUSH2 0x1BD9 JUMP JUMPDEST PUSH2 0x1C42 DUP2 PUSH2 0x1C03 JUMP JUMPDEST DUP5 ADD SWAP2 POP POP SWAP3 SWAP2 POP POP JUMP JUMPDEST PUSH1 0x0 PUSH1 0x20 DUP3 ADD SWAP1 POP DUP2 DUP2 SUB PUSH1 0x0 DUP4 ADD MSTORE PUSH2 0x1C67 DUP2 DUP5 PUSH2 0x1C14 JUMP JUMPDEST SWAP1 POP SWAP3 SWAP2 POP POP JUMP JUMPDEST PUSH1 0x0 DUP2 SWAP1 POP SWAP2 SWAP1 POP JUMP JUMPDEST PUSH2 0x1C82 DUP2 PUSH2 0x1C6F JUMP JUMPDEST DUP2 EQ PUSH2 0x1C8D JUMPI PUSH1 0x0 DUP1 REVERT JUMPDEST POP JUMP JUMPDEST PUSH1 0x0 DUP2 CALLDATALOAD SWAP1 POP PUSH2 0x1C9F DUP2 PUSH2 0x1C79 JUMP JUMPDEST SWAP3 SWAP2 POP POP JUMP JUMPDEST PUSH1 0x0 PUSH1 0x20 DUP3 DUP5 SUB SLT ISZERO PUSH2 0x1CBB JUMPI PUSH2 0x1CBA PUSH2 0x1AF8 JUMP JUMPDEST JUMPDEST PUSH1 0x0 PUSH2 0x1CC9 DUP5 DUP3 DUP6 ADD PUSH2 0x1C90 JUMP JUMPDEST SWAP2 POP POP SWAP3 SWAP2 POP POP JUMP JUMPDEST PUSH1 0x0 PUSH20 0xFFFFFFFFFFFFFFFFFFFFFFFFFFFFFFFFFFFFFFFF DUP3 AND SWAP1 POP SWAP2 SWAP1 POP JUMP JUMPDEST PUSH1 0x0 PUSH2 0x1CFD DUP3 PUSH2 0x1CD2 JUMP JUMPDEST SWAP1 POP SWAP2 SWAP1 POP JUMP JUMPDEST PUSH2 0x1D0D DUP2 PUSH2 0x1CF2 JUMP JUMPDEST DUP3 MSTORE POP POP JUMP JUMPDEST PUSH1 0x0 PUSH1 0x20 DUP3 ADD SWAP1 POP PUSH2 0x1D28 PUSH1 0x0 DUP4 ADD DUP5 PUSH2 0x1D04 JUMP JUMPDEST SWAP3 SWAP2 POP POP JUMP JUMPDEST PUSH2 0x1D37 DUP2 PUSH2 0x1CF2 JUMP JUMPDEST DUP2 EQ PUSH2 0x1D42 JUMPI PUSH1 0x0 DUP1 REVERT JUMPDEST POP JUMP JUMPDEST PUSH1 0x0 DUP2 CALLDATALOAD SWAP1 POP PUSH2 0x1D54 DUP2 PUSH2 0x1D2E JUMP JUMPDEST SWAP3 SWAP2 POP POP JUMP JUMPDEST PUSH1 0x0 DUP1 PUSH1 0x40 DUP4 DUP6 SUB SLT ISZERO PUSH2 0x1D71 JUMPI PUSH2 0x1D70 PUSH2 0x1AF8 JUMP JUMPDEST JUMPDEST PUSH1 0x0 PUSH2 0x1D7F DUP6 DUP3 DUP7 ADD PUSH2 0x1D45 JUMP JUMPDEST SWAP3 POP POP PUSH1 0x20 PUSH2 0x1D90 DUP6 DUP3 DUP7 ADD PUSH2 0x1C90 JUMP JUMPDEST SWAP2 POP POP SWAP3 POP SWAP3 SWAP1 POP JUMP JUMPDEST PUSH1 0x0 DUP1 PUSH1 0x0 PUSH1 0x60 DUP5 DUP7 SUB SLT ISZERO PUSH2 0x1DB3 JUMPI PUSH2 0x1DB2 PUSH2 0x1AF8 JUMP JUMPDEST JUMPDEST PUSH1 0x0 PUSH2 0x1DC1 DUP7 DUP3 DUP8 ADD PUSH2 0x1D45 JUMP JUMPDEST SWAP4 POP POP PUSH1 0x20 PUSH2 0x1DD2 DUP7 DUP3 DUP8 ADD PUSH2 0x1D45 JUMP JUMPDEST SWAP3 POP POP PUSH1 0x40 PUSH2 0x1DE3 DUP7 DUP3 DUP8 ADD PUSH2 0x1C90 JUMP JUMPDEST SWAP2 POP POP SWAP3 POP SWAP3 POP SWAP3 JUMP JUMPDEST PUSH1 0x0 PUSH1 0x20 DUP3 DUP5 SUB SLT ISZERO PUSH2 0x1E03 JUMPI PUSH2 0x1E02 PUSH2 0x1AF8 JUMP JUMPDEST JUMPDEST PUSH1 0x0 PUSH2 0x1E11 DUP5 DUP3 DUP6 ADD PUSH2 0x1D45 JUMP JUMPDEST SWAP2 POP POP SWAP3 SWAP2 POP POP JUMP JUMPDEST PUSH2 0x1E23 DUP2 PUSH2 0x1C6F JUMP JUMPDEST DUP3 MSTORE POP POP JUMP JUMPDEST PUSH1 0x0 PUSH1 0x20 DUP3 ADD SWAP1 POP PUSH2 0x1E3E PUSH1 0x0 DUP4 ADD DUP5 PUSH2 0x1E1A JUMP JUMPDEST SWAP3 SWAP2 POP POP JUMP JUMPDEST PUSH2 0x1E4D DUP2 PUSH2 0x1B87 JUMP JUMPDEST DUP2 EQ PUSH2 0x1E58 JUMPI PUSH1 0x0 DUP1 REVERT JUMPDEST POP JUMP JUMPDEST PUSH1 0x0 DUP2 CALLDATALOAD SWAP1 POP PUSH2 0x1E6A DUP2 PUSH2 0x1E44 JUMP JUMPDEST SWAP3 SWAP2 POP POP JUMP JUMPDEST PUSH1 0x0 DUP1 PUSH1 0x40 DUP4 DUP6 SUB SLT ISZERO PUSH2 0x1E87 JUMPI PUSH2 0x1E86 PUSH2 0x1AF8 JUMP JUMPDEST JUMPDEST PUSH1 0x0 PUSH2 0x1E95 DUP6 DUP3 DUP7 ADD PUSH2 0x1D45 JUMP JUMPDEST SWAP3 POP POP PUSH1 0x20 PUSH2 0x1EA6 DUP6 DUP3 DUP7 ADD PUSH2 0x1E5B JUMP JUMPDEST SWAP2 POP POP SWAP3 POP SWAP3 SWAP1 POP JUMP JUMPDEST PUSH1 0x0 DUP1 REVERT JUMPDEST PUSH1 0x0 DUP1 REVERT JUMPDEST PUSH32 0x4E487B7100000000000000000000000000000000000000000000000000000000 PUSH1 0x0 MSTORE PUSH1 0x41 PUSH1 0x4 MSTORE PUSH1 0x24 PUSH1 0x0 REVERT JUMPDEST PUSH2 0x1EF2 DUP3 PUSH2 0x1C03 JUMP JUMPDEST DUP2 ADD DUP2 DUP2 LT PUSH8 0xFFFFFFFFFFFFFFFF DUP3 GT OR ISZERO PUSH2 0x1F11 JUMPI PUSH2 0x1F10 PUSH2 0x1EBA JUMP JUMPDEST JUMPDEST DUP1 PUSH1 0x40 MSTORE POP POP POP JUMP JUMPDEST PUSH1 0x0 PUSH2 0x1F24 PUSH2 0x1AEE JUMP JUMPDEST SWAP1 POP PUSH2 0x1F30 DUP3 DUP3 PUSH2 0x1EE9 JUMP JUMPDEST SWAP2 SWAP1 POP JUMP JUMPDEST PUSH1 0x0 PUSH8 0xFFFFFFFFFFFFFFFF DUP3 GT ISZERO PUSH2 0x1F50 JUMPI PUSH2 0x1F4F PUSH2 0x1EBA JUMP JUMPDEST JUMPDEST PUSH2 0x1F59 DUP3 PUSH2 0x1C03 JUMP JUMPDEST SWAP1 POP PUSH1 0x20 DUP2 ADD SWAP1 POP SWAP2 SWAP1 POP JUMP JUMPDEST DUP3 DUP2 DUP4 CALLDATACOPY PUSH1 0x0 DUP4 DUP4 ADD MSTORE POP POP POP JUMP JUMPDEST PUSH1 0x0 PUSH2 0x1F88 PUSH2 0x1F83 DUP5 PUSH2 0x1F35 JUMP JUMPDEST PUSH2 0x1F1A JUMP JUMPDEST SWAP1 POP DUP3 DUP2 MSTORE PUSH1 0x20 DUP2 ADD DUP5 DUP5 DUP5 ADD GT ISZERO PUSH2 0x1FA4 JUMPI PUSH2 0x1FA3 PUSH2 0x1EB5 JUMP JUMPDEST JUMPDEST PUSH2 0x1FAF DUP5 DUP3 DUP6 PUSH2 0x1F66 JUMP JUMPDEST POP SWAP4 SWAP3 POP POP POP JUMP JUMPDEST PUSH1 0x0 DUP3 PUSH1 0x1F DUP4 ADD SLT PUSH2 0x1FCC JUMPI PUSH2 0x1FCB PUSH2 0x1EB0 JUMP JUMPDEST JUMPDEST DUP2 CALLDATALOAD PUSH2 0x1FDC DUP5 DUP3 PUSH1 0x20 DUP7 ADD PUSH2 0x1F75 JUMP JUMPDEST SWAP2 POP POP SWAP3 SWAP2 POP POP JUMP JUMPDEST PUSH1 0x0 DUP1 PUSH1 0x0 DUP1 PUSH1 0x80 DUP6 DUP8 SUB SLT ISZERO PUSH2 0x1FFF JUMPI PUSH2 0x1FFE PUSH2 0x1AF8 JUMP JUMPDEST JUMPDEST PUSH1 0x0 PUSH2 0x200D DUP8 DUP3 DUP9 ADD PUSH2 0x1D45 JUMP JUMPDEST SWAP5 POP POP PUSH1 0x20 PUSH2 0x201E DUP8 DUP3 DUP9 ADD PUSH2 0x1D45 JUMP JUMPDEST SWAP4 POP POP PUSH1 0x40 PUSH2 0x202F DUP8 DUP3 DUP9 ADD PUSH2 0x1C90 JUMP JUMPDEST SWAP3 POP POP PUSH1 0x60 DUP6 ADD CALLDATALOAD PUSH8 0xFFFFFFFFFFFFFFFF DUP2 GT ISZERO PUSH2 0x2050 JUMPI PUSH2 0x204F PUSH2 0x1AFD JUMP JUMPDEST JUMPDEST PUSH2 0x205C DUP8 DUP3 DUP9 ADD PUSH2 0x1FB7 JUMP JUMPDEST SWAP2 POP POP SWAP3 SWAP6 SWAP2 SWAP5 POP SWAP3 POP JUMP JUMPDEST PUSH1 0x0 PUSH8 0xFFFFFFFFFFFFFFFF DUP3 GT ISZERO PUSH2 0x2083 JUMPI PUSH2 0x2082 PUSH2 0x1EBA JUMP JUMPDEST JUMPDEST PUSH2 0x208C DUP3 PUSH2 0x1C03 JUMP JUMPDEST SWAP1 POP PUSH1 0x20 DUP2 ADD SWAP1 POP SWAP2 SWAP1 POP JUMP JUMPDEST PUSH1 0x0 PUSH2 0x20AC PUSH2 0x20A7 DUP5 PUSH2 0x2068 JUMP JUMPDEST PUSH2 0x1F1A JUMP JUMPDEST SWAP1 POP DUP3 DUP2 MSTORE PUSH1 0x20 DUP2 ADD DUP5 DUP5 DUP5 ADD GT ISZERO PUSH2 0x20C8 JUMPI PUSH2 0x20C7 PUSH2 0x1EB5 JUMP JUMPDEST JUMPDEST PUSH2 0x20D3 DUP5 DUP3 DUP6 PUSH2 0x1F66 JUMP JUMPDEST POP SWAP4 SWAP3 POP POP POP JUMP JUMPDEST PUSH1 0x0 DUP3 PUSH1 0x1F DUP4 ADD SLT PUSH2 0x20F0 JUMPI PUSH2 0x20EF PUSH2 0x1EB0 JUMP JUMPDEST JUMPDEST DUP2 CALLDATALOAD PUSH2 0x2100 DUP5 DUP3 PUSH1 0x20 DUP7 ADD PUSH2 0x2099 JUMP JUMPDEST SWAP2 POP POP SWAP3 SWAP2 POP POP JUMP JUMPDEST PUSH1 0x0 DUP1 PUSH1 0x40 DUP4 DUP6 SUB SLT ISZERO PUSH2 0x2120 JUMPI PUSH2 0x211F PUSH2 0x1AF8 JUMP JUMPDEST JUMPDEST PUSH1 0x0 PUSH2 0x212E DUP6 DUP3 DUP7 ADD PUSH2 0x1D45 JUMP JUMPDEST SWAP3 POP POP PUSH1 0x20 DUP4 ADD CALLDATALOAD PUSH8 0xFFFFFFFFFFFFFFFF DUP2 GT ISZERO PUSH2 0x214F JUMPI PUSH2 0x214E PUSH2 0x1AFD JUMP JUMPDEST JUMPDEST PUSH2 0x215B DUP6 DUP3 DUP7 ADD PUSH2 0x20DB JUMP JUMPDEST SWAP2 POP POP SWAP3 POP SWAP3 SWAP1 POP JUMP JUMPDEST PUSH1 0x0 DUP1 PUSH1 0x40 DUP4 DUP6 SUB SLT ISZERO PUSH2 0x217C JUMPI PUSH2 0x217B PUSH2 0x1AF8 JUMP JUMPDEST JUMPDEST PUSH1 0x0 PUSH2 0x218A DUP6 DUP3 DUP7 ADD PUSH2 0x1D45 JUMP JUMPDEST SWAP3 POP POP PUSH1 0x20 PUSH2 0x219B DUP6 DUP3 DUP7 ADD PUSH2 0x1D45 JUMP JUMPDEST SWAP2 POP POP SWAP3 POP SWAP3 SWAP1 POP JUMP JUMPDEST PUSH32 0x4E487B7100000000000000000000000000000000000000000000000000000000 PUSH1 0x0 MSTORE PUSH1 0x22 PUSH1 0x4 MSTORE PUSH1 0x24 PUSH1 0x0 REVERT JUMPDEST PUSH1 0x0 PUSH1 0x2 DUP3 DIV SWAP1 POP PUSH1 0x1 DUP3 AND DUP1 PUSH2 0x21EC JUMPI PUSH1 0x7F DUP3 AND SWAP2 POP JUMPDEST PUSH1 0x20 DUP3 LT DUP2 SUB PUSH2 0x21FF JUMPI PUSH2 0x21FE PUSH2 0x21A5 JUMP JUMPDEST JUMPDEST POP SWAP2 SWAP1 POP JUMP JUMPDEST PUSH32 0x4552433732313A20617070726F76616C20746F2063757272656E74206F776E65 PUSH1 0x0 DUP3 ADD MSTORE PUSH32 0x7200000000000000000000000000000000000000000000000000000000000000 PUSH1 0x20 DUP3 ADD MSTORE POP JUMP JUMPDEST PUSH1 0x0 PUSH2 0x2261 PUSH1 0x21 DUP4 PUSH2 0x1BC8 JUMP JUMPDEST SWAP2 POP PUSH2 0x226C DUP3 PUSH2 0x2205 JUMP JUMPDEST PUSH1 0x40 DUP3 ADD SWAP1 POP SWAP2 SWAP1 POP JUMP JUMPDEST PUSH1 0x0 PUSH1 0x20 DUP3 ADD SWAP1 POP DUP2 DUP2 SUB PUSH1 0x0 DUP4 ADD MSTORE PUSH2 0x2290 DUP2 PUSH2 0x2254 JUMP JUMPDEST SWAP1 POP SWAP2 SWAP1 POP JUMP JUMPDEST PUSH32 0x4552433732313A20617070726F76652063616C6C6572206973206E6F7420746F PUSH1 0x0 DUP3 ADD MSTORE PUSH32 0x6B656E206F776E6572206F7220617070726F76656420666F7220616C6C000000 PUSH1 0x20 DUP3 ADD MSTORE POP JUMP JUMPDEST PUSH1 0x0 PUSH2 0x22F3 PUSH1 0x3D DUP4 PUSH2 0x1BC8 JUMP JUMPDEST SWAP2 POP PUSH2 0x22FE DUP3 PUSH2 0x2297 JUMP JUMPDEST PUSH1 0x40 DUP3 ADD SWAP1 POP SWAP2 SWAP1 POP JUMP JUMPDEST PUSH1 0x0 PUSH1 0x20 DUP3 ADD SWAP1 POP DUP2 DUP2 SUB PUSH1 0x0 DUP4 ADD MSTORE PUSH2 0x2322 DUP2 PUSH2 0x22E6 JUMP JUMPDEST SWAP1 POP SWAP2 SWAP1 POP JUMP JUMPDEST PUSH32 0x4552433732313A2063616C6C6572206973206E6F7420746F6B656E206F776E65 PUSH1 0x0 DUP3 ADD MSTORE PUSH32 0x72206F7220617070726F76656400000000000000000000000000000000000000 PUSH1 0x20 DUP3 ADD MSTORE POP JUMP JUMPDEST PUSH1 0x0 PUSH2 0x2385 PUSH1 0x2D DUP4 PUSH2 0x1BC8 JUMP JUMPDEST SWAP2 POP PUSH2 0x2390 DUP3 PUSH2 0x2329 JUMP JUMPDEST PUSH1 0x40 DUP3 ADD SWAP1 POP SWAP2 SWAP1 POP JUMP JUMPDEST PUSH1 0x0 PUSH1 0x20 DUP3 ADD SWAP1 POP DUP2 DUP2 SUB PUSH1 0x0 DUP4 ADD MSTORE PUSH2 0x23B4 DUP2 PUSH2 0x2378 JUMP JUMPDEST SWAP1 POP SWAP2 SWAP1 POP JUMP JUMPDEST PUSH32 0x4552433732313A20696E76616C696420746F6B656E2049440000000000000000 PUSH1 0x0 DUP3 ADD MSTORE POP JUMP JUMPDEST PUSH1 0x0 PUSH2 0x23F1 PUSH1 0x18 DUP4 PUSH2 0x1BC8 JUMP JUMPDEST SWAP2 POP PUSH2 0x23FC DUP3 PUSH2 0x23BB JUMP JUMPDEST PUSH1 0x20 DUP3 ADD SWAP1 POP SWAP2 SWAP1 POP JUMP JUMPDEST PUSH1 0x0 PUSH1 0x20 DUP3 ADD SWAP1 POP DUP2 DUP2 SUB PUSH1 0x0 DUP4 ADD MSTORE PUSH2 0x2420 DUP2 PUSH2 0x23E4 JUMP JUMPDEST SWAP1 POP SWAP2 SWAP1 POP JUMP JUMPDEST PUSH32 0x4552433732313A2061646472657373207A65726F206973206E6F742061207661 PUSH1 0x0 DUP3 ADD MSTORE PUSH32 0x6C6964206F776E65720000000000000000000000000000000000000000000000 PUSH1 0x20 DUP3 ADD MSTORE POP JUMP JUMPDEST PUSH1 0x0 PUSH2 0x2483 PUSH1 0x29 DUP4 PUSH2 0x1BC8 JUMP JUMPDEST SWAP2 POP PUSH2 0x248E DUP3 PUSH2 0x2427 JUMP JUMPDEST PUSH1 0x40 DUP3 ADD SWAP1 POP SWAP2 SWAP1 POP JUMP JUMPDEST PUSH1 0x0 PUSH1 0x20 DUP3 ADD SWAP1 POP DUP2 DUP2 SUB PUSH1 0x0 DUP4 ADD MSTORE PUSH2 0x24B2 DUP2 PUSH2 0x2476 JUMP JUMPDEST SWAP1 POP SWAP2 SWAP1 POP JUMP JUMPDEST PUSH32 0x596F7520646F206E6F7420686176652061636365737321000000000000000000 PUSH1 0x0 DUP3 ADD MSTORE POP JUMP JUMPDEST PUSH1 0x0 PUSH2 0x24EF PUSH1 0x17 DUP4 PUSH2 0x1BC8 JUMP JUMPDEST SWAP2 POP PUSH2 0x24FA DUP3 PUSH2 0x24B9 JUMP JUMPDEST PUSH1 0x20 DUP3 ADD SWAP1 POP SWAP2 SWAP1 POP JUMP JUMPDEST PUSH1 0x0 PUSH1 0x20 DUP3 ADD SWAP1 POP DUP2 DUP2 SUB PUSH1 0x0 DUP4 ADD MSTORE PUSH2 0x251E DUP2 PUSH2 0x24E2 JUMP JUMPDEST SWAP1 POP SWAP2 SWAP1 POP JUMP JUMPDEST PUSH32 0x54686572652063616E206265206F6E6C79203330204E46547320696E20612054 PUSH1 0x0 DUP3 ADD MSTORE PUSH32 0x72656520436F6C6C656374696F6E210000000000000000000000000000000000 PUSH1 0x20 DUP3 ADD MSTORE POP JUMP JUMPDEST PUSH1 0x0 PUSH2 0x2581 PUSH1 0x2F DUP4 PUSH2 0x1BC8 JUMP JUMPDEST SWAP2 POP PUSH2 0x258C DUP3 PUSH2 0x2525 JUMP JUMPDEST PUSH1 0x40 DUP3 ADD SWAP1 POP SWAP2 SWAP1 POP JUMP JUMPDEST PUSH1 0x0 PUSH1 0x20 DUP3 ADD SWAP1 POP DUP2 DUP2 SUB PUSH1 0x0 DUP4 ADD MSTORE PUSH2 0x25B0 DUP2 PUSH2 0x2574 JUMP JUMPDEST SWAP1 POP SWAP2 SWAP1 POP JUMP JUMPDEST PUSH32 0x4552433732313A207472616E736665722066726F6D20696E636F727265637420 PUSH1 0x0 DUP3 ADD MSTORE PUSH32 0x6F776E6572000000000000000000000000000000000000000000000000000000 PUSH1 0x20 DUP3 ADD MSTORE POP JUMP JUMPDEST PUSH1 0x0 PUSH2 0x2613 PUSH1 0x25 DUP4 PUSH2 0x1BC8 JUMP JUMPDEST SWAP2 POP PUSH2 0x261E DUP3 PUSH2 0x25B7 JUMP JUMPDEST PUSH1 0x40 DUP3 ADD SWAP1 POP SWAP2 SWAP1 POP JUMP JUMPDEST PUSH1 0x0 PUSH1 0x20 DUP3 ADD SWAP1 POP DUP2 DUP2 SUB PUSH1 0x0 DUP4 ADD MSTORE PUSH2 0x2642 DUP2 PUSH2 0x2606 JUMP JUMPDEST SWAP1 POP SWAP2 SWAP1 POP JUMP JUMPDEST PUSH32 0x4552433732313A207472616E7366657220746F20746865207A65726F20616464 PUSH1 0x0 DUP3 ADD MSTORE PUSH32 0x7265737300000000000000000000000000000000000000000000000000000000 PUSH1 0x20 DUP3 ADD MSTORE POP JUMP JUMPDEST PUSH1 0x0 PUSH2 0x26A5 PUSH1 0x24 DUP4 PUSH2 0x1BC8 JUMP JUMPDEST SWAP2 POP PUSH2 0x26B0 DUP3 PUSH2 0x2649 JUMP JUMPDEST PUSH1 0x40 DUP3 ADD SWAP1 POP SWAP2 SWAP1 POP JUMP JUMPDEST PUSH1 0x0 PUSH1 0x20 DUP3 ADD SWAP1 POP DUP2 DUP2 SUB PUSH1 0x0 DUP4 ADD MSTORE PUSH2 0x26D4 DUP2 PUSH2 0x2698 JUMP JUMPDEST SWAP1 POP SWAP2 SWAP1 POP JUMP JUMPDEST PUSH32 0x4552433732313A20617070726F766520746F2063616C6C657200000000000000 PUSH1 0x0 DUP3 ADD MSTORE POP JUMP JUMPDEST PUSH1 0x0 PUSH2 0x2711 PUSH1 0x19 DUP4 PUSH2 0x1BC8 JUMP JUMPDEST SWAP2 POP PUSH2 0x271C DUP3 PUSH2 0x26DB JUMP JUMPDEST PUSH1 0x20 DUP3 ADD SWAP1 POP SWAP2 SWAP1 POP JUMP JUMPDEST PUSH1 0x0 PUSH1 0x20 DUP3 ADD SWAP1 POP DUP2 DUP2 SUB PUSH1 0x0 DUP4 ADD MSTORE PUSH2 0x2740 DUP2 PUSH2 0x2704 JUMP JUMPDEST SWAP1 POP SWAP2 SWAP1 POP JUMP JUMPDEST PUSH32 0x4552433732313A207472616E7366657220746F206E6F6E204552433732315265 PUSH1 0x0 DUP3 ADD MSTORE PUSH32 0x63656976657220696D706C656D656E7465720000000000000000000000000000 PUSH1 0x20 DUP3 ADD MSTORE POP JUMP JUMPDEST PUSH1 0x0 PUSH2 0x27A3 PUSH1 0x32 DUP4 PUSH2 0x1BC8 JUMP JUMPDEST SWAP2 POP PUSH2 0x27AE DUP3 PUSH2 0x2747 JUMP JUMPDEST PUSH1 0x40 DUP3 ADD SWAP1 POP SWAP2 SWAP1 POP JUMP JUMPDEST PUSH1 0x0 PUSH1 0x20 DUP3 ADD SWAP1 POP DUP2 DUP2 SUB PUSH1 0x0 DUP4 ADD MSTORE PUSH2 0x27D2 DUP2 PUSH2 0x2796 JUMP JUMPDEST SWAP1 POP SWAP2 SWAP1 POP JUMP JUMPDEST PUSH1 0x0 DUP2 SWAP1 POP SWAP3 SWAP2 POP POP JUMP JUMPDEST PUSH1 0x0 PUSH2 0x27EF DUP3 PUSH2 0x1BBD JUMP JUMPDEST PUSH2 0x27F9 DUP2 DUP6 PUSH2 0x27D9 JUMP JUMPDEST SWAP4 POP PUSH2 0x2809 DUP2 DUP6 PUSH1 0x20 DUP7 ADD PUSH2 0x1BD9 JUMP JUMPDEST DUP1 DUP5 ADD SWAP2 POP POP SWAP3 SWAP2 POP POP JUMP JUMPDEST PUSH1 0x0 PUSH2 0x2821 DUP3 DUP6 PUSH2 0x27E4 JUMP JUMPDEST SWAP2 POP PUSH2 0x282D DUP3 DUP5 PUSH2 0x27E4 JUMP JUMPDEST SWAP2 POP DUP2 SWAP1 POP SWAP4 SWAP3 POP POP POP JUMP JUMPDEST PUSH32 0x45524337323155524953746F726167653A2055524920736574206F66206E6F6E PUSH1 0x0 DUP3 ADD MSTORE PUSH32 0x6578697374656E7420746F6B656E000000000000000000000000000000000000 PUSH1 0x20 DUP3 ADD MSTORE POP JUMP JUMPDEST PUSH1 0x0 PUSH2 0x2895 PUSH1 0x2E DUP4 PUSH2 0x1BC8 JUMP JUMPDEST SWAP2 POP PUSH2 0x28A0 DUP3 PUSH2 0x2839 JUMP JUMPDEST PUSH1 0x40 DUP3 ADD SWAP1 POP SWAP2 SWAP1 POP JUMP JUMPDEST PUSH1 0x0 PUSH1 0x20 DUP3 ADD SWAP1 POP DUP2 DUP2 SUB PUSH1 0x0 DUP4 ADD MSTORE PUSH2 0x28C4 DUP2 PUSH2 0x2888 JUMP JUMPDEST SWAP1 POP SWAP2 SWAP1 POP JUMP JUMPDEST PUSH1 0x0 DUP2 SWAP1 POP DUP2 PUSH1 0x0 MSTORE PUSH1 0x20 PUSH1 0x0 KECCAK256 SWAP1 POP SWAP2 SWAP1 POP JUMP JUMPDEST PUSH1 0x0 PUSH1 0x20 PUSH1 0x1F DUP4 ADD DIV SWAP1 POP SWAP2 SWAP1 POP JUMP JUMPDEST PUSH1 0x0 DUP3 DUP3 SHL SWAP1 POP SWAP3 SWAP2 POP POP JUMP JUMPDEST PUSH1 0x0 PUSH1 0x8 DUP4 MUL PUSH2 0x292D PUSH32 0xFFFFFFFFFFFFFFFFFFFFFFFFFFFFFFFFFFFFFFFFFFFFFFFFFFFFFFFFFFFFFFFF DUP3 PUSH2 0x28F0 JUMP JUMPDEST PUSH2 0x2937 DUP7 DUP4 PUSH2 0x28F0 JUMP JUMPDEST SWAP6 POP DUP1 NOT DUP5 AND SWAP4 POP DUP1 DUP7 AND DUP5 OR SWAP3 POP POP POP SWAP4 SWAP3 POP POP POP JUMP JUMPDEST PUSH1 0x0 DUP2 SWAP1 POP SWAP2 SWAP1 POP JUMP JUMPDEST PUSH1 0x0 PUSH2 0x2974 PUSH2 0x296F PUSH2 0x296A DUP5 PUSH2 0x1C6F JUMP JUMPDEST PUSH2 0x294F JUMP JUMPDEST PUSH2 0x1C6F JUMP JUMPDEST SWAP1 POP SWAP2 SWAP1 POP JUMP JUMPDEST PUSH1 0x0 DUP2 SWAP1 POP SWAP2 SWAP1 POP JUMP JUMPDEST PUSH2 0x298E DUP4 PUSH2 0x2959 JUMP JUMPDEST PUSH2 0x29A2 PUSH2 0x299A DUP3 PUSH2 0x297B JUMP JUMPDEST DUP5 DUP5 SLOAD PUSH2 0x28FD JUMP JUMPDEST DUP3 SSTORE POP POP POP POP JUMP JUMPDEST PUSH1 0x0 SWAP1 JUMP JUMPDEST PUSH2 0x29B7 PUSH2 0x29AA JUMP JUMPDEST PUSH2 0x29C2 DUP2 DUP5 DUP5 PUSH2 0x2985 JUMP JUMPDEST POP POP POP JUMP JUMPDEST JUMPDEST DUP2 DUP2 LT ISZERO PUSH2 0x29E6 JUMPI PUSH2 0x29DB PUSH1 0x0 DUP3 PUSH2 0x29AF JUMP JUMPDEST PUSH1 0x1 DUP2 ADD SWAP1 POP PUSH2 0x29C8 JUMP JUMPDEST POP POP JUMP JUMPDEST PUSH1 0x1F DUP3 GT ISZERO PUSH2 0x2A2B JUMPI PUSH2 0x29FC DUP2 PUSH2 0x28CB JUMP JUMPDEST PUSH2 0x2A05 DUP5 PUSH2 0x28E0 JUMP JUMPDEST DUP2 ADD PUSH1 0x20 DUP6 LT ISZERO PUSH2 0x2A14 JUMPI DUP2 SWAP1 POP JUMPDEST PUSH2 0x2A28 PUSH2 0x2A20 DUP6 PUSH2 0x28E0 JUMP JUMPDEST DUP4 ADD DUP3 PUSH2 0x29C7 JUMP JUMPDEST POP POP JUMPDEST POP POP POP JUMP JUMPDEST PUSH1 0x0 DUP3 DUP3 SHR SWAP1 POP SWAP3 SWAP2 POP POP JUMP JUMPDEST PUSH1 0x0 PUSH2 0x2A4E PUSH1 0x0 NOT DUP5 PUSH1 0x8 MUL PUSH2 0x2A30 JUMP JUMPDEST NOT DUP1 DUP4 AND SWAP2 POP POP SWAP3 SWAP2 POP POP JUMP JUMPDEST PUSH1 0x0 PUSH2 0x2A67 DUP4 DUP4 PUSH2 0x2A3D JUMP JUMPDEST SWAP2 POP DUP3 PUSH1 0x2 MUL DUP3 OR SWAP1 POP SWAP3 SWAP2 POP POP JUMP JUMPDEST PUSH2 0x2A80 DUP3 PUSH2 0x1BBD JUMP JUMPDEST PUSH8 0xFFFFFFFFFFFFFFFF DUP2 GT ISZERO PUSH2 0x2A99 JUMPI PUSH2 0x2A98 PUSH2 0x1EBA JUMP JUMPDEST JUMPDEST PUSH2 0x2AA3 DUP3 SLOAD PUSH2 0x21D4 JUMP JUMPDEST PUSH2 0x2AAE DUP3 DUP3 DUP6 PUSH2 0x29EA JUMP JUMPDEST PUSH1 0x0 PUSH1 0x20 SWAP1 POP PUSH1 0x1F DUP4 GT PUSH1 0x1 DUP2 EQ PUSH2 0x2AE1 JUMPI PUSH1 0x0 DUP5 ISZERO PUSH2 0x2ACF JUMPI DUP3 DUP8 ADD MLOAD SWAP1 POP JUMPDEST PUSH2 0x2AD9 DUP6 DUP3 PUSH2 0x2A5B JUMP JUMPDEST DUP7 SSTORE POP PUSH2 0x2B41 JUMP JUMPDEST PUSH1 0x1F NOT DUP5 AND PUSH2 0x2AEF DUP7 PUSH2 0x28CB JUMP JUMPDEST PUSH1 0x0 JUMPDEST DUP3 DUP2 LT ISZERO PUSH2 0x2B17 JUMPI DUP5 DUP10 ADD MLOAD DUP3 SSTORE PUSH1 0x1 DUP3 ADD SWAP2 POP PUSH1 0x20 DUP6 ADD SWAP5 POP PUSH1 0x20 DUP2 ADD SWAP1 POP PUSH2 0x2AF2 JUMP JUMPDEST DUP7 DUP4 LT ISZERO PUSH2 0x2B34 JUMPI DUP5 DUP10 ADD MLOAD PUSH2 0x2B30 PUSH1 0x1F DUP10 AND DUP3 PUSH2 0x2A3D JUMP JUMPDEST DUP4 SSTORE POP JUMPDEST PUSH1 0x1 PUSH1 0x2 DUP9 MUL ADD DUP9 SSTORE POP POP POP JUMPDEST POP POP POP POP POP POP JUMP JUMPDEST PUSH1 0x0 DUP2 MLOAD SWAP1 POP SWAP2 SWAP1 POP JUMP JUMPDEST PUSH1 0x0 DUP3 DUP3 MSTORE PUSH1 0x20 DUP3 ADD SWAP1 POP SWAP3 SWAP2 POP POP JUMP JUMPDEST PUSH1 0x0 PUSH2 0x2B70 DUP3 PUSH2 0x2B49 JUMP JUMPDEST PUSH2 0x2B7A DUP2 DUP6 PUSH2 0x2B54 JUMP JUMPDEST SWAP4 POP PUSH2 0x2B8A DUP2 DUP6 PUSH1 0x20 DUP7 ADD PUSH2 0x1BD9 JUMP JUMPDEST PUSH2 0x2B93 DUP2 PUSH2 0x1C03 JUMP JUMPDEST DUP5 ADD SWAP2 POP POP SWAP3 SWAP2 POP POP JUMP JUMPDEST PUSH1 0x0 PUSH1 0x80 DUP3 ADD SWAP1 POP PUSH2 0x2BB3 PUSH1 0x0 DUP4 ADD DUP8 PUSH2 0x1D04 JUMP JUMPDEST PUSH2 0x2BC0 PUSH1 0x20 DUP4 ADD DUP7 PUSH2 0x1D04 JUMP JUMPDEST PUSH2 0x2BCD PUSH1 0x40 DUP4 ADD DUP6 PUSH2 0x1E1A JUMP JUMPDEST DUP2 DUP2 SUB PUSH1 0x60 DUP4 ADD MSTORE PUSH2 0x2BDF DUP2 DUP5 PUSH2 0x2B65 JUMP JUMPDEST SWAP1 POP SWAP6 SWAP5 POP POP POP POP POP JUMP JUMPDEST PUSH1 0x0 DUP2 MLOAD SWAP1 POP PUSH2 0x2BF9 DUP2 PUSH2 0x1B2E JUMP JUMPDEST SWAP3 SWAP2 POP POP JUMP JUMPDEST PUSH1 0x0 PUSH1 0x20 DUP3 DUP5 SUB SLT ISZERO PUSH2 0x2C15 JUMPI PUSH2 0x2C14 PUSH2 0x1AF8 JUMP JUMPDEST JUMPDEST PUSH1 0x0 PUSH2 0x2C23 DUP5 DUP3 DUP6 ADD PUSH2 0x2BEA JUMP JUMPDEST SWAP2 POP POP SWAP3 SWAP2 POP POP JUMP JUMPDEST PUSH32 0x4E487B7100000000000000000000000000000000000000000000000000000000 PUSH1 0x0 MSTORE PUSH1 0x12 PUSH1 0x4 MSTORE PUSH1 0x24 PUSH1 0x0 REVERT JUMPDEST PUSH32 0x4552433732313A206D696E7420746F20746865207A65726F2061646472657373 PUSH1 0x0 DUP3 ADD MSTORE POP JUMP JUMPDEST PUSH1 0x0 PUSH2 0x2C91 PUSH1 0x20 DUP4 PUSH2 0x1BC8 JUMP JUMPDEST SWAP2 POP PUSH2 0x2C9C DUP3 PUSH2 0x2C5B JUMP JUMPDEST PUSH1 0x20 DUP3 ADD SWAP1 POP SWAP2 SWAP1 POP JUMP JUMPDEST PUSH1 0x0 PUSH1 0x20 DUP3 ADD SWAP1 POP DUP2 DUP2 SUB PUSH1 0x0 DUP4 ADD MSTORE PUSH2 0x2CC0 DUP2 PUSH2 0x2C84 JUMP JUMPDEST SWAP1 POP SWAP2 SWAP1 POP JUMP JUMPDEST PUSH32 0x4552433732313A20746F6B656E20616C7265616479206D696E74656400000000 PUSH1 0x0 DUP3 ADD MSTORE POP JUMP JUMPDEST PUSH1 0x0 PUSH2 0x2CFD PUSH1 0x1C DUP4 PUSH2 0x1BC8 JUMP JUMPDEST SWAP2 POP PUSH2 0x2D08 DUP3 PUSH2 0x2CC7 JUMP JUMPDEST PUSH1 0x20 DUP3 ADD SWAP1 POP SWAP2 SWAP1 POP JUMP JUMPDEST PUSH1 0x0 PUSH1 0x20 DUP3 ADD SWAP1 POP DUP2 DUP2 SUB PUSH1 0x0 DUP4 ADD MSTORE PUSH2 0x2D2C DUP2 PUSH2 0x2CF0 JUMP JUMPDEST SWAP1 POP SWAP2 SWAP1 POP JUMP INVALID LOG2 PUSH5 0x6970667358 0x22 SLT KECCAK256 MOD BASEFEE 0xF 0xB9 PUSH1 0x4F SWAP7 XOR 0xEC MSTORE 0xE4 RETURNDATACOPY 0xD0 SSTORE 0x28 0x49 SWAP2 0xDF COINBASE MSTORE8 0xD4 PUSH11 0xAA828A03FD80EA6EE82364 PUSH20 0x6F6C63430008120033A2646970667358221220CC 0xA8 0x2C SWAP16 0x25 DUP12 DUP12 0xC3 CALLVALUE LOG2 SWAP2 0xCF 0xF JUMPDEST GAS 0xDC 0xA5 SWAP13 0xB6 0x49 0xD1 DELEGATECALL 0x2C GASPRICE SELFBALANCE AND BLOCKHASH 0xA7 SWAP4 SIGNEXTEND 0x4C RETURN PUSH5 0x736F6C6343 STOP ADDMOD SLT STOP CALLER "
	},
	"abi": [
		{
			"inputs": [
				{
					"internalType": "address",
					"name": "_token",
					"type": "address"
				}
			],
			"stateMutability": "nonpayable",
			"type": "constructor"
		},
		{
			"anonymous": false,
			"inputs": [
				{
					"indexed": true,
					"internalType": "address",
					"name": "owner",
					"type": "address"
				},
				{
					"indexed": true,
					"internalType": "address",
					"name": "spender",
					"type": "address"
				},
				{
					"indexed": false,
					"internalType": "uint256",
					"name": "value",
					"type": "uint256"
				}
			],
			"name": "Approval",
			"type": "event"
		},
		{
			"anonymous": false,
			"inputs": [
				{
					"indexed": true,
					"internalType": "address",
					"name": "from",
					"type": "address"
				},
				{
					"indexed": true,
					"internalType": "address",
					"name": "to",
					"type": "address"
				},
				{
					"indexed": false,
					"internalType": "uint256",
					"name": "value",
					"type": "uint256"
				}
			],
			"name": "Transfer",
			"type": "event"
		},
		{
			"inputs": [],
			"name": "TreeCollectionCounter",
			"outputs": [
				{
					"internalType": "uint256",
					"name": "_value",
					"type": "uint256"
				}
			],
			"stateMutability": "view",
			"type": "function"
		},
		{
			"inputs": [
				{
					"internalType": "address",
					"name": "owner",
					"type": "address"
				},
				{
					"internalType": "address",
					"name": "spender",
					"type": "address"
				}
			],
			"name": "allowance",
			"outputs": [
				{
					"internalType": "uint256",
					"name": "",
					"type": "uint256"
				}
			],
			"stateMutability": "view",
			"type": "function"
		},
		{
			"inputs": [
				{
					"internalType": "address",
					"name": "spender",
					"type": "address"
				},
				{
					"internalType": "uint256",
					"name": "amount",
					"type": "uint256"
				}
			],
			"name": "approve",
			"outputs": [
				{
					"internalType": "bool",
					"name": "",
					"type": "bool"
				}
			],
			"stateMutability": "nonpayable",
			"type": "function"
		},
		{
			"inputs": [
				{
					"internalType": "address",
					"name": "account",
					"type": "address"
				}
			],
			"name": "balanceOf",
			"outputs": [
				{
					"internalType": "uint256",
					"name": "",
					"type": "uint256"
				}
			],
			"stateMutability": "view",
			"type": "function"
		},
		{
			"inputs": [
				{
					"internalType": "uint256",
					"name": "_collectionID",
					"type": "uint256"
				},
				{
					"internalType": "uint256",
					"name": "_tokenID",
					"type": "uint256"
				}
			],
			"name": "claim",
			"outputs": [
				{
					"internalType": "bool",
					"name": "",
					"type": "bool"
				}
			],
			"stateMutability": "nonpayable",
			"type": "function"
		},
		{
			"inputs": [],
			"name": "decimals",
			"outputs": [
				{
					"internalType": "uint8",
					"name": "",
					"type": "uint8"
				}
			],
			"stateMutability": "view",
			"type": "function"
		},
		{
			"inputs": [
				{
					"internalType": "address",
					"name": "spender",
					"type": "address"
				},
				{
					"internalType": "uint256",
					"name": "subtractedValue",
					"type": "uint256"
				}
			],
			"name": "decreaseAllowance",
			"outputs": [
				{
					"internalType": "bool",
					"name": "",
					"type": "bool"
				}
			],
			"stateMutability": "nonpayable",
			"type": "function"
		},
		{
			"inputs": [
				{
					"internalType": "uint256",
					"name": "collectionId",
					"type": "uint256"
				},
				{
					"internalType": "uint256",
					"name": "tokenId",
					"type": "uint256"
				}
			],
			"name": "getTreeDetails",
			"outputs": [
				{
					"components": [
						{
							"internalType": "uint256",
							"name": "lastWatered",
							"type": "uint256"
						},
						{
							"internalType": "uint256",
							"name": "lastClaimed",
							"type": "uint256"
						},
						{
							"internalType": "uint256",
							"name": "wateredTimes",
							"type": "uint256"
						},
						{
							"internalType": "uint256",
							"name": "tokensYielded",
							"type": "uint256"
						},
						{
							"internalType": "bool",
							"name": "isInitialized",
							"type": "bool"
						}
					],
					"internalType": "struct Genesis.TreeDetails",
					"name": "",
					"type": "tuple"
				}
			],
			"stateMutability": "view",
			"type": "function"
		},
		{
			"inputs": [
				{
					"internalType": "address",
					"name": "spender",
					"type": "address"
				},
				{
					"internalType": "uint256",
					"name": "addedValue",
					"type": "uint256"
				}
			],
			"name": "increaseAllowance",
			"outputs": [
				{
					"internalType": "bool",
					"name": "",
					"type": "bool"
				}
			],
			"stateMutability": "nonpayable",
			"type": "function"
		},
		{
			"inputs": [],
			"name": "mintNewTreeCollection",
			"outputs": [],
			"stateMutability": "nonpayable",
			"type": "function"
		},
		{
			"inputs": [
				{
					"internalType": "uint256",
					"name": "collectionID",
					"type": "uint256"
				},
				{
					"internalType": "string",
					"name": "_uri",
					"type": "string"
				}
			],
			"name": "mintTree",
			"outputs": [],
			"stateMutability": "nonpayable",
			"type": "function"
		},
		{
			"inputs": [],
			"name": "name",
			"outputs": [
				{
					"internalType": "string",
					"name": "",
					"type": "string"
				}
			],
			"stateMutability": "view",
			"type": "function"
		},
		{
			"inputs": [
				{
					"internalType": "uint256",
					"name": "collectionID",
					"type": "uint256"
				}
			],
			"name": "returnNFTcount",
			"outputs": [
				{
					"internalType": "uint256",
					"name": "",
					"type": "uint256"
				}
			],
			"stateMutability": "view",
			"type": "function"
		},
		{
			"inputs": [],
			"name": "symbol",
			"outputs": [
				{
					"internalType": "string",
					"name": "",
					"type": "string"
				}
			],
			"stateMutability": "view",
			"type": "function"
		},
		{
			"inputs": [],
			"name": "totalSupply",
			"outputs": [
				{
					"internalType": "uint256",
					"name": "",
					"type": "uint256"
				}
			],
			"stateMutability": "view",
			"type": "function"
		},
		{
			"inputs": [
				{
					"internalType": "address",
					"name": "to",
					"type": "address"
				},
				{
					"internalType": "uint256",
					"name": "amount",
					"type": "uint256"
				}
			],
			"name": "transfer",
			"outputs": [
				{
					"internalType": "bool",
					"name": "",
					"type": "bool"
				}
			],
			"stateMutability": "nonpayable",
			"type": "function"
		},
		{
			"inputs": [
				{
					"internalType": "address",
					"name": "from",
					"type": "address"
				},
				{
					"internalType": "address",
					"name": "to",
					"type": "address"
				},
				{
					"internalType": "uint256",
					"name": "amount",
					"type": "uint256"
				}
			],
			"name": "transferFrom",
			"outputs": [
				{
					"internalType": "bool",
					"name": "",
					"type": "bool"
				}
			],
			"stateMutability": "nonpayable",
			"type": "function"
		},
		{
			"inputs": [
				{
					"internalType": "uint256",
					"name": "",
					"type": "uint256"
				}
			],
			"name": "treecollections",
			"outputs": [
				{
					"internalType": "contract TreeCollection",
					"name": "",
					"type": "address"
				}
			],
			"stateMutability": "view",
			"type": "function"
		},
		{
			"inputs": [
				{
					"internalType": "uint256",
					"name": "_collectionID",
					"type": "uint256"
				},
				{
					"internalType": "uint256",
					"name": "_tokenID",
					"type": "uint256"
				}
			],
			"name": "water",
			"outputs": [
				{
					"internalType": "bool",
					"name": "",
					"type": "bool"
				}
			],
			"stateMutability": "nonpayable",
			"type": "function"
		}
	],
	"storageLayout": {
		"storage": [
			{
				"astId": 43,
				"contract": "Genesis.sol:Genesis",
				"label": "_balances",
				"offset": 0,
				"slot": "0",
				"type": "t_mapping(t_address,t_uint256)"
			},
			{
				"astId": 49,
				"contract": "Genesis.sol:Genesis",
				"label": "_allowances",
				"offset": 0,
				"slot": "1",
				"type": "t_mapping(t_address,t_mapping(t_address,t_uint256))"
			},
			{
				"astId": 51,
				"contract": "Genesis.sol:Genesis",
				"label": "_totalSupply",
				"offset": 0,
				"slot": "2",
				"type": "t_uint256"
			},
			{
				"astId": 53,
				"contract": "Genesis.sol:Genesis",
				"label": "_name",
				"offset": 0,
				"slot": "3",
				"type": "t_string_storage"
			},
			{
				"astId": 55,
				"contract": "Genesis.sol:Genesis",
				"label": "_symbol",
				"offset": 0,
				"slot": "4",
				"type": "t_string_storage"
			},
			{
				"astId": 3636,
				"contract": "Genesis.sol:Genesis",
				"label": "TreeCollectionCounter",
				"offset": 0,
				"slot": "5",
				"type": "t_struct(Counter)2319_storage"
			},
			{
				"astId": 3647,
				"contract": "Genesis.sol:Genesis",
				"label": "admin",
				"offset": 0,
				"slot": "6",
				"type": "t_address"
			},
			{
				"astId": 3703,
				"contract": "Genesis.sol:Genesis",
				"label": "treecollections",
				"offset": 0,
				"slot": "7",
				"type": "t_mapping(t_uint256,t_contract(TreeCollection)4191)"
			},
			{
				"astId": 3708,
				"contract": "Genesis.sol:Genesis",
				"label": "userTree",
				"offset": 0,
				"slot": "8",
				"type": "t_mapping(t_uint256,t_struct(UserTreeMapping)3698_storage)"
			},
			{
				"astId": 3712,
				"contract": "Genesis.sol:Genesis",
				"label": "collectionInitialized",
				"offset": 0,
				"slot": "9",
				"type": "t_mapping(t_uint256,t_bool)"
			}
		],
		"types": {
			"t_address": {
				"encoding": "inplace",
				"label": "address",
				"numberOfBytes": "20"
			},
			"t_bool": {
				"encoding": "inplace",
				"label": "bool",
				"numberOfBytes": "1"
			},
			"t_contract(TreeCollection)4191": {
				"encoding": "inplace",
				"label": "contract TreeCollection",
				"numberOfBytes": "20"
			},
			"t_mapping(t_address,t_mapping(t_address,t_uint256))": {
				"encoding": "mapping",
				"key": "t_address",
				"label": "mapping(address => mapping(address => uint256))",
				"numberOfBytes": "32",
				"value": "t_mapping(t_address,t_uint256)"
			},
			"t_mapping(t_address,t_uint256)": {
				"encoding": "mapping",
				"key": "t_address",
				"label": "mapping(address => uint256)",
				"numberOfBytes": "32",
				"value": "t_uint256"
			},
			"t_mapping(t_uint256,t_bool)": {
				"encoding": "mapping",
				"key": "t_uint256",
				"label": "mapping(uint256 => bool)",
				"numberOfBytes": "32",
				"value": "t_bool"
			},
			"t_mapping(t_uint256,t_contract(TreeCollection)4191)": {
				"encoding": "mapping",
				"key": "t_uint256",
				"label": "mapping(uint256 => contract TreeCollection)",
				"numberOfBytes": "32",
				"value": "t_contract(TreeCollection)4191"
			},
			"t_mapping(t_uint256,t_struct(TreeDetails)3692_storage)": {
				"encoding": "mapping",
				"key": "t_uint256",
				"label": "mapping(uint256 => struct Genesis.TreeDetails)",
				"numberOfBytes": "32",
				"value": "t_struct(TreeDetails)3692_storage"
			},
			"t_mapping(t_uint256,t_struct(UserTreeMapping)3698_storage)": {
				"encoding": "mapping",
				"key": "t_uint256",
				"label": "mapping(uint256 => struct Genesis.UserTreeMapping)",
				"numberOfBytes": "32",
				"value": "t_struct(UserTreeMapping)3698_storage"
			},
			"t_string_storage": {
				"encoding": "bytes",
				"label": "string",
				"numberOfBytes": "32"
			},
			"t_struct(Counter)2319_storage": {
				"encoding": "inplace",
				"label": "struct Counters.Counter",
				"members": [
					{
						"astId": 2318,
						"contract": "Genesis.sol:Genesis",
						"label": "_value",
						"offset": 0,
						"slot": "0",
						"type": "t_uint256"
					}
				],
				"numberOfBytes": "32"
			},
			"t_struct(TreeDetails)3692_storage": {
				"encoding": "inplace",
				"label": "struct Genesis.TreeDetails",
				"members": [
					{
						"astId": 3683,
						"contract": "Genesis.sol:Genesis",
						"label": "lastWatered",
						"offset": 0,
						"slot": "0",
						"type": "t_uint256"
					},
					{
						"astId": 3685,
						"contract": "Genesis.sol:Genesis",
						"label": "lastClaimed",
						"offset": 0,
						"slot": "1",
						"type": "t_uint256"
					},
					{
						"astId": 3687,
						"contract": "Genesis.sol:Genesis",
						"label": "wateredTimes",
						"offset": 0,
						"slot": "2",
						"type": "t_uint256"
					},
					{
						"astId": 3689,
						"contract": "Genesis.sol:Genesis",
						"label": "tokensYielded",
						"offset": 0,
						"slot": "3",
						"type": "t_uint256"
					},
					{
						"astId": 3691,
						"contract": "Genesis.sol:Genesis",
						"label": "isInitialized",
						"offset": 0,
						"slot": "4",
						"type": "t_bool"
					}
				],
				"numberOfBytes": "160"
			},
			"t_struct(UserTreeMapping)3698_storage": {
				"encoding": "inplace",
				"label": "struct Genesis.UserTreeMapping",
				"members": [
					{
						"astId": 3697,
						"contract": "Genesis.sol:Genesis",
						"label": "treeDetails",
						"offset": 0,
						"slot": "0",
						"type": "t_mapping(t_uint256,t_struct(TreeDetails)3692_storage)"
					}
				],
				"numberOfBytes": "32"
			},
			"t_uint256": {
				"encoding": "inplace",
				"label": "uint256",
				"numberOfBytes": "32"
			}
		}
	},
	"web3Deploy": "var _token = /* var of type address here */ ;\nvar genesisContract = new web3.eth.Contract([{\"inputs\":[{\"internalType\":\"address\",\"name\":\"_token\",\"type\":\"address\"}],\"stateMutability\":\"nonpayable\",\"type\":\"constructor\"},{\"anonymous\":false,\"inputs\":[{\"indexed\":true,\"internalType\":\"address\",\"name\":\"owner\",\"type\":\"address\"},{\"indexed\":true,\"internalType\":\"address\",\"name\":\"spender\",\"type\":\"address\"},{\"indexed\":false,\"internalType\":\"uint256\",\"name\":\"value\",\"type\":\"uint256\"}],\"name\":\"Approval\",\"type\":\"event\"},{\"anonymous\":false,\"inputs\":[{\"indexed\":true,\"internalType\":\"address\",\"name\":\"from\",\"type\":\"address\"},{\"indexed\":true,\"internalType\":\"address\",\"name\":\"to\",\"type\":\"address\"},{\"indexed\":false,\"internalType\":\"uint256\",\"name\":\"value\",\"type\":\"uint256\"}],\"name\":\"Transfer\",\"type\":\"event\"},{\"inputs\":[],\"name\":\"TreeCollectionCounter\",\"outputs\":[{\"internalType\":\"uint256\",\"name\":\"_value\",\"type\":\"uint256\"}],\"stateMutability\":\"view\",\"type\":\"function\"},{\"inputs\":[{\"internalType\":\"address\",\"name\":\"owner\",\"type\":\"address\"},{\"internalType\":\"address\",\"name\":\"spender\",\"type\":\"address\"}],\"name\":\"allowance\",\"outputs\":[{\"internalType\":\"uint256\",\"name\":\"\",\"type\":\"uint256\"}],\"stateMutability\":\"view\",\"type\":\"function\"},{\"inputs\":[{\"internalType\":\"address\",\"name\":\"spender\",\"type\":\"address\"},{\"internalType\":\"uint256\",\"name\":\"amount\",\"type\":\"uint256\"}],\"name\":\"approve\",\"outputs\":[{\"internalType\":\"bool\",\"name\":\"\",\"type\":\"bool\"}],\"stateMutability\":\"nonpayable\",\"type\":\"function\"},{\"inputs\":[{\"internalType\":\"address\",\"name\":\"account\",\"type\":\"address\"}],\"name\":\"balanceOf\",\"outputs\":[{\"internalType\":\"uint256\",\"name\":\"\",\"type\":\"uint256\"}],\"stateMutability\":\"view\",\"type\":\"function\"},{\"inputs\":[{\"internalType\":\"uint256\",\"name\":\"_collectionID\",\"type\":\"uint256\"},{\"internalType\":\"uint256\",\"name\":\"_tokenID\",\"type\":\"uint256\"}],\"name\":\"claim\",\"outputs\":[{\"internalType\":\"bool\",\"name\":\"\",\"type\":\"bool\"}],\"stateMutability\":\"nonpayable\",\"type\":\"function\"},{\"inputs\":[],\"name\":\"decimals\",\"outputs\":[{\"internalType\":\"uint8\",\"name\":\"\",\"type\":\"uint8\"}],\"stateMutability\":\"view\",\"type\":\"function\"},{\"inputs\":[{\"internalType\":\"address\",\"name\":\"spender\",\"type\":\"address\"},{\"internalType\":\"uint256\",\"name\":\"subtractedValue\",\"type\":\"uint256\"}],\"name\":\"decreaseAllowance\",\"outputs\":[{\"internalType\":\"bool\",\"name\":\"\",\"type\":\"bool\"}],\"stateMutability\":\"nonpayable\",\"type\":\"function\"},{\"inputs\":[{\"internalType\":\"uint256\",\"name\":\"collectionId\",\"type\":\"uint256\"},{\"internalType\":\"uint256\",\"name\":\"tokenId\",\"type\":\"uint256\"}],\"name\":\"getTreeDetails\",\"outputs\":[{\"components\":[{\"internalType\":\"uint256\",\"name\":\"lastWatered\",\"type\":\"uint256\"},{\"internalType\":\"uint256\",\"name\":\"lastClaimed\",\"type\":\"uint256\"},{\"internalType\":\"uint256\",\"name\":\"wateredTimes\",\"type\":\"uint256\"},{\"internalType\":\"uint256\",\"name\":\"tokensYielded\",\"type\":\"uint256\"},{\"internalType\":\"bool\",\"name\":\"isInitialized\",\"type\":\"bool\"}],\"internalType\":\"struct Genesis.TreeDetails\",\"name\":\"\",\"type\":\"tuple\"}],\"stateMutability\":\"view\",\"type\":\"function\"},{\"inputs\":[{\"internalType\":\"address\",\"name\":\"spender\",\"type\":\"address\"},{\"internalType\":\"uint256\",\"name\":\"addedValue\",\"type\":\"uint256\"}],\"name\":\"increaseAllowance\",\"outputs\":[{\"internalType\":\"bool\",\"name\":\"\",\"type\":\"bool\"}],\"stateMutability\":\"nonpayable\",\"type\":\"function\"},{\"inputs\":[],\"name\":\"mintNewTreeCollection\",\"outputs\":[],\"stateMutability\":\"nonpayable\",\"type\":\"function\"},{\"inputs\":[{\"internalType\":\"uint256\",\"name\":\"collectionID\",\"type\":\"uint256\"},{\"internalType\":\"string\",\"name\":\"_uri\",\"type\":\"string\"}],\"name\":\"mintTree\",\"outputs\":[],\"stateMutability\":\"nonpayable\",\"type\":\"function\"},{\"inputs\":[],\"name\":\"name\",\"outputs\":[{\"internalType\":\"string\",\"name\":\"\",\"type\":\"string\"}],\"stateMutability\":\"view\",\"type\":\"function\"},{\"inputs\":[{\"internalType\":\"uint256\",\"name\":\"collectionID\",\"type\":\"uint256\"}],\"name\":\"returnNFTcount\",\"outputs\":[{\"internalType\":\"uint256\",\"name\":\"\",\"type\":\"uint256\"}],\"stateMutability\":\"view\",\"type\":\"function\"},{\"inputs\":[],\"name\":\"symbol\",\"outputs\":[{\"internalType\":\"string\",\"name\":\"\",\"type\":\"string\"}],\"stateMutability\":\"view\",\"type\":\"function\"},{\"inputs\":[],\"name\":\"totalSupply\",\"outputs\":[{\"internalType\":\"uint256\",\"name\":\"\",\"type\":\"uint256\"}],\"stateMutability\":\"view\",\"type\":\"function\"},{\"inputs\":[{\"internalType\":\"address\",\"name\":\"to\",\"type\":\"address\"},{\"internalType\":\"uint256\",\"name\":\"amount\",\"type\":\"uint256\"}],\"name\":\"transfer\",\"outputs\":[{\"internalType\":\"bool\",\"name\":\"\",\"type\":\"bool\"}],\"stateMutability\":\"nonpayable\",\"type\":\"function\"},{\"inputs\":[{\"internalType\":\"address\",\"name\":\"from\",\"type\":\"address\"},{\"internalType\":\"address\",\"name\":\"to\",\"type\":\"address\"},{\"internalType\":\"uint256\",\"name\":\"amount\",\"type\":\"uint256\"}],\"name\":\"transferFrom\",\"outputs\":[{\"internalType\":\"bool\",\"name\":\"\",\"type\":\"bool\"}],\"stateMutability\":\"nonpayable\",\"type\":\"function\"},{\"inputs\":[{\"internalType\":\"uint256\",\"name\":\"\",\"type\":\"uint256\"}],\"name\":\"treecollections\",\"outputs\":[{\"internalType\":\"contract TreeCollection\",\"name\":\"\",\"type\":\"address\"}],\"stateMutability\":\"view\",\"type\":\"function\"},{\"inputs\":[{\"internalType\":\"uint256\",\"name\":\"_collectionID\",\"type\":\"uint256\"},{\"internalType\":\"uint256\",\"name\":\"_tokenID\",\"type\":\"uint256\"}],\"name\":\"water\",\"outputs\":[{\"internalType\":\"bool\",\"name\":\"\",\"type\":\"bool\"}],\"stateMutability\":\"nonpayable\",\"type\":\"function\"}]);\nvar genesis = genesisContract.deploy({\n     data: '0x60e060405269d3c21bcecceda1000000608090815250670de0b6b3a764000060a0908152503480156200003157600080fd5b5060405162006547380380620065478339818101604052810190620000579190620001cf565b6040518060400160405280600781526020017f47656e65736973000000000000000000000000000000000000000000000000008152506040518060400160405280600381526020017f474e4500000000000000000000000000000000000000000000000000000000008152508160039081620000d491906200047b565b508060049081620000e691906200047b565b50505033600660006101000a81548173ffffffffffffffffffffffffffffffffffffffff021916908373ffffffffffffffffffffffffffffffffffffffff1602179055508073ffffffffffffffffffffffffffffffffffffffff1660c08173ffffffffffffffffffffffffffffffffffffffff16815250505062000562565b600080fd5b600073ffffffffffffffffffffffffffffffffffffffff82169050919050565b600062000197826200016a565b9050919050565b620001a9816200018a565b8114620001b557600080fd5b50565b600081519050620001c9816200019e565b92915050565b600060208284031215620001e857620001e762000165565b5b6000620001f884828501620001b8565b91505092915050565b600081519050919050565b7f4e487b7100000000000000000000000000000000000000000000000000000000600052604160045260246000fd5b7f4e487b7100000000000000000000000000000000000000000000000000000000600052602260045260246000fd5b600060028204905060018216806200028357607f821691505b6020821081036200029957620002986200023b565b5b50919050565b60008190508160005260206000209050919050565b60006020601f8301049050919050565b600082821b905092915050565b600060088302620003037fffffffffffffffffffffffffffffffffffffffffffffffffffffffffffffffff82620002c4565b6200030f8683620002c4565b95508019841693508086168417925050509392505050565b6000819050919050565b6000819050919050565b60006200035c62000356620003508462000327565b62000331565b62000327565b9050919050565b6000819050919050565b62000378836200033b565b62000390620003878262000363565b848454620002d1565b825550505050565b600090565b620003a762000398565b620003b48184846200036d565b505050565b5b81811015620003dc57620003d06000826200039d565b600181019050620003ba565b5050565b601f8211156200042b57620003f5816200029f565b6200040084620002b4565b8101602085101562000410578190505b620004286200041f85620002b4565b830182620003b9565b50505b505050565b600082821c905092915050565b6000620004506000198460080262000430565b1980831691505092915050565b60006200046b83836200043d565b9150826002028217905092915050565b620004868262000201565b67ffffffffffffffff811115620004a257620004a16200020c565b5b620004ae82546200026a565b620004bb828285620003e0565b600060209050601f831160018114620004f35760008415620004de578287015190505b620004ea85826200045d565b8655506200055a565b601f19841662000503866200029f565b60005b828110156200052d5784890151825560018201915060208501945060208101905062000506565b868310156200054d578489015162000549601f8916826200043d565b8355505b6001600288020188555050505b505050505050565b60805160a05160c051615fa7620005a0600039600081816106da01526113e20152600061110e01526000818161071801526114200152615fa76000f3fe60806040523480156200001157600080fd5b50600436106200013c5760003560e01c806370a0823111620000bd578063a9059cbb116200007b578063a9059cbb1462000391578063aea3ee4314620003c7578063c349026314620003fd578063dd62ed3e1462000433578063f2ee634d1462000469576200013c565b806370a0823114620002d55780639427e64a146200030b57806395d89b411462000317578063a457c2d71462000339578063a85292df146200036f576200013c565b806323b872dd116200010b57806323b872dd14620001f1578063313ce567146200022757806339509351146200024957806343a46931146200027f5780636407019c146200029f576200013c565b806306fdde031462000141578063095ea7b3146200016357806318160ddd14620001995780632331a50e14620001bb575b600080fd5b6200014b6200049f565b6040516200015a919062001cdd565b60405180910390f35b6200018160048036038101906200017b919062001db5565b62000539565b60405162000190919062001e19565b60405180910390f35b620001a362000560565b604051620001b2919062001e47565b60405180910390f35b620001d96004803603810190620001d3919062001e64565b6200056a565b604051620001e8919062001f3f565b60405180910390f35b6200020f600480360381019062000209919062001f5c565b620005f1565b6040516200021e919062001e19565b60405180910390f35b6200023162000626565b60405162000240919062001fd6565b60405180910390f35b62000267600480360381019062000261919062001db5565b6200062f565b60405162000276919062001e19565b60405180910390f35b6200029d600480360381019062000297919062002144565b6200066e565b005b620002bd6004803603810190620002b79190620021aa565b620009b2565b604051620002cc919062001e47565b60405180910390f35b620002f36004803603810190620002ed9190620021dc565b62000a60565b60405162000302919062001e47565b60405180910390f35b6200031562000aa8565b005b6200032162000c09565b60405162000330919062001cdd565b60405180910390f35b62000357600480360381019062000351919062001db5565b62000ca3565b60405162000366919062001e19565b60405180910390f35b6200037962000d23565b60405162000388919062001e47565b60405180910390f35b620003af6004803603810190620003a9919062001db5565b62000d2f565b604051620003be919062001e19565b60405180910390f35b620003e56004803603810190620003df9190620021aa565b62000d56565b604051620003f4919062002279565b60405180910390f35b6200041b600480360381019062000415919062001e64565b62000d89565b6040516200042a919062001e19565b60405180910390f35b6200045160048036038101906200044b919062002296565b6200114c565b60405162000460919062001e47565b60405180910390f35b62000487600480360381019062000481919062001e64565b620011d3565b60405162000496919062001e19565b60405180910390f35b606060038054620004b0906200230c565b80601f0160208091040260200160405190810160405280929190818152602001828054620004de906200230c565b80156200052f5780601f1062000503576101008083540402835291602001916200052f565b820191906000526020600020905b8154815290600101906020018083116200051157829003601f168201915b5050505050905090565b6000806200054662001573565b9050620005558185856200157b565b600191505092915050565b6000600254905090565b6200057462001c04565b6008600084815260200190815260200160002060000160008381526020019081526020016000206040518060a0016040529081600082015481526020016001820154815260200160028201548152602001600382015481526020016004820160009054906101000a900460ff161515151581525050905092915050565b600080620005fe62001573565b90506200060d8582856200174c565b6200061a858585620017e0565b60019150509392505050565b60006012905090565b6000806200063c62001573565b9050620006638185856200065185896200114c565b6200065d919062002370565b6200157b565b600191505092915050565b600115156009600084815260200190815260200160002060009054906101000a900460ff16151514620006d8576040517f08c379a0000000000000000000000000000000000000000000000000000000008152600401620006cf90620023fb565b60405180910390fd5b7f000000000000000000000000000000000000000000000000000000000000000073ffffffffffffffffffffffffffffffffffffffff166323b872dd33307f000000000000000000000000000000000000000000000000000000000000000060056200074591906200241d565b6040518463ffffffff1660e01b8152600401620007659392919062002479565b6020604051808303816000875af115801562000785573d6000803e3d6000fd5b505050506040513d601f19601f82011682018060405250810190620007ab9190620024e7565b620007ed576040517f08c379a0000000000000000000000000000000000000000000000000000000008152600401620007e49062002569565b60405180910390fd5b60006007600084815260200190815260200160002060009054906101000a900473ffffffffffffffffffffffffffffffffffffffff1690508073ffffffffffffffffffffffffffffffffffffffff1663d204c45e33846040518363ffffffff1660e01b8152600401620008629291906200258b565b600060405180830381600087803b1580156200087d57600080fd5b505af115801562000892573d6000803e3d6000fd5b5050505060008173ffffffffffffffffffffffffffffffffffffffff166398bdf6f56040518163ffffffff1660e01b8152600401602060405180830381865afa158015620008e4573d6000803e3d6000fd5b505050506040513d601f19601f820116820180604052508101906200090a9190620025d6565b90506040518060a0016040528060008152602001600081526020016000815260200160008152602001600115158152506008600086815260200190815260200160002060000160008381526020019081526020016000206000820151816000015560208201518160010155604082015181600201556060820151816003015560808201518160040160006101000a81548160ff02191690831515021790555090505050505050565b60006007600083815260200190815260200160002060009054906101000a900473ffffffffffffffffffffffffffffffffffffffff1673ffffffffffffffffffffffffffffffffffffffff166398bdf6f56040518163ffffffff1660e01b8152600401602060405180830381865afa15801562000a33573d6000803e3d6000fd5b505050506040513d601f19601f8201168201806040525081019062000a599190620025d6565b9050919050565b60008060008373ffffffffffffffffffffffffffffffffffffffff1673ffffffffffffffffffffffffffffffffffffffff168152602001908152602001600020549050919050565b600660009054906101000a900473ffffffffffffffffffffffffffffffffffffffff1673ffffffffffffffffffffffffffffffffffffffff163373ffffffffffffffffffffffffffffffffffffffff161462000b3b576040517f08c379a000000000000000000000000000000000000000000000000000000000815260040162000b329062002658565b60405180910390fd5b62000b47600562001a65565b600062000b55600562001a7b565b9050600060405162000b679062001c35565b604051809103906000f08015801562000b84573d6000803e3d6000fd5b509050806007600084815260200190815260200160002060006101000a81548173ffffffffffffffffffffffffffffffffffffffff021916908373ffffffffffffffffffffffffffffffffffffffff16021790555060016009600084815260200190815260200160002060006101000a81548160ff0219169083151502179055505050565b60606004805462000c1a906200230c565b80601f016020809104026020016040519081016040528092919081815260200182805462000c48906200230c565b801562000c995780601f1062000c6d5761010080835404028352916020019162000c99565b820191906000526020600020905b81548152906001019060200180831162000c7b57829003601f168201915b5050505050905090565b60008062000cb062001573565b9050600062000cc082866200114c565b90508381101562000d08576040517f08c379a000000000000000000000000000000000000000000000000000000000815260040162000cff90620026f0565b60405180910390fd5b62000d1782868684036200157b565b60019250505092915050565b60058060000154905081565b60008062000d3c62001573565b905062000d4b818585620017e0565b600191505092915050565b60076020528060005260406000206000915054906101000a900473ffffffffffffffffffffffffffffffffffffffff1681565b6000600115156009600085815260200190815260200160002060009054906101000a900460ff1615151462000df5576040517f08c379a000000000000000000000000000000000000000000000000000000000815260040162000dec9062002762565b60405180910390fd5b60086000848152602001908152602001600020600001600083815260200190815260200160002060040160009054906101000a900460ff1662000e6f576040517f08c379a000000000000000000000000000000000000000000000000000000000815260040162000e6690620027d4565b60405180910390fd5b60006007600085815260200190815260200160002060009054906101000a900473ffffffffffffffffffffffffffffffffffffffff1690503373ffffffffffffffffffffffffffffffffffffffff168173ffffffffffffffffffffffffffffffffffffffff16636352211e856040518263ffffffff1660e01b815260040162000ef9919062001e47565b602060405180830381865afa15801562000f17573d6000803e3d6000fd5b505050506040513d601f19601f8201168201806040525081019062000f3d91906200280d565b73ffffffffffffffffffffffffffffffffffffffff161462000f96576040517f08c379a000000000000000000000000000000000000000000000000000000000815260040162000f8d906200288f565b60405180910390fd5b61a8c0600860008681526020019081526020016000206000016000858152602001908152602001600020600001544262000fd19190620028b1565b111562001015576040517f08c379a00000000000000000000000000000000000000000000000000000000081526004016200100c906200293c565b60405180910390fd5b620151806008600086815260200190815260200160002060000160008581526020019081526020016000206001015442620010519190620028b1565b1162001094576040517f08c379a00000000000000000000000000000000000000000000000000000000081526004016200108b90620029ae565b60405180910390fd5b42600860008681526020019081526020016000206000016000858152602001908152602001600020600101819055506005600860008681526020019081526020016000206000016000858152602001908152602001600020600301600082825462001100919062002370565b9250508190555062001141337f000000000000000000000000000000000000000000000000000000000000000060056200113b91906200241d565b62001a89565b600191505092915050565b6000600160008473ffffffffffffffffffffffffffffffffffffffff1673ffffffffffffffffffffffffffffffffffffffff16815260200190815260200160002060008373ffffffffffffffffffffffffffffffffffffffff1673ffffffffffffffffffffffffffffffffffffffff16815260200190815260200160002054905092915050565b6000600115156009600085815260200190815260200160002060009054906101000a900460ff161515146200123f576040517f08c379a00000000000000000000000000000000000000000000000000000000081526004016200123690620023fb565b60405180910390fd5b60086000848152602001908152602001600020600001600083815260200190815260200160002060040160009054906101000a900460ff16620012b9576040517f08c379a0000000000000000000000000000000000000000000000000000000008152600401620012b090620027d4565b60405180910390fd5b60006007600085815260200190815260200160002060009054906101000a900473ffffffffffffffffffffffffffffffffffffffff1690503373ffffffffffffffffffffffffffffffffffffffff168173ffffffffffffffffffffffffffffffffffffffff16636352211e856040518263ffffffff1660e01b815260040162001343919062001e47565b602060405180830381865afa15801562001361573d6000803e3d6000fd5b505050506040513d601f19601f820116820180604052508101906200138791906200280d565b73ffffffffffffffffffffffffffffffffffffffff1614620013e0576040517f08c379a0000000000000000000000000000000000000000000000000000000008152600401620013d7906200288f565b60405180910390fd5b7f000000000000000000000000000000000000000000000000000000000000000073ffffffffffffffffffffffffffffffffffffffff166323b872dd33307f000000000000000000000000000000000000000000000000000000000000000060016200144d91906200241d565b6040518463ffffffff1660e01b81526004016200146d9392919062002479565b6020604051808303816000875af11580156200148d573d6000803e3d6000fd5b505050506040513d601f19601f82011682018060405250810190620014b39190620024e7565b620014f5576040517f08c379a0000000000000000000000000000000000000000000000000000000008152600401620014ec9062002569565b60405180910390fd5b42600860008681526020019081526020016000206000016000858152602001908152602001600020600001819055506001600860008681526020019081526020016000206000016000858152602001908152602001600020600201600082825462001561919062002370565b92505081905550600191505092915050565b600033905090565b600073ffffffffffffffffffffffffffffffffffffffff168373ffffffffffffffffffffffffffffffffffffffff1603620015ed576040517f08c379a0000000000000000000000000000000000000000000000000000000008152600401620015e49062002a46565b60405180910390fd5b600073ffffffffffffffffffffffffffffffffffffffff168273ffffffffffffffffffffffffffffffffffffffff16036200165f576040517f08c379a0000000000000000000000000000000000000000000000000000000008152600401620016569062002ade565b60405180910390fd5b80600160008573ffffffffffffffffffffffffffffffffffffffff1673ffffffffffffffffffffffffffffffffffffffff16815260200190815260200160002060008473ffffffffffffffffffffffffffffffffffffffff1673ffffffffffffffffffffffffffffffffffffffff168152602001908152602001600020819055508173ffffffffffffffffffffffffffffffffffffffff168373ffffffffffffffffffffffffffffffffffffffff167f8c5be1e5ebec7d5bd14f71427d1e84f3dd0314c0f7b2291e5b200ac8c7c3b925836040516200173f919062001e47565b60405180910390a3505050565b60006200175a84846200114c565b90507fffffffffffffffffffffffffffffffffffffffffffffffffffffffffffffffff8114620017da5781811015620017ca576040517f08c379a0000000000000000000000000000000000000000000000000000000008152600401620017c19062002b50565b60405180910390fd5b620017d984848484036200157b565b5b50505050565b600073ffffffffffffffffffffffffffffffffffffffff168373ffffffffffffffffffffffffffffffffffffffff160362001852576040517f08c379a0000000000000000000000000000000000000000000000000000000008152600401620018499062002be8565b60405180910390fd5b600073ffffffffffffffffffffffffffffffffffffffff168273ffffffffffffffffffffffffffffffffffffffff1603620018c4576040517f08c379a0000000000000000000000000000000000000000000000000000000008152600401620018bb9062002c80565b60405180910390fd5b620018d183838362001a99565b60008060008573ffffffffffffffffffffffffffffffffffffffff1673ffffffffffffffffffffffffffffffffffffffff168152602001908152602001600020549050818110156200195a576040517f08c379a0000000000000000000000000000000000000000000000000000000008152600401620019519062002d18565b60405180910390fd5b8181036000808673ffffffffffffffffffffffffffffffffffffffff1673ffffffffffffffffffffffffffffffffffffffff16815260200190815260200160002081905550816000808573ffffffffffffffffffffffffffffffffffffffff1673ffffffffffffffffffffffffffffffffffffffff168152602001908152602001600020600082825401925050819055508273ffffffffffffffffffffffffffffffffffffffff168473ffffffffffffffffffffffffffffffffffffffff167fddf252ad1be2c89b69c2b068fc378daa952ba7f163c4a11628f55a4df523b3ef8460405162001a4a919062001e47565b60405180910390a362001a5f84848462001a9e565b50505050565b6001816000016000828254019250508190555050565b600081600001549050919050565b62001a95828262001aa3565b5050565b505050565b505050565b600073ffffffffffffffffffffffffffffffffffffffff168273ffffffffffffffffffffffffffffffffffffffff160362001b15576040517f08c379a000000000000000000000000000000000000000000000000000000000815260040162001b0c9062002d8a565b60405180910390fd5b62001b236000838362001a99565b806002600082825462001b37919062002370565b92505081905550806000808473ffffffffffffffffffffffffffffffffffffffff1673ffffffffffffffffffffffffffffffffffffffff168152602001908152602001600020600082825401925050819055508173ffffffffffffffffffffffffffffffffffffffff16600073ffffffffffffffffffffffffffffffffffffffff167fddf252ad1be2c89b69c2b068fc378daa952ba7f163c4a11628f55a4df523b3ef8360405162001bea919062001e47565b60405180910390a362001c006000838362001a9e565b5050565b6040518060a00160405280600081526020016000815260200160008152602001600081526020016000151581525090565b6131c58062002dad83390190565b600081519050919050565b600082825260208201905092915050565b60005b8381101562001c7f57808201518184015260208101905062001c62565b60008484015250505050565b6000601f19601f8301169050919050565b600062001ca98262001c43565b62001cb5818562001c4e565b935062001cc781856020860162001c5f565b62001cd28162001c8b565b840191505092915050565b6000602082019050818103600083015262001cf9818462001c9c565b905092915050565b6000604051905090565b600080fd5b600080fd5b600073ffffffffffffffffffffffffffffffffffffffff82169050919050565b600062001d428262001d15565b9050919050565b62001d548162001d35565b811462001d6057600080fd5b50565b60008135905062001d748162001d49565b92915050565b6000819050919050565b62001d8f8162001d7a565b811462001d9b57600080fd5b50565b60008135905062001daf8162001d84565b92915050565b6000806040838503121562001dcf5762001dce62001d0b565b5b600062001ddf8582860162001d63565b925050602062001df28582860162001d9e565b9150509250929050565b60008115159050919050565b62001e138162001dfc565b82525050565b600060208201905062001e30600083018462001e08565b92915050565b62001e418162001d7a565b82525050565b600060208201905062001e5e600083018462001e36565b92915050565b6000806040838503121562001e7e5762001e7d62001d0b565b5b600062001e8e8582860162001d9e565b925050602062001ea18582860162001d9e565b9150509250929050565b62001eb68162001d7a565b82525050565b62001ec78162001dfc565b82525050565b60a08201600082015162001ee5600085018262001eab565b50602082015162001efa602085018262001eab565b50604082015162001f0f604085018262001eab565b50606082015162001f24606085018262001eab565b50608082015162001f39608085018262001ebc565b50505050565b600060a08201905062001f56600083018462001ecd565b92915050565b60008060006060848603121562001f785762001f7762001d0b565b5b600062001f888682870162001d63565b935050602062001f9b8682870162001d63565b925050604062001fae8682870162001d9e565b9150509250925092565b600060ff82169050919050565b62001fd08162001fb8565b82525050565b600060208201905062001fed600083018462001fc5565b92915050565b600080fd5b600080fd5b7f4e487b7100000000000000000000000000000000000000000000000000000000600052604160045260246000fd5b620020378262001c8b565b810181811067ffffffffffffffff8211171562002059576200205862001ffd565b5b80604052505050565b60006200206e62001d01565b90506200207c82826200202c565b919050565b600067ffffffffffffffff8211156200209f576200209e62001ffd565b5b620020aa8262001c8b565b9050602081019050919050565b82818337600083830152505050565b6000620020dd620020d78462002081565b62002062565b905082815260208101848484011115620020fc57620020fb62001ff8565b5b62002109848285620020b7565b509392505050565b600082601f83011262002129576200212862001ff3565b5b81356200213b848260208601620020c6565b91505092915050565b600080604083850312156200215e576200215d62001d0b565b5b60006200216e8582860162001d9e565b925050602083013567ffffffffffffffff81111562002192576200219162001d10565b5b620021a08582860162002111565b9150509250929050565b600060208284031215620021c357620021c262001d0b565b5b6000620021d38482850162001d9e565b91505092915050565b600060208284031215620021f557620021f462001d0b565b5b6000620022058482850162001d63565b91505092915050565b6000819050919050565b600062002239620022336200222d8462001d15565b6200220e565b62001d15565b9050919050565b60006200224d8262002218565b9050919050565b6000620022618262002240565b9050919050565b620022738162002254565b82525050565b600060208201905062002290600083018462002268565b92915050565b60008060408385031215620022b057620022af62001d0b565b5b6000620022c08582860162001d63565b9250506020620022d38582860162001d63565b9150509250929050565b7f4e487b7100000000000000000000000000000000000000000000000000000000600052602260045260246000fd5b600060028204905060018216806200232557607f821691505b6020821081036200233b576200233a620022dd565b5b50919050565b7f4e487b7100000000000000000000000000000000000000000000000000000000600052601160045260246000fd5b60006200237d8262001d7a565b91506200238a8362001d7a565b9250828201905080821115620023a557620023a462002341565b5b92915050565b7f436f6c6c656374696f6e206973206e6f7420796574206d696e74656421000000600082015250565b6000620023e3601d8362001c4e565b9150620023f082620023ab565b602082019050919050565b600060208201905081810360008301526200241681620023d4565b9050919050565b60006200242a8262001d7a565b9150620024378362001d7a565b9250828202620024478162001d7a565b9150828204841483151762002461576200246062002341565b5b5092915050565b620024738162001d35565b82525050565b600060608201905062002490600083018662002468565b6200249f602083018562002468565b620024ae604083018462001e36565b949350505050565b620024c18162001dfc565b8114620024cd57600080fd5b50565b600081519050620024e181620024b6565b92915050565b6000602082840312156200250057620024ff62001d0b565b5b60006200251084828501620024d0565b91505092915050565b7f53544e4541523a207472616e7366657246726f6d206661696c65640000000000600082015250565b600062002551601b8362001c4e565b91506200255e8262002519565b602082019050919050565b60006020820190508181036000830152620025848162002542565b9050919050565b6000604082019050620025a2600083018562002468565b8181036020830152620025b6818462001c9c565b90509392505050565b600081519050620025d08162001d84565b92915050565b600060208284031215620025ef57620025ee62001d0b565b5b6000620025ff84828501620025bf565b91505092915050565b7f4e6f706521000000000000000000000000000000000000000000000000000000600082015250565b60006200264060058362001c4e565b91506200264d8262002608565b602082019050919050565b60006020820190508181036000830152620026738162002631565b9050919050565b7f45524332303a2064656372656173656420616c6c6f77616e63652062656c6f7760008201527f207a65726f000000000000000000000000000000000000000000000000000000602082015250565b6000620026d860258362001c4e565b9150620026e5826200267a565b604082019050919050565b600060208201905081810360008301526200270b81620026c9565b9050919050565b7f436f6c6c656374696f6e206973206e6f7420796574206d696e74656400000000600082015250565b60006200274a601c8362001c4e565b9150620027578262002712565b602082019050919050565b600060208201905081810360008301526200277d816200273b565b9050919050565b7f5472656520646f6573206e6f7420657869737400000000000000000000000000600082015250565b6000620027bc60138362001c4e565b9150620027c98262002784565b602082019050919050565b60006020820190508181036000830152620027ef81620027ad565b9050919050565b600081519050620028078162001d49565b92915050565b60006020828403121562002826576200282562001d0b565b5b60006200283684828501620027f6565b91505092915050565b7f596f7520617265206e6f7420746865206f776e65720000000000000000000000600082015250565b60006200287760158362001c4e565b915062002884826200283f565b602082019050919050565b60006020820190508181036000830152620028aa8162002868565b9050919050565b6000620028be8262001d7a565b9150620028cb8362001d7a565b9250828203905081811115620028e657620028e562002341565b5b92915050565b7f5761746572204669727374000000000000000000000000000000000000000000600082015250565b600062002924600b8362001c4e565b91506200293182620028ec565b602082019050919050565b60006020820190508181036000830152620029578162002915565b9050919050565b7f43616e277420436c61696d000000000000000000000000000000000000000000600082015250565b600062002996600b8362001c4e565b9150620029a3826200295e565b602082019050919050565b60006020820190508181036000830152620029c98162002987565b9050919050565b7f45524332303a20617070726f76652066726f6d20746865207a65726f2061646460008201527f7265737300000000000000000000000000000000000000000000000000000000602082015250565b600062002a2e60248362001c4e565b915062002a3b82620029d0565b604082019050919050565b6000602082019050818103600083015262002a618162002a1f565b9050919050565b7f45524332303a20617070726f766520746f20746865207a65726f20616464726560008201527f7373000000000000000000000000000000000000000000000000000000000000602082015250565b600062002ac660228362001c4e565b915062002ad38262002a68565b604082019050919050565b6000602082019050818103600083015262002af98162002ab7565b9050919050565b7f45524332303a20696e73756666696369656e7420616c6c6f77616e6365000000600082015250565b600062002b38601d8362001c4e565b915062002b458262002b00565b602082019050919050565b6000602082019050818103600083015262002b6b8162002b29565b9050919050565b7f45524332303a207472616e736665722066726f6d20746865207a65726f20616460008201527f6472657373000000000000000000000000000000000000000000000000000000602082015250565b600062002bd060258362001c4e565b915062002bdd8262002b72565b604082019050919050565b6000602082019050818103600083015262002c038162002bc1565b9050919050565b7f45524332303a207472616e7366657220746f20746865207a65726f206164647260008201527f6573730000000000000000000000000000000000000000000000000000000000602082015250565b600062002c6860238362001c4e565b915062002c758262002c0a565b604082019050919050565b6000602082019050818103600083015262002c9b8162002c59565b9050919050565b7f45524332303a207472616e7366657220616d6f756e742065786365656473206260008201527f616c616e63650000000000000000000000000000000000000000000000000000602082015250565b600062002d0060268362001c4e565b915062002d0d8262002ca2565b604082019050919050565b6000602082019050818103600083015262002d338162002cf1565b9050919050565b7f45524332303a206d696e7420746f20746865207a65726f206164647265737300600082015250565b600062002d72601f8362001c4e565b915062002d7f8262002d3a565b602082019050919050565b6000602082019050818103600083015262002da58162002d63565b905091905056fe60806040523480156200001157600080fd5b506040518060400160405280600781526020017f47656e65736973000000000000000000000000000000000000000000000000008152506040518060400160405280600381526020017f474e45000000000000000000000000000000000000000000000000000000000081525081600090816200008f919062000365565b508060019081620000a1919062000365565b50505033600760006101000a81548173ffffffffffffffffffffffffffffffffffffffff021916908373ffffffffffffffffffffffffffffffffffffffff1602179055506200044c565b600081519050919050565b7f4e487b7100000000000000000000000000000000000000000000000000000000600052604160045260246000fd5b7f4e487b7100000000000000000000000000000000000000000000000000000000600052602260045260246000fd5b600060028204905060018216806200016d57607f821691505b60208210810362000183576200018262000125565b5b50919050565b60008190508160005260206000209050919050565b60006020601f8301049050919050565b600082821b905092915050565b600060088302620001ed7fffffffffffffffffffffffffffffffffffffffffffffffffffffffffffffffff82620001ae565b620001f98683620001ae565b95508019841693508086168417925050509392505050565b6000819050919050565b6000819050919050565b600062000246620002406200023a8462000211565b6200021b565b62000211565b9050919050565b6000819050919050565b620002628362000225565b6200027a62000271826200024d565b848454620001bb565b825550505050565b600090565b6200029162000282565b6200029e81848462000257565b505050565b5b81811015620002c657620002ba60008262000287565b600181019050620002a4565b5050565b601f8211156200031557620002df8162000189565b620002ea846200019e565b81016020851015620002fa578190505b6200031262000309856200019e565b830182620002a3565b50505b505050565b600082821c905092915050565b60006200033a600019846008026200031a565b1980831691505092915050565b600062000355838362000327565b9150826002028217905092915050565b6200037082620000eb565b67ffffffffffffffff8111156200038c576200038b620000f6565b5b62000398825462000154565b620003a5828285620002ca565b600060209050601f831160018114620003dd5760008415620003c8578287015190505b620003d4858262000347565b86555062000444565b601f198416620003ed8662000189565b60005b828110156200041757848901518255600182019150602085019450602081019050620003f0565b8683101562000437578489015162000433601f89168262000327565b8355505b6001600288020188555050505b505050505050565b612d69806200045c6000396000f3fe608060405234801561001057600080fd5b50600436106100f55760003560e01c806370a0823111610097578063b88d4fde11610066578063b88d4fde14610284578063c87b56dd146102a0578063d204c45e146102d0578063e985e9c5146102ec576100f5565b806370a08231146101fc57806395d89b411461022c57806398bdf6f51461024a578063a22cb46514610268576100f5565b8063095ea7b3116100d3578063095ea7b31461017857806323b872dd1461019457806342842e0e146101b05780636352211e146101cc576100f5565b806301ffc9a7146100fa57806306fdde031461012a578063081812fc14610148575b600080fd5b610114600480360381019061010f9190611b5a565b61031c565b6040516101219190611ba2565b60405180910390f35b61013261032e565b60405161013f9190611c4d565b60405180910390f35b610162600480360381019061015d9190611ca5565b6103c0565b60405161016f9190611d13565b60405180910390f35b610192600480360381019061018d9190611d5a565b610406565b005b6101ae60048036038101906101a99190611d9a565b61051d565b005b6101ca60048036038101906101c59190611d9a565b61057d565b005b6101e660048036038101906101e19190611ca5565b61059d565b6040516101f39190611d13565b60405180910390f35b61021660048036038101906102119190611ded565b610623565b6040516102239190611e29565b60405180910390f35b6102346106da565b6040516102419190611c4d565b60405180910390f35b61025261076c565b60405161025f9190611e29565b60405180910390f35b610282600480360381019061027d9190611e70565b610778565b005b61029e60048036038101906102999190611fe5565b61078e565b005b6102ba60048036038101906102b59190611ca5565b6107f0565b6040516102c79190611c4d565b60405180910390f35b6102ea60048036038101906102e59190612109565b610802565b005b61030660048036038101906103019190612165565b610907565b6040516103139190611ba2565b60405180910390f35b60006103278261099b565b9050919050565b60606000805461033d906121d4565b80601f0160208091040260200160405190810160405280929190818152602001828054610369906121d4565b80156103b65780601f1061038b576101008083540402835291602001916103b6565b820191906000526020600020905b81548152906001019060200180831161039957829003601f168201915b5050505050905090565b60006103cb826109fc565b6004600083815260200190815260200160002060009054906101000a900473ffffffffffffffffffffffffffffffffffffffff169050919050565b60006104118261059d565b90508073ffffffffffffffffffffffffffffffffffffffff168373ffffffffffffffffffffffffffffffffffffffff1603610481576040517f08c379a000000000000000000000000000000000000000000000000000000000815260040161047890612277565b60405180910390fd5b8073ffffffffffffffffffffffffffffffffffffffff166104a0610a47565b73ffffffffffffffffffffffffffffffffffffffff1614806104cf57506104ce816104c9610a47565b610907565b5b61050e576040517f08c379a000000000000000000000000000000000000000000000000000000000815260040161050590612309565b60405180910390fd5b6105188383610a4f565b505050565b61052e610528610a47565b82610b08565b61056d576040517f08c379a00000000000000000000000000000000000000000000000000000000081526004016105649061239b565b60405180910390fd5b610578838383610b9d565b505050565b6105988383836040518060200160405280600081525061078e565b505050565b6000806105a983610e96565b9050600073ffffffffffffffffffffffffffffffffffffffff168173ffffffffffffffffffffffffffffffffffffffff160361061a576040517f08c379a000000000000000000000000000000000000000000000000000000000815260040161061190612407565b60405180910390fd5b80915050919050565b60008073ffffffffffffffffffffffffffffffffffffffff168273ffffffffffffffffffffffffffffffffffffffff1603610693576040517f08c379a000000000000000000000000000000000000000000000000000000000815260040161068a90612499565b60405180910390fd5b600360008373ffffffffffffffffffffffffffffffffffffffff1673ffffffffffffffffffffffffffffffffffffffff168152602001908152602001600020549050919050565b6060600180546106e9906121d4565b80601f0160208091040260200160405190810160405280929190818152602001828054610715906121d4565b80156107625780601f1061073757610100808354040283529160200191610762565b820191906000526020600020905b81548152906001019060200180831161074557829003601f168201915b5050505050905090565b60088060000154905081565b61078a610783610a47565b8383610ed3565b5050565b61079f610799610a47565b83610b08565b6107de576040517f08c379a00000000000000000000000000000000000000000000000000000000081526004016107d59061239b565b60405180910390fd5b6107ea8484848461103f565b50505050565b60606107fb8261109b565b9050919050565b600760009054906101000a900473ffffffffffffffffffffffffffffffffffffffff1673ffffffffffffffffffffffffffffffffffffffff163373ffffffffffffffffffffffffffffffffffffffff1614610892576040517f08c379a000000000000000000000000000000000000000000000000000000000815260040161088990612505565b60405180910390fd5b61089c60086111ad565b60006108a860086111c3565b9050601e8111156108ee576040517f08c379a00000000000000000000000000000000000000000000000000000000081526004016108e590612597565b60405180910390fd5b6108f883826111d1565b61090281836111ef565b505050565b6000600560008473ffffffffffffffffffffffffffffffffffffffff1673ffffffffffffffffffffffffffffffffffffffff16815260200190815260200160002060008373ffffffffffffffffffffffffffffffffffffffff1673ffffffffffffffffffffffffffffffffffffffff16815260200190815260200160002060009054906101000a900460ff16905092915050565b6000634906490660e01b7bffffffffffffffffffffffffffffffffffffffffffffffffffffffff1916827bffffffffffffffffffffffffffffffffffffffffffffffffffffffff191614806109f557506109f482611293565b5b9050919050565b610a0581611375565b610a44576040517f08c379a0000000000000000000000000000000000000000000000000000000008152600401610a3b90612407565b60405180910390fd5b50565b600033905090565b816004600083815260200190815260200160002060006101000a81548173ffffffffffffffffffffffffffffffffffffffff021916908373ffffffffffffffffffffffffffffffffffffffff160217905550808273ffffffffffffffffffffffffffffffffffffffff16610ac28361059d565b73ffffffffffffffffffffffffffffffffffffffff167f8c5be1e5ebec7d5bd14f71427d1e84f3dd0314c0f7b2291e5b200ac8c7c3b92560405160405180910390a45050565b600080610b148361059d565b90508073ffffffffffffffffffffffffffffffffffffffff168473ffffffffffffffffffffffffffffffffffffffff161480610b565750610b558185610907565b5b80610b9457508373ffffffffffffffffffffffffffffffffffffffff16610b7c846103c0565b73ffffffffffffffffffffffffffffffffffffffff16145b91505092915050565b8273ffffffffffffffffffffffffffffffffffffffff16610bbd8261059d565b73ffffffffffffffffffffffffffffffffffffffff1614610c13576040517f08c379a0000000000000000000000000000000000000000000000000000000008152600401610c0a90612629565b60405180910390fd5b600073ffffffffffffffffffffffffffffffffffffffff168273ffffffffffffffffffffffffffffffffffffffff1603610c82576040517f08c379a0000000000000000000000000000000000000000000000000000000008152600401610c79906126bb565b60405180910390fd5b610c8f83838360016113b6565b8273ffffffffffffffffffffffffffffffffffffffff16610caf8261059d565b73ffffffffffffffffffffffffffffffffffffffff1614610d05576040517f08c379a0000000000000000000000000000000000000000000000000000000008152600401610cfc90612629565b60405180910390fd5b6004600082815260200190815260200160002060006101000a81549073ffffffffffffffffffffffffffffffffffffffff02191690556001600360008573ffffffffffffffffffffffffffffffffffffffff1673ffffffffffffffffffffffffffffffffffffffff168152602001908152602001600020600082825403925050819055506001600360008473ffffffffffffffffffffffffffffffffffffffff1673ffffffffffffffffffffffffffffffffffffffff16815260200190815260200160002060008282540192505081905550816002600083815260200190815260200160002060006101000a81548173ffffffffffffffffffffffffffffffffffffffff021916908373ffffffffffffffffffffffffffffffffffffffff160217905550808273ffffffffffffffffffffffffffffffffffffffff168473ffffffffffffffffffffffffffffffffffffffff167fddf252ad1be2c89b69c2b068fc378daa952ba7f163c4a11628f55a4df523b3ef60405160405180910390a4610e9183838360016113bc565b505050565b60006002600083815260200190815260200160002060009054906101000a900473ffffffffffffffffffffffffffffffffffffffff169050919050565b8173ffffffffffffffffffffffffffffffffffffffff168373ffffffffffffffffffffffffffffffffffffffff1603610f41576040517f08c379a0000000000000000000000000000000000000000000000000000000008152600401610f3890612727565b60405180910390fd5b80600560008573ffffffffffffffffffffffffffffffffffffffff1673ffffffffffffffffffffffffffffffffffffffff16815260200190815260200160002060008473ffffffffffffffffffffffffffffffffffffffff1673ffffffffffffffffffffffffffffffffffffffff16815260200190815260200160002060006101000a81548160ff0219169083151502179055508173ffffffffffffffffffffffffffffffffffffffff168373ffffffffffffffffffffffffffffffffffffffff167f17307eab39ab6107e8899845ad3d59bd9653f200f220920489ca2b5937696c31836040516110329190611ba2565b60405180910390a3505050565b61104a848484610b9d565b611056848484846113c2565b611095576040517f08c379a000000000000000000000000000000000000000000000000000000000815260040161108c906127b9565b60405180910390fd5b50505050565b60606110a6826109fc565b60006006600084815260200190815260200160002080546110c6906121d4565b80601f01602080910402602001604051908101604052809291908181526020018280546110f2906121d4565b801561113f5780601f106111145761010080835404028352916020019161113f565b820191906000526020600020905b81548152906001019060200180831161112257829003601f168201915b505050505090506000611150611549565b905060008151036111655781925050506111a8565b60008251111561119a578082604051602001611182929190612815565b604051602081830303815290604052925050506111a8565b6111a384611560565b925050505b919050565b6001816000016000828254019250508190555050565b600081600001549050919050565b6111eb8282604051806020016040528060008152506115c8565b5050565b6111f882611375565b611237576040517f08c379a000000000000000000000000000000000000000000000000000000000815260040161122e906128ab565b60405180910390fd5b806006600084815260200190815260200160002090816112579190612a77565b507ff8e1a15aba9398e019f0b49df1a4fde98ee17ae345cb5f6b5e2c27f5033e8ce7826040516112879190611e29565b60405180910390a15050565b60007f80ac58cd000000000000000000000000000000000000000000000000000000007bffffffffffffffffffffffffffffffffffffffffffffffffffffffff1916827bffffffffffffffffffffffffffffffffffffffffffffffffffffffff1916148061135e57507f5b5e139f000000000000000000000000000000000000000000000000000000007bffffffffffffffffffffffffffffffffffffffffffffffffffffffff1916827bffffffffffffffffffffffffffffffffffffffffffffffffffffffff1916145b8061136e575061136d82611623565b5b9050919050565b60008073ffffffffffffffffffffffffffffffffffffffff1661139783610e96565b73ffffffffffffffffffffffffffffffffffffffff1614159050919050565b50505050565b50505050565b60006113e38473ffffffffffffffffffffffffffffffffffffffff1661168d565b1561153c578373ffffffffffffffffffffffffffffffffffffffff1663150b7a0261140c610a47565b8786866040518563ffffffff1660e01b815260040161142e9493929190612b9e565b6020604051808303816000875af192505050801561146a57506040513d601f19601f820116820180604052508101906114679190612bff565b60015b6114ec573d806000811461149a576040519150601f19603f3d011682016040523d82523d6000602084013e61149f565b606091505b5060008151036114e4576040517f08c379a00000000000000000000000000000000000000000000000000000000081526004016114db906127b9565b60405180910390fd5b805181602001fd5b63150b7a0260e01b7bffffffffffffffffffffffffffffffffffffffffffffffffffffffff1916817bffffffffffffffffffffffffffffffffffffffffffffffffffffffff191614915050611541565b600190505b949350505050565b606060405180602001604052806000815250905090565b606061156b826109fc565b6000611575611549565b9050600081511161159557604051806020016040528060008152506115c0565b8061159f846116b0565b6040516020016115b0929190612815565b6040516020818303038152906040525b915050919050565b6115d2838361177e565b6115df60008484846113c2565b61161e576040517f08c379a0000000000000000000000000000000000000000000000000000000008152600401611615906127b9565b60405180910390fd5b505050565b60007f01ffc9a7000000000000000000000000000000000000000000000000000000007bffffffffffffffffffffffffffffffffffffffffffffffffffffffff1916827bffffffffffffffffffffffffffffffffffffffffffffffffffffffff1916149050919050565b6000808273ffffffffffffffffffffffffffffffffffffffff163b119050919050565b6060600060016116bf8461199b565b01905060008167ffffffffffffffff8111156116de576116dd611eba565b5b6040519080825280601f01601f1916602001820160405280156117105781602001600182028036833780820191505090505b509050600082602001820190505b600115611773578080600190039150507f3031323334353637383961626364656600000000000000000000000000000000600a86061a8153600a858161176757611766612c2c565b5b0494506000850361171e575b819350505050919050565b600073ffffffffffffffffffffffffffffffffffffffff168273ffffffffffffffffffffffffffffffffffffffff16036117ed576040517f08c379a00000000000000000000000000000000000000000000000000000000081526004016117e490612ca7565b60405180910390fd5b6117f681611375565b15611836576040517f08c379a000000000000000000000000000000000000000000000000000000000815260040161182d90612d13565b60405180910390fd5b6118446000838360016113b6565b61184d81611375565b1561188d576040517f08c379a000000000000000000000000000000000000000000000000000000000815260040161188490612d13565b60405180910390fd5b6001600360008473ffffffffffffffffffffffffffffffffffffffff1673ffffffffffffffffffffffffffffffffffffffff16815260200190815260200160002060008282540192505081905550816002600083815260200190815260200160002060006101000a81548173ffffffffffffffffffffffffffffffffffffffff021916908373ffffffffffffffffffffffffffffffffffffffff160217905550808273ffffffffffffffffffffffffffffffffffffffff16600073ffffffffffffffffffffffffffffffffffffffff167fddf252ad1be2c89b69c2b068fc378daa952ba7f163c4a11628f55a4df523b3ef60405160405180910390a46119976000838360016113bc565b5050565b600080600090507a184f03e93ff9f4daa797ed6e38ed64bf6a1f01000000000000000083106119f9577a184f03e93ff9f4daa797ed6e38ed64bf6a1f01000000000000000083816119ef576119ee612c2c565b5b0492506040810190505b6d04ee2d6d415b85acef81000000008310611a36576d04ee2d6d415b85acef81000000008381611a2c57611a2b612c2c565b5b0492506020810190505b662386f26fc100008310611a6557662386f26fc100008381611a5b57611a5a612c2c565b5b0492506010810190505b6305f5e1008310611a8e576305f5e1008381611a8457611a83612c2c565b5b0492506008810190505b6127108310611ab3576127108381611aa957611aa8612c2c565b5b0492506004810190505b60648310611ad65760648381611acc57611acb612c2c565b5b0492506002810190505b600a8310611ae5576001810190505b80915050919050565b6000604051905090565b600080fd5b600080fd5b60007fffffffff0000000000000000000000000000000000000000000000000000000082169050919050565b611b3781611b02565b8114611b4257600080fd5b50565b600081359050611b5481611b2e565b92915050565b600060208284031215611b7057611b6f611af8565b5b6000611b7e84828501611b45565b91505092915050565b60008115159050919050565b611b9c81611b87565b82525050565b6000602082019050611bb76000830184611b93565b92915050565b600081519050919050565b600082825260208201905092915050565b60005b83811015611bf7578082015181840152602081019050611bdc565b60008484015250505050565b6000601f19601f8301169050919050565b6000611c1f82611bbd565b611c298185611bc8565b9350611c39818560208601611bd9565b611c4281611c03565b840191505092915050565b60006020820190508181036000830152611c678184611c14565b905092915050565b6000819050919050565b611c8281611c6f565b8114611c8d57600080fd5b50565b600081359050611c9f81611c79565b92915050565b600060208284031215611cbb57611cba611af8565b5b6000611cc984828501611c90565b91505092915050565b600073ffffffffffffffffffffffffffffffffffffffff82169050919050565b6000611cfd82611cd2565b9050919050565b611d0d81611cf2565b82525050565b6000602082019050611d286000830184611d04565b92915050565b611d3781611cf2565b8114611d4257600080fd5b50565b600081359050611d5481611d2e565b92915050565b60008060408385031215611d7157611d70611af8565b5b6000611d7f85828601611d45565b9250506020611d9085828601611c90565b9150509250929050565b600080600060608486031215611db357611db2611af8565b5b6000611dc186828701611d45565b9350506020611dd286828701611d45565b9250506040611de386828701611c90565b9150509250925092565b600060208284031215611e0357611e02611af8565b5b6000611e1184828501611d45565b91505092915050565b611e2381611c6f565b82525050565b6000602082019050611e3e6000830184611e1a565b92915050565b611e4d81611b87565b8114611e5857600080fd5b50565b600081359050611e6a81611e44565b92915050565b60008060408385031215611e8757611e86611af8565b5b6000611e9585828601611d45565b9250506020611ea685828601611e5b565b9150509250929050565b600080fd5b600080fd5b7f4e487b7100000000000000000000000000000000000000000000000000000000600052604160045260246000fd5b611ef282611c03565b810181811067ffffffffffffffff82111715611f1157611f10611eba565b5b80604052505050565b6000611f24611aee565b9050611f308282611ee9565b919050565b600067ffffffffffffffff821115611f5057611f4f611eba565b5b611f5982611c03565b9050602081019050919050565b82818337600083830152505050565b6000611f88611f8384611f35565b611f1a565b905082815260208101848484011115611fa457611fa3611eb5565b5b611faf848285611f66565b509392505050565b600082601f830112611fcc57611fcb611eb0565b5b8135611fdc848260208601611f75565b91505092915050565b60008060008060808587031215611fff57611ffe611af8565b5b600061200d87828801611d45565b945050602061201e87828801611d45565b935050604061202f87828801611c90565b925050606085013567ffffffffffffffff8111156120505761204f611afd565b5b61205c87828801611fb7565b91505092959194509250565b600067ffffffffffffffff82111561208357612082611eba565b5b61208c82611c03565b9050602081019050919050565b60006120ac6120a784612068565b611f1a565b9050828152602081018484840111156120c8576120c7611eb5565b5b6120d3848285611f66565b509392505050565b600082601f8301126120f0576120ef611eb0565b5b8135612100848260208601612099565b91505092915050565b600080604083850312156121205761211f611af8565b5b600061212e85828601611d45565b925050602083013567ffffffffffffffff81111561214f5761214e611afd565b5b61215b858286016120db565b9150509250929050565b6000806040838503121561217c5761217b611af8565b5b600061218a85828601611d45565b925050602061219b85828601611d45565b9150509250929050565b7f4e487b7100000000000000000000000000000000000000000000000000000000600052602260045260246000fd5b600060028204905060018216806121ec57607f821691505b6020821081036121ff576121fe6121a5565b5b50919050565b7f4552433732313a20617070726f76616c20746f2063757272656e74206f776e6560008201527f7200000000000000000000000000000000000000000000000000000000000000602082015250565b6000612261602183611bc8565b915061226c82612205565b604082019050919050565b6000602082019050818103600083015261229081612254565b9050919050565b7f4552433732313a20617070726f76652063616c6c6572206973206e6f7420746f60008201527f6b656e206f776e6572206f7220617070726f76656420666f7220616c6c000000602082015250565b60006122f3603d83611bc8565b91506122fe82612297565b604082019050919050565b60006020820190508181036000830152612322816122e6565b9050919050565b7f4552433732313a2063616c6c6572206973206e6f7420746f6b656e206f776e6560008201527f72206f7220617070726f76656400000000000000000000000000000000000000602082015250565b6000612385602d83611bc8565b915061239082612329565b604082019050919050565b600060208201905081810360008301526123b481612378565b9050919050565b7f4552433732313a20696e76616c696420746f6b656e2049440000000000000000600082015250565b60006123f1601883611bc8565b91506123fc826123bb565b602082019050919050565b60006020820190508181036000830152612420816123e4565b9050919050565b7f4552433732313a2061646472657373207a65726f206973206e6f74206120766160008201527f6c6964206f776e65720000000000000000000000000000000000000000000000602082015250565b6000612483602983611bc8565b915061248e82612427565b604082019050919050565b600060208201905081810360008301526124b281612476565b9050919050565b7f596f7520646f206e6f7420686176652061636365737321000000000000000000600082015250565b60006124ef601783611bc8565b91506124fa826124b9565b602082019050919050565b6000602082019050818103600083015261251e816124e2565b9050919050565b7f54686572652063616e206265206f6e6c79203330204e46547320696e2061205460008201527f72656520436f6c6c656374696f6e210000000000000000000000000000000000602082015250565b6000612581602f83611bc8565b915061258c82612525565b604082019050919050565b600060208201905081810360008301526125b081612574565b9050919050565b7f4552433732313a207472616e736665722066726f6d20696e636f72726563742060008201527f6f776e6572000000000000000000000000000000000000000000000000000000602082015250565b6000612613602583611bc8565b915061261e826125b7565b604082019050919050565b6000602082019050818103600083015261264281612606565b9050919050565b7f4552433732313a207472616e7366657220746f20746865207a65726f2061646460008201527f7265737300000000000000000000000000000000000000000000000000000000602082015250565b60006126a5602483611bc8565b91506126b082612649565b604082019050919050565b600060208201905081810360008301526126d481612698565b9050919050565b7f4552433732313a20617070726f766520746f2063616c6c657200000000000000600082015250565b6000612711601983611bc8565b915061271c826126db565b602082019050919050565b6000602082019050818103600083015261274081612704565b9050919050565b7f4552433732313a207472616e7366657220746f206e6f6e20455243373231526560008201527f63656976657220696d706c656d656e7465720000000000000000000000000000602082015250565b60006127a3603283611bc8565b91506127ae82612747565b604082019050919050565b600060208201905081810360008301526127d281612796565b9050919050565b600081905092915050565b60006127ef82611bbd565b6127f981856127d9565b9350612809818560208601611bd9565b80840191505092915050565b600061282182856127e4565b915061282d82846127e4565b91508190509392505050565b7f45524337323155524953746f726167653a2055524920736574206f66206e6f6e60008201527f6578697374656e7420746f6b656e000000000000000000000000000000000000602082015250565b6000612895602e83611bc8565b91506128a082612839565b604082019050919050565b600060208201905081810360008301526128c481612888565b9050919050565b60008190508160005260206000209050919050565b60006020601f8301049050919050565b600082821b905092915050565b60006008830261292d7fffffffffffffffffffffffffffffffffffffffffffffffffffffffffffffffff826128f0565b61293786836128f0565b95508019841693508086168417925050509392505050565b6000819050919050565b600061297461296f61296a84611c6f565b61294f565b611c6f565b9050919050565b6000819050919050565b61298e83612959565b6129a261299a8261297b565b8484546128fd565b825550505050565b600090565b6129b76129aa565b6129c2818484612985565b505050565b5b818110156129e6576129db6000826129af565b6001810190506129c8565b5050565b601f821115612a2b576129fc816128cb565b612a05846128e0565b81016020851015612a14578190505b612a28612a20856128e0565b8301826129c7565b50505b505050565b600082821c905092915050565b6000612a4e60001984600802612a30565b1980831691505092915050565b6000612a678383612a3d565b9150826002028217905092915050565b612a8082611bbd565b67ffffffffffffffff811115612a9957612a98611eba565b5b612aa382546121d4565b612aae8282856129ea565b600060209050601f831160018114612ae15760008415612acf578287015190505b612ad98582612a5b565b865550612b41565b601f198416612aef866128cb565b60005b82811015612b1757848901518255600182019150602085019450602081019050612af2565b86831015612b345784890151612b30601f891682612a3d565b8355505b6001600288020188555050505b505050505050565b600081519050919050565b600082825260208201905092915050565b6000612b7082612b49565b612b7a8185612b54565b9350612b8a818560208601611bd9565b612b9381611c03565b840191505092915050565b6000608082019050612bb36000830187611d04565b612bc06020830186611d04565b612bcd6040830185611e1a565b8181036060830152612bdf8184612b65565b905095945050505050565b600081519050612bf981611b2e565b92915050565b600060208284031215612c1557612c14611af8565b5b6000612c2384828501612bea565b91505092915050565b7f4e487b7100000000000000000000000000000000000000000000000000000000600052601260045260246000fd5b7f4552433732313a206d696e7420746f20746865207a65726f2061646472657373600082015250565b6000612c91602083611bc8565b9150612c9c82612c5b565b602082019050919050565b60006020820190508181036000830152612cc081612c84565b9050919050565b7f4552433732313a20746f6b656e20616c7265616479206d696e74656400000000600082015250565b6000612cfd601c83611bc8565b9150612d0882612cc7565b602082019050919050565b60006020820190508181036000830152612d2c81612cf0565b905091905056fea264697066735822122006480fb9604f9618ec52e43ed055284991df4153d46aaa828a03fd80ea6ee82364736f6c63430008120033a2646970667358221220cca82c9f258b8bc334a291cf0f5b5adca59cb649d1f42c3a471640a7930b4cf364736f6c63430008120033', \n     arguments: [\n          _token,\n     ]\n}).send({\n     from: web3.eth.accounts[0], \n     gas: '4700000'\n   }, function (e, contract){\n    console.log(e, contract);\n    if (typeof contract.address !== 'undefined') {\n         console.log('Contract mined! address: ' + contract.address + ' transactionHash: ' + contract.transactionHash);\n    }\n })",
	"functionHashes": {
		"39509351": "increaseAllowance(address,uint256)",
		"a85292df": "TreeCollectionCounter()",
		"dd62ed3e": "allowance(address,address)",
		"095ea7b3": "approve(address,uint256)",
		"70a08231": "balanceOf(address)",
		"c3490263": "claim(uint256,uint256)",
		"313ce567": "decimals()",
		"a457c2d7": "decreaseAllowance(address,uint256)",
		"2331a50e": "getTreeDetails(uint256,uint256)",
		"9427e64a": "mintNewTreeCollection()",
		"43a46931": "mintTree(uint256,string)",
		"06fdde03": "name()",
		"6407019c": "returnNFTcount(uint256)",
		"95d89b41": "symbol()",
		"18160ddd": "totalSupply()",
		"a9059cbb": "transfer(address,uint256)",
		"23b872dd": "transferFrom(address,address,uint256)",
		"aea3ee43": "treecollections(uint256)",
		"f2ee634d": "water(uint256,uint256)"
	},
	"gasEstimates": {
		"Creation": {
			"codeDepositCost": "4897400",
			"executionCost": "infinite",
			"totalCost": "infinite"
		},
		"External": {
			"TreeCollectionCounter()": "2554",
			"allowance(address,address)": "infinite",
			"approve(address,uint256)": "infinite",
			"balanceOf(address)": "2864",
			"claim(uint256,uint256)": "infinite",
			"decimals()": "388",
			"decreaseAllowance(address,uint256)": "infinite",
			"getTreeDetails(uint256,uint256)": "infinite",
			"increaseAllowance(address,uint256)": "infinite",
			"mintNewTreeCollection()": "infinite",
			"mintTree(uint256,string)": "infinite",
			"name()": "infinite",
			"returnNFTcount(uint256)": "infinite",
			"symbol()": "infinite",
			"totalSupply()": "2505",
			"transfer(address,uint256)": "infinite",
			"transferFrom(address,address,uint256)": "infinite",
			"treecollections(uint256)": "infinite",
			"water(uint256,uint256)": "infinite"
		},
		"Internal": {
			"mint(address,uint256)": "infinite"
		}
	},
	"devdoc": {
		"events": {
			"Approval(address,address,uint256)": {
				"details": "Emitted when the allowance of a `spender` for an `owner` is set by a call to {approve}. `value` is the new allowance."
			},
			"Transfer(address,address,uint256)": {
				"details": "Emitted when `value` tokens are moved from one account (`from`) to another (`to`). Note that `value` may be zero."
			}
		},
		"kind": "dev",
		"methods": {
			"allowance(address,address)": {
				"details": "See {IERC20-allowance}."
			},
			"approve(address,uint256)": {
				"details": "See {IERC20-approve}. NOTE: If `amount` is the maximum `uint256`, the allowance is not updated on `transferFrom`. This is semantically equivalent to an infinite approval. Requirements: - `spender` cannot be the zero address."
			},
			"balanceOf(address)": {
				"details": "See {IERC20-balanceOf}."
			},
			"decimals()": {
				"details": "Returns the number of decimals used to get its user representation. For example, if `decimals` equals `2`, a balance of `505` tokens should be displayed to a user as `5.05` (`505 / 10 ** 2`). Tokens usually opt for a value of 18, imitating the relationship between Ether and Wei. This is the default value returned by this function, unless it's overridden. NOTE: This information is only used for _display_ purposes: it in no way affects any of the arithmetic of the contract, including {IERC20-balanceOf} and {IERC20-transfer}."
			},
			"decreaseAllowance(address,uint256)": {
				"details": "Atomically decreases the allowance granted to `spender` by the caller. This is an alternative to {approve} that can be used as a mitigation for problems described in {IERC20-approve}. Emits an {Approval} event indicating the updated allowance. Requirements: - `spender` cannot be the zero address. - `spender` must have allowance for the caller of at least `subtractedValue`."
			},
			"increaseAllowance(address,uint256)": {
				"details": "Atomically increases the allowance granted to `spender` by the caller. This is an alternative to {approve} that can be used as a mitigation for problems described in {IERC20-approve}. Emits an {Approval} event indicating the updated allowance. Requirements: - `spender` cannot be the zero address."
			},
			"name()": {
				"details": "Returns the name of the token."
			},
			"symbol()": {
				"details": "Returns the symbol of the token, usually a shorter version of the name."
			},
			"totalSupply()": {
				"details": "See {IERC20-totalSupply}."
			},
			"transfer(address,uint256)": {
				"details": "See {IERC20-transfer}. Requirements: - `to` cannot be the zero address. - the caller must have a balance of at least `amount`."
			},
			"transferFrom(address,address,uint256)": {
				"details": "See {IERC20-transferFrom}. Emits an {Approval} event indicating the updated allowance. This is not required by the EIP. See the note at the beginning of {ERC20}. NOTE: Does not update the allowance if the current allowance is the maximum `uint256`. Requirements: - `from` and `to` cannot be the zero address. - `from` must have a balance of at least `amount`. - the caller must have allowance for ``from``'s tokens of at least `amount`."
			}
		},
		"version": 1
	},
	"userdoc": {
		"kind": "user",
		"methods": {},
		"version": 1
	},
	"Runtime Bytecode": {
		"immutableReferences": {
			"3639": [
				{
					"length": 32,
					"start": 1816
				},
				{
					"length": 32,
					"start": 5152
				}
			],
			"3642": [
				{
					"length": 32,
					"start": 4366
				}
			],
			"3645": [
				{
					"length": 32,
					"start": 1754
				},
				{
					"length": 32,
					"start": 5090
				}
			]
		},
		"linkReferences": {},
		"object": "60806040523480156200001157600080fd5b50600436106200013c5760003560e01c806370a0823111620000bd578063a9059cbb116200007b578063a9059cbb1462000391578063aea3ee4314620003c7578063c349026314620003fd578063dd62ed3e1462000433578063f2ee634d1462000469576200013c565b806370a0823114620002d55780639427e64a146200030b57806395d89b411462000317578063a457c2d71462000339578063a85292df146200036f576200013c565b806323b872dd116200010b57806323b872dd14620001f1578063313ce567146200022757806339509351146200024957806343a46931146200027f5780636407019c146200029f576200013c565b806306fdde031462000141578063095ea7b3146200016357806318160ddd14620001995780632331a50e14620001bb575b600080fd5b6200014b6200049f565b6040516200015a919062001cdd565b60405180910390f35b6200018160048036038101906200017b919062001db5565b62000539565b60405162000190919062001e19565b60405180910390f35b620001a362000560565b604051620001b2919062001e47565b60405180910390f35b620001d96004803603810190620001d3919062001e64565b6200056a565b604051620001e8919062001f3f565b60405180910390f35b6200020f600480360381019062000209919062001f5c565b620005f1565b6040516200021e919062001e19565b60405180910390f35b6200023162000626565b60405162000240919062001fd6565b60405180910390f35b62000267600480360381019062000261919062001db5565b6200062f565b60405162000276919062001e19565b60405180910390f35b6200029d600480360381019062000297919062002144565b6200066e565b005b620002bd6004803603810190620002b79190620021aa565b620009b2565b604051620002cc919062001e47565b60405180910390f35b620002f36004803603810190620002ed9190620021dc565b62000a60565b60405162000302919062001e47565b60405180910390f35b6200031562000aa8565b005b6200032162000c09565b60405162000330919062001cdd565b60405180910390f35b62000357600480360381019062000351919062001db5565b62000ca3565b60405162000366919062001e19565b60405180910390f35b6200037962000d23565b60405162000388919062001e47565b60405180910390f35b620003af6004803603810190620003a9919062001db5565b62000d2f565b604051620003be919062001e19565b60405180910390f35b620003e56004803603810190620003df9190620021aa565b62000d56565b604051620003f4919062002279565b60405180910390f35b6200041b600480360381019062000415919062001e64565b62000d89565b6040516200042a919062001e19565b60405180910390f35b6200045160048036038101906200044b919062002296565b6200114c565b60405162000460919062001e47565b60405180910390f35b62000487600480360381019062000481919062001e64565b620011d3565b60405162000496919062001e19565b60405180910390f35b606060038054620004b0906200230c565b80601f0160208091040260200160405190810160405280929190818152602001828054620004de906200230c565b80156200052f5780601f1062000503576101008083540402835291602001916200052f565b820191906000526020600020905b8154815290600101906020018083116200051157829003601f168201915b5050505050905090565b6000806200054662001573565b9050620005558185856200157b565b600191505092915050565b6000600254905090565b6200057462001c04565b6008600084815260200190815260200160002060000160008381526020019081526020016000206040518060a0016040529081600082015481526020016001820154815260200160028201548152602001600382015481526020016004820160009054906101000a900460ff161515151581525050905092915050565b600080620005fe62001573565b90506200060d8582856200174c565b6200061a858585620017e0565b60019150509392505050565b60006012905090565b6000806200063c62001573565b9050620006638185856200065185896200114c565b6200065d919062002370565b6200157b565b600191505092915050565b600115156009600084815260200190815260200160002060009054906101000a900460ff16151514620006d8576040517f08c379a0000000000000000000000000000000000000000000000000000000008152600401620006cf90620023fb565b60405180910390fd5b7f000000000000000000000000000000000000000000000000000000000000000073ffffffffffffffffffffffffffffffffffffffff166323b872dd33307f000000000000000000000000000000000000000000000000000000000000000060056200074591906200241d565b6040518463ffffffff1660e01b8152600401620007659392919062002479565b6020604051808303816000875af115801562000785573d6000803e3d6000fd5b505050506040513d601f19601f82011682018060405250810190620007ab9190620024e7565b620007ed576040517f08c379a0000000000000000000000000000000000000000000000000000000008152600401620007e49062002569565b60405180910390fd5b60006007600084815260200190815260200160002060009054906101000a900473ffffffffffffffffffffffffffffffffffffffff1690508073ffffffffffffffffffffffffffffffffffffffff1663d204c45e33846040518363ffffffff1660e01b8152600401620008629291906200258b565b600060405180830381600087803b1580156200087d57600080fd5b505af115801562000892573d6000803e3d6000fd5b5050505060008173ffffffffffffffffffffffffffffffffffffffff166398bdf6f56040518163ffffffff1660e01b8152600401602060405180830381865afa158015620008e4573d6000803e3d6000fd5b505050506040513d601f19601f820116820180604052508101906200090a9190620025d6565b90506040518060a0016040528060008152602001600081526020016000815260200160008152602001600115158152506008600086815260200190815260200160002060000160008381526020019081526020016000206000820151816000015560208201518160010155604082015181600201556060820151816003015560808201518160040160006101000a81548160ff02191690831515021790555090505050505050565b60006007600083815260200190815260200160002060009054906101000a900473ffffffffffffffffffffffffffffffffffffffff1673ffffffffffffffffffffffffffffffffffffffff166398bdf6f56040518163ffffffff1660e01b8152600401602060405180830381865afa15801562000a33573d6000803e3d6000fd5b505050506040513d601f19601f8201168201806040525081019062000a599190620025d6565b9050919050565b60008060008373ffffffffffffffffffffffffffffffffffffffff1673ffffffffffffffffffffffffffffffffffffffff168152602001908152602001600020549050919050565b600660009054906101000a900473ffffffffffffffffffffffffffffffffffffffff1673ffffffffffffffffffffffffffffffffffffffff163373ffffffffffffffffffffffffffffffffffffffff161462000b3b576040517f08c379a000000000000000000000000000000000000000000000000000000000815260040162000b329062002658565b60405180910390fd5b62000b47600562001a65565b600062000b55600562001a7b565b9050600060405162000b679062001c35565b604051809103906000f08015801562000b84573d6000803e3d6000fd5b509050806007600084815260200190815260200160002060006101000a81548173ffffffffffffffffffffffffffffffffffffffff021916908373ffffffffffffffffffffffffffffffffffffffff16021790555060016009600084815260200190815260200160002060006101000a81548160ff0219169083151502179055505050565b60606004805462000c1a906200230c565b80601f016020809104026020016040519081016040528092919081815260200182805462000c48906200230c565b801562000c995780601f1062000c6d5761010080835404028352916020019162000c99565b820191906000526020600020905b81548152906001019060200180831162000c7b57829003601f168201915b5050505050905090565b60008062000cb062001573565b9050600062000cc082866200114c565b90508381101562000d08576040517f08c379a000000000000000000000000000000000000000000000000000000000815260040162000cff90620026f0565b60405180910390fd5b62000d1782868684036200157b565b60019250505092915050565b60058060000154905081565b60008062000d3c62001573565b905062000d4b818585620017e0565b600191505092915050565b60076020528060005260406000206000915054906101000a900473ffffffffffffffffffffffffffffffffffffffff1681565b6000600115156009600085815260200190815260200160002060009054906101000a900460ff1615151462000df5576040517f08c379a000000000000000000000000000000000000000000000000000000000815260040162000dec9062002762565b60405180910390fd5b60086000848152602001908152602001600020600001600083815260200190815260200160002060040160009054906101000a900460ff1662000e6f576040517f08c379a000000000000000000000000000000000000000000000000000000000815260040162000e6690620027d4565b60405180910390fd5b60006007600085815260200190815260200160002060009054906101000a900473ffffffffffffffffffffffffffffffffffffffff1690503373ffffffffffffffffffffffffffffffffffffffff168173ffffffffffffffffffffffffffffffffffffffff16636352211e856040518263ffffffff1660e01b815260040162000ef9919062001e47565b602060405180830381865afa15801562000f17573d6000803e3d6000fd5b505050506040513d601f19601f8201168201806040525081019062000f3d91906200280d565b73ffffffffffffffffffffffffffffffffffffffff161462000f96576040517f08c379a000000000000000000000000000000000000000000000000000000000815260040162000f8d906200288f565b60405180910390fd5b61a8c0600860008681526020019081526020016000206000016000858152602001908152602001600020600001544262000fd19190620028b1565b111562001015576040517f08c379a00000000000000000000000000000000000000000000000000000000081526004016200100c906200293c565b60405180910390fd5b620151806008600086815260200190815260200160002060000160008581526020019081526020016000206001015442620010519190620028b1565b1162001094576040517f08c379a00000000000000000000000000000000000000000000000000000000081526004016200108b90620029ae565b60405180910390fd5b42600860008681526020019081526020016000206000016000858152602001908152602001600020600101819055506005600860008681526020019081526020016000206000016000858152602001908152602001600020600301600082825462001100919062002370565b9250508190555062001141337f000000000000000000000000000000000000000000000000000000000000000060056200113b91906200241d565b62001a89565b600191505092915050565b6000600160008473ffffffffffffffffffffffffffffffffffffffff1673ffffffffffffffffffffffffffffffffffffffff16815260200190815260200160002060008373ffffffffffffffffffffffffffffffffffffffff1673ffffffffffffffffffffffffffffffffffffffff16815260200190815260200160002054905092915050565b6000600115156009600085815260200190815260200160002060009054906101000a900460ff161515146200123f576040517f08c379a00000000000000000000000000000000000000000000000000000000081526004016200123690620023fb565b60405180910390fd5b60086000848152602001908152602001600020600001600083815260200190815260200160002060040160009054906101000a900460ff16620012b9576040517f08c379a0000000000000000000000000000000000000000000000000000000008152600401620012b090620027d4565b60405180910390fd5b60006007600085815260200190815260200160002060009054906101000a900473ffffffffffffffffffffffffffffffffffffffff1690503373ffffffffffffffffffffffffffffffffffffffff168173ffffffffffffffffffffffffffffffffffffffff16636352211e856040518263ffffffff1660e01b815260040162001343919062001e47565b602060405180830381865afa15801562001361573d6000803e3d6000fd5b505050506040513d601f19601f820116820180604052508101906200138791906200280d565b73ffffffffffffffffffffffffffffffffffffffff1614620013e0576040517f08c379a0000000000000000000000000000000000000000000000000000000008152600401620013d7906200288f565b60405180910390fd5b7f000000000000000000000000000000000000000000000000000000000000000073ffffffffffffffffffffffffffffffffffffffff166323b872dd33307f000000000000000000000000000000000000000000000000000000000000000060016200144d91906200241d565b6040518463ffffffff1660e01b81526004016200146d9392919062002479565b6020604051808303816000875af11580156200148d573d6000803e3d6000fd5b505050506040513d601f19601f82011682018060405250810190620014b39190620024e7565b620014f5576040517f08c379a0000000000000000000000000000000000000000000000000000000008152600401620014ec9062002569565b60405180910390fd5b42600860008681526020019081526020016000206000016000858152602001908152602001600020600001819055506001600860008681526020019081526020016000206000016000858152602001908152602001600020600201600082825462001561919062002370565b92505081905550600191505092915050565b600033905090565b600073ffffffffffffffffffffffffffffffffffffffff168373ffffffffffffffffffffffffffffffffffffffff1603620015ed576040517f08c379a0000000000000000000000000000000000000000000000000000000008152600401620015e49062002a46565b60405180910390fd5b600073ffffffffffffffffffffffffffffffffffffffff168273ffffffffffffffffffffffffffffffffffffffff16036200165f576040517f08c379a0000000000000000000000000000000000000000000000000000000008152600401620016569062002ade565b60405180910390fd5b80600160008573ffffffffffffffffffffffffffffffffffffffff1673ffffffffffffffffffffffffffffffffffffffff16815260200190815260200160002060008473ffffffffffffffffffffffffffffffffffffffff1673ffffffffffffffffffffffffffffffffffffffff168152602001908152602001600020819055508173ffffffffffffffffffffffffffffffffffffffff168373ffffffffffffffffffffffffffffffffffffffff167f8c5be1e5ebec7d5bd14f71427d1e84f3dd0314c0f7b2291e5b200ac8c7c3b925836040516200173f919062001e47565b60405180910390a3505050565b60006200175a84846200114c565b90507fffffffffffffffffffffffffffffffffffffffffffffffffffffffffffffffff8114620017da5781811015620017ca576040517f08c379a0000000000000000000000000000000000000000000000000000000008152600401620017c19062002b50565b60405180910390fd5b620017d984848484036200157b565b5b50505050565b600073ffffffffffffffffffffffffffffffffffffffff168373ffffffffffffffffffffffffffffffffffffffff160362001852576040517f08c379a0000000000000000000000000000000000000000000000000000000008152600401620018499062002be8565b60405180910390fd5b600073ffffffffffffffffffffffffffffffffffffffff168273ffffffffffffffffffffffffffffffffffffffff1603620018c4576040517f08c379a0000000000000000000000000000000000000000000000000000000008152600401620018bb9062002c80565b60405180910390fd5b620018d183838362001a99565b60008060008573ffffffffffffffffffffffffffffffffffffffff1673ffffffffffffffffffffffffffffffffffffffff168152602001908152602001600020549050818110156200195a576040517f08c379a0000000000000000000000000000000000000000000000000000000008152600401620019519062002d18565b60405180910390fd5b8181036000808673ffffffffffffffffffffffffffffffffffffffff1673ffffffffffffffffffffffffffffffffffffffff16815260200190815260200160002081905550816000808573ffffffffffffffffffffffffffffffffffffffff1673ffffffffffffffffffffffffffffffffffffffff168152602001908152602001600020600082825401925050819055508273ffffffffffffffffffffffffffffffffffffffff168473ffffffffffffffffffffffffffffffffffffffff167fddf252ad1be2c89b69c2b068fc378daa952ba7f163c4a11628f55a4df523b3ef8460405162001a4a919062001e47565b60405180910390a362001a5f84848462001a9e565b50505050565b6001816000016000828254019250508190555050565b600081600001549050919050565b62001a95828262001aa3565b5050565b505050565b505050565b600073ffffffffffffffffffffffffffffffffffffffff168273ffffffffffffffffffffffffffffffffffffffff160362001b15576040517f08c379a000000000000000000000000000000000000000000000000000000000815260040162001b0c9062002d8a565b60405180910390fd5b62001b236000838362001a99565b806002600082825462001b37919062002370565b92505081905550806000808473ffffffffffffffffffffffffffffffffffffffff1673ffffffffffffffffffffffffffffffffffffffff168152602001908152602001600020600082825401925050819055508173ffffffffffffffffffffffffffffffffffffffff16600073ffffffffffffffffffffffffffffffffffffffff167fddf252ad1be2c89b69c2b068fc378daa952ba7f163c4a11628f55a4df523b3ef8360405162001bea919062001e47565b60405180910390a362001c006000838362001a9e565b5050565b6040518060a00160405280600081526020016000815260200160008152602001600081526020016000151581525090565b6131c58062002dad83390190565b600081519050919050565b600082825260208201905092915050565b60005b8381101562001c7f57808201518184015260208101905062001c62565b60008484015250505050565b6000601f19601f8301169050919050565b600062001ca98262001c43565b62001cb5818562001c4e565b935062001cc781856020860162001c5f565b62001cd28162001c8b565b840191505092915050565b6000602082019050818103600083015262001cf9818462001c9c565b905092915050565b6000604051905090565b600080fd5b600080fd5b600073ffffffffffffffffffffffffffffffffffffffff82169050919050565b600062001d428262001d15565b9050919050565b62001d548162001d35565b811462001d6057600080fd5b50565b60008135905062001d748162001d49565b92915050565b6000819050919050565b62001d8f8162001d7a565b811462001d9b57600080fd5b50565b60008135905062001daf8162001d84565b92915050565b6000806040838503121562001dcf5762001dce62001d0b565b5b600062001ddf8582860162001d63565b925050602062001df28582860162001d9e565b9150509250929050565b60008115159050919050565b62001e138162001dfc565b82525050565b600060208201905062001e30600083018462001e08565b92915050565b62001e418162001d7a565b82525050565b600060208201905062001e5e600083018462001e36565b92915050565b6000806040838503121562001e7e5762001e7d62001d0b565b5b600062001e8e8582860162001d9e565b925050602062001ea18582860162001d9e565b9150509250929050565b62001eb68162001d7a565b82525050565b62001ec78162001dfc565b82525050565b60a08201600082015162001ee5600085018262001eab565b50602082015162001efa602085018262001eab565b50604082015162001f0f604085018262001eab565b50606082015162001f24606085018262001eab565b50608082015162001f39608085018262001ebc565b50505050565b600060a08201905062001f56600083018462001ecd565b92915050565b60008060006060848603121562001f785762001f7762001d0b565b5b600062001f888682870162001d63565b935050602062001f9b8682870162001d63565b925050604062001fae8682870162001d9e565b9150509250925092565b600060ff82169050919050565b62001fd08162001fb8565b82525050565b600060208201905062001fed600083018462001fc5565b92915050565b600080fd5b600080fd5b7f4e487b7100000000000000000000000000000000000000000000000000000000600052604160045260246000fd5b620020378262001c8b565b810181811067ffffffffffffffff8211171562002059576200205862001ffd565b5b80604052505050565b60006200206e62001d01565b90506200207c82826200202c565b919050565b600067ffffffffffffffff8211156200209f576200209e62001ffd565b5b620020aa8262001c8b565b9050602081019050919050565b82818337600083830152505050565b6000620020dd620020d78462002081565b62002062565b905082815260208101848484011115620020fc57620020fb62001ff8565b5b62002109848285620020b7565b509392505050565b600082601f83011262002129576200212862001ff3565b5b81356200213b848260208601620020c6565b91505092915050565b600080604083850312156200215e576200215d62001d0b565b5b60006200216e8582860162001d9e565b925050602083013567ffffffffffffffff81111562002192576200219162001d10565b5b620021a08582860162002111565b9150509250929050565b600060208284031215620021c357620021c262001d0b565b5b6000620021d38482850162001d9e565b91505092915050565b600060208284031215620021f557620021f462001d0b565b5b6000620022058482850162001d63565b91505092915050565b6000819050919050565b600062002239620022336200222d8462001d15565b6200220e565b62001d15565b9050919050565b60006200224d8262002218565b9050919050565b6000620022618262002240565b9050919050565b620022738162002254565b82525050565b600060208201905062002290600083018462002268565b92915050565b60008060408385031215620022b057620022af62001d0b565b5b6000620022c08582860162001d63565b9250506020620022d38582860162001d63565b9150509250929050565b7f4e487b7100000000000000000000000000000000000000000000000000000000600052602260045260246000fd5b600060028204905060018216806200232557607f821691505b6020821081036200233b576200233a620022dd565b5b50919050565b7f4e487b7100000000000000000000000000000000000000000000000000000000600052601160045260246000fd5b60006200237d8262001d7a565b91506200238a8362001d7a565b9250828201905080821115620023a557620023a462002341565b5b92915050565b7f436f6c6c656374696f6e206973206e6f7420796574206d696e74656421000000600082015250565b6000620023e3601d8362001c4e565b9150620023f082620023ab565b602082019050919050565b600060208201905081810360008301526200241681620023d4565b9050919050565b60006200242a8262001d7a565b9150620024378362001d7a565b9250828202620024478162001d7a565b9150828204841483151762002461576200246062002341565b5b5092915050565b620024738162001d35565b82525050565b600060608201905062002490600083018662002468565b6200249f602083018562002468565b620024ae604083018462001e36565b949350505050565b620024c18162001dfc565b8114620024cd57600080fd5b50565b600081519050620024e181620024b6565b92915050565b6000602082840312156200250057620024ff62001d0b565b5b60006200251084828501620024d0565b91505092915050565b7f53544e4541523a207472616e7366657246726f6d206661696c65640000000000600082015250565b600062002551601b8362001c4e565b91506200255e8262002519565b602082019050919050565b60006020820190508181036000830152620025848162002542565b9050919050565b6000604082019050620025a2600083018562002468565b8181036020830152620025b6818462001c9c565b90509392505050565b600081519050620025d08162001d84565b92915050565b600060208284031215620025ef57620025ee62001d0b565b5b6000620025ff84828501620025bf565b91505092915050565b7f4e6f706521000000000000000000000000000000000000000000000000000000600082015250565b60006200264060058362001c4e565b91506200264d8262002608565b602082019050919050565b60006020820190508181036000830152620026738162002631565b9050919050565b7f45524332303a2064656372656173656420616c6c6f77616e63652062656c6f7760008201527f207a65726f000000000000000000000000000000000000000000000000000000602082015250565b6000620026d860258362001c4e565b9150620026e5826200267a565b604082019050919050565b600060208201905081810360008301526200270b81620026c9565b9050919050565b7f436f6c6c656374696f6e206973206e6f7420796574206d696e74656400000000600082015250565b60006200274a601c8362001c4e565b9150620027578262002712565b602082019050919050565b600060208201905081810360008301526200277d816200273b565b9050919050565b7f5472656520646f6573206e6f7420657869737400000000000000000000000000600082015250565b6000620027bc60138362001c4e565b9150620027c98262002784565b602082019050919050565b60006020820190508181036000830152620027ef81620027ad565b9050919050565b600081519050620028078162001d49565b92915050565b60006020828403121562002826576200282562001d0b565b5b60006200283684828501620027f6565b91505092915050565b7f596f7520617265206e6f7420746865206f776e65720000000000000000000000600082015250565b60006200287760158362001c4e565b915062002884826200283f565b602082019050919050565b60006020820190508181036000830152620028aa8162002868565b9050919050565b6000620028be8262001d7a565b9150620028cb8362001d7a565b9250828203905081811115620028e657620028e562002341565b5b92915050565b7f5761746572204669727374000000000000000000000000000000000000000000600082015250565b600062002924600b8362001c4e565b91506200293182620028ec565b602082019050919050565b60006020820190508181036000830152620029578162002915565b9050919050565b7f43616e277420436c61696d000000000000000000000000000000000000000000600082015250565b600062002996600b8362001c4e565b9150620029a3826200295e565b602082019050919050565b60006020820190508181036000830152620029c98162002987565b9050919050565b7f45524332303a20617070726f76652066726f6d20746865207a65726f2061646460008201527f7265737300000000000000000000000000000000000000000000000000000000602082015250565b600062002a2e60248362001c4e565b915062002a3b82620029d0565b604082019050919050565b6000602082019050818103600083015262002a618162002a1f565b9050919050565b7f45524332303a20617070726f766520746f20746865207a65726f20616464726560008201527f7373000000000000000000000000000000000000000000000000000000000000602082015250565b600062002ac660228362001c4e565b915062002ad38262002a68565b604082019050919050565b6000602082019050818103600083015262002af98162002ab7565b9050919050565b7f45524332303a20696e73756666696369656e7420616c6c6f77616e6365000000600082015250565b600062002b38601d8362001c4e565b915062002b458262002b00565b602082019050919050565b6000602082019050818103600083015262002b6b8162002b29565b9050919050565b7f45524332303a207472616e736665722066726f6d20746865207a65726f20616460008201527f6472657373000000000000000000000000000000000000000000000000000000602082015250565b600062002bd060258362001c4e565b915062002bdd8262002b72565b604082019050919050565b6000602082019050818103600083015262002c038162002bc1565b9050919050565b7f45524332303a207472616e7366657220746f20746865207a65726f206164647260008201527f6573730000000000000000000000000000000000000000000000000000000000602082015250565b600062002c6860238362001c4e565b915062002c758262002c0a565b604082019050919050565b6000602082019050818103600083015262002c9b8162002c59565b9050919050565b7f45524332303a207472616e7366657220616d6f756e742065786365656473206260008201527f616c616e63650000000000000000000000000000000000000000000000000000602082015250565b600062002d0060268362001c4e565b915062002d0d8262002ca2565b604082019050919050565b6000602082019050818103600083015262002d338162002cf1565b9050919050565b7f45524332303a206d696e7420746f20746865207a65726f206164647265737300600082015250565b600062002d72601f8362001c4e565b915062002d7f8262002d3a565b602082019050919050565b6000602082019050818103600083015262002da58162002d63565b905091905056fe60806040523480156200001157600080fd5b506040518060400160405280600781526020017f47656e65736973000000000000000000000000000000000000000000000000008152506040518060400160405280600381526020017f474e45000000000000000000000000000000000000000000000000000000000081525081600090816200008f919062000365565b508060019081620000a1919062000365565b50505033600760006101000a81548173ffffffffffffffffffffffffffffffffffffffff021916908373ffffffffffffffffffffffffffffffffffffffff1602179055506200044c565b600081519050919050565b7f4e487b7100000000000000000000000000000000000000000000000000000000600052604160045260246000fd5b7f4e487b7100000000000000000000000000000000000000000000000000000000600052602260045260246000fd5b600060028204905060018216806200016d57607f821691505b60208210810362000183576200018262000125565b5b50919050565b60008190508160005260206000209050919050565b60006020601f8301049050919050565b600082821b905092915050565b600060088302620001ed7fffffffffffffffffffffffffffffffffffffffffffffffffffffffffffffffff82620001ae565b620001f98683620001ae565b95508019841693508086168417925050509392505050565b6000819050919050565b6000819050919050565b600062000246620002406200023a8462000211565b6200021b565b62000211565b9050919050565b6000819050919050565b620002628362000225565b6200027a62000271826200024d565b848454620001bb565b825550505050565b600090565b6200029162000282565b6200029e81848462000257565b505050565b5b81811015620002c657620002ba60008262000287565b600181019050620002a4565b5050565b601f8211156200031557620002df8162000189565b620002ea846200019e565b81016020851015620002fa578190505b6200031262000309856200019e565b830182620002a3565b50505b505050565b600082821c905092915050565b60006200033a600019846008026200031a565b1980831691505092915050565b600062000355838362000327565b9150826002028217905092915050565b6200037082620000eb565b67ffffffffffffffff8111156200038c576200038b620000f6565b5b62000398825462000154565b620003a5828285620002ca565b600060209050601f831160018114620003dd5760008415620003c8578287015190505b620003d4858262000347565b86555062000444565b601f198416620003ed8662000189565b60005b828110156200041757848901518255600182019150602085019450602081019050620003f0565b8683101562000437578489015162000433601f89168262000327565b8355505b6001600288020188555050505b505050505050565b612d69806200045c6000396000f3fe608060405234801561001057600080fd5b50600436106100f55760003560e01c806370a0823111610097578063b88d4fde11610066578063b88d4fde14610284578063c87b56dd146102a0578063d204c45e146102d0578063e985e9c5146102ec576100f5565b806370a08231146101fc57806395d89b411461022c57806398bdf6f51461024a578063a22cb46514610268576100f5565b8063095ea7b3116100d3578063095ea7b31461017857806323b872dd1461019457806342842e0e146101b05780636352211e146101cc576100f5565b806301ffc9a7146100fa57806306fdde031461012a578063081812fc14610148575b600080fd5b610114600480360381019061010f9190611b5a565b61031c565b6040516101219190611ba2565b60405180910390f35b61013261032e565b60405161013f9190611c4d565b60405180910390f35b610162600480360381019061015d9190611ca5565b6103c0565b60405161016f9190611d13565b60405180910390f35b610192600480360381019061018d9190611d5a565b610406565b005b6101ae60048036038101906101a99190611d9a565b61051d565b005b6101ca60048036038101906101c59190611d9a565b61057d565b005b6101e660048036038101906101e19190611ca5565b61059d565b6040516101f39190611d13565b60405180910390f35b61021660048036038101906102119190611ded565b610623565b6040516102239190611e29565b60405180910390f35b6102346106da565b6040516102419190611c4d565b60405180910390f35b61025261076c565b60405161025f9190611e29565b60405180910390f35b610282600480360381019061027d9190611e70565b610778565b005b61029e60048036038101906102999190611fe5565b61078e565b005b6102ba60048036038101906102b59190611ca5565b6107f0565b6040516102c79190611c4d565b60405180910390f35b6102ea60048036038101906102e59190612109565b610802565b005b61030660048036038101906103019190612165565b610907565b6040516103139190611ba2565b60405180910390f35b60006103278261099b565b9050919050565b60606000805461033d906121d4565b80601f0160208091040260200160405190810160405280929190818152602001828054610369906121d4565b80156103b65780601f1061038b576101008083540402835291602001916103b6565b820191906000526020600020905b81548152906001019060200180831161039957829003601f168201915b5050505050905090565b60006103cb826109fc565b6004600083815260200190815260200160002060009054906101000a900473ffffffffffffffffffffffffffffffffffffffff169050919050565b60006104118261059d565b90508073ffffffffffffffffffffffffffffffffffffffff168373ffffffffffffffffffffffffffffffffffffffff1603610481576040517f08c379a000000000000000000000000000000000000000000000000000000000815260040161047890612277565b60405180910390fd5b8073ffffffffffffffffffffffffffffffffffffffff166104a0610a47565b73ffffffffffffffffffffffffffffffffffffffff1614806104cf57506104ce816104c9610a47565b610907565b5b61050e576040517f08c379a000000000000000000000000000000000000000000000000000000000815260040161050590612309565b60405180910390fd5b6105188383610a4f565b505050565b61052e610528610a47565b82610b08565b61056d576040517f08c379a00000000000000000000000000000000000000000000000000000000081526004016105649061239b565b60405180910390fd5b610578838383610b9d565b505050565b6105988383836040518060200160405280600081525061078e565b505050565b6000806105a983610e96565b9050600073ffffffffffffffffffffffffffffffffffffffff168173ffffffffffffffffffffffffffffffffffffffff160361061a576040517f08c379a000000000000000000000000000000000000000000000000000000000815260040161061190612407565b60405180910390fd5b80915050919050565b60008073ffffffffffffffffffffffffffffffffffffffff168273ffffffffffffffffffffffffffffffffffffffff1603610693576040517f08c379a000000000000000000000000000000000000000000000000000000000815260040161068a90612499565b60405180910390fd5b600360008373ffffffffffffffffffffffffffffffffffffffff1673ffffffffffffffffffffffffffffffffffffffff168152602001908152602001600020549050919050565b6060600180546106e9906121d4565b80601f0160208091040260200160405190810160405280929190818152602001828054610715906121d4565b80156107625780601f1061073757610100808354040283529160200191610762565b820191906000526020600020905b81548152906001019060200180831161074557829003601f168201915b5050505050905090565b60088060000154905081565b61078a610783610a47565b8383610ed3565b5050565b61079f610799610a47565b83610b08565b6107de576040517f08c379a00000000000000000000000000000000000000000000000000000000081526004016107d59061239b565b60405180910390fd5b6107ea8484848461103f565b50505050565b60606107fb8261109b565b9050919050565b600760009054906101000a900473ffffffffffffffffffffffffffffffffffffffff1673ffffffffffffffffffffffffffffffffffffffff163373ffffffffffffffffffffffffffffffffffffffff1614610892576040517f08c379a000000000000000000000000000000000000000000000000000000000815260040161088990612505565b60405180910390fd5b61089c60086111ad565b60006108a860086111c3565b9050601e8111156108ee576040517f08c379a00000000000000000000000000000000000000000000000000000000081526004016108e590612597565b60405180910390fd5b6108f883826111d1565b61090281836111ef565b505050565b6000600560008473ffffffffffffffffffffffffffffffffffffffff1673ffffffffffffffffffffffffffffffffffffffff16815260200190815260200160002060008373ffffffffffffffffffffffffffffffffffffffff1673ffffffffffffffffffffffffffffffffffffffff16815260200190815260200160002060009054906101000a900460ff16905092915050565b6000634906490660e01b7bffffffffffffffffffffffffffffffffffffffffffffffffffffffff1916827bffffffffffffffffffffffffffffffffffffffffffffffffffffffff191614806109f557506109f482611293565b5b9050919050565b610a0581611375565b610a44576040517f08c379a0000000000000000000000000000000000000000000000000000000008152600401610a3b90612407565b60405180910390fd5b50565b600033905090565b816004600083815260200190815260200160002060006101000a81548173ffffffffffffffffffffffffffffffffffffffff021916908373ffffffffffffffffffffffffffffffffffffffff160217905550808273ffffffffffffffffffffffffffffffffffffffff16610ac28361059d565b73ffffffffffffffffffffffffffffffffffffffff167f8c5be1e5ebec7d5bd14f71427d1e84f3dd0314c0f7b2291e5b200ac8c7c3b92560405160405180910390a45050565b600080610b148361059d565b90508073ffffffffffffffffffffffffffffffffffffffff168473ffffffffffffffffffffffffffffffffffffffff161480610b565750610b558185610907565b5b80610b9457508373ffffffffffffffffffffffffffffffffffffffff16610b7c846103c0565b73ffffffffffffffffffffffffffffffffffffffff16145b91505092915050565b8273ffffffffffffffffffffffffffffffffffffffff16610bbd8261059d565b73ffffffffffffffffffffffffffffffffffffffff1614610c13576040517f08c379a0000000000000000000000000000000000000000000000000000000008152600401610c0a90612629565b60405180910390fd5b600073ffffffffffffffffffffffffffffffffffffffff168273ffffffffffffffffffffffffffffffffffffffff1603610c82576040517f08c379a0000000000000000000000000000000000000000000000000000000008152600401610c79906126bb565b60405180910390fd5b610c8f83838360016113b6565b8273ffffffffffffffffffffffffffffffffffffffff16610caf8261059d565b73ffffffffffffffffffffffffffffffffffffffff1614610d05576040517f08c379a0000000000000000000000000000000000000000000000000000000008152600401610cfc90612629565b60405180910390fd5b6004600082815260200190815260200160002060006101000a81549073ffffffffffffffffffffffffffffffffffffffff02191690556001600360008573ffffffffffffffffffffffffffffffffffffffff1673ffffffffffffffffffffffffffffffffffffffff168152602001908152602001600020600082825403925050819055506001600360008473ffffffffffffffffffffffffffffffffffffffff1673ffffffffffffffffffffffffffffffffffffffff16815260200190815260200160002060008282540192505081905550816002600083815260200190815260200160002060006101000a81548173ffffffffffffffffffffffffffffffffffffffff021916908373ffffffffffffffffffffffffffffffffffffffff160217905550808273ffffffffffffffffffffffffffffffffffffffff168473ffffffffffffffffffffffffffffffffffffffff167fddf252ad1be2c89b69c2b068fc378daa952ba7f163c4a11628f55a4df523b3ef60405160405180910390a4610e9183838360016113bc565b505050565b60006002600083815260200190815260200160002060009054906101000a900473ffffffffffffffffffffffffffffffffffffffff169050919050565b8173ffffffffffffffffffffffffffffffffffffffff168373ffffffffffffffffffffffffffffffffffffffff1603610f41576040517f08c379a0000000000000000000000000000000000000000000000000000000008152600401610f3890612727565b60405180910390fd5b80600560008573ffffffffffffffffffffffffffffffffffffffff1673ffffffffffffffffffffffffffffffffffffffff16815260200190815260200160002060008473ffffffffffffffffffffffffffffffffffffffff1673ffffffffffffffffffffffffffffffffffffffff16815260200190815260200160002060006101000a81548160ff0219169083151502179055508173ffffffffffffffffffffffffffffffffffffffff168373ffffffffffffffffffffffffffffffffffffffff167f17307eab39ab6107e8899845ad3d59bd9653f200f220920489ca2b5937696c31836040516110329190611ba2565b60405180910390a3505050565b61104a848484610b9d565b611056848484846113c2565b611095576040517f08c379a000000000000000000000000000000000000000000000000000000000815260040161108c906127b9565b60405180910390fd5b50505050565b60606110a6826109fc565b60006006600084815260200190815260200160002080546110c6906121d4565b80601f01602080910402602001604051908101604052809291908181526020018280546110f2906121d4565b801561113f5780601f106111145761010080835404028352916020019161113f565b820191906000526020600020905b81548152906001019060200180831161112257829003601f168201915b505050505090506000611150611549565b905060008151036111655781925050506111a8565b60008251111561119a578082604051602001611182929190612815565b604051602081830303815290604052925050506111a8565b6111a384611560565b925050505b919050565b6001816000016000828254019250508190555050565b600081600001549050919050565b6111eb8282604051806020016040528060008152506115c8565b5050565b6111f882611375565b611237576040517f08c379a000000000000000000000000000000000000000000000000000000000815260040161122e906128ab565b60405180910390fd5b806006600084815260200190815260200160002090816112579190612a77565b507ff8e1a15aba9398e019f0b49df1a4fde98ee17ae345cb5f6b5e2c27f5033e8ce7826040516112879190611e29565b60405180910390a15050565b60007f80ac58cd000000000000000000000000000000000000000000000000000000007bffffffffffffffffffffffffffffffffffffffffffffffffffffffff1916827bffffffffffffffffffffffffffffffffffffffffffffffffffffffff1916148061135e57507f5b5e139f000000000000000000000000000000000000000000000000000000007bffffffffffffffffffffffffffffffffffffffffffffffffffffffff1916827bffffffffffffffffffffffffffffffffffffffffffffffffffffffff1916145b8061136e575061136d82611623565b5b9050919050565b60008073ffffffffffffffffffffffffffffffffffffffff1661139783610e96565b73ffffffffffffffffffffffffffffffffffffffff1614159050919050565b50505050565b50505050565b60006113e38473ffffffffffffffffffffffffffffffffffffffff1661168d565b1561153c578373ffffffffffffffffffffffffffffffffffffffff1663150b7a0261140c610a47565b8786866040518563ffffffff1660e01b815260040161142e9493929190612b9e565b6020604051808303816000875af192505050801561146a57506040513d601f19601f820116820180604052508101906114679190612bff565b60015b6114ec573d806000811461149a576040519150601f19603f3d011682016040523d82523d6000602084013e61149f565b606091505b5060008151036114e4576040517f08c379a00000000000000000000000000000000000000000000000000000000081526004016114db906127b9565b60405180910390fd5b805181602001fd5b63150b7a0260e01b7bffffffffffffffffffffffffffffffffffffffffffffffffffffffff1916817bffffffffffffffffffffffffffffffffffffffffffffffffffffffff191614915050611541565b600190505b949350505050565b606060405180602001604052806000815250905090565b606061156b826109fc565b6000611575611549565b9050600081511161159557604051806020016040528060008152506115c0565b8061159f846116b0565b6040516020016115b0929190612815565b6040516020818303038152906040525b915050919050565b6115d2838361177e565b6115df60008484846113c2565b61161e576040517f08c379a0000000000000000000000000000000000000000000000000000000008152600401611615906127b9565b60405180910390fd5b505050565b60007f01ffc9a7000000000000000000000000000000000000000000000000000000007bffffffffffffffffffffffffffffffffffffffffffffffffffffffff1916827bffffffffffffffffffffffffffffffffffffffffffffffffffffffff1916149050919050565b6000808273ffffffffffffffffffffffffffffffffffffffff163b119050919050565b6060600060016116bf8461199b565b01905060008167ffffffffffffffff8111156116de576116dd611eba565b5b6040519080825280601f01601f1916602001820160405280156117105781602001600182028036833780820191505090505b509050600082602001820190505b600115611773578080600190039150507f3031323334353637383961626364656600000000000000000000000000000000600a86061a8153600a858161176757611766612c2c565b5b0494506000850361171e575b819350505050919050565b600073ffffffffffffffffffffffffffffffffffffffff168273ffffffffffffffffffffffffffffffffffffffff16036117ed576040517f08c379a00000000000000000000000000000000000000000000000000000000081526004016117e490612ca7565b60405180910390fd5b6117f681611375565b15611836576040517f08c379a000000000000000000000000000000000000000000000000000000000815260040161182d90612d13565b60405180910390fd5b6118446000838360016113b6565b61184d81611375565b1561188d576040517f08c379a000000000000000000000000000000000000000000000000000000000815260040161188490612d13565b60405180910390fd5b6001600360008473ffffffffffffffffffffffffffffffffffffffff1673ffffffffffffffffffffffffffffffffffffffff16815260200190815260200160002060008282540192505081905550816002600083815260200190815260200160002060006101000a81548173ffffffffffffffffffffffffffffffffffffffff021916908373ffffffffffffffffffffffffffffffffffffffff160217905550808273ffffffffffffffffffffffffffffffffffffffff16600073ffffffffffffffffffffffffffffffffffffffff167fddf252ad1be2c89b69c2b068fc378daa952ba7f163c4a11628f55a4df523b3ef60405160405180910390a46119976000838360016113bc565b5050565b600080600090507a184f03e93ff9f4daa797ed6e38ed64bf6a1f01000000000000000083106119f9577a184f03e93ff9f4daa797ed6e38ed64bf6a1f01000000000000000083816119ef576119ee612c2c565b5b0492506040810190505b6d04ee2d6d415b85acef81000000008310611a36576d04ee2d6d415b85acef81000000008381611a2c57611a2b612c2c565b5b0492506020810190505b662386f26fc100008310611a6557662386f26fc100008381611a5b57611a5a612c2c565b5b0492506010810190505b6305f5e1008310611a8e576305f5e1008381611a8457611a83612c2c565b5b0492506008810190505b6127108310611ab3576127108381611aa957611aa8612c2c565b5b0492506004810190505b60648310611ad65760648381611acc57611acb612c2c565b5b0492506002810190505b600a8310611ae5576001810190505b80915050919050565b6000604051905090565b600080fd5b600080fd5b60007fffffffff0000000000000000000000000000000000000000000000000000000082169050919050565b611b3781611b02565b8114611b4257600080fd5b50565b600081359050611b5481611b2e565b92915050565b600060208284031215611b7057611b6f611af8565b5b6000611b7e84828501611b45565b91505092915050565b60008115159050919050565b611b9c81611b87565b82525050565b6000602082019050611bb76000830184611b93565b92915050565b600081519050919050565b600082825260208201905092915050565b60005b83811015611bf7578082015181840152602081019050611bdc565b60008484015250505050565b6000601f19601f8301169050919050565b6000611c1f82611bbd565b611c298185611bc8565b9350611c39818560208601611bd9565b611c4281611c03565b840191505092915050565b60006020820190508181036000830152611c678184611c14565b905092915050565b6000819050919050565b611c8281611c6f565b8114611c8d57600080fd5b50565b600081359050611c9f81611c79565b92915050565b600060208284031215611cbb57611cba611af8565b5b6000611cc984828501611c90565b91505092915050565b600073ffffffffffffffffffffffffffffffffffffffff82169050919050565b6000611cfd82611cd2565b9050919050565b611d0d81611cf2565b82525050565b6000602082019050611d286000830184611d04565b92915050565b611d3781611cf2565b8114611d4257600080fd5b50565b600081359050611d5481611d2e565b92915050565b60008060408385031215611d7157611d70611af8565b5b6000611d7f85828601611d45565b9250506020611d9085828601611c90565b9150509250929050565b600080600060608486031215611db357611db2611af8565b5b6000611dc186828701611d45565b9350506020611dd286828701611d45565b9250506040611de386828701611c90565b9150509250925092565b600060208284031215611e0357611e02611af8565b5b6000611e1184828501611d45565b91505092915050565b611e2381611c6f565b82525050565b6000602082019050611e3e6000830184611e1a565b92915050565b611e4d81611b87565b8114611e5857600080fd5b50565b600081359050611e6a81611e44565b92915050565b60008060408385031215611e8757611e86611af8565b5b6000611e9585828601611d45565b9250506020611ea685828601611e5b565b9150509250929050565b600080fd5b600080fd5b7f4e487b7100000000000000000000000000000000000000000000000000000000600052604160045260246000fd5b611ef282611c03565b810181811067ffffffffffffffff82111715611f1157611f10611eba565b5b80604052505050565b6000611f24611aee565b9050611f308282611ee9565b919050565b600067ffffffffffffffff821115611f5057611f4f611eba565b5b611f5982611c03565b9050602081019050919050565b82818337600083830152505050565b6000611f88611f8384611f35565b611f1a565b905082815260208101848484011115611fa457611fa3611eb5565b5b611faf848285611f66565b509392505050565b600082601f830112611fcc57611fcb611eb0565b5b8135611fdc848260208601611f75565b91505092915050565b60008060008060808587031215611fff57611ffe611af8565b5b600061200d87828801611d45565b945050602061201e87828801611d45565b935050604061202f87828801611c90565b925050606085013567ffffffffffffffff8111156120505761204f611afd565b5b61205c87828801611fb7565b91505092959194509250565b600067ffffffffffffffff82111561208357612082611eba565b5b61208c82611c03565b9050602081019050919050565b60006120ac6120a784612068565b611f1a565b9050828152602081018484840111156120c8576120c7611eb5565b5b6120d3848285611f66565b509392505050565b600082601f8301126120f0576120ef611eb0565b5b8135612100848260208601612099565b91505092915050565b600080604083850312156121205761211f611af8565b5b600061212e85828601611d45565b925050602083013567ffffffffffffffff81111561214f5761214e611afd565b5b61215b858286016120db565b9150509250929050565b6000806040838503121561217c5761217b611af8565b5b600061218a85828601611d45565b925050602061219b85828601611d45565b9150509250929050565b7f4e487b7100000000000000000000000000000000000000000000000000000000600052602260045260246000fd5b600060028204905060018216806121ec57607f821691505b6020821081036121ff576121fe6121a5565b5b50919050565b7f4552433732313a20617070726f76616c20746f2063757272656e74206f776e6560008201527f7200000000000000000000000000000000000000000000000000000000000000602082015250565b6000612261602183611bc8565b915061226c82612205565b604082019050919050565b6000602082019050818103600083015261229081612254565b9050919050565b7f4552433732313a20617070726f76652063616c6c6572206973206e6f7420746f60008201527f6b656e206f776e6572206f7220617070726f76656420666f7220616c6c000000602082015250565b60006122f3603d83611bc8565b91506122fe82612297565b604082019050919050565b60006020820190508181036000830152612322816122e6565b9050919050565b7f4552433732313a2063616c6c6572206973206e6f7420746f6b656e206f776e6560008201527f72206f7220617070726f76656400000000000000000000000000000000000000602082015250565b6000612385602d83611bc8565b915061239082612329565b604082019050919050565b600060208201905081810360008301526123b481612378565b9050919050565b7f4552433732313a20696e76616c696420746f6b656e2049440000000000000000600082015250565b60006123f1601883611bc8565b91506123fc826123bb565b602082019050919050565b60006020820190508181036000830152612420816123e4565b9050919050565b7f4552433732313a2061646472657373207a65726f206973206e6f74206120766160008201527f6c6964206f776e65720000000000000000000000000000000000000000000000602082015250565b6000612483602983611bc8565b915061248e82612427565b604082019050919050565b600060208201905081810360008301526124b281612476565b9050919050565b7f596f7520646f206e6f7420686176652061636365737321000000000000000000600082015250565b60006124ef601783611bc8565b91506124fa826124b9565b602082019050919050565b6000602082019050818103600083015261251e816124e2565b9050919050565b7f54686572652063616e206265206f6e6c79203330204e46547320696e2061205460008201527f72656520436f6c6c656374696f6e210000000000000000000000000000000000602082015250565b6000612581602f83611bc8565b915061258c82612525565b604082019050919050565b600060208201905081810360008301526125b081612574565b9050919050565b7f4552433732313a207472616e736665722066726f6d20696e636f72726563742060008201527f6f776e6572000000000000000000000000000000000000000000000000000000602082015250565b6000612613602583611bc8565b915061261e826125b7565b604082019050919050565b6000602082019050818103600083015261264281612606565b9050919050565b7f4552433732313a207472616e7366657220746f20746865207a65726f2061646460008201527f7265737300000000000000000000000000000000000000000000000000000000602082015250565b60006126a5602483611bc8565b91506126b082612649565b604082019050919050565b600060208201905081810360008301526126d481612698565b9050919050565b7f4552433732313a20617070726f766520746f2063616c6c657200000000000000600082015250565b6000612711601983611bc8565b915061271c826126db565b602082019050919050565b6000602082019050818103600083015261274081612704565b9050919050565b7f4552433732313a207472616e7366657220746f206e6f6e20455243373231526560008201527f63656976657220696d706c656d656e7465720000000000000000000000000000602082015250565b60006127a3603283611bc8565b91506127ae82612747565b604082019050919050565b600060208201905081810360008301526127d281612796565b9050919050565b600081905092915050565b60006127ef82611bbd565b6127f981856127d9565b9350612809818560208601611bd9565b80840191505092915050565b600061282182856127e4565b915061282d82846127e4565b91508190509392505050565b7f45524337323155524953746f726167653a2055524920736574206f66206e6f6e60008201527f6578697374656e7420746f6b656e000000000000000000000000000000000000602082015250565b6000612895602e83611bc8565b91506128a082612839565b604082019050919050565b600060208201905081810360008301526128c481612888565b9050919050565b60008190508160005260206000209050919050565b60006020601f8301049050919050565b600082821b905092915050565b60006008830261292d7fffffffffffffffffffffffffffffffffffffffffffffffffffffffffffffffff826128f0565b61293786836128f0565b95508019841693508086168417925050509392505050565b6000819050919050565b600061297461296f61296a84611c6f565b61294f565b611c6f565b9050919050565b6000819050919050565b61298e83612959565b6129a261299a8261297b565b8484546128fd565b825550505050565b600090565b6129b76129aa565b6129c2818484612985565b505050565b5b818110156129e6576129db6000826129af565b6001810190506129c8565b5050565b601f821115612a2b576129fc816128cb565b612a05846128e0565b81016020851015612a14578190505b612a28612a20856128e0565b8301826129c7565b50505b505050565b600082821c905092915050565b6000612a4e60001984600802612a30565b1980831691505092915050565b6000612a678383612a3d565b9150826002028217905092915050565b612a8082611bbd565b67ffffffffffffffff811115612a9957612a98611eba565b5b612aa382546121d4565b612aae8282856129ea565b600060209050601f831160018114612ae15760008415612acf578287015190505b612ad98582612a5b565b865550612b41565b601f198416612aef866128cb565b60005b82811015612b1757848901518255600182019150602085019450602081019050612af2565b86831015612b345784890151612b30601f891682612a3d565b8355505b6001600288020188555050505b505050505050565b600081519050919050565b600082825260208201905092915050565b6000612b7082612b49565b612b7a8185612b54565b9350612b8a818560208601611bd9565b612b9381611c03565b840191505092915050565b6000608082019050612bb36000830187611d04565b612bc06020830186611d04565b612bcd6040830185611e1a565b8181036060830152612bdf8184612b65565b905095945050505050565b600081519050612bf981611b2e565b92915050565b600060208284031215612c1557612c14611af8565b5b6000612c2384828501612bea565b91505092915050565b7f4e487b7100000000000000000000000000000000000000000000000000000000600052601260045260246000fd5b7f4552433732313a206d696e7420746f20746865207a65726f2061646472657373600082015250565b6000612c91602083611bc8565b9150612c9c82612c5b565b602082019050919050565b60006020820190508181036000830152612cc081612c84565b9050919050565b7f4552433732313a20746f6b656e20616c7265616479206d696e74656400000000600082015250565b6000612cfd601c83611bc8565b9150612d0882612cc7565b602082019050919050565b60006020820190508181036000830152612d2c81612cf0565b905091905056fea264697066735822122006480fb9604f9618ec52e43ed055284991df4153d46aaa828a03fd80ea6ee82364736f6c63430008120033a2646970667358221220cca82c9f258b8bc334a291cf0f5b5adca59cb649d1f42c3a471640a7930b4cf364736f6c63430008120033",
		"opcodes": "PUSH1 0x80 PUSH1 0x40 MSTORE CALLVALUE DUP1 ISZERO PUSH3 0x11 JUMPI PUSH1 0x0 DUP1 REVERT JUMPDEST POP PUSH1 0x4 CALLDATASIZE LT PUSH3 0x13C JUMPI PUSH1 0x0 CALLDATALOAD PUSH1 0xE0 SHR DUP1 PUSH4 0x70A08231 GT PUSH3 0xBD JUMPI DUP1 PUSH4 0xA9059CBB GT PUSH3 0x7B JUMPI DUP1 PUSH4 0xA9059CBB EQ PUSH3 0x391 JUMPI DUP1 PUSH4 0xAEA3EE43 EQ PUSH3 0x3C7 JUMPI DUP1 PUSH4 0xC3490263 EQ PUSH3 0x3FD JUMPI DUP1 PUSH4 0xDD62ED3E EQ PUSH3 0x433 JUMPI DUP1 PUSH4 0xF2EE634D EQ PUSH3 0x469 JUMPI PUSH3 0x13C JUMP JUMPDEST DUP1 PUSH4 0x70A08231 EQ PUSH3 0x2D5 JUMPI DUP1 PUSH4 0x9427E64A EQ PUSH3 0x30B JUMPI DUP1 PUSH4 0x95D89B41 EQ PUSH3 0x317 JUMPI DUP1 PUSH4 0xA457C2D7 EQ PUSH3 0x339 JUMPI DUP1 PUSH4 0xA85292DF EQ PUSH3 0x36F JUMPI PUSH3 0x13C JUMP JUMPDEST DUP1 PUSH4 0x23B872DD GT PUSH3 0x10B JUMPI DUP1 PUSH4 0x23B872DD EQ PUSH3 0x1F1 JUMPI DUP1 PUSH4 0x313CE567 EQ PUSH3 0x227 JUMPI DUP1 PUSH4 0x39509351 EQ PUSH3 0x249 JUMPI DUP1 PUSH4 0x43A46931 EQ PUSH3 0x27F JUMPI DUP1 PUSH4 0x6407019C EQ PUSH3 0x29F JUMPI PUSH3 0x13C JUMP JUMPDEST DUP1 PUSH4 0x6FDDE03 EQ PUSH3 0x141 JUMPI DUP1 PUSH4 0x95EA7B3 EQ PUSH3 0x163 JUMPI DUP1 PUSH4 0x18160DDD EQ PUSH3 0x199 JUMPI DUP1 PUSH4 0x2331A50E EQ PUSH3 0x1BB JUMPI JUMPDEST PUSH1 0x0 DUP1 REVERT JUMPDEST PUSH3 0x14B PUSH3 0x49F JUMP JUMPDEST PUSH1 0x40 MLOAD PUSH3 0x15A SWAP2 SWAP1 PUSH3 0x1CDD JUMP JUMPDEST PUSH1 0x40 MLOAD DUP1 SWAP2 SUB SWAP1 RETURN JUMPDEST PUSH3 0x181 PUSH1 0x4 DUP1 CALLDATASIZE SUB DUP2 ADD SWAP1 PUSH3 0x17B SWAP2 SWAP1 PUSH3 0x1DB5 JUMP JUMPDEST PUSH3 0x539 JUMP JUMPDEST PUSH1 0x40 MLOAD PUSH3 0x190 SWAP2 SWAP1 PUSH3 0x1E19 JUMP JUMPDEST PUSH1 0x40 MLOAD DUP1 SWAP2 SUB SWAP1 RETURN JUMPDEST PUSH3 0x1A3 PUSH3 0x560 JUMP JUMPDEST PUSH1 0x40 MLOAD PUSH3 0x1B2 SWAP2 SWAP1 PUSH3 0x1E47 JUMP JUMPDEST PUSH1 0x40 MLOAD DUP1 SWAP2 SUB SWAP1 RETURN JUMPDEST PUSH3 0x1D9 PUSH1 0x4 DUP1 CALLDATASIZE SUB DUP2 ADD SWAP1 PUSH3 0x1D3 SWAP2 SWAP1 PUSH3 0x1E64 JUMP JUMPDEST PUSH3 0x56A JUMP JUMPDEST PUSH1 0x40 MLOAD PUSH3 0x1E8 SWAP2 SWAP1 PUSH3 0x1F3F JUMP JUMPDEST PUSH1 0x40 MLOAD DUP1 SWAP2 SUB SWAP1 RETURN JUMPDEST PUSH3 0x20F PUSH1 0x4 DUP1 CALLDATASIZE SUB DUP2 ADD SWAP1 PUSH3 0x209 SWAP2 SWAP1 PUSH3 0x1F5C JUMP JUMPDEST PUSH3 0x5F1 JUMP JUMPDEST PUSH1 0x40 MLOAD PUSH3 0x21E SWAP2 SWAP1 PUSH3 0x1E19 JUMP JUMPDEST PUSH1 0x40 MLOAD DUP1 SWAP2 SUB SWAP1 RETURN JUMPDEST PUSH3 0x231 PUSH3 0x626 JUMP JUMPDEST PUSH1 0x40 MLOAD PUSH3 0x240 SWAP2 SWAP1 PUSH3 0x1FD6 JUMP JUMPDEST PUSH1 0x40 MLOAD DUP1 SWAP2 SUB SWAP1 RETURN JUMPDEST PUSH3 0x267 PUSH1 0x4 DUP1 CALLDATASIZE SUB DUP2 ADD SWAP1 PUSH3 0x261 SWAP2 SWAP1 PUSH3 0x1DB5 JUMP JUMPDEST PUSH3 0x62F JUMP JUMPDEST PUSH1 0x40 MLOAD PUSH3 0x276 SWAP2 SWAP1 PUSH3 0x1E19 JUMP JUMPDEST PUSH1 0x40 MLOAD DUP1 SWAP2 SUB SWAP1 RETURN JUMPDEST PUSH3 0x29D PUSH1 0x4 DUP1 CALLDATASIZE SUB DUP2 ADD SWAP1 PUSH3 0x297 SWAP2 SWAP1 PUSH3 0x2144 JUMP JUMPDEST PUSH3 0x66E JUMP JUMPDEST STOP JUMPDEST PUSH3 0x2BD PUSH1 0x4 DUP1 CALLDATASIZE SUB DUP2 ADD SWAP1 PUSH3 0x2B7 SWAP2 SWAP1 PUSH3 0x21AA JUMP JUMPDEST PUSH3 0x9B2 JUMP JUMPDEST PUSH1 0x40 MLOAD PUSH3 0x2CC SWAP2 SWAP1 PUSH3 0x1E47 JUMP JUMPDEST PUSH1 0x40 MLOAD DUP1 SWAP2 SUB SWAP1 RETURN JUMPDEST PUSH3 0x2F3 PUSH1 0x4 DUP1 CALLDATASIZE SUB DUP2 ADD SWAP1 PUSH3 0x2ED SWAP2 SWAP1 PUSH3 0x21DC JUMP JUMPDEST PUSH3 0xA60 JUMP JUMPDEST PUSH1 0x40 MLOAD PUSH3 0x302 SWAP2 SWAP1 PUSH3 0x1E47 JUMP JUMPDEST PUSH1 0x40 MLOAD DUP1 SWAP2 SUB SWAP1 RETURN JUMPDEST PUSH3 0x315 PUSH3 0xAA8 JUMP JUMPDEST STOP JUMPDEST PUSH3 0x321 PUSH3 0xC09 JUMP JUMPDEST PUSH1 0x40 MLOAD PUSH3 0x330 SWAP2 SWAP1 PUSH3 0x1CDD JUMP JUMPDEST PUSH1 0x40 MLOAD DUP1 SWAP2 SUB SWAP1 RETURN JUMPDEST PUSH3 0x357 PUSH1 0x4 DUP1 CALLDATASIZE SUB DUP2 ADD SWAP1 PUSH3 0x351 SWAP2 SWAP1 PUSH3 0x1DB5 JUMP JUMPDEST PUSH3 0xCA3 JUMP JUMPDEST PUSH1 0x40 MLOAD PUSH3 0x366 SWAP2 SWAP1 PUSH3 0x1E19 JUMP JUMPDEST PUSH1 0x40 MLOAD DUP1 SWAP2 SUB SWAP1 RETURN JUMPDEST PUSH3 0x379 PUSH3 0xD23 JUMP JUMPDEST PUSH1 0x40 MLOAD PUSH3 0x388 SWAP2 SWAP1 PUSH3 0x1E47 JUMP JUMPDEST PUSH1 0x40 MLOAD DUP1 SWAP2 SUB SWAP1 RETURN JUMPDEST PUSH3 0x3AF PUSH1 0x4 DUP1 CALLDATASIZE SUB DUP2 ADD SWAP1 PUSH3 0x3A9 SWAP2 SWAP1 PUSH3 0x1DB5 JUMP JUMPDEST PUSH3 0xD2F JUMP JUMPDEST PUSH1 0x40 MLOAD PUSH3 0x3BE SWAP2 SWAP1 PUSH3 0x1E19 JUMP JUMPDEST PUSH1 0x40 MLOAD DUP1 SWAP2 SUB SWAP1 RETURN JUMPDEST PUSH3 0x3E5 PUSH1 0x4 DUP1 CALLDATASIZE SUB DUP2 ADD SWAP1 PUSH3 0x3DF SWAP2 SWAP1 PUSH3 0x21AA JUMP JUMPDEST PUSH3 0xD56 JUMP JUMPDEST PUSH1 0x40 MLOAD PUSH3 0x3F4 SWAP2 SWAP1 PUSH3 0x2279 JUMP JUMPDEST PUSH1 0x40 MLOAD DUP1 SWAP2 SUB SWAP1 RETURN JUMPDEST PUSH3 0x41B PUSH1 0x4 DUP1 CALLDATASIZE SUB DUP2 ADD SWAP1 PUSH3 0x415 SWAP2 SWAP1 PUSH3 0x1E64 JUMP JUMPDEST PUSH3 0xD89 JUMP JUMPDEST PUSH1 0x40 MLOAD PUSH3 0x42A SWAP2 SWAP1 PUSH3 0x1E19 JUMP JUMPDEST PUSH1 0x40 MLOAD DUP1 SWAP2 SUB SWAP1 RETURN JUMPDEST PUSH3 0x451 PUSH1 0x4 DUP1 CALLDATASIZE SUB DUP2 ADD SWAP1 PUSH3 0x44B SWAP2 SWAP1 PUSH3 0x2296 JUMP JUMPDEST PUSH3 0x114C JUMP JUMPDEST PUSH1 0x40 MLOAD PUSH3 0x460 SWAP2 SWAP1 PUSH3 0x1E47 JUMP JUMPDEST PUSH1 0x40 MLOAD DUP1 SWAP2 SUB SWAP1 RETURN JUMPDEST PUSH3 0x487 PUSH1 0x4 DUP1 CALLDATASIZE SUB DUP2 ADD SWAP1 PUSH3 0x481 SWAP2 SWAP1 PUSH3 0x1E64 JUMP JUMPDEST PUSH3 0x11D3 JUMP JUMPDEST PUSH1 0x40 MLOAD PUSH3 0x496 SWAP2 SWAP1 PUSH3 0x1E19 JUMP JUMPDEST PUSH1 0x40 MLOAD DUP1 SWAP2 SUB SWAP1 RETURN JUMPDEST PUSH1 0x60 PUSH1 0x3 DUP1 SLOAD PUSH3 0x4B0 SWAP1 PUSH3 0x230C JUMP JUMPDEST DUP1 PUSH1 0x1F ADD PUSH1 0x20 DUP1 SWAP2 DIV MUL PUSH1 0x20 ADD PUSH1 0x40 MLOAD SWAP1 DUP2 ADD PUSH1 0x40 MSTORE DUP1 SWAP3 SWAP2 SWAP1 DUP2 DUP2 MSTORE PUSH1 0x20 ADD DUP3 DUP1 SLOAD PUSH3 0x4DE SWAP1 PUSH3 0x230C JUMP JUMPDEST DUP1 ISZERO PUSH3 0x52F JUMPI DUP1 PUSH1 0x1F LT PUSH3 0x503 JUMPI PUSH2 0x100 DUP1 DUP4 SLOAD DIV MUL DUP4 MSTORE SWAP2 PUSH1 0x20 ADD SWAP2 PUSH3 0x52F JUMP JUMPDEST DUP3 ADD SWAP2 SWAP1 PUSH1 0x0 MSTORE PUSH1 0x20 PUSH1 0x0 KECCAK256 SWAP1 JUMPDEST DUP2 SLOAD DUP2 MSTORE SWAP1 PUSH1 0x1 ADD SWAP1 PUSH1 0x20 ADD DUP1 DUP4 GT PUSH3 0x511 JUMPI DUP3 SWAP1 SUB PUSH1 0x1F AND DUP3 ADD SWAP2 JUMPDEST POP POP POP POP POP SWAP1 POP SWAP1 JUMP JUMPDEST PUSH1 0x0 DUP1 PUSH3 0x546 PUSH3 0x1573 JUMP JUMPDEST SWAP1 POP PUSH3 0x555 DUP2 DUP6 DUP6 PUSH3 0x157B JUMP JUMPDEST PUSH1 0x1 SWAP2 POP POP SWAP3 SWAP2 POP POP JUMP JUMPDEST PUSH1 0x0 PUSH1 0x2 SLOAD SWAP1 POP SWAP1 JUMP JUMPDEST PUSH3 0x574 PUSH3 0x1C04 JUMP JUMPDEST PUSH1 0x8 PUSH1 0x0 DUP5 DUP2 MSTORE PUSH1 0x20 ADD SWAP1 DUP2 MSTORE PUSH1 0x20 ADD PUSH1 0x0 KECCAK256 PUSH1 0x0 ADD PUSH1 0x0 DUP4 DUP2 MSTORE PUSH1 0x20 ADD SWAP1 DUP2 MSTORE PUSH1 0x20 ADD PUSH1 0x0 KECCAK256 PUSH1 0x40 MLOAD DUP1 PUSH1 0xA0 ADD PUSH1 0x40 MSTORE SWAP1 DUP2 PUSH1 0x0 DUP3 ADD SLOAD DUP2 MSTORE PUSH1 0x20 ADD PUSH1 0x1 DUP3 ADD SLOAD DUP2 MSTORE PUSH1 0x20 ADD PUSH1 0x2 DUP3 ADD SLOAD DUP2 MSTORE PUSH1 0x20 ADD PUSH1 0x3 DUP3 ADD SLOAD DUP2 MSTORE PUSH1 0x20 ADD PUSH1 0x4 DUP3 ADD PUSH1 0x0 SWAP1 SLOAD SWAP1 PUSH2 0x100 EXP SWAP1 DIV PUSH1 0xFF AND ISZERO ISZERO ISZERO ISZERO DUP2 MSTORE POP POP SWAP1 POP SWAP3 SWAP2 POP POP JUMP JUMPDEST PUSH1 0x0 DUP1 PUSH3 0x5FE PUSH3 0x1573 JUMP JUMPDEST SWAP1 POP PUSH3 0x60D DUP6 DUP3 DUP6 PUSH3 0x174C JUMP JUMPDEST PUSH3 0x61A DUP6 DUP6 DUP6 PUSH3 0x17E0 JUMP JUMPDEST PUSH1 0x1 SWAP2 POP POP SWAP4 SWAP3 POP POP POP JUMP JUMPDEST PUSH1 0x0 PUSH1 0x12 SWAP1 POP SWAP1 JUMP JUMPDEST PUSH1 0x0 DUP1 PUSH3 0x63C PUSH3 0x1573 JUMP JUMPDEST SWAP1 POP PUSH3 0x663 DUP2 DUP6 DUP6 PUSH3 0x651 DUP6 DUP10 PUSH3 0x114C JUMP JUMPDEST PUSH3 0x65D SWAP2 SWAP1 PUSH3 0x2370 JUMP JUMPDEST PUSH3 0x157B JUMP JUMPDEST PUSH1 0x1 SWAP2 POP POP SWAP3 SWAP2 POP POP JUMP JUMPDEST PUSH1 0x1 ISZERO ISZERO PUSH1 0x9 PUSH1 0x0 DUP5 DUP2 MSTORE PUSH1 0x20 ADD SWAP1 DUP2 MSTORE PUSH1 0x20 ADD PUSH1 0x0 KECCAK256 PUSH1 0x0 SWAP1 SLOAD SWAP1 PUSH2 0x100 EXP SWAP1 DIV PUSH1 0xFF AND ISZERO ISZERO EQ PUSH3 0x6D8 JUMPI PUSH1 0x40 MLOAD PUSH32 0x8C379A000000000000000000000000000000000000000000000000000000000 DUP2 MSTORE PUSH1 0x4 ADD PUSH3 0x6CF SWAP1 PUSH3 0x23FB JUMP JUMPDEST PUSH1 0x40 MLOAD DUP1 SWAP2 SUB SWAP1 REVERT JUMPDEST PUSH32 0x0 PUSH20 0xFFFFFFFFFFFFFFFFFFFFFFFFFFFFFFFFFFFFFFFF AND PUSH4 0x23B872DD CALLER ADDRESS PUSH32 0x0 PUSH1 0x5 PUSH3 0x745 SWAP2 SWAP1 PUSH3 0x241D JUMP JUMPDEST PUSH1 0x40 MLOAD DUP5 PUSH4 0xFFFFFFFF AND PUSH1 0xE0 SHL DUP2 MSTORE PUSH1 0x4 ADD PUSH3 0x765 SWAP4 SWAP3 SWAP2 SWAP1 PUSH3 0x2479 JUMP JUMPDEST PUSH1 0x20 PUSH1 0x40 MLOAD DUP1 DUP4 SUB DUP2 PUSH1 0x0 DUP8 GAS CALL ISZERO DUP1 ISZERO PUSH3 0x785 JUMPI RETURNDATASIZE PUSH1 0x0 DUP1 RETURNDATACOPY RETURNDATASIZE PUSH1 0x0 REVERT JUMPDEST POP POP POP POP PUSH1 0x40 MLOAD RETURNDATASIZE PUSH1 0x1F NOT PUSH1 0x1F DUP3 ADD AND DUP3 ADD DUP1 PUSH1 0x40 MSTORE POP DUP2 ADD SWAP1 PUSH3 0x7AB SWAP2 SWAP1 PUSH3 0x24E7 JUMP JUMPDEST PUSH3 0x7ED JUMPI PUSH1 0x40 MLOAD PUSH32 0x8C379A000000000000000000000000000000000000000000000000000000000 DUP2 MSTORE PUSH1 0x4 ADD PUSH3 0x7E4 SWAP1 PUSH3 0x2569 JUMP JUMPDEST PUSH1 0x40 MLOAD DUP1 SWAP2 SUB SWAP1 REVERT JUMPDEST PUSH1 0x0 PUSH1 0x7 PUSH1 0x0 DUP5 DUP2 MSTORE PUSH1 0x20 ADD SWAP1 DUP2 MSTORE PUSH1 0x20 ADD PUSH1 0x0 KECCAK256 PUSH1 0x0 SWAP1 SLOAD SWAP1 PUSH2 0x100 EXP SWAP1 DIV PUSH20 0xFFFFFFFFFFFFFFFFFFFFFFFFFFFFFFFFFFFFFFFF AND SWAP1 POP DUP1 PUSH20 0xFFFFFFFFFFFFFFFFFFFFFFFFFFFFFFFFFFFFFFFF AND PUSH4 0xD204C45E CALLER DUP5 PUSH1 0x40 MLOAD DUP4 PUSH4 0xFFFFFFFF AND PUSH1 0xE0 SHL DUP2 MSTORE PUSH1 0x4 ADD PUSH3 0x862 SWAP3 SWAP2 SWAP1 PUSH3 0x258B JUMP JUMPDEST PUSH1 0x0 PUSH1 0x40 MLOAD DUP1 DUP4 SUB DUP2 PUSH1 0x0 DUP8 DUP1 EXTCODESIZE ISZERO DUP1 ISZERO PUSH3 0x87D JUMPI PUSH1 0x0 DUP1 REVERT JUMPDEST POP GAS CALL ISZERO DUP1 ISZERO PUSH3 0x892 JUMPI RETURNDATASIZE PUSH1 0x0 DUP1 RETURNDATACOPY RETURNDATASIZE PUSH1 0x0 REVERT JUMPDEST POP POP POP POP PUSH1 0x0 DUP2 PUSH20 0xFFFFFFFFFFFFFFFFFFFFFFFFFFFFFFFFFFFFFFFF AND PUSH4 0x98BDF6F5 PUSH1 0x40 MLOAD DUP2 PUSH4 0xFFFFFFFF AND PUSH1 0xE0 SHL DUP2 MSTORE PUSH1 0x4 ADD PUSH1 0x20 PUSH1 0x40 MLOAD DUP1 DUP4 SUB DUP2 DUP7 GAS STATICCALL ISZERO DUP1 ISZERO PUSH3 0x8E4 JUMPI RETURNDATASIZE PUSH1 0x0 DUP1 RETURNDATACOPY RETURNDATASIZE PUSH1 0x0 REVERT JUMPDEST POP POP POP POP PUSH1 0x40 MLOAD RETURNDATASIZE PUSH1 0x1F NOT PUSH1 0x1F DUP3 ADD AND DUP3 ADD DUP1 PUSH1 0x40 MSTORE POP DUP2 ADD SWAP1 PUSH3 0x90A SWAP2 SWAP1 PUSH3 0x25D6 JUMP JUMPDEST SWAP1 POP PUSH1 0x40 MLOAD DUP1 PUSH1 0xA0 ADD PUSH1 0x40 MSTORE DUP1 PUSH1 0x0 DUP2 MSTORE PUSH1 0x20 ADD PUSH1 0x0 DUP2 MSTORE PUSH1 0x20 ADD PUSH1 0x0 DUP2 MSTORE PUSH1 0x20 ADD PUSH1 0x0 DUP2 MSTORE PUSH1 0x20 ADD PUSH1 0x1 ISZERO ISZERO DUP2 MSTORE POP PUSH1 0x8 PUSH1 0x0 DUP7 DUP2 MSTORE PUSH1 0x20 ADD SWAP1 DUP2 MSTORE PUSH1 0x20 ADD PUSH1 0x0 KECCAK256 PUSH1 0x0 ADD PUSH1 0x0 DUP4 DUP2 MSTORE PUSH1 0x20 ADD SWAP1 DUP2 MSTORE PUSH1 0x20 ADD PUSH1 0x0 KECCAK256 PUSH1 0x0 DUP3 ADD MLOAD DUP2 PUSH1 0x0 ADD SSTORE PUSH1 0x20 DUP3 ADD MLOAD DUP2 PUSH1 0x1 ADD SSTORE PUSH1 0x40 DUP3 ADD MLOAD DUP2 PUSH1 0x2 ADD SSTORE PUSH1 0x60 DUP3 ADD MLOAD DUP2 PUSH1 0x3 ADD SSTORE PUSH1 0x80 DUP3 ADD MLOAD DUP2 PUSH1 0x4 ADD PUSH1 0x0 PUSH2 0x100 EXP DUP2 SLOAD DUP2 PUSH1 0xFF MUL NOT AND SWAP1 DUP4 ISZERO ISZERO MUL OR SWAP1 SSTORE POP SWAP1 POP POP POP POP POP POP JUMP JUMPDEST PUSH1 0x0 PUSH1 0x7 PUSH1 0x0 DUP4 DUP2 MSTORE PUSH1 0x20 ADD SWAP1 DUP2 MSTORE PUSH1 0x20 ADD PUSH1 0x0 KECCAK256 PUSH1 0x0 SWAP1 SLOAD SWAP1 PUSH2 0x100 EXP SWAP1 DIV PUSH20 0xFFFFFFFFFFFFFFFFFFFFFFFFFFFFFFFFFFFFFFFF AND PUSH20 0xFFFFFFFFFFFFFFFFFFFFFFFFFFFFFFFFFFFFFFFF AND PUSH4 0x98BDF6F5 PUSH1 0x40 MLOAD DUP2 PUSH4 0xFFFFFFFF AND PUSH1 0xE0 SHL DUP2 MSTORE PUSH1 0x4 ADD PUSH1 0x20 PUSH1 0x40 MLOAD DUP1 DUP4 SUB DUP2 DUP7 GAS STATICCALL ISZERO DUP1 ISZERO PUSH3 0xA33 JUMPI RETURNDATASIZE PUSH1 0x0 DUP1 RETURNDATACOPY RETURNDATASIZE PUSH1 0x0 REVERT JUMPDEST POP POP POP POP PUSH1 0x40 MLOAD RETURNDATASIZE PUSH1 0x1F NOT PUSH1 0x1F DUP3 ADD AND DUP3 ADD DUP1 PUSH1 0x40 MSTORE POP DUP2 ADD SWAP1 PUSH3 0xA59 SWAP2 SWAP1 PUSH3 0x25D6 JUMP JUMPDEST SWAP1 POP SWAP2 SWAP1 POP JUMP JUMPDEST PUSH1 0x0 DUP1 PUSH1 0x0 DUP4 PUSH20 0xFFFFFFFFFFFFFFFFFFFFFFFFFFFFFFFFFFFFFFFF AND PUSH20 0xFFFFFFFFFFFFFFFFFFFFFFFFFFFFFFFFFFFFFFFF AND DUP2 MSTORE PUSH1 0x20 ADD SWAP1 DUP2 MSTORE PUSH1 0x20 ADD PUSH1 0x0 KECCAK256 SLOAD SWAP1 POP SWAP2 SWAP1 POP JUMP JUMPDEST PUSH1 0x6 PUSH1 0x0 SWAP1 SLOAD SWAP1 PUSH2 0x100 EXP SWAP1 DIV PUSH20 0xFFFFFFFFFFFFFFFFFFFFFFFFFFFFFFFFFFFFFFFF AND PUSH20 0xFFFFFFFFFFFFFFFFFFFFFFFFFFFFFFFFFFFFFFFF AND CALLER PUSH20 0xFFFFFFFFFFFFFFFFFFFFFFFFFFFFFFFFFFFFFFFF AND EQ PUSH3 0xB3B JUMPI PUSH1 0x40 MLOAD PUSH32 0x8C379A000000000000000000000000000000000000000000000000000000000 DUP2 MSTORE PUSH1 0x4 ADD PUSH3 0xB32 SWAP1 PUSH3 0x2658 JUMP JUMPDEST PUSH1 0x40 MLOAD DUP1 SWAP2 SUB SWAP1 REVERT JUMPDEST PUSH3 0xB47 PUSH1 0x5 PUSH3 0x1A65 JUMP JUMPDEST PUSH1 0x0 PUSH3 0xB55 PUSH1 0x5 PUSH3 0x1A7B JUMP JUMPDEST SWAP1 POP PUSH1 0x0 PUSH1 0x40 MLOAD PUSH3 0xB67 SWAP1 PUSH3 0x1C35 JUMP JUMPDEST PUSH1 0x40 MLOAD DUP1 SWAP2 SUB SWAP1 PUSH1 0x0 CREATE DUP1 ISZERO DUP1 ISZERO PUSH3 0xB84 JUMPI RETURNDATASIZE PUSH1 0x0 DUP1 RETURNDATACOPY RETURNDATASIZE PUSH1 0x0 REVERT JUMPDEST POP SWAP1 POP DUP1 PUSH1 0x7 PUSH1 0x0 DUP5 DUP2 MSTORE PUSH1 0x20 ADD SWAP1 DUP2 MSTORE PUSH1 0x20 ADD PUSH1 0x0 KECCAK256 PUSH1 0x0 PUSH2 0x100 EXP DUP2 SLOAD DUP2 PUSH20 0xFFFFFFFFFFFFFFFFFFFFFFFFFFFFFFFFFFFFFFFF MUL NOT AND SWAP1 DUP4 PUSH20 0xFFFFFFFFFFFFFFFFFFFFFFFFFFFFFFFFFFFFFFFF AND MUL OR SWAP1 SSTORE POP PUSH1 0x1 PUSH1 0x9 PUSH1 0x0 DUP5 DUP2 MSTORE PUSH1 0x20 ADD SWAP1 DUP2 MSTORE PUSH1 0x20 ADD PUSH1 0x0 KECCAK256 PUSH1 0x0 PUSH2 0x100 EXP DUP2 SLOAD DUP2 PUSH1 0xFF MUL NOT AND SWAP1 DUP4 ISZERO ISZERO MUL OR SWAP1 SSTORE POP POP POP JUMP JUMPDEST PUSH1 0x60 PUSH1 0x4 DUP1 SLOAD PUSH3 0xC1A SWAP1 PUSH3 0x230C JUMP JUMPDEST DUP1 PUSH1 0x1F ADD PUSH1 0x20 DUP1 SWAP2 DIV MUL PUSH1 0x20 ADD PUSH1 0x40 MLOAD SWAP1 DUP2 ADD PUSH1 0x40 MSTORE DUP1 SWAP3 SWAP2 SWAP1 DUP2 DUP2 MSTORE PUSH1 0x20 ADD DUP3 DUP1 SLOAD PUSH3 0xC48 SWAP1 PUSH3 0x230C JUMP JUMPDEST DUP1 ISZERO PUSH3 0xC99 JUMPI DUP1 PUSH1 0x1F LT PUSH3 0xC6D JUMPI PUSH2 0x100 DUP1 DUP4 SLOAD DIV MUL DUP4 MSTORE SWAP2 PUSH1 0x20 ADD SWAP2 PUSH3 0xC99 JUMP JUMPDEST DUP3 ADD SWAP2 SWAP1 PUSH1 0x0 MSTORE PUSH1 0x20 PUSH1 0x0 KECCAK256 SWAP1 JUMPDEST DUP2 SLOAD DUP2 MSTORE SWAP1 PUSH1 0x1 ADD SWAP1 PUSH1 0x20 ADD DUP1 DUP4 GT PUSH3 0xC7B JUMPI DUP3 SWAP1 SUB PUSH1 0x1F AND DUP3 ADD SWAP2 JUMPDEST POP POP POP POP POP SWAP1 POP SWAP1 JUMP JUMPDEST PUSH1 0x0 DUP1 PUSH3 0xCB0 PUSH3 0x1573 JUMP JUMPDEST SWAP1 POP PUSH1 0x0 PUSH3 0xCC0 DUP3 DUP7 PUSH3 0x114C JUMP JUMPDEST SWAP1 POP DUP4 DUP2 LT ISZERO PUSH3 0xD08 JUMPI PUSH1 0x40 MLOAD PUSH32 0x8C379A000000000000000000000000000000000000000000000000000000000 DUP2 MSTORE PUSH1 0x4 ADD PUSH3 0xCFF SWAP1 PUSH3 0x26F0 JUMP JUMPDEST PUSH1 0x40 MLOAD DUP1 SWAP2 SUB SWAP1 REVERT JUMPDEST PUSH3 0xD17 DUP3 DUP7 DUP7 DUP5 SUB PUSH3 0x157B JUMP JUMPDEST PUSH1 0x1 SWAP3 POP POP POP SWAP3 SWAP2 POP POP JUMP JUMPDEST PUSH1 0x5 DUP1 PUSH1 0x0 ADD SLOAD SWAP1 POP DUP2 JUMP JUMPDEST PUSH1 0x0 DUP1 PUSH3 0xD3C PUSH3 0x1573 JUMP JUMPDEST SWAP1 POP PUSH3 0xD4B DUP2 DUP6 DUP6 PUSH3 0x17E0 JUMP JUMPDEST PUSH1 0x1 SWAP2 POP POP SWAP3 SWAP2 POP POP JUMP JUMPDEST PUSH1 0x7 PUSH1 0x20 MSTORE DUP1 PUSH1 0x0 MSTORE PUSH1 0x40 PUSH1 0x0 KECCAK256 PUSH1 0x0 SWAP2 POP SLOAD SWAP1 PUSH2 0x100 EXP SWAP1 DIV PUSH20 0xFFFFFFFFFFFFFFFFFFFFFFFFFFFFFFFFFFFFFFFF AND DUP2 JUMP JUMPDEST PUSH1 0x0 PUSH1 0x1 ISZERO ISZERO PUSH1 0x9 PUSH1 0x0 DUP6 DUP2 MSTORE PUSH1 0x20 ADD SWAP1 DUP2 MSTORE PUSH1 0x20 ADD PUSH1 0x0 KECCAK256 PUSH1 0x0 SWAP1 SLOAD SWAP1 PUSH2 0x100 EXP SWAP1 DIV PUSH1 0xFF AND ISZERO ISZERO EQ PUSH3 0xDF5 JUMPI PUSH1 0x40 MLOAD PUSH32 0x8C379A000000000000000000000000000000000000000000000000000000000 DUP2 MSTORE PUSH1 0x4 ADD PUSH3 0xDEC SWAP1 PUSH3 0x2762 JUMP JUMPDEST PUSH1 0x40 MLOAD DUP1 SWAP2 SUB SWAP1 REVERT JUMPDEST PUSH1 0x8 PUSH1 0x0 DUP5 DUP2 MSTORE PUSH1 0x20 ADD SWAP1 DUP2 MSTORE PUSH1 0x20 ADD PUSH1 0x0 KECCAK256 PUSH1 0x0 ADD PUSH1 0x0 DUP4 DUP2 MSTORE PUSH1 0x20 ADD SWAP1 DUP2 MSTORE PUSH1 0x20 ADD PUSH1 0x0 KECCAK256 PUSH1 0x4 ADD PUSH1 0x0 SWAP1 SLOAD SWAP1 PUSH2 0x100 EXP SWAP1 DIV PUSH1 0xFF AND PUSH3 0xE6F JUMPI PUSH1 0x40 MLOAD PUSH32 0x8C379A000000000000000000000000000000000000000000000000000000000 DUP2 MSTORE PUSH1 0x4 ADD PUSH3 0xE66 SWAP1 PUSH3 0x27D4 JUMP JUMPDEST PUSH1 0x40 MLOAD DUP1 SWAP2 SUB SWAP1 REVERT JUMPDEST PUSH1 0x0 PUSH1 0x7 PUSH1 0x0 DUP6 DUP2 MSTORE PUSH1 0x20 ADD SWAP1 DUP2 MSTORE PUSH1 0x20 ADD PUSH1 0x0 KECCAK256 PUSH1 0x0 SWAP1 SLOAD SWAP1 PUSH2 0x100 EXP SWAP1 DIV PUSH20 0xFFFFFFFFFFFFFFFFFFFFFFFFFFFFFFFFFFFFFFFF AND SWAP1 POP CALLER PUSH20 0xFFFFFFFFFFFFFFFFFFFFFFFFFFFFFFFFFFFFFFFF AND DUP2 PUSH20 0xFFFFFFFFFFFFFFFFFFFFFFFFFFFFFFFFFFFFFFFF AND PUSH4 0x6352211E DUP6 PUSH1 0x40 MLOAD DUP3 PUSH4 0xFFFFFFFF AND PUSH1 0xE0 SHL DUP2 MSTORE PUSH1 0x4 ADD PUSH3 0xEF9 SWAP2 SWAP1 PUSH3 0x1E47 JUMP JUMPDEST PUSH1 0x20 PUSH1 0x40 MLOAD DUP1 DUP4 SUB DUP2 DUP7 GAS STATICCALL ISZERO DUP1 ISZERO PUSH3 0xF17 JUMPI RETURNDATASIZE PUSH1 0x0 DUP1 RETURNDATACOPY RETURNDATASIZE PUSH1 0x0 REVERT JUMPDEST POP POP POP POP PUSH1 0x40 MLOAD RETURNDATASIZE PUSH1 0x1F NOT PUSH1 0x1F DUP3 ADD AND DUP3 ADD DUP1 PUSH1 0x40 MSTORE POP DUP2 ADD SWAP1 PUSH3 0xF3D SWAP2 SWAP1 PUSH3 0x280D JUMP JUMPDEST PUSH20 0xFFFFFFFFFFFFFFFFFFFFFFFFFFFFFFFFFFFFFFFF AND EQ PUSH3 0xF96 JUMPI PUSH1 0x40 MLOAD PUSH32 0x8C379A000000000000000000000000000000000000000000000000000000000 DUP2 MSTORE PUSH1 0x4 ADD PUSH3 0xF8D SWAP1 PUSH3 0x288F JUMP JUMPDEST PUSH1 0x40 MLOAD DUP1 SWAP2 SUB SWAP1 REVERT JUMPDEST PUSH2 0xA8C0 PUSH1 0x8 PUSH1 0x0 DUP7 DUP2 MSTORE PUSH1 0x20 ADD SWAP1 DUP2 MSTORE PUSH1 0x20 ADD PUSH1 0x0 KECCAK256 PUSH1 0x0 ADD PUSH1 0x0 DUP6 DUP2 MSTORE PUSH1 0x20 ADD SWAP1 DUP2 MSTORE PUSH1 0x20 ADD PUSH1 0x0 KECCAK256 PUSH1 0x0 ADD SLOAD TIMESTAMP PUSH3 0xFD1 SWAP2 SWAP1 PUSH3 0x28B1 JUMP JUMPDEST GT ISZERO PUSH3 0x1015 JUMPI PUSH1 0x40 MLOAD PUSH32 0x8C379A000000000000000000000000000000000000000000000000000000000 DUP2 MSTORE PUSH1 0x4 ADD PUSH3 0x100C SWAP1 PUSH3 0x293C JUMP JUMPDEST PUSH1 0x40 MLOAD DUP1 SWAP2 SUB SWAP1 REVERT JUMPDEST PUSH3 0x15180 PUSH1 0x8 PUSH1 0x0 DUP7 DUP2 MSTORE PUSH1 0x20 ADD SWAP1 DUP2 MSTORE PUSH1 0x20 ADD PUSH1 0x0 KECCAK256 PUSH1 0x0 ADD PUSH1 0x0 DUP6 DUP2 MSTORE PUSH1 0x20 ADD SWAP1 DUP2 MSTORE PUSH1 0x20 ADD PUSH1 0x0 KECCAK256 PUSH1 0x1 ADD SLOAD TIMESTAMP PUSH3 0x1051 SWAP2 SWAP1 PUSH3 0x28B1 JUMP JUMPDEST GT PUSH3 0x1094 JUMPI PUSH1 0x40 MLOAD PUSH32 0x8C379A000000000000000000000000000000000000000000000000000000000 DUP2 MSTORE PUSH1 0x4 ADD PUSH3 0x108B SWAP1 PUSH3 0x29AE JUMP JUMPDEST PUSH1 0x40 MLOAD DUP1 SWAP2 SUB SWAP1 REVERT JUMPDEST TIMESTAMP PUSH1 0x8 PUSH1 0x0 DUP7 DUP2 MSTORE PUSH1 0x20 ADD SWAP1 DUP2 MSTORE PUSH1 0x20 ADD PUSH1 0x0 KECCAK256 PUSH1 0x0 ADD PUSH1 0x0 DUP6 DUP2 MSTORE PUSH1 0x20 ADD SWAP1 DUP2 MSTORE PUSH1 0x20 ADD PUSH1 0x0 KECCAK256 PUSH1 0x1 ADD DUP2 SWAP1 SSTORE POP PUSH1 0x5 PUSH1 0x8 PUSH1 0x0 DUP7 DUP2 MSTORE PUSH1 0x20 ADD SWAP1 DUP2 MSTORE PUSH1 0x20 ADD PUSH1 0x0 KECCAK256 PUSH1 0x0 ADD PUSH1 0x0 DUP6 DUP2 MSTORE PUSH1 0x20 ADD SWAP1 DUP2 MSTORE PUSH1 0x20 ADD PUSH1 0x0 KECCAK256 PUSH1 0x3 ADD PUSH1 0x0 DUP3 DUP3 SLOAD PUSH3 0x1100 SWAP2 SWAP1 PUSH3 0x2370 JUMP JUMPDEST SWAP3 POP POP DUP2 SWAP1 SSTORE POP PUSH3 0x1141 CALLER PUSH32 0x0 PUSH1 0x5 PUSH3 0x113B SWAP2 SWAP1 PUSH3 0x241D JUMP JUMPDEST PUSH3 0x1A89 JUMP JUMPDEST PUSH1 0x1 SWAP2 POP POP SWAP3 SWAP2 POP POP JUMP JUMPDEST PUSH1 0x0 PUSH1 0x1 PUSH1 0x0 DUP5 PUSH20 0xFFFFFFFFFFFFFFFFFFFFFFFFFFFFFFFFFFFFFFFF AND PUSH20 0xFFFFFFFFFFFFFFFFFFFFFFFFFFFFFFFFFFFFFFFF AND DUP2 MSTORE PUSH1 0x20 ADD SWAP1 DUP2 MSTORE PUSH1 0x20 ADD PUSH1 0x0 KECCAK256 PUSH1 0x0 DUP4 PUSH20 0xFFFFFFFFFFFFFFFFFFFFFFFFFFFFFFFFFFFFFFFF AND PUSH20 0xFFFFFFFFFFFFFFFFFFFFFFFFFFFFFFFFFFFFFFFF AND DUP2 MSTORE PUSH1 0x20 ADD SWAP1 DUP2 MSTORE PUSH1 0x20 ADD PUSH1 0x0 KECCAK256 SLOAD SWAP1 POP SWAP3 SWAP2 POP POP JUMP JUMPDEST PUSH1 0x0 PUSH1 0x1 ISZERO ISZERO PUSH1 0x9 PUSH1 0x0 DUP6 DUP2 MSTORE PUSH1 0x20 ADD SWAP1 DUP2 MSTORE PUSH1 0x20 ADD PUSH1 0x0 KECCAK256 PUSH1 0x0 SWAP1 SLOAD SWAP1 PUSH2 0x100 EXP SWAP1 DIV PUSH1 0xFF AND ISZERO ISZERO EQ PUSH3 0x123F JUMPI PUSH1 0x40 MLOAD PUSH32 0x8C379A000000000000000000000000000000000000000000000000000000000 DUP2 MSTORE PUSH1 0x4 ADD PUSH3 0x1236 SWAP1 PUSH3 0x23FB JUMP JUMPDEST PUSH1 0x40 MLOAD DUP1 SWAP2 SUB SWAP1 REVERT JUMPDEST PUSH1 0x8 PUSH1 0x0 DUP5 DUP2 MSTORE PUSH1 0x20 ADD SWAP1 DUP2 MSTORE PUSH1 0x20 ADD PUSH1 0x0 KECCAK256 PUSH1 0x0 ADD PUSH1 0x0 DUP4 DUP2 MSTORE PUSH1 0x20 ADD SWAP1 DUP2 MSTORE PUSH1 0x20 ADD PUSH1 0x0 KECCAK256 PUSH1 0x4 ADD PUSH1 0x0 SWAP1 SLOAD SWAP1 PUSH2 0x100 EXP SWAP1 DIV PUSH1 0xFF AND PUSH3 0x12B9 JUMPI PUSH1 0x40 MLOAD PUSH32 0x8C379A000000000000000000000000000000000000000000000000000000000 DUP2 MSTORE PUSH1 0x4 ADD PUSH3 0x12B0 SWAP1 PUSH3 0x27D4 JUMP JUMPDEST PUSH1 0x40 MLOAD DUP1 SWAP2 SUB SWAP1 REVERT JUMPDEST PUSH1 0x0 PUSH1 0x7 PUSH1 0x0 DUP6 DUP2 MSTORE PUSH1 0x20 ADD SWAP1 DUP2 MSTORE PUSH1 0x20 ADD PUSH1 0x0 KECCAK256 PUSH1 0x0 SWAP1 SLOAD SWAP1 PUSH2 0x100 EXP SWAP1 DIV PUSH20 0xFFFFFFFFFFFFFFFFFFFFFFFFFFFFFFFFFFFFFFFF AND SWAP1 POP CALLER PUSH20 0xFFFFFFFFFFFFFFFFFFFFFFFFFFFFFFFFFFFFFFFF AND DUP2 PUSH20 0xFFFFFFFFFFFFFFFFFFFFFFFFFFFFFFFFFFFFFFFF AND PUSH4 0x6352211E DUP6 PUSH1 0x40 MLOAD DUP3 PUSH4 0xFFFFFFFF AND PUSH1 0xE0 SHL DUP2 MSTORE PUSH1 0x4 ADD PUSH3 0x1343 SWAP2 SWAP1 PUSH3 0x1E47 JUMP JUMPDEST PUSH1 0x20 PUSH1 0x40 MLOAD DUP1 DUP4 SUB DUP2 DUP7 GAS STATICCALL ISZERO DUP1 ISZERO PUSH3 0x1361 JUMPI RETURNDATASIZE PUSH1 0x0 DUP1 RETURNDATACOPY RETURNDATASIZE PUSH1 0x0 REVERT JUMPDEST POP POP POP POP PUSH1 0x40 MLOAD RETURNDATASIZE PUSH1 0x1F NOT PUSH1 0x1F DUP3 ADD AND DUP3 ADD DUP1 PUSH1 0x40 MSTORE POP DUP2 ADD SWAP1 PUSH3 0x1387 SWAP2 SWAP1 PUSH3 0x280D JUMP JUMPDEST PUSH20 0xFFFFFFFFFFFFFFFFFFFFFFFFFFFFFFFFFFFFFFFF AND EQ PUSH3 0x13E0 JUMPI PUSH1 0x40 MLOAD PUSH32 0x8C379A000000000000000000000000000000000000000000000000000000000 DUP2 MSTORE PUSH1 0x4 ADD PUSH3 0x13D7 SWAP1 PUSH3 0x288F JUMP JUMPDEST PUSH1 0x40 MLOAD DUP1 SWAP2 SUB SWAP1 REVERT JUMPDEST PUSH32 0x0 PUSH20 0xFFFFFFFFFFFFFFFFFFFFFFFFFFFFFFFFFFFFFFFF AND PUSH4 0x23B872DD CALLER ADDRESS PUSH32 0x0 PUSH1 0x1 PUSH3 0x144D SWAP2 SWAP1 PUSH3 0x241D JUMP JUMPDEST PUSH1 0x40 MLOAD DUP5 PUSH4 0xFFFFFFFF AND PUSH1 0xE0 SHL DUP2 MSTORE PUSH1 0x4 ADD PUSH3 0x146D SWAP4 SWAP3 SWAP2 SWAP1 PUSH3 0x2479 JUMP JUMPDEST PUSH1 0x20 PUSH1 0x40 MLOAD DUP1 DUP4 SUB DUP2 PUSH1 0x0 DUP8 GAS CALL ISZERO DUP1 ISZERO PUSH3 0x148D JUMPI RETURNDATASIZE PUSH1 0x0 DUP1 RETURNDATACOPY RETURNDATASIZE PUSH1 0x0 REVERT JUMPDEST POP POP POP POP PUSH1 0x40 MLOAD RETURNDATASIZE PUSH1 0x1F NOT PUSH1 0x1F DUP3 ADD AND DUP3 ADD DUP1 PUSH1 0x40 MSTORE POP DUP2 ADD SWAP1 PUSH3 0x14B3 SWAP2 SWAP1 PUSH3 0x24E7 JUMP JUMPDEST PUSH3 0x14F5 JUMPI PUSH1 0x40 MLOAD PUSH32 0x8C379A000000000000000000000000000000000000000000000000000000000 DUP2 MSTORE PUSH1 0x4 ADD PUSH3 0x14EC SWAP1 PUSH3 0x2569 JUMP JUMPDEST PUSH1 0x40 MLOAD DUP1 SWAP2 SUB SWAP1 REVERT JUMPDEST TIMESTAMP PUSH1 0x8 PUSH1 0x0 DUP7 DUP2 MSTORE PUSH1 0x20 ADD SWAP1 DUP2 MSTORE PUSH1 0x20 ADD PUSH1 0x0 KECCAK256 PUSH1 0x0 ADD PUSH1 0x0 DUP6 DUP2 MSTORE PUSH1 0x20 ADD SWAP1 DUP2 MSTORE PUSH1 0x20 ADD PUSH1 0x0 KECCAK256 PUSH1 0x0 ADD DUP2 SWAP1 SSTORE POP PUSH1 0x1 PUSH1 0x8 PUSH1 0x0 DUP7 DUP2 MSTORE PUSH1 0x20 ADD SWAP1 DUP2 MSTORE PUSH1 0x20 ADD PUSH1 0x0 KECCAK256 PUSH1 0x0 ADD PUSH1 0x0 DUP6 DUP2 MSTORE PUSH1 0x20 ADD SWAP1 DUP2 MSTORE PUSH1 0x20 ADD PUSH1 0x0 KECCAK256 PUSH1 0x2 ADD PUSH1 0x0 DUP3 DUP3 SLOAD PUSH3 0x1561 SWAP2 SWAP1 PUSH3 0x2370 JUMP JUMPDEST SWAP3 POP POP DUP2 SWAP1 SSTORE POP PUSH1 0x1 SWAP2 POP POP SWAP3 SWAP2 POP POP JUMP JUMPDEST PUSH1 0x0 CALLER SWAP1 POP SWAP1 JUMP JUMPDEST PUSH1 0x0 PUSH20 0xFFFFFFFFFFFFFFFFFFFFFFFFFFFFFFFFFFFFFFFF AND DUP4 PUSH20 0xFFFFFFFFFFFFFFFFFFFFFFFFFFFFFFFFFFFFFFFF AND SUB PUSH3 0x15ED JUMPI PUSH1 0x40 MLOAD PUSH32 0x8C379A000000000000000000000000000000000000000000000000000000000 DUP2 MSTORE PUSH1 0x4 ADD PUSH3 0x15E4 SWAP1 PUSH3 0x2A46 JUMP JUMPDEST PUSH1 0x40 MLOAD DUP1 SWAP2 SUB SWAP1 REVERT JUMPDEST PUSH1 0x0 PUSH20 0xFFFFFFFFFFFFFFFFFFFFFFFFFFFFFFFFFFFFFFFF AND DUP3 PUSH20 0xFFFFFFFFFFFFFFFFFFFFFFFFFFFFFFFFFFFFFFFF AND SUB PUSH3 0x165F JUMPI PUSH1 0x40 MLOAD PUSH32 0x8C379A000000000000000000000000000000000000000000000000000000000 DUP2 MSTORE PUSH1 0x4 ADD PUSH3 0x1656 SWAP1 PUSH3 0x2ADE JUMP JUMPDEST PUSH1 0x40 MLOAD DUP1 SWAP2 SUB SWAP1 REVERT JUMPDEST DUP1 PUSH1 0x1 PUSH1 0x0 DUP6 PUSH20 0xFFFFFFFFFFFFFFFFFFFFFFFFFFFFFFFFFFFFFFFF AND PUSH20 0xFFFFFFFFFFFFFFFFFFFFFFFFFFFFFFFFFFFFFFFF AND DUP2 MSTORE PUSH1 0x20 ADD SWAP1 DUP2 MSTORE PUSH1 0x20 ADD PUSH1 0x0 KECCAK256 PUSH1 0x0 DUP5 PUSH20 0xFFFFFFFFFFFFFFFFFFFFFFFFFFFFFFFFFFFFFFFF AND PUSH20 0xFFFFFFFFFFFFFFFFFFFFFFFFFFFFFFFFFFFFFFFF AND DUP2 MSTORE PUSH1 0x20 ADD SWAP1 DUP2 MSTORE PUSH1 0x20 ADD PUSH1 0x0 KECCAK256 DUP2 SWAP1 SSTORE POP DUP2 PUSH20 0xFFFFFFFFFFFFFFFFFFFFFFFFFFFFFFFFFFFFFFFF AND DUP4 PUSH20 0xFFFFFFFFFFFFFFFFFFFFFFFFFFFFFFFFFFFFFFFF AND PUSH32 0x8C5BE1E5EBEC7D5BD14F71427D1E84F3DD0314C0F7B2291E5B200AC8C7C3B925 DUP4 PUSH1 0x40 MLOAD PUSH3 0x173F SWAP2 SWAP1 PUSH3 0x1E47 JUMP JUMPDEST PUSH1 0x40 MLOAD DUP1 SWAP2 SUB SWAP1 LOG3 POP POP POP JUMP JUMPDEST PUSH1 0x0 PUSH3 0x175A DUP5 DUP5 PUSH3 0x114C JUMP JUMPDEST SWAP1 POP PUSH32 0xFFFFFFFFFFFFFFFFFFFFFFFFFFFFFFFFFFFFFFFFFFFFFFFFFFFFFFFFFFFFFFFF DUP2 EQ PUSH3 0x17DA JUMPI DUP2 DUP2 LT ISZERO PUSH3 0x17CA JUMPI PUSH1 0x40 MLOAD PUSH32 0x8C379A000000000000000000000000000000000000000000000000000000000 DUP2 MSTORE PUSH1 0x4 ADD PUSH3 0x17C1 SWAP1 PUSH3 0x2B50 JUMP JUMPDEST PUSH1 0x40 MLOAD DUP1 SWAP2 SUB SWAP1 REVERT JUMPDEST PUSH3 0x17D9 DUP5 DUP5 DUP5 DUP5 SUB PUSH3 0x157B JUMP JUMPDEST JUMPDEST POP POP POP POP JUMP JUMPDEST PUSH1 0x0 PUSH20 0xFFFFFFFFFFFFFFFFFFFFFFFFFFFFFFFFFFFFFFFF AND DUP4 PUSH20 0xFFFFFFFFFFFFFFFFFFFFFFFFFFFFFFFFFFFFFFFF AND SUB PUSH3 0x1852 JUMPI PUSH1 0x40 MLOAD PUSH32 0x8C379A000000000000000000000000000000000000000000000000000000000 DUP2 MSTORE PUSH1 0x4 ADD PUSH3 0x1849 SWAP1 PUSH3 0x2BE8 JUMP JUMPDEST PUSH1 0x40 MLOAD DUP1 SWAP2 SUB SWAP1 REVERT JUMPDEST PUSH1 0x0 PUSH20 0xFFFFFFFFFFFFFFFFFFFFFFFFFFFFFFFFFFFFFFFF AND DUP3 PUSH20 0xFFFFFFFFFFFFFFFFFFFFFFFFFFFFFFFFFFFFFFFF AND SUB PUSH3 0x18C4 JUMPI PUSH1 0x40 MLOAD PUSH32 0x8C379A000000000000000000000000000000000000000000000000000000000 DUP2 MSTORE PUSH1 0x4 ADD PUSH3 0x18BB SWAP1 PUSH3 0x2C80 JUMP JUMPDEST PUSH1 0x40 MLOAD DUP1 SWAP2 SUB SWAP1 REVERT JUMPDEST PUSH3 0x18D1 DUP4 DUP4 DUP4 PUSH3 0x1A99 JUMP JUMPDEST PUSH1 0x0 DUP1 PUSH1 0x0 DUP6 PUSH20 0xFFFFFFFFFFFFFFFFFFFFFFFFFFFFFFFFFFFFFFFF AND PUSH20 0xFFFFFFFFFFFFFFFFFFFFFFFFFFFFFFFFFFFFFFFF AND DUP2 MSTORE PUSH1 0x20 ADD SWAP1 DUP2 MSTORE PUSH1 0x20 ADD PUSH1 0x0 KECCAK256 SLOAD SWAP1 POP DUP2 DUP2 LT ISZERO PUSH3 0x195A JUMPI PUSH1 0x40 MLOAD PUSH32 0x8C379A000000000000000000000000000000000000000000000000000000000 DUP2 MSTORE PUSH1 0x4 ADD PUSH3 0x1951 SWAP1 PUSH3 0x2D18 JUMP JUMPDEST PUSH1 0x40 MLOAD DUP1 SWAP2 SUB SWAP1 REVERT JUMPDEST DUP2 DUP2 SUB PUSH1 0x0 DUP1 DUP7 PUSH20 0xFFFFFFFFFFFFFFFFFFFFFFFFFFFFFFFFFFFFFFFF AND PUSH20 0xFFFFFFFFFFFFFFFFFFFFFFFFFFFFFFFFFFFFFFFF AND DUP2 MSTORE PUSH1 0x20 ADD SWAP1 DUP2 MSTORE PUSH1 0x20 ADD PUSH1 0x0 KECCAK256 DUP2 SWAP1 SSTORE POP DUP2 PUSH1 0x0 DUP1 DUP6 PUSH20 0xFFFFFFFFFFFFFFFFFFFFFFFFFFFFFFFFFFFFFFFF AND PUSH20 0xFFFFFFFFFFFFFFFFFFFFFFFFFFFFFFFFFFFFFFFF AND DUP2 MSTORE PUSH1 0x20 ADD SWAP1 DUP2 MSTORE PUSH1 0x20 ADD PUSH1 0x0 KECCAK256 PUSH1 0x0 DUP3 DUP3 SLOAD ADD SWAP3 POP POP DUP2 SWAP1 SSTORE POP DUP3 PUSH20 0xFFFFFFFFFFFFFFFFFFFFFFFFFFFFFFFFFFFFFFFF AND DUP5 PUSH20 0xFFFFFFFFFFFFFFFFFFFFFFFFFFFFFFFFFFFFFFFF AND PUSH32 0xDDF252AD1BE2C89B69C2B068FC378DAA952BA7F163C4A11628F55A4DF523B3EF DUP5 PUSH1 0x40 MLOAD PUSH3 0x1A4A SWAP2 SWAP1 PUSH3 0x1E47 JUMP JUMPDEST PUSH1 0x40 MLOAD DUP1 SWAP2 SUB SWAP1 LOG3 PUSH3 0x1A5F DUP5 DUP5 DUP5 PUSH3 0x1A9E JUMP JUMPDEST POP POP POP POP JUMP JUMPDEST PUSH1 0x1 DUP2 PUSH1 0x0 ADD PUSH1 0x0 DUP3 DUP3 SLOAD ADD SWAP3 POP POP DUP2 SWAP1 SSTORE POP POP JUMP JUMPDEST PUSH1 0x0 DUP2 PUSH1 0x0 ADD SLOAD SWAP1 POP SWAP2 SWAP1 POP JUMP JUMPDEST PUSH3 0x1A95 DUP3 DUP3 PUSH3 0x1AA3 JUMP JUMPDEST POP POP JUMP JUMPDEST POP POP POP JUMP JUMPDEST POP POP POP JUMP JUMPDEST PUSH1 0x0 PUSH20 0xFFFFFFFFFFFFFFFFFFFFFFFFFFFFFFFFFFFFFFFF AND DUP3 PUSH20 0xFFFFFFFFFFFFFFFFFFFFFFFFFFFFFFFFFFFFFFFF AND SUB PUSH3 0x1B15 JUMPI PUSH1 0x40 MLOAD PUSH32 0x8C379A000000000000000000000000000000000000000000000000000000000 DUP2 MSTORE PUSH1 0x4 ADD PUSH3 0x1B0C SWAP1 PUSH3 0x2D8A JUMP JUMPDEST PUSH1 0x40 MLOAD DUP1 SWAP2 SUB SWAP1 REVERT JUMPDEST PUSH3 0x1B23 PUSH1 0x0 DUP4 DUP4 PUSH3 0x1A99 JUMP JUMPDEST DUP1 PUSH1 0x2 PUSH1 0x0 DUP3 DUP3 SLOAD PUSH3 0x1B37 SWAP2 SWAP1 PUSH3 0x2370 JUMP JUMPDEST SWAP3 POP POP DUP2 SWAP1 SSTORE POP DUP1 PUSH1 0x0 DUP1 DUP5 PUSH20 0xFFFFFFFFFFFFFFFFFFFFFFFFFFFFFFFFFFFFFFFF AND PUSH20 0xFFFFFFFFFFFFFFFFFFFFFFFFFFFFFFFFFFFFFFFF AND DUP2 MSTORE PUSH1 0x20 ADD SWAP1 DUP2 MSTORE PUSH1 0x20 ADD PUSH1 0x0 KECCAK256 PUSH1 0x0 DUP3 DUP3 SLOAD ADD SWAP3 POP POP DUP2 SWAP1 SSTORE POP DUP2 PUSH20 0xFFFFFFFFFFFFFFFFFFFFFFFFFFFFFFFFFFFFFFFF AND PUSH1 0x0 PUSH20 0xFFFFFFFFFFFFFFFFFFFFFFFFFFFFFFFFFFFFFFFF AND PUSH32 0xDDF252AD1BE2C89B69C2B068FC378DAA952BA7F163C4A11628F55A4DF523B3EF DUP4 PUSH1 0x40 MLOAD PUSH3 0x1BEA SWAP2 SWAP1 PUSH3 0x1E47 JUMP JUMPDEST PUSH1 0x40 MLOAD DUP1 SWAP2 SUB SWAP1 LOG3 PUSH3 0x1C00 PUSH1 0x0 DUP4 DUP4 PUSH3 0x1A9E JUMP JUMPDEST POP POP JUMP JUMPDEST PUSH1 0x40 MLOAD DUP1 PUSH1 0xA0 ADD PUSH1 0x40 MSTORE DUP1 PUSH1 0x0 DUP2 MSTORE PUSH1 0x20 ADD PUSH1 0x0 DUP2 MSTORE PUSH1 0x20 ADD PUSH1 0x0 DUP2 MSTORE PUSH1 0x20 ADD PUSH1 0x0 DUP2 MSTORE PUSH1 0x20 ADD PUSH1 0x0 ISZERO ISZERO DUP2 MSTORE POP SWAP1 JUMP JUMPDEST PUSH2 0x31C5 DUP1 PUSH3 0x2DAD DUP4 CODECOPY ADD SWAP1 JUMP JUMPDEST PUSH1 0x0 DUP2 MLOAD SWAP1 POP SWAP2 SWAP1 POP JUMP JUMPDEST PUSH1 0x0 DUP3 DUP3 MSTORE PUSH1 0x20 DUP3 ADD SWAP1 POP SWAP3 SWAP2 POP POP JUMP JUMPDEST PUSH1 0x0 JUMPDEST DUP4 DUP2 LT ISZERO PUSH3 0x1C7F JUMPI DUP1 DUP3 ADD MLOAD DUP2 DUP5 ADD MSTORE PUSH1 0x20 DUP2 ADD SWAP1 POP PUSH3 0x1C62 JUMP JUMPDEST PUSH1 0x0 DUP5 DUP5 ADD MSTORE POP POP POP POP JUMP JUMPDEST PUSH1 0x0 PUSH1 0x1F NOT PUSH1 0x1F DUP4 ADD AND SWAP1 POP SWAP2 SWAP1 POP JUMP JUMPDEST PUSH1 0x0 PUSH3 0x1CA9 DUP3 PUSH3 0x1C43 JUMP JUMPDEST PUSH3 0x1CB5 DUP2 DUP6 PUSH3 0x1C4E JUMP JUMPDEST SWAP4 POP PUSH3 0x1CC7 DUP2 DUP6 PUSH1 0x20 DUP7 ADD PUSH3 0x1C5F JUMP JUMPDEST PUSH3 0x1CD2 DUP2 PUSH3 0x1C8B JUMP JUMPDEST DUP5 ADD SWAP2 POP POP SWAP3 SWAP2 POP POP JUMP JUMPDEST PUSH1 0x0 PUSH1 0x20 DUP3 ADD SWAP1 POP DUP2 DUP2 SUB PUSH1 0x0 DUP4 ADD MSTORE PUSH3 0x1CF9 DUP2 DUP5 PUSH3 0x1C9C JUMP JUMPDEST SWAP1 POP SWAP3 SWAP2 POP POP JUMP JUMPDEST PUSH1 0x0 PUSH1 0x40 MLOAD SWAP1 POP SWAP1 JUMP JUMPDEST PUSH1 0x0 DUP1 REVERT JUMPDEST PUSH1 0x0 DUP1 REVERT JUMPDEST PUSH1 0x0 PUSH20 0xFFFFFFFFFFFFFFFFFFFFFFFFFFFFFFFFFFFFFFFF DUP3 AND SWAP1 POP SWAP2 SWAP1 POP JUMP JUMPDEST PUSH1 0x0 PUSH3 0x1D42 DUP3 PUSH3 0x1D15 JUMP JUMPDEST SWAP1 POP SWAP2 SWAP1 POP JUMP JUMPDEST PUSH3 0x1D54 DUP2 PUSH3 0x1D35 JUMP JUMPDEST DUP2 EQ PUSH3 0x1D60 JUMPI PUSH1 0x0 DUP1 REVERT JUMPDEST POP JUMP JUMPDEST PUSH1 0x0 DUP2 CALLDATALOAD SWAP1 POP PUSH3 0x1D74 DUP2 PUSH3 0x1D49 JUMP JUMPDEST SWAP3 SWAP2 POP POP JUMP JUMPDEST PUSH1 0x0 DUP2 SWAP1 POP SWAP2 SWAP1 POP JUMP JUMPDEST PUSH3 0x1D8F DUP2 PUSH3 0x1D7A JUMP JUMPDEST DUP2 EQ PUSH3 0x1D9B JUMPI PUSH1 0x0 DUP1 REVERT JUMPDEST POP JUMP JUMPDEST PUSH1 0x0 DUP2 CALLDATALOAD SWAP1 POP PUSH3 0x1DAF DUP2 PUSH3 0x1D84 JUMP JUMPDEST SWAP3 SWAP2 POP POP JUMP JUMPDEST PUSH1 0x0 DUP1 PUSH1 0x40 DUP4 DUP6 SUB SLT ISZERO PUSH3 0x1DCF JUMPI PUSH3 0x1DCE PUSH3 0x1D0B JUMP JUMPDEST JUMPDEST PUSH1 0x0 PUSH3 0x1DDF DUP6 DUP3 DUP7 ADD PUSH3 0x1D63 JUMP JUMPDEST SWAP3 POP POP PUSH1 0x20 PUSH3 0x1DF2 DUP6 DUP3 DUP7 ADD PUSH3 0x1D9E JUMP JUMPDEST SWAP2 POP POP SWAP3 POP SWAP3 SWAP1 POP JUMP JUMPDEST PUSH1 0x0 DUP2 ISZERO ISZERO SWAP1 POP SWAP2 SWAP1 POP JUMP JUMPDEST PUSH3 0x1E13 DUP2 PUSH3 0x1DFC JUMP JUMPDEST DUP3 MSTORE POP POP JUMP JUMPDEST PUSH1 0x0 PUSH1 0x20 DUP3 ADD SWAP1 POP PUSH3 0x1E30 PUSH1 0x0 DUP4 ADD DUP5 PUSH3 0x1E08 JUMP JUMPDEST SWAP3 SWAP2 POP POP JUMP JUMPDEST PUSH3 0x1E41 DUP2 PUSH3 0x1D7A JUMP JUMPDEST DUP3 MSTORE POP POP JUMP JUMPDEST PUSH1 0x0 PUSH1 0x20 DUP3 ADD SWAP1 POP PUSH3 0x1E5E PUSH1 0x0 DUP4 ADD DUP5 PUSH3 0x1E36 JUMP JUMPDEST SWAP3 SWAP2 POP POP JUMP JUMPDEST PUSH1 0x0 DUP1 PUSH1 0x40 DUP4 DUP6 SUB SLT ISZERO PUSH3 0x1E7E JUMPI PUSH3 0x1E7D PUSH3 0x1D0B JUMP JUMPDEST JUMPDEST PUSH1 0x0 PUSH3 0x1E8E DUP6 DUP3 DUP7 ADD PUSH3 0x1D9E JUMP JUMPDEST SWAP3 POP POP PUSH1 0x20 PUSH3 0x1EA1 DUP6 DUP3 DUP7 ADD PUSH3 0x1D9E JUMP JUMPDEST SWAP2 POP POP SWAP3 POP SWAP3 SWAP1 POP JUMP JUMPDEST PUSH3 0x1EB6 DUP2 PUSH3 0x1D7A JUMP JUMPDEST DUP3 MSTORE POP POP JUMP JUMPDEST PUSH3 0x1EC7 DUP2 PUSH3 0x1DFC JUMP JUMPDEST DUP3 MSTORE POP POP JUMP JUMPDEST PUSH1 0xA0 DUP3 ADD PUSH1 0x0 DUP3 ADD MLOAD PUSH3 0x1EE5 PUSH1 0x0 DUP6 ADD DUP3 PUSH3 0x1EAB JUMP JUMPDEST POP PUSH1 0x20 DUP3 ADD MLOAD PUSH3 0x1EFA PUSH1 0x20 DUP6 ADD DUP3 PUSH3 0x1EAB JUMP JUMPDEST POP PUSH1 0x40 DUP3 ADD MLOAD PUSH3 0x1F0F PUSH1 0x40 DUP6 ADD DUP3 PUSH3 0x1EAB JUMP JUMPDEST POP PUSH1 0x60 DUP3 ADD MLOAD PUSH3 0x1F24 PUSH1 0x60 DUP6 ADD DUP3 PUSH3 0x1EAB JUMP JUMPDEST POP PUSH1 0x80 DUP3 ADD MLOAD PUSH3 0x1F39 PUSH1 0x80 DUP6 ADD DUP3 PUSH3 0x1EBC JUMP JUMPDEST POP POP POP POP JUMP JUMPDEST PUSH1 0x0 PUSH1 0xA0 DUP3 ADD SWAP1 POP PUSH3 0x1F56 PUSH1 0x0 DUP4 ADD DUP5 PUSH3 0x1ECD JUMP JUMPDEST SWAP3 SWAP2 POP POP JUMP JUMPDEST PUSH1 0x0 DUP1 PUSH1 0x0 PUSH1 0x60 DUP5 DUP7 SUB SLT ISZERO PUSH3 0x1F78 JUMPI PUSH3 0x1F77 PUSH3 0x1D0B JUMP JUMPDEST JUMPDEST PUSH1 0x0 PUSH3 0x1F88 DUP7 DUP3 DUP8 ADD PUSH3 0x1D63 JUMP JUMPDEST SWAP4 POP POP PUSH1 0x20 PUSH3 0x1F9B DUP7 DUP3 DUP8 ADD PUSH3 0x1D63 JUMP JUMPDEST SWAP3 POP POP PUSH1 0x40 PUSH3 0x1FAE DUP7 DUP3 DUP8 ADD PUSH3 0x1D9E JUMP JUMPDEST SWAP2 POP POP SWAP3 POP SWAP3 POP SWAP3 JUMP JUMPDEST PUSH1 0x0 PUSH1 0xFF DUP3 AND SWAP1 POP SWAP2 SWAP1 POP JUMP JUMPDEST PUSH3 0x1FD0 DUP2 PUSH3 0x1FB8 JUMP JUMPDEST DUP3 MSTORE POP POP JUMP JUMPDEST PUSH1 0x0 PUSH1 0x20 DUP3 ADD SWAP1 POP PUSH3 0x1FED PUSH1 0x0 DUP4 ADD DUP5 PUSH3 0x1FC5 JUMP JUMPDEST SWAP3 SWAP2 POP POP JUMP JUMPDEST PUSH1 0x0 DUP1 REVERT JUMPDEST PUSH1 0x0 DUP1 REVERT JUMPDEST PUSH32 0x4E487B7100000000000000000000000000000000000000000000000000000000 PUSH1 0x0 MSTORE PUSH1 0x41 PUSH1 0x4 MSTORE PUSH1 0x24 PUSH1 0x0 REVERT JUMPDEST PUSH3 0x2037 DUP3 PUSH3 0x1C8B JUMP JUMPDEST DUP2 ADD DUP2 DUP2 LT PUSH8 0xFFFFFFFFFFFFFFFF DUP3 GT OR ISZERO PUSH3 0x2059 JUMPI PUSH3 0x2058 PUSH3 0x1FFD JUMP JUMPDEST JUMPDEST DUP1 PUSH1 0x40 MSTORE POP POP POP JUMP JUMPDEST PUSH1 0x0 PUSH3 0x206E PUSH3 0x1D01 JUMP JUMPDEST SWAP1 POP PUSH3 0x207C DUP3 DUP3 PUSH3 0x202C JUMP JUMPDEST SWAP2 SWAP1 POP JUMP JUMPDEST PUSH1 0x0 PUSH8 0xFFFFFFFFFFFFFFFF DUP3 GT ISZERO PUSH3 0x209F JUMPI PUSH3 0x209E PUSH3 0x1FFD JUMP JUMPDEST JUMPDEST PUSH3 0x20AA DUP3 PUSH3 0x1C8B JUMP JUMPDEST SWAP1 POP PUSH1 0x20 DUP2 ADD SWAP1 POP SWAP2 SWAP1 POP JUMP JUMPDEST DUP3 DUP2 DUP4 CALLDATACOPY PUSH1 0x0 DUP4 DUP4 ADD MSTORE POP POP POP JUMP JUMPDEST PUSH1 0x0 PUSH3 0x20DD PUSH3 0x20D7 DUP5 PUSH3 0x2081 JUMP JUMPDEST PUSH3 0x2062 JUMP JUMPDEST SWAP1 POP DUP3 DUP2 MSTORE PUSH1 0x20 DUP2 ADD DUP5 DUP5 DUP5 ADD GT ISZERO PUSH3 0x20FC JUMPI PUSH3 0x20FB PUSH3 0x1FF8 JUMP JUMPDEST JUMPDEST PUSH3 0x2109 DUP5 DUP3 DUP6 PUSH3 0x20B7 JUMP JUMPDEST POP SWAP4 SWAP3 POP POP POP JUMP JUMPDEST PUSH1 0x0 DUP3 PUSH1 0x1F DUP4 ADD SLT PUSH3 0x2129 JUMPI PUSH3 0x2128 PUSH3 0x1FF3 JUMP JUMPDEST JUMPDEST DUP2 CALLDATALOAD PUSH3 0x213B DUP5 DUP3 PUSH1 0x20 DUP7 ADD PUSH3 0x20C6 JUMP JUMPDEST SWAP2 POP POP SWAP3 SWAP2 POP POP JUMP JUMPDEST PUSH1 0x0 DUP1 PUSH1 0x40 DUP4 DUP6 SUB SLT ISZERO PUSH3 0x215E JUMPI PUSH3 0x215D PUSH3 0x1D0B JUMP JUMPDEST JUMPDEST PUSH1 0x0 PUSH3 0x216E DUP6 DUP3 DUP7 ADD PUSH3 0x1D9E JUMP JUMPDEST SWAP3 POP POP PUSH1 0x20 DUP4 ADD CALLDATALOAD PUSH8 0xFFFFFFFFFFFFFFFF DUP2 GT ISZERO PUSH3 0x2192 JUMPI PUSH3 0x2191 PUSH3 0x1D10 JUMP JUMPDEST JUMPDEST PUSH3 0x21A0 DUP6 DUP3 DUP7 ADD PUSH3 0x2111 JUMP JUMPDEST SWAP2 POP POP SWAP3 POP SWAP3 SWAP1 POP JUMP JUMPDEST PUSH1 0x0 PUSH1 0x20 DUP3 DUP5 SUB SLT ISZERO PUSH3 0x21C3 JUMPI PUSH3 0x21C2 PUSH3 0x1D0B JUMP JUMPDEST JUMPDEST PUSH1 0x0 PUSH3 0x21D3 DUP5 DUP3 DUP6 ADD PUSH3 0x1D9E JUMP JUMPDEST SWAP2 POP POP SWAP3 SWAP2 POP POP JUMP JUMPDEST PUSH1 0x0 PUSH1 0x20 DUP3 DUP5 SUB SLT ISZERO PUSH3 0x21F5 JUMPI PUSH3 0x21F4 PUSH3 0x1D0B JUMP JUMPDEST JUMPDEST PUSH1 0x0 PUSH3 0x2205 DUP5 DUP3 DUP6 ADD PUSH3 0x1D63 JUMP JUMPDEST SWAP2 POP POP SWAP3 SWAP2 POP POP JUMP JUMPDEST PUSH1 0x0 DUP2 SWAP1 POP SWAP2 SWAP1 POP JUMP JUMPDEST PUSH1 0x0 PUSH3 0x2239 PUSH3 0x2233 PUSH3 0x222D DUP5 PUSH3 0x1D15 JUMP JUMPDEST PUSH3 0x220E JUMP JUMPDEST PUSH3 0x1D15 JUMP JUMPDEST SWAP1 POP SWAP2 SWAP1 POP JUMP JUMPDEST PUSH1 0x0 PUSH3 0x224D DUP3 PUSH3 0x2218 JUMP JUMPDEST SWAP1 POP SWAP2 SWAP1 POP JUMP JUMPDEST PUSH1 0x0 PUSH3 0x2261 DUP3 PUSH3 0x2240 JUMP JUMPDEST SWAP1 POP SWAP2 SWAP1 POP JUMP JUMPDEST PUSH3 0x2273 DUP2 PUSH3 0x2254 JUMP JUMPDEST DUP3 MSTORE POP POP JUMP JUMPDEST PUSH1 0x0 PUSH1 0x20 DUP3 ADD SWAP1 POP PUSH3 0x2290 PUSH1 0x0 DUP4 ADD DUP5 PUSH3 0x2268 JUMP JUMPDEST SWAP3 SWAP2 POP POP JUMP JUMPDEST PUSH1 0x0 DUP1 PUSH1 0x40 DUP4 DUP6 SUB SLT ISZERO PUSH3 0x22B0 JUMPI PUSH3 0x22AF PUSH3 0x1D0B JUMP JUMPDEST JUMPDEST PUSH1 0x0 PUSH3 0x22C0 DUP6 DUP3 DUP7 ADD PUSH3 0x1D63 JUMP JUMPDEST SWAP3 POP POP PUSH1 0x20 PUSH3 0x22D3 DUP6 DUP3 DUP7 ADD PUSH3 0x1D63 JUMP JUMPDEST SWAP2 POP POP SWAP3 POP SWAP3 SWAP1 POP JUMP JUMPDEST PUSH32 0x4E487B7100000000000000000000000000000000000000000000000000000000 PUSH1 0x0 MSTORE PUSH1 0x22 PUSH1 0x4 MSTORE PUSH1 0x24 PUSH1 0x0 REVERT JUMPDEST PUSH1 0x0 PUSH1 0x2 DUP3 DIV SWAP1 POP PUSH1 0x1 DUP3 AND DUP1 PUSH3 0x2325 JUMPI PUSH1 0x7F DUP3 AND SWAP2 POP JUMPDEST PUSH1 0x20 DUP3 LT DUP2 SUB PUSH3 0x233B JUMPI PUSH3 0x233A PUSH3 0x22DD JUMP JUMPDEST JUMPDEST POP SWAP2 SWAP1 POP JUMP JUMPDEST PUSH32 0x4E487B7100000000000000000000000000000000000000000000000000000000 PUSH1 0x0 MSTORE PUSH1 0x11 PUSH1 0x4 MSTORE PUSH1 0x24 PUSH1 0x0 REVERT JUMPDEST PUSH1 0x0 PUSH3 0x237D DUP3 PUSH3 0x1D7A JUMP JUMPDEST SWAP2 POP PUSH3 0x238A DUP4 PUSH3 0x1D7A JUMP JUMPDEST SWAP3 POP DUP3 DUP3 ADD SWAP1 POP DUP1 DUP3 GT ISZERO PUSH3 0x23A5 JUMPI PUSH3 0x23A4 PUSH3 0x2341 JUMP JUMPDEST JUMPDEST SWAP3 SWAP2 POP POP JUMP JUMPDEST PUSH32 0x436F6C6C656374696F6E206973206E6F7420796574206D696E74656421000000 PUSH1 0x0 DUP3 ADD MSTORE POP JUMP JUMPDEST PUSH1 0x0 PUSH3 0x23E3 PUSH1 0x1D DUP4 PUSH3 0x1C4E JUMP JUMPDEST SWAP2 POP PUSH3 0x23F0 DUP3 PUSH3 0x23AB JUMP JUMPDEST PUSH1 0x20 DUP3 ADD SWAP1 POP SWAP2 SWAP1 POP JUMP JUMPDEST PUSH1 0x0 PUSH1 0x20 DUP3 ADD SWAP1 POP DUP2 DUP2 SUB PUSH1 0x0 DUP4 ADD MSTORE PUSH3 0x2416 DUP2 PUSH3 0x23D4 JUMP JUMPDEST SWAP1 POP SWAP2 SWAP1 POP JUMP JUMPDEST PUSH1 0x0 PUSH3 0x242A DUP3 PUSH3 0x1D7A JUMP JUMPDEST SWAP2 POP PUSH3 0x2437 DUP4 PUSH3 0x1D7A JUMP JUMPDEST SWAP3 POP DUP3 DUP3 MUL PUSH3 0x2447 DUP2 PUSH3 0x1D7A JUMP JUMPDEST SWAP2 POP DUP3 DUP3 DIV DUP5 EQ DUP4 ISZERO OR PUSH3 0x2461 JUMPI PUSH3 0x2460 PUSH3 0x2341 JUMP JUMPDEST JUMPDEST POP SWAP3 SWAP2 POP POP JUMP JUMPDEST PUSH3 0x2473 DUP2 PUSH3 0x1D35 JUMP JUMPDEST DUP3 MSTORE POP POP JUMP JUMPDEST PUSH1 0x0 PUSH1 0x60 DUP3 ADD SWAP1 POP PUSH3 0x2490 PUSH1 0x0 DUP4 ADD DUP7 PUSH3 0x2468 JUMP JUMPDEST PUSH3 0x249F PUSH1 0x20 DUP4 ADD DUP6 PUSH3 0x2468 JUMP JUMPDEST PUSH3 0x24AE PUSH1 0x40 DUP4 ADD DUP5 PUSH3 0x1E36 JUMP JUMPDEST SWAP5 SWAP4 POP POP POP POP JUMP JUMPDEST PUSH3 0x24C1 DUP2 PUSH3 0x1DFC JUMP JUMPDEST DUP2 EQ PUSH3 0x24CD JUMPI PUSH1 0x0 DUP1 REVERT JUMPDEST POP JUMP JUMPDEST PUSH1 0x0 DUP2 MLOAD SWAP1 POP PUSH3 0x24E1 DUP2 PUSH3 0x24B6 JUMP JUMPDEST SWAP3 SWAP2 POP POP JUMP JUMPDEST PUSH1 0x0 PUSH1 0x20 DUP3 DUP5 SUB SLT ISZERO PUSH3 0x2500 JUMPI PUSH3 0x24FF PUSH3 0x1D0B JUMP JUMPDEST JUMPDEST PUSH1 0x0 PUSH3 0x2510 DUP5 DUP3 DUP6 ADD PUSH3 0x24D0 JUMP JUMPDEST SWAP2 POP POP SWAP3 SWAP2 POP POP JUMP JUMPDEST PUSH32 0x53544E4541523A207472616E7366657246726F6D206661696C65640000000000 PUSH1 0x0 DUP3 ADD MSTORE POP JUMP JUMPDEST PUSH1 0x0 PUSH3 0x2551 PUSH1 0x1B DUP4 PUSH3 0x1C4E JUMP JUMPDEST SWAP2 POP PUSH3 0x255E DUP3 PUSH3 0x2519 JUMP JUMPDEST PUSH1 0x20 DUP3 ADD SWAP1 POP SWAP2 SWAP1 POP JUMP JUMPDEST PUSH1 0x0 PUSH1 0x20 DUP3 ADD SWAP1 POP DUP2 DUP2 SUB PUSH1 0x0 DUP4 ADD MSTORE PUSH3 0x2584 DUP2 PUSH3 0x2542 JUMP JUMPDEST SWAP1 POP SWAP2 SWAP1 POP JUMP JUMPDEST PUSH1 0x0 PUSH1 0x40 DUP3 ADD SWAP1 POP PUSH3 0x25A2 PUSH1 0x0 DUP4 ADD DUP6 PUSH3 0x2468 JUMP JUMPDEST DUP2 DUP2 SUB PUSH1 0x20 DUP4 ADD MSTORE PUSH3 0x25B6 DUP2 DUP5 PUSH3 0x1C9C JUMP JUMPDEST SWAP1 POP SWAP4 SWAP3 POP POP POP JUMP JUMPDEST PUSH1 0x0 DUP2 MLOAD SWAP1 POP PUSH3 0x25D0 DUP2 PUSH3 0x1D84 JUMP JUMPDEST SWAP3 SWAP2 POP POP JUMP JUMPDEST PUSH1 0x0 PUSH1 0x20 DUP3 DUP5 SUB SLT ISZERO PUSH3 0x25EF JUMPI PUSH3 0x25EE PUSH3 0x1D0B JUMP JUMPDEST JUMPDEST PUSH1 0x0 PUSH3 0x25FF DUP5 DUP3 DUP6 ADD PUSH3 0x25BF JUMP JUMPDEST SWAP2 POP POP SWAP3 SWAP2 POP POP JUMP JUMPDEST PUSH32 0x4E6F706521000000000000000000000000000000000000000000000000000000 PUSH1 0x0 DUP3 ADD MSTORE POP JUMP JUMPDEST PUSH1 0x0 PUSH3 0x2640 PUSH1 0x5 DUP4 PUSH3 0x1C4E JUMP JUMPDEST SWAP2 POP PUSH3 0x264D DUP3 PUSH3 0x2608 JUMP JUMPDEST PUSH1 0x20 DUP3 ADD SWAP1 POP SWAP2 SWAP1 POP JUMP JUMPDEST PUSH1 0x0 PUSH1 0x20 DUP3 ADD SWAP1 POP DUP2 DUP2 SUB PUSH1 0x0 DUP4 ADD MSTORE PUSH3 0x2673 DUP2 PUSH3 0x2631 JUMP JUMPDEST SWAP1 POP SWAP2 SWAP1 POP JUMP JUMPDEST PUSH32 0x45524332303A2064656372656173656420616C6C6F77616E63652062656C6F77 PUSH1 0x0 DUP3 ADD MSTORE PUSH32 0x207A65726F000000000000000000000000000000000000000000000000000000 PUSH1 0x20 DUP3 ADD MSTORE POP JUMP JUMPDEST PUSH1 0x0 PUSH3 0x26D8 PUSH1 0x25 DUP4 PUSH3 0x1C4E JUMP JUMPDEST SWAP2 POP PUSH3 0x26E5 DUP3 PUSH3 0x267A JUMP JUMPDEST PUSH1 0x40 DUP3 ADD SWAP1 POP SWAP2 SWAP1 POP JUMP JUMPDEST PUSH1 0x0 PUSH1 0x20 DUP3 ADD SWAP1 POP DUP2 DUP2 SUB PUSH1 0x0 DUP4 ADD MSTORE PUSH3 0x270B DUP2 PUSH3 0x26C9 JUMP JUMPDEST SWAP1 POP SWAP2 SWAP1 POP JUMP JUMPDEST PUSH32 0x436F6C6C656374696F6E206973206E6F7420796574206D696E74656400000000 PUSH1 0x0 DUP3 ADD MSTORE POP JUMP JUMPDEST PUSH1 0x0 PUSH3 0x274A PUSH1 0x1C DUP4 PUSH3 0x1C4E JUMP JUMPDEST SWAP2 POP PUSH3 0x2757 DUP3 PUSH3 0x2712 JUMP JUMPDEST PUSH1 0x20 DUP3 ADD SWAP1 POP SWAP2 SWAP1 POP JUMP JUMPDEST PUSH1 0x0 PUSH1 0x20 DUP3 ADD SWAP1 POP DUP2 DUP2 SUB PUSH1 0x0 DUP4 ADD MSTORE PUSH3 0x277D DUP2 PUSH3 0x273B JUMP JUMPDEST SWAP1 POP SWAP2 SWAP1 POP JUMP JUMPDEST PUSH32 0x5472656520646F6573206E6F7420657869737400000000000000000000000000 PUSH1 0x0 DUP3 ADD MSTORE POP JUMP JUMPDEST PUSH1 0x0 PUSH3 0x27BC PUSH1 0x13 DUP4 PUSH3 0x1C4E JUMP JUMPDEST SWAP2 POP PUSH3 0x27C9 DUP3 PUSH3 0x2784 JUMP JUMPDEST PUSH1 0x20 DUP3 ADD SWAP1 POP SWAP2 SWAP1 POP JUMP JUMPDEST PUSH1 0x0 PUSH1 0x20 DUP3 ADD SWAP1 POP DUP2 DUP2 SUB PUSH1 0x0 DUP4 ADD MSTORE PUSH3 0x27EF DUP2 PUSH3 0x27AD JUMP JUMPDEST SWAP1 POP SWAP2 SWAP1 POP JUMP JUMPDEST PUSH1 0x0 DUP2 MLOAD SWAP1 POP PUSH3 0x2807 DUP2 PUSH3 0x1D49 JUMP JUMPDEST SWAP3 SWAP2 POP POP JUMP JUMPDEST PUSH1 0x0 PUSH1 0x20 DUP3 DUP5 SUB SLT ISZERO PUSH3 0x2826 JUMPI PUSH3 0x2825 PUSH3 0x1D0B JUMP JUMPDEST JUMPDEST PUSH1 0x0 PUSH3 0x2836 DUP5 DUP3 DUP6 ADD PUSH3 0x27F6 JUMP JUMPDEST SWAP2 POP POP SWAP3 SWAP2 POP POP JUMP JUMPDEST PUSH32 0x596F7520617265206E6F7420746865206F776E65720000000000000000000000 PUSH1 0x0 DUP3 ADD MSTORE POP JUMP JUMPDEST PUSH1 0x0 PUSH3 0x2877 PUSH1 0x15 DUP4 PUSH3 0x1C4E JUMP JUMPDEST SWAP2 POP PUSH3 0x2884 DUP3 PUSH3 0x283F JUMP JUMPDEST PUSH1 0x20 DUP3 ADD SWAP1 POP SWAP2 SWAP1 POP JUMP JUMPDEST PUSH1 0x0 PUSH1 0x20 DUP3 ADD SWAP1 POP DUP2 DUP2 SUB PUSH1 0x0 DUP4 ADD MSTORE PUSH3 0x28AA DUP2 PUSH3 0x2868 JUMP JUMPDEST SWAP1 POP SWAP2 SWAP1 POP JUMP JUMPDEST PUSH1 0x0 PUSH3 0x28BE DUP3 PUSH3 0x1D7A JUMP JUMPDEST SWAP2 POP PUSH3 0x28CB DUP4 PUSH3 0x1D7A JUMP JUMPDEST SWAP3 POP DUP3 DUP3 SUB SWAP1 POP DUP2 DUP2 GT ISZERO PUSH3 0x28E6 JUMPI PUSH3 0x28E5 PUSH3 0x2341 JUMP JUMPDEST JUMPDEST SWAP3 SWAP2 POP POP JUMP JUMPDEST PUSH32 0x5761746572204669727374000000000000000000000000000000000000000000 PUSH1 0x0 DUP3 ADD MSTORE POP JUMP JUMPDEST PUSH1 0x0 PUSH3 0x2924 PUSH1 0xB DUP4 PUSH3 0x1C4E JUMP JUMPDEST SWAP2 POP PUSH3 0x2931 DUP3 PUSH3 0x28EC JUMP JUMPDEST PUSH1 0x20 DUP3 ADD SWAP1 POP SWAP2 SWAP1 POP JUMP JUMPDEST PUSH1 0x0 PUSH1 0x20 DUP3 ADD SWAP1 POP DUP2 DUP2 SUB PUSH1 0x0 DUP4 ADD MSTORE PUSH3 0x2957 DUP2 PUSH3 0x2915 JUMP JUMPDEST SWAP1 POP SWAP2 SWAP1 POP JUMP JUMPDEST PUSH32 0x43616E277420436C61696D000000000000000000000000000000000000000000 PUSH1 0x0 DUP3 ADD MSTORE POP JUMP JUMPDEST PUSH1 0x0 PUSH3 0x2996 PUSH1 0xB DUP4 PUSH3 0x1C4E JUMP JUMPDEST SWAP2 POP PUSH3 0x29A3 DUP3 PUSH3 0x295E JUMP JUMPDEST PUSH1 0x20 DUP3 ADD SWAP1 POP SWAP2 SWAP1 POP JUMP JUMPDEST PUSH1 0x0 PUSH1 0x20 DUP3 ADD SWAP1 POP DUP2 DUP2 SUB PUSH1 0x0 DUP4 ADD MSTORE PUSH3 0x29C9 DUP2 PUSH3 0x2987 JUMP JUMPDEST SWAP1 POP SWAP2 SWAP1 POP JUMP JUMPDEST PUSH32 0x45524332303A20617070726F76652066726F6D20746865207A65726F20616464 PUSH1 0x0 DUP3 ADD MSTORE PUSH32 0x7265737300000000000000000000000000000000000000000000000000000000 PUSH1 0x20 DUP3 ADD MSTORE POP JUMP JUMPDEST PUSH1 0x0 PUSH3 0x2A2E PUSH1 0x24 DUP4 PUSH3 0x1C4E JUMP JUMPDEST SWAP2 POP PUSH3 0x2A3B DUP3 PUSH3 0x29D0 JUMP JUMPDEST PUSH1 0x40 DUP3 ADD SWAP1 POP SWAP2 SWAP1 POP JUMP JUMPDEST PUSH1 0x0 PUSH1 0x20 DUP3 ADD SWAP1 POP DUP2 DUP2 SUB PUSH1 0x0 DUP4 ADD MSTORE PUSH3 0x2A61 DUP2 PUSH3 0x2A1F JUMP JUMPDEST SWAP1 POP SWAP2 SWAP1 POP JUMP JUMPDEST PUSH32 0x45524332303A20617070726F766520746F20746865207A65726F206164647265 PUSH1 0x0 DUP3 ADD MSTORE PUSH32 0x7373000000000000000000000000000000000000000000000000000000000000 PUSH1 0x20 DUP3 ADD MSTORE POP JUMP JUMPDEST PUSH1 0x0 PUSH3 0x2AC6 PUSH1 0x22 DUP4 PUSH3 0x1C4E JUMP JUMPDEST SWAP2 POP PUSH3 0x2AD3 DUP3 PUSH3 0x2A68 JUMP JUMPDEST PUSH1 0x40 DUP3 ADD SWAP1 POP SWAP2 SWAP1 POP JUMP JUMPDEST PUSH1 0x0 PUSH1 0x20 DUP3 ADD SWAP1 POP DUP2 DUP2 SUB PUSH1 0x0 DUP4 ADD MSTORE PUSH3 0x2AF9 DUP2 PUSH3 0x2AB7 JUMP JUMPDEST SWAP1 POP SWAP2 SWAP1 POP JUMP JUMPDEST PUSH32 0x45524332303A20696E73756666696369656E7420616C6C6F77616E6365000000 PUSH1 0x0 DUP3 ADD MSTORE POP JUMP JUMPDEST PUSH1 0x0 PUSH3 0x2B38 PUSH1 0x1D DUP4 PUSH3 0x1C4E JUMP JUMPDEST SWAP2 POP PUSH3 0x2B45 DUP3 PUSH3 0x2B00 JUMP JUMPDEST PUSH1 0x20 DUP3 ADD SWAP1 POP SWAP2 SWAP1 POP JUMP JUMPDEST PUSH1 0x0 PUSH1 0x20 DUP3 ADD SWAP1 POP DUP2 DUP2 SUB PUSH1 0x0 DUP4 ADD MSTORE PUSH3 0x2B6B DUP2 PUSH3 0x2B29 JUMP JUMPDEST SWAP1 POP SWAP2 SWAP1 POP JUMP JUMPDEST PUSH32 0x45524332303A207472616E736665722066726F6D20746865207A65726F206164 PUSH1 0x0 DUP3 ADD MSTORE PUSH32 0x6472657373000000000000000000000000000000000000000000000000000000 PUSH1 0x20 DUP3 ADD MSTORE POP JUMP JUMPDEST PUSH1 0x0 PUSH3 0x2BD0 PUSH1 0x25 DUP4 PUSH3 0x1C4E JUMP JUMPDEST SWAP2 POP PUSH3 0x2BDD DUP3 PUSH3 0x2B72 JUMP JUMPDEST PUSH1 0x40 DUP3 ADD SWAP1 POP SWAP2 SWAP1 POP JUMP JUMPDEST PUSH1 0x0 PUSH1 0x20 DUP3 ADD SWAP1 POP DUP2 DUP2 SUB PUSH1 0x0 DUP4 ADD MSTORE PUSH3 0x2C03 DUP2 PUSH3 0x2BC1 JUMP JUMPDEST SWAP1 POP SWAP2 SWAP1 POP JUMP JUMPDEST PUSH32 0x45524332303A207472616E7366657220746F20746865207A65726F2061646472 PUSH1 0x0 DUP3 ADD MSTORE PUSH32 0x6573730000000000000000000000000000000000000000000000000000000000 PUSH1 0x20 DUP3 ADD MSTORE POP JUMP JUMPDEST PUSH1 0x0 PUSH3 0x2C68 PUSH1 0x23 DUP4 PUSH3 0x1C4E JUMP JUMPDEST SWAP2 POP PUSH3 0x2C75 DUP3 PUSH3 0x2C0A JUMP JUMPDEST PUSH1 0x40 DUP3 ADD SWAP1 POP SWAP2 SWAP1 POP JUMP JUMPDEST PUSH1 0x0 PUSH1 0x20 DUP3 ADD SWAP1 POP DUP2 DUP2 SUB PUSH1 0x0 DUP4 ADD MSTORE PUSH3 0x2C9B DUP2 PUSH3 0x2C59 JUMP JUMPDEST SWAP1 POP SWAP2 SWAP1 POP JUMP JUMPDEST PUSH32 0x45524332303A207472616E7366657220616D6F756E7420657863656564732062 PUSH1 0x0 DUP3 ADD MSTORE PUSH32 0x616C616E63650000000000000000000000000000000000000000000000000000 PUSH1 0x20 DUP3 ADD MSTORE POP JUMP JUMPDEST PUSH1 0x0 PUSH3 0x2D00 PUSH1 0x26 DUP4 PUSH3 0x1C4E JUMP JUMPDEST SWAP2 POP PUSH3 0x2D0D DUP3 PUSH3 0x2CA2 JUMP JUMPDEST PUSH1 0x40 DUP3 ADD SWAP1 POP SWAP2 SWAP1 POP JUMP JUMPDEST PUSH1 0x0 PUSH1 0x20 DUP3 ADD SWAP1 POP DUP2 DUP2 SUB PUSH1 0x0 DUP4 ADD MSTORE PUSH3 0x2D33 DUP2 PUSH3 0x2CF1 JUMP JUMPDEST SWAP1 POP SWAP2 SWAP1 POP JUMP JUMPDEST PUSH32 0x45524332303A206D696E7420746F20746865207A65726F206164647265737300 PUSH1 0x0 DUP3 ADD MSTORE POP JUMP JUMPDEST PUSH1 0x0 PUSH3 0x2D72 PUSH1 0x1F DUP4 PUSH3 0x1C4E JUMP JUMPDEST SWAP2 POP PUSH3 0x2D7F DUP3 PUSH3 0x2D3A JUMP JUMPDEST PUSH1 0x20 DUP3 ADD SWAP1 POP SWAP2 SWAP1 POP JUMP JUMPDEST PUSH1 0x0 PUSH1 0x20 DUP3 ADD SWAP1 POP DUP2 DUP2 SUB PUSH1 0x0 DUP4 ADD MSTORE PUSH3 0x2DA5 DUP2 PUSH3 0x2D63 JUMP JUMPDEST SWAP1 POP SWAP2 SWAP1 POP JUMP INVALID PUSH1 0x80 PUSH1 0x40 MSTORE CALLVALUE DUP1 ISZERO PUSH3 0x11 JUMPI PUSH1 0x0 DUP1 REVERT JUMPDEST POP PUSH1 0x40 MLOAD DUP1 PUSH1 0x40 ADD PUSH1 0x40 MSTORE DUP1 PUSH1 0x7 DUP2 MSTORE PUSH1 0x20 ADD PUSH32 0x47656E6573697300000000000000000000000000000000000000000000000000 DUP2 MSTORE POP PUSH1 0x40 MLOAD DUP1 PUSH1 0x40 ADD PUSH1 0x40 MSTORE DUP1 PUSH1 0x3 DUP2 MSTORE PUSH1 0x20 ADD PUSH32 0x474E450000000000000000000000000000000000000000000000000000000000 DUP2 MSTORE POP DUP2 PUSH1 0x0 SWAP1 DUP2 PUSH3 0x8F SWAP2 SWAP1 PUSH3 0x365 JUMP JUMPDEST POP DUP1 PUSH1 0x1 SWAP1 DUP2 PUSH3 0xA1 SWAP2 SWAP1 PUSH3 0x365 JUMP JUMPDEST POP POP POP CALLER PUSH1 0x7 PUSH1 0x0 PUSH2 0x100 EXP DUP2 SLOAD DUP2 PUSH20 0xFFFFFFFFFFFFFFFFFFFFFFFFFFFFFFFFFFFFFFFF MUL NOT AND SWAP1 DUP4 PUSH20 0xFFFFFFFFFFFFFFFFFFFFFFFFFFFFFFFFFFFFFFFF AND MUL OR SWAP1 SSTORE POP PUSH3 0x44C JUMP JUMPDEST PUSH1 0x0 DUP2 MLOAD SWAP1 POP SWAP2 SWAP1 POP JUMP JUMPDEST PUSH32 0x4E487B7100000000000000000000000000000000000000000000000000000000 PUSH1 0x0 MSTORE PUSH1 0x41 PUSH1 0x4 MSTORE PUSH1 0x24 PUSH1 0x0 REVERT JUMPDEST PUSH32 0x4E487B7100000000000000000000000000000000000000000000000000000000 PUSH1 0x0 MSTORE PUSH1 0x22 PUSH1 0x4 MSTORE PUSH1 0x24 PUSH1 0x0 REVERT JUMPDEST PUSH1 0x0 PUSH1 0x2 DUP3 DIV SWAP1 POP PUSH1 0x1 DUP3 AND DUP1 PUSH3 0x16D JUMPI PUSH1 0x7F DUP3 AND SWAP2 POP JUMPDEST PUSH1 0x20 DUP3 LT DUP2 SUB PUSH3 0x183 JUMPI PUSH3 0x182 PUSH3 0x125 JUMP JUMPDEST JUMPDEST POP SWAP2 SWAP1 POP JUMP JUMPDEST PUSH1 0x0 DUP2 SWAP1 POP DUP2 PUSH1 0x0 MSTORE PUSH1 0x20 PUSH1 0x0 KECCAK256 SWAP1 POP SWAP2 SWAP1 POP JUMP JUMPDEST PUSH1 0x0 PUSH1 0x20 PUSH1 0x1F DUP4 ADD DIV SWAP1 POP SWAP2 SWAP1 POP JUMP JUMPDEST PUSH1 0x0 DUP3 DUP3 SHL SWAP1 POP SWAP3 SWAP2 POP POP JUMP JUMPDEST PUSH1 0x0 PUSH1 0x8 DUP4 MUL PUSH3 0x1ED PUSH32 0xFFFFFFFFFFFFFFFFFFFFFFFFFFFFFFFFFFFFFFFFFFFFFFFFFFFFFFFFFFFFFFFF DUP3 PUSH3 0x1AE JUMP JUMPDEST PUSH3 0x1F9 DUP7 DUP4 PUSH3 0x1AE JUMP JUMPDEST SWAP6 POP DUP1 NOT DUP5 AND SWAP4 POP DUP1 DUP7 AND DUP5 OR SWAP3 POP POP POP SWAP4 SWAP3 POP POP POP JUMP JUMPDEST PUSH1 0x0 DUP2 SWAP1 POP SWAP2 SWAP1 POP JUMP JUMPDEST PUSH1 0x0 DUP2 SWAP1 POP SWAP2 SWAP1 POP JUMP JUMPDEST PUSH1 0x0 PUSH3 0x246 PUSH3 0x240 PUSH3 0x23A DUP5 PUSH3 0x211 JUMP JUMPDEST PUSH3 0x21B JUMP JUMPDEST PUSH3 0x211 JUMP JUMPDEST SWAP1 POP SWAP2 SWAP1 POP JUMP JUMPDEST PUSH1 0x0 DUP2 SWAP1 POP SWAP2 SWAP1 POP JUMP JUMPDEST PUSH3 0x262 DUP4 PUSH3 0x225 JUMP JUMPDEST PUSH3 0x27A PUSH3 0x271 DUP3 PUSH3 0x24D JUMP JUMPDEST DUP5 DUP5 SLOAD PUSH3 0x1BB JUMP JUMPDEST DUP3 SSTORE POP POP POP POP JUMP JUMPDEST PUSH1 0x0 SWAP1 JUMP JUMPDEST PUSH3 0x291 PUSH3 0x282 JUMP JUMPDEST PUSH3 0x29E DUP2 DUP5 DUP5 PUSH3 0x257 JUMP JUMPDEST POP POP POP JUMP JUMPDEST JUMPDEST DUP2 DUP2 LT ISZERO PUSH3 0x2C6 JUMPI PUSH3 0x2BA PUSH1 0x0 DUP3 PUSH3 0x287 JUMP JUMPDEST PUSH1 0x1 DUP2 ADD SWAP1 POP PUSH3 0x2A4 JUMP JUMPDEST POP POP JUMP JUMPDEST PUSH1 0x1F DUP3 GT ISZERO PUSH3 0x315 JUMPI PUSH3 0x2DF DUP2 PUSH3 0x189 JUMP JUMPDEST PUSH3 0x2EA DUP5 PUSH3 0x19E JUMP JUMPDEST DUP2 ADD PUSH1 0x20 DUP6 LT ISZERO PUSH3 0x2FA JUMPI DUP2 SWAP1 POP JUMPDEST PUSH3 0x312 PUSH3 0x309 DUP6 PUSH3 0x19E JUMP JUMPDEST DUP4 ADD DUP3 PUSH3 0x2A3 JUMP JUMPDEST POP POP JUMPDEST POP POP POP JUMP JUMPDEST PUSH1 0x0 DUP3 DUP3 SHR SWAP1 POP SWAP3 SWAP2 POP POP JUMP JUMPDEST PUSH1 0x0 PUSH3 0x33A PUSH1 0x0 NOT DUP5 PUSH1 0x8 MUL PUSH3 0x31A JUMP JUMPDEST NOT DUP1 DUP4 AND SWAP2 POP POP SWAP3 SWAP2 POP POP JUMP JUMPDEST PUSH1 0x0 PUSH3 0x355 DUP4 DUP4 PUSH3 0x327 JUMP JUMPDEST SWAP2 POP DUP3 PUSH1 0x2 MUL DUP3 OR SWAP1 POP SWAP3 SWAP2 POP POP JUMP JUMPDEST PUSH3 0x370 DUP3 PUSH3 0xEB JUMP JUMPDEST PUSH8 0xFFFFFFFFFFFFFFFF DUP2 GT ISZERO PUSH3 0x38C JUMPI PUSH3 0x38B PUSH3 0xF6 JUMP JUMPDEST JUMPDEST PUSH3 0x398 DUP3 SLOAD PUSH3 0x154 JUMP JUMPDEST PUSH3 0x3A5 DUP3 DUP3 DUP6 PUSH3 0x2CA JUMP JUMPDEST PUSH1 0x0 PUSH1 0x20 SWAP1 POP PUSH1 0x1F DUP4 GT PUSH1 0x1 DUP2 EQ PUSH3 0x3DD JUMPI PUSH1 0x0 DUP5 ISZERO PUSH3 0x3C8 JUMPI DUP3 DUP8 ADD MLOAD SWAP1 POP JUMPDEST PUSH3 0x3D4 DUP6 DUP3 PUSH3 0x347 JUMP JUMPDEST DUP7 SSTORE POP PUSH3 0x444 JUMP JUMPDEST PUSH1 0x1F NOT DUP5 AND PUSH3 0x3ED DUP7 PUSH3 0x189 JUMP JUMPDEST PUSH1 0x0 JUMPDEST DUP3 DUP2 LT ISZERO PUSH3 0x417 JUMPI DUP5 DUP10 ADD MLOAD DUP3 SSTORE PUSH1 0x1 DUP3 ADD SWAP2 POP PUSH1 0x20 DUP6 ADD SWAP5 POP PUSH1 0x20 DUP2 ADD SWAP1 POP PUSH3 0x3F0 JUMP JUMPDEST DUP7 DUP4 LT ISZERO PUSH3 0x437 JUMPI DUP5 DUP10 ADD MLOAD PUSH3 0x433 PUSH1 0x1F DUP10 AND DUP3 PUSH3 0x327 JUMP JUMPDEST DUP4 SSTORE POP JUMPDEST PUSH1 0x1 PUSH1 0x2 DUP9 MUL ADD DUP9 SSTORE POP POP POP JUMPDEST POP POP POP POP POP POP JUMP JUMPDEST PUSH2 0x2D69 DUP1 PUSH3 0x45C PUSH1 0x0 CODECOPY PUSH1 0x0 RETURN INVALID PUSH1 0x80 PUSH1 0x40 MSTORE CALLVALUE DUP1 ISZERO PUSH2 0x10 JUMPI PUSH1 0x0 DUP1 REVERT JUMPDEST POP PUSH1 0x4 CALLDATASIZE LT PUSH2 0xF5 JUMPI PUSH1 0x0 CALLDATALOAD PUSH1 0xE0 SHR DUP1 PUSH4 0x70A08231 GT PUSH2 0x97 JUMPI DUP1 PUSH4 0xB88D4FDE GT PUSH2 0x66 JUMPI DUP1 PUSH4 0xB88D4FDE EQ PUSH2 0x284 JUMPI DUP1 PUSH4 0xC87B56DD EQ PUSH2 0x2A0 JUMPI DUP1 PUSH4 0xD204C45E EQ PUSH2 0x2D0 JUMPI DUP1 PUSH4 0xE985E9C5 EQ PUSH2 0x2EC JUMPI PUSH2 0xF5 JUMP JUMPDEST DUP1 PUSH4 0x70A08231 EQ PUSH2 0x1FC JUMPI DUP1 PUSH4 0x95D89B41 EQ PUSH2 0x22C JUMPI DUP1 PUSH4 0x98BDF6F5 EQ PUSH2 0x24A JUMPI DUP1 PUSH4 0xA22CB465 EQ PUSH2 0x268 JUMPI PUSH2 0xF5 JUMP JUMPDEST DUP1 PUSH4 0x95EA7B3 GT PUSH2 0xD3 JUMPI DUP1 PUSH4 0x95EA7B3 EQ PUSH2 0x178 JUMPI DUP1 PUSH4 0x23B872DD EQ PUSH2 0x194 JUMPI DUP1 PUSH4 0x42842E0E EQ PUSH2 0x1B0 JUMPI DUP1 PUSH4 0x6352211E EQ PUSH2 0x1CC JUMPI PUSH2 0xF5 JUMP JUMPDEST DUP1 PUSH4 0x1FFC9A7 EQ PUSH2 0xFA JUMPI DUP1 PUSH4 0x6FDDE03 EQ PUSH2 0x12A JUMPI DUP1 PUSH4 0x81812FC EQ PUSH2 0x148 JUMPI JUMPDEST PUSH1 0x0 DUP1 REVERT JUMPDEST PUSH2 0x114 PUSH1 0x4 DUP1 CALLDATASIZE SUB DUP2 ADD SWAP1 PUSH2 0x10F SWAP2 SWAP1 PUSH2 0x1B5A JUMP JUMPDEST PUSH2 0x31C JUMP JUMPDEST PUSH1 0x40 MLOAD PUSH2 0x121 SWAP2 SWAP1 PUSH2 0x1BA2 JUMP JUMPDEST PUSH1 0x40 MLOAD DUP1 SWAP2 SUB SWAP1 RETURN JUMPDEST PUSH2 0x132 PUSH2 0x32E JUMP JUMPDEST PUSH1 0x40 MLOAD PUSH2 0x13F SWAP2 SWAP1 PUSH2 0x1C4D JUMP JUMPDEST PUSH1 0x40 MLOAD DUP1 SWAP2 SUB SWAP1 RETURN JUMPDEST PUSH2 0x162 PUSH1 0x4 DUP1 CALLDATASIZE SUB DUP2 ADD SWAP1 PUSH2 0x15D SWAP2 SWAP1 PUSH2 0x1CA5 JUMP JUMPDEST PUSH2 0x3C0 JUMP JUMPDEST PUSH1 0x40 MLOAD PUSH2 0x16F SWAP2 SWAP1 PUSH2 0x1D13 JUMP JUMPDEST PUSH1 0x40 MLOAD DUP1 SWAP2 SUB SWAP1 RETURN JUMPDEST PUSH2 0x192 PUSH1 0x4 DUP1 CALLDATASIZE SUB DUP2 ADD SWAP1 PUSH2 0x18D SWAP2 SWAP1 PUSH2 0x1D5A JUMP JUMPDEST PUSH2 0x406 JUMP JUMPDEST STOP JUMPDEST PUSH2 0x1AE PUSH1 0x4 DUP1 CALLDATASIZE SUB DUP2 ADD SWAP1 PUSH2 0x1A9 SWAP2 SWAP1 PUSH2 0x1D9A JUMP JUMPDEST PUSH2 0x51D JUMP JUMPDEST STOP JUMPDEST PUSH2 0x1CA PUSH1 0x4 DUP1 CALLDATASIZE SUB DUP2 ADD SWAP1 PUSH2 0x1C5 SWAP2 SWAP1 PUSH2 0x1D9A JUMP JUMPDEST PUSH2 0x57D JUMP JUMPDEST STOP JUMPDEST PUSH2 0x1E6 PUSH1 0x4 DUP1 CALLDATASIZE SUB DUP2 ADD SWAP1 PUSH2 0x1E1 SWAP2 SWAP1 PUSH2 0x1CA5 JUMP JUMPDEST PUSH2 0x59D JUMP JUMPDEST PUSH1 0x40 MLOAD PUSH2 0x1F3 SWAP2 SWAP1 PUSH2 0x1D13 JUMP JUMPDEST PUSH1 0x40 MLOAD DUP1 SWAP2 SUB SWAP1 RETURN JUMPDEST PUSH2 0x216 PUSH1 0x4 DUP1 CALLDATASIZE SUB DUP2 ADD SWAP1 PUSH2 0x211 SWAP2 SWAP1 PUSH2 0x1DED JUMP JUMPDEST PUSH2 0x623 JUMP JUMPDEST PUSH1 0x40 MLOAD PUSH2 0x223 SWAP2 SWAP1 PUSH2 0x1E29 JUMP JUMPDEST PUSH1 0x40 MLOAD DUP1 SWAP2 SUB SWAP1 RETURN JUMPDEST PUSH2 0x234 PUSH2 0x6DA JUMP JUMPDEST PUSH1 0x40 MLOAD PUSH2 0x241 SWAP2 SWAP1 PUSH2 0x1C4D JUMP JUMPDEST PUSH1 0x40 MLOAD DUP1 SWAP2 SUB SWAP1 RETURN JUMPDEST PUSH2 0x252 PUSH2 0x76C JUMP JUMPDEST PUSH1 0x40 MLOAD PUSH2 0x25F SWAP2 SWAP1 PUSH2 0x1E29 JUMP JUMPDEST PUSH1 0x40 MLOAD DUP1 SWAP2 SUB SWAP1 RETURN JUMPDEST PUSH2 0x282 PUSH1 0x4 DUP1 CALLDATASIZE SUB DUP2 ADD SWAP1 PUSH2 0x27D SWAP2 SWAP1 PUSH2 0x1E70 JUMP JUMPDEST PUSH2 0x778 JUMP JUMPDEST STOP JUMPDEST PUSH2 0x29E PUSH1 0x4 DUP1 CALLDATASIZE SUB DUP2 ADD SWAP1 PUSH2 0x299 SWAP2 SWAP1 PUSH2 0x1FE5 JUMP JUMPDEST PUSH2 0x78E JUMP JUMPDEST STOP JUMPDEST PUSH2 0x2BA PUSH1 0x4 DUP1 CALLDATASIZE SUB DUP2 ADD SWAP1 PUSH2 0x2B5 SWAP2 SWAP1 PUSH2 0x1CA5 JUMP JUMPDEST PUSH2 0x7F0 JUMP JUMPDEST PUSH1 0x40 MLOAD PUSH2 0x2C7 SWAP2 SWAP1 PUSH2 0x1C4D JUMP JUMPDEST PUSH1 0x40 MLOAD DUP1 SWAP2 SUB SWAP1 RETURN JUMPDEST PUSH2 0x2EA PUSH1 0x4 DUP1 CALLDATASIZE SUB DUP2 ADD SWAP1 PUSH2 0x2E5 SWAP2 SWAP1 PUSH2 0x2109 JUMP JUMPDEST PUSH2 0x802 JUMP JUMPDEST STOP JUMPDEST PUSH2 0x306 PUSH1 0x4 DUP1 CALLDATASIZE SUB DUP2 ADD SWAP1 PUSH2 0x301 SWAP2 SWAP1 PUSH2 0x2165 JUMP JUMPDEST PUSH2 0x907 JUMP JUMPDEST PUSH1 0x40 MLOAD PUSH2 0x313 SWAP2 SWAP1 PUSH2 0x1BA2 JUMP JUMPDEST PUSH1 0x40 MLOAD DUP1 SWAP2 SUB SWAP1 RETURN JUMPDEST PUSH1 0x0 PUSH2 0x327 DUP3 PUSH2 0x99B JUMP JUMPDEST SWAP1 POP SWAP2 SWAP1 POP JUMP JUMPDEST PUSH1 0x60 PUSH1 0x0 DUP1 SLOAD PUSH2 0x33D SWAP1 PUSH2 0x21D4 JUMP JUMPDEST DUP1 PUSH1 0x1F ADD PUSH1 0x20 DUP1 SWAP2 DIV MUL PUSH1 0x20 ADD PUSH1 0x40 MLOAD SWAP1 DUP2 ADD PUSH1 0x40 MSTORE DUP1 SWAP3 SWAP2 SWAP1 DUP2 DUP2 MSTORE PUSH1 0x20 ADD DUP3 DUP1 SLOAD PUSH2 0x369 SWAP1 PUSH2 0x21D4 JUMP JUMPDEST DUP1 ISZERO PUSH2 0x3B6 JUMPI DUP1 PUSH1 0x1F LT PUSH2 0x38B JUMPI PUSH2 0x100 DUP1 DUP4 SLOAD DIV MUL DUP4 MSTORE SWAP2 PUSH1 0x20 ADD SWAP2 PUSH2 0x3B6 JUMP JUMPDEST DUP3 ADD SWAP2 SWAP1 PUSH1 0x0 MSTORE PUSH1 0x20 PUSH1 0x0 KECCAK256 SWAP1 JUMPDEST DUP2 SLOAD DUP2 MSTORE SWAP1 PUSH1 0x1 ADD SWAP1 PUSH1 0x20 ADD DUP1 DUP4 GT PUSH2 0x399 JUMPI DUP3 SWAP1 SUB PUSH1 0x1F AND DUP3 ADD SWAP2 JUMPDEST POP POP POP POP POP SWAP1 POP SWAP1 JUMP JUMPDEST PUSH1 0x0 PUSH2 0x3CB DUP3 PUSH2 0x9FC JUMP JUMPDEST PUSH1 0x4 PUSH1 0x0 DUP4 DUP2 MSTORE PUSH1 0x20 ADD SWAP1 DUP2 MSTORE PUSH1 0x20 ADD PUSH1 0x0 KECCAK256 PUSH1 0x0 SWAP1 SLOAD SWAP1 PUSH2 0x100 EXP SWAP1 DIV PUSH20 0xFFFFFFFFFFFFFFFFFFFFFFFFFFFFFFFFFFFFFFFF AND SWAP1 POP SWAP2 SWAP1 POP JUMP JUMPDEST PUSH1 0x0 PUSH2 0x411 DUP3 PUSH2 0x59D JUMP JUMPDEST SWAP1 POP DUP1 PUSH20 0xFFFFFFFFFFFFFFFFFFFFFFFFFFFFFFFFFFFFFFFF AND DUP4 PUSH20 0xFFFFFFFFFFFFFFFFFFFFFFFFFFFFFFFFFFFFFFFF AND SUB PUSH2 0x481 JUMPI PUSH1 0x40 MLOAD PUSH32 0x8C379A000000000000000000000000000000000000000000000000000000000 DUP2 MSTORE PUSH1 0x4 ADD PUSH2 0x478 SWAP1 PUSH2 0x2277 JUMP JUMPDEST PUSH1 0x40 MLOAD DUP1 SWAP2 SUB SWAP1 REVERT JUMPDEST DUP1 PUSH20 0xFFFFFFFFFFFFFFFFFFFFFFFFFFFFFFFFFFFFFFFF AND PUSH2 0x4A0 PUSH2 0xA47 JUMP JUMPDEST PUSH20 0xFFFFFFFFFFFFFFFFFFFFFFFFFFFFFFFFFFFFFFFF AND EQ DUP1 PUSH2 0x4CF JUMPI POP PUSH2 0x4CE DUP2 PUSH2 0x4C9 PUSH2 0xA47 JUMP JUMPDEST PUSH2 0x907 JUMP JUMPDEST JUMPDEST PUSH2 0x50E JUMPI PUSH1 0x40 MLOAD PUSH32 0x8C379A000000000000000000000000000000000000000000000000000000000 DUP2 MSTORE PUSH1 0x4 ADD PUSH2 0x505 SWAP1 PUSH2 0x2309 JUMP JUMPDEST PUSH1 0x40 MLOAD DUP1 SWAP2 SUB SWAP1 REVERT JUMPDEST PUSH2 0x518 DUP4 DUP4 PUSH2 0xA4F JUMP JUMPDEST POP POP POP JUMP JUMPDEST PUSH2 0x52E PUSH2 0x528 PUSH2 0xA47 JUMP JUMPDEST DUP3 PUSH2 0xB08 JUMP JUMPDEST PUSH2 0x56D JUMPI PUSH1 0x40 MLOAD PUSH32 0x8C379A000000000000000000000000000000000000000000000000000000000 DUP2 MSTORE PUSH1 0x4 ADD PUSH2 0x564 SWAP1 PUSH2 0x239B JUMP JUMPDEST PUSH1 0x40 MLOAD DUP1 SWAP2 SUB SWAP1 REVERT JUMPDEST PUSH2 0x578 DUP4 DUP4 DUP4 PUSH2 0xB9D JUMP JUMPDEST POP POP POP JUMP JUMPDEST PUSH2 0x598 DUP4 DUP4 DUP4 PUSH1 0x40 MLOAD DUP1 PUSH1 0x20 ADD PUSH1 0x40 MSTORE DUP1 PUSH1 0x0 DUP2 MSTORE POP PUSH2 0x78E JUMP JUMPDEST POP POP POP JUMP JUMPDEST PUSH1 0x0 DUP1 PUSH2 0x5A9 DUP4 PUSH2 0xE96 JUMP JUMPDEST SWAP1 POP PUSH1 0x0 PUSH20 0xFFFFFFFFFFFFFFFFFFFFFFFFFFFFFFFFFFFFFFFF AND DUP2 PUSH20 0xFFFFFFFFFFFFFFFFFFFFFFFFFFFFFFFFFFFFFFFF AND SUB PUSH2 0x61A JUMPI PUSH1 0x40 MLOAD PUSH32 0x8C379A000000000000000000000000000000000000000000000000000000000 DUP2 MSTORE PUSH1 0x4 ADD PUSH2 0x611 SWAP1 PUSH2 0x2407 JUMP JUMPDEST PUSH1 0x40 MLOAD DUP1 SWAP2 SUB SWAP1 REVERT JUMPDEST DUP1 SWAP2 POP POP SWAP2 SWAP1 POP JUMP JUMPDEST PUSH1 0x0 DUP1 PUSH20 0xFFFFFFFFFFFFFFFFFFFFFFFFFFFFFFFFFFFFFFFF AND DUP3 PUSH20 0xFFFFFFFFFFFFFFFFFFFFFFFFFFFFFFFFFFFFFFFF AND SUB PUSH2 0x693 JUMPI PUSH1 0x40 MLOAD PUSH32 0x8C379A000000000000000000000000000000000000000000000000000000000 DUP2 MSTORE PUSH1 0x4 ADD PUSH2 0x68A SWAP1 PUSH2 0x2499 JUMP JUMPDEST PUSH1 0x40 MLOAD DUP1 SWAP2 SUB SWAP1 REVERT JUMPDEST PUSH1 0x3 PUSH1 0x0 DUP4 PUSH20 0xFFFFFFFFFFFFFFFFFFFFFFFFFFFFFFFFFFFFFFFF AND PUSH20 0xFFFFFFFFFFFFFFFFFFFFFFFFFFFFFFFFFFFFFFFF AND DUP2 MSTORE PUSH1 0x20 ADD SWAP1 DUP2 MSTORE PUSH1 0x20 ADD PUSH1 0x0 KECCAK256 SLOAD SWAP1 POP SWAP2 SWAP1 POP JUMP JUMPDEST PUSH1 0x60 PUSH1 0x1 DUP1 SLOAD PUSH2 0x6E9 SWAP1 PUSH2 0x21D4 JUMP JUMPDEST DUP1 PUSH1 0x1F ADD PUSH1 0x20 DUP1 SWAP2 DIV MUL PUSH1 0x20 ADD PUSH1 0x40 MLOAD SWAP1 DUP2 ADD PUSH1 0x40 MSTORE DUP1 SWAP3 SWAP2 SWAP1 DUP2 DUP2 MSTORE PUSH1 0x20 ADD DUP3 DUP1 SLOAD PUSH2 0x715 SWAP1 PUSH2 0x21D4 JUMP JUMPDEST DUP1 ISZERO PUSH2 0x762 JUMPI DUP1 PUSH1 0x1F LT PUSH2 0x737 JUMPI PUSH2 0x100 DUP1 DUP4 SLOAD DIV MUL DUP4 MSTORE SWAP2 PUSH1 0x20 ADD SWAP2 PUSH2 0x762 JUMP JUMPDEST DUP3 ADD SWAP2 SWAP1 PUSH1 0x0 MSTORE PUSH1 0x20 PUSH1 0x0 KECCAK256 SWAP1 JUMPDEST DUP2 SLOAD DUP2 MSTORE SWAP1 PUSH1 0x1 ADD SWAP1 PUSH1 0x20 ADD DUP1 DUP4 GT PUSH2 0x745 JUMPI DUP3 SWAP1 SUB PUSH1 0x1F AND DUP3 ADD SWAP2 JUMPDEST POP POP POP POP POP SWAP1 POP SWAP1 JUMP JUMPDEST PUSH1 0x8 DUP1 PUSH1 0x0 ADD SLOAD SWAP1 POP DUP2 JUMP JUMPDEST PUSH2 0x78A PUSH2 0x783 PUSH2 0xA47 JUMP JUMPDEST DUP4 DUP4 PUSH2 0xED3 JUMP JUMPDEST POP POP JUMP JUMPDEST PUSH2 0x79F PUSH2 0x799 PUSH2 0xA47 JUMP JUMPDEST DUP4 PUSH2 0xB08 JUMP JUMPDEST PUSH2 0x7DE JUMPI PUSH1 0x40 MLOAD PUSH32 0x8C379A000000000000000000000000000000000000000000000000000000000 DUP2 MSTORE PUSH1 0x4 ADD PUSH2 0x7D5 SWAP1 PUSH2 0x239B JUMP JUMPDEST PUSH1 0x40 MLOAD DUP1 SWAP2 SUB SWAP1 REVERT JUMPDEST PUSH2 0x7EA DUP5 DUP5 DUP5 DUP5 PUSH2 0x103F JUMP JUMPDEST POP POP POP POP JUMP JUMPDEST PUSH1 0x60 PUSH2 0x7FB DUP3 PUSH2 0x109B JUMP JUMPDEST SWAP1 POP SWAP2 SWAP1 POP JUMP JUMPDEST PUSH1 0x7 PUSH1 0x0 SWAP1 SLOAD SWAP1 PUSH2 0x100 EXP SWAP1 DIV PUSH20 0xFFFFFFFFFFFFFFFFFFFFFFFFFFFFFFFFFFFFFFFF AND PUSH20 0xFFFFFFFFFFFFFFFFFFFFFFFFFFFFFFFFFFFFFFFF AND CALLER PUSH20 0xFFFFFFFFFFFFFFFFFFFFFFFFFFFFFFFFFFFFFFFF AND EQ PUSH2 0x892 JUMPI PUSH1 0x40 MLOAD PUSH32 0x8C379A000000000000000000000000000000000000000000000000000000000 DUP2 MSTORE PUSH1 0x4 ADD PUSH2 0x889 SWAP1 PUSH2 0x2505 JUMP JUMPDEST PUSH1 0x40 MLOAD DUP1 SWAP2 SUB SWAP1 REVERT JUMPDEST PUSH2 0x89C PUSH1 0x8 PUSH2 0x11AD JUMP JUMPDEST PUSH1 0x0 PUSH2 0x8A8 PUSH1 0x8 PUSH2 0x11C3 JUMP JUMPDEST SWAP1 POP PUSH1 0x1E DUP2 GT ISZERO PUSH2 0x8EE JUMPI PUSH1 0x40 MLOAD PUSH32 0x8C379A000000000000000000000000000000000000000000000000000000000 DUP2 MSTORE PUSH1 0x4 ADD PUSH2 0x8E5 SWAP1 PUSH2 0x2597 JUMP JUMPDEST PUSH1 0x40 MLOAD DUP1 SWAP2 SUB SWAP1 REVERT JUMPDEST PUSH2 0x8F8 DUP4 DUP3 PUSH2 0x11D1 JUMP JUMPDEST PUSH2 0x902 DUP2 DUP4 PUSH2 0x11EF JUMP JUMPDEST POP POP POP JUMP JUMPDEST PUSH1 0x0 PUSH1 0x5 PUSH1 0x0 DUP5 PUSH20 0xFFFFFFFFFFFFFFFFFFFFFFFFFFFFFFFFFFFFFFFF AND PUSH20 0xFFFFFFFFFFFFFFFFFFFFFFFFFFFFFFFFFFFFFFFF AND DUP2 MSTORE PUSH1 0x20 ADD SWAP1 DUP2 MSTORE PUSH1 0x20 ADD PUSH1 0x0 KECCAK256 PUSH1 0x0 DUP4 PUSH20 0xFFFFFFFFFFFFFFFFFFFFFFFFFFFFFFFFFFFFFFFF AND PUSH20 0xFFFFFFFFFFFFFFFFFFFFFFFFFFFFFFFFFFFFFFFF AND DUP2 MSTORE PUSH1 0x20 ADD SWAP1 DUP2 MSTORE PUSH1 0x20 ADD PUSH1 0x0 KECCAK256 PUSH1 0x0 SWAP1 SLOAD SWAP1 PUSH2 0x100 EXP SWAP1 DIV PUSH1 0xFF AND SWAP1 POP SWAP3 SWAP2 POP POP JUMP JUMPDEST PUSH1 0x0 PUSH4 0x49064906 PUSH1 0xE0 SHL PUSH28 0xFFFFFFFFFFFFFFFFFFFFFFFFFFFFFFFFFFFFFFFFFFFFFFFFFFFFFFFF NOT AND DUP3 PUSH28 0xFFFFFFFFFFFFFFFFFFFFFFFFFFFFFFFFFFFFFFFFFFFFFFFFFFFFFFFF NOT AND EQ DUP1 PUSH2 0x9F5 JUMPI POP PUSH2 0x9F4 DUP3 PUSH2 0x1293 JUMP JUMPDEST JUMPDEST SWAP1 POP SWAP2 SWAP1 POP JUMP JUMPDEST PUSH2 0xA05 DUP2 PUSH2 0x1375 JUMP JUMPDEST PUSH2 0xA44 JUMPI PUSH1 0x40 MLOAD PUSH32 0x8C379A000000000000000000000000000000000000000000000000000000000 DUP2 MSTORE PUSH1 0x4 ADD PUSH2 0xA3B SWAP1 PUSH2 0x2407 JUMP JUMPDEST PUSH1 0x40 MLOAD DUP1 SWAP2 SUB SWAP1 REVERT JUMPDEST POP JUMP JUMPDEST PUSH1 0x0 CALLER SWAP1 POP SWAP1 JUMP JUMPDEST DUP2 PUSH1 0x4 PUSH1 0x0 DUP4 DUP2 MSTORE PUSH1 0x20 ADD SWAP1 DUP2 MSTORE PUSH1 0x20 ADD PUSH1 0x0 KECCAK256 PUSH1 0x0 PUSH2 0x100 EXP DUP2 SLOAD DUP2 PUSH20 0xFFFFFFFFFFFFFFFFFFFFFFFFFFFFFFFFFFFFFFFF MUL NOT AND SWAP1 DUP4 PUSH20 0xFFFFFFFFFFFFFFFFFFFFFFFFFFFFFFFFFFFFFFFF AND MUL OR SWAP1 SSTORE POP DUP1 DUP3 PUSH20 0xFFFFFFFFFFFFFFFFFFFFFFFFFFFFFFFFFFFFFFFF AND PUSH2 0xAC2 DUP4 PUSH2 0x59D JUMP JUMPDEST PUSH20 0xFFFFFFFFFFFFFFFFFFFFFFFFFFFFFFFFFFFFFFFF AND PUSH32 0x8C5BE1E5EBEC7D5BD14F71427D1E84F3DD0314C0F7B2291E5B200AC8C7C3B925 PUSH1 0x40 MLOAD PUSH1 0x40 MLOAD DUP1 SWAP2 SUB SWAP1 LOG4 POP POP JUMP JUMPDEST PUSH1 0x0 DUP1 PUSH2 0xB14 DUP4 PUSH2 0x59D JUMP JUMPDEST SWAP1 POP DUP1 PUSH20 0xFFFFFFFFFFFFFFFFFFFFFFFFFFFFFFFFFFFFFFFF AND DUP5 PUSH20 0xFFFFFFFFFFFFFFFFFFFFFFFFFFFFFFFFFFFFFFFF AND EQ DUP1 PUSH2 0xB56 JUMPI POP PUSH2 0xB55 DUP2 DUP6 PUSH2 0x907 JUMP JUMPDEST JUMPDEST DUP1 PUSH2 0xB94 JUMPI POP DUP4 PUSH20 0xFFFFFFFFFFFFFFFFFFFFFFFFFFFFFFFFFFFFFFFF AND PUSH2 0xB7C DUP5 PUSH2 0x3C0 JUMP JUMPDEST PUSH20 0xFFFFFFFFFFFFFFFFFFFFFFFFFFFFFFFFFFFFFFFF AND EQ JUMPDEST SWAP2 POP POP SWAP3 SWAP2 POP POP JUMP JUMPDEST DUP3 PUSH20 0xFFFFFFFFFFFFFFFFFFFFFFFFFFFFFFFFFFFFFFFF AND PUSH2 0xBBD DUP3 PUSH2 0x59D JUMP JUMPDEST PUSH20 0xFFFFFFFFFFFFFFFFFFFFFFFFFFFFFFFFFFFFFFFF AND EQ PUSH2 0xC13 JUMPI PUSH1 0x40 MLOAD PUSH32 0x8C379A000000000000000000000000000000000000000000000000000000000 DUP2 MSTORE PUSH1 0x4 ADD PUSH2 0xC0A SWAP1 PUSH2 0x2629 JUMP JUMPDEST PUSH1 0x40 MLOAD DUP1 SWAP2 SUB SWAP1 REVERT JUMPDEST PUSH1 0x0 PUSH20 0xFFFFFFFFFFFFFFFFFFFFFFFFFFFFFFFFFFFFFFFF AND DUP3 PUSH20 0xFFFFFFFFFFFFFFFFFFFFFFFFFFFFFFFFFFFFFFFF AND SUB PUSH2 0xC82 JUMPI PUSH1 0x40 MLOAD PUSH32 0x8C379A000000000000000000000000000000000000000000000000000000000 DUP2 MSTORE PUSH1 0x4 ADD PUSH2 0xC79 SWAP1 PUSH2 0x26BB JUMP JUMPDEST PUSH1 0x40 MLOAD DUP1 SWAP2 SUB SWAP1 REVERT JUMPDEST PUSH2 0xC8F DUP4 DUP4 DUP4 PUSH1 0x1 PUSH2 0x13B6 JUMP JUMPDEST DUP3 PUSH20 0xFFFFFFFFFFFFFFFFFFFFFFFFFFFFFFFFFFFFFFFF AND PUSH2 0xCAF DUP3 PUSH2 0x59D JUMP JUMPDEST PUSH20 0xFFFFFFFFFFFFFFFFFFFFFFFFFFFFFFFFFFFFFFFF AND EQ PUSH2 0xD05 JUMPI PUSH1 0x40 MLOAD PUSH32 0x8C379A000000000000000000000000000000000000000000000000000000000 DUP2 MSTORE PUSH1 0x4 ADD PUSH2 0xCFC SWAP1 PUSH2 0x2629 JUMP JUMPDEST PUSH1 0x40 MLOAD DUP1 SWAP2 SUB SWAP1 REVERT JUMPDEST PUSH1 0x4 PUSH1 0x0 DUP3 DUP2 MSTORE PUSH1 0x20 ADD SWAP1 DUP2 MSTORE PUSH1 0x20 ADD PUSH1 0x0 KECCAK256 PUSH1 0x0 PUSH2 0x100 EXP DUP2 SLOAD SWAP1 PUSH20 0xFFFFFFFFFFFFFFFFFFFFFFFFFFFFFFFFFFFFFFFF MUL NOT AND SWAP1 SSTORE PUSH1 0x1 PUSH1 0x3 PUSH1 0x0 DUP6 PUSH20 0xFFFFFFFFFFFFFFFFFFFFFFFFFFFFFFFFFFFFFFFF AND PUSH20 0xFFFFFFFFFFFFFFFFFFFFFFFFFFFFFFFFFFFFFFFF AND DUP2 MSTORE PUSH1 0x20 ADD SWAP1 DUP2 MSTORE PUSH1 0x20 ADD PUSH1 0x0 KECCAK256 PUSH1 0x0 DUP3 DUP3 SLOAD SUB SWAP3 POP POP DUP2 SWAP1 SSTORE POP PUSH1 0x1 PUSH1 0x3 PUSH1 0x0 DUP5 PUSH20 0xFFFFFFFFFFFFFFFFFFFFFFFFFFFFFFFFFFFFFFFF AND PUSH20 0xFFFFFFFFFFFFFFFFFFFFFFFFFFFFFFFFFFFFFFFF AND DUP2 MSTORE PUSH1 0x20 ADD SWAP1 DUP2 MSTORE PUSH1 0x20 ADD PUSH1 0x0 KECCAK256 PUSH1 0x0 DUP3 DUP3 SLOAD ADD SWAP3 POP POP DUP2 SWAP1 SSTORE POP DUP2 PUSH1 0x2 PUSH1 0x0 DUP4 DUP2 MSTORE PUSH1 0x20 ADD SWAP1 DUP2 MSTORE PUSH1 0x20 ADD PUSH1 0x0 KECCAK256 PUSH1 0x0 PUSH2 0x100 EXP DUP2 SLOAD DUP2 PUSH20 0xFFFFFFFFFFFFFFFFFFFFFFFFFFFFFFFFFFFFFFFF MUL NOT AND SWAP1 DUP4 PUSH20 0xFFFFFFFFFFFFFFFFFFFFFFFFFFFFFFFFFFFFFFFF AND MUL OR SWAP1 SSTORE POP DUP1 DUP3 PUSH20 0xFFFFFFFFFFFFFFFFFFFFFFFFFFFFFFFFFFFFFFFF AND DUP5 PUSH20 0xFFFFFFFFFFFFFFFFFFFFFFFFFFFFFFFFFFFFFFFF AND PUSH32 0xDDF252AD1BE2C89B69C2B068FC378DAA952BA7F163C4A11628F55A4DF523B3EF PUSH1 0x40 MLOAD PUSH1 0x40 MLOAD DUP1 SWAP2 SUB SWAP1 LOG4 PUSH2 0xE91 DUP4 DUP4 DUP4 PUSH1 0x1 PUSH2 0x13BC JUMP JUMPDEST POP POP POP JUMP JUMPDEST PUSH1 0x0 PUSH1 0x2 PUSH1 0x0 DUP4 DUP2 MSTORE PUSH1 0x20 ADD SWAP1 DUP2 MSTORE PUSH1 0x20 ADD PUSH1 0x0 KECCAK256 PUSH1 0x0 SWAP1 SLOAD SWAP1 PUSH2 0x100 EXP SWAP1 DIV PUSH20 0xFFFFFFFFFFFFFFFFFFFFFFFFFFFFFFFFFFFFFFFF AND SWAP1 POP SWAP2 SWAP1 POP JUMP JUMPDEST DUP2 PUSH20 0xFFFFFFFFFFFFFFFFFFFFFFFFFFFFFFFFFFFFFFFF AND DUP4 PUSH20 0xFFFFFFFFFFFFFFFFFFFFFFFFFFFFFFFFFFFFFFFF AND SUB PUSH2 0xF41 JUMPI PUSH1 0x40 MLOAD PUSH32 0x8C379A000000000000000000000000000000000000000000000000000000000 DUP2 MSTORE PUSH1 0x4 ADD PUSH2 0xF38 SWAP1 PUSH2 0x2727 JUMP JUMPDEST PUSH1 0x40 MLOAD DUP1 SWAP2 SUB SWAP1 REVERT JUMPDEST DUP1 PUSH1 0x5 PUSH1 0x0 DUP6 PUSH20 0xFFFFFFFFFFFFFFFFFFFFFFFFFFFFFFFFFFFFFFFF AND PUSH20 0xFFFFFFFFFFFFFFFFFFFFFFFFFFFFFFFFFFFFFFFF AND DUP2 MSTORE PUSH1 0x20 ADD SWAP1 DUP2 MSTORE PUSH1 0x20 ADD PUSH1 0x0 KECCAK256 PUSH1 0x0 DUP5 PUSH20 0xFFFFFFFFFFFFFFFFFFFFFFFFFFFFFFFFFFFFFFFF AND PUSH20 0xFFFFFFFFFFFFFFFFFFFFFFFFFFFFFFFFFFFFFFFF AND DUP2 MSTORE PUSH1 0x20 ADD SWAP1 DUP2 MSTORE PUSH1 0x20 ADD PUSH1 0x0 KECCAK256 PUSH1 0x0 PUSH2 0x100 EXP DUP2 SLOAD DUP2 PUSH1 0xFF MUL NOT AND SWAP1 DUP4 ISZERO ISZERO MUL OR SWAP1 SSTORE POP DUP2 PUSH20 0xFFFFFFFFFFFFFFFFFFFFFFFFFFFFFFFFFFFFFFFF AND DUP4 PUSH20 0xFFFFFFFFFFFFFFFFFFFFFFFFFFFFFFFFFFFFFFFF AND PUSH32 0x17307EAB39AB6107E8899845AD3D59BD9653F200F220920489CA2B5937696C31 DUP4 PUSH1 0x40 MLOAD PUSH2 0x1032 SWAP2 SWAP1 PUSH2 0x1BA2 JUMP JUMPDEST PUSH1 0x40 MLOAD DUP1 SWAP2 SUB SWAP1 LOG3 POP POP POP JUMP JUMPDEST PUSH2 0x104A DUP5 DUP5 DUP5 PUSH2 0xB9D JUMP JUMPDEST PUSH2 0x1056 DUP5 DUP5 DUP5 DUP5 PUSH2 0x13C2 JUMP JUMPDEST PUSH2 0x1095 JUMPI PUSH1 0x40 MLOAD PUSH32 0x8C379A000000000000000000000000000000000000000000000000000000000 DUP2 MSTORE PUSH1 0x4 ADD PUSH2 0x108C SWAP1 PUSH2 0x27B9 JUMP JUMPDEST PUSH1 0x40 MLOAD DUP1 SWAP2 SUB SWAP1 REVERT JUMPDEST POP POP POP POP JUMP JUMPDEST PUSH1 0x60 PUSH2 0x10A6 DUP3 PUSH2 0x9FC JUMP JUMPDEST PUSH1 0x0 PUSH1 0x6 PUSH1 0x0 DUP5 DUP2 MSTORE PUSH1 0x20 ADD SWAP1 DUP2 MSTORE PUSH1 0x20 ADD PUSH1 0x0 KECCAK256 DUP1 SLOAD PUSH2 0x10C6 SWAP1 PUSH2 0x21D4 JUMP JUMPDEST DUP1 PUSH1 0x1F ADD PUSH1 0x20 DUP1 SWAP2 DIV MUL PUSH1 0x20 ADD PUSH1 0x40 MLOAD SWAP1 DUP2 ADD PUSH1 0x40 MSTORE DUP1 SWAP3 SWAP2 SWAP1 DUP2 DUP2 MSTORE PUSH1 0x20 ADD DUP3 DUP1 SLOAD PUSH2 0x10F2 SWAP1 PUSH2 0x21D4 JUMP JUMPDEST DUP1 ISZERO PUSH2 0x113F JUMPI DUP1 PUSH1 0x1F LT PUSH2 0x1114 JUMPI PUSH2 0x100 DUP1 DUP4 SLOAD DIV MUL DUP4 MSTORE SWAP2 PUSH1 0x20 ADD SWAP2 PUSH2 0x113F JUMP JUMPDEST DUP3 ADD SWAP2 SWAP1 PUSH1 0x0 MSTORE PUSH1 0x20 PUSH1 0x0 KECCAK256 SWAP1 JUMPDEST DUP2 SLOAD DUP2 MSTORE SWAP1 PUSH1 0x1 ADD SWAP1 PUSH1 0x20 ADD DUP1 DUP4 GT PUSH2 0x1122 JUMPI DUP3 SWAP1 SUB PUSH1 0x1F AND DUP3 ADD SWAP2 JUMPDEST POP POP POP POP POP SWAP1 POP PUSH1 0x0 PUSH2 0x1150 PUSH2 0x1549 JUMP JUMPDEST SWAP1 POP PUSH1 0x0 DUP2 MLOAD SUB PUSH2 0x1165 JUMPI DUP2 SWAP3 POP POP POP PUSH2 0x11A8 JUMP JUMPDEST PUSH1 0x0 DUP3 MLOAD GT ISZERO PUSH2 0x119A JUMPI DUP1 DUP3 PUSH1 0x40 MLOAD PUSH1 0x20 ADD PUSH2 0x1182 SWAP3 SWAP2 SWAP1 PUSH2 0x2815 JUMP JUMPDEST PUSH1 0x40 MLOAD PUSH1 0x20 DUP2 DUP4 SUB SUB DUP2 MSTORE SWAP1 PUSH1 0x40 MSTORE SWAP3 POP POP POP PUSH2 0x11A8 JUMP JUMPDEST PUSH2 0x11A3 DUP5 PUSH2 0x1560 JUMP JUMPDEST SWAP3 POP POP POP JUMPDEST SWAP2 SWAP1 POP JUMP JUMPDEST PUSH1 0x1 DUP2 PUSH1 0x0 ADD PUSH1 0x0 DUP3 DUP3 SLOAD ADD SWAP3 POP POP DUP2 SWAP1 SSTORE POP POP JUMP JUMPDEST PUSH1 0x0 DUP2 PUSH1 0x0 ADD SLOAD SWAP1 POP SWAP2 SWAP1 POP JUMP JUMPDEST PUSH2 0x11EB DUP3 DUP3 PUSH1 0x40 MLOAD DUP1 PUSH1 0x20 ADD PUSH1 0x40 MSTORE DUP1 PUSH1 0x0 DUP2 MSTORE POP PUSH2 0x15C8 JUMP JUMPDEST POP POP JUMP JUMPDEST PUSH2 0x11F8 DUP3 PUSH2 0x1375 JUMP JUMPDEST PUSH2 0x1237 JUMPI PUSH1 0x40 MLOAD PUSH32 0x8C379A000000000000000000000000000000000000000000000000000000000 DUP2 MSTORE PUSH1 0x4 ADD PUSH2 0x122E SWAP1 PUSH2 0x28AB JUMP JUMPDEST PUSH1 0x40 MLOAD DUP1 SWAP2 SUB SWAP1 REVERT JUMPDEST DUP1 PUSH1 0x6 PUSH1 0x0 DUP5 DUP2 MSTORE PUSH1 0x20 ADD SWAP1 DUP2 MSTORE PUSH1 0x20 ADD PUSH1 0x0 KECCAK256 SWAP1 DUP2 PUSH2 0x1257 SWAP2 SWAP1 PUSH2 0x2A77 JUMP JUMPDEST POP PUSH32 0xF8E1A15ABA9398E019F0B49DF1A4FDE98EE17AE345CB5F6B5E2C27F5033E8CE7 DUP3 PUSH1 0x40 MLOAD PUSH2 0x1287 SWAP2 SWAP1 PUSH2 0x1E29 JUMP JUMPDEST PUSH1 0x40 MLOAD DUP1 SWAP2 SUB SWAP1 LOG1 POP POP JUMP JUMPDEST PUSH1 0x0 PUSH32 0x80AC58CD00000000000000000000000000000000000000000000000000000000 PUSH28 0xFFFFFFFFFFFFFFFFFFFFFFFFFFFFFFFFFFFFFFFFFFFFFFFFFFFFFFFF NOT AND DUP3 PUSH28 0xFFFFFFFFFFFFFFFFFFFFFFFFFFFFFFFFFFFFFFFFFFFFFFFFFFFFFFFF NOT AND EQ DUP1 PUSH2 0x135E JUMPI POP PUSH32 0x5B5E139F00000000000000000000000000000000000000000000000000000000 PUSH28 0xFFFFFFFFFFFFFFFFFFFFFFFFFFFFFFFFFFFFFFFFFFFFFFFFFFFFFFFF NOT AND DUP3 PUSH28 0xFFFFFFFFFFFFFFFFFFFFFFFFFFFFFFFFFFFFFFFFFFFFFFFFFFFFFFFF NOT AND EQ JUMPDEST DUP1 PUSH2 0x136E JUMPI POP PUSH2 0x136D DUP3 PUSH2 0x1623 JUMP JUMPDEST JUMPDEST SWAP1 POP SWAP2 SWAP1 POP JUMP JUMPDEST PUSH1 0x0 DUP1 PUSH20 0xFFFFFFFFFFFFFFFFFFFFFFFFFFFFFFFFFFFFFFFF AND PUSH2 0x1397 DUP4 PUSH2 0xE96 JUMP JUMPDEST PUSH20 0xFFFFFFFFFFFFFFFFFFFFFFFFFFFFFFFFFFFFFFFF AND EQ ISZERO SWAP1 POP SWAP2 SWAP1 POP JUMP JUMPDEST POP POP POP POP JUMP JUMPDEST POP POP POP POP JUMP JUMPDEST PUSH1 0x0 PUSH2 0x13E3 DUP5 PUSH20 0xFFFFFFFFFFFFFFFFFFFFFFFFFFFFFFFFFFFFFFFF AND PUSH2 0x168D JUMP JUMPDEST ISZERO PUSH2 0x153C JUMPI DUP4 PUSH20 0xFFFFFFFFFFFFFFFFFFFFFFFFFFFFFFFFFFFFFFFF AND PUSH4 0x150B7A02 PUSH2 0x140C PUSH2 0xA47 JUMP JUMPDEST DUP8 DUP7 DUP7 PUSH1 0x40 MLOAD DUP6 PUSH4 0xFFFFFFFF AND PUSH1 0xE0 SHL DUP2 MSTORE PUSH1 0x4 ADD PUSH2 0x142E SWAP5 SWAP4 SWAP3 SWAP2 SWAP1 PUSH2 0x2B9E JUMP JUMPDEST PUSH1 0x20 PUSH1 0x40 MLOAD DUP1 DUP4 SUB DUP2 PUSH1 0x0 DUP8 GAS CALL SWAP3 POP POP POP DUP1 ISZERO PUSH2 0x146A JUMPI POP PUSH1 0x40 MLOAD RETURNDATASIZE PUSH1 0x1F NOT PUSH1 0x1F DUP3 ADD AND DUP3 ADD DUP1 PUSH1 0x40 MSTORE POP DUP2 ADD SWAP1 PUSH2 0x1467 SWAP2 SWAP1 PUSH2 0x2BFF JUMP JUMPDEST PUSH1 0x1 JUMPDEST PUSH2 0x14EC JUMPI RETURNDATASIZE DUP1 PUSH1 0x0 DUP2 EQ PUSH2 0x149A JUMPI PUSH1 0x40 MLOAD SWAP2 POP PUSH1 0x1F NOT PUSH1 0x3F RETURNDATASIZE ADD AND DUP3 ADD PUSH1 0x40 MSTORE RETURNDATASIZE DUP3 MSTORE RETURNDATASIZE PUSH1 0x0 PUSH1 0x20 DUP5 ADD RETURNDATACOPY PUSH2 0x149F JUMP JUMPDEST PUSH1 0x60 SWAP2 POP JUMPDEST POP PUSH1 0x0 DUP2 MLOAD SUB PUSH2 0x14E4 JUMPI PUSH1 0x40 MLOAD PUSH32 0x8C379A000000000000000000000000000000000000000000000000000000000 DUP2 MSTORE PUSH1 0x4 ADD PUSH2 0x14DB SWAP1 PUSH2 0x27B9 JUMP JUMPDEST PUSH1 0x40 MLOAD DUP1 SWAP2 SUB SWAP1 REVERT JUMPDEST DUP1 MLOAD DUP2 PUSH1 0x20 ADD REVERT JUMPDEST PUSH4 0x150B7A02 PUSH1 0xE0 SHL PUSH28 0xFFFFFFFFFFFFFFFFFFFFFFFFFFFFFFFFFFFFFFFFFFFFFFFFFFFFFFFF NOT AND DUP2 PUSH28 0xFFFFFFFFFFFFFFFFFFFFFFFFFFFFFFFFFFFFFFFFFFFFFFFFFFFFFFFF NOT AND EQ SWAP2 POP POP PUSH2 0x1541 JUMP JUMPDEST PUSH1 0x1 SWAP1 POP JUMPDEST SWAP5 SWAP4 POP POP POP POP JUMP JUMPDEST PUSH1 0x60 PUSH1 0x40 MLOAD DUP1 PUSH1 0x20 ADD PUSH1 0x40 MSTORE DUP1 PUSH1 0x0 DUP2 MSTORE POP SWAP1 POP SWAP1 JUMP JUMPDEST PUSH1 0x60 PUSH2 0x156B DUP3 PUSH2 0x9FC JUMP JUMPDEST PUSH1 0x0 PUSH2 0x1575 PUSH2 0x1549 JUMP JUMPDEST SWAP1 POP PUSH1 0x0 DUP2 MLOAD GT PUSH2 0x1595 JUMPI PUSH1 0x40 MLOAD DUP1 PUSH1 0x20 ADD PUSH1 0x40 MSTORE DUP1 PUSH1 0x0 DUP2 MSTORE POP PUSH2 0x15C0 JUMP JUMPDEST DUP1 PUSH2 0x159F DUP5 PUSH2 0x16B0 JUMP JUMPDEST PUSH1 0x40 MLOAD PUSH1 0x20 ADD PUSH2 0x15B0 SWAP3 SWAP2 SWAP1 PUSH2 0x2815 JUMP JUMPDEST PUSH1 0x40 MLOAD PUSH1 0x20 DUP2 DUP4 SUB SUB DUP2 MSTORE SWAP1 PUSH1 0x40 MSTORE JUMPDEST SWAP2 POP POP SWAP2 SWAP1 POP JUMP JUMPDEST PUSH2 0x15D2 DUP4 DUP4 PUSH2 0x177E JUMP JUMPDEST PUSH2 0x15DF PUSH1 0x0 DUP5 DUP5 DUP5 PUSH2 0x13C2 JUMP JUMPDEST PUSH2 0x161E JUMPI PUSH1 0x40 MLOAD PUSH32 0x8C379A000000000000000000000000000000000000000000000000000000000 DUP2 MSTORE PUSH1 0x4 ADD PUSH2 0x1615 SWAP1 PUSH2 0x27B9 JUMP JUMPDEST PUSH1 0x40 MLOAD DUP1 SWAP2 SUB SWAP1 REVERT JUMPDEST POP POP POP JUMP JUMPDEST PUSH1 0x0 PUSH32 0x1FFC9A700000000000000000000000000000000000000000000000000000000 PUSH28 0xFFFFFFFFFFFFFFFFFFFFFFFFFFFFFFFFFFFFFFFFFFFFFFFFFFFFFFFF NOT AND DUP3 PUSH28 0xFFFFFFFFFFFFFFFFFFFFFFFFFFFFFFFFFFFFFFFFFFFFFFFFFFFFFFFF NOT AND EQ SWAP1 POP SWAP2 SWAP1 POP JUMP JUMPDEST PUSH1 0x0 DUP1 DUP3 PUSH20 0xFFFFFFFFFFFFFFFFFFFFFFFFFFFFFFFFFFFFFFFF AND EXTCODESIZE GT SWAP1 POP SWAP2 SWAP1 POP JUMP JUMPDEST PUSH1 0x60 PUSH1 0x0 PUSH1 0x1 PUSH2 0x16BF DUP5 PUSH2 0x199B JUMP JUMPDEST ADD SWAP1 POP PUSH1 0x0 DUP2 PUSH8 0xFFFFFFFFFFFFFFFF DUP2 GT ISZERO PUSH2 0x16DE JUMPI PUSH2 0x16DD PUSH2 0x1EBA JUMP JUMPDEST JUMPDEST PUSH1 0x40 MLOAD SWAP1 DUP1 DUP3 MSTORE DUP1 PUSH1 0x1F ADD PUSH1 0x1F NOT AND PUSH1 0x20 ADD DUP3 ADD PUSH1 0x40 MSTORE DUP1 ISZERO PUSH2 0x1710 JUMPI DUP2 PUSH1 0x20 ADD PUSH1 0x1 DUP3 MUL DUP1 CALLDATASIZE DUP4 CALLDATACOPY DUP1 DUP3 ADD SWAP2 POP POP SWAP1 POP JUMPDEST POP SWAP1 POP PUSH1 0x0 DUP3 PUSH1 0x20 ADD DUP3 ADD SWAP1 POP JUMPDEST PUSH1 0x1 ISZERO PUSH2 0x1773 JUMPI DUP1 DUP1 PUSH1 0x1 SWAP1 SUB SWAP2 POP POP PUSH32 0x3031323334353637383961626364656600000000000000000000000000000000 PUSH1 0xA DUP7 MOD BYTE DUP2 MSTORE8 PUSH1 0xA DUP6 DUP2 PUSH2 0x1767 JUMPI PUSH2 0x1766 PUSH2 0x2C2C JUMP JUMPDEST JUMPDEST DIV SWAP5 POP PUSH1 0x0 DUP6 SUB PUSH2 0x171E JUMPI JUMPDEST DUP2 SWAP4 POP POP POP POP SWAP2 SWAP1 POP JUMP JUMPDEST PUSH1 0x0 PUSH20 0xFFFFFFFFFFFFFFFFFFFFFFFFFFFFFFFFFFFFFFFF AND DUP3 PUSH20 0xFFFFFFFFFFFFFFFFFFFFFFFFFFFFFFFFFFFFFFFF AND SUB PUSH2 0x17ED JUMPI PUSH1 0x40 MLOAD PUSH32 0x8C379A000000000000000000000000000000000000000000000000000000000 DUP2 MSTORE PUSH1 0x4 ADD PUSH2 0x17E4 SWAP1 PUSH2 0x2CA7 JUMP JUMPDEST PUSH1 0x40 MLOAD DUP1 SWAP2 SUB SWAP1 REVERT JUMPDEST PUSH2 0x17F6 DUP2 PUSH2 0x1375 JUMP JUMPDEST ISZERO PUSH2 0x1836 JUMPI PUSH1 0x40 MLOAD PUSH32 0x8C379A000000000000000000000000000000000000000000000000000000000 DUP2 MSTORE PUSH1 0x4 ADD PUSH2 0x182D SWAP1 PUSH2 0x2D13 JUMP JUMPDEST PUSH1 0x40 MLOAD DUP1 SWAP2 SUB SWAP1 REVERT JUMPDEST PUSH2 0x1844 PUSH1 0x0 DUP4 DUP4 PUSH1 0x1 PUSH2 0x13B6 JUMP JUMPDEST PUSH2 0x184D DUP2 PUSH2 0x1375 JUMP JUMPDEST ISZERO PUSH2 0x188D JUMPI PUSH1 0x40 MLOAD PUSH32 0x8C379A000000000000000000000000000000000000000000000000000000000 DUP2 MSTORE PUSH1 0x4 ADD PUSH2 0x1884 SWAP1 PUSH2 0x2D13 JUMP JUMPDEST PUSH1 0x40 MLOAD DUP1 SWAP2 SUB SWAP1 REVERT JUMPDEST PUSH1 0x1 PUSH1 0x3 PUSH1 0x0 DUP5 PUSH20 0xFFFFFFFFFFFFFFFFFFFFFFFFFFFFFFFFFFFFFFFF AND PUSH20 0xFFFFFFFFFFFFFFFFFFFFFFFFFFFFFFFFFFFFFFFF AND DUP2 MSTORE PUSH1 0x20 ADD SWAP1 DUP2 MSTORE PUSH1 0x20 ADD PUSH1 0x0 KECCAK256 PUSH1 0x0 DUP3 DUP3 SLOAD ADD SWAP3 POP POP DUP2 SWAP1 SSTORE POP DUP2 PUSH1 0x2 PUSH1 0x0 DUP4 DUP2 MSTORE PUSH1 0x20 ADD SWAP1 DUP2 MSTORE PUSH1 0x20 ADD PUSH1 0x0 KECCAK256 PUSH1 0x0 PUSH2 0x100 EXP DUP2 SLOAD DUP2 PUSH20 0xFFFFFFFFFFFFFFFFFFFFFFFFFFFFFFFFFFFFFFFF MUL NOT AND SWAP1 DUP4 PUSH20 0xFFFFFFFFFFFFFFFFFFFFFFFFFFFFFFFFFFFFFFFF AND MUL OR SWAP1 SSTORE POP DUP1 DUP3 PUSH20 0xFFFFFFFFFFFFFFFFFFFFFFFFFFFFFFFFFFFFFFFF AND PUSH1 0x0 PUSH20 0xFFFFFFFFFFFFFFFFFFFFFFFFFFFFFFFFFFFFFFFF AND PUSH32 0xDDF252AD1BE2C89B69C2B068FC378DAA952BA7F163C4A11628F55A4DF523B3EF PUSH1 0x40 MLOAD PUSH1 0x40 MLOAD DUP1 SWAP2 SUB SWAP1 LOG4 PUSH2 0x1997 PUSH1 0x0 DUP4 DUP4 PUSH1 0x1 PUSH2 0x13BC JUMP JUMPDEST POP POP JUMP JUMPDEST PUSH1 0x0 DUP1 PUSH1 0x0 SWAP1 POP PUSH27 0x184F03E93FF9F4DAA797ED6E38ED64BF6A1F010000000000000000 DUP4 LT PUSH2 0x19F9 JUMPI PUSH27 0x184F03E93FF9F4DAA797ED6E38ED64BF6A1F010000000000000000 DUP4 DUP2 PUSH2 0x19EF JUMPI PUSH2 0x19EE PUSH2 0x2C2C JUMP JUMPDEST JUMPDEST DIV SWAP3 POP PUSH1 0x40 DUP2 ADD SWAP1 POP JUMPDEST PUSH14 0x4EE2D6D415B85ACEF8100000000 DUP4 LT PUSH2 0x1A36 JUMPI PUSH14 0x4EE2D6D415B85ACEF8100000000 DUP4 DUP2 PUSH2 0x1A2C JUMPI PUSH2 0x1A2B PUSH2 0x2C2C JUMP JUMPDEST JUMPDEST DIV SWAP3 POP PUSH1 0x20 DUP2 ADD SWAP1 POP JUMPDEST PUSH7 0x2386F26FC10000 DUP4 LT PUSH2 0x1A65 JUMPI PUSH7 0x2386F26FC10000 DUP4 DUP2 PUSH2 0x1A5B JUMPI PUSH2 0x1A5A PUSH2 0x2C2C JUMP JUMPDEST JUMPDEST DIV SWAP3 POP PUSH1 0x10 DUP2 ADD SWAP1 POP JUMPDEST PUSH4 0x5F5E100 DUP4 LT PUSH2 0x1A8E JUMPI PUSH4 0x5F5E100 DUP4 DUP2 PUSH2 0x1A84 JUMPI PUSH2 0x1A83 PUSH2 0x2C2C JUMP JUMPDEST JUMPDEST DIV SWAP3 POP PUSH1 0x8 DUP2 ADD SWAP1 POP JUMPDEST PUSH2 0x2710 DUP4 LT PUSH2 0x1AB3 JUMPI PUSH2 0x2710 DUP4 DUP2 PUSH2 0x1AA9 JUMPI PUSH2 0x1AA8 PUSH2 0x2C2C JUMP JUMPDEST JUMPDEST DIV SWAP3 POP PUSH1 0x4 DUP2 ADD SWAP1 POP JUMPDEST PUSH1 0x64 DUP4 LT PUSH2 0x1AD6 JUMPI PUSH1 0x64 DUP4 DUP2 PUSH2 0x1ACC JUMPI PUSH2 0x1ACB PUSH2 0x2C2C JUMP JUMPDEST JUMPDEST DIV SWAP3 POP PUSH1 0x2 DUP2 ADD SWAP1 POP JUMPDEST PUSH1 0xA DUP4 LT PUSH2 0x1AE5 JUMPI PUSH1 0x1 DUP2 ADD SWAP1 POP JUMPDEST DUP1 SWAP2 POP POP SWAP2 SWAP1 POP JUMP JUMPDEST PUSH1 0x0 PUSH1 0x40 MLOAD SWAP1 POP SWAP1 JUMP JUMPDEST PUSH1 0x0 DUP1 REVERT JUMPDEST PUSH1 0x0 DUP1 REVERT JUMPDEST PUSH1 0x0 PUSH32 0xFFFFFFFF00000000000000000000000000000000000000000000000000000000 DUP3 AND SWAP1 POP SWAP2 SWAP1 POP JUMP JUMPDEST PUSH2 0x1B37 DUP2 PUSH2 0x1B02 JUMP JUMPDEST DUP2 EQ PUSH2 0x1B42 JUMPI PUSH1 0x0 DUP1 REVERT JUMPDEST POP JUMP JUMPDEST PUSH1 0x0 DUP2 CALLDATALOAD SWAP1 POP PUSH2 0x1B54 DUP2 PUSH2 0x1B2E JUMP JUMPDEST SWAP3 SWAP2 POP POP JUMP JUMPDEST PUSH1 0x0 PUSH1 0x20 DUP3 DUP5 SUB SLT ISZERO PUSH2 0x1B70 JUMPI PUSH2 0x1B6F PUSH2 0x1AF8 JUMP JUMPDEST JUMPDEST PUSH1 0x0 PUSH2 0x1B7E DUP5 DUP3 DUP6 ADD PUSH2 0x1B45 JUMP JUMPDEST SWAP2 POP POP SWAP3 SWAP2 POP POP JUMP JUMPDEST PUSH1 0x0 DUP2 ISZERO ISZERO SWAP1 POP SWAP2 SWAP1 POP JUMP JUMPDEST PUSH2 0x1B9C DUP2 PUSH2 0x1B87 JUMP JUMPDEST DUP3 MSTORE POP POP JUMP JUMPDEST PUSH1 0x0 PUSH1 0x20 DUP3 ADD SWAP1 POP PUSH2 0x1BB7 PUSH1 0x0 DUP4 ADD DUP5 PUSH2 0x1B93 JUMP JUMPDEST SWAP3 SWAP2 POP POP JUMP JUMPDEST PUSH1 0x0 DUP2 MLOAD SWAP1 POP SWAP2 SWAP1 POP JUMP JUMPDEST PUSH1 0x0 DUP3 DUP3 MSTORE PUSH1 0x20 DUP3 ADD SWAP1 POP SWAP3 SWAP2 POP POP JUMP JUMPDEST PUSH1 0x0 JUMPDEST DUP4 DUP2 LT ISZERO PUSH2 0x1BF7 JUMPI DUP1 DUP3 ADD MLOAD DUP2 DUP5 ADD MSTORE PUSH1 0x20 DUP2 ADD SWAP1 POP PUSH2 0x1BDC JUMP JUMPDEST PUSH1 0x0 DUP5 DUP5 ADD MSTORE POP POP POP POP JUMP JUMPDEST PUSH1 0x0 PUSH1 0x1F NOT PUSH1 0x1F DUP4 ADD AND SWAP1 POP SWAP2 SWAP1 POP JUMP JUMPDEST PUSH1 0x0 PUSH2 0x1C1F DUP3 PUSH2 0x1BBD JUMP JUMPDEST PUSH2 0x1C29 DUP2 DUP6 PUSH2 0x1BC8 JUMP JUMPDEST SWAP4 POP PUSH2 0x1C39 DUP2 DUP6 PUSH1 0x20 DUP7 ADD PUSH2 0x1BD9 JUMP JUMPDEST PUSH2 0x1C42 DUP2 PUSH2 0x1C03 JUMP JUMPDEST DUP5 ADD SWAP2 POP POP SWAP3 SWAP2 POP POP JUMP JUMPDEST PUSH1 0x0 PUSH1 0x20 DUP3 ADD SWAP1 POP DUP2 DUP2 SUB PUSH1 0x0 DUP4 ADD MSTORE PUSH2 0x1C67 DUP2 DUP5 PUSH2 0x1C14 JUMP JUMPDEST SWAP1 POP SWAP3 SWAP2 POP POP JUMP JUMPDEST PUSH1 0x0 DUP2 SWAP1 POP SWAP2 SWAP1 POP JUMP JUMPDEST PUSH2 0x1C82 DUP2 PUSH2 0x1C6F JUMP JUMPDEST DUP2 EQ PUSH2 0x1C8D JUMPI PUSH1 0x0 DUP1 REVERT JUMPDEST POP JUMP JUMPDEST PUSH1 0x0 DUP2 CALLDATALOAD SWAP1 POP PUSH2 0x1C9F DUP2 PUSH2 0x1C79 JUMP JUMPDEST SWAP3 SWAP2 POP POP JUMP JUMPDEST PUSH1 0x0 PUSH1 0x20 DUP3 DUP5 SUB SLT ISZERO PUSH2 0x1CBB JUMPI PUSH2 0x1CBA PUSH2 0x1AF8 JUMP JUMPDEST JUMPDEST PUSH1 0x0 PUSH2 0x1CC9 DUP5 DUP3 DUP6 ADD PUSH2 0x1C90 JUMP JUMPDEST SWAP2 POP POP SWAP3 SWAP2 POP POP JUMP JUMPDEST PUSH1 0x0 PUSH20 0xFFFFFFFFFFFFFFFFFFFFFFFFFFFFFFFFFFFFFFFF DUP3 AND SWAP1 POP SWAP2 SWAP1 POP JUMP JUMPDEST PUSH1 0x0 PUSH2 0x1CFD DUP3 PUSH2 0x1CD2 JUMP JUMPDEST SWAP1 POP SWAP2 SWAP1 POP JUMP JUMPDEST PUSH2 0x1D0D DUP2 PUSH2 0x1CF2 JUMP JUMPDEST DUP3 MSTORE POP POP JUMP JUMPDEST PUSH1 0x0 PUSH1 0x20 DUP3 ADD SWAP1 POP PUSH2 0x1D28 PUSH1 0x0 DUP4 ADD DUP5 PUSH2 0x1D04 JUMP JUMPDEST SWAP3 SWAP2 POP POP JUMP JUMPDEST PUSH2 0x1D37 DUP2 PUSH2 0x1CF2 JUMP JUMPDEST DUP2 EQ PUSH2 0x1D42 JUMPI PUSH1 0x0 DUP1 REVERT JUMPDEST POP JUMP JUMPDEST PUSH1 0x0 DUP2 CALLDATALOAD SWAP1 POP PUSH2 0x1D54 DUP2 PUSH2 0x1D2E JUMP JUMPDEST SWAP3 SWAP2 POP POP JUMP JUMPDEST PUSH1 0x0 DUP1 PUSH1 0x40 DUP4 DUP6 SUB SLT ISZERO PUSH2 0x1D71 JUMPI PUSH2 0x1D70 PUSH2 0x1AF8 JUMP JUMPDEST JUMPDEST PUSH1 0x0 PUSH2 0x1D7F DUP6 DUP3 DUP7 ADD PUSH2 0x1D45 JUMP JUMPDEST SWAP3 POP POP PUSH1 0x20 PUSH2 0x1D90 DUP6 DUP3 DUP7 ADD PUSH2 0x1C90 JUMP JUMPDEST SWAP2 POP POP SWAP3 POP SWAP3 SWAP1 POP JUMP JUMPDEST PUSH1 0x0 DUP1 PUSH1 0x0 PUSH1 0x60 DUP5 DUP7 SUB SLT ISZERO PUSH2 0x1DB3 JUMPI PUSH2 0x1DB2 PUSH2 0x1AF8 JUMP JUMPDEST JUMPDEST PUSH1 0x0 PUSH2 0x1DC1 DUP7 DUP3 DUP8 ADD PUSH2 0x1D45 JUMP JUMPDEST SWAP4 POP POP PUSH1 0x20 PUSH2 0x1DD2 DUP7 DUP3 DUP8 ADD PUSH2 0x1D45 JUMP JUMPDEST SWAP3 POP POP PUSH1 0x40 PUSH2 0x1DE3 DUP7 DUP3 DUP8 ADD PUSH2 0x1C90 JUMP JUMPDEST SWAP2 POP POP SWAP3 POP SWAP3 POP SWAP3 JUMP JUMPDEST PUSH1 0x0 PUSH1 0x20 DUP3 DUP5 SUB SLT ISZERO PUSH2 0x1E03 JUMPI PUSH2 0x1E02 PUSH2 0x1AF8 JUMP JUMPDEST JUMPDEST PUSH1 0x0 PUSH2 0x1E11 DUP5 DUP3 DUP6 ADD PUSH2 0x1D45 JUMP JUMPDEST SWAP2 POP POP SWAP3 SWAP2 POP POP JUMP JUMPDEST PUSH2 0x1E23 DUP2 PUSH2 0x1C6F JUMP JUMPDEST DUP3 MSTORE POP POP JUMP JUMPDEST PUSH1 0x0 PUSH1 0x20 DUP3 ADD SWAP1 POP PUSH2 0x1E3E PUSH1 0x0 DUP4 ADD DUP5 PUSH2 0x1E1A JUMP JUMPDEST SWAP3 SWAP2 POP POP JUMP JUMPDEST PUSH2 0x1E4D DUP2 PUSH2 0x1B87 JUMP JUMPDEST DUP2 EQ PUSH2 0x1E58 JUMPI PUSH1 0x0 DUP1 REVERT JUMPDEST POP JUMP JUMPDEST PUSH1 0x0 DUP2 CALLDATALOAD SWAP1 POP PUSH2 0x1E6A DUP2 PUSH2 0x1E44 JUMP JUMPDEST SWAP3 SWAP2 POP POP JUMP JUMPDEST PUSH1 0x0 DUP1 PUSH1 0x40 DUP4 DUP6 SUB SLT ISZERO PUSH2 0x1E87 JUMPI PUSH2 0x1E86 PUSH2 0x1AF8 JUMP JUMPDEST JUMPDEST PUSH1 0x0 PUSH2 0x1E95 DUP6 DUP3 DUP7 ADD PUSH2 0x1D45 JUMP JUMPDEST SWAP3 POP POP PUSH1 0x20 PUSH2 0x1EA6 DUP6 DUP3 DUP7 ADD PUSH2 0x1E5B JUMP JUMPDEST SWAP2 POP POP SWAP3 POP SWAP3 SWAP1 POP JUMP JUMPDEST PUSH1 0x0 DUP1 REVERT JUMPDEST PUSH1 0x0 DUP1 REVERT JUMPDEST PUSH32 0x4E487B7100000000000000000000000000000000000000000000000000000000 PUSH1 0x0 MSTORE PUSH1 0x41 PUSH1 0x4 MSTORE PUSH1 0x24 PUSH1 0x0 REVERT JUMPDEST PUSH2 0x1EF2 DUP3 PUSH2 0x1C03 JUMP JUMPDEST DUP2 ADD DUP2 DUP2 LT PUSH8 0xFFFFFFFFFFFFFFFF DUP3 GT OR ISZERO PUSH2 0x1F11 JUMPI PUSH2 0x1F10 PUSH2 0x1EBA JUMP JUMPDEST JUMPDEST DUP1 PUSH1 0x40 MSTORE POP POP POP JUMP JUMPDEST PUSH1 0x0 PUSH2 0x1F24 PUSH2 0x1AEE JUMP JUMPDEST SWAP1 POP PUSH2 0x1F30 DUP3 DUP3 PUSH2 0x1EE9 JUMP JUMPDEST SWAP2 SWAP1 POP JUMP JUMPDEST PUSH1 0x0 PUSH8 0xFFFFFFFFFFFFFFFF DUP3 GT ISZERO PUSH2 0x1F50 JUMPI PUSH2 0x1F4F PUSH2 0x1EBA JUMP JUMPDEST JUMPDEST PUSH2 0x1F59 DUP3 PUSH2 0x1C03 JUMP JUMPDEST SWAP1 POP PUSH1 0x20 DUP2 ADD SWAP1 POP SWAP2 SWAP1 POP JUMP JUMPDEST DUP3 DUP2 DUP4 CALLDATACOPY PUSH1 0x0 DUP4 DUP4 ADD MSTORE POP POP POP JUMP JUMPDEST PUSH1 0x0 PUSH2 0x1F88 PUSH2 0x1F83 DUP5 PUSH2 0x1F35 JUMP JUMPDEST PUSH2 0x1F1A JUMP JUMPDEST SWAP1 POP DUP3 DUP2 MSTORE PUSH1 0x20 DUP2 ADD DUP5 DUP5 DUP5 ADD GT ISZERO PUSH2 0x1FA4 JUMPI PUSH2 0x1FA3 PUSH2 0x1EB5 JUMP JUMPDEST JUMPDEST PUSH2 0x1FAF DUP5 DUP3 DUP6 PUSH2 0x1F66 JUMP JUMPDEST POP SWAP4 SWAP3 POP POP POP JUMP JUMPDEST PUSH1 0x0 DUP3 PUSH1 0x1F DUP4 ADD SLT PUSH2 0x1FCC JUMPI PUSH2 0x1FCB PUSH2 0x1EB0 JUMP JUMPDEST JUMPDEST DUP2 CALLDATALOAD PUSH2 0x1FDC DUP5 DUP3 PUSH1 0x20 DUP7 ADD PUSH2 0x1F75 JUMP JUMPDEST SWAP2 POP POP SWAP3 SWAP2 POP POP JUMP JUMPDEST PUSH1 0x0 DUP1 PUSH1 0x0 DUP1 PUSH1 0x80 DUP6 DUP8 SUB SLT ISZERO PUSH2 0x1FFF JUMPI PUSH2 0x1FFE PUSH2 0x1AF8 JUMP JUMPDEST JUMPDEST PUSH1 0x0 PUSH2 0x200D DUP8 DUP3 DUP9 ADD PUSH2 0x1D45 JUMP JUMPDEST SWAP5 POP POP PUSH1 0x20 PUSH2 0x201E DUP8 DUP3 DUP9 ADD PUSH2 0x1D45 JUMP JUMPDEST SWAP4 POP POP PUSH1 0x40 PUSH2 0x202F DUP8 DUP3 DUP9 ADD PUSH2 0x1C90 JUMP JUMPDEST SWAP3 POP POP PUSH1 0x60 DUP6 ADD CALLDATALOAD PUSH8 0xFFFFFFFFFFFFFFFF DUP2 GT ISZERO PUSH2 0x2050 JUMPI PUSH2 0x204F PUSH2 0x1AFD JUMP JUMPDEST JUMPDEST PUSH2 0x205C DUP8 DUP3 DUP9 ADD PUSH2 0x1FB7 JUMP JUMPDEST SWAP2 POP POP SWAP3 SWAP6 SWAP2 SWAP5 POP SWAP3 POP JUMP JUMPDEST PUSH1 0x0 PUSH8 0xFFFFFFFFFFFFFFFF DUP3 GT ISZERO PUSH2 0x2083 JUMPI PUSH2 0x2082 PUSH2 0x1EBA JUMP JUMPDEST JUMPDEST PUSH2 0x208C DUP3 PUSH2 0x1C03 JUMP JUMPDEST SWAP1 POP PUSH1 0x20 DUP2 ADD SWAP1 POP SWAP2 SWAP1 POP JUMP JUMPDEST PUSH1 0x0 PUSH2 0x20AC PUSH2 0x20A7 DUP5 PUSH2 0x2068 JUMP JUMPDEST PUSH2 0x1F1A JUMP JUMPDEST SWAP1 POP DUP3 DUP2 MSTORE PUSH1 0x20 DUP2 ADD DUP5 DUP5 DUP5 ADD GT ISZERO PUSH2 0x20C8 JUMPI PUSH2 0x20C7 PUSH2 0x1EB5 JUMP JUMPDEST JUMPDEST PUSH2 0x20D3 DUP5 DUP3 DUP6 PUSH2 0x1F66 JUMP JUMPDEST POP SWAP4 SWAP3 POP POP POP JUMP JUMPDEST PUSH1 0x0 DUP3 PUSH1 0x1F DUP4 ADD SLT PUSH2 0x20F0 JUMPI PUSH2 0x20EF PUSH2 0x1EB0 JUMP JUMPDEST JUMPDEST DUP2 CALLDATALOAD PUSH2 0x2100 DUP5 DUP3 PUSH1 0x20 DUP7 ADD PUSH2 0x2099 JUMP JUMPDEST SWAP2 POP POP SWAP3 SWAP2 POP POP JUMP JUMPDEST PUSH1 0x0 DUP1 PUSH1 0x40 DUP4 DUP6 SUB SLT ISZERO PUSH2 0x2120 JUMPI PUSH2 0x211F PUSH2 0x1AF8 JUMP JUMPDEST JUMPDEST PUSH1 0x0 PUSH2 0x212E DUP6 DUP3 DUP7 ADD PUSH2 0x1D45 JUMP JUMPDEST SWAP3 POP POP PUSH1 0x20 DUP4 ADD CALLDATALOAD PUSH8 0xFFFFFFFFFFFFFFFF DUP2 GT ISZERO PUSH2 0x214F JUMPI PUSH2 0x214E PUSH2 0x1AFD JUMP JUMPDEST JUMPDEST PUSH2 0x215B DUP6 DUP3 DUP7 ADD PUSH2 0x20DB JUMP JUMPDEST SWAP2 POP POP SWAP3 POP SWAP3 SWAP1 POP JUMP JUMPDEST PUSH1 0x0 DUP1 PUSH1 0x40 DUP4 DUP6 SUB SLT ISZERO PUSH2 0x217C JUMPI PUSH2 0x217B PUSH2 0x1AF8 JUMP JUMPDEST JUMPDEST PUSH1 0x0 PUSH2 0x218A DUP6 DUP3 DUP7 ADD PUSH2 0x1D45 JUMP JUMPDEST SWAP3 POP POP PUSH1 0x20 PUSH2 0x219B DUP6 DUP3 DUP7 ADD PUSH2 0x1D45 JUMP JUMPDEST SWAP2 POP POP SWAP3 POP SWAP3 SWAP1 POP JUMP JUMPDEST PUSH32 0x4E487B7100000000000000000000000000000000000000000000000000000000 PUSH1 0x0 MSTORE PUSH1 0x22 PUSH1 0x4 MSTORE PUSH1 0x24 PUSH1 0x0 REVERT JUMPDEST PUSH1 0x0 PUSH1 0x2 DUP3 DIV SWAP1 POP PUSH1 0x1 DUP3 AND DUP1 PUSH2 0x21EC JUMPI PUSH1 0x7F DUP3 AND SWAP2 POP JUMPDEST PUSH1 0x20 DUP3 LT DUP2 SUB PUSH2 0x21FF JUMPI PUSH2 0x21FE PUSH2 0x21A5 JUMP JUMPDEST JUMPDEST POP SWAP2 SWAP1 POP JUMP JUMPDEST PUSH32 0x4552433732313A20617070726F76616C20746F2063757272656E74206F776E65 PUSH1 0x0 DUP3 ADD MSTORE PUSH32 0x7200000000000000000000000000000000000000000000000000000000000000 PUSH1 0x20 DUP3 ADD MSTORE POP JUMP JUMPDEST PUSH1 0x0 PUSH2 0x2261 PUSH1 0x21 DUP4 PUSH2 0x1BC8 JUMP JUMPDEST SWAP2 POP PUSH2 0x226C DUP3 PUSH2 0x2205 JUMP JUMPDEST PUSH1 0x40 DUP3 ADD SWAP1 POP SWAP2 SWAP1 POP JUMP JUMPDEST PUSH1 0x0 PUSH1 0x20 DUP3 ADD SWAP1 POP DUP2 DUP2 SUB PUSH1 0x0 DUP4 ADD MSTORE PUSH2 0x2290 DUP2 PUSH2 0x2254 JUMP JUMPDEST SWAP1 POP SWAP2 SWAP1 POP JUMP JUMPDEST PUSH32 0x4552433732313A20617070726F76652063616C6C6572206973206E6F7420746F PUSH1 0x0 DUP3 ADD MSTORE PUSH32 0x6B656E206F776E6572206F7220617070726F76656420666F7220616C6C000000 PUSH1 0x20 DUP3 ADD MSTORE POP JUMP JUMPDEST PUSH1 0x0 PUSH2 0x22F3 PUSH1 0x3D DUP4 PUSH2 0x1BC8 JUMP JUMPDEST SWAP2 POP PUSH2 0x22FE DUP3 PUSH2 0x2297 JUMP JUMPDEST PUSH1 0x40 DUP3 ADD SWAP1 POP SWAP2 SWAP1 POP JUMP JUMPDEST PUSH1 0x0 PUSH1 0x20 DUP3 ADD SWAP1 POP DUP2 DUP2 SUB PUSH1 0x0 DUP4 ADD MSTORE PUSH2 0x2322 DUP2 PUSH2 0x22E6 JUMP JUMPDEST SWAP1 POP SWAP2 SWAP1 POP JUMP JUMPDEST PUSH32 0x4552433732313A2063616C6C6572206973206E6F7420746F6B656E206F776E65 PUSH1 0x0 DUP3 ADD MSTORE PUSH32 0x72206F7220617070726F76656400000000000000000000000000000000000000 PUSH1 0x20 DUP3 ADD MSTORE POP JUMP JUMPDEST PUSH1 0x0 PUSH2 0x2385 PUSH1 0x2D DUP4 PUSH2 0x1BC8 JUMP JUMPDEST SWAP2 POP PUSH2 0x2390 DUP3 PUSH2 0x2329 JUMP JUMPDEST PUSH1 0x40 DUP3 ADD SWAP1 POP SWAP2 SWAP1 POP JUMP JUMPDEST PUSH1 0x0 PUSH1 0x20 DUP3 ADD SWAP1 POP DUP2 DUP2 SUB PUSH1 0x0 DUP4 ADD MSTORE PUSH2 0x23B4 DUP2 PUSH2 0x2378 JUMP JUMPDEST SWAP1 POP SWAP2 SWAP1 POP JUMP JUMPDEST PUSH32 0x4552433732313A20696E76616C696420746F6B656E2049440000000000000000 PUSH1 0x0 DUP3 ADD MSTORE POP JUMP JUMPDEST PUSH1 0x0 PUSH2 0x23F1 PUSH1 0x18 DUP4 PUSH2 0x1BC8 JUMP JUMPDEST SWAP2 POP PUSH2 0x23FC DUP3 PUSH2 0x23BB JUMP JUMPDEST PUSH1 0x20 DUP3 ADD SWAP1 POP SWAP2 SWAP1 POP JUMP JUMPDEST PUSH1 0x0 PUSH1 0x20 DUP3 ADD SWAP1 POP DUP2 DUP2 SUB PUSH1 0x0 DUP4 ADD MSTORE PUSH2 0x2420 DUP2 PUSH2 0x23E4 JUMP JUMPDEST SWAP1 POP SWAP2 SWAP1 POP JUMP JUMPDEST PUSH32 0x4552433732313A2061646472657373207A65726F206973206E6F742061207661 PUSH1 0x0 DUP3 ADD MSTORE PUSH32 0x6C6964206F776E65720000000000000000000000000000000000000000000000 PUSH1 0x20 DUP3 ADD MSTORE POP JUMP JUMPDEST PUSH1 0x0 PUSH2 0x2483 PUSH1 0x29 DUP4 PUSH2 0x1BC8 JUMP JUMPDEST SWAP2 POP PUSH2 0x248E DUP3 PUSH2 0x2427 JUMP JUMPDEST PUSH1 0x40 DUP3 ADD SWAP1 POP SWAP2 SWAP1 POP JUMP JUMPDEST PUSH1 0x0 PUSH1 0x20 DUP3 ADD SWAP1 POP DUP2 DUP2 SUB PUSH1 0x0 DUP4 ADD MSTORE PUSH2 0x24B2 DUP2 PUSH2 0x2476 JUMP JUMPDEST SWAP1 POP SWAP2 SWAP1 POP JUMP JUMPDEST PUSH32 0x596F7520646F206E6F7420686176652061636365737321000000000000000000 PUSH1 0x0 DUP3 ADD MSTORE POP JUMP JUMPDEST PUSH1 0x0 PUSH2 0x24EF PUSH1 0x17 DUP4 PUSH2 0x1BC8 JUMP JUMPDEST SWAP2 POP PUSH2 0x24FA DUP3 PUSH2 0x24B9 JUMP JUMPDEST PUSH1 0x20 DUP3 ADD SWAP1 POP SWAP2 SWAP1 POP JUMP JUMPDEST PUSH1 0x0 PUSH1 0x20 DUP3 ADD SWAP1 POP DUP2 DUP2 SUB PUSH1 0x0 DUP4 ADD MSTORE PUSH2 0x251E DUP2 PUSH2 0x24E2 JUMP JUMPDEST SWAP1 POP SWAP2 SWAP1 POP JUMP JUMPDEST PUSH32 0x54686572652063616E206265206F6E6C79203330204E46547320696E20612054 PUSH1 0x0 DUP3 ADD MSTORE PUSH32 0x72656520436F6C6C656374696F6E210000000000000000000000000000000000 PUSH1 0x20 DUP3 ADD MSTORE POP JUMP JUMPDEST PUSH1 0x0 PUSH2 0x2581 PUSH1 0x2F DUP4 PUSH2 0x1BC8 JUMP JUMPDEST SWAP2 POP PUSH2 0x258C DUP3 PUSH2 0x2525 JUMP JUMPDEST PUSH1 0x40 DUP3 ADD SWAP1 POP SWAP2 SWAP1 POP JUMP JUMPDEST PUSH1 0x0 PUSH1 0x20 DUP3 ADD SWAP1 POP DUP2 DUP2 SUB PUSH1 0x0 DUP4 ADD MSTORE PUSH2 0x25B0 DUP2 PUSH2 0x2574 JUMP JUMPDEST SWAP1 POP SWAP2 SWAP1 POP JUMP JUMPDEST PUSH32 0x4552433732313A207472616E736665722066726F6D20696E636F727265637420 PUSH1 0x0 DUP3 ADD MSTORE PUSH32 0x6F776E6572000000000000000000000000000000000000000000000000000000 PUSH1 0x20 DUP3 ADD MSTORE POP JUMP JUMPDEST PUSH1 0x0 PUSH2 0x2613 PUSH1 0x25 DUP4 PUSH2 0x1BC8 JUMP JUMPDEST SWAP2 POP PUSH2 0x261E DUP3 PUSH2 0x25B7 JUMP JUMPDEST PUSH1 0x40 DUP3 ADD SWAP1 POP SWAP2 SWAP1 POP JUMP JUMPDEST PUSH1 0x0 PUSH1 0x20 DUP3 ADD SWAP1 POP DUP2 DUP2 SUB PUSH1 0x0 DUP4 ADD MSTORE PUSH2 0x2642 DUP2 PUSH2 0x2606 JUMP JUMPDEST SWAP1 POP SWAP2 SWAP1 POP JUMP JUMPDEST PUSH32 0x4552433732313A207472616E7366657220746F20746865207A65726F20616464 PUSH1 0x0 DUP3 ADD MSTORE PUSH32 0x7265737300000000000000000000000000000000000000000000000000000000 PUSH1 0x20 DUP3 ADD MSTORE POP JUMP JUMPDEST PUSH1 0x0 PUSH2 0x26A5 PUSH1 0x24 DUP4 PUSH2 0x1BC8 JUMP JUMPDEST SWAP2 POP PUSH2 0x26B0 DUP3 PUSH2 0x2649 JUMP JUMPDEST PUSH1 0x40 DUP3 ADD SWAP1 POP SWAP2 SWAP1 POP JUMP JUMPDEST PUSH1 0x0 PUSH1 0x20 DUP3 ADD SWAP1 POP DUP2 DUP2 SUB PUSH1 0x0 DUP4 ADD MSTORE PUSH2 0x26D4 DUP2 PUSH2 0x2698 JUMP JUMPDEST SWAP1 POP SWAP2 SWAP1 POP JUMP JUMPDEST PUSH32 0x4552433732313A20617070726F766520746F2063616C6C657200000000000000 PUSH1 0x0 DUP3 ADD MSTORE POP JUMP JUMPDEST PUSH1 0x0 PUSH2 0x2711 PUSH1 0x19 DUP4 PUSH2 0x1BC8 JUMP JUMPDEST SWAP2 POP PUSH2 0x271C DUP3 PUSH2 0x26DB JUMP JUMPDEST PUSH1 0x20 DUP3 ADD SWAP1 POP SWAP2 SWAP1 POP JUMP JUMPDEST PUSH1 0x0 PUSH1 0x20 DUP3 ADD SWAP1 POP DUP2 DUP2 SUB PUSH1 0x0 DUP4 ADD MSTORE PUSH2 0x2740 DUP2 PUSH2 0x2704 JUMP JUMPDEST SWAP1 POP SWAP2 SWAP1 POP JUMP JUMPDEST PUSH32 0x4552433732313A207472616E7366657220746F206E6F6E204552433732315265 PUSH1 0x0 DUP3 ADD MSTORE PUSH32 0x63656976657220696D706C656D656E7465720000000000000000000000000000 PUSH1 0x20 DUP3 ADD MSTORE POP JUMP JUMPDEST PUSH1 0x0 PUSH2 0x27A3 PUSH1 0x32 DUP4 PUSH2 0x1BC8 JUMP JUMPDEST SWAP2 POP PUSH2 0x27AE DUP3 PUSH2 0x2747 JUMP JUMPDEST PUSH1 0x40 DUP3 ADD SWAP1 POP SWAP2 SWAP1 POP JUMP JUMPDEST PUSH1 0x0 PUSH1 0x20 DUP3 ADD SWAP1 POP DUP2 DUP2 SUB PUSH1 0x0 DUP4 ADD MSTORE PUSH2 0x27D2 DUP2 PUSH2 0x2796 JUMP JUMPDEST SWAP1 POP SWAP2 SWAP1 POP JUMP JUMPDEST PUSH1 0x0 DUP2 SWAP1 POP SWAP3 SWAP2 POP POP JUMP JUMPDEST PUSH1 0x0 PUSH2 0x27EF DUP3 PUSH2 0x1BBD JUMP JUMPDEST PUSH2 0x27F9 DUP2 DUP6 PUSH2 0x27D9 JUMP JUMPDEST SWAP4 POP PUSH2 0x2809 DUP2 DUP6 PUSH1 0x20 DUP7 ADD PUSH2 0x1BD9 JUMP JUMPDEST DUP1 DUP5 ADD SWAP2 POP POP SWAP3 SWAP2 POP POP JUMP JUMPDEST PUSH1 0x0 PUSH2 0x2821 DUP3 DUP6 PUSH2 0x27E4 JUMP JUMPDEST SWAP2 POP PUSH2 0x282D DUP3 DUP5 PUSH2 0x27E4 JUMP JUMPDEST SWAP2 POP DUP2 SWAP1 POP SWAP4 SWAP3 POP POP POP JUMP JUMPDEST PUSH32 0x45524337323155524953746F726167653A2055524920736574206F66206E6F6E PUSH1 0x0 DUP3 ADD MSTORE PUSH32 0x6578697374656E7420746F6B656E000000000000000000000000000000000000 PUSH1 0x20 DUP3 ADD MSTORE POP JUMP JUMPDEST PUSH1 0x0 PUSH2 0x2895 PUSH1 0x2E DUP4 PUSH2 0x1BC8 JUMP JUMPDEST SWAP2 POP PUSH2 0x28A0 DUP3 PUSH2 0x2839 JUMP JUMPDEST PUSH1 0x40 DUP3 ADD SWAP1 POP SWAP2 SWAP1 POP JUMP JUMPDEST PUSH1 0x0 PUSH1 0x20 DUP3 ADD SWAP1 POP DUP2 DUP2 SUB PUSH1 0x0 DUP4 ADD MSTORE PUSH2 0x28C4 DUP2 PUSH2 0x2888 JUMP JUMPDEST SWAP1 POP SWAP2 SWAP1 POP JUMP JUMPDEST PUSH1 0x0 DUP2 SWAP1 POP DUP2 PUSH1 0x0 MSTORE PUSH1 0x20 PUSH1 0x0 KECCAK256 SWAP1 POP SWAP2 SWAP1 POP JUMP JUMPDEST PUSH1 0x0 PUSH1 0x20 PUSH1 0x1F DUP4 ADD DIV SWAP1 POP SWAP2 SWAP1 POP JUMP JUMPDEST PUSH1 0x0 DUP3 DUP3 SHL SWAP1 POP SWAP3 SWAP2 POP POP JUMP JUMPDEST PUSH1 0x0 PUSH1 0x8 DUP4 MUL PUSH2 0x292D PUSH32 0xFFFFFFFFFFFFFFFFFFFFFFFFFFFFFFFFFFFFFFFFFFFFFFFFFFFFFFFFFFFFFFFF DUP3 PUSH2 0x28F0 JUMP JUMPDEST PUSH2 0x2937 DUP7 DUP4 PUSH2 0x28F0 JUMP JUMPDEST SWAP6 POP DUP1 NOT DUP5 AND SWAP4 POP DUP1 DUP7 AND DUP5 OR SWAP3 POP POP POP SWAP4 SWAP3 POP POP POP JUMP JUMPDEST PUSH1 0x0 DUP2 SWAP1 POP SWAP2 SWAP1 POP JUMP JUMPDEST PUSH1 0x0 PUSH2 0x2974 PUSH2 0x296F PUSH2 0x296A DUP5 PUSH2 0x1C6F JUMP JUMPDEST PUSH2 0x294F JUMP JUMPDEST PUSH2 0x1C6F JUMP JUMPDEST SWAP1 POP SWAP2 SWAP1 POP JUMP JUMPDEST PUSH1 0x0 DUP2 SWAP1 POP SWAP2 SWAP1 POP JUMP JUMPDEST PUSH2 0x298E DUP4 PUSH2 0x2959 JUMP JUMPDEST PUSH2 0x29A2 PUSH2 0x299A DUP3 PUSH2 0x297B JUMP JUMPDEST DUP5 DUP5 SLOAD PUSH2 0x28FD JUMP JUMPDEST DUP3 SSTORE POP POP POP POP JUMP JUMPDEST PUSH1 0x0 SWAP1 JUMP JUMPDEST PUSH2 0x29B7 PUSH2 0x29AA JUMP JUMPDEST PUSH2 0x29C2 DUP2 DUP5 DUP5 PUSH2 0x2985 JUMP JUMPDEST POP POP POP JUMP JUMPDEST JUMPDEST DUP2 DUP2 LT ISZERO PUSH2 0x29E6 JUMPI PUSH2 0x29DB PUSH1 0x0 DUP3 PUSH2 0x29AF JUMP JUMPDEST PUSH1 0x1 DUP2 ADD SWAP1 POP PUSH2 0x29C8 JUMP JUMPDEST POP POP JUMP JUMPDEST PUSH1 0x1F DUP3 GT ISZERO PUSH2 0x2A2B JUMPI PUSH2 0x29FC DUP2 PUSH2 0x28CB JUMP JUMPDEST PUSH2 0x2A05 DUP5 PUSH2 0x28E0 JUMP JUMPDEST DUP2 ADD PUSH1 0x20 DUP6 LT ISZERO PUSH2 0x2A14 JUMPI DUP2 SWAP1 POP JUMPDEST PUSH2 0x2A28 PUSH2 0x2A20 DUP6 PUSH2 0x28E0 JUMP JUMPDEST DUP4 ADD DUP3 PUSH2 0x29C7 JUMP JUMPDEST POP POP JUMPDEST POP POP POP JUMP JUMPDEST PUSH1 0x0 DUP3 DUP3 SHR SWAP1 POP SWAP3 SWAP2 POP POP JUMP JUMPDEST PUSH1 0x0 PUSH2 0x2A4E PUSH1 0x0 NOT DUP5 PUSH1 0x8 MUL PUSH2 0x2A30 JUMP JUMPDEST NOT DUP1 DUP4 AND SWAP2 POP POP SWAP3 SWAP2 POP POP JUMP JUMPDEST PUSH1 0x0 PUSH2 0x2A67 DUP4 DUP4 PUSH2 0x2A3D JUMP JUMPDEST SWAP2 POP DUP3 PUSH1 0x2 MUL DUP3 OR SWAP1 POP SWAP3 SWAP2 POP POP JUMP JUMPDEST PUSH2 0x2A80 DUP3 PUSH2 0x1BBD JUMP JUMPDEST PUSH8 0xFFFFFFFFFFFFFFFF DUP2 GT ISZERO PUSH2 0x2A99 JUMPI PUSH2 0x2A98 PUSH2 0x1EBA JUMP JUMPDEST JUMPDEST PUSH2 0x2AA3 DUP3 SLOAD PUSH2 0x21D4 JUMP JUMPDEST PUSH2 0x2AAE DUP3 DUP3 DUP6 PUSH2 0x29EA JUMP JUMPDEST PUSH1 0x0 PUSH1 0x20 SWAP1 POP PUSH1 0x1F DUP4 GT PUSH1 0x1 DUP2 EQ PUSH2 0x2AE1 JUMPI PUSH1 0x0 DUP5 ISZERO PUSH2 0x2ACF JUMPI DUP3 DUP8 ADD MLOAD SWAP1 POP JUMPDEST PUSH2 0x2AD9 DUP6 DUP3 PUSH2 0x2A5B JUMP JUMPDEST DUP7 SSTORE POP PUSH2 0x2B41 JUMP JUMPDEST PUSH1 0x1F NOT DUP5 AND PUSH2 0x2AEF DUP7 PUSH2 0x28CB JUMP JUMPDEST PUSH1 0x0 JUMPDEST DUP3 DUP2 LT ISZERO PUSH2 0x2B17 JUMPI DUP5 DUP10 ADD MLOAD DUP3 SSTORE PUSH1 0x1 DUP3 ADD SWAP2 POP PUSH1 0x20 DUP6 ADD SWAP5 POP PUSH1 0x20 DUP2 ADD SWAP1 POP PUSH2 0x2AF2 JUMP JUMPDEST DUP7 DUP4 LT ISZERO PUSH2 0x2B34 JUMPI DUP5 DUP10 ADD MLOAD PUSH2 0x2B30 PUSH1 0x1F DUP10 AND DUP3 PUSH2 0x2A3D JUMP JUMPDEST DUP4 SSTORE POP JUMPDEST PUSH1 0x1 PUSH1 0x2 DUP9 MUL ADD DUP9 SSTORE POP POP POP JUMPDEST POP POP POP POP POP POP JUMP JUMPDEST PUSH1 0x0 DUP2 MLOAD SWAP1 POP SWAP2 SWAP1 POP JUMP JUMPDEST PUSH1 0x0 DUP3 DUP3 MSTORE PUSH1 0x20 DUP3 ADD SWAP1 POP SWAP3 SWAP2 POP POP JUMP JUMPDEST PUSH1 0x0 PUSH2 0x2B70 DUP3 PUSH2 0x2B49 JUMP JUMPDEST PUSH2 0x2B7A DUP2 DUP6 PUSH2 0x2B54 JUMP JUMPDEST SWAP4 POP PUSH2 0x2B8A DUP2 DUP6 PUSH1 0x20 DUP7 ADD PUSH2 0x1BD9 JUMP JUMPDEST PUSH2 0x2B93 DUP2 PUSH2 0x1C03 JUMP JUMPDEST DUP5 ADD SWAP2 POP POP SWAP3 SWAP2 POP POP JUMP JUMPDEST PUSH1 0x0 PUSH1 0x80 DUP3 ADD SWAP1 POP PUSH2 0x2BB3 PUSH1 0x0 DUP4 ADD DUP8 PUSH2 0x1D04 JUMP JUMPDEST PUSH2 0x2BC0 PUSH1 0x20 DUP4 ADD DUP7 PUSH2 0x1D04 JUMP JUMPDEST PUSH2 0x2BCD PUSH1 0x40 DUP4 ADD DUP6 PUSH2 0x1E1A JUMP JUMPDEST DUP2 DUP2 SUB PUSH1 0x60 DUP4 ADD MSTORE PUSH2 0x2BDF DUP2 DUP5 PUSH2 0x2B65 JUMP JUMPDEST SWAP1 POP SWAP6 SWAP5 POP POP POP POP POP JUMP JUMPDEST PUSH1 0x0 DUP2 MLOAD SWAP1 POP PUSH2 0x2BF9 DUP2 PUSH2 0x1B2E JUMP JUMPDEST SWAP3 SWAP2 POP POP JUMP JUMPDEST PUSH1 0x0 PUSH1 0x20 DUP3 DUP5 SUB SLT ISZERO PUSH2 0x2C15 JUMPI PUSH2 0x2C14 PUSH2 0x1AF8 JUMP JUMPDEST JUMPDEST PUSH1 0x0 PUSH2 0x2C23 DUP5 DUP3 DUP6 ADD PUSH2 0x2BEA JUMP JUMPDEST SWAP2 POP POP SWAP3 SWAP2 POP POP JUMP JUMPDEST PUSH32 0x4E487B7100000000000000000000000000000000000000000000000000000000 PUSH1 0x0 MSTORE PUSH1 0x12 PUSH1 0x4 MSTORE PUSH1 0x24 PUSH1 0x0 REVERT JUMPDEST PUSH32 0x4552433732313A206D696E7420746F20746865207A65726F2061646472657373 PUSH1 0x0 DUP3 ADD MSTORE POP JUMP JUMPDEST PUSH1 0x0 PUSH2 0x2C91 PUSH1 0x20 DUP4 PUSH2 0x1BC8 JUMP JUMPDEST SWAP2 POP PUSH2 0x2C9C DUP3 PUSH2 0x2C5B JUMP JUMPDEST PUSH1 0x20 DUP3 ADD SWAP1 POP SWAP2 SWAP1 POP JUMP JUMPDEST PUSH1 0x0 PUSH1 0x20 DUP3 ADD SWAP1 POP DUP2 DUP2 SUB PUSH1 0x0 DUP4 ADD MSTORE PUSH2 0x2CC0 DUP2 PUSH2 0x2C84 JUMP JUMPDEST SWAP1 POP SWAP2 SWAP1 POP JUMP JUMPDEST PUSH32 0x4552433732313A20746F6B656E20616C7265616479206D696E74656400000000 PUSH1 0x0 DUP3 ADD MSTORE POP JUMP JUMPDEST PUSH1 0x0 PUSH2 0x2CFD PUSH1 0x1C DUP4 PUSH2 0x1BC8 JUMP JUMPDEST SWAP2 POP PUSH2 0x2D08 DUP3 PUSH2 0x2CC7 JUMP JUMPDEST PUSH1 0x20 DUP3 ADD SWAP1 POP SWAP2 SWAP1 POP JUMP JUMPDEST PUSH1 0x0 PUSH1 0x20 DUP3 ADD SWAP1 POP DUP2 DUP2 SUB PUSH1 0x0 DUP4 ADD MSTORE PUSH2 0x2D2C DUP2 PUSH2 0x2CF0 JUMP JUMPDEST SWAP1 POP SWAP2 SWAP1 POP JUMP INVALID LOG2 PUSH5 0x6970667358 0x22 SLT KECCAK256 MOD BASEFEE 0xF 0xB9 PUSH1 0x4F SWAP7 XOR 0xEC MSTORE 0xE4 RETURNDATACOPY 0xD0 SSTORE 0x28 0x49 SWAP2 0xDF COINBASE MSTORE8 0xD4 PUSH11 0xAA828A03FD80EA6EE82364 PUSH20 0x6F6C63430008120033A2646970667358221220CC 0xA8 0x2C SWAP16 0x25 DUP12 DUP12 0xC3 CALLVALUE LOG2 SWAP2 0xCF 0xF JUMPDEST GAS 0xDC 0xA5 SWAP13 0xB6 0x49 0xD1 DELEGATECALL 0x2C GASPRICE SELFBALANCE AND BLOCKHASH 0xA7 SWAP4 SIGNEXTEND 0x4C RETURN PUSH5 0x736F6C6343 STOP ADDMOD SLT STOP CALLER "
	},
	"Assembly": ".code\n  PUSH E0\t\t\tcontract Genesis is ERC20 {\\r\\...\n  PUSH 40\t\t\tcontract Genesis is ERC20 {\\r\\...\n  MSTORE \t\t\tcontract Genesis is ERC20 {\\r\\...\n  PUSH D3C21BCECCEDA1000000\t\t\t1e24\n  PUSH 80\t\t\tuint256 immutable base = 1e24\n  SWAP1 \t\t\tuint256 immutable base = 1e24\n  DUP2 \t\t\tuint256 immutable base = 1e24\n  MSTORE \t\t\tuint256 immutable base = 1e24\n  POP \t\t\tuint256 immutable base = 1e24\n  PUSH DE0B6B3A7640000\t\t\t1e18\n  PUSH A0\t\t\tuint256 immutable gne = 1e18\n  SWAP1 \t\t\tuint256 immutable gne = 1e18\n  DUP2 \t\t\tuint256 immutable gne = 1e18\n  MSTORE \t\t\tuint256 immutable gne = 1e18\n  POP \t\t\tuint256 immutable gne = 1e18\n  CALLVALUE \t\t\tconstructor(address _token) ER...\n  DUP1 \t\t\tconstructor(address _token) ER...\n  ISZERO \t\t\tconstructor(address _token) ER...\n  PUSH [tag] 1\t\t\tconstructor(address _token) ER...\n  JUMPI \t\t\tconstructor(address _token) ER...\n  PUSH 0\t\t\tconstructor(address _token) ER...\n  DUP1 \t\t\tconstructor(address _token) ER...\n  REVERT \t\t\tconstructor(address _token) ER...\ntag 1\t\t\tconstructor(address _token) ER...\n  JUMPDEST \t\t\tconstructor(address _token) ER...\n  POP \t\t\tconstructor(address _token) ER...\n  PUSH 40\t\t\tconstructor(address _token) ER...\n  MLOAD \t\t\tconstructor(address _token) ER...\n  PUSHSIZE \t\t\tconstructor(address _token) ER...\n  CODESIZE \t\t\tconstructor(address _token) ER...\n  SUB \t\t\tconstructor(address _token) ER...\n  DUP1 \t\t\tconstructor(address _token) ER...\n  PUSHSIZE \t\t\tconstructor(address _token) ER...\n  DUP4 \t\t\tconstructor(address _token) ER...\n  CODECOPY \t\t\tconstructor(address _token) ER...\n  DUP2 \t\t\tconstructor(address _token) ER...\n  DUP2 \t\t\tconstructor(address _token) ER...\n  ADD \t\t\tconstructor(address _token) ER...\n  PUSH 40\t\t\tconstructor(address _token) ER...\n  MSTORE \t\t\tconstructor(address _token) ER...\n  DUP2 \t\t\tconstructor(address _token) ER...\n  ADD \t\t\tconstructor(address _token) ER...\n  SWAP1 \t\t\tconstructor(address _token) ER...\n  PUSH [tag] 2\t\t\tconstructor(address _token) ER...\n  SWAP2 \t\t\tconstructor(address _token) ER...\n  SWAP1 \t\t\tconstructor(address _token) ER...\n  PUSH [tag] 3\t\t\tconstructor(address _token) ER...\n  JUMP \t\t\tconstructor(address _token) ER...\ntag 2\t\t\tconstructor(address _token) ER...\n  JUMPDEST \t\t\tconstructor(address _token) ER...\n  PUSH 40\t\t\teeCollection(treecollections[c...\n  MLOAD \t\t\teeCollection(treecollections[c...\n  DUP1 \t\t\teeCollection(treecollections[c...\n  PUSH 40\t\t\teeCollection(treecollections[c...\n  ADD \t\t\teeCollection(treecollections[c...\n  PUSH 40\t\t\teeCollection(treecollections[c...\n  MSTORE \t\t\teeCollection(treecollections[c...\n  DUP1 \t\t\teeCollection(treecollections[c...\n  PUSH 7\t\t\teeCollection(treecollections[c...\n  DUP2 \t\t\teeCollection(treecollections[c...\n  MSTORE \t\t\teeCollection(treecollections[c...\n  PUSH 20\t\t\teeCollection(treecollections[c...\n  ADD \t\t\teeCollection(treecollections[c...\n  PUSH 47656E6573697300000000000000000000000000000000000000000000000000\t\t\teeCollection(treecollections[c...\n  DUP2 \t\t\teeCollection(treecollections[c...\n  MSTORE \t\t\teeCollection(treecollections[c...\n  POP \t\t\teeCollection(treecollections[c...\n  PUSH 40\t\t\teeCollection(treecollections[c...\n  MLOAD \t\t\teeCollection(treecollections[c...\n  DUP1 \t\t\teeCollection(treecollections[c...\n  PUSH 40\t\t\teeCollection(treecollections[c...\n  ADD \t\t\teeCollection(treecollections[c...\n  PUSH 40\t\t\teeCollection(treecollections[c...\n  MSTORE \t\t\teeCollection(treecollections[c...\n  DUP1 \t\t\teeCollection(treecollections[c...\n  PUSH 3\t\t\teeCollection(treecollections[c...\n  DUP2 \t\t\teeCollection(treecollections[c...\n  MSTORE \t\t\teeCollection(treecollections[c...\n  PUSH 20\t\t\teeCollection(treecollections[c...\n  ADD \t\t\teeCollection(treecollections[c...\n  PUSH 474E450000000000000000000000000000000000000000000000000000000000\t\t\teeCollection(treecollections[c...\n  DUP2 \t\t\teeCollection(treecollections[c...\n  MSTORE \t\t\teeCollection(treecollections[c...\n  POP \t\t\teeCollection(treecollections[c...\n  DUP2 \t\t\tint(m\n  PUSH 3\t\t\ton.sa\n  SWAP1 \t\t\ton.safeMint(m\n  DUP2 \t\t\ton.safeMint(m\n  PUSH [tag] 7\t\t\ton.safeMint(m\n  SWAP2 \t\t\ton.safeMint(m\n  SWAP1 \t\t\ton.safeMint(m\n  PUSH [tag] 8\t\t\ton.safeMint(m\n  JUMP \t\t\ton.safeMint(m\ntag 7\t\t\ton.safeMint(m\n  JUMPDEST \t\t\ton.safeMint(m\n  POP \t\t\ton.safeMint(m\n  DUP1 \t\t\t       \n  PUSH 4\t\t\t _uri);\n  SWAP1 \t\t\t _uri); \\r\\n       \n  DUP2 \t\t\t _uri); \\r\\n       \n  PUSH [tag] 9\t\t\t _uri); \\r\\n       \n  SWAP2 \t\t\t _uri); \\r\\n       \n  SWAP1 \t\t\t _uri); \\r\\n       \n  PUSH [tag] 8\t\t\t _uri); \\r\\n       \n  JUMP \t\t\t _uri); \\r\\n       \ntag 9\t\t\t _uri); \\r\\n       \n  JUMPDEST \t\t\t _uri); \\r\\n       \n  POP \t\t\t _uri); \\r\\n       \n  POP \t\t\teeCollection(treecollections[c...\n  POP \t\t\teeCollection(treecollections[c...\n  CALLER \t\t\tmsg.sender\n  PUSH 6\t\t\tadmin\n  PUSH 0\t\t\tadmin\n  PUSH 100\t\t\tadmin = msg.sender\n  EXP \t\t\tadmin = msg.sender\n  DUP2 \t\t\tadmin = msg.sender\n  SLOAD \t\t\tadmin = msg.sender\n  DUP2 \t\t\tadmin = msg.sender\n  PUSH FFFFFFFFFFFFFFFFFFFFFFFFFFFFFFFFFFFFFFFF\t\t\tadmin = msg.sender\n  MUL \t\t\tadmin = msg.sender\n  NOT \t\t\tadmin = msg.sender\n  AND \t\t\tadmin = msg.sender\n  SWAP1 \t\t\tadmin = msg.sender\n  DUP4 \t\t\tadmin = msg.sender\n  PUSH FFFFFFFFFFFFFFFFFFFFFFFFFFFFFFFFFFFFFFFF\t\t\tadmin = msg.sender\n  AND \t\t\tadmin = msg.sender\n  MUL \t\t\tadmin = msg.sender\n  OR \t\t\tadmin = msg.sender\n  SWAP1 \t\t\tadmin = msg.sender\n  SSTORE \t\t\tadmin = msg.sender\n  POP \t\t\tadmin = msg.sender\n  DUP1 \t\t\t_token\n  PUSH FFFFFFFFFFFFFFFFFFFFFFFFFFFFFFFFFFFFFFFF\t\t\tSTNEAR = ERC20(_token)\n  AND \t\t\tSTNEAR = ERC20(_token)\n  PUSH C0\t\t\tSTNEAR = ERC20(_token)\n  DUP2 \t\t\tSTNEAR = ERC20(_token)\n  PUSH FFFFFFFFFFFFFFFFFFFFFFFFFFFFFFFFFFFFFFFF\t\t\tSTNEAR = ERC20(_token)\n  AND \t\t\tSTNEAR = ERC20(_token)\n  DUP2 \t\t\tSTNEAR = ERC20(_token)\n  MSTORE \t\t\tSTNEAR = ERC20(_token)\n  POP \t\t\tSTNEAR = ERC20(_token)\n  POP \t\t\tSTNEAR = ERC20(_token)\n  POP \t\t\tconstructor(address _token) ER...\n  PUSH [tag] 11\t\t\tcontract Genesis is ERC20 {\\r\\...\n  JUMP \t\t\tcontract Genesis is ERC20 {\\r\\...\ntag 13\t\t\tcts/token/ERC20/ERC20.sol\";\\r\\...\n  JUMPDEST \t\t\tcts/token/ERC20/ERC20.sol\";\\r\\...\n  PUSH 0\t\t\te\n  DUP1 \t\t\tu\n  REVERT \t\t\tsing Counter\ntag 15\t\t\ttable gne = 1e18;\\r\\n    ERC20...\n  JUMPDEST \t\t\ttable gne = 1e18;\\r\\n    ERC20...\n  PUSH 0\t\t\te STNEA\n  PUSH FFFFFFFFFFFFFFFFFFFFFFFFFFFFFFFFFFFFFFFF\t\t\t\\n\\r\\n    constructor(address ...\n  DUP3 \t\t\tadmin\n  AND \t\t\tate admin;\\r\\n\\r\\n    construc...\n  SWAP1 \t\t\tddress private admin;\\r\\n\\r\\n ...\n  POP \t\t\tddress private admin;\\r\\n\\r\\n ...\n  SWAP2 \t\t\ttable gne = 1e18;\\r\\n    ERC20...\n  SWAP1 \t\t\ttable gne = 1e18;\\r\\n    ERC20...\n  POP \t\t\ttable gne = 1e18;\\r\\n    ERC20...\n  JUMP \t\t\ttable gne = 1e18;\\r\\n    ERC20...\ntag 16\t\t\tE\"){\\r\\n        admin = msg.se...\n  JUMPDEST \t\t\tE\"){\\r\\n        admin = msg.se...\n  PUSH 0\t\t\t      S\n  PUSH [tag] 45\t\t\t\\r\\n    }\\r\\n\\r\\n    function \n  DUP3 \t\t\tction\n  PUSH [tag] 15\t\t\t\\r\\n    }\\r\\n\\r\\n    function \n  JUMP \t\t\t\\r\\n    }\\r\\n\\r\\n    function \ntag 45\t\t\t\\r\\n    }\\r\\n\\r\\n    function \n  JUMPDEST \t\t\t\\r\\n    }\\r\\n\\r\\n    function \n  SWAP1 \t\t\t20(_token);\\r\\n    }\\r\\n\\r\\n  ...\n  POP \t\t\t20(_token);\\r\\n    }\\r\\n\\r\\n  ...\n  SWAP2 \t\t\tE\"){\\r\\n        admin = msg.se...\n  SWAP1 \t\t\tE\"){\\r\\n        admin = msg.se...\n  POP \t\t\tE\"){\\r\\n        admin = msg.se...\n  JUMP \t\t\tE\"){\\r\\n        admin = msg.se...\ntag 17\t\t\t to, uint256 amount) internal{...\n  JUMPDEST \t\t\t to, uint256 amount) internal{...\n  PUSH [tag] 47\t\t\tstruct TreeDetails{\\r\\n   \n  DUP2 \t\t\t{\\r\\n  \n  PUSH [tag] 16\t\t\tstruct TreeDetails{\\r\\n   \n  JUMP \t\t\tstruct TreeDetails{\\r\\n   \ntag 47\t\t\tstruct TreeDetails{\\r\\n   \n  JUMPDEST \t\t\tstruct TreeDetails{\\r\\n   \n  DUP2 \t\t\t\\n\\r\\n  \n  EQ \t\t\t }\\r\\n\\r\\n    struct TreeDetai...\n  PUSH [tag] 48\t\t\tunt);\\r\\n    }\\r\\n\\r\\n    stru...\n  JUMPI \t\t\tunt);\\r\\n    }\\r\\n\\r\\n    stru...\n  PUSH 0\t\t\ts\n  DUP1 \t\t\t \n  REVERT \t\t\tuint256 last\ntag 48\t\t\tunt);\\r\\n    }\\r\\n\\r\\n    stru...\n  JUMPDEST \t\t\tunt);\\r\\n    }\\r\\n\\r\\n    stru...\n  POP \t\t\t to, uint256 amount) internal{...\n  JUMP \t\t\t to, uint256 amount) internal{...\ntag 18\t\t\t    uint256 lastClaimed;\\r\\n  ...\n  JUMPDEST \t\t\t    uint256 lastClaimed;\\r\\n  ...\n  PUSH 0\t\t\t     \n  DUP2 \t\t\t\\n     \n  MLOAD \t\t\tlded;\\r\\n      \n  SWAP1 \t\t\ttokensYielded;\\r\\n      \n  POP \t\t\ttokensYielded;\\r\\n      \n  PUSH [tag] 50\t\t\tInitialized;\\r\\n    }\\r\\n\\r\\n ...\n  DUP2 \t\t\tstruc\n  PUSH [tag] 17\t\t\tInitialized;\\r\\n    }\\r\\n\\r\\n ...\n  JUMP \t\t\tInitialized;\\r\\n    }\\r\\n\\r\\n ...\ntag 50\t\t\tInitialized;\\r\\n    }\\r\\n\\r\\n ...\n  JUMPDEST \t\t\tInitialized;\\r\\n    }\\r\\n\\r\\n ...\n  SWAP3 \t\t\t    uint256 lastClaimed;\\r\\n  ...\n  SWAP2 \t\t\t    uint256 lastClaimed;\\r\\n  ...\n  POP \t\t\t    uint256 lastClaimed;\\r\\n  ...\n  POP \t\t\t    uint256 lastClaimed;\\r\\n  ...\n  JUMP \t\t\t    uint256 lastClaimed;\\r\\n  ...\ntag 3\t\t\tping {\\r\\n        mapping(uint...\n  JUMPDEST \t\t\tping {\\r\\n        mapping(uint...\n  PUSH 0\t\t\tg to s\n  PUSH 20\t\t\t\\r\\n\n  DUP3 \t\t\tnID\\r\\n    \n  DUP5 \t\t\t its to\n  SUB \t\t\twith its tokenID\\r\\n    }\n  SLT \t\t\tils with its tokenID\\r\\n    }\\...\n  ISZERO \t\t\tetails with its tokenID\\r\\n   ...\n  PUSH [tag] 52\t\t\tetails with its tokenID\\r\\n   ...\n  JUMPI \t\t\tetails with its tokenID\\r\\n   ...\n  PUSH [tag] 53\t\t\tmapping(uint256 => TreeCollect...\n  PUSH [tag] 13\t\t\tmapping(uint256 => TreeCollect...\n  JUMP \t\t\tmapping(uint256 => TreeCollect...\ntag 53\t\t\tmapping(uint256 => TreeCollect...\n  JUMPDEST \t\t\tmapping(uint256 => TreeCollect...\ntag 52\t\t\tetails with its tokenID\\r\\n   ...\n  JUMPDEST \t\t\tetails with its tokenID\\r\\n   ...\n  PUSH 0\t\t\ti\n  PUSH [tag] 54\t\t\t) userTree; // mapping of a Tr...\n  DUP5 \t\t\t  mappi\n  DUP3 \t\t\tction\\r\n  DUP6 \t\t\th its col\n  ADD \t\t\t with its collection\\r\\n\n  PUSH [tag] 18\t\t\t) userTree; // mapping of a Tr...\n  JUMP \t\t\t) userTree; // mapping of a Tr...\ntag 54\t\t\t) userTree; // mapping of a Tr...\n  JUMPDEST \t\t\t) userTree; // mapping of a Tr...\n  SWAP2 \t\t\treeMapping) userTree; // mappi...\n  POP \t\t\treeMapping) userTree; // mappi...\n  POP \t\t\twith their IDs\\r\\n    mapping(...\n  SWAP3 \t\t\tping {\\r\\n        mapping(uint...\n  SWAP2 \t\t\tping {\\r\\n        mapping(uint...\n  POP \t\t\tping {\\r\\n        mapping(uint...\n  POP \t\t\tping {\\r\\n        mapping(uint...\n  JUMP \t\t\tping {\\r\\n        mapping(uint...\ntag 19\t\t\tectionInitialized; // mapping ...\n  JUMPDEST \t\t\tectionInitialized; // mapping ...\n  PUSH 0\t\t\t with \n  DUP2 \t\t\tTreeC\n  MLOAD \t\t\tintNewTreeCo\n  SWAP1 \t\t\tfunction mintNewTreeCo\n  POP \t\t\tfunction mintNewTreeCo\n  SWAP2 \t\t\tectionInitialized; // mapping ...\n  SWAP1 \t\t\tectionInitialized; // mapping ...\n  POP \t\t\tectionInitialized; // mapping ...\n  JUMP \t\t\tectionInitialized; // mapping ...\ntag 20\t\t\tblic {\\r\\n        require(msg....\n  JUMPDEST \t\t\tblic {\\r\\n        require(msg....\n  PUSH 4E487B7100000000000000000000000000000000000000000000000000000000\t\t\tpe!\");\\r\\n\\r\\n        TreeColl...\n  PUSH 0\t\t\t\"\n  MSTORE \t\t\tadmin, \"Nope!\");\\r\\n\\r\\n      ...\n  PUSH 41\t\t\tonCo\n  PUSH 4\t\t\tc\n  MSTORE \t\t\teeCollectionCou\n  PUSH 24\t\t\t    \n  PUSH 0\t\t\t\\n\n  REVERT \t\t\tent();\\r\\n       \ntag 21\t\t\tion newCollection = new TreeCo...\n  JUMPDEST \t\t\tion newCollection = new TreeCo...\n  PUSH 4E487B7100000000000000000000000000000000000000000000000000000000\t\t\t   treecollections[collectionI...\n  PUSH 0\t\t\t \n  MSTORE \t\t\t();\\r\\n        treecollections...\n  PUSH 22\t\t\ttrue\n  PUSH 4\t\t\t \n  MSTORE \t\t\ttionID] = true;\n  PUSH 24\t\t\ttion\n  PUSH 0\t\t\tu\n  REVERT \t\t\t\\r\\n    function \ntag 22\t\t\tt256 collectionID, string memo...\n  JUMPDEST \t\t\tt256 collectionID, string memo...\n  PUSH 0\t\t\tc {\\r\\n\\r\n  PUSH 2\t\t\ti\n  DUP3 \t\t\tonIn\n  DIV \t\t\tectionInitia\n  SWAP1 \t\t\tquire(collectionInitia\n  POP \t\t\tquire(collectionInitia\n  PUSH 1\t\t\to\n  DUP3 \t\t\tn is\n  AND \t\t\tction is not\n  DUP1 \t\t\t        require(ST\n  PUSH [tag] 59\t\t\ted!\");\\r\\n\\r\\n        require(...\n  JUMPI \t\t\ted!\");\\r\\n\\r\\n        require(...\n  PUSH 7F\t\t\tthis\n  DUP3 \t\t\taddres\n  AND \t\t\ter, address(this)\n  SWAP2 \t\t\tm(msg.sender, address(this)\n  POP \t\t\tm(msg.sender, address(this)\ntag 59\t\t\ted!\");\\r\\n\\r\\n        require(...\n  JUMPDEST \t\t\ted!\");\\r\\n\\r\\n        require(...\n  PUSH 20\t\t\tTr\n  DUP3 \t\t\t      \n  LT \t\t\t\\n\\r\\n        Tre\n  DUP2 \t\t\tsferFrom failed\");\n  SUB \t\t\transferFrom failed\"); \\r\\n\\r\\n...\n  PUSH [tag] 60\t\t\t: transferFrom failed\"); \\r\\n\\...\n  JUMPI \t\t\t: transferFrom failed\"); \\r\\n\\...\n  PUSH [tag] 61\t\t\tcollection = TreeC\n  PUSH [tag] 21\t\t\tcollection = TreeC\n  JUMP \t\t\tcollection = TreeC\ntag 61\t\t\tcollection = TreeC\n  JUMPDEST \t\t\tcollection = TreeC\ntag 60\t\t\t: transferFrom failed\"); \\r\\n\\...\n  JUMPDEST \t\t\t: transferFrom failed\"); \\r\\n\\...\n  POP \t\t\t        require(collectionInit...\n  SWAP2 \t\t\tt256 collectionID, string memo...\n  SWAP1 \t\t\tt256 collectionID, string memo...\n  POP \t\t\tt256 collectionID, string memo...\n  JUMP \t\t\tt256 collectionID, string memo...\ntag 23\t\t\tons[collectionID]);\\r\\n       ...\n  JUMPDEST \t\t\tons[collectionID]);\\r\\n       ...\n  PUSH 0\t\t\tint(\n  DUP2 \t\t\t\\r\\n \n  SWAP1 \t\t\t _uri); \\r\\n \n  POP \t\t\t _uri); \\r\\n \n  DUP2 \t\t\tID \n  PUSH 0\t\t\tk\n  MSTORE \t\t\tt256 tokenID =\n  PUSH 20\t\t\t();\\r\n  PUSH 0\t\t\tt\n  KECCAK256 \t\t\tokenIdCounter();\\r\\n\n  SWAP1 \t\t\tection.tokenIdCounter();\\r\\n\n  POP \t\t\tection.tokenIdCounter();\\r\\n\n  SWAP2 \t\t\tons[collectionID]);\\r\\n       ...\n  SWAP1 \t\t\tons[collectionID]);\\r\\n       ...\n  POP \t\t\tons[collectionID]);\\r\\n       ...\n  JUMP \t\t\tons[collectionID]);\\r\\n       ...\ntag 24\t\t\tree[collectionID].treeDetails[...\n  JUMPDEST \t\t\tree[collectionID].treeDetails[...\n  PUSH 0\t\t\t] = Tr\n  PUSH 20\t\t\t  \n  PUSH 1F\t\t\t\\n\\r\n  DUP4 \t\t\t\\n    \n  ADD \t\t\te);\\r\\n    }\\r\\n\\r\\n\n  DIV \t\t\t true);\\r\\n    }\\r\\n\\r\\n    f\n  SWAP1 \t\t\t, 0, 0, 0, true);\\r\\n    }\\r\\n...\n  POP \t\t\t, 0, 0, 0, true);\\r\\n    }\\r\\n...\n  SWAP2 \t\t\tree[collectionID].treeDetails[...\n  SWAP1 \t\t\tree[collectionID].treeDetails[...\n  POP \t\t\tree[collectionID].treeDetails[...\n  JUMP \t\t\tree[collectionID].treeDetails[...\ntag 25\t\t\tr(uint256 _collectionID, uint2...\n  JUMPDEST \t\t\tr(uint256 _collectionID, uint2...\n  PUSH 0\t\t\tublic re\n  DUP3 \t\t\tnInit\n  DUP3 \t\t\tlect\n  SHL \t\t\t(collectionIniti\n  SWAP1 \t\t\t {\\r\\n\\r\\n        require(coll...\n  POP \t\t\t {\\r\\n\\r\\n        require(coll...\n  SWAP3 \t\t\tr(uint256 _collectionID, uint2...\n  SWAP2 \t\t\tr(uint256 _collectionID, uint2...\n  POP \t\t\tr(uint256 _collectionID, uint2...\n  POP \t\t\tr(uint256 _collectionID, uint2...\n  JUMP \t\t\tr(uint256 _collectionID, uint2...\ntag 26\t\t\tctionID] == true, \"Collection ...\n  JUMPDEST \t\t\tctionID] == true, \"Collection ...\n  PUSH 0\t\t\te(user\n  PUSH 8\t\t\tI\n  DUP4 \t\t\t_tokenID].\n  MUL \t\t\tils[_tokenID].isIn\n  PUSH [tag] 66\t\t\t not exist\");\\r\\n\\r\\n        T...\n  PUSH FFFFFFFFFFFFFFFFFFFFFFFFFFFFFFFFFFFFFFFFFFFFFFFFFFFFFFFFFFFFFFFF\t\t\tollection treecollection = Tre...\n  DUP3 \t\t\t      Tre\n  PUSH [tag] 25\t\t\t not exist\");\\r\\n\\r\\n        T...\n  JUMP \t\t\t not exist\");\\r\\n\\r\\n        T...\ntag 66\t\t\t not exist\");\\r\\n\\r\\n        T...\n  JUMPDEST \t\t\t not exist\");\\r\\n\\r\\n        T...\n  PUSH [tag] 67\t\t\tquire(treecollection.ownerOf(_...\n  DUP7 \t\t\ttokenID)\n  DUP4 \t\t\tn.ownerOf\n  PUSH [tag] 25\t\t\tquire(treecollection.ownerOf(_...\n  JUMP \t\t\tquire(treecollection.ownerOf(_...\ntag 67\t\t\tquire(treecollection.ownerOf(_...\n  JUMPDEST \t\t\tquire(treecollection.ownerOf(_...\n  SWAP6 \t\t\t\\r\\n        require(treecollec...\n  POP \t\t\t\\r\\n        require(treecollec...\n  DUP1 \t\t\twner\n  NOT \t\t\the owner\"\n  DUP5 \t\t\te not\n  AND \t\t\tu are not the owner\")\n  SWAP4 \t\t\tnder, \"You are not the owner\")\n  POP \t\t\tnder, \"You are not the owner\")\n  DUP1 \t\t\tg.se\n  DUP7 \t\t\tferFrom(\n  AND \t\t\transferFrom(msg.sen\n  DUP5 \t\t\tTNEAR\n  OR \t\t\te(STNEAR.transferFrom(msg.send\n  SWAP3 \t\t\t    require(STNEAR.transferFro...\n  POP \t\t\t    require(STNEAR.transferFro...\n  POP \t\t\tree[_collectionID].treeDetails...\n  POP \t\t\tree[_collectionID].treeDetails...\n  SWAP4 \t\t\tctionID] == true, \"Collection ...\n  SWAP3 \t\t\tctionID] == true, \"Collection ...\n  POP \t\t\tctionID] == true, \"Collection ...\n  POP \t\t\tctionID] == true, \"Collection ...\n  POP \t\t\tctionID] == true, \"Collection ...\n  JUMP \t\t\tctionID] == true, \"Collection ...\ntag 27\t\t\tthis), 1 * base), \"STNEAR: tra...\n  JUMPDEST \t\t\tthis), 1 * base), \"STNEAR: tra...\n  PUSH 0\t\t\tom fail\n  DUP2 \t\t\tTree[\n  SWAP1 \t\t\t       userTree[\n  POP \t\t\t       userTree[\n  SWAP2 \t\t\tthis), 1 * base), \"STNEAR: tra...\n  SWAP1 \t\t\tthis), 1 * base), \"STNEAR: tra...\n  POP \t\t\tthis), 1 * base), \"STNEAR: tra...\n  JUMP \t\t\tthis), 1 * base), \"STNEAR: tra...\ntag 28\t\t\tD].treeDetails[_tokenID].lastW...\n  JUMPDEST \t\t\tD].treeDetails[_tokenID].lastW...\n  PUSH 0\t\t\ttWa\n  DUP2 \t\t\tstamp\n  SWAP1 \t\t\tck.timestamp\n  POP \t\t\tck.timestamp\n  SWAP2 \t\t\tD].treeDetails[_tokenID].lastW...\n  SWAP1 \t\t\tD].treeDetails[_tokenID].lastW...\n  POP \t\t\tD].treeDetails[_tokenID].lastW...\n  JUMP \t\t\tD].treeDetails[_tokenID].lastW...\ntag 29\t\t\tserTree[_collectionID].treeDet...\n  JUMPDEST \t\t\tserTree[_collectionID].treeDet...\n  PUSH 0\t\t\tedTimes +\n  PUSH [tag] 71\t\t\true;\\r\\n    }\\r\\n\\r\\n    funct...\n  PUSH [tag] 72\t\t\t function claim(uint256 _colle...\n  PUSH [tag] 73\t\t\t claim(uint256 _collecti\n  DUP5 \t\t\tllect\n  PUSH [tag] 27\t\t\t claim(uint256 _collecti\n  JUMP \t\t\t claim(uint256 _collecti\ntag 73\t\t\t claim(uint256 _collecti\n  JUMPDEST \t\t\t claim(uint256 _collecti\n  PUSH [tag] 28\t\t\t function claim(uint256 _colle...\n  JUMP \t\t\t function claim(uint256 _colle...\ntag 72\t\t\t function claim(uint256 _colle...\n  JUMPDEST \t\t\t function claim(uint256 _colle...\n  PUSH [tag] 27\t\t\true;\\r\\n    }\\r\\n\\r\\n    funct...\n  JUMP \t\t\true;\\r\\n    }\\r\\n\\r\\n    funct...\ntag 71\t\t\true;\\r\\n    }\\r\\n\\r\\n    funct...\n  JUMPDEST \t\t\true;\\r\\n    }\\r\\n\\r\\n    funct...\n  SWAP1 \t\t\t     return true;\\r\\n    }\\r\\n...\n  POP \t\t\t     return true;\\r\\n    }\\r\\n...\n  SWAP2 \t\t\tserTree[_collectionID].treeDet...\n  SWAP1 \t\t\tserTree[_collectionID].treeDet...\n  POP \t\t\tserTree[_collectionID].treeDet...\n  JUMP \t\t\tserTree[_collectionID].treeDet...\ntag 30\t\t\t_tokenID) public returns(bool)...\n  JUMPDEST \t\t\t_tokenID) public returns(bool)...\n  PUSH 0\t\t\t re\n  DUP2 \t\t\titial\n  SWAP1 \t\t\tctionInitial\n  POP \t\t\tctionInitial\n  SWAP2 \t\t\t_tokenID) public returns(bool)...\n  SWAP1 \t\t\t_tokenID) public returns(bool)...\n  POP \t\t\t_tokenID) public returns(bool)...\n  JUMP \t\t\t_tokenID) public returns(bool)...\ntag 31\t\t\ttionID] == true, \"Collection i...\n  JUMPDEST \t\t\ttionID] == true, \"Collection i...\n  PUSH [tag] 76\t\t\tnID].isInitialized, \"Tree does...\n  DUP4 \t\t\tnot exi\n  PUSH [tag] 29\t\t\tnID].isInitialized, \"Tree does...\n  JUMP \t\t\tnID].isInitialized, \"Tree does...\ntag 76\t\t\tnID].isInitialized, \"Tree does...\n  JUMPDEST \t\t\tnID].isInitialized, \"Tree does...\n  PUSH [tag] 77\t\t\tllection treecollection = Tree...\n  PUSH [tag] 78\t\t\tections[_collectionID]);\\r\\n\\r...\n  DUP3 \t\t\t\\r\\n\\r\\n        requ\n  PUSH [tag] 30\t\t\tections[_collectionID]);\\r\\n\\r...\n  JUMP \t\t\tections[_collectionID]);\\r\\n\\r...\ntag 78\t\t\tections[_collectionID]);\\r\\n\\r...\n  JUMPDEST \t\t\tections[_collectionID]);\\r\\n\\r...\n  DUP5 \t\t\ttreeco\n  DUP5 \t\t\tecti\n  SLOAD \t\t\teeCollectio\n  PUSH [tag] 26\t\t\tllection treecollection = Tree...\n  JUMP \t\t\tllection treecollection = Tree...\ntag 77\t\t\tllection treecollection = Tree...\n  JUMPDEST \t\t\tllection treecollection = Tree...\n  DUP3 \t\t\tTree\n  SSTORE \t\t\t       TreeCollection treecoll...\n  POP \t\t\te[_collectionID].treeDetails[_...\n  POP \t\t\ttionID] == true, \"Collection i...\n  POP \t\t\ttionID] == true, \"Collection i...\n  POP \t\t\ttionID] == true, \"Collection i...\n  JUMP \t\t\ttionID] == true, \"Collection i...\ntag 32\t\t\tion.ownerOf(_tokenID) == msg.s...\n  JUMPDEST \t\t\tion.ownerOf(_tokenID) == msg.s...\n  PUSH 0\t\t\t no\n  SWAP1 \t\t\tion.ownerOf(_tokenID) == msg.s...\n  JUMP \t\t\tion.ownerOf(_tokenID) == msg.s...\ntag 33\t\t\tre(\\r\\n            block.times...\n  JUMPDEST \t\t\tre(\\r\\n            block.times...\n  PUSH [tag] 81\t\t\tID].lastWatered <= 43200, \\r\\n...\n  PUSH [tag] 32\t\t\tID].lastWatered <= 43200, \\r\\n...\n  JUMP \t\t\tID].lastWatered <= 43200, \\r\\n...\ntag 81\t\t\tID].lastWatered <= 43200, \\r\\n...\n  JUMPDEST \t\t\tID].lastWatered <= 43200, \\r\\n...\n  PUSH [tag] 82\t\t\tWater First\"\\r\\n        );\\r\\n...\n  DUP2 \t\t\tock.ti\n  DUP5 \t\t\t      \n  DUP5 \t\t\t    \n  PUSH [tag] 31\t\t\tWater First\"\\r\\n        );\\r\\n...\n  JUMP \t\t\tWater First\"\\r\\n        );\\r\\n...\ntag 82\t\t\tWater First\"\\r\\n        );\\r\\n...\n  JUMPDEST \t\t\tWater First\"\\r\\n        );\\r\\n...\n  POP \t\t\tonID].treeDetails[_tokenID].la...\n  POP \t\t\tre(\\r\\n            block.times...\n  POP \t\t\tre(\\r\\n            block.times...\n  JUMP \t\t\tre(\\r\\n            block.times...\ntag 34\t\t\trTree[_collectionID].treeDetai...\n  JUMPDEST \t\t\trTree[_collectionID].treeDetai...\ntag 84\t\t\t00,\\r\\n            \"Can't Clai...\n  JUMPDEST \t\t\t00,\\r\\n            \"Can't Clai...\n  DUP2 \t\t\t\"Ca\n  DUP2 \t\t\t     \n  LT \t\t\t          \"Can\n  ISZERO \t\t\t00,\\r\\n            \"Can't Clai...\n  PUSH [tag] 86\t\t\t00,\\r\\n            \"Can't Clai...\n  JUMPI \t\t\t00,\\r\\n            \"Can't Clai...\n  PUSH [tag] 87\t\t\tionID].treeDetails[_tokenID].l...\n  PUSH 0\t\t\tm\n  DUP3 \t\t\tastCl\n  PUSH [tag] 33\t\t\tionID].treeDetails[_tokenID].l...\n  JUMP \t\t\tionID].treeDetails[_tokenID].l...\ntag 87\t\t\tionID].treeDetails[_tokenID].l...\n  JUMPDEST \t\t\tionID].treeDetails[_tokenID].l...\n  PUSH 1\t\t\t\\r\n  DUP2 \t\t\t   );\n  ADD \t\t\t       );\\r\\n\\r\\n\n  SWAP1 \t\t\tClaim\"\\r\\n        );\\r\\n\\r\\n\n  POP \t\t\tClaim\"\\r\\n        );\\r\\n\\r\\n\n  PUSH [tag] 84\t\t\t00,\\r\\n            \"Can't Clai...\n  JUMP \t\t\t00,\\r\\n            \"Can't Clai...\ntag 86\t\t\t00,\\r\\n            \"Can't Clai...\n  JUMPDEST \t\t\t00,\\r\\n            \"Can't Clai...\n  POP \t\t\trTree[_collectionID].treeDetai...\n  POP \t\t\trTree[_collectionID].treeDetai...\n  JUMP \t\t\trTree[_collectionID].treeDetai...\ntag 35\t\t\t        userTree[_collectionID...\n  JUMPDEST \t\t\t        userTree[_collectionID...\n  PUSH 1F\t\t\t *\n  DUP3 \t\t\ter,\n  GT \t\t\tender, 5 * \n  ISZERO \t\t\tg.sender, 5 * gne);\\r\\n\\r\\n   ...\n  PUSH [tag] 89\t\t\tg.sender, 5 * gne);\\r\\n\\r\\n   ...\n  JUMPI \t\t\tg.sender, 5 * gne);\\r\\n\\r\\n   ...\n  PUSH [tag] 90\t\t\t    }\\r\\n\\r\\n    function getT...\n  DUP2 \t\t\tails(\n  PUSH [tag] 23\t\t\t    }\\r\\n\\r\\n    function getT...\n  JUMP \t\t\t    }\\r\\n\\r\\n    function getT...\ntag 90\t\t\t    }\\r\\n\\r\\n    function getT...\n  JUMPDEST \t\t\t    }\\r\\n\\r\\n    function getT...\n  PUSH [tag] 91\t\t\tiew returns(TreeDetails memor\n  DUP5 \t\t\ttails memo\n  PUSH [tag] 24\t\t\tiew returns(TreeDetails memor\n  JUMP \t\t\tiew returns(TreeDetails memor\ntag 91\t\t\tiew returns(TreeDetails memor\n  JUMPDEST \t\t\tiew returns(TreeDetails memor\n  DUP2 \t\t\t) public\n  ADD \t\t\tenId) public view returns(Tree...\n  PUSH 20\t\t\tnN\n  DUP6 \t\t\tnction ret\n  LT \t\t\t function returnNF\n  ISZERO \t\t\t    function returnNFTcount(ui...\n  PUSH [tag] 92\t\t\t    function returnNFTcount(ui...\n  JUMPI \t\t\t    function returnNFTcount(ui...\n  DUP2 \t\t\tlectionI\n  SWAP1 \t\t\tunt(uint256 collectionI\n  POP \t\t\tunt(uint256 collectionI\ntag 92\t\t\t    function returnNFTcount(ui...\n  JUMPDEST \t\t\t    function returnNFTcount(ui...\n  PUSH [tag] 93\t\t\treturns(uint256) {\\r\\n        ...\n  PUSH [tag] 94\t\t\tectionID].tokenIdCount\n  DUP6 \t\t\toun\n  PUSH [tag] 24\t\t\tectionID].tokenIdCount\n  JUMP \t\t\tectionID].tokenIdCount\ntag 94\t\t\tectionID].tokenIdCount\n  JUMPDEST \t\t\tectionID].tokenIdCount\n  DUP4 \t\t\ttions[co\n  ADD \t\t\tllections[collectionID].tokenI...\n  DUP3 \t\t\teturn (tree\n  PUSH [tag] 34\t\t\treturns(uint256) {\\r\\n        ...\n  JUMP \t\t\treturns(uint256) {\\r\\n        ...\ntag 93\t\t\treturns(uint256) {\\r\\n        ...\n  JUMPDEST \t\t\treturns(uint256) {\\r\\n        ...\n  POP \t\t\tne);\\r\\n\\r\\n        return tru...\n  POP \t\t\tne);\\r\\n\\r\\n        return tru...\ntag 89\t\t\tg.sender, 5 * gne);\\r\\n\\r\\n   ...\n  JUMPDEST \t\t\tg.sender, 5 * gne);\\r\\n\\r\\n   ...\n  POP \t\t\t        userTree[_collectionID...\n  POP \t\t\t        userTree[_collectionID...\n  POP \t\t\t        userTree[_collectionID...\n  JUMP \t\t\t        userTree[_collectionID...\ntag 36\t\t\t NFTs minted in a particular c...\n  JUMPDEST \t\t\t NFTs minted in a particular c...\n  PUSH 0\t\t\t\n  DUP3 \t\t\t\n  DUP3 \t\t\t\n  SHR \t\t\t\n  SWAP1 \t\t\t\n  POP \t\t\t\n  SWAP3 \t\t\t NFTs minted in a particular c...\n  SWAP2 \t\t\t NFTs minted in a particular c...\n  POP \t\t\t NFTs minted in a particular c...\n  POP \t\t\t NFTs minted in a particular c...\n  JUMP \t\t\t NFTs minted in a particular c...\ntag 37\t\t\t\n  JUMPDEST \t\t\t\n  PUSH 0\t\t\t\n  PUSH [tag] 97\t\t\t\n  PUSH 0\t\t\t\n  NOT \t\t\t\n  DUP5 \t\t\t\n  PUSH 8\t\t\t\n  MUL \t\t\t\n  PUSH [tag] 36\t\t\t\n  JUMP \t\t\t\ntag 97\t\t\t\n  JUMPDEST \t\t\t\n  NOT \t\t\t\n  DUP1 \t\t\t\n  DUP4 \t\t\t\n  AND \t\t\t\n  SWAP2 \t\t\t\n  POP \t\t\t\n  POP \t\t\t\n  SWAP3 \t\t\t\n  SWAP2 \t\t\t\n  POP \t\t\t\n  POP \t\t\t\n  JUMP \t\t\t\ntag 38\t\t\t\n  JUMPDEST \t\t\t\n  PUSH 0\t\t\t\n  PUSH [tag] 99\t\t\t\n  DUP4 \t\t\t\n  DUP4 \t\t\t\n  PUSH [tag] 37\t\t\t\n  JUMP \t\t\t\ntag 99\t\t\t\n  JUMPDEST \t\t\t\n  SWAP2 \t\t\t\n  POP \t\t\t\n  DUP3 \t\t\t\n  PUSH 2\t\t\t\n  MUL \t\t\t\n  DUP3 \t\t\t\n  OR \t\t\t\n  SWAP1 \t\t\t\n  POP \t\t\t\n  SWAP3 \t\t\t\n  SWAP2 \t\t\t\n  POP \t\t\t\n  POP \t\t\t\n  JUMP \t\t\t\ntag 8\t\t\t\n  JUMPDEST \t\t\t\n  PUSH [tag] 101\t\t\t\n  DUP3 \t\t\t\n  PUSH [tag] 19\t\t\t\n  JUMP \t\t\t\ntag 101\t\t\t\n  JUMPDEST \t\t\t\n  PUSH FFFFFFFFFFFFFFFF\t\t\t\n  DUP2 \t\t\t\n  GT \t\t\t\n  ISZERO \t\t\t\n  PUSH [tag] 102\t\t\t\n  JUMPI \t\t\t\n  PUSH [tag] 103\t\t\t\n  PUSH [tag] 20\t\t\t\n  JUMP \t\t\t\ntag 103\t\t\t\n  JUMPDEST \t\t\t\ntag 102\t\t\t\n  JUMPDEST \t\t\t\n  PUSH [tag] 104\t\t\t\n  DUP3 \t\t\t\n  SLOAD \t\t\t\n  PUSH [tag] 22\t\t\t\n  JUMP \t\t\t\ntag 104\t\t\t\n  JUMPDEST \t\t\t\n  PUSH [tag] 105\t\t\t\n  DUP3 \t\t\t\n  DUP3 \t\t\t\n  DUP6 \t\t\t\n  PUSH [tag] 35\t\t\t\n  JUMP \t\t\t\ntag 105\t\t\t\n  JUMPDEST \t\t\t\n  PUSH 0\t\t\t\n  PUSH 20\t\t\t\n  SWAP1 \t\t\t\n  POP \t\t\t\n  PUSH 1F\t\t\t\n  DUP4 \t\t\t\n  GT \t\t\t\n  PUSH 1\t\t\t\n  DUP2 \t\t\t\n  EQ \t\t\t\n  PUSH [tag] 107\t\t\t\n  JUMPI \t\t\t\n  PUSH 0\t\t\t\n  DUP5 \t\t\t\n  ISZERO \t\t\t\n  PUSH [tag] 108\t\t\t\n  JUMPI \t\t\t\n  DUP3 \t\t\t\n  DUP8 \t\t\t\n  ADD \t\t\t\n  MLOAD \t\t\t\n  SWAP1 \t\t\t\n  POP \t\t\t\ntag 108\t\t\t\n  JUMPDEST \t\t\t\n  PUSH [tag] 109\t\t\t\n  DUP6 \t\t\t\n  DUP3 \t\t\t\n  PUSH [tag] 38\t\t\t\n  JUMP \t\t\t\ntag 109\t\t\t\n  JUMPDEST \t\t\t\n  DUP7 \t\t\t\n  SSTORE \t\t\t\n  POP \t\t\t\n  PUSH [tag] 106\t\t\t\n  JUMP \t\t\t\ntag 107\t\t\t\n  JUMPDEST \t\t\t\n  PUSH 1F\t\t\t\n  NOT \t\t\t\n  DUP5 \t\t\t\n  AND \t\t\t\n  PUSH [tag] 110\t\t\t\n  DUP7 \t\t\t\n  PUSH [tag] 23\t\t\t\n  JUMP \t\t\t\ntag 110\t\t\t\n  JUMPDEST \t\t\t\n  PUSH 0\t\t\t\ntag 111\t\t\t\n  JUMPDEST \t\t\t\n  DUP3 \t\t\t\n  DUP2 \t\t\t\n  LT \t\t\t\n  ISZERO \t\t\t\n  PUSH [tag] 113\t\t\t\n  JUMPI \t\t\t\n  DUP5 \t\t\t\n  DUP10 \t\t\t\n  ADD \t\t\t\n  MLOAD \t\t\t\n  DUP3 \t\t\t\n  SSTORE \t\t\t\n  PUSH 1\t\t\t\n  DUP3 \t\t\t\n  ADD \t\t\t\n  SWAP2 \t\t\t\n  POP \t\t\t\n  PUSH 20\t\t\t\n  DUP6 \t\t\t\n  ADD \t\t\t\n  SWAP5 \t\t\t\n  POP \t\t\t\n  PUSH 20\t\t\t\n  DUP2 \t\t\t\n  ADD \t\t\t\n  SWAP1 \t\t\t\n  POP \t\t\t\n  PUSH [tag] 111\t\t\t\n  JUMP \t\t\t\ntag 113\t\t\t\n  JUMPDEST \t\t\t\n  DUP7 \t\t\t\n  DUP4 \t\t\t\n  LT \t\t\t\n  ISZERO \t\t\t\n  PUSH [tag] 114\t\t\t\n  JUMPI \t\t\t\n  DUP5 \t\t\t\n  DUP10 \t\t\t\n  ADD \t\t\t\n  MLOAD \t\t\t\n  PUSH [tag] 115\t\t\t\n  PUSH 1F\t\t\t\n  DUP10 \t\t\t\n  AND \t\t\t\n  DUP3 \t\t\t\n  PUSH [tag] 37\t\t\t\n  JUMP \t\t\t\ntag 115\t\t\t\n  JUMPDEST \t\t\t\n  DUP4 \t\t\t\n  SSTORE \t\t\t\n  POP \t\t\t\ntag 114\t\t\t\n  JUMPDEST \t\t\t\n  PUSH 1\t\t\t\n  PUSH 2\t\t\t\n  DUP9 \t\t\t\n  MUL \t\t\t\n  ADD \t\t\t\n  DUP9 \t\t\t\n  SSTORE \t\t\t\n  POP \t\t\t\n  POP \t\t\t\n  POP \t\t\t\ntag 106\t\t\t\n  JUMPDEST \t\t\t\n  POP \t\t\t\n  POP \t\t\t\n  POP \t\t\t\n  POP \t\t\t\n  POP \t\t\t\n  POP \t\t\t\n  JUMP \t\t\t\ntag 11\t\t\tcontract Genesis is ERC20 {\\r\\...\n  JUMPDEST \t\t\tcontract Genesis is ERC20 {\\r\\...\n  PUSH 80\t\t\tcontract Genesis is ERC20 {\\r\\...\n  MLOAD \t\t\tcontract Genesis is ERC20 {\\r\\...\n  PUSH A0\t\t\tcontract Genesis is ERC20 {\\r\\...\n  MLOAD \t\t\tcontract Genesis is ERC20 {\\r\\...\n  PUSH C0\t\t\tcontract Genesis is ERC20 {\\r\\...\n  MLOAD \t\t\tcontract Genesis is ERC20 {\\r\\...\n  PUSH #[$] 0000000000000000000000000000000000000000000000000000000000000000\t\t\tcontract Genesis is ERC20 {\\r\\...\n  PUSH [$] 0000000000000000000000000000000000000000000000000000000000000000\t\t\tcontract Genesis is ERC20 {\\r\\...\n  PUSH 0\t\t\tcontract Genesis is ERC20 {\\r\\...\n  CODECOPY \t\t\tcontract Genesis is ERC20 {\\r\\...\n  PUSH 0\t\t\tcontract Genesis is ERC20 {\\r\\...\n  ASSIGNIMMUTABLE 3645\t\t\tcontract Genesis is ERC20 {\\r\\...\n  PUSH 0\t\t\tcontract Genesis is ERC20 {\\r\\...\n  ASSIGNIMMUTABLE 3642\t\t\tcontract Genesis is ERC20 {\\r\\...\n  PUSH 0\t\t\tcontract Genesis is ERC20 {\\r\\...\n  ASSIGNIMMUTABLE 3639\t\t\tcontract Genesis is ERC20 {\\r\\...\n  PUSH #[$] 0000000000000000000000000000000000000000000000000000000000000000\t\t\tcontract Genesis is ERC20 {\\r\\...\n  PUSH 0\t\t\tcontract Genesis is ERC20 {\\r\\...\n  RETURN \t\t\tcontract Genesis is ERC20 {\\r\\...\n.data\n  0:\n    .code\n      PUSH 80\t\t\tcontract Genesis is ERC20 {\\r\\...\n      PUSH 40\t\t\tcontract Genesis is ERC20 {\\r\\...\n      MSTORE \t\t\tcontract Genesis is ERC20 {\\r\\...\n      CALLVALUE \t\t\tcontract Genesis is ERC20 {\\r\\...\n      DUP1 \t\t\tcontract Genesis is ERC20 {\\r\\...\n      ISZERO \t\t\tcontract Genesis is ERC20 {\\r\\...\n      PUSH [tag] 1\t\t\tcontract Genesis is ERC20 {\\r\\...\n      JUMPI \t\t\tcontract Genesis is ERC20 {\\r\\...\n      PUSH 0\t\t\tcontract Genesis is ERC20 {\\r\\...\n      DUP1 \t\t\tcontract Genesis is ERC20 {\\r\\...\n      REVERT \t\t\tcontract Genesis is ERC20 {\\r\\...\n    tag 1\t\t\tcontract Genesis is ERC20 {\\r\\...\n      JUMPDEST \t\t\tcontract Genesis is ERC20 {\\r\\...\n      POP \t\t\tcontract Genesis is ERC20 {\\r\\...\n      PUSH 4\t\t\tcontract Genesis is ERC20 {\\r\\...\n      CALLDATASIZE \t\t\tcontract Genesis is ERC20 {\\r\\...\n      LT \t\t\tcontract Genesis is ERC20 {\\r\\...\n      PUSH [tag] 2\t\t\tcontract Genesis is ERC20 {\\r\\...\n      JUMPI \t\t\tcontract Genesis is ERC20 {\\r\\...\n      PUSH 0\t\t\tcontract Genesis is ERC20 {\\r\\...\n      CALLDATALOAD \t\t\tcontract Genesis is ERC20 {\\r\\...\n      PUSH E0\t\t\tcontract Genesis is ERC20 {\\r\\...\n      SHR \t\t\tcontract Genesis is ERC20 {\\r\\...\n      DUP1 \t\t\tcontract Genesis is ERC20 {\\r\\...\n      PUSH 70A08231\t\t\tcontract Genesis is ERC20 {\\r\\...\n      GT \t\t\tcontract Genesis is ERC20 {\\r\\...\n      PUSH [tag] 22\t\t\tcontract Genesis is ERC20 {\\r\\...\n      JUMPI \t\t\tcontract Genesis is ERC20 {\\r\\...\n      DUP1 \t\t\tcontract Genesis is ERC20 {\\r\\...\n      PUSH A9059CBB\t\t\tcontract Genesis is ERC20 {\\r\\...\n      GT \t\t\tcontract Genesis is ERC20 {\\r\\...\n      PUSH [tag] 23\t\t\tcontract Genesis is ERC20 {\\r\\...\n      JUMPI \t\t\tcontract Genesis is ERC20 {\\r\\...\n      DUP1 \t\t\tcontract Genesis is ERC20 {\\r\\...\n      PUSH A9059CBB\t\t\tcontract Genesis is ERC20 {\\r\\...\n      EQ \t\t\tcontract Genesis is ERC20 {\\r\\...\n      PUSH [tag] 17\t\t\tcontract Genesis is ERC20 {\\r\\...\n      JUMPI \t\t\tcontract Genesis is ERC20 {\\r\\...\n      DUP1 \t\t\tcontract Genesis is ERC20 {\\r\\...\n      PUSH AEA3EE43\t\t\tcontract Genesis is ERC20 {\\r\\...\n      EQ \t\t\tcontract Genesis is ERC20 {\\r\\...\n      PUSH [tag] 18\t\t\tcontract Genesis is ERC20 {\\r\\...\n      JUMPI \t\t\tcontract Genesis is ERC20 {\\r\\...\n      DUP1 \t\t\tcontract Genesis is ERC20 {\\r\\...\n      PUSH C3490263\t\t\tcontract Genesis is ERC20 {\\r\\...\n      EQ \t\t\tcontract Genesis is ERC20 {\\r\\...\n      PUSH [tag] 19\t\t\tcontract Genesis is ERC20 {\\r\\...\n      JUMPI \t\t\tcontract Genesis is ERC20 {\\r\\...\n      DUP1 \t\t\tcontract Genesis is ERC20 {\\r\\...\n      PUSH DD62ED3E\t\t\tcontract Genesis is ERC20 {\\r\\...\n      EQ \t\t\tcontract Genesis is ERC20 {\\r\\...\n      PUSH [tag] 20\t\t\tcontract Genesis is ERC20 {\\r\\...\n      JUMPI \t\t\tcontract Genesis is ERC20 {\\r\\...\n      DUP1 \t\t\tcontract Genesis is ERC20 {\\r\\...\n      PUSH F2EE634D\t\t\tcontract Genesis is ERC20 {\\r\\...\n      EQ \t\t\tcontract Genesis is ERC20 {\\r\\...\n      PUSH [tag] 21\t\t\tcontract Genesis is ERC20 {\\r\\...\n      JUMPI \t\t\tcontract Genesis is ERC20 {\\r\\...\n      PUSH [tag] 2\t\t\tcontract Genesis is ERC20 {\\r\\...\n      JUMP \t\t\tcontract Genesis is ERC20 {\\r\\...\n    tag 23\t\t\tcontract Genesis is ERC20 {\\r\\...\n      JUMPDEST \t\t\tcontract Genesis is ERC20 {\\r\\...\n      DUP1 \t\t\tcontract Genesis is ERC20 {\\r\\...\n      PUSH 70A08231\t\t\tcontract Genesis is ERC20 {\\r\\...\n      EQ \t\t\tcontract Genesis is ERC20 {\\r\\...\n      PUSH [tag] 12\t\t\tcontract Genesis is ERC20 {\\r\\...\n      JUMPI \t\t\tcontract Genesis is ERC20 {\\r\\...\n      DUP1 \t\t\tcontract Genesis is ERC20 {\\r\\...\n      PUSH 9427E64A\t\t\tcontract Genesis is ERC20 {\\r\\...\n      EQ \t\t\tcontract Genesis is ERC20 {\\r\\...\n      PUSH [tag] 13\t\t\tcontract Genesis is ERC20 {\\r\\...\n      JUMPI \t\t\tcontract Genesis is ERC20 {\\r\\...\n      DUP1 \t\t\tcontract Genesis is ERC20 {\\r\\...\n      PUSH 95D89B41\t\t\tcontract Genesis is ERC20 {\\r\\...\n      EQ \t\t\tcontract Genesis is ERC20 {\\r\\...\n      PUSH [tag] 14\t\t\tcontract Genesis is ERC20 {\\r\\...\n      JUMPI \t\t\tcontract Genesis is ERC20 {\\r\\...\n      DUP1 \t\t\tcontract Genesis is ERC20 {\\r\\...\n      PUSH A457C2D7\t\t\tcontract Genesis is ERC20 {\\r\\...\n      EQ \t\t\tcontract Genesis is ERC20 {\\r\\...\n      PUSH [tag] 15\t\t\tcontract Genesis is ERC20 {\\r\\...\n      JUMPI \t\t\tcontract Genesis is ERC20 {\\r\\...\n      DUP1 \t\t\tcontract Genesis is ERC20 {\\r\\...\n      PUSH A85292DF\t\t\tcontract Genesis is ERC20 {\\r\\...\n      EQ \t\t\tcontract Genesis is ERC20 {\\r\\...\n      PUSH [tag] 16\t\t\tcontract Genesis is ERC20 {\\r\\...\n      JUMPI \t\t\tcontract Genesis is ERC20 {\\r\\...\n      PUSH [tag] 2\t\t\tcontract Genesis is ERC20 {\\r\\...\n      JUMP \t\t\tcontract Genesis is ERC20 {\\r\\...\n    tag 22\t\t\tcontract Genesis is ERC20 {\\r\\...\n      JUMPDEST \t\t\tcontract Genesis is ERC20 {\\r\\...\n      DUP1 \t\t\tcontract Genesis is ERC20 {\\r\\...\n      PUSH 23B872DD\t\t\tcontract Genesis is ERC20 {\\r\\...\n      GT \t\t\tcontract Genesis is ERC20 {\\r\\...\n      PUSH [tag] 24\t\t\tcontract Genesis is ERC20 {\\r\\...\n      JUMPI \t\t\tcontract Genesis is ERC20 {\\r\\...\n      DUP1 \t\t\tcontract Genesis is ERC20 {\\r\\...\n      PUSH 23B872DD\t\t\tcontract Genesis is ERC20 {\\r\\...\n      EQ \t\t\tcontract Genesis is ERC20 {\\r\\...\n      PUSH [tag] 7\t\t\tcontract Genesis is ERC20 {\\r\\...\n      JUMPI \t\t\tcontract Genesis is ERC20 {\\r\\...\n      DUP1 \t\t\tcontract Genesis is ERC20 {\\r\\...\n      PUSH 313CE567\t\t\tcontract Genesis is ERC20 {\\r\\...\n      EQ \t\t\tcontract Genesis is ERC20 {\\r\\...\n      PUSH [tag] 8\t\t\tcontract Genesis is ERC20 {\\r\\...\n      JUMPI \t\t\tcontract Genesis is ERC20 {\\r\\...\n      DUP1 \t\t\tcontract Genesis is ERC20 {\\r\\...\n      PUSH 39509351\t\t\tcontract Genesis is ERC20 {\\r\\...\n      EQ \t\t\tcontract Genesis is ERC20 {\\r\\...\n      PUSH [tag] 9\t\t\tcontract Genesis is ERC20 {\\r\\...\n      JUMPI \t\t\tcontract Genesis is ERC20 {\\r\\...\n      DUP1 \t\t\tcontract Genesis is ERC20 {\\r\\...\n      PUSH 43A46931\t\t\tcontract Genesis is ERC20 {\\r\\...\n      EQ \t\t\tcontract Genesis is ERC20 {\\r\\...\n      PUSH [tag] 10\t\t\tcontract Genesis is ERC20 {\\r\\...\n      JUMPI \t\t\tcontract Genesis is ERC20 {\\r\\...\n      DUP1 \t\t\tcontract Genesis is ERC20 {\\r\\...\n      PUSH 6407019C\t\t\tcontract Genesis is ERC20 {\\r\\...\n      EQ \t\t\tcontract Genesis is ERC20 {\\r\\...\n      PUSH [tag] 11\t\t\tcontract Genesis is ERC20 {\\r\\...\n      JUMPI \t\t\tcontract Genesis is ERC20 {\\r\\...\n      PUSH [tag] 2\t\t\tcontract Genesis is ERC20 {\\r\\...\n      JUMP \t\t\tcontract Genesis is ERC20 {\\r\\...\n    tag 24\t\t\tcontract Genesis is ERC20 {\\r\\...\n      JUMPDEST \t\t\tcontract Genesis is ERC20 {\\r\\...\n      DUP1 \t\t\tcontract Genesis is ERC20 {\\r\\...\n      PUSH 6FDDE03\t\t\tcontract Genesis is ERC20 {\\r\\...\n      EQ \t\t\tcontract Genesis is ERC20 {\\r\\...\n      PUSH [tag] 3\t\t\tcontract Genesis is ERC20 {\\r\\...\n      JUMPI \t\t\tcontract Genesis is ERC20 {\\r\\...\n      DUP1 \t\t\tcontract Genesis is ERC20 {\\r\\...\n      PUSH 95EA7B3\t\t\tcontract Genesis is ERC20 {\\r\\...\n      EQ \t\t\tcontract Genesis is ERC20 {\\r\\...\n      PUSH [tag] 4\t\t\tcontract Genesis is ERC20 {\\r\\...\n      JUMPI \t\t\tcontract Genesis is ERC20 {\\r\\...\n      DUP1 \t\t\tcontract Genesis is ERC20 {\\r\\...\n      PUSH 18160DDD\t\t\tcontract Genesis is ERC20 {\\r\\...\n      EQ \t\t\tcontract Genesis is ERC20 {\\r\\...\n      PUSH [tag] 5\t\t\tcontract Genesis is ERC20 {\\r\\...\n      JUMPI \t\t\tcontract Genesis is ERC20 {\\r\\...\n      DUP1 \t\t\tcontract Genesis is ERC20 {\\r\\...\n      PUSH 2331A50E\t\t\tcontract Genesis is ERC20 {\\r\\...\n      EQ \t\t\tcontract Genesis is ERC20 {\\r\\...\n      PUSH [tag] 6\t\t\tcontract Genesis is ERC20 {\\r\\...\n      JUMPI \t\t\tcontract Genesis is ERC20 {\\r\\...\n    tag 2\t\t\tcontract Genesis is ERC20 {\\r\\...\n      JUMPDEST \t\t\tcontract Genesis is ERC20 {\\r\\...\n      PUSH 0\t\t\tcontract Genesis is ERC20 {\\r\\...\n      DUP1 \t\t\tcontract Genesis is ERC20 {\\r\\...\n      REVERT \t\t\tcontract Genesis is ERC20 {\\r\\...\n    tag 3\t\t\tllectionID].treeDetails[tokenI...\n      JUMPDEST \t\t\tllectionID].treeDetails[tokenI...\n      PUSH [tag] 25\t\t\tllectionID].treeDetails[tokenI...\n      PUSH [tag] 26\t\t\tllectionID].treeDetails[tokenI...\n      JUMP \t\t\tllectionID].treeDetails[tokenI...\n    tag 25\t\t\tllectionID].treeDetails[tokenI...\n      JUMPDEST \t\t\tllectionID].treeDetails[tokenI...\n      PUSH 40\t\t\tllectionID].treeDetails[tokenI...\n      MLOAD \t\t\tllectionID].treeDetails[tokenI...\n      PUSH [tag] 27\t\t\tllectionID].treeDetails[tokenI...\n      SWAP2 \t\t\tllectionID].treeDetails[tokenI...\n      SWAP1 \t\t\tllectionID].treeDetails[tokenI...\n      PUSH [tag] 28\t\t\tllectionID].treeDetails[tokenI...\n      JUMP \t\t\tllectionID].treeDetails[tokenI...\n    tag 27\t\t\tllectionID].treeDetails[tokenI...\n      JUMPDEST \t\t\tllectionID].treeDetails[tokenI...\n      PUSH 40\t\t\tllectionID].treeDetails[tokenI...\n      MLOAD \t\t\tllectionID].treeDetails[tokenI...\n      DUP1 \t\t\tllectionID].treeDetails[tokenI...\n      SWAP2 \t\t\tllectionID].treeDetails[tokenI...\n      SUB \t\t\tllectionID].treeDetails[tokenI...\n      SWAP1 \t\t\tllectionID].treeDetails[tokenI...\n      RETURN \t\t\tllectionID].treeDetails[tokenI...\n    tag 4\t\t\tin a particular collection\\r\\n...\n      JUMPDEST \t\t\tin a particular collection\\r\\n...\n      PUSH [tag] 29\t\t\tin a particular collection\\r\\n...\n      PUSH 4\t\t\tin a particular collection\\r\\n...\n      DUP1 \t\t\tin a particular collection\\r\\n...\n      CALLDATASIZE \t\t\tin a particular collection\\r\\n...\n      SUB \t\t\tin a particular collection\\r\\n...\n      DUP2 \t\t\tin a particular collection\\r\\n...\n      ADD \t\t\tin a particular collection\\r\\n...\n      SWAP1 \t\t\tin a particular collection\\r\\n...\n      PUSH [tag] 30\t\t\tin a particular collection\\r\\n...\n      SWAP2 \t\t\tin a particular collection\\r\\n...\n      SWAP1 \t\t\tin a particular collection\\r\\n...\n      PUSH [tag] 31\t\t\tin a particular collection\\r\\n...\n      JUMP \t\t\tin a particular collection\\r\\n...\n    tag 30\t\t\tin a particular collection\\r\\n...\n      JUMPDEST \t\t\tin a particular collection\\r\\n...\n      PUSH [tag] 32\t\t\tin a particular collection\\r\\n...\n      JUMP \t\t\tin a particular collection\\r\\n...\n    tag 29\t\t\tin a particular collection\\r\\n...\n      JUMPDEST \t\t\tin a particular collection\\r\\n...\n      PUSH 40\t\t\tin a particular collection\\r\\n...\n      MLOAD \t\t\tin a particular collection\\r\\n...\n      PUSH [tag] 33\t\t\tin a particular collection\\r\\n...\n      SWAP2 \t\t\tin a particular collection\\r\\n...\n      SWAP1 \t\t\tin a particular collection\\r\\n...\n      PUSH [tag] 34\t\t\tin a particular collection\\r\\n...\n      JUMP \t\t\tin a particular collection\\r\\n...\n    tag 33\t\t\tin a particular collection\\r\\n...\n      JUMPDEST \t\t\tin a particular collection\\r\\n...\n      PUSH 40\t\t\tin a particular collection\\r\\n...\n      MLOAD \t\t\tin a particular collection\\r\\n...\n      DUP1 \t\t\tin a particular collection\\r\\n...\n      SWAP2 \t\t\tin a particular collection\\r\\n...\n      SUB \t\t\tin a particular collection\\r\\n...\n      SWAP1 \t\t\tin a particular collection\\r\\n...\n      RETURN \t\t\tin a particular collection\\r\\n...\n    tag 5\t\t\t.isInitialized, \"Tree does not...\n      JUMPDEST \t\t\t.isInitialized, \"Tree does not...\n      PUSH [tag] 35\t\t\t.isInitialized, \"Tree does not...\n      PUSH [tag] 36\t\t\t.isInitialized, \"Tree does not...\n      JUMP \t\t\t.isInitialized, \"Tree does not...\n    tag 35\t\t\t.isInitialized, \"Tree does not...\n      JUMPDEST \t\t\t.isInitialized, \"Tree does not...\n      PUSH 40\t\t\t.isInitialized, \"Tree does not...\n      MLOAD \t\t\t.isInitialized, \"Tree does not...\n      PUSH [tag] 37\t\t\t.isInitialized, \"Tree does not...\n      SWAP2 \t\t\t.isInitialized, \"Tree does not...\n      SWAP1 \t\t\t.isInitialized, \"Tree does not...\n      PUSH [tag] 38\t\t\t.isInitialized, \"Tree does not...\n      JUMP \t\t\t.isInitialized, \"Tree does not...\n    tag 37\t\t\t.isInitialized, \"Tree does not...\n      JUMPDEST \t\t\t.isInitialized, \"Tree does not...\n      PUSH 40\t\t\t.isInitialized, \"Tree does not...\n      MLOAD \t\t\t.isInitialized, \"Tree does not...\n      DUP1 \t\t\t.isInitialized, \"Tree does not...\n      SWAP2 \t\t\t.isInitialized, \"Tree does not...\n      SUB \t\t\t.isInitialized, \"Tree does not...\n      SWAP1 \t\t\t.isInitialized, \"Tree does not...\n      RETURN \t\t\t.isInitialized, \"Tree does not...\n    tag 6\t\t\tfunction getTreeDetails(uint25...\n      JUMPDEST \t\t\tfunction getTreeDetails(uint25...\n      PUSH [tag] 39\t\t\tfunction getTreeDetails(uint25...\n      PUSH 4\t\t\tfunction getTreeDetails(uint25...\n      DUP1 \t\t\tfunction getTreeDetails(uint25...\n      CALLDATASIZE \t\t\tfunction getTreeDetails(uint25...\n      SUB \t\t\tfunction getTreeDetails(uint25...\n      DUP2 \t\t\tfunction getTreeDetails(uint25...\n      ADD \t\t\tfunction getTreeDetails(uint25...\n      SWAP1 \t\t\tfunction getTreeDetails(uint25...\n      PUSH [tag] 40\t\t\tfunction getTreeDetails(uint25...\n      SWAP2 \t\t\tfunction getTreeDetails(uint25...\n      SWAP1 \t\t\tfunction getTreeDetails(uint25...\n      PUSH [tag] 41\t\t\tfunction getTreeDetails(uint25...\n      JUMP \t\t\tfunction getTreeDetails(uint25...\n    tag 40\t\t\tfunction getTreeDetails(uint25...\n      JUMPDEST \t\t\tfunction getTreeDetails(uint25...\n      PUSH [tag] 42\t\t\tfunction getTreeDetails(uint25...\n      JUMP \t\t\tfunction getTreeDetails(uint25...\n    tag 39\t\t\tfunction getTreeDetails(uint25...\n      JUMPDEST \t\t\tfunction getTreeDetails(uint25...\n      PUSH 40\t\t\tfunction getTreeDetails(uint25...\n      MLOAD \t\t\tfunction getTreeDetails(uint25...\n      PUSH [tag] 43\t\t\tfunction getTreeDetails(uint25...\n      SWAP2 \t\t\tfunction getTreeDetails(uint25...\n      SWAP1 \t\t\tfunction getTreeDetails(uint25...\n      PUSH [tag] 44\t\t\tfunction getTreeDetails(uint25...\n      JUMP \t\t\tfunction getTreeDetails(uint25...\n    tag 43\t\t\tfunction getTreeDetails(uint25...\n      JUMPDEST \t\t\tfunction getTreeDetails(uint25...\n      PUSH 40\t\t\tfunction getTreeDetails(uint25...\n      MLOAD \t\t\tfunction getTreeDetails(uint25...\n      DUP1 \t\t\tfunction getTreeDetails(uint25...\n      SWAP2 \t\t\tfunction getTreeDetails(uint25...\n      SUB \t\t\tfunction getTreeDetails(uint25...\n      SWAP1 \t\t\tfunction getTreeDetails(uint25...\n      RETURN \t\t\tfunction getTreeDetails(uint25...\n    tag 7\t\t\t\n      JUMPDEST \t\t\t\n      PUSH [tag] 45\t\t\t\n      PUSH 4\t\t\t\n      DUP1 \t\t\t\n      CALLDATASIZE \t\t\t\n      SUB \t\t\t\n      DUP2 \t\t\t\n      ADD \t\t\t\n      SWAP1 \t\t\t\n      PUSH [tag] 46\t\t\t\n      SWAP2 \t\t\t\n      SWAP1 \t\t\t\n      PUSH [tag] 47\t\t\t\n      JUMP \t\t\t\n    tag 46\t\t\t\n      JUMPDEST \t\t\t\n      PUSH [tag] 48\t\t\t\n      JUMP \t\t\t\n    tag 45\t\t\t\n      JUMPDEST \t\t\t\n      PUSH 40\t\t\t\n      MLOAD \t\t\t\n      PUSH [tag] 49\t\t\t\n      SWAP2 \t\t\t\n      SWAP1 \t\t\t\n      PUSH [tag] 34\t\t\t\n      JUMP \t\t\t\n    tag 49\t\t\t\n      JUMPDEST \t\t\t\n      PUSH 40\t\t\t\n      MLOAD \t\t\t\n      DUP1 \t\t\t\n      SWAP2 \t\t\t\n      SUB \t\t\t\n      SWAP1 \t\t\t\n      RETURN \t\t\t\n    tag 8\t\t\trequire(collectionInitialized[...\n      JUMPDEST \t\t\trequire(collectionInitialized[...\n      PUSH [tag] 50\t\t\trequire(collectionInitialized[...\n      PUSH [tag] 51\t\t\trequire(collectionInitialized[...\n      JUMP \t\t\trequire(collectionInitialized[...\n    tag 50\t\t\trequire(collectionInitialized[...\n      JUMPDEST \t\t\trequire(collectionInitialized[...\n      PUSH 40\t\t\trequire(collectionInitialized[...\n      MLOAD \t\t\trequire(collectionInitialized[...\n      PUSH [tag] 52\t\t\trequire(collectionInitialized[...\n      SWAP2 \t\t\trequire(collectionInitialized[...\n      SWAP1 \t\t\trequire(collectionInitialized[...\n      PUSH [tag] 53\t\t\trequire(collectionInitialized[...\n      JUMP \t\t\trequire(collectionInitialized[...\n    tag 52\t\t\trequire(collectionInitialized[...\n      JUMPDEST \t\t\trequire(collectionInitialized[...\n      PUSH 40\t\t\trequire(collectionInitialized[...\n      MLOAD \t\t\trequire(collectionInitialized[...\n      DUP1 \t\t\trequire(collectionInitialized[...\n      SWAP2 \t\t\trequire(collectionInitialized[...\n      SUB \t\t\trequire(collectionInitialized[...\n      SWAP1 \t\t\trequire(collectionInitialized[...\n      RETURN \t\t\trequire(collectionInitialized[...\n    tag 9\t\t\t\n      JUMPDEST \t\t\t\n      PUSH [tag] 54\t\t\t\n      PUSH 4\t\t\t\n      DUP1 \t\t\t\n      CALLDATASIZE \t\t\t\n      SUB \t\t\t\n      DUP2 \t\t\t\n      ADD \t\t\t\n      SWAP1 \t\t\t\n      PUSH [tag] 55\t\t\t\n      SWAP2 \t\t\t\n      SWAP1 \t\t\t\n      PUSH [tag] 31\t\t\t\n      JUMP \t\t\t\n    tag 55\t\t\t\n      JUMPDEST \t\t\t\n      PUSH [tag] 56\t\t\t\n      JUMP \t\t\t\n    tag 54\t\t\t\n      JUMPDEST \t\t\t\n      PUSH 40\t\t\t\n      MLOAD \t\t\t\n      PUSH [tag] 57\t\t\t\n      SWAP2 \t\t\t\n      SWAP1 \t\t\t\n      PUSH [tag] 34\t\t\t\n      JUMP \t\t\t\n    tag 57\t\t\t\n      JUMPDEST \t\t\t\n      PUSH 40\t\t\t\n      MLOAD \t\t\t\n      DUP1 \t\t\t\n      SWAP2 \t\t\t\n      SUB \t\t\t\n      SWAP1 \t\t\t\n      RETURN \t\t\t\n    tag 10\t\t\tfunction mintTree(uint256 coll...\n      JUMPDEST \t\t\tfunction mintTree(uint256 coll...\n      PUSH [tag] 58\t\t\tfunction mintTree(uint256 coll...\n      PUSH 4\t\t\tfunction mintTree(uint256 coll...\n      DUP1 \t\t\tfunction mintTree(uint256 coll...\n      CALLDATASIZE \t\t\tfunction mintTree(uint256 coll...\n      SUB \t\t\tfunction mintTree(uint256 coll...\n      DUP2 \t\t\tfunction mintTree(uint256 coll...\n      ADD \t\t\tfunction mintTree(uint256 coll...\n      SWAP1 \t\t\tfunction mintTree(uint256 coll...\n      PUSH [tag] 59\t\t\tfunction mintTree(uint256 coll...\n      SWAP2 \t\t\tfunction mintTree(uint256 coll...\n      SWAP1 \t\t\tfunction mintTree(uint256 coll...\n      PUSH [tag] 60\t\t\tfunction mintTree(uint256 coll...\n      JUMP \t\t\tfunction mintTree(uint256 coll...\n    tag 59\t\t\tfunction mintTree(uint256 coll...\n      JUMPDEST \t\t\tfunction mintTree(uint256 coll...\n      PUSH [tag] 61\t\t\tfunction mintTree(uint256 coll...\n      JUMP \t\t\tfunction mintTree(uint256 coll...\n    tag 58\t\t\tfunction mintTree(uint256 coll...\n      JUMPDEST \t\t\tfunction mintTree(uint256 coll...\n      STOP \t\t\tfunction mintTree(uint256 coll...\n    tag 11\t\t\tfunction returnNFTcount(uint25...\n      JUMPDEST \t\t\tfunction returnNFTcount(uint25...\n      PUSH [tag] 62\t\t\tfunction returnNFTcount(uint25...\n      PUSH 4\t\t\tfunction returnNFTcount(uint25...\n      DUP1 \t\t\tfunction returnNFTcount(uint25...\n      CALLDATASIZE \t\t\tfunction returnNFTcount(uint25...\n      SUB \t\t\tfunction returnNFTcount(uint25...\n      DUP2 \t\t\tfunction returnNFTcount(uint25...\n      ADD \t\t\tfunction returnNFTcount(uint25...\n      SWAP1 \t\t\tfunction returnNFTcount(uint25...\n      PUSH [tag] 63\t\t\tfunction returnNFTcount(uint25...\n      SWAP2 \t\t\tfunction returnNFTcount(uint25...\n      SWAP1 \t\t\tfunction returnNFTcount(uint25...\n      PUSH [tag] 64\t\t\tfunction returnNFTcount(uint25...\n      JUMP \t\t\tfunction returnNFTcount(uint25...\n    tag 63\t\t\tfunction returnNFTcount(uint25...\n      JUMPDEST \t\t\tfunction returnNFTcount(uint25...\n      PUSH [tag] 65\t\t\tfunction returnNFTcount(uint25...\n      JUMP \t\t\tfunction returnNFTcount(uint25...\n    tag 62\t\t\tfunction returnNFTcount(uint25...\n      JUMPDEST \t\t\tfunction returnNFTcount(uint25...\n      PUSH 40\t\t\tfunction returnNFTcount(uint25...\n      MLOAD \t\t\tfunction returnNFTcount(uint25...\n      PUSH [tag] 66\t\t\tfunction returnNFTcount(uint25...\n      SWAP2 \t\t\tfunction returnNFTcount(uint25...\n      SWAP1 \t\t\tfunction returnNFTcount(uint25...\n      PUSH [tag] 38\t\t\tfunction returnNFTcount(uint25...\n      JUMP \t\t\tfunction returnNFTcount(uint25...\n    tag 66\t\t\tfunction returnNFTcount(uint25...\n      JUMPDEST \t\t\tfunction returnNFTcount(uint25...\n      PUSH 40\t\t\tfunction returnNFTcount(uint25...\n      MLOAD \t\t\tfunction returnNFTcount(uint25...\n      DUP1 \t\t\tfunction returnNFTcount(uint25...\n      SWAP2 \t\t\tfunction returnNFTcount(uint25...\n      SUB \t\t\tfunction returnNFTcount(uint25...\n      SWAP1 \t\t\tfunction returnNFTcount(uint25...\n      RETURN \t\t\tfunction returnNFTcount(uint25...\n    tag 12\t\t\t.ownerOf(_tokenID) == msg.send...\n      JUMPDEST \t\t\t.ownerOf(_tokenID) == msg.send...\n      PUSH [tag] 67\t\t\t.ownerOf(_tokenID) == msg.send...\n      PUSH 4\t\t\t.ownerOf(_tokenID) == msg.send...\n      DUP1 \t\t\t.ownerOf(_tokenID) == msg.send...\n      CALLDATASIZE \t\t\t.ownerOf(_tokenID) == msg.send...\n      SUB \t\t\t.ownerOf(_tokenID) == msg.send...\n      DUP2 \t\t\t.ownerOf(_tokenID) == msg.send...\n      ADD \t\t\t.ownerOf(_tokenID) == msg.send...\n      SWAP1 \t\t\t.ownerOf(_tokenID) == msg.send...\n      PUSH [tag] 68\t\t\t.ownerOf(_tokenID) == msg.send...\n      SWAP2 \t\t\t.ownerOf(_tokenID) == msg.send...\n      SWAP1 \t\t\t.ownerOf(_tokenID) == msg.send...\n      PUSH [tag] 69\t\t\t.ownerOf(_tokenID) == msg.send...\n      JUMP \t\t\t.ownerOf(_tokenID) == msg.send...\n    tag 68\t\t\t.ownerOf(_tokenID) == msg.send...\n      JUMPDEST \t\t\t.ownerOf(_tokenID) == msg.send...\n      PUSH [tag] 70\t\t\t.ownerOf(_tokenID) == msg.send...\n      JUMP \t\t\t.ownerOf(_tokenID) == msg.send...\n    tag 67\t\t\t.ownerOf(_tokenID) == msg.send...\n      JUMPDEST \t\t\t.ownerOf(_tokenID) == msg.send...\n      PUSH 40\t\t\t.ownerOf(_tokenID) == msg.send...\n      MLOAD \t\t\t.ownerOf(_tokenID) == msg.send...\n      PUSH [tag] 71\t\t\t.ownerOf(_tokenID) == msg.send...\n      SWAP2 \t\t\t.ownerOf(_tokenID) == msg.send...\n      SWAP1 \t\t\t.ownerOf(_tokenID) == msg.send...\n      PUSH [tag] 38\t\t\t.ownerOf(_tokenID) == msg.send...\n      JUMP \t\t\t.ownerOf(_tokenID) == msg.send...\n    tag 71\t\t\t.ownerOf(_tokenID) == msg.send...\n      JUMPDEST \t\t\t.ownerOf(_tokenID) == msg.send...\n      PUSH 40\t\t\t.ownerOf(_tokenID) == msg.send...\n      MLOAD \t\t\t.ownerOf(_tokenID) == msg.send...\n      DUP1 \t\t\t.ownerOf(_tokenID) == msg.send...\n      SWAP2 \t\t\t.ownerOf(_tokenID) == msg.send...\n      SUB \t\t\t.ownerOf(_tokenID) == msg.send...\n      SWAP1 \t\t\t.ownerOf(_tokenID) == msg.send...\n      RETURN \t\t\t.ownerOf(_tokenID) == msg.send...\n    tag 13\t\t\tfunction mintNewTreeCollection...\n      JUMPDEST \t\t\tfunction mintNewTreeCollection...\n      PUSH [tag] 72\t\t\tfunction mintNewTreeCollection...\n      PUSH [tag] 73\t\t\tfunction mintNewTreeCollection...\n      JUMP \t\t\tfunction mintNewTreeCollection...\n    tag 72\t\t\tfunction mintNewTreeCollection...\n      JUMPDEST \t\t\tfunction mintNewTreeCollection...\n      STOP \t\t\tfunction mintNewTreeCollection...\n    tag 14\t\t\tID] == true, \"Collection is no...\n      JUMPDEST \t\t\tID] == true, \"Collection is no...\n      PUSH [tag] 74\t\t\tID] == true, \"Collection is no...\n      PUSH [tag] 75\t\t\tID] == true, \"Collection is no...\n      JUMP \t\t\tID] == true, \"Collection is no...\n    tag 74\t\t\tID] == true, \"Collection is no...\n      JUMPDEST \t\t\tID] == true, \"Collection is no...\n      PUSH 40\t\t\tID] == true, \"Collection is no...\n      MLOAD \t\t\tID] == true, \"Collection is no...\n      PUSH [tag] 76\t\t\tID] == true, \"Collection is no...\n      SWAP2 \t\t\tID] == true, \"Collection is no...\n      SWAP1 \t\t\tID] == true, \"Collection is no...\n      PUSH [tag] 28\t\t\tID] == true, \"Collection is no...\n      JUMP \t\t\tID] == true, \"Collection is no...\n    tag 76\t\t\tID] == true, \"Collection is no...\n      JUMPDEST \t\t\tID] == true, \"Collection is no...\n      PUSH 40\t\t\tID] == true, \"Collection is no...\n      MLOAD \t\t\tID] == true, \"Collection is no...\n      DUP1 \t\t\tID] == true, \"Collection is no...\n      SWAP2 \t\t\tID] == true, \"Collection is no...\n      SUB \t\t\tID] == true, \"Collection is no...\n      SWAP1 \t\t\tID] == true, \"Collection is no...\n      RETURN \t\t\tID] == true, \"Collection is no...\n    tag 15\t\t\t\n      JUMPDEST \t\t\t\n      PUSH [tag] 77\t\t\t\n      PUSH 4\t\t\t\n      DUP1 \t\t\t\n      CALLDATASIZE \t\t\t\n      SUB \t\t\t\n      DUP2 \t\t\t\n      ADD \t\t\t\n      SWAP1 \t\t\t\n      PUSH [tag] 78\t\t\t\n      SWAP2 \t\t\t\n      SWAP1 \t\t\t\n      PUSH [tag] 31\t\t\t\n      JUMP \t\t\t\n    tag 78\t\t\t\n      JUMPDEST \t\t\t\n      PUSH [tag] 79\t\t\t\n      JUMP \t\t\t\n    tag 77\t\t\t\n      JUMPDEST \t\t\t\n      PUSH 40\t\t\t\n      MLOAD \t\t\t\n      PUSH [tag] 80\t\t\t\n      SWAP2 \t\t\t\n      SWAP1 \t\t\t\n      PUSH [tag] 34\t\t\t\n      JUMP \t\t\t\n    tag 80\t\t\t\n      JUMPDEST \t\t\t\n      PUSH 40\t\t\t\n      MLOAD \t\t\t\n      DUP1 \t\t\t\n      SWAP2 \t\t\t\n      SUB \t\t\t\n      SWAP1 \t\t\t\n      RETURN \t\t\t\n    tag 16\t\t\tCounters.Counter public TreeCo...\n      JUMPDEST \t\t\tCounters.Counter public TreeCo...\n      PUSH [tag] 81\t\t\tCounters.Counter public TreeCo...\n      PUSH [tag] 82\t\t\tCounters.Counter public TreeCo...\n      JUMP \t\t\tCounters.Counter public TreeCo...\n    tag 81\t\t\tCounters.Counter public TreeCo...\n      JUMPDEST \t\t\tCounters.Counter public TreeCo...\n      PUSH 40\t\t\tCounters.Counter public TreeCo...\n      MLOAD \t\t\tCounters.Counter public TreeCo...\n      PUSH [tag] 83\t\t\tCounters.Counter public TreeCo...\n      SWAP2 \t\t\tCounters.Counter public TreeCo...\n      SWAP1 \t\t\tCounters.Counter public TreeCo...\n      PUSH [tag] 38\t\t\tCounters.Counter public TreeCo...\n      JUMP \t\t\tCounters.Counter public TreeCo...\n    tag 83\t\t\tCounters.Counter public TreeCo...\n      JUMPDEST \t\t\tCounters.Counter public TreeCo...\n      PUSH 40\t\t\tCounters.Counter public TreeCo...\n      MLOAD \t\t\tCounters.Counter public TreeCo...\n      DUP1 \t\t\tCounters.Counter public TreeCo...\n      SWAP2 \t\t\tCounters.Counter public TreeCo...\n      SUB \t\t\tCounters.Counter public TreeCo...\n      SWAP1 \t\t\tCounters.Counter public TreeCo...\n      RETURN \t\t\tCounters.Counter public TreeCo...\n    tag 17\t\t\timed > 86400,\\r\\n            \"...\n      JUMPDEST \t\t\timed > 86400,\\r\\n            \"...\n      PUSH [tag] 84\t\t\timed > 86400,\\r\\n            \"...\n      PUSH 4\t\t\timed > 86400,\\r\\n            \"...\n      DUP1 \t\t\timed > 86400,\\r\\n            \"...\n      CALLDATASIZE \t\t\timed > 86400,\\r\\n            \"...\n      SUB \t\t\timed > 86400,\\r\\n            \"...\n      DUP2 \t\t\timed > 86400,\\r\\n            \"...\n      ADD \t\t\timed > 86400,\\r\\n            \"...\n      SWAP1 \t\t\timed > 86400,\\r\\n            \"...\n      PUSH [tag] 85\t\t\timed > 86400,\\r\\n            \"...\n      SWAP2 \t\t\timed > 86400,\\r\\n            \"...\n      SWAP1 \t\t\timed > 86400,\\r\\n            \"...\n      PUSH [tag] 31\t\t\timed > 86400,\\r\\n            \"...\n      JUMP \t\t\timed > 86400,\\r\\n            \"...\n    tag 85\t\t\timed > 86400,\\r\\n            \"...\n      JUMPDEST \t\t\timed > 86400,\\r\\n            \"...\n      PUSH [tag] 86\t\t\timed > 86400,\\r\\n            \"...\n      JUMP \t\t\timed > 86400,\\r\\n            \"...\n    tag 84\t\t\timed > 86400,\\r\\n            \"...\n      JUMPDEST \t\t\timed > 86400,\\r\\n            \"...\n      PUSH 40\t\t\timed > 86400,\\r\\n            \"...\n      MLOAD \t\t\timed > 86400,\\r\\n            \"...\n      PUSH [tag] 87\t\t\timed > 86400,\\r\\n            \"...\n      SWAP2 \t\t\timed > 86400,\\r\\n            \"...\n      SWAP1 \t\t\timed > 86400,\\r\\n            \"...\n      PUSH [tag] 34\t\t\timed > 86400,\\r\\n            \"...\n      JUMP \t\t\timed > 86400,\\r\\n            \"...\n    tag 87\t\t\timed > 86400,\\r\\n            \"...\n      JUMPDEST \t\t\timed > 86400,\\r\\n            \"...\n      PUSH 40\t\t\timed > 86400,\\r\\n            \"...\n      MLOAD \t\t\timed > 86400,\\r\\n            \"...\n      DUP1 \t\t\timed > 86400,\\r\\n            \"...\n      SWAP2 \t\t\timed > 86400,\\r\\n            \"...\n      SUB \t\t\timed > 86400,\\r\\n            \"...\n      SWAP1 \t\t\timed > 86400,\\r\\n            \"...\n      RETURN \t\t\timed > 86400,\\r\\n            \"...\n    tag 18\t\t\tmapping(uint256 => TreeCollect...\n      JUMPDEST \t\t\tmapping(uint256 => TreeCollect...\n      PUSH [tag] 88\t\t\tmapping(uint256 => TreeCollect...\n      PUSH 4\t\t\tmapping(uint256 => TreeCollect...\n      DUP1 \t\t\tmapping(uint256 => TreeCollect...\n      CALLDATASIZE \t\t\tmapping(uint256 => TreeCollect...\n      SUB \t\t\tmapping(uint256 => TreeCollect...\n      DUP2 \t\t\tmapping(uint256 => TreeCollect...\n      ADD \t\t\tmapping(uint256 => TreeCollect...\n      SWAP1 \t\t\tmapping(uint256 => TreeCollect...\n      PUSH [tag] 89\t\t\tmapping(uint256 => TreeCollect...\n      SWAP2 \t\t\tmapping(uint256 => TreeCollect...\n      SWAP1 \t\t\tmapping(uint256 => TreeCollect...\n      PUSH [tag] 64\t\t\tmapping(uint256 => TreeCollect...\n      JUMP \t\t\tmapping(uint256 => TreeCollect...\n    tag 89\t\t\tmapping(uint256 => TreeCollect...\n      JUMPDEST \t\t\tmapping(uint256 => TreeCollect...\n      PUSH [tag] 90\t\t\tmapping(uint256 => TreeCollect...\n      JUMP \t\t\tmapping(uint256 => TreeCollect...\n    tag 88\t\t\tmapping(uint256 => TreeCollect...\n      JUMPDEST \t\t\tmapping(uint256 => TreeCollect...\n      PUSH 40\t\t\tmapping(uint256 => TreeCollect...\n      MLOAD \t\t\tmapping(uint256 => TreeCollect...\n      PUSH [tag] 91\t\t\tmapping(uint256 => TreeCollect...\n      SWAP2 \t\t\tmapping(uint256 => TreeCollect...\n      SWAP1 \t\t\tmapping(uint256 => TreeCollect...\n      PUSH [tag] 92\t\t\tmapping(uint256 => TreeCollect...\n      JUMP \t\t\tmapping(uint256 => TreeCollect...\n    tag 91\t\t\tmapping(uint256 => TreeCollect...\n      JUMPDEST \t\t\tmapping(uint256 => TreeCollect...\n      PUSH 40\t\t\tmapping(uint256 => TreeCollect...\n      MLOAD \t\t\tmapping(uint256 => TreeCollect...\n      DUP1 \t\t\tmapping(uint256 => TreeCollect...\n      SWAP2 \t\t\tmapping(uint256 => TreeCollect...\n      SUB \t\t\tmapping(uint256 => TreeCollect...\n      SWAP1 \t\t\tmapping(uint256 => TreeCollect...\n      RETURN \t\t\tmapping(uint256 => TreeCollect...\n    tag 19\t\t\tfunction claim(uint256 _collec...\n      JUMPDEST \t\t\tfunction claim(uint256 _collec...\n      PUSH [tag] 93\t\t\tfunction claim(uint256 _collec...\n      PUSH 4\t\t\tfunction claim(uint256 _collec...\n      DUP1 \t\t\tfunction claim(uint256 _collec...\n      CALLDATASIZE \t\t\tfunction claim(uint256 _collec...\n      SUB \t\t\tfunction claim(uint256 _collec...\n      DUP2 \t\t\tfunction claim(uint256 _collec...\n      ADD \t\t\tfunction claim(uint256 _collec...\n      SWAP1 \t\t\tfunction claim(uint256 _collec...\n      PUSH [tag] 94\t\t\tfunction claim(uint256 _collec...\n      SWAP2 \t\t\tfunction claim(uint256 _collec...\n      SWAP1 \t\t\tfunction claim(uint256 _collec...\n      PUSH [tag] 41\t\t\tfunction claim(uint256 _collec...\n      JUMP \t\t\tfunction claim(uint256 _collec...\n    tag 94\t\t\tfunction claim(uint256 _collec...\n      JUMPDEST \t\t\tfunction claim(uint256 _collec...\n      PUSH [tag] 95\t\t\tfunction claim(uint256 _collec...\n      JUMP \t\t\tfunction claim(uint256 _collec...\n    tag 93\t\t\tfunction claim(uint256 _collec...\n      JUMPDEST \t\t\tfunction claim(uint256 _collec...\n      PUSH 40\t\t\tfunction claim(uint256 _collec...\n      MLOAD \t\t\tfunction claim(uint256 _collec...\n      PUSH [tag] 96\t\t\tfunction claim(uint256 _collec...\n      SWAP2 \t\t\tfunction claim(uint256 _collec...\n      SWAP1 \t\t\tfunction claim(uint256 _collec...\n      PUSH [tag] 34\t\t\tfunction claim(uint256 _collec...\n      JUMP \t\t\tfunction claim(uint256 _collec...\n    tag 96\t\t\tfunction claim(uint256 _collec...\n      JUMPDEST \t\t\tfunction claim(uint256 _collec...\n      PUSH 40\t\t\tfunction claim(uint256 _collec...\n      MLOAD \t\t\tfunction claim(uint256 _collec...\n      DUP1 \t\t\tfunction claim(uint256 _collec...\n      SWAP2 \t\t\tfunction claim(uint256 _collec...\n      SUB \t\t\tfunction claim(uint256 _collec...\n      SWAP1 \t\t\tfunction claim(uint256 _collec...\n      RETURN \t\t\tfunction claim(uint256 _collec...\n    tag 20\t\t\tne);\\r\\n\\r\\n        return tru...\n      JUMPDEST \t\t\tne);\\r\\n\\r\\n        return tru...\n      PUSH [tag] 97\t\t\tne);\\r\\n\\r\\n        return tru...\n      PUSH 4\t\t\tne);\\r\\n\\r\\n        return tru...\n      DUP1 \t\t\tne);\\r\\n\\r\\n        return tru...\n      CALLDATASIZE \t\t\tne);\\r\\n\\r\\n        return tru...\n      SUB \t\t\tne);\\r\\n\\r\\n        return tru...\n      DUP2 \t\t\tne);\\r\\n\\r\\n        return tru...\n      ADD \t\t\tne);\\r\\n\\r\\n        return tru...\n      SWAP1 \t\t\tne);\\r\\n\\r\\n        return tru...\n      PUSH [tag] 98\t\t\tne);\\r\\n\\r\\n        return tru...\n      SWAP2 \t\t\tne);\\r\\n\\r\\n        return tru...\n      SWAP1 \t\t\tne);\\r\\n\\r\\n        return tru...\n      PUSH [tag] 99\t\t\tne);\\r\\n\\r\\n        return tru...\n      JUMP \t\t\tne);\\r\\n\\r\\n        return tru...\n    tag 98\t\t\tne);\\r\\n\\r\\n        return tru...\n      JUMPDEST \t\t\tne);\\r\\n\\r\\n        return tru...\n      PUSH [tag] 100\t\t\tne);\\r\\n\\r\\n        return tru...\n      JUMP \t\t\tne);\\r\\n\\r\\n        return tru...\n    tag 97\t\t\tne);\\r\\n\\r\\n        return tru...\n      JUMPDEST \t\t\tne);\\r\\n\\r\\n        return tru...\n      PUSH 40\t\t\tne);\\r\\n\\r\\n        return tru...\n      MLOAD \t\t\tne);\\r\\n\\r\\n        return tru...\n      PUSH [tag] 101\t\t\tne);\\r\\n\\r\\n        return tru...\n      SWAP2 \t\t\tne);\\r\\n\\r\\n        return tru...\n      SWAP1 \t\t\tne);\\r\\n\\r\\n        return tru...\n      PUSH [tag] 38\t\t\tne);\\r\\n\\r\\n        return tru...\n      JUMP \t\t\tne);\\r\\n\\r\\n        return tru...\n    tag 101\t\t\tne);\\r\\n\\r\\n        return tru...\n      JUMPDEST \t\t\tne);\\r\\n\\r\\n        return tru...\n      PUSH 40\t\t\tne);\\r\\n\\r\\n        return tru...\n      MLOAD \t\t\tne);\\r\\n\\r\\n        return tru...\n      DUP1 \t\t\tne);\\r\\n\\r\\n        return tru...\n      SWAP2 \t\t\tne);\\r\\n\\r\\n        return tru...\n      SUB \t\t\tne);\\r\\n\\r\\n        return tru...\n      SWAP1 \t\t\tne);\\r\\n\\r\\n        return tru...\n      RETURN \t\t\tne);\\r\\n\\r\\n        return tru...\n    tag 21\t\t\tfunction water(uint256 _collec...\n      JUMPDEST \t\t\tfunction water(uint256 _collec...\n      PUSH [tag] 102\t\t\tfunction water(uint256 _collec...\n      PUSH 4\t\t\tfunction water(uint256 _collec...\n      DUP1 \t\t\tfunction water(uint256 _collec...\n      CALLDATASIZE \t\t\tfunction water(uint256 _collec...\n      SUB \t\t\tfunction water(uint256 _collec...\n      DUP2 \t\t\tfunction water(uint256 _collec...\n      ADD \t\t\tfunction water(uint256 _collec...\n      SWAP1 \t\t\tfunction water(uint256 _collec...\n      PUSH [tag] 103\t\t\tfunction water(uint256 _collec...\n      SWAP2 \t\t\tfunction water(uint256 _collec...\n      SWAP1 \t\t\tfunction water(uint256 _collec...\n      PUSH [tag] 41\t\t\tfunction water(uint256 _collec...\n      JUMP \t\t\tfunction water(uint256 _collec...\n    tag 103\t\t\tfunction water(uint256 _collec...\n      JUMPDEST \t\t\tfunction water(uint256 _collec...\n      PUSH [tag] 104\t\t\tfunction water(uint256 _collec...\n      JUMP \t\t\tfunction water(uint256 _collec...\n    tag 102\t\t\tfunction water(uint256 _collec...\n      JUMPDEST \t\t\tfunction water(uint256 _collec...\n      PUSH 40\t\t\tfunction water(uint256 _collec...\n      MLOAD \t\t\tfunction water(uint256 _collec...\n      PUSH [tag] 105\t\t\tfunction water(uint256 _collec...\n      SWAP2 \t\t\tfunction water(uint256 _collec...\n      SWAP1 \t\t\tfunction water(uint256 _collec...\n      PUSH [tag] 34\t\t\tfunction water(uint256 _collec...\n      JUMP \t\t\tfunction water(uint256 _collec...\n    tag 105\t\t\tfunction water(uint256 _collec...\n      JUMPDEST \t\t\tfunction water(uint256 _collec...\n      PUSH 40\t\t\tfunction water(uint256 _collec...\n      MLOAD \t\t\tfunction water(uint256 _collec...\n      DUP1 \t\t\tfunction water(uint256 _collec...\n      SWAP2 \t\t\tfunction water(uint256 _collec...\n      SUB \t\t\tfunction water(uint256 _collec...\n      SWAP1 \t\t\tfunction water(uint256 _collec...\n      RETURN \t\t\tfunction water(uint256 _collec...\n    tag 26\t\t\tllectionID].treeDetails[tokenI...\n      JUMPDEST \t\t\tllectionID].treeDetails[tokenI...\n      PUSH 60\t\t\t, 0, true);\\r\\n\n      PUSH 3\t\t\ton wa\n      DUP1 \t\t\t function wa\n      SLOAD \t\t\t function wa\n      PUSH [tag] 107\t\t\t function wa\n      SWAP1 \t\t\t function wa\n      PUSH [tag] 108\t\t\t function wa\n      JUMP \t\t\t function wa\n    tag 107\t\t\t function wa\n      JUMPDEST \t\t\t function wa\n      DUP1 \t\t\t function wa\n      PUSH 1F\t\t\t function wa\n      ADD \t\t\t function wa\n      PUSH 20\t\t\t function wa\n      DUP1 \t\t\t function wa\n      SWAP2 \t\t\t function wa\n      DIV \t\t\t function wa\n      MUL \t\t\t function wa\n      PUSH 20\t\t\t function wa\n      ADD \t\t\t function wa\n      PUSH 40\t\t\t function wa\n      MLOAD \t\t\t function wa\n      SWAP1 \t\t\t function wa\n      DUP2 \t\t\t function wa\n      ADD \t\t\t function wa\n      PUSH 40\t\t\t function wa\n      MSTORE \t\t\t function wa\n      DUP1 \t\t\t function wa\n      SWAP3 \t\t\t function wa\n      SWAP2 \t\t\t function wa\n      SWAP1 \t\t\t function wa\n      DUP2 \t\t\t function wa\n      DUP2 \t\t\t function wa\n      MSTORE \t\t\t function wa\n      PUSH 20\t\t\t function wa\n      ADD \t\t\t function wa\n      DUP3 \t\t\t function wa\n      DUP1 \t\t\t function wa\n      SLOAD \t\t\t function wa\n      PUSH [tag] 109\t\t\t function wa\n      SWAP1 \t\t\t function wa\n      PUSH [tag] 108\t\t\t function wa\n      JUMP \t\t\t function wa\n    tag 109\t\t\t function wa\n      JUMPDEST \t\t\t function wa\n      DUP1 \t\t\t function wa\n      ISZERO \t\t\t function wa\n      PUSH [tag] 110\t\t\t function wa\n      JUMPI \t\t\t function wa\n      DUP1 \t\t\t function wa\n      PUSH 1F\t\t\t function wa\n      LT \t\t\t function wa\n      PUSH [tag] 111\t\t\t function wa\n      JUMPI \t\t\t function wa\n      PUSH 100\t\t\t function wa\n      DUP1 \t\t\t function wa\n      DUP4 \t\t\t function wa\n      SLOAD \t\t\t function wa\n      DIV \t\t\t function wa\n      MUL \t\t\t function wa\n      DUP4 \t\t\t function wa\n      MSTORE \t\t\t function wa\n      SWAP2 \t\t\t function wa\n      PUSH 20\t\t\t function wa\n      ADD \t\t\t function wa\n      SWAP2 \t\t\t function wa\n      PUSH [tag] 110\t\t\t function wa\n      JUMP \t\t\t function wa\n    tag 111\t\t\t function wa\n      JUMPDEST \t\t\t function wa\n      DUP3 \t\t\t function wa\n      ADD \t\t\t function wa\n      SWAP2 \t\t\t function wa\n      SWAP1 \t\t\t function wa\n      PUSH 0\t\t\t function wa\n      MSTORE \t\t\t function wa\n      PUSH 20\t\t\t function wa\n      PUSH 0\t\t\t function wa\n      KECCAK256 \t\t\t function wa\n      SWAP1 \t\t\t function wa\n    tag 112\t\t\t function wa\n      JUMPDEST \t\t\t function wa\n      DUP2 \t\t\t function wa\n      SLOAD \t\t\t function wa\n      DUP2 \t\t\t function wa\n      MSTORE \t\t\t function wa\n      SWAP1 \t\t\t function wa\n      PUSH 1\t\t\t function wa\n      ADD \t\t\t function wa\n      SWAP1 \t\t\t function wa\n      PUSH 20\t\t\t function wa\n      ADD \t\t\t function wa\n      DUP1 \t\t\t function wa\n      DUP4 \t\t\t function wa\n      GT \t\t\t function wa\n      PUSH [tag] 112\t\t\t function wa\n      JUMPI \t\t\t function wa\n      DUP3 \t\t\t function wa\n      SWAP1 \t\t\t function wa\n      SUB \t\t\t function wa\n      PUSH 1F\t\t\t function wa\n      AND \t\t\t function wa\n      DUP3 \t\t\t function wa\n      ADD \t\t\t function wa\n      SWAP2 \t\t\t function wa\n    tag 110\t\t\t function wa\n      JUMPDEST \t\t\t function wa\n      POP \t\t\t function wa\n      POP \t\t\t function wa\n      POP \t\t\t function wa\n      POP \t\t\t function wa\n      POP \t\t\t function wa\n      SWAP1 \t\t\t function wa\n      POP \t\t\t function wa\n      SWAP1 \t\t\tllectionID].treeDetails[tokenI...\n      JUMP \t\t\tllectionID].treeDetails[tokenI...\n    tag 32\t\t\tin a particular collection\\r\\n...\n      JUMPDEST \t\t\tin a particular collection\\r\\n...\n      PUSH 0\t\t\t\n      DUP1 \t\t\t\n      PUSH [tag] 114\t\t\t\n      PUSH [tag] 115\t\t\t\n      JUMP \t\t\t\n    tag 114\t\t\t\n      JUMPDEST \t\t\t\n      SWAP1 \t\t\t\n      POP \t\t\t\n      PUSH [tag] 116\t\t\t\n      DUP2 \t\t\t\n      DUP6 \t\t\t\n      DUP6 \t\t\t\n      PUSH [tag] 117\t\t\t\n      JUMP \t\t\t\n    tag 116\t\t\t\n      JUMPDEST \t\t\t\n      PUSH 1\t\t\t\n      SWAP2 \t\t\t\n      POP \t\t\t\n      POP \t\t\t\n      SWAP3 \t\t\tin a particular collection\\r\\n...\n      SWAP2 \t\t\tin a particular collection\\r\\n...\n      POP \t\t\tin a particular collection\\r\\n...\n      POP \t\t\tin a particular collection\\r\\n...\n      JUMP \t\t\tin a particular collection\\r\\n...\n    tag 36\t\t\t.isInitialized, \"Tree does not...\n      JUMPDEST \t\t\t.isInitialized, \"Tree does not...\n      PUSH 0\t\t\ttion tr\n      PUSH 2\t\t\tCollection(t\n      SLOAD \t\t\tCollection(t\n      SWAP1 \t\t\t = TreeCollection(t\n      POP \t\t\t = TreeCollection(t\n      SWAP1 \t\t\t.isInitialized, \"Tree does not...\n      JUMP \t\t\t.isInitialized, \"Tree does not...\n    tag 42\t\t\tfunction getTreeDetails(uint25...\n      JUMPDEST \t\t\tfunction getTreeDetails(uint25...\n      PUSH [tag] 119\t\t\tTreeDetails memory\n      PUSH [tag] 120\t\t\tTreeDetails memory\n      JUMP \t\t\tTreeDetails memory\n    tag 119\t\t\tTreeDetails memory\n      JUMPDEST \t\t\tTreeDetails memory\n      PUSH 8\t\t\tuserTree\n      PUSH 0\t\t\tuserTree[collectionId]\n      DUP5 \t\t\tcollectionId\n      DUP2 \t\t\tuserTree[collectionId]\n      MSTORE \t\t\tuserTree[collectionId]\n      PUSH 20\t\t\tuserTree[collectionId]\n      ADD \t\t\tuserTree[collectionId]\n      SWAP1 \t\t\tuserTree[collectionId]\n      DUP2 \t\t\tuserTree[collectionId]\n      MSTORE \t\t\tuserTree[collectionId]\n      PUSH 20\t\t\tuserTree[collectionId]\n      ADD \t\t\tuserTree[collectionId]\n      PUSH 0\t\t\tuserTree[collectionId]\n      KECCAK256 \t\t\tuserTree[collectionId]\n      PUSH 0\t\t\tuserTree[collectionId].treeDet...\n      ADD \t\t\tuserTree[collectionId].treeDet...\n      PUSH 0\t\t\tuserTree[collectionId].treeDet...\n      DUP4 \t\t\ttokenId\n      DUP2 \t\t\tuserTree[collectionId].treeDet...\n      MSTORE \t\t\tuserTree[collectionId].treeDet...\n      PUSH 20\t\t\tuserTree[collectionId].treeDet...\n      ADD \t\t\tuserTree[collectionId].treeDet...\n      SWAP1 \t\t\tuserTree[collectionId].treeDet...\n      DUP2 \t\t\tuserTree[collectionId].treeDet...\n      MSTORE \t\t\tuserTree[collectionId].treeDet...\n      PUSH 20\t\t\tuserTree[collectionId].treeDet...\n      ADD \t\t\tuserTree[collectionId].treeDet...\n      PUSH 0\t\t\tuserTree[collectionId].treeDet...\n      KECCAK256 \t\t\tuserTree[collectionId].treeDet...\n      PUSH 40\t\t\treturn userTree[collectionId]....\n      MLOAD \t\t\treturn userTree[collectionId]....\n      DUP1 \t\t\treturn userTree[collectionId]....\n      PUSH A0\t\t\treturn userTree[collectionId]....\n      ADD \t\t\treturn userTree[collectionId]....\n      PUSH 40\t\t\treturn userTree[collectionId]....\n      MSTORE \t\t\treturn userTree[collectionId]....\n      SWAP1 \t\t\treturn userTree[collectionId]....\n      DUP2 \t\t\treturn userTree[collectionId]....\n      PUSH 0\t\t\treturn userTree[collectionId]....\n      DUP3 \t\t\treturn userTree[collectionId]....\n      ADD \t\t\treturn userTree[collectionId]....\n      SLOAD \t\t\treturn userTree[collectionId]....\n      DUP2 \t\t\treturn userTree[collectionId]....\n      MSTORE \t\t\treturn userTree[collectionId]....\n      PUSH 20\t\t\treturn userTree[collectionId]....\n      ADD \t\t\treturn userTree[collectionId]....\n      PUSH 1\t\t\treturn userTree[collectionId]....\n      DUP3 \t\t\treturn userTree[collectionId]....\n      ADD \t\t\treturn userTree[collectionId]....\n      SLOAD \t\t\treturn userTree[collectionId]....\n      DUP2 \t\t\treturn userTree[collectionId]....\n      MSTORE \t\t\treturn userTree[collectionId]....\n      PUSH 20\t\t\treturn userTree[collectionId]....\n      ADD \t\t\treturn userTree[collectionId]....\n      PUSH 2\t\t\treturn userTree[collectionId]....\n      DUP3 \t\t\treturn userTree[collectionId]....\n      ADD \t\t\treturn userTree[collectionId]....\n      SLOAD \t\t\treturn userTree[collectionId]....\n      DUP2 \t\t\treturn userTree[collectionId]....\n      MSTORE \t\t\treturn userTree[collectionId]....\n      PUSH 20\t\t\treturn userTree[collectionId]....\n      ADD \t\t\treturn userTree[collectionId]....\n      PUSH 3\t\t\treturn userTree[collectionId]....\n      DUP3 \t\t\treturn userTree[collectionId]....\n      ADD \t\t\treturn userTree[collectionId]....\n      SLOAD \t\t\treturn userTree[collectionId]....\n      DUP2 \t\t\treturn userTree[collectionId]....\n      MSTORE \t\t\treturn userTree[collectionId]....\n      PUSH 20\t\t\treturn userTree[collectionId]....\n      ADD \t\t\treturn userTree[collectionId]....\n      PUSH 4\t\t\treturn userTree[collectionId]....\n      DUP3 \t\t\treturn userTree[collectionId]....\n      ADD \t\t\treturn userTree[collectionId]....\n      PUSH 0\t\t\treturn userTree[collectionId]....\n      SWAP1 \t\t\treturn userTree[collectionId]....\n      SLOAD \t\t\treturn userTree[collectionId]....\n      SWAP1 \t\t\treturn userTree[collectionId]....\n      PUSH 100\t\t\treturn userTree[collectionId]....\n      EXP \t\t\treturn userTree[collectionId]....\n      SWAP1 \t\t\treturn userTree[collectionId]....\n      DIV \t\t\treturn userTree[collectionId]....\n      PUSH FF\t\t\treturn userTree[collectionId]....\n      AND \t\t\treturn userTree[collectionId]....\n      ISZERO \t\t\treturn userTree[collectionId]....\n      ISZERO \t\t\treturn userTree[collectionId]....\n      ISZERO \t\t\treturn userTree[collectionId]....\n      ISZERO \t\t\treturn userTree[collectionId]....\n      DUP2 \t\t\treturn userTree[collectionId]....\n      MSTORE \t\t\treturn userTree[collectionId]....\n      POP \t\t\treturn userTree[collectionId]....\n      POP \t\t\treturn userTree[collectionId]....\n      SWAP1 \t\t\treturn userTree[collectionId]....\n      POP \t\t\treturn userTree[collectionId]....\n      SWAP3 \t\t\tfunction getTreeDetails(uint25...\n      SWAP2 \t\t\tfunction getTreeDetails(uint25...\n      POP \t\t\tfunction getTreeDetails(uint25...\n      POP \t\t\tfunction getTreeDetails(uint25...\n      JUMP \t\t\tfunction getTreeDetails(uint25...\n    tag 48\t\t\t\n      JUMPDEST \t\t\t\n      PUSH 0\t\t\t\n      DUP1 \t\t\t\n      PUSH [tag] 123\t\t\t\n      PUSH [tag] 115\t\t\t\n      JUMP \t\t\t\n    tag 123\t\t\t\n      JUMPDEST \t\t\t\n      SWAP1 \t\t\t\n      POP \t\t\t\n      PUSH [tag] 124\t\t\t\n      DUP6 \t\t\t\n      DUP3 \t\t\t\n      DUP6 \t\t\t\n      PUSH [tag] 125\t\t\t\n      JUMP \t\t\t\n    tag 124\t\t\t\n      JUMPDEST \t\t\t\n      PUSH [tag] 126\t\t\t\n      DUP6 \t\t\t\n      DUP6 \t\t\t\n      DUP6 \t\t\t\n      PUSH [tag] 127\t\t\t\n      JUMP \t\t\t\n    tag 126\t\t\t\n      JUMPDEST \t\t\t\n      PUSH 1\t\t\t\n      SWAP2 \t\t\t\n      POP \t\t\t\n      POP \t\t\t\n      SWAP4 \t\t\t\n      SWAP3 \t\t\t\n      POP \t\t\t\n      POP \t\t\t\n      POP \t\t\t\n      JUMP \t\t\t\n    tag 51\t\t\trequire(collectionInitialized[...\n      JUMPDEST \t\t\trequire(collectionInitialized[...\n      PUSH 0\t\t\tlecti\n      PUSH 12\t\t\td\"\n      SWAP1 \t\t\tt minted\"\n      POP \t\t\tt minted\"\n      SWAP1 \t\t\trequire(collectionInitialized[...\n      JUMP \t\t\trequire(collectionInitialized[...\n    tag 56\t\t\t\n      JUMPDEST \t\t\t\n      PUSH 0\t\t\t\n      DUP1 \t\t\t\n      PUSH [tag] 130\t\t\t\n      PUSH [tag] 115\t\t\t\n      JUMP \t\t\t\n    tag 130\t\t\t\n      JUMPDEST \t\t\t\n      SWAP1 \t\t\t\n      POP \t\t\t\n      PUSH [tag] 131\t\t\t\n      DUP2 \t\t\t\n      DUP6 \t\t\t\n      DUP6 \t\t\t\n      PUSH [tag] 132\t\t\t\n      DUP6 \t\t\t\n      DUP10 \t\t\t\n      PUSH [tag] 100\t\t\t\n      JUMP \t\t\t\n    tag 132\t\t\t\n      JUMPDEST \t\t\t\n      PUSH [tag] 133\t\t\t\n      SWAP2 \t\t\t\n      SWAP1 \t\t\t\n      PUSH [tag] 134\t\t\t\n      JUMP \t\t\t\n    tag 133\t\t\t\n      JUMPDEST \t\t\t\n      PUSH [tag] 117\t\t\t\n      JUMP \t\t\t\n    tag 131\t\t\t\n      JUMPDEST \t\t\t\n      PUSH 1\t\t\t\n      SWAP2 \t\t\t\n      POP \t\t\t\n      POP \t\t\t\n      SWAP3 \t\t\t\n      SWAP2 \t\t\t\n      POP \t\t\t\n      POP \t\t\t\n      JUMP \t\t\t\n    tag 61\t\t\tfunction mintTree(uint256 coll...\n      JUMPDEST \t\t\tfunction mintTree(uint256 coll...\n      PUSH 1\t\t\ttrue\n      ISZERO \t\t\tcollectionInitialized[collecti...\n      ISZERO \t\t\tcollectionInitialized[collecti...\n      PUSH 9\t\t\tcollectionInitialized\n      PUSH 0\t\t\tcollectionInitialized[collecti...\n      DUP5 \t\t\tcollectionID\n      DUP2 \t\t\tcollectionInitialized[collecti...\n      MSTORE \t\t\tcollectionInitialized[collecti...\n      PUSH 20\t\t\tcollectionInitialized[collecti...\n      ADD \t\t\tcollectionInitialized[collecti...\n      SWAP1 \t\t\tcollectionInitialized[collecti...\n      DUP2 \t\t\tcollectionInitialized[collecti...\n      MSTORE \t\t\tcollectionInitialized[collecti...\n      PUSH 20\t\t\tcollectionInitialized[collecti...\n      ADD \t\t\tcollectionInitialized[collecti...\n      PUSH 0\t\t\tcollectionInitialized[collecti...\n      KECCAK256 \t\t\tcollectionInitialized[collecti...\n      PUSH 0\t\t\tcollectionInitialized[collecti...\n      SWAP1 \t\t\tcollectionInitialized[collecti...\n      SLOAD \t\t\tcollectionInitialized[collecti...\n      SWAP1 \t\t\tcollectionInitialized[collecti...\n      PUSH 100\t\t\tcollectionInitialized[collecti...\n      EXP \t\t\tcollectionInitialized[collecti...\n      SWAP1 \t\t\tcollectionInitialized[collecti...\n      DIV \t\t\tcollectionInitialized[collecti...\n      PUSH FF\t\t\tcollectionInitialized[collecti...\n      AND \t\t\tcollectionInitialized[collecti...\n      ISZERO \t\t\tcollectionInitialized[collecti...\n      ISZERO \t\t\tcollectionInitialized[collecti...\n      EQ \t\t\tcollectionInitialized[collecti...\n      PUSH [tag] 136\t\t\trequire(collectionInitialized[...\n      JUMPI \t\t\trequire(collectionInitialized[...\n      PUSH 40\t\t\trequire(collectionInitialized[...\n      MLOAD \t\t\trequire(collectionInitialized[...\n      PUSH 8C379A000000000000000000000000000000000000000000000000000000000\t\t\trequire(collectionInitialized[...\n      DUP2 \t\t\trequire(collectionInitialized[...\n      MSTORE \t\t\trequire(collectionInitialized[...\n      PUSH 4\t\t\trequire(collectionInitialized[...\n      ADD \t\t\trequire(collectionInitialized[...\n      PUSH [tag] 137\t\t\trequire(collectionInitialized[...\n      SWAP1 \t\t\trequire(collectionInitialized[...\n      PUSH [tag] 138\t\t\trequire(collectionInitialized[...\n      JUMP \t\t\trequire(collectionInitialized[...\n    tag 137\t\t\trequire(collectionInitialized[...\n      JUMPDEST \t\t\trequire(collectionInitialized[...\n      PUSH 40\t\t\trequire(collectionInitialized[...\n      MLOAD \t\t\trequire(collectionInitialized[...\n      DUP1 \t\t\trequire(collectionInitialized[...\n      SWAP2 \t\t\trequire(collectionInitialized[...\n      SUB \t\t\trequire(collectionInitialized[...\n      SWAP1 \t\t\trequire(collectionInitialized[...\n      REVERT \t\t\trequire(collectionInitialized[...\n    tag 136\t\t\trequire(collectionInitialized[...\n      JUMPDEST \t\t\trequire(collectionInitialized[...\n      PUSHIMMUTABLE 3645\t\t\tSTNEAR\n      PUSH FFFFFFFFFFFFFFFFFFFFFFFFFFFFFFFFFFFFFFFF\t\t\tSTNEAR.transferFrom\n      AND \t\t\tSTNEAR.transferFrom\n      PUSH 23B872DD\t\t\tSTNEAR.transferFrom\n      CALLER \t\t\tmsg.sender\n      ADDRESS \t\t\tthis\n      PUSHIMMUTABLE 3639\t\t\tbase\n      PUSH 5\t\t\t5\n      PUSH [tag] 139\t\t\t5 * base\n      SWAP2 \t\t\t5 * base\n      SWAP1 \t\t\t5 * base\n      PUSH [tag] 140\t\t\t5 * base\n      JUMP \t\t\t5 * base\n    tag 139\t\t\t5 * base\n      JUMPDEST \t\t\t5 * base\n      PUSH 40\t\t\tSTNEAR.transferFrom(msg.sender...\n      MLOAD \t\t\tSTNEAR.transferFrom(msg.sender...\n      DUP5 \t\t\tSTNEAR.transferFrom(msg.sender...\n      PUSH FFFFFFFF\t\t\tSTNEAR.transferFrom(msg.sender...\n      AND \t\t\tSTNEAR.transferFrom(msg.sender...\n      PUSH E0\t\t\tSTNEAR.transferFrom(msg.sender...\n      SHL \t\t\tSTNEAR.transferFrom(msg.sender...\n      DUP2 \t\t\tSTNEAR.transferFrom(msg.sender...\n      MSTORE \t\t\tSTNEAR.transferFrom(msg.sender...\n      PUSH 4\t\t\tSTNEAR.transferFrom(msg.sender...\n      ADD \t\t\tSTNEAR.transferFrom(msg.sender...\n      PUSH [tag] 141\t\t\tSTNEAR.transferFrom(msg.sender...\n      SWAP4 \t\t\tSTNEAR.transferFrom(msg.sender...\n      SWAP3 \t\t\tSTNEAR.transferFrom(msg.sender...\n      SWAP2 \t\t\tSTNEAR.transferFrom(msg.sender...\n      SWAP1 \t\t\tSTNEAR.transferFrom(msg.sender...\n      PUSH [tag] 142\t\t\tSTNEAR.transferFrom(msg.sender...\n      JUMP \t\t\tSTNEAR.transferFrom(msg.sender...\n    tag 141\t\t\tSTNEAR.transferFrom(msg.sender...\n      JUMPDEST \t\t\tSTNEAR.transferFrom(msg.sender...\n      PUSH 20\t\t\tSTNEAR.transferFrom(msg.sender...\n      PUSH 40\t\t\tSTNEAR.transferFrom(msg.sender...\n      MLOAD \t\t\tSTNEAR.transferFrom(msg.sender...\n      DUP1 \t\t\tSTNEAR.transferFrom(msg.sender...\n      DUP4 \t\t\tSTNEAR.transferFrom(msg.sender...\n      SUB \t\t\tSTNEAR.transferFrom(msg.sender...\n      DUP2 \t\t\tSTNEAR.transferFrom(msg.sender...\n      PUSH 0\t\t\tSTNEAR.transferFrom(msg.sender...\n      DUP8 \t\t\tSTNEAR.transferFrom(msg.sender...\n      GAS \t\t\tSTNEAR.transferFrom(msg.sender...\n      CALL \t\t\tSTNEAR.transferFrom(msg.sender...\n      ISZERO \t\t\tSTNEAR.transferFrom(msg.sender...\n      DUP1 \t\t\tSTNEAR.transferFrom(msg.sender...\n      ISZERO \t\t\tSTNEAR.transferFrom(msg.sender...\n      PUSH [tag] 144\t\t\tSTNEAR.transferFrom(msg.sender...\n      JUMPI \t\t\tSTNEAR.transferFrom(msg.sender...\n      RETURNDATASIZE \t\t\tSTNEAR.transferFrom(msg.sender...\n      PUSH 0\t\t\tSTNEAR.transferFrom(msg.sender...\n      DUP1 \t\t\tSTNEAR.transferFrom(msg.sender...\n      RETURNDATACOPY \t\t\tSTNEAR.transferFrom(msg.sender...\n      RETURNDATASIZE \t\t\tSTNEAR.transferFrom(msg.sender...\n      PUSH 0\t\t\tSTNEAR.transferFrom(msg.sender...\n      REVERT \t\t\tSTNEAR.transferFrom(msg.sender...\n    tag 144\t\t\tSTNEAR.transferFrom(msg.sender...\n      JUMPDEST \t\t\tSTNEAR.transferFrom(msg.sender...\n      POP \t\t\tSTNEAR.transferFrom(msg.sender...\n      POP \t\t\tSTNEAR.transferFrom(msg.sender...\n      POP \t\t\tSTNEAR.transferFrom(msg.sender...\n      POP \t\t\tSTNEAR.transferFrom(msg.sender...\n      PUSH 40\t\t\tSTNEAR.transferFrom(msg.sender...\n      MLOAD \t\t\tSTNEAR.transferFrom(msg.sender...\n      RETURNDATASIZE \t\t\tSTNEAR.transferFrom(msg.sender...\n      PUSH 1F\t\t\tSTNEAR.transferFrom(msg.sender...\n      NOT \t\t\tSTNEAR.transferFrom(msg.sender...\n      PUSH 1F\t\t\tSTNEAR.transferFrom(msg.sender...\n      DUP3 \t\t\tSTNEAR.transferFrom(msg.sender...\n      ADD \t\t\tSTNEAR.transferFrom(msg.sender...\n      AND \t\t\tSTNEAR.transferFrom(msg.sender...\n      DUP3 \t\t\tSTNEAR.transferFrom(msg.sender...\n      ADD \t\t\tSTNEAR.transferFrom(msg.sender...\n      DUP1 \t\t\tSTNEAR.transferFrom(msg.sender...\n      PUSH 40\t\t\tSTNEAR.transferFrom(msg.sender...\n      MSTORE \t\t\tSTNEAR.transferFrom(msg.sender...\n      POP \t\t\tSTNEAR.transferFrom(msg.sender...\n      DUP2 \t\t\tSTNEAR.transferFrom(msg.sender...\n      ADD \t\t\tSTNEAR.transferFrom(msg.sender...\n      SWAP1 \t\t\tSTNEAR.transferFrom(msg.sender...\n      PUSH [tag] 145\t\t\tSTNEAR.transferFrom(msg.sender...\n      SWAP2 \t\t\tSTNEAR.transferFrom(msg.sender...\n      SWAP1 \t\t\tSTNEAR.transferFrom(msg.sender...\n      PUSH [tag] 146\t\t\tSTNEAR.transferFrom(msg.sender...\n      JUMP \t\t\tSTNEAR.transferFrom(msg.sender...\n    tag 145\t\t\tSTNEAR.transferFrom(msg.sender...\n      JUMPDEST \t\t\tSTNEAR.transferFrom(msg.sender...\n      PUSH [tag] 147\t\t\trequire(STNEAR.transferFrom(ms...\n      JUMPI \t\t\trequire(STNEAR.transferFrom(ms...\n      PUSH 40\t\t\trequire(STNEAR.transferFrom(ms...\n      MLOAD \t\t\trequire(STNEAR.transferFrom(ms...\n      PUSH 8C379A000000000000000000000000000000000000000000000000000000000\t\t\trequire(STNEAR.transferFrom(ms...\n      DUP2 \t\t\trequire(STNEAR.transferFrom(ms...\n      MSTORE \t\t\trequire(STNEAR.transferFrom(ms...\n      PUSH 4\t\t\trequire(STNEAR.transferFrom(ms...\n      ADD \t\t\trequire(STNEAR.transferFrom(ms...\n      PUSH [tag] 148\t\t\trequire(STNEAR.transferFrom(ms...\n      SWAP1 \t\t\trequire(STNEAR.transferFrom(ms...\n      PUSH [tag] 149\t\t\trequire(STNEAR.transferFrom(ms...\n      JUMP \t\t\trequire(STNEAR.transferFrom(ms...\n    tag 148\t\t\trequire(STNEAR.transferFrom(ms...\n      JUMPDEST \t\t\trequire(STNEAR.transferFrom(ms...\n      PUSH 40\t\t\trequire(STNEAR.transferFrom(ms...\n      MLOAD \t\t\trequire(STNEAR.transferFrom(ms...\n      DUP1 \t\t\trequire(STNEAR.transferFrom(ms...\n      SWAP2 \t\t\trequire(STNEAR.transferFrom(ms...\n      SUB \t\t\trequire(STNEAR.transferFrom(ms...\n      SWAP1 \t\t\trequire(STNEAR.transferFrom(ms...\n      REVERT \t\t\trequire(STNEAR.transferFrom(ms...\n    tag 147\t\t\trequire(STNEAR.transferFrom(ms...\n      JUMPDEST \t\t\trequire(STNEAR.transferFrom(ms...\n      PUSH 0\t\t\tTreeCollection treecollection\n      PUSH 7\t\t\ttreecollections\n      PUSH 0\t\t\ttreecollections[collectionID]\n      DUP5 \t\t\tcollectionID\n      DUP2 \t\t\ttreecollections[collectionID]\n      MSTORE \t\t\ttreecollections[collectionID]\n      PUSH 20\t\t\ttreecollections[collectionID]\n      ADD \t\t\ttreecollections[collectionID]\n      SWAP1 \t\t\ttreecollections[collectionID]\n      DUP2 \t\t\ttreecollections[collectionID]\n      MSTORE \t\t\ttreecollections[collectionID]\n      PUSH 20\t\t\ttreecollections[collectionID]\n      ADD \t\t\ttreecollections[collectionID]\n      PUSH 0\t\t\ttreecollections[collectionID]\n      KECCAK256 \t\t\ttreecollections[collectionID]\n      PUSH 0\t\t\ttreecollections[collectionID]\n      SWAP1 \t\t\ttreecollections[collectionID]\n      SLOAD \t\t\ttreecollections[collectionID]\n      SWAP1 \t\t\ttreecollections[collectionID]\n      PUSH 100\t\t\ttreecollections[collectionID]\n      EXP \t\t\ttreecollections[collectionID]\n      SWAP1 \t\t\ttreecollections[collectionID]\n      DIV \t\t\ttreecollections[collectionID]\n      PUSH FFFFFFFFFFFFFFFFFFFFFFFFFFFFFFFFFFFFFFFF\t\t\ttreecollections[collectionID]\n      AND \t\t\ttreecollections[collectionID]\n      SWAP1 \t\t\tTreeCollection treecollection ...\n      POP \t\t\tTreeCollection treecollection ...\n      DUP1 \t\t\ttreecollection\n      PUSH FFFFFFFFFFFFFFFFFFFFFFFFFFFFFFFFFFFFFFFF\t\t\ttreecollection.safeMint\n      AND \t\t\ttreecollection.safeMint\n      PUSH D204C45E\t\t\ttreecollection.safeMint\n      CALLER \t\t\tmsg.sender\n      DUP5 \t\t\t_uri\n      PUSH 40\t\t\ttreecollection.safeMint(msg.se...\n      MLOAD \t\t\ttreecollection.safeMint(msg.se...\n      DUP4 \t\t\ttreecollection.safeMint(msg.se...\n      PUSH FFFFFFFF\t\t\ttreecollection.safeMint(msg.se...\n      AND \t\t\ttreecollection.safeMint(msg.se...\n      PUSH E0\t\t\ttreecollection.safeMint(msg.se...\n      SHL \t\t\ttreecollection.safeMint(msg.se...\n      DUP2 \t\t\ttreecollection.safeMint(msg.se...\n      MSTORE \t\t\ttreecollection.safeMint(msg.se...\n      PUSH 4\t\t\ttreecollection.safeMint(msg.se...\n      ADD \t\t\ttreecollection.safeMint(msg.se...\n      PUSH [tag] 150\t\t\ttreecollection.safeMint(msg.se...\n      SWAP3 \t\t\ttreecollection.safeMint(msg.se...\n      SWAP2 \t\t\ttreecollection.safeMint(msg.se...\n      SWAP1 \t\t\ttreecollection.safeMint(msg.se...\n      PUSH [tag] 151\t\t\ttreecollection.safeMint(msg.se...\n      JUMP \t\t\ttreecollection.safeMint(msg.se...\n    tag 150\t\t\ttreecollection.safeMint(msg.se...\n      JUMPDEST \t\t\ttreecollection.safeMint(msg.se...\n      PUSH 0\t\t\ttreecollection.safeMint(msg.se...\n      PUSH 40\t\t\ttreecollection.safeMint(msg.se...\n      MLOAD \t\t\ttreecollection.safeMint(msg.se...\n      DUP1 \t\t\ttreecollection.safeMint(msg.se...\n      DUP4 \t\t\ttreecollection.safeMint(msg.se...\n      SUB \t\t\ttreecollection.safeMint(msg.se...\n      DUP2 \t\t\ttreecollection.safeMint(msg.se...\n      PUSH 0\t\t\ttreecollection.safeMint(msg.se...\n      DUP8 \t\t\ttreecollection.safeMint(msg.se...\n      DUP1 \t\t\ttreecollection.safeMint(msg.se...\n      EXTCODESIZE \t\t\ttreecollection.safeMint(msg.se...\n      ISZERO \t\t\ttreecollection.safeMint(msg.se...\n      DUP1 \t\t\ttreecollection.safeMint(msg.se...\n      ISZERO \t\t\ttreecollection.safeMint(msg.se...\n      PUSH [tag] 152\t\t\ttreecollection.safeMint(msg.se...\n      JUMPI \t\t\ttreecollection.safeMint(msg.se...\n      PUSH 0\t\t\ttreecollection.safeMint(msg.se...\n      DUP1 \t\t\ttreecollection.safeMint(msg.se...\n      REVERT \t\t\ttreecollection.safeMint(msg.se...\n    tag 152\t\t\ttreecollection.safeMint(msg.se...\n      JUMPDEST \t\t\ttreecollection.safeMint(msg.se...\n      POP \t\t\ttreecollection.safeMint(msg.se...\n      GAS \t\t\ttreecollection.safeMint(msg.se...\n      CALL \t\t\ttreecollection.safeMint(msg.se...\n      ISZERO \t\t\ttreecollection.safeMint(msg.se...\n      DUP1 \t\t\ttreecollection.safeMint(msg.se...\n      ISZERO \t\t\ttreecollection.safeMint(msg.se...\n      PUSH [tag] 154\t\t\ttreecollection.safeMint(msg.se...\n      JUMPI \t\t\ttreecollection.safeMint(msg.se...\n      RETURNDATASIZE \t\t\ttreecollection.safeMint(msg.se...\n      PUSH 0\t\t\ttreecollection.safeMint(msg.se...\n      DUP1 \t\t\ttreecollection.safeMint(msg.se...\n      RETURNDATACOPY \t\t\ttreecollection.safeMint(msg.se...\n      RETURNDATASIZE \t\t\ttreecollection.safeMint(msg.se...\n      PUSH 0\t\t\ttreecollection.safeMint(msg.se...\n      REVERT \t\t\ttreecollection.safeMint(msg.se...\n    tag 154\t\t\ttreecollection.safeMint(msg.se...\n      JUMPDEST \t\t\ttreecollection.safeMint(msg.se...\n      POP \t\t\ttreecollection.safeMint(msg.se...\n      POP \t\t\ttreecollection.safeMint(msg.se...\n      POP \t\t\ttreecollection.safeMint(msg.se...\n      POP \t\t\ttreecollection.safeMint(msg.se...\n      PUSH 0\t\t\tuint256 tokenID\n      DUP2 \t\t\ttreecollection\n      PUSH FFFFFFFFFFFFFFFFFFFFFFFFFFFFFFFFFFFFFFFF\t\t\ttreecollection.tokenIdCounter\n      AND \t\t\ttreecollection.tokenIdCounter\n      PUSH 98BDF6F5\t\t\ttreecollection.tokenIdCounter\n      PUSH 40\t\t\ttreecollection.tokenIdCounter(...\n      MLOAD \t\t\ttreecollection.tokenIdCounter(...\n      DUP2 \t\t\ttreecollection.tokenIdCounter(...\n      PUSH FFFFFFFF\t\t\ttreecollection.tokenIdCounter(...\n      AND \t\t\ttreecollection.tokenIdCounter(...\n      PUSH E0\t\t\ttreecollection.tokenIdCounter(...\n      SHL \t\t\ttreecollection.tokenIdCounter(...\n      DUP2 \t\t\ttreecollection.tokenIdCounter(...\n      MSTORE \t\t\ttreecollection.tokenIdCounter(...\n      PUSH 4\t\t\ttreecollection.tokenIdCounter(...\n      ADD \t\t\ttreecollection.tokenIdCounter(...\n      PUSH 20\t\t\ttreecollection.tokenIdCounter(...\n      PUSH 40\t\t\ttreecollection.tokenIdCounter(...\n      MLOAD \t\t\ttreecollection.tokenIdCounter(...\n      DUP1 \t\t\ttreecollection.tokenIdCounter(...\n      DUP4 \t\t\ttreecollection.tokenIdCounter(...\n      SUB \t\t\ttreecollection.tokenIdCounter(...\n      DUP2 \t\t\ttreecollection.tokenIdCounter(...\n      DUP7 \t\t\ttreecollection.tokenIdCounter(...\n      GAS \t\t\ttreecollection.tokenIdCounter(...\n      STATICCALL \t\t\ttreecollection.tokenIdCounter(...\n      ISZERO \t\t\ttreecollection.tokenIdCounter(...\n      DUP1 \t\t\ttreecollection.tokenIdCounter(...\n      ISZERO \t\t\ttreecollection.tokenIdCounter(...\n      PUSH [tag] 156\t\t\ttreecollection.tokenIdCounter(...\n      JUMPI \t\t\ttreecollection.tokenIdCounter(...\n      RETURNDATASIZE \t\t\ttreecollection.tokenIdCounter(...\n      PUSH 0\t\t\ttreecollection.tokenIdCounter(...\n      DUP1 \t\t\ttreecollection.tokenIdCounter(...\n      RETURNDATACOPY \t\t\ttreecollection.tokenIdCounter(...\n      RETURNDATASIZE \t\t\ttreecollection.tokenIdCounter(...\n      PUSH 0\t\t\ttreecollection.tokenIdCounter(...\n      REVERT \t\t\ttreecollection.tokenIdCounter(...\n    tag 156\t\t\ttreecollection.tokenIdCounter(...\n      JUMPDEST \t\t\ttreecollection.tokenIdCounter(...\n      POP \t\t\ttreecollection.tokenIdCounter(...\n      POP \t\t\ttreecollection.tokenIdCounter(...\n      POP \t\t\ttreecollection.tokenIdCounter(...\n      POP \t\t\ttreecollection.tokenIdCounter(...\n      PUSH 40\t\t\ttreecollection.tokenIdCounter(...\n      MLOAD \t\t\ttreecollection.tokenIdCounter(...\n      RETURNDATASIZE \t\t\ttreecollection.tokenIdCounter(...\n      PUSH 1F\t\t\ttreecollection.tokenIdCounter(...\n      NOT \t\t\ttreecollection.tokenIdCounter(...\n      PUSH 1F\t\t\ttreecollection.tokenIdCounter(...\n      DUP3 \t\t\ttreecollection.tokenIdCounter(...\n      ADD \t\t\ttreecollection.tokenIdCounter(...\n      AND \t\t\ttreecollection.tokenIdCounter(...\n      DUP3 \t\t\ttreecollection.tokenIdCounter(...\n      ADD \t\t\ttreecollection.tokenIdCounter(...\n      DUP1 \t\t\ttreecollection.tokenIdCounter(...\n      PUSH 40\t\t\ttreecollection.tokenIdCounter(...\n      MSTORE \t\t\ttreecollection.tokenIdCounter(...\n      POP \t\t\ttreecollection.tokenIdCounter(...\n      DUP2 \t\t\ttreecollection.tokenIdCounter(...\n      ADD \t\t\ttreecollection.tokenIdCounter(...\n      SWAP1 \t\t\ttreecollection.tokenIdCounter(...\n      PUSH [tag] 157\t\t\ttreecollection.tokenIdCounter(...\n      SWAP2 \t\t\ttreecollection.tokenIdCounter(...\n      SWAP1 \t\t\ttreecollection.tokenIdCounter(...\n      PUSH [tag] 158\t\t\ttreecollection.tokenIdCounter(...\n      JUMP \t\t\ttreecollection.tokenIdCounter(...\n    tag 157\t\t\ttreecollection.tokenIdCounter(...\n      JUMPDEST \t\t\ttreecollection.tokenIdCounter(...\n      SWAP1 \t\t\tuint256 tokenID = treecollecti...\n      POP \t\t\tuint256 tokenID = treecollecti...\n      PUSH 40\t\t\tTreeDetails(0, 0, 0, 0, true)\n      MLOAD \t\t\tTreeDetails(0, 0, 0, 0, true)\n      DUP1 \t\t\tTreeDetails(0, 0, 0, 0, true)\n      PUSH A0\t\t\tTreeDetails(0, 0, 0, 0, true)\n      ADD \t\t\tTreeDetails(0, 0, 0, 0, true)\n      PUSH 40\t\t\tTreeDetails(0, 0, 0, 0, true)\n      MSTORE \t\t\tTreeDetails(0, 0, 0, 0, true)\n      DUP1 \t\t\tTreeDetails(0, 0, 0, 0, true)\n      PUSH 0\t\t\t0\n      DUP2 \t\t\tTreeDetails(0, 0, 0, 0, true)\n      MSTORE \t\t\tTreeDetails(0, 0, 0, 0, true)\n      PUSH 20\t\t\tTreeDetails(0, 0, 0, 0, true)\n      ADD \t\t\tTreeDetails(0, 0, 0, 0, true)\n      PUSH 0\t\t\t0\n      DUP2 \t\t\tTreeDetails(0, 0, 0, 0, true)\n      MSTORE \t\t\tTreeDetails(0, 0, 0, 0, true)\n      PUSH 20\t\t\tTreeDetails(0, 0, 0, 0, true)\n      ADD \t\t\tTreeDetails(0, 0, 0, 0, true)\n      PUSH 0\t\t\t0\n      DUP2 \t\t\tTreeDetails(0, 0, 0, 0, true)\n      MSTORE \t\t\tTreeDetails(0, 0, 0, 0, true)\n      PUSH 20\t\t\tTreeDetails(0, 0, 0, 0, true)\n      ADD \t\t\tTreeDetails(0, 0, 0, 0, true)\n      PUSH 0\t\t\t0\n      DUP2 \t\t\tTreeDetails(0, 0, 0, 0, true)\n      MSTORE \t\t\tTreeDetails(0, 0, 0, 0, true)\n      PUSH 20\t\t\tTreeDetails(0, 0, 0, 0, true)\n      ADD \t\t\tTreeDetails(0, 0, 0, 0, true)\n      PUSH 1\t\t\ttrue\n      ISZERO \t\t\tTreeDetails(0, 0, 0, 0, true)\n      ISZERO \t\t\tTreeDetails(0, 0, 0, 0, true)\n      DUP2 \t\t\tTreeDetails(0, 0, 0, 0, true)\n      MSTORE \t\t\tTreeDetails(0, 0, 0, 0, true)\n      POP \t\t\tTreeDetails(0, 0, 0, 0, true)\n      PUSH 8\t\t\tuserTree\n      PUSH 0\t\t\tuserTree[collectionID]\n      DUP7 \t\t\tcollectionID\n      DUP2 \t\t\tuserTree[collectionID]\n      MSTORE \t\t\tuserTree[collectionID]\n      PUSH 20\t\t\tuserTree[collectionID]\n      ADD \t\t\tuserTree[collectionID]\n      SWAP1 \t\t\tuserTree[collectionID]\n      DUP2 \t\t\tuserTree[collectionID]\n      MSTORE \t\t\tuserTree[collectionID]\n      PUSH 20\t\t\tuserTree[collectionID]\n      ADD \t\t\tuserTree[collectionID]\n      PUSH 0\t\t\tuserTree[collectionID]\n      KECCAK256 \t\t\tuserTree[collectionID]\n      PUSH 0\t\t\tuserTree[collectionID].treeDet...\n      ADD \t\t\tuserTree[collectionID].treeDet...\n      PUSH 0\t\t\tuserTree[collectionID].treeDet...\n      DUP4 \t\t\ttokenID\n      DUP2 \t\t\tuserTree[collectionID].treeDet...\n      MSTORE \t\t\tuserTree[collectionID].treeDet...\n      PUSH 20\t\t\tuserTree[collectionID].treeDet...\n      ADD \t\t\tuserTree[collectionID].treeDet...\n      SWAP1 \t\t\tuserTree[collectionID].treeDet...\n      DUP2 \t\t\tuserTree[collectionID].treeDet...\n      MSTORE \t\t\tuserTree[collectionID].treeDet...\n      PUSH 20\t\t\tuserTree[collectionID].treeDet...\n      ADD \t\t\tuserTree[collectionID].treeDet...\n      PUSH 0\t\t\tuserTree[collectionID].treeDet...\n      KECCAK256 \t\t\tuserTree[collectionID].treeDet...\n      PUSH 0\t\t\tuserTree[collectionID].treeDet...\n      DUP3 \t\t\tuserTree[collectionID].treeDet...\n      ADD \t\t\tuserTree[collectionID].treeDet...\n      MLOAD \t\t\tuserTree[collectionID].treeDet...\n      DUP2 \t\t\tuserTree[collectionID].treeDet...\n      PUSH 0\t\t\tuserTree[collectionID].treeDet...\n      ADD \t\t\tuserTree[collectionID].treeDet...\n      SSTORE \t\t\tuserTree[collectionID].treeDet...\n      PUSH 20\t\t\tuserTree[collectionID].treeDet...\n      DUP3 \t\t\tuserTree[collectionID].treeDet...\n      ADD \t\t\tuserTree[collectionID].treeDet...\n      MLOAD \t\t\tuserTree[collectionID].treeDet...\n      DUP2 \t\t\tuserTree[collectionID].treeDet...\n      PUSH 1\t\t\tuserTree[collectionID].treeDet...\n      ADD \t\t\tuserTree[collectionID].treeDet...\n      SSTORE \t\t\tuserTree[collectionID].treeDet...\n      PUSH 40\t\t\tuserTree[collectionID].treeDet...\n      DUP3 \t\t\tuserTree[collectionID].treeDet...\n      ADD \t\t\tuserTree[collectionID].treeDet...\n      MLOAD \t\t\tuserTree[collectionID].treeDet...\n      DUP2 \t\t\tuserTree[collectionID].treeDet...\n      PUSH 2\t\t\tuserTree[collectionID].treeDet...\n      ADD \t\t\tuserTree[collectionID].treeDet...\n      SSTORE \t\t\tuserTree[collectionID].treeDet...\n      PUSH 60\t\t\tuserTree[collectionID].treeDet...\n      DUP3 \t\t\tuserTree[collectionID].treeDet...\n      ADD \t\t\tuserTree[collectionID].treeDet...\n      MLOAD \t\t\tuserTree[collectionID].treeDet...\n      DUP2 \t\t\tuserTree[collectionID].treeDet...\n      PUSH 3\t\t\tuserTree[collectionID].treeDet...\n      ADD \t\t\tuserTree[collectionID].treeDet...\n      SSTORE \t\t\tuserTree[collectionID].treeDet...\n      PUSH 80\t\t\tuserTree[collectionID].treeDet...\n      DUP3 \t\t\tuserTree[collectionID].treeDet...\n      ADD \t\t\tuserTree[collectionID].treeDet...\n      MLOAD \t\t\tuserTree[collectionID].treeDet...\n      DUP2 \t\t\tuserTree[collectionID].treeDet...\n      PUSH 4\t\t\tuserTree[collectionID].treeDet...\n      ADD \t\t\tuserTree[collectionID].treeDet...\n      PUSH 0\t\t\tuserTree[collectionID].treeDet...\n      PUSH 100\t\t\tuserTree[collectionID].treeDet...\n      EXP \t\t\tuserTree[collectionID].treeDet...\n      DUP2 \t\t\tuserTree[collectionID].treeDet...\n      SLOAD \t\t\tuserTree[collectionID].treeDet...\n      DUP2 \t\t\tuserTree[collectionID].treeDet...\n      PUSH FF\t\t\tuserTree[collectionID].treeDet...\n      MUL \t\t\tuserTree[collectionID].treeDet...\n      NOT \t\t\tuserTree[collectionID].treeDet...\n      AND \t\t\tuserTree[collectionID].treeDet...\n      SWAP1 \t\t\tuserTree[collectionID].treeDet...\n      DUP4 \t\t\tuserTree[collectionID].treeDet...\n      ISZERO \t\t\tuserTree[collectionID].treeDet...\n      ISZERO \t\t\tuserTree[collectionID].treeDet...\n      MUL \t\t\tuserTree[collectionID].treeDet...\n      OR \t\t\tuserTree[collectionID].treeDet...\n      SWAP1 \t\t\tuserTree[collectionID].treeDet...\n      SSTORE \t\t\tuserTree[collectionID].treeDet...\n      POP \t\t\tuserTree[collectionID].treeDet...\n      SWAP1 \t\t\tuserTree[collectionID].treeDet...\n      POP \t\t\tuserTree[collectionID].treeDet...\n      POP \t\t\tuserTree[collectionID].treeDet...\n      POP \t\t\t{\\r\\n\\r\\n        require(colle...\n      POP \t\t\t{\\r\\n\\r\\n        require(colle...\n      POP \t\t\tfunction mintTree(uint256 coll...\n      POP \t\t\tfunction mintTree(uint256 coll...\n      JUMP \t\t\tfunction mintTree(uint256 coll...\n    tag 65\t\t\tfunction returnNFTcount(uint25...\n      JUMPDEST \t\t\tfunction returnNFTcount(uint25...\n      PUSH 0\t\t\tuint256\n      PUSH 7\t\t\ttreecollections\n      PUSH 0\t\t\ttreecollections[collectionID]\n      DUP4 \t\t\tcollectionID\n      DUP2 \t\t\ttreecollections[collectionID]\n      MSTORE \t\t\ttreecollections[collectionID]\n      PUSH 20\t\t\ttreecollections[collectionID]\n      ADD \t\t\ttreecollections[collectionID]\n      SWAP1 \t\t\ttreecollections[collectionID]\n      DUP2 \t\t\ttreecollections[collectionID]\n      MSTORE \t\t\ttreecollections[collectionID]\n      PUSH 20\t\t\ttreecollections[collectionID]\n      ADD \t\t\ttreecollections[collectionID]\n      PUSH 0\t\t\ttreecollections[collectionID]\n      KECCAK256 \t\t\ttreecollections[collectionID]\n      PUSH 0\t\t\ttreecollections[collectionID]\n      SWAP1 \t\t\ttreecollections[collectionID]\n      SLOAD \t\t\ttreecollections[collectionID]\n      SWAP1 \t\t\ttreecollections[collectionID]\n      PUSH 100\t\t\ttreecollections[collectionID]\n      EXP \t\t\ttreecollections[collectionID]\n      SWAP1 \t\t\ttreecollections[collectionID]\n      DIV \t\t\ttreecollections[collectionID]\n      PUSH FFFFFFFFFFFFFFFFFFFFFFFFFFFFFFFFFFFFFFFF\t\t\ttreecollections[collectionID]\n      AND \t\t\ttreecollections[collectionID]\n      PUSH FFFFFFFFFFFFFFFFFFFFFFFFFFFFFFFFFFFFFFFF\t\t\ttreecollections[collectionID]....\n      AND \t\t\ttreecollections[collectionID]....\n      PUSH 98BDF6F5\t\t\ttreecollections[collectionID]....\n      PUSH 40\t\t\ttreecollections[collectionID]....\n      MLOAD \t\t\ttreecollections[collectionID]....\n      DUP2 \t\t\ttreecollections[collectionID]....\n      PUSH FFFFFFFF\t\t\ttreecollections[collectionID]....\n      AND \t\t\ttreecollections[collectionID]....\n      PUSH E0\t\t\ttreecollections[collectionID]....\n      SHL \t\t\ttreecollections[collectionID]....\n      DUP2 \t\t\ttreecollections[collectionID]....\n      MSTORE \t\t\ttreecollections[collectionID]....\n      PUSH 4\t\t\ttreecollections[collectionID]....\n      ADD \t\t\ttreecollections[collectionID]....\n      PUSH 20\t\t\ttreecollections[collectionID]....\n      PUSH 40\t\t\ttreecollections[collectionID]....\n      MLOAD \t\t\ttreecollections[collectionID]....\n      DUP1 \t\t\ttreecollections[collectionID]....\n      DUP4 \t\t\ttreecollections[collectionID]....\n      SUB \t\t\ttreecollections[collectionID]....\n      DUP2 \t\t\ttreecollections[collectionID]....\n      DUP7 \t\t\ttreecollections[collectionID]....\n      GAS \t\t\ttreecollections[collectionID]....\n      STATICCALL \t\t\ttreecollections[collectionID]....\n      ISZERO \t\t\ttreecollections[collectionID]....\n      DUP1 \t\t\ttreecollections[collectionID]....\n      ISZERO \t\t\ttreecollections[collectionID]....\n      PUSH [tag] 161\t\t\ttreecollections[collectionID]....\n      JUMPI \t\t\ttreecollections[collectionID]....\n      RETURNDATASIZE \t\t\ttreecollections[collectionID]....\n      PUSH 0\t\t\ttreecollections[collectionID]....\n      DUP1 \t\t\ttreecollections[collectionID]....\n      RETURNDATACOPY \t\t\ttreecollections[collectionID]....\n      RETURNDATASIZE \t\t\ttreecollections[collectionID]....\n      PUSH 0\t\t\ttreecollections[collectionID]....\n      REVERT \t\t\ttreecollections[collectionID]....\n    tag 161\t\t\ttreecollections[collectionID]....\n      JUMPDEST \t\t\ttreecollections[collectionID]....\n      POP \t\t\ttreecollections[collectionID]....\n      POP \t\t\ttreecollections[collectionID]....\n      POP \t\t\ttreecollections[collectionID]....\n      POP \t\t\ttreecollections[collectionID]....\n      PUSH 40\t\t\ttreecollections[collectionID]....\n      MLOAD \t\t\ttreecollections[collectionID]....\n      RETURNDATASIZE \t\t\ttreecollections[collectionID]....\n      PUSH 1F\t\t\ttreecollections[collectionID]....\n      NOT \t\t\ttreecollections[collectionID]....\n      PUSH 1F\t\t\ttreecollections[collectionID]....\n      DUP3 \t\t\ttreecollections[collectionID]....\n      ADD \t\t\ttreecollections[collectionID]....\n      AND \t\t\ttreecollections[collectionID]....\n      DUP3 \t\t\ttreecollections[collectionID]....\n      ADD \t\t\ttreecollections[collectionID]....\n      DUP1 \t\t\ttreecollections[collectionID]....\n      PUSH 40\t\t\ttreecollections[collectionID]....\n      MSTORE \t\t\ttreecollections[collectionID]....\n      POP \t\t\ttreecollections[collectionID]....\n      DUP2 \t\t\ttreecollections[collectionID]....\n      ADD \t\t\ttreecollections[collectionID]....\n      SWAP1 \t\t\ttreecollections[collectionID]....\n      PUSH [tag] 162\t\t\ttreecollections[collectionID]....\n      SWAP2 \t\t\ttreecollections[collectionID]....\n      SWAP1 \t\t\ttreecollections[collectionID]....\n      PUSH [tag] 158\t\t\ttreecollections[collectionID]....\n      JUMP \t\t\ttreecollections[collectionID]....\n    tag 162\t\t\ttreecollections[collectionID]....\n      JUMPDEST \t\t\ttreecollections[collectionID]....\n      SWAP1 \t\t\treturn (treecollections[collec...\n      POP \t\t\treturn (treecollections[collec...\n      SWAP2 \t\t\tfunction returnNFTcount(uint25...\n      SWAP1 \t\t\tfunction returnNFTcount(uint25...\n      POP \t\t\tfunction returnNFTcount(uint25...\n      JUMP \t\t\tfunction returnNFTcount(uint25...\n    tag 70\t\t\t.ownerOf(_tokenID) == msg.send...\n      JUMPDEST \t\t\t.ownerOf(_tokenID) == msg.send...\n      PUSH 0\t\t\tuire(\\r\\n\n      DUP1 \t\t\timestamp \n      PUSH 0\t\t\timestamp - userTre\n      DUP4 \t\t\t userTr\n      PUSH FFFFFFFFFFFFFFFFFFFFFFFFFFFFFFFFFFFFFFFF\t\t\timestamp - userTre\n      AND \t\t\timestamp - userTre\n      PUSH FFFFFFFFFFFFFFFFFFFFFFFFFFFFFFFFFFFFFFFF\t\t\timestamp - userTre\n      AND \t\t\timestamp - userTre\n      DUP2 \t\t\timestamp - userTre\n      MSTORE \t\t\timestamp - userTre\n      PUSH 20\t\t\timestamp - userTre\n      ADD \t\t\timestamp - userTre\n      SWAP1 \t\t\timestamp - userTre\n      DUP2 \t\t\timestamp - userTre\n      MSTORE \t\t\timestamp - userTre\n      PUSH 20\t\t\timestamp - userTre\n      ADD \t\t\timestamp - userTre\n      PUSH 0\t\t\timestamp - userTre\n      KECCAK256 \t\t\timestamp - userTre\n      SLOAD \t\t\timestamp - userTre\n      SWAP1 \t\t\tblock.timestamp - userTre\n      POP \t\t\tblock.timestamp - userTre\n      SWAP2 \t\t\t.ownerOf(_tokenID) == msg.send...\n      SWAP1 \t\t\t.ownerOf(_tokenID) == msg.send...\n      POP \t\t\t.ownerOf(_tokenID) == msg.send...\n      JUMP \t\t\t.ownerOf(_tokenID) == msg.send...\n    tag 73\t\t\tfunction mintNewTreeCollection...\n      JUMPDEST \t\t\tfunction mintNewTreeCollection...\n      PUSH 6\t\t\tadmin\n      PUSH 0\t\t\tadmin\n      SWAP1 \t\t\tadmin\n      SLOAD \t\t\tadmin\n      SWAP1 \t\t\tadmin\n      PUSH 100\t\t\tadmin\n      EXP \t\t\tadmin\n      SWAP1 \t\t\tadmin\n      DIV \t\t\tadmin\n      PUSH FFFFFFFFFFFFFFFFFFFFFFFFFFFFFFFFFFFFFFFF\t\t\tadmin\n      AND \t\t\tadmin\n      PUSH FFFFFFFFFFFFFFFFFFFFFFFFFFFFFFFFFFFFFFFF\t\t\tmsg.sender == admin\n      AND \t\t\tmsg.sender == admin\n      CALLER \t\t\tmsg.sender\n      PUSH FFFFFFFFFFFFFFFFFFFFFFFFFFFFFFFFFFFFFFFF\t\t\tmsg.sender == admin\n      AND \t\t\tmsg.sender == admin\n      EQ \t\t\tmsg.sender == admin\n      PUSH [tag] 165\t\t\trequire(msg.sender == admin, \"...\n      JUMPI \t\t\trequire(msg.sender == admin, \"...\n      PUSH 40\t\t\trequire(msg.sender == admin, \"...\n      MLOAD \t\t\trequire(msg.sender == admin, \"...\n      PUSH 8C379A000000000000000000000000000000000000000000000000000000000\t\t\trequire(msg.sender == admin, \"...\n      DUP2 \t\t\trequire(msg.sender == admin, \"...\n      MSTORE \t\t\trequire(msg.sender == admin, \"...\n      PUSH 4\t\t\trequire(msg.sender == admin, \"...\n      ADD \t\t\trequire(msg.sender == admin, \"...\n      PUSH [tag] 166\t\t\trequire(msg.sender == admin, \"...\n      SWAP1 \t\t\trequire(msg.sender == admin, \"...\n      PUSH [tag] 167\t\t\trequire(msg.sender == admin, \"...\n      JUMP \t\t\trequire(msg.sender == admin, \"...\n    tag 166\t\t\trequire(msg.sender == admin, \"...\n      JUMPDEST \t\t\trequire(msg.sender == admin, \"...\n      PUSH 40\t\t\trequire(msg.sender == admin, \"...\n      MLOAD \t\t\trequire(msg.sender == admin, \"...\n      DUP1 \t\t\trequire(msg.sender == admin, \"...\n      SWAP2 \t\t\trequire(msg.sender == admin, \"...\n      SUB \t\t\trequire(msg.sender == admin, \"...\n      SWAP1 \t\t\trequire(msg.sender == admin, \"...\n      REVERT \t\t\trequire(msg.sender == admin, \"...\n    tag 165\t\t\trequire(msg.sender == admin, \"...\n      JUMPDEST \t\t\trequire(msg.sender == admin, \"...\n      PUSH [tag] 168\t\t\tTreeCollectionCounter.incremen...\n      PUSH 5\t\t\tTreeCollectionCounter\n      PUSH [tag] 169\t\t\tTreeCollectionCounter.incremen...\n      JUMP \t\t\tTreeCollectionCounter.incremen...\n    tag 168\t\t\tTreeCollectionCounter.incremen...\n      JUMPDEST \t\t\tTreeCollectionCounter.incremen...\n      PUSH 0\t\t\tuint256 collectionID\n      PUSH [tag] 170\t\t\tTreeCollectionCounter.current(...\n      PUSH 5\t\t\tTreeCollectionCounter\n      PUSH [tag] 171\t\t\tTreeCollectionCounter.current\n      JUMP \t\t\tTreeCollectionCounter.current(...\n    tag 170\t\t\tTreeCollectionCounter.current(...\n      JUMPDEST \t\t\tTreeCollectionCounter.current(...\n      SWAP1 \t\t\tuint256 collectionID = TreeCol...\n      POP \t\t\tuint256 collectionID = TreeCol...\n      PUSH 0\t\t\tTreeCollection newCollection\n      PUSH 40\t\t\tnew TreeCollection()\n      MLOAD \t\t\tnew TreeCollection()\n      PUSH [tag] 172\t\t\tnew TreeCollection()\n      SWAP1 \t\t\tnew TreeCollection()\n      PUSH [tag] 173\t\t\tnew TreeCollection()\n      JUMP \t\t\tnew TreeCollection()\n    tag 172\t\t\tnew TreeCollection()\n      JUMPDEST \t\t\tnew TreeCollection()\n      PUSH 40\t\t\tnew TreeCollection()\n      MLOAD \t\t\tnew TreeCollection()\n      DUP1 \t\t\tnew TreeCollection()\n      SWAP2 \t\t\tnew TreeCollection()\n      SUB \t\t\tnew TreeCollection()\n      SWAP1 \t\t\tnew TreeCollection()\n      PUSH 0\t\t\tnew TreeCollection()\n      CREATE \t\t\tnew TreeCollection()\n      DUP1 \t\t\tnew TreeCollection()\n      ISZERO \t\t\tnew TreeCollection()\n      DUP1 \t\t\tnew TreeCollection()\n      ISZERO \t\t\tnew TreeCollection()\n      PUSH [tag] 174\t\t\tnew TreeCollection()\n      JUMPI \t\t\tnew TreeCollection()\n      RETURNDATASIZE \t\t\tnew TreeCollection()\n      PUSH 0\t\t\tnew TreeCollection()\n      DUP1 \t\t\tnew TreeCollection()\n      RETURNDATACOPY \t\t\tnew TreeCollection()\n      RETURNDATASIZE \t\t\tnew TreeCollection()\n      PUSH 0\t\t\tnew TreeCollection()\n      REVERT \t\t\tnew TreeCollection()\n    tag 174\t\t\tnew TreeCollection()\n      JUMPDEST \t\t\tnew TreeCollection()\n      POP \t\t\tnew TreeCollection()\n      SWAP1 \t\t\tTreeCollection newCollection =...\n      POP \t\t\tTreeCollection newCollection =...\n      DUP1 \t\t\tnewCollection\n      PUSH 7\t\t\ttreecollections\n      PUSH 0\t\t\ttreecollections[collectionID]\n      DUP5 \t\t\tcollectionID\n      DUP2 \t\t\ttreecollections[collectionID]\n      MSTORE \t\t\ttreecollections[collectionID]\n      PUSH 20\t\t\ttreecollections[collectionID]\n      ADD \t\t\ttreecollections[collectionID]\n      SWAP1 \t\t\ttreecollections[collectionID]\n      DUP2 \t\t\ttreecollections[collectionID]\n      MSTORE \t\t\ttreecollections[collectionID]\n      PUSH 20\t\t\ttreecollections[collectionID]\n      ADD \t\t\ttreecollections[collectionID]\n      PUSH 0\t\t\ttreecollections[collectionID]\n      KECCAK256 \t\t\ttreecollections[collectionID]\n      PUSH 0\t\t\ttreecollections[collectionID]\n      PUSH 100\t\t\ttreecollections[collectionID] ...\n      EXP \t\t\ttreecollections[collectionID] ...\n      DUP2 \t\t\ttreecollections[collectionID] ...\n      SLOAD \t\t\ttreecollections[collectionID] ...\n      DUP2 \t\t\ttreecollections[collectionID] ...\n      PUSH FFFFFFFFFFFFFFFFFFFFFFFFFFFFFFFFFFFFFFFF\t\t\ttreecollections[collectionID] ...\n      MUL \t\t\ttreecollections[collectionID] ...\n      NOT \t\t\ttreecollections[collectionID] ...\n      AND \t\t\ttreecollections[collectionID] ...\n      SWAP1 \t\t\ttreecollections[collectionID] ...\n      DUP4 \t\t\ttreecollections[collectionID] ...\n      PUSH FFFFFFFFFFFFFFFFFFFFFFFFFFFFFFFFFFFFFFFF\t\t\ttreecollections[collectionID] ...\n      AND \t\t\ttreecollections[collectionID] ...\n      MUL \t\t\ttreecollections[collectionID] ...\n      OR \t\t\ttreecollections[collectionID] ...\n      SWAP1 \t\t\ttreecollections[collectionID] ...\n      SSTORE \t\t\ttreecollections[collectionID] ...\n      POP \t\t\ttreecollections[collectionID] ...\n      PUSH 1\t\t\ttrue\n      PUSH 9\t\t\tcollectionInitialized\n      PUSH 0\t\t\tcollectionInitialized[collecti...\n      DUP5 \t\t\tcollectionID\n      DUP2 \t\t\tcollectionInitialized[collecti...\n      MSTORE \t\t\tcollectionInitialized[collecti...\n      PUSH 20\t\t\tcollectionInitialized[collecti...\n      ADD \t\t\tcollectionInitialized[collecti...\n      SWAP1 \t\t\tcollectionInitialized[collecti...\n      DUP2 \t\t\tcollectionInitialized[collecti...\n      MSTORE \t\t\tcollectionInitialized[collecti...\n      PUSH 20\t\t\tcollectionInitialized[collecti...\n      ADD \t\t\tcollectionInitialized[collecti...\n      PUSH 0\t\t\tcollectionInitialized[collecti...\n      KECCAK256 \t\t\tcollectionInitialized[collecti...\n      PUSH 0\t\t\tcollectionInitialized[collecti...\n      PUSH 100\t\t\tcollectionInitialized[collecti...\n      EXP \t\t\tcollectionInitialized[collecti...\n      DUP2 \t\t\tcollectionInitialized[collecti...\n      SLOAD \t\t\tcollectionInitialized[collecti...\n      DUP2 \t\t\tcollectionInitialized[collecti...\n      PUSH FF\t\t\tcollectionInitialized[collecti...\n      MUL \t\t\tcollectionInitialized[collecti...\n      NOT \t\t\tcollectionInitialized[collecti...\n      AND \t\t\tcollectionInitialized[collecti...\n      SWAP1 \t\t\tcollectionInitialized[collecti...\n      DUP4 \t\t\tcollectionInitialized[collecti...\n      ISZERO \t\t\tcollectionInitialized[collecti...\n      ISZERO \t\t\tcollectionInitialized[collecti...\n      MUL \t\t\tcollectionInitialized[collecti...\n      OR \t\t\tcollectionInitialized[collecti...\n      SWAP1 \t\t\tcollectionInitialized[collecti...\n      SSTORE \t\t\tcollectionInitialized[collecti...\n      POP \t\t\tcollectionInitialized[collecti...\n      POP \t\t\t{\\r\\n        require(msg.sende...\n      POP \t\t\t{\\r\\n        require(msg.sende...\n      JUMP \t\t\tfunction mintNewTreeCollection...\n    tag 75\t\t\tID] == true, \"Collection is no...\n      JUMPDEST \t\t\tID] == true, \"Collection is no...\n      PUSH 60\t\t\t  require(use\n      PUSH 4\t\t\t].treeD\n      DUP1 \t\t\tctionID].treeD\n      SLOAD \t\t\tctionID].treeD\n      PUSH [tag] 176\t\t\tctionID].treeD\n      SWAP1 \t\t\tctionID].treeD\n      PUSH [tag] 108\t\t\tctionID].treeD\n      JUMP \t\t\tctionID].treeD\n    tag 176\t\t\tctionID].treeD\n      JUMPDEST \t\t\tctionID].treeD\n      DUP1 \t\t\tctionID].treeD\n      PUSH 1F\t\t\tctionID].treeD\n      ADD \t\t\tctionID].treeD\n      PUSH 20\t\t\tctionID].treeD\n      DUP1 \t\t\tctionID].treeD\n      SWAP2 \t\t\tctionID].treeD\n      DIV \t\t\tctionID].treeD\n      MUL \t\t\tctionID].treeD\n      PUSH 20\t\t\tctionID].treeD\n      ADD \t\t\tctionID].treeD\n      PUSH 40\t\t\tctionID].treeD\n      MLOAD \t\t\tctionID].treeD\n      SWAP1 \t\t\tctionID].treeD\n      DUP2 \t\t\tctionID].treeD\n      ADD \t\t\tctionID].treeD\n      PUSH 40\t\t\tctionID].treeD\n      MSTORE \t\t\tctionID].treeD\n      DUP1 \t\t\tctionID].treeD\n      SWAP3 \t\t\tctionID].treeD\n      SWAP2 \t\t\tctionID].treeD\n      SWAP1 \t\t\tctionID].treeD\n      DUP2 \t\t\tctionID].treeD\n      DUP2 \t\t\tctionID].treeD\n      MSTORE \t\t\tctionID].treeD\n      PUSH 20\t\t\tctionID].treeD\n      ADD \t\t\tctionID].treeD\n      DUP3 \t\t\tctionID].treeD\n      DUP1 \t\t\tctionID].treeD\n      SLOAD \t\t\tctionID].treeD\n      PUSH [tag] 177\t\t\tctionID].treeD\n      SWAP1 \t\t\tctionID].treeD\n      PUSH [tag] 108\t\t\tctionID].treeD\n      JUMP \t\t\tctionID].treeD\n    tag 177\t\t\tctionID].treeD\n      JUMPDEST \t\t\tctionID].treeD\n      DUP1 \t\t\tctionID].treeD\n      ISZERO \t\t\tctionID].treeD\n      PUSH [tag] 178\t\t\tctionID].treeD\n      JUMPI \t\t\tctionID].treeD\n      DUP1 \t\t\tctionID].treeD\n      PUSH 1F\t\t\tctionID].treeD\n      LT \t\t\tctionID].treeD\n      PUSH [tag] 179\t\t\tctionID].treeD\n      JUMPI \t\t\tctionID].treeD\n      PUSH 100\t\t\tctionID].treeD\n      DUP1 \t\t\tctionID].treeD\n      DUP4 \t\t\tctionID].treeD\n      SLOAD \t\t\tctionID].treeD\n      DIV \t\t\tctionID].treeD\n      MUL \t\t\tctionID].treeD\n      DUP4 \t\t\tctionID].treeD\n      MSTORE \t\t\tctionID].treeD\n      SWAP2 \t\t\tctionID].treeD\n      PUSH 20\t\t\tctionID].treeD\n      ADD \t\t\tctionID].treeD\n      SWAP2 \t\t\tctionID].treeD\n      PUSH [tag] 178\t\t\tctionID].treeD\n      JUMP \t\t\tctionID].treeD\n    tag 179\t\t\tctionID].treeD\n      JUMPDEST \t\t\tctionID].treeD\n      DUP3 \t\t\tctionID].treeD\n      ADD \t\t\tctionID].treeD\n      SWAP2 \t\t\tctionID].treeD\n      SWAP1 \t\t\tctionID].treeD\n      PUSH 0\t\t\tctionID].treeD\n      MSTORE \t\t\tctionID].treeD\n      PUSH 20\t\t\tctionID].treeD\n      PUSH 0\t\t\tctionID].treeD\n      KECCAK256 \t\t\tctionID].treeD\n      SWAP1 \t\t\tctionID].treeD\n    tag 180\t\t\tctionID].treeD\n      JUMPDEST \t\t\tctionID].treeD\n      DUP2 \t\t\tctionID].treeD\n      SLOAD \t\t\tctionID].treeD\n      DUP2 \t\t\tctionID].treeD\n      MSTORE \t\t\tctionID].treeD\n      SWAP1 \t\t\tctionID].treeD\n      PUSH 1\t\t\tctionID].treeD\n      ADD \t\t\tctionID].treeD\n      SWAP1 \t\t\tctionID].treeD\n      PUSH 20\t\t\tctionID].treeD\n      ADD \t\t\tctionID].treeD\n      DUP1 \t\t\tctionID].treeD\n      DUP4 \t\t\tctionID].treeD\n      GT \t\t\tctionID].treeD\n      PUSH [tag] 180\t\t\tctionID].treeD\n      JUMPI \t\t\tctionID].treeD\n      DUP3 \t\t\tctionID].treeD\n      SWAP1 \t\t\tctionID].treeD\n      SUB \t\t\tctionID].treeD\n      PUSH 1F\t\t\tctionID].treeD\n      AND \t\t\tctionID].treeD\n      DUP3 \t\t\tctionID].treeD\n      ADD \t\t\tctionID].treeD\n      SWAP2 \t\t\tctionID].treeD\n    tag 178\t\t\tctionID].treeD\n      JUMPDEST \t\t\tctionID].treeD\n      POP \t\t\tctionID].treeD\n      POP \t\t\tctionID].treeD\n      POP \t\t\tctionID].treeD\n      POP \t\t\tctionID].treeD\n      POP \t\t\tctionID].treeD\n      SWAP1 \t\t\tctionID].treeD\n      POP \t\t\tctionID].treeD\n      SWAP1 \t\t\tID] == true, \"Collection is no...\n      JUMP \t\t\tID] == true, \"Collection is no...\n    tag 79\t\t\t\n      JUMPDEST \t\t\t\n      PUSH 0\t\t\t\n      DUP1 \t\t\t\n      PUSH [tag] 182\t\t\t\n      PUSH [tag] 115\t\t\t\n      JUMP \t\t\t\n    tag 182\t\t\t\n      JUMPDEST \t\t\t\n      SWAP1 \t\t\t\n      POP \t\t\t\n      PUSH 0\t\t\t\n      PUSH [tag] 183\t\t\t\n      DUP3 \t\t\t\n      DUP7 \t\t\t\n      PUSH [tag] 100\t\t\t\n      JUMP \t\t\t\n    tag 183\t\t\t\n      JUMPDEST \t\t\t\n      SWAP1 \t\t\t\n      POP \t\t\t\n      DUP4 \t\t\t\n      DUP2 \t\t\t\n      LT \t\t\t\n      ISZERO \t\t\t\n      PUSH [tag] 184\t\t\t\n      JUMPI \t\t\t\n      PUSH 40\t\t\t\n      MLOAD \t\t\t\n      PUSH 8C379A000000000000000000000000000000000000000000000000000000000\t\t\t\n      DUP2 \t\t\t\n      MSTORE \t\t\t\n      PUSH 4\t\t\t\n      ADD \t\t\t\n      PUSH [tag] 185\t\t\t\n      SWAP1 \t\t\t\n      PUSH [tag] 186\t\t\t\n      JUMP \t\t\t\n    tag 185\t\t\t\n      JUMPDEST \t\t\t\n      PUSH 40\t\t\t\n      MLOAD \t\t\t\n      DUP1 \t\t\t\n      SWAP2 \t\t\t\n      SUB \t\t\t\n      SWAP1 \t\t\t\n      REVERT \t\t\t\n    tag 184\t\t\t\n      JUMPDEST \t\t\t\n      PUSH [tag] 187\t\t\t\n      DUP3 \t\t\t\n      DUP7 \t\t\t\n      DUP7 \t\t\t\n      DUP5 \t\t\t\n      SUB \t\t\t\n      PUSH [tag] 117\t\t\t\n      JUMP \t\t\t\n    tag 187\t\t\t\n      JUMPDEST \t\t\t\n      PUSH 1\t\t\t\n      SWAP3 \t\t\t\n      POP \t\t\t\n      POP \t\t\t\n      POP \t\t\t\n      SWAP3 \t\t\t\n      SWAP2 \t\t\t\n      POP \t\t\t\n      POP \t\t\t\n      JUMP \t\t\t\n    tag 82\t\t\tCounters.Counter public TreeCo...\n      JUMPDEST \t\t\tCounters.Counter public TreeCo...\n      PUSH 5\t\t\tCounters.Counter public TreeCo...\n      DUP1 \t\t\tCounters.Counter public TreeCo...\n      PUSH 0\t\t\tCounters.Counter public TreeCo...\n      ADD \t\t\tCounters.Counter public TreeCo...\n      SLOAD \t\t\tCounters.Counter public TreeCo...\n      SWAP1 \t\t\tCounters.Counter public TreeCo...\n      POP \t\t\tCounters.Counter public TreeCo...\n      DUP2 \t\t\tCounters.Counter public TreeCo...\n      JUMP \t\t\tCounters.Counter public TreeCo...\n    tag 86\t\t\timed > 86400,\\r\\n            \"...\n      JUMPDEST \t\t\timed > 86400,\\r\\n            \"...\n      PUSH 0\t\t\tctio\n      DUP1 \t\t\tails[_tokenID\n      PUSH [tag] 189\t\t\tastClaimed =\n      PUSH [tag] 115\t\t\tastClaimed\n      JUMP \t\t\tastClaimed =\n    tag 189\t\t\tastClaimed =\n      JUMPDEST \t\t\tastClaimed =\n      SWAP1 \t\t\tails[_tokenID].lastClaimed =\n      POP \t\t\tails[_tokenID].lastClaimed =\n      PUSH [tag] 190\t\t\testamp;\\r\\n        userTree[_c\n      DUP2 \t\t\t     \n      DUP6 \t\t\tus\n      DUP6 \t\t\tTree[_\n      PUSH [tag] 127\t\t\testamp;\\r\\n\n      JUMP \t\t\testamp;\\r\\n        userTree[_c\n    tag 190\t\t\testamp;\\r\\n        userTree[_c\n      JUMPDEST \t\t\testamp;\\r\\n        userTree[_c\n      PUSH 1\t\t\tDeta\n      SWAP2 \t\t\tD].treeDeta\n      POP \t\t\tD].treeDeta\n      POP \t\t\tD].treeDeta\n      SWAP3 \t\t\timed > 86400,\\r\\n            \"...\n      SWAP2 \t\t\timed > 86400,\\r\\n            \"...\n      POP \t\t\timed > 86400,\\r\\n            \"...\n      POP \t\t\timed > 86400,\\r\\n            \"...\n      JUMP \t\t\timed > 86400,\\r\\n            \"...\n    tag 90\t\t\tmapping(uint256 => TreeCollect...\n      JUMPDEST \t\t\tmapping(uint256 => TreeCollect...\n      PUSH 7\t\t\tmapping(uint256 => TreeCollect...\n      PUSH 20\t\t\tmapping(uint256 => TreeCollect...\n      MSTORE \t\t\tmapping(uint256 => TreeCollect...\n      DUP1 \t\t\tmapping(uint256 => TreeCollect...\n      PUSH 0\t\t\tmapping(uint256 => TreeCollect...\n      MSTORE \t\t\tmapping(uint256 => TreeCollect...\n      PUSH 40\t\t\tmapping(uint256 => TreeCollect...\n      PUSH 0\t\t\tmapping(uint256 => TreeCollect...\n      KECCAK256 \t\t\tmapping(uint256 => TreeCollect...\n      PUSH 0\t\t\tmapping(uint256 => TreeCollect...\n      SWAP2 \t\t\tmapping(uint256 => TreeCollect...\n      POP \t\t\tmapping(uint256 => TreeCollect...\n      SLOAD \t\t\tmapping(uint256 => TreeCollect...\n      SWAP1 \t\t\tmapping(uint256 => TreeCollect...\n      PUSH 100\t\t\tmapping(uint256 => TreeCollect...\n      EXP \t\t\tmapping(uint256 => TreeCollect...\n      SWAP1 \t\t\tmapping(uint256 => TreeCollect...\n      DIV \t\t\tmapping(uint256 => TreeCollect...\n      PUSH FFFFFFFFFFFFFFFFFFFFFFFFFFFFFFFFFFFFFFFF\t\t\tmapping(uint256 => TreeCollect...\n      AND \t\t\tmapping(uint256 => TreeCollect...\n      DUP2 \t\t\tmapping(uint256 => TreeCollect...\n      JUMP \t\t\tmapping(uint256 => TreeCollect...\n    tag 95\t\t\tfunction claim(uint256 _collec...\n      JUMPDEST \t\t\tfunction claim(uint256 _collec...\n      PUSH 0\t\t\tbool\n      PUSH 1\t\t\ttrue\n      ISZERO \t\t\tcollectionInitialized[_collect...\n      ISZERO \t\t\tcollectionInitialized[_collect...\n      PUSH 9\t\t\tcollectionInitialized\n      PUSH 0\t\t\tcollectionInitialized[_collect...\n      DUP6 \t\t\t_collectionID\n      DUP2 \t\t\tcollectionInitialized[_collect...\n      MSTORE \t\t\tcollectionInitialized[_collect...\n      PUSH 20\t\t\tcollectionInitialized[_collect...\n      ADD \t\t\tcollectionInitialized[_collect...\n      SWAP1 \t\t\tcollectionInitialized[_collect...\n      DUP2 \t\t\tcollectionInitialized[_collect...\n      MSTORE \t\t\tcollectionInitialized[_collect...\n      PUSH 20\t\t\tcollectionInitialized[_collect...\n      ADD \t\t\tcollectionInitialized[_collect...\n      PUSH 0\t\t\tcollectionInitialized[_collect...\n      KECCAK256 \t\t\tcollectionInitialized[_collect...\n      PUSH 0\t\t\tcollectionInitialized[_collect...\n      SWAP1 \t\t\tcollectionInitialized[_collect...\n      SLOAD \t\t\tcollectionInitialized[_collect...\n      SWAP1 \t\t\tcollectionInitialized[_collect...\n      PUSH 100\t\t\tcollectionInitialized[_collect...\n      EXP \t\t\tcollectionInitialized[_collect...\n      SWAP1 \t\t\tcollectionInitialized[_collect...\n      DIV \t\t\tcollectionInitialized[_collect...\n      PUSH FF\t\t\tcollectionInitialized[_collect...\n      AND \t\t\tcollectionInitialized[_collect...\n      ISZERO \t\t\tcollectionInitialized[_collect...\n      ISZERO \t\t\tcollectionInitialized[_collect...\n      EQ \t\t\tcollectionInitialized[_collect...\n      PUSH [tag] 192\t\t\trequire(collectionInitialized[...\n      JUMPI \t\t\trequire(collectionInitialized[...\n      PUSH 40\t\t\trequire(collectionInitialized[...\n      MLOAD \t\t\trequire(collectionInitialized[...\n      PUSH 8C379A000000000000000000000000000000000000000000000000000000000\t\t\trequire(collectionInitialized[...\n      DUP2 \t\t\trequire(collectionInitialized[...\n      MSTORE \t\t\trequire(collectionInitialized[...\n      PUSH 4\t\t\trequire(collectionInitialized[...\n      ADD \t\t\trequire(collectionInitialized[...\n      PUSH [tag] 193\t\t\trequire(collectionInitialized[...\n      SWAP1 \t\t\trequire(collectionInitialized[...\n      PUSH [tag] 194\t\t\trequire(collectionInitialized[...\n      JUMP \t\t\trequire(collectionInitialized[...\n    tag 193\t\t\trequire(collectionInitialized[...\n      JUMPDEST \t\t\trequire(collectionInitialized[...\n      PUSH 40\t\t\trequire(collectionInitialized[...\n      MLOAD \t\t\trequire(collectionInitialized[...\n      DUP1 \t\t\trequire(collectionInitialized[...\n      SWAP2 \t\t\trequire(collectionInitialized[...\n      SUB \t\t\trequire(collectionInitialized[...\n      SWAP1 \t\t\trequire(collectionInitialized[...\n      REVERT \t\t\trequire(collectionInitialized[...\n    tag 192\t\t\trequire(collectionInitialized[...\n      JUMPDEST \t\t\trequire(collectionInitialized[...\n      PUSH 8\t\t\tuserTree\n      PUSH 0\t\t\tuserTree[_collectionID]\n      DUP5 \t\t\t_collectionID\n      DUP2 \t\t\tuserTree[_collectionID]\n      MSTORE \t\t\tuserTree[_collectionID]\n      PUSH 20\t\t\tuserTree[_collectionID]\n      ADD \t\t\tuserTree[_collectionID]\n      SWAP1 \t\t\tuserTree[_collectionID]\n      DUP2 \t\t\tuserTree[_collectionID]\n      MSTORE \t\t\tuserTree[_collectionID]\n      PUSH 20\t\t\tuserTree[_collectionID]\n      ADD \t\t\tuserTree[_collectionID]\n      PUSH 0\t\t\tuserTree[_collectionID]\n      KECCAK256 \t\t\tuserTree[_collectionID]\n      PUSH 0\t\t\tuserTree[_collectionID].treeDe...\n      ADD \t\t\tuserTree[_collectionID].treeDe...\n      PUSH 0\t\t\tuserTree[_collectionID].treeDe...\n      DUP4 \t\t\t_tokenID\n      DUP2 \t\t\tuserTree[_collectionID].treeDe...\n      MSTORE \t\t\tuserTree[_collectionID].treeDe...\n      PUSH 20\t\t\tuserTree[_collectionID].treeDe...\n      ADD \t\t\tuserTree[_collectionID].treeDe...\n      SWAP1 \t\t\tuserTree[_collectionID].treeDe...\n      DUP2 \t\t\tuserTree[_collectionID].treeDe...\n      MSTORE \t\t\tuserTree[_collectionID].treeDe...\n      PUSH 20\t\t\tuserTree[_collectionID].treeDe...\n      ADD \t\t\tuserTree[_collectionID].treeDe...\n      PUSH 0\t\t\tuserTree[_collectionID].treeDe...\n      KECCAK256 \t\t\tuserTree[_collectionID].treeDe...\n      PUSH 4\t\t\tuserTree[_collectionID].treeDe...\n      ADD \t\t\tuserTree[_collectionID].treeDe...\n      PUSH 0\t\t\tuserTree[_collectionID].treeDe...\n      SWAP1 \t\t\tuserTree[_collectionID].treeDe...\n      SLOAD \t\t\tuserTree[_collectionID].treeDe...\n      SWAP1 \t\t\tuserTree[_collectionID].treeDe...\n      PUSH 100\t\t\tuserTree[_collectionID].treeDe...\n      EXP \t\t\tuserTree[_collectionID].treeDe...\n      SWAP1 \t\t\tuserTree[_collectionID].treeDe...\n      DIV \t\t\tuserTree[_collectionID].treeDe...\n      PUSH FF\t\t\tuserTree[_collectionID].treeDe...\n      AND \t\t\tuserTree[_collectionID].treeDe...\n      PUSH [tag] 195\t\t\trequire(userTree[_collectionID...\n      JUMPI \t\t\trequire(userTree[_collectionID...\n      PUSH 40\t\t\trequire(userTree[_collectionID...\n      MLOAD \t\t\trequire(userTree[_collectionID...\n      PUSH 8C379A000000000000000000000000000000000000000000000000000000000\t\t\trequire(userTree[_collectionID...\n      DUP2 \t\t\trequire(userTree[_collectionID...\n      MSTORE \t\t\trequire(userTree[_collectionID...\n      PUSH 4\t\t\trequire(userTree[_collectionID...\n      ADD \t\t\trequire(userTree[_collectionID...\n      PUSH [tag] 196\t\t\trequire(userTree[_collectionID...\n      SWAP1 \t\t\trequire(userTree[_collectionID...\n      PUSH [tag] 197\t\t\trequire(userTree[_collectionID...\n      JUMP \t\t\trequire(userTree[_collectionID...\n    tag 196\t\t\trequire(userTree[_collectionID...\n      JUMPDEST \t\t\trequire(userTree[_collectionID...\n      PUSH 40\t\t\trequire(userTree[_collectionID...\n      MLOAD \t\t\trequire(userTree[_collectionID...\n      DUP1 \t\t\trequire(userTree[_collectionID...\n      SWAP2 \t\t\trequire(userTree[_collectionID...\n      SUB \t\t\trequire(userTree[_collectionID...\n      SWAP1 \t\t\trequire(userTree[_collectionID...\n      REVERT \t\t\trequire(userTree[_collectionID...\n    tag 195\t\t\trequire(userTree[_collectionID...\n      JUMPDEST \t\t\trequire(userTree[_collectionID...\n      PUSH 0\t\t\tTreeCollection treecollection\n      PUSH 7\t\t\ttreecollections\n      PUSH 0\t\t\ttreecollections[_collectionID]\n      DUP6 \t\t\t_collectionID\n      DUP2 \t\t\ttreecollections[_collectionID]\n      MSTORE \t\t\ttreecollections[_collectionID]\n      PUSH 20\t\t\ttreecollections[_collectionID]\n      ADD \t\t\ttreecollections[_collectionID]\n      SWAP1 \t\t\ttreecollections[_collectionID]\n      DUP2 \t\t\ttreecollections[_collectionID]\n      MSTORE \t\t\ttreecollections[_collectionID]\n      PUSH 20\t\t\ttreecollections[_collectionID]\n      ADD \t\t\ttreecollections[_collectionID]\n      PUSH 0\t\t\ttreecollections[_collectionID]\n      KECCAK256 \t\t\ttreecollections[_collectionID]\n      PUSH 0\t\t\ttreecollections[_collectionID]\n      SWAP1 \t\t\ttreecollections[_collectionID]\n      SLOAD \t\t\ttreecollections[_collectionID]\n      SWAP1 \t\t\ttreecollections[_collectionID]\n      PUSH 100\t\t\ttreecollections[_collectionID]\n      EXP \t\t\ttreecollections[_collectionID]\n      SWAP1 \t\t\ttreecollections[_collectionID]\n      DIV \t\t\ttreecollections[_collectionID]\n      PUSH FFFFFFFFFFFFFFFFFFFFFFFFFFFFFFFFFFFFFFFF\t\t\ttreecollections[_collectionID]\n      AND \t\t\ttreecollections[_collectionID]\n      SWAP1 \t\t\tTreeCollection treecollection ...\n      POP \t\t\tTreeCollection treecollection ...\n      CALLER \t\t\tmsg.sender\n      PUSH FFFFFFFFFFFFFFFFFFFFFFFFFFFFFFFFFFFFFFFF\t\t\ttreecollection.ownerOf(_tokenI...\n      AND \t\t\ttreecollection.ownerOf(_tokenI...\n      DUP2 \t\t\ttreecollection\n      PUSH FFFFFFFFFFFFFFFFFFFFFFFFFFFFFFFFFFFFFFFF\t\t\ttreecollection.ownerOf\n      AND \t\t\ttreecollection.ownerOf\n      PUSH 6352211E\t\t\ttreecollection.ownerOf\n      DUP6 \t\t\t_tokenID\n      PUSH 40\t\t\ttreecollection.ownerOf(_tokenI...\n      MLOAD \t\t\ttreecollection.ownerOf(_tokenI...\n      DUP3 \t\t\ttreecollection.ownerOf(_tokenI...\n      PUSH FFFFFFFF\t\t\ttreecollection.ownerOf(_tokenI...\n      AND \t\t\ttreecollection.ownerOf(_tokenI...\n      PUSH E0\t\t\ttreecollection.ownerOf(_tokenI...\n      SHL \t\t\ttreecollection.ownerOf(_tokenI...\n      DUP2 \t\t\ttreecollection.ownerOf(_tokenI...\n      MSTORE \t\t\ttreecollection.ownerOf(_tokenI...\n      PUSH 4\t\t\ttreecollection.ownerOf(_tokenI...\n      ADD \t\t\ttreecollection.ownerOf(_tokenI...\n      PUSH [tag] 198\t\t\ttreecollection.ownerOf(_tokenI...\n      SWAP2 \t\t\ttreecollection.ownerOf(_tokenI...\n      SWAP1 \t\t\ttreecollection.ownerOf(_tokenI...\n      PUSH [tag] 38\t\t\ttreecollection.ownerOf(_tokenI...\n      JUMP \t\t\ttreecollection.ownerOf(_tokenI...\n    tag 198\t\t\ttreecollection.ownerOf(_tokenI...\n      JUMPDEST \t\t\ttreecollection.ownerOf(_tokenI...\n      PUSH 20\t\t\ttreecollection.ownerOf(_tokenI...\n      PUSH 40\t\t\ttreecollection.ownerOf(_tokenI...\n      MLOAD \t\t\ttreecollection.ownerOf(_tokenI...\n      DUP1 \t\t\ttreecollection.ownerOf(_tokenI...\n      DUP4 \t\t\ttreecollection.ownerOf(_tokenI...\n      SUB \t\t\ttreecollection.ownerOf(_tokenI...\n      DUP2 \t\t\ttreecollection.ownerOf(_tokenI...\n      DUP7 \t\t\ttreecollection.ownerOf(_tokenI...\n      GAS \t\t\ttreecollection.ownerOf(_tokenI...\n      STATICCALL \t\t\ttreecollection.ownerOf(_tokenI...\n      ISZERO \t\t\ttreecollection.ownerOf(_tokenI...\n      DUP1 \t\t\ttreecollection.ownerOf(_tokenI...\n      ISZERO \t\t\ttreecollection.ownerOf(_tokenI...\n      PUSH [tag] 200\t\t\ttreecollection.ownerOf(_tokenI...\n      JUMPI \t\t\ttreecollection.ownerOf(_tokenI...\n      RETURNDATASIZE \t\t\ttreecollection.ownerOf(_tokenI...\n      PUSH 0\t\t\ttreecollection.ownerOf(_tokenI...\n      DUP1 \t\t\ttreecollection.ownerOf(_tokenI...\n      RETURNDATACOPY \t\t\ttreecollection.ownerOf(_tokenI...\n      RETURNDATASIZE \t\t\ttreecollection.ownerOf(_tokenI...\n      PUSH 0\t\t\ttreecollection.ownerOf(_tokenI...\n      REVERT \t\t\ttreecollection.ownerOf(_tokenI...\n    tag 200\t\t\ttreecollection.ownerOf(_tokenI...\n      JUMPDEST \t\t\ttreecollection.ownerOf(_tokenI...\n      POP \t\t\ttreecollection.ownerOf(_tokenI...\n      POP \t\t\ttreecollection.ownerOf(_tokenI...\n      POP \t\t\ttreecollection.ownerOf(_tokenI...\n      POP \t\t\ttreecollection.ownerOf(_tokenI...\n      PUSH 40\t\t\ttreecollection.ownerOf(_tokenI...\n      MLOAD \t\t\ttreecollection.ownerOf(_tokenI...\n      RETURNDATASIZE \t\t\ttreecollection.ownerOf(_tokenI...\n      PUSH 1F\t\t\ttreecollection.ownerOf(_tokenI...\n      NOT \t\t\ttreecollection.ownerOf(_tokenI...\n      PUSH 1F\t\t\ttreecollection.ownerOf(_tokenI...\n      DUP3 \t\t\ttreecollection.ownerOf(_tokenI...\n      ADD \t\t\ttreecollection.ownerOf(_tokenI...\n      AND \t\t\ttreecollection.ownerOf(_tokenI...\n      DUP3 \t\t\ttreecollection.ownerOf(_tokenI...\n      ADD \t\t\ttreecollection.ownerOf(_tokenI...\n      DUP1 \t\t\ttreecollection.ownerOf(_tokenI...\n      PUSH 40\t\t\ttreecollection.ownerOf(_tokenI...\n      MSTORE \t\t\ttreecollection.ownerOf(_tokenI...\n      POP \t\t\ttreecollection.ownerOf(_tokenI...\n      DUP2 \t\t\ttreecollection.ownerOf(_tokenI...\n      ADD \t\t\ttreecollection.ownerOf(_tokenI...\n      SWAP1 \t\t\ttreecollection.ownerOf(_tokenI...\n      PUSH [tag] 201\t\t\ttreecollection.ownerOf(_tokenI...\n      SWAP2 \t\t\ttreecollection.ownerOf(_tokenI...\n      SWAP1 \t\t\ttreecollection.ownerOf(_tokenI...\n      PUSH [tag] 202\t\t\ttreecollection.ownerOf(_tokenI...\n      JUMP \t\t\ttreecollection.ownerOf(_tokenI...\n    tag 201\t\t\ttreecollection.ownerOf(_tokenI...\n      JUMPDEST \t\t\ttreecollection.ownerOf(_tokenI...\n      PUSH FFFFFFFFFFFFFFFFFFFFFFFFFFFFFFFFFFFFFFFF\t\t\ttreecollection.ownerOf(_tokenI...\n      AND \t\t\ttreecollection.ownerOf(_tokenI...\n      EQ \t\t\ttreecollection.ownerOf(_tokenI...\n      PUSH [tag] 203\t\t\trequire(treecollection.ownerOf...\n      JUMPI \t\t\trequire(treecollection.ownerOf...\n      PUSH 40\t\t\trequire(treecollection.ownerOf...\n      MLOAD \t\t\trequire(treecollection.ownerOf...\n      PUSH 8C379A000000000000000000000000000000000000000000000000000000000\t\t\trequire(treecollection.ownerOf...\n      DUP2 \t\t\trequire(treecollection.ownerOf...\n      MSTORE \t\t\trequire(treecollection.ownerOf...\n      PUSH 4\t\t\trequire(treecollection.ownerOf...\n      ADD \t\t\trequire(treecollection.ownerOf...\n      PUSH [tag] 204\t\t\trequire(treecollection.ownerOf...\n      SWAP1 \t\t\trequire(treecollection.ownerOf...\n      PUSH [tag] 205\t\t\trequire(treecollection.ownerOf...\n      JUMP \t\t\trequire(treecollection.ownerOf...\n    tag 204\t\t\trequire(treecollection.ownerOf...\n      JUMPDEST \t\t\trequire(treecollection.ownerOf...\n      PUSH 40\t\t\trequire(treecollection.ownerOf...\n      MLOAD \t\t\trequire(treecollection.ownerOf...\n      DUP1 \t\t\trequire(treecollection.ownerOf...\n      SWAP2 \t\t\trequire(treecollection.ownerOf...\n      SUB \t\t\trequire(treecollection.ownerOf...\n      SWAP1 \t\t\trequire(treecollection.ownerOf...\n      REVERT \t\t\trequire(treecollection.ownerOf...\n    tag 203\t\t\trequire(treecollection.ownerOf...\n      JUMPDEST \t\t\trequire(treecollection.ownerOf...\n      PUSH A8C0\t\t\t43200\n      PUSH 8\t\t\tuserTree\n      PUSH 0\t\t\tuserTree[_collectionID]\n      DUP7 \t\t\t_collectionID\n      DUP2 \t\t\tuserTree[_collectionID]\n      MSTORE \t\t\tuserTree[_collectionID]\n      PUSH 20\t\t\tuserTree[_collectionID]\n      ADD \t\t\tuserTree[_collectionID]\n      SWAP1 \t\t\tuserTree[_collectionID]\n      DUP2 \t\t\tuserTree[_collectionID]\n      MSTORE \t\t\tuserTree[_collectionID]\n      PUSH 20\t\t\tuserTree[_collectionID]\n      ADD \t\t\tuserTree[_collectionID]\n      PUSH 0\t\t\tuserTree[_collectionID]\n      KECCAK256 \t\t\tuserTree[_collectionID]\n      PUSH 0\t\t\tuserTree[_collectionID].treeDe...\n      ADD \t\t\tuserTree[_collectionID].treeDe...\n      PUSH 0\t\t\tuserTree[_collectionID].treeDe...\n      DUP6 \t\t\t_tokenID\n      DUP2 \t\t\tuserTree[_collectionID].treeDe...\n      MSTORE \t\t\tuserTree[_collectionID].treeDe...\n      PUSH 20\t\t\tuserTree[_collectionID].treeDe...\n      ADD \t\t\tuserTree[_collectionID].treeDe...\n      SWAP1 \t\t\tuserTree[_collectionID].treeDe...\n      DUP2 \t\t\tuserTree[_collectionID].treeDe...\n      MSTORE \t\t\tuserTree[_collectionID].treeDe...\n      PUSH 20\t\t\tuserTree[_collectionID].treeDe...\n      ADD \t\t\tuserTree[_collectionID].treeDe...\n      PUSH 0\t\t\tuserTree[_collectionID].treeDe...\n      KECCAK256 \t\t\tuserTree[_collectionID].treeDe...\n      PUSH 0\t\t\tuserTree[_collectionID].treeDe...\n      ADD \t\t\tuserTree[_collectionID].treeDe...\n      SLOAD \t\t\tuserTree[_collectionID].treeDe...\n      TIMESTAMP \t\t\tblock.timestamp\n      PUSH [tag] 206\t\t\tblock.timestamp - userTree[_co...\n      SWAP2 \t\t\tblock.timestamp - userTree[_co...\n      SWAP1 \t\t\tblock.timestamp - userTree[_co...\n      PUSH [tag] 207\t\t\tblock.timestamp - userTree[_co...\n      JUMP \t\t\tblock.timestamp - userTree[_co...\n    tag 206\t\t\tblock.timestamp - userTree[_co...\n      JUMPDEST \t\t\tblock.timestamp - userTree[_co...\n      GT \t\t\tblock.timestamp - userTree[_co...\n      ISZERO \t\t\tblock.timestamp - userTree[_co...\n      PUSH [tag] 208\t\t\trequire(\\r\\n            block....\n      JUMPI \t\t\trequire(\\r\\n            block....\n      PUSH 40\t\t\trequire(\\r\\n            block....\n      MLOAD \t\t\trequire(\\r\\n            block....\n      PUSH 8C379A000000000000000000000000000000000000000000000000000000000\t\t\trequire(\\r\\n            block....\n      DUP2 \t\t\trequire(\\r\\n            block....\n      MSTORE \t\t\trequire(\\r\\n            block....\n      PUSH 4\t\t\trequire(\\r\\n            block....\n      ADD \t\t\trequire(\\r\\n            block....\n      PUSH [tag] 209\t\t\trequire(\\r\\n            block....\n      SWAP1 \t\t\trequire(\\r\\n            block....\n      PUSH [tag] 210\t\t\trequire(\\r\\n            block....\n      JUMP \t\t\trequire(\\r\\n            block....\n    tag 209\t\t\trequire(\\r\\n            block....\n      JUMPDEST \t\t\trequire(\\r\\n            block....\n      PUSH 40\t\t\trequire(\\r\\n            block....\n      MLOAD \t\t\trequire(\\r\\n            block....\n      DUP1 \t\t\trequire(\\r\\n            block....\n      SWAP2 \t\t\trequire(\\r\\n            block....\n      SUB \t\t\trequire(\\r\\n            block....\n      SWAP1 \t\t\trequire(\\r\\n            block....\n      REVERT \t\t\trequire(\\r\\n            block....\n    tag 208\t\t\trequire(\\r\\n            block....\n      JUMPDEST \t\t\trequire(\\r\\n            block....\n      PUSH 15180\t\t\t86400\n      PUSH 8\t\t\tuserTree\n      PUSH 0\t\t\tuserTree[_collectionID]\n      DUP7 \t\t\t_collectionID\n      DUP2 \t\t\tuserTree[_collectionID]\n      MSTORE \t\t\tuserTree[_collectionID]\n      PUSH 20\t\t\tuserTree[_collectionID]\n      ADD \t\t\tuserTree[_collectionID]\n      SWAP1 \t\t\tuserTree[_collectionID]\n      DUP2 \t\t\tuserTree[_collectionID]\n      MSTORE \t\t\tuserTree[_collectionID]\n      PUSH 20\t\t\tuserTree[_collectionID]\n      ADD \t\t\tuserTree[_collectionID]\n      PUSH 0\t\t\tuserTree[_collectionID]\n      KECCAK256 \t\t\tuserTree[_collectionID]\n      PUSH 0\t\t\tuserTree[_collectionID].treeDe...\n      ADD \t\t\tuserTree[_collectionID].treeDe...\n      PUSH 0\t\t\tuserTree[_collectionID].treeDe...\n      DUP6 \t\t\t_tokenID\n      DUP2 \t\t\tuserTree[_collectionID].treeDe...\n      MSTORE \t\t\tuserTree[_collectionID].treeDe...\n      PUSH 20\t\t\tuserTree[_collectionID].treeDe...\n      ADD \t\t\tuserTree[_collectionID].treeDe...\n      SWAP1 \t\t\tuserTree[_collectionID].treeDe...\n      DUP2 \t\t\tuserTree[_collectionID].treeDe...\n      MSTORE \t\t\tuserTree[_collectionID].treeDe...\n      PUSH 20\t\t\tuserTree[_collectionID].treeDe...\n      ADD \t\t\tuserTree[_collectionID].treeDe...\n      PUSH 0\t\t\tuserTree[_collectionID].treeDe...\n      KECCAK256 \t\t\tuserTree[_collectionID].treeDe...\n      PUSH 1\t\t\tuserTree[_collectionID].treeDe...\n      ADD \t\t\tuserTree[_collectionID].treeDe...\n      SLOAD \t\t\tuserTree[_collectionID].treeDe...\n      TIMESTAMP \t\t\tblock.timestamp\n      PUSH [tag] 211\t\t\tblock.timestamp - userTree[_co...\n      SWAP2 \t\t\tblock.timestamp - userTree[_co...\n      SWAP1 \t\t\tblock.timestamp - userTree[_co...\n      PUSH [tag] 207\t\t\tblock.timestamp - userTree[_co...\n      JUMP \t\t\tblock.timestamp - userTree[_co...\n    tag 211\t\t\tblock.timestamp - userTree[_co...\n      JUMPDEST \t\t\tblock.timestamp - userTree[_co...\n      GT \t\t\tblock.timestamp - userTree[_co...\n      PUSH [tag] 212\t\t\trequire(\\r\\n            block....\n      JUMPI \t\t\trequire(\\r\\n            block....\n      PUSH 40\t\t\trequire(\\r\\n            block....\n      MLOAD \t\t\trequire(\\r\\n            block....\n      PUSH 8C379A000000000000000000000000000000000000000000000000000000000\t\t\trequire(\\r\\n            block....\n      DUP2 \t\t\trequire(\\r\\n            block....\n      MSTORE \t\t\trequire(\\r\\n            block....\n      PUSH 4\t\t\trequire(\\r\\n            block....\n      ADD \t\t\trequire(\\r\\n            block....\n      PUSH [tag] 213\t\t\trequire(\\r\\n            block....\n      SWAP1 \t\t\trequire(\\r\\n            block....\n      PUSH [tag] 214\t\t\trequire(\\r\\n            block....\n      JUMP \t\t\trequire(\\r\\n            block....\n    tag 213\t\t\trequire(\\r\\n            block....\n      JUMPDEST \t\t\trequire(\\r\\n            block....\n      PUSH 40\t\t\trequire(\\r\\n            block....\n      MLOAD \t\t\trequire(\\r\\n            block....\n      DUP1 \t\t\trequire(\\r\\n            block....\n      SWAP2 \t\t\trequire(\\r\\n            block....\n      SUB \t\t\trequire(\\r\\n            block....\n      SWAP1 \t\t\trequire(\\r\\n            block....\n      REVERT \t\t\trequire(\\r\\n            block....\n    tag 212\t\t\trequire(\\r\\n            block....\n      JUMPDEST \t\t\trequire(\\r\\n            block....\n      TIMESTAMP \t\t\tblock.timestamp\n      PUSH 8\t\t\tuserTree\n      PUSH 0\t\t\tuserTree[_collectionID]\n      DUP7 \t\t\t_collectionID\n      DUP2 \t\t\tuserTree[_collectionID]\n      MSTORE \t\t\tuserTree[_collectionID]\n      PUSH 20\t\t\tuserTree[_collectionID]\n      ADD \t\t\tuserTree[_collectionID]\n      SWAP1 \t\t\tuserTree[_collectionID]\n      DUP2 \t\t\tuserTree[_collectionID]\n      MSTORE \t\t\tuserTree[_collectionID]\n      PUSH 20\t\t\tuserTree[_collectionID]\n      ADD \t\t\tuserTree[_collectionID]\n      PUSH 0\t\t\tuserTree[_collectionID]\n      KECCAK256 \t\t\tuserTree[_collectionID]\n      PUSH 0\t\t\tuserTree[_collectionID].treeDe...\n      ADD \t\t\tuserTree[_collectionID].treeDe...\n      PUSH 0\t\t\tuserTree[_collectionID].treeDe...\n      DUP6 \t\t\t_tokenID\n      DUP2 \t\t\tuserTree[_collectionID].treeDe...\n      MSTORE \t\t\tuserTree[_collectionID].treeDe...\n      PUSH 20\t\t\tuserTree[_collectionID].treeDe...\n      ADD \t\t\tuserTree[_collectionID].treeDe...\n      SWAP1 \t\t\tuserTree[_collectionID].treeDe...\n      DUP2 \t\t\tuserTree[_collectionID].treeDe...\n      MSTORE \t\t\tuserTree[_collectionID].treeDe...\n      PUSH 20\t\t\tuserTree[_collectionID].treeDe...\n      ADD \t\t\tuserTree[_collectionID].treeDe...\n      PUSH 0\t\t\tuserTree[_collectionID].treeDe...\n      KECCAK256 \t\t\tuserTree[_collectionID].treeDe...\n      PUSH 1\t\t\tuserTree[_collectionID].treeDe...\n      ADD \t\t\tuserTree[_collectionID].treeDe...\n      DUP2 \t\t\tuserTree[_collectionID].treeDe...\n      SWAP1 \t\t\tuserTree[_collectionID].treeDe...\n      SSTORE \t\t\tuserTree[_collectionID].treeDe...\n      POP \t\t\tuserTree[_collectionID].treeDe...\n      PUSH 5\t\t\t5\n      PUSH 8\t\t\tuserTree\n      PUSH 0\t\t\tuserTree[_collectionID]\n      DUP7 \t\t\t_collectionID\n      DUP2 \t\t\tuserTree[_collectionID]\n      MSTORE \t\t\tuserTree[_collectionID]\n      PUSH 20\t\t\tuserTree[_collectionID]\n      ADD \t\t\tuserTree[_collectionID]\n      SWAP1 \t\t\tuserTree[_collectionID]\n      DUP2 \t\t\tuserTree[_collectionID]\n      MSTORE \t\t\tuserTree[_collectionID]\n      PUSH 20\t\t\tuserTree[_collectionID]\n      ADD \t\t\tuserTree[_collectionID]\n      PUSH 0\t\t\tuserTree[_collectionID]\n      KECCAK256 \t\t\tuserTree[_collectionID]\n      PUSH 0\t\t\tuserTree[_collectionID].treeDe...\n      ADD \t\t\tuserTree[_collectionID].treeDe...\n      PUSH 0\t\t\tuserTree[_collectionID].treeDe...\n      DUP6 \t\t\t_tokenID\n      DUP2 \t\t\tuserTree[_collectionID].treeDe...\n      MSTORE \t\t\tuserTree[_collectionID].treeDe...\n      PUSH 20\t\t\tuserTree[_collectionID].treeDe...\n      ADD \t\t\tuserTree[_collectionID].treeDe...\n      SWAP1 \t\t\tuserTree[_collectionID].treeDe...\n      DUP2 \t\t\tuserTree[_collectionID].treeDe...\n      MSTORE \t\t\tuserTree[_collectionID].treeDe...\n      PUSH 20\t\t\tuserTree[_collectionID].treeDe...\n      ADD \t\t\tuserTree[_collectionID].treeDe...\n      PUSH 0\t\t\tuserTree[_collectionID].treeDe...\n      KECCAK256 \t\t\tuserTree[_collectionID].treeDe...\n      PUSH 3\t\t\tuserTree[_collectionID].treeDe...\n      ADD \t\t\tuserTree[_collectionID].treeDe...\n      PUSH 0\t\t\tuserTree[_collectionID].treeDe...\n      DUP3 \t\t\tuserTree[_collectionID].treeDe...\n      DUP3 \t\t\tuserTree[_collectionID].treeDe...\n      SLOAD \t\t\tuserTree[_collectionID].treeDe...\n      PUSH [tag] 215\t\t\tuserTree[_collectionID].treeDe...\n      SWAP2 \t\t\tuserTree[_collectionID].treeDe...\n      SWAP1 \t\t\tuserTree[_collectionID].treeDe...\n      PUSH [tag] 134\t\t\tuserTree[_collectionID].treeDe...\n      JUMP \t\t\tuserTree[_collectionID].treeDe...\n    tag 215\t\t\tuserTree[_collectionID].treeDe...\n      JUMPDEST \t\t\tuserTree[_collectionID].treeDe...\n      SWAP3 \t\t\tuserTree[_collectionID].treeDe...\n      POP \t\t\tuserTree[_collectionID].treeDe...\n      POP \t\t\tuserTree[_collectionID].treeDe...\n      DUP2 \t\t\tuserTree[_collectionID].treeDe...\n      SWAP1 \t\t\tuserTree[_collectionID].treeDe...\n      SSTORE \t\t\tuserTree[_collectionID].treeDe...\n      POP \t\t\tuserTree[_collectionID].treeDe...\n      PUSH [tag] 216\t\t\tmint(msg.sender, 5 * gne)\n      CALLER \t\t\tmsg.sender\n      PUSHIMMUTABLE 3642\t\t\tgne\n      PUSH 5\t\t\t5\n      PUSH [tag] 217\t\t\t5 * gne\n      SWAP2 \t\t\t5 * gne\n      SWAP1 \t\t\t5 * gne\n      PUSH [tag] 140\t\t\t5 * gne\n      JUMP \t\t\t5 * gne\n    tag 217\t\t\t5 * gne\n      JUMPDEST \t\t\t5 * gne\n      PUSH [tag] 218\t\t\tmint\n      JUMP \t\t\tmint(msg.sender, 5 * gne)\n    tag 216\t\t\tmint(msg.sender, 5 * gne)\n      JUMPDEST \t\t\tmint(msg.sender, 5 * gne)\n      PUSH 1\t\t\ttrue\n      SWAP2 \t\t\treturn true\n      POP \t\t\treturn true\n      POP \t\t\treturn true\n      SWAP3 \t\t\tfunction claim(uint256 _collec...\n      SWAP2 \t\t\tfunction claim(uint256 _collec...\n      POP \t\t\tfunction claim(uint256 _collec...\n      POP \t\t\tfunction claim(uint256 _collec...\n      JUMP \t\t\tfunction claim(uint256 _collec...\n    tag 100\t\t\tne);\\r\\n\\r\\n        return tru...\n      JUMPDEST \t\t\tne);\\r\\n\\r\\n        return tru...\n      PUSH 0\t\t\tuint256\n      PUSH 1\t\t\tew returns(\n      PUSH 0\t\t\tew returns(TreeDet\n      DUP5 \t\t\treeDe\n      PUSH FFFFFFFFFFFFFFFFFFFFFFFFFFFFFFFFFFFFFFFF\t\t\tew returns(TreeDet\n      AND \t\t\tew returns(TreeDet\n      PUSH FFFFFFFFFFFFFFFFFFFFFFFFFFFFFFFFFFFFFFFF\t\t\tew returns(TreeDet\n      AND \t\t\tew returns(TreeDet\n      DUP2 \t\t\tew returns(TreeDet\n      MSTORE \t\t\tew returns(TreeDet\n      PUSH 20\t\t\tew returns(TreeDet\n      ADD \t\t\tew returns(TreeDet\n      SWAP1 \t\t\tew returns(TreeDet\n      DUP2 \t\t\tew returns(TreeDet\n      MSTORE \t\t\tew returns(TreeDet\n      PUSH 20\t\t\tew returns(TreeDet\n      ADD \t\t\tew returns(TreeDet\n      PUSH 0\t\t\tew returns(TreeDet\n      KECCAK256 \t\t\tew returns(TreeDet\n      PUSH 0\t\t\tew returns(TreeDetails memo\n      DUP4 \t\t\tils mem\n      PUSH FFFFFFFFFFFFFFFFFFFFFFFFFFFFFFFFFFFFFFFF\t\t\tew returns(TreeDetails memo\n      AND \t\t\tew returns(TreeDetails memo\n      PUSH FFFFFFFFFFFFFFFFFFFFFFFFFFFFFFFFFFFFFFFF\t\t\tew returns(TreeDetails memo\n      AND \t\t\tew returns(TreeDetails memo\n      DUP2 \t\t\tew returns(TreeDetails memo\n      MSTORE \t\t\tew returns(TreeDetails memo\n      PUSH 20\t\t\tew returns(TreeDetails memo\n      ADD \t\t\tew returns(TreeDetails memo\n      SWAP1 \t\t\tew returns(TreeDetails memo\n      DUP2 \t\t\tew returns(TreeDetails memo\n      MSTORE \t\t\tew returns(TreeDetails memo\n      PUSH 20\t\t\tew returns(TreeDetails memo\n      ADD \t\t\tew returns(TreeDetails memo\n      PUSH 0\t\t\tew returns(TreeDetails memo\n      KECCAK256 \t\t\tew returns(TreeDetails memo\n      SLOAD \t\t\tew returns(TreeDetails memo\n      SWAP1 \t\t\tblic view returns(TreeDetails ...\n      POP \t\t\tblic view returns(TreeDetails ...\n      SWAP3 \t\t\tne);\\r\\n\\r\\n        return tru...\n      SWAP2 \t\t\tne);\\r\\n\\r\\n        return tru...\n      POP \t\t\tne);\\r\\n\\r\\n        return tru...\n      POP \t\t\tne);\\r\\n\\r\\n        return tru...\n      JUMP \t\t\tne);\\r\\n\\r\\n        return tru...\n    tag 104\t\t\tfunction water(uint256 _collec...\n      JUMPDEST \t\t\tfunction water(uint256 _collec...\n      PUSH 0\t\t\tbool\n      PUSH 1\t\t\ttrue\n      ISZERO \t\t\tcollectionInitialized[_collect...\n      ISZERO \t\t\tcollectionInitialized[_collect...\n      PUSH 9\t\t\tcollectionInitialized\n      PUSH 0\t\t\tcollectionInitialized[_collect...\n      DUP6 \t\t\t_collectionID\n      DUP2 \t\t\tcollectionInitialized[_collect...\n      MSTORE \t\t\tcollectionInitialized[_collect...\n      PUSH 20\t\t\tcollectionInitialized[_collect...\n      ADD \t\t\tcollectionInitialized[_collect...\n      SWAP1 \t\t\tcollectionInitialized[_collect...\n      DUP2 \t\t\tcollectionInitialized[_collect...\n      MSTORE \t\t\tcollectionInitialized[_collect...\n      PUSH 20\t\t\tcollectionInitialized[_collect...\n      ADD \t\t\tcollectionInitialized[_collect...\n      PUSH 0\t\t\tcollectionInitialized[_collect...\n      KECCAK256 \t\t\tcollectionInitialized[_collect...\n      PUSH 0\t\t\tcollectionInitialized[_collect...\n      SWAP1 \t\t\tcollectionInitialized[_collect...\n      SLOAD \t\t\tcollectionInitialized[_collect...\n      SWAP1 \t\t\tcollectionInitialized[_collect...\n      PUSH 100\t\t\tcollectionInitialized[_collect...\n      EXP \t\t\tcollectionInitialized[_collect...\n      SWAP1 \t\t\tcollectionInitialized[_collect...\n      DIV \t\t\tcollectionInitialized[_collect...\n      PUSH FF\t\t\tcollectionInitialized[_collect...\n      AND \t\t\tcollectionInitialized[_collect...\n      ISZERO \t\t\tcollectionInitialized[_collect...\n      ISZERO \t\t\tcollectionInitialized[_collect...\n      EQ \t\t\tcollectionInitialized[_collect...\n      PUSH [tag] 221\t\t\trequire(collectionInitialized[...\n      JUMPI \t\t\trequire(collectionInitialized[...\n      PUSH 40\t\t\trequire(collectionInitialized[...\n      MLOAD \t\t\trequire(collectionInitialized[...\n      PUSH 8C379A000000000000000000000000000000000000000000000000000000000\t\t\trequire(collectionInitialized[...\n      DUP2 \t\t\trequire(collectionInitialized[...\n      MSTORE \t\t\trequire(collectionInitialized[...\n      PUSH 4\t\t\trequire(collectionInitialized[...\n      ADD \t\t\trequire(collectionInitialized[...\n      PUSH [tag] 222\t\t\trequire(collectionInitialized[...\n      SWAP1 \t\t\trequire(collectionInitialized[...\n      PUSH [tag] 138\t\t\trequire(collectionInitialized[...\n      JUMP \t\t\trequire(collectionInitialized[...\n    tag 222\t\t\trequire(collectionInitialized[...\n      JUMPDEST \t\t\trequire(collectionInitialized[...\n      PUSH 40\t\t\trequire(collectionInitialized[...\n      MLOAD \t\t\trequire(collectionInitialized[...\n      DUP1 \t\t\trequire(collectionInitialized[...\n      SWAP2 \t\t\trequire(collectionInitialized[...\n      SUB \t\t\trequire(collectionInitialized[...\n      SWAP1 \t\t\trequire(collectionInitialized[...\n      REVERT \t\t\trequire(collectionInitialized[...\n    tag 221\t\t\trequire(collectionInitialized[...\n      JUMPDEST \t\t\trequire(collectionInitialized[...\n      PUSH 8\t\t\tuserTree\n      PUSH 0\t\t\tuserTree[_collectionID]\n      DUP5 \t\t\t_collectionID\n      DUP2 \t\t\tuserTree[_collectionID]\n      MSTORE \t\t\tuserTree[_collectionID]\n      PUSH 20\t\t\tuserTree[_collectionID]\n      ADD \t\t\tuserTree[_collectionID]\n      SWAP1 \t\t\tuserTree[_collectionID]\n      DUP2 \t\t\tuserTree[_collectionID]\n      MSTORE \t\t\tuserTree[_collectionID]\n      PUSH 20\t\t\tuserTree[_collectionID]\n      ADD \t\t\tuserTree[_collectionID]\n      PUSH 0\t\t\tuserTree[_collectionID]\n      KECCAK256 \t\t\tuserTree[_collectionID]\n      PUSH 0\t\t\tuserTree[_collectionID].treeDe...\n      ADD \t\t\tuserTree[_collectionID].treeDe...\n      PUSH 0\t\t\tuserTree[_collectionID].treeDe...\n      DUP4 \t\t\t_tokenID\n      DUP2 \t\t\tuserTree[_collectionID].treeDe...\n      MSTORE \t\t\tuserTree[_collectionID].treeDe...\n      PUSH 20\t\t\tuserTree[_collectionID].treeDe...\n      ADD \t\t\tuserTree[_collectionID].treeDe...\n      SWAP1 \t\t\tuserTree[_collectionID].treeDe...\n      DUP2 \t\t\tuserTree[_collectionID].treeDe...\n      MSTORE \t\t\tuserTree[_collectionID].treeDe...\n      PUSH 20\t\t\tuserTree[_collectionID].treeDe...\n      ADD \t\t\tuserTree[_collectionID].treeDe...\n      PUSH 0\t\t\tuserTree[_collectionID].treeDe...\n      KECCAK256 \t\t\tuserTree[_collectionID].treeDe...\n      PUSH 4\t\t\tuserTree[_collectionID].treeDe...\n      ADD \t\t\tuserTree[_collectionID].treeDe...\n      PUSH 0\t\t\tuserTree[_collectionID].treeDe...\n      SWAP1 \t\t\tuserTree[_collectionID].treeDe...\n      SLOAD \t\t\tuserTree[_collectionID].treeDe...\n      SWAP1 \t\t\tuserTree[_collectionID].treeDe...\n      PUSH 100\t\t\tuserTree[_collectionID].treeDe...\n      EXP \t\t\tuserTree[_collectionID].treeDe...\n      SWAP1 \t\t\tuserTree[_collectionID].treeDe...\n      DIV \t\t\tuserTree[_collectionID].treeDe...\n      PUSH FF\t\t\tuserTree[_collectionID].treeDe...\n      AND \t\t\tuserTree[_collectionID].treeDe...\n      PUSH [tag] 223\t\t\trequire(userTree[_collectionID...\n      JUMPI \t\t\trequire(userTree[_collectionID...\n      PUSH 40\t\t\trequire(userTree[_collectionID...\n      MLOAD \t\t\trequire(userTree[_collectionID...\n      PUSH 8C379A000000000000000000000000000000000000000000000000000000000\t\t\trequire(userTree[_collectionID...\n      DUP2 \t\t\trequire(userTree[_collectionID...\n      MSTORE \t\t\trequire(userTree[_collectionID...\n      PUSH 4\t\t\trequire(userTree[_collectionID...\n      ADD \t\t\trequire(userTree[_collectionID...\n      PUSH [tag] 224\t\t\trequire(userTree[_collectionID...\n      SWAP1 \t\t\trequire(userTree[_collectionID...\n      PUSH [tag] 197\t\t\trequire(userTree[_collectionID...\n      JUMP \t\t\trequire(userTree[_collectionID...\n    tag 224\t\t\trequire(userTree[_collectionID...\n      JUMPDEST \t\t\trequire(userTree[_collectionID...\n      PUSH 40\t\t\trequire(userTree[_collectionID...\n      MLOAD \t\t\trequire(userTree[_collectionID...\n      DUP1 \t\t\trequire(userTree[_collectionID...\n      SWAP2 \t\t\trequire(userTree[_collectionID...\n      SUB \t\t\trequire(userTree[_collectionID...\n      SWAP1 \t\t\trequire(userTree[_collectionID...\n      REVERT \t\t\trequire(userTree[_collectionID...\n    tag 223\t\t\trequire(userTree[_collectionID...\n      JUMPDEST \t\t\trequire(userTree[_collectionID...\n      PUSH 0\t\t\tTreeCollection treecollection\n      PUSH 7\t\t\ttreecollections\n      PUSH 0\t\t\ttreecollections[_collectionID]\n      DUP6 \t\t\t_collectionID\n      DUP2 \t\t\ttreecollections[_collectionID]\n      MSTORE \t\t\ttreecollections[_collectionID]\n      PUSH 20\t\t\ttreecollections[_collectionID]\n      ADD \t\t\ttreecollections[_collectionID]\n      SWAP1 \t\t\ttreecollections[_collectionID]\n      DUP2 \t\t\ttreecollections[_collectionID]\n      MSTORE \t\t\ttreecollections[_collectionID]\n      PUSH 20\t\t\ttreecollections[_collectionID]\n      ADD \t\t\ttreecollections[_collectionID]\n      PUSH 0\t\t\ttreecollections[_collectionID]\n      KECCAK256 \t\t\ttreecollections[_collectionID]\n      PUSH 0\t\t\ttreecollections[_collectionID]\n      SWAP1 \t\t\ttreecollections[_collectionID]\n      SLOAD \t\t\ttreecollections[_collectionID]\n      SWAP1 \t\t\ttreecollections[_collectionID]\n      PUSH 100\t\t\ttreecollections[_collectionID]\n      EXP \t\t\ttreecollections[_collectionID]\n      SWAP1 \t\t\ttreecollections[_collectionID]\n      DIV \t\t\ttreecollections[_collectionID]\n      PUSH FFFFFFFFFFFFFFFFFFFFFFFFFFFFFFFFFFFFFFFF\t\t\ttreecollections[_collectionID]\n      AND \t\t\ttreecollections[_collectionID]\n      SWAP1 \t\t\tTreeCollection treecollection ...\n      POP \t\t\tTreeCollection treecollection ...\n      CALLER \t\t\tmsg.sender\n      PUSH FFFFFFFFFFFFFFFFFFFFFFFFFFFFFFFFFFFFFFFF\t\t\ttreecollection.ownerOf(_tokenI...\n      AND \t\t\ttreecollection.ownerOf(_tokenI...\n      DUP2 \t\t\ttreecollection\n      PUSH FFFFFFFFFFFFFFFFFFFFFFFFFFFFFFFFFFFFFFFF\t\t\ttreecollection.ownerOf\n      AND \t\t\ttreecollection.ownerOf\n      PUSH 6352211E\t\t\ttreecollection.ownerOf\n      DUP6 \t\t\t_tokenID\n      PUSH 40\t\t\ttreecollection.ownerOf(_tokenI...\n      MLOAD \t\t\ttreecollection.ownerOf(_tokenI...\n      DUP3 \t\t\ttreecollection.ownerOf(_tokenI...\n      PUSH FFFFFFFF\t\t\ttreecollection.ownerOf(_tokenI...\n      AND \t\t\ttreecollection.ownerOf(_tokenI...\n      PUSH E0\t\t\ttreecollection.ownerOf(_tokenI...\n      SHL \t\t\ttreecollection.ownerOf(_tokenI...\n      DUP2 \t\t\ttreecollection.ownerOf(_tokenI...\n      MSTORE \t\t\ttreecollection.ownerOf(_tokenI...\n      PUSH 4\t\t\ttreecollection.ownerOf(_tokenI...\n      ADD \t\t\ttreecollection.ownerOf(_tokenI...\n      PUSH [tag] 225\t\t\ttreecollection.ownerOf(_tokenI...\n      SWAP2 \t\t\ttreecollection.ownerOf(_tokenI...\n      SWAP1 \t\t\ttreecollection.ownerOf(_tokenI...\n      PUSH [tag] 38\t\t\ttreecollection.ownerOf(_tokenI...\n      JUMP \t\t\ttreecollection.ownerOf(_tokenI...\n    tag 225\t\t\ttreecollection.ownerOf(_tokenI...\n      JUMPDEST \t\t\ttreecollection.ownerOf(_tokenI...\n      PUSH 20\t\t\ttreecollection.ownerOf(_tokenI...\n      PUSH 40\t\t\ttreecollection.ownerOf(_tokenI...\n      MLOAD \t\t\ttreecollection.ownerOf(_tokenI...\n      DUP1 \t\t\ttreecollection.ownerOf(_tokenI...\n      DUP4 \t\t\ttreecollection.ownerOf(_tokenI...\n      SUB \t\t\ttreecollection.ownerOf(_tokenI...\n      DUP2 \t\t\ttreecollection.ownerOf(_tokenI...\n      DUP7 \t\t\ttreecollection.ownerOf(_tokenI...\n      GAS \t\t\ttreecollection.ownerOf(_tokenI...\n      STATICCALL \t\t\ttreecollection.ownerOf(_tokenI...\n      ISZERO \t\t\ttreecollection.ownerOf(_tokenI...\n      DUP1 \t\t\ttreecollection.ownerOf(_tokenI...\n      ISZERO \t\t\ttreecollection.ownerOf(_tokenI...\n      PUSH [tag] 227\t\t\ttreecollection.ownerOf(_tokenI...\n      JUMPI \t\t\ttreecollection.ownerOf(_tokenI...\n      RETURNDATASIZE \t\t\ttreecollection.ownerOf(_tokenI...\n      PUSH 0\t\t\ttreecollection.ownerOf(_tokenI...\n      DUP1 \t\t\ttreecollection.ownerOf(_tokenI...\n      RETURNDATACOPY \t\t\ttreecollection.ownerOf(_tokenI...\n      RETURNDATASIZE \t\t\ttreecollection.ownerOf(_tokenI...\n      PUSH 0\t\t\ttreecollection.ownerOf(_tokenI...\n      REVERT \t\t\ttreecollection.ownerOf(_tokenI...\n    tag 227\t\t\ttreecollection.ownerOf(_tokenI...\n      JUMPDEST \t\t\ttreecollection.ownerOf(_tokenI...\n      POP \t\t\ttreecollection.ownerOf(_tokenI...\n      POP \t\t\ttreecollection.ownerOf(_tokenI...\n      POP \t\t\ttreecollection.ownerOf(_tokenI...\n      POP \t\t\ttreecollection.ownerOf(_tokenI...\n      PUSH 40\t\t\ttreecollection.ownerOf(_tokenI...\n      MLOAD \t\t\ttreecollection.ownerOf(_tokenI...\n      RETURNDATASIZE \t\t\ttreecollection.ownerOf(_tokenI...\n      PUSH 1F\t\t\ttreecollection.ownerOf(_tokenI...\n      NOT \t\t\ttreecollection.ownerOf(_tokenI...\n      PUSH 1F\t\t\ttreecollection.ownerOf(_tokenI...\n      DUP3 \t\t\ttreecollection.ownerOf(_tokenI...\n      ADD \t\t\ttreecollection.ownerOf(_tokenI...\n      AND \t\t\ttreecollection.ownerOf(_tokenI...\n      DUP3 \t\t\ttreecollection.ownerOf(_tokenI...\n      ADD \t\t\ttreecollection.ownerOf(_tokenI...\n      DUP1 \t\t\ttreecollection.ownerOf(_tokenI...\n      PUSH 40\t\t\ttreecollection.ownerOf(_tokenI...\n      MSTORE \t\t\ttreecollection.ownerOf(_tokenI...\n      POP \t\t\ttreecollection.ownerOf(_tokenI...\n      DUP2 \t\t\ttreecollection.ownerOf(_tokenI...\n      ADD \t\t\ttreecollection.ownerOf(_tokenI...\n      SWAP1 \t\t\ttreecollection.ownerOf(_tokenI...\n      PUSH [tag] 228\t\t\ttreecollection.ownerOf(_tokenI...\n      SWAP2 \t\t\ttreecollection.ownerOf(_tokenI...\n      SWAP1 \t\t\ttreecollection.ownerOf(_tokenI...\n      PUSH [tag] 202\t\t\ttreecollection.ownerOf(_tokenI...\n      JUMP \t\t\ttreecollection.ownerOf(_tokenI...\n    tag 228\t\t\ttreecollection.ownerOf(_tokenI...\n      JUMPDEST \t\t\ttreecollection.ownerOf(_tokenI...\n      PUSH FFFFFFFFFFFFFFFFFFFFFFFFFFFFFFFFFFFFFFFF\t\t\ttreecollection.ownerOf(_tokenI...\n      AND \t\t\ttreecollection.ownerOf(_tokenI...\n      EQ \t\t\ttreecollection.ownerOf(_tokenI...\n      PUSH [tag] 229\t\t\trequire(treecollection.ownerOf...\n      JUMPI \t\t\trequire(treecollection.ownerOf...\n      PUSH 40\t\t\trequire(treecollection.ownerOf...\n      MLOAD \t\t\trequire(treecollection.ownerOf...\n      PUSH 8C379A000000000000000000000000000000000000000000000000000000000\t\t\trequire(treecollection.ownerOf...\n      DUP2 \t\t\trequire(treecollection.ownerOf...\n      MSTORE \t\t\trequire(treecollection.ownerOf...\n      PUSH 4\t\t\trequire(treecollection.ownerOf...\n      ADD \t\t\trequire(treecollection.ownerOf...\n      PUSH [tag] 230\t\t\trequire(treecollection.ownerOf...\n      SWAP1 \t\t\trequire(treecollection.ownerOf...\n      PUSH [tag] 205\t\t\trequire(treecollection.ownerOf...\n      JUMP \t\t\trequire(treecollection.ownerOf...\n    tag 230\t\t\trequire(treecollection.ownerOf...\n      JUMPDEST \t\t\trequire(treecollection.ownerOf...\n      PUSH 40\t\t\trequire(treecollection.ownerOf...\n      MLOAD \t\t\trequire(treecollection.ownerOf...\n      DUP1 \t\t\trequire(treecollection.ownerOf...\n      SWAP2 \t\t\trequire(treecollection.ownerOf...\n      SUB \t\t\trequire(treecollection.ownerOf...\n      SWAP1 \t\t\trequire(treecollection.ownerOf...\n      REVERT \t\t\trequire(treecollection.ownerOf...\n    tag 229\t\t\trequire(treecollection.ownerOf...\n      JUMPDEST \t\t\trequire(treecollection.ownerOf...\n      PUSHIMMUTABLE 3645\t\t\tSTNEAR\n      PUSH FFFFFFFFFFFFFFFFFFFFFFFFFFFFFFFFFFFFFFFF\t\t\tSTNEAR.transferFrom\n      AND \t\t\tSTNEAR.transferFrom\n      PUSH 23B872DD\t\t\tSTNEAR.transferFrom\n      CALLER \t\t\tmsg.sender\n      ADDRESS \t\t\tthis\n      PUSHIMMUTABLE 3639\t\t\tbase\n      PUSH 1\t\t\t1\n      PUSH [tag] 231\t\t\t1 * base\n      SWAP2 \t\t\t1 * base\n      SWAP1 \t\t\t1 * base\n      PUSH [tag] 140\t\t\t1 * base\n      JUMP \t\t\t1 * base\n    tag 231\t\t\t1 * base\n      JUMPDEST \t\t\t1 * base\n      PUSH 40\t\t\tSTNEAR.transferFrom(msg.sender...\n      MLOAD \t\t\tSTNEAR.transferFrom(msg.sender...\n      DUP5 \t\t\tSTNEAR.transferFrom(msg.sender...\n      PUSH FFFFFFFF\t\t\tSTNEAR.transferFrom(msg.sender...\n      AND \t\t\tSTNEAR.transferFrom(msg.sender...\n      PUSH E0\t\t\tSTNEAR.transferFrom(msg.sender...\n      SHL \t\t\tSTNEAR.transferFrom(msg.sender...\n      DUP2 \t\t\tSTNEAR.transferFrom(msg.sender...\n      MSTORE \t\t\tSTNEAR.transferFrom(msg.sender...\n      PUSH 4\t\t\tSTNEAR.transferFrom(msg.sender...\n      ADD \t\t\tSTNEAR.transferFrom(msg.sender...\n      PUSH [tag] 232\t\t\tSTNEAR.transferFrom(msg.sender...\n      SWAP4 \t\t\tSTNEAR.transferFrom(msg.sender...\n      SWAP3 \t\t\tSTNEAR.transferFrom(msg.sender...\n      SWAP2 \t\t\tSTNEAR.transferFrom(msg.sender...\n      SWAP1 \t\t\tSTNEAR.transferFrom(msg.sender...\n      PUSH [tag] 142\t\t\tSTNEAR.transferFrom(msg.sender...\n      JUMP \t\t\tSTNEAR.transferFrom(msg.sender...\n    tag 232\t\t\tSTNEAR.transferFrom(msg.sender...\n      JUMPDEST \t\t\tSTNEAR.transferFrom(msg.sender...\n      PUSH 20\t\t\tSTNEAR.transferFrom(msg.sender...\n      PUSH 40\t\t\tSTNEAR.transferFrom(msg.sender...\n      MLOAD \t\t\tSTNEAR.transferFrom(msg.sender...\n      DUP1 \t\t\tSTNEAR.transferFrom(msg.sender...\n      DUP4 \t\t\tSTNEAR.transferFrom(msg.sender...\n      SUB \t\t\tSTNEAR.transferFrom(msg.sender...\n      DUP2 \t\t\tSTNEAR.transferFrom(msg.sender...\n      PUSH 0\t\t\tSTNEAR.transferFrom(msg.sender...\n      DUP8 \t\t\tSTNEAR.transferFrom(msg.sender...\n      GAS \t\t\tSTNEAR.transferFrom(msg.sender...\n      CALL \t\t\tSTNEAR.transferFrom(msg.sender...\n      ISZERO \t\t\tSTNEAR.transferFrom(msg.sender...\n      DUP1 \t\t\tSTNEAR.transferFrom(msg.sender...\n      ISZERO \t\t\tSTNEAR.transferFrom(msg.sender...\n      PUSH [tag] 234\t\t\tSTNEAR.transferFrom(msg.sender...\n      JUMPI \t\t\tSTNEAR.transferFrom(msg.sender...\n      RETURNDATASIZE \t\t\tSTNEAR.transferFrom(msg.sender...\n      PUSH 0\t\t\tSTNEAR.transferFrom(msg.sender...\n      DUP1 \t\t\tSTNEAR.transferFrom(msg.sender...\n      RETURNDATACOPY \t\t\tSTNEAR.transferFrom(msg.sender...\n      RETURNDATASIZE \t\t\tSTNEAR.transferFrom(msg.sender...\n      PUSH 0\t\t\tSTNEAR.transferFrom(msg.sender...\n      REVERT \t\t\tSTNEAR.transferFrom(msg.sender...\n    tag 234\t\t\tSTNEAR.transferFrom(msg.sender...\n      JUMPDEST \t\t\tSTNEAR.transferFrom(msg.sender...\n      POP \t\t\tSTNEAR.transferFrom(msg.sender...\n      POP \t\t\tSTNEAR.transferFrom(msg.sender...\n      POP \t\t\tSTNEAR.transferFrom(msg.sender...\n      POP \t\t\tSTNEAR.transferFrom(msg.sender...\n      PUSH 40\t\t\tSTNEAR.transferFrom(msg.sender...\n      MLOAD \t\t\tSTNEAR.transferFrom(msg.sender...\n      RETURNDATASIZE \t\t\tSTNEAR.transferFrom(msg.sender...\n      PUSH 1F\t\t\tSTNEAR.transferFrom(msg.sender...\n      NOT \t\t\tSTNEAR.transferFrom(msg.sender...\n      PUSH 1F\t\t\tSTNEAR.transferFrom(msg.sender...\n      DUP3 \t\t\tSTNEAR.transferFrom(msg.sender...\n      ADD \t\t\tSTNEAR.transferFrom(msg.sender...\n      AND \t\t\tSTNEAR.transferFrom(msg.sender...\n      DUP3 \t\t\tSTNEAR.transferFrom(msg.sender...\n      ADD \t\t\tSTNEAR.transferFrom(msg.sender...\n      DUP1 \t\t\tSTNEAR.transferFrom(msg.sender...\n      PUSH 40\t\t\tSTNEAR.transferFrom(msg.sender...\n      MSTORE \t\t\tSTNEAR.transferFrom(msg.sender...\n      POP \t\t\tSTNEAR.transferFrom(msg.sender...\n      DUP2 \t\t\tSTNEAR.transferFrom(msg.sender...\n      ADD \t\t\tSTNEAR.transferFrom(msg.sender...\n      SWAP1 \t\t\tSTNEAR.transferFrom(msg.sender...\n      PUSH [tag] 235\t\t\tSTNEAR.transferFrom(msg.sender...\n      SWAP2 \t\t\tSTNEAR.transferFrom(msg.sender...\n      SWAP1 \t\t\tSTNEAR.transferFrom(msg.sender...\n      PUSH [tag] 146\t\t\tSTNEAR.transferFrom(msg.sender...\n      JUMP \t\t\tSTNEAR.transferFrom(msg.sender...\n    tag 235\t\t\tSTNEAR.transferFrom(msg.sender...\n      JUMPDEST \t\t\tSTNEAR.transferFrom(msg.sender...\n      PUSH [tag] 236\t\t\trequire(STNEAR.transferFrom(ms...\n      JUMPI \t\t\trequire(STNEAR.transferFrom(ms...\n      PUSH 40\t\t\trequire(STNEAR.transferFrom(ms...\n      MLOAD \t\t\trequire(STNEAR.transferFrom(ms...\n      PUSH 8C379A000000000000000000000000000000000000000000000000000000000\t\t\trequire(STNEAR.transferFrom(ms...\n      DUP2 \t\t\trequire(STNEAR.transferFrom(ms...\n      MSTORE \t\t\trequire(STNEAR.transferFrom(ms...\n      PUSH 4\t\t\trequire(STNEAR.transferFrom(ms...\n      ADD \t\t\trequire(STNEAR.transferFrom(ms...\n      PUSH [tag] 237\t\t\trequire(STNEAR.transferFrom(ms...\n      SWAP1 \t\t\trequire(STNEAR.transferFrom(ms...\n      PUSH [tag] 149\t\t\trequire(STNEAR.transferFrom(ms...\n      JUMP \t\t\trequire(STNEAR.transferFrom(ms...\n    tag 237\t\t\trequire(STNEAR.transferFrom(ms...\n      JUMPDEST \t\t\trequire(STNEAR.transferFrom(ms...\n      PUSH 40\t\t\trequire(STNEAR.transferFrom(ms...\n      MLOAD \t\t\trequire(STNEAR.transferFrom(ms...\n      DUP1 \t\t\trequire(STNEAR.transferFrom(ms...\n      SWAP2 \t\t\trequire(STNEAR.transferFrom(ms...\n      SUB \t\t\trequire(STNEAR.transferFrom(ms...\n      SWAP1 \t\t\trequire(STNEAR.transferFrom(ms...\n      REVERT \t\t\trequire(STNEAR.transferFrom(ms...\n    tag 236\t\t\trequire(STNEAR.transferFrom(ms...\n      JUMPDEST \t\t\trequire(STNEAR.transferFrom(ms...\n      TIMESTAMP \t\t\tblock.timestamp\n      PUSH 8\t\t\tuserTree\n      PUSH 0\t\t\tuserTree[_collectionID]\n      DUP7 \t\t\t_collectionID\n      DUP2 \t\t\tuserTree[_collectionID]\n      MSTORE \t\t\tuserTree[_collectionID]\n      PUSH 20\t\t\tuserTree[_collectionID]\n      ADD \t\t\tuserTree[_collectionID]\n      SWAP1 \t\t\tuserTree[_collectionID]\n      DUP2 \t\t\tuserTree[_collectionID]\n      MSTORE \t\t\tuserTree[_collectionID]\n      PUSH 20\t\t\tuserTree[_collectionID]\n      ADD \t\t\tuserTree[_collectionID]\n      PUSH 0\t\t\tuserTree[_collectionID]\n      KECCAK256 \t\t\tuserTree[_collectionID]\n      PUSH 0\t\t\tuserTree[_collectionID].treeDe...\n      ADD \t\t\tuserTree[_collectionID].treeDe...\n      PUSH 0\t\t\tuserTree[_collectionID].treeDe...\n      DUP6 \t\t\t_tokenID\n      DUP2 \t\t\tuserTree[_collectionID].treeDe...\n      MSTORE \t\t\tuserTree[_collectionID].treeDe...\n      PUSH 20\t\t\tuserTree[_collectionID].treeDe...\n      ADD \t\t\tuserTree[_collectionID].treeDe...\n      SWAP1 \t\t\tuserTree[_collectionID].treeDe...\n      DUP2 \t\t\tuserTree[_collectionID].treeDe...\n      MSTORE \t\t\tuserTree[_collectionID].treeDe...\n      PUSH 20\t\t\tuserTree[_collectionID].treeDe...\n      ADD \t\t\tuserTree[_collectionID].treeDe...\n      PUSH 0\t\t\tuserTree[_collectionID].treeDe...\n      KECCAK256 \t\t\tuserTree[_collectionID].treeDe...\n      PUSH 0\t\t\tuserTree[_collectionID].treeDe...\n      ADD \t\t\tuserTree[_collectionID].treeDe...\n      DUP2 \t\t\tuserTree[_collectionID].treeDe...\n      SWAP1 \t\t\tuserTree[_collectionID].treeDe...\n      SSTORE \t\t\tuserTree[_collectionID].treeDe...\n      POP \t\t\tuserTree[_collectionID].treeDe...\n      PUSH 1\t\t\t1\n      PUSH 8\t\t\tuserTree\n      PUSH 0\t\t\tuserTree[_collectionID]\n      DUP7 \t\t\t_collectionID\n      DUP2 \t\t\tuserTree[_collectionID]\n      MSTORE \t\t\tuserTree[_collectionID]\n      PUSH 20\t\t\tuserTree[_collectionID]\n      ADD \t\t\tuserTree[_collectionID]\n      SWAP1 \t\t\tuserTree[_collectionID]\n      DUP2 \t\t\tuserTree[_collectionID]\n      MSTORE \t\t\tuserTree[_collectionID]\n      PUSH 20\t\t\tuserTree[_collectionID]\n      ADD \t\t\tuserTree[_collectionID]\n      PUSH 0\t\t\tuserTree[_collectionID]\n      KECCAK256 \t\t\tuserTree[_collectionID]\n      PUSH 0\t\t\tuserTree[_collectionID].treeDe...\n      ADD \t\t\tuserTree[_collectionID].treeDe...\n      PUSH 0\t\t\tuserTree[_collectionID].treeDe...\n      DUP6 \t\t\t_tokenID\n      DUP2 \t\t\tuserTree[_collectionID].treeDe...\n      MSTORE \t\t\tuserTree[_collectionID].treeDe...\n      PUSH 20\t\t\tuserTree[_collectionID].treeDe...\n      ADD \t\t\tuserTree[_collectionID].treeDe...\n      SWAP1 \t\t\tuserTree[_collectionID].treeDe...\n      DUP2 \t\t\tuserTree[_collectionID].treeDe...\n      MSTORE \t\t\tuserTree[_collectionID].treeDe...\n      PUSH 20\t\t\tuserTree[_collectionID].treeDe...\n      ADD \t\t\tuserTree[_collectionID].treeDe...\n      PUSH 0\t\t\tuserTree[_collectionID].treeDe...\n      KECCAK256 \t\t\tuserTree[_collectionID].treeDe...\n      PUSH 2\t\t\tuserTree[_collectionID].treeDe...\n      ADD \t\t\tuserTree[_collectionID].treeDe...\n      PUSH 0\t\t\tuserTree[_collectionID].treeDe...\n      DUP3 \t\t\tuserTree[_collectionID].treeDe...\n      DUP3 \t\t\tuserTree[_collectionID].treeDe...\n      SLOAD \t\t\tuserTree[_collectionID].treeDe...\n      PUSH [tag] 238\t\t\tuserTree[_collectionID].treeDe...\n      SWAP2 \t\t\tuserTree[_collectionID].treeDe...\n      SWAP1 \t\t\tuserTree[_collectionID].treeDe...\n      PUSH [tag] 134\t\t\tuserTree[_collectionID].treeDe...\n      JUMP \t\t\tuserTree[_collectionID].treeDe...\n    tag 238\t\t\tuserTree[_collectionID].treeDe...\n      JUMPDEST \t\t\tuserTree[_collectionID].treeDe...\n      SWAP3 \t\t\tuserTree[_collectionID].treeDe...\n      POP \t\t\tuserTree[_collectionID].treeDe...\n      POP \t\t\tuserTree[_collectionID].treeDe...\n      DUP2 \t\t\tuserTree[_collectionID].treeDe...\n      SWAP1 \t\t\tuserTree[_collectionID].treeDe...\n      SSTORE \t\t\tuserTree[_collectionID].treeDe...\n      POP \t\t\tuserTree[_collectionID].treeDe...\n      PUSH 1\t\t\ttrue\n      SWAP2 \t\t\treturn true\n      POP \t\t\treturn true\n      POP \t\t\treturn true\n      SWAP3 \t\t\tfunction water(uint256 _collec...\n      SWAP2 \t\t\tfunction water(uint256 _collec...\n      POP \t\t\tfunction water(uint256 _collec...\n      POP \t\t\tfunction water(uint256 _collec...\n      JUMP \t\t\tfunction water(uint256 _collec...\n    tag 115\t\t\t struct TreeDetails{\\r\\n      ...\n      JUMPDEST \t\t\t struct TreeDetails{\\r\\n      ...\n      PUSH 0\t\t\t       \n      CALLER \t\t\t;\\r\\n       \n      SWAP1 \t\t\tClaimed;\\r\\n       \n      POP \t\t\tClaimed;\\r\\n       \n      SWAP1 \t\t\t struct TreeDetails{\\r\\n      ...\n      JUMP \t\t\t struct TreeDetails{\\r\\n      ...\n    tag 117\t\t\t\n      JUMPDEST \t\t\t\n      PUSH 0\t\t\t\n      PUSH FFFFFFFFFFFFFFFFFFFFFFFFFFFFFFFFFFFFFFFF\t\t\t\n      AND \t\t\t\n      DUP4 \t\t\t\n      PUSH FFFFFFFFFFFFFFFFFFFFFFFFFFFFFFFFFFFFFFFF\t\t\t\n      AND \t\t\t\n      SUB \t\t\t\n      PUSH [tag] 241\t\t\t\n      JUMPI \t\t\t\n      PUSH 40\t\t\t\n      MLOAD \t\t\t\n      PUSH 8C379A000000000000000000000000000000000000000000000000000000000\t\t\t\n      DUP2 \t\t\t\n      MSTORE \t\t\t\n      PUSH 4\t\t\t\n      ADD \t\t\t\n      PUSH [tag] 242\t\t\t\n      SWAP1 \t\t\t\n      PUSH [tag] 243\t\t\t\n      JUMP \t\t\t\n    tag 242\t\t\t\n      JUMPDEST \t\t\t\n      PUSH 40\t\t\t\n      MLOAD \t\t\t\n      DUP1 \t\t\t\n      SWAP2 \t\t\t\n      SUB \t\t\t\n      SWAP1 \t\t\t\n      REVERT \t\t\t\n    tag 241\t\t\t\n      JUMPDEST \t\t\t\n      PUSH 0\t\t\t\n      PUSH FFFFFFFFFFFFFFFFFFFFFFFFFFFFFFFFFFFFFFFF\t\t\t\n      AND \t\t\t\n      DUP3 \t\t\t\n      PUSH FFFFFFFFFFFFFFFFFFFFFFFFFFFFFFFFFFFFFFFF\t\t\t\n      AND \t\t\t\n      SUB \t\t\t\n      PUSH [tag] 244\t\t\t\n      JUMPI \t\t\t\n      PUSH 40\t\t\t\n      MLOAD \t\t\t\n      PUSH 8C379A000000000000000000000000000000000000000000000000000000000\t\t\t\n      DUP2 \t\t\t\n      MSTORE \t\t\t\n      PUSH 4\t\t\t\n      ADD \t\t\t\n      PUSH [tag] 245\t\t\t\n      SWAP1 \t\t\t\n      PUSH [tag] 246\t\t\t\n      JUMP \t\t\t\n    tag 245\t\t\t\n      JUMPDEST \t\t\t\n      PUSH 40\t\t\t\n      MLOAD \t\t\t\n      DUP1 \t\t\t\n      SWAP2 \t\t\t\n      SUB \t\t\t\n      SWAP1 \t\t\t\n      REVERT \t\t\t\n    tag 244\t\t\t\n      JUMPDEST \t\t\t\n      DUP1 \t\t\t\n      PUSH 1\t\t\t\n      PUSH 0\t\t\t\n      DUP6 \t\t\t\n      PUSH FFFFFFFFFFFFFFFFFFFFFFFFFFFFFFFFFFFFFFFF\t\t\t\n      AND \t\t\t\n      PUSH FFFFFFFFFFFFFFFFFFFFFFFFFFFFFFFFFFFFFFFF\t\t\t\n      AND \t\t\t\n      DUP2 \t\t\t\n      MSTORE \t\t\t\n      PUSH 20\t\t\t\n      ADD \t\t\t\n      SWAP1 \t\t\t\n      DUP2 \t\t\t\n      MSTORE \t\t\t\n      PUSH 20\t\t\t\n      ADD \t\t\t\n      PUSH 0\t\t\t\n      KECCAK256 \t\t\t\n      PUSH 0\t\t\t\n      DUP5 \t\t\t\n      PUSH FFFFFFFFFFFFFFFFFFFFFFFFFFFFFFFFFFFFFFFF\t\t\t\n      AND \t\t\t\n      PUSH FFFFFFFFFFFFFFFFFFFFFFFFFFFFFFFFFFFFFFFF\t\t\t\n      AND \t\t\t\n      DUP2 \t\t\t\n      MSTORE \t\t\t\n      PUSH 20\t\t\t\n      ADD \t\t\t\n      SWAP1 \t\t\t\n      DUP2 \t\t\t\n      MSTORE \t\t\t\n      PUSH 20\t\t\t\n      ADD \t\t\t\n      PUSH 0\t\t\t\n      KECCAK256 \t\t\t\n      DUP2 \t\t\t\n      SWAP1 \t\t\t\n      SSTORE \t\t\t\n      POP \t\t\t\n      DUP2 \t\t\t\n      PUSH FFFFFFFFFFFFFFFFFFFFFFFFFFFFFFFFFFFFFFFF\t\t\t\n      AND \t\t\t\n      DUP4 \t\t\t\n      PUSH FFFFFFFFFFFFFFFFFFFFFFFFFFFFFFFFFFFFFFFF\t\t\t\n      AND \t\t\t\n      PUSH 8C5BE1E5EBEC7D5BD14F71427D1E84F3DD0314C0F7B2291E5B200AC8C7C3B925\t\t\t\n      DUP4 \t\t\t\n      PUSH 40\t\t\t\n      MLOAD \t\t\t\n      PUSH [tag] 247\t\t\t\n      SWAP2 \t\t\t\n      SWAP1 \t\t\t\n      PUSH [tag] 38\t\t\t\n      JUMP \t\t\t\n    tag 247\t\t\t\n      JUMPDEST \t\t\t\n      PUSH 40\t\t\t\n      MLOAD \t\t\t\n      DUP1 \t\t\t\n      SWAP2 \t\t\t\n      SUB \t\t\t\n      SWAP1 \t\t\t\n      LOG3 \t\t\t\n      POP \t\t\t\n      POP \t\t\t\n      POP \t\t\t\n      JUMP \t\t\t\n    tag 125\t\t\t\n      JUMPDEST \t\t\t\n      PUSH 0\t\t\t\n      PUSH [tag] 249\t\t\t\n      DUP5 \t\t\t\n      DUP5 \t\t\t\n      PUSH [tag] 100\t\t\t\n      JUMP \t\t\t\n    tag 249\t\t\t\n      JUMPDEST \t\t\t\n      SWAP1 \t\t\t\n      POP \t\t\t\n      PUSH FFFFFFFFFFFFFFFFFFFFFFFFFFFFFFFFFFFFFFFFFFFFFFFFFFFFFFFFFFFFFFFF\t\t\t\n      DUP2 \t\t\t\n      EQ \t\t\t\n      PUSH [tag] 250\t\t\t\n      JUMPI \t\t\t\n      DUP2 \t\t\t\n      DUP2 \t\t\t\n      LT \t\t\t\n      ISZERO \t\t\t\n      PUSH [tag] 251\t\t\t\n      JUMPI \t\t\t\n      PUSH 40\t\t\t\n      MLOAD \t\t\t\n      PUSH 8C379A000000000000000000000000000000000000000000000000000000000\t\t\t\n      DUP2 \t\t\t\n      MSTORE \t\t\t\n      PUSH 4\t\t\t\n      ADD \t\t\t\n      PUSH [tag] 252\t\t\t\n      SWAP1 \t\t\t\n      PUSH [tag] 253\t\t\t\n      JUMP \t\t\t\n    tag 252\t\t\t\n      JUMPDEST \t\t\t\n      PUSH 40\t\t\t\n      MLOAD \t\t\t\n      DUP1 \t\t\t\n      SWAP2 \t\t\t\n      SUB \t\t\t\n      SWAP1 \t\t\t\n      REVERT \t\t\t\n    tag 251\t\t\t\n      JUMPDEST \t\t\t\n      PUSH [tag] 254\t\t\t\n      DUP5 \t\t\t\n      DUP5 \t\t\t\n      DUP5 \t\t\t\n      DUP5 \t\t\t\n      SUB \t\t\t\n      PUSH [tag] 117\t\t\t\n      JUMP \t\t\t\n    tag 254\t\t\t\n      JUMPDEST \t\t\t\n    tag 250\t\t\t\n      JUMPDEST \t\t\t\n      POP \t\t\t\n      POP \t\t\t\n      POP \t\t\t\n      POP \t\t\t\n      JUMP \t\t\t\n    tag 127\t\t\t\n      JUMPDEST \t\t\t\n      PUSH 0\t\t\t\n      PUSH FFFFFFFFFFFFFFFFFFFFFFFFFFFFFFFFFFFFFFFF\t\t\t\n      AND \t\t\t\n      DUP4 \t\t\t\n      PUSH FFFFFFFFFFFFFFFFFFFFFFFFFFFFFFFFFFFFFFFF\t\t\t\n      AND \t\t\t\n      SUB \t\t\t\n      PUSH [tag] 256\t\t\t\n      JUMPI \t\t\t\n      PUSH 40\t\t\t\n      MLOAD \t\t\t\n      PUSH 8C379A000000000000000000000000000000000000000000000000000000000\t\t\t\n      DUP2 \t\t\t\n      MSTORE \t\t\t\n      PUSH 4\t\t\t\n      ADD \t\t\t\n      PUSH [tag] 257\t\t\t\n      SWAP1 \t\t\t\n      PUSH [tag] 258\t\t\t\n      JUMP \t\t\t\n    tag 257\t\t\t\n      JUMPDEST \t\t\t\n      PUSH 40\t\t\t\n      MLOAD \t\t\t\n      DUP1 \t\t\t\n      SWAP2 \t\t\t\n      SUB \t\t\t\n      SWAP1 \t\t\t\n      REVERT \t\t\t\n    tag 256\t\t\t\n      JUMPDEST \t\t\t\n      PUSH 0\t\t\t\n      PUSH FFFFFFFFFFFFFFFFFFFFFFFFFFFFFFFFFFFFFFFF\t\t\t\n      AND \t\t\t\n      DUP3 \t\t\t\n      PUSH FFFFFFFFFFFFFFFFFFFFFFFFFFFFFFFFFFFFFFFF\t\t\t\n      AND \t\t\t\n      SUB \t\t\t\n      PUSH [tag] 259\t\t\t\n      JUMPI \t\t\t\n      PUSH 40\t\t\t\n      MLOAD \t\t\t\n      PUSH 8C379A000000000000000000000000000000000000000000000000000000000\t\t\t\n      DUP2 \t\t\t\n      MSTORE \t\t\t\n      PUSH 4\t\t\t\n      ADD \t\t\t\n      PUSH [tag] 260\t\t\t\n      SWAP1 \t\t\t\n      PUSH [tag] 261\t\t\t\n      JUMP \t\t\t\n    tag 260\t\t\t\n      JUMPDEST \t\t\t\n      PUSH 40\t\t\t\n      MLOAD \t\t\t\n      DUP1 \t\t\t\n      SWAP2 \t\t\t\n      SUB \t\t\t\n      SWAP1 \t\t\t\n      REVERT \t\t\t\n    tag 259\t\t\t\n      JUMPDEST \t\t\t\n      PUSH [tag] 262\t\t\t\n      DUP4 \t\t\t\n      DUP4 \t\t\t\n      DUP4 \t\t\t\n      PUSH [tag] 263\t\t\t\n      JUMP \t\t\t\n    tag 262\t\t\t\n      JUMPDEST \t\t\t\n      PUSH 0\t\t\t\n      DUP1 \t\t\t\n      PUSH 0\t\t\t\n      DUP6 \t\t\t\n      PUSH FFFFFFFFFFFFFFFFFFFFFFFFFFFFFFFFFFFFFFFF\t\t\t\n      AND \t\t\t\n      PUSH FFFFFFFFFFFFFFFFFFFFFFFFFFFFFFFFFFFFFFFF\t\t\t\n      AND \t\t\t\n      DUP2 \t\t\t\n      MSTORE \t\t\t\n      PUSH 20\t\t\t\n      ADD \t\t\t\n      SWAP1 \t\t\t\n      DUP2 \t\t\t\n      MSTORE \t\t\t\n      PUSH 20\t\t\t\n      ADD \t\t\t\n      PUSH 0\t\t\t\n      KECCAK256 \t\t\t\n      SLOAD \t\t\t\n      SWAP1 \t\t\t\n      POP \t\t\t\n      DUP2 \t\t\t\n      DUP2 \t\t\t\n      LT \t\t\t\n      ISZERO \t\t\t\n      PUSH [tag] 264\t\t\t\n      JUMPI \t\t\t\n      PUSH 40\t\t\t\n      MLOAD \t\t\t\n      PUSH 8C379A000000000000000000000000000000000000000000000000000000000\t\t\t\n      DUP2 \t\t\t\n      MSTORE \t\t\t\n      PUSH 4\t\t\t\n      ADD \t\t\t\n      PUSH [tag] 265\t\t\t\n      SWAP1 \t\t\t\n      PUSH [tag] 266\t\t\t\n      JUMP \t\t\t\n    tag 265\t\t\t\n      JUMPDEST \t\t\t\n      PUSH 40\t\t\t\n      MLOAD \t\t\t\n      DUP1 \t\t\t\n      SWAP2 \t\t\t\n      SUB \t\t\t\n      SWAP1 \t\t\t\n      REVERT \t\t\t\n    tag 264\t\t\t\n      JUMPDEST \t\t\t\n      DUP2 \t\t\t\n      DUP2 \t\t\t\n      SUB \t\t\t\n      PUSH 0\t\t\t\n      DUP1 \t\t\t\n      DUP7 \t\t\t\n      PUSH FFFFFFFFFFFFFFFFFFFFFFFFFFFFFFFFFFFFFFFF\t\t\t\n      AND \t\t\t\n      PUSH FFFFFFFFFFFFFFFFFFFFFFFFFFFFFFFFFFFFFFFF\t\t\t\n      AND \t\t\t\n      DUP2 \t\t\t\n      MSTORE \t\t\t\n      PUSH 20\t\t\t\n      ADD \t\t\t\n      SWAP1 \t\t\t\n      DUP2 \t\t\t\n      MSTORE \t\t\t\n      PUSH 20\t\t\t\n      ADD \t\t\t\n      PUSH 0\t\t\t\n      KECCAK256 \t\t\t\n      DUP2 \t\t\t\n      SWAP1 \t\t\t\n      SSTORE \t\t\t\n      POP \t\t\t\n      DUP2 \t\t\t\n      PUSH 0\t\t\t\n      DUP1 \t\t\t\n      DUP6 \t\t\t\n      PUSH FFFFFFFFFFFFFFFFFFFFFFFFFFFFFFFFFFFFFFFF\t\t\t\n      AND \t\t\t\n      PUSH FFFFFFFFFFFFFFFFFFFFFFFFFFFFFFFFFFFFFFFF\t\t\t\n      AND \t\t\t\n      DUP2 \t\t\t\n      MSTORE \t\t\t\n      PUSH 20\t\t\t\n      ADD \t\t\t\n      SWAP1 \t\t\t\n      DUP2 \t\t\t\n      MSTORE \t\t\t\n      PUSH 20\t\t\t\n      ADD \t\t\t\n      PUSH 0\t\t\t\n      KECCAK256 \t\t\t\n      PUSH 0\t\t\t\n      DUP3 \t\t\t\n      DUP3 \t\t\t\n      SLOAD \t\t\t\n      ADD \t\t\t\n      SWAP3 \t\t\t\n      POP \t\t\t\n      POP \t\t\t\n      DUP2 \t\t\t\n      SWAP1 \t\t\t\n      SSTORE \t\t\t\n      POP \t\t\t\n      DUP3 \t\t\t\n      PUSH FFFFFFFFFFFFFFFFFFFFFFFFFFFFFFFFFFFFFFFF\t\t\t\n      AND \t\t\t\n      DUP5 \t\t\t\n      PUSH FFFFFFFFFFFFFFFFFFFFFFFFFFFFFFFFFFFFFFFF\t\t\t\n      AND \t\t\t\n      PUSH DDF252AD1BE2C89B69C2B068FC378DAA952BA7F163C4A11628F55A4DF523B3EF\t\t\t\n      DUP5 \t\t\t\n      PUSH 40\t\t\t\n      MLOAD \t\t\t\n      PUSH [tag] 267\t\t\t\n      SWAP2 \t\t\t\n      SWAP1 \t\t\t\n      PUSH [tag] 38\t\t\t\n      JUMP \t\t\t\n    tag 267\t\t\t\n      JUMPDEST \t\t\t\n      PUSH 40\t\t\t\n      MLOAD \t\t\t\n      DUP1 \t\t\t\n      SWAP2 \t\t\t\n      SUB \t\t\t\n      SWAP1 \t\t\t\n      LOG3 \t\t\t\n      PUSH [tag] 268\t\t\t\n      DUP5 \t\t\t\n      DUP5 \t\t\t\n      DUP5 \t\t\t\n      PUSH [tag] 269\t\t\t\n      JUMP \t\t\t\n    tag 268\t\t\t\n      JUMPDEST \t\t\t\n      POP \t\t\t\n      POP \t\t\t\n      POP \t\t\t\n      POP \t\t\t\n      JUMP \t\t\t\n    tag 169\t\t\tts tokenID\\r\\n    }\\r\\n\\r\\n   ...\n      JUMPDEST \t\t\tts tokenID\\r\\n    }\\r\\n\\r\\n   ...\n      PUSH 1\t\t\tc\n      DUP2 \t\t\tto keep\n      PUSH 0\t\t\tto keep record\n      ADD \t\t\tto keep record\n      PUSH 0\t\t\tto keep record\n      DUP3 \t\t\tto keep record of c\n      DUP3 \t\t\tto keep record of c\n      SLOAD \t\t\tto keep record of c\n      ADD \t\t\tto keep record of c\n      SWAP3 \t\t\tto keep record of c\n      POP \t\t\tto keep record of c\n      POP \t\t\tto keep record of c\n      DUP2 \t\t\tto keep record of c\n      SWAP1 \t\t\tto keep record of c\n      SSTORE \t\t\tto keep record of c\n      POP \t\t\tto keep record of c\n      POP \t\t\tts tokenID\\r\\n    }\\r\\n\\r\\n   ...\n      JUMP \t\t\tts tokenID\\r\\n    }\\r\\n\\r\\n   ...\n    tag 171\t\t\tstruct UserTreeMapping {\\r\\n  ...\n      JUMPDEST \t\t\tstruct UserTreeMapping {\\r\\n  ...\n      PUSH 0\t\t\t treeDe\n      DUP2 \t\t\to store\n      PUSH 0\t\t\to store user d\n      ADD \t\t\to store user d\n      SLOAD \t\t\to store user d\n      SWAP1 \t\t\tpping to store user d\n      POP \t\t\tpping to store user d\n      SWAP2 \t\t\tstruct UserTreeMapping {\\r\\n  ...\n      SWAP1 \t\t\tstruct UserTreeMapping {\\r\\n  ...\n      POP \t\t\tstruct UserTreeMapping {\\r\\n  ...\n      JUMP \t\t\tstruct UserTreeMapping {\\r\\n  ...\n    tag 218\t\t\tfunction mint(address to, uint...\n      JUMPDEST \t\t\tfunction mint(address to, uint...\n      PUSH [tag] 273\t\t\t_mint(to, amount)\n      DUP3 \t\t\tto\n      DUP3 \t\t\tamount\n      PUSH [tag] 274\t\t\t_mint\n      JUMP \t\t\t_mint(to, amount)\n    tag 273\t\t\t_mint(to, amount)\n      JUMPDEST \t\t\t_mint(to, amount)\n      POP \t\t\tfunction mint(address to, uint...\n      POP \t\t\tfunction mint(address to, uint...\n      JUMP \t\t\tfunction mint(address to, uint...\n    tag 263\t\t\t\n      JUMPDEST \t\t\t\n      POP \t\t\t\n      POP \t\t\t\n      POP \t\t\t\n      JUMP \t\t\t\n    tag 269\t\t\t\n      JUMPDEST \t\t\t\n      POP \t\t\t\n      POP \t\t\t\n      POP \t\t\t\n      JUMP \t\t\t\n    tag 274\t\t\t\n      JUMPDEST \t\t\t\n      PUSH 0\t\t\t\n      PUSH FFFFFFFFFFFFFFFFFFFFFFFFFFFFFFFFFFFFFFFF\t\t\t\n      AND \t\t\t\n      DUP3 \t\t\t\n      PUSH FFFFFFFFFFFFFFFFFFFFFFFFFFFFFFFFFFFFFFFF\t\t\t\n      AND \t\t\t\n      SUB \t\t\t\n      PUSH [tag] 278\t\t\t\n      JUMPI \t\t\t\n      PUSH 40\t\t\t\n      MLOAD \t\t\t\n      PUSH 8C379A000000000000000000000000000000000000000000000000000000000\t\t\t\n      DUP2 \t\t\t\n      MSTORE \t\t\t\n      PUSH 4\t\t\t\n      ADD \t\t\t\n      PUSH [tag] 279\t\t\t\n      SWAP1 \t\t\t\n      PUSH [tag] 280\t\t\t\n      JUMP \t\t\t\n    tag 279\t\t\t\n      JUMPDEST \t\t\t\n      PUSH 40\t\t\t\n      MLOAD \t\t\t\n      DUP1 \t\t\t\n      SWAP2 \t\t\t\n      SUB \t\t\t\n      SWAP1 \t\t\t\n      REVERT \t\t\t\n    tag 278\t\t\t\n      JUMPDEST \t\t\t\n      PUSH [tag] 281\t\t\t\n      PUSH 0\t\t\t\n      DUP4 \t\t\t\n      DUP4 \t\t\t\n      PUSH [tag] 263\t\t\t\n      JUMP \t\t\t\n    tag 281\t\t\t\n      JUMPDEST \t\t\t\n      DUP1 \t\t\t\n      PUSH 2\t\t\t\n      PUSH 0\t\t\t\n      DUP3 \t\t\t\n      DUP3 \t\t\t\n      SLOAD \t\t\t\n      PUSH [tag] 282\t\t\t\n      SWAP2 \t\t\t\n      SWAP1 \t\t\t\n      PUSH [tag] 134\t\t\t\n      JUMP \t\t\t\n    tag 282\t\t\t\n      JUMPDEST \t\t\t\n      SWAP3 \t\t\t\n      POP \t\t\t\n      POP \t\t\t\n      DUP2 \t\t\t\n      SWAP1 \t\t\t\n      SSTORE \t\t\t\n      POP \t\t\t\n      DUP1 \t\t\t\n      PUSH 0\t\t\t\n      DUP1 \t\t\t\n      DUP5 \t\t\t\n      PUSH FFFFFFFFFFFFFFFFFFFFFFFFFFFFFFFFFFFFFFFF\t\t\t\n      AND \t\t\t\n      PUSH FFFFFFFFFFFFFFFFFFFFFFFFFFFFFFFFFFFFFFFF\t\t\t\n      AND \t\t\t\n      DUP2 \t\t\t\n      MSTORE \t\t\t\n      PUSH 20\t\t\t\n      ADD \t\t\t\n      SWAP1 \t\t\t\n      DUP2 \t\t\t\n      MSTORE \t\t\t\n      PUSH 20\t\t\t\n      ADD \t\t\t\n      PUSH 0\t\t\t\n      KECCAK256 \t\t\t\n      PUSH 0\t\t\t\n      DUP3 \t\t\t\n      DUP3 \t\t\t\n      SLOAD \t\t\t\n      ADD \t\t\t\n      SWAP3 \t\t\t\n      POP \t\t\t\n      POP \t\t\t\n      DUP2 \t\t\t\n      SWAP1 \t\t\t\n      SSTORE \t\t\t\n      POP \t\t\t\n      DUP2 \t\t\t\n      PUSH FFFFFFFFFFFFFFFFFFFFFFFFFFFFFFFFFFFFFFFF\t\t\t\n      AND \t\t\t\n      PUSH 0\t\t\t\n      PUSH FFFFFFFFFFFFFFFFFFFFFFFFFFFFFFFFFFFFFFFF\t\t\t\n      AND \t\t\t\n      PUSH DDF252AD1BE2C89B69C2B068FC378DAA952BA7F163C4A11628F55A4DF523B3EF\t\t\t\n      DUP4 \t\t\t\n      PUSH 40\t\t\t\n      MLOAD \t\t\t\n      PUSH [tag] 283\t\t\t\n      SWAP2 \t\t\t\n      SWAP1 \t\t\t\n      PUSH [tag] 38\t\t\t\n      JUMP \t\t\t\n    tag 283\t\t\t\n      JUMPDEST \t\t\t\n      PUSH 40\t\t\t\n      MLOAD \t\t\t\n      DUP1 \t\t\t\n      SWAP2 \t\t\t\n      SUB \t\t\t\n      SWAP1 \t\t\t\n      LOG3 \t\t\t\n      PUSH [tag] 284\t\t\t\n      PUSH 0\t\t\t\n      DUP4 \t\t\t\n      DUP4 \t\t\t\n      PUSH [tag] 269\t\t\t\n      JUMP \t\t\t\n    tag 284\t\t\t\n      JUMPDEST \t\t\t\n      POP \t\t\t\n      POP \t\t\t\n      JUMP \t\t\t\n    tag 120\t\t\t\n      JUMPDEST \t\t\t\n      PUSH 40\t\t\t\n      MLOAD \t\t\t\n      DUP1 \t\t\t\n      PUSH A0\t\t\t\n      ADD \t\t\t\n      PUSH 40\t\t\t\n      MSTORE \t\t\t\n      DUP1 \t\t\t\n      PUSH 0\t\t\t\n      DUP2 \t\t\t\n      MSTORE \t\t\t\n      PUSH 20\t\t\t\n      ADD \t\t\t\n      PUSH 0\t\t\t\n      DUP2 \t\t\t\n      MSTORE \t\t\t\n      PUSH 20\t\t\t\n      ADD \t\t\t\n      PUSH 0\t\t\t\n      DUP2 \t\t\t\n      MSTORE \t\t\t\n      PUSH 20\t\t\t\n      ADD \t\t\t\n      PUSH 0\t\t\t\n      DUP2 \t\t\t\n      MSTORE \t\t\t\n      PUSH 20\t\t\t\n      ADD \t\t\t\n      PUSH 0\t\t\t\n      ISZERO \t\t\t\n      ISZERO \t\t\t\n      DUP2 \t\t\t\n      MSTORE \t\t\t\n      POP \t\t\t\n      SWAP1 \t\t\t\n      JUMP \t\t\t\n    tag 173\t\t\t\n      JUMPDEST \t\t\t\n      PUSH #[$] 0000000000000000000000000000000000000000000000000000000000000000\t\t\t\n      DUP1 \t\t\t\n      PUSH [$] 0000000000000000000000000000000000000000000000000000000000000000\t\t\t\n      DUP4 \t\t\t\n      CODECOPY \t\t\t\n      ADD \t\t\t\n      SWAP1 \t\t\t\n      JUMP \t\t\t\n    tag 285\t\t\t-License-Identifier: MIT\\r\\npr...\n      JUMPDEST \t\t\t-License-Identifier: MIT\\r\\npr...\n      PUSH 0\t\t\t\\nimpor\n      DUP2 \t\t\token/\n      MLOAD \t\t\tacts/token/E\n      SWAP1 \t\t\telin/contracts/token/E\n      POP \t\t\telin/contracts/token/E\n      SWAP2 \t\t\t-License-Identifier: MIT\\r\\npr...\n      SWAP1 \t\t\t-License-Identifier: MIT\\r\\npr...\n      POP \t\t\t-License-Identifier: MIT\\r\\npr...\n      JUMP \t\t\t-License-Identifier: MIT\\r\\npr...\n    tag 286\t\t\tl\";\\r\\nimport \"./TreeCollectio...\n      JUMPDEST \t\t\tl\";\\r\\nimport \"./TreeCollectio...\n      PUSH 0\t\t\tters for Co\n      DUP3 \t\t\tunters\n      DUP3 \t\t\t   \n      MSTORE \t\t\tter;\\r\\n    Counters.\n      PUSH 20\t\t\tter;\n      DUP3 \t\t\tnCo\n      ADD \t\t\tctionCounter;\\r\n      SWAP1 \t\t\tublic TreeCollectionCounter;\\r\n      POP \t\t\tublic TreeCollectionCounter;\\r\n      SWAP3 \t\t\tl\";\\r\\nimport \"./TreeCollectio...\n      SWAP2 \t\t\tl\";\\r\\nimport \"./TreeCollectio...\n      POP \t\t\tl\";\\r\\nimport \"./TreeCollectio...\n      POP \t\t\tl\";\\r\\nimport \"./TreeCollectio...\n      JUMP \t\t\tl\";\\r\\nimport \"./TreeCollectio...\n    tag 287\t\t\tint256 immutable base = 1e24;\\...\n      JUMPDEST \t\t\tint256 immutable base = 1e24;\\...\n      PUSH 0\t\t\ta\n    tag 365\t\t\tR;\\r\\n\\r\\n    address private ...\n      JUMPDEST \t\t\tR;\\r\\n\\r\\n    address private ...\n      DUP4 \t\t\tess pr\n      DUP2 \t\t\td\n      LT \t\t\t  address pri\n      ISZERO \t\t\tR;\\r\\n\\r\\n    address private ...\n      PUSH [tag] 367\t\t\tR;\\r\\n\\r\\n    address private ...\n      JUMPI \t\t\tR;\\r\\n\\r\\n    address private ...\n      DUP1 \t\t\t \n      DUP3 \t\t\t   \n      ADD \t\t\t){\\r\\n       \n      MLOAD \t\t\t \"GNE\"){\\r\\n        \n      DUP2 \t\t\ti\n      DUP5 \t\t\tGen\n      ADD \t\t\t20(\"Genesis\n      MSTORE \t\t\ten) ERC20(\"Genesis\", \"GNE\"){\\r...\n      PUSH 20\t\t\t  \n      DUP2 \t\t\t\\n\n      ADD \t\t\tin;\\r\\n\\r\\n   \n      SWAP1 \t\t\te admin;\\r\\n\\r\\n   \n      POP \t\t\te admin;\\r\\n\\r\\n   \n      PUSH [tag] 365\t\t\tR;\\r\\n\\r\\n    address private ...\n      JUMP \t\t\tR;\\r\\n\\r\\n    address private ...\n    tag 367\t\t\tR;\\r\\n\\r\\n    address private ...\n      JUMPDEST \t\t\tR;\\r\\n\\r\\n    address private ...\n      PUSH 0\t\t\tt\n      DUP5 \t\t\t= ERC2\n      DUP5 \t\t\tNEA\n      ADD \t\t\t  STNEAR = ERC20\n      MSTORE \t\t\t\\n        STNEAR = ERC20(_to\n      POP \t\t\t8;\\r\\n    ERC20 immutable STNE...\n      POP \t\t\tint256 immutable base = 1e24;\\...\n      POP \t\t\tint256 immutable base = 1e24;\\...\n      POP \t\t\tint256 immutable base = 1e24;\\...\n      JUMP \t\t\tint256 immutable base = 1e24;\\...\n    tag 288\t\t\t\\r\\n\\r\\n    function mint(addr...\n      JUMPDEST \t\t\t\\r\\n\\r\\n    function mint(addr...\n      PUSH 0\t\t\t amoun\n      PUSH 1F\t\t\t }\n      NOT \t\t\t\\n    }\\r\n      PUSH 1F\t\t\tnt\n      DUP4 \t\t\to, am\n      ADD \t\t\tnt(to, amount)\n      AND \t\t\t _mint(to, amount);\\r\\n    }\\r...\n      SWAP1 \t\t\t{\\r\\n        _mint(to, amount)...\n      POP \t\t\t{\\r\\n        _mint(to, amount)...\n      SWAP2 \t\t\t\\r\\n\\r\\n    function mint(addr...\n      SWAP1 \t\t\t\\r\\n\\r\\n    function mint(addr...\n      POP \t\t\t\\r\\n\\r\\n    function mint(addr...\n      JUMP \t\t\t\\r\\n\\r\\n    function mint(addr...\n    tag 289\t\t\t TreeDetails{\\r\\n        uint2...\n      JUMPDEST \t\t\t TreeDetails{\\r\\n        uint2...\n      PUSH 0\t\t\t56 \n      PUSH [tag] 370\t\t\tnt256 tokensYielded;\\r\\n      ...\n      DUP3 \t\t\tl isI\n      PUSH [tag] 285\t\t\tnt256 tokensYielded;\\r\\n      ...\n      JUMP \t\t\tnt256 tokensYielded;\\r\\n      ...\n    tag 370\t\t\tnt256 tokensYielded;\\r\\n      ...\n      JUMPDEST \t\t\tnt256 tokensYielded;\\r\\n      ...\n      PUSH [tag] 371\t\t\t}\\r\\n\\r\\n    struct UserTreeMa...\n      DUP2 \t\t\teeDeta\n      DUP6 \t\t\t=> \n      PUSH [tag] 286\t\t\t}\\r\\n\\r\\n    struct UserTreeMa...\n      JUMP \t\t\t}\\r\\n\\r\\n    struct UserTreeMa...\n    tag 371\t\t\t}\\r\\n\\r\\n    struct UserTreeMa...\n      JUMPDEST \t\t\t}\\r\\n\\r\\n    struct UserTreeMa...\n      SWAP4 \t\t\t;\\r\\n    }\\r\\n\\r\\n    struct U...\n      POP \t\t\t;\\r\\n    }\\r\\n\\r\\n    struct U...\n      PUSH [tag] 372\t\t\tetails; // mapping to store us...\n      DUP2 \t\t\t\\n    }\n      DUP6 \t\t\tenI\n      PUSH 20\t\t\tits \n      DUP7 \t\t\ts wit\n      ADD \t\t\ttails with its t\n      PUSH [tag] 287\t\t\tetails; // mapping to store us...\n      JUMP \t\t\tetails; // mapping to store us...\n    tag 372\t\t\tetails; // mapping to store us...\n      JUMPDEST \t\t\tetails; // mapping to store us...\n      PUSH [tag] 373\t\t\t TreeCollection) public treec\n      DUP2 \t\t\tc tree\n      PUSH [tag] 288\t\t\t TreeCollection) public treec\n      JUMP \t\t\t TreeCollection) public treec\n    tag 373\t\t\t TreeCollection) public treec\n      JUMPDEST \t\t\t TreeCollection) public treec\n      DUP5 \t\t\t56 \n      ADD \t\t\tint256 => TreeCollection) publ...\n      SWAP2 \t\t\tpping(uint256 => TreeCollectio...\n      POP \t\t\tpping(uint256 => TreeCollectio...\n      POP \t\t\tateredTimes;\\r\\n        uint25...\n      SWAP3 \t\t\t TreeDetails{\\r\\n        uint2...\n      SWAP2 \t\t\t TreeDetails{\\r\\n        uint2...\n      POP \t\t\t TreeDetails{\\r\\n        uint2...\n      POP \t\t\t TreeDetails{\\r\\n        uint2...\n      JUMP \t\t\t TreeDetails{\\r\\n        uint2...\n    tag 28\t\t\t/ to keep record of collection...\n      JUMPDEST \t\t\t/ to keep record of collection...\n      PUSH 0\t\t\tTree\n      PUSH 20\t\t\tui\n      DUP3 \t\t\t   mappin\n      ADD \t\t\tn\\r\\n    mapping(uin\n      SWAP1 \t\t\tollection\\r\\n    mapping(uin\n      POP \t\t\tollection\\r\\n    mapping(uin\n      DUP2 \t\t\tg to assi\n      DUP2 \t\t\tmapp\n      SUB \t\t\t // mapping to assig\n      PUSH 0\t\t\tz\n      DUP4 \t\t\tionInitia\n      ADD \t\t\tlectionInitialize\n      MSTORE \t\t\tol) collectionInitialized; // ...\n      PUSH [tag] 375\t\t\th bool\\r\\n\\r\\n    function min...\n      DUP2 \t\t\tmsg.\n      DUP5 \t\t\t requi\n      PUSH [tag] 289\t\t\th bool\\r\\n\\r\\n    function min...\n      JUMP \t\t\th bool\\r\\n\\r\\n    function min...\n    tag 375\t\t\th bool\\r\\n\\r\\n    function min...\n      JUMPDEST \t\t\th bool\\r\\n\\r\\n    function min...\n      SWAP1 \t\t\tonID with bool\\r\\n\\r\\n    func...\n      POP \t\t\tonID with bool\\r\\n\\r\\n    func...\n      SWAP3 \t\t\t/ to keep record of collection...\n      SWAP2 \t\t\t/ to keep record of collection...\n      POP \t\t\t/ to keep record of collection...\n      POP \t\t\t/ to keep record of collection...\n      JUMP \t\t\t/ to keep record of collection...\n    tag 290\t\t\tn, \"Nope!\");\\r\\n\\r\\n        Tr...\n      JUMPDEST \t\t\tn, \"Nope!\");\\r\\n\\r\\n        Tr...\n      PUSH 0\t\t\tctionC\n      PUSH 40\t\t\t  \n      MLOAD \t\t\t        u\n      SWAP1 \t\t\tement();\\r\\n        u\n      POP \t\t\tement();\\r\\n        u\n      SWAP1 \t\t\tn, \"Nope!\");\\r\\n\\r\\n        Tr...\n      JUMP \t\t\tn, \"Nope!\");\\r\\n\\r\\n        Tr...\n    tag 291\t\t\tctionID = TreeCollectionCounte...\n      JUMPDEST \t\t\tctionID = TreeCollectionCounte...\n      PUSH 0\t\t\t \n      DUP1 \t\t\t \n      REVERT \t\t\ton();\\r\\n     \n    tag 292\t\t\tctions[collectionID] = newColl...\n      JUMPDEST \t\t\tctions[collectionID] = newColl...\n      PUSH 0\t\t\tt\n      DUP1 \t\t\tu\n      REVERT \t\t\t\\r\\n    functi\n    tag 293\t\t\tuint256 collectionID, string m...\n      JUMPDEST \t\t\tuint256 collectionID, string m...\n      PUSH 0\t\t\turi) pu\n      PUSH FFFFFFFFFFFFFFFFFFFFFFFFFFFFFFFFFFFFFFFF\t\t\tionInitialized[collectionID] =...\n      DUP3 \t\t\tcolle\n      AND \t\t\tire(collectionInitialized[coll...\n      SWAP1 \t\t\t       require(collectionIniti...\n      POP \t\t\t       require(collectionIniti...\n      SWAP2 \t\t\tuint256 collectionID, string m...\n      SWAP1 \t\t\tuint256 collectionID, string m...\n      POP \t\t\tuint256 collectionID, string m...\n      JUMP \t\t\tuint256 collectionID, string m...\n    tag 294\t\t\tt yet minted!\");\\r\\n\\r\\n      ...\n      JUMPDEST \t\t\tt yet minted!\");\\r\\n\\r\\n      ...\n      PUSH 0\t\t\tTNEAR.t\n      PUSH [tag] 381\t\t\t, address(this), 5 * bas\n      DUP3 \t\t\t * ba\n      PUSH [tag] 293\t\t\t, address(this), 5 * bas\n      JUMP \t\t\t, address(this), 5 * bas\n    tag 381\t\t\t, address(this), 5 * bas\n      JUMPDEST \t\t\t, address(this), 5 * bas\n      SWAP1 \t\t\t(msg.sender, address(this), 5 ...\n      POP \t\t\t(msg.sender, address(this), 5 ...\n      SWAP2 \t\t\tt yet minted!\");\\r\\n\\r\\n      ...\n      SWAP1 \t\t\tt yet minted!\");\\r\\n\\r\\n      ...\n      POP \t\t\tt yet minted!\");\\r\\n\\r\\n      ...\n      JUMP \t\t\tt yet minted!\");\\r\\n\\r\\n      ...\n    tag 295\t\t\t transferFrom failed\"); \\r\\n\\r...\n      JUMPDEST \t\t\t transferFrom failed\"); \\r\\n\\r...\n      PUSH [tag] 383\t\t\tollection(treecollection\n      DUP2 \t\t\tectio\n      PUSH [tag] 294\t\t\tollection(treecollection\n      JUMP \t\t\tollection(treecollection\n    tag 383\t\t\tollection(treecollection\n      JUMPDEST \t\t\tollection(treecollection\n      DUP2 \t\t\t= Tre\n      EQ \t\t\ton = TreeCollection(treecollec...\n      PUSH [tag] 384\t\t\teecollection = TreeCollection(...\n      JUMPI \t\t\teecollection = TreeCollection(...\n      PUSH 0\t\t\t)\n      DUP1 \t\t\tI\n      REVERT \t\t\tlectionID]);\n    tag 384\t\t\teecollection = TreeCollection(...\n      JUMPDEST \t\t\teecollection = TreeCollection(...\n      POP \t\t\t transferFrom failed\"); \\r\\n\\r...\n      JUMP \t\t\t transferFrom failed\"); \\r\\n\\r...\n    tag 296\t\t\tcollection.safeMint(msg.sender...\n      JUMPDEST \t\t\tcollection.safeMint(msg.sender...\n      PUSH 0\t\t\t   ui\n      DUP2 \t\t\tkenIdC\n      CALLDATALOAD \t\t\tcollection.tokenIdCo\n      SWAP1 \t\t\tID = treecollection.tokenIdCo\n      POP \t\t\tID = treecollection.tokenIdCo\n      PUSH [tag] 386\t\t\t\\n        userTree[collectionI...\n      DUP2 \t\t\tnID].\n      PUSH [tag] 295\t\t\t\\n        userTree[collectionI...\n      JUMP \t\t\t\\n        userTree[collectionI...\n    tag 386\t\t\t\\n        userTree[collectionI...\n      JUMPDEST \t\t\t\\n        userTree[collectionI...\n      SWAP3 \t\t\tcollection.safeMint(msg.sender...\n      SWAP2 \t\t\tcollection.safeMint(msg.sender...\n      POP \t\t\tcollection.safeMint(msg.sender...\n      POP \t\t\tcollection.safeMint(msg.sender...\n      JUMP \t\t\tcollection.safeMint(msg.sender...\n    tag 297\t\t\tokenID] = TreeDetails(0, 0, 0,...\n      JUMPDEST \t\t\tokenID] = TreeDetails(0, 0, 0,...\n      PUSH 0\t\t\te);\\r\\n  \n      DUP2 \t\t\tter(u\n      SWAP1 \t\t\tfunction water(u\n      POP \t\t\tfunction water(u\n      SWAP2 \t\t\tokenID] = TreeDetails(0, 0, 0,...\n      SWAP1 \t\t\tokenID] = TreeDetails(0, 0, 0,...\n      POP \t\t\tokenID] = TreeDetails(0, 0, 0,...\n      JUMP \t\t\tokenID] = TreeDetails(0, 0, 0,...\n    tag 298\t\t\tectionID, uint256 _tokenID) pu...\n      JUMPDEST \t\t\tectionID, uint256 _tokenID) pu...\n      PUSH [tag] 389\t\t\tlectionInitialized[_coll\n      DUP2 \t\t\t[_col\n      PUSH [tag] 297\t\t\tlectionInitialized[_coll\n      JUMP \t\t\tlectionInitialized[_coll\n    tag 389\t\t\tlectionInitialized[_coll\n      JUMPDEST \t\t\tlectionInitialized[_coll\n      DUP2 \t\t\tire(c\n      EQ \t\t\tequire(collectionInitialized[_...\n      PUSH [tag] 390\t\t\t\\n        require(collectionIn...\n      JUMPI \t\t\t\\n        require(collectionIn...\n      PUSH 0\t\t\tu\n      DUP1 \t\t\t \n      REVERT \t\t\tnID] == true\n    tag 390\t\t\t\\n        require(collectionIn...\n      JUMPDEST \t\t\t\\n        require(collectionIn...\n      POP \t\t\tectionID, uint256 _tokenID) pu...\n      JUMP \t\t\tectionID, uint256 _tokenID) pu...\n    tag 299\t\t\tis not yet minted!\");\\r\\n\\r\\n ...\n      JUMPDEST \t\t\tis not yet minted!\");\\r\\n\\r\\n ...\n      PUSH 0\t\t\tree[_\n      DUP2 \t\t\tD].isI\n      CALLDATALOAD \t\t\ttails[_tokenID].isIn\n      SWAP1 \t\t\tD].treeDetails[_tokenID].isIn\n      POP \t\t\tD].treeDetails[_tokenID].isIn\n      PUSH [tag] 392\t\t\t, \"Tree does not exist\");\\r\\n\\...\n      DUP2 \t\t\t\\r\\n   \n      PUSH [tag] 298\t\t\t, \"Tree does not exist\");\\r\\n\\...\n      JUMP \t\t\t, \"Tree does not exist\");\\r\\n\\...\n    tag 392\t\t\t, \"Tree does not exist\");\\r\\n\\...\n      JUMPDEST \t\t\t, \"Tree does not exist\");\\r\\n\\...\n      SWAP3 \t\t\tis not yet minted!\");\\r\\n\\r\\n ...\n      SWAP2 \t\t\tis not yet minted!\");\\r\\n\\r\\n ...\n      POP \t\t\tis not yet minted!\");\\r\\n\\r\\n ...\n      POP \t\t\tis not yet minted!\");\\r\\n\\r\\n ...\n      JUMP \t\t\tis not yet minted!\");\\r\\n\\r\\n ...\n    tag 31\t\t\tection treecollection = TreeCo...\n      JUMPDEST \t\t\tection treecollection = TreeCo...\n      PUSH 0\t\t\t]);\\r\\n\\r\n      DUP1 \t\t\t      \n      PUSH 40\t\t\t= \n      DUP4 \t\t\t(_tokenID\n      DUP6 \t\t\tn.owner\n      SUB \t\t\tction.ownerOf(_tokenID)\n      SLT \t\t\tollection.ownerOf(_tokenID) ==...\n      ISZERO \t\t\teecollection.ownerOf(_tokenID)...\n      PUSH [tag] 394\t\t\teecollection.ownerOf(_tokenID)...\n      JUMPI \t\t\teecollection.ownerOf(_tokenID)...\n      PUSH [tag] 395\t\t\tsender, \"You are not the owner...\n      PUSH [tag] 291\t\t\tsender, \"You are not the owner...\n      JUMP \t\t\tsender, \"You are not the owner...\n    tag 395\t\t\tsender, \"You are not the owner...\n      JUMPDEST \t\t\tsender, \"You are not the owner...\n    tag 394\t\t\teecollection.ownerOf(_tokenID)...\n      JUMPDEST \t\t\teecollection.ownerOf(_tokenID)...\n      PUSH 0\t\t\tt\n      PUSH [tag] 396\t\t\t\\r\\n        userTree[_collecti...\n      DUP6 \t\t\t[_token\n      DUP3 \t\t\teeDeta\n      DUP7 \t\t\tctionID].\n      ADD \t\t\tollectionID].treeDetai\n      PUSH [tag] 296\t\t\t\\r\\n        userTree[_collecti...\n      JUMP \t\t\t\\r\\n        userTree[_collecti...\n    tag 396\t\t\t\\r\\n        userTree[_collecti...\n      JUMPDEST \t\t\t\\r\\n        userTree[_collecti...\n      SWAP3 \t\t\tiled\"); \\r\\n\\r\\n        userTr...\n      POP \t\t\tiled\"); \\r\\n\\r\\n        userTr...\n      POP \t\t\ts(this), 1 * base), \"STNEAR: t...\n      PUSH 20\t\t\tee\n      PUSH [tag] 397\t\t\tils[_tokenID].wateredTimes += ...\n      DUP6 \t\t\teturn t\n      DUP3 \t\t\t      \n      DUP7 \t\t\ts += 1;\\r\\n\n      ADD \t\t\tTimes += 1;\\r\\n\\r\\n       \n      PUSH [tag] 299\t\t\tils[_tokenID].wateredTimes += ...\n      JUMP \t\t\tils[_tokenID].wateredTimes += ...\n    tag 397\t\t\tils[_tokenID].wateredTimes += ...\n      JUMPDEST \t\t\tils[_tokenID].wateredTimes += ...\n      SWAP2 \t\t\t].treeDetails[_tokenID].watere...\n      POP \t\t\t].treeDetails[_tokenID].watere...\n      POP \t\t\tck.timestamp;\\r\\n        userT...\n      SWAP3 \t\t\tection treecollection = TreeCo...\n      POP \t\t\tection treecollection = TreeCo...\n      SWAP3 \t\t\tection treecollection = TreeCo...\n      SWAP1 \t\t\tection treecollection = TreeCo...\n      POP \t\t\tection treecollection = TreeCo...\n      JUMP \t\t\tection treecollection = TreeCo...\n    tag 300\t\t\tion claim(uint256 _collectionI...\n      JUMPDEST \t\t\tion claim(uint256 _collectionI...\n      PUSH 0\t\t\tint256 \n      DUP2 \t\t\t     \n      ISZERO \t\t\t) {\\r\\n\\r\\n      \n      ISZERO \t\t\tns(bool) {\\r\\n\\r\\n       \n      SWAP1 \t\t\tublic returns(bool) {\\r\\n\\r\\n ...\n      POP \t\t\tublic returns(bool) {\\r\\n\\r\\n ...\n      SWAP2 \t\t\tion claim(uint256 _collectionI...\n      SWAP1 \t\t\tion claim(uint256 _collectionI...\n      POP \t\t\tion claim(uint256 _collectionI...\n      JUMP \t\t\tion claim(uint256 _collectionI...\n    tag 301\t\t\tlectionInitialized[_collection...\n      JUMPDEST \t\t\tlectionInitialized[_collection...\n      PUSH [tag] 400\t\t\t      require(userTre\n      DUP2 \t\t\tserTr\n      PUSH [tag] 300\t\t\t      require(userTre\n      JUMP \t\t\t      require(userTre\n    tag 400\t\t\t      require(userTre\n      JUMPDEST \t\t\t      require(userTre\n      DUP3 \t\t\t\\n\\r\\n\n      MSTORE \t\t\tted\");\\r\\n\\r\\n        require(...\n      POP \t\t\tlectionInitialized[_collection...\n      POP \t\t\tlectionInitialized[_collection...\n      JUMP \t\t\tlectionInitialized[_collection...\n    tag 34\t\t\tID].treeDetails[_tokenID].isIn...\n      JUMPDEST \t\t\tID].treeDetails[_tokenID].isIn...\n      PUSH 0\t\t\tion \n      PUSH 20\t\t\tee\n      DUP3 \t\t\tllection(\n      ADD \t\t\teeCollection(treec\n      SWAP1 \t\t\tion = TreeCollection(treec\n      POP \t\t\tion = TreeCollection(treec\n      PUSH [tag] 402\t\t\t[_collectionID]);\\r\\n\\r\\n     ...\n      PUSH 0\t\t\to\n      DUP4 \t\t\t.ownerOf(\n      ADD \t\t\ttion.ownerOf(_tok\n      DUP5 \t\t\treecol\n      PUSH [tag] 301\t\t\t[_collectionID]);\\r\\n\\r\\n     ...\n      JUMP \t\t\t[_collectionID]);\\r\\n\\r\\n     ...\n    tag 402\t\t\t[_collectionID]);\\r\\n\\r\\n     ...\n      JUMPDEST \t\t\t[_collectionID]);\\r\\n\\r\\n     ...\n      SWAP3 \t\t\tID].treeDetails[_tokenID].isIn...\n      SWAP2 \t\t\tID].treeDetails[_tokenID].isIn...\n      POP \t\t\tID].treeDetails[_tokenID].isIn...\n      POP \t\t\tID].treeDetails[_tokenID].isIn...\n      JUMP \t\t\tID].treeDetails[_tokenID].isIn...\n    tag 302\t\t\tender, \"You are not the owner\"...\n      JUMPDEST \t\t\tender, \"You are not the owner\"...\n      PUSH [tag] 404\t\t\trTree[_collectionID].tre\n      DUP2 \t\t\tD].tr\n      PUSH [tag] 297\t\t\trTree[_collectionID].tre\n      JUMP \t\t\trTree[_collectionID].tre\n    tag 404\t\t\trTree[_collectionID].tre\n      JUMPDEST \t\t\trTree[_collectionID].tre\n      DUP3 \t\t\t- u\n      MSTORE \t\t\testamp - userTree[_collectionI...\n      POP \t\t\tender, \"You are not the owner\"...\n      POP \t\t\tender, \"You are not the owner\"...\n      JUMP \t\t\tender, \"You are not the owner\"...\n    tag 38\t\t\tenID].lastWatered <= 43200, \\r...\n      JUMPDEST \t\t\tenID].lastWatered <= 43200, \\r...\n      PUSH 0\t\t\t    \n      PUSH 20\t\t\tec\n      DUP3 \t\t\trTree[_co\n      ADD \t\t\t userTree[_collect\n      SWAP1 \t\t\testamp - userTree[_collect\n      POP \t\t\testamp - userTree[_collect\n      PUSH [tag] 406\t\t\teDetails[_tokenID].lastClaimed...\n      PUSH 0\t\t\t \n      DUP4 \t\t\t't Claim\"\n      ADD \t\t\t\"Can't Claim\"\\r\\n  \n      DUP5 \t\t\t      \n      PUSH [tag] 302\t\t\teDetails[_tokenID].lastClaimed...\n      JUMP \t\t\teDetails[_tokenID].lastClaimed...\n    tag 406\t\t\teDetails[_tokenID].lastClaimed...\n      JUMPDEST \t\t\teDetails[_tokenID].lastClaimed...\n      SWAP3 \t\t\tenID].lastWatered <= 43200, \\r...\n      SWAP2 \t\t\tenID].lastWatered <= 43200, \\r...\n      POP \t\t\tenID].lastWatered <= 43200, \\r...\n      POP \t\t\tenID].lastWatered <= 43200, \\r...\n      JUMP \t\t\tenID].lastWatered <= 43200, \\r...\n    tag 41\t\t\t      userTree[_collectionID]....\n      JUMPDEST \t\t\t      userTree[_collectionID]....\n      PUSH 0\t\t\tock.ti\n      DUP1 \t\t\tstamp;\n      PUSH 40\t\t\tls\n      DUP4 \t\t\tD].treeDe\n      DUP6 \t\t\tllectio\n      SUB \t\t\t[_collectionID].treeDet\n      SLT \t\t\tTree[_collectionID].treeDetail...\n      ISZERO \t\t\tserTree[_collectionID].treeDet...\n      PUSH [tag] 408\t\t\tserTree[_collectionID].treeDet...\n      JUMPI \t\t\tserTree[_collectionID].treeDet...\n      PUSH [tag] 409\t\t\tkenID].tokensYielded += 5;\\r\\n...\n      PUSH [tag] 291\t\t\tkenID].tokensYielded += 5;\\r\\n...\n      JUMP \t\t\tkenID].tokensYielded += 5;\\r\\n...\n    tag 409\t\t\tkenID].tokensYielded += 5;\\r\\n...\n      JUMPDEST \t\t\tkenID].tokensYielded += 5;\\r\\n...\n    tag 408\t\t\tserTree[_collectionID].treeDet...\n      JUMPDEST \t\t\tserTree[_collectionID].treeDet...\n      PUSH 0\t\t\ta\n      PUSH [tag] 410\t\t\t, uint256 tokenId) public view...\n      DUP6 \t\t\ttails m\n      DUP3 \t\t\tns(Tre\n      DUP7 \t\t\t view ret\n      ADD \t\t\tblic view returns(Tree\n      PUSH [tag] 299\t\t\t, uint256 tokenId) public view...\n      JUMP \t\t\t, uint256 tokenId) public view...\n    tag 410\t\t\t, uint256 tokenId) public view...\n      JUMPDEST \t\t\t, uint256 tokenId) public view...\n      SWAP3 \t\t\tllectionId, uint256 tokenId) p...\n      POP \t\t\tllectionId, uint256 tokenId) p...\n      POP \t\t\t }\\r\\n\\r\\n    function getTree...\n      PUSH 20\t\t\tee\n      PUSH [tag] 411\t\t\t   //returns details related t...\n      DUP6 \t\t\tFT(Tree\n      DUP3 \t\t\trticul\n      DUP7 \t\t\tted to a \n      ADD \t\t\trelated to a particula\n      PUSH [tag] 299\t\t\t   //returns details related t...\n      JUMP \t\t\t   //returns details related t...\n    tag 411\t\t\t   //returns details related t...\n      JUMPDEST \t\t\t   //returns details related t...\n      SWAP2 \t\t\td];\\r\\n        //returns detai...\n      POP \t\t\td];\\r\\n        //returns detai...\n      POP \t\t\turn userTree[collectionId].tre...\n      SWAP3 \t\t\t      userTree[_collectionID]....\n      POP \t\t\t      userTree[_collectionID]....\n      SWAP3 \t\t\t      userTree[_collectionID]....\n      SWAP1 \t\t\t      userTree[_collectionID]....\n      POP \t\t\t      userTree[_collectionID]....\n      JUMP \t\t\t      userTree[_collectionID]....\n    tag 303\t\t\t returnNFTcount(uint256 collec...\n      JUMPDEST \t\t\t returnNFTcount(uint256 collec...\n      PUSH [tag] 413\t\t\t return (treecollections\n      DUP2 \t\t\tction\n      PUSH [tag] 297\t\t\t return (treecollections\n      JUMP \t\t\t return (treecollections\n    tag 413\t\t\t return (treecollections\n      JUMPDEST \t\t\t return (treecollections\n      DUP3 \t\t\t   \n      MSTORE \t\t\t) {\\r\\n        return (treecol...\n      POP \t\t\t returnNFTcount(uint256 collec...\n      POP \t\t\t returnNFTcount(uint256 collec...\n      JUMP \t\t\t returnNFTcount(uint256 collec...\n    tag 304\t\t\t].tokenIdCounter());\\r\\n      ...\n      JUMPDEST \t\t\t].tokenIdCounter());\\r\\n      ...\n      PUSH [tag] 415\t\t\tlection\\r\\n    }\\r\\n}\n      DUP2 \t\t\t\\n}\n      PUSH [tag] 300\t\t\tlection\\r\\n    }\\r\\n}\n      JUMP \t\t\tlection\\r\\n    }\\r\\n}\n    tag 415\t\t\tlection\\r\\n    }\\r\\n}\n      JUMPDEST \t\t\tlection\\r\\n    }\\r\\n}\n      DUP3 \t\t\tr c\n      MSTORE \t\t\trticular collection\\r\\n    }\\r...\n      POP \t\t\t].tokenIdCounter());\\r\\n      ...\n      POP \t\t\t].tokenIdCounter());\\r\\n      ...\n      JUMP \t\t\t].tokenIdCounter());\\r\\n      ...\n    tag 305\t\t\t\n      JUMPDEST \t\t\t\n      PUSH A0\t\t\t\n      DUP3 \t\t\t\n      ADD \t\t\t\n      PUSH 0\t\t\t\n      DUP3 \t\t\t\n      ADD \t\t\t\n      MLOAD \t\t\t\n      PUSH [tag] 417\t\t\t\n      PUSH 0\t\t\t\n      DUP6 \t\t\t\n      ADD \t\t\t\n      DUP3 \t\t\t\n      PUSH [tag] 303\t\t\t\n      JUMP \t\t\t\n    tag 417\t\t\t\n      JUMPDEST \t\t\t\n      POP \t\t\t\n      PUSH 20\t\t\t\n      DUP3 \t\t\t\n      ADD \t\t\t\n      MLOAD \t\t\t\n      PUSH [tag] 418\t\t\t\n      PUSH 20\t\t\t\n      DUP6 \t\t\t\n      ADD \t\t\t\n      DUP3 \t\t\t\n      PUSH [tag] 303\t\t\t\n      JUMP \t\t\t\n    tag 418\t\t\t\n      JUMPDEST \t\t\t\n      POP \t\t\t\n      PUSH 40\t\t\t\n      DUP3 \t\t\t\n      ADD \t\t\t\n      MLOAD \t\t\t\n      PUSH [tag] 419\t\t\t\n      PUSH 40\t\t\t\n      DUP6 \t\t\t\n      ADD \t\t\t\n      DUP3 \t\t\t\n      PUSH [tag] 303\t\t\t\n      JUMP \t\t\t\n    tag 419\t\t\t\n      JUMPDEST \t\t\t\n      POP \t\t\t\n      PUSH 60\t\t\t\n      DUP3 \t\t\t\n      ADD \t\t\t\n      MLOAD \t\t\t\n      PUSH [tag] 420\t\t\t\n      PUSH 60\t\t\t\n      DUP6 \t\t\t\n      ADD \t\t\t\n      DUP3 \t\t\t\n      PUSH [tag] 303\t\t\t\n      JUMP \t\t\t\n    tag 420\t\t\t\n      JUMPDEST \t\t\t\n      POP \t\t\t\n      PUSH 80\t\t\t\n      DUP3 \t\t\t\n      ADD \t\t\t\n      MLOAD \t\t\t\n      PUSH [tag] 421\t\t\t\n      PUSH 80\t\t\t\n      DUP6 \t\t\t\n      ADD \t\t\t\n      DUP3 \t\t\t\n      PUSH [tag] 304\t\t\t\n      JUMP \t\t\t\n    tag 421\t\t\t\n      JUMPDEST \t\t\t\n      POP \t\t\t\n      POP \t\t\t\n      POP \t\t\t\n      POP \t\t\t\n      JUMP \t\t\t\n    tag 44\t\t\t\n      JUMPDEST \t\t\t\n      PUSH 0\t\t\t\n      PUSH A0\t\t\t\n      DUP3 \t\t\t\n      ADD \t\t\t\n      SWAP1 \t\t\t\n      POP \t\t\t\n      PUSH [tag] 423\t\t\t\n      PUSH 0\t\t\t\n      DUP4 \t\t\t\n      ADD \t\t\t\n      DUP5 \t\t\t\n      PUSH [tag] 305\t\t\t\n      JUMP \t\t\t\n    tag 423\t\t\t\n      JUMPDEST \t\t\t\n      SWAP3 \t\t\t\n      SWAP2 \t\t\t\n      POP \t\t\t\n      POP \t\t\t\n      JUMP \t\t\t\n    tag 47\t\t\t\n      JUMPDEST \t\t\t\n      PUSH 0\t\t\t\n      DUP1 \t\t\t\n      PUSH 0\t\t\t\n      PUSH 60\t\t\t\n      DUP5 \t\t\t\n      DUP7 \t\t\t\n      SUB \t\t\t\n      SLT \t\t\t\n      ISZERO \t\t\t\n      PUSH [tag] 425\t\t\t\n      JUMPI \t\t\t\n      PUSH [tag] 426\t\t\t\n      PUSH [tag] 291\t\t\t\n      JUMP \t\t\t\n    tag 426\t\t\t\n      JUMPDEST \t\t\t\n    tag 425\t\t\t\n      JUMPDEST \t\t\t\n      PUSH 0\t\t\t\n      PUSH [tag] 427\t\t\t\n      DUP7 \t\t\t\n      DUP3 \t\t\t\n      DUP8 \t\t\t\n      ADD \t\t\t\n      PUSH [tag] 296\t\t\t\n      JUMP \t\t\t\n    tag 427\t\t\t\n      JUMPDEST \t\t\t\n      SWAP4 \t\t\t\n      POP \t\t\t\n      POP \t\t\t\n      PUSH 20\t\t\t\n      PUSH [tag] 428\t\t\t\n      DUP7 \t\t\t\n      DUP3 \t\t\t\n      DUP8 \t\t\t\n      ADD \t\t\t\n      PUSH [tag] 296\t\t\t\n      JUMP \t\t\t\n    tag 428\t\t\t\n      JUMPDEST \t\t\t\n      SWAP3 \t\t\t\n      POP \t\t\t\n      POP \t\t\t\n      PUSH 40\t\t\t\n      PUSH [tag] 429\t\t\t\n      DUP7 \t\t\t\n      DUP3 \t\t\t\n      DUP8 \t\t\t\n      ADD \t\t\t\n      PUSH [tag] 299\t\t\t\n      JUMP \t\t\t\n    tag 429\t\t\t\n      JUMPDEST \t\t\t\n      SWAP2 \t\t\t\n      POP \t\t\t\n      POP \t\t\t\n      SWAP3 \t\t\t\n      POP \t\t\t\n      SWAP3 \t\t\t\n      POP \t\t\t\n      SWAP3 \t\t\t\n      JUMP \t\t\t\n    tag 306\t\t\t\n      JUMPDEST \t\t\t\n      PUSH 0\t\t\t\n      PUSH FF\t\t\t\n      DUP3 \t\t\t\n      AND \t\t\t\n      SWAP1 \t\t\t\n      POP \t\t\t\n      SWAP2 \t\t\t\n      SWAP1 \t\t\t\n      POP \t\t\t\n      JUMP \t\t\t\n    tag 307\t\t\t\n      JUMPDEST \t\t\t\n      PUSH [tag] 432\t\t\t\n      DUP2 \t\t\t\n      PUSH [tag] 306\t\t\t\n      JUMP \t\t\t\n    tag 432\t\t\t\n      JUMPDEST \t\t\t\n      DUP3 \t\t\t\n      MSTORE \t\t\t\n      POP \t\t\t\n      POP \t\t\t\n      JUMP \t\t\t\n    tag 53\t\t\t\n      JUMPDEST \t\t\t\n      PUSH 0\t\t\t\n      PUSH 20\t\t\t\n      DUP3 \t\t\t\n      ADD \t\t\t\n      SWAP1 \t\t\t\n      POP \t\t\t\n      PUSH [tag] 434\t\t\t\n      PUSH 0\t\t\t\n      DUP4 \t\t\t\n      ADD \t\t\t\n      DUP5 \t\t\t\n      PUSH [tag] 307\t\t\t\n      JUMP \t\t\t\n    tag 434\t\t\t\n      JUMPDEST \t\t\t\n      SWAP3 \t\t\t\n      SWAP2 \t\t\t\n      POP \t\t\t\n      POP \t\t\t\n      JUMP \t\t\t\n    tag 308\t\t\t\n      JUMPDEST \t\t\t\n      PUSH 0\t\t\t\n      DUP1 \t\t\t\n      REVERT \t\t\t\n    tag 309\t\t\t\n      JUMPDEST \t\t\t\n      PUSH 0\t\t\t\n      DUP1 \t\t\t\n      REVERT \t\t\t\n    tag 310\t\t\t\n      JUMPDEST \t\t\t\n      PUSH 4E487B7100000000000000000000000000000000000000000000000000000000\t\t\t\n      PUSH 0\t\t\t\n      MSTORE \t\t\t\n      PUSH 41\t\t\t\n      PUSH 4\t\t\t\n      MSTORE \t\t\t\n      PUSH 24\t\t\t\n      PUSH 0\t\t\t\n      REVERT \t\t\t\n    tag 311\t\t\t\n      JUMPDEST \t\t\t\n      PUSH [tag] 439\t\t\t\n      DUP3 \t\t\t\n      PUSH [tag] 288\t\t\t\n      JUMP \t\t\t\n    tag 439\t\t\t\n      JUMPDEST \t\t\t\n      DUP2 \t\t\t\n      ADD \t\t\t\n      DUP2 \t\t\t\n      DUP2 \t\t\t\n      LT \t\t\t\n      PUSH FFFFFFFFFFFFFFFF\t\t\t\n      DUP3 \t\t\t\n      GT \t\t\t\n      OR \t\t\t\n      ISZERO \t\t\t\n      PUSH [tag] 440\t\t\t\n      JUMPI \t\t\t\n      PUSH [tag] 441\t\t\t\n      PUSH [tag] 310\t\t\t\n      JUMP \t\t\t\n    tag 441\t\t\t\n      JUMPDEST \t\t\t\n    tag 440\t\t\t\n      JUMPDEST \t\t\t\n      DUP1 \t\t\t\n      PUSH 40\t\t\t\n      MSTORE \t\t\t\n      POP \t\t\t\n      POP \t\t\t\n      POP \t\t\t\n      JUMP \t\t\t\n    tag 312\t\t\t\n      JUMPDEST \t\t\t\n      PUSH 0\t\t\t\n      PUSH [tag] 443\t\t\t\n      PUSH [tag] 290\t\t\t\n      JUMP \t\t\t\n    tag 443\t\t\t\n      JUMPDEST \t\t\t\n      SWAP1 \t\t\t\n      POP \t\t\t\n      PUSH [tag] 444\t\t\t\n      DUP3 \t\t\t\n      DUP3 \t\t\t\n      PUSH [tag] 311\t\t\t\n      JUMP \t\t\t\n    tag 444\t\t\t\n      JUMPDEST \t\t\t\n      SWAP2 \t\t\t\n      SWAP1 \t\t\t\n      POP \t\t\t\n      JUMP \t\t\t\n    tag 313\t\t\t\n      JUMPDEST \t\t\t\n      PUSH 0\t\t\t\n      PUSH FFFFFFFFFFFFFFFF\t\t\t\n      DUP3 \t\t\t\n      GT \t\t\t\n      ISZERO \t\t\t\n      PUSH [tag] 446\t\t\t\n      JUMPI \t\t\t\n      PUSH [tag] 447\t\t\t\n      PUSH [tag] 310\t\t\t\n      JUMP \t\t\t\n    tag 447\t\t\t\n      JUMPDEST \t\t\t\n    tag 446\t\t\t\n      JUMPDEST \t\t\t\n      PUSH [tag] 448\t\t\t\n      DUP3 \t\t\t\n      PUSH [tag] 288\t\t\t\n      JUMP \t\t\t\n    tag 448\t\t\t\n      JUMPDEST \t\t\t\n      SWAP1 \t\t\t\n      POP \t\t\t\n      PUSH 20\t\t\t\n      DUP2 \t\t\t\n      ADD \t\t\t\n      SWAP1 \t\t\t\n      POP \t\t\t\n      SWAP2 \t\t\t\n      SWAP1 \t\t\t\n      POP \t\t\t\n      JUMP \t\t\t\n    tag 314\t\t\t\n      JUMPDEST \t\t\t\n      DUP3 \t\t\t\n      DUP2 \t\t\t\n      DUP4 \t\t\t\n      CALLDATACOPY \t\t\t\n      PUSH 0\t\t\t\n      DUP4 \t\t\t\n      DUP4 \t\t\t\n      ADD \t\t\t\n      MSTORE \t\t\t\n      POP \t\t\t\n      POP \t\t\t\n      POP \t\t\t\n      JUMP \t\t\t\n    tag 315\t\t\t\n      JUMPDEST \t\t\t\n      PUSH 0\t\t\t\n      PUSH [tag] 451\t\t\t\n      PUSH [tag] 452\t\t\t\n      DUP5 \t\t\t\n      PUSH [tag] 313\t\t\t\n      JUMP \t\t\t\n    tag 452\t\t\t\n      JUMPDEST \t\t\t\n      PUSH [tag] 312\t\t\t\n      JUMP \t\t\t\n    tag 451\t\t\t\n      JUMPDEST \t\t\t\n      SWAP1 \t\t\t\n      POP \t\t\t\n      DUP3 \t\t\t\n      DUP2 \t\t\t\n      MSTORE \t\t\t\n      PUSH 20\t\t\t\n      DUP2 \t\t\t\n      ADD \t\t\t\n      DUP5 \t\t\t\n      DUP5 \t\t\t\n      DUP5 \t\t\t\n      ADD \t\t\t\n      GT \t\t\t\n      ISZERO \t\t\t\n      PUSH [tag] 453\t\t\t\n      JUMPI \t\t\t\n      PUSH [tag] 454\t\t\t\n      PUSH [tag] 309\t\t\t\n      JUMP \t\t\t\n    tag 454\t\t\t\n      JUMPDEST \t\t\t\n    tag 453\t\t\t\n      JUMPDEST \t\t\t\n      PUSH [tag] 455\t\t\t\n      DUP5 \t\t\t\n      DUP3 \t\t\t\n      DUP6 \t\t\t\n      PUSH [tag] 314\t\t\t\n      JUMP \t\t\t\n    tag 455\t\t\t\n      JUMPDEST \t\t\t\n      POP \t\t\t\n      SWAP4 \t\t\t\n      SWAP3 \t\t\t\n      POP \t\t\t\n      POP \t\t\t\n      POP \t\t\t\n      JUMP \t\t\t\n    tag 316\t\t\t\n      JUMPDEST \t\t\t\n      PUSH 0\t\t\t\n      DUP3 \t\t\t\n      PUSH 1F\t\t\t\n      DUP4 \t\t\t\n      ADD \t\t\t\n      SLT \t\t\t\n      PUSH [tag] 457\t\t\t\n      JUMPI \t\t\t\n      PUSH [tag] 458\t\t\t\n      PUSH [tag] 308\t\t\t\n      JUMP \t\t\t\n    tag 458\t\t\t\n      JUMPDEST \t\t\t\n    tag 457\t\t\t\n      JUMPDEST \t\t\t\n      DUP2 \t\t\t\n      CALLDATALOAD \t\t\t\n      PUSH [tag] 459\t\t\t\n      DUP5 \t\t\t\n      DUP3 \t\t\t\n      PUSH 20\t\t\t\n      DUP7 \t\t\t\n      ADD \t\t\t\n      PUSH [tag] 315\t\t\t\n      JUMP \t\t\t\n    tag 459\t\t\t\n      JUMPDEST \t\t\t\n      SWAP2 \t\t\t\n      POP \t\t\t\n      POP \t\t\t\n      SWAP3 \t\t\t\n      SWAP2 \t\t\t\n      POP \t\t\t\n      POP \t\t\t\n      JUMP \t\t\t\n    tag 60\t\t\t\n      JUMPDEST \t\t\t\n      PUSH 0\t\t\t\n      DUP1 \t\t\t\n      PUSH 40\t\t\t\n      DUP4 \t\t\t\n      DUP6 \t\t\t\n      SUB \t\t\t\n      SLT \t\t\t\n      ISZERO \t\t\t\n      PUSH [tag] 461\t\t\t\n      JUMPI \t\t\t\n      PUSH [tag] 462\t\t\t\n      PUSH [tag] 291\t\t\t\n      JUMP \t\t\t\n    tag 462\t\t\t\n      JUMPDEST \t\t\t\n    tag 461\t\t\t\n      JUMPDEST \t\t\t\n      PUSH 0\t\t\t\n      PUSH [tag] 463\t\t\t\n      DUP6 \t\t\t\n      DUP3 \t\t\t\n      DUP7 \t\t\t\n      ADD \t\t\t\n      PUSH [tag] 299\t\t\t\n      JUMP \t\t\t\n    tag 463\t\t\t\n      JUMPDEST \t\t\t\n      SWAP3 \t\t\t\n      POP \t\t\t\n      POP \t\t\t\n      PUSH 20\t\t\t\n      DUP4 \t\t\t\n      ADD \t\t\t\n      CALLDATALOAD \t\t\t\n      PUSH FFFFFFFFFFFFFFFF\t\t\t\n      DUP2 \t\t\t\n      GT \t\t\t\n      ISZERO \t\t\t\n      PUSH [tag] 464\t\t\t\n      JUMPI \t\t\t\n      PUSH [tag] 465\t\t\t\n      PUSH [tag] 292\t\t\t\n      JUMP \t\t\t\n    tag 465\t\t\t\n      JUMPDEST \t\t\t\n    tag 464\t\t\t\n      JUMPDEST \t\t\t\n      PUSH [tag] 466\t\t\t\n      DUP6 \t\t\t\n      DUP3 \t\t\t\n      DUP7 \t\t\t\n      ADD \t\t\t\n      PUSH [tag] 316\t\t\t\n      JUMP \t\t\t\n    tag 466\t\t\t\n      JUMPDEST \t\t\t\n      SWAP2 \t\t\t\n      POP \t\t\t\n      POP \t\t\t\n      SWAP3 \t\t\t\n      POP \t\t\t\n      SWAP3 \t\t\t\n      SWAP1 \t\t\t\n      POP \t\t\t\n      JUMP \t\t\t\n    tag 64\t\t\t\n      JUMPDEST \t\t\t\n      PUSH 0\t\t\t\n      PUSH 20\t\t\t\n      DUP3 \t\t\t\n      DUP5 \t\t\t\n      SUB \t\t\t\n      SLT \t\t\t\n      ISZERO \t\t\t\n      PUSH [tag] 468\t\t\t\n      JUMPI \t\t\t\n      PUSH [tag] 469\t\t\t\n      PUSH [tag] 291\t\t\t\n      JUMP \t\t\t\n    tag 469\t\t\t\n      JUMPDEST \t\t\t\n    tag 468\t\t\t\n      JUMPDEST \t\t\t\n      PUSH 0\t\t\t\n      PUSH [tag] 470\t\t\t\n      DUP5 \t\t\t\n      DUP3 \t\t\t\n      DUP6 \t\t\t\n      ADD \t\t\t\n      PUSH [tag] 299\t\t\t\n      JUMP \t\t\t\n    tag 470\t\t\t\n      JUMPDEST \t\t\t\n      SWAP2 \t\t\t\n      POP \t\t\t\n      POP \t\t\t\n      SWAP3 \t\t\t\n      SWAP2 \t\t\t\n      POP \t\t\t\n      POP \t\t\t\n      JUMP \t\t\t\n    tag 69\t\t\t\n      JUMPDEST \t\t\t\n      PUSH 0\t\t\t\n      PUSH 20\t\t\t\n      DUP3 \t\t\t\n      DUP5 \t\t\t\n      SUB \t\t\t\n      SLT \t\t\t\n      ISZERO \t\t\t\n      PUSH [tag] 472\t\t\t\n      JUMPI \t\t\t\n      PUSH [tag] 473\t\t\t\n      PUSH [tag] 291\t\t\t\n      JUMP \t\t\t\n    tag 473\t\t\t\n      JUMPDEST \t\t\t\n    tag 472\t\t\t\n      JUMPDEST \t\t\t\n      PUSH 0\t\t\t\n      PUSH [tag] 474\t\t\t\n      DUP5 \t\t\t\n      DUP3 \t\t\t\n      DUP6 \t\t\t\n      ADD \t\t\t\n      PUSH [tag] 296\t\t\t\n      JUMP \t\t\t\n    tag 474\t\t\t\n      JUMPDEST \t\t\t\n      SWAP2 \t\t\t\n      POP \t\t\t\n      POP \t\t\t\n      SWAP3 \t\t\t\n      SWAP2 \t\t\t\n      POP \t\t\t\n      POP \t\t\t\n      JUMP \t\t\t\n    tag 317\t\t\t\n      JUMPDEST \t\t\t\n      PUSH 0\t\t\t\n      DUP2 \t\t\t\n      SWAP1 \t\t\t\n      POP \t\t\t\n      SWAP2 \t\t\t\n      SWAP1 \t\t\t\n      POP \t\t\t\n      JUMP \t\t\t\n    tag 318\t\t\t\n      JUMPDEST \t\t\t\n      PUSH 0\t\t\t\n      PUSH [tag] 477\t\t\t\n      PUSH [tag] 478\t\t\t\n      PUSH [tag] 479\t\t\t\n      DUP5 \t\t\t\n      PUSH [tag] 293\t\t\t\n      JUMP \t\t\t\n    tag 479\t\t\t\n      JUMPDEST \t\t\t\n      PUSH [tag] 317\t\t\t\n      JUMP \t\t\t\n    tag 478\t\t\t\n      JUMPDEST \t\t\t\n      PUSH [tag] 293\t\t\t\n      JUMP \t\t\t\n    tag 477\t\t\t\n      JUMPDEST \t\t\t\n      SWAP1 \t\t\t\n      POP \t\t\t\n      SWAP2 \t\t\t\n      SWAP1 \t\t\t\n      POP \t\t\t\n      JUMP \t\t\t\n    tag 319\t\t\t\n      JUMPDEST \t\t\t\n      PUSH 0\t\t\t\n      PUSH [tag] 481\t\t\t\n      DUP3 \t\t\t\n      PUSH [tag] 318\t\t\t\n      JUMP \t\t\t\n    tag 481\t\t\t\n      JUMPDEST \t\t\t\n      SWAP1 \t\t\t\n      POP \t\t\t\n      SWAP2 \t\t\t\n      SWAP1 \t\t\t\n      POP \t\t\t\n      JUMP \t\t\t\n    tag 320\t\t\t\n      JUMPDEST \t\t\t\n      PUSH 0\t\t\t\n      PUSH [tag] 483\t\t\t\n      DUP3 \t\t\t\n      PUSH [tag] 319\t\t\t\n      JUMP \t\t\t\n    tag 483\t\t\t\n      JUMPDEST \t\t\t\n      SWAP1 \t\t\t\n      POP \t\t\t\n      SWAP2 \t\t\t\n      SWAP1 \t\t\t\n      POP \t\t\t\n      JUMP \t\t\t\n    tag 321\t\t\t\n      JUMPDEST \t\t\t\n      PUSH [tag] 485\t\t\t\n      DUP2 \t\t\t\n      PUSH [tag] 320\t\t\t\n      JUMP \t\t\t\n    tag 485\t\t\t\n      JUMPDEST \t\t\t\n      DUP3 \t\t\t\n      MSTORE \t\t\t\n      POP \t\t\t\n      POP \t\t\t\n      JUMP \t\t\t\n    tag 92\t\t\t\n      JUMPDEST \t\t\t\n      PUSH 0\t\t\t\n      PUSH 20\t\t\t\n      DUP3 \t\t\t\n      ADD \t\t\t\n      SWAP1 \t\t\t\n      POP \t\t\t\n      PUSH [tag] 487\t\t\t\n      PUSH 0\t\t\t\n      DUP4 \t\t\t\n      ADD \t\t\t\n      DUP5 \t\t\t\n      PUSH [tag] 321\t\t\t\n      JUMP \t\t\t\n    tag 487\t\t\t\n      JUMPDEST \t\t\t\n      SWAP3 \t\t\t\n      SWAP2 \t\t\t\n      POP \t\t\t\n      POP \t\t\t\n      JUMP \t\t\t\n    tag 99\t\t\t\n      JUMPDEST \t\t\t\n      PUSH 0\t\t\t\n      DUP1 \t\t\t\n      PUSH 40\t\t\t\n      DUP4 \t\t\t\n      DUP6 \t\t\t\n      SUB \t\t\t\n      SLT \t\t\t\n      ISZERO \t\t\t\n      PUSH [tag] 489\t\t\t\n      JUMPI \t\t\t\n      PUSH [tag] 490\t\t\t\n      PUSH [tag] 291\t\t\t\n      JUMP \t\t\t\n    tag 490\t\t\t\n      JUMPDEST \t\t\t\n    tag 489\t\t\t\n      JUMPDEST \t\t\t\n      PUSH 0\t\t\t\n      PUSH [tag] 491\t\t\t\n      DUP6 \t\t\t\n      DUP3 \t\t\t\n      DUP7 \t\t\t\n      ADD \t\t\t\n      PUSH [tag] 296\t\t\t\n      JUMP \t\t\t\n    tag 491\t\t\t\n      JUMPDEST \t\t\t\n      SWAP3 \t\t\t\n      POP \t\t\t\n      POP \t\t\t\n      PUSH 20\t\t\t\n      PUSH [tag] 492\t\t\t\n      DUP6 \t\t\t\n      DUP3 \t\t\t\n      DUP7 \t\t\t\n      ADD \t\t\t\n      PUSH [tag] 296\t\t\t\n      JUMP \t\t\t\n    tag 492\t\t\t\n      JUMPDEST \t\t\t\n      SWAP2 \t\t\t\n      POP \t\t\t\n      POP \t\t\t\n      SWAP3 \t\t\t\n      POP \t\t\t\n      SWAP3 \t\t\t\n      SWAP1 \t\t\t\n      POP \t\t\t\n      JUMP \t\t\t\n    tag 322\t\t\t\n      JUMPDEST \t\t\t\n      PUSH 4E487B7100000000000000000000000000000000000000000000000000000000\t\t\t\n      PUSH 0\t\t\t\n      MSTORE \t\t\t\n      PUSH 22\t\t\t\n      PUSH 4\t\t\t\n      MSTORE \t\t\t\n      PUSH 24\t\t\t\n      PUSH 0\t\t\t\n      REVERT \t\t\t\n    tag 108\t\t\t\n      JUMPDEST \t\t\t\n      PUSH 0\t\t\t\n      PUSH 2\t\t\t\n      DUP3 \t\t\t\n      DIV \t\t\t\n      SWAP1 \t\t\t\n      POP \t\t\t\n      PUSH 1\t\t\t\n      DUP3 \t\t\t\n      AND \t\t\t\n      DUP1 \t\t\t\n      PUSH [tag] 495\t\t\t\n      JUMPI \t\t\t\n      PUSH 7F\t\t\t\n      DUP3 \t\t\t\n      AND \t\t\t\n      SWAP2 \t\t\t\n      POP \t\t\t\n    tag 495\t\t\t\n      JUMPDEST \t\t\t\n      PUSH 20\t\t\t\n      DUP3 \t\t\t\n      LT \t\t\t\n      DUP2 \t\t\t\n      SUB \t\t\t\n      PUSH [tag] 496\t\t\t\n      JUMPI \t\t\t\n      PUSH [tag] 497\t\t\t\n      PUSH [tag] 322\t\t\t\n      JUMP \t\t\t\n    tag 497\t\t\t\n      JUMPDEST \t\t\t\n    tag 496\t\t\t\n      JUMPDEST \t\t\t\n      POP \t\t\t\n      SWAP2 \t\t\t\n      SWAP1 \t\t\t\n      POP \t\t\t\n      JUMP \t\t\t\n    tag 323\t\t\t\n      JUMPDEST \t\t\t\n      PUSH 4E487B7100000000000000000000000000000000000000000000000000000000\t\t\t\n      PUSH 0\t\t\t\n      MSTORE \t\t\t\n      PUSH 11\t\t\t\n      PUSH 4\t\t\t\n      MSTORE \t\t\t\n      PUSH 24\t\t\t\n      PUSH 0\t\t\t\n      REVERT \t\t\t\n    tag 134\t\t\t\n      JUMPDEST \t\t\t\n      PUSH 0\t\t\t\n      PUSH [tag] 500\t\t\t\n      DUP3 \t\t\t\n      PUSH [tag] 297\t\t\t\n      JUMP \t\t\t\n    tag 500\t\t\t\n      JUMPDEST \t\t\t\n      SWAP2 \t\t\t\n      POP \t\t\t\n      PUSH [tag] 501\t\t\t\n      DUP4 \t\t\t\n      PUSH [tag] 297\t\t\t\n      JUMP \t\t\t\n    tag 501\t\t\t\n      JUMPDEST \t\t\t\n      SWAP3 \t\t\t\n      POP \t\t\t\n      DUP3 \t\t\t\n      DUP3 \t\t\t\n      ADD \t\t\t\n      SWAP1 \t\t\t\n      POP \t\t\t\n      DUP1 \t\t\t\n      DUP3 \t\t\t\n      GT \t\t\t\n      ISZERO \t\t\t\n      PUSH [tag] 502\t\t\t\n      JUMPI \t\t\t\n      PUSH [tag] 503\t\t\t\n      PUSH [tag] 323\t\t\t\n      JUMP \t\t\t\n    tag 503\t\t\t\n      JUMPDEST \t\t\t\n    tag 502\t\t\t\n      JUMPDEST \t\t\t\n      SWAP3 \t\t\t\n      SWAP2 \t\t\t\n      POP \t\t\t\n      POP \t\t\t\n      JUMP \t\t\t\n    tag 324\t\t\t\n      JUMPDEST \t\t\t\n      PUSH 436F6C6C656374696F6E206973206E6F7420796574206D696E74656421000000\t\t\t\n      PUSH 0\t\t\t\n      DUP3 \t\t\t\n      ADD \t\t\t\n      MSTORE \t\t\t\n      POP \t\t\t\n      JUMP \t\t\t\n    tag 325\t\t\t\n      JUMPDEST \t\t\t\n      PUSH 0\t\t\t\n      PUSH [tag] 506\t\t\t\n      PUSH 1D\t\t\t\n      DUP4 \t\t\t\n      PUSH [tag] 286\t\t\t\n      JUMP \t\t\t\n    tag 506\t\t\t\n      JUMPDEST \t\t\t\n      SWAP2 \t\t\t\n      POP \t\t\t\n      PUSH [tag] 507\t\t\t\n      DUP3 \t\t\t\n      PUSH [tag] 324\t\t\t\n      JUMP \t\t\t\n    tag 507\t\t\t\n      JUMPDEST \t\t\t\n      PUSH 20\t\t\t\n      DUP3 \t\t\t\n      ADD \t\t\t\n      SWAP1 \t\t\t\n      POP \t\t\t\n      SWAP2 \t\t\t\n      SWAP1 \t\t\t\n      POP \t\t\t\n      JUMP \t\t\t\n    tag 138\t\t\t\n      JUMPDEST \t\t\t\n      PUSH 0\t\t\t\n      PUSH 20\t\t\t\n      DUP3 \t\t\t\n      ADD \t\t\t\n      SWAP1 \t\t\t\n      POP \t\t\t\n      DUP2 \t\t\t\n      DUP2 \t\t\t\n      SUB \t\t\t\n      PUSH 0\t\t\t\n      DUP4 \t\t\t\n      ADD \t\t\t\n      MSTORE \t\t\t\n      PUSH [tag] 509\t\t\t\n      DUP2 \t\t\t\n      PUSH [tag] 325\t\t\t\n      JUMP \t\t\t\n    tag 509\t\t\t\n      JUMPDEST \t\t\t\n      SWAP1 \t\t\t\n      POP \t\t\t\n      SWAP2 \t\t\t\n      SWAP1 \t\t\t\n      POP \t\t\t\n      JUMP \t\t\t\n    tag 140\t\t\t\n      JUMPDEST \t\t\t\n      PUSH 0\t\t\t\n      PUSH [tag] 511\t\t\t\n      DUP3 \t\t\t\n      PUSH [tag] 297\t\t\t\n      JUMP \t\t\t\n    tag 511\t\t\t\n      JUMPDEST \t\t\t\n      SWAP2 \t\t\t\n      POP \t\t\t\n      PUSH [tag] 512\t\t\t\n      DUP4 \t\t\t\n      PUSH [tag] 297\t\t\t\n      JUMP \t\t\t\n    tag 512\t\t\t\n      JUMPDEST \t\t\t\n      SWAP3 \t\t\t\n      POP \t\t\t\n      DUP3 \t\t\t\n      DUP3 \t\t\t\n      MUL \t\t\t\n      PUSH [tag] 513\t\t\t\n      DUP2 \t\t\t\n      PUSH [tag] 297\t\t\t\n      JUMP \t\t\t\n    tag 513\t\t\t\n      JUMPDEST \t\t\t\n      SWAP2 \t\t\t\n      POP \t\t\t\n      DUP3 \t\t\t\n      DUP3 \t\t\t\n      DIV \t\t\t\n      DUP5 \t\t\t\n      EQ \t\t\t\n      DUP4 \t\t\t\n      ISZERO \t\t\t\n      OR \t\t\t\n      PUSH [tag] 514\t\t\t\n      JUMPI \t\t\t\n      PUSH [tag] 515\t\t\t\n      PUSH [tag] 323\t\t\t\n      JUMP \t\t\t\n    tag 515\t\t\t\n      JUMPDEST \t\t\t\n    tag 514\t\t\t\n      JUMPDEST \t\t\t\n      POP \t\t\t\n      SWAP3 \t\t\t\n      SWAP2 \t\t\t\n      POP \t\t\t\n      POP \t\t\t\n      JUMP \t\t\t\n    tag 326\t\t\t\n      JUMPDEST \t\t\t\n      PUSH [tag] 517\t\t\t\n      DUP2 \t\t\t\n      PUSH [tag] 294\t\t\t\n      JUMP \t\t\t\n    tag 517\t\t\t\n      JUMPDEST \t\t\t\n      DUP3 \t\t\t\n      MSTORE \t\t\t\n      POP \t\t\t\n      POP \t\t\t\n      JUMP \t\t\t\n    tag 142\t\t\t\n      JUMPDEST \t\t\t\n      PUSH 0\t\t\t\n      PUSH 60\t\t\t\n      DUP3 \t\t\t\n      ADD \t\t\t\n      SWAP1 \t\t\t\n      POP \t\t\t\n      PUSH [tag] 519\t\t\t\n      PUSH 0\t\t\t\n      DUP4 \t\t\t\n      ADD \t\t\t\n      DUP7 \t\t\t\n      PUSH [tag] 326\t\t\t\n      JUMP \t\t\t\n    tag 519\t\t\t\n      JUMPDEST \t\t\t\n      PUSH [tag] 520\t\t\t\n      PUSH 20\t\t\t\n      DUP4 \t\t\t\n      ADD \t\t\t\n      DUP6 \t\t\t\n      PUSH [tag] 326\t\t\t\n      JUMP \t\t\t\n    tag 520\t\t\t\n      JUMPDEST \t\t\t\n      PUSH [tag] 521\t\t\t\n      PUSH 40\t\t\t\n      DUP4 \t\t\t\n      ADD \t\t\t\n      DUP5 \t\t\t\n      PUSH [tag] 302\t\t\t\n      JUMP \t\t\t\n    tag 521\t\t\t\n      JUMPDEST \t\t\t\n      SWAP5 \t\t\t\n      SWAP4 \t\t\t\n      POP \t\t\t\n      POP \t\t\t\n      POP \t\t\t\n      POP \t\t\t\n      JUMP \t\t\t\n    tag 327\t\t\t\n      JUMPDEST \t\t\t\n      PUSH [tag] 523\t\t\t\n      DUP2 \t\t\t\n      PUSH [tag] 300\t\t\t\n      JUMP \t\t\t\n    tag 523\t\t\t\n      JUMPDEST \t\t\t\n      DUP2 \t\t\t\n      EQ \t\t\t\n      PUSH [tag] 524\t\t\t\n      JUMPI \t\t\t\n      PUSH 0\t\t\t\n      DUP1 \t\t\t\n      REVERT \t\t\t\n    tag 524\t\t\t\n      JUMPDEST \t\t\t\n      POP \t\t\t\n      JUMP \t\t\t\n    tag 328\t\t\t\n      JUMPDEST \t\t\t\n      PUSH 0\t\t\t\n      DUP2 \t\t\t\n      MLOAD \t\t\t\n      SWAP1 \t\t\t\n      POP \t\t\t\n      PUSH [tag] 526\t\t\t\n      DUP2 \t\t\t\n      PUSH [tag] 327\t\t\t\n      JUMP \t\t\t\n    tag 526\t\t\t\n      JUMPDEST \t\t\t\n      SWAP3 \t\t\t\n      SWAP2 \t\t\t\n      POP \t\t\t\n      POP \t\t\t\n      JUMP \t\t\t\n    tag 146\t\t\t\n      JUMPDEST \t\t\t\n      PUSH 0\t\t\t\n      PUSH 20\t\t\t\n      DUP3 \t\t\t\n      DUP5 \t\t\t\n      SUB \t\t\t\n      SLT \t\t\t\n      ISZERO \t\t\t\n      PUSH [tag] 528\t\t\t\n      JUMPI \t\t\t\n      PUSH [tag] 529\t\t\t\n      PUSH [tag] 291\t\t\t\n      JUMP \t\t\t\n    tag 529\t\t\t\n      JUMPDEST \t\t\t\n    tag 528\t\t\t\n      JUMPDEST \t\t\t\n      PUSH 0\t\t\t\n      PUSH [tag] 530\t\t\t\n      DUP5 \t\t\t\n      DUP3 \t\t\t\n      DUP6 \t\t\t\n      ADD \t\t\t\n      PUSH [tag] 328\t\t\t\n      JUMP \t\t\t\n    tag 530\t\t\t\n      JUMPDEST \t\t\t\n      SWAP2 \t\t\t\n      POP \t\t\t\n      POP \t\t\t\n      SWAP3 \t\t\t\n      SWAP2 \t\t\t\n      POP \t\t\t\n      POP \t\t\t\n      JUMP \t\t\t\n    tag 329\t\t\t\n      JUMPDEST \t\t\t\n      PUSH 53544E4541523A207472616E7366657246726F6D206661696C65640000000000\t\t\t\n      PUSH 0\t\t\t\n      DUP3 \t\t\t\n      ADD \t\t\t\n      MSTORE \t\t\t\n      POP \t\t\t\n      JUMP \t\t\t\n    tag 330\t\t\t\n      JUMPDEST \t\t\t\n      PUSH 0\t\t\t\n      PUSH [tag] 533\t\t\t\n      PUSH 1B\t\t\t\n      DUP4 \t\t\t\n      PUSH [tag] 286\t\t\t\n      JUMP \t\t\t\n    tag 533\t\t\t\n      JUMPDEST \t\t\t\n      SWAP2 \t\t\t\n      POP \t\t\t\n      PUSH [tag] 534\t\t\t\n      DUP3 \t\t\t\n      PUSH [tag] 329\t\t\t\n      JUMP \t\t\t\n    tag 534\t\t\t\n      JUMPDEST \t\t\t\n      PUSH 20\t\t\t\n      DUP3 \t\t\t\n      ADD \t\t\t\n      SWAP1 \t\t\t\n      POP \t\t\t\n      SWAP2 \t\t\t\n      SWAP1 \t\t\t\n      POP \t\t\t\n      JUMP \t\t\t\n    tag 149\t\t\t\n      JUMPDEST \t\t\t\n      PUSH 0\t\t\t\n      PUSH 20\t\t\t\n      DUP3 \t\t\t\n      ADD \t\t\t\n      SWAP1 \t\t\t\n      POP \t\t\t\n      DUP2 \t\t\t\n      DUP2 \t\t\t\n      SUB \t\t\t\n      PUSH 0\t\t\t\n      DUP4 \t\t\t\n      ADD \t\t\t\n      MSTORE \t\t\t\n      PUSH [tag] 536\t\t\t\n      DUP2 \t\t\t\n      PUSH [tag] 330\t\t\t\n      JUMP \t\t\t\n    tag 536\t\t\t\n      JUMPDEST \t\t\t\n      SWAP1 \t\t\t\n      POP \t\t\t\n      SWAP2 \t\t\t\n      SWAP1 \t\t\t\n      POP \t\t\t\n      JUMP \t\t\t\n    tag 151\t\t\t\n      JUMPDEST \t\t\t\n      PUSH 0\t\t\t\n      PUSH 40\t\t\t\n      DUP3 \t\t\t\n      ADD \t\t\t\n      SWAP1 \t\t\t\n      POP \t\t\t\n      PUSH [tag] 538\t\t\t\n      PUSH 0\t\t\t\n      DUP4 \t\t\t\n      ADD \t\t\t\n      DUP6 \t\t\t\n      PUSH [tag] 326\t\t\t\n      JUMP \t\t\t\n    tag 538\t\t\t\n      JUMPDEST \t\t\t\n      DUP2 \t\t\t\n      DUP2 \t\t\t\n      SUB \t\t\t\n      PUSH 20\t\t\t\n      DUP4 \t\t\t\n      ADD \t\t\t\n      MSTORE \t\t\t\n      PUSH [tag] 539\t\t\t\n      DUP2 \t\t\t\n      DUP5 \t\t\t\n      PUSH [tag] 289\t\t\t\n      JUMP \t\t\t\n    tag 539\t\t\t\n      JUMPDEST \t\t\t\n      SWAP1 \t\t\t\n      POP \t\t\t\n      SWAP4 \t\t\t\n      SWAP3 \t\t\t\n      POP \t\t\t\n      POP \t\t\t\n      POP \t\t\t\n      JUMP \t\t\t\n    tag 331\t\t\t\n      JUMPDEST \t\t\t\n      PUSH 0\t\t\t\n      DUP2 \t\t\t\n      MLOAD \t\t\t\n      SWAP1 \t\t\t\n      POP \t\t\t\n      PUSH [tag] 541\t\t\t\n      DUP2 \t\t\t\n      PUSH [tag] 298\t\t\t\n      JUMP \t\t\t\n    tag 541\t\t\t\n      JUMPDEST \t\t\t\n      SWAP3 \t\t\t\n      SWAP2 \t\t\t\n      POP \t\t\t\n      POP \t\t\t\n      JUMP \t\t\t\n    tag 158\t\t\t\n      JUMPDEST \t\t\t\n      PUSH 0\t\t\t\n      PUSH 20\t\t\t\n      DUP3 \t\t\t\n      DUP5 \t\t\t\n      SUB \t\t\t\n      SLT \t\t\t\n      ISZERO \t\t\t\n      PUSH [tag] 543\t\t\t\n      JUMPI \t\t\t\n      PUSH [tag] 544\t\t\t\n      PUSH [tag] 291\t\t\t\n      JUMP \t\t\t\n    tag 544\t\t\t\n      JUMPDEST \t\t\t\n    tag 543\t\t\t\n      JUMPDEST \t\t\t\n      PUSH 0\t\t\t\n      PUSH [tag] 545\t\t\t\n      DUP5 \t\t\t\n      DUP3 \t\t\t\n      DUP6 \t\t\t\n      ADD \t\t\t\n      PUSH [tag] 331\t\t\t\n      JUMP \t\t\t\n    tag 545\t\t\t\n      JUMPDEST \t\t\t\n      SWAP2 \t\t\t\n      POP \t\t\t\n      POP \t\t\t\n      SWAP3 \t\t\t\n      SWAP2 \t\t\t\n      POP \t\t\t\n      POP \t\t\t\n      JUMP \t\t\t\n    tag 332\t\t\t\n      JUMPDEST \t\t\t\n      PUSH 4E6F706521000000000000000000000000000000000000000000000000000000\t\t\t\n      PUSH 0\t\t\t\n      DUP3 \t\t\t\n      ADD \t\t\t\n      MSTORE \t\t\t\n      POP \t\t\t\n      JUMP \t\t\t\n    tag 333\t\t\t\n      JUMPDEST \t\t\t\n      PUSH 0\t\t\t\n      PUSH [tag] 548\t\t\t\n      PUSH 5\t\t\t\n      DUP4 \t\t\t\n      PUSH [tag] 286\t\t\t\n      JUMP \t\t\t\n    tag 548\t\t\t\n      JUMPDEST \t\t\t\n      SWAP2 \t\t\t\n      POP \t\t\t\n      PUSH [tag] 549\t\t\t\n      DUP3 \t\t\t\n      PUSH [tag] 332\t\t\t\n      JUMP \t\t\t\n    tag 549\t\t\t\n      JUMPDEST \t\t\t\n      PUSH 20\t\t\t\n      DUP3 \t\t\t\n      ADD \t\t\t\n      SWAP1 \t\t\t\n      POP \t\t\t\n      SWAP2 \t\t\t\n      SWAP1 \t\t\t\n      POP \t\t\t\n      JUMP \t\t\t\n    tag 167\t\t\t\n      JUMPDEST \t\t\t\n      PUSH 0\t\t\t\n      PUSH 20\t\t\t\n      DUP3 \t\t\t\n      ADD \t\t\t\n      SWAP1 \t\t\t\n      POP \t\t\t\n      DUP2 \t\t\t\n      DUP2 \t\t\t\n      SUB \t\t\t\n      PUSH 0\t\t\t\n      DUP4 \t\t\t\n      ADD \t\t\t\n      MSTORE \t\t\t\n      PUSH [tag] 551\t\t\t\n      DUP2 \t\t\t\n      PUSH [tag] 333\t\t\t\n      JUMP \t\t\t\n    tag 551\t\t\t\n      JUMPDEST \t\t\t\n      SWAP1 \t\t\t\n      POP \t\t\t\n      SWAP2 \t\t\t\n      SWAP1 \t\t\t\n      POP \t\t\t\n      JUMP \t\t\t\n    tag 334\t\t\t\n      JUMPDEST \t\t\t\n      PUSH 45524332303A2064656372656173656420616C6C6F77616E63652062656C6F77\t\t\t\n      PUSH 0\t\t\t\n      DUP3 \t\t\t\n      ADD \t\t\t\n      MSTORE \t\t\t\n      PUSH 207A65726F000000000000000000000000000000000000000000000000000000\t\t\t\n      PUSH 20\t\t\t\n      DUP3 \t\t\t\n      ADD \t\t\t\n      MSTORE \t\t\t\n      POP \t\t\t\n      JUMP \t\t\t\n    tag 335\t\t\t\n      JUMPDEST \t\t\t\n      PUSH 0\t\t\t\n      PUSH [tag] 554\t\t\t\n      PUSH 25\t\t\t\n      DUP4 \t\t\t\n      PUSH [tag] 286\t\t\t\n      JUMP \t\t\t\n    tag 554\t\t\t\n      JUMPDEST \t\t\t\n      SWAP2 \t\t\t\n      POP \t\t\t\n      PUSH [tag] 555\t\t\t\n      DUP3 \t\t\t\n      PUSH [tag] 334\t\t\t\n      JUMP \t\t\t\n    tag 555\t\t\t\n      JUMPDEST \t\t\t\n      PUSH 40\t\t\t\n      DUP3 \t\t\t\n      ADD \t\t\t\n      SWAP1 \t\t\t\n      POP \t\t\t\n      SWAP2 \t\t\t\n      SWAP1 \t\t\t\n      POP \t\t\t\n      JUMP \t\t\t\n    tag 186\t\t\t\n      JUMPDEST \t\t\t\n      PUSH 0\t\t\t\n      PUSH 20\t\t\t\n      DUP3 \t\t\t\n      ADD \t\t\t\n      SWAP1 \t\t\t\n      POP \t\t\t\n      DUP2 \t\t\t\n      DUP2 \t\t\t\n      SUB \t\t\t\n      PUSH 0\t\t\t\n      DUP4 \t\t\t\n      ADD \t\t\t\n      MSTORE \t\t\t\n      PUSH [tag] 557\t\t\t\n      DUP2 \t\t\t\n      PUSH [tag] 335\t\t\t\n      JUMP \t\t\t\n    tag 557\t\t\t\n      JUMPDEST \t\t\t\n      SWAP1 \t\t\t\n      POP \t\t\t\n      SWAP2 \t\t\t\n      SWAP1 \t\t\t\n      POP \t\t\t\n      JUMP \t\t\t\n    tag 336\t\t\t\n      JUMPDEST \t\t\t\n      PUSH 436F6C6C656374696F6E206973206E6F7420796574206D696E74656400000000\t\t\t\n      PUSH 0\t\t\t\n      DUP3 \t\t\t\n      ADD \t\t\t\n      MSTORE \t\t\t\n      POP \t\t\t\n      JUMP \t\t\t\n    tag 337\t\t\t\n      JUMPDEST \t\t\t\n      PUSH 0\t\t\t\n      PUSH [tag] 560\t\t\t\n      PUSH 1C\t\t\t\n      DUP4 \t\t\t\n      PUSH [tag] 286\t\t\t\n      JUMP \t\t\t\n    tag 560\t\t\t\n      JUMPDEST \t\t\t\n      SWAP2 \t\t\t\n      POP \t\t\t\n      PUSH [tag] 561\t\t\t\n      DUP3 \t\t\t\n      PUSH [tag] 336\t\t\t\n      JUMP \t\t\t\n    tag 561\t\t\t\n      JUMPDEST \t\t\t\n      PUSH 20\t\t\t\n      DUP3 \t\t\t\n      ADD \t\t\t\n      SWAP1 \t\t\t\n      POP \t\t\t\n      SWAP2 \t\t\t\n      SWAP1 \t\t\t\n      POP \t\t\t\n      JUMP \t\t\t\n    tag 194\t\t\t\n      JUMPDEST \t\t\t\n      PUSH 0\t\t\t\n      PUSH 20\t\t\t\n      DUP3 \t\t\t\n      ADD \t\t\t\n      SWAP1 \t\t\t\n      POP \t\t\t\n      DUP2 \t\t\t\n      DUP2 \t\t\t\n      SUB \t\t\t\n      PUSH 0\t\t\t\n      DUP4 \t\t\t\n      ADD \t\t\t\n      MSTORE \t\t\t\n      PUSH [tag] 563\t\t\t\n      DUP2 \t\t\t\n      PUSH [tag] 337\t\t\t\n      JUMP \t\t\t\n    tag 563\t\t\t\n      JUMPDEST \t\t\t\n      SWAP1 \t\t\t\n      POP \t\t\t\n      SWAP2 \t\t\t\n      SWAP1 \t\t\t\n      POP \t\t\t\n      JUMP \t\t\t\n    tag 338\t\t\t\n      JUMPDEST \t\t\t\n      PUSH 5472656520646F6573206E6F7420657869737400000000000000000000000000\t\t\t\n      PUSH 0\t\t\t\n      DUP3 \t\t\t\n      ADD \t\t\t\n      MSTORE \t\t\t\n      POP \t\t\t\n      JUMP \t\t\t\n    tag 339\t\t\t\n      JUMPDEST \t\t\t\n      PUSH 0\t\t\t\n      PUSH [tag] 566\t\t\t\n      PUSH 13\t\t\t\n      DUP4 \t\t\t\n      PUSH [tag] 286\t\t\t\n      JUMP \t\t\t\n    tag 566\t\t\t\n      JUMPDEST \t\t\t\n      SWAP2 \t\t\t\n      POP \t\t\t\n      PUSH [tag] 567\t\t\t\n      DUP3 \t\t\t\n      PUSH [tag] 338\t\t\t\n      JUMP \t\t\t\n    tag 567\t\t\t\n      JUMPDEST \t\t\t\n      PUSH 20\t\t\t\n      DUP3 \t\t\t\n      ADD \t\t\t\n      SWAP1 \t\t\t\n      POP \t\t\t\n      SWAP2 \t\t\t\n      SWAP1 \t\t\t\n      POP \t\t\t\n      JUMP \t\t\t\n    tag 197\t\t\t\n      JUMPDEST \t\t\t\n      PUSH 0\t\t\t\n      PUSH 20\t\t\t\n      DUP3 \t\t\t\n      ADD \t\t\t\n      SWAP1 \t\t\t\n      POP \t\t\t\n      DUP2 \t\t\t\n      DUP2 \t\t\t\n      SUB \t\t\t\n      PUSH 0\t\t\t\n      DUP4 \t\t\t\n      ADD \t\t\t\n      MSTORE \t\t\t\n      PUSH [tag] 569\t\t\t\n      DUP2 \t\t\t\n      PUSH [tag] 339\t\t\t\n      JUMP \t\t\t\n    tag 569\t\t\t\n      JUMPDEST \t\t\t\n      SWAP1 \t\t\t\n      POP \t\t\t\n      SWAP2 \t\t\t\n      SWAP1 \t\t\t\n      POP \t\t\t\n      JUMP \t\t\t\n    tag 340\t\t\t\n      JUMPDEST \t\t\t\n      PUSH 0\t\t\t\n      DUP2 \t\t\t\n      MLOAD \t\t\t\n      SWAP1 \t\t\t\n      POP \t\t\t\n      PUSH [tag] 571\t\t\t\n      DUP2 \t\t\t\n      PUSH [tag] 295\t\t\t\n      JUMP \t\t\t\n    tag 571\t\t\t\n      JUMPDEST \t\t\t\n      SWAP3 \t\t\t\n      SWAP2 \t\t\t\n      POP \t\t\t\n      POP \t\t\t\n      JUMP \t\t\t\n    tag 202\t\t\t\n      JUMPDEST \t\t\t\n      PUSH 0\t\t\t\n      PUSH 20\t\t\t\n      DUP3 \t\t\t\n      DUP5 \t\t\t\n      SUB \t\t\t\n      SLT \t\t\t\n      ISZERO \t\t\t\n      PUSH [tag] 573\t\t\t\n      JUMPI \t\t\t\n      PUSH [tag] 574\t\t\t\n      PUSH [tag] 291\t\t\t\n      JUMP \t\t\t\n    tag 574\t\t\t\n      JUMPDEST \t\t\t\n    tag 573\t\t\t\n      JUMPDEST \t\t\t\n      PUSH 0\t\t\t\n      PUSH [tag] 575\t\t\t\n      DUP5 \t\t\t\n      DUP3 \t\t\t\n      DUP6 \t\t\t\n      ADD \t\t\t\n      PUSH [tag] 340\t\t\t\n      JUMP \t\t\t\n    tag 575\t\t\t\n      JUMPDEST \t\t\t\n      SWAP2 \t\t\t\n      POP \t\t\t\n      POP \t\t\t\n      SWAP3 \t\t\t\n      SWAP2 \t\t\t\n      POP \t\t\t\n      POP \t\t\t\n      JUMP \t\t\t\n    tag 341\t\t\t\n      JUMPDEST \t\t\t\n      PUSH 596F7520617265206E6F7420746865206F776E65720000000000000000000000\t\t\t\n      PUSH 0\t\t\t\n      DUP3 \t\t\t\n      ADD \t\t\t\n      MSTORE \t\t\t\n      POP \t\t\t\n      JUMP \t\t\t\n    tag 342\t\t\t\n      JUMPDEST \t\t\t\n      PUSH 0\t\t\t\n      PUSH [tag] 578\t\t\t\n      PUSH 15\t\t\t\n      DUP4 \t\t\t\n      PUSH [tag] 286\t\t\t\n      JUMP \t\t\t\n    tag 578\t\t\t\n      JUMPDEST \t\t\t\n      SWAP2 \t\t\t\n      POP \t\t\t\n      PUSH [tag] 579\t\t\t\n      DUP3 \t\t\t\n      PUSH [tag] 341\t\t\t\n      JUMP \t\t\t\n    tag 579\t\t\t\n      JUMPDEST \t\t\t\n      PUSH 20\t\t\t\n      DUP3 \t\t\t\n      ADD \t\t\t\n      SWAP1 \t\t\t\n      POP \t\t\t\n      SWAP2 \t\t\t\n      SWAP1 \t\t\t\n      POP \t\t\t\n      JUMP \t\t\t\n    tag 205\t\t\t\n      JUMPDEST \t\t\t\n      PUSH 0\t\t\t\n      PUSH 20\t\t\t\n      DUP3 \t\t\t\n      ADD \t\t\t\n      SWAP1 \t\t\t\n      POP \t\t\t\n      DUP2 \t\t\t\n      DUP2 \t\t\t\n      SUB \t\t\t\n      PUSH 0\t\t\t\n      DUP4 \t\t\t\n      ADD \t\t\t\n      MSTORE \t\t\t\n      PUSH [tag] 581\t\t\t\n      DUP2 \t\t\t\n      PUSH [tag] 342\t\t\t\n      JUMP \t\t\t\n    tag 581\t\t\t\n      JUMPDEST \t\t\t\n      SWAP1 \t\t\t\n      POP \t\t\t\n      SWAP2 \t\t\t\n      SWAP1 \t\t\t\n      POP \t\t\t\n      JUMP \t\t\t\n    tag 207\t\t\t\n      JUMPDEST \t\t\t\n      PUSH 0\t\t\t\n      PUSH [tag] 583\t\t\t\n      DUP3 \t\t\t\n      PUSH [tag] 297\t\t\t\n      JUMP \t\t\t\n    tag 583\t\t\t\n      JUMPDEST \t\t\t\n      SWAP2 \t\t\t\n      POP \t\t\t\n      PUSH [tag] 584\t\t\t\n      DUP4 \t\t\t\n      PUSH [tag] 297\t\t\t\n      JUMP \t\t\t\n    tag 584\t\t\t\n      JUMPDEST \t\t\t\n      SWAP3 \t\t\t\n      POP \t\t\t\n      DUP3 \t\t\t\n      DUP3 \t\t\t\n      SUB \t\t\t\n      SWAP1 \t\t\t\n      POP \t\t\t\n      DUP2 \t\t\t\n      DUP2 \t\t\t\n      GT \t\t\t\n      ISZERO \t\t\t\n      PUSH [tag] 585\t\t\t\n      JUMPI \t\t\t\n      PUSH [tag] 586\t\t\t\n      PUSH [tag] 323\t\t\t\n      JUMP \t\t\t\n    tag 586\t\t\t\n      JUMPDEST \t\t\t\n    tag 585\t\t\t\n      JUMPDEST \t\t\t\n      SWAP3 \t\t\t\n      SWAP2 \t\t\t\n      POP \t\t\t\n      POP \t\t\t\n      JUMP \t\t\t\n    tag 343\t\t\t\n      JUMPDEST \t\t\t\n      PUSH 5761746572204669727374000000000000000000000000000000000000000000\t\t\t\n      PUSH 0\t\t\t\n      DUP3 \t\t\t\n      ADD \t\t\t\n      MSTORE \t\t\t\n      POP \t\t\t\n      JUMP \t\t\t\n    tag 344\t\t\t\n      JUMPDEST \t\t\t\n      PUSH 0\t\t\t\n      PUSH [tag] 589\t\t\t\n      PUSH B\t\t\t\n      DUP4 \t\t\t\n      PUSH [tag] 286\t\t\t\n      JUMP \t\t\t\n    tag 589\t\t\t\n      JUMPDEST \t\t\t\n      SWAP2 \t\t\t\n      POP \t\t\t\n      PUSH [tag] 590\t\t\t\n      DUP3 \t\t\t\n      PUSH [tag] 343\t\t\t\n      JUMP \t\t\t\n    tag 590\t\t\t\n      JUMPDEST \t\t\t\n      PUSH 20\t\t\t\n      DUP3 \t\t\t\n      ADD \t\t\t\n      SWAP1 \t\t\t\n      POP \t\t\t\n      SWAP2 \t\t\t\n      SWAP1 \t\t\t\n      POP \t\t\t\n      JUMP \t\t\t\n    tag 210\t\t\t\n      JUMPDEST \t\t\t\n      PUSH 0\t\t\t\n      PUSH 20\t\t\t\n      DUP3 \t\t\t\n      ADD \t\t\t\n      SWAP1 \t\t\t\n      POP \t\t\t\n      DUP2 \t\t\t\n      DUP2 \t\t\t\n      SUB \t\t\t\n      PUSH 0\t\t\t\n      DUP4 \t\t\t\n      ADD \t\t\t\n      MSTORE \t\t\t\n      PUSH [tag] 592\t\t\t\n      DUP2 \t\t\t\n      PUSH [tag] 344\t\t\t\n      JUMP \t\t\t\n    tag 592\t\t\t\n      JUMPDEST \t\t\t\n      SWAP1 \t\t\t\n      POP \t\t\t\n      SWAP2 \t\t\t\n      SWAP1 \t\t\t\n      POP \t\t\t\n      JUMP \t\t\t\n    tag 345\t\t\t\n      JUMPDEST \t\t\t\n      PUSH 43616E277420436C61696D000000000000000000000000000000000000000000\t\t\t\n      PUSH 0\t\t\t\n      DUP3 \t\t\t\n      ADD \t\t\t\n      MSTORE \t\t\t\n      POP \t\t\t\n      JUMP \t\t\t\n    tag 346\t\t\t\n      JUMPDEST \t\t\t\n      PUSH 0\t\t\t\n      PUSH [tag] 595\t\t\t\n      PUSH B\t\t\t\n      DUP4 \t\t\t\n      PUSH [tag] 286\t\t\t\n      JUMP \t\t\t\n    tag 595\t\t\t\n      JUMPDEST \t\t\t\n      SWAP2 \t\t\t\n      POP \t\t\t\n      PUSH [tag] 596\t\t\t\n      DUP3 \t\t\t\n      PUSH [tag] 345\t\t\t\n      JUMP \t\t\t\n    tag 596\t\t\t\n      JUMPDEST \t\t\t\n      PUSH 20\t\t\t\n      DUP3 \t\t\t\n      ADD \t\t\t\n      SWAP1 \t\t\t\n      POP \t\t\t\n      SWAP2 \t\t\t\n      SWAP1 \t\t\t\n      POP \t\t\t\n      JUMP \t\t\t\n    tag 214\t\t\t\n      JUMPDEST \t\t\t\n      PUSH 0\t\t\t\n      PUSH 20\t\t\t\n      DUP3 \t\t\t\n      ADD \t\t\t\n      SWAP1 \t\t\t\n      POP \t\t\t\n      DUP2 \t\t\t\n      DUP2 \t\t\t\n      SUB \t\t\t\n      PUSH 0\t\t\t\n      DUP4 \t\t\t\n      ADD \t\t\t\n      MSTORE \t\t\t\n      PUSH [tag] 598\t\t\t\n      DUP2 \t\t\t\n      PUSH [tag] 346\t\t\t\n      JUMP \t\t\t\n    tag 598\t\t\t\n      JUMPDEST \t\t\t\n      SWAP1 \t\t\t\n      POP \t\t\t\n      SWAP2 \t\t\t\n      SWAP1 \t\t\t\n      POP \t\t\t\n      JUMP \t\t\t\n    tag 347\t\t\t\n      JUMPDEST \t\t\t\n      PUSH 45524332303A20617070726F76652066726F6D20746865207A65726F20616464\t\t\t\n      PUSH 0\t\t\t\n      DUP3 \t\t\t\n      ADD \t\t\t\n      MSTORE \t\t\t\n      PUSH 7265737300000000000000000000000000000000000000000000000000000000\t\t\t\n      PUSH 20\t\t\t\n      DUP3 \t\t\t\n      ADD \t\t\t\n      MSTORE \t\t\t\n      POP \t\t\t\n      JUMP \t\t\t\n    tag 348\t\t\t\n      JUMPDEST \t\t\t\n      PUSH 0\t\t\t\n      PUSH [tag] 601\t\t\t\n      PUSH 24\t\t\t\n      DUP4 \t\t\t\n      PUSH [tag] 286\t\t\t\n      JUMP \t\t\t\n    tag 601\t\t\t\n      JUMPDEST \t\t\t\n      SWAP2 \t\t\t\n      POP \t\t\t\n      PUSH [tag] 602\t\t\t\n      DUP3 \t\t\t\n      PUSH [tag] 347\t\t\t\n      JUMP \t\t\t\n    tag 602\t\t\t\n      JUMPDEST \t\t\t\n      PUSH 40\t\t\t\n      DUP3 \t\t\t\n      ADD \t\t\t\n      SWAP1 \t\t\t\n      POP \t\t\t\n      SWAP2 \t\t\t\n      SWAP1 \t\t\t\n      POP \t\t\t\n      JUMP \t\t\t\n    tag 243\t\t\t\n      JUMPDEST \t\t\t\n      PUSH 0\t\t\t\n      PUSH 20\t\t\t\n      DUP3 \t\t\t\n      ADD \t\t\t\n      SWAP1 \t\t\t\n      POP \t\t\t\n      DUP2 \t\t\t\n      DUP2 \t\t\t\n      SUB \t\t\t\n      PUSH 0\t\t\t\n      DUP4 \t\t\t\n      ADD \t\t\t\n      MSTORE \t\t\t\n      PUSH [tag] 604\t\t\t\n      DUP2 \t\t\t\n      PUSH [tag] 348\t\t\t\n      JUMP \t\t\t\n    tag 604\t\t\t\n      JUMPDEST \t\t\t\n      SWAP1 \t\t\t\n      POP \t\t\t\n      SWAP2 \t\t\t\n      SWAP1 \t\t\t\n      POP \t\t\t\n      JUMP \t\t\t\n    tag 349\t\t\t\n      JUMPDEST \t\t\t\n      PUSH 45524332303A20617070726F766520746F20746865207A65726F206164647265\t\t\t\n      PUSH 0\t\t\t\n      DUP3 \t\t\t\n      ADD \t\t\t\n      MSTORE \t\t\t\n      PUSH 7373000000000000000000000000000000000000000000000000000000000000\t\t\t\n      PUSH 20\t\t\t\n      DUP3 \t\t\t\n      ADD \t\t\t\n      MSTORE \t\t\t\n      POP \t\t\t\n      JUMP \t\t\t\n    tag 350\t\t\t\n      JUMPDEST \t\t\t\n      PUSH 0\t\t\t\n      PUSH [tag] 607\t\t\t\n      PUSH 22\t\t\t\n      DUP4 \t\t\t\n      PUSH [tag] 286\t\t\t\n      JUMP \t\t\t\n    tag 607\t\t\t\n      JUMPDEST \t\t\t\n      SWAP2 \t\t\t\n      POP \t\t\t\n      PUSH [tag] 608\t\t\t\n      DUP3 \t\t\t\n      PUSH [tag] 349\t\t\t\n      JUMP \t\t\t\n    tag 608\t\t\t\n      JUMPDEST \t\t\t\n      PUSH 40\t\t\t\n      DUP3 \t\t\t\n      ADD \t\t\t\n      SWAP1 \t\t\t\n      POP \t\t\t\n      SWAP2 \t\t\t\n      SWAP1 \t\t\t\n      POP \t\t\t\n      JUMP \t\t\t\n    tag 246\t\t\t\n      JUMPDEST \t\t\t\n      PUSH 0\t\t\t\n      PUSH 20\t\t\t\n      DUP3 \t\t\t\n      ADD \t\t\t\n      SWAP1 \t\t\t\n      POP \t\t\t\n      DUP2 \t\t\t\n      DUP2 \t\t\t\n      SUB \t\t\t\n      PUSH 0\t\t\t\n      DUP4 \t\t\t\n      ADD \t\t\t\n      MSTORE \t\t\t\n      PUSH [tag] 610\t\t\t\n      DUP2 \t\t\t\n      PUSH [tag] 350\t\t\t\n      JUMP \t\t\t\n    tag 610\t\t\t\n      JUMPDEST \t\t\t\n      SWAP1 \t\t\t\n      POP \t\t\t\n      SWAP2 \t\t\t\n      SWAP1 \t\t\t\n      POP \t\t\t\n      JUMP \t\t\t\n    tag 351\t\t\t\n      JUMPDEST \t\t\t\n      PUSH 45524332303A20696E73756666696369656E7420616C6C6F77616E6365000000\t\t\t\n      PUSH 0\t\t\t\n      DUP3 \t\t\t\n      ADD \t\t\t\n      MSTORE \t\t\t\n      POP \t\t\t\n      JUMP \t\t\t\n    tag 352\t\t\t\n      JUMPDEST \t\t\t\n      PUSH 0\t\t\t\n      PUSH [tag] 613\t\t\t\n      PUSH 1D\t\t\t\n      DUP4 \t\t\t\n      PUSH [tag] 286\t\t\t\n      JUMP \t\t\t\n    tag 613\t\t\t\n      JUMPDEST \t\t\t\n      SWAP2 \t\t\t\n      POP \t\t\t\n      PUSH [tag] 614\t\t\t\n      DUP3 \t\t\t\n      PUSH [tag] 351\t\t\t\n      JUMP \t\t\t\n    tag 614\t\t\t\n      JUMPDEST \t\t\t\n      PUSH 20\t\t\t\n      DUP3 \t\t\t\n      ADD \t\t\t\n      SWAP1 \t\t\t\n      POP \t\t\t\n      SWAP2 \t\t\t\n      SWAP1 \t\t\t\n      POP \t\t\t\n      JUMP \t\t\t\n    tag 253\t\t\t\n      JUMPDEST \t\t\t\n      PUSH 0\t\t\t\n      PUSH 20\t\t\t\n      DUP3 \t\t\t\n      ADD \t\t\t\n      SWAP1 \t\t\t\n      POP \t\t\t\n      DUP2 \t\t\t\n      DUP2 \t\t\t\n      SUB \t\t\t\n      PUSH 0\t\t\t\n      DUP4 \t\t\t\n      ADD \t\t\t\n      MSTORE \t\t\t\n      PUSH [tag] 616\t\t\t\n      DUP2 \t\t\t\n      PUSH [tag] 352\t\t\t\n      JUMP \t\t\t\n    tag 616\t\t\t\n      JUMPDEST \t\t\t\n      SWAP1 \t\t\t\n      POP \t\t\t\n      SWAP2 \t\t\t\n      SWAP1 \t\t\t\n      POP \t\t\t\n      JUMP \t\t\t\n    tag 353\t\t\t\n      JUMPDEST \t\t\t\n      PUSH 45524332303A207472616E736665722066726F6D20746865207A65726F206164\t\t\t\n      PUSH 0\t\t\t\n      DUP3 \t\t\t\n      ADD \t\t\t\n      MSTORE \t\t\t\n      PUSH 6472657373000000000000000000000000000000000000000000000000000000\t\t\t\n      PUSH 20\t\t\t\n      DUP3 \t\t\t\n      ADD \t\t\t\n      MSTORE \t\t\t\n      POP \t\t\t\n      JUMP \t\t\t\n    tag 354\t\t\t\n      JUMPDEST \t\t\t\n      PUSH 0\t\t\t\n      PUSH [tag] 619\t\t\t\n      PUSH 25\t\t\t\n      DUP4 \t\t\t\n      PUSH [tag] 286\t\t\t\n      JUMP \t\t\t\n    tag 619\t\t\t\n      JUMPDEST \t\t\t\n      SWAP2 \t\t\t\n      POP \t\t\t\n      PUSH [tag] 620\t\t\t\n      DUP3 \t\t\t\n      PUSH [tag] 353\t\t\t\n      JUMP \t\t\t\n    tag 620\t\t\t\n      JUMPDEST \t\t\t\n      PUSH 40\t\t\t\n      DUP3 \t\t\t\n      ADD \t\t\t\n      SWAP1 \t\t\t\n      POP \t\t\t\n      SWAP2 \t\t\t\n      SWAP1 \t\t\t\n      POP \t\t\t\n      JUMP \t\t\t\n    tag 258\t\t\t\n      JUMPDEST \t\t\t\n      PUSH 0\t\t\t\n      PUSH 20\t\t\t\n      DUP3 \t\t\t\n      ADD \t\t\t\n      SWAP1 \t\t\t\n      POP \t\t\t\n      DUP2 \t\t\t\n      DUP2 \t\t\t\n      SUB \t\t\t\n      PUSH 0\t\t\t\n      DUP4 \t\t\t\n      ADD \t\t\t\n      MSTORE \t\t\t\n      PUSH [tag] 622\t\t\t\n      DUP2 \t\t\t\n      PUSH [tag] 354\t\t\t\n      JUMP \t\t\t\n    tag 622\t\t\t\n      JUMPDEST \t\t\t\n      SWAP1 \t\t\t\n      POP \t\t\t\n      SWAP2 \t\t\t\n      SWAP1 \t\t\t\n      POP \t\t\t\n      JUMP \t\t\t\n    tag 355\t\t\t\n      JUMPDEST \t\t\t\n      PUSH 45524332303A207472616E7366657220746F20746865207A65726F2061646472\t\t\t\n      PUSH 0\t\t\t\n      DUP3 \t\t\t\n      ADD \t\t\t\n      MSTORE \t\t\t\n      PUSH 6573730000000000000000000000000000000000000000000000000000000000\t\t\t\n      PUSH 20\t\t\t\n      DUP3 \t\t\t\n      ADD \t\t\t\n      MSTORE \t\t\t\n      POP \t\t\t\n      JUMP \t\t\t\n    tag 356\t\t\t\n      JUMPDEST \t\t\t\n      PUSH 0\t\t\t\n      PUSH [tag] 625\t\t\t\n      PUSH 23\t\t\t\n      DUP4 \t\t\t\n      PUSH [tag] 286\t\t\t\n      JUMP \t\t\t\n    tag 625\t\t\t\n      JUMPDEST \t\t\t\n      SWAP2 \t\t\t\n      POP \t\t\t\n      PUSH [tag] 626\t\t\t\n      DUP3 \t\t\t\n      PUSH [tag] 355\t\t\t\n      JUMP \t\t\t\n    tag 626\t\t\t\n      JUMPDEST \t\t\t\n      PUSH 40\t\t\t\n      DUP3 \t\t\t\n      ADD \t\t\t\n      SWAP1 \t\t\t\n      POP \t\t\t\n      SWAP2 \t\t\t\n      SWAP1 \t\t\t\n      POP \t\t\t\n      JUMP \t\t\t\n    tag 261\t\t\t\n      JUMPDEST \t\t\t\n      PUSH 0\t\t\t\n      PUSH 20\t\t\t\n      DUP3 \t\t\t\n      ADD \t\t\t\n      SWAP1 \t\t\t\n      POP \t\t\t\n      DUP2 \t\t\t\n      DUP2 \t\t\t\n      SUB \t\t\t\n      PUSH 0\t\t\t\n      DUP4 \t\t\t\n      ADD \t\t\t\n      MSTORE \t\t\t\n      PUSH [tag] 628\t\t\t\n      DUP2 \t\t\t\n      PUSH [tag] 356\t\t\t\n      JUMP \t\t\t\n    tag 628\t\t\t\n      JUMPDEST \t\t\t\n      SWAP1 \t\t\t\n      POP \t\t\t\n      SWAP2 \t\t\t\n      SWAP1 \t\t\t\n      POP \t\t\t\n      JUMP \t\t\t\n    tag 357\t\t\t\n      JUMPDEST \t\t\t\n      PUSH 45524332303A207472616E7366657220616D6F756E7420657863656564732062\t\t\t\n      PUSH 0\t\t\t\n      DUP3 \t\t\t\n      ADD \t\t\t\n      MSTORE \t\t\t\n      PUSH 616C616E63650000000000000000000000000000000000000000000000000000\t\t\t\n      PUSH 20\t\t\t\n      DUP3 \t\t\t\n      ADD \t\t\t\n      MSTORE \t\t\t\n      POP \t\t\t\n      JUMP \t\t\t\n    tag 358\t\t\t\n      JUMPDEST \t\t\t\n      PUSH 0\t\t\t\n      PUSH [tag] 631\t\t\t\n      PUSH 26\t\t\t\n      DUP4 \t\t\t\n      PUSH [tag] 286\t\t\t\n      JUMP \t\t\t\n    tag 631\t\t\t\n      JUMPDEST \t\t\t\n      SWAP2 \t\t\t\n      POP \t\t\t\n      PUSH [tag] 632\t\t\t\n      DUP3 \t\t\t\n      PUSH [tag] 357\t\t\t\n      JUMP \t\t\t\n    tag 632\t\t\t\n      JUMPDEST \t\t\t\n      PUSH 40\t\t\t\n      DUP3 \t\t\t\n      ADD \t\t\t\n      SWAP1 \t\t\t\n      POP \t\t\t\n      SWAP2 \t\t\t\n      SWAP1 \t\t\t\n      POP \t\t\t\n      JUMP \t\t\t\n    tag 266\t\t\t\n      JUMPDEST \t\t\t\n      PUSH 0\t\t\t\n      PUSH 20\t\t\t\n      DUP3 \t\t\t\n      ADD \t\t\t\n      SWAP1 \t\t\t\n      POP \t\t\t\n      DUP2 \t\t\t\n      DUP2 \t\t\t\n      SUB \t\t\t\n      PUSH 0\t\t\t\n      DUP4 \t\t\t\n      ADD \t\t\t\n      MSTORE \t\t\t\n      PUSH [tag] 634\t\t\t\n      DUP2 \t\t\t\n      PUSH [tag] 358\t\t\t\n      JUMP \t\t\t\n    tag 634\t\t\t\n      JUMPDEST \t\t\t\n      SWAP1 \t\t\t\n      POP \t\t\t\n      SWAP2 \t\t\t\n      SWAP1 \t\t\t\n      POP \t\t\t\n      JUMP \t\t\t\n    tag 359\t\t\t\n      JUMPDEST \t\t\t\n      PUSH 45524332303A206D696E7420746F20746865207A65726F206164647265737300\t\t\t\n      PUSH 0\t\t\t\n      DUP3 \t\t\t\n      ADD \t\t\t\n      MSTORE \t\t\t\n      POP \t\t\t\n      JUMP \t\t\t\n    tag 360\t\t\t\n      JUMPDEST \t\t\t\n      PUSH 0\t\t\t\n      PUSH [tag] 637\t\t\t\n      PUSH 1F\t\t\t\n      DUP4 \t\t\t\n      PUSH [tag] 286\t\t\t\n      JUMP \t\t\t\n    tag 637\t\t\t\n      JUMPDEST \t\t\t\n      SWAP2 \t\t\t\n      POP \t\t\t\n      PUSH [tag] 638\t\t\t\n      DUP3 \t\t\t\n      PUSH [tag] 359\t\t\t\n      JUMP \t\t\t\n    tag 638\t\t\t\n      JUMPDEST \t\t\t\n      PUSH 20\t\t\t\n      DUP3 \t\t\t\n      ADD \t\t\t\n      SWAP1 \t\t\t\n      POP \t\t\t\n      SWAP2 \t\t\t\n      SWAP1 \t\t\t\n      POP \t\t\t\n      JUMP \t\t\t\n    tag 280\t\t\t\n      JUMPDEST \t\t\t\n      PUSH 0\t\t\t\n      PUSH 20\t\t\t\n      DUP3 \t\t\t\n      ADD \t\t\t\n      SWAP1 \t\t\t\n      POP \t\t\t\n      DUP2 \t\t\t\n      DUP2 \t\t\t\n      SUB \t\t\t\n      PUSH 0\t\t\t\n      DUP4 \t\t\t\n      ADD \t\t\t\n      MSTORE \t\t\t\n      PUSH [tag] 640\t\t\t\n      DUP2 \t\t\t\n      PUSH [tag] 360\t\t\t\n      JUMP \t\t\t\n    tag 640\t\t\t\n      JUMPDEST \t\t\t\n      SWAP1 \t\t\t\n      POP \t\t\t\n      SWAP2 \t\t\t\n      SWAP1 \t\t\t\n      POP \t\t\t\n      JUMP \t\t\t\n    .data\n      0:\n        .code\n          PUSH 80\t\t\treeCollectionCounter;\\r\\n    \\...\n          PUSH 40\t\t\treeCollectionCounter;\\r\\n    \\...\n          MSTORE \t\t\treeCollectionCounter;\\r\\n    \\...\n          CALLVALUE \t\t\t\\r\\n    function mint(address ...\n          DUP1 \t\t\t\\r\\n    function mint(address ...\n          ISZERO \t\t\t\\r\\n    function mint(address ...\n          PUSH [tag] 1\t\t\t\\r\\n    function mint(address ...\n          JUMPI \t\t\t\\r\\n    function mint(address ...\n          PUSH 0\t\t\t\\r\\n    function mint(address ...\n          DUP1 \t\t\t\\r\\n    function mint(address ...\n          REVERT \t\t\t\\r\\n    function mint(address ...\n        tag 1\t\t\t\\r\\n    function mint(address ...\n          JUMPDEST \t\t\t\\r\\n    function mint(address ...\n          POP \t\t\t\\r\\n    function mint(address ...\n          PUSH 40\t\t\tnter.increment();\\r\\n        u...\n          MLOAD \t\t\tnter.increment();\\r\\n        u...\n          DUP1 \t\t\tnter.increment();\\r\\n        u...\n          PUSH 40\t\t\tnter.increment();\\r\\n        u...\n          ADD \t\t\tnter.increment();\\r\\n        u...\n          PUSH 40\t\t\tnter.increment();\\r\\n        u...\n          MSTORE \t\t\tnter.increment();\\r\\n        u...\n          DUP1 \t\t\tnter.increment();\\r\\n        u...\n          PUSH 7\t\t\tnter.increment();\\r\\n        u...\n          DUP2 \t\t\tnter.increment();\\r\\n        u...\n          MSTORE \t\t\tnter.increment();\\r\\n        u...\n          PUSH 20\t\t\tnter.increment();\\r\\n        u...\n          ADD \t\t\tnter.increment();\\r\\n        u...\n          PUSH 47656E6573697300000000000000000000000000000000000000000000000000\t\t\tnter.increment();\\r\\n        u...\n          DUP2 \t\t\tnter.increment();\\r\\n        u...\n          MSTORE \t\t\tnter.increment();\\r\\n        u...\n          POP \t\t\tnter.increment();\\r\\n        u...\n          PUSH 40\t\t\tnter.increment();\\r\\n        u...\n          MLOAD \t\t\tnter.increment();\\r\\n        u...\n          DUP1 \t\t\tnter.increment();\\r\\n        u...\n          PUSH 40\t\t\tnter.increment();\\r\\n        u...\n          ADD \t\t\tnter.increment();\\r\\n        u...\n          PUSH 40\t\t\tnter.increment();\\r\\n        u...\n          MSTORE \t\t\tnter.increment();\\r\\n        u...\n          DUP1 \t\t\tnter.increment();\\r\\n        u...\n          PUSH 3\t\t\tnter.increment();\\r\\n        u...\n          DUP2 \t\t\tnter.increment();\\r\\n        u...\n          MSTORE \t\t\tnter.increment();\\r\\n        u...\n          PUSH 20\t\t\tnter.increment();\\r\\n        u...\n          ADD \t\t\tnter.increment();\\r\\n        u...\n          PUSH 474E450000000000000000000000000000000000000000000000000000000000\t\t\tnter.increment();\\r\\n        u...\n          DUP2 \t\t\tnter.increment();\\r\\n        u...\n          MSTORE \t\t\tnter.increment();\\r\\n        u...\n          POP \t\t\tnter.increment();\\r\\n        u...\n          DUP2 \t\t\trrent\n          PUSH 0\t\t\tunter\n          SWAP1 \t\t\tunter.current\n          DUP2 \t\t\tunter.current\n          PUSH [tag] 5\t\t\tunter.current\n          SWAP2 \t\t\tunter.current\n          SWAP1 \t\t\tunter.current\n          PUSH [tag] 6\t\t\tunter.current\n          JUMP \t\t\tunter.current\n        tag 5\t\t\tunter.current\n          JUMPDEST \t\t\tunter.current\n          POP \t\t\tunter.current\n          DUP1 \t\t\tlection\n          PUSH 1\t\t\t   Tree\n          SWAP1 \t\t\t   TreeCollection\n          DUP2 \t\t\t   TreeCollection\n          PUSH [tag] 7\t\t\t   TreeCollection\n          SWAP2 \t\t\t   TreeCollection\n          SWAP1 \t\t\t   TreeCollection\n          PUSH [tag] 6\t\t\t   TreeCollection\n          JUMP \t\t\t   TreeCollection\n        tag 7\t\t\t   TreeCollection\n          JUMPDEST \t\t\t   TreeCollection\n          POP \t\t\t   TreeCollection\n          POP \t\t\tnter.increment();\\r\\n        u...\n          POP \t\t\tnter.increment();\\r\\n        u...\n          CALLER \t\t\t        _m\n          PUSH 7\t\t\tternal\n          PUSH 0\t\t\tternal\n          PUSH 100\t\t\tternal{\\r\\n        _m\n          EXP \t\t\tternal{\\r\\n        _m\n          DUP2 \t\t\tternal{\\r\\n        _m\n          SLOAD \t\t\tternal{\\r\\n        _m\n          DUP2 \t\t\tternal{\\r\\n        _m\n          PUSH FFFFFFFFFFFFFFFFFFFFFFFFFFFFFFFFFFFFFFFF\t\t\tternal{\\r\\n        _m\n          MUL \t\t\tternal{\\r\\n        _m\n          NOT \t\t\tternal{\\r\\n        _m\n          AND \t\t\tternal{\\r\\n        _m\n          SWAP1 \t\t\tternal{\\r\\n        _m\n          DUP4 \t\t\tternal{\\r\\n        _m\n          PUSH FFFFFFFFFFFFFFFFFFFFFFFFFFFFFFFFFFFFFFFF\t\t\tternal{\\r\\n        _m\n          AND \t\t\tternal{\\r\\n        _m\n          MUL \t\t\tternal{\\r\\n        _m\n          OR \t\t\tternal{\\r\\n        _m\n          SWAP1 \t\t\tternal{\\r\\n        _m\n          SSTORE \t\t\tternal{\\r\\n        _m\n          POP \t\t\tternal{\\r\\n        _m\n          PUSH [tag] 9\t\t\treeCollectionCounter;\\r\\n    \\...\n          JUMP \t\t\treeCollectionCounter;\\r\\n    \\...\n        tag 10\t\t\t-License-Identifier: MIT\\r\\npr...\n          JUMPDEST \t\t\t-License-Identifier: MIT\\r\\npr...\n          PUSH 0\t\t\t\\nimpor\n          DUP2 \t\t\token/\n          MLOAD \t\t\tacts/token/E\n          SWAP1 \t\t\telin/contracts/token/E\n          POP \t\t\telin/contracts/token/E\n          SWAP2 \t\t\t-License-Identifier: MIT\\r\\npr...\n          SWAP1 \t\t\t-License-Identifier: MIT\\r\\npr...\n          POP \t\t\t-License-Identifier: MIT\\r\\npr...\n          JUMP \t\t\t-License-Identifier: MIT\\r\\npr...\n        tag 11\t\t\tl\";\\r\\nimport \"./TreeCollectio...\n          JUMPDEST \t\t\tl\";\\r\\nimport \"./TreeCollectio...\n          PUSH 4E487B7100000000000000000000000000000000000000000000000000000000\t\t\tGenesis is ERC20 {\\r\\n\\r\\n    ...\n          PUSH 0\t\t\tc\n          MSTORE \t\t\t\\ncontract Genesis is ERC20 {\\...\n          PUSH 41\t\t\tolle\n          PUSH 4\t\t\te\n          MSTORE \t\t\tblic TreeCollec\n          PUSH 24\t\t\t\\n   \n          PUSH 0\t\t\t \n          REVERT \t\t\ter;\\r\\n    \\r\\n    \n        tag 12\t\t\ttable base = 1e24;\\r\\n    uint...\n          JUMPDEST \t\t\ttable base = 1e24;\\r\\n    uint...\n          PUSH 4E487B7100000000000000000000000000000000000000000000000000000000\t\t\t1e18;\\r\\n    ERC20 immutable S...\n          PUSH 0\t\t\t \n          MSTORE \t\t\tble gne = 1e18;\\r\\n    ERC20 i...\n          PUSH 22\t\t\tn) E\n          PUSH 4\t\t\to\n          MSTORE \t\t\tress _token) ER\n          PUSH 24\t\t\t\"){\\r\n          PUSH 0\t\t\tG\n          REVERT \t\t\tsis\", \"GNE\"){\\r\\n\n        tag 13\t\t\tn = msg.sender;\\r\\n        STN...\n          JUMPDEST \t\t\tn = msg.sender;\\r\\n        STN...\n          PUSH 0\t\t\ten);\\r\\n\n          PUSH 2\t\t\te\n          DUP3 \t\t\tt(ad\n          DIV \t\t\t mint(addres\n          SWAP1 \t\t\t  function mint(addres\n          POP \t\t\t  function mint(addres\n          PUSH 1\t\t\tt\n          DUP3 \t\t\t  _m\n          AND \t\t\t      _mint(\n          DUP1 \t\t\t\\r\\n\\r\\n    struct Tre\n          PUSH [tag] 35\t\t\tt);\\r\\n    }\\r\\n\\r\\n    struct...\n          JUMPI \t\t\tt);\\r\\n    }\\r\\n\\r\\n    struct...\n          PUSH 7F\t\t\t;\\r\\n \n          DUP3 \t\t\ttWater\n          AND \t\t\t lastWatered;\\r\\n  \n          SWAP2 \t\t\t   uint256 lastWatered;\\r\\n  \n          POP \t\t\t   uint256 lastWatered;\\r\\n  \n        tag 35\t\t\tt);\\r\\n    }\\r\\n\\r\\n    struct...\n          JUMPDEST \t\t\tt);\\r\\n    }\\r\\n\\r\\n    struct...\n          PUSH 20\t\t\t\\r\\n\n          DUP3 \t\t\tedTime\n          LT \t\t\tteredTimes;\\r\\n \n          DUP2 \t\t\t\\r\\n        uint256 \n          SUB \t\t\ted;\\r\\n        uint256 watered...\n          PUSH [tag] 36\t\t\taimed;\\r\\n        uint256 wate...\n          JUMPI \t\t\taimed;\\r\\n        uint256 wate...\n          PUSH [tag] 37\t\t\tokensYielded;\\r\\n   \n          PUSH [tag] 12\t\t\tokensYielded;\\r\\n   \n          JUMP \t\t\tokensYielded;\\r\\n   \n        tag 37\t\t\tokensYielded;\\r\\n   \n          JUMPDEST \t\t\tokensYielded;\\r\\n   \n        tag 36\t\t\taimed;\\r\\n        uint256 wate...\n          JUMPDEST \t\t\taimed;\\r\\n        uint256 wate...\n          POP \t\t\t   }\\r\\n\\r\\n    function mint(...\n          SWAP2 \t\t\tn = msg.sender;\\r\\n        STN...\n          SWAP1 \t\t\tn = msg.sender;\\r\\n        STN...\n          POP \t\t\tn = msg.sender;\\r\\n        STN...\n          JUMP \t\t\tn = msg.sender;\\r\\n        STN...\n        tag 14\t\t\td;\\r\\n    }\\r\\n\\r\\n    struct ...\n          JUMPDEST \t\t\td;\\r\\n    }\\r\\n\\r\\n    struct ...\n          PUSH 0\t\t\t  ma\n          DUP2 \t\t\teeD\n          SWAP1 \t\t\t56 => TreeD\n          POP \t\t\t56 => TreeD\n          DUP2 \t\t\t //\n          PUSH 0\t\t\tl\n          MSTORE \t\t\teeDetails; // \n          PUSH 20\t\t\twith\n          PUSH 0\t\t\tl\n          KECCAK256 \t\t\tuser details with \n          SWAP1 \t\t\to store user details with \n          POP \t\t\to store user details with \n          SWAP2 \t\t\td;\\r\\n    }\\r\\n\\r\\n    struct ...\n          SWAP1 \t\t\td;\\r\\n    }\\r\\n\\r\\n    struct ...\n          POP \t\t\td;\\r\\n    }\\r\\n\\r\\n    struct ...\n          JUMP \t\t\td;\\r\\n    }\\r\\n\\r\\n    struct ...\n        tag 15\t\t\t    }\\r\\n\\r\\n    mapping(uint2...\n          JUMPDEST \t\t\t    }\\r\\n\\r\\n    mapping(uint2...\n          PUSH 0\t\t\tollect\n          PUSH 20\t\t\tec\n          PUSH 1F\t\t\tee\n          DUP4 \t\t\t// to\n          ADD \t\t\tns; // to keep\n          DIV \t\t\tctions; // to keep reco\n          SWAP1 \t\t\t treecollections; // to keep r...\n          POP \t\t\t treecollections; // to keep r...\n          SWAP2 \t\t\t    }\\r\\n\\r\\n    mapping(uint2...\n          SWAP1 \t\t\t    }\\r\\n\\r\\n    mapping(uint2...\n          POP \t\t\t    }\\r\\n\\r\\n    mapping(uint2...\n          JUMP \t\t\t    }\\r\\n\\r\\n    mapping(uint2...\n        tag 16\t\t\ttion with their IDs\\r\\n    map...\n          JUMPDEST \t\t\ttion with their IDs\\r\\n    map...\n          PUSH 0\t\t\tUserTree\n          DUP3 \t\t\tth it\n          DUP3 \t\t\tree \n          SHL \t\t\t a Tree with its\n          SWAP1 \t\t\terTree; // mapping of a Tree w...\n          POP \t\t\terTree; // mapping of a Tree w...\n          SWAP3 \t\t\ttion with their IDs\\r\\n    map...\n          SWAP2 \t\t\ttion with their IDs\\r\\n    map...\n          POP \t\t\ttion with their IDs\\r\\n    map...\n          POP \t\t\ttion with their IDs\\r\\n    map...\n          JUMP \t\t\ttion with their IDs\\r\\n    map...\n        tag 17\t\t\t    mapping(uint256 => bool) c...\n          JUMPDEST \t\t\t    mapping(uint256 => bool) c...\n          PUSH 0\t\t\tign co\n          PUSH 8\t\t\tT\n          DUP4 \t\t\ttion mintN\n          MUL \t\t\tfunction mintNewTr\n          PUSH [tag] 42\t\t\t {\\r\\n        require(msg.send...\n          PUSH FFFFFFFFFFFFFFFFFFFFFFFFFFFFFFFFFFFFFFFFFFFFFFFFFFFFFFFFFFFFFFFF\t\t\t == admin, \"Nope!\");\\r\\n\\r\\n  ...\n          DUP3 \t\t\t(msg.send\n          PUSH [tag] 16\t\t\t {\\r\\n        require(msg.send...\n          JUMP \t\t\t {\\r\\n        require(msg.send...\n        tag 42\t\t\t {\\r\\n        require(msg.send...\n          JUMPDEST \t\t\t {\\r\\n        require(msg.send...\n          PUSH [tag] 43\t\t\tectionID = TreeCollectionCount...\n          DUP7 \t\t\ter.curre\n          DUP4 \t\t\tectionCou\n          PUSH [tag] 16\t\t\tectionID = TreeCollectionCount...\n          JUMP \t\t\tectionID = TreeCollectionCount...\n        tag 43\t\t\tectionID = TreeCollectionCount...\n          JUMPDEST \t\t\tectionID = TreeCollectionCount...\n          SWAP6 \t\t\tuint256 collectionID = TreeCol...\n          POP \t\t\tuint256 collectionID = TreeCol...\n          DUP1 \t\t\tolle\n          NOT \t\t\tnewCollec\n          DUP5 \t\t\tectio\n          AND \t\t\tCollection newCollect\n          SWAP4 \t\t\t     TreeCollection newCollect\n          POP \t\t\t     TreeCollection newCollect\n          DUP1 \t\t\tllec\n          DUP7 \t\t\t    tree\n          AND \t\t\t        treecollect\n          DUP5 \t\t\ton();\n          OR \t\t\tction();\\r\\n        treecollec...\n          SWAP3 \t\t\t TreeCollection();\\r\\n        ...\n          POP \t\t\t TreeCollection();\\r\\n        ...\n          POP \t\t\tlectionID with bool\\r\\n\\r\\n   ...\n          POP \t\t\tlectionID with bool\\r\\n\\r\\n   ...\n          SWAP4 \t\t\t    mapping(uint256 => bool) c...\n          SWAP3 \t\t\t    mapping(uint256 => bool) c...\n          POP \t\t\t    mapping(uint256 => bool) c...\n          POP \t\t\t    mapping(uint256 => bool) c...\n          POP \t\t\t    mapping(uint256 => bool) c...\n          JUMP \t\t\t    mapping(uint256 => bool) c...\n        tag 18\t\t\tonID] = newCollection;\\r\\n    ...\n          JUMPDEST \t\t\tonID] = newCollection;\\r\\n    ...\n          PUSH 0\t\t\tctionIn\n          DUP2 \t\t\t] = t\n          SWAP1 \t\t\tollectionID] = t\n          POP \t\t\tollectionID] = t\n          SWAP2 \t\t\tonID] = newCollection;\\r\\n    ...\n          SWAP1 \t\t\tonID] = newCollection;\\r\\n    ...\n          POP \t\t\tonID] = newCollection;\\r\\n    ...\n          JUMP \t\t\tonID] = newCollection;\\r\\n    ...\n        tag 19\t\t\t\\n\\r\\n    function mintTree(ui...\n          JUMPDEST \t\t\t\\n\\r\\n    function mintTree(ui...\n          PUSH 0\t\t\tt25\n          DUP2 \t\t\tring \n          SWAP1 \t\t\tnID, string \n          POP \t\t\tnID, string \n          SWAP2 \t\t\t\\n\\r\\n    function mintTree(ui...\n          SWAP1 \t\t\t\\n\\r\\n    function mintTree(ui...\n          POP \t\t\t\\n\\r\\n    function mintTree(ui...\n          JUMP \t\t\t\\n\\r\\n    function mintTree(ui...\n        tag 20\t\t\t public {\\r\\n\\r\\n        requi...\n          JUMPDEST \t\t\t public {\\r\\n\\r\\n        requi...\n          PUSH 0\t\t\t[collecti\n          PUSH [tag] 47\t\t\ton is not yet minted!\");\\r\\n\\r...\n          PUSH [tag] 48\t\t\ted!\");\\r\\n\\r\\n        require(...\n          PUSH [tag] 49\t\t\t\\n        require(STNEAR.\n          DUP5 \t\t\tTNEAR\n          PUSH [tag] 18\t\t\t\\n        require(STNEAR.\n          JUMP \t\t\t\\n        require(STNEAR.\n        tag 49\t\t\t\\n        require(STNEAR.\n          JUMPDEST \t\t\t\\n        require(STNEAR.\n          PUSH [tag] 19\t\t\ted!\");\\r\\n\\r\\n        require(...\n          JUMP \t\t\ted!\");\\r\\n\\r\\n        require(...\n        tag 48\t\t\ted!\");\\r\\n\\r\\n        require(...\n          JUMPDEST \t\t\ted!\");\\r\\n\\r\\n        require(...\n          PUSH [tag] 18\t\t\ton is not yet minted!\");\\r\\n\\r...\n          JUMP \t\t\ton is not yet minted!\");\\r\\n\\r...\n        tag 47\t\t\ton is not yet minted!\");\\r\\n\\r...\n          JUMPDEST \t\t\ton is not yet minted!\");\\r\\n\\r...\n          SWAP1 \t\t\tue, \"Collection is not yet min...\n          POP \t\t\tue, \"Collection is not yet min...\n          SWAP2 \t\t\t public {\\r\\n\\r\\n        requi...\n          SWAP1 \t\t\t public {\\r\\n\\r\\n        requi...\n          POP \t\t\t public {\\r\\n\\r\\n        requi...\n          JUMP \t\t\t public {\\r\\n\\r\\n        requi...\n        tag 21\t\t\tsg.sender, address(this), 5 * ...\n          JUMPDEST \t\t\tsg.sender, address(this), 5 * ...\n          PUSH 0\t\t\tR: \n          DUP2 \t\t\td\"); \n          SWAP1 \t\t\tm failed\"); \n          POP \t\t\tm failed\"); \n          SWAP2 \t\t\tsg.sender, address(this), 5 * ...\n          SWAP1 \t\t\tsg.sender, address(this), 5 * ...\n          POP \t\t\tsg.sender, address(this), 5 * ...\n          JUMP \t\t\tsg.sender, address(this), 5 * ...\n        tag 22\t\t\tTreeCollection treecollection ...\n          JUMPDEST \t\t\tTreeCollection treecollection ...\n          PUSH [tag] 52\t\t\tt(msg.sender, _uri); \\r\\n     ...\n          DUP4 \t\t\tuint256\n          PUSH [tag] 20\t\t\tt(msg.sender, _uri); \\r\\n     ...\n          JUMP \t\t\tt(msg.sender, _uri); \\r\\n     ...\n        tag 52\t\t\tt(msg.sender, _uri); \\r\\n     ...\n          JUMPDEST \t\t\tt(msg.sender, _uri); \\r\\n     ...\n          PUSH [tag] 53\t\t\ton.tokenIdCounter();\\r\\n      ...\n          PUSH [tag] 54\t\t\tID].treeDetails[tokenID] = Tre...\n          DUP3 \t\t\t = TreeDetails(0\n          PUSH [tag] 21\t\t\tID].treeDetails[tokenID] = Tre...\n          JUMP \t\t\tID].treeDetails[tokenID] = Tre...\n        tag 54\t\t\tID].treeDetails[tokenID] = Tre...\n          JUMPDEST \t\t\tID].treeDetails[tokenID] = Tre...\n          DUP5 \t\t\tllecti\n          DUP5 \t\t\tTree\n          SLOAD \t\t\t  userTree[\n          PUSH [tag] 17\t\t\ton.tokenIdCounter();\\r\\n      ...\n          JUMP \t\t\ton.tokenIdCounter();\\r\\n      ...\n        tag 53\t\t\ton.tokenIdCounter();\\r\\n      ...\n          JUMPDEST \t\t\ton.tokenIdCounter();\\r\\n      ...\n          DUP3 \t\t\tllec\n          SSTORE \t\t\t treecollection.tokenIdCounter...\n          POP \t\t\t);\\r\\n        treecollection.s...\n          POP \t\t\tTreeCollection treecollection ...\n          POP \t\t\tTreeCollection treecollection ...\n          POP \t\t\tTreeCollection treecollection ...\n          JUMP \t\t\tTreeCollection treecollection ...\n        tag 23\t\t\t);\\r\\n    }\\r\\n\\r\\n    functio...\n          JUMPDEST \t\t\t);\\r\\n    }\\r\\n\\r\\n    functio...\n          PUSH 0\t\t\tect\n          SWAP1 \t\t\t);\\r\\n    }\\r\\n\\r\\n    functio...\n          JUMP \t\t\t);\\r\\n    }\\r\\n\\r\\n    functio...\n        tag 24\t\t\t returns(bool) {\\r\\n\\r\\n      ...\n          JUMPDEST \t\t\t returns(bool) {\\r\\n\\r\\n      ...\n          PUSH [tag] 57\t\t\true, \"Collection is not yet mi...\n          PUSH [tag] 23\t\t\true, \"Collection is not yet mi...\n          JUMP \t\t\true, \"Collection is not yet mi...\n        tag 57\t\t\true, \"Collection is not yet mi...\n          JUMPDEST \t\t\true, \"Collection is not yet mi...\n          PUSH [tag] 58\t\t\t\\n        require(userTree[_co...\n          DUP2 \t\t\tnID].i\n          DUP5 \t\t\tls[_to\n          DUP5 \t\t\teDet\n          PUSH [tag] 22\t\t\t\\n        require(userTree[_co...\n          JUMP \t\t\t\\n        require(userTree[_co...\n        tag 58\t\t\t\\n        require(userTree[_co...\n          JUMPDEST \t\t\t\\n        require(userTree[_co...\n          POP \t\t\tized[_collectionID] == true, \"...\n          POP \t\t\t returns(bool) {\\r\\n\\r\\n      ...\n          POP \t\t\t returns(bool) {\\r\\n\\r\\n      ...\n          JUMP \t\t\t returns(bool) {\\r\\n\\r\\n      ...\n        tag 25\t\t\t \"Tree does not exist\");\\r\\n\\r...\n          JUMPDEST \t\t\t \"Tree does not exist\");\\r\\n\\r...\n        tag 60\t\t\tction = TreeCollection(treecol...\n          JUMPDEST \t\t\tction = TreeCollection(treecol...\n          DUP2 \t\t\tcti\n          DUP2 \t\t\teeCol\n          LT \t\t\t TreeCollectio\n          ISZERO \t\t\tction = TreeCollection(treecol...\n          PUSH [tag] 62\t\t\tction = TreeCollection(treecol...\n          JUMPI \t\t\tction = TreeCollection(treecol...\n          PUSH [tag] 63\t\t\tire(treecollection.ownerOf(_to...\n          PUSH 0\t\t\t=\n          DUP3 \t\t\tkenID\n          PUSH [tag] 24\t\t\tire(treecollection.ownerOf(_to...\n          JUMP \t\t\tire(treecollection.ownerOf(_to...\n        tag 63\t\t\tire(treecollection.ownerOf(_to...\n          JUMPDEST \t\t\tire(treecollection.ownerOf(_to...\n          PUSH 1\t\t\te\n          DUP2 \t\t\ts[_co\n          ADD \t\t\ttions[_collec\n          SWAP1 \t\t\treecollections[_collec\n          POP \t\t\treecollections[_collec\n          PUSH [tag] 60\t\t\tction = TreeCollection(treecol...\n          JUMP \t\t\tction = TreeCollection(treecol...\n        tag 62\t\t\tction = TreeCollection(treecol...\n          JUMPDEST \t\t\tction = TreeCollection(treecol...\n          POP \t\t\t \"Tree does not exist\");\\r\\n\\r...\n          POP \t\t\t \"Tree does not exist\");\\r\\n\\r...\n          JUMP \t\t\t \"Tree does not exist\");\\r\\n\\r...\n        tag 26\t\t\tnot the owner\");\\r\\n\\r\\n      ...\n          JUMPDEST \t\t\tnot the owner\");\\r\\n\\r\\n      ...\n          PUSH 1F\t\t\t: \n          DUP3 \t\t\tTNE\n          GT \t\t\t \"STNEAR: t\n          ISZERO \t\t\te), \"STNEAR: transferFrom fail...\n          PUSH [tag] 65\t\t\te), \"STNEAR: transferFrom fail...\n          JUMPI \t\t\te), \"STNEAR: transferFrom fail...\n          PUSH [tag] 66\t\t\t   userTree[_collectionID].tre...\n          DUP2 \t\t\tetail\n          PUSH [tag] 14\t\t\t   userTree[_collectionID].tre...\n          JUMP \t\t\t   userTree[_collectionID].tre...\n        tag 66\t\t\t   userTree[_collectionID].tre...\n          JUMPDEST \t\t\t   userTree[_collectionID].tre...\n          PUSH [tag] 67\t\t\t     userTree[_collectionID].\n          DUP5 \t\t\tlectionID]\n          PUSH [tag] 15\t\t\t     userTree[_collectionID].\n          JUMP \t\t\t     userTree[_collectionID].\n        tag 67\t\t\t     userTree[_collectionID].\n          JUMPDEST \t\t\t     userTree[_collectionID].\n          DUP2 \t\t\ttamp;\\r\\n \n          ADD \t\t\timestamp;\\r\\n        userTree[...\n          PUSH 20\t\t\t) \n          DUP6 \t\t\treturns(bo\n          LT \t\t\tic returns(bool) {\n          ISZERO \t\t\tublic returns(bool) {\\r\\n\\r\\n ...\n          PUSH [tag] 68\t\t\tublic returns(bool) {\\r\\n\\r\\n ...\n          JUMPI \t\t\tublic returns(bool) {\\r\\n\\r\\n ...\n          DUP2 \t\t\te(collec\n          SWAP1 \t\t\t\\n        require(collec\n          POP \t\t\t\\n        require(collec\n        tag 68\t\t\tublic returns(bool) {\\r\\n\\r\\n ...\n          JUMPDEST \t\t\tublic returns(bool) {\\r\\n\\r\\n ...\n          PUSH [tag] 69\t\t\t[_collectionID] == true, \"Coll...\n          PUSH [tag] 70\t\t\t;\\r\\n\\r\\n        require(u\n          DUP6 \t\t\tre(\n          PUSH [tag] 15\t\t\t;\\r\\n\\r\\n        require(u\n          JUMP \t\t\t;\\r\\n\\r\\n        require(u\n        tag 70\t\t\t;\\r\\n\\r\\n        require(u\n          JUMPDEST \t\t\t;\\r\\n\\r\\n        require(u\n          DUP4 \t\t\tt minted\n          ADD \t\t\tt yet minted\");\\r\\n\\r\\n       ...\n          DUP3 \t\t\tlection is \n          PUSH [tag] 25\t\t\t[_collectionID] == true, \"Coll...\n          JUMP \t\t\t[_collectionID] == true, \"Coll...\n        tag 69\t\t\t[_collectionID] == true, \"Coll...\n          JUMPDEST \t\t\t[_collectionID] == true, \"Coll...\n          POP \t\t\tansferFrom failed\"); \\r\\n\\r\\n ...\n          POP \t\t\tansferFrom failed\"); \\r\\n\\r\\n ...\n        tag 65\t\t\te), \"STNEAR: transferFrom fail...\n          JUMPDEST \t\t\te), \"STNEAR: transferFrom fail...\n          POP \t\t\tnot the owner\");\\r\\n\\r\\n      ...\n          POP \t\t\tnot the owner\");\\r\\n\\r\\n      ...\n          POP \t\t\tnot the owner\");\\r\\n\\r\\n      ...\n          JUMP \t\t\tnot the owner\");\\r\\n\\r\\n      ...\n        tag 27\t\t\teeDetails[_tokenID].isInitiali...\n          JUMPDEST \t\t\teeDetails[_tokenID].isInitiali...\n          PUSH 0\t\t\tt\");\\r\\n\\r\\n\n          DUP3 \t\t\teeCol\n          DUP3 \t\t\tn = \n          SHR \t\t\tction = TreeColl\n          SWAP1 \t\t\teCollection treecollection = T...\n          POP \t\t\teCollection treecollection = T...\n          SWAP3 \t\t\teeDetails[_tokenID].isInitiali...\n          SWAP2 \t\t\teeDetails[_tokenID].isInitiali...\n          POP \t\t\teeDetails[_tokenID].isInitiali...\n          POP \t\t\teeDetails[_tokenID].isInitiali...\n          JUMP \t\t\teeDetails[_tokenID].isInitiali...\n        tag 28\t\t\tllections[_collectionID]);\\r\\n...\n          JUMPDEST \t\t\tllections[_collectionID]);\\r\\n...\n          PUSH 0\t\t\te(tree\n          PUSH [tag] 73\t\t\t) == msg.sender, \"You are not ...\n          PUSH 0\t\t\t \n          NOT \t\t\t\\r\\n    \n          DUP5 \t\t\tner\")\n          PUSH 8\t\t\t \n          MUL \t\t\t the owner\");\n          PUSH [tag] 27\t\t\t) == msg.sender, \"You are not ...\n          JUMP \t\t\t) == msg.sender, \"You are not ...\n        tag 73\t\t\t) == msg.sender, \"You are not ...\n          JUMPDEST \t\t\t) == msg.sender, \"You are not ...\n          NOT \t\t\tenID) == msg.sender, \"You are ...\n          DUP1 \t\t\t.tim\n          DUP4 \t\t\t blo\n          AND \t\t\t     block.time\n          SWAP2 \t\t\t(\\r\\n            block.time\n          POP \t\t\t(\\r\\n            block.time\n          POP \t\t\tollection.ownerOf(_tokenID) ==...\n          SWAP3 \t\t\tllections[_collectionID]);\\r\\n...\n          SWAP2 \t\t\tllections[_collectionID]);\\r\\n...\n          POP \t\t\tllections[_collectionID]);\\r\\n...\n          POP \t\t\tllections[_collectionID]);\\r\\n...\n          JUMP \t\t\tllections[_collectionID]);\\r\\n...\n        tag 29\t\t\trTree[_collectionID].treeDetai...\n          JUMPDEST \t\t\trTree[_collectionID].treeDetai...\n          PUSH 0\t\t\t   \"\n          PUSH [tag] 75\t\t\t            \"Can't Claim\"\\r\\n ...\n          DUP4 \t\t\t\\r\\n \n          DUP4 \t\t\tClai\n          PUSH [tag] 28\t\t\t            \"Can't Claim\"\\r\\n ...\n          JUMP \t\t\t            \"Can't Claim\"\\r\\n ...\n        tag 75\t\t\t            \"Can't Claim\"\\r\\n ...\n          JUMPDEST \t\t\t            \"Can't Claim\"\\r\\n ...\n          SWAP2 \t\t\t86400,\\r\\n            \"Can't C...\n          POP \t\t\t86400,\\r\\n            \"Can't C...\n          DUP3 \t\t\tlec\n          PUSH 2\t\t\tc\n          MUL \t\t\tee[_collect\n          DUP3 \t\t\tuser\n          OR \t\t\t   userTree[_collecti\n          SWAP1 \t\t\t\\n\\r\\n        userTree[_collec...\n          POP \t\t\t\\n\\r\\n        userTree[_collec...\n          SWAP3 \t\t\trTree[_collectionID].treeDetai...\n          SWAP2 \t\t\trTree[_collectionID].treeDetai...\n          POP \t\t\trTree[_collectionID].treeDetai...\n          POP \t\t\trTree[_collectionID].treeDetai...\n          JUMP \t\t\trTree[_collectionID].treeDetai...\n        tag 6\t\t\tetails[_tokenID].lastClaimed =...\n          JUMPDEST \t\t\tetails[_tokenID].lastClaimed =...\n          PUSH [tag] 77\t\t\t+= 5;\\r\\n        mint(msg.send...\n          DUP3 \t\t\t * \n          PUSH [tag] 10\t\t\t+= 5;\\r\\n        mint(msg.send...\n          JUMP \t\t\t+= 5;\\r\\n        mint(msg.send...\n        tag 77\t\t\t+= 5;\\r\\n        mint(msg.send...\n          JUMPDEST \t\t\t+= 5;\\r\\n        mint(msg.send...\n          PUSH FFFFFFFFFFFFFFFF\t\t\ts(uint256 collecti\n          DUP2 \t\t\teeDeta\n          GT \t\t\ttTreeDetails(uint256 collectio\n          ISZERO \t\t\t getTreeDetails(uint256 collec...\n          PUSH [tag] 78\t\t\t getTreeDetails(uint256 collec...\n          JUMPI \t\t\t getTreeDetails(uint256 collec...\n          PUSH [tag] 79\t\t\t, uint256 tokenId)\n          PUSH [tag] 11\t\t\t, uint256 tokenId)\n          JUMP \t\t\t, uint256 tokenId)\n        tag 79\t\t\t, uint256 tokenId)\n          JUMPDEST \t\t\t, uint256 tokenId)\n        tag 78\t\t\t getTreeDetails(uint256 collec...\n          JUMPDEST \t\t\t getTreeDetails(uint256 collec...\n          PUSH [tag] 80\t\t\tetails memory) {\\r\\n        re...\n          DUP3 \t\t\t use\n          SLOAD \t\t\treturn user\n          PUSH [tag] 13\t\t\tetails memory) {\\r\\n        re...\n          JUMP \t\t\tetails memory) {\\r\\n        re...\n        tag 80\t\t\tetails memory) {\\r\\n        re...\n          JUMPDEST \t\t\tetails memory) {\\r\\n        re...\n          PUSH [tag] 81\t\t\t  //returns details related to...\n          DUP3 \t\t\t\\n\\r\\n   \n          DUP3 \t\t\t\\r\\n    \n          DUP6 \t\t\t(Tre\n          PUSH [tag] 26\t\t\t  //returns details related to...\n          JUMP \t\t\t  //returns details related to...\n        tag 81\t\t\t  //returns details related to...\n          JUMPDEST \t\t\t  //returns details related to...\n          PUSH 0\t\t\tt\n          PUSH 20\t\t\tc vi\n          SWAP1 \t\t\ttionID) public vi\n          POP \t\t\ttionID) public vi\n          PUSH 1F\t\t\t  \n          DUP4 \t\t\t{\\r\\n   \n          GT \t\t\t6) {\\r\\n        \n          PUSH 1\t\t\tl\n          DUP2 \t\t\treecollections[collectionID].t...\n          EQ \t\t\treecollections[collectionID].t...\n          PUSH [tag] 83\t\t\treecollections[collectionID].t...\n          JUMPI \t\t\treecollections[collectionID].t...\n          PUSH 0\t\t\t\n          DUP5 \t\t\t\n          ISZERO \t\t\t\n          PUSH [tag] 84\t\t\t\n          JUMPI \t\t\t\n          DUP3 \t\t\t\n          DUP8 \t\t\t\n          ADD \t\t\t\n          MLOAD \t\t\t\n          SWAP1 \t\t\t\n          POP \t\t\t\n        tag 84\t\t\t\n          JUMPDEST \t\t\t\n          PUSH [tag] 85\t\t\t\n          DUP6 \t\t\t\n          DUP3 \t\t\t\n          PUSH [tag] 29\t\t\t\n          JUMP \t\t\t\n        tag 85\t\t\t\n          JUMPDEST \t\t\t\n          DUP7 \t\t\t\n          SSTORE \t\t\t\n          POP \t\t\t\n          PUSH [tag] 82\t\t\t(uint256) {\\r\\n        return ...\n          JUMP \t\t\t(uint256) {\\r\\n        return ...\n        tag 83\t\t\treecollections[collectionID].t...\n          JUMPDEST \t\t\treecollections[collectionID].t...\n          PUSH 1F\t\t\t    \n          NOT \t\t\t\\n        \n          DUP5 \t\t\tter())\n          AND \t\t\tCounter());\\r\\n        /\n          PUSH [tag] 86\t\t\trticular collection\\r\\n    }\\r...\n          DUP7 \t\t\t\n          PUSH [tag] 14\t\t\trticular collection\\r\\n    }\\r...\n          JUMP \t\t\trticular collection\\r\\n    }\\r...\n        tag 86\t\t\trticular collection\\r\\n    }\\r...\n          JUMPDEST \t\t\trticular collection\\r\\n    }\\r...\n          PUSH 0\t\t\t\n        tag 87\t\t\t\n          JUMPDEST \t\t\t\n          DUP3 \t\t\t\n          DUP2 \t\t\t\n          LT \t\t\t\n          ISZERO \t\t\t\n          PUSH [tag] 89\t\t\t\n          JUMPI \t\t\t\n          DUP5 \t\t\t\n          DUP10 \t\t\t\n          ADD \t\t\t\n          MLOAD \t\t\t\n          DUP3 \t\t\t\n          SSTORE \t\t\t\n          PUSH 1\t\t\t\n          DUP3 \t\t\t\n          ADD \t\t\t\n          SWAP2 \t\t\t\n          POP \t\t\t\n          PUSH 20\t\t\t\n          DUP6 \t\t\t\n          ADD \t\t\t\n          SWAP5 \t\t\t\n          POP \t\t\t\n          PUSH 20\t\t\t\n          DUP2 \t\t\t\n          ADD \t\t\t\n          SWAP1 \t\t\t\n          POP \t\t\t\n          PUSH [tag] 87\t\t\t\n          JUMP \t\t\t\n        tag 89\t\t\t\n          JUMPDEST \t\t\t\n          DUP7 \t\t\t\n          DUP4 \t\t\t\n          LT \t\t\t\n          ISZERO \t\t\t\n          PUSH [tag] 90\t\t\t\n          JUMPI \t\t\t\n          DUP5 \t\t\t\n          DUP10 \t\t\t\n          ADD \t\t\t\n          MLOAD \t\t\t\n          PUSH [tag] 91\t\t\t\n          PUSH 1F\t\t\t\n          DUP10 \t\t\t\n          AND \t\t\t\n          DUP3 \t\t\t\n          PUSH [tag] 28\t\t\t\n          JUMP \t\t\t\n        tag 91\t\t\t\n          JUMPDEST \t\t\t\n          DUP4 \t\t\t\n          SSTORE \t\t\t\n          POP \t\t\t\n        tag 90\t\t\t\n          JUMPDEST \t\t\t\n          PUSH 1\t\t\t\n          PUSH 2\t\t\t\n          DUP9 \t\t\t\n          MUL \t\t\t\n          ADD \t\t\t\n          DUP9 \t\t\t\n          SSTORE \t\t\t\n          POP \t\t\tections[collectionID].tokenIdC...\n          POP \t\t\tections[collectionID].tokenIdC...\n          POP \t\t\tections[collectionID].tokenIdC...\n        tag 82\t\t\t(uint256) {\\r\\n        return ...\n          JUMPDEST \t\t\t(uint256) {\\r\\n        return ...\n          POP \t\t\t(uint256) {\\r\\n        return ...\n          POP \t\t\t[_tokenID].tokensYielded += 5;...\n          POP \t\t\t[_tokenID].tokensYielded += 5;...\n          POP \t\t\t[_tokenID].tokensYielded += 5;...\n          POP \t\t\tetails[_tokenID].lastClaimed =...\n          POP \t\t\tetails[_tokenID].lastClaimed =...\n          JUMP \t\t\tetails[_tokenID].lastClaimed =...\n        tag 9\t\t\treeCollectionCounter;\\r\\n    \\...\n          JUMPDEST \t\t\treeCollectionCounter;\\r\\n    \\...\n          PUSH #[$] 0000000000000000000000000000000000000000000000000000000000000000\t\t\treeCollectionCounter;\\r\\n    \\...\n          DUP1 \t\t\treeCollectionCounter;\\r\\n    \\...\n          PUSH [$] 0000000000000000000000000000000000000000000000000000000000000000\t\t\treeCollectionCounter;\\r\\n    \\...\n          PUSH 0\t\t\treeCollectionCounter;\\r\\n    \\...\n          CODECOPY \t\t\treeCollectionCounter;\\r\\n    \\...\n          PUSH 0\t\t\treeCollectionCounter;\\r\\n    \\...\n          RETURN \t\t\treeCollectionCounter;\\r\\n    \\...\n        .data\n          0:\n            .code\n              PUSH 80\t\t\treeCollectionCounter;\\r\\n    \\...\n              PUSH 40\t\t\treeCollectionCounter;\\r\\n    \\...\n              MSTORE \t\t\treeCollectionCounter;\\r\\n    \\...\n              CALLVALUE \t\t\treeCollectionCounter;\\r\\n    \\...\n              DUP1 \t\t\treeCollectionCounter;\\r\\n    \\...\n              ISZERO \t\t\treeCollectionCounter;\\r\\n    \\...\n              PUSH [tag] 1\t\t\treeCollectionCounter;\\r\\n    \\...\n              JUMPI \t\t\treeCollectionCounter;\\r\\n    \\...\n              PUSH 0\t\t\treeCollectionCounter;\\r\\n    \\...\n              DUP1 \t\t\treeCollectionCounter;\\r\\n    \\...\n              REVERT \t\t\treeCollectionCounter;\\r\\n    \\...\n            tag 1\t\t\treeCollectionCounter;\\r\\n    \\...\n              JUMPDEST \t\t\treeCollectionCounter;\\r\\n    \\...\n              POP \t\t\treeCollectionCounter;\\r\\n    \\...\n              PUSH 4\t\t\treeCollectionCounter;\\r\\n    \\...\n              CALLDATASIZE \t\t\treeCollectionCounter;\\r\\n    \\...\n              LT \t\t\treeCollectionCounter;\\r\\n    \\...\n              PUSH [tag] 2\t\t\treeCollectionCounter;\\r\\n    \\...\n              JUMPI \t\t\treeCollectionCounter;\\r\\n    \\...\n              PUSH 0\t\t\treeCollectionCounter;\\r\\n    \\...\n              CALLDATALOAD \t\t\treeCollectionCounter;\\r\\n    \\...\n              PUSH E0\t\t\treeCollectionCounter;\\r\\n    \\...\n              SHR \t\t\treeCollectionCounter;\\r\\n    \\...\n              DUP1 \t\t\treeCollectionCounter;\\r\\n    \\...\n              PUSH 70A08231\t\t\treeCollectionCounter;\\r\\n    \\...\n              GT \t\t\treeCollectionCounter;\\r\\n    \\...\n              PUSH [tag] 18\t\t\treeCollectionCounter;\\r\\n    \\...\n              JUMPI \t\t\treeCollectionCounter;\\r\\n    \\...\n              DUP1 \t\t\treeCollectionCounter;\\r\\n    \\...\n              PUSH B88D4FDE\t\t\treeCollectionCounter;\\r\\n    \\...\n              GT \t\t\treeCollectionCounter;\\r\\n    \\...\n              PUSH [tag] 19\t\t\treeCollectionCounter;\\r\\n    \\...\n              JUMPI \t\t\treeCollectionCounter;\\r\\n    \\...\n              DUP1 \t\t\treeCollectionCounter;\\r\\n    \\...\n              PUSH B88D4FDE\t\t\treeCollectionCounter;\\r\\n    \\...\n              EQ \t\t\treeCollectionCounter;\\r\\n    \\...\n              PUSH [tag] 14\t\t\treeCollectionCounter;\\r\\n    \\...\n              JUMPI \t\t\treeCollectionCounter;\\r\\n    \\...\n              DUP1 \t\t\treeCollectionCounter;\\r\\n    \\...\n              PUSH C87B56DD\t\t\treeCollectionCounter;\\r\\n    \\...\n              EQ \t\t\treeCollectionCounter;\\r\\n    \\...\n              PUSH [tag] 15\t\t\treeCollectionCounter;\\r\\n    \\...\n              JUMPI \t\t\treeCollectionCounter;\\r\\n    \\...\n              DUP1 \t\t\treeCollectionCounter;\\r\\n    \\...\n              PUSH D204C45E\t\t\treeCollectionCounter;\\r\\n    \\...\n              EQ \t\t\treeCollectionCounter;\\r\\n    \\...\n              PUSH [tag] 16\t\t\treeCollectionCounter;\\r\\n    \\...\n              JUMPI \t\t\treeCollectionCounter;\\r\\n    \\...\n              DUP1 \t\t\treeCollectionCounter;\\r\\n    \\...\n              PUSH E985E9C5\t\t\treeCollectionCounter;\\r\\n    \\...\n              EQ \t\t\treeCollectionCounter;\\r\\n    \\...\n              PUSH [tag] 17\t\t\treeCollectionCounter;\\r\\n    \\...\n              JUMPI \t\t\treeCollectionCounter;\\r\\n    \\...\n              PUSH [tag] 2\t\t\treeCollectionCounter;\\r\\n    \\...\n              JUMP \t\t\treeCollectionCounter;\\r\\n    \\...\n            tag 19\t\t\treeCollectionCounter;\\r\\n    \\...\n              JUMPDEST \t\t\treeCollectionCounter;\\r\\n    \\...\n              DUP1 \t\t\treeCollectionCounter;\\r\\n    \\...\n              PUSH 70A08231\t\t\treeCollectionCounter;\\r\\n    \\...\n              EQ \t\t\treeCollectionCounter;\\r\\n    \\...\n              PUSH [tag] 10\t\t\treeCollectionCounter;\\r\\n    \\...\n              JUMPI \t\t\treeCollectionCounter;\\r\\n    \\...\n              DUP1 \t\t\treeCollectionCounter;\\r\\n    \\...\n              PUSH 95D89B41\t\t\treeCollectionCounter;\\r\\n    \\...\n              EQ \t\t\treeCollectionCounter;\\r\\n    \\...\n              PUSH [tag] 11\t\t\treeCollectionCounter;\\r\\n    \\...\n              JUMPI \t\t\treeCollectionCounter;\\r\\n    \\...\n              DUP1 \t\t\treeCollectionCounter;\\r\\n    \\...\n              PUSH 98BDF6F5\t\t\treeCollectionCounter;\\r\\n    \\...\n              EQ \t\t\treeCollectionCounter;\\r\\n    \\...\n              PUSH [tag] 12\t\t\treeCollectionCounter;\\r\\n    \\...\n              JUMPI \t\t\treeCollectionCounter;\\r\\n    \\...\n              DUP1 \t\t\treeCollectionCounter;\\r\\n    \\...\n              PUSH A22CB465\t\t\treeCollectionCounter;\\r\\n    \\...\n              EQ \t\t\treeCollectionCounter;\\r\\n    \\...\n              PUSH [tag] 13\t\t\treeCollectionCounter;\\r\\n    \\...\n              JUMPI \t\t\treeCollectionCounter;\\r\\n    \\...\n              PUSH [tag] 2\t\t\treeCollectionCounter;\\r\\n    \\...\n              JUMP \t\t\treeCollectionCounter;\\r\\n    \\...\n            tag 18\t\t\treeCollectionCounter;\\r\\n    \\...\n              JUMPDEST \t\t\treeCollectionCounter;\\r\\n    \\...\n              DUP1 \t\t\treeCollectionCounter;\\r\\n    \\...\n              PUSH 95EA7B3\t\t\treeCollectionCounter;\\r\\n    \\...\n              GT \t\t\treeCollectionCounter;\\r\\n    \\...\n              PUSH [tag] 20\t\t\treeCollectionCounter;\\r\\n    \\...\n              JUMPI \t\t\treeCollectionCounter;\\r\\n    \\...\n              DUP1 \t\t\treeCollectionCounter;\\r\\n    \\...\n              PUSH 95EA7B3\t\t\treeCollectionCounter;\\r\\n    \\...\n              EQ \t\t\treeCollectionCounter;\\r\\n    \\...\n              PUSH [tag] 6\t\t\treeCollectionCounter;\\r\\n    \\...\n              JUMPI \t\t\treeCollectionCounter;\\r\\n    \\...\n              DUP1 \t\t\treeCollectionCounter;\\r\\n    \\...\n              PUSH 23B872DD\t\t\treeCollectionCounter;\\r\\n    \\...\n              EQ \t\t\treeCollectionCounter;\\r\\n    \\...\n              PUSH [tag] 7\t\t\treeCollectionCounter;\\r\\n    \\...\n              JUMPI \t\t\treeCollectionCounter;\\r\\n    \\...\n              DUP1 \t\t\treeCollectionCounter;\\r\\n    \\...\n              PUSH 42842E0E\t\t\treeCollectionCounter;\\r\\n    \\...\n              EQ \t\t\treeCollectionCounter;\\r\\n    \\...\n              PUSH [tag] 8\t\t\treeCollectionCounter;\\r\\n    \\...\n              JUMPI \t\t\treeCollectionCounter;\\r\\n    \\...\n              DUP1 \t\t\treeCollectionCounter;\\r\\n    \\...\n              PUSH 6352211E\t\t\treeCollectionCounter;\\r\\n    \\...\n              EQ \t\t\treeCollectionCounter;\\r\\n    \\...\n              PUSH [tag] 9\t\t\treeCollectionCounter;\\r\\n    \\...\n              JUMPI \t\t\treeCollectionCounter;\\r\\n    \\...\n              PUSH [tag] 2\t\t\treeCollectionCounter;\\r\\n    \\...\n              JUMP \t\t\treeCollectionCounter;\\r\\n    \\...\n            tag 20\t\t\treeCollectionCounter;\\r\\n    \\...\n              JUMPDEST \t\t\treeCollectionCounter;\\r\\n    \\...\n              DUP1 \t\t\treeCollectionCounter;\\r\\n    \\...\n              PUSH 1FFC9A7\t\t\treeCollectionCounter;\\r\\n    \\...\n              EQ \t\t\treeCollectionCounter;\\r\\n    \\...\n              PUSH [tag] 3\t\t\treeCollectionCounter;\\r\\n    \\...\n              JUMPI \t\t\treeCollectionCounter;\\r\\n    \\...\n              DUP1 \t\t\treeCollectionCounter;\\r\\n    \\...\n              PUSH 6FDDE03\t\t\treeCollectionCounter;\\r\\n    \\...\n              EQ \t\t\treeCollectionCounter;\\r\\n    \\...\n              PUSH [tag] 4\t\t\treeCollectionCounter;\\r\\n    \\...\n              JUMPI \t\t\treeCollectionCounter;\\r\\n    \\...\n              DUP1 \t\t\treeCollectionCounter;\\r\\n    \\...\n              PUSH 81812FC\t\t\treeCollectionCounter;\\r\\n    \\...\n              EQ \t\t\treeCollectionCounter;\\r\\n    \\...\n              PUSH [tag] 5\t\t\treeCollectionCounter;\\r\\n    \\...\n              JUMPI \t\t\treeCollectionCounter;\\r\\n    \\...\n            tag 2\t\t\treeCollectionCounter;\\r\\n    \\...\n              JUMPDEST \t\t\treeCollectionCounter;\\r\\n    \\...\n              PUSH 0\t\t\treeCollectionCounter;\\r\\n    \\...\n              DUP1 \t\t\treeCollectionCounter;\\r\\n    \\...\n              REVERT \t\t\treeCollectionCounter;\\r\\n    \\...\n            tag 3\t\t\tn collectionID with bool\\r\\n\\r...\n              JUMPDEST \t\t\tn collectionID with bool\\r\\n\\r...\n              PUSH [tag] 21\t\t\tn collectionID with bool\\r\\n\\r...\n              PUSH 4\t\t\tn collectionID with bool\\r\\n\\r...\n              DUP1 \t\t\tn collectionID with bool\\r\\n\\r...\n              CALLDATASIZE \t\t\tn collectionID with bool\\r\\n\\r...\n              SUB \t\t\tn collectionID with bool\\r\\n\\r...\n              DUP2 \t\t\tn collectionID with bool\\r\\n\\r...\n              ADD \t\t\tn collectionID with bool\\r\\n\\r...\n              SWAP1 \t\t\tn collectionID with bool\\r\\n\\r...\n              PUSH [tag] 22\t\t\tn collectionID with bool\\r\\n\\r...\n              SWAP2 \t\t\tn collectionID with bool\\r\\n\\r...\n              SWAP1 \t\t\tn collectionID with bool\\r\\n\\r...\n              PUSH [tag] 23\t\t\tn collectionID with bool\\r\\n\\r...\n              JUMP \t\t\tn collectionID with bool\\r\\n\\r...\n            tag 22\t\t\tn collectionID with bool\\r\\n\\r...\n              JUMPDEST \t\t\tn collectionID with bool\\r\\n\\r...\n              PUSH [tag] 24\t\t\tn collectionID with bool\\r\\n\\r...\n              JUMP \t\t\tn collectionID with bool\\r\\n\\r...\n            tag 21\t\t\tn collectionID with bool\\r\\n\\r...\n              JUMPDEST \t\t\tn collectionID with bool\\r\\n\\r...\n              PUSH 40\t\t\tn collectionID with bool\\r\\n\\r...\n              MLOAD \t\t\tn collectionID with bool\\r\\n\\r...\n              PUSH [tag] 25\t\t\tn collectionID with bool\\r\\n\\r...\n              SWAP2 \t\t\tn collectionID with bool\\r\\n\\r...\n              SWAP1 \t\t\tn collectionID with bool\\r\\n\\r...\n              PUSH [tag] 26\t\t\tn collectionID with bool\\r\\n\\r...\n              JUMP \t\t\tn collectionID with bool\\r\\n\\r...\n            tag 25\t\t\tn collectionID with bool\\r\\n\\r...\n              JUMPDEST \t\t\tn collectionID with bool\\r\\n\\r...\n              PUSH 40\t\t\tn collectionID with bool\\r\\n\\r...\n              MLOAD \t\t\tn collectionID with bool\\r\\n\\r...\n              DUP1 \t\t\tn collectionID with bool\\r\\n\\r...\n              SWAP2 \t\t\tn collectionID with bool\\r\\n\\r...\n              SUB \t\t\tn collectionID with bool\\r\\n\\r...\n              SWAP1 \t\t\tn collectionID with bool\\r\\n\\r...\n              RETURN \t\t\tn collectionID with bool\\r\\n\\r...\n            tag 4\t\t\t_tokenID].isInitialized, \"Tree...\n              JUMPDEST \t\t\t_tokenID].isInitialized, \"Tree...\n              PUSH [tag] 27\t\t\t_tokenID].isInitialized, \"Tree...\n              PUSH [tag] 28\t\t\t_tokenID].isInitialized, \"Tree...\n              JUMP \t\t\t_tokenID].isInitialized, \"Tree...\n            tag 27\t\t\t_tokenID].isInitialized, \"Tree...\n              JUMPDEST \t\t\t_tokenID].isInitialized, \"Tree...\n              PUSH 40\t\t\t_tokenID].isInitialized, \"Tree...\n              MLOAD \t\t\t_tokenID].isInitialized, \"Tree...\n              PUSH [tag] 29\t\t\t_tokenID].isInitialized, \"Tree...\n              SWAP2 \t\t\t_tokenID].isInitialized, \"Tree...\n              SWAP1 \t\t\t_tokenID].isInitialized, \"Tree...\n              PUSH [tag] 30\t\t\t_tokenID].isInitialized, \"Tree...\n              JUMP \t\t\t_tokenID].isInitialized, \"Tree...\n            tag 29\t\t\t_tokenID].isInitialized, \"Tree...\n              JUMPDEST \t\t\t_tokenID].isInitialized, \"Tree...\n              PUSH 40\t\t\t_tokenID].isInitialized, \"Tree...\n              MLOAD \t\t\t_tokenID].isInitialized, \"Tree...\n              DUP1 \t\t\t_tokenID].isInitialized, \"Tree...\n              SWAP2 \t\t\t_tokenID].isInitialized, \"Tree...\n              SUB \t\t\t_tokenID].isInitialized, \"Tree...\n              SWAP1 \t\t\t_tokenID].isInitialized, \"Tree...\n              RETURN \t\t\t_tokenID].isInitialized, \"Tree...\n            tag 5\t\t\t.tokensYielded += 5;\\r\\n      ...\n              JUMPDEST \t\t\t.tokensYielded += 5;\\r\\n      ...\n              PUSH [tag] 31\t\t\t.tokensYielded += 5;\\r\\n      ...\n              PUSH 4\t\t\t.tokensYielded += 5;\\r\\n      ...\n              DUP1 \t\t\t.tokensYielded += 5;\\r\\n      ...\n              CALLDATASIZE \t\t\t.tokensYielded += 5;\\r\\n      ...\n              SUB \t\t\t.tokensYielded += 5;\\r\\n      ...\n              DUP2 \t\t\t.tokensYielded += 5;\\r\\n      ...\n              ADD \t\t\t.tokensYielded += 5;\\r\\n      ...\n              SWAP1 \t\t\t.tokensYielded += 5;\\r\\n      ...\n              PUSH [tag] 32\t\t\t.tokensYielded += 5;\\r\\n      ...\n              SWAP2 \t\t\t.tokensYielded += 5;\\r\\n      ...\n              SWAP1 \t\t\t.tokensYielded += 5;\\r\\n      ...\n              PUSH [tag] 33\t\t\t.tokensYielded += 5;\\r\\n      ...\n              JUMP \t\t\t.tokensYielded += 5;\\r\\n      ...\n            tag 32\t\t\t.tokensYielded += 5;\\r\\n      ...\n              JUMPDEST \t\t\t.tokensYielded += 5;\\r\\n      ...\n              PUSH [tag] 34\t\t\t.tokensYielded += 5;\\r\\n      ...\n              JUMP \t\t\t.tokensYielded += 5;\\r\\n      ...\n            tag 31\t\t\t.tokensYielded += 5;\\r\\n      ...\n              JUMPDEST \t\t\t.tokensYielded += 5;\\r\\n      ...\n              PUSH 40\t\t\t.tokensYielded += 5;\\r\\n      ...\n              MLOAD \t\t\t.tokensYielded += 5;\\r\\n      ...\n              PUSH [tag] 35\t\t\t.tokensYielded += 5;\\r\\n      ...\n              SWAP2 \t\t\t.tokensYielded += 5;\\r\\n      ...\n              SWAP1 \t\t\t.tokensYielded += 5;\\r\\n      ...\n              PUSH [tag] 36\t\t\t.tokensYielded += 5;\\r\\n      ...\n              JUMP \t\t\t.tokensYielded += 5;\\r\\n      ...\n            tag 35\t\t\t.tokensYielded += 5;\\r\\n      ...\n              JUMPDEST \t\t\t.tokensYielded += 5;\\r\\n      ...\n              PUSH 40\t\t\t.tokensYielded += 5;\\r\\n      ...\n              MLOAD \t\t\t.tokensYielded += 5;\\r\\n      ...\n              DUP1 \t\t\t.tokensYielded += 5;\\r\\n      ...\n              SWAP2 \t\t\t.tokensYielded += 5;\\r\\n      ...\n              SUB \t\t\t.tokensYielded += 5;\\r\\n      ...\n              SWAP1 \t\t\t.tokensYielded += 5;\\r\\n      ...\n              RETURN \t\t\t.tokensYielded += 5;\\r\\n      ...\n            tag 6\t\t\te owner\");\\r\\n\\r\\n        requ...\n              JUMPDEST \t\t\te owner\");\\r\\n\\r\\n        requ...\n              PUSH [tag] 37\t\t\te owner\");\\r\\n\\r\\n        requ...\n              PUSH 4\t\t\te owner\");\\r\\n\\r\\n        requ...\n              DUP1 \t\t\te owner\");\\r\\n\\r\\n        requ...\n              CALLDATASIZE \t\t\te owner\");\\r\\n\\r\\n        requ...\n              SUB \t\t\te owner\");\\r\\n\\r\\n        requ...\n              DUP2 \t\t\te owner\");\\r\\n\\r\\n        requ...\n              ADD \t\t\te owner\");\\r\\n\\r\\n        requ...\n              SWAP1 \t\t\te owner\");\\r\\n\\r\\n        requ...\n              PUSH [tag] 38\t\t\te owner\");\\r\\n\\r\\n        requ...\n              SWAP2 \t\t\te owner\");\\r\\n\\r\\n        requ...\n              SWAP1 \t\t\te owner\");\\r\\n\\r\\n        requ...\n              PUSH [tag] 39\t\t\te owner\");\\r\\n\\r\\n        requ...\n              JUMP \t\t\te owner\");\\r\\n\\r\\n        requ...\n            tag 38\t\t\te owner\");\\r\\n\\r\\n        requ...\n              JUMPDEST \t\t\te owner\");\\r\\n\\r\\n        requ...\n              PUSH [tag] 40\t\t\te owner\");\\r\\n\\r\\n        requ...\n              JUMP \t\t\te owner\");\\r\\n\\r\\n        requ...\n            tag 37\t\t\te owner\");\\r\\n\\r\\n        requ...\n              JUMPDEST \t\t\te owner\");\\r\\n\\r\\n        requ...\n              STOP \t\t\te owner\");\\r\\n\\r\\n        requ...\n            tag 7\t\t\t\n              JUMPDEST \t\t\t\n              PUSH [tag] 41\t\t\t\n              PUSH 4\t\t\t\n              DUP1 \t\t\t\n              CALLDATASIZE \t\t\t\n              SUB \t\t\t\n              DUP2 \t\t\t\n              ADD \t\t\t\n              SWAP1 \t\t\t\n              PUSH [tag] 42\t\t\t\n              SWAP2 \t\t\t\n              SWAP1 \t\t\t\n              PUSH [tag] 43\t\t\t\n              JUMP \t\t\t\n            tag 42\t\t\t\n              JUMPDEST \t\t\t\n              PUSH [tag] 44\t\t\t\n              JUMP \t\t\t\n            tag 41\t\t\t\n              JUMPDEST \t\t\t\n              STOP \t\t\t\n            tag 8\t\t\t\n              JUMPDEST \t\t\t\n              PUSH [tag] 45\t\t\t\n              PUSH 4\t\t\t\n              DUP1 \t\t\t\n              CALLDATASIZE \t\t\t\n              SUB \t\t\t\n              DUP2 \t\t\t\n              ADD \t\t\t\n              SWAP1 \t\t\t\n              PUSH [tag] 46\t\t\t\n              SWAP2 \t\t\t\n              SWAP1 \t\t\t\n              PUSH [tag] 43\t\t\t\n              JUMP \t\t\t\n            tag 46\t\t\t\n              JUMPDEST \t\t\t\n              PUSH [tag] 47\t\t\t\n              JUMP \t\t\t\n            tag 45\t\t\t\n              JUMPDEST \t\t\t\n              STOP \t\t\t\n            tag 9\t\t\t = TreeDetails(0, 0, 0, 0, tru...\n              JUMPDEST \t\t\t = TreeDetails(0, 0, 0, 0, tru...\n              PUSH [tag] 48\t\t\t = TreeDetails(0, 0, 0, 0, tru...\n              PUSH 4\t\t\t = TreeDetails(0, 0, 0, 0, tru...\n              DUP1 \t\t\t = TreeDetails(0, 0, 0, 0, tru...\n              CALLDATASIZE \t\t\t = TreeDetails(0, 0, 0, 0, tru...\n              SUB \t\t\t = TreeDetails(0, 0, 0, 0, tru...\n              DUP2 \t\t\t = TreeDetails(0, 0, 0, 0, tru...\n              ADD \t\t\t = TreeDetails(0, 0, 0, 0, tru...\n              SWAP1 \t\t\t = TreeDetails(0, 0, 0, 0, tru...\n              PUSH [tag] 49\t\t\t = TreeDetails(0, 0, 0, 0, tru...\n              SWAP2 \t\t\t = TreeDetails(0, 0, 0, 0, tru...\n              SWAP1 \t\t\t = TreeDetails(0, 0, 0, 0, tru...\n              PUSH [tag] 33\t\t\t = TreeDetails(0, 0, 0, 0, tru...\n              JUMP \t\t\t = TreeDetails(0, 0, 0, 0, tru...\n            tag 49\t\t\t = TreeDetails(0, 0, 0, 0, tru...\n              JUMPDEST \t\t\t = TreeDetails(0, 0, 0, 0, tru...\n              PUSH [tag] 50\t\t\t = TreeDetails(0, 0, 0, 0, tru...\n              JUMP \t\t\t = TreeDetails(0, 0, 0, 0, tru...\n            tag 48\t\t\t = TreeDetails(0, 0, 0, 0, tru...\n              JUMPDEST \t\t\t = TreeDetails(0, 0, 0, 0, tru...\n              PUSH 40\t\t\t = TreeDetails(0, 0, 0, 0, tru...\n              MLOAD \t\t\t = TreeDetails(0, 0, 0, 0, tru...\n              PUSH [tag] 51\t\t\t = TreeDetails(0, 0, 0, 0, tru...\n              SWAP2 \t\t\t = TreeDetails(0, 0, 0, 0, tru...\n              SWAP1 \t\t\t = TreeDetails(0, 0, 0, 0, tru...\n              PUSH [tag] 36\t\t\t = TreeDetails(0, 0, 0, 0, tru...\n              JUMP \t\t\t = TreeDetails(0, 0, 0, 0, tru...\n            tag 51\t\t\t = TreeDetails(0, 0, 0, 0, tru...\n              JUMPDEST \t\t\t = TreeDetails(0, 0, 0, 0, tru...\n              PUSH 40\t\t\t = TreeDetails(0, 0, 0, 0, tru...\n              MLOAD \t\t\t = TreeDetails(0, 0, 0, 0, tru...\n              DUP1 \t\t\t = TreeDetails(0, 0, 0, 0, tru...\n              SWAP2 \t\t\t = TreeDetails(0, 0, 0, 0, tru...\n              SUB \t\t\t = TreeDetails(0, 0, 0, 0, tru...\n              SWAP1 \t\t\t = TreeDetails(0, 0, 0, 0, tru...\n              RETURN \t\t\t = TreeDetails(0, 0, 0, 0, tru...\n            tag 10\t\t\td\"); \\r\\n\\r\\n        TreeColle...\n              JUMPDEST \t\t\td\"); \\r\\n\\r\\n        TreeColle...\n              PUSH [tag] 52\t\t\td\"); \\r\\n\\r\\n        TreeColle...\n              PUSH 4\t\t\td\"); \\r\\n\\r\\n        TreeColle...\n              DUP1 \t\t\td\"); \\r\\n\\r\\n        TreeColle...\n              CALLDATASIZE \t\t\td\"); \\r\\n\\r\\n        TreeColle...\n              SUB \t\t\td\"); \\r\\n\\r\\n        TreeColle...\n              DUP2 \t\t\td\"); \\r\\n\\r\\n        TreeColle...\n              ADD \t\t\td\"); \\r\\n\\r\\n        TreeColle...\n              SWAP1 \t\t\td\"); \\r\\n\\r\\n        TreeColle...\n              PUSH [tag] 53\t\t\td\"); \\r\\n\\r\\n        TreeColle...\n              SWAP2 \t\t\td\"); \\r\\n\\r\\n        TreeColle...\n              SWAP1 \t\t\td\"); \\r\\n\\r\\n        TreeColle...\n              PUSH [tag] 54\t\t\td\"); \\r\\n\\r\\n        TreeColle...\n              JUMP \t\t\td\"); \\r\\n\\r\\n        TreeColle...\n            tag 53\t\t\td\"); \\r\\n\\r\\n        TreeColle...\n              JUMPDEST \t\t\td\"); \\r\\n\\r\\n        TreeColle...\n              PUSH [tag] 55\t\t\td\"); \\r\\n\\r\\n        TreeColle...\n              JUMP \t\t\td\"); \\r\\n\\r\\n        TreeColle...\n            tag 52\t\t\td\"); \\r\\n\\r\\n        TreeColle...\n              JUMPDEST \t\t\td\"); \\r\\n\\r\\n        TreeColle...\n              PUSH 40\t\t\td\"); \\r\\n\\r\\n        TreeColle...\n              MLOAD \t\t\td\"); \\r\\n\\r\\n        TreeColle...\n              PUSH [tag] 56\t\t\td\"); \\r\\n\\r\\n        TreeColle...\n              SWAP2 \t\t\td\"); \\r\\n\\r\\n        TreeColle...\n              SWAP1 \t\t\td\"); \\r\\n\\r\\n        TreeColle...\n              PUSH [tag] 57\t\t\td\"); \\r\\n\\r\\n        TreeColle...\n              JUMP \t\t\td\"); \\r\\n\\r\\n        TreeColle...\n            tag 56\t\t\td\"); \\r\\n\\r\\n        TreeColle...\n              JUMPDEST \t\t\td\"); \\r\\n\\r\\n        TreeColle...\n              PUSH 40\t\t\td\"); \\r\\n\\r\\n        TreeColle...\n              MLOAD \t\t\td\"); \\r\\n\\r\\n        TreeColle...\n              DUP1 \t\t\td\"); \\r\\n\\r\\n        TreeColle...\n              SWAP2 \t\t\td\"); \\r\\n\\r\\n        TreeColle...\n              SUB \t\t\td\"); \\r\\n\\r\\n        TreeColle...\n              SWAP1 \t\t\td\"); \\r\\n\\r\\n        TreeColle...\n              RETURN \t\t\td\"); \\r\\n\\r\\n        TreeColle...\n            tag 11\t\t\tecollection.ownerOf(_tokenID) ...\n              JUMPDEST \t\t\tecollection.ownerOf(_tokenID) ...\n              PUSH [tag] 58\t\t\tecollection.ownerOf(_tokenID) ...\n              PUSH [tag] 59\t\t\tecollection.ownerOf(_tokenID) ...\n              JUMP \t\t\tecollection.ownerOf(_tokenID) ...\n            tag 58\t\t\tecollection.ownerOf(_tokenID) ...\n              JUMPDEST \t\t\tecollection.ownerOf(_tokenID) ...\n              PUSH 40\t\t\tecollection.ownerOf(_tokenID) ...\n              MLOAD \t\t\tecollection.ownerOf(_tokenID) ...\n              PUSH [tag] 60\t\t\tecollection.ownerOf(_tokenID) ...\n              SWAP2 \t\t\tecollection.ownerOf(_tokenID) ...\n              SWAP1 \t\t\tecollection.ownerOf(_tokenID) ...\n              PUSH [tag] 30\t\t\tecollection.ownerOf(_tokenID) ...\n              JUMP \t\t\tecollection.ownerOf(_tokenID) ...\n            tag 60\t\t\tecollection.ownerOf(_tokenID) ...\n              JUMPDEST \t\t\tecollection.ownerOf(_tokenID) ...\n              PUSH 40\t\t\tecollection.ownerOf(_tokenID) ...\n              MLOAD \t\t\tecollection.ownerOf(_tokenID) ...\n              DUP1 \t\t\tecollection.ownerOf(_tokenID) ...\n              SWAP2 \t\t\tecollection.ownerOf(_tokenID) ...\n              SUB \t\t\tecollection.ownerOf(_tokenID) ...\n              SWAP1 \t\t\tecollection.ownerOf(_tokenID) ...\n              RETURN \t\t\tecollection.ownerOf(_tokenID) ...\n            tag 12\t\t\tnder;\\r\\n        STNEAR = ERC2...\n              JUMPDEST \t\t\tnder;\\r\\n        STNEAR = ERC2...\n              PUSH [tag] 61\t\t\tnder;\\r\\n        STNEAR = ERC2...\n              PUSH [tag] 62\t\t\tnder;\\r\\n        STNEAR = ERC2...\n              JUMP \t\t\tnder;\\r\\n        STNEAR = ERC2...\n            tag 61\t\t\tnder;\\r\\n        STNEAR = ERC2...\n              JUMPDEST \t\t\tnder;\\r\\n        STNEAR = ERC2...\n              PUSH 40\t\t\tnder;\\r\\n        STNEAR = ERC2...\n              MLOAD \t\t\tnder;\\r\\n        STNEAR = ERC2...\n              PUSH [tag] 63\t\t\tnder;\\r\\n        STNEAR = ERC2...\n              SWAP2 \t\t\tnder;\\r\\n        STNEAR = ERC2...\n              SWAP1 \t\t\tnder;\\r\\n        STNEAR = ERC2...\n              PUSH [tag] 57\t\t\tnder;\\r\\n        STNEAR = ERC2...\n              JUMP \t\t\tnder;\\r\\n        STNEAR = ERC2...\n            tag 63\t\t\tnder;\\r\\n        STNEAR = ERC2...\n              JUMPDEST \t\t\tnder;\\r\\n        STNEAR = ERC2...\n              PUSH 40\t\t\tnder;\\r\\n        STNEAR = ERC2...\n              MLOAD \t\t\tnder;\\r\\n        STNEAR = ERC2...\n              DUP1 \t\t\tnder;\\r\\n        STNEAR = ERC2...\n              SWAP2 \t\t\tnder;\\r\\n        STNEAR = ERC2...\n              SUB \t\t\tnder;\\r\\n        STNEAR = ERC2...\n              SWAP1 \t\t\tnder;\\r\\n        STNEAR = ERC2...\n              RETURN \t\t\tnder;\\r\\n        STNEAR = ERC2...\n            tag 13\t\t\tnId].treeDetails[tokenId];\\r\\n...\n              JUMPDEST \t\t\tnId].treeDetails[tokenId];\\r\\n...\n              PUSH [tag] 64\t\t\tnId].treeDetails[tokenId];\\r\\n...\n              PUSH 4\t\t\tnId].treeDetails[tokenId];\\r\\n...\n              DUP1 \t\t\tnId].treeDetails[tokenId];\\r\\n...\n              CALLDATASIZE \t\t\tnId].treeDetails[tokenId];\\r\\n...\n              SUB \t\t\tnId].treeDetails[tokenId];\\r\\n...\n              DUP2 \t\t\tnId].treeDetails[tokenId];\\r\\n...\n              ADD \t\t\tnId].treeDetails[tokenId];\\r\\n...\n              SWAP1 \t\t\tnId].treeDetails[tokenId];\\r\\n...\n              PUSH [tag] 65\t\t\tnId].treeDetails[tokenId];\\r\\n...\n              SWAP2 \t\t\tnId].treeDetails[tokenId];\\r\\n...\n              SWAP1 \t\t\tnId].treeDetails[tokenId];\\r\\n...\n              PUSH [tag] 66\t\t\tnId].treeDetails[tokenId];\\r\\n...\n              JUMP \t\t\tnId].treeDetails[tokenId];\\r\\n...\n            tag 65\t\t\tnId].treeDetails[tokenId];\\r\\n...\n              JUMPDEST \t\t\tnId].treeDetails[tokenId];\\r\\n...\n              PUSH [tag] 67\t\t\tnId].treeDetails[tokenId];\\r\\n...\n              JUMP \t\t\tnId].treeDetails[tokenId];\\r\\n...\n            tag 64\t\t\tnId].treeDetails[tokenId];\\r\\n...\n              JUMPDEST \t\t\tnId].treeDetails[tokenId];\\r\\n...\n              STOP \t\t\tnId].treeDetails[tokenId];\\r\\n...\n            tag 14\t\t\t\n              JUMPDEST \t\t\t\n              PUSH [tag] 68\t\t\t\n              PUSH 4\t\t\t\n              DUP1 \t\t\t\n              CALLDATASIZE \t\t\t\n              SUB \t\t\t\n              DUP2 \t\t\t\n              ADD \t\t\t\n              SWAP1 \t\t\t\n              PUSH [tag] 69\t\t\t\n              SWAP2 \t\t\t\n              SWAP1 \t\t\t\n              PUSH [tag] 70\t\t\t\n              JUMP \t\t\t\n            tag 69\t\t\t\n              JUMPDEST \t\t\t\n              PUSH [tag] 71\t\t\t\n              JUMP \t\t\t\n            tag 68\t\t\t\n              JUMPDEST \t\t\t\n              STOP \t\t\t\n            tag 15\t\t\t    mapping(uint256 => UserTre...\n              JUMPDEST \t\t\t    mapping(uint256 => UserTre...\n              PUSH [tag] 72\t\t\t    mapping(uint256 => UserTre...\n              PUSH 4\t\t\t    mapping(uint256 => UserTre...\n              DUP1 \t\t\t    mapping(uint256 => UserTre...\n              CALLDATASIZE \t\t\t    mapping(uint256 => UserTre...\n              SUB \t\t\t    mapping(uint256 => UserTre...\n              DUP2 \t\t\t    mapping(uint256 => UserTre...\n              ADD \t\t\t    mapping(uint256 => UserTre...\n              SWAP1 \t\t\t    mapping(uint256 => UserTre...\n              PUSH [tag] 73\t\t\t    mapping(uint256 => UserTre...\n              SWAP2 \t\t\t    mapping(uint256 => UserTre...\n              SWAP1 \t\t\t    mapping(uint256 => UserTre...\n              PUSH [tag] 33\t\t\t    mapping(uint256 => UserTre...\n              JUMP \t\t\t    mapping(uint256 => UserTre...\n            tag 73\t\t\t    mapping(uint256 => UserTre...\n              JUMPDEST \t\t\t    mapping(uint256 => UserTre...\n              PUSH [tag] 74\t\t\t    mapping(uint256 => UserTre...\n              JUMP \t\t\t    mapping(uint256 => UserTre...\n            tag 72\t\t\t    mapping(uint256 => UserTre...\n              JUMPDEST \t\t\t    mapping(uint256 => UserTre...\n              PUSH 40\t\t\t    mapping(uint256 => UserTre...\n              MLOAD \t\t\t    mapping(uint256 => UserTre...\n              PUSH [tag] 75\t\t\t    mapping(uint256 => UserTre...\n              SWAP2 \t\t\t    mapping(uint256 => UserTre...\n              SWAP1 \t\t\t    mapping(uint256 => UserTre...\n              PUSH [tag] 30\t\t\t    mapping(uint256 => UserTre...\n              JUMP \t\t\t    mapping(uint256 => UserTre...\n            tag 75\t\t\t    mapping(uint256 => UserTre...\n              JUMPDEST \t\t\t    mapping(uint256 => UserTre...\n              PUSH 40\t\t\t    mapping(uint256 => UserTre...\n              MLOAD \t\t\t    mapping(uint256 => UserTre...\n              DUP1 \t\t\t    mapping(uint256 => UserTre...\n              SWAP2 \t\t\t    mapping(uint256 => UserTre...\n              SUB \t\t\t    mapping(uint256 => UserTre...\n              SWAP1 \t\t\t    mapping(uint256 => UserTre...\n              RETURN \t\t\t    mapping(uint256 => UserTre...\n            tag 16\t\t\t\\r\\n    }\\r\\n\\r\\n    struct Tr...\n              JUMPDEST \t\t\t\\r\\n    }\\r\\n\\r\\n    struct Tr...\n              PUSH [tag] 76\t\t\t\\r\\n    }\\r\\n\\r\\n    struct Tr...\n              PUSH 4\t\t\t\\r\\n    }\\r\\n\\r\\n    struct Tr...\n              DUP1 \t\t\t\\r\\n    }\\r\\n\\r\\n    struct Tr...\n              CALLDATASIZE \t\t\t\\r\\n    }\\r\\n\\r\\n    struct Tr...\n              SUB \t\t\t\\r\\n    }\\r\\n\\r\\n    struct Tr...\n              DUP2 \t\t\t\\r\\n    }\\r\\n\\r\\n    struct Tr...\n              ADD \t\t\t\\r\\n    }\\r\\n\\r\\n    struct Tr...\n              SWAP1 \t\t\t\\r\\n    }\\r\\n\\r\\n    struct Tr...\n              PUSH [tag] 77\t\t\t\\r\\n    }\\r\\n\\r\\n    struct Tr...\n              SWAP2 \t\t\t\\r\\n    }\\r\\n\\r\\n    struct Tr...\n              SWAP1 \t\t\t\\r\\n    }\\r\\n\\r\\n    struct Tr...\n              PUSH [tag] 78\t\t\t\\r\\n    }\\r\\n\\r\\n    struct Tr...\n              JUMP \t\t\t\\r\\n    }\\r\\n\\r\\n    struct Tr...\n            tag 77\t\t\t\\r\\n    }\\r\\n\\r\\n    struct Tr...\n              JUMPDEST \t\t\t\\r\\n    }\\r\\n\\r\\n    struct Tr...\n              PUSH [tag] 79\t\t\t\\r\\n    }\\r\\n\\r\\n    struct Tr...\n              JUMP \t\t\t\\r\\n    }\\r\\n\\r\\n    struct Tr...\n            tag 76\t\t\t\\r\\n    }\\r\\n\\r\\n    struct Tr...\n              JUMPDEST \t\t\t\\r\\n    }\\r\\n\\r\\n    struct Tr...\n              STOP \t\t\t\\r\\n    }\\r\\n\\r\\n    struct Tr...\n            tag 17\t\t\tonID].tokenIdCounter());\\r\\n  ...\n              JUMPDEST \t\t\tonID].tokenIdCounter());\\r\\n  ...\n              PUSH [tag] 80\t\t\tonID].tokenIdCounter());\\r\\n  ...\n              PUSH 4\t\t\tonID].tokenIdCounter());\\r\\n  ...\n              DUP1 \t\t\tonID].tokenIdCounter());\\r\\n  ...\n              CALLDATASIZE \t\t\tonID].tokenIdCounter());\\r\\n  ...\n              SUB \t\t\tonID].tokenIdCounter());\\r\\n  ...\n              DUP2 \t\t\tonID].tokenIdCounter());\\r\\n  ...\n              ADD \t\t\tonID].tokenIdCounter());\\r\\n  ...\n              SWAP1 \t\t\tonID].tokenIdCounter());\\r\\n  ...\n              PUSH [tag] 81\t\t\tonID].tokenIdCounter());\\r\\n  ...\n              SWAP2 \t\t\tonID].tokenIdCounter());\\r\\n  ...\n              SWAP1 \t\t\tonID].tokenIdCounter());\\r\\n  ...\n              PUSH [tag] 82\t\t\tonID].tokenIdCounter());\\r\\n  ...\n              JUMP \t\t\tonID].tokenIdCounter());\\r\\n  ...\n            tag 81\t\t\tonID].tokenIdCounter());\\r\\n  ...\n              JUMPDEST \t\t\tonID].tokenIdCounter());\\r\\n  ...\n              PUSH [tag] 83\t\t\tonID].tokenIdCounter());\\r\\n  ...\n              JUMP \t\t\tonID].tokenIdCounter());\\r\\n  ...\n            tag 80\t\t\tonID].tokenIdCounter());\\r\\n  ...\n              JUMPDEST \t\t\tonID].tokenIdCounter());\\r\\n  ...\n              PUSH 40\t\t\tonID].tokenIdCounter());\\r\\n  ...\n              MLOAD \t\t\tonID].tokenIdCounter());\\r\\n  ...\n              PUSH [tag] 84\t\t\tonID].tokenIdCounter());\\r\\n  ...\n              SWAP2 \t\t\tonID].tokenIdCounter());\\r\\n  ...\n              SWAP1 \t\t\tonID].tokenIdCounter());\\r\\n  ...\n              PUSH [tag] 26\t\t\tonID].tokenIdCounter());\\r\\n  ...\n              JUMP \t\t\tonID].tokenIdCounter());\\r\\n  ...\n            tag 84\t\t\tonID].tokenIdCounter());\\r\\n  ...\n              JUMPDEST \t\t\tonID].tokenIdCounter());\\r\\n  ...\n              PUSH 40\t\t\tonID].tokenIdCounter());\\r\\n  ...\n              MLOAD \t\t\tonID].tokenIdCounter());\\r\\n  ...\n              DUP1 \t\t\tonID].tokenIdCounter());\\r\\n  ...\n              SWAP2 \t\t\tonID].tokenIdCounter());\\r\\n  ...\n              SUB \t\t\tonID].tokenIdCounter());\\r\\n  ...\n              SWAP1 \t\t\tonID].tokenIdCounter());\\r\\n  ...\n              RETURN \t\t\tonID].tokenIdCounter());\\r\\n  ...\n            tag 24\t\t\tn collectionID with bool\\r\\n\\r...\n              JUMPDEST \t\t\tn collectionID with bool\\r\\n\\r...\n              PUSH 0\t\t\t= ad\n              PUSH [tag] 86\t\t\t      TreeCollectionCounter.in...\n              DUP3 \t\t\tter.increme\n              PUSH [tag] 87\t\t\t      TreeCollectionCou\n              JUMP \t\t\t      TreeCollectionCounter.in...\n            tag 86\t\t\t      TreeCollectionCounter.in...\n              JUMPDEST \t\t\t      TreeCollectionCounter.in...\n              SWAP1 \t\t\t;\\r\\n\\r\\n        TreeCollectio...\n              POP \t\t\t;\\r\\n\\r\\n        TreeCollectio...\n              SWAP2 \t\t\tn collectionID with bool\\r\\n\\r...\n              SWAP1 \t\t\tn collectionID with bool\\r\\n\\r...\n              POP \t\t\tn collectionID with bool\\r\\n\\r...\n              JUMP \t\t\tn collectionID with bool\\r\\n\\r...\n            tag 28\t\t\t_tokenID].isInitialized, \"Tree...\n              JUMPDEST \t\t\t_tokenID].isInitialized, \"Tree...\n              PUSH 60\t\t\t      TreeCol\n              PUSH 0\t\t\tion =\n              DUP1 \t\t\tcollection =\n              SLOAD \t\t\tcollection =\n              PUSH [tag] 89\t\t\tcollection =\n              SWAP1 \t\t\tcollection =\n              PUSH [tag] 90\t\t\tcollection =\n              JUMP \t\t\tcollection =\n            tag 89\t\t\tcollection =\n              JUMPDEST \t\t\tcollection =\n              DUP1 \t\t\tcollection =\n              PUSH 1F\t\t\tcollection =\n              ADD \t\t\tcollection =\n              PUSH 20\t\t\tcollection =\n              DUP1 \t\t\tcollection =\n              SWAP2 \t\t\tcollection =\n              DIV \t\t\tcollection =\n              MUL \t\t\tcollection =\n              PUSH 20\t\t\tcollection =\n              ADD \t\t\tcollection =\n              PUSH 40\t\t\tcollection =\n              MLOAD \t\t\tcollection =\n              SWAP1 \t\t\tcollection =\n              DUP2 \t\t\tcollection =\n              ADD \t\t\tcollection =\n              PUSH 40\t\t\tcollection =\n              MSTORE \t\t\tcollection =\n              DUP1 \t\t\tcollection =\n              SWAP3 \t\t\tcollection =\n              SWAP2 \t\t\tcollection =\n              SWAP1 \t\t\tcollection =\n              DUP2 \t\t\tcollection =\n              DUP2 \t\t\tcollection =\n              MSTORE \t\t\tcollection =\n              PUSH 20\t\t\tcollection =\n              ADD \t\t\tcollection =\n              DUP3 \t\t\tcollection =\n              DUP1 \t\t\tcollection =\n              SLOAD \t\t\tcollection =\n              PUSH [tag] 91\t\t\tcollection =\n              SWAP1 \t\t\tcollection =\n              PUSH [tag] 90\t\t\tcollection =\n              JUMP \t\t\tcollection =\n            tag 91\t\t\tcollection =\n              JUMPDEST \t\t\tcollection =\n              DUP1 \t\t\tcollection =\n              ISZERO \t\t\tcollection =\n              PUSH [tag] 92\t\t\tcollection =\n              JUMPI \t\t\tcollection =\n              DUP1 \t\t\tcollection =\n              PUSH 1F\t\t\tcollection =\n              LT \t\t\tcollection =\n              PUSH [tag] 93\t\t\tcollection =\n              JUMPI \t\t\tcollection =\n              PUSH 100\t\t\tcollection =\n              DUP1 \t\t\tcollection =\n              DUP4 \t\t\tcollection =\n              SLOAD \t\t\tcollection =\n              DIV \t\t\tcollection =\n              MUL \t\t\tcollection =\n              DUP4 \t\t\tcollection =\n              MSTORE \t\t\tcollection =\n              SWAP2 \t\t\tcollection =\n              PUSH 20\t\t\tcollection =\n              ADD \t\t\tcollection =\n              SWAP2 \t\t\tcollection =\n              PUSH [tag] 92\t\t\tcollection =\n              JUMP \t\t\tcollection =\n            tag 93\t\t\tcollection =\n              JUMPDEST \t\t\tcollection =\n              DUP3 \t\t\tcollection =\n              ADD \t\t\tcollection =\n              SWAP2 \t\t\tcollection =\n              SWAP1 \t\t\tcollection =\n              PUSH 0\t\t\tcollection =\n              MSTORE \t\t\tcollection =\n              PUSH 20\t\t\tcollection =\n              PUSH 0\t\t\tcollection =\n              KECCAK256 \t\t\tcollection =\n              SWAP1 \t\t\tcollection =\n            tag 94\t\t\tcollection =\n              JUMPDEST \t\t\tcollection =\n              DUP2 \t\t\tcollection =\n              SLOAD \t\t\tcollection =\n              DUP2 \t\t\tcollection =\n              MSTORE \t\t\tcollection =\n              SWAP1 \t\t\tcollection =\n              PUSH 1\t\t\tcollection =\n              ADD \t\t\tcollection =\n              SWAP1 \t\t\tcollection =\n              PUSH 20\t\t\tcollection =\n              ADD \t\t\tcollection =\n              DUP1 \t\t\tcollection =\n              DUP4 \t\t\tcollection =\n              GT \t\t\tcollection =\n              PUSH [tag] 94\t\t\tcollection =\n              JUMPI \t\t\tcollection =\n              DUP3 \t\t\tcollection =\n              SWAP1 \t\t\tcollection =\n              SUB \t\t\tcollection =\n              PUSH 1F\t\t\tcollection =\n              AND \t\t\tcollection =\n              DUP3 \t\t\tcollection =\n              ADD \t\t\tcollection =\n              SWAP2 \t\t\tcollection =\n            tag 92\t\t\tcollection =\n              JUMPDEST \t\t\tcollection =\n              POP \t\t\tcollection =\n              POP \t\t\tcollection =\n              POP \t\t\tcollection =\n              POP \t\t\tcollection =\n              POP \t\t\tcollection =\n              SWAP1 \t\t\tcollection =\n              POP \t\t\tcollection =\n              SWAP1 \t\t\t_tokenID].isInitialized, \"Tree...\n              JUMP \t\t\t_tokenID].isInitialized, \"Tree...\n            tag 34\t\t\t.tokensYielded += 5;\\r\\n      ...\n              JUMPDEST \t\t\t.tokensYielded += 5;\\r\\n      ...\n              PUSH 0\t\t\true;\\r\\n \n              PUSH [tag] 96\t\t\tfunction getTreeDetails\n              DUP3 \t\t\teDetail\n              PUSH [tag] 97\t\t\tfunction getTr\n              JUMP \t\t\tfunction getTreeDetails\n            tag 96\t\t\tfunction getTreeDetails\n              JUMPDEST \t\t\tfunction getTreeDetails\n              PUSH 4\t\t\tnId, uint256 to\n              PUSH 0\t\t\tnId, uint256 tokenId) pu\n              DUP4 \t\t\tenId) p\n              DUP2 \t\t\tnId, uint256 tokenId) pu\n              MSTORE \t\t\tnId, uint256 tokenId) pu\n              PUSH 20\t\t\tnId, uint256 tokenId) pu\n              ADD \t\t\tnId, uint256 tokenId) pu\n              SWAP1 \t\t\tnId, uint256 tokenId) pu\n              DUP2 \t\t\tnId, uint256 tokenId) pu\n              MSTORE \t\t\tnId, uint256 tokenId) pu\n              PUSH 20\t\t\tnId, uint256 tokenId) pu\n              ADD \t\t\tnId, uint256 tokenId) pu\n              PUSH 0\t\t\tnId, uint256 tokenId) pu\n              KECCAK256 \t\t\tnId, uint256 tokenId) pu\n              PUSH 0\t\t\tnId, uint256 tokenId) pu\n              SWAP1 \t\t\tnId, uint256 tokenId) pu\n              SLOAD \t\t\tnId, uint256 tokenId) pu\n              SWAP1 \t\t\tnId, uint256 tokenId) pu\n              PUSH 100\t\t\tnId, uint256 tokenId) pu\n              EXP \t\t\tnId, uint256 tokenId) pu\n              SWAP1 \t\t\tnId, uint256 tokenId) pu\n              DIV \t\t\tnId, uint256 tokenId) pu\n              PUSH FFFFFFFFFFFFFFFFFFFFFFFFFFFFFFFFFFFFFFFF\t\t\tnId, uint256 tokenId) pu\n              AND \t\t\tnId, uint256 tokenId) pu\n              SWAP1 \t\t\tllectionId, uint256 tokenId) p...\n              POP \t\t\tllectionId, uint256 tokenId) p...\n              SWAP2 \t\t\t.tokensYielded += 5;\\r\\n      ...\n              SWAP1 \t\t\t.tokensYielded += 5;\\r\\n      ...\n              POP \t\t\t.tokensYielded += 5;\\r\\n      ...\n              JUMP \t\t\t.tokensYielded += 5;\\r\\n      ...\n            tag 40\t\t\te owner\");\\r\\n\\r\\n        requ...\n              JUMPDEST \t\t\te owner\");\\r\\n\\r\\n        requ...\n              PUSH 0\t\t\tonID].treeDet\n              PUSH [tag] 99\t\t\ts[_tokenID].lastWatered\n              DUP3 \t\t\ttWatere\n              PUSH [tag] 50\t\t\ts[_tokenID].la\n              JUMP \t\t\ts[_tokenID].lastWatered\n            tag 99\t\t\ts[_tokenID].lastWatered\n              JUMPDEST \t\t\ts[_tokenID].lastWatered\n              SWAP1 \t\t\tonID].treeDetails[_tokenID].la...\n              POP \t\t\tonID].treeDetails[_tokenID].la...\n              DUP1 \t\t\t \"Wat\n              PUSH FFFFFFFFFFFFFFFFFFFFFFFFFFFFFFFFFFFFFFFF\t\t\t       \"Wat\n              AND \t\t\t       \"Wat\n              DUP4 \t\t\t  \n              PUSH FFFFFFFFFFFFFFFFFFFFFFFFFFFFFFFFFFFFFFFF\t\t\t       \"Wat\n              AND \t\t\t       \"Wat\n              SUB \t\t\t       \"Wat\n              PUSH [tag] 100\t\t\t \\r\\n            \"Water First\"...\n              JUMPI \t\t\t \\r\\n            \"Water First\"...\n              PUSH 40\t\t\t \\r\\n            \"Water First\"...\n              MLOAD \t\t\t \\r\\n            \"Water First\"...\n              PUSH 8C379A000000000000000000000000000000000000000000000000000000000\t\t\t \\r\\n            \"Water First\"...\n              DUP2 \t\t\t \\r\\n            \"Water First\"...\n              MSTORE \t\t\t \\r\\n            \"Water First\"...\n              PUSH 4\t\t\t \\r\\n            \"Water First\"...\n              ADD \t\t\t \\r\\n            \"Water First\"...\n              PUSH [tag] 101\t\t\t \\r\\n            \"Water First\"...\n              SWAP1 \t\t\t \\r\\n            \"Water First\"...\n              PUSH [tag] 102\t\t\t \\r\\n            \"Water First\"...\n              JUMP \t\t\t \\r\\n            \"Water First\"...\n            tag 101\t\t\t \\r\\n            \"Water First\"...\n              JUMPDEST \t\t\t \\r\\n            \"Water First\"...\n              PUSH 40\t\t\t \\r\\n            \"Water First\"...\n              MLOAD \t\t\t \\r\\n            \"Water First\"...\n              DUP1 \t\t\t \\r\\n            \"Water First\"...\n              SWAP2 \t\t\t \\r\\n            \"Water First\"...\n              SUB \t\t\t \\r\\n            \"Water First\"...\n              SWAP1 \t\t\t \\r\\n            \"Water First\"...\n              REVERT \t\t\t \\r\\n            \"Water First\"...\n            tag 100\t\t\t \\r\\n            \"Water First\"...\n              JUMPDEST \t\t\t \\r\\n            \"Water First\"...\n              DUP1 \t\t\tction\n              PUSH FFFFFFFFFFFFFFFFFFFFFFFFFFFFFFFFFFFFFFFF\t\t\t userTree[_collection\n              AND \t\t\t userTree[_collection\n              PUSH [tag] 103\t\t\t userTree[_c\n              PUSH [tag] 104\t\t\t userTree[\n              JUMP \t\t\t userTree[_c\n            tag 103\t\t\t userTree[_c\n              JUMPDEST \t\t\t userTree[_c\n              PUSH FFFFFFFFFFFFFFFFFFFFFFFFFFFFFFFFFFFFFFFF\t\t\t userTree[_collection\n              AND \t\t\t userTree[_collection\n              EQ \t\t\t userTree[_collection\n              DUP1 \t\t\t userTree[_collectionID].treeD...\n              PUSH [tag] 105\t\t\t userTree[_collectionID].treeD...\n              JUMPI \t\t\t userTree[_collectionID].treeD...\n              POP \t\t\t userTree[_collectionID].treeD...\n              PUSH [tag] 106\t\t\ttreeDetails[_tokenID].lastClai...\n              DUP2 \t\t\tnID].\n              PUSH [tag] 107\t\t\tstClaimed > \n              PUSH [tag] 104\t\t\tstClaimed \n              JUMP \t\t\tstClaimed > \n            tag 107\t\t\tstClaimed > \n              JUMPDEST \t\t\tstClaimed > \n              PUSH [tag] 83\t\t\ttreeDetails[_tok\n              JUMP \t\t\ttreeDetails[_tokenID].lastClai...\n            tag 106\t\t\ttreeDetails[_tokenID].lastClai...\n              JUMPDEST \t\t\ttreeDetails[_tokenID].lastClai...\n            tag 105\t\t\t userTree[_collectionID].treeD...\n              JUMPDEST \t\t\t userTree[_collectionID].treeD...\n              PUSH [tag] 108\t\t\t    block.timestamp - userTree...\n              JUMPI \t\t\t    block.timestamp - userTree...\n              PUSH 40\t\t\t    block.timestamp - userTree...\n              MLOAD \t\t\t    block.timestamp - userTree...\n              PUSH 8C379A000000000000000000000000000000000000000000000000000000000\t\t\t    block.timestamp - userTree...\n              DUP2 \t\t\t    block.timestamp - userTree...\n              MSTORE \t\t\t    block.timestamp - userTree...\n              PUSH 4\t\t\t    block.timestamp - userTree...\n              ADD \t\t\t    block.timestamp - userTree...\n              PUSH [tag] 109\t\t\t    block.timestamp - userTree...\n              SWAP1 \t\t\t    block.timestamp - userTree...\n              PUSH [tag] 110\t\t\t    block.timestamp - userTree...\n              JUMP \t\t\t    block.timestamp - userTree...\n            tag 109\t\t\t    block.timestamp - userTree...\n              JUMPDEST \t\t\t    block.timestamp - userTree...\n              PUSH 40\t\t\t    block.timestamp - userTree...\n              MLOAD \t\t\t    block.timestamp - userTree...\n              DUP1 \t\t\t    block.timestamp - userTree...\n              SWAP2 \t\t\t    block.timestamp - userTree...\n              SUB \t\t\t    block.timestamp - userTree...\n              SWAP1 \t\t\t    block.timestamp - userTree...\n              REVERT \t\t\t    block.timestamp - userTree...\n            tag 108\t\t\t    block.timestamp - userTree...\n              JUMPDEST \t\t\t    block.timestamp - userTree...\n              PUSH [tag] 111\t\t\tID].lastClaimed = blo\n              DUP4 \t\t\tla\n              DUP4 \t\t\ted = bl\n              PUSH [tag] 112\t\t\tID].last\n              JUMP \t\t\tID].lastClaimed = blo\n            tag 111\t\t\tID].lastClaimed = blo\n              JUMPDEST \t\t\tID].lastClaimed = blo\n              POP \t\t\t[_collectionID].treeDetails[_t...\n              POP \t\t\te owner\");\\r\\n\\r\\n        requ...\n              POP \t\t\te owner\");\\r\\n\\r\\n        requ...\n              JUMP \t\t\te owner\");\\r\\n\\r\\n        requ...\n            tag 44\t\t\t\n              JUMPDEST \t\t\t\n              PUSH [tag] 114\t\t\t\n              PUSH [tag] 115\t\t\t\n              PUSH [tag] 104\t\t\t\n              JUMP \t\t\t\n            tag 115\t\t\t\n              JUMPDEST \t\t\t\n              DUP3 \t\t\t\n              PUSH [tag] 116\t\t\t\n              JUMP \t\t\t\n            tag 114\t\t\t\n              JUMPDEST \t\t\t\n              PUSH [tag] 117\t\t\t\n              JUMPI \t\t\t\n              PUSH 40\t\t\t\n              MLOAD \t\t\t\n              PUSH 8C379A000000000000000000000000000000000000000000000000000000000\t\t\t\n              DUP2 \t\t\t\n              MSTORE \t\t\t\n              PUSH 4\t\t\t\n              ADD \t\t\t\n              PUSH [tag] 118\t\t\t\n              SWAP1 \t\t\t\n              PUSH [tag] 119\t\t\t\n              JUMP \t\t\t\n            tag 118\t\t\t\n              JUMPDEST \t\t\t\n              PUSH 40\t\t\t\n              MLOAD \t\t\t\n              DUP1 \t\t\t\n              SWAP2 \t\t\t\n              SUB \t\t\t\n              SWAP1 \t\t\t\n              REVERT \t\t\t\n            tag 117\t\t\t\n              JUMPDEST \t\t\t\n              PUSH [tag] 120\t\t\t\n              DUP4 \t\t\t\n              DUP4 \t\t\t\n              DUP4 \t\t\t\n              PUSH [tag] 121\t\t\t\n              JUMP \t\t\t\n            tag 120\t\t\t\n              JUMPDEST \t\t\t\n              POP \t\t\t\n              POP \t\t\t\n              POP \t\t\t\n              JUMP \t\t\t\n            tag 47\t\t\t\n              JUMPDEST \t\t\t\n              PUSH [tag] 123\t\t\t\n              DUP4 \t\t\t\n              DUP4 \t\t\t\n              DUP4 \t\t\t\n              PUSH 40\t\t\t\n              MLOAD \t\t\t\n              DUP1 \t\t\t\n              PUSH 20\t\t\t\n              ADD \t\t\t\n              PUSH 40\t\t\t\n              MSTORE \t\t\t\n              DUP1 \t\t\t\n              PUSH 0\t\t\t\n              DUP2 \t\t\t\n              MSTORE \t\t\t\n              POP \t\t\t\n              PUSH [tag] 71\t\t\t\n              JUMP \t\t\t\n            tag 123\t\t\t\n              JUMPDEST \t\t\t\n              POP \t\t\t\n              POP \t\t\t\n              POP \t\t\t\n              JUMP \t\t\t\n            tag 50\t\t\t = TreeDetails(0, 0, 0, 0, tru...\n              JUMPDEST \t\t\t = TreeDetails(0, 0, 0, 0, tru...\n              PUSH 0\t\t\tcollect\n              DUP1 \t\t\t56 _tokenID) \n              PUSH [tag] 125\t\t\tlic returns(bool)\n              DUP4 \t\t\tns(bool\n              PUSH [tag] 126\t\t\tlic retu\n              JUMP \t\t\tlic returns(bool)\n            tag 125\t\t\tlic returns(bool)\n              JUMPDEST \t\t\tlic returns(bool)\n              SWAP1 \t\t\t56 _tokenID) public returns(bo...\n              POP \t\t\t56 _tokenID) public returns(bo...\n              PUSH 0\t\t\tt\n              PUSH FFFFFFFFFFFFFFFFFFFFFFFFFFFFFFFFFFFFFFFF\t\t\tire(collectionIniti\n              AND \t\t\tire(collectionIniti\n              DUP2 \t\t\tire(c\n              PUSH FFFFFFFFFFFFFFFFFFFFFFFFFFFFFFFFFFFFFFFF\t\t\tire(collectionIniti\n              AND \t\t\tire(collectionIniti\n              SUB \t\t\tire(collectionIniti\n              PUSH [tag] 127\t\t\t    require(collectionInitiali...\n              JUMPI \t\t\t    require(collectionInitiali...\n              PUSH 40\t\t\t    require(collectionInitiali...\n              MLOAD \t\t\t    require(collectionInitiali...\n              PUSH 8C379A000000000000000000000000000000000000000000000000000000000\t\t\t    require(collectionInitiali...\n              DUP2 \t\t\t    require(collectionInitiali...\n              MSTORE \t\t\t    require(collectionInitiali...\n              PUSH 4\t\t\t    require(collectionInitiali...\n              ADD \t\t\t    require(collectionInitiali...\n              PUSH [tag] 128\t\t\t    require(collectionInitiali...\n              SWAP1 \t\t\t    require(collectionInitiali...\n              PUSH [tag] 129\t\t\t    require(collectionInitiali...\n              JUMP \t\t\t    require(collectionInitiali...\n            tag 128\t\t\t    require(collectionInitiali...\n              JUMPDEST \t\t\t    require(collectionInitiali...\n              PUSH 40\t\t\t    require(collectionInitiali...\n              MLOAD \t\t\t    require(collectionInitiali...\n              DUP1 \t\t\t    require(collectionInitiali...\n              SWAP2 \t\t\t    require(collectionInitiali...\n              SUB \t\t\t    require(collectionInitiali...\n              SWAP1 \t\t\t    require(collectionInitiali...\n              REVERT \t\t\t    require(collectionInitiali...\n            tag 127\t\t\t    require(collectionInitiali...\n              JUMPDEST \t\t\t    require(collectionInitiali...\n              DUP1 \t\t\tnot y\n              SWAP2 \t\t\tion is not y\n              POP \t\t\tion is not y\n              POP \t\t\tion is not y\n              SWAP2 \t\t\t = TreeDetails(0, 0, 0, 0, tru...\n              SWAP1 \t\t\t = TreeDetails(0, 0, 0, 0, tru...\n              POP \t\t\t = TreeDetails(0, 0, 0, 0, tru...\n              JUMP \t\t\t = TreeDetails(0, 0, 0, 0, tru...\n            tag 55\t\t\td\"); \\r\\n\\r\\n        TreeColle...\n              JUMPDEST \t\t\td\"); \\r\\n\\r\\n        TreeColle...\n              PUSH 0\t\t\tections\n              DUP1 \t\t\ti\n              PUSH FFFFFFFFFFFFFFFFFFFFFFFFFFFFFFFFFFFFFFFF\t\t\t      treecollectio\n              AND \t\t\t      treecollectio\n              DUP3 \t\t\t     \n              PUSH FFFFFFFFFFFFFFFFFFFFFFFFFFFFFFFFFFFFFFFF\t\t\t      treecollectio\n              AND \t\t\t      treecollectio\n              SUB \t\t\t      treecollectio\n              PUSH [tag] 131\t\t\tD]);\\r\\n        treecollection...\n              JUMPI \t\t\tD]);\\r\\n        treecollection...\n              PUSH 40\t\t\tD]);\\r\\n        treecollection...\n              MLOAD \t\t\tD]);\\r\\n        treecollection...\n              PUSH 8C379A000000000000000000000000000000000000000000000000000000000\t\t\tD]);\\r\\n        treecollection...\n              DUP2 \t\t\tD]);\\r\\n        treecollection...\n              MSTORE \t\t\tD]);\\r\\n        treecollection...\n              PUSH 4\t\t\tD]);\\r\\n        treecollection...\n              ADD \t\t\tD]);\\r\\n        treecollection...\n              PUSH [tag] 132\t\t\tD]);\\r\\n        treecollection...\n              SWAP1 \t\t\tD]);\\r\\n        treecollection...\n              PUSH [tag] 133\t\t\tD]);\\r\\n        treecollection...\n              JUMP \t\t\tD]);\\r\\n        treecollection...\n            tag 132\t\t\tD]);\\r\\n        treecollection...\n              JUMPDEST \t\t\tD]);\\r\\n        treecollection...\n              PUSH 40\t\t\tD]);\\r\\n        treecollection...\n              MLOAD \t\t\tD]);\\r\\n        treecollection...\n              DUP1 \t\t\tD]);\\r\\n        treecollection...\n              SWAP2 \t\t\tD]);\\r\\n        treecollection...\n              SUB \t\t\tD]);\\r\\n        treecollection...\n              SWAP1 \t\t\tD]);\\r\\n        treecollection...\n              REVERT \t\t\tD]);\\r\\n        treecollection...\n            tag 131\t\t\tD]);\\r\\n        treecollection...\n              JUMPDEST \t\t\tD]);\\r\\n        treecollection...\n              PUSH 3\t\t\tollection\n              PUSH 0\t\t\tollection.tokenI\n              DUP4 \t\t\ttoken\n              PUSH FFFFFFFFFFFFFFFFFFFFFFFFFFFFFFFFFFFFFFFF\t\t\tollection.tokenI\n              AND \t\t\tollection.tokenI\n              PUSH FFFFFFFFFFFFFFFFFFFFFFFFFFFFFFFFFFFFFFFF\t\t\tollection.tokenI\n              AND \t\t\tollection.tokenI\n              DUP2 \t\t\tollection.tokenI\n              MSTORE \t\t\tollection.tokenI\n              PUSH 20\t\t\tollection.tokenI\n              ADD \t\t\tollection.tokenI\n              SWAP1 \t\t\tollection.tokenI\n              DUP2 \t\t\tollection.tokenI\n              MSTORE \t\t\tollection.tokenI\n              PUSH 20\t\t\tollection.tokenI\n              ADD \t\t\tollection.tokenI\n              PUSH 0\t\t\tollection.tokenI\n              KECCAK256 \t\t\tollection.tokenI\n              SLOAD \t\t\tollection.tokenI\n              SWAP1 \t\t\t= treecollection.tokenI\n              POP \t\t\t= treecollection.tokenI\n              SWAP2 \t\t\td\"); \\r\\n\\r\\n        TreeColle...\n              SWAP1 \t\t\td\"); \\r\\n\\r\\n        TreeColle...\n              POP \t\t\td\"); \\r\\n\\r\\n        TreeColle...\n              JUMP \t\t\td\"); \\r\\n\\r\\n        TreeColle...\n            tag 59\t\t\tecollection.ownerOf(_tokenID) ...\n              JUMPDEST \t\t\tecollection.ownerOf(_tokenID) ...\n              PUSH 60\t\t\tt the owner\")\n              PUSH 1\t\t\te(STNEA\n              DUP1 \t\t\t require(STNEA\n              SLOAD \t\t\t require(STNEA\n              PUSH [tag] 135\t\t\t require(STNEA\n              SWAP1 \t\t\t require(STNEA\n              PUSH [tag] 90\t\t\t require(STNEA\n              JUMP \t\t\t require(STNEA\n            tag 135\t\t\t require(STNEA\n              JUMPDEST \t\t\t require(STNEA\n              DUP1 \t\t\t require(STNEA\n              PUSH 1F\t\t\t require(STNEA\n              ADD \t\t\t require(STNEA\n              PUSH 20\t\t\t require(STNEA\n              DUP1 \t\t\t require(STNEA\n              SWAP2 \t\t\t require(STNEA\n              DIV \t\t\t require(STNEA\n              MUL \t\t\t require(STNEA\n              PUSH 20\t\t\t require(STNEA\n              ADD \t\t\t require(STNEA\n              PUSH 40\t\t\t require(STNEA\n              MLOAD \t\t\t require(STNEA\n              SWAP1 \t\t\t require(STNEA\n              DUP2 \t\t\t require(STNEA\n              ADD \t\t\t require(STNEA\n              PUSH 40\t\t\t require(STNEA\n              MSTORE \t\t\t require(STNEA\n              DUP1 \t\t\t require(STNEA\n              SWAP3 \t\t\t require(STNEA\n              SWAP2 \t\t\t require(STNEA\n              SWAP1 \t\t\t require(STNEA\n              DUP2 \t\t\t require(STNEA\n              DUP2 \t\t\t require(STNEA\n              MSTORE \t\t\t require(STNEA\n              PUSH 20\t\t\t require(STNEA\n              ADD \t\t\t require(STNEA\n              DUP3 \t\t\t require(STNEA\n              DUP1 \t\t\t require(STNEA\n              SLOAD \t\t\t require(STNEA\n              PUSH [tag] 136\t\t\t require(STNEA\n              SWAP1 \t\t\t require(STNEA\n              PUSH [tag] 90\t\t\t require(STNEA\n              JUMP \t\t\t require(STNEA\n            tag 136\t\t\t require(STNEA\n              JUMPDEST \t\t\t require(STNEA\n              DUP1 \t\t\t require(STNEA\n              ISZERO \t\t\t require(STNEA\n              PUSH [tag] 137\t\t\t require(STNEA\n              JUMPI \t\t\t require(STNEA\n              DUP1 \t\t\t require(STNEA\n              PUSH 1F\t\t\t require(STNEA\n              LT \t\t\t require(STNEA\n              PUSH [tag] 138\t\t\t require(STNEA\n              JUMPI \t\t\t require(STNEA\n              PUSH 100\t\t\t require(STNEA\n              DUP1 \t\t\t require(STNEA\n              DUP4 \t\t\t require(STNEA\n              SLOAD \t\t\t require(STNEA\n              DIV \t\t\t require(STNEA\n              MUL \t\t\t require(STNEA\n              DUP4 \t\t\t require(STNEA\n              MSTORE \t\t\t require(STNEA\n              SWAP2 \t\t\t require(STNEA\n              PUSH 20\t\t\t require(STNEA\n              ADD \t\t\t require(STNEA\n              SWAP2 \t\t\t require(STNEA\n              PUSH [tag] 137\t\t\t require(STNEA\n              JUMP \t\t\t require(STNEA\n            tag 138\t\t\t require(STNEA\n              JUMPDEST \t\t\t require(STNEA\n              DUP3 \t\t\t require(STNEA\n              ADD \t\t\t require(STNEA\n              SWAP2 \t\t\t require(STNEA\n              SWAP1 \t\t\t require(STNEA\n              PUSH 0\t\t\t require(STNEA\n              MSTORE \t\t\t require(STNEA\n              PUSH 20\t\t\t require(STNEA\n              PUSH 0\t\t\t require(STNEA\n              KECCAK256 \t\t\t require(STNEA\n              SWAP1 \t\t\t require(STNEA\n            tag 139\t\t\t require(STNEA\n              JUMPDEST \t\t\t require(STNEA\n              DUP2 \t\t\t require(STNEA\n              SLOAD \t\t\t require(STNEA\n              DUP2 \t\t\t require(STNEA\n              MSTORE \t\t\t require(STNEA\n              SWAP1 \t\t\t require(STNEA\n              PUSH 1\t\t\t require(STNEA\n              ADD \t\t\t require(STNEA\n              SWAP1 \t\t\t require(STNEA\n              PUSH 20\t\t\t require(STNEA\n              ADD \t\t\t require(STNEA\n              DUP1 \t\t\t require(STNEA\n              DUP4 \t\t\t require(STNEA\n              GT \t\t\t require(STNEA\n              PUSH [tag] 139\t\t\t require(STNEA\n              JUMPI \t\t\t require(STNEA\n              DUP3 \t\t\t require(STNEA\n              SWAP1 \t\t\t require(STNEA\n              SUB \t\t\t require(STNEA\n              PUSH 1F\t\t\t require(STNEA\n              AND \t\t\t require(STNEA\n              DUP3 \t\t\t require(STNEA\n              ADD \t\t\t require(STNEA\n              SWAP2 \t\t\t require(STNEA\n            tag 137\t\t\t require(STNEA\n              JUMPDEST \t\t\t require(STNEA\n              POP \t\t\t require(STNEA\n              POP \t\t\t require(STNEA\n              POP \t\t\t require(STNEA\n              POP \t\t\t require(STNEA\n              POP \t\t\t require(STNEA\n              SWAP1 \t\t\t require(STNEA\n              POP \t\t\t require(STNEA\n              SWAP1 \t\t\tecollection.ownerOf(_tokenID) ...\n              JUMP \t\t\tecollection.ownerOf(_tokenID) ...\n            tag 62\t\t\tnder;\\r\\n        STNEAR = ERC2...\n              JUMPDEST \t\t\tnder;\\r\\n        STNEAR = ERC2...\n              PUSH 8\t\t\tnder;\\r\\n        STNEAR = ERC2...\n              DUP1 \t\t\tnder;\\r\\n        STNEAR = ERC2...\n              PUSH 0\t\t\tnder;\\r\\n        STNEAR = ERC2...\n              ADD \t\t\tnder;\\r\\n        STNEAR = ERC2...\n              SLOAD \t\t\tnder;\\r\\n        STNEAR = ERC2...\n              SWAP1 \t\t\tnder;\\r\\n        STNEAR = ERC2...\n              POP \t\t\tnder;\\r\\n        STNEAR = ERC2...\n              DUP2 \t\t\tnder;\\r\\n        STNEAR = ERC2...\n              JUMP \t\t\tnder;\\r\\n        STNEAR = ERC2...\n            tag 67\t\t\tnId].treeDetails[tokenId];\\r\\n...\n              JUMPDEST \t\t\tnId].treeDetails[tokenId];\\r\\n...\n              PUSH [tag] 141\t\t\t\\n\\r\\n    function returnNFTco...\n              PUSH [tag] 142\t\t\turnNFTcount(\n              PUSH [tag] 104\t\t\turnNFTcoun\n              JUMP \t\t\turnNFTcount(\n            tag 142\t\t\turnNFTcount(\n              JUMPDEST \t\t\turnNFTcount(\n              DUP4 \t\t\tnt256 co\n              DUP4 \t\t\tectionID\n              PUSH [tag] 143\t\t\t\\n\\r\\n    function re\n              JUMP \t\t\t\\n\\r\\n    function returnNFTco...\n            tag 141\t\t\t\\n\\r\\n    function returnNFTco...\n              JUMPDEST \t\t\t\\n\\r\\n    function returnNFTco...\n              POP \t\t\tnId].treeDetails[tokenId];\\r\\n...\n              POP \t\t\tnId].treeDetails[tokenId];\\r\\n...\n              JUMP \t\t\tnId].treeDetails[tokenId];\\r\\n...\n            tag 71\t\t\t\n              JUMPDEST \t\t\t\n              PUSH [tag] 145\t\t\t\n              PUSH [tag] 146\t\t\t\n              PUSH [tag] 104\t\t\t\n              JUMP \t\t\t\n            tag 146\t\t\t\n              JUMPDEST \t\t\t\n              DUP4 \t\t\t\n              PUSH [tag] 116\t\t\t\n              JUMP \t\t\t\n            tag 145\t\t\t\n              JUMPDEST \t\t\t\n              PUSH [tag] 147\t\t\t\n              JUMPI \t\t\t\n              PUSH 40\t\t\t\n              MLOAD \t\t\t\n              PUSH 8C379A000000000000000000000000000000000000000000000000000000000\t\t\t\n              DUP2 \t\t\t\n              MSTORE \t\t\t\n              PUSH 4\t\t\t\n              ADD \t\t\t\n              PUSH [tag] 148\t\t\t\n              SWAP1 \t\t\t\n              PUSH [tag] 119\t\t\t\n              JUMP \t\t\t\n            tag 148\t\t\t\n              JUMPDEST \t\t\t\n              PUSH 40\t\t\t\n              MLOAD \t\t\t\n              DUP1 \t\t\t\n              SWAP2 \t\t\t\n              SUB \t\t\t\n              SWAP1 \t\t\t\n              REVERT \t\t\t\n            tag 147\t\t\t\n              JUMPDEST \t\t\t\n              PUSH [tag] 149\t\t\t\n              DUP5 \t\t\t\n              DUP5 \t\t\t\n              DUP5 \t\t\t\n              DUP5 \t\t\t\n              PUSH [tag] 150\t\t\t\n              JUMP \t\t\t\n            tag 149\t\t\t\n              JUMPDEST \t\t\t\n              POP \t\t\t\n              POP \t\t\t\n              POP \t\t\t\n              POP \t\t\t\n              JUMP \t\t\t\n            tag 74\t\t\t    mapping(uint256 => UserTre...\n              JUMPDEST \t\t\t    mapping(uint256 => UserTre...\n              PUSH 60\t\t\t\\n    mapping(\n              PUSH [tag] 152\t\t\tlectionInitialized; // \n              DUP3 \t\t\tzed; //\n              PUSH [tag] 153\t\t\tlectionInitial\n              JUMP \t\t\tlectionInitialized; // \n            tag 152\t\t\tlectionInitialized; // \n              JUMPDEST \t\t\tlectionInitialized; // \n              SWAP1 \t\t\tol) collectionInitialized; // \n              POP \t\t\tol) collectionInitialized; // \n              SWAP2 \t\t\t    mapping(uint256 => UserTre...\n              SWAP1 \t\t\t    mapping(uint256 => UserTre...\n              POP \t\t\t    mapping(uint256 => UserTre...\n              JUMP \t\t\t    mapping(uint256 => UserTre...\n            tag 79\t\t\t\\r\\n    }\\r\\n\\r\\n    struct Tr...\n              JUMPDEST \t\t\t\\r\\n    }\\r\\n\\r\\n    struct Tr...\n              PUSH 7\t\t\tdress \n              PUSH 0\t\t\tdress \n              SWAP1 \t\t\tdress \n              SLOAD \t\t\tdress \n              SWAP1 \t\t\tdress \n              PUSH 100\t\t\tdress \n              EXP \t\t\tdress \n              SWAP1 \t\t\tdress \n              DIV \t\t\tdress \n              PUSH FFFFFFFFFFFFFFFFFFFFFFFFFFFFFFFFFFFFFFFF\t\t\tdress \n              AND \t\t\tdress \n              PUSH FFFFFFFFFFFFFFFFFFFFFFFFFFFFFFFFFFFFFFFF\t\t\tEAR;\\r\\n\\r\\n    address \n              AND \t\t\tEAR;\\r\\n\\r\\n    address \n              CALLER \t\t\tEAR;\\r\\n\\r\\n  \n              PUSH FFFFFFFFFFFFFFFFFFFFFFFFFFFFFFFFFFFFFFFF\t\t\tEAR;\\r\\n\\r\\n    address \n              AND \t\t\tEAR;\\r\\n\\r\\n    address \n              EQ \t\t\tEAR;\\r\\n\\r\\n    address \n              PUSH [tag] 155\t\t\table STNEAR;\\r\\n\\r\\n    addres...\n              JUMPI \t\t\table STNEAR;\\r\\n\\r\\n    addres...\n              PUSH 40\t\t\table STNEAR;\\r\\n\\r\\n    addres...\n              MLOAD \t\t\table STNEAR;\\r\\n\\r\\n    addres...\n              PUSH 8C379A000000000000000000000000000000000000000000000000000000000\t\t\table STNEAR;\\r\\n\\r\\n    addres...\n              DUP2 \t\t\table STNEAR;\\r\\n\\r\\n    addres...\n              MSTORE \t\t\table STNEAR;\\r\\n\\r\\n    addres...\n              PUSH 4\t\t\table STNEAR;\\r\\n\\r\\n    addres...\n              ADD \t\t\table STNEAR;\\r\\n\\r\\n    addres...\n              PUSH [tag] 156\t\t\table STNEAR;\\r\\n\\r\\n    addres...\n              SWAP1 \t\t\table STNEAR;\\r\\n\\r\\n    addres...\n              PUSH [tag] 157\t\t\table STNEAR;\\r\\n\\r\\n    addres...\n              JUMP \t\t\table STNEAR;\\r\\n\\r\\n    addres...\n            tag 156\t\t\table STNEAR;\\r\\n\\r\\n    addres...\n              JUMPDEST \t\t\table STNEAR;\\r\\n\\r\\n    addres...\n              PUSH 40\t\t\table STNEAR;\\r\\n\\r\\n    addres...\n              MLOAD \t\t\table STNEAR;\\r\\n\\r\\n    addres...\n              DUP1 \t\t\table STNEAR;\\r\\n\\r\\n    addres...\n              SWAP2 \t\t\table STNEAR;\\r\\n\\r\\n    addres...\n              SUB \t\t\table STNEAR;\\r\\n\\r\\n    addres...\n              SWAP1 \t\t\table STNEAR;\\r\\n\\r\\n    addres...\n              REVERT \t\t\table STNEAR;\\r\\n\\r\\n    addres...\n            tag 155\t\t\table STNEAR;\\r\\n\\r\\n    addres...\n              JUMPDEST \t\t\table STNEAR;\\r\\n\\r\\n    addres...\n              PUSH [tag] 159\t\t\t56 lastClaimed;\\r\\n        u\n              PUSH 8\t\t\t56 lastClaimed\n              PUSH [tag] 160\t\t\t56 lastClaimed;\\r\\n       \n              JUMP \t\t\t56 lastClaimed;\\r\\n        u\n            tag 159\t\t\t56 lastClaimed;\\r\\n        u\n              JUMPDEST \t\t\t56 lastClaimed;\\r\\n        u\n              PUSH 0\t\t\tredTimes;\\r\\n    \n              PUSH [tag] 161\t\t\t uint256 tokensYielded;\\r\n              PUSH 8\t\t\t uint256 token\n              PUSH [tag] 162\t\t\t uint256 tokensYielded\n              JUMP \t\t\t uint256 tokensYielded;\\r\n            tag 161\t\t\t uint256 tokensYielded;\\r\n              JUMPDEST \t\t\t uint256 tokensYielded;\\r\n              SWAP1 \t\t\tredTimes;\\r\\n        uint256 t...\n              POP \t\t\tredTimes;\\r\\n        uint256 t...\n              PUSH 1E\t\t\t  \n              DUP2 \t\t\ttialize\n              GT \t\t\ttialized;\\r\\n  \n              ISZERO \t\t\ttialized;\\r\\n  \n              PUSH [tag] 163\t\t\tol isInitialized;\\r\\n    }\\r\\n...\n              JUMPI \t\t\tol isInitialized;\\r\\n    }\\r\\n...\n              PUSH 40\t\t\tol isInitialized;\\r\\n    }\\r\\n...\n              MLOAD \t\t\tol isInitialized;\\r\\n    }\\r\\n...\n              PUSH 8C379A000000000000000000000000000000000000000000000000000000000\t\t\tol isInitialized;\\r\\n    }\\r\\n...\n              DUP2 \t\t\tol isInitialized;\\r\\n    }\\r\\n...\n              MSTORE \t\t\tol isInitialized;\\r\\n    }\\r\\n...\n              PUSH 4\t\t\tol isInitialized;\\r\\n    }\\r\\n...\n              ADD \t\t\tol isInitialized;\\r\\n    }\\r\\n...\n              PUSH [tag] 164\t\t\tol isInitialized;\\r\\n    }\\r\\n...\n              SWAP1 \t\t\tol isInitialized;\\r\\n    }\\r\\n...\n              PUSH [tag] 165\t\t\tol isInitialized;\\r\\n    }\\r\\n...\n              JUMP \t\t\tol isInitialized;\\r\\n    }\\r\\n...\n            tag 164\t\t\tol isInitialized;\\r\\n    }\\r\\n...\n              JUMPDEST \t\t\tol isInitialized;\\r\\n    }\\r\\n...\n              PUSH 40\t\t\tol isInitialized;\\r\\n    }\\r\\n...\n              MLOAD \t\t\tol isInitialized;\\r\\n    }\\r\\n...\n              DUP1 \t\t\tol isInitialized;\\r\\n    }\\r\\n...\n              SWAP2 \t\t\tol isInitialized;\\r\\n    }\\r\\n...\n              SUB \t\t\tol isInitialized;\\r\\n    }\\r\\n...\n              SWAP1 \t\t\tol isInitialized;\\r\\n    }\\r\\n...\n              REVERT \t\t\tol isInitialized;\\r\\n    }\\r\\n...\n            tag 163\t\t\tol isInitialized;\\r\\n    }\\r\\n...\n              JUMPDEST \t\t\tol isInitialized;\\r\\n    }\\r\\n...\n              PUSH [tag] 166\t\t\t TreeDetails) treeDeta\n              DUP4 \t\t\tls\n              DUP3 \t\t\ttreeDet\n              PUSH [tag] 167\t\t\t TreeDeta\n              JUMP \t\t\t TreeDetails) treeDeta\n            tag 166\t\t\t TreeDetails) treeDeta\n              JUMPDEST \t\t\t TreeDetails) treeDeta\n              PUSH [tag] 168\t\t\tping to store user details\n              DUP2 \t\t\t user d\n              DUP4 \t\t\tail\n              PUSH [tag] 169\t\t\tping to stor\n              JUMP \t\t\tping to store user details\n            tag 168\t\t\tping to store user details\n              JUMPDEST \t\t\tping to store user details\n              POP \t\t\t      uint256 lastClaimed;\\r\\n...\n              POP \t\t\t\\r\\n    }\\r\\n\\r\\n    struct Tr...\n              POP \t\t\t\\r\\n    }\\r\\n\\r\\n    struct Tr...\n              JUMP \t\t\t\\r\\n    }\\r\\n\\r\\n    struct Tr...\n            tag 83\t\t\tonID].tokenIdCounter());\\r\\n  ...\n              JUMPDEST \t\t\tonID].tokenIdCounter());\\r\\n  ...\n              PUSH 0\t\t\t\n              PUSH 5\t\t\t\n              PUSH 0\t\t\t\n              DUP5 \t\t\t\n              PUSH FFFFFFFFFFFFFFFFFFFFFFFFFFFFFFFFFFFFFFFF\t\t\t\n              AND \t\t\t\n              PUSH FFFFFFFFFFFFFFFFFFFFFFFFFFFFFFFFFFFFFFFF\t\t\t\n              AND \t\t\t\n              DUP2 \t\t\t\n              MSTORE \t\t\t\n              PUSH 20\t\t\t\n              ADD \t\t\t\n              SWAP1 \t\t\t\n              DUP2 \t\t\t\n              MSTORE \t\t\t\n              PUSH 20\t\t\t\n              ADD \t\t\t\n              PUSH 0\t\t\t\n              KECCAK256 \t\t\t\n              PUSH 0\t\t\t\n              DUP4 \t\t\t\n              PUSH FFFFFFFFFFFFFFFFFFFFFFFFFFFFFFFFFFFFFFFF\t\t\t\n              AND \t\t\t\n              PUSH FFFFFFFFFFFFFFFFFFFFFFFFFFFFFFFFFFFFFFFF\t\t\t\n              AND \t\t\t\n              DUP2 \t\t\t\n              MSTORE \t\t\t\n              PUSH 20\t\t\t\n              ADD \t\t\t\n              SWAP1 \t\t\t\n              DUP2 \t\t\t\n              MSTORE \t\t\t\n              PUSH 20\t\t\t\n              ADD \t\t\t\n              PUSH 0\t\t\t\n              KECCAK256 \t\t\t\n              PUSH 0\t\t\t\n              SWAP1 \t\t\t\n              SLOAD \t\t\t\n              SWAP1 \t\t\t\n              PUSH 100\t\t\t\n              EXP \t\t\t\n              SWAP1 \t\t\t\n              DIV \t\t\t\n              PUSH FF\t\t\t\n              AND \t\t\t\n              SWAP1 \t\t\t\n              POP \t\t\t\n              SWAP3 \t\t\tonID].tokenIdCounter());\\r\\n  ...\n              SWAP2 \t\t\tonID].tokenIdCounter());\\r\\n  ...\n              POP \t\t\tonID].tokenIdCounter());\\r\\n  ...\n              POP \t\t\tonID].tokenIdCounter());\\r\\n  ...\n              JUMP \t\t\tonID].tokenIdCounter());\\r\\n  ...\n            tag 87\t\t\t   }\\r\\n\\r\\n    function mint(...\n              JUMPDEST \t\t\t   }\\r\\n\\r\\n    function mint(...\n              PUSH 0\t\t\t    \n              PUSH 49064906\t\t\tWatered;\\r\\n\n              PUSH E0\t\t\t56 lastWatered;\\r\\n \n              SHL \t\t\t56 lastWatered;\\r\\n \n              PUSH FFFFFFFFFFFFFFFFFFFFFFFFFFFFFFFFFFFFFFFFFFFFFFFFFFFFFFFF\t\t\t\\r\\n        uint256 lastWatere...\n              NOT \t\t\t\\r\\n        uint256 lastWatere...\n              AND \t\t\t\\r\\n        uint256 lastWatere...\n              DUP3 \t\t\t\\r\\n        u\n              PUSH FFFFFFFFFFFFFFFFFFFFFFFFFFFFFFFFFFFFFFFFFFFFFFFFFFFFFFFF\t\t\t\\r\\n        uint256 lastWatere...\n              NOT \t\t\t\\r\\n        uint256 lastWatere...\n              AND \t\t\t\\r\\n        uint256 lastWatere...\n              EQ \t\t\t\\r\\n        uint256 lastWatere...\n              DUP1 \t\t\t\\r\\n        uint256 lastWatere...\n              PUSH [tag] 172\t\t\t\\r\\n        uint256 lastWatere...\n              JUMPI \t\t\t\\r\\n        uint256 lastWatere...\n              POP \t\t\t\\r\\n        uint256 lastWatere...\n              PUSH [tag] 173\t\t\t   uint256 lastClaimed;\\r\\n   ...\n              DUP3 \t\t\t\\n        ui\n              PUSH [tag] 174\t\t\t   uint256 lastClaimed;\n              JUMP \t\t\t   uint256 lastClaimed;\\r\\n   ...\n            tag 173\t\t\t   uint256 lastClaimed;\\r\\n   ...\n              JUMPDEST \t\t\t   uint256 lastClaimed;\\r\\n   ...\n            tag 172\t\t\t\\r\\n        uint256 lastWatere...\n              JUMPDEST \t\t\t\\r\\n        uint256 lastWatere...\n              SWAP1 \t\t\tetails{\\r\\n        uint256 las...\n              POP \t\t\tetails{\\r\\n        uint256 las...\n              SWAP2 \t\t\t   }\\r\\n\\r\\n    function mint(...\n              SWAP1 \t\t\t   }\\r\\n\\r\\n    function mint(...\n              POP \t\t\t   }\\r\\n\\r\\n    function mint(...\n              JUMP \t\t\t   }\\r\\n\\r\\n    function mint(...\n            tag 97\t\t\t\n              JUMPDEST \t\t\t\n              PUSH [tag] 176\t\t\t\n              DUP2 \t\t\t\n              PUSH [tag] 177\t\t\t\n              JUMP \t\t\t\n            tag 176\t\t\t\n              JUMPDEST \t\t\t\n              PUSH [tag] 178\t\t\t\n              JUMPI \t\t\t\n              PUSH 40\t\t\t\n              MLOAD \t\t\t\n              PUSH 8C379A000000000000000000000000000000000000000000000000000000000\t\t\t\n              DUP2 \t\t\t\n              MSTORE \t\t\t\n              PUSH 4\t\t\t\n              ADD \t\t\t\n              PUSH [tag] 179\t\t\t\n              SWAP1 \t\t\t\n              PUSH [tag] 129\t\t\t\n              JUMP \t\t\t\n            tag 179\t\t\t\n              JUMPDEST \t\t\t\n              PUSH 40\t\t\t\n              MLOAD \t\t\t\n              DUP1 \t\t\t\n              SWAP2 \t\t\t\n              SUB \t\t\t\n              SWAP1 \t\t\t\n              REVERT \t\t\t\n            tag 178\t\t\t\n              JUMPDEST \t\t\t\n              POP \t\t\t\n              JUMP \t\t\t\n            tag 104\t\t\t struct TreeDetails{\\r\\n      ...\n              JUMPDEST \t\t\t struct TreeDetails{\\r\\n      ...\n              PUSH 0\t\t\t       \n              CALLER \t\t\t;\\r\\n       \n              SWAP1 \t\t\tClaimed;\\r\\n       \n              POP \t\t\tClaimed;\\r\\n       \n              SWAP1 \t\t\t struct TreeDetails{\\r\\n      ...\n              JUMP \t\t\t struct TreeDetails{\\r\\n      ...\n            tag 112\t\t\t\n              JUMPDEST \t\t\t\n              DUP2 \t\t\t\n              PUSH 4\t\t\t\n              PUSH 0\t\t\t\n              DUP4 \t\t\t\n              DUP2 \t\t\t\n              MSTORE \t\t\t\n              PUSH 20\t\t\t\n              ADD \t\t\t\n              SWAP1 \t\t\t\n              DUP2 \t\t\t\n              MSTORE \t\t\t\n              PUSH 20\t\t\t\n              ADD \t\t\t\n              PUSH 0\t\t\t\n              KECCAK256 \t\t\t\n              PUSH 0\t\t\t\n              PUSH 100\t\t\t\n              EXP \t\t\t\n              DUP2 \t\t\t\n              SLOAD \t\t\t\n              DUP2 \t\t\t\n              PUSH FFFFFFFFFFFFFFFFFFFFFFFFFFFFFFFFFFFFFFFF\t\t\t\n              MUL \t\t\t\n              NOT \t\t\t\n              AND \t\t\t\n              SWAP1 \t\t\t\n              DUP4 \t\t\t\n              PUSH FFFFFFFFFFFFFFFFFFFFFFFFFFFFFFFFFFFFFFFF\t\t\t\n              AND \t\t\t\n              MUL \t\t\t\n              OR \t\t\t\n              SWAP1 \t\t\t\n              SSTORE \t\t\t\n              POP \t\t\t\n              DUP1 \t\t\t\n              DUP3 \t\t\t\n              PUSH FFFFFFFFFFFFFFFFFFFFFFFFFFFFFFFFFFFFFFFF\t\t\t\n              AND \t\t\t\n              PUSH [tag] 182\t\t\t\n              DUP4 \t\t\t\n              PUSH [tag] 50\t\t\t\n              JUMP \t\t\t\n            tag 182\t\t\t\n              JUMPDEST \t\t\t\n              PUSH FFFFFFFFFFFFFFFFFFFFFFFFFFFFFFFFFFFFFFFF\t\t\t\n              AND \t\t\t\n              PUSH 8C5BE1E5EBEC7D5BD14F71427D1E84F3DD0314C0F7B2291E5B200AC8C7C3B925\t\t\t\n              PUSH 40\t\t\t\n              MLOAD \t\t\t\n              PUSH 40\t\t\t\n              MLOAD \t\t\t\n              DUP1 \t\t\t\n              SWAP2 \t\t\t\n              SUB \t\t\t\n              SWAP1 \t\t\t\n              LOG4 \t\t\t\n              POP \t\t\t\n              POP \t\t\t\n              JUMP \t\t\t\n            tag 116\t\t\t\n              JUMPDEST \t\t\t\n              PUSH 0\t\t\t\n              DUP1 \t\t\t\n              PUSH [tag] 184\t\t\t\n              DUP4 \t\t\t\n              PUSH [tag] 50\t\t\t\n              JUMP \t\t\t\n            tag 184\t\t\t\n              JUMPDEST \t\t\t\n              SWAP1 \t\t\t\n              POP \t\t\t\n              DUP1 \t\t\t\n              PUSH FFFFFFFFFFFFFFFFFFFFFFFFFFFFFFFFFFFFFFFF\t\t\t\n              AND \t\t\t\n              DUP5 \t\t\t\n              PUSH FFFFFFFFFFFFFFFFFFFFFFFFFFFFFFFFFFFFFFFF\t\t\t\n              AND \t\t\t\n              EQ \t\t\t\n              DUP1 \t\t\t\n              PUSH [tag] 185\t\t\t\n              JUMPI \t\t\t\n              POP \t\t\t\n              PUSH [tag] 186\t\t\t\n              DUP2 \t\t\t\n              DUP6 \t\t\t\n              PUSH [tag] 83\t\t\t\n              JUMP \t\t\t\n            tag 186\t\t\t\n              JUMPDEST \t\t\t\n            tag 185\t\t\t\n              JUMPDEST \t\t\t\n              DUP1 \t\t\t\n              PUSH [tag] 187\t\t\t\n              JUMPI \t\t\t\n              POP \t\t\t\n              DUP4 \t\t\t\n              PUSH FFFFFFFFFFFFFFFFFFFFFFFFFFFFFFFFFFFFFFFF\t\t\t\n              AND \t\t\t\n              PUSH [tag] 188\t\t\t\n              DUP5 \t\t\t\n              PUSH [tag] 34\t\t\t\n              JUMP \t\t\t\n            tag 188\t\t\t\n              JUMPDEST \t\t\t\n              PUSH FFFFFFFFFFFFFFFFFFFFFFFFFFFFFFFFFFFFFFFF\t\t\t\n              AND \t\t\t\n              EQ \t\t\t\n            tag 187\t\t\t\n              JUMPDEST \t\t\t\n              SWAP2 \t\t\t\n              POP \t\t\t\n              POP \t\t\t\n              SWAP3 \t\t\t\n              SWAP2 \t\t\t\n              POP \t\t\t\n              POP \t\t\t\n              JUMP \t\t\t\n            tag 121\t\t\t\n              JUMPDEST \t\t\t\n              DUP3 \t\t\t\n              PUSH FFFFFFFFFFFFFFFFFFFFFFFFFFFFFFFFFFFFFFFF\t\t\t\n              AND \t\t\t\n              PUSH [tag] 190\t\t\t\n              DUP3 \t\t\t\n              PUSH [tag] 50\t\t\t\n              JUMP \t\t\t\n            tag 190\t\t\t\n              JUMPDEST \t\t\t\n              PUSH FFFFFFFFFFFFFFFFFFFFFFFFFFFFFFFFFFFFFFFF\t\t\t\n              AND \t\t\t\n              EQ \t\t\t\n              PUSH [tag] 191\t\t\t\n              JUMPI \t\t\t\n              PUSH 40\t\t\t\n              MLOAD \t\t\t\n              PUSH 8C379A000000000000000000000000000000000000000000000000000000000\t\t\t\n              DUP2 \t\t\t\n              MSTORE \t\t\t\n              PUSH 4\t\t\t\n              ADD \t\t\t\n              PUSH [tag] 192\t\t\t\n              SWAP1 \t\t\t\n              PUSH [tag] 193\t\t\t\n              JUMP \t\t\t\n            tag 192\t\t\t\n              JUMPDEST \t\t\t\n              PUSH 40\t\t\t\n              MLOAD \t\t\t\n              DUP1 \t\t\t\n              SWAP2 \t\t\t\n              SUB \t\t\t\n              SWAP1 \t\t\t\n              REVERT \t\t\t\n            tag 191\t\t\t\n              JUMPDEST \t\t\t\n              PUSH 0\t\t\t\n              PUSH FFFFFFFFFFFFFFFFFFFFFFFFFFFFFFFFFFFFFFFF\t\t\t\n              AND \t\t\t\n              DUP3 \t\t\t\n              PUSH FFFFFFFFFFFFFFFFFFFFFFFFFFFFFFFFFFFFFFFF\t\t\t\n              AND \t\t\t\n              SUB \t\t\t\n              PUSH [tag] 194\t\t\t\n              JUMPI \t\t\t\n              PUSH 40\t\t\t\n              MLOAD \t\t\t\n              PUSH 8C379A000000000000000000000000000000000000000000000000000000000\t\t\t\n              DUP2 \t\t\t\n              MSTORE \t\t\t\n              PUSH 4\t\t\t\n              ADD \t\t\t\n              PUSH [tag] 195\t\t\t\n              SWAP1 \t\t\t\n              PUSH [tag] 196\t\t\t\n              JUMP \t\t\t\n            tag 195\t\t\t\n              JUMPDEST \t\t\t\n              PUSH 40\t\t\t\n              MLOAD \t\t\t\n              DUP1 \t\t\t\n              SWAP2 \t\t\t\n              SUB \t\t\t\n              SWAP1 \t\t\t\n              REVERT \t\t\t\n            tag 194\t\t\t\n              JUMPDEST \t\t\t\n              PUSH [tag] 197\t\t\t\n              DUP4 \t\t\t\n              DUP4 \t\t\t\n              DUP4 \t\t\t\n              PUSH 1\t\t\t\n              PUSH [tag] 198\t\t\t\n              JUMP \t\t\t\n            tag 197\t\t\t\n              JUMPDEST \t\t\t\n              DUP3 \t\t\t\n              PUSH FFFFFFFFFFFFFFFFFFFFFFFFFFFFFFFFFFFFFFFF\t\t\t\n              AND \t\t\t\n              PUSH [tag] 199\t\t\t\n              DUP3 \t\t\t\n              PUSH [tag] 50\t\t\t\n              JUMP \t\t\t\n            tag 199\t\t\t\n              JUMPDEST \t\t\t\n              PUSH FFFFFFFFFFFFFFFFFFFFFFFFFFFFFFFFFFFFFFFF\t\t\t\n              AND \t\t\t\n              EQ \t\t\t\n              PUSH [tag] 200\t\t\t\n              JUMPI \t\t\t\n              PUSH 40\t\t\t\n              MLOAD \t\t\t\n              PUSH 8C379A000000000000000000000000000000000000000000000000000000000\t\t\t\n              DUP2 \t\t\t\n              MSTORE \t\t\t\n              PUSH 4\t\t\t\n              ADD \t\t\t\n              PUSH [tag] 201\t\t\t\n              SWAP1 \t\t\t\n              PUSH [tag] 193\t\t\t\n              JUMP \t\t\t\n            tag 201\t\t\t\n              JUMPDEST \t\t\t\n              PUSH 40\t\t\t\n              MLOAD \t\t\t\n              DUP1 \t\t\t\n              SWAP2 \t\t\t\n              SUB \t\t\t\n              SWAP1 \t\t\t\n              REVERT \t\t\t\n            tag 200\t\t\t\n              JUMPDEST \t\t\t\n              PUSH 4\t\t\t\n              PUSH 0\t\t\t\n              DUP3 \t\t\t\n              DUP2 \t\t\t\n              MSTORE \t\t\t\n              PUSH 20\t\t\t\n              ADD \t\t\t\n              SWAP1 \t\t\t\n              DUP2 \t\t\t\n              MSTORE \t\t\t\n              PUSH 20\t\t\t\n              ADD \t\t\t\n              PUSH 0\t\t\t\n              KECCAK256 \t\t\t\n              PUSH 0\t\t\t\n              PUSH 100\t\t\t\n              EXP \t\t\t\n              DUP2 \t\t\t\n              SLOAD \t\t\t\n              SWAP1 \t\t\t\n              PUSH FFFFFFFFFFFFFFFFFFFFFFFFFFFFFFFFFFFFFFFF\t\t\t\n              MUL \t\t\t\n              NOT \t\t\t\n              AND \t\t\t\n              SWAP1 \t\t\t\n              SSTORE \t\t\t\n              PUSH 1\t\t\t\n              PUSH 3\t\t\t\n              PUSH 0\t\t\t\n              DUP6 \t\t\t\n              PUSH FFFFFFFFFFFFFFFFFFFFFFFFFFFFFFFFFFFFFFFF\t\t\t\n              AND \t\t\t\n              PUSH FFFFFFFFFFFFFFFFFFFFFFFFFFFFFFFFFFFFFFFF\t\t\t\n              AND \t\t\t\n              DUP2 \t\t\t\n              MSTORE \t\t\t\n              PUSH 20\t\t\t\n              ADD \t\t\t\n              SWAP1 \t\t\t\n              DUP2 \t\t\t\n              MSTORE \t\t\t\n              PUSH 20\t\t\t\n              ADD \t\t\t\n              PUSH 0\t\t\t\n              KECCAK256 \t\t\t\n              PUSH 0\t\t\t\n              DUP3 \t\t\t\n              DUP3 \t\t\t\n              SLOAD \t\t\t\n              SUB \t\t\t\n              SWAP3 \t\t\t\n              POP \t\t\t\n              POP \t\t\t\n              DUP2 \t\t\t\n              SWAP1 \t\t\t\n              SSTORE \t\t\t\n              POP \t\t\t\n              PUSH 1\t\t\t\n              PUSH 3\t\t\t\n              PUSH 0\t\t\t\n              DUP5 \t\t\t\n              PUSH FFFFFFFFFFFFFFFFFFFFFFFFFFFFFFFFFFFFFFFF\t\t\t\n              AND \t\t\t\n              PUSH FFFFFFFFFFFFFFFFFFFFFFFFFFFFFFFFFFFFFFFF\t\t\t\n              AND \t\t\t\n              DUP2 \t\t\t\n              MSTORE \t\t\t\n              PUSH 20\t\t\t\n              ADD \t\t\t\n              SWAP1 \t\t\t\n              DUP2 \t\t\t\n              MSTORE \t\t\t\n              PUSH 20\t\t\t\n              ADD \t\t\t\n              PUSH 0\t\t\t\n              KECCAK256 \t\t\t\n              PUSH 0\t\t\t\n              DUP3 \t\t\t\n              DUP3 \t\t\t\n              SLOAD \t\t\t\n              ADD \t\t\t\n              SWAP3 \t\t\t\n              POP \t\t\t\n              POP \t\t\t\n              DUP2 \t\t\t\n              SWAP1 \t\t\t\n              SSTORE \t\t\t\n              POP \t\t\t\n              DUP2 \t\t\t\n              PUSH 2\t\t\t\n              PUSH 0\t\t\t\n              DUP4 \t\t\t\n              DUP2 \t\t\t\n              MSTORE \t\t\t\n              PUSH 20\t\t\t\n              ADD \t\t\t\n              SWAP1 \t\t\t\n              DUP2 \t\t\t\n              MSTORE \t\t\t\n              PUSH 20\t\t\t\n              ADD \t\t\t\n              PUSH 0\t\t\t\n              KECCAK256 \t\t\t\n              PUSH 0\t\t\t\n              PUSH 100\t\t\t\n              EXP \t\t\t\n              DUP2 \t\t\t\n              SLOAD \t\t\t\n              DUP2 \t\t\t\n              PUSH FFFFFFFFFFFFFFFFFFFFFFFFFFFFFFFFFFFFFFFF\t\t\t\n              MUL \t\t\t\n              NOT \t\t\t\n              AND \t\t\t\n              SWAP1 \t\t\t\n              DUP4 \t\t\t\n              PUSH FFFFFFFFFFFFFFFFFFFFFFFFFFFFFFFFFFFFFFFF\t\t\t\n              AND \t\t\t\n              MUL \t\t\t\n              OR \t\t\t\n              SWAP1 \t\t\t\n              SSTORE \t\t\t\n              POP \t\t\t\n              DUP1 \t\t\t\n              DUP3 \t\t\t\n              PUSH FFFFFFFFFFFFFFFFFFFFFFFFFFFFFFFFFFFFFFFF\t\t\t\n              AND \t\t\t\n              DUP5 \t\t\t\n              PUSH FFFFFFFFFFFFFFFFFFFFFFFFFFFFFFFFFFFFFFFF\t\t\t\n              AND \t\t\t\n              PUSH DDF252AD1BE2C89B69C2B068FC378DAA952BA7F163C4A11628F55A4DF523B3EF\t\t\t\n              PUSH 40\t\t\t\n              MLOAD \t\t\t\n              PUSH 40\t\t\t\n              MLOAD \t\t\t\n              DUP1 \t\t\t\n              SWAP2 \t\t\t\n              SUB \t\t\t\n              SWAP1 \t\t\t\n              LOG4 \t\t\t\n              PUSH [tag] 202\t\t\t\n              DUP4 \t\t\t\n              DUP4 \t\t\t\n              DUP4 \t\t\t\n              PUSH 1\t\t\t\n              PUSH [tag] 203\t\t\t\n              JUMP \t\t\t\n            tag 202\t\t\t\n              JUMPDEST \t\t\t\n              POP \t\t\t\n              POP \t\t\t\n              POP \t\t\t\n              JUMP \t\t\t\n            tag 126\t\t\t\n              JUMPDEST \t\t\t\n              PUSH 0\t\t\t\n              PUSH 2\t\t\t\n              PUSH 0\t\t\t\n              DUP4 \t\t\t\n              DUP2 \t\t\t\n              MSTORE \t\t\t\n              PUSH 20\t\t\t\n              ADD \t\t\t\n              SWAP1 \t\t\t\n              DUP2 \t\t\t\n              MSTORE \t\t\t\n              PUSH 20\t\t\t\n              ADD \t\t\t\n              PUSH 0\t\t\t\n              KECCAK256 \t\t\t\n              PUSH 0\t\t\t\n              SWAP1 \t\t\t\n              SLOAD \t\t\t\n              SWAP1 \t\t\t\n              PUSH 100\t\t\t\n              EXP \t\t\t\n              SWAP1 \t\t\t\n              DIV \t\t\t\n              PUSH FFFFFFFFFFFFFFFFFFFFFFFFFFFFFFFFFFFFFFFF\t\t\t\n              AND \t\t\t\n              SWAP1 \t\t\t\n              POP \t\t\t\n              SWAP2 \t\t\t\n              SWAP1 \t\t\t\n              POP \t\t\t\n              JUMP \t\t\t\n            tag 143\t\t\t\n              JUMPDEST \t\t\t\n              DUP2 \t\t\t\n              PUSH FFFFFFFFFFFFFFFFFFFFFFFFFFFFFFFFFFFFFFFF\t\t\t\n              AND \t\t\t\n              DUP4 \t\t\t\n              PUSH FFFFFFFFFFFFFFFFFFFFFFFFFFFFFFFFFFFFFFFF\t\t\t\n              AND \t\t\t\n              SUB \t\t\t\n              PUSH [tag] 206\t\t\t\n              JUMPI \t\t\t\n              PUSH 40\t\t\t\n              MLOAD \t\t\t\n              PUSH 8C379A000000000000000000000000000000000000000000000000000000000\t\t\t\n              DUP2 \t\t\t\n              MSTORE \t\t\t\n              PUSH 4\t\t\t\n              ADD \t\t\t\n              PUSH [tag] 207\t\t\t\n              SWAP1 \t\t\t\n              PUSH [tag] 208\t\t\t\n              JUMP \t\t\t\n            tag 207\t\t\t\n              JUMPDEST \t\t\t\n              PUSH 40\t\t\t\n              MLOAD \t\t\t\n              DUP1 \t\t\t\n              SWAP2 \t\t\t\n              SUB \t\t\t\n              SWAP1 \t\t\t\n              REVERT \t\t\t\n            tag 206\t\t\t\n              JUMPDEST \t\t\t\n              DUP1 \t\t\t\n              PUSH 5\t\t\t\n              PUSH 0\t\t\t\n              DUP6 \t\t\t\n              PUSH FFFFFFFFFFFFFFFFFFFFFFFFFFFFFFFFFFFFFFFF\t\t\t\n              AND \t\t\t\n              PUSH FFFFFFFFFFFFFFFFFFFFFFFFFFFFFFFFFFFFFFFF\t\t\t\n              AND \t\t\t\n              DUP2 \t\t\t\n              MSTORE \t\t\t\n              PUSH 20\t\t\t\n              ADD \t\t\t\n              SWAP1 \t\t\t\n              DUP2 \t\t\t\n              MSTORE \t\t\t\n              PUSH 20\t\t\t\n              ADD \t\t\t\n              PUSH 0\t\t\t\n              KECCAK256 \t\t\t\n              PUSH 0\t\t\t\n              DUP5 \t\t\t\n              PUSH FFFFFFFFFFFFFFFFFFFFFFFFFFFFFFFFFFFFFFFF\t\t\t\n              AND \t\t\t\n              PUSH FFFFFFFFFFFFFFFFFFFFFFFFFFFFFFFFFFFFFFFF\t\t\t\n              AND \t\t\t\n              DUP2 \t\t\t\n              MSTORE \t\t\t\n              PUSH 20\t\t\t\n              ADD \t\t\t\n              SWAP1 \t\t\t\n              DUP2 \t\t\t\n              MSTORE \t\t\t\n              PUSH 20\t\t\t\n              ADD \t\t\t\n              PUSH 0\t\t\t\n              KECCAK256 \t\t\t\n              PUSH 0\t\t\t\n              PUSH 100\t\t\t\n              EXP \t\t\t\n              DUP2 \t\t\t\n              SLOAD \t\t\t\n              DUP2 \t\t\t\n              PUSH FF\t\t\t\n              MUL \t\t\t\n              NOT \t\t\t\n              AND \t\t\t\n              SWAP1 \t\t\t\n              DUP4 \t\t\t\n              ISZERO \t\t\t\n              ISZERO \t\t\t\n              MUL \t\t\t\n              OR \t\t\t\n              SWAP1 \t\t\t\n              SSTORE \t\t\t\n              POP \t\t\t\n              DUP2 \t\t\t\n              PUSH FFFFFFFFFFFFFFFFFFFFFFFFFFFFFFFFFFFFFFFF\t\t\t\n              AND \t\t\t\n              DUP4 \t\t\t\n              PUSH FFFFFFFFFFFFFFFFFFFFFFFFFFFFFFFFFFFFFFFF\t\t\t\n              AND \t\t\t\n              PUSH 17307EAB39AB6107E8899845AD3D59BD9653F200F220920489CA2B5937696C31\t\t\t\n              DUP4 \t\t\t\n              PUSH 40\t\t\t\n              MLOAD \t\t\t\n              PUSH [tag] 209\t\t\t\n              SWAP2 \t\t\t\n              SWAP1 \t\t\t\n              PUSH [tag] 26\t\t\t\n              JUMP \t\t\t\n            tag 209\t\t\t\n              JUMPDEST \t\t\t\n              PUSH 40\t\t\t\n              MLOAD \t\t\t\n              DUP1 \t\t\t\n              SWAP2 \t\t\t\n              SUB \t\t\t\n              SWAP1 \t\t\t\n              LOG3 \t\t\t\n              POP \t\t\t\n              POP \t\t\t\n              POP \t\t\t\n              JUMP \t\t\t\n            tag 150\t\t\t\n              JUMPDEST \t\t\t\n              PUSH [tag] 211\t\t\t\n              DUP5 \t\t\t\n              DUP5 \t\t\t\n              DUP5 \t\t\t\n              PUSH [tag] 121\t\t\t\n              JUMP \t\t\t\n            tag 211\t\t\t\n              JUMPDEST \t\t\t\n              PUSH [tag] 212\t\t\t\n              DUP5 \t\t\t\n              DUP5 \t\t\t\n              DUP5 \t\t\t\n              DUP5 \t\t\t\n              PUSH [tag] 213\t\t\t\n              JUMP \t\t\t\n            tag 212\t\t\t\n              JUMPDEST \t\t\t\n              PUSH [tag] 214\t\t\t\n              JUMPI \t\t\t\n              PUSH 40\t\t\t\n              MLOAD \t\t\t\n              PUSH 8C379A000000000000000000000000000000000000000000000000000000000\t\t\t\n              DUP2 \t\t\t\n              MSTORE \t\t\t\n              PUSH 4\t\t\t\n              ADD \t\t\t\n              PUSH [tag] 215\t\t\t\n              SWAP1 \t\t\t\n              PUSH [tag] 216\t\t\t\n              JUMP \t\t\t\n            tag 215\t\t\t\n              JUMPDEST \t\t\t\n              PUSH 40\t\t\t\n              MLOAD \t\t\t\n              DUP1 \t\t\t\n              SWAP2 \t\t\t\n              SUB \t\t\t\n              SWAP1 \t\t\t\n              REVERT \t\t\t\n            tag 214\t\t\t\n              JUMPDEST \t\t\t\n              POP \t\t\t\n              POP \t\t\t\n              POP \t\t\t\n              POP \t\t\t\n              JUMP \t\t\t\n            tag 153\t\t\tlized;\\r\\n    }\\r\\n\\r\\n    str...\n              JUMPDEST \t\t\tlized;\\r\\n    }\\r\\n\\r\\n    str...\n              PUSH 60\t\t\t TreeDetails)\n              PUSH [tag] 218\t\t\t; // mapping to store u\n              DUP3 \t\t\t store \n              PUSH [tag] 97\t\t\t; // mapping t\n              JUMP \t\t\t; // mapping to store u\n            tag 218\t\t\t; // mapping to store u\n              JUMPDEST \t\t\t; // mapping to store u\n              PUSH 0\t\t\t with its tokenID\\r\\n    \n              PUSH 6\t\t\t\\r\\n    mapp\n              PUSH 0\t\t\t\\r\\n    mapping(uint2\n              DUP5 \t\t\tng(uint\n              DUP2 \t\t\t\\r\\n    mapping(uint2\n              MSTORE \t\t\t\\r\\n    mapping(uint2\n              PUSH 20\t\t\t\\r\\n    mapping(uint2\n              ADD \t\t\t\\r\\n    mapping(uint2\n              SWAP1 \t\t\t\\r\\n    mapping(uint2\n              DUP2 \t\t\t\\r\\n    mapping(uint2\n              MSTORE \t\t\t\\r\\n    mapping(uint2\n              PUSH 20\t\t\t\\r\\n    mapping(uint2\n              ADD \t\t\t\\r\\n    mapping(uint2\n              PUSH 0\t\t\t\\r\\n    mapping(uint2\n              KECCAK256 \t\t\t\\r\\n    mapping(uint2\n              DUP1 \t\t\t with its tokenID\\r\\n    }\\r\\n...\n              SLOAD \t\t\t with its tokenID\\r\\n    }\\r\\n...\n              PUSH [tag] 219\t\t\t with its tokenID\\r\\n    }\\r\\n...\n              SWAP1 \t\t\t with its tokenID\\r\\n    }\\r\\n...\n              PUSH [tag] 90\t\t\t with its tokenID\\r\\n    }\\r\\n...\n              JUMP \t\t\t with its tokenID\\r\\n    }\\r\\n...\n            tag 219\t\t\t with its tokenID\\r\\n    }\\r\\n...\n              JUMPDEST \t\t\t with its tokenID\\r\\n    }\\r\\n...\n              DUP1 \t\t\t with its tokenID\\r\\n    }\\r\\n...\n              PUSH 1F\t\t\t with its tokenID\\r\\n    }\\r\\n...\n              ADD \t\t\t with its tokenID\\r\\n    }\\r\\n...\n              PUSH 20\t\t\t with its tokenID\\r\\n    }\\r\\n...\n              DUP1 \t\t\t with its tokenID\\r\\n    }\\r\\n...\n              SWAP2 \t\t\t with its tokenID\\r\\n    }\\r\\n...\n              DIV \t\t\t with its tokenID\\r\\n    }\\r\\n...\n              MUL \t\t\t with its tokenID\\r\\n    }\\r\\n...\n              PUSH 20\t\t\t with its tokenID\\r\\n    }\\r\\n...\n              ADD \t\t\t with its tokenID\\r\\n    }\\r\\n...\n              PUSH 40\t\t\t with its tokenID\\r\\n    }\\r\\n...\n              MLOAD \t\t\t with its tokenID\\r\\n    }\\r\\n...\n              SWAP1 \t\t\t with its tokenID\\r\\n    }\\r\\n...\n              DUP2 \t\t\t with its tokenID\\r\\n    }\\r\\n...\n              ADD \t\t\t with its tokenID\\r\\n    }\\r\\n...\n              PUSH 40\t\t\t with its tokenID\\r\\n    }\\r\\n...\n              MSTORE \t\t\t with its tokenID\\r\\n    }\\r\\n...\n              DUP1 \t\t\t with its tokenID\\r\\n    }\\r\\n...\n              SWAP3 \t\t\t with its tokenID\\r\\n    }\\r\\n...\n              SWAP2 \t\t\t with its tokenID\\r\\n    }\\r\\n...\n              SWAP1 \t\t\t with its tokenID\\r\\n    }\\r\\n...\n              DUP2 \t\t\t with its tokenID\\r\\n    }\\r\\n...\n              DUP2 \t\t\t with its tokenID\\r\\n    }\\r\\n...\n              MSTORE \t\t\t with its tokenID\\r\\n    }\\r\\n...\n              PUSH 20\t\t\t with its tokenID\\r\\n    }\\r\\n...\n              ADD \t\t\t with its tokenID\\r\\n    }\\r\\n...\n              DUP3 \t\t\t with its tokenID\\r\\n    }\\r\\n...\n              DUP1 \t\t\t with its tokenID\\r\\n    }\\r\\n...\n              SLOAD \t\t\t with its tokenID\\r\\n    }\\r\\n...\n              PUSH [tag] 220\t\t\t with its tokenID\\r\\n    }\\r\\n...\n              SWAP1 \t\t\t with its tokenID\\r\\n    }\\r\\n...\n              PUSH [tag] 90\t\t\t with its tokenID\\r\\n    }\\r\\n...\n              JUMP \t\t\t with its tokenID\\r\\n    }\\r\\n...\n            tag 220\t\t\t with its tokenID\\r\\n    }\\r\\n...\n              JUMPDEST \t\t\t with its tokenID\\r\\n    }\\r\\n...\n              DUP1 \t\t\t with its tokenID\\r\\n    }\\r\\n...\n              ISZERO \t\t\t with its tokenID\\r\\n    }\\r\\n...\n              PUSH [tag] 221\t\t\t with its tokenID\\r\\n    }\\r\\n...\n              JUMPI \t\t\t with its tokenID\\r\\n    }\\r\\n...\n              DUP1 \t\t\t with its tokenID\\r\\n    }\\r\\n...\n              PUSH 1F\t\t\t with its tokenID\\r\\n    }\\r\\n...\n              LT \t\t\t with its tokenID\\r\\n    }\\r\\n...\n              PUSH [tag] 222\t\t\t with its tokenID\\r\\n    }\\r\\n...\n              JUMPI \t\t\t with its tokenID\\r\\n    }\\r\\n...\n              PUSH 100\t\t\t with its tokenID\\r\\n    }\\r\\n...\n              DUP1 \t\t\t with its tokenID\\r\\n    }\\r\\n...\n              DUP4 \t\t\t with its tokenID\\r\\n    }\\r\\n...\n              SLOAD \t\t\t with its tokenID\\r\\n    }\\r\\n...\n              DIV \t\t\t with its tokenID\\r\\n    }\\r\\n...\n              MUL \t\t\t with its tokenID\\r\\n    }\\r\\n...\n              DUP4 \t\t\t with its tokenID\\r\\n    }\\r\\n...\n              MSTORE \t\t\t with its tokenID\\r\\n    }\\r\\n...\n              SWAP2 \t\t\t with its tokenID\\r\\n    }\\r\\n...\n              PUSH 20\t\t\t with its tokenID\\r\\n    }\\r\\n...\n              ADD \t\t\t with its tokenID\\r\\n    }\\r\\n...\n              SWAP2 \t\t\t with its tokenID\\r\\n    }\\r\\n...\n              PUSH [tag] 221\t\t\t with its tokenID\\r\\n    }\\r\\n...\n              JUMP \t\t\t with its tokenID\\r\\n    }\\r\\n...\n            tag 222\t\t\t with its tokenID\\r\\n    }\\r\\n...\n              JUMPDEST \t\t\t with its tokenID\\r\\n    }\\r\\n...\n              DUP3 \t\t\t with its tokenID\\r\\n    }\\r\\n...\n              ADD \t\t\t with its tokenID\\r\\n    }\\r\\n...\n              SWAP2 \t\t\t with its tokenID\\r\\n    }\\r\\n...\n              SWAP1 \t\t\t with its tokenID\\r\\n    }\\r\\n...\n              PUSH 0\t\t\t with its tokenID\\r\\n    }\\r\\n...\n              MSTORE \t\t\t with its tokenID\\r\\n    }\\r\\n...\n              PUSH 20\t\t\t with its tokenID\\r\\n    }\\r\\n...\n              PUSH 0\t\t\t with its tokenID\\r\\n    }\\r\\n...\n              KECCAK256 \t\t\t with its tokenID\\r\\n    }\\r\\n...\n              SWAP1 \t\t\t with its tokenID\\r\\n    }\\r\\n...\n            tag 223\t\t\t with its tokenID\\r\\n    }\\r\\n...\n              JUMPDEST \t\t\t with its tokenID\\r\\n    }\\r\\n...\n              DUP2 \t\t\t with its tokenID\\r\\n    }\\r\\n...\n              SLOAD \t\t\t with its tokenID\\r\\n    }\\r\\n...\n              DUP2 \t\t\t with its tokenID\\r\\n    }\\r\\n...\n              MSTORE \t\t\t with its tokenID\\r\\n    }\\r\\n...\n              SWAP1 \t\t\t with its tokenID\\r\\n    }\\r\\n...\n              PUSH 1\t\t\t with its tokenID\\r\\n    }\\r\\n...\n              ADD \t\t\t with its tokenID\\r\\n    }\\r\\n...\n              SWAP1 \t\t\t with its tokenID\\r\\n    }\\r\\n...\n              PUSH 20\t\t\t with its tokenID\\r\\n    }\\r\\n...\n              ADD \t\t\t with its tokenID\\r\\n    }\\r\\n...\n              DUP1 \t\t\t with its tokenID\\r\\n    }\\r\\n...\n              DUP4 \t\t\t with its tokenID\\r\\n    }\\r\\n...\n              GT \t\t\t with its tokenID\\r\\n    }\\r\\n...\n              PUSH [tag] 223\t\t\t with its tokenID\\r\\n    }\\r\\n...\n              JUMPI \t\t\t with its tokenID\\r\\n    }\\r\\n...\n              DUP3 \t\t\t with its tokenID\\r\\n    }\\r\\n...\n              SWAP1 \t\t\t with its tokenID\\r\\n    }\\r\\n...\n              SUB \t\t\t with its tokenID\\r\\n    }\\r\\n...\n              PUSH 1F\t\t\t with its tokenID\\r\\n    }\\r\\n...\n              AND \t\t\t with its tokenID\\r\\n    }\\r\\n...\n              DUP3 \t\t\t with its tokenID\\r\\n    }\\r\\n...\n              ADD \t\t\t with its tokenID\\r\\n    }\\r\\n...\n              SWAP2 \t\t\t with its tokenID\\r\\n    }\\r\\n...\n            tag 221\t\t\t with its tokenID\\r\\n    }\\r\\n...\n              JUMPDEST \t\t\t with its tokenID\\r\\n    }\\r\\n...\n              POP \t\t\t with its tokenID\\r\\n    }\\r\\n...\n              POP \t\t\t with its tokenID\\r\\n    }\\r\\n...\n              POP \t\t\t with its tokenID\\r\\n    }\\r\\n...\n              POP \t\t\t with its tokenID\\r\\n    }\\r\\n...\n              POP \t\t\t with its tokenID\\r\\n    }\\r\\n...\n              SWAP1 \t\t\t with its tokenID\\r\\n    }\\r\\n...\n              POP \t\t\t with its tokenID\\r\\n    }\\r\\n...\n              PUSH 0\t\t\tCollection) public\n              PUSH [tag] 224\t\t\teecollecti\n              PUSH [tag] 225\t\t\teecollec\n              JUMP \t\t\teecollecti\n            tag 224\t\t\teecollecti\n              JUMPDEST \t\t\teecollecti\n              SWAP1 \t\t\tCollection) public treecollect...\n              POP \t\t\tCollection) public treecollect...\n              PUSH 0\t\t\te\n              DUP2 \t\t\trTre\n              MLOAD \t\t\t=> UserTreeMapping\n              SUB \t\t\t=> UserTreeMapping) use\n              PUSH [tag] 226\t\t\t256 => UserTreeMapping) userTr...\n              JUMPI \t\t\t256 => UserTreeMapping) userTr...\n              DUP2 \t\t\tTree with\n              SWAP3 \t\t\tg of a Tree with\n              POP \t\t\tg of a Tree with\n              POP \t\t\tg of a Tree with\n              POP \t\t\tg of a Tree with\n              PUSH [tag] 217\t\t\tg of a Tree with\n              JUMP \t\t\tg of a Tree with\n            tag 226\t\t\t256 => UserTreeMapping) userTr...\n              JUMPDEST \t\t\t256 => UserTreeMapping) userTr...\n              PUSH 0\t\t\te\n              DUP3 \t\t\t function\n              MLOAD \t\t\t\\n\\r\\n    function mintNew\n              GT \t\t\t\\n\\r\\n    function mintNewTree\n              ISZERO \t\t\tool\\r\\n\\r\\n    function mintNe...\n              PUSH [tag] 227\t\t\tool\\r\\n\\r\\n    function mintNe...\n              JUMPI \t\t\tool\\r\\n\\r\\n    function mintNe...\n              DUP1 \t\t\ter =\n              DUP3 \t\t\tadmin, \"N\n              PUSH 40\t\t\t require(msg.sender == admin, ...\n              MLOAD \t\t\t require(msg.sender == admin, ...\n              PUSH 20\t\t\t require(msg.sender == admin, ...\n              ADD \t\t\t require(msg.sender == admin, ...\n              PUSH [tag] 228\t\t\t require(msg.sender == admin, ...\n              SWAP3 \t\t\t require(msg.sender == admin, ...\n              SWAP2 \t\t\t require(msg.sender == admin, ...\n              SWAP1 \t\t\t require(msg.sender == admin, ...\n              PUSH [tag] 229\t\t\t require(msg.sender == admin, ...\n              JUMP \t\t\t require(msg.sender == admin, ...\n            tag 228\t\t\t require(msg.sender == admin, ...\n              JUMPDEST \t\t\t require(msg.sender == admin, ...\n              PUSH 40\t\t\t require(msg.sender == admin, ...\n              MLOAD \t\t\t require(msg.sender == admin, ...\n              PUSH 20\t\t\t require(msg.sender == admin, ...\n              DUP2 \t\t\t require(msg.sender == admin, ...\n              DUP4 \t\t\t require(msg.sender == admin, ...\n              SUB \t\t\t require(msg.sender == admin, ...\n              SUB \t\t\t require(msg.sender == admin, ...\n              DUP2 \t\t\t require(msg.sender == admin, ...\n              MSTORE \t\t\t require(msg.sender == admin, ...\n              SWAP1 \t\t\t require(msg.sender == admin, ...\n              PUSH 40\t\t\t require(msg.sender == admin, ...\n              MSTORE \t\t\t require(msg.sender == admin, ...\n              SWAP3 \t\t\tlic {\\r\\n        require(msg.s...\n              POP \t\t\tlic {\\r\\n        require(msg.s...\n              POP \t\t\tlic {\\r\\n        require(msg.s...\n              POP \t\t\tlic {\\r\\n        require(msg.s...\n              PUSH [tag] 217\t\t\tlic {\\r\\n        require(msg.s...\n              JUMP \t\t\tlic {\\r\\n        require(msg.s...\n            tag 227\t\t\tool\\r\\n\\r\\n    function mintNe...\n              JUMPDEST \t\t\tool\\r\\n\\r\\n    function mintNe...\n              PUSH [tag] 230\t\t\tionCounter.increment();\n              DUP5 \t\t\tement()\n              PUSH [tag] 231\t\t\tionCounter.inc\n              JUMP \t\t\tionCounter.increment();\n            tag 230\t\t\tionCounter.increment();\n              JUMPDEST \t\t\tionCounter.increment();\n              SWAP3 \t\t\tCollectionCounter.increment();\n              POP \t\t\tCollectionCounter.increment();\n              POP \t\t\tCollectionCounter.increment();\n              POP \t\t\tCollectionCounter.increment();\n            tag 217\t\t\tlized;\\r\\n    }\\r\\n\\r\\n    str...\n              JUMPDEST \t\t\tlized;\\r\\n    }\\r\\n\\r\\n    str...\n              SWAP2 \t\t\tlized;\\r\\n    }\\r\\n\\r\\n    str...\n              SWAP1 \t\t\tlized;\\r\\n    }\\r\\n\\r\\n    str...\n              POP \t\t\tlized;\\r\\n    }\\r\\n\\r\\n    str...\n              JUMP \t\t\tlized;\\r\\n    }\\r\\n\\r\\n    str...\n            tag 160\t\t\tts tokenID\\r\\n    }\\r\\n\\r\\n   ...\n              JUMPDEST \t\t\tts tokenID\\r\\n    }\\r\\n\\r\\n   ...\n              PUSH 1\t\t\tc\n              DUP2 \t\t\tto keep\n              PUSH 0\t\t\tto keep record\n              ADD \t\t\tto keep record\n              PUSH 0\t\t\tto keep record\n              DUP3 \t\t\tto keep record of c\n              DUP3 \t\t\tto keep record of c\n              SLOAD \t\t\tto keep record of c\n              ADD \t\t\tto keep record of c\n              SWAP3 \t\t\tto keep record of c\n              POP \t\t\tto keep record of c\n              POP \t\t\tto keep record of c\n              DUP2 \t\t\tto keep record of c\n              SWAP1 \t\t\tto keep record of c\n              SSTORE \t\t\tto keep record of c\n              POP \t\t\tto keep record of c\n              POP \t\t\tts tokenID\\r\\n    }\\r\\n\\r\\n   ...\n              JUMP \t\t\tts tokenID\\r\\n    }\\r\\n\\r\\n   ...\n            tag 162\t\t\tstruct UserTreeMapping {\\r\\n  ...\n              JUMPDEST \t\t\tstruct UserTreeMapping {\\r\\n  ...\n              PUSH 0\t\t\t treeDe\n              DUP2 \t\t\to store\n              PUSH 0\t\t\to store user d\n              ADD \t\t\to store user d\n              SLOAD \t\t\to store user d\n              SWAP1 \t\t\tpping to store user d\n              POP \t\t\tpping to store user d\n              SWAP2 \t\t\tstruct UserTreeMapping {\\r\\n  ...\n              SWAP1 \t\t\tstruct UserTreeMapping {\\r\\n  ...\n              POP \t\t\tstruct UserTreeMapping {\\r\\n  ...\n              JUMP \t\t\tstruct UserTreeMapping {\\r\\n  ...\n            tag 167\t\t\t\n              JUMPDEST \t\t\t\n              PUSH [tag] 235\t\t\t\n              DUP3 \t\t\t\n              DUP3 \t\t\t\n              PUSH 40\t\t\t\n              MLOAD \t\t\t\n              DUP1 \t\t\t\n              PUSH 20\t\t\t\n              ADD \t\t\t\n              PUSH 40\t\t\t\n              MSTORE \t\t\t\n              DUP1 \t\t\t\n              PUSH 0\t\t\t\n              DUP2 \t\t\t\n              MSTORE \t\t\t\n              POP \t\t\t\n              PUSH [tag] 236\t\t\t\n              JUMP \t\t\t\n            tag 235\t\t\t\n              JUMPDEST \t\t\t\n              POP \t\t\t\n              POP \t\t\t\n              JUMP \t\t\t\n            tag 169\t\t\t collectionInitialized[collect...\n              JUMPDEST \t\t\t collectionInitialized[collect...\n              PUSH [tag] 238\t\t\tstring memory _u\n              DUP3 \t\t\temory _\n              PUSH [tag] 177\t\t\tstring \n              JUMP \t\t\tstring memory _u\n            tag 238\t\t\tstring memory _u\n              JUMPDEST \t\t\tstring memory _u\n              PUSH [tag] 239\t\t\ttionID, string memory _uri) pu...\n              JUMPI \t\t\ttionID, string memory _uri) pu...\n              PUSH 40\t\t\ttionID, string memory _uri) pu...\n              MLOAD \t\t\ttionID, string memory _uri) pu...\n              PUSH 8C379A000000000000000000000000000000000000000000000000000000000\t\t\ttionID, string memory _uri) pu...\n              DUP2 \t\t\ttionID, string memory _uri) pu...\n              MSTORE \t\t\ttionID, string memory _uri) pu...\n              PUSH 4\t\t\ttionID, string memory _uri) pu...\n              ADD \t\t\ttionID, string memory _uri) pu...\n              PUSH [tag] 240\t\t\ttionID, string memory _uri) pu...\n              SWAP1 \t\t\ttionID, string memory _uri) pu...\n              PUSH [tag] 241\t\t\ttionID, string memory _uri) pu...\n              JUMP \t\t\ttionID, string memory _uri) pu...\n            tag 240\t\t\ttionID, string memory _uri) pu...\n              JUMPDEST \t\t\ttionID, string memory _uri) pu...\n              PUSH 40\t\t\ttionID, string memory _uri) pu...\n              MLOAD \t\t\ttionID, string memory _uri) pu...\n              DUP1 \t\t\ttionID, string memory _uri) pu...\n              SWAP2 \t\t\ttionID, string memory _uri) pu...\n              SUB \t\t\ttionID, string memory _uri) pu...\n              SWAP1 \t\t\ttionID, string memory _uri) pu...\n              REVERT \t\t\ttionID, string memory _uri) pu...\n            tag 239\t\t\ttionID, string memory _uri) pu...\n              JUMPDEST \t\t\ttionID, string memory _uri) pu...\n              DUP1 \t\t\tction is \n              PUSH 6\t\t\tionID] == \n              PUSH 0\t\t\tionID] == true, \"Co\n              DUP5 \t\t\true, \"C\n              DUP2 \t\t\tionID] == true, \"Co\n              MSTORE \t\t\tionID] == true, \"Co\n              PUSH 20\t\t\tionID] == true, \"Co\n              ADD \t\t\tionID] == true, \"Co\n              SWAP1 \t\t\tionID] == true, \"Co\n              DUP2 \t\t\tionID] == true, \"Co\n              MSTORE \t\t\tionID] == true, \"Co\n              PUSH 20\t\t\tionID] == true, \"Co\n              ADD \t\t\tionID] == true, \"Co\n              PUSH 0\t\t\tionID] == true, \"Co\n              KECCAK256 \t\t\tionID] == true, \"Co\n              SWAP1 \t\t\tionID] == true, \"Collection is...\n              DUP2 \t\t\tionID] == true, \"Collection is...\n              PUSH [tag] 242\t\t\tionID] == true, \"Collection is...\n              SWAP2 \t\t\tionID] == true, \"Collection is...\n              SWAP1 \t\t\tionID] == true, \"Collection is...\n              PUSH [tag] 243\t\t\tionID] == true, \"Collection is...\n              JUMP \t\t\tionID] == true, \"Collection is...\n            tag 242\t\t\tionID] == true, \"Collection is...\n              JUMPDEST \t\t\tionID] == true, \"Collection is...\n              POP \t\t\tionID] == true, \"Collection is...\n              PUSH F8E1A15ABA9398E019F0B49DF1A4FDE98EE17AE345CB5F6B5E2C27F5033E8CE7\t\t\t);\\r\\n\\r\\n        require(S\n              DUP3 \t\t\tequire(\n              PUSH 40\t\t\t);\\r\\n\\r\\n        require(S\n              MLOAD \t\t\t);\\r\\n\\r\\n        require(S\n              PUSH [tag] 244\t\t\t);\\r\\n\\r\\n        require(S\n              SWAP2 \t\t\t);\\r\\n\\r\\n        require(S\n              SWAP1 \t\t\t);\\r\\n\\r\\n        require(S\n              PUSH [tag] 57\t\t\t);\\r\\n\\r\\n        require(S\n              JUMP \t\t\t);\\r\\n\\r\\n        require(S\n            tag 244\t\t\t);\\r\\n\\r\\n        require(S\n              JUMPDEST \t\t\t);\\r\\n\\r\\n        require(S\n              PUSH 40\t\t\t);\\r\\n\\r\\n        require(S\n              MLOAD \t\t\t);\\r\\n\\r\\n        require(S\n              DUP1 \t\t\t);\\r\\n\\r\\n        require(S\n              SWAP2 \t\t\t);\\r\\n\\r\\n        require(S\n              SUB \t\t\t);\\r\\n\\r\\n        require(S\n              SWAP1 \t\t\t);\\r\\n\\r\\n        require(S\n              LOG1 \t\t\t);\\r\\n\\r\\n        require(S\n              POP \t\t\t collectionInitialized[collect...\n              POP \t\t\t collectionInitialized[collect...\n              JUMP \t\t\t collectionInitialized[collect...\n            tag 174\t\t\tID] = newCollection;\\r\\n      ...\n              JUMPDEST \t\t\tID] = newCollection;\\r\\n      ...\n              PUSH 0\t\t\tree(\n              PUSH 80AC58CD00000000000000000000000000000000000000000000000000000000\t\t\tic {\\r\\n\\r\\n        require(c\n              PUSH FFFFFFFFFFFFFFFFFFFFFFFFFFFFFFFFFFFFFFFFFFFFFFFFFFFFFFFF\t\t\tmory _uri) public {\\r\\n\\r\\n   ...\n              NOT \t\t\tmory _uri) public {\\r\\n\\r\\n   ...\n              AND \t\t\tmory _uri) public {\\r\\n\\r\\n   ...\n              DUP3 \t\t\tmory _uri) \n              PUSH FFFFFFFFFFFFFFFFFFFFFFFFFFFFFFFFFFFFFFFFFFFFFFFFFFFFFFFF\t\t\tmory _uri) public {\\r\\n\\r\\n   ...\n              NOT \t\t\tmory _uri) public {\\r\\n\\r\\n   ...\n              AND \t\t\tmory _uri) public {\\r\\n\\r\\n   ...\n              EQ \t\t\tmory _uri) public {\\r\\n\\r\\n   ...\n              DUP1 \t\t\tmory _uri) public {\\r\\n\\r\\n   ...\n              PUSH [tag] 246\t\t\tmory _uri) public {\\r\\n\\r\\n   ...\n              JUMPI \t\t\tmory _uri) public {\\r\\n\\r\\n   ...\n              POP \t\t\tmory _uri) public {\\r\\n\\r\\n   ...\n              PUSH 5B5E139F00000000000000000000000000000000000000000000000000000000\t\t\tID] == true, \"Collection is no...\n              PUSH FFFFFFFFFFFFFFFFFFFFFFFFFFFFFFFFFFFFFFFFFFFFFFFFFFFFFFFF\t\t\tized[collectionID] == true, \"C...\n              NOT \t\t\tized[collectionID] == true, \"C...\n              AND \t\t\tized[collectionID] == true, \"C...\n              DUP3 \t\t\tized[collec\n              PUSH FFFFFFFFFFFFFFFFFFFFFFFFFFFFFFFFFFFFFFFFFFFFFFFFFFFFFFFF\t\t\tized[collectionID] == true, \"C...\n              NOT \t\t\tized[collectionID] == true, \"C...\n              AND \t\t\tized[collectionID] == true, \"C...\n              EQ \t\t\tized[collectionID] == true, \"C...\n            tag 246\t\t\tmory _uri) public {\\r\\n\\r\\n   ...\n              JUMPDEST \t\t\tmory _uri) public {\\r\\n\\r\\n   ...\n              DUP1 \t\t\tmory _uri) public {\\r\\n\\r\\n   ...\n              PUSH [tag] 247\t\t\tmory _uri) public {\\r\\n\\r\\n   ...\n              JUMPI \t\t\tmory _uri) public {\\r\\n\\r\\n   ...\n              POP \t\t\tmory _uri) public {\\r\\n\\r\\n   ...\n              PUSH [tag] 248\t\t\t\\n        require(STNEAR.trans...\n              DUP3 \t\t\ttransferFro\n              PUSH [tag] 249\t\t\t\\n        require(STNEAR\n              JUMP \t\t\t\\n        require(STNEAR.trans...\n            tag 248\t\t\t\\n        require(STNEAR.trans...\n              JUMPDEST \t\t\t\\n        require(STNEAR.trans...\n            tag 247\t\t\tmory _uri) public {\\r\\n\\r\\n   ...\n              JUMPDEST \t\t\tmory _uri) public {\\r\\n\\r\\n   ...\n              SWAP1 \t\t\tectionID, string memory _uri) ...\n              POP \t\t\tectionID, string memory _uri) ...\n              SWAP2 \t\t\tID] = newCollection;\\r\\n      ...\n              SWAP1 \t\t\tID] = newCollection;\\r\\n      ...\n              POP \t\t\tID] = newCollection;\\r\\n      ...\n              JUMP \t\t\tID] = newCollection;\\r\\n      ...\n            tag 177\t\t\t\n              JUMPDEST \t\t\t\n              PUSH 0\t\t\t\n              DUP1 \t\t\t\n              PUSH FFFFFFFFFFFFFFFFFFFFFFFFFFFFFFFFFFFFFFFF\t\t\t\n              AND \t\t\t\n              PUSH [tag] 251\t\t\t\n              DUP4 \t\t\t\n              PUSH [tag] 126\t\t\t\n              JUMP \t\t\t\n            tag 251\t\t\t\n              JUMPDEST \t\t\t\n              PUSH FFFFFFFFFFFFFFFFFFFFFFFFFFFFFFFFFFFFFFFF\t\t\t\n              AND \t\t\t\n              EQ \t\t\t\n              ISZERO \t\t\t\n              SWAP1 \t\t\t\n              POP \t\t\t\n              SWAP2 \t\t\t\n              SWAP1 \t\t\t\n              POP \t\t\t\n              JUMP \t\t\t\n            tag 198\t\t\t\n              JUMPDEST \t\t\t\n              POP \t\t\t\n              POP \t\t\t\n              POP \t\t\t\n              POP \t\t\t\n              JUMP \t\t\t\n            tag 203\t\t\t\n              JUMPDEST \t\t\t\n              POP \t\t\t\n              POP \t\t\t\n              POP \t\t\t\n              POP \t\t\t\n              JUMP \t\t\t\n            tag 213\t\t\t\n              JUMPDEST \t\t\t\n              PUSH 0\t\t\t\n              PUSH [tag] 255\t\t\t\n              DUP5 \t\t\t\n              PUSH FFFFFFFFFFFFFFFFFFFFFFFFFFFFFFFFFFFFFFFF\t\t\t\n              AND \t\t\t\n              PUSH [tag] 256\t\t\t\n              JUMP \t\t\t\n            tag 255\t\t\t\n              JUMPDEST \t\t\t\n              ISZERO \t\t\t\n              PUSH [tag] 257\t\t\t\n              JUMPI \t\t\t\n              DUP4 \t\t\t\n              PUSH FFFFFFFFFFFFFFFFFFFFFFFFFFFFFFFFFFFFFFFF\t\t\t\n              AND \t\t\t\n              PUSH 150B7A02\t\t\t\n              PUSH [tag] 258\t\t\t\n              PUSH [tag] 104\t\t\t\n              JUMP \t\t\t\n            tag 258\t\t\t\n              JUMPDEST \t\t\t\n              DUP8 \t\t\t\n              DUP7 \t\t\t\n              DUP7 \t\t\t\n              PUSH 40\t\t\t\n              MLOAD \t\t\t\n              DUP6 \t\t\t\n              PUSH FFFFFFFF\t\t\t\n              AND \t\t\t\n              PUSH E0\t\t\t\n              SHL \t\t\t\n              DUP2 \t\t\t\n              MSTORE \t\t\t\n              PUSH 4\t\t\t\n              ADD \t\t\t\n              PUSH [tag] 259\t\t\t\n              SWAP5 \t\t\t\n              SWAP4 \t\t\t\n              SWAP3 \t\t\t\n              SWAP2 \t\t\t\n              SWAP1 \t\t\t\n              PUSH [tag] 260\t\t\t\n              JUMP \t\t\t\n            tag 259\t\t\t\n              JUMPDEST \t\t\t\n              PUSH 20\t\t\t\n              PUSH 40\t\t\t\n              MLOAD \t\t\t\n              DUP1 \t\t\t\n              DUP4 \t\t\t\n              SUB \t\t\t\n              DUP2 \t\t\t\n              PUSH 0\t\t\t\n              DUP8 \t\t\t\n              GAS \t\t\t\n              CALL \t\t\t\n              SWAP3 \t\t\t\n              POP \t\t\t\n              POP \t\t\t\n              POP \t\t\t\n              DUP1 \t\t\t\n              ISZERO \t\t\t\n              PUSH [tag] 261\t\t\t\n              JUMPI \t\t\t\n              POP \t\t\t\n              PUSH 40\t\t\t\n              MLOAD \t\t\t\n              RETURNDATASIZE \t\t\t\n              PUSH 1F\t\t\t\n              NOT \t\t\t\n              PUSH 1F\t\t\t\n              DUP3 \t\t\t\n              ADD \t\t\t\n              AND \t\t\t\n              DUP3 \t\t\t\n              ADD \t\t\t\n              DUP1 \t\t\t\n              PUSH 40\t\t\t\n              MSTORE \t\t\t\n              POP \t\t\t\n              DUP2 \t\t\t\n              ADD \t\t\t\n              SWAP1 \t\t\t\n              PUSH [tag] 262\t\t\t\n              SWAP2 \t\t\t\n              SWAP1 \t\t\t\n              PUSH [tag] 263\t\t\t\n              JUMP \t\t\t\n            tag 262\t\t\t\n              JUMPDEST \t\t\t\n              PUSH 1\t\t\t\n            tag 261\t\t\t\n              JUMPDEST \t\t\t\n              PUSH [tag] 264\t\t\t\n              JUMPI \t\t\t\n              RETURNDATASIZE \t\t\t\n              DUP1 \t\t\t\n              PUSH 0\t\t\t\n              DUP2 \t\t\t\n              EQ \t\t\t\n              PUSH [tag] 269\t\t\t\n              JUMPI \t\t\t\n              PUSH 40\t\t\t\n              MLOAD \t\t\t\n              SWAP2 \t\t\t\n              POP \t\t\t\n              PUSH 1F\t\t\t\n              NOT \t\t\t\n              PUSH 3F\t\t\t\n              RETURNDATASIZE \t\t\t\n              ADD \t\t\t\n              AND \t\t\t\n              DUP3 \t\t\t\n              ADD \t\t\t\n              PUSH 40\t\t\t\n              MSTORE \t\t\t\n              RETURNDATASIZE \t\t\t\n              DUP3 \t\t\t\n              MSTORE \t\t\t\n              RETURNDATASIZE \t\t\t\n              PUSH 0\t\t\t\n              PUSH 20\t\t\t\n              DUP5 \t\t\t\n              ADD \t\t\t\n              RETURNDATACOPY \t\t\t\n              PUSH [tag] 268\t\t\t\n              JUMP \t\t\t\n            tag 269\t\t\t\n              JUMPDEST \t\t\t\n              PUSH 60\t\t\t\n              SWAP2 \t\t\t\n              POP \t\t\t\n            tag 268\t\t\t\n              JUMPDEST \t\t\t\n              POP \t\t\t\n              PUSH 0\t\t\t\n              DUP2 \t\t\t\n              MLOAD \t\t\t\n              SUB \t\t\t\n              PUSH [tag] 270\t\t\t\n              JUMPI \t\t\t\n              PUSH 40\t\t\t\n              MLOAD \t\t\t\n              PUSH 8C379A000000000000000000000000000000000000000000000000000000000\t\t\t\n              DUP2 \t\t\t\n              MSTORE \t\t\t\n              PUSH 4\t\t\t\n              ADD \t\t\t\n              PUSH [tag] 271\t\t\t\n              SWAP1 \t\t\t\n              PUSH [tag] 216\t\t\t\n              JUMP \t\t\t\n            tag 271\t\t\t\n              JUMPDEST \t\t\t\n              PUSH 40\t\t\t\n              MLOAD \t\t\t\n              DUP1 \t\t\t\n              SWAP2 \t\t\t\n              SUB \t\t\t\n              SWAP1 \t\t\t\n              REVERT \t\t\t\n            tag 270\t\t\t\n              JUMPDEST \t\t\t\n              DUP1 \t\t\t\n              MLOAD \t\t\t\n              DUP2 \t\t\t\n              PUSH 20\t\t\t\n              ADD \t\t\t\n              REVERT \t\t\t\n            tag 264\t\t\t\n              JUMPDEST \t\t\t\n              PUSH 150B7A02\t\t\t\n              PUSH E0\t\t\t\n              SHL \t\t\t\n              PUSH FFFFFFFFFFFFFFFFFFFFFFFFFFFFFFFFFFFFFFFFFFFFFFFFFFFFFFFF\t\t\t\n              NOT \t\t\t\n              AND \t\t\t\n              DUP2 \t\t\t\n              PUSH FFFFFFFFFFFFFFFFFFFFFFFFFFFFFFFFFFFFFFFFFFFFFFFFFFFFFFFF\t\t\t\n              NOT \t\t\t\n              AND \t\t\t\n              EQ \t\t\t\n              SWAP2 \t\t\t\n              POP \t\t\t\n              POP \t\t\t\n              PUSH [tag] 254\t\t\t\n              JUMP \t\t\t\n            tag 257\t\t\t\n              JUMPDEST \t\t\t\n              PUSH 1\t\t\t\n              SWAP1 \t\t\t\n              POP \t\t\t\n            tag 254\t\t\t\n              JUMPDEST \t\t\t\n              SWAP5 \t\t\t\n              SWAP4 \t\t\t\n              POP \t\t\t\n              POP \t\t\t\n              POP \t\t\t\n              POP \t\t\t\n              JUMP \t\t\t\n            tag 225\t\t\tn treecollection = TreeCollect...\n              JUMPDEST \t\t\tn treecollection = TreeCollect...\n              PUSH 60\t\t\tcollectionID]\n              PUSH 40\t\t\t  require\n              MLOAD \t\t\t  require\n              DUP1 \t\t\t  require\n              PUSH 20\t\t\t  require\n              ADD \t\t\t  require\n              PUSH 40\t\t\t  require\n              MSTORE \t\t\t  require\n              DUP1 \t\t\t  require\n              PUSH 0\t\t\t  require\n              DUP2 \t\t\t  require\n              MSTORE \t\t\t  require\n              POP \t\t\t  require\n              SWAP1 \t\t\t  require\n              POP \t\t\t  require\n              SWAP1 \t\t\tn treecollection = TreeCollect...\n              JUMP \t\t\tn treecollection = TreeCollect...\n            tag 231\t\t\tm failed\"); \\r\\n\\r\\n        us...\n              JUMPDEST \t\t\tm failed\"); \\r\\n\\r\\n        us...\n              PUSH 60\t\t\ttWatered = bl\n              PUSH [tag] 277\t\t\tp;\\r\\n        userTree[_c\n              DUP3 \t\t\trTree[_\n              PUSH [tag] 97\t\t\tp;\\r\\n        us\n              JUMP \t\t\tp;\\r\\n        userTree[_c\n            tag 277\t\t\tp;\\r\\n        userTree[_c\n              JUMPDEST \t\t\tp;\\r\\n        userTree[_c\n              PUSH 0\t\t\t].treeDetails[_tokenI\n              PUSH [tag] 278\t\t\twateredTim\n              PUSH [tag] 225\t\t\twateredT\n              JUMP \t\t\twateredTim\n            tag 278\t\t\twateredTim\n              JUMPDEST \t\t\twateredTim\n              SWAP1 \t\t\t].treeDetails[_tokenID].watere...\n              POP \t\t\t].treeDetails[_tokenID].watere...\n              PUSH 0\t\t\t\\r\n              DUP2 \t\t\turn tru\n              MLOAD \t\t\t   return true;\\r\\n    \n              GT \t\t\t   return true;\\r\\n    }\\r\\n\\r\n              PUSH [tag] 279\t\t\t   return true;\\r\\n    }\\r\\n\\r...\n              JUMPI \t\t\t   return true;\\r\\n    }\\r\\n\\r...\n              PUSH 40\t\t\t   return true;\\r\\n    }\\r\\n\\r...\n              MLOAD \t\t\t   return true;\\r\\n    }\\r\\n\\r...\n              DUP1 \t\t\t   return true;\\r\\n    }\\r\\n\\r...\n              PUSH 20\t\t\t   return true;\\r\\n    }\\r\\n\\r...\n              ADD \t\t\t   return true;\\r\\n    }\\r\\n\\r...\n              PUSH 40\t\t\t   return true;\\r\\n    }\\r\\n\\r...\n              MSTORE \t\t\t   return true;\\r\\n    }\\r\\n\\r...\n              DUP1 \t\t\t   return true;\\r\\n    }\\r\\n\\r...\n              PUSH 0\t\t\t   return true;\\r\\n    }\\r\\n\\r...\n              DUP2 \t\t\t   return true;\\r\\n    }\\r\\n\\r...\n              MSTORE \t\t\t   return true;\\r\\n    }\\r\\n\\r...\n              POP \t\t\t   return true;\\r\\n    }\\r\\n\\r...\n              PUSH [tag] 280\t\t\t   return true;\\r\\n    }\\r\\n\\r...\n              JUMP \t\t\t   return true;\\r\\n    }\\r\\n\\r...\n            tag 279\t\t\t   return true;\\r\\n    }\\r\\n\\r...\n              JUMPDEST \t\t\t   return true;\\r\\n    }\\r\\n\\r...\n              DUP1 \t\t\t _colle\n              PUSH [tag] 281\t\t\tionID, uint256 _to\n              DUP5 \t\t\tionID, \n              PUSH [tag] 282\t\t\tionID, uint256 _\n              JUMP \t\t\tionID, uint256 _to\n            tag 281\t\t\tionID, uint256 _to\n              JUMPDEST \t\t\tionID, uint256 _to\n              PUSH 40\t\t\tion claim(uint256 _collectionI...\n              MLOAD \t\t\tion claim(uint256 _collectionI...\n              PUSH 20\t\t\tion claim(uint256 _collectionI...\n              ADD \t\t\tion claim(uint256 _collectionI...\n              PUSH [tag] 283\t\t\tion claim(uint256 _collectionI...\n              SWAP3 \t\t\tion claim(uint256 _collectionI...\n              SWAP2 \t\t\tion claim(uint256 _collectionI...\n              SWAP1 \t\t\tion claim(uint256 _collectionI...\n              PUSH [tag] 229\t\t\tion claim(uint256 _collectionI...\n              JUMP \t\t\tion claim(uint256 _collectionI...\n            tag 283\t\t\tion claim(uint256 _collectionI...\n              JUMPDEST \t\t\tion claim(uint256 _collectionI...\n              PUSH 40\t\t\tion claim(uint256 _collectionI...\n              MLOAD \t\t\tion claim(uint256 _collectionI...\n              PUSH 20\t\t\tion claim(uint256 _collectionI...\n              DUP2 \t\t\tion claim(uint256 _collectionI...\n              DUP4 \t\t\tion claim(uint256 _collectionI...\n              SUB \t\t\tion claim(uint256 _collectionI...\n              SUB \t\t\tion claim(uint256 _collectionI...\n              DUP2 \t\t\tion claim(uint256 _collectionI...\n              MSTORE \t\t\tion claim(uint256 _collectionI...\n              SWAP1 \t\t\tion claim(uint256 _collectionI...\n              PUSH 40\t\t\tion claim(uint256 _collectionI...\n              MSTORE \t\t\tion claim(uint256 _collectionI...\n            tag 280\t\t\t   return true;\\r\\n    }\\r\\n\\r...\n              JUMPDEST \t\t\t   return true;\\r\\n    }\\r\\n\\r...\n              SWAP2 \t\t\t\\r\\n        return true;\\r\\n  ...\n              POP \t\t\t\\r\\n        return true;\\r\\n  ...\n              POP \t\t\t\\r\\n        return true;\\r\\n  ...\n              SWAP2 \t\t\tm failed\"); \\r\\n\\r\\n        us...\n              SWAP1 \t\t\tm failed\"); \\r\\n\\r\\n        us...\n              POP \t\t\tm failed\"); \\r\\n\\r\\n        us...\n              JUMP \t\t\tm failed\"); \\r\\n\\r\\n        us...\n            tag 236\t\t\t\n              JUMPDEST \t\t\t\n              PUSH [tag] 285\t\t\t\n              DUP4 \t\t\t\n              DUP4 \t\t\t\n              PUSH [tag] 286\t\t\t\n              JUMP \t\t\t\n            tag 285\t\t\t\n              JUMPDEST \t\t\t\n              PUSH [tag] 287\t\t\t\n              PUSH 0\t\t\t\n              DUP5 \t\t\t\n              DUP5 \t\t\t\n              DUP5 \t\t\t\n              PUSH [tag] 213\t\t\t\n              JUMP \t\t\t\n            tag 287\t\t\t\n              JUMPDEST \t\t\t\n              PUSH [tag] 288\t\t\t\n              JUMPI \t\t\t\n              PUSH 40\t\t\t\n              MLOAD \t\t\t\n              PUSH 8C379A000000000000000000000000000000000000000000000000000000000\t\t\t\n              DUP2 \t\t\t\n              MSTORE \t\t\t\n              PUSH 4\t\t\t\n              ADD \t\t\t\n              PUSH [tag] 289\t\t\t\n              SWAP1 \t\t\t\n              PUSH [tag] 216\t\t\t\n              JUMP \t\t\t\n            tag 289\t\t\t\n              JUMPDEST \t\t\t\n              PUSH 40\t\t\t\n              MLOAD \t\t\t\n              DUP1 \t\t\t\n              SWAP2 \t\t\t\n              SUB \t\t\t\n              SWAP1 \t\t\t\n              REVERT \t\t\t\n            tag 288\t\t\t\n              JUMPDEST \t\t\t\n              POP \t\t\t\n              POP \t\t\t\n              POP \t\t\t\n              JUMP \t\t\t\n            tag 249\t\t\truct UserTreeMapping {\\r\\n    ...\n              JUMPDEST \t\t\truct UserTreeMapping {\\r\\n    ...\n              PUSH 0\t\t\tng t\n              PUSH 1FFC9A700000000000000000000000000000000000000000000000000000000\t\t\tnID\\r\\n    }\\r\\n\\r\\n    mappin...\n              PUSH FFFFFFFFFFFFFFFFFFFFFFFFFFFFFFFFFFFFFFFFFFFFFFFFFFFFFFFF\t\t\ts with its tokenID\\r\\n    }\\r\\...\n              NOT \t\t\ts with its tokenID\\r\\n    }\\r\\...\n              AND \t\t\ts with its tokenID\\r\\n    }\\r\\...\n              DUP3 \t\t\ts with its \n              PUSH FFFFFFFFFFFFFFFFFFFFFFFFFFFFFFFFFFFFFFFFFFFFFFFFFFFFFFFF\t\t\ts with its tokenID\\r\\n    }\\r\\...\n              NOT \t\t\ts with its tokenID\\r\\n    }\\r\\...\n              AND \t\t\ts with its tokenID\\r\\n    }\\r\\...\n              EQ \t\t\ts with its tokenID\\r\\n    }\\r\\...\n              SWAP1 \t\t\t details with its tokenID\\r\\n ...\n              POP \t\t\t details with its tokenID\\r\\n ...\n              SWAP2 \t\t\truct UserTreeMapping {\\r\\n    ...\n              SWAP1 \t\t\truct UserTreeMapping {\\r\\n    ...\n              POP \t\t\truct UserTreeMapping {\\r\\n    ...\n              JUMP \t\t\truct UserTreeMapping {\\r\\n    ...\n            tag 256\t\t\t     uint256 collectionID = Tr...\n              JUMPDEST \t\t\t     uint256 collectionID = Tr...\n              PUSH 0\t\t\t\\r\\n  \n              DUP1 \t\t\t \n              DUP3 \t\t\tng memo\n              PUSH FFFFFFFFFFFFFFFFFFFFFFFFFFFFFFFFFFFFFFFF\t\t\tng memory _uri) pub\n              AND \t\t\tng memory _uri) pub\n              EXTCODESIZE \t\t\tng memory _uri) pub\n              GT \t\t\tng memory _uri) public \n              SWAP1 \t\t\tD, string memory _uri) public \n              POP \t\t\tD, string memory _uri) public \n              SWAP2 \t\t\t     uint256 collectionID = Tr...\n              SWAP1 \t\t\t     uint256 collectionID = Tr...\n              POP \t\t\t     uint256 collectionID = Tr...\n              JUMP \t\t\t     uint256 collectionID = Tr...\n            tag 282\t\t\tRC20(\"Genesis\", \"GNE\"){\\r\\n   ...\n              JUMPDEST \t\t\tRC20(\"Genesis\", \"GNE\"){\\r\\n   ...\n              PUSH 60\t\t\t      STNEAR \n              PUSH 0\t\t\tion mint(addre\n              PUSH 1\t\t\ti\n              PUSH [tag] 293\t\t\tto, uint256 amoun\n              DUP5 \t\t\t amou\n              PUSH [tag] 294\t\t\tto, uint25\n              JUMP \t\t\tto, uint256 amoun\n            tag 293\t\t\tto, uint256 amoun\n              JUMPDEST \t\t\tto, uint256 amoun\n              ADD \t\t\tto, uint256 amount) i\n              SWAP1 \t\t\tion mint(address to, uint256 a...\n              POP \t\t\tion mint(address to, uint256 a...\n              PUSH 0\t\t\t    _mint(to, amount\n              DUP2 \t\t\t   str\n              PUSH FFFFFFFFFFFFFFFF\t\t\t\\n    }\\r\\n\\r\\n    stru\n              DUP2 \t\t\t\\n    }\\r\\n\\r\\n    stru\n              GT \t\t\t\\n    }\\r\\n\\r\\n    stru\n              ISZERO \t\t\t\\n    }\\r\\n\\r\\n    stru\n              PUSH [tag] 295\t\t\t\\n    }\\r\\n\\r\\n    stru\n              JUMPI \t\t\t\\n    }\\r\\n\\r\\n    stru\n              PUSH [tag] 296\t\t\t\\n    }\\r\\n\\r\\n    stru\n              PUSH [tag] 297\t\t\t\\n    }\\r\\n\\r\\n    stru\n              JUMP \t\t\t\\n    }\\r\\n\\r\\n    stru\n            tag 296\t\t\t\\n    }\\r\\n\\r\\n    stru\n              JUMPDEST \t\t\t\\n    }\\r\\n\\r\\n    stru\n            tag 295\t\t\t\\n    }\\r\\n\\r\\n    stru\n              JUMPDEST \t\t\t\\n    }\\r\\n\\r\\n    stru\n              PUSH 40\t\t\t\\n    }\\r\\n\\r\\n    stru\n              MLOAD \t\t\t\\n    }\\r\\n\\r\\n    stru\n              SWAP1 \t\t\t\\n    }\\r\\n\\r\\n    stru\n              DUP1 \t\t\t\\n    }\\r\\n\\r\\n    stru\n              DUP3 \t\t\t\\n    }\\r\\n\\r\\n    stru\n              MSTORE \t\t\t\\n    }\\r\\n\\r\\n    stru\n              DUP1 \t\t\t\\n    }\\r\\n\\r\\n    stru\n              PUSH 1F\t\t\t\\n    }\\r\\n\\r\\n    stru\n              ADD \t\t\t\\n    }\\r\\n\\r\\n    stru\n              PUSH 1F\t\t\t\\n    }\\r\\n\\r\\n    stru\n              NOT \t\t\t\\n    }\\r\\n\\r\\n    stru\n              AND \t\t\t\\n    }\\r\\n\\r\\n    stru\n              PUSH 20\t\t\t\\n    }\\r\\n\\r\\n    stru\n              ADD \t\t\t\\n    }\\r\\n\\r\\n    stru\n              DUP3 \t\t\t\\n    }\\r\\n\\r\\n    stru\n              ADD \t\t\t\\n    }\\r\\n\\r\\n    stru\n              PUSH 40\t\t\t\\n    }\\r\\n\\r\\n    stru\n              MSTORE \t\t\t\\n    }\\r\\n\\r\\n    stru\n              DUP1 \t\t\t\\n    }\\r\\n\\r\\n    stru\n              ISZERO \t\t\t\\n    }\\r\\n\\r\\n    stru\n              PUSH [tag] 298\t\t\t\\n    }\\r\\n\\r\\n    stru\n              JUMPI \t\t\t\\n    }\\r\\n\\r\\n    stru\n              DUP2 \t\t\t\\n    }\\r\\n\\r\\n    stru\n              PUSH 20\t\t\t\\n    }\\r\\n\\r\\n    stru\n              ADD \t\t\t\\n    }\\r\\n\\r\\n    stru\n              PUSH 1\t\t\t\\n    }\\r\\n\\r\\n    stru\n              DUP3 \t\t\t\\n    }\\r\\n\\r\\n    stru\n              MUL \t\t\t\\n    }\\r\\n\\r\\n    stru\n              DUP1 \t\t\t\\n    }\\r\\n\\r\\n    stru\n              CALLDATASIZE \t\t\t\\n    }\\r\\n\\r\\n    stru\n              DUP4 \t\t\t\\n    }\\r\\n\\r\\n    stru\n              CALLDATACOPY \t\t\t\\n    }\\r\\n\\r\\n    stru\n              DUP1 \t\t\t\\n    }\\r\\n\\r\\n    stru\n              DUP3 \t\t\t\\n    }\\r\\n\\r\\n    stru\n              ADD \t\t\t\\n    }\\r\\n\\r\\n    stru\n              SWAP2 \t\t\t\\n    }\\r\\n\\r\\n    stru\n              POP \t\t\t\\n    }\\r\\n\\r\\n    stru\n              POP \t\t\t\\n    }\\r\\n\\r\\n    stru\n              SWAP1 \t\t\t\\n    }\\r\\n\\r\\n    stru\n              POP \t\t\t\\n    }\\r\\n\\r\\n    stru\n            tag 298\t\t\t\\n    }\\r\\n\\r\\n    stru\n              JUMPDEST \t\t\t\\n    }\\r\\n\\r\\n    stru\n              POP \t\t\t\\n    }\\r\\n\\r\\n    stru\n              SWAP1 \t\t\t    _mint(to, amount);\\r\\n    ...\n              POP \t\t\t    _mint(to, amount);\\r\\n    ...\n              PUSH 0\t\t\t{\\r\\n        \n              DUP3 \t\t\t      \n              PUSH 20\t\t\td;\n              ADD \t\t\telded;\\r\\n       \n              DUP3 \t\t\ttokens\n              ADD \t\t\t256 tokensYielded;\\r\\n        \n              SWAP1 \t\t\t   uint256 tokensYielded;\\r\\n ...\n              POP \t\t\t   uint256 tokensYielded;\\r\\n ...\n            tag 299\t\t\t\\n\\r\\n    struct UserTreeMappi...\n              JUMPDEST \t\t\t\\n\\r\\n    struct UserTreeMappi...\n              PUSH 1\t\t\tstru\n              ISZERO \t\t\t\\n\\r\\n    struct UserTreeMappi...\n              PUSH [tag] 300\t\t\t\\n\\r\\n    struct UserTreeMappi...\n              JUMPI \t\t\t\\n\\r\\n    struct UserTreeMappi...\n              DUP1 \t\t\t\\r\\n   \n              DUP1 \t\t\t\\r\\n   \n              PUSH 1\t\t\t\\r\\n   \n              SWAP1 \t\t\t\\r\\n   \n              SUB \t\t\t\\r\\n   \n              SWAP2 \t\t\t\\r\\n   \n              POP \t\t\t\\r\\n   \n              POP \t\t\t\\r\\n   \n              PUSH 3031323334353637383961626364656600000000000000000000000000000000\t\t\treeColle\n              PUSH A\t\t\t =\n              DUP7 \t\t\tuint2\n              MOD \t\t\ting(uint256 =>\n              BYTE \t\t\t mapping(uint256 => TreeCollec\n              DUP2 \t\t\t\\r\\n \n              MSTORE8 \t\t\t\\n    }\\r\\n\\r\\n    mapping(uin...\n              PUSH A\t\t\trd\n              DUP6 \t\t\tkeep record\n              DUP2 \t\t\tkeep record\n              PUSH [tag] 301\t\t\tkeep record\n              JUMPI \t\t\tkeep record\n              PUSH [tag] 302\t\t\tkeep record\n              PUSH [tag] 303\t\t\tkeep record\n              JUMP \t\t\tkeep record\n            tag 302\t\t\tkeep record\n              JUMPDEST \t\t\tkeep record\n            tag 301\t\t\tkeep record\n              JUMPDEST \t\t\tkeep record\n              DIV \t\t\tkeep record\n              SWAP5 \t\t\tkeep record\n              POP \t\t\tkeep record\n              PUSH 0\t\t\t \n              DUP6 \t\t\teir I\n              SUB \t\t\teir IDs\\r\\n \n              PUSH [tag] 299\t\t\t\\n\\r\\n    struct UserTreeMappi...\n              JUMPI \t\t\th their IDs\\r\\n    mapp\n            tag 300\t\t\t\\n\\r\\n    struct UserTreeMappi...\n              JUMPDEST \t\t\t\\n\\r\\n    struct UserTreeMappi...\n              DUP2 \t\t\trTree;\n              SWAP4 \t\t\tng) userTree;\n              POP \t\t\tng) userTree;\n              POP \t\t\tng) userTree;\n              POP \t\t\tng) userTree;\n              POP \t\t\tng) userTree;\n              SWAP2 \t\t\tRC20(\"Genesis\", \"GNE\"){\\r\\n   ...\n              SWAP1 \t\t\tRC20(\"Genesis\", \"GNE\"){\\r\\n   ...\n              POP \t\t\tRC20(\"Genesis\", \"GNE\"){\\r\\n   ...\n              JUMP \t\t\tRC20(\"Genesis\", \"GNE\"){\\r\\n   ...\n            tag 286\t\t\t\n              JUMPDEST \t\t\t\n              PUSH 0\t\t\t\n              PUSH FFFFFFFFFFFFFFFFFFFFFFFFFFFFFFFFFFFFFFFF\t\t\t\n              AND \t\t\t\n              DUP3 \t\t\t\n              PUSH FFFFFFFFFFFFFFFFFFFFFFFFFFFFFFFFFFFFFFFF\t\t\t\n              AND \t\t\t\n              SUB \t\t\t\n              PUSH [tag] 306\t\t\t\n              JUMPI \t\t\t\n              PUSH 40\t\t\t\n              MLOAD \t\t\t\n              PUSH 8C379A000000000000000000000000000000000000000000000000000000000\t\t\t\n              DUP2 \t\t\t\n              MSTORE \t\t\t\n              PUSH 4\t\t\t\n              ADD \t\t\t\n              PUSH [tag] 307\t\t\t\n              SWAP1 \t\t\t\n              PUSH [tag] 308\t\t\t\n              JUMP \t\t\t\n            tag 307\t\t\t\n              JUMPDEST \t\t\t\n              PUSH 40\t\t\t\n              MLOAD \t\t\t\n              DUP1 \t\t\t\n              SWAP2 \t\t\t\n              SUB \t\t\t\n              SWAP1 \t\t\t\n              REVERT \t\t\t\n            tag 306\t\t\t\n              JUMPDEST \t\t\t\n              PUSH [tag] 309\t\t\t\n              DUP2 \t\t\t\n              PUSH [tag] 177\t\t\t\n              JUMP \t\t\t\n            tag 309\t\t\t\n              JUMPDEST \t\t\t\n              ISZERO \t\t\t\n              PUSH [tag] 310\t\t\t\n              JUMPI \t\t\t\n              PUSH 40\t\t\t\n              MLOAD \t\t\t\n              PUSH 8C379A000000000000000000000000000000000000000000000000000000000\t\t\t\n              DUP2 \t\t\t\n              MSTORE \t\t\t\n              PUSH 4\t\t\t\n              ADD \t\t\t\n              PUSH [tag] 311\t\t\t\n              SWAP1 \t\t\t\n              PUSH [tag] 312\t\t\t\n              JUMP \t\t\t\n            tag 311\t\t\t\n              JUMPDEST \t\t\t\n              PUSH 40\t\t\t\n              MLOAD \t\t\t\n              DUP1 \t\t\t\n              SWAP2 \t\t\t\n              SUB \t\t\t\n              SWAP1 \t\t\t\n              REVERT \t\t\t\n            tag 310\t\t\t\n              JUMPDEST \t\t\t\n              PUSH [tag] 313\t\t\t\n              PUSH 0\t\t\t\n              DUP4 \t\t\t\n              DUP4 \t\t\t\n              PUSH 1\t\t\t\n              PUSH [tag] 198\t\t\t\n              JUMP \t\t\t\n            tag 313\t\t\t\n              JUMPDEST \t\t\t\n              PUSH [tag] 314\t\t\t\n              DUP2 \t\t\t\n              PUSH [tag] 177\t\t\t\n              JUMP \t\t\t\n            tag 314\t\t\t\n              JUMPDEST \t\t\t\n              ISZERO \t\t\t\n              PUSH [tag] 315\t\t\t\n              JUMPI \t\t\t\n              PUSH 40\t\t\t\n              MLOAD \t\t\t\n              PUSH 8C379A000000000000000000000000000000000000000000000000000000000\t\t\t\n              DUP2 \t\t\t\n              MSTORE \t\t\t\n              PUSH 4\t\t\t\n              ADD \t\t\t\n              PUSH [tag] 316\t\t\t\n              SWAP1 \t\t\t\n              PUSH [tag] 312\t\t\t\n              JUMP \t\t\t\n            tag 316\t\t\t\n              JUMPDEST \t\t\t\n              PUSH 40\t\t\t\n              MLOAD \t\t\t\n              DUP1 \t\t\t\n              SWAP2 \t\t\t\n              SUB \t\t\t\n              SWAP1 \t\t\t\n              REVERT \t\t\t\n            tag 315\t\t\t\n              JUMPDEST \t\t\t\n              PUSH 1\t\t\t\n              PUSH 3\t\t\t\n              PUSH 0\t\t\t\n              DUP5 \t\t\t\n              PUSH FFFFFFFFFFFFFFFFFFFFFFFFFFFFFFFFFFFFFFFF\t\t\t\n              AND \t\t\t\n              PUSH FFFFFFFFFFFFFFFFFFFFFFFFFFFFFFFFFFFFFFFF\t\t\t\n              AND \t\t\t\n              DUP2 \t\t\t\n              MSTORE \t\t\t\n              PUSH 20\t\t\t\n              ADD \t\t\t\n              SWAP1 \t\t\t\n              DUP2 \t\t\t\n              MSTORE \t\t\t\n              PUSH 20\t\t\t\n              ADD \t\t\t\n              PUSH 0\t\t\t\n              KECCAK256 \t\t\t\n              PUSH 0\t\t\t\n              DUP3 \t\t\t\n              DUP3 \t\t\t\n              SLOAD \t\t\t\n              ADD \t\t\t\n              SWAP3 \t\t\t\n              POP \t\t\t\n              POP \t\t\t\n              DUP2 \t\t\t\n              SWAP1 \t\t\t\n              SSTORE \t\t\t\n              POP \t\t\t\n              DUP2 \t\t\t\n              PUSH 2\t\t\t\n              PUSH 0\t\t\t\n              DUP4 \t\t\t\n              DUP2 \t\t\t\n              MSTORE \t\t\t\n              PUSH 20\t\t\t\n              ADD \t\t\t\n              SWAP1 \t\t\t\n              DUP2 \t\t\t\n              MSTORE \t\t\t\n              PUSH 20\t\t\t\n              ADD \t\t\t\n              PUSH 0\t\t\t\n              KECCAK256 \t\t\t\n              PUSH 0\t\t\t\n              PUSH 100\t\t\t\n              EXP \t\t\t\n              DUP2 \t\t\t\n              SLOAD \t\t\t\n              DUP2 \t\t\t\n              PUSH FFFFFFFFFFFFFFFFFFFFFFFFFFFFFFFFFFFFFFFF\t\t\t\n              MUL \t\t\t\n              NOT \t\t\t\n              AND \t\t\t\n              SWAP1 \t\t\t\n              DUP4 \t\t\t\n              PUSH FFFFFFFFFFFFFFFFFFFFFFFFFFFFFFFFFFFFFFFF\t\t\t\n              AND \t\t\t\n              MUL \t\t\t\n              OR \t\t\t\n              SWAP1 \t\t\t\n              SSTORE \t\t\t\n              POP \t\t\t\n              DUP1 \t\t\t\n              DUP3 \t\t\t\n              PUSH FFFFFFFFFFFFFFFFFFFFFFFFFFFFFFFFFFFFFFFF\t\t\t\n              AND \t\t\t\n              PUSH 0\t\t\t\n              PUSH FFFFFFFFFFFFFFFFFFFFFFFFFFFFFFFFFFFFFFFF\t\t\t\n              AND \t\t\t\n              PUSH DDF252AD1BE2C89B69C2B068FC378DAA952BA7F163C4A11628F55A4DF523B3EF\t\t\t\n              PUSH 40\t\t\t\n              MLOAD \t\t\t\n              PUSH 40\t\t\t\n              MLOAD \t\t\t\n              DUP1 \t\t\t\n              SWAP2 \t\t\t\n              SUB \t\t\t\n              SWAP1 \t\t\t\n              LOG4 \t\t\t\n              PUSH [tag] 317\t\t\t\n              PUSH 0\t\t\t\n              DUP4 \t\t\t\n              DUP4 \t\t\t\n              PUSH 1\t\t\t\n              PUSH [tag] 203\t\t\t\n              JUMP \t\t\t\n            tag 317\t\t\t\n              JUMPDEST \t\t\t\n              POP \t\t\t\n              POP \t\t\t\n              JUMP \t\t\t\n            tag 294\t\t\t\n              JUMPDEST \t\t\t\n              PUSH 0\t\t\t\n              DUP1 \t\t\t\n              PUSH 0\t\t\t\n              SWAP1 \t\t\t\n              POP \t\t\t\n              PUSH 184F03E93FF9F4DAA797ED6E38ED64BF6A1F010000000000000000\t\t\t\n              DUP4 \t\t\t\n              LT \t\t\t\n              PUSH [tag] 319\t\t\t\n              JUMPI \t\t\t\n              PUSH 184F03E93FF9F4DAA797ED6E38ED64BF6A1F010000000000000000\t\t\t\n              DUP4 \t\t\t\n              DUP2 \t\t\t\n              PUSH [tag] 320\t\t\t\n              JUMPI \t\t\t\n              PUSH [tag] 321\t\t\t\n              PUSH [tag] 303\t\t\t\n              JUMP \t\t\t\n            tag 321\t\t\t\n              JUMPDEST \t\t\t\n            tag 320\t\t\t\n              JUMPDEST \t\t\t\n              DIV \t\t\t\n              SWAP3 \t\t\t\n              POP \t\t\t\n              PUSH 40\t\t\t\n              DUP2 \t\t\t\n              ADD \t\t\t\n              SWAP1 \t\t\t\n              POP \t\t\t\n            tag 319\t\t\t\n              JUMPDEST \t\t\t\n              PUSH 4EE2D6D415B85ACEF8100000000\t\t\t\n              DUP4 \t\t\t\n              LT \t\t\t\n              PUSH [tag] 322\t\t\t\n              JUMPI \t\t\t\n              PUSH 4EE2D6D415B85ACEF8100000000\t\t\t\n              DUP4 \t\t\t\n              DUP2 \t\t\t\n              PUSH [tag] 323\t\t\t\n              JUMPI \t\t\t\n              PUSH [tag] 324\t\t\t\n              PUSH [tag] 303\t\t\t\n              JUMP \t\t\t\n            tag 324\t\t\t\n              JUMPDEST \t\t\t\n            tag 323\t\t\t\n              JUMPDEST \t\t\t\n              DIV \t\t\t\n              SWAP3 \t\t\t\n              POP \t\t\t\n              PUSH 20\t\t\t\n              DUP2 \t\t\t\n              ADD \t\t\t\n              SWAP1 \t\t\t\n              POP \t\t\t\n            tag 322\t\t\t\n              JUMPDEST \t\t\t\n              PUSH 2386F26FC10000\t\t\t\n              DUP4 \t\t\t\n              LT \t\t\t\n              PUSH [tag] 325\t\t\t\n              JUMPI \t\t\t\n              PUSH 2386F26FC10000\t\t\t\n              DUP4 \t\t\t\n              DUP2 \t\t\t\n              PUSH [tag] 326\t\t\t\n              JUMPI \t\t\t\n              PUSH [tag] 327\t\t\t\n              PUSH [tag] 303\t\t\t\n              JUMP \t\t\t\n            tag 327\t\t\t\n              JUMPDEST \t\t\t\n            tag 326\t\t\t\n              JUMPDEST \t\t\t\n              DIV \t\t\t\n              SWAP3 \t\t\t\n              POP \t\t\t\n              PUSH 10\t\t\t\n              DUP2 \t\t\t\n              ADD \t\t\t\n              SWAP1 \t\t\t\n              POP \t\t\t\n            tag 325\t\t\t\n              JUMPDEST \t\t\t\n              PUSH 5F5E100\t\t\t\n              DUP4 \t\t\t\n              LT \t\t\t\n              PUSH [tag] 328\t\t\t\n              JUMPI \t\t\t\n              PUSH 5F5E100\t\t\t\n              DUP4 \t\t\t\n              DUP2 \t\t\t\n              PUSH [tag] 329\t\t\t\n              JUMPI \t\t\t\n              PUSH [tag] 330\t\t\t\n              PUSH [tag] 303\t\t\t\n              JUMP \t\t\t\n            tag 330\t\t\t\n              JUMPDEST \t\t\t\n            tag 329\t\t\t\n              JUMPDEST \t\t\t\n              DIV \t\t\t\n              SWAP3 \t\t\t\n              POP \t\t\t\n              PUSH 8\t\t\t\n              DUP2 \t\t\t\n              ADD \t\t\t\n              SWAP1 \t\t\t\n              POP \t\t\t\n            tag 328\t\t\t\n              JUMPDEST \t\t\t\n              PUSH 2710\t\t\t\n              DUP4 \t\t\t\n              LT \t\t\t\n              PUSH [tag] 331\t\t\t\n              JUMPI \t\t\t\n              PUSH 2710\t\t\t\n              DUP4 \t\t\t\n              DUP2 \t\t\t\n              PUSH [tag] 332\t\t\t\n              JUMPI \t\t\t\n              PUSH [tag] 333\t\t\t\n              PUSH [tag] 303\t\t\t\n              JUMP \t\t\t\n            tag 333\t\t\t\n              JUMPDEST \t\t\t\n            tag 332\t\t\t\n              JUMPDEST \t\t\t\n              DIV \t\t\t\n              SWAP3 \t\t\t\n              POP \t\t\t\n              PUSH 4\t\t\t\n              DUP2 \t\t\t\n              ADD \t\t\t\n              SWAP1 \t\t\t\n              POP \t\t\t\n            tag 331\t\t\t\n              JUMPDEST \t\t\t\n              PUSH 64\t\t\t\n              DUP4 \t\t\t\n              LT \t\t\t\n              PUSH [tag] 334\t\t\t\n              JUMPI \t\t\t\n              PUSH 64\t\t\t\n              DUP4 \t\t\t\n              DUP2 \t\t\t\n              PUSH [tag] 335\t\t\t\n              JUMPI \t\t\t\n              PUSH [tag] 336\t\t\t\n              PUSH [tag] 303\t\t\t\n              JUMP \t\t\t\n            tag 336\t\t\t\n              JUMPDEST \t\t\t\n            tag 335\t\t\t\n              JUMPDEST \t\t\t\n              DIV \t\t\t\n              SWAP3 \t\t\t\n              POP \t\t\t\n              PUSH 2\t\t\t\n              DUP2 \t\t\t\n              ADD \t\t\t\n              SWAP1 \t\t\t\n              POP \t\t\t\n            tag 334\t\t\t\n              JUMPDEST \t\t\t\n              PUSH A\t\t\t\n              DUP4 \t\t\t\n              LT \t\t\t\n              PUSH [tag] 337\t\t\t\n              JUMPI \t\t\t\n              PUSH 1\t\t\t\n              DUP2 \t\t\t\n              ADD \t\t\t\n              SWAP1 \t\t\t\n              POP \t\t\t\n            tag 337\t\t\t\n              JUMPDEST \t\t\t\n              DUP1 \t\t\t\n              SWAP2 \t\t\t\n              POP \t\t\t\n              POP \t\t\t\n              SWAP2 \t\t\t\n              SWAP1 \t\t\t\n              POP \t\t\t\n              JUMP \t\t\t\n            tag 338\t\t\t-License-Identifier: MIT\\r\\npr...\n              JUMPDEST \t\t\t-License-Identifier: MIT\\r\\npr...\n              PUSH 0\t\t\tsolidi\n              PUSH 40\t\t\tze\n              MLOAD \t\t\t\"@openzep\n              SWAP1 \t\t\t\\n\\r\\nimport \"@openzep\n              POP \t\t\t\\n\\r\\nimport \"@openzep\n              SWAP1 \t\t\t-License-Identifier: MIT\\r\\npr...\n              JUMP \t\t\t-License-Identifier: MIT\\r\\npr...\n            tag 339\t\t\tcts/token/ERC20/ERC20.sol\";\\r\\...\n              JUMPDEST \t\t\tcts/token/ERC20/ERC20.sol\";\\r\\...\n              PUSH 0\t\t\te\n              DUP1 \t\t\tu\n              REVERT \t\t\tsing Counter\n            tag 340\t\t\trs.Counter;\\r\\n    Counters.Co...\n              JUMPDEST \t\t\trs.Counter;\\r\\n    Counters.Co...\n              PUSH 0\t\t\t \n              DUP1 \t\t\t\\n\n              REVERT \t\t\t 1e24;\\r\\n    \n            tag 341\t\t\ttable gne = 1e18;\\r\\n    ERC20...\n              JUMPDEST \t\t\ttable gne = 1e18;\\r\\n    ERC20...\n              PUSH 0\t\t\tle STNE\n              PUSH FFFFFFFF00000000000000000000000000000000000000000000000000000000\t\t\t\\r\\n\\r\\n    constructor(addres...\n              DUP3 \t\t\t admi\n              AND \t\t\tvate admin;\\r\\n\\r\\n    constru...\n              SWAP1 \t\t\taddress private admin;\\r\\n\\r\\n...\n              POP \t\t\taddress private admin;\\r\\n\\r\\n...\n              SWAP2 \t\t\ttable gne = 1e18;\\r\\n    ERC20...\n              SWAP1 \t\t\ttable gne = 1e18;\\r\\n    ERC20...\n              POP \t\t\ttable gne = 1e18;\\r\\n    ERC20...\n              JUMP \t\t\ttable gne = 1e18;\\r\\n    ERC20...\n            tag 342\t\t\tsg.sender;\\r\\n        STNEAR =...\n              JUMPDEST \t\t\tsg.sender;\\r\\n        STNEAR =...\n              PUSH [tag] 429\t\t\taddress to, uint256 amo\n              DUP2 \t\t\t56 am\n              PUSH [tag] 341\t\t\taddress to, uint256 amo\n              JUMP \t\t\taddress to, uint256 amo\n            tag 429\t\t\taddress to, uint256 amo\n              JUMPDEST \t\t\taddress to, uint256 amo\n              DUP2 \t\t\tn min\n              EQ \t\t\ttion mint(address to, uint256 ...\n              PUSH [tag] 430\t\t\t\\r\\n    function mint(address ...\n              JUMPI \t\t\t\\r\\n    function mint(address ...\n              PUSH 0\t\t\t\\n\n              DUP1 \t\t\tl\n              REVERT \t\t\tinternal{\\r\\n \n            tag 430\t\t\t\\r\\n    function mint(address ...\n              JUMPDEST \t\t\t\\r\\n    function mint(address ...\n              POP \t\t\tsg.sender;\\r\\n        STNEAR =...\n              JUMP \t\t\tsg.sender;\\r\\n        STNEAR =...\n            tag 343\t\t\to, amount);\\r\\n    }\\r\\n\\r\\n  ...\n              JUMPDEST \t\t\to, amount);\\r\\n    }\\r\\n\\r\\n  ...\n              PUSH 0\t\t\t\\r\\n   \n              DUP2 \t\t\t  uint\n              CALLDATALOAD \t\t\tered;\\r\\n        uint2\n              SWAP1 \t\t\t6 lastWatered;\\r\\n        uint...\n              POP \t\t\t6 lastWatered;\\r\\n        uint...\n              PUSH [tag] 432\t\t\taimed;\\r\\n        uint256 wate...\n              DUP2 \t\t\ttered\n              PUSH [tag] 342\t\t\taimed;\\r\\n        uint256 wate...\n              JUMP \t\t\taimed;\\r\\n        uint256 wate...\n            tag 432\t\t\taimed;\\r\\n        uint256 wate...\n              JUMPDEST \t\t\taimed;\\r\\n        uint256 wate...\n              SWAP3 \t\t\to, amount);\\r\\n    }\\r\\n\\r\\n  ...\n              SWAP2 \t\t\to, amount);\\r\\n    }\\r\\n\\r\\n  ...\n              POP \t\t\to, amount);\\r\\n    }\\r\\n\\r\\n  ...\n              POP \t\t\to, amount);\\r\\n    }\\r\\n\\r\\n  ...\n              JUMP \t\t\to, amount);\\r\\n    }\\r\\n\\r\\n  ...\n            tag 23\t\t\t   uint256 tokensYielded;\\r\\n ...\n              JUMPDEST \t\t\t   uint256 tokensYielded;\\r\\n ...\n              PUSH 0\t\t\t  }\\r\\n\\r\n              PUSH 20\t\t\tin\n              DUP3 \t\t\t        m\n              DUP5 \t\t\tpping {\n              SUB \t\t\teeMapping {\\r\\n        ma\n              SLT \t\t\terTreeMapping {\\r\\n        map...\n              ISZERO \t\t\t UserTreeMapping {\\r\\n        ...\n              PUSH [tag] 434\t\t\t UserTreeMapping {\\r\\n        ...\n              JUMPI \t\t\t UserTreeMapping {\\r\\n        ...\n              PUSH [tag] 435\t\t\tnt256 => TreeDetails) treeDeta...\n              PUSH [tag] 339\t\t\tnt256 => TreeDetails) treeDeta...\n              JUMP \t\t\tnt256 => TreeDetails) treeDeta...\n            tag 435\t\t\tnt256 => TreeDetails) treeDeta...\n              JUMPDEST \t\t\tnt256 => TreeDetails) treeDeta...\n            tag 434\t\t\t UserTreeMapping {\\r\\n        ...\n              JUMPDEST \t\t\t UserTreeMapping {\\r\\n        ...\n              PUSH 0\t\t\te\n              PUSH [tag] 436\t\t\tcollections; // to keep record...\n              DUP5 \t\t\t with t\n              DUP3 \t\t\tollect\n              DUP6 \t\t\trecord of\n              ADD \t\t\teep record of collecti\n              PUSH [tag] 343\t\t\tcollections; // to keep record...\n              JUMP \t\t\tcollections; // to keep record...\n            tag 436\t\t\tcollections; // to keep record...\n              JUMPDEST \t\t\tcollections; // to keep record...\n              SWAP2 \t\t\tublic treecollections; // to k...\n              POP \t\t\tublic treecollections; // to k...\n              POP \t\t\t\\r\\n\\r\\n    mapping(uint256 =>...\n              SWAP3 \t\t\t   uint256 tokensYielded;\\r\\n ...\n              SWAP2 \t\t\t   uint256 tokensYielded;\\r\\n ...\n              POP \t\t\t   uint256 tokensYielded;\\r\\n ...\n              POP \t\t\t   uint256 tokensYielded;\\r\\n ...\n              JUMP \t\t\t   uint256 tokensYielded;\\r\\n ...\n            tag 344\t\t\tnt256 => UserTreeMapping) user...\n              JUMPDEST \t\t\tnt256 => UserTreeMapping) user...\n              PUSH 0\t\t\t; // ma\n              DUP2 \t\t\t\\n    \n              ISZERO \t\t\tection\\r\\n    m\n              ISZERO \t\t\tts collection\\r\\n    ma\n              SWAP1 \t\t\tTree with its collection\\r\\n  ...\n              POP \t\t\tTree with its collection\\r\\n  ...\n              SWAP2 \t\t\tnt256 => UserTreeMapping) user...\n              SWAP1 \t\t\tnt256 => UserTreeMapping) user...\n              POP \t\t\tnt256 => UserTreeMapping) user...\n              JUMP \t\t\tnt256 => UserTreeMapping) user...\n            tag 345\t\t\t6 => bool) collectionInitializ...\n              JUMPDEST \t\t\t6 => bool) collectionInitializ...\n              PUSH [tag] 439\t\t\t    function mintNewT\n              DUP2 \t\t\tntNew\n              PUSH [tag] 344\t\t\t    function mintNewT\n              JUMP \t\t\t    function mintNewT\n            tag 439\t\t\t    function mintNewT\n              JUMPDEST \t\t\t    function mintNewT\n              DUP3 \t\t\tl\\r\\n\n              MSTORE \t\t\tith bool\\r\\n\\r\\n    function m...\n              POP \t\t\t6 => bool) collectionInitializ...\n              POP \t\t\t6 => bool) collectionInitializ...\n              JUMP \t\t\t6 => bool) collectionInitializ...\n            tag 26\t\t\t() public {\\r\\n        require...\n              JUMPDEST \t\t\t() public {\\r\\n        require...\n              PUSH 0\t\t\tunte\n              PUSH 20\t\t\tll\n              DUP3 \t\t\t uint256 \n              ADD \t\t\t     uint256 colle\n              SWAP1 \t\t\t();\\r\\n        uint256 colle\n              POP \t\t\t();\\r\\n        uint256 colle\n              PUSH [tag] 441\t\t\tTreeCollectionCounter.current(...\n              PUSH 0\t\t\tl\n              DUP4 \t\t\tction new\n              ADD \t\t\tollection newColl\n              DUP5 \t\t\t    Tr\n              PUSH [tag] 345\t\t\tTreeCollectionCounter.current(...\n              JUMP \t\t\tTreeCollectionCounter.current(...\n            tag 441\t\t\tTreeCollectionCounter.current(...\n              JUMPDEST \t\t\tTreeCollectionCounter.current(...\n              SWAP3 \t\t\t() public {\\r\\n        require...\n              SWAP2 \t\t\t() public {\\r\\n        require...\n              POP \t\t\t() public {\\r\\n        require...\n              POP \t\t\t() public {\\r\\n        require...\n              JUMP \t\t\t() public {\\r\\n        require...\n            tag 346\t\t\treeCollection();\\r\\n        tr...\n              JUMPDEST \t\t\treeCollection();\\r\\n        tr...\n              PUSH 0\t\t\tID] = \n              DUP2 \t\t\tectio\n              MLOAD \t\t\t  collection\n              SWAP1 \t\t\tn;\\r\\n        collection\n              POP \t\t\tn;\\r\\n        collection\n              SWAP2 \t\t\treeCollection();\\r\\n        tr...\n              SWAP1 \t\t\treeCollection();\\r\\n        tr...\n              POP \t\t\treeCollection();\\r\\n        tr...\n              JUMP \t\t\treeCollection();\\r\\n        tr...\n            tag 347\t\t\tollectionID] = true;\\r\\n    }\\...\n              JUMPDEST \t\t\tollectionID] = true;\\r\\n    }\\...\n              PUSH 0\t\t\tmory _uri) \n              DUP3 \t\t\tuire(c\n              DUP3 \t\t\t  r\n              MSTORE \t\t\t\\n        require(co\n              PUSH 20\t\t\t == \n              DUP3 \t\t\tonI\n              ADD \t\t\tectionID] == t\n              SWAP1 \t\t\tnitialized[collectionID] == t\n              POP \t\t\tnitialized[collectionID] == t\n              SWAP3 \t\t\tollectionID] = true;\\r\\n    }\\...\n              SWAP2 \t\t\tollectionID] = true;\\r\\n    }\\...\n              POP \t\t\tollectionID] = true;\\r\\n    }\\...\n              POP \t\t\tollectionID] = true;\\r\\n    }\\...\n              JUMP \t\t\tollectionID] = true;\\r\\n    }\\...\n            tag 348\t\t\ttion is not yet minted!\");\\r\\n...\n              JUMPDEST \t\t\ttion is not yet minted!\");\\r\\n...\n              PUSH 0\t\t\tr\n            tag 445\t\t\t, 5 * base), \"STNEAR: transfer...\n              JUMPDEST \t\t\t, 5 * base), \"STNEAR: transfer...\n              DUP4 \t\t\tSTNEAR\n              DUP2 \t\t\t,\n              LT \t\t\tse), \"STNEAR:\n              ISZERO \t\t\t, 5 * base), \"STNEAR: transfer...\n              PUSH [tag] 447\t\t\t, 5 * base), \"STNEAR: transfer...\n              JUMPI \t\t\t, 5 * base), \"STNEAR: transfer...\n              DUP1 \t\t\tt\n              DUP3 \t\t\toll\n              ADD \t\t\treeCollecti\n              MLOAD \t\t\ton = TreeCollectio\n              DUP2 \t\t\te\n              DUP5 \t\t\teco\n              ADD \t\t\t treecollec\n              MSTORE \t\t\tlection treecollection = TreeC...\n              PUSH 20\t\t\tai\n              DUP2 \t\t\tm\n              ADD \t\t\trFrom fail\n              SWAP1 \t\t\tansferFrom fail\n              POP \t\t\tansferFrom fail\n              PUSH [tag] 445\t\t\t, 5 * base), \"STNEAR: transfer...\n              JUMP \t\t\t, 5 * base), \"STNEAR: transfer...\n            tag 447\t\t\t, 5 * base), \"STNEAR: transfer...\n              JUMPDEST \t\t\t, 5 * base), \"STNEAR: transfer...\n              PUSH 0\t\t\te\n              DUP5 \t\t\t      \n              DUP5 \t\t\t);\\r\n              ADD \t\t\tnID]);\\r\\n        \n              MSTORE \t\t\tllectionID]);\\r\\n        tree\n              POP \t\t\trom(msg.sender, address(this),...\n              POP \t\t\ttion is not yet minted!\");\\r\\n...\n              POP \t\t\ttion is not yet minted!\");\\r\\n...\n              POP \t\t\ttion is not yet minted!\");\\r\\n...\n              JUMP \t\t\ttion is not yet minted!\");\\r\\n...\n            tag 349\t\t\tafeMint(msg.sender, _uri); \\r\\...\n              JUMPDEST \t\t\tafeMint(msg.sender, _uri); \\r\\...\n              PUSH 0\t\t\t256 to\n              PUSH 1F\t\t\t  \n              NOT \t\t\t\\n      \n              PUSH 1F\t\t\tr(\n              DUP4 \t\t\tdCoun\n              ADD \t\t\tkenIdCounter()\n              AND \t\t\tn.tokenIdCounter();\\r\\n       \n              SWAP1 \t\t\tecollection.tokenIdCounter();\\...\n              POP \t\t\tecollection.tokenIdCounter();\\...\n              SWAP2 \t\t\tafeMint(msg.sender, _uri); \\r\\...\n              SWAP1 \t\t\tafeMint(msg.sender, _uri); \\r\\...\n              POP \t\t\tafeMint(msg.sender, _uri); \\r\\...\n              JUMP \t\t\tafeMint(msg.sender, _uri); \\r\\...\n            tag 350\t\t\tllectionID].treeDetails[tokenI...\n              JUMPDEST \t\t\tllectionID].treeDetails[tokenI...\n              PUSH 0\t\t\t wa\n              PUSH [tag] 450\t\t\t, uint256 _tokenID) public ret...\n              DUP3 \t\t\ts(boo\n              PUSH [tag] 346\t\t\t, uint256 _tokenID) public ret...\n              JUMP \t\t\t, uint256 _tokenID) public ret...\n            tag 450\t\t\t, uint256 _tokenID) public ret...\n              JUMPDEST \t\t\t, uint256 _tokenID) public ret...\n              PUSH [tag] 451\t\t\tequire(collectionInitialized[_...\n              DUP2 \t\t\t is no\n              DUP6 \t\t\tcti\n              PUSH [tag] 347\t\t\tequire(collectionInitialized[_...\n              JUMP \t\t\tequire(collectionInitialized[_...\n            tag 451\t\t\tequire(collectionInitialized[_...\n              JUMPDEST \t\t\tequire(collectionInitialized[_...\n              SWAP4 \t\t\t      require(collectionInitia...\n              POP \t\t\t      require(collectionInitia...\n              PUSH [tag] 452\t\t\ted!\");\\r\\n\\r\\n        require(...\n              DUP2 \t\t\tils[_t\n              DUP6 \t\t\teDe\n              PUSH 20\t\t\tID].\n              DUP7 \t\t\tlecti\n              ADD \t\t\t_collectionID].t\n              PUSH [tag] 348\t\t\ted!\");\\r\\n\\r\\n        require(...\n              JUMP \t\t\ted!\");\\r\\n\\r\\n        require(...\n            tag 452\t\t\ted!\");\\r\\n\\r\\n        require(...\n              JUMPDEST \t\t\ted!\");\\r\\n\\r\\n        require(...\n              PUSH [tag] 453\t\t\tee does not exist\");\\r\\n\\r\\n  ...\n              DUP2 \t\t\t\\r\\n    \n              PUSH [tag] 349\t\t\tee does not exist\");\\r\\n\\r\\n  ...\n              JUMP \t\t\tee does not exist\");\\r\\n\\r\\n  ...\n            tag 453\t\t\tee does not exist\");\\r\\n\\r\\n  ...\n              JUMPDEST \t\t\tee does not exist\");\\r\\n\\r\\n  ...\n              DUP5 \t\t\t, \"\n              ADD \t\t\tized, \"Tree does not exist\");\\...\n              SWAP2 \t\t\tInitialized, \"Tree does not ex...\n              POP \t\t\tInitialized, \"Tree does not ex...\n              POP \t\t\ter(uint256 _collectionID, uint...\n              SWAP3 \t\t\tllectionID].treeDetails[tokenI...\n              SWAP2 \t\t\tllectionID].treeDetails[tokenI...\n              POP \t\t\tllectionID].treeDetails[tokenI...\n              POP \t\t\tllectionID].treeDetails[tokenI...\n              JUMP \t\t\tllectionID].treeDetails[tokenI...\n            tag 30\t\t\ttion treecollection = TreeColl...\n              JUMPDEST \t\t\ttion treecollection = TreeColl...\n              PUSH 0\t\t\ttoke\n              PUSH 20\t\t\the\n              DUP3 \t\t\tu are not\n              ADD \t\t\t \"You are not the \n              SWAP1 \t\t\t.sender, \"You are not the \n              POP \t\t\t.sender, \"You are not the \n              DUP2 \t\t\tm(msg.sen\n              DUP2 \t\t\tferF\n              SUB \t\t\transferFrom(msg.send\n              PUSH 0\t\t\tA\n              DUP4 \t\t\tequire(ST\n              ADD \t\t\t   require(STNEAR\n              MSTORE \t\t\t\\r\\n        require(STNEAR.tra...\n              PUSH [tag] 455\t\t\t 1 * base), \"STNEAR: transferF...\n              DUP2 \t\t\tionI\n              DUP5 \t\t\t[_coll\n              PUSH [tag] 350\t\t\t 1 * base), \"STNEAR: transferF...\n              JUMP \t\t\t 1 * base), \"STNEAR: transferF...\n            tag 455\t\t\t 1 * base), \"STNEAR: transferF...\n              JUMPDEST \t\t\t 1 * base), \"STNEAR: transferF...\n              SWAP1 \t\t\ts(this), 1 * base), \"STNEAR: t...\n              POP \t\t\ts(this), 1 * base), \"STNEAR: t...\n              SWAP3 \t\t\ttion treecollection = TreeColl...\n              SWAP2 \t\t\ttion treecollection = TreeColl...\n              POP \t\t\ttion treecollection = TreeColl...\n              POP \t\t\ttion treecollection = TreeColl...\n              JUMP \t\t\ttion treecollection = TreeColl...\n            tag 351\t\t\t[_tokenID].lastWatered = block...\n              JUMPDEST \t\t\t[_tokenID].lastWatered = block...\n              PUSH 0\t\t\tamp;\\r\\n \n              DUP2 \t\t\tction\n              SWAP1 \t\t\tTree[_collection\n              POP \t\t\tTree[_collection\n              SWAP2 \t\t\t[_tokenID].lastWatered = block...\n              SWAP1 \t\t\t[_tokenID].lastWatered = block...\n              POP \t\t\t[_tokenID].lastWatered = block...\n              JUMP \t\t\t[_tokenID].lastWatered = block...\n            tag 352\t\t\tils[_tokenID].wateredTimes += ...\n              JUMPDEST \t\t\tils[_tokenID].wateredTimes += ...\n              PUSH [tag] 458\t\t\tnction claim(uint256 _co\n              DUP2 \t\t\t56 _c\n              PUSH [tag] 351\t\t\tnction claim(uint256 _co\n              JUMP \t\t\tnction claim(uint256 _co\n            tag 458\t\t\tnction claim(uint256 _co\n              JUMPDEST \t\t\tnction claim(uint256 _co\n              DUP2 \t\t\t\\n    \n              EQ \t\t\t\\r\\n\\r\\n    function claim(uin...\n              PUSH [tag] 459\t\t\tue;\\r\\n    }\\r\\n\\r\\n    functi...\n              JUMPI \t\t\tue;\\r\\n    }\\r\\n\\r\\n    functi...\n              PUSH 0\t\t\tt\n              DUP1 \t\t\tu\n              REVERT \t\t\tionID, uint2\n            tag 459\t\t\tue;\\r\\n    }\\r\\n\\r\\n    functi...\n              JUMPDEST \t\t\tue;\\r\\n    }\\r\\n\\r\\n    functi...\n              POP \t\t\tils[_tokenID].wateredTimes += ...\n              JUMP \t\t\tils[_tokenID].wateredTimes += ...\n            tag 353\t\t\tublic returns(bool) {\\r\\n\\r\\n ...\n              JUMPDEST \t\t\tublic returns(bool) {\\r\\n\\r\\n ...\n              PUSH 0\t\t\tction\n              DUP2 \t\t\te, \"Co\n              CALLDATALOAD \t\t\tionID] == true, \"Col\n              SWAP1 \t\t\t[_collectionID] == true, \"Col\n              POP \t\t\t[_collectionID] == true, \"Col\n              PUSH [tag] 461\t\t\ts not yet minted\");\\r\\n\\r\\n   ...\n              DUP2 \t\t\t    r\n              PUSH [tag] 352\t\t\ts not yet minted\");\\r\\n\\r\\n   ...\n              JUMP \t\t\ts not yet minted\");\\r\\n\\r\\n   ...\n            tag 461\t\t\ts not yet minted\");\\r\\n\\r\\n   ...\n              JUMPDEST \t\t\ts not yet minted\");\\r\\n\\r\\n   ...\n              SWAP3 \t\t\tublic returns(bool) {\\r\\n\\r\\n ...\n              SWAP2 \t\t\tublic returns(bool) {\\r\\n\\r\\n ...\n              POP \t\t\tublic returns(bool) {\\r\\n\\r\\n ...\n              POP \t\t\tublic returns(bool) {\\r\\n\\r\\n ...\n              JUMP \t\t\tublic returns(bool) {\\r\\n\\r\\n ...\n            tag 33\t\t\tee[_collectionID].treeDetails[...\n              JUMPDEST \t\t\tee[_collectionID].treeDetails[...\n              PUSH 0\t\t\te does\n              PUSH 20\t\t\tec\n              DUP3 \t\t\tllection \n              DUP5 \t\t\t   Tree\n              SUB \t\t\t       TreeCollection t\n              SLT \t\t\t\\n\\r\\n        TreeCollection t...\n              ISZERO \t\t\t);\\r\\n\\r\\n        TreeCollecti...\n              PUSH [tag] 463\t\t\t);\\r\\n\\r\\n        TreeCollecti...\n              JUMPI \t\t\t);\\r\\n\\r\\n        TreeCollecti...\n              PUSH [tag] 464\t\t\tction = TreeCollection(treecol...\n              PUSH [tag] 339\t\t\tction = TreeCollection(treecol...\n              JUMP \t\t\tction = TreeCollection(treecol...\n            tag 464\t\t\tction = TreeCollection(treecol...\n              JUMPDEST \t\t\tction = TreeCollection(treecol...\n            tag 463\t\t\t);\\r\\n\\r\\n        TreeCollecti...\n              JUMPDEST \t\t\t);\\r\\n\\r\\n        TreeCollecti...\n              PUSH 0\t\t\tr\n              PUSH [tag] 465\t\t\t\");\\r\\n\\r\\n        require(\\r\\...\n              DUP5 \t\t\tmestamp\n              DUP3 \t\t\t block\n              DUP6 \t\t\t         \n              ADD \t\t\te(\\r\\n            block.\n              PUSH [tag] 353\t\t\t\");\\r\\n\\r\\n        require(\\r\\...\n              JUMP \t\t\t\");\\r\\n\\r\\n        require(\\r\\...\n            tag 465\t\t\t\");\\r\\n\\r\\n        require(\\r\\...\n              JUMPDEST \t\t\t\");\\r\\n\\r\\n        require(\\r\\...\n              SWAP2 \t\t\t the owner\");\\r\\n\\r\\n        r...\n              POP \t\t\t the owner\");\\r\\n\\r\\n        r...\n              POP \t\t\twnerOf(_tokenID) == msg.sender...\n              SWAP3 \t\t\tee[_collectionID].treeDetails[...\n              SWAP2 \t\t\tee[_collectionID].treeDetails[...\n              POP \t\t\tee[_collectionID].treeDetails[...\n              POP \t\t\tee[_collectionID].treeDetails[...\n              JUMP \t\t\tee[_collectionID].treeDetails[...\n            tag 354\t\t\tD].treeDetails[_tokenID].lastW...\n              JUMPDEST \t\t\tD].treeDetails[_tokenID].lastW...\n              PUSH 0\t\t\t<= 4320\n              PUSH FFFFFFFFFFFFFFFFFFFFFFFFFFFFFFFFFFFFFFFF\t\t\t       );\\r\\n        require(\\...\n              DUP3 \t\t\trst\"\\r\n              AND \t\t\tr First\"\\r\\n        );\\r\\n    ...\n              SWAP1 \t\t\t      \"Water First\"\\r\\n       ...\n              POP \t\t\t      \"Water First\"\\r\\n       ...\n              SWAP2 \t\t\tD].treeDetails[_tokenID].lastW...\n              SWAP1 \t\t\tD].treeDetails[_tokenID].lastW...\n              POP \t\t\tD].treeDetails[_tokenID].lastW...\n              JUMP \t\t\tD].treeDetails[_tokenID].lastW...\n            tag 355\t\t\tp - userTree[_collectionID].tr...\n              JUMPDEST \t\t\tp - userTree[_collectionID].tr...\n              PUSH 0\t\t\tls[_tok\n              PUSH [tag] 468\t\t\t400,\\r\\n            \"Can't\n              DUP3 \t\t\t\"Can'\n              PUSH [tag] 354\t\t\t400,\\r\\n            \"Can't\n              JUMP \t\t\t400,\\r\\n            \"Can't\n            tag 468\t\t\t400,\\r\\n            \"Can't\n              JUMPDEST \t\t\t400,\\r\\n            \"Can't\n              SWAP1 \t\t\tlaimed > 86400,\\r\\n           ...\n              POP \t\t\tlaimed > 86400,\\r\\n           ...\n              SWAP2 \t\t\tp - userTree[_collectionID].tr...\n              SWAP1 \t\t\tp - userTree[_collectionID].tr...\n              POP \t\t\tp - userTree[_collectionID].tr...\n              JUMP \t\t\tp - userTree[_collectionID].tr...\n            tag 356\t\t\t     );\\r\\n\\r\\n        userTre...\n              JUMPDEST \t\t\t     );\\r\\n\\r\\n        userTre...\n              PUSH [tag] 470\t\t\tmestamp;\\r\\n        userTr\n              DUP2 \t\t\tuserT\n              PUSH [tag] 355\t\t\tmestamp;\\r\\n        userTr\n              JUMP \t\t\tmestamp;\\r\\n        userTr\n            tag 470\t\t\tmestamp;\\r\\n        userTr\n              JUMPDEST \t\t\tmestamp;\\r\\n        userTr\n              DUP3 \t\t\tck.\n              MSTORE \t\t\td = block.timestamp;\\r\\n      ...\n              POP \t\t\t     );\\r\\n\\r\\n        userTre...\n              POP \t\t\t     );\\r\\n\\r\\n        userTre...\n              JUMP \t\t\t     );\\r\\n\\r\\n        userTre...\n            tag 36\t\t\tnID].treeDetails[_tokenID].tok...\n              JUMPDEST \t\t\tnID].treeDetails[_tokenID].tok...\n              PUSH 0\t\t\t ret\n              PUSH 20\t\t\tet\n              DUP3 \t\t\t function\n              ADD \t\t\t\\n    function getT\n              SWAP1 \t\t\t    }\\r\\n\\r\\n    function getT\n              POP \t\t\t    }\\r\\n\\r\\n    function getT\n              PUSH [tag] 472\t\t\t(uint256 collectionId, uint256...\n              PUSH 0\t\t\ti\n              DUP4 \t\t\tns(TreeDe\n              ADD \t\t\teturns(TreeDetail\n              DUP5 \t\t\tic vie\n              PUSH [tag] 356\t\t\t(uint256 collectionId, uint256...\n              JUMP \t\t\t(uint256 collectionId, uint256...\n            tag 472\t\t\t(uint256 collectionId, uint256...\n              JUMPDEST \t\t\t(uint256 collectionId, uint256...\n              SWAP3 \t\t\tnID].treeDetails[_tokenID].tok...\n              SWAP2 \t\t\tnID].treeDetails[_tokenID].tok...\n              POP \t\t\tnID].treeDetails[_tokenID].tok...\n              POP \t\t\tnID].treeDetails[_tokenID].tok...\n              JUMP \t\t\tnID].treeDetails[_tokenID].tok...\n            tag 357\t\t\t       return userTree[collect...\n              JUMPDEST \t\t\t       return userTree[collect...\n              PUSH [tag] 474\t\t\turns details related to \n              DUP2 \t\t\ted to\n              PUSH [tag] 355\t\t\turns details related to \n              JUMP \t\t\turns details related to \n            tag 474\t\t\turns details related to \n              JUMPDEST \t\t\turns details related to \n              DUP2 \t\t\t  //r\n              EQ \t\t\t     //returns details related...\n              PUSH [tag] 475\t\t\tnId];\\r\\n        //returns det...\n              JUMPI \t\t\tnId];\\r\\n        //returns det...\n              PUSH 0\t\t\t(\n              DUP1 \t\t\tN\n              REVERT \t\t\tticula NFT(T\n            tag 475\t\t\tnId];\\r\\n        //returns det...\n              JUMPDEST \t\t\tnId];\\r\\n        //returns det...\n              POP \t\t\t       return userTree[collect...\n              JUMP \t\t\t       return userTree[collect...\n            tag 358\t\t\t\\n    function returnNFTcount(...\n              JUMPDEST \t\t\t\\n    function returnNFTcount(...\n              PUSH 0\t\t\tnID) \n              DUP2 \t\t\t      \n              CALLDATALOAD \t\t\tuint256) {\\r\\n        \n              SWAP1 \t\t\t returns(uint256) {\\r\\n       ...\n              POP \t\t\t returns(uint256) {\\r\\n       ...\n              PUSH [tag] 477\t\t\treecollections[collectionID].t...\n              DUP2 \t\t\t].tok\n              PUSH [tag] 357\t\t\treecollections[collectionID].t...\n              JUMP \t\t\treecollections[collectionID].t...\n            tag 477\t\t\treecollections[collectionID].t...\n              JUMPDEST \t\t\treecollections[collectionID].t...\n              SWAP3 \t\t\t\\n    function returnNFTcount(...\n              SWAP2 \t\t\t\\n    function returnNFTcount(...\n              POP \t\t\t\\n    function returnNFTcount(...\n              POP \t\t\t\\n    function returnNFTcount(...\n              JUMP \t\t\t\\n    function returnNFTcount(...\n            tag 39\t\t\t);\\r\\n        //returns NFTs m...\n              JUMPDEST \t\t\t);\\r\\n        //returns NFTs m...\n              PUSH 0\t\t\t\\n}\n              DUP1 \t\t\t\n              PUSH 40\t\t\t\n              DUP4 \t\t\t\n              DUP6 \t\t\t\n              SUB \t\t\t\n              SLT \t\t\t\n              ISZERO \t\t\t\n              PUSH [tag] 479\t\t\t\n              JUMPI \t\t\t\n              PUSH [tag] 480\t\t\t\n              PUSH [tag] 339\t\t\t\n              JUMP \t\t\t\n            tag 480\t\t\t\n              JUMPDEST \t\t\t\n            tag 479\t\t\t\n              JUMPDEST \t\t\t\n              PUSH 0\t\t\t\n              PUSH [tag] 481\t\t\t\n              DUP6 \t\t\t\n              DUP3 \t\t\t\n              DUP7 \t\t\t\n              ADD \t\t\t\n              PUSH [tag] 358\t\t\t\n              JUMP \t\t\t\n            tag 481\t\t\t\n              JUMPDEST \t\t\t\n              SWAP3 \t\t\t\n              POP \t\t\t\n              POP \t\t\t\n              PUSH 20\t\t\t\n              PUSH [tag] 482\t\t\t\n              DUP6 \t\t\t\n              DUP3 \t\t\t\n              DUP7 \t\t\t\n              ADD \t\t\t\n              PUSH [tag] 353\t\t\t\n              JUMP \t\t\t\n            tag 482\t\t\t\n              JUMPDEST \t\t\t\n              SWAP2 \t\t\t\n              POP \t\t\t\n              POP \t\t\t\n              SWAP3 \t\t\t);\\r\\n        //returns NFTs m...\n              POP \t\t\t);\\r\\n        //returns NFTs m...\n              SWAP3 \t\t\t);\\r\\n        //returns NFTs m...\n              SWAP1 \t\t\t);\\r\\n        //returns NFTs m...\n              POP \t\t\t);\\r\\n        //returns NFTs m...\n              JUMP \t\t\t);\\r\\n        //returns NFTs m...\n            tag 43\t\t\t\n              JUMPDEST \t\t\t\n              PUSH 0\t\t\t\n              DUP1 \t\t\t\n              PUSH 0\t\t\t\n              PUSH 60\t\t\t\n              DUP5 \t\t\t\n              DUP7 \t\t\t\n              SUB \t\t\t\n              SLT \t\t\t\n              ISZERO \t\t\t\n              PUSH [tag] 484\t\t\t\n              JUMPI \t\t\t\n              PUSH [tag] 485\t\t\t\n              PUSH [tag] 339\t\t\t\n              JUMP \t\t\t\n            tag 485\t\t\t\n              JUMPDEST \t\t\t\n            tag 484\t\t\t\n              JUMPDEST \t\t\t\n              PUSH 0\t\t\t\n              PUSH [tag] 486\t\t\t\n              DUP7 \t\t\t\n              DUP3 \t\t\t\n              DUP8 \t\t\t\n              ADD \t\t\t\n              PUSH [tag] 358\t\t\t\n              JUMP \t\t\t\n            tag 486\t\t\t\n              JUMPDEST \t\t\t\n              SWAP4 \t\t\t\n              POP \t\t\t\n              POP \t\t\t\n              PUSH 20\t\t\t\n              PUSH [tag] 487\t\t\t\n              DUP7 \t\t\t\n              DUP3 \t\t\t\n              DUP8 \t\t\t\n              ADD \t\t\t\n              PUSH [tag] 358\t\t\t\n              JUMP \t\t\t\n            tag 487\t\t\t\n              JUMPDEST \t\t\t\n              SWAP3 \t\t\t\n              POP \t\t\t\n              POP \t\t\t\n              PUSH 40\t\t\t\n              PUSH [tag] 488\t\t\t\n              DUP7 \t\t\t\n              DUP3 \t\t\t\n              DUP8 \t\t\t\n              ADD \t\t\t\n              PUSH [tag] 353\t\t\t\n              JUMP \t\t\t\n            tag 488\t\t\t\n              JUMPDEST \t\t\t\n              SWAP2 \t\t\t\n              POP \t\t\t\n              POP \t\t\t\n              SWAP3 \t\t\t\n              POP \t\t\t\n              SWAP3 \t\t\t\n              POP \t\t\t\n              SWAP3 \t\t\t\n              JUMP \t\t\t\n            tag 54\t\t\t\n              JUMPDEST \t\t\t\n              PUSH 0\t\t\t\n              PUSH 20\t\t\t\n              DUP3 \t\t\t\n              DUP5 \t\t\t\n              SUB \t\t\t\n              SLT \t\t\t\n              ISZERO \t\t\t\n              PUSH [tag] 490\t\t\t\n              JUMPI \t\t\t\n              PUSH [tag] 491\t\t\t\n              PUSH [tag] 339\t\t\t\n              JUMP \t\t\t\n            tag 491\t\t\t\n              JUMPDEST \t\t\t\n            tag 490\t\t\t\n              JUMPDEST \t\t\t\n              PUSH 0\t\t\t\n              PUSH [tag] 492\t\t\t\n              DUP5 \t\t\t\n              DUP3 \t\t\t\n              DUP6 \t\t\t\n              ADD \t\t\t\n              PUSH [tag] 358\t\t\t\n              JUMP \t\t\t\n            tag 492\t\t\t\n              JUMPDEST \t\t\t\n              SWAP2 \t\t\t\n              POP \t\t\t\n              POP \t\t\t\n              SWAP3 \t\t\t\n              SWAP2 \t\t\t\n              POP \t\t\t\n              POP \t\t\t\n              JUMP \t\t\t\n            tag 359\t\t\t\n              JUMPDEST \t\t\t\n              PUSH [tag] 494\t\t\t\n              DUP2 \t\t\t\n              PUSH [tag] 351\t\t\t\n              JUMP \t\t\t\n            tag 494\t\t\t\n              JUMPDEST \t\t\t\n              DUP3 \t\t\t\n              MSTORE \t\t\t\n              POP \t\t\t\n              POP \t\t\t\n              JUMP \t\t\t\n            tag 57\t\t\t\n              JUMPDEST \t\t\t\n              PUSH 0\t\t\t\n              PUSH 20\t\t\t\n              DUP3 \t\t\t\n              ADD \t\t\t\n              SWAP1 \t\t\t\n              POP \t\t\t\n              PUSH [tag] 496\t\t\t\n              PUSH 0\t\t\t\n              DUP4 \t\t\t\n              ADD \t\t\t\n              DUP5 \t\t\t\n              PUSH [tag] 359\t\t\t\n              JUMP \t\t\t\n            tag 496\t\t\t\n              JUMPDEST \t\t\t\n              SWAP3 \t\t\t\n              SWAP2 \t\t\t\n              POP \t\t\t\n              POP \t\t\t\n              JUMP \t\t\t\n            tag 360\t\t\t\n              JUMPDEST \t\t\t\n              PUSH [tag] 498\t\t\t\n              DUP2 \t\t\t\n              PUSH [tag] 344\t\t\t\n              JUMP \t\t\t\n            tag 498\t\t\t\n              JUMPDEST \t\t\t\n              DUP2 \t\t\t\n              EQ \t\t\t\n              PUSH [tag] 499\t\t\t\n              JUMPI \t\t\t\n              PUSH 0\t\t\t\n              DUP1 \t\t\t\n              REVERT \t\t\t\n            tag 499\t\t\t\n              JUMPDEST \t\t\t\n              POP \t\t\t\n              JUMP \t\t\t\n            tag 361\t\t\t\n              JUMPDEST \t\t\t\n              PUSH 0\t\t\t\n              DUP2 \t\t\t\n              CALLDATALOAD \t\t\t\n              SWAP1 \t\t\t\n              POP \t\t\t\n              PUSH [tag] 501\t\t\t\n              DUP2 \t\t\t\n              PUSH [tag] 360\t\t\t\n              JUMP \t\t\t\n            tag 501\t\t\t\n              JUMPDEST \t\t\t\n              SWAP3 \t\t\t\n              SWAP2 \t\t\t\n              POP \t\t\t\n              POP \t\t\t\n              JUMP \t\t\t\n            tag 66\t\t\t\n              JUMPDEST \t\t\t\n              PUSH 0\t\t\t\n              DUP1 \t\t\t\n              PUSH 40\t\t\t\n              DUP4 \t\t\t\n              DUP6 \t\t\t\n              SUB \t\t\t\n              SLT \t\t\t\n              ISZERO \t\t\t\n              PUSH [tag] 503\t\t\t\n              JUMPI \t\t\t\n              PUSH [tag] 504\t\t\t\n              PUSH [tag] 339\t\t\t\n              JUMP \t\t\t\n            tag 504\t\t\t\n              JUMPDEST \t\t\t\n            tag 503\t\t\t\n              JUMPDEST \t\t\t\n              PUSH 0\t\t\t\n              PUSH [tag] 505\t\t\t\n              DUP6 \t\t\t\n              DUP3 \t\t\t\n              DUP7 \t\t\t\n              ADD \t\t\t\n              PUSH [tag] 358\t\t\t\n              JUMP \t\t\t\n            tag 505\t\t\t\n              JUMPDEST \t\t\t\n              SWAP3 \t\t\t\n              POP \t\t\t\n              POP \t\t\t\n              PUSH 20\t\t\t\n              PUSH [tag] 506\t\t\t\n              DUP6 \t\t\t\n              DUP3 \t\t\t\n              DUP7 \t\t\t\n              ADD \t\t\t\n              PUSH [tag] 361\t\t\t\n              JUMP \t\t\t\n            tag 506\t\t\t\n              JUMPDEST \t\t\t\n              SWAP2 \t\t\t\n              POP \t\t\t\n              POP \t\t\t\n              SWAP3 \t\t\t\n              POP \t\t\t\n              SWAP3 \t\t\t\n              SWAP1 \t\t\t\n              POP \t\t\t\n              JUMP \t\t\t\n            tag 362\t\t\t\n              JUMPDEST \t\t\t\n              PUSH 0\t\t\t\n              DUP1 \t\t\t\n              REVERT \t\t\t\n            tag 363\t\t\t\n              JUMPDEST \t\t\t\n              PUSH 0\t\t\t\n              DUP1 \t\t\t\n              REVERT \t\t\t\n            tag 297\t\t\t\n              JUMPDEST \t\t\t\n              PUSH 4E487B7100000000000000000000000000000000000000000000000000000000\t\t\t\n              PUSH 0\t\t\t\n              MSTORE \t\t\t\n              PUSH 41\t\t\t\n              PUSH 4\t\t\t\n              MSTORE \t\t\t\n              PUSH 24\t\t\t\n              PUSH 0\t\t\t\n              REVERT \t\t\t\n            tag 364\t\t\t\n              JUMPDEST \t\t\t\n              PUSH [tag] 511\t\t\t\n              DUP3 \t\t\t\n              PUSH [tag] 349\t\t\t\n              JUMP \t\t\t\n            tag 511\t\t\t\n              JUMPDEST \t\t\t\n              DUP2 \t\t\t\n              ADD \t\t\t\n              DUP2 \t\t\t\n              DUP2 \t\t\t\n              LT \t\t\t\n              PUSH FFFFFFFFFFFFFFFF\t\t\t\n              DUP3 \t\t\t\n              GT \t\t\t\n              OR \t\t\t\n              ISZERO \t\t\t\n              PUSH [tag] 512\t\t\t\n              JUMPI \t\t\t\n              PUSH [tag] 513\t\t\t\n              PUSH [tag] 297\t\t\t\n              JUMP \t\t\t\n            tag 513\t\t\t\n              JUMPDEST \t\t\t\n            tag 512\t\t\t\n              JUMPDEST \t\t\t\n              DUP1 \t\t\t\n              PUSH 40\t\t\t\n              MSTORE \t\t\t\n              POP \t\t\t\n              POP \t\t\t\n              POP \t\t\t\n              JUMP \t\t\t\n            tag 365\t\t\t\n              JUMPDEST \t\t\t\n              PUSH 0\t\t\t\n              PUSH [tag] 515\t\t\t\n              PUSH [tag] 338\t\t\t\n              JUMP \t\t\t\n            tag 515\t\t\t\n              JUMPDEST \t\t\t\n              SWAP1 \t\t\t\n              POP \t\t\t\n              PUSH [tag] 516\t\t\t\n              DUP3 \t\t\t\n              DUP3 \t\t\t\n              PUSH [tag] 364\t\t\t\n              JUMP \t\t\t\n            tag 516\t\t\t\n              JUMPDEST \t\t\t\n              SWAP2 \t\t\t\n              SWAP1 \t\t\t\n              POP \t\t\t\n              JUMP \t\t\t\n            tag 366\t\t\t\n              JUMPDEST \t\t\t\n              PUSH 0\t\t\t\n              PUSH FFFFFFFFFFFFFFFF\t\t\t\n              DUP3 \t\t\t\n              GT \t\t\t\n              ISZERO \t\t\t\n              PUSH [tag] 518\t\t\t\n              JUMPI \t\t\t\n              PUSH [tag] 519\t\t\t\n              PUSH [tag] 297\t\t\t\n              JUMP \t\t\t\n            tag 519\t\t\t\n              JUMPDEST \t\t\t\n            tag 518\t\t\t\n              JUMPDEST \t\t\t\n              PUSH [tag] 520\t\t\t\n              DUP3 \t\t\t\n              PUSH [tag] 349\t\t\t\n              JUMP \t\t\t\n            tag 520\t\t\t\n              JUMPDEST \t\t\t\n              SWAP1 \t\t\t\n              POP \t\t\t\n              PUSH 20\t\t\t\n              DUP2 \t\t\t\n              ADD \t\t\t\n              SWAP1 \t\t\t\n              POP \t\t\t\n              SWAP2 \t\t\t\n              SWAP1 \t\t\t\n              POP \t\t\t\n              JUMP \t\t\t\n            tag 367\t\t\t\n              JUMPDEST \t\t\t\n              DUP3 \t\t\t\n              DUP2 \t\t\t\n              DUP4 \t\t\t\n              CALLDATACOPY \t\t\t\n              PUSH 0\t\t\t\n              DUP4 \t\t\t\n              DUP4 \t\t\t\n              ADD \t\t\t\n              MSTORE \t\t\t\n              POP \t\t\t\n              POP \t\t\t\n              POP \t\t\t\n              JUMP \t\t\t\n            tag 368\t\t\t\n              JUMPDEST \t\t\t\n              PUSH 0\t\t\t\n              PUSH [tag] 523\t\t\t\n              PUSH [tag] 524\t\t\t\n              DUP5 \t\t\t\n              PUSH [tag] 366\t\t\t\n              JUMP \t\t\t\n            tag 524\t\t\t\n              JUMPDEST \t\t\t\n              PUSH [tag] 365\t\t\t\n              JUMP \t\t\t\n            tag 523\t\t\t\n              JUMPDEST \t\t\t\n              SWAP1 \t\t\t\n              POP \t\t\t\n              DUP3 \t\t\t\n              DUP2 \t\t\t\n              MSTORE \t\t\t\n              PUSH 20\t\t\t\n              DUP2 \t\t\t\n              ADD \t\t\t\n              DUP5 \t\t\t\n              DUP5 \t\t\t\n              DUP5 \t\t\t\n              ADD \t\t\t\n              GT \t\t\t\n              ISZERO \t\t\t\n              PUSH [tag] 525\t\t\t\n              JUMPI \t\t\t\n              PUSH [tag] 526\t\t\t\n              PUSH [tag] 363\t\t\t\n              JUMP \t\t\t\n            tag 526\t\t\t\n              JUMPDEST \t\t\t\n            tag 525\t\t\t\n              JUMPDEST \t\t\t\n              PUSH [tag] 527\t\t\t\n              DUP5 \t\t\t\n              DUP3 \t\t\t\n              DUP6 \t\t\t\n              PUSH [tag] 367\t\t\t\n              JUMP \t\t\t\n            tag 527\t\t\t\n              JUMPDEST \t\t\t\n              POP \t\t\t\n              SWAP4 \t\t\t\n              SWAP3 \t\t\t\n              POP \t\t\t\n              POP \t\t\t\n              POP \t\t\t\n              JUMP \t\t\t\n            tag 369\t\t\t\n              JUMPDEST \t\t\t\n              PUSH 0\t\t\t\n              DUP3 \t\t\t\n              PUSH 1F\t\t\t\n              DUP4 \t\t\t\n              ADD \t\t\t\n              SLT \t\t\t\n              PUSH [tag] 529\t\t\t\n              JUMPI \t\t\t\n              PUSH [tag] 530\t\t\t\n              PUSH [tag] 362\t\t\t\n              JUMP \t\t\t\n            tag 530\t\t\t\n              JUMPDEST \t\t\t\n            tag 529\t\t\t\n              JUMPDEST \t\t\t\n              DUP2 \t\t\t\n              CALLDATALOAD \t\t\t\n              PUSH [tag] 531\t\t\t\n              DUP5 \t\t\t\n              DUP3 \t\t\t\n              PUSH 20\t\t\t\n              DUP7 \t\t\t\n              ADD \t\t\t\n              PUSH [tag] 368\t\t\t\n              JUMP \t\t\t\n            tag 531\t\t\t\n              JUMPDEST \t\t\t\n              SWAP2 \t\t\t\n              POP \t\t\t\n              POP \t\t\t\n              SWAP3 \t\t\t\n              SWAP2 \t\t\t\n              POP \t\t\t\n              POP \t\t\t\n              JUMP \t\t\t\n            tag 70\t\t\t\n              JUMPDEST \t\t\t\n              PUSH 0\t\t\t\n              DUP1 \t\t\t\n              PUSH 0\t\t\t\n              DUP1 \t\t\t\n              PUSH 80\t\t\t\n              DUP6 \t\t\t\n              DUP8 \t\t\t\n              SUB \t\t\t\n              SLT \t\t\t\n              ISZERO \t\t\t\n              PUSH [tag] 533\t\t\t\n              JUMPI \t\t\t\n              PUSH [tag] 534\t\t\t\n              PUSH [tag] 339\t\t\t\n              JUMP \t\t\t\n            tag 534\t\t\t\n              JUMPDEST \t\t\t\n            tag 533\t\t\t\n              JUMPDEST \t\t\t\n              PUSH 0\t\t\t\n              PUSH [tag] 535\t\t\t\n              DUP8 \t\t\t\n              DUP3 \t\t\t\n              DUP9 \t\t\t\n              ADD \t\t\t\n              PUSH [tag] 358\t\t\t\n              JUMP \t\t\t\n            tag 535\t\t\t\n              JUMPDEST \t\t\t\n              SWAP5 \t\t\t\n              POP \t\t\t\n              POP \t\t\t\n              PUSH 20\t\t\t\n              PUSH [tag] 536\t\t\t\n              DUP8 \t\t\t\n              DUP3 \t\t\t\n              DUP9 \t\t\t\n              ADD \t\t\t\n              PUSH [tag] 358\t\t\t\n              JUMP \t\t\t\n            tag 536\t\t\t\n              JUMPDEST \t\t\t\n              SWAP4 \t\t\t\n              POP \t\t\t\n              POP \t\t\t\n              PUSH 40\t\t\t\n              PUSH [tag] 537\t\t\t\n              DUP8 \t\t\t\n              DUP3 \t\t\t\n              DUP9 \t\t\t\n              ADD \t\t\t\n              PUSH [tag] 353\t\t\t\n              JUMP \t\t\t\n            tag 537\t\t\t\n              JUMPDEST \t\t\t\n              SWAP3 \t\t\t\n              POP \t\t\t\n              POP \t\t\t\n              PUSH 60\t\t\t\n              DUP6 \t\t\t\n              ADD \t\t\t\n              CALLDATALOAD \t\t\t\n              PUSH FFFFFFFFFFFFFFFF\t\t\t\n              DUP2 \t\t\t\n              GT \t\t\t\n              ISZERO \t\t\t\n              PUSH [tag] 538\t\t\t\n              JUMPI \t\t\t\n              PUSH [tag] 539\t\t\t\n              PUSH [tag] 340\t\t\t\n              JUMP \t\t\t\n            tag 539\t\t\t\n              JUMPDEST \t\t\t\n            tag 538\t\t\t\n              JUMPDEST \t\t\t\n              PUSH [tag] 540\t\t\t\n              DUP8 \t\t\t\n              DUP3 \t\t\t\n              DUP9 \t\t\t\n              ADD \t\t\t\n              PUSH [tag] 369\t\t\t\n              JUMP \t\t\t\n            tag 540\t\t\t\n              JUMPDEST \t\t\t\n              SWAP2 \t\t\t\n              POP \t\t\t\n              POP \t\t\t\n              SWAP3 \t\t\t\n              SWAP6 \t\t\t\n              SWAP2 \t\t\t\n              SWAP5 \t\t\t\n              POP \t\t\t\n              SWAP3 \t\t\t\n              POP \t\t\t\n              JUMP \t\t\t\n            tag 370\t\t\t\n              JUMPDEST \t\t\t\n              PUSH 0\t\t\t\n              PUSH FFFFFFFFFFFFFFFF\t\t\t\n              DUP3 \t\t\t\n              GT \t\t\t\n              ISZERO \t\t\t\n              PUSH [tag] 542\t\t\t\n              JUMPI \t\t\t\n              PUSH [tag] 543\t\t\t\n              PUSH [tag] 297\t\t\t\n              JUMP \t\t\t\n            tag 543\t\t\t\n              JUMPDEST \t\t\t\n            tag 542\t\t\t\n              JUMPDEST \t\t\t\n              PUSH [tag] 544\t\t\t\n              DUP3 \t\t\t\n              PUSH [tag] 349\t\t\t\n              JUMP \t\t\t\n            tag 544\t\t\t\n              JUMPDEST \t\t\t\n              SWAP1 \t\t\t\n              POP \t\t\t\n              PUSH 20\t\t\t\n              DUP2 \t\t\t\n              ADD \t\t\t\n              SWAP1 \t\t\t\n              POP \t\t\t\n              SWAP2 \t\t\t\n              SWAP1 \t\t\t\n              POP \t\t\t\n              JUMP \t\t\t\n            tag 371\t\t\t\n              JUMPDEST \t\t\t\n              PUSH 0\t\t\t\n              PUSH [tag] 546\t\t\t\n              PUSH [tag] 547\t\t\t\n              DUP5 \t\t\t\n              PUSH [tag] 370\t\t\t\n              JUMP \t\t\t\n            tag 547\t\t\t\n              JUMPDEST \t\t\t\n              PUSH [tag] 365\t\t\t\n              JUMP \t\t\t\n            tag 546\t\t\t\n              JUMPDEST \t\t\t\n              SWAP1 \t\t\t\n              POP \t\t\t\n              DUP3 \t\t\t\n              DUP2 \t\t\t\n              MSTORE \t\t\t\n              PUSH 20\t\t\t\n              DUP2 \t\t\t\n              ADD \t\t\t\n              DUP5 \t\t\t\n              DUP5 \t\t\t\n              DUP5 \t\t\t\n              ADD \t\t\t\n              GT \t\t\t\n              ISZERO \t\t\t\n              PUSH [tag] 548\t\t\t\n              JUMPI \t\t\t\n              PUSH [tag] 549\t\t\t\n              PUSH [tag] 363\t\t\t\n              JUMP \t\t\t\n            tag 549\t\t\t\n              JUMPDEST \t\t\t\n            tag 548\t\t\t\n              JUMPDEST \t\t\t\n              PUSH [tag] 550\t\t\t\n              DUP5 \t\t\t\n              DUP3 \t\t\t\n              DUP6 \t\t\t\n              PUSH [tag] 367\t\t\t\n              JUMP \t\t\t\n            tag 550\t\t\t\n              JUMPDEST \t\t\t\n              POP \t\t\t\n              SWAP4 \t\t\t\n              SWAP3 \t\t\t\n              POP \t\t\t\n              POP \t\t\t\n              POP \t\t\t\n              JUMP \t\t\t\n            tag 372\t\t\t\n              JUMPDEST \t\t\t\n              PUSH 0\t\t\t\n              DUP3 \t\t\t\n              PUSH 1F\t\t\t\n              DUP4 \t\t\t\n              ADD \t\t\t\n              SLT \t\t\t\n              PUSH [tag] 552\t\t\t\n              JUMPI \t\t\t\n              PUSH [tag] 553\t\t\t\n              PUSH [tag] 362\t\t\t\n              JUMP \t\t\t\n            tag 553\t\t\t\n              JUMPDEST \t\t\t\n            tag 552\t\t\t\n              JUMPDEST \t\t\t\n              DUP2 \t\t\t\n              CALLDATALOAD \t\t\t\n              PUSH [tag] 554\t\t\t\n              DUP5 \t\t\t\n              DUP3 \t\t\t\n              PUSH 20\t\t\t\n              DUP7 \t\t\t\n              ADD \t\t\t\n              PUSH [tag] 371\t\t\t\n              JUMP \t\t\t\n            tag 554\t\t\t\n              JUMPDEST \t\t\t\n              SWAP2 \t\t\t\n              POP \t\t\t\n              POP \t\t\t\n              SWAP3 \t\t\t\n              SWAP2 \t\t\t\n              POP \t\t\t\n              POP \t\t\t\n              JUMP \t\t\t\n            tag 78\t\t\t\n              JUMPDEST \t\t\t\n              PUSH 0\t\t\t\n              DUP1 \t\t\t\n              PUSH 40\t\t\t\n              DUP4 \t\t\t\n              DUP6 \t\t\t\n              SUB \t\t\t\n              SLT \t\t\t\n              ISZERO \t\t\t\n              PUSH [tag] 556\t\t\t\n              JUMPI \t\t\t\n              PUSH [tag] 557\t\t\t\n              PUSH [tag] 339\t\t\t\n              JUMP \t\t\t\n            tag 557\t\t\t\n              JUMPDEST \t\t\t\n            tag 556\t\t\t\n              JUMPDEST \t\t\t\n              PUSH 0\t\t\t\n              PUSH [tag] 558\t\t\t\n              DUP6 \t\t\t\n              DUP3 \t\t\t\n              DUP7 \t\t\t\n              ADD \t\t\t\n              PUSH [tag] 358\t\t\t\n              JUMP \t\t\t\n            tag 558\t\t\t\n              JUMPDEST \t\t\t\n              SWAP3 \t\t\t\n              POP \t\t\t\n              POP \t\t\t\n              PUSH 20\t\t\t\n              DUP4 \t\t\t\n              ADD \t\t\t\n              CALLDATALOAD \t\t\t\n              PUSH FFFFFFFFFFFFFFFF\t\t\t\n              DUP2 \t\t\t\n              GT \t\t\t\n              ISZERO \t\t\t\n              PUSH [tag] 559\t\t\t\n              JUMPI \t\t\t\n              PUSH [tag] 560\t\t\t\n              PUSH [tag] 340\t\t\t\n              JUMP \t\t\t\n            tag 560\t\t\t\n              JUMPDEST \t\t\t\n            tag 559\t\t\t\n              JUMPDEST \t\t\t\n              PUSH [tag] 561\t\t\t\n              DUP6 \t\t\t\n              DUP3 \t\t\t\n              DUP7 \t\t\t\n              ADD \t\t\t\n              PUSH [tag] 372\t\t\t\n              JUMP \t\t\t\n            tag 561\t\t\t\n              JUMPDEST \t\t\t\n              SWAP2 \t\t\t\n              POP \t\t\t\n              POP \t\t\t\n              SWAP3 \t\t\t\n              POP \t\t\t\n              SWAP3 \t\t\t\n              SWAP1 \t\t\t\n              POP \t\t\t\n              JUMP \t\t\t\n            tag 82\t\t\t\n              JUMPDEST \t\t\t\n              PUSH 0\t\t\t\n              DUP1 \t\t\t\n              PUSH 40\t\t\t\n              DUP4 \t\t\t\n              DUP6 \t\t\t\n              SUB \t\t\t\n              SLT \t\t\t\n              ISZERO \t\t\t\n              PUSH [tag] 563\t\t\t\n              JUMPI \t\t\t\n              PUSH [tag] 564\t\t\t\n              PUSH [tag] 339\t\t\t\n              JUMP \t\t\t\n            tag 564\t\t\t\n              JUMPDEST \t\t\t\n            tag 563\t\t\t\n              JUMPDEST \t\t\t\n              PUSH 0\t\t\t\n              PUSH [tag] 565\t\t\t\n              DUP6 \t\t\t\n              DUP3 \t\t\t\n              DUP7 \t\t\t\n              ADD \t\t\t\n              PUSH [tag] 358\t\t\t\n              JUMP \t\t\t\n            tag 565\t\t\t\n              JUMPDEST \t\t\t\n              SWAP3 \t\t\t\n              POP \t\t\t\n              POP \t\t\t\n              PUSH 20\t\t\t\n              PUSH [tag] 566\t\t\t\n              DUP6 \t\t\t\n              DUP3 \t\t\t\n              DUP7 \t\t\t\n              ADD \t\t\t\n              PUSH [tag] 358\t\t\t\n              JUMP \t\t\t\n            tag 566\t\t\t\n              JUMPDEST \t\t\t\n              SWAP2 \t\t\t\n              POP \t\t\t\n              POP \t\t\t\n              SWAP3 \t\t\t\n              POP \t\t\t\n              SWAP3 \t\t\t\n              SWAP1 \t\t\t\n              POP \t\t\t\n              JUMP \t\t\t\n            tag 373\t\t\t\n              JUMPDEST \t\t\t\n              PUSH 4E487B7100000000000000000000000000000000000000000000000000000000\t\t\t\n              PUSH 0\t\t\t\n              MSTORE \t\t\t\n              PUSH 22\t\t\t\n              PUSH 4\t\t\t\n              MSTORE \t\t\t\n              PUSH 24\t\t\t\n              PUSH 0\t\t\t\n              REVERT \t\t\t\n            tag 90\t\t\t\n              JUMPDEST \t\t\t\n              PUSH 0\t\t\t\n              PUSH 2\t\t\t\n              DUP3 \t\t\t\n              DIV \t\t\t\n              SWAP1 \t\t\t\n              POP \t\t\t\n              PUSH 1\t\t\t\n              DUP3 \t\t\t\n              AND \t\t\t\n              DUP1 \t\t\t\n              PUSH [tag] 569\t\t\t\n              JUMPI \t\t\t\n              PUSH 7F\t\t\t\n              DUP3 \t\t\t\n              AND \t\t\t\n              SWAP2 \t\t\t\n              POP \t\t\t\n            tag 569\t\t\t\n              JUMPDEST \t\t\t\n              PUSH 20\t\t\t\n              DUP3 \t\t\t\n              LT \t\t\t\n              DUP2 \t\t\t\n              SUB \t\t\t\n              PUSH [tag] 570\t\t\t\n              JUMPI \t\t\t\n              PUSH [tag] 571\t\t\t\n              PUSH [tag] 373\t\t\t\n              JUMP \t\t\t\n            tag 571\t\t\t\n              JUMPDEST \t\t\t\n            tag 570\t\t\t\n              JUMPDEST \t\t\t\n              POP \t\t\t\n              SWAP2 \t\t\t\n              SWAP1 \t\t\t\n              POP \t\t\t\n              JUMP \t\t\t\n            tag 374\t\t\t\n              JUMPDEST \t\t\t\n              PUSH 4552433732313A20617070726F76616C20746F2063757272656E74206F776E65\t\t\t\n              PUSH 0\t\t\t\n              DUP3 \t\t\t\n              ADD \t\t\t\n              MSTORE \t\t\t\n              PUSH 7200000000000000000000000000000000000000000000000000000000000000\t\t\t\n              PUSH 20\t\t\t\n              DUP3 \t\t\t\n              ADD \t\t\t\n              MSTORE \t\t\t\n              POP \t\t\t\n              JUMP \t\t\t\n            tag 375\t\t\t\n              JUMPDEST \t\t\t\n              PUSH 0\t\t\t\n              PUSH [tag] 574\t\t\t\n              PUSH 21\t\t\t\n              DUP4 \t\t\t\n              PUSH [tag] 347\t\t\t\n              JUMP \t\t\t\n            tag 574\t\t\t\n              JUMPDEST \t\t\t\n              SWAP2 \t\t\t\n              POP \t\t\t\n              PUSH [tag] 575\t\t\t\n              DUP3 \t\t\t\n              PUSH [tag] 374\t\t\t\n              JUMP \t\t\t\n            tag 575\t\t\t\n              JUMPDEST \t\t\t\n              PUSH 40\t\t\t\n              DUP3 \t\t\t\n              ADD \t\t\t\n              SWAP1 \t\t\t\n              POP \t\t\t\n              SWAP2 \t\t\t\n              SWAP1 \t\t\t\n              POP \t\t\t\n              JUMP \t\t\t\n            tag 102\t\t\t\n              JUMPDEST \t\t\t\n              PUSH 0\t\t\t\n              PUSH 20\t\t\t\n              DUP3 \t\t\t\n              ADD \t\t\t\n              SWAP1 \t\t\t\n              POP \t\t\t\n              DUP2 \t\t\t\n              DUP2 \t\t\t\n              SUB \t\t\t\n              PUSH 0\t\t\t\n              DUP4 \t\t\t\n              ADD \t\t\t\n              MSTORE \t\t\t\n              PUSH [tag] 577\t\t\t\n              DUP2 \t\t\t\n              PUSH [tag] 375\t\t\t\n              JUMP \t\t\t\n            tag 577\t\t\t\n              JUMPDEST \t\t\t\n              SWAP1 \t\t\t\n              POP \t\t\t\n              SWAP2 \t\t\t\n              SWAP1 \t\t\t\n              POP \t\t\t\n              JUMP \t\t\t\n            tag 376\t\t\t\n              JUMPDEST \t\t\t\n              PUSH 4552433732313A20617070726F76652063616C6C6572206973206E6F7420746F\t\t\t\n              PUSH 0\t\t\t\n              DUP3 \t\t\t\n              ADD \t\t\t\n              MSTORE \t\t\t\n              PUSH 6B656E206F776E6572206F7220617070726F76656420666F7220616C6C000000\t\t\t\n              PUSH 20\t\t\t\n              DUP3 \t\t\t\n              ADD \t\t\t\n              MSTORE \t\t\t\n              POP \t\t\t\n              JUMP \t\t\t\n            tag 377\t\t\t\n              JUMPDEST \t\t\t\n              PUSH 0\t\t\t\n              PUSH [tag] 580\t\t\t\n              PUSH 3D\t\t\t\n              DUP4 \t\t\t\n              PUSH [tag] 347\t\t\t\n              JUMP \t\t\t\n            tag 580\t\t\t\n              JUMPDEST \t\t\t\n              SWAP2 \t\t\t\n              POP \t\t\t\n              PUSH [tag] 581\t\t\t\n              DUP3 \t\t\t\n              PUSH [tag] 376\t\t\t\n              JUMP \t\t\t\n            tag 581\t\t\t\n              JUMPDEST \t\t\t\n              PUSH 40\t\t\t\n              DUP3 \t\t\t\n              ADD \t\t\t\n              SWAP1 \t\t\t\n              POP \t\t\t\n              SWAP2 \t\t\t\n              SWAP1 \t\t\t\n              POP \t\t\t\n              JUMP \t\t\t\n            tag 110\t\t\t\n              JUMPDEST \t\t\t\n              PUSH 0\t\t\t\n              PUSH 20\t\t\t\n              DUP3 \t\t\t\n              ADD \t\t\t\n              SWAP1 \t\t\t\n              POP \t\t\t\n              DUP2 \t\t\t\n              DUP2 \t\t\t\n              SUB \t\t\t\n              PUSH 0\t\t\t\n              DUP4 \t\t\t\n              ADD \t\t\t\n              MSTORE \t\t\t\n              PUSH [tag] 583\t\t\t\n              DUP2 \t\t\t\n              PUSH [tag] 377\t\t\t\n              JUMP \t\t\t\n            tag 583\t\t\t\n              JUMPDEST \t\t\t\n              SWAP1 \t\t\t\n              POP \t\t\t\n              SWAP2 \t\t\t\n              SWAP1 \t\t\t\n              POP \t\t\t\n              JUMP \t\t\t\n            tag 378\t\t\t\n              JUMPDEST \t\t\t\n              PUSH 4552433732313A2063616C6C6572206973206E6F7420746F6B656E206F776E65\t\t\t\n              PUSH 0\t\t\t\n              DUP3 \t\t\t\n              ADD \t\t\t\n              MSTORE \t\t\t\n              PUSH 72206F7220617070726F76656400000000000000000000000000000000000000\t\t\t\n              PUSH 20\t\t\t\n              DUP3 \t\t\t\n              ADD \t\t\t\n              MSTORE \t\t\t\n              POP \t\t\t\n              JUMP \t\t\t\n            tag 379\t\t\t\n              JUMPDEST \t\t\t\n              PUSH 0\t\t\t\n              PUSH [tag] 586\t\t\t\n              PUSH 2D\t\t\t\n              DUP4 \t\t\t\n              PUSH [tag] 347\t\t\t\n              JUMP \t\t\t\n            tag 586\t\t\t\n              JUMPDEST \t\t\t\n              SWAP2 \t\t\t\n              POP \t\t\t\n              PUSH [tag] 587\t\t\t\n              DUP3 \t\t\t\n              PUSH [tag] 378\t\t\t\n              JUMP \t\t\t\n            tag 587\t\t\t\n              JUMPDEST \t\t\t\n              PUSH 40\t\t\t\n              DUP3 \t\t\t\n              ADD \t\t\t\n              SWAP1 \t\t\t\n              POP \t\t\t\n              SWAP2 \t\t\t\n              SWAP1 \t\t\t\n              POP \t\t\t\n              JUMP \t\t\t\n            tag 119\t\t\t\n              JUMPDEST \t\t\t\n              PUSH 0\t\t\t\n              PUSH 20\t\t\t\n              DUP3 \t\t\t\n              ADD \t\t\t\n              SWAP1 \t\t\t\n              POP \t\t\t\n              DUP2 \t\t\t\n              DUP2 \t\t\t\n              SUB \t\t\t\n              PUSH 0\t\t\t\n              DUP4 \t\t\t\n              ADD \t\t\t\n              MSTORE \t\t\t\n              PUSH [tag] 589\t\t\t\n              DUP2 \t\t\t\n              PUSH [tag] 379\t\t\t\n              JUMP \t\t\t\n            tag 589\t\t\t\n              JUMPDEST \t\t\t\n              SWAP1 \t\t\t\n              POP \t\t\t\n              SWAP2 \t\t\t\n              SWAP1 \t\t\t\n              POP \t\t\t\n              JUMP \t\t\t\n            tag 380\t\t\t\n              JUMPDEST \t\t\t\n              PUSH 4552433732313A20696E76616C696420746F6B656E2049440000000000000000\t\t\t\n              PUSH 0\t\t\t\n              DUP3 \t\t\t\n              ADD \t\t\t\n              MSTORE \t\t\t\n              POP \t\t\t\n              JUMP \t\t\t\n            tag 381\t\t\t\n              JUMPDEST \t\t\t\n              PUSH 0\t\t\t\n              PUSH [tag] 592\t\t\t\n              PUSH 18\t\t\t\n              DUP4 \t\t\t\n              PUSH [tag] 347\t\t\t\n              JUMP \t\t\t\n            tag 592\t\t\t\n              JUMPDEST \t\t\t\n              SWAP2 \t\t\t\n              POP \t\t\t\n              PUSH [tag] 593\t\t\t\n              DUP3 \t\t\t\n              PUSH [tag] 380\t\t\t\n              JUMP \t\t\t\n            tag 593\t\t\t\n              JUMPDEST \t\t\t\n              PUSH 20\t\t\t\n              DUP3 \t\t\t\n              ADD \t\t\t\n              SWAP1 \t\t\t\n              POP \t\t\t\n              SWAP2 \t\t\t\n              SWAP1 \t\t\t\n              POP \t\t\t\n              JUMP \t\t\t\n            tag 129\t\t\t\n              JUMPDEST \t\t\t\n              PUSH 0\t\t\t\n              PUSH 20\t\t\t\n              DUP3 \t\t\t\n              ADD \t\t\t\n              SWAP1 \t\t\t\n              POP \t\t\t\n              DUP2 \t\t\t\n              DUP2 \t\t\t\n              SUB \t\t\t\n              PUSH 0\t\t\t\n              DUP4 \t\t\t\n              ADD \t\t\t\n              MSTORE \t\t\t\n              PUSH [tag] 595\t\t\t\n              DUP2 \t\t\t\n              PUSH [tag] 381\t\t\t\n              JUMP \t\t\t\n            tag 595\t\t\t\n              JUMPDEST \t\t\t\n              SWAP1 \t\t\t\n              POP \t\t\t\n              SWAP2 \t\t\t\n              SWAP1 \t\t\t\n              POP \t\t\t\n              JUMP \t\t\t\n            tag 382\t\t\t\n              JUMPDEST \t\t\t\n              PUSH 4552433732313A2061646472657373207A65726F206973206E6F742061207661\t\t\t\n              PUSH 0\t\t\t\n              DUP3 \t\t\t\n              ADD \t\t\t\n              MSTORE \t\t\t\n              PUSH 6C6964206F776E65720000000000000000000000000000000000000000000000\t\t\t\n              PUSH 20\t\t\t\n              DUP3 \t\t\t\n              ADD \t\t\t\n              MSTORE \t\t\t\n              POP \t\t\t\n              JUMP \t\t\t\n            tag 383\t\t\t\n              JUMPDEST \t\t\t\n              PUSH 0\t\t\t\n              PUSH [tag] 598\t\t\t\n              PUSH 29\t\t\t\n              DUP4 \t\t\t\n              PUSH [tag] 347\t\t\t\n              JUMP \t\t\t\n            tag 598\t\t\t\n              JUMPDEST \t\t\t\n              SWAP2 \t\t\t\n              POP \t\t\t\n              PUSH [tag] 599\t\t\t\n              DUP3 \t\t\t\n              PUSH [tag] 382\t\t\t\n              JUMP \t\t\t\n            tag 599\t\t\t\n              JUMPDEST \t\t\t\n              PUSH 40\t\t\t\n              DUP3 \t\t\t\n              ADD \t\t\t\n              SWAP1 \t\t\t\n              POP \t\t\t\n              SWAP2 \t\t\t\n              SWAP1 \t\t\t\n              POP \t\t\t\n              JUMP \t\t\t\n            tag 133\t\t\t\n              JUMPDEST \t\t\t\n              PUSH 0\t\t\t\n              PUSH 20\t\t\t\n              DUP3 \t\t\t\n              ADD \t\t\t\n              SWAP1 \t\t\t\n              POP \t\t\t\n              DUP2 \t\t\t\n              DUP2 \t\t\t\n              SUB \t\t\t\n              PUSH 0\t\t\t\n              DUP4 \t\t\t\n              ADD \t\t\t\n              MSTORE \t\t\t\n              PUSH [tag] 601\t\t\t\n              DUP2 \t\t\t\n              PUSH [tag] 383\t\t\t\n              JUMP \t\t\t\n            tag 601\t\t\t\n              JUMPDEST \t\t\t\n              SWAP1 \t\t\t\n              POP \t\t\t\n              SWAP2 \t\t\t\n              SWAP1 \t\t\t\n              POP \t\t\t\n              JUMP \t\t\t\n            tag 384\t\t\t\n              JUMPDEST \t\t\t\n              PUSH 596F7520646F206E6F7420686176652061636365737321000000000000000000\t\t\t\n              PUSH 0\t\t\t\n              DUP3 \t\t\t\n              ADD \t\t\t\n              MSTORE \t\t\t\n              POP \t\t\t\n              JUMP \t\t\t\n            tag 385\t\t\t\n              JUMPDEST \t\t\t\n              PUSH 0\t\t\t\n              PUSH [tag] 604\t\t\t\n              PUSH 17\t\t\t\n              DUP4 \t\t\t\n              PUSH [tag] 347\t\t\t\n              JUMP \t\t\t\n            tag 604\t\t\t\n              JUMPDEST \t\t\t\n              SWAP2 \t\t\t\n              POP \t\t\t\n              PUSH [tag] 605\t\t\t\n              DUP3 \t\t\t\n              PUSH [tag] 384\t\t\t\n              JUMP \t\t\t\n            tag 605\t\t\t\n              JUMPDEST \t\t\t\n              PUSH 20\t\t\t\n              DUP3 \t\t\t\n              ADD \t\t\t\n              SWAP1 \t\t\t\n              POP \t\t\t\n              SWAP2 \t\t\t\n              SWAP1 \t\t\t\n              POP \t\t\t\n              JUMP \t\t\t\n            tag 157\t\t\t\n              JUMPDEST \t\t\t\n              PUSH 0\t\t\t\n              PUSH 20\t\t\t\n              DUP3 \t\t\t\n              ADD \t\t\t\n              SWAP1 \t\t\t\n              POP \t\t\t\n              DUP2 \t\t\t\n              DUP2 \t\t\t\n              SUB \t\t\t\n              PUSH 0\t\t\t\n              DUP4 \t\t\t\n              ADD \t\t\t\n              MSTORE \t\t\t\n              PUSH [tag] 607\t\t\t\n              DUP2 \t\t\t\n              PUSH [tag] 385\t\t\t\n              JUMP \t\t\t\n            tag 607\t\t\t\n              JUMPDEST \t\t\t\n              SWAP1 \t\t\t\n              POP \t\t\t\n              SWAP2 \t\t\t\n              SWAP1 \t\t\t\n              POP \t\t\t\n              JUMP \t\t\t\n            tag 386\t\t\t\n              JUMPDEST \t\t\t\n              PUSH 54686572652063616E206265206F6E6C79203330204E46547320696E20612054\t\t\t\n              PUSH 0\t\t\t\n              DUP3 \t\t\t\n              ADD \t\t\t\n              MSTORE \t\t\t\n              PUSH 72656520436F6C6C656374696F6E210000000000000000000000000000000000\t\t\t\n              PUSH 20\t\t\t\n              DUP3 \t\t\t\n              ADD \t\t\t\n              MSTORE \t\t\t\n              POP \t\t\t\n              JUMP \t\t\t\n            tag 387\t\t\t\n              JUMPDEST \t\t\t\n              PUSH 0\t\t\t\n              PUSH [tag] 610\t\t\t\n              PUSH 2F\t\t\t\n              DUP4 \t\t\t\n              PUSH [tag] 347\t\t\t\n              JUMP \t\t\t\n            tag 610\t\t\t\n              JUMPDEST \t\t\t\n              SWAP2 \t\t\t\n              POP \t\t\t\n              PUSH [tag] 611\t\t\t\n              DUP3 \t\t\t\n              PUSH [tag] 386\t\t\t\n              JUMP \t\t\t\n            tag 611\t\t\t\n              JUMPDEST \t\t\t\n              PUSH 40\t\t\t\n              DUP3 \t\t\t\n              ADD \t\t\t\n              SWAP1 \t\t\t\n              POP \t\t\t\n              SWAP2 \t\t\t\n              SWAP1 \t\t\t\n              POP \t\t\t\n              JUMP \t\t\t\n            tag 165\t\t\t\n              JUMPDEST \t\t\t\n              PUSH 0\t\t\t\n              PUSH 20\t\t\t\n              DUP3 \t\t\t\n              ADD \t\t\t\n              SWAP1 \t\t\t\n              POP \t\t\t\n              DUP2 \t\t\t\n              DUP2 \t\t\t\n              SUB \t\t\t\n              PUSH 0\t\t\t\n              DUP4 \t\t\t\n              ADD \t\t\t\n              MSTORE \t\t\t\n              PUSH [tag] 613\t\t\t\n              DUP2 \t\t\t\n              PUSH [tag] 387\t\t\t\n              JUMP \t\t\t\n            tag 613\t\t\t\n              JUMPDEST \t\t\t\n              SWAP1 \t\t\t\n              POP \t\t\t\n              SWAP2 \t\t\t\n              SWAP1 \t\t\t\n              POP \t\t\t\n              JUMP \t\t\t\n            tag 388\t\t\t\n              JUMPDEST \t\t\t\n              PUSH 4552433732313A207472616E736665722066726F6D20696E636F727265637420\t\t\t\n              PUSH 0\t\t\t\n              DUP3 \t\t\t\n              ADD \t\t\t\n              MSTORE \t\t\t\n              PUSH 6F776E6572000000000000000000000000000000000000000000000000000000\t\t\t\n              PUSH 20\t\t\t\n              DUP3 \t\t\t\n              ADD \t\t\t\n              MSTORE \t\t\t\n              POP \t\t\t\n              JUMP \t\t\t\n            tag 389\t\t\t\n              JUMPDEST \t\t\t\n              PUSH 0\t\t\t\n              PUSH [tag] 616\t\t\t\n              PUSH 25\t\t\t\n              DUP4 \t\t\t\n              PUSH [tag] 347\t\t\t\n              JUMP \t\t\t\n            tag 616\t\t\t\n              JUMPDEST \t\t\t\n              SWAP2 \t\t\t\n              POP \t\t\t\n              PUSH [tag] 617\t\t\t\n              DUP3 \t\t\t\n              PUSH [tag] 388\t\t\t\n              JUMP \t\t\t\n            tag 617\t\t\t\n              JUMPDEST \t\t\t\n              PUSH 40\t\t\t\n              DUP3 \t\t\t\n              ADD \t\t\t\n              SWAP1 \t\t\t\n              POP \t\t\t\n              SWAP2 \t\t\t\n              SWAP1 \t\t\t\n              POP \t\t\t\n              JUMP \t\t\t\n            tag 193\t\t\t\n              JUMPDEST \t\t\t\n              PUSH 0\t\t\t\n              PUSH 20\t\t\t\n              DUP3 \t\t\t\n              ADD \t\t\t\n              SWAP1 \t\t\t\n              POP \t\t\t\n              DUP2 \t\t\t\n              DUP2 \t\t\t\n              SUB \t\t\t\n              PUSH 0\t\t\t\n              DUP4 \t\t\t\n              ADD \t\t\t\n              MSTORE \t\t\t\n              PUSH [tag] 619\t\t\t\n              DUP2 \t\t\t\n              PUSH [tag] 389\t\t\t\n              JUMP \t\t\t\n            tag 619\t\t\t\n              JUMPDEST \t\t\t\n              SWAP1 \t\t\t\n              POP \t\t\t\n              SWAP2 \t\t\t\n              SWAP1 \t\t\t\n              POP \t\t\t\n              JUMP \t\t\t\n            tag 390\t\t\t\n              JUMPDEST \t\t\t\n              PUSH 4552433732313A207472616E7366657220746F20746865207A65726F20616464\t\t\t\n              PUSH 0\t\t\t\n              DUP3 \t\t\t\n              ADD \t\t\t\n              MSTORE \t\t\t\n              PUSH 7265737300000000000000000000000000000000000000000000000000000000\t\t\t\n              PUSH 20\t\t\t\n              DUP3 \t\t\t\n              ADD \t\t\t\n              MSTORE \t\t\t\n              POP \t\t\t\n              JUMP \t\t\t\n            tag 391\t\t\t\n              JUMPDEST \t\t\t\n              PUSH 0\t\t\t\n              PUSH [tag] 622\t\t\t\n              PUSH 24\t\t\t\n              DUP4 \t\t\t\n              PUSH [tag] 347\t\t\t\n              JUMP \t\t\t\n            tag 622\t\t\t\n              JUMPDEST \t\t\t\n              SWAP2 \t\t\t\n              POP \t\t\t\n              PUSH [tag] 623\t\t\t\n              DUP3 \t\t\t\n              PUSH [tag] 390\t\t\t\n              JUMP \t\t\t\n            tag 623\t\t\t\n              JUMPDEST \t\t\t\n              PUSH 40\t\t\t\n              DUP3 \t\t\t\n              ADD \t\t\t\n              SWAP1 \t\t\t\n              POP \t\t\t\n              SWAP2 \t\t\t\n              SWAP1 \t\t\t\n              POP \t\t\t\n              JUMP \t\t\t\n            tag 196\t\t\t\n              JUMPDEST \t\t\t\n              PUSH 0\t\t\t\n              PUSH 20\t\t\t\n              DUP3 \t\t\t\n              ADD \t\t\t\n              SWAP1 \t\t\t\n              POP \t\t\t\n              DUP2 \t\t\t\n              DUP2 \t\t\t\n              SUB \t\t\t\n              PUSH 0\t\t\t\n              DUP4 \t\t\t\n              ADD \t\t\t\n              MSTORE \t\t\t\n              PUSH [tag] 625\t\t\t\n              DUP2 \t\t\t\n              PUSH [tag] 391\t\t\t\n              JUMP \t\t\t\n            tag 625\t\t\t\n              JUMPDEST \t\t\t\n              SWAP1 \t\t\t\n              POP \t\t\t\n              SWAP2 \t\t\t\n              SWAP1 \t\t\t\n              POP \t\t\t\n              JUMP \t\t\t\n            tag 392\t\t\t\n              JUMPDEST \t\t\t\n              PUSH 4552433732313A20617070726F766520746F2063616C6C657200000000000000\t\t\t\n              PUSH 0\t\t\t\n              DUP3 \t\t\t\n              ADD \t\t\t\n              MSTORE \t\t\t\n              POP \t\t\t\n              JUMP \t\t\t\n            tag 393\t\t\t\n              JUMPDEST \t\t\t\n              PUSH 0\t\t\t\n              PUSH [tag] 628\t\t\t\n              PUSH 19\t\t\t\n              DUP4 \t\t\t\n              PUSH [tag] 347\t\t\t\n              JUMP \t\t\t\n            tag 628\t\t\t\n              JUMPDEST \t\t\t\n              SWAP2 \t\t\t\n              POP \t\t\t\n              PUSH [tag] 629\t\t\t\n              DUP3 \t\t\t\n              PUSH [tag] 392\t\t\t\n              JUMP \t\t\t\n            tag 629\t\t\t\n              JUMPDEST \t\t\t\n              PUSH 20\t\t\t\n              DUP3 \t\t\t\n              ADD \t\t\t\n              SWAP1 \t\t\t\n              POP \t\t\t\n              SWAP2 \t\t\t\n              SWAP1 \t\t\t\n              POP \t\t\t\n              JUMP \t\t\t\n            tag 208\t\t\t\n              JUMPDEST \t\t\t\n              PUSH 0\t\t\t\n              PUSH 20\t\t\t\n              DUP3 \t\t\t\n              ADD \t\t\t\n              SWAP1 \t\t\t\n              POP \t\t\t\n              DUP2 \t\t\t\n              DUP2 \t\t\t\n              SUB \t\t\t\n              PUSH 0\t\t\t\n              DUP4 \t\t\t\n              ADD \t\t\t\n              MSTORE \t\t\t\n              PUSH [tag] 631\t\t\t\n              DUP2 \t\t\t\n              PUSH [tag] 393\t\t\t\n              JUMP \t\t\t\n            tag 631\t\t\t\n              JUMPDEST \t\t\t\n              SWAP1 \t\t\t\n              POP \t\t\t\n              SWAP2 \t\t\t\n              SWAP1 \t\t\t\n              POP \t\t\t\n              JUMP \t\t\t\n            tag 394\t\t\t\n              JUMPDEST \t\t\t\n              PUSH 4552433732313A207472616E7366657220746F206E6F6E204552433732315265\t\t\t\n              PUSH 0\t\t\t\n              DUP3 \t\t\t\n              ADD \t\t\t\n              MSTORE \t\t\t\n              PUSH 63656976657220696D706C656D656E7465720000000000000000000000000000\t\t\t\n              PUSH 20\t\t\t\n              DUP3 \t\t\t\n              ADD \t\t\t\n              MSTORE \t\t\t\n              POP \t\t\t\n              JUMP \t\t\t\n            tag 395\t\t\t\n              JUMPDEST \t\t\t\n              PUSH 0\t\t\t\n              PUSH [tag] 634\t\t\t\n              PUSH 32\t\t\t\n              DUP4 \t\t\t\n              PUSH [tag] 347\t\t\t\n              JUMP \t\t\t\n            tag 634\t\t\t\n              JUMPDEST \t\t\t\n              SWAP2 \t\t\t\n              POP \t\t\t\n              PUSH [tag] 635\t\t\t\n              DUP3 \t\t\t\n              PUSH [tag] 394\t\t\t\n              JUMP \t\t\t\n            tag 635\t\t\t\n              JUMPDEST \t\t\t\n              PUSH 40\t\t\t\n              DUP3 \t\t\t\n              ADD \t\t\t\n              SWAP1 \t\t\t\n              POP \t\t\t\n              SWAP2 \t\t\t\n              SWAP1 \t\t\t\n              POP \t\t\t\n              JUMP \t\t\t\n            tag 216\t\t\t\n              JUMPDEST \t\t\t\n              PUSH 0\t\t\t\n              PUSH 20\t\t\t\n              DUP3 \t\t\t\n              ADD \t\t\t\n              SWAP1 \t\t\t\n              POP \t\t\t\n              DUP2 \t\t\t\n              DUP2 \t\t\t\n              SUB \t\t\t\n              PUSH 0\t\t\t\n              DUP4 \t\t\t\n              ADD \t\t\t\n              MSTORE \t\t\t\n              PUSH [tag] 637\t\t\t\n              DUP2 \t\t\t\n              PUSH [tag] 395\t\t\t\n              JUMP \t\t\t\n            tag 637\t\t\t\n              JUMPDEST \t\t\t\n              SWAP1 \t\t\t\n              POP \t\t\t\n              SWAP2 \t\t\t\n              SWAP1 \t\t\t\n              POP \t\t\t\n              JUMP \t\t\t\n            tag 396\t\t\t\n              JUMPDEST \t\t\t\n              PUSH 0\t\t\t\n              DUP2 \t\t\t\n              SWAP1 \t\t\t\n              POP \t\t\t\n              SWAP3 \t\t\t\n              SWAP2 \t\t\t\n              POP \t\t\t\n              POP \t\t\t\n              JUMP \t\t\t\n            tag 397\t\t\t\n              JUMPDEST \t\t\t\n              PUSH 0\t\t\t\n              PUSH [tag] 640\t\t\t\n              DUP3 \t\t\t\n              PUSH [tag] 346\t\t\t\n              JUMP \t\t\t\n            tag 640\t\t\t\n              JUMPDEST \t\t\t\n              PUSH [tag] 641\t\t\t\n              DUP2 \t\t\t\n              DUP6 \t\t\t\n              PUSH [tag] 396\t\t\t\n              JUMP \t\t\t\n            tag 641\t\t\t\n              JUMPDEST \t\t\t\n              SWAP4 \t\t\t\n              POP \t\t\t\n              PUSH [tag] 642\t\t\t\n              DUP2 \t\t\t\n              DUP6 \t\t\t\n              PUSH 20\t\t\t\n              DUP7 \t\t\t\n              ADD \t\t\t\n              PUSH [tag] 348\t\t\t\n              JUMP \t\t\t\n            tag 642\t\t\t\n              JUMPDEST \t\t\t\n              DUP1 \t\t\t\n              DUP5 \t\t\t\n              ADD \t\t\t\n              SWAP2 \t\t\t\n              POP \t\t\t\n              POP \t\t\t\n              SWAP3 \t\t\t\n              SWAP2 \t\t\t\n              POP \t\t\t\n              POP \t\t\t\n              JUMP \t\t\t\n            tag 229\t\t\t\n              JUMPDEST \t\t\t\n              PUSH 0\t\t\t\n              PUSH [tag] 644\t\t\t\n              DUP3 \t\t\t\n              DUP6 \t\t\t\n              PUSH [tag] 397\t\t\t\n              JUMP \t\t\t\n            tag 644\t\t\t\n              JUMPDEST \t\t\t\n              SWAP2 \t\t\t\n              POP \t\t\t\n              PUSH [tag] 645\t\t\t\n              DUP3 \t\t\t\n              DUP5 \t\t\t\n              PUSH [tag] 397\t\t\t\n              JUMP \t\t\t\n            tag 645\t\t\t\n              JUMPDEST \t\t\t\n              SWAP2 \t\t\t\n              POP \t\t\t\n              DUP2 \t\t\t\n              SWAP1 \t\t\t\n              POP \t\t\t\n              SWAP4 \t\t\t\n              SWAP3 \t\t\t\n              POP \t\t\t\n              POP \t\t\t\n              POP \t\t\t\n              JUMP \t\t\t\n            tag 398\t\t\t\n              JUMPDEST \t\t\t\n              PUSH 45524337323155524953746F726167653A2055524920736574206F66206E6F6E\t\t\t\n              PUSH 0\t\t\t\n              DUP3 \t\t\t\n              ADD \t\t\t\n              MSTORE \t\t\t\n              PUSH 6578697374656E7420746F6B656E000000000000000000000000000000000000\t\t\t\n              PUSH 20\t\t\t\n              DUP3 \t\t\t\n              ADD \t\t\t\n              MSTORE \t\t\t\n              POP \t\t\t\n              JUMP \t\t\t\n            tag 399\t\t\t\n              JUMPDEST \t\t\t\n              PUSH 0\t\t\t\n              PUSH [tag] 648\t\t\t\n              PUSH 2E\t\t\t\n              DUP4 \t\t\t\n              PUSH [tag] 347\t\t\t\n              JUMP \t\t\t\n            tag 648\t\t\t\n              JUMPDEST \t\t\t\n              SWAP2 \t\t\t\n              POP \t\t\t\n              PUSH [tag] 649\t\t\t\n              DUP3 \t\t\t\n              PUSH [tag] 398\t\t\t\n              JUMP \t\t\t\n            tag 649\t\t\t\n              JUMPDEST \t\t\t\n              PUSH 40\t\t\t\n              DUP3 \t\t\t\n              ADD \t\t\t\n              SWAP1 \t\t\t\n              POP \t\t\t\n              SWAP2 \t\t\t\n              SWAP1 \t\t\t\n              POP \t\t\t\n              JUMP \t\t\t\n            tag 241\t\t\t\n              JUMPDEST \t\t\t\n              PUSH 0\t\t\t\n              PUSH 20\t\t\t\n              DUP3 \t\t\t\n              ADD \t\t\t\n              SWAP1 \t\t\t\n              POP \t\t\t\n              DUP2 \t\t\t\n              DUP2 \t\t\t\n              SUB \t\t\t\n              PUSH 0\t\t\t\n              DUP4 \t\t\t\n              ADD \t\t\t\n              MSTORE \t\t\t\n              PUSH [tag] 651\t\t\t\n              DUP2 \t\t\t\n              PUSH [tag] 399\t\t\t\n              JUMP \t\t\t\n            tag 651\t\t\t\n              JUMPDEST \t\t\t\n              SWAP1 \t\t\t\n              POP \t\t\t\n              SWAP2 \t\t\t\n              SWAP1 \t\t\t\n              POP \t\t\t\n              JUMP \t\t\t\n            tag 400\t\t\t\n              JUMPDEST \t\t\t\n              PUSH 0\t\t\t\n              DUP2 \t\t\t\n              SWAP1 \t\t\t\n              POP \t\t\t\n              DUP2 \t\t\t\n              PUSH 0\t\t\t\n              MSTORE \t\t\t\n              PUSH 20\t\t\t\n              PUSH 0\t\t\t\n              KECCAK256 \t\t\t\n              SWAP1 \t\t\t\n              POP \t\t\t\n              SWAP2 \t\t\t\n              SWAP1 \t\t\t\n              POP \t\t\t\n              JUMP \t\t\t\n            tag 401\t\t\t\n              JUMPDEST \t\t\t\n              PUSH 0\t\t\t\n              PUSH 20\t\t\t\n              PUSH 1F\t\t\t\n              DUP4 \t\t\t\n              ADD \t\t\t\n              DIV \t\t\t\n              SWAP1 \t\t\t\n              POP \t\t\t\n              SWAP2 \t\t\t\n              SWAP1 \t\t\t\n              POP \t\t\t\n              JUMP \t\t\t\n            tag 402\t\t\t\n              JUMPDEST \t\t\t\n              PUSH 0\t\t\t\n              DUP3 \t\t\t\n              DUP3 \t\t\t\n              SHL \t\t\t\n              SWAP1 \t\t\t\n              POP \t\t\t\n              SWAP3 \t\t\t\n              SWAP2 \t\t\t\n              POP \t\t\t\n              POP \t\t\t\n              JUMP \t\t\t\n            tag 403\t\t\t\n              JUMPDEST \t\t\t\n              PUSH 0\t\t\t\n              PUSH 8\t\t\t\n              DUP4 \t\t\t\n              MUL \t\t\t\n              PUSH [tag] 656\t\t\t\n              PUSH FFFFFFFFFFFFFFFFFFFFFFFFFFFFFFFFFFFFFFFFFFFFFFFFFFFFFFFFFFFFFFFF\t\t\t\n              DUP3 \t\t\t\n              PUSH [tag] 402\t\t\t\n              JUMP \t\t\t\n            tag 656\t\t\t\n              JUMPDEST \t\t\t\n              PUSH [tag] 657\t\t\t\n              DUP7 \t\t\t\n              DUP4 \t\t\t\n              PUSH [tag] 402\t\t\t\n              JUMP \t\t\t\n            tag 657\t\t\t\n              JUMPDEST \t\t\t\n              SWAP6 \t\t\t\n              POP \t\t\t\n              DUP1 \t\t\t\n              NOT \t\t\t\n              DUP5 \t\t\t\n              AND \t\t\t\n              SWAP4 \t\t\t\n              POP \t\t\t\n              DUP1 \t\t\t\n              DUP7 \t\t\t\n              AND \t\t\t\n              DUP5 \t\t\t\n              OR \t\t\t\n              SWAP3 \t\t\t\n              POP \t\t\t\n              POP \t\t\t\n              POP \t\t\t\n              SWAP4 \t\t\t\n              SWAP3 \t\t\t\n              POP \t\t\t\n              POP \t\t\t\n              POP \t\t\t\n              JUMP \t\t\t\n            tag 404\t\t\t\n              JUMPDEST \t\t\t\n              PUSH 0\t\t\t\n              DUP2 \t\t\t\n              SWAP1 \t\t\t\n              POP \t\t\t\n              SWAP2 \t\t\t\n              SWAP1 \t\t\t\n              POP \t\t\t\n              JUMP \t\t\t\n            tag 405\t\t\t\n              JUMPDEST \t\t\t\n              PUSH 0\t\t\t\n              PUSH [tag] 660\t\t\t\n              PUSH [tag] 661\t\t\t\n              PUSH [tag] 662\t\t\t\n              DUP5 \t\t\t\n              PUSH [tag] 351\t\t\t\n              JUMP \t\t\t\n            tag 662\t\t\t\n              JUMPDEST \t\t\t\n              PUSH [tag] 404\t\t\t\n              JUMP \t\t\t\n            tag 661\t\t\t\n              JUMPDEST \t\t\t\n              PUSH [tag] 351\t\t\t\n              JUMP \t\t\t\n            tag 660\t\t\t\n              JUMPDEST \t\t\t\n              SWAP1 \t\t\t\n              POP \t\t\t\n              SWAP2 \t\t\t\n              SWAP1 \t\t\t\n              POP \t\t\t\n              JUMP \t\t\t\n            tag 406\t\t\t\n              JUMPDEST \t\t\t\n              PUSH 0\t\t\t\n              DUP2 \t\t\t\n              SWAP1 \t\t\t\n              POP \t\t\t\n              SWAP2 \t\t\t\n              SWAP1 \t\t\t\n              POP \t\t\t\n              JUMP \t\t\t\n            tag 407\t\t\t\n              JUMPDEST \t\t\t\n              PUSH [tag] 665\t\t\t\n              DUP4 \t\t\t\n              PUSH [tag] 405\t\t\t\n              JUMP \t\t\t\n            tag 665\t\t\t\n              JUMPDEST \t\t\t\n              PUSH [tag] 666\t\t\t\n              PUSH [tag] 667\t\t\t\n              DUP3 \t\t\t\n              PUSH [tag] 406\t\t\t\n              JUMP \t\t\t\n            tag 667\t\t\t\n              JUMPDEST \t\t\t\n              DUP5 \t\t\t\n              DUP5 \t\t\t\n              SLOAD \t\t\t\n              PUSH [tag] 403\t\t\t\n              JUMP \t\t\t\n            tag 666\t\t\t\n              JUMPDEST \t\t\t\n              DUP3 \t\t\t\n              SSTORE \t\t\t\n              POP \t\t\t\n              POP \t\t\t\n              POP \t\t\t\n              POP \t\t\t\n              JUMP \t\t\t\n            tag 408\t\t\t\n              JUMPDEST \t\t\t\n              PUSH 0\t\t\t\n              SWAP1 \t\t\t\n              JUMP \t\t\t\n            tag 409\t\t\t\n              JUMPDEST \t\t\t\n              PUSH [tag] 670\t\t\t\n              PUSH [tag] 408\t\t\t\n              JUMP \t\t\t\n            tag 670\t\t\t\n              JUMPDEST \t\t\t\n              PUSH [tag] 671\t\t\t\n              DUP2 \t\t\t\n              DUP5 \t\t\t\n              DUP5 \t\t\t\n              PUSH [tag] 407\t\t\t\n              JUMP \t\t\t\n            tag 671\t\t\t\n              JUMPDEST \t\t\t\n              POP \t\t\t\n              POP \t\t\t\n              POP \t\t\t\n              JUMP \t\t\t\n            tag 410\t\t\t\n              JUMPDEST \t\t\t\n            tag 673\t\t\t\n              JUMPDEST \t\t\t\n              DUP2 \t\t\t\n              DUP2 \t\t\t\n              LT \t\t\t\n              ISZERO \t\t\t\n              PUSH [tag] 675\t\t\t\n              JUMPI \t\t\t\n              PUSH [tag] 676\t\t\t\n              PUSH 0\t\t\t\n              DUP3 \t\t\t\n              PUSH [tag] 409\t\t\t\n              JUMP \t\t\t\n            tag 676\t\t\t\n              JUMPDEST \t\t\t\n              PUSH 1\t\t\t\n              DUP2 \t\t\t\n              ADD \t\t\t\n              SWAP1 \t\t\t\n              POP \t\t\t\n              PUSH [tag] 673\t\t\t\n              JUMP \t\t\t\n            tag 675\t\t\t\n              JUMPDEST \t\t\t\n              POP \t\t\t\n              POP \t\t\t\n              JUMP \t\t\t\n            tag 411\t\t\t\n              JUMPDEST \t\t\t\n              PUSH 1F\t\t\t\n              DUP3 \t\t\t\n              GT \t\t\t\n              ISZERO \t\t\t\n              PUSH [tag] 678\t\t\t\n              JUMPI \t\t\t\n              PUSH [tag] 679\t\t\t\n              DUP2 \t\t\t\n              PUSH [tag] 400\t\t\t\n              JUMP \t\t\t\n            tag 679\t\t\t\n              JUMPDEST \t\t\t\n              PUSH [tag] 680\t\t\t\n              DUP5 \t\t\t\n              PUSH [tag] 401\t\t\t\n              JUMP \t\t\t\n            tag 680\t\t\t\n              JUMPDEST \t\t\t\n              DUP2 \t\t\t\n              ADD \t\t\t\n              PUSH 20\t\t\t\n              DUP6 \t\t\t\n              LT \t\t\t\n              ISZERO \t\t\t\n              PUSH [tag] 681\t\t\t\n              JUMPI \t\t\t\n              DUP2 \t\t\t\n              SWAP1 \t\t\t\n              POP \t\t\t\n            tag 681\t\t\t\n              JUMPDEST \t\t\t\n              PUSH [tag] 682\t\t\t\n              PUSH [tag] 683\t\t\t\n              DUP6 \t\t\t\n              PUSH [tag] 401\t\t\t\n              JUMP \t\t\t\n            tag 683\t\t\t\n              JUMPDEST \t\t\t\n              DUP4 \t\t\t\n              ADD \t\t\t\n              DUP3 \t\t\t\n              PUSH [tag] 410\t\t\t\n              JUMP \t\t\t\n            tag 682\t\t\t\n              JUMPDEST \t\t\t\n              POP \t\t\t\n              POP \t\t\t\n            tag 678\t\t\t\n              JUMPDEST \t\t\t\n              POP \t\t\t\n              POP \t\t\t\n              POP \t\t\t\n              JUMP \t\t\t\n            tag 412\t\t\t\n              JUMPDEST \t\t\t\n              PUSH 0\t\t\t\n              DUP3 \t\t\t\n              DUP3 \t\t\t\n              SHR \t\t\t\n              SWAP1 \t\t\t\n              POP \t\t\t\n              SWAP3 \t\t\t\n              SWAP2 \t\t\t\n              POP \t\t\t\n              POP \t\t\t\n              JUMP \t\t\t\n            tag 413\t\t\t\n              JUMPDEST \t\t\t\n              PUSH 0\t\t\t\n              PUSH [tag] 686\t\t\t\n              PUSH 0\t\t\t\n              NOT \t\t\t\n              DUP5 \t\t\t\n              PUSH 8\t\t\t\n              MUL \t\t\t\n              PUSH [tag] 412\t\t\t\n              JUMP \t\t\t\n            tag 686\t\t\t\n              JUMPDEST \t\t\t\n              NOT \t\t\t\n              DUP1 \t\t\t\n              DUP4 \t\t\t\n              AND \t\t\t\n              SWAP2 \t\t\t\n              POP \t\t\t\n              POP \t\t\t\n              SWAP3 \t\t\t\n              SWAP2 \t\t\t\n              POP \t\t\t\n              POP \t\t\t\n              JUMP \t\t\t\n            tag 414\t\t\t\n              JUMPDEST \t\t\t\n              PUSH 0\t\t\t\n              PUSH [tag] 688\t\t\t\n              DUP4 \t\t\t\n              DUP4 \t\t\t\n              PUSH [tag] 413\t\t\t\n              JUMP \t\t\t\n            tag 688\t\t\t\n              JUMPDEST \t\t\t\n              SWAP2 \t\t\t\n              POP \t\t\t\n              DUP3 \t\t\t\n              PUSH 2\t\t\t\n              MUL \t\t\t\n              DUP3 \t\t\t\n              OR \t\t\t\n              SWAP1 \t\t\t\n              POP \t\t\t\n              SWAP3 \t\t\t\n              SWAP2 \t\t\t\n              POP \t\t\t\n              POP \t\t\t\n              JUMP \t\t\t\n            tag 243\t\t\t\n              JUMPDEST \t\t\t\n              PUSH [tag] 690\t\t\t\n              DUP3 \t\t\t\n              PUSH [tag] 346\t\t\t\n              JUMP \t\t\t\n            tag 690\t\t\t\n              JUMPDEST \t\t\t\n              PUSH FFFFFFFFFFFFFFFF\t\t\t\n              DUP2 \t\t\t\n              GT \t\t\t\n              ISZERO \t\t\t\n              PUSH [tag] 691\t\t\t\n              JUMPI \t\t\t\n              PUSH [tag] 692\t\t\t\n              PUSH [tag] 297\t\t\t\n              JUMP \t\t\t\n            tag 692\t\t\t\n              JUMPDEST \t\t\t\n            tag 691\t\t\t\n              JUMPDEST \t\t\t\n              PUSH [tag] 693\t\t\t\n              DUP3 \t\t\t\n              SLOAD \t\t\t\n              PUSH [tag] 90\t\t\t\n              JUMP \t\t\t\n            tag 693\t\t\t\n              JUMPDEST \t\t\t\n              PUSH [tag] 694\t\t\t\n              DUP3 \t\t\t\n              DUP3 \t\t\t\n              DUP6 \t\t\t\n              PUSH [tag] 411\t\t\t\n              JUMP \t\t\t\n            tag 694\t\t\t\n              JUMPDEST \t\t\t\n              PUSH 0\t\t\t\n              PUSH 20\t\t\t\n              SWAP1 \t\t\t\n              POP \t\t\t\n              PUSH 1F\t\t\t\n              DUP4 \t\t\t\n              GT \t\t\t\n              PUSH 1\t\t\t\n              DUP2 \t\t\t\n              EQ \t\t\t\n              PUSH [tag] 696\t\t\t\n              JUMPI \t\t\t\n              PUSH 0\t\t\t\n              DUP5 \t\t\t\n              ISZERO \t\t\t\n              PUSH [tag] 697\t\t\t\n              JUMPI \t\t\t\n              DUP3 \t\t\t\n              DUP8 \t\t\t\n              ADD \t\t\t\n              MLOAD \t\t\t\n              SWAP1 \t\t\t\n              POP \t\t\t\n            tag 697\t\t\t\n              JUMPDEST \t\t\t\n              PUSH [tag] 698\t\t\t\n              DUP6 \t\t\t\n              DUP3 \t\t\t\n              PUSH [tag] 414\t\t\t\n              JUMP \t\t\t\n            tag 698\t\t\t\n              JUMPDEST \t\t\t\n              DUP7 \t\t\t\n              SSTORE \t\t\t\n              POP \t\t\t\n              PUSH [tag] 695\t\t\t\n              JUMP \t\t\t\n            tag 696\t\t\t\n              JUMPDEST \t\t\t\n              PUSH 1F\t\t\t\n              NOT \t\t\t\n              DUP5 \t\t\t\n              AND \t\t\t\n              PUSH [tag] 699\t\t\t\n              DUP7 \t\t\t\n              PUSH [tag] 400\t\t\t\n              JUMP \t\t\t\n            tag 699\t\t\t\n              JUMPDEST \t\t\t\n              PUSH 0\t\t\t\n            tag 700\t\t\t\n              JUMPDEST \t\t\t\n              DUP3 \t\t\t\n              DUP2 \t\t\t\n              LT \t\t\t\n              ISZERO \t\t\t\n              PUSH [tag] 702\t\t\t\n              JUMPI \t\t\t\n              DUP5 \t\t\t\n              DUP10 \t\t\t\n              ADD \t\t\t\n              MLOAD \t\t\t\n              DUP3 \t\t\t\n              SSTORE \t\t\t\n              PUSH 1\t\t\t\n              DUP3 \t\t\t\n              ADD \t\t\t\n              SWAP2 \t\t\t\n              POP \t\t\t\n              PUSH 20\t\t\t\n              DUP6 \t\t\t\n              ADD \t\t\t\n              SWAP5 \t\t\t\n              POP \t\t\t\n              PUSH 20\t\t\t\n              DUP2 \t\t\t\n              ADD \t\t\t\n              SWAP1 \t\t\t\n              POP \t\t\t\n              PUSH [tag] 700\t\t\t\n              JUMP \t\t\t\n            tag 702\t\t\t\n              JUMPDEST \t\t\t\n              DUP7 \t\t\t\n              DUP4 \t\t\t\n              LT \t\t\t\n              ISZERO \t\t\t\n              PUSH [tag] 703\t\t\t\n              JUMPI \t\t\t\n              DUP5 \t\t\t\n              DUP10 \t\t\t\n              ADD \t\t\t\n              MLOAD \t\t\t\n              PUSH [tag] 704\t\t\t\n              PUSH 1F\t\t\t\n              DUP10 \t\t\t\n              AND \t\t\t\n              DUP3 \t\t\t\n              PUSH [tag] 413\t\t\t\n              JUMP \t\t\t\n            tag 704\t\t\t\n              JUMPDEST \t\t\t\n              DUP4 \t\t\t\n              SSTORE \t\t\t\n              POP \t\t\t\n            tag 703\t\t\t\n              JUMPDEST \t\t\t\n              PUSH 1\t\t\t\n              PUSH 2\t\t\t\n              DUP9 \t\t\t\n              MUL \t\t\t\n              ADD \t\t\t\n              DUP9 \t\t\t\n              SSTORE \t\t\t\n              POP \t\t\t\n              POP \t\t\t\n              POP \t\t\t\n            tag 695\t\t\t\n              JUMPDEST \t\t\t\n              POP \t\t\t\n              POP \t\t\t\n              POP \t\t\t\n              POP \t\t\t\n              POP \t\t\t\n              POP \t\t\t\n              JUMP \t\t\t\n            tag 415\t\t\t\n              JUMPDEST \t\t\t\n              PUSH 0\t\t\t\n              DUP2 \t\t\t\n              MLOAD \t\t\t\n              SWAP1 \t\t\t\n              POP \t\t\t\n              SWAP2 \t\t\t\n              SWAP1 \t\t\t\n              POP \t\t\t\n              JUMP \t\t\t\n            tag 416\t\t\t\n              JUMPDEST \t\t\t\n              PUSH 0\t\t\t\n              DUP3 \t\t\t\n              DUP3 \t\t\t\n              MSTORE \t\t\t\n              PUSH 20\t\t\t\n              DUP3 \t\t\t\n              ADD \t\t\t\n              SWAP1 \t\t\t\n              POP \t\t\t\n              SWAP3 \t\t\t\n              SWAP2 \t\t\t\n              POP \t\t\t\n              POP \t\t\t\n              JUMP \t\t\t\n            tag 417\t\t\t\n              JUMPDEST \t\t\t\n              PUSH 0\t\t\t\n              PUSH [tag] 708\t\t\t\n              DUP3 \t\t\t\n              PUSH [tag] 415\t\t\t\n              JUMP \t\t\t\n            tag 708\t\t\t\n              JUMPDEST \t\t\t\n              PUSH [tag] 709\t\t\t\n              DUP2 \t\t\t\n              DUP6 \t\t\t\n              PUSH [tag] 416\t\t\t\n              JUMP \t\t\t\n            tag 709\t\t\t\n              JUMPDEST \t\t\t\n              SWAP4 \t\t\t\n              POP \t\t\t\n              PUSH [tag] 710\t\t\t\n              DUP2 \t\t\t\n              DUP6 \t\t\t\n              PUSH 20\t\t\t\n              DUP7 \t\t\t\n              ADD \t\t\t\n              PUSH [tag] 348\t\t\t\n              JUMP \t\t\t\n            tag 710\t\t\t\n              JUMPDEST \t\t\t\n              PUSH [tag] 711\t\t\t\n              DUP2 \t\t\t\n              PUSH [tag] 349\t\t\t\n              JUMP \t\t\t\n            tag 711\t\t\t\n              JUMPDEST \t\t\t\n              DUP5 \t\t\t\n              ADD \t\t\t\n              SWAP2 \t\t\t\n              POP \t\t\t\n              POP \t\t\t\n              SWAP3 \t\t\t\n              SWAP2 \t\t\t\n              POP \t\t\t\n              POP \t\t\t\n              JUMP \t\t\t\n            tag 260\t\t\t\n              JUMPDEST \t\t\t\n              PUSH 0\t\t\t\n              PUSH 80\t\t\t\n              DUP3 \t\t\t\n              ADD \t\t\t\n              SWAP1 \t\t\t\n              POP \t\t\t\n              PUSH [tag] 713\t\t\t\n              PUSH 0\t\t\t\n              DUP4 \t\t\t\n              ADD \t\t\t\n              DUP8 \t\t\t\n              PUSH [tag] 356\t\t\t\n              JUMP \t\t\t\n            tag 713\t\t\t\n              JUMPDEST \t\t\t\n              PUSH [tag] 714\t\t\t\n              PUSH 20\t\t\t\n              DUP4 \t\t\t\n              ADD \t\t\t\n              DUP7 \t\t\t\n              PUSH [tag] 356\t\t\t\n              JUMP \t\t\t\n            tag 714\t\t\t\n              JUMPDEST \t\t\t\n              PUSH [tag] 715\t\t\t\n              PUSH 40\t\t\t\n              DUP4 \t\t\t\n              ADD \t\t\t\n              DUP6 \t\t\t\n              PUSH [tag] 359\t\t\t\n              JUMP \t\t\t\n            tag 715\t\t\t\n              JUMPDEST \t\t\t\n              DUP2 \t\t\t\n              DUP2 \t\t\t\n              SUB \t\t\t\n              PUSH 60\t\t\t\n              DUP4 \t\t\t\n              ADD \t\t\t\n              MSTORE \t\t\t\n              PUSH [tag] 716\t\t\t\n              DUP2 \t\t\t\n              DUP5 \t\t\t\n              PUSH [tag] 417\t\t\t\n              JUMP \t\t\t\n            tag 716\t\t\t\n              JUMPDEST \t\t\t\n              SWAP1 \t\t\t\n              POP \t\t\t\n              SWAP6 \t\t\t\n              SWAP5 \t\t\t\n              POP \t\t\t\n              POP \t\t\t\n              POP \t\t\t\n              POP \t\t\t\n              POP \t\t\t\n              JUMP \t\t\t\n            tag 418\t\t\t\n              JUMPDEST \t\t\t\n              PUSH 0\t\t\t\n              DUP2 \t\t\t\n              MLOAD \t\t\t\n              SWAP1 \t\t\t\n              POP \t\t\t\n              PUSH [tag] 718\t\t\t\n              DUP2 \t\t\t\n              PUSH [tag] 342\t\t\t\n              JUMP \t\t\t\n            tag 718\t\t\t\n              JUMPDEST \t\t\t\n              SWAP3 \t\t\t\n              SWAP2 \t\t\t\n              POP \t\t\t\n              POP \t\t\t\n              JUMP \t\t\t\n            tag 263\t\t\t\n              JUMPDEST \t\t\t\n              PUSH 0\t\t\t\n              PUSH 20\t\t\t\n              DUP3 \t\t\t\n              DUP5 \t\t\t\n              SUB \t\t\t\n              SLT \t\t\t\n              ISZERO \t\t\t\n              PUSH [tag] 720\t\t\t\n              JUMPI \t\t\t\n              PUSH [tag] 721\t\t\t\n              PUSH [tag] 339\t\t\t\n              JUMP \t\t\t\n            tag 721\t\t\t\n              JUMPDEST \t\t\t\n            tag 720\t\t\t\n              JUMPDEST \t\t\t\n              PUSH 0\t\t\t\n              PUSH [tag] 722\t\t\t\n              DUP5 \t\t\t\n              DUP3 \t\t\t\n              DUP6 \t\t\t\n              ADD \t\t\t\n              PUSH [tag] 418\t\t\t\n              JUMP \t\t\t\n            tag 722\t\t\t\n              JUMPDEST \t\t\t\n              SWAP2 \t\t\t\n              POP \t\t\t\n              POP \t\t\t\n              SWAP3 \t\t\t\n              SWAP2 \t\t\t\n              POP \t\t\t\n              POP \t\t\t\n              JUMP \t\t\t\n            tag 303\t\t\t\n              JUMPDEST \t\t\t\n              PUSH 4E487B7100000000000000000000000000000000000000000000000000000000\t\t\t\n              PUSH 0\t\t\t\n              MSTORE \t\t\t\n              PUSH 12\t\t\t\n              PUSH 4\t\t\t\n              MSTORE \t\t\t\n              PUSH 24\t\t\t\n              PUSH 0\t\t\t\n              REVERT \t\t\t\n            tag 419\t\t\t\n              JUMPDEST \t\t\t\n              PUSH 4552433732313A206D696E7420746F20746865207A65726F2061646472657373\t\t\t\n              PUSH 0\t\t\t\n              DUP3 \t\t\t\n              ADD \t\t\t\n              MSTORE \t\t\t\n              POP \t\t\t\n              JUMP \t\t\t\n            tag 420\t\t\t\n              JUMPDEST \t\t\t\n              PUSH 0\t\t\t\n              PUSH [tag] 726\t\t\t\n              PUSH 20\t\t\t\n              DUP4 \t\t\t\n              PUSH [tag] 347\t\t\t\n              JUMP \t\t\t\n            tag 726\t\t\t\n              JUMPDEST \t\t\t\n              SWAP2 \t\t\t\n              POP \t\t\t\n              PUSH [tag] 727\t\t\t\n              DUP3 \t\t\t\n              PUSH [tag] 419\t\t\t\n              JUMP \t\t\t\n            tag 727\t\t\t\n              JUMPDEST \t\t\t\n              PUSH 20\t\t\t\n              DUP3 \t\t\t\n              ADD \t\t\t\n              SWAP1 \t\t\t\n              POP \t\t\t\n              SWAP2 \t\t\t\n              SWAP1 \t\t\t\n              POP \t\t\t\n              JUMP \t\t\t\n            tag 308\t\t\t\n              JUMPDEST \t\t\t\n              PUSH 0\t\t\t\n              PUSH 20\t\t\t\n              DUP3 \t\t\t\n              ADD \t\t\t\n              SWAP1 \t\t\t\n              POP \t\t\t\n              DUP2 \t\t\t\n              DUP2 \t\t\t\n              SUB \t\t\t\n              PUSH 0\t\t\t\n              DUP4 \t\t\t\n              ADD \t\t\t\n              MSTORE \t\t\t\n              PUSH [tag] 729\t\t\t\n              DUP2 \t\t\t\n              PUSH [tag] 420\t\t\t\n              JUMP \t\t\t\n            tag 729\t\t\t\n              JUMPDEST \t\t\t\n              SWAP1 \t\t\t\n              POP \t\t\t\n              SWAP2 \t\t\t\n              SWAP1 \t\t\t\n              POP \t\t\t\n              JUMP \t\t\t\n            tag 421\t\t\t\n              JUMPDEST \t\t\t\n              PUSH 4552433732313A20746F6B656E20616C7265616479206D696E74656400000000\t\t\t\n              PUSH 0\t\t\t\n              DUP3 \t\t\t\n              ADD \t\t\t\n              MSTORE \t\t\t\n              POP \t\t\t\n              JUMP \t\t\t\n            tag 422\t\t\t\n              JUMPDEST \t\t\t\n              PUSH 0\t\t\t\n              PUSH [tag] 732\t\t\t\n              PUSH 1C\t\t\t\n              DUP4 \t\t\t\n              PUSH [tag] 347\t\t\t\n              JUMP \t\t\t\n            tag 732\t\t\t\n              JUMPDEST \t\t\t\n              SWAP2 \t\t\t\n              POP \t\t\t\n              PUSH [tag] 733\t\t\t\n              DUP3 \t\t\t\n              PUSH [tag] 421\t\t\t\n              JUMP \t\t\t\n            tag 733\t\t\t\n              JUMPDEST \t\t\t\n              PUSH 20\t\t\t\n              DUP3 \t\t\t\n              ADD \t\t\t\n              SWAP1 \t\t\t\n              POP \t\t\t\n              SWAP2 \t\t\t\n              SWAP1 \t\t\t\n              POP \t\t\t\n              JUMP \t\t\t\n            tag 312\t\t\t\n              JUMPDEST \t\t\t\n              PUSH 0\t\t\t\n              PUSH 20\t\t\t\n              DUP3 \t\t\t\n              ADD \t\t\t\n              SWAP1 \t\t\t\n              POP \t\t\t\n              DUP2 \t\t\t\n              DUP2 \t\t\t\n              SUB \t\t\t\n              PUSH 0\t\t\t\n              DUP4 \t\t\t\n              ADD \t\t\t\n              MSTORE \t\t\t\n              PUSH [tag] 735\t\t\t\n              DUP2 \t\t\t\n              PUSH [tag] 422\t\t\t\n              JUMP \t\t\t\n            tag 735\t\t\t\n              JUMPDEST \t\t\t\n              SWAP1 \t\t\t\n              POP \t\t\t\n              SWAP2 \t\t\t\n              SWAP1 \t\t\t\n              POP \t\t\t\n              JUMP \t\t\t\n            .data\n"
}