{
	"compilerInput": "{\"language\":\"Solidity\",\"sources\":{\"Genesis.sol\":{\"content\":\"// SPDX-License-Identifier: MIT\\r\\npragma solidity ^0.8.9;\\r\\n\\r\\nimport \\\"@openzeppelin/contracts/token/ERC20/ERC20.sol\\\";\\r\\nimport \\\"./TreeCollection.sol\\\";\\r\\n\\r\\ncontract Genesis is ERC20 {\\r\\n\\r\\n    using Counters for Counters.Counter;\\r\\n    Counters.Counter public TreeCollectionCounter;\\r\\n\\r\\n    ERC20 immutable STNEAR;\\r\\n    address immutable admin;\\r\\n\\r\\n    constructor(address _token) ERC20(\\\"Genesis\\\", \\\"GNE\\\"){\\r\\n        admin = msg.sender;\\r\\n        STNEAR = ERC20(_token);\\r\\n    }\\r\\n\\r\\n    function mint(address to, uint256 amount) internal{\\r\\n        _mint(to, amount);\\r\\n    }\\r\\n\\r\\n    struct TreeDetails{\\r\\n        uint256 lastWatered;\\r\\n        uint256 lastClaimed;\\r\\n        uint256 wateredTimes;\\r\\n        uint256 tokensYielded;\\r\\n    }\\r\\n\\r\\n    struct UserTreeMapping {\\r\\n        mapping(uint256 => TreeDetails) treeDetails; // mapping to store user details with its tokenID\\r\\n    }\\r\\n\\r\\n    mapping(uint256 => TreeCollection) public treecollections; // to keep record of collection with their IDs\\r\\n    mapping(TreeCollection => uint256) public CollectionToID; // to get contract instance using their IDs\\r\\n    mapping(uint256 => UserTreeMapping) userTree; // mapping of a Tree with its collection\\r\\n\\r\\n    function mintNewTreeCollection(string memory name, string memory symbol) public {\\r\\n\\r\\n        require(msg.sender == admin, \\\"Nope!\\\");\\r\\n\\r\\n        TreeCollectionCounter.increment();\\r\\n        uint256 collectionID = TreeCollectionCounter.current();\\r\\n        TreeCollection newCollection = new TreeCollection(name, symbol);\\r\\n        treecollections[collectionID] = newCollection;\\r\\n        CollectionToID[newCollection] = collectionID;\\r\\n    }\\r\\n\\r\\n    function mintTree(uint256 collectionID, string memory _uri) public {\\r\\n\\r\\n        require(STNEAR.transferFrom(msg.sender, address(this), 5 * 10 ** 24), \\\"STNEAR: transferFrom failed\\\"); \\r\\n\\r\\n        TreeCollection treecollection = TreeCollection(treecollections[collectionID]);\\r\\n        treecollection.safeMint(msg.sender, _uri); \\r\\n        uint256 tokenID = treecollection.tokenIdCounter();\\r\\n        userTree[collectionID].treeDetails[tokenID] = TreeDetails(0, 0, 0, 0);\\r\\n    }\\r\\n\\r\\n    function water(uint256 _collectionID, uint256 _tokenID) public returns(bool) {\\r\\n\\r\\n        TreeCollection treecollection = TreeCollection(treecollections[_collectionID]);\\r\\n\\r\\n        require(treecollection.ownerOf(_tokenID) == msg.sender, \\\"You are not the owner\\\");\\r\\n\\r\\n        require(STNEAR.transferFrom(msg.sender, address(this), 1 * 10 ** 24), \\\"STNEAR: transferFrom failed\\\"); \\r\\n\\r\\n        userTree[_collectionID].treeDetails[_tokenID].lastWatered = block.timestamp;\\r\\n        userTree[_collectionID].treeDetails[_tokenID].wateredTimes += 1;\\r\\n\\r\\n        return true;\\r\\n    }\\r\\n\\r\\n    function claim(uint256 _collectionID, uint256 _tokenID) public returns(bool) {\\r\\n\\r\\n        TreeCollection treecollection = TreeCollection(treecollections[_collectionID]);\\r\\n\\r\\n        require(treecollection.ownerOf(_tokenID) == msg.sender, \\\"You are not the owner\\\");\\r\\n\\r\\n        require(block.timestamp - userTree[_collectionID].treeDetails[_tokenID].lastWatered <= 43200, \\\"Water First\\\");\\r\\n        require(block.timestamp - userTree[_collectionID].treeDetails[_tokenID].lastClaimed > 86400, \\\"Can't Claim\\\");\\r\\n\\r\\n        userTree[_collectionID].treeDetails[_tokenID].lastClaimed = block.timestamp;\\r\\n        userTree[_collectionID].treeDetails[_tokenID].tokensYielded += 5;\\r\\n        mint(msg.sender, 5 * 10 ** 18);\\r\\n\\r\\n        return true;\\r\\n    }\\r\\n\\r\\n    function getTreeDetails(uint256 collectionId, uint256 tokenId) public view returns(TreeDetails memory) {\\r\\n        return userTree[collectionId].treeDetails[tokenId];\\r\\n        //returns details related to a particula NFT(Tree)\\r\\n    }\\r\\n\\r\\n    function returnNFTcount(uint256 collectionID) public view returns(uint256) {\\r\\n        return (treecollections[collectionID].tokenIdCounter());\\r\\n        //returns NFTs minted in a particular collection\\r\\n    }\\r\\n\\r\\n    function getCollectionID(TreeCollection collection) public view returns (uint256) {\\r\\n        return CollectionToID[collection];\\r\\n        // to get particular collection ID using its instance\\r\\n    }\\r\\n}\"},\"TreeCollection.sol\":{\"content\":\"// SPDX-License-Identifier: MIT\\r\\npragma solidity ^0.8.9;\\r\\nimport \\\"@openzeppelin/contracts/token/ERC721/ERC721.sol\\\";\\r\\nimport \\\"@openzeppelin/contracts/token/ERC721/extensions/ERC721URIStorage.sol\\\";\\r\\nimport \\\"@openzeppelin/contracts/utils/Counters.sol\\\";\\r\\n\\r\\ncontract TreeCollection is ERC721, ERC721URIStorage{\\r\\n\\r\\n    address immutable parent;\\r\\n\\r\\n    modifier onlyGenesis {\\r\\n        require(msg.sender == parent, \\\"You do not have access!\\\");\\r\\n        _;\\r\\n    }\\r\\n\\r\\n    using Counters for Counters.Counter;\\r\\n    Counters.Counter public tokenIdCounter;\\r\\n\\r\\n    constructor(string memory name, string memory symbol) ERC721(name, symbol) {\\r\\n        parent = msg.sender;\\r\\n    }\\r\\n\\r\\n    function safeMint(address to, string memory uri) public onlyGenesis {\\r\\n        tokenIdCounter.increment();\\r\\n        uint256 tokenId = tokenIdCounter.current();\\r\\n        require(tokenId <= 30, \\\"There can be only 30 NFTs in a Tree Collection!\\\");\\r\\n        _safeMint(to, tokenId);\\r\\n        _setTokenURI(tokenId, uri);\\r\\n    }\\r\\n\\r\\n    function _burn(uint256 tokenId) internal override(ERC721, ERC721URIStorage) {\\r\\n        super._burn(tokenId);\\r\\n    }\\r\\n\\r\\n    function tokenURI(uint256 tokenId) public view override(ERC721, ERC721URIStorage) returns (string memory) {\\r\\n        return super.tokenURI(tokenId);\\r\\n    }\\r\\n\\r\\n    function supportsInterface(bytes4 interfaceId) public view override(ERC721, ERC721URIStorage) returns (bool) {\\r\\n        return super.supportsInterface(interfaceId);\\r\\n    }\\r\\n}\"},\"@openzeppelin/contracts/token/ERC20/ERC20.sol\":{\"content\":\"// SPDX-License-Identifier: MIT\\n// OpenZeppelin Contracts (last updated v4.9.0) (token/ERC20/ERC20.sol)\\n\\npragma solidity ^0.8.0;\\n\\nimport \\\"./IERC20.sol\\\";\\nimport \\\"./extensions/IERC20Metadata.sol\\\";\\nimport \\\"../../utils/Context.sol\\\";\\n\\n/**\\n * @dev Implementation of the {IERC20} interface.\\n *\\n * This implementation is agnostic to the way tokens are created. This means\\n * that a supply mechanism has to be added in a derived contract using {_mint}.\\n * For a generic mechanism see {ERC20PresetMinterPauser}.\\n *\\n * TIP: For a detailed writeup see our guide\\n * https://forum.openzeppelin.com/t/how-to-implement-erc20-supply-mechanisms/226[How\\n * to implement supply mechanisms].\\n *\\n * The default value of {decimals} is 18. To change this, you should override\\n * this function so it returns a different value.\\n *\\n * We have followed general OpenZeppelin Contracts guidelines: functions revert\\n * instead returning `false` on failure. This behavior is nonetheless\\n * conventional and does not conflict with the expectations of ERC20\\n * applications.\\n *\\n * Additionally, an {Approval} event is emitted on calls to {transferFrom}.\\n * This allows applications to reconstruct the allowance for all accounts just\\n * by listening to said events. Other implementations of the EIP may not emit\\n * these events, as it isn't required by the specification.\\n *\\n * Finally, the non-standard {decreaseAllowance} and {increaseAllowance}\\n * functions have been added to mitigate the well-known issues around setting\\n * allowances. See {IERC20-approve}.\\n */\\ncontract ERC20 is Context, IERC20, IERC20Metadata {\\n    mapping(address => uint256) private _balances;\\n\\n    mapping(address => mapping(address => uint256)) private _allowances;\\n\\n    uint256 private _totalSupply;\\n\\n    string private _name;\\n    string private _symbol;\\n\\n    /**\\n     * @dev Sets the values for {name} and {symbol}.\\n     *\\n     * All two of these values are immutable: they can only be set once during\\n     * construction.\\n     */\\n    constructor(string memory name_, string memory symbol_) {\\n        _name = name_;\\n        _symbol = symbol_;\\n    }\\n\\n    /**\\n     * @dev Returns the name of the token.\\n     */\\n    function name() public view virtual override returns (string memory) {\\n        return _name;\\n    }\\n\\n    /**\\n     * @dev Returns the symbol of the token, usually a shorter version of the\\n     * name.\\n     */\\n    function symbol() public view virtual override returns (string memory) {\\n        return _symbol;\\n    }\\n\\n    /**\\n     * @dev Returns the number of decimals used to get its user representation.\\n     * For example, if `decimals` equals `2`, a balance of `505` tokens should\\n     * be displayed to a user as `5.05` (`505 / 10 ** 2`).\\n     *\\n     * Tokens usually opt for a value of 18, imitating the relationship between\\n     * Ether and Wei. This is the default value returned by this function, unless\\n     * it's overridden.\\n     *\\n     * NOTE: This information is only used for _display_ purposes: it in\\n     * no way affects any of the arithmetic of the contract, including\\n     * {IERC20-balanceOf} and {IERC20-transfer}.\\n     */\\n    function decimals() public view virtual override returns (uint8) {\\n        return 18;\\n    }\\n\\n    /**\\n     * @dev See {IERC20-totalSupply}.\\n     */\\n    function totalSupply() public view virtual override returns (uint256) {\\n        return _totalSupply;\\n    }\\n\\n    /**\\n     * @dev See {IERC20-balanceOf}.\\n     */\\n    function balanceOf(address account) public view virtual override returns (uint256) {\\n        return _balances[account];\\n    }\\n\\n    /**\\n     * @dev See {IERC20-transfer}.\\n     *\\n     * Requirements:\\n     *\\n     * - `to` cannot be the zero address.\\n     * - the caller must have a balance of at least `amount`.\\n     */\\n    function transfer(address to, uint256 amount) public virtual override returns (bool) {\\n        address owner = _msgSender();\\n        _transfer(owner, to, amount);\\n        return true;\\n    }\\n\\n    /**\\n     * @dev See {IERC20-allowance}.\\n     */\\n    function allowance(address owner, address spender) public view virtual override returns (uint256) {\\n        return _allowances[owner][spender];\\n    }\\n\\n    /**\\n     * @dev See {IERC20-approve}.\\n     *\\n     * NOTE: If `amount` is the maximum `uint256`, the allowance is not updated on\\n     * `transferFrom`. This is semantically equivalent to an infinite approval.\\n     *\\n     * Requirements:\\n     *\\n     * - `spender` cannot be the zero address.\\n     */\\n    function approve(address spender, uint256 amount) public virtual override returns (bool) {\\n        address owner = _msgSender();\\n        _approve(owner, spender, amount);\\n        return true;\\n    }\\n\\n    /**\\n     * @dev See {IERC20-transferFrom}.\\n     *\\n     * Emits an {Approval} event indicating the updated allowance. This is not\\n     * required by the EIP. See the note at the beginning of {ERC20}.\\n     *\\n     * NOTE: Does not update the allowance if the current allowance\\n     * is the maximum `uint256`.\\n     *\\n     * Requirements:\\n     *\\n     * - `from` and `to` cannot be the zero address.\\n     * - `from` must have a balance of at least `amount`.\\n     * - the caller must have allowance for ``from``'s tokens of at least\\n     * `amount`.\\n     */\\n    function transferFrom(address from, address to, uint256 amount) public virtual override returns (bool) {\\n        address spender = _msgSender();\\n        _spendAllowance(from, spender, amount);\\n        _transfer(from, to, amount);\\n        return true;\\n    }\\n\\n    /**\\n     * @dev Atomically increases the allowance granted to `spender` by the caller.\\n     *\\n     * This is an alternative to {approve} that can be used as a mitigation for\\n     * problems described in {IERC20-approve}.\\n     *\\n     * Emits an {Approval} event indicating the updated allowance.\\n     *\\n     * Requirements:\\n     *\\n     * - `spender` cannot be the zero address.\\n     */\\n    function increaseAllowance(address spender, uint256 addedValue) public virtual returns (bool) {\\n        address owner = _msgSender();\\n        _approve(owner, spender, allowance(owner, spender) + addedValue);\\n        return true;\\n    }\\n\\n    /**\\n     * @dev Atomically decreases the allowance granted to `spender` by the caller.\\n     *\\n     * This is an alternative to {approve} that can be used as a mitigation for\\n     * problems described in {IERC20-approve}.\\n     *\\n     * Emits an {Approval} event indicating the updated allowance.\\n     *\\n     * Requirements:\\n     *\\n     * - `spender` cannot be the zero address.\\n     * - `spender` must have allowance for the caller of at least\\n     * `subtractedValue`.\\n     */\\n    function decreaseAllowance(address spender, uint256 subtractedValue) public virtual returns (bool) {\\n        address owner = _msgSender();\\n        uint256 currentAllowance = allowance(owner, spender);\\n        require(currentAllowance >= subtractedValue, \\\"ERC20: decreased allowance below zero\\\");\\n        unchecked {\\n            _approve(owner, spender, currentAllowance - subtractedValue);\\n        }\\n\\n        return true;\\n    }\\n\\n    /**\\n     * @dev Moves `amount` of tokens from `from` to `to`.\\n     *\\n     * This internal function is equivalent to {transfer}, and can be used to\\n     * e.g. implement automatic token fees, slashing mechanisms, etc.\\n     *\\n     * Emits a {Transfer} event.\\n     *\\n     * Requirements:\\n     *\\n     * - `from` cannot be the zero address.\\n     * - `to` cannot be the zero address.\\n     * - `from` must have a balance of at least `amount`.\\n     */\\n    function _transfer(address from, address to, uint256 amount) internal virtual {\\n        require(from != address(0), \\\"ERC20: transfer from the zero address\\\");\\n        require(to != address(0), \\\"ERC20: transfer to the zero address\\\");\\n\\n        _beforeTokenTransfer(from, to, amount);\\n\\n        uint256 fromBalance = _balances[from];\\n        require(fromBalance >= amount, \\\"ERC20: transfer amount exceeds balance\\\");\\n        unchecked {\\n            _balances[from] = fromBalance - amount;\\n            // Overflow not possible: the sum of all balances is capped by totalSupply, and the sum is preserved by\\n            // decrementing then incrementing.\\n            _balances[to] += amount;\\n        }\\n\\n        emit Transfer(from, to, amount);\\n\\n        _afterTokenTransfer(from, to, amount);\\n    }\\n\\n    /** @dev Creates `amount` tokens and assigns them to `account`, increasing\\n     * the total supply.\\n     *\\n     * Emits a {Transfer} event with `from` set to the zero address.\\n     *\\n     * Requirements:\\n     *\\n     * - `account` cannot be the zero address.\\n     */\\n    function _mint(address account, uint256 amount) internal virtual {\\n        require(account != address(0), \\\"ERC20: mint to the zero address\\\");\\n\\n        _beforeTokenTransfer(address(0), account, amount);\\n\\n        _totalSupply += amount;\\n        unchecked {\\n            // Overflow not possible: balance + amount is at most totalSupply + amount, which is checked above.\\n            _balances[account] += amount;\\n        }\\n        emit Transfer(address(0), account, amount);\\n\\n        _afterTokenTransfer(address(0), account, amount);\\n    }\\n\\n    /**\\n     * @dev Destroys `amount` tokens from `account`, reducing the\\n     * total supply.\\n     *\\n     * Emits a {Transfer} event with `to` set to the zero address.\\n     *\\n     * Requirements:\\n     *\\n     * - `account` cannot be the zero address.\\n     * - `account` must have at least `amount` tokens.\\n     */\\n    function _burn(address account, uint256 amount) internal virtual {\\n        require(account != address(0), \\\"ERC20: burn from the zero address\\\");\\n\\n        _beforeTokenTransfer(account, address(0), amount);\\n\\n        uint256 accountBalance = _balances[account];\\n        require(accountBalance >= amount, \\\"ERC20: burn amount exceeds balance\\\");\\n        unchecked {\\n            _balances[account] = accountBalance - amount;\\n            // Overflow not possible: amount <= accountBalance <= totalSupply.\\n            _totalSupply -= amount;\\n        }\\n\\n        emit Transfer(account, address(0), amount);\\n\\n        _afterTokenTransfer(account, address(0), amount);\\n    }\\n\\n    /**\\n     * @dev Sets `amount` as the allowance of `spender` over the `owner` s tokens.\\n     *\\n     * This internal function is equivalent to `approve`, and can be used to\\n     * e.g. set automatic allowances for certain subsystems, etc.\\n     *\\n     * Emits an {Approval} event.\\n     *\\n     * Requirements:\\n     *\\n     * - `owner` cannot be the zero address.\\n     * - `spender` cannot be the zero address.\\n     */\\n    function _approve(address owner, address spender, uint256 amount) internal virtual {\\n        require(owner != address(0), \\\"ERC20: approve from the zero address\\\");\\n        require(spender != address(0), \\\"ERC20: approve to the zero address\\\");\\n\\n        _allowances[owner][spender] = amount;\\n        emit Approval(owner, spender, amount);\\n    }\\n\\n    /**\\n     * @dev Updates `owner` s allowance for `spender` based on spent `amount`.\\n     *\\n     * Does not update the allowance amount in case of infinite allowance.\\n     * Revert if not enough allowance is available.\\n     *\\n     * Might emit an {Approval} event.\\n     */\\n    function _spendAllowance(address owner, address spender, uint256 amount) internal virtual {\\n        uint256 currentAllowance = allowance(owner, spender);\\n        if (currentAllowance != type(uint256).max) {\\n            require(currentAllowance >= amount, \\\"ERC20: insufficient allowance\\\");\\n            unchecked {\\n                _approve(owner, spender, currentAllowance - amount);\\n            }\\n        }\\n    }\\n\\n    /**\\n     * @dev Hook that is called before any transfer of tokens. This includes\\n     * minting and burning.\\n     *\\n     * Calling conditions:\\n     *\\n     * - when `from` and `to` are both non-zero, `amount` of ``from``'s tokens\\n     * will be transferred to `to`.\\n     * - when `from` is zero, `amount` tokens will be minted for `to`.\\n     * - when `to` is zero, `amount` of ``from``'s tokens will be burned.\\n     * - `from` and `to` are never both zero.\\n     *\\n     * To learn more about hooks, head to xref:ROOT:extending-contracts.adoc#using-hooks[Using Hooks].\\n     */\\n    function _beforeTokenTransfer(address from, address to, uint256 amount) internal virtual {}\\n\\n    /**\\n     * @dev Hook that is called after any transfer of tokens. This includes\\n     * minting and burning.\\n     *\\n     * Calling conditions:\\n     *\\n     * - when `from` and `to` are both non-zero, `amount` of ``from``'s tokens\\n     * has been transferred to `to`.\\n     * - when `from` is zero, `amount` tokens have been minted for `to`.\\n     * - when `to` is zero, `amount` of ``from``'s tokens have been burned.\\n     * - `from` and `to` are never both zero.\\n     *\\n     * To learn more about hooks, head to xref:ROOT:extending-contracts.adoc#using-hooks[Using Hooks].\\n     */\\n    function _afterTokenTransfer(address from, address to, uint256 amount) internal virtual {}\\n}\\n\"},\"@openzeppelin/contracts/utils/Counters.sol\":{\"content\":\"// SPDX-License-Identifier: MIT\\n// OpenZeppelin Contracts v4.4.1 (utils/Counters.sol)\\n\\npragma solidity ^0.8.0;\\n\\n/**\\n * @title Counters\\n * @author Matt Condon (@shrugs)\\n * @dev Provides counters that can only be incremented, decremented or reset. This can be used e.g. to track the number\\n * of elements in a mapping, issuing ERC721 ids, or counting request ids.\\n *\\n * Include with `using Counters for Counters.Counter;`\\n */\\nlibrary Counters {\\n    struct Counter {\\n        // This variable should never be directly accessed by users of the library: interactions must be restricted to\\n        // the library's function. As of Solidity v0.5.2, this cannot be enforced, though there is a proposal to add\\n        // this feature: see https://github.com/ethereum/solidity/issues/4637\\n        uint256 _value; // default: 0\\n    }\\n\\n    function current(Counter storage counter) internal view returns (uint256) {\\n        return counter._value;\\n    }\\n\\n    function increment(Counter storage counter) internal {\\n        unchecked {\\n            counter._value += 1;\\n        }\\n    }\\n\\n    function decrement(Counter storage counter) internal {\\n        uint256 value = counter._value;\\n        require(value > 0, \\\"Counter: decrement overflow\\\");\\n        unchecked {\\n            counter._value = value - 1;\\n        }\\n    }\\n\\n    function reset(Counter storage counter) internal {\\n        counter._value = 0;\\n    }\\n}\\n\"},\"@openzeppelin/contracts/token/ERC721/extensions/ERC721URIStorage.sol\":{\"content\":\"// SPDX-License-Identifier: MIT\\n// OpenZeppelin Contracts (last updated v4.9.0) (token/ERC721/extensions/ERC721URIStorage.sol)\\n\\npragma solidity ^0.8.0;\\n\\nimport \\\"../ERC721.sol\\\";\\nimport \\\"../../../interfaces/IERC4906.sol\\\";\\n\\n/**\\n * @dev ERC721 token with storage based token URI management.\\n */\\nabstract contract ERC721URIStorage is IERC4906, ERC721 {\\n    using Strings for uint256;\\n\\n    // Optional mapping for token URIs\\n    mapping(uint256 => string) private _tokenURIs;\\n\\n    /**\\n     * @dev See {IERC165-supportsInterface}\\n     */\\n    function supportsInterface(bytes4 interfaceId) public view virtual override(ERC721, IERC165) returns (bool) {\\n        return interfaceId == bytes4(0x49064906) || super.supportsInterface(interfaceId);\\n    }\\n\\n    /**\\n     * @dev See {IERC721Metadata-tokenURI}.\\n     */\\n    function tokenURI(uint256 tokenId) public view virtual override returns (string memory) {\\n        _requireMinted(tokenId);\\n\\n        string memory _tokenURI = _tokenURIs[tokenId];\\n        string memory base = _baseURI();\\n\\n        // If there is no base URI, return the token URI.\\n        if (bytes(base).length == 0) {\\n            return _tokenURI;\\n        }\\n        // If both are set, concatenate the baseURI and tokenURI (via abi.encodePacked).\\n        if (bytes(_tokenURI).length > 0) {\\n            return string(abi.encodePacked(base, _tokenURI));\\n        }\\n\\n        return super.tokenURI(tokenId);\\n    }\\n\\n    /**\\n     * @dev Sets `_tokenURI` as the tokenURI of `tokenId`.\\n     *\\n     * Emits {MetadataUpdate}.\\n     *\\n     * Requirements:\\n     *\\n     * - `tokenId` must exist.\\n     */\\n    function _setTokenURI(uint256 tokenId, string memory _tokenURI) internal virtual {\\n        require(_exists(tokenId), \\\"ERC721URIStorage: URI set of nonexistent token\\\");\\n        _tokenURIs[tokenId] = _tokenURI;\\n\\n        emit MetadataUpdate(tokenId);\\n    }\\n\\n    /**\\n     * @dev See {ERC721-_burn}. This override additionally checks to see if a\\n     * token-specific URI was set for the token, and if so, it deletes the token URI from\\n     * the storage mapping.\\n     */\\n    function _burn(uint256 tokenId) internal virtual override {\\n        super._burn(tokenId);\\n\\n        if (bytes(_tokenURIs[tokenId]).length != 0) {\\n            delete _tokenURIs[tokenId];\\n        }\\n    }\\n}\\n\"},\"@openzeppelin/contracts/token/ERC721/ERC721.sol\":{\"content\":\"// SPDX-License-Identifier: MIT\\n// OpenZeppelin Contracts (last updated v4.9.0) (token/ERC721/ERC721.sol)\\n\\npragma solidity ^0.8.0;\\n\\nimport \\\"./IERC721.sol\\\";\\nimport \\\"./IERC721Receiver.sol\\\";\\nimport \\\"./extensions/IERC721Metadata.sol\\\";\\nimport \\\"../../utils/Address.sol\\\";\\nimport \\\"../../utils/Context.sol\\\";\\nimport \\\"../../utils/Strings.sol\\\";\\nimport \\\"../../utils/introspection/ERC165.sol\\\";\\n\\n/**\\n * @dev Implementation of https://eips.ethereum.org/EIPS/eip-721[ERC721] Non-Fungible Token Standard, including\\n * the Metadata extension, but not including the Enumerable extension, which is available separately as\\n * {ERC721Enumerable}.\\n */\\ncontract ERC721 is Context, ERC165, IERC721, IERC721Metadata {\\n    using Address for address;\\n    using Strings for uint256;\\n\\n    // Token name\\n    string private _name;\\n\\n    // Token symbol\\n    string private _symbol;\\n\\n    // Mapping from token ID to owner address\\n    mapping(uint256 => address) private _owners;\\n\\n    // Mapping owner address to token count\\n    mapping(address => uint256) private _balances;\\n\\n    // Mapping from token ID to approved address\\n    mapping(uint256 => address) private _tokenApprovals;\\n\\n    // Mapping from owner to operator approvals\\n    mapping(address => mapping(address => bool)) private _operatorApprovals;\\n\\n    /**\\n     * @dev Initializes the contract by setting a `name` and a `symbol` to the token collection.\\n     */\\n    constructor(string memory name_, string memory symbol_) {\\n        _name = name_;\\n        _symbol = symbol_;\\n    }\\n\\n    /**\\n     * @dev See {IERC165-supportsInterface}.\\n     */\\n    function supportsInterface(bytes4 interfaceId) public view virtual override(ERC165, IERC165) returns (bool) {\\n        return\\n            interfaceId == type(IERC721).interfaceId ||\\n            interfaceId == type(IERC721Metadata).interfaceId ||\\n            super.supportsInterface(interfaceId);\\n    }\\n\\n    /**\\n     * @dev See {IERC721-balanceOf}.\\n     */\\n    function balanceOf(address owner) public view virtual override returns (uint256) {\\n        require(owner != address(0), \\\"ERC721: address zero is not a valid owner\\\");\\n        return _balances[owner];\\n    }\\n\\n    /**\\n     * @dev See {IERC721-ownerOf}.\\n     */\\n    function ownerOf(uint256 tokenId) public view virtual override returns (address) {\\n        address owner = _ownerOf(tokenId);\\n        require(owner != address(0), \\\"ERC721: invalid token ID\\\");\\n        return owner;\\n    }\\n\\n    /**\\n     * @dev See {IERC721Metadata-name}.\\n     */\\n    function name() public view virtual override returns (string memory) {\\n        return _name;\\n    }\\n\\n    /**\\n     * @dev See {IERC721Metadata-symbol}.\\n     */\\n    function symbol() public view virtual override returns (string memory) {\\n        return _symbol;\\n    }\\n\\n    /**\\n     * @dev See {IERC721Metadata-tokenURI}.\\n     */\\n    function tokenURI(uint256 tokenId) public view virtual override returns (string memory) {\\n        _requireMinted(tokenId);\\n\\n        string memory baseURI = _baseURI();\\n        return bytes(baseURI).length > 0 ? string(abi.encodePacked(baseURI, tokenId.toString())) : \\\"\\\";\\n    }\\n\\n    /**\\n     * @dev Base URI for computing {tokenURI}. If set, the resulting URI for each\\n     * token will be the concatenation of the `baseURI` and the `tokenId`. Empty\\n     * by default, can be overridden in child contracts.\\n     */\\n    function _baseURI() internal view virtual returns (string memory) {\\n        return \\\"\\\";\\n    }\\n\\n    /**\\n     * @dev See {IERC721-approve}.\\n     */\\n    function approve(address to, uint256 tokenId) public virtual override {\\n        address owner = ERC721.ownerOf(tokenId);\\n        require(to != owner, \\\"ERC721: approval to current owner\\\");\\n\\n        require(\\n            _msgSender() == owner || isApprovedForAll(owner, _msgSender()),\\n            \\\"ERC721: approve caller is not token owner or approved for all\\\"\\n        );\\n\\n        _approve(to, tokenId);\\n    }\\n\\n    /**\\n     * @dev See {IERC721-getApproved}.\\n     */\\n    function getApproved(uint256 tokenId) public view virtual override returns (address) {\\n        _requireMinted(tokenId);\\n\\n        return _tokenApprovals[tokenId];\\n    }\\n\\n    /**\\n     * @dev See {IERC721-setApprovalForAll}.\\n     */\\n    function setApprovalForAll(address operator, bool approved) public virtual override {\\n        _setApprovalForAll(_msgSender(), operator, approved);\\n    }\\n\\n    /**\\n     * @dev See {IERC721-isApprovedForAll}.\\n     */\\n    function isApprovedForAll(address owner, address operator) public view virtual override returns (bool) {\\n        return _operatorApprovals[owner][operator];\\n    }\\n\\n    /**\\n     * @dev See {IERC721-transferFrom}.\\n     */\\n    function transferFrom(address from, address to, uint256 tokenId) public virtual override {\\n        //solhint-disable-next-line max-line-length\\n        require(_isApprovedOrOwner(_msgSender(), tokenId), \\\"ERC721: caller is not token owner or approved\\\");\\n\\n        _transfer(from, to, tokenId);\\n    }\\n\\n    /**\\n     * @dev See {IERC721-safeTransferFrom}.\\n     */\\n    function safeTransferFrom(address from, address to, uint256 tokenId) public virtual override {\\n        safeTransferFrom(from, to, tokenId, \\\"\\\");\\n    }\\n\\n    /**\\n     * @dev See {IERC721-safeTransferFrom}.\\n     */\\n    function safeTransferFrom(address from, address to, uint256 tokenId, bytes memory data) public virtual override {\\n        require(_isApprovedOrOwner(_msgSender(), tokenId), \\\"ERC721: caller is not token owner or approved\\\");\\n        _safeTransfer(from, to, tokenId, data);\\n    }\\n\\n    /**\\n     * @dev Safely transfers `tokenId` token from `from` to `to`, checking first that contract recipients\\n     * are aware of the ERC721 protocol to prevent tokens from being forever locked.\\n     *\\n     * `data` is additional data, it has no specified format and it is sent in call to `to`.\\n     *\\n     * This internal function is equivalent to {safeTransferFrom}, and can be used to e.g.\\n     * implement alternative mechanisms to perform token transfer, such as signature-based.\\n     *\\n     * Requirements:\\n     *\\n     * - `from` cannot be the zero address.\\n     * - `to` cannot be the zero address.\\n     * - `tokenId` token must exist and be owned by `from`.\\n     * - If `to` refers to a smart contract, it must implement {IERC721Receiver-onERC721Received}, which is called upon a safe transfer.\\n     *\\n     * Emits a {Transfer} event.\\n     */\\n    function _safeTransfer(address from, address to, uint256 tokenId, bytes memory data) internal virtual {\\n        _transfer(from, to, tokenId);\\n        require(_checkOnERC721Received(from, to, tokenId, data), \\\"ERC721: transfer to non ERC721Receiver implementer\\\");\\n    }\\n\\n    /**\\n     * @dev Returns the owner of the `tokenId`. Does NOT revert if token doesn't exist\\n     */\\n    function _ownerOf(uint256 tokenId) internal view virtual returns (address) {\\n        return _owners[tokenId];\\n    }\\n\\n    /**\\n     * @dev Returns whether `tokenId` exists.\\n     *\\n     * Tokens can be managed by their owner or approved accounts via {approve} or {setApprovalForAll}.\\n     *\\n     * Tokens start existing when they are minted (`_mint`),\\n     * and stop existing when they are burned (`_burn`).\\n     */\\n    function _exists(uint256 tokenId) internal view virtual returns (bool) {\\n        return _ownerOf(tokenId) != address(0);\\n    }\\n\\n    /**\\n     * @dev Returns whether `spender` is allowed to manage `tokenId`.\\n     *\\n     * Requirements:\\n     *\\n     * - `tokenId` must exist.\\n     */\\n    function _isApprovedOrOwner(address spender, uint256 tokenId) internal view virtual returns (bool) {\\n        address owner = ERC721.ownerOf(tokenId);\\n        return (spender == owner || isApprovedForAll(owner, spender) || getApproved(tokenId) == spender);\\n    }\\n\\n    /**\\n     * @dev Safely mints `tokenId` and transfers it to `to`.\\n     *\\n     * Requirements:\\n     *\\n     * - `tokenId` must not exist.\\n     * - If `to` refers to a smart contract, it must implement {IERC721Receiver-onERC721Received}, which is called upon a safe transfer.\\n     *\\n     * Emits a {Transfer} event.\\n     */\\n    function _safeMint(address to, uint256 tokenId) internal virtual {\\n        _safeMint(to, tokenId, \\\"\\\");\\n    }\\n\\n    /**\\n     * @dev Same as {xref-ERC721-_safeMint-address-uint256-}[`_safeMint`], with an additional `data` parameter which is\\n     * forwarded in {IERC721Receiver-onERC721Received} to contract recipients.\\n     */\\n    function _safeMint(address to, uint256 tokenId, bytes memory data) internal virtual {\\n        _mint(to, tokenId);\\n        require(\\n            _checkOnERC721Received(address(0), to, tokenId, data),\\n            \\\"ERC721: transfer to non ERC721Receiver implementer\\\"\\n        );\\n    }\\n\\n    /**\\n     * @dev Mints `tokenId` and transfers it to `to`.\\n     *\\n     * WARNING: Usage of this method is discouraged, use {_safeMint} whenever possible\\n     *\\n     * Requirements:\\n     *\\n     * - `tokenId` must not exist.\\n     * - `to` cannot be the zero address.\\n     *\\n     * Emits a {Transfer} event.\\n     */\\n    function _mint(address to, uint256 tokenId) internal virtual {\\n        require(to != address(0), \\\"ERC721: mint to the zero address\\\");\\n        require(!_exists(tokenId), \\\"ERC721: token already minted\\\");\\n\\n        _beforeTokenTransfer(address(0), to, tokenId, 1);\\n\\n        // Check that tokenId was not minted by `_beforeTokenTransfer` hook\\n        require(!_exists(tokenId), \\\"ERC721: token already minted\\\");\\n\\n        unchecked {\\n            // Will not overflow unless all 2**256 token ids are minted to the same owner.\\n            // Given that tokens are minted one by one, it is impossible in practice that\\n            // this ever happens. Might change if we allow batch minting.\\n            // The ERC fails to describe this case.\\n            _balances[to] += 1;\\n        }\\n\\n        _owners[tokenId] = to;\\n\\n        emit Transfer(address(0), to, tokenId);\\n\\n        _afterTokenTransfer(address(0), to, tokenId, 1);\\n    }\\n\\n    /**\\n     * @dev Destroys `tokenId`.\\n     * The approval is cleared when the token is burned.\\n     * This is an internal function that does not check if the sender is authorized to operate on the token.\\n     *\\n     * Requirements:\\n     *\\n     * - `tokenId` must exist.\\n     *\\n     * Emits a {Transfer} event.\\n     */\\n    function _burn(uint256 tokenId) internal virtual {\\n        address owner = ERC721.ownerOf(tokenId);\\n\\n        _beforeTokenTransfer(owner, address(0), tokenId, 1);\\n\\n        // Update ownership in case tokenId was transferred by `_beforeTokenTransfer` hook\\n        owner = ERC721.ownerOf(tokenId);\\n\\n        // Clear approvals\\n        delete _tokenApprovals[tokenId];\\n\\n        unchecked {\\n            // Cannot overflow, as that would require more tokens to be burned/transferred\\n            // out than the owner initially received through minting and transferring in.\\n            _balances[owner] -= 1;\\n        }\\n        delete _owners[tokenId];\\n\\n        emit Transfer(owner, address(0), tokenId);\\n\\n        _afterTokenTransfer(owner, address(0), tokenId, 1);\\n    }\\n\\n    /**\\n     * @dev Transfers `tokenId` from `from` to `to`.\\n     *  As opposed to {transferFrom}, this imposes no restrictions on msg.sender.\\n     *\\n     * Requirements:\\n     *\\n     * - `to` cannot be the zero address.\\n     * - `tokenId` token must be owned by `from`.\\n     *\\n     * Emits a {Transfer} event.\\n     */\\n    function _transfer(address from, address to, uint256 tokenId) internal virtual {\\n        require(ERC721.ownerOf(tokenId) == from, \\\"ERC721: transfer from incorrect owner\\\");\\n        require(to != address(0), \\\"ERC721: transfer to the zero address\\\");\\n\\n        _beforeTokenTransfer(from, to, tokenId, 1);\\n\\n        // Check that tokenId was not transferred by `_beforeTokenTransfer` hook\\n        require(ERC721.ownerOf(tokenId) == from, \\\"ERC721: transfer from incorrect owner\\\");\\n\\n        // Clear approvals from the previous owner\\n        delete _tokenApprovals[tokenId];\\n\\n        unchecked {\\n            // `_balances[from]` cannot overflow for the same reason as described in `_burn`:\\n            // `from`'s balance is the number of token held, which is at least one before the current\\n            // transfer.\\n            // `_balances[to]` could overflow in the conditions described in `_mint`. That would require\\n            // all 2**256 token ids to be minted, which in practice is impossible.\\n            _balances[from] -= 1;\\n            _balances[to] += 1;\\n        }\\n        _owners[tokenId] = to;\\n\\n        emit Transfer(from, to, tokenId);\\n\\n        _afterTokenTransfer(from, to, tokenId, 1);\\n    }\\n\\n    /**\\n     * @dev Approve `to` to operate on `tokenId`\\n     *\\n     * Emits an {Approval} event.\\n     */\\n    function _approve(address to, uint256 tokenId) internal virtual {\\n        _tokenApprovals[tokenId] = to;\\n        emit Approval(ERC721.ownerOf(tokenId), to, tokenId);\\n    }\\n\\n    /**\\n     * @dev Approve `operator` to operate on all of `owner` tokens\\n     *\\n     * Emits an {ApprovalForAll} event.\\n     */\\n    function _setApprovalForAll(address owner, address operator, bool approved) internal virtual {\\n        require(owner != operator, \\\"ERC721: approve to caller\\\");\\n        _operatorApprovals[owner][operator] = approved;\\n        emit ApprovalForAll(owner, operator, approved);\\n    }\\n\\n    /**\\n     * @dev Reverts if the `tokenId` has not been minted yet.\\n     */\\n    function _requireMinted(uint256 tokenId) internal view virtual {\\n        require(_exists(tokenId), \\\"ERC721: invalid token ID\\\");\\n    }\\n\\n    /**\\n     * @dev Internal function to invoke {IERC721Receiver-onERC721Received} on a target address.\\n     * The call is not executed if the target address is not a contract.\\n     *\\n     * @param from address representing the previous owner of the given token ID\\n     * @param to target address that will receive the tokens\\n     * @param tokenId uint256 ID of the token to be transferred\\n     * @param data bytes optional data to send along with the call\\n     * @return bool whether the call correctly returned the expected magic value\\n     */\\n    function _checkOnERC721Received(\\n        address from,\\n        address to,\\n        uint256 tokenId,\\n        bytes memory data\\n    ) private returns (bool) {\\n        if (to.isContract()) {\\n            try IERC721Receiver(to).onERC721Received(_msgSender(), from, tokenId, data) returns (bytes4 retval) {\\n                return retval == IERC721Receiver.onERC721Received.selector;\\n            } catch (bytes memory reason) {\\n                if (reason.length == 0) {\\n                    revert(\\\"ERC721: transfer to non ERC721Receiver implementer\\\");\\n                } else {\\n                    /// @solidity memory-safe-assembly\\n                    assembly {\\n                        revert(add(32, reason), mload(reason))\\n                    }\\n                }\\n            }\\n        } else {\\n            return true;\\n        }\\n    }\\n\\n    /**\\n     * @dev Hook that is called before any token transfer. This includes minting and burning. If {ERC721Consecutive} is\\n     * used, the hook may be called as part of a consecutive (batch) mint, as indicated by `batchSize` greater than 1.\\n     *\\n     * Calling conditions:\\n     *\\n     * - When `from` and `to` are both non-zero, ``from``'s tokens will be transferred to `to`.\\n     * - When `from` is zero, the tokens will be minted for `to`.\\n     * - When `to` is zero, ``from``'s tokens will be burned.\\n     * - `from` and `to` are never both zero.\\n     * - `batchSize` is non-zero.\\n     *\\n     * To learn more about hooks, head to xref:ROOT:extending-contracts.adoc#using-hooks[Using Hooks].\\n     */\\n    function _beforeTokenTransfer(address from, address to, uint256 firstTokenId, uint256 batchSize) internal virtual {}\\n\\n    /**\\n     * @dev Hook that is called after any token transfer. This includes minting and burning. If {ERC721Consecutive} is\\n     * used, the hook may be called as part of a consecutive (batch) mint, as indicated by `batchSize` greater than 1.\\n     *\\n     * Calling conditions:\\n     *\\n     * - When `from` and `to` are both non-zero, ``from``'s tokens were transferred to `to`.\\n     * - When `from` is zero, the tokens were minted for `to`.\\n     * - When `to` is zero, ``from``'s tokens were burned.\\n     * - `from` and `to` are never both zero.\\n     * - `batchSize` is non-zero.\\n     *\\n     * To learn more about hooks, head to xref:ROOT:extending-contracts.adoc#using-hooks[Using Hooks].\\n     */\\n    function _afterTokenTransfer(address from, address to, uint256 firstTokenId, uint256 batchSize) internal virtual {}\\n\\n    /**\\n     * @dev Unsafe write access to the balances, used by extensions that \\\"mint\\\" tokens using an {ownerOf} override.\\n     *\\n     * WARNING: Anyone calling this MUST ensure that the balances remain consistent with the ownership. The invariant\\n     * being that for any address `a` the value returned by `balanceOf(a)` must be equal to the number of tokens such\\n     * that `ownerOf(tokenId)` is `a`.\\n     */\\n    // solhint-disable-next-line func-name-mixedcase\\n    function __unsafe_increaseBalance(address account, uint256 amount) internal {\\n        _balances[account] += amount;\\n    }\\n}\\n\"},\"@openzeppelin/contracts/utils/Context.sol\":{\"content\":\"// SPDX-License-Identifier: MIT\\n// OpenZeppelin Contracts v4.4.1 (utils/Context.sol)\\n\\npragma solidity ^0.8.0;\\n\\n/**\\n * @dev Provides information about the current execution context, including the\\n * sender of the transaction and its data. While these are generally available\\n * via msg.sender and msg.data, they should not be accessed in such a direct\\n * manner, since when dealing with meta-transactions the account sending and\\n * paying for execution may not be the actual sender (as far as an application\\n * is concerned).\\n *\\n * This contract is only required for intermediate, library-like contracts.\\n */\\nabstract contract Context {\\n    function _msgSender() internal view virtual returns (address) {\\n        return msg.sender;\\n    }\\n\\n    function _msgData() internal view virtual returns (bytes calldata) {\\n        return msg.data;\\n    }\\n}\\n\"},\"@openzeppelin/contracts/token/ERC20/extensions/IERC20Metadata.sol\":{\"content\":\"// SPDX-License-Identifier: MIT\\n// OpenZeppelin Contracts v4.4.1 (token/ERC20/extensions/IERC20Metadata.sol)\\n\\npragma solidity ^0.8.0;\\n\\nimport \\\"../IERC20.sol\\\";\\n\\n/**\\n * @dev Interface for the optional metadata functions from the ERC20 standard.\\n *\\n * _Available since v4.1._\\n */\\ninterface IERC20Metadata is IERC20 {\\n    /**\\n     * @dev Returns the name of the token.\\n     */\\n    function name() external view returns (string memory);\\n\\n    /**\\n     * @dev Returns the symbol of the token.\\n     */\\n    function symbol() external view returns (string memory);\\n\\n    /**\\n     * @dev Returns the decimals places of the token.\\n     */\\n    function decimals() external view returns (uint8);\\n}\\n\"},\"@openzeppelin/contracts/token/ERC20/IERC20.sol\":{\"content\":\"// SPDX-License-Identifier: MIT\\n// OpenZeppelin Contracts (last updated v4.9.0) (token/ERC20/IERC20.sol)\\n\\npragma solidity ^0.8.0;\\n\\n/**\\n * @dev Interface of the ERC20 standard as defined in the EIP.\\n */\\ninterface IERC20 {\\n    /**\\n     * @dev Emitted when `value` tokens are moved from one account (`from`) to\\n     * another (`to`).\\n     *\\n     * Note that `value` may be zero.\\n     */\\n    event Transfer(address indexed from, address indexed to, uint256 value);\\n\\n    /**\\n     * @dev Emitted when the allowance of a `spender` for an `owner` is set by\\n     * a call to {approve}. `value` is the new allowance.\\n     */\\n    event Approval(address indexed owner, address indexed spender, uint256 value);\\n\\n    /**\\n     * @dev Returns the amount of tokens in existence.\\n     */\\n    function totalSupply() external view returns (uint256);\\n\\n    /**\\n     * @dev Returns the amount of tokens owned by `account`.\\n     */\\n    function balanceOf(address account) external view returns (uint256);\\n\\n    /**\\n     * @dev Moves `amount` tokens from the caller's account to `to`.\\n     *\\n     * Returns a boolean value indicating whether the operation succeeded.\\n     *\\n     * Emits a {Transfer} event.\\n     */\\n    function transfer(address to, uint256 amount) external returns (bool);\\n\\n    /**\\n     * @dev Returns the remaining number of tokens that `spender` will be\\n     * allowed to spend on behalf of `owner` through {transferFrom}. This is\\n     * zero by default.\\n     *\\n     * This value changes when {approve} or {transferFrom} are called.\\n     */\\n    function allowance(address owner, address spender) external view returns (uint256);\\n\\n    /**\\n     * @dev Sets `amount` as the allowance of `spender` over the caller's tokens.\\n     *\\n     * Returns a boolean value indicating whether the operation succeeded.\\n     *\\n     * IMPORTANT: Beware that changing an allowance with this method brings the risk\\n     * that someone may use both the old and the new allowance by unfortunate\\n     * transaction ordering. One possible solution to mitigate this race\\n     * condition is to first reduce the spender's allowance to 0 and set the\\n     * desired value afterwards:\\n     * https://github.com/ethereum/EIPs/issues/20#issuecomment-263524729\\n     *\\n     * Emits an {Approval} event.\\n     */\\n    function approve(address spender, uint256 amount) external returns (bool);\\n\\n    /**\\n     * @dev Moves `amount` tokens from `from` to `to` using the\\n     * allowance mechanism. `amount` is then deducted from the caller's\\n     * allowance.\\n     *\\n     * Returns a boolean value indicating whether the operation succeeded.\\n     *\\n     * Emits a {Transfer} event.\\n     */\\n    function transferFrom(address from, address to, uint256 amount) external returns (bool);\\n}\\n\"},\"@openzeppelin/contracts/interfaces/IERC4906.sol\":{\"content\":\"// SPDX-License-Identifier: MIT\\n// OpenZeppelin Contracts (last updated v4.9.0) (interfaces/IERC4906.sol)\\n\\npragma solidity ^0.8.0;\\n\\nimport \\\"./IERC165.sol\\\";\\nimport \\\"./IERC721.sol\\\";\\n\\n/// @title EIP-721 Metadata Update Extension\\ninterface IERC4906 is IERC165, IERC721 {\\n    /// @dev This event emits when the metadata of a token is changed.\\n    /// So that the third-party platforms such as NFT market could\\n    /// timely update the images and related attributes of the NFT.\\n    event MetadataUpdate(uint256 _tokenId);\\n\\n    /// @dev This event emits when the metadata of a range of tokens is changed.\\n    /// So that the third-party platforms such as NFT market could\\n    /// timely update the images and related attributes of the NFTs.\\n    event BatchMetadataUpdate(uint256 _fromTokenId, uint256 _toTokenId);\\n}\\n\"},\"@openzeppelin/contracts/utils/introspection/ERC165.sol\":{\"content\":\"// SPDX-License-Identifier: MIT\\n// OpenZeppelin Contracts v4.4.1 (utils/introspection/ERC165.sol)\\n\\npragma solidity ^0.8.0;\\n\\nimport \\\"./IERC165.sol\\\";\\n\\n/**\\n * @dev Implementation of the {IERC165} interface.\\n *\\n * Contracts that want to implement ERC165 should inherit from this contract and override {supportsInterface} to check\\n * for the additional interface id that will be supported. For example:\\n *\\n * ```solidity\\n * function supportsInterface(bytes4 interfaceId) public view virtual override returns (bool) {\\n *     return interfaceId == type(MyInterface).interfaceId || super.supportsInterface(interfaceId);\\n * }\\n * ```\\n *\\n * Alternatively, {ERC165Storage} provides an easier to use but more expensive implementation.\\n */\\nabstract contract ERC165 is IERC165 {\\n    /**\\n     * @dev See {IERC165-supportsInterface}.\\n     */\\n    function supportsInterface(bytes4 interfaceId) public view virtual override returns (bool) {\\n        return interfaceId == type(IERC165).interfaceId;\\n    }\\n}\\n\"},\"@openzeppelin/contracts/utils/Strings.sol\":{\"content\":\"// SPDX-License-Identifier: MIT\\n// OpenZeppelin Contracts (last updated v4.9.0) (utils/Strings.sol)\\n\\npragma solidity ^0.8.0;\\n\\nimport \\\"./math/Math.sol\\\";\\nimport \\\"./math/SignedMath.sol\\\";\\n\\n/**\\n * @dev String operations.\\n */\\nlibrary Strings {\\n    bytes16 private constant _SYMBOLS = \\\"0123456789abcdef\\\";\\n    uint8 private constant _ADDRESS_LENGTH = 20;\\n\\n    /**\\n     * @dev Converts a `uint256` to its ASCII `string` decimal representation.\\n     */\\n    function toString(uint256 value) internal pure returns (string memory) {\\n        unchecked {\\n            uint256 length = Math.log10(value) + 1;\\n            string memory buffer = new string(length);\\n            uint256 ptr;\\n            /// @solidity memory-safe-assembly\\n            assembly {\\n                ptr := add(buffer, add(32, length))\\n            }\\n            while (true) {\\n                ptr--;\\n                /// @solidity memory-safe-assembly\\n                assembly {\\n                    mstore8(ptr, byte(mod(value, 10), _SYMBOLS))\\n                }\\n                value /= 10;\\n                if (value == 0) break;\\n            }\\n            return buffer;\\n        }\\n    }\\n\\n    /**\\n     * @dev Converts a `int256` to its ASCII `string` decimal representation.\\n     */\\n    function toString(int256 value) internal pure returns (string memory) {\\n        return string(abi.encodePacked(value < 0 ? \\\"-\\\" : \\\"\\\", toString(SignedMath.abs(value))));\\n    }\\n\\n    /**\\n     * @dev Converts a `uint256` to its ASCII `string` hexadecimal representation.\\n     */\\n    function toHexString(uint256 value) internal pure returns (string memory) {\\n        unchecked {\\n            return toHexString(value, Math.log256(value) + 1);\\n        }\\n    }\\n\\n    /**\\n     * @dev Converts a `uint256` to its ASCII `string` hexadecimal representation with fixed length.\\n     */\\n    function toHexString(uint256 value, uint256 length) internal pure returns (string memory) {\\n        bytes memory buffer = new bytes(2 * length + 2);\\n        buffer[0] = \\\"0\\\";\\n        buffer[1] = \\\"x\\\";\\n        for (uint256 i = 2 * length + 1; i > 1; --i) {\\n            buffer[i] = _SYMBOLS[value & 0xf];\\n            value >>= 4;\\n        }\\n        require(value == 0, \\\"Strings: hex length insufficient\\\");\\n        return string(buffer);\\n    }\\n\\n    /**\\n     * @dev Converts an `address` with fixed length of 20 bytes to its not checksummed ASCII `string` hexadecimal representation.\\n     */\\n    function toHexString(address addr) internal pure returns (string memory) {\\n        return toHexString(uint256(uint160(addr)), _ADDRESS_LENGTH);\\n    }\\n\\n    /**\\n     * @dev Returns true if the two strings are equal.\\n     */\\n    function equal(string memory a, string memory b) internal pure returns (bool) {\\n        return keccak256(bytes(a)) == keccak256(bytes(b));\\n    }\\n}\\n\"},\"@openzeppelin/contracts/utils/Address.sol\":{\"content\":\"// SPDX-License-Identifier: MIT\\n// OpenZeppelin Contracts (last updated v4.9.0) (utils/Address.sol)\\n\\npragma solidity ^0.8.1;\\n\\n/**\\n * @dev Collection of functions related to the address type\\n */\\nlibrary Address {\\n    /**\\n     * @dev Returns true if `account` is a contract.\\n     *\\n     * [IMPORTANT]\\n     * ====\\n     * It is unsafe to assume that an address for which this function returns\\n     * false is an externally-owned account (EOA) and not a contract.\\n     *\\n     * Among others, `isContract` will return false for the following\\n     * types of addresses:\\n     *\\n     *  - an externally-owned account\\n     *  - a contract in construction\\n     *  - an address where a contract will be created\\n     *  - an address where a contract lived, but was destroyed\\n     *\\n     * Furthermore, `isContract` will also return true if the target contract within\\n     * the same transaction is already scheduled for destruction by `SELFDESTRUCT`,\\n     * which only has an effect at the end of a transaction.\\n     * ====\\n     *\\n     * [IMPORTANT]\\n     * ====\\n     * You shouldn't rely on `isContract` to protect against flash loan attacks!\\n     *\\n     * Preventing calls from contracts is highly discouraged. It breaks composability, breaks support for smart wallets\\n     * like Gnosis Safe, and does not provide security since it can be circumvented by calling from a contract\\n     * constructor.\\n     * ====\\n     */\\n    function isContract(address account) internal view returns (bool) {\\n        // This method relies on extcodesize/address.code.length, which returns 0\\n        // for contracts in construction, since the code is only stored at the end\\n        // of the constructor execution.\\n\\n        return account.code.length > 0;\\n    }\\n\\n    /**\\n     * @dev Replacement for Solidity's `transfer`: sends `amount` wei to\\n     * `recipient`, forwarding all available gas and reverting on errors.\\n     *\\n     * https://eips.ethereum.org/EIPS/eip-1884[EIP1884] increases the gas cost\\n     * of certain opcodes, possibly making contracts go over the 2300 gas limit\\n     * imposed by `transfer`, making them unable to receive funds via\\n     * `transfer`. {sendValue} removes this limitation.\\n     *\\n     * https://consensys.net/diligence/blog/2019/09/stop-using-soliditys-transfer-now/[Learn more].\\n     *\\n     * IMPORTANT: because control is transferred to `recipient`, care must be\\n     * taken to not create reentrancy vulnerabilities. Consider using\\n     * {ReentrancyGuard} or the\\n     * https://solidity.readthedocs.io/en/v0.8.0/security-considerations.html#use-the-checks-effects-interactions-pattern[checks-effects-interactions pattern].\\n     */\\n    function sendValue(address payable recipient, uint256 amount) internal {\\n        require(address(this).balance >= amount, \\\"Address: insufficient balance\\\");\\n\\n        (bool success, ) = recipient.call{value: amount}(\\\"\\\");\\n        require(success, \\\"Address: unable to send value, recipient may have reverted\\\");\\n    }\\n\\n    /**\\n     * @dev Performs a Solidity function call using a low level `call`. A\\n     * plain `call` is an unsafe replacement for a function call: use this\\n     * function instead.\\n     *\\n     * If `target` reverts with a revert reason, it is bubbled up by this\\n     * function (like regular Solidity function calls).\\n     *\\n     * Returns the raw returned data. To convert to the expected return value,\\n     * use https://solidity.readthedocs.io/en/latest/units-and-global-variables.html?highlight=abi.decode#abi-encoding-and-decoding-functions[`abi.decode`].\\n     *\\n     * Requirements:\\n     *\\n     * - `target` must be a contract.\\n     * - calling `target` with `data` must not revert.\\n     *\\n     * _Available since v3.1._\\n     */\\n    function functionCall(address target, bytes memory data) internal returns (bytes memory) {\\n        return functionCallWithValue(target, data, 0, \\\"Address: low-level call failed\\\");\\n    }\\n\\n    /**\\n     * @dev Same as {xref-Address-functionCall-address-bytes-}[`functionCall`], but with\\n     * `errorMessage` as a fallback revert reason when `target` reverts.\\n     *\\n     * _Available since v3.1._\\n     */\\n    function functionCall(\\n        address target,\\n        bytes memory data,\\n        string memory errorMessage\\n    ) internal returns (bytes memory) {\\n        return functionCallWithValue(target, data, 0, errorMessage);\\n    }\\n\\n    /**\\n     * @dev Same as {xref-Address-functionCall-address-bytes-}[`functionCall`],\\n     * but also transferring `value` wei to `target`.\\n     *\\n     * Requirements:\\n     *\\n     * - the calling contract must have an ETH balance of at least `value`.\\n     * - the called Solidity function must be `payable`.\\n     *\\n     * _Available since v3.1._\\n     */\\n    function functionCallWithValue(address target, bytes memory data, uint256 value) internal returns (bytes memory) {\\n        return functionCallWithValue(target, data, value, \\\"Address: low-level call with value failed\\\");\\n    }\\n\\n    /**\\n     * @dev Same as {xref-Address-functionCallWithValue-address-bytes-uint256-}[`functionCallWithValue`], but\\n     * with `errorMessage` as a fallback revert reason when `target` reverts.\\n     *\\n     * _Available since v3.1._\\n     */\\n    function functionCallWithValue(\\n        address target,\\n        bytes memory data,\\n        uint256 value,\\n        string memory errorMessage\\n    ) internal returns (bytes memory) {\\n        require(address(this).balance >= value, \\\"Address: insufficient balance for call\\\");\\n        (bool success, bytes memory returndata) = target.call{value: value}(data);\\n        return verifyCallResultFromTarget(target, success, returndata, errorMessage);\\n    }\\n\\n    /**\\n     * @dev Same as {xref-Address-functionCall-address-bytes-}[`functionCall`],\\n     * but performing a static call.\\n     *\\n     * _Available since v3.3._\\n     */\\n    function functionStaticCall(address target, bytes memory data) internal view returns (bytes memory) {\\n        return functionStaticCall(target, data, \\\"Address: low-level static call failed\\\");\\n    }\\n\\n    /**\\n     * @dev Same as {xref-Address-functionCall-address-bytes-string-}[`functionCall`],\\n     * but performing a static call.\\n     *\\n     * _Available since v3.3._\\n     */\\n    function functionStaticCall(\\n        address target,\\n        bytes memory data,\\n        string memory errorMessage\\n    ) internal view returns (bytes memory) {\\n        (bool success, bytes memory returndata) = target.staticcall(data);\\n        return verifyCallResultFromTarget(target, success, returndata, errorMessage);\\n    }\\n\\n    /**\\n     * @dev Same as {xref-Address-functionCall-address-bytes-}[`functionCall`],\\n     * but performing a delegate call.\\n     *\\n     * _Available since v3.4._\\n     */\\n    function functionDelegateCall(address target, bytes memory data) internal returns (bytes memory) {\\n        return functionDelegateCall(target, data, \\\"Address: low-level delegate call failed\\\");\\n    }\\n\\n    /**\\n     * @dev Same as {xref-Address-functionCall-address-bytes-string-}[`functionCall`],\\n     * but performing a delegate call.\\n     *\\n     * _Available since v3.4._\\n     */\\n    function functionDelegateCall(\\n        address target,\\n        bytes memory data,\\n        string memory errorMessage\\n    ) internal returns (bytes memory) {\\n        (bool success, bytes memory returndata) = target.delegatecall(data);\\n        return verifyCallResultFromTarget(target, success, returndata, errorMessage);\\n    }\\n\\n    /**\\n     * @dev Tool to verify that a low level call to smart-contract was successful, and revert (either by bubbling\\n     * the revert reason or using the provided one) in case of unsuccessful call or if target was not a contract.\\n     *\\n     * _Available since v4.8._\\n     */\\n    function verifyCallResultFromTarget(\\n        address target,\\n        bool success,\\n        bytes memory returndata,\\n        string memory errorMessage\\n    ) internal view returns (bytes memory) {\\n        if (success) {\\n            if (returndata.length == 0) {\\n                // only check isContract if the call was successful and the return data is empty\\n                // otherwise we already know that it was a contract\\n                require(isContract(target), \\\"Address: call to non-contract\\\");\\n            }\\n            return returndata;\\n        } else {\\n            _revert(returndata, errorMessage);\\n        }\\n    }\\n\\n    /**\\n     * @dev Tool to verify that a low level call was successful, and revert if it wasn't, either by bubbling the\\n     * revert reason or using the provided one.\\n     *\\n     * _Available since v4.3._\\n     */\\n    function verifyCallResult(\\n        bool success,\\n        bytes memory returndata,\\n        string memory errorMessage\\n    ) internal pure returns (bytes memory) {\\n        if (success) {\\n            return returndata;\\n        } else {\\n            _revert(returndata, errorMessage);\\n        }\\n    }\\n\\n    function _revert(bytes memory returndata, string memory errorMessage) private pure {\\n        // Look for revert reason and bubble it up if present\\n        if (returndata.length > 0) {\\n            // The easiest way to bubble the revert reason is using memory via assembly\\n            /// @solidity memory-safe-assembly\\n            assembly {\\n                let returndata_size := mload(returndata)\\n                revert(add(32, returndata), returndata_size)\\n            }\\n        } else {\\n            revert(errorMessage);\\n        }\\n    }\\n}\\n\"},\"@openzeppelin/contracts/token/ERC721/extensions/IERC721Metadata.sol\":{\"content\":\"// SPDX-License-Identifier: MIT\\n// OpenZeppelin Contracts v4.4.1 (token/ERC721/extensions/IERC721Metadata.sol)\\n\\npragma solidity ^0.8.0;\\n\\nimport \\\"../IERC721.sol\\\";\\n\\n/**\\n * @title ERC-721 Non-Fungible Token Standard, optional metadata extension\\n * @dev See https://eips.ethereum.org/EIPS/eip-721\\n */\\ninterface IERC721Metadata is IERC721 {\\n    /**\\n     * @dev Returns the token collection name.\\n     */\\n    function name() external view returns (string memory);\\n\\n    /**\\n     * @dev Returns the token collection symbol.\\n     */\\n    function symbol() external view returns (string memory);\\n\\n    /**\\n     * @dev Returns the Uniform Resource Identifier (URI) for `tokenId` token.\\n     */\\n    function tokenURI(uint256 tokenId) external view returns (string memory);\\n}\\n\"},\"@openzeppelin/contracts/token/ERC721/IERC721Receiver.sol\":{\"content\":\"// SPDX-License-Identifier: MIT\\n// OpenZeppelin Contracts (last updated v4.6.0) (token/ERC721/IERC721Receiver.sol)\\n\\npragma solidity ^0.8.0;\\n\\n/**\\n * @title ERC721 token receiver interface\\n * @dev Interface for any contract that wants to support safeTransfers\\n * from ERC721 asset contracts.\\n */\\ninterface IERC721Receiver {\\n    /**\\n     * @dev Whenever an {IERC721} `tokenId` token is transferred to this contract via {IERC721-safeTransferFrom}\\n     * by `operator` from `from`, this function is called.\\n     *\\n     * It must return its Solidity selector to confirm the token transfer.\\n     * If any other value is returned or the interface is not implemented by the recipient, the transfer will be reverted.\\n     *\\n     * The selector can be obtained in Solidity with `IERC721Receiver.onERC721Received.selector`.\\n     */\\n    function onERC721Received(\\n        address operator,\\n        address from,\\n        uint256 tokenId,\\n        bytes calldata data\\n    ) external returns (bytes4);\\n}\\n\"},\"@openzeppelin/contracts/token/ERC721/IERC721.sol\":{\"content\":\"// SPDX-License-Identifier: MIT\\n// OpenZeppelin Contracts (last updated v4.9.0) (token/ERC721/IERC721.sol)\\n\\npragma solidity ^0.8.0;\\n\\nimport \\\"../../utils/introspection/IERC165.sol\\\";\\n\\n/**\\n * @dev Required interface of an ERC721 compliant contract.\\n */\\ninterface IERC721 is IERC165 {\\n    /**\\n     * @dev Emitted when `tokenId` token is transferred from `from` to `to`.\\n     */\\n    event Transfer(address indexed from, address indexed to, uint256 indexed tokenId);\\n\\n    /**\\n     * @dev Emitted when `owner` enables `approved` to manage the `tokenId` token.\\n     */\\n    event Approval(address indexed owner, address indexed approved, uint256 indexed tokenId);\\n\\n    /**\\n     * @dev Emitted when `owner` enables or disables (`approved`) `operator` to manage all of its assets.\\n     */\\n    event ApprovalForAll(address indexed owner, address indexed operator, bool approved);\\n\\n    /**\\n     * @dev Returns the number of tokens in ``owner``'s account.\\n     */\\n    function balanceOf(address owner) external view returns (uint256 balance);\\n\\n    /**\\n     * @dev Returns the owner of the `tokenId` token.\\n     *\\n     * Requirements:\\n     *\\n     * - `tokenId` must exist.\\n     */\\n    function ownerOf(uint256 tokenId) external view returns (address owner);\\n\\n    /**\\n     * @dev Safely transfers `tokenId` token from `from` to `to`.\\n     *\\n     * Requirements:\\n     *\\n     * - `from` cannot be the zero address.\\n     * - `to` cannot be the zero address.\\n     * - `tokenId` token must exist and be owned by `from`.\\n     * - If the caller is not `from`, it must be approved to move this token by either {approve} or {setApprovalForAll}.\\n     * - If `to` refers to a smart contract, it must implement {IERC721Receiver-onERC721Received}, which is called upon a safe transfer.\\n     *\\n     * Emits a {Transfer} event.\\n     */\\n    function safeTransferFrom(address from, address to, uint256 tokenId, bytes calldata data) external;\\n\\n    /**\\n     * @dev Safely transfers `tokenId` token from `from` to `to`, checking first that contract recipients\\n     * are aware of the ERC721 protocol to prevent tokens from being forever locked.\\n     *\\n     * Requirements:\\n     *\\n     * - `from` cannot be the zero address.\\n     * - `to` cannot be the zero address.\\n     * - `tokenId` token must exist and be owned by `from`.\\n     * - If the caller is not `from`, it must have been allowed to move this token by either {approve} or {setApprovalForAll}.\\n     * - If `to` refers to a smart contract, it must implement {IERC721Receiver-onERC721Received}, which is called upon a safe transfer.\\n     *\\n     * Emits a {Transfer} event.\\n     */\\n    function safeTransferFrom(address from, address to, uint256 tokenId) external;\\n\\n    /**\\n     * @dev Transfers `tokenId` token from `from` to `to`.\\n     *\\n     * WARNING: Note that the caller is responsible to confirm that the recipient is capable of receiving ERC721\\n     * or else they may be permanently lost. Usage of {safeTransferFrom} prevents loss, though the caller must\\n     * understand this adds an external call which potentially creates a reentrancy vulnerability.\\n     *\\n     * Requirements:\\n     *\\n     * - `from` cannot be the zero address.\\n     * - `to` cannot be the zero address.\\n     * - `tokenId` token must be owned by `from`.\\n     * - If the caller is not `from`, it must be approved to move this token by either {approve} or {setApprovalForAll}.\\n     *\\n     * Emits a {Transfer} event.\\n     */\\n    function transferFrom(address from, address to, uint256 tokenId) external;\\n\\n    /**\\n     * @dev Gives permission to `to` to transfer `tokenId` token to another account.\\n     * The approval is cleared when the token is transferred.\\n     *\\n     * Only a single account can be approved at a time, so approving the zero address clears previous approvals.\\n     *\\n     * Requirements:\\n     *\\n     * - The caller must own the token or be an approved operator.\\n     * - `tokenId` must exist.\\n     *\\n     * Emits an {Approval} event.\\n     */\\n    function approve(address to, uint256 tokenId) external;\\n\\n    /**\\n     * @dev Approve or remove `operator` as an operator for the caller.\\n     * Operators can call {transferFrom} or {safeTransferFrom} for any token owned by the caller.\\n     *\\n     * Requirements:\\n     *\\n     * - The `operator` cannot be the caller.\\n     *\\n     * Emits an {ApprovalForAll} event.\\n     */\\n    function setApprovalForAll(address operator, bool approved) external;\\n\\n    /**\\n     * @dev Returns the account approved for `tokenId` token.\\n     *\\n     * Requirements:\\n     *\\n     * - `tokenId` must exist.\\n     */\\n    function getApproved(uint256 tokenId) external view returns (address operator);\\n\\n    /**\\n     * @dev Returns if the `operator` is allowed to manage all of the assets of `owner`.\\n     *\\n     * See {setApprovalForAll}\\n     */\\n    function isApprovedForAll(address owner, address operator) external view returns (bool);\\n}\\n\"},\"@openzeppelin/contracts/utils/introspection/IERC165.sol\":{\"content\":\"// SPDX-License-Identifier: MIT\\n// OpenZeppelin Contracts v4.4.1 (utils/introspection/IERC165.sol)\\n\\npragma solidity ^0.8.0;\\n\\n/**\\n * @dev Interface of the ERC165 standard, as defined in the\\n * https://eips.ethereum.org/EIPS/eip-165[EIP].\\n *\\n * Implementers can declare support of contract interfaces, which can then be\\n * queried by others ({ERC165Checker}).\\n *\\n * For an implementation, see {ERC165}.\\n */\\ninterface IERC165 {\\n    /**\\n     * @dev Returns true if this contract implements the interface defined by\\n     * `interfaceId`. See the corresponding\\n     * https://eips.ethereum.org/EIPS/eip-165#how-interfaces-are-identified[EIP section]\\n     * to learn more about how these ids are created.\\n     *\\n     * This function call must use less than 30 000 gas.\\n     */\\n    function supportsInterface(bytes4 interfaceId) external view returns (bool);\\n}\\n\"},\"@openzeppelin/contracts/utils/math/SignedMath.sol\":{\"content\":\"// SPDX-License-Identifier: MIT\\n// OpenZeppelin Contracts (last updated v4.8.0) (utils/math/SignedMath.sol)\\n\\npragma solidity ^0.8.0;\\n\\n/**\\n * @dev Standard signed math utilities missing in the Solidity language.\\n */\\nlibrary SignedMath {\\n    /**\\n     * @dev Returns the largest of two signed numbers.\\n     */\\n    function max(int256 a, int256 b) internal pure returns (int256) {\\n        return a > b ? a : b;\\n    }\\n\\n    /**\\n     * @dev Returns the smallest of two signed numbers.\\n     */\\n    function min(int256 a, int256 b) internal pure returns (int256) {\\n        return a < b ? a : b;\\n    }\\n\\n    /**\\n     * @dev Returns the average of two signed numbers without overflow.\\n     * The result is rounded towards zero.\\n     */\\n    function average(int256 a, int256 b) internal pure returns (int256) {\\n        // Formula from the book \\\"Hacker's Delight\\\"\\n        int256 x = (a & b) + ((a ^ b) >> 1);\\n        return x + (int256(uint256(x) >> 255) & (a ^ b));\\n    }\\n\\n    /**\\n     * @dev Returns the absolute unsigned value of a signed value.\\n     */\\n    function abs(int256 n) internal pure returns (uint256) {\\n        unchecked {\\n            // must be unchecked in order to support `n = type(int256).min`\\n            return uint256(n >= 0 ? n : -n);\\n        }\\n    }\\n}\\n\"},\"@openzeppelin/contracts/utils/math/Math.sol\":{\"content\":\"// SPDX-License-Identifier: MIT\\n// OpenZeppelin Contracts (last updated v4.9.0) (utils/math/Math.sol)\\n\\npragma solidity ^0.8.0;\\n\\n/**\\n * @dev Standard math utilities missing in the Solidity language.\\n */\\nlibrary Math {\\n    enum Rounding {\\n        Down, // Toward negative infinity\\n        Up, // Toward infinity\\n        Zero // Toward zero\\n    }\\n\\n    /**\\n     * @dev Returns the largest of two numbers.\\n     */\\n    function max(uint256 a, uint256 b) internal pure returns (uint256) {\\n        return a > b ? a : b;\\n    }\\n\\n    /**\\n     * @dev Returns the smallest of two numbers.\\n     */\\n    function min(uint256 a, uint256 b) internal pure returns (uint256) {\\n        return a < b ? a : b;\\n    }\\n\\n    /**\\n     * @dev Returns the average of two numbers. The result is rounded towards\\n     * zero.\\n     */\\n    function average(uint256 a, uint256 b) internal pure returns (uint256) {\\n        // (a + b) / 2 can overflow.\\n        return (a & b) + (a ^ b) / 2;\\n    }\\n\\n    /**\\n     * @dev Returns the ceiling of the division of two numbers.\\n     *\\n     * This differs from standard division with `/` in that it rounds up instead\\n     * of rounding down.\\n     */\\n    function ceilDiv(uint256 a, uint256 b) internal pure returns (uint256) {\\n        // (a + b - 1) / b can overflow on addition, so we distribute.\\n        return a == 0 ? 0 : (a - 1) / b + 1;\\n    }\\n\\n    /**\\n     * @notice Calculates floor(x * y / denominator) with full precision. Throws if result overflows a uint256 or denominator == 0\\n     * @dev Original credit to Remco Bloemen under MIT license (https://xn--2-umb.com/21/muldiv)\\n     * with further edits by Uniswap Labs also under MIT license.\\n     */\\n    function mulDiv(uint256 x, uint256 y, uint256 denominator) internal pure returns (uint256 result) {\\n        unchecked {\\n            // 512-bit multiply [prod1 prod0] = x * y. Compute the product mod 2^256 and mod 2^256 - 1, then use\\n            // use the Chinese Remainder Theorem to reconstruct the 512 bit result. The result is stored in two 256\\n            // variables such that product = prod1 * 2^256 + prod0.\\n            uint256 prod0; // Least significant 256 bits of the product\\n            uint256 prod1; // Most significant 256 bits of the product\\n            assembly {\\n                let mm := mulmod(x, y, not(0))\\n                prod0 := mul(x, y)\\n                prod1 := sub(sub(mm, prod0), lt(mm, prod0))\\n            }\\n\\n            // Handle non-overflow cases, 256 by 256 division.\\n            if (prod1 == 0) {\\n                // Solidity will revert if denominator == 0, unlike the div opcode on its own.\\n                // The surrounding unchecked block does not change this fact.\\n                // See https://docs.soliditylang.org/en/latest/control-structures.html#checked-or-unchecked-arithmetic.\\n                return prod0 / denominator;\\n            }\\n\\n            // Make sure the result is less than 2^256. Also prevents denominator == 0.\\n            require(denominator > prod1, \\\"Math: mulDiv overflow\\\");\\n\\n            ///////////////////////////////////////////////\\n            // 512 by 256 division.\\n            ///////////////////////////////////////////////\\n\\n            // Make division exact by subtracting the remainder from [prod1 prod0].\\n            uint256 remainder;\\n            assembly {\\n                // Compute remainder using mulmod.\\n                remainder := mulmod(x, y, denominator)\\n\\n                // Subtract 256 bit number from 512 bit number.\\n                prod1 := sub(prod1, gt(remainder, prod0))\\n                prod0 := sub(prod0, remainder)\\n            }\\n\\n            // Factor powers of two out of denominator and compute largest power of two divisor of denominator. Always >= 1.\\n            // See https://cs.stackexchange.com/q/138556/92363.\\n\\n            // Does not overflow because the denominator cannot be zero at this stage in the function.\\n            uint256 twos = denominator & (~denominator + 1);\\n            assembly {\\n                // Divide denominator by twos.\\n                denominator := div(denominator, twos)\\n\\n                // Divide [prod1 prod0] by twos.\\n                prod0 := div(prod0, twos)\\n\\n                // Flip twos such that it is 2^256 / twos. If twos is zero, then it becomes one.\\n                twos := add(div(sub(0, twos), twos), 1)\\n            }\\n\\n            // Shift in bits from prod1 into prod0.\\n            prod0 |= prod1 * twos;\\n\\n            // Invert denominator mod 2^256. Now that denominator is an odd number, it has an inverse modulo 2^256 such\\n            // that denominator * inv = 1 mod 2^256. Compute the inverse by starting with a seed that is correct for\\n            // four bits. That is, denominator * inv = 1 mod 2^4.\\n            uint256 inverse = (3 * denominator) ^ 2;\\n\\n            // Use the Newton-Raphson iteration to improve the precision. Thanks to Hensel's lifting lemma, this also works\\n            // in modular arithmetic, doubling the correct bits in each step.\\n            inverse *= 2 - denominator * inverse; // inverse mod 2^8\\n            inverse *= 2 - denominator * inverse; // inverse mod 2^16\\n            inverse *= 2 - denominator * inverse; // inverse mod 2^32\\n            inverse *= 2 - denominator * inverse; // inverse mod 2^64\\n            inverse *= 2 - denominator * inverse; // inverse mod 2^128\\n            inverse *= 2 - denominator * inverse; // inverse mod 2^256\\n\\n            // Because the division is now exact we can divide by multiplying with the modular inverse of denominator.\\n            // This will give us the correct result modulo 2^256. Since the preconditions guarantee that the outcome is\\n            // less than 2^256, this is the final result. We don't need to compute the high bits of the result and prod1\\n            // is no longer required.\\n            result = prod0 * inverse;\\n            return result;\\n        }\\n    }\\n\\n    /**\\n     * @notice Calculates x * y / denominator with full precision, following the selected rounding direction.\\n     */\\n    function mulDiv(uint256 x, uint256 y, uint256 denominator, Rounding rounding) internal pure returns (uint256) {\\n        uint256 result = mulDiv(x, y, denominator);\\n        if (rounding == Rounding.Up && mulmod(x, y, denominator) > 0) {\\n            result += 1;\\n        }\\n        return result;\\n    }\\n\\n    /**\\n     * @dev Returns the square root of a number. If the number is not a perfect square, the value is rounded down.\\n     *\\n     * Inspired by Henry S. Warren, Jr.'s \\\"Hacker's Delight\\\" (Chapter 11).\\n     */\\n    function sqrt(uint256 a) internal pure returns (uint256) {\\n        if (a == 0) {\\n            return 0;\\n        }\\n\\n        // For our first guess, we get the biggest power of 2 which is smaller than the square root of the target.\\n        //\\n        // We know that the \\\"msb\\\" (most significant bit) of our target number `a` is a power of 2 such that we have\\n        // `msb(a) <= a < 2*msb(a)`. This value can be written `msb(a)=2**k` with `k=log2(a)`.\\n        //\\n        // This can be rewritten `2**log2(a) <= a < 2**(log2(a) + 1)`\\n        //  `sqrt(2**k) <= sqrt(a) < sqrt(2**(k+1))`\\n        //  `2**(k/2) <= sqrt(a) < 2**((k+1)/2) <= 2**(k/2 + 1)`\\n        //\\n        // Consequently, `2**(log2(a) / 2)` is a good first approximation of `sqrt(a)` with at least 1 correct bit.\\n        uint256 result = 1 << (log2(a) >> 1);\\n\\n        // At this point `result` is an estimation with one bit of precision. We know the true value is a uint128,\\n        // since it is the square root of a uint256. Newton's method converges quadratically (precision doubles at\\n        // every iteration). We thus need at most 7 iteration to turn our partial result with one bit of precision\\n        // into the expected uint128 result.\\n        unchecked {\\n            result = (result + a / result) >> 1;\\n            result = (result + a / result) >> 1;\\n            result = (result + a / result) >> 1;\\n            result = (result + a / result) >> 1;\\n            result = (result + a / result) >> 1;\\n            result = (result + a / result) >> 1;\\n            result = (result + a / result) >> 1;\\n            return min(result, a / result);\\n        }\\n    }\\n\\n    /**\\n     * @notice Calculates sqrt(a), following the selected rounding direction.\\n     */\\n    function sqrt(uint256 a, Rounding rounding) internal pure returns (uint256) {\\n        unchecked {\\n            uint256 result = sqrt(a);\\n            return result + (rounding == Rounding.Up && result * result < a ? 1 : 0);\\n        }\\n    }\\n\\n    /**\\n     * @dev Return the log in base 2, rounded down, of a positive value.\\n     * Returns 0 if given 0.\\n     */\\n    function log2(uint256 value) internal pure returns (uint256) {\\n        uint256 result = 0;\\n        unchecked {\\n            if (value >> 128 > 0) {\\n                value >>= 128;\\n                result += 128;\\n            }\\n            if (value >> 64 > 0) {\\n                value >>= 64;\\n                result += 64;\\n            }\\n            if (value >> 32 > 0) {\\n                value >>= 32;\\n                result += 32;\\n            }\\n            if (value >> 16 > 0) {\\n                value >>= 16;\\n                result += 16;\\n            }\\n            if (value >> 8 > 0) {\\n                value >>= 8;\\n                result += 8;\\n            }\\n            if (value >> 4 > 0) {\\n                value >>= 4;\\n                result += 4;\\n            }\\n            if (value >> 2 > 0) {\\n                value >>= 2;\\n                result += 2;\\n            }\\n            if (value >> 1 > 0) {\\n                result += 1;\\n            }\\n        }\\n        return result;\\n    }\\n\\n    /**\\n     * @dev Return the log in base 2, following the selected rounding direction, of a positive value.\\n     * Returns 0 if given 0.\\n     */\\n    function log2(uint256 value, Rounding rounding) internal pure returns (uint256) {\\n        unchecked {\\n            uint256 result = log2(value);\\n            return result + (rounding == Rounding.Up && 1 << result < value ? 1 : 0);\\n        }\\n    }\\n\\n    /**\\n     * @dev Return the log in base 10, rounded down, of a positive value.\\n     * Returns 0 if given 0.\\n     */\\n    function log10(uint256 value) internal pure returns (uint256) {\\n        uint256 result = 0;\\n        unchecked {\\n            if (value >= 10 ** 64) {\\n                value /= 10 ** 64;\\n                result += 64;\\n            }\\n            if (value >= 10 ** 32) {\\n                value /= 10 ** 32;\\n                result += 32;\\n            }\\n            if (value >= 10 ** 16) {\\n                value /= 10 ** 16;\\n                result += 16;\\n            }\\n            if (value >= 10 ** 8) {\\n                value /= 10 ** 8;\\n                result += 8;\\n            }\\n            if (value >= 10 ** 4) {\\n                value /= 10 ** 4;\\n                result += 4;\\n            }\\n            if (value >= 10 ** 2) {\\n                value /= 10 ** 2;\\n                result += 2;\\n            }\\n            if (value >= 10 ** 1) {\\n                result += 1;\\n            }\\n        }\\n        return result;\\n    }\\n\\n    /**\\n     * @dev Return the log in base 10, following the selected rounding direction, of a positive value.\\n     * Returns 0 if given 0.\\n     */\\n    function log10(uint256 value, Rounding rounding) internal pure returns (uint256) {\\n        unchecked {\\n            uint256 result = log10(value);\\n            return result + (rounding == Rounding.Up && 10 ** result < value ? 1 : 0);\\n        }\\n    }\\n\\n    /**\\n     * @dev Return the log in base 256, rounded down, of a positive value.\\n     * Returns 0 if given 0.\\n     *\\n     * Adding one to the result gives the number of pairs of hex symbols needed to represent `value` as a hex string.\\n     */\\n    function log256(uint256 value) internal pure returns (uint256) {\\n        uint256 result = 0;\\n        unchecked {\\n            if (value >> 128 > 0) {\\n                value >>= 128;\\n                result += 16;\\n            }\\n            if (value >> 64 > 0) {\\n                value >>= 64;\\n                result += 8;\\n            }\\n            if (value >> 32 > 0) {\\n                value >>= 32;\\n                result += 4;\\n            }\\n            if (value >> 16 > 0) {\\n                value >>= 16;\\n                result += 2;\\n            }\\n            if (value >> 8 > 0) {\\n                result += 1;\\n            }\\n        }\\n        return result;\\n    }\\n\\n    /**\\n     * @dev Return the log in base 256, following the selected rounding direction, of a positive value.\\n     * Returns 0 if given 0.\\n     */\\n    function log256(uint256 value, Rounding rounding) internal pure returns (uint256) {\\n        unchecked {\\n            uint256 result = log256(value);\\n            return result + (rounding == Rounding.Up && 1 << (result << 3) < value ? 1 : 0);\\n        }\\n    }\\n}\\n\"},\"@openzeppelin/contracts/interfaces/IERC721.sol\":{\"content\":\"// SPDX-License-Identifier: MIT\\n// OpenZeppelin Contracts v4.4.1 (interfaces/IERC721.sol)\\n\\npragma solidity ^0.8.0;\\n\\nimport \\\"../token/ERC721/IERC721.sol\\\";\\n\"},\"@openzeppelin/contracts/interfaces/IERC165.sol\":{\"content\":\"// SPDX-License-Identifier: MIT\\n// OpenZeppelin Contracts v4.4.1 (interfaces/IERC165.sol)\\n\\npragma solidity ^0.8.0;\\n\\nimport \\\"../utils/introspection/IERC165.sol\\\";\\n\"}},\"settings\":{\"optimizer\":{\"enabled\":false,\"runs\":200},\"outputSelection\":{\"*\":{\"\":[\"ast\"],\"*\":[\"abi\",\"metadata\",\"devdoc\",\"userdoc\",\"storageLayout\",\"evm.legacyAssembly\",\"evm.bytecode\",\"evm.deployedBytecode\",\"evm.methodIdentifiers\",\"evm.gasEstimates\",\"evm.assembly\"]}}}}",
	"name": "Genesis",
	"bytecode": {
		"linkReferences": {},
		"object": "60c06040523480156200001157600080fd5b5060405162006511380380620065118339818101604052810190620000379190620001a2565b6040518060400160405280600781526020017f47656e65736973000000000000000000000000000000000000000000000000008152506040518060400160405280600381526020017f474e4500000000000000000000000000000000000000000000000000000000008152508160039081620000b491906200044e565b508060049081620000c691906200044e565b5050503373ffffffffffffffffffffffffffffffffffffffff1660a08173ffffffffffffffffffffffffffffffffffffffff16815250508073ffffffffffffffffffffffffffffffffffffffff1660808173ffffffffffffffffffffffffffffffffffffffff16815250505062000535565b600080fd5b600073ffffffffffffffffffffffffffffffffffffffff82169050919050565b60006200016a826200013d565b9050919050565b6200017c816200015d565b81146200018857600080fd5b50565b6000815190506200019c8162000171565b92915050565b600060208284031215620001bb57620001ba62000138565b5b6000620001cb848285016200018b565b91505092915050565b600081519050919050565b7f4e487b7100000000000000000000000000000000000000000000000000000000600052604160045260246000fd5b7f4e487b7100000000000000000000000000000000000000000000000000000000600052602260045260246000fd5b600060028204905060018216806200025657607f821691505b6020821081036200026c576200026b6200020e565b5b50919050565b60008190508160005260206000209050919050565b60006020601f8301049050919050565b600082821b905092915050565b600060088302620002d67fffffffffffffffffffffffffffffffffffffffffffffffffffffffffffffffff8262000297565b620002e2868362000297565b95508019841693508086168417925050509392505050565b6000819050919050565b6000819050919050565b60006200032f620003296200032384620002fa565b62000304565b620002fa565b9050919050565b6000819050919050565b6200034b836200030e565b620003636200035a8262000336565b848454620002a4565b825550505050565b600090565b6200037a6200036b565b6200038781848462000340565b505050565b5b81811015620003af57620003a360008262000370565b6001810190506200038d565b5050565b601f821115620003fe57620003c88162000272565b620003d38462000287565b81016020851015620003e3578190505b620003fb620003f28562000287565b8301826200038c565b50505b505050565b600082821c905092915050565b6000620004236000198460080262000403565b1980831691505092915050565b60006200043e838362000410565b9150826002028217905092915050565b6200045982620001d4565b67ffffffffffffffff811115620004755762000474620001df565b5b6200048182546200023d565b6200048e828285620003b3565b600060209050601f831160018114620004c65760008415620004b1578287015190505b620004bd858262000430565b8655506200052d565b601f198416620004d68662000272565b60005b828110156200050057848901518255600182019150602085019450602081019050620004d9565b868310156200052057848901516200051c601f89168262000410565b8355505b6001600288020188555050505b505050505050565b60805160a051615faf6200056260003960006106bd01526000818161088d01526112410152615faf6000f3fe60806040523480156200001157600080fd5b5060043610620001545760003560e01c8063622203be11620000c9578063a85292df1162000087578063a85292df1462000407578063a9059cbb1462000429578063aea3ee43146200045f578063c34902631462000495578063dd62ed3e14620004cb578063f2ee634d14620005015762000154565b8063622203be146200030d5780636407019c146200034357806370a08231146200037957806395d89b4114620003af578063a457c2d714620003d15762000154565b80632da9818111620001175780632da98181146200023f5780633038e8c91462000275578063313ce56714620002955780633950935114620002b757806343a4693114620002ed5762000154565b806306fdde031462000159578063095ea7b3146200017b57806318160ddd14620001b15780632331a50e14620001d357806323b872dd1462000209575b600080fd5b6200016362000537565b60405162000172919062001b0f565b60405180910390f35b62000199600480360381019062000193919062001be7565b620005d1565b604051620001a8919062001c4b565b60405180910390f35b620001bb620005f8565b604051620001ca919062001c79565b60405180910390f35b620001f16004803603810190620001eb919062001c96565b62000602565b60405162000200919062001d4b565b60405180910390f35b62000227600480360381019062000221919062001d68565b6200066e565b60405162000236919062001c4b565b60405180910390f35b6200025d600480360381019062000257919062001e09565b620006a3565b6040516200026c919062001c79565b60405180910390f35b6200029360048036038101906200028d919062001f8c565b620006bb565b005b6200029f62000843565b604051620002ae91906200202f565b60405180910390f35b620002d56004803603810190620002cf919062001be7565b6200084c565b604051620002e4919062001c4b565b60405180910390f35b6200030b60048036038101906200030591906200204c565b6200088b565b005b6200032b600480360381019062000325919062001e09565b62000b19565b6040516200033a919062001c79565b60405180910390f35b6200036160048036038101906200035b9190620020b2565b62000b62565b60405162000370919062001c79565b60405180910390f35b620003976004803603810190620003919190620020e4565b62000c10565b604051620003a6919062001c79565b60405180910390f35b620003b962000c58565b604051620003c8919062001b0f565b60405180910390f35b620003ef6004803603810190620003e9919062001be7565b62000cf2565b604051620003fe919062001c4b565b60405180910390f35b6200041162000d72565b60405162000420919062001c79565b60405180910390f35b62000447600480360381019062000441919062001be7565b62000d7e565b60405162000456919062001c4b565b60405180910390f35b6200047d6004803603810190620004779190620020b2565b62000da5565b6040516200048c919062002181565b60405180910390f35b620004b36004803603810190620004ad919062001c96565b62000dd8565b604051620004c2919062001c4b565b60405180910390f35b620004e96004803603810190620004e391906200219e565b62001090565b604051620004f8919062001c79565b60405180910390f35b6200051f600480360381019062000519919062001c96565b62001117565b6040516200052e919062001c4b565b60405180910390f35b606060038054620005489062002214565b80601f0160208091040260200160405190810160405280929190818152602001828054620005769062002214565b8015620005c75780601f106200059b57610100808354040283529160200191620005c7565b820191906000526020600020905b815481529060010190602001808311620005a957829003601f168201915b5050505050905090565b600080620005de620013ae565b9050620005ed818585620013b6565b600191505092915050565b6000600254905090565b6200060c62001a3f565b600860008481526020019081526020016000206000016000838152602001908152602001600020604051806080016040529081600082015481526020016001820154815260200160028201548152602001600382015481525050905092915050565b6000806200067b620013ae565b90506200068a85828562001587565b620006978585856200161b565b60019150509392505050565b60076020528060005260406000206000915090505481565b7f000000000000000000000000000000000000000000000000000000000000000073ffffffffffffffffffffffffffffffffffffffff163373ffffffffffffffffffffffffffffffffffffffff16146200074c576040517f08c379a0000000000000000000000000000000000000000000000000000000008152600401620007439062002299565b60405180910390fd5b620007586005620018a0565b6000620007666005620018b6565b9050600083836040516200077a9062001a67565b62000787929190620022bb565b604051809103906000f080158015620007a4573d6000803e3d6000fd5b509050806006600084815260200190815260200160002060006101000a81548173ffffffffffffffffffffffffffffffffffffffff021916908373ffffffffffffffffffffffffffffffffffffffff16021790555081600760008373ffffffffffffffffffffffffffffffffffffffff1673ffffffffffffffffffffffffffffffffffffffff1681526020019081526020016000208190555050505050565b60006012905090565b60008062000859620013ae565b9050620008808185856200086e858962001090565b6200087a919062002325565b620013b6565b600191505092915050565b7f000000000000000000000000000000000000000000000000000000000000000073ffffffffffffffffffffffffffffffffffffffff166323b872dd33306a0422ca8b0a00a4250000006040518463ffffffff1660e01b8152600401620008f593929190620023b4565b6020604051808303816000875af115801562000915573d6000803e3d6000fd5b505050506040513d601f19601f820116820180604052508101906200093b919062002422565b6200097d576040517f08c379a00000000000000000000000000000000000000000000000000000000081526004016200097490620024a4565b60405180910390fd5b60006006600084815260200190815260200160002060009054906101000a900473ffffffffffffffffffffffffffffffffffffffff1690508073ffffffffffffffffffffffffffffffffffffffff1663d204c45e33846040518363ffffffff1660e01b8152600401620009f2929190620024c6565b600060405180830381600087803b15801562000a0d57600080fd5b505af115801562000a22573d6000803e3d6000fd5b5050505060008173ffffffffffffffffffffffffffffffffffffffff166398bdf6f56040518163ffffffff1660e01b8152600401602060405180830381865afa15801562000a74573d6000803e3d6000fd5b505050506040513d601f19601f8201168201806040525081019062000a9a919062002511565b9050604051806080016040528060008152602001600081526020016000815260200160008152506008600086815260200190815260200160002060000160008381526020019081526020016000206000820151816000015560208201518160010155604082015181600201556060820151816003015590505050505050565b6000600760008373ffffffffffffffffffffffffffffffffffffffff1673ffffffffffffffffffffffffffffffffffffffff168152602001908152602001600020549050919050565b60006006600083815260200190815260200160002060009054906101000a900473ffffffffffffffffffffffffffffffffffffffff1673ffffffffffffffffffffffffffffffffffffffff166398bdf6f56040518163ffffffff1660e01b8152600401602060405180830381865afa15801562000be3573d6000803e3d6000fd5b505050506040513d601f19601f8201168201806040525081019062000c09919062002511565b9050919050565b60008060008373ffffffffffffffffffffffffffffffffffffffff1673ffffffffffffffffffffffffffffffffffffffff168152602001908152602001600020549050919050565b60606004805462000c699062002214565b80601f016020809104026020016040519081016040528092919081815260200182805462000c979062002214565b801562000ce85780601f1062000cbc5761010080835404028352916020019162000ce8565b820191906000526020600020905b81548152906001019060200180831162000cca57829003601f168201915b5050505050905090565b60008062000cff620013ae565b9050600062000d0f828662001090565b90508381101562000d57576040517f08c379a000000000000000000000000000000000000000000000000000000000815260040162000d4e90620025b9565b60405180910390fd5b62000d668286868403620013b6565b60019250505092915050565b60058060000154905081565b60008062000d8b620013ae565b905062000d9a8185856200161b565b600191505092915050565b60066020528060005260406000206000915054906101000a900473ffffffffffffffffffffffffffffffffffffffff1681565b6000806006600085815260200190815260200160002060009054906101000a900473ffffffffffffffffffffffffffffffffffffffff1690503373ffffffffffffffffffffffffffffffffffffffff168173ffffffffffffffffffffffffffffffffffffffff16636352211e856040518263ffffffff1660e01b815260040162000e63919062001c79565b602060405180830381865afa15801562000e81573d6000803e3d6000fd5b505050506040513d601f19601f8201168201806040525081019062000ea79190620025f2565b73ffffffffffffffffffffffffffffffffffffffff161462000f00576040517f08c379a000000000000000000000000000000000000000000000000000000000815260040162000ef79062002674565b60405180910390fd5b61a8c0600860008681526020019081526020016000206000016000858152602001908152602001600020600001544262000f3b919062002696565b111562000f7f576040517f08c379a000000000000000000000000000000000000000000000000000000000815260040162000f769062002721565b60405180910390fd5b62015180600860008681526020019081526020016000206000016000858152602001908152602001600020600101544262000fbb919062002696565b1162000ffe576040517f08c379a000000000000000000000000000000000000000000000000000000000815260040162000ff59062002793565b60405180910390fd5b4260086000868152602001908152602001600020600001600085815260200190815260200160002060010181905550600560086000868152602001908152602001600020600001600085815260200190815260200160002060030160008282546200106a919062002325565b925050819055506200108533674563918244f40000620018c4565b600191505092915050565b6000600160008473ffffffffffffffffffffffffffffffffffffffff1673ffffffffffffffffffffffffffffffffffffffff16815260200190815260200160002060008373ffffffffffffffffffffffffffffffffffffffff1673ffffffffffffffffffffffffffffffffffffffff16815260200190815260200160002054905092915050565b6000806006600085815260200190815260200160002060009054906101000a900473ffffffffffffffffffffffffffffffffffffffff1690503373ffffffffffffffffffffffffffffffffffffffff168173ffffffffffffffffffffffffffffffffffffffff16636352211e856040518263ffffffff1660e01b8152600401620011a2919062001c79565b602060405180830381865afa158015620011c0573d6000803e3d6000fd5b505050506040513d601f19601f82011682018060405250810190620011e69190620025f2565b73ffffffffffffffffffffffffffffffffffffffff16146200123f576040517f08c379a0000000000000000000000000000000000000000000000000000000008152600401620012369062002674565b60405180910390fd5b7f000000000000000000000000000000000000000000000000000000000000000073ffffffffffffffffffffffffffffffffffffffff166323b872dd333069d3c21bcecceda10000006040518463ffffffff1660e01b8152600401620012a893929190620027f8565b6020604051808303816000875af1158015620012c8573d6000803e3d6000fd5b505050506040513d601f19601f82011682018060405250810190620012ee919062002422565b62001330576040517f08c379a00000000000000000000000000000000000000000000000000000000081526004016200132790620024a4565b60405180910390fd5b4260086000868152602001908152602001600020600001600085815260200190815260200160002060000181905550600160086000868152602001908152602001600020600001600085815260200190815260200160002060020160008282546200139c919062002325565b92505081905550600191505092915050565b600033905090565b600073ffffffffffffffffffffffffffffffffffffffff168373ffffffffffffffffffffffffffffffffffffffff160362001428576040517f08c379a00000000000000000000000000000000000000000000000000000000081526004016200141f90620028ab565b60405180910390fd5b600073ffffffffffffffffffffffffffffffffffffffff168273ffffffffffffffffffffffffffffffffffffffff16036200149a576040517f08c379a0000000000000000000000000000000000000000000000000000000008152600401620014919062002943565b60405180910390fd5b80600160008573ffffffffffffffffffffffffffffffffffffffff1673ffffffffffffffffffffffffffffffffffffffff16815260200190815260200160002060008473ffffffffffffffffffffffffffffffffffffffff1673ffffffffffffffffffffffffffffffffffffffff168152602001908152602001600020819055508173ffffffffffffffffffffffffffffffffffffffff168373ffffffffffffffffffffffffffffffffffffffff167f8c5be1e5ebec7d5bd14f71427d1e84f3dd0314c0f7b2291e5b200ac8c7c3b925836040516200157a919062001c79565b60405180910390a3505050565b600062001595848462001090565b90507fffffffffffffffffffffffffffffffffffffffffffffffffffffffffffffffff811462001615578181101562001605576040517f08c379a0000000000000000000000000000000000000000000000000000000008152600401620015fc90620029b5565b60405180910390fd5b620016148484848403620013b6565b5b50505050565b600073ffffffffffffffffffffffffffffffffffffffff168373ffffffffffffffffffffffffffffffffffffffff16036200168d576040517f08c379a0000000000000000000000000000000000000000000000000000000008152600401620016849062002a4d565b60405180910390fd5b600073ffffffffffffffffffffffffffffffffffffffff168273ffffffffffffffffffffffffffffffffffffffff1603620016ff576040517f08c379a0000000000000000000000000000000000000000000000000000000008152600401620016f69062002ae5565b60405180910390fd5b6200170c838383620018d4565b60008060008573ffffffffffffffffffffffffffffffffffffffff1673ffffffffffffffffffffffffffffffffffffffff1681526020019081526020016000205490508181101562001795576040517f08c379a00000000000000000000000000000000000000000000000000000000081526004016200178c9062002b7d565b60405180910390fd5b8181036000808673ffffffffffffffffffffffffffffffffffffffff1673ffffffffffffffffffffffffffffffffffffffff16815260200190815260200160002081905550816000808573ffffffffffffffffffffffffffffffffffffffff1673ffffffffffffffffffffffffffffffffffffffff168152602001908152602001600020600082825401925050819055508273ffffffffffffffffffffffffffffffffffffffff168473ffffffffffffffffffffffffffffffffffffffff167fddf252ad1be2c89b69c2b068fc378daa952ba7f163c4a11628f55a4df523b3ef8460405162001885919062001c79565b60405180910390a36200189a848484620018d9565b50505050565b6001816000016000828254019250508190555050565b600081600001549050919050565b620018d08282620018de565b5050565b505050565b505050565b600073ffffffffffffffffffffffffffffffffffffffff168273ffffffffffffffffffffffffffffffffffffffff160362001950576040517f08c379a0000000000000000000000000000000000000000000000000000000008152600401620019479062002bef565b60405180910390fd5b6200195e60008383620018d4565b806002600082825462001972919062002325565b92505081905550806000808473ffffffffffffffffffffffffffffffffffffffff1673ffffffffffffffffffffffffffffffffffffffff168152602001908152602001600020600082825401925050819055508173ffffffffffffffffffffffffffffffffffffffff16600073ffffffffffffffffffffffffffffffffffffffff167fddf252ad1be2c89b69c2b068fc378daa952ba7f163c4a11628f55a4df523b3ef8360405162001a25919062001c79565b60405180910390a362001a3b60008383620018d9565b5050565b6040518060800160405280600081526020016000815260200160008152602001600081525090565b6133688062002c1283390190565b600081519050919050565b600082825260208201905092915050565b60005b8381101562001ab157808201518184015260208101905062001a94565b60008484015250505050565b6000601f19601f8301169050919050565b600062001adb8262001a75565b62001ae7818562001a80565b935062001af981856020860162001a91565b62001b048162001abd565b840191505092915050565b6000602082019050818103600083015262001b2b818462001ace565b905092915050565b6000604051905090565b600080fd5b600080fd5b600073ffffffffffffffffffffffffffffffffffffffff82169050919050565b600062001b748262001b47565b9050919050565b62001b868162001b67565b811462001b9257600080fd5b50565b60008135905062001ba68162001b7b565b92915050565b6000819050919050565b62001bc18162001bac565b811462001bcd57600080fd5b50565b60008135905062001be18162001bb6565b92915050565b6000806040838503121562001c015762001c0062001b3d565b5b600062001c118582860162001b95565b925050602062001c248582860162001bd0565b9150509250929050565b60008115159050919050565b62001c458162001c2e565b82525050565b600060208201905062001c62600083018462001c3a565b92915050565b62001c738162001bac565b82525050565b600060208201905062001c90600083018462001c68565b92915050565b6000806040838503121562001cb05762001caf62001b3d565b5b600062001cc08582860162001bd0565b925050602062001cd38582860162001bd0565b9150509250929050565b62001ce88162001bac565b82525050565b60808201600082015162001d06600085018262001cdd565b50602082015162001d1b602085018262001cdd565b50604082015162001d30604085018262001cdd565b50606082015162001d45606085018262001cdd565b50505050565b600060808201905062001d62600083018462001cee565b92915050565b60008060006060848603121562001d845762001d8362001b3d565b5b600062001d948682870162001b95565b935050602062001da78682870162001b95565b925050604062001dba8682870162001bd0565b9150509250925092565b600062001dd18262001b67565b9050919050565b62001de38162001dc4565b811462001def57600080fd5b50565b60008135905062001e038162001dd8565b92915050565b60006020828403121562001e225762001e2162001b3d565b5b600062001e328482850162001df2565b91505092915050565b600080fd5b600080fd5b7f4e487b7100000000000000000000000000000000000000000000000000000000600052604160045260246000fd5b62001e7f8262001abd565b810181811067ffffffffffffffff8211171562001ea15762001ea062001e45565b5b80604052505050565b600062001eb662001b33565b905062001ec4828262001e74565b919050565b600067ffffffffffffffff82111562001ee75762001ee662001e45565b5b62001ef28262001abd565b9050602081019050919050565b82818337600083830152505050565b600062001f2562001f1f8462001ec9565b62001eaa565b90508281526020810184848401111562001f445762001f4362001e40565b5b62001f5184828562001eff565b509392505050565b600082601f83011262001f715762001f7062001e3b565b5b813562001f8384826020860162001f0e565b91505092915050565b6000806040838503121562001fa65762001fa562001b3d565b5b600083013567ffffffffffffffff81111562001fc75762001fc662001b42565b5b62001fd58582860162001f59565b925050602083013567ffffffffffffffff81111562001ff95762001ff862001b42565b5b620020078582860162001f59565b9150509250929050565b600060ff82169050919050565b620020298162002011565b82525050565b60006020820190506200204660008301846200201e565b92915050565b6000806040838503121562002066576200206562001b3d565b5b6000620020768582860162001bd0565b925050602083013567ffffffffffffffff8111156200209a576200209962001b42565b5b620020a88582860162001f59565b9150509250929050565b600060208284031215620020cb57620020ca62001b3d565b5b6000620020db8482850162001bd0565b91505092915050565b600060208284031215620020fd57620020fc62001b3d565b5b60006200210d8482850162001b95565b91505092915050565b6000819050919050565b6000620021416200213b620021358462001b47565b62002116565b62001b47565b9050919050565b6000620021558262002120565b9050919050565b6000620021698262002148565b9050919050565b6200217b816200215c565b82525050565b600060208201905062002198600083018462002170565b92915050565b60008060408385031215620021b857620021b762001b3d565b5b6000620021c88582860162001b95565b9250506020620021db8582860162001b95565b9150509250929050565b7f4e487b7100000000000000000000000000000000000000000000000000000000600052602260045260246000fd5b600060028204905060018216806200222d57607f821691505b602082108103620022435762002242620021e5565b5b50919050565b7f4e6f706521000000000000000000000000000000000000000000000000000000600082015250565b60006200228160058362001a80565b91506200228e8262002249565b602082019050919050565b60006020820190508181036000830152620022b48162002272565b9050919050565b60006040820190508181036000830152620022d7818562001ace565b90508181036020830152620022ed818462001ace565b90509392505050565b7f4e487b7100000000000000000000000000000000000000000000000000000000600052601160045260246000fd5b6000620023328262001bac565b91506200233f8362001bac565b92508282019050808211156200235a5762002359620022f6565b5b92915050565b6200236b8162001b67565b82525050565b6000819050919050565b60006200239c62002396620023908462002371565b62002116565b62001bac565b9050919050565b620023ae816200237b565b82525050565b6000606082019050620023cb600083018662002360565b620023da602083018562002360565b620023e96040830184620023a3565b949350505050565b620023fc8162001c2e565b81146200240857600080fd5b50565b6000815190506200241c81620023f1565b92915050565b6000602082840312156200243b576200243a62001b3d565b5b60006200244b848285016200240b565b91505092915050565b7f53544e4541523a207472616e7366657246726f6d206661696c65640000000000600082015250565b60006200248c601b8362001a80565b9150620024998262002454565b602082019050919050565b60006020820190508181036000830152620024bf816200247d565b9050919050565b6000604082019050620024dd600083018562002360565b8181036020830152620024f1818462001ace565b90509392505050565b6000815190506200250b8162001bb6565b92915050565b6000602082840312156200252a576200252962001b3d565b5b60006200253a84828501620024fa565b91505092915050565b7f45524332303a2064656372656173656420616c6c6f77616e63652062656c6f7760008201527f207a65726f000000000000000000000000000000000000000000000000000000602082015250565b6000620025a160258362001a80565b9150620025ae8262002543565b604082019050919050565b60006020820190508181036000830152620025d48162002592565b9050919050565b600081519050620025ec8162001b7b565b92915050565b6000602082840312156200260b576200260a62001b3d565b5b60006200261b84828501620025db565b91505092915050565b7f596f7520617265206e6f7420746865206f776e65720000000000000000000000600082015250565b60006200265c60158362001a80565b9150620026698262002624565b602082019050919050565b600060208201905081810360008301526200268f816200264d565b9050919050565b6000620026a38262001bac565b9150620026b08362001bac565b9250828203905081811115620026cb57620026ca620022f6565b5b92915050565b7f5761746572204669727374000000000000000000000000000000000000000000600082015250565b600062002709600b8362001a80565b91506200271682620026d1565b602082019050919050565b600060208201905081810360008301526200273c81620026fa565b9050919050565b7f43616e277420436c61696d000000000000000000000000000000000000000000600082015250565b60006200277b600b8362001a80565b9150620027888262002743565b602082019050919050565b60006020820190508181036000830152620027ae816200276c565b9050919050565b6000819050919050565b6000620027e0620027da620027d484620027b5565b62002116565b62001bac565b9050919050565b620027f281620027bf565b82525050565b60006060820190506200280f600083018662002360565b6200281e602083018562002360565b6200282d6040830184620027e7565b949350505050565b7f45524332303a20617070726f76652066726f6d20746865207a65726f2061646460008201527f7265737300000000000000000000000000000000000000000000000000000000602082015250565b60006200289360248362001a80565b9150620028a08262002835565b604082019050919050565b60006020820190508181036000830152620028c68162002884565b9050919050565b7f45524332303a20617070726f766520746f20746865207a65726f20616464726560008201527f7373000000000000000000000000000000000000000000000000000000000000602082015250565b60006200292b60228362001a80565b91506200293882620028cd565b604082019050919050565b600060208201905081810360008301526200295e816200291c565b9050919050565b7f45524332303a20696e73756666696369656e7420616c6c6f77616e6365000000600082015250565b60006200299d601d8362001a80565b9150620029aa8262002965565b602082019050919050565b60006020820190508181036000830152620029d0816200298e565b9050919050565b7f45524332303a207472616e736665722066726f6d20746865207a65726f20616460008201527f6472657373000000000000000000000000000000000000000000000000000000602082015250565b600062002a3560258362001a80565b915062002a4282620029d7565b604082019050919050565b6000602082019050818103600083015262002a688162002a26565b9050919050565b7f45524332303a207472616e7366657220746f20746865207a65726f206164647260008201527f6573730000000000000000000000000000000000000000000000000000000000602082015250565b600062002acd60238362001a80565b915062002ada8262002a6f565b604082019050919050565b6000602082019050818103600083015262002b008162002abe565b9050919050565b7f45524332303a207472616e7366657220616d6f756e742065786365656473206260008201527f616c616e63650000000000000000000000000000000000000000000000000000602082015250565b600062002b6560268362001a80565b915062002b728262002b07565b604082019050919050565b6000602082019050818103600083015262002b988162002b56565b9050919050565b7f45524332303a206d696e7420746f20746865207a65726f206164647265737300600082015250565b600062002bd7601f8362001a80565b915062002be48262002b9f565b602082019050919050565b6000602082019050818103600083015262002c0a8162002bc8565b905091905056fe60a06040523480156200001157600080fd5b50604051620033683803806200336883398181016040528101906200003791906200022e565b818181600090816200004a9190620004fe565b5080600190816200005c9190620004fe565b5050503373ffffffffffffffffffffffffffffffffffffffff1660808173ffffffffffffffffffffffffffffffffffffffff16815250505050620005e5565b6000604051905090565b600080fd5b600080fd5b600080fd5b600080fd5b6000601f19601f8301169050919050565b7f4e487b7100000000000000000000000000000000000000000000000000000000600052604160045260246000fd5b6200010482620000b9565b810181811067ffffffffffffffff82111715620001265762000125620000ca565b5b80604052505050565b60006200013b6200009b565b9050620001498282620000f9565b919050565b600067ffffffffffffffff8211156200016c576200016b620000ca565b5b6200017782620000b9565b9050602081019050919050565b60005b83811015620001a457808201518184015260208101905062000187565b60008484015250505050565b6000620001c7620001c1846200014e565b6200012f565b905082815260208101848484011115620001e657620001e5620000b4565b5b620001f384828562000184565b509392505050565b600082601f830112620002135762000212620000af565b5b815162000225848260208601620001b0565b91505092915050565b60008060408385031215620002485762000247620000a5565b5b600083015167ffffffffffffffff811115620002695762000268620000aa565b5b6200027785828601620001fb565b925050602083015167ffffffffffffffff8111156200029b576200029a620000aa565b5b620002a985828601620001fb565b9150509250929050565b600081519050919050565b7f4e487b7100000000000000000000000000000000000000000000000000000000600052602260045260246000fd5b600060028204905060018216806200030657607f821691505b6020821081036200031c576200031b620002be565b5b50919050565b60008190508160005260206000209050919050565b60006020601f8301049050919050565b600082821b905092915050565b600060088302620003867fffffffffffffffffffffffffffffffffffffffffffffffffffffffffffffffff8262000347565b62000392868362000347565b95508019841693508086168417925050509392505050565b6000819050919050565b6000819050919050565b6000620003df620003d9620003d384620003aa565b620003b4565b620003aa565b9050919050565b6000819050919050565b620003fb83620003be565b620004136200040a82620003e6565b84845462000354565b825550505050565b600090565b6200042a6200041b565b62000437818484620003f0565b505050565b5b818110156200045f576200045360008262000420565b6001810190506200043d565b5050565b601f821115620004ae57620004788162000322565b620004838462000337565b8101602085101562000493578190505b620004ab620004a28562000337565b8301826200043c565b50505b505050565b600082821c905092915050565b6000620004d360001984600802620004b3565b1980831691505092915050565b6000620004ee8383620004c0565b9150826002028217905092915050565b6200050982620002b3565b67ffffffffffffffff811115620005255762000524620000ca565b5b620005318254620002ed565b6200053e82828562000463565b600060209050601f83116001811462000576576000841562000561578287015190505b6200056d8582620004e0565b865550620005dd565b601f198416620005868662000322565b60005b82811015620005b05784890151825560018201915060208501945060208101905062000589565b86831015620005d05784890151620005cc601f891682620004c0565b8355505b6001600288020188555050505b505050505050565b608051612d676200060160003960006108040152612d676000f3fe608060405234801561001057600080fd5b50600436106100f55760003560e01c806370a0823111610097578063b88d4fde11610066578063b88d4fde14610284578063c87b56dd146102a0578063d204c45e146102d0578063e985e9c5146102ec576100f5565b806370a08231146101fc57806395d89b411461022c57806398bdf6f51461024a578063a22cb46514610268576100f5565b8063095ea7b3116100d3578063095ea7b31461017857806323b872dd1461019457806342842e0e146101b05780636352211e146101cc576100f5565b806301ffc9a7146100fa57806306fdde031461012a578063081812fc14610148575b600080fd5b610114600480360381019061010f9190611b58565b61031c565b6040516101219190611ba0565b60405180910390f35b61013261032e565b60405161013f9190611c4b565b60405180910390f35b610162600480360381019061015d9190611ca3565b6103c0565b60405161016f9190611d11565b60405180910390f35b610192600480360381019061018d9190611d58565b610406565b005b6101ae60048036038101906101a99190611d98565b61051d565b005b6101ca60048036038101906101c59190611d98565b61057d565b005b6101e660048036038101906101e19190611ca3565b61059d565b6040516101f39190611d11565b60405180910390f35b61021660048036038101906102119190611deb565b610623565b6040516102239190611e27565b60405180910390f35b6102346106da565b6040516102419190611c4b565b60405180910390f35b61025261076c565b60405161025f9190611e27565b60405180910390f35b610282600480360381019061027d9190611e6e565b610778565b005b61029e60048036038101906102999190611fe3565b61078e565b005b6102ba60048036038101906102b59190611ca3565b6107f0565b6040516102c79190611c4b565b60405180910390f35b6102ea60048036038101906102e59190612107565b610802565b005b61030660048036038101906103019190612163565b610905565b6040516103139190611ba0565b60405180910390f35b600061032782610999565b9050919050565b60606000805461033d906121d2565b80601f0160208091040260200160405190810160405280929190818152602001828054610369906121d2565b80156103b65780601f1061038b576101008083540402835291602001916103b6565b820191906000526020600020905b81548152906001019060200180831161039957829003601f168201915b5050505050905090565b60006103cb826109fa565b6004600083815260200190815260200160002060009054906101000a900473ffffffffffffffffffffffffffffffffffffffff169050919050565b60006104118261059d565b90508073ffffffffffffffffffffffffffffffffffffffff168373ffffffffffffffffffffffffffffffffffffffff1603610481576040517f08c379a000000000000000000000000000000000000000000000000000000000815260040161047890612275565b60405180910390fd5b8073ffffffffffffffffffffffffffffffffffffffff166104a0610a45565b73ffffffffffffffffffffffffffffffffffffffff1614806104cf57506104ce816104c9610a45565b610905565b5b61050e576040517f08c379a000000000000000000000000000000000000000000000000000000000815260040161050590612307565b60405180910390fd5b6105188383610a4d565b505050565b61052e610528610a45565b82610b06565b61056d576040517f08c379a000000000000000000000000000000000000000000000000000000000815260040161056490612399565b60405180910390fd5b610578838383610b9b565b505050565b6105988383836040518060200160405280600081525061078e565b505050565b6000806105a983610e94565b9050600073ffffffffffffffffffffffffffffffffffffffff168173ffffffffffffffffffffffffffffffffffffffff160361061a576040517f08c379a000000000000000000000000000000000000000000000000000000000815260040161061190612405565b60405180910390fd5b80915050919050565b60008073ffffffffffffffffffffffffffffffffffffffff168273ffffffffffffffffffffffffffffffffffffffff1603610693576040517f08c379a000000000000000000000000000000000000000000000000000000000815260040161068a90612497565b60405180910390fd5b600360008373ffffffffffffffffffffffffffffffffffffffff1673ffffffffffffffffffffffffffffffffffffffff168152602001908152602001600020549050919050565b6060600180546106e9906121d2565b80601f0160208091040260200160405190810160405280929190818152602001828054610715906121d2565b80156107625780601f1061073757610100808354040283529160200191610762565b820191906000526020600020905b81548152906001019060200180831161074557829003601f168201915b5050505050905090565b60078060000154905081565b61078a610783610a45565b8383610ed1565b5050565b61079f610799610a45565b83610b06565b6107de576040517f08c379a00000000000000000000000000000000000000000000000000000000081526004016107d590612399565b60405180910390fd5b6107ea8484848461103d565b50505050565b60606107fb82611099565b9050919050565b7f000000000000000000000000000000000000000000000000000000000000000073ffffffffffffffffffffffffffffffffffffffff163373ffffffffffffffffffffffffffffffffffffffff1614610890576040517f08c379a000000000000000000000000000000000000000000000000000000000815260040161088790612503565b60405180910390fd5b61089a60076111ab565b60006108a660076111c1565b9050601e8111156108ec576040517f08c379a00000000000000000000000000000000000000000000000000000000081526004016108e390612595565b60405180910390fd5b6108f683826111cf565b61090081836111ed565b505050565b6000600560008473ffffffffffffffffffffffffffffffffffffffff1673ffffffffffffffffffffffffffffffffffffffff16815260200190815260200160002060008373ffffffffffffffffffffffffffffffffffffffff1673ffffffffffffffffffffffffffffffffffffffff16815260200190815260200160002060009054906101000a900460ff16905092915050565b6000634906490660e01b7bffffffffffffffffffffffffffffffffffffffffffffffffffffffff1916827bffffffffffffffffffffffffffffffffffffffffffffffffffffffff191614806109f357506109f282611291565b5b9050919050565b610a0381611373565b610a42576040517f08c379a0000000000000000000000000000000000000000000000000000000008152600401610a3990612405565b60405180910390fd5b50565b600033905090565b816004600083815260200190815260200160002060006101000a81548173ffffffffffffffffffffffffffffffffffffffff021916908373ffffffffffffffffffffffffffffffffffffffff160217905550808273ffffffffffffffffffffffffffffffffffffffff16610ac08361059d565b73ffffffffffffffffffffffffffffffffffffffff167f8c5be1e5ebec7d5bd14f71427d1e84f3dd0314c0f7b2291e5b200ac8c7c3b92560405160405180910390a45050565b600080610b128361059d565b90508073ffffffffffffffffffffffffffffffffffffffff168473ffffffffffffffffffffffffffffffffffffffff161480610b545750610b538185610905565b5b80610b9257508373ffffffffffffffffffffffffffffffffffffffff16610b7a846103c0565b73ffffffffffffffffffffffffffffffffffffffff16145b91505092915050565b8273ffffffffffffffffffffffffffffffffffffffff16610bbb8261059d565b73ffffffffffffffffffffffffffffffffffffffff1614610c11576040517f08c379a0000000000000000000000000000000000000000000000000000000008152600401610c0890612627565b60405180910390fd5b600073ffffffffffffffffffffffffffffffffffffffff168273ffffffffffffffffffffffffffffffffffffffff1603610c80576040517f08c379a0000000000000000000000000000000000000000000000000000000008152600401610c77906126b9565b60405180910390fd5b610c8d83838360016113b4565b8273ffffffffffffffffffffffffffffffffffffffff16610cad8261059d565b73ffffffffffffffffffffffffffffffffffffffff1614610d03576040517f08c379a0000000000000000000000000000000000000000000000000000000008152600401610cfa90612627565b60405180910390fd5b6004600082815260200190815260200160002060006101000a81549073ffffffffffffffffffffffffffffffffffffffff02191690556001600360008573ffffffffffffffffffffffffffffffffffffffff1673ffffffffffffffffffffffffffffffffffffffff168152602001908152602001600020600082825403925050819055506001600360008473ffffffffffffffffffffffffffffffffffffffff1673ffffffffffffffffffffffffffffffffffffffff16815260200190815260200160002060008282540192505081905550816002600083815260200190815260200160002060006101000a81548173ffffffffffffffffffffffffffffffffffffffff021916908373ffffffffffffffffffffffffffffffffffffffff160217905550808273ffffffffffffffffffffffffffffffffffffffff168473ffffffffffffffffffffffffffffffffffffffff167fddf252ad1be2c89b69c2b068fc378daa952ba7f163c4a11628f55a4df523b3ef60405160405180910390a4610e8f83838360016113ba565b505050565b60006002600083815260200190815260200160002060009054906101000a900473ffffffffffffffffffffffffffffffffffffffff169050919050565b8173ffffffffffffffffffffffffffffffffffffffff168373ffffffffffffffffffffffffffffffffffffffff1603610f3f576040517f08c379a0000000000000000000000000000000000000000000000000000000008152600401610f3690612725565b60405180910390fd5b80600560008573ffffffffffffffffffffffffffffffffffffffff1673ffffffffffffffffffffffffffffffffffffffff16815260200190815260200160002060008473ffffffffffffffffffffffffffffffffffffffff1673ffffffffffffffffffffffffffffffffffffffff16815260200190815260200160002060006101000a81548160ff0219169083151502179055508173ffffffffffffffffffffffffffffffffffffffff168373ffffffffffffffffffffffffffffffffffffffff167f17307eab39ab6107e8899845ad3d59bd9653f200f220920489ca2b5937696c31836040516110309190611ba0565b60405180910390a3505050565b611048848484610b9b565b611054848484846113c0565b611093576040517f08c379a000000000000000000000000000000000000000000000000000000000815260040161108a906127b7565b60405180910390fd5b50505050565b60606110a4826109fa565b60006006600084815260200190815260200160002080546110c4906121d2565b80601f01602080910402602001604051908101604052809291908181526020018280546110f0906121d2565b801561113d5780601f106111125761010080835404028352916020019161113d565b820191906000526020600020905b81548152906001019060200180831161112057829003601f168201915b50505050509050600061114e611547565b905060008151036111635781925050506111a6565b600082511115611198578082604051602001611180929190612813565b604051602081830303815290604052925050506111a6565b6111a18461155e565b925050505b919050565b6001816000016000828254019250508190555050565b600081600001549050919050565b6111e98282604051806020016040528060008152506115c6565b5050565b6111f682611373565b611235576040517f08c379a000000000000000000000000000000000000000000000000000000000815260040161122c906128a9565b60405180910390fd5b806006600084815260200190815260200160002090816112559190612a75565b507ff8e1a15aba9398e019f0b49df1a4fde98ee17ae345cb5f6b5e2c27f5033e8ce7826040516112859190611e27565b60405180910390a15050565b60007f80ac58cd000000000000000000000000000000000000000000000000000000007bffffffffffffffffffffffffffffffffffffffffffffffffffffffff1916827bffffffffffffffffffffffffffffffffffffffffffffffffffffffff1916148061135c57507f5b5e139f000000000000000000000000000000000000000000000000000000007bffffffffffffffffffffffffffffffffffffffffffffffffffffffff1916827bffffffffffffffffffffffffffffffffffffffffffffffffffffffff1916145b8061136c575061136b82611621565b5b9050919050565b60008073ffffffffffffffffffffffffffffffffffffffff1661139583610e94565b73ffffffffffffffffffffffffffffffffffffffff1614159050919050565b50505050565b50505050565b60006113e18473ffffffffffffffffffffffffffffffffffffffff1661168b565b1561153a578373ffffffffffffffffffffffffffffffffffffffff1663150b7a0261140a610a45565b8786866040518563ffffffff1660e01b815260040161142c9493929190612b9c565b6020604051808303816000875af192505050801561146857506040513d601f19601f820116820180604052508101906114659190612bfd565b60015b6114ea573d8060008114611498576040519150601f19603f3d011682016040523d82523d6000602084013e61149d565b606091505b5060008151036114e2576040517f08c379a00000000000000000000000000000000000000000000000000000000081526004016114d9906127b7565b60405180910390fd5b805181602001fd5b63150b7a0260e01b7bffffffffffffffffffffffffffffffffffffffffffffffffffffffff1916817bffffffffffffffffffffffffffffffffffffffffffffffffffffffff19161491505061153f565b600190505b949350505050565b606060405180602001604052806000815250905090565b6060611569826109fa565b6000611573611547565b9050600081511161159357604051806020016040528060008152506115be565b8061159d846116ae565b6040516020016115ae929190612813565b6040516020818303038152906040525b915050919050565b6115d0838361177c565b6115dd60008484846113c0565b61161c576040517f08c379a0000000000000000000000000000000000000000000000000000000008152600401611613906127b7565b60405180910390fd5b505050565b60007f01ffc9a7000000000000000000000000000000000000000000000000000000007bffffffffffffffffffffffffffffffffffffffffffffffffffffffff1916827bffffffffffffffffffffffffffffffffffffffffffffffffffffffff1916149050919050565b6000808273ffffffffffffffffffffffffffffffffffffffff163b119050919050565b6060600060016116bd84611999565b01905060008167ffffffffffffffff8111156116dc576116db611eb8565b5b6040519080825280601f01601f19166020018201604052801561170e5781602001600182028036833780820191505090505b509050600082602001820190505b600115611771578080600190039150507f3031323334353637383961626364656600000000000000000000000000000000600a86061a8153600a858161176557611764612c2a565b5b0494506000850361171c575b819350505050919050565b600073ffffffffffffffffffffffffffffffffffffffff168273ffffffffffffffffffffffffffffffffffffffff16036117eb576040517f08c379a00000000000000000000000000000000000000000000000000000000081526004016117e290612ca5565b60405180910390fd5b6117f481611373565b15611834576040517f08c379a000000000000000000000000000000000000000000000000000000000815260040161182b90612d11565b60405180910390fd5b6118426000838360016113b4565b61184b81611373565b1561188b576040517f08c379a000000000000000000000000000000000000000000000000000000000815260040161188290612d11565b60405180910390fd5b6001600360008473ffffffffffffffffffffffffffffffffffffffff1673ffffffffffffffffffffffffffffffffffffffff16815260200190815260200160002060008282540192505081905550816002600083815260200190815260200160002060006101000a81548173ffffffffffffffffffffffffffffffffffffffff021916908373ffffffffffffffffffffffffffffffffffffffff160217905550808273ffffffffffffffffffffffffffffffffffffffff16600073ffffffffffffffffffffffffffffffffffffffff167fddf252ad1be2c89b69c2b068fc378daa952ba7f163c4a11628f55a4df523b3ef60405160405180910390a46119956000838360016113ba565b5050565b600080600090507a184f03e93ff9f4daa797ed6e38ed64bf6a1f01000000000000000083106119f7577a184f03e93ff9f4daa797ed6e38ed64bf6a1f01000000000000000083816119ed576119ec612c2a565b5b0492506040810190505b6d04ee2d6d415b85acef81000000008310611a34576d04ee2d6d415b85acef81000000008381611a2a57611a29612c2a565b5b0492506020810190505b662386f26fc100008310611a6357662386f26fc100008381611a5957611a58612c2a565b5b0492506010810190505b6305f5e1008310611a8c576305f5e1008381611a8257611a81612c2a565b5b0492506008810190505b6127108310611ab1576127108381611aa757611aa6612c2a565b5b0492506004810190505b60648310611ad45760648381611aca57611ac9612c2a565b5b0492506002810190505b600a8310611ae3576001810190505b80915050919050565b6000604051905090565b600080fd5b600080fd5b60007fffffffff0000000000000000000000000000000000000000000000000000000082169050919050565b611b3581611b00565b8114611b4057600080fd5b50565b600081359050611b5281611b2c565b92915050565b600060208284031215611b6e57611b6d611af6565b5b6000611b7c84828501611b43565b91505092915050565b60008115159050919050565b611b9a81611b85565b82525050565b6000602082019050611bb56000830184611b91565b92915050565b600081519050919050565b600082825260208201905092915050565b60005b83811015611bf5578082015181840152602081019050611bda565b60008484015250505050565b6000601f19601f8301169050919050565b6000611c1d82611bbb565b611c278185611bc6565b9350611c37818560208601611bd7565b611c4081611c01565b840191505092915050565b60006020820190508181036000830152611c658184611c12565b905092915050565b6000819050919050565b611c8081611c6d565b8114611c8b57600080fd5b50565b600081359050611c9d81611c77565b92915050565b600060208284031215611cb957611cb8611af6565b5b6000611cc784828501611c8e565b91505092915050565b600073ffffffffffffffffffffffffffffffffffffffff82169050919050565b6000611cfb82611cd0565b9050919050565b611d0b81611cf0565b82525050565b6000602082019050611d266000830184611d02565b92915050565b611d3581611cf0565b8114611d4057600080fd5b50565b600081359050611d5281611d2c565b92915050565b60008060408385031215611d6f57611d6e611af6565b5b6000611d7d85828601611d43565b9250506020611d8e85828601611c8e565b9150509250929050565b600080600060608486031215611db157611db0611af6565b5b6000611dbf86828701611d43565b9350506020611dd086828701611d43565b9250506040611de186828701611c8e565b9150509250925092565b600060208284031215611e0157611e00611af6565b5b6000611e0f84828501611d43565b91505092915050565b611e2181611c6d565b82525050565b6000602082019050611e3c6000830184611e18565b92915050565b611e4b81611b85565b8114611e5657600080fd5b50565b600081359050611e6881611e42565b92915050565b60008060408385031215611e8557611e84611af6565b5b6000611e9385828601611d43565b9250506020611ea485828601611e59565b9150509250929050565b600080fd5b600080fd5b7f4e487b7100000000000000000000000000000000000000000000000000000000600052604160045260246000fd5b611ef082611c01565b810181811067ffffffffffffffff82111715611f0f57611f0e611eb8565b5b80604052505050565b6000611f22611aec565b9050611f2e8282611ee7565b919050565b600067ffffffffffffffff821115611f4e57611f4d611eb8565b5b611f5782611c01565b9050602081019050919050565b82818337600083830152505050565b6000611f86611f8184611f33565b611f18565b905082815260208101848484011115611fa257611fa1611eb3565b5b611fad848285611f64565b509392505050565b600082601f830112611fca57611fc9611eae565b5b8135611fda848260208601611f73565b91505092915050565b60008060008060808587031215611ffd57611ffc611af6565b5b600061200b87828801611d43565b945050602061201c87828801611d43565b935050604061202d87828801611c8e565b925050606085013567ffffffffffffffff81111561204e5761204d611afb565b5b61205a87828801611fb5565b91505092959194509250565b600067ffffffffffffffff82111561208157612080611eb8565b5b61208a82611c01565b9050602081019050919050565b60006120aa6120a584612066565b611f18565b9050828152602081018484840111156120c6576120c5611eb3565b5b6120d1848285611f64565b509392505050565b600082601f8301126120ee576120ed611eae565b5b81356120fe848260208601612097565b91505092915050565b6000806040838503121561211e5761211d611af6565b5b600061212c85828601611d43565b925050602083013567ffffffffffffffff81111561214d5761214c611afb565b5b612159858286016120d9565b9150509250929050565b6000806040838503121561217a57612179611af6565b5b600061218885828601611d43565b925050602061219985828601611d43565b9150509250929050565b7f4e487b7100000000000000000000000000000000000000000000000000000000600052602260045260246000fd5b600060028204905060018216806121ea57607f821691505b6020821081036121fd576121fc6121a3565b5b50919050565b7f4552433732313a20617070726f76616c20746f2063757272656e74206f776e6560008201527f7200000000000000000000000000000000000000000000000000000000000000602082015250565b600061225f602183611bc6565b915061226a82612203565b604082019050919050565b6000602082019050818103600083015261228e81612252565b9050919050565b7f4552433732313a20617070726f76652063616c6c6572206973206e6f7420746f60008201527f6b656e206f776e6572206f7220617070726f76656420666f7220616c6c000000602082015250565b60006122f1603d83611bc6565b91506122fc82612295565b604082019050919050565b60006020820190508181036000830152612320816122e4565b9050919050565b7f4552433732313a2063616c6c6572206973206e6f7420746f6b656e206f776e6560008201527f72206f7220617070726f76656400000000000000000000000000000000000000602082015250565b6000612383602d83611bc6565b915061238e82612327565b604082019050919050565b600060208201905081810360008301526123b281612376565b9050919050565b7f4552433732313a20696e76616c696420746f6b656e2049440000000000000000600082015250565b60006123ef601883611bc6565b91506123fa826123b9565b602082019050919050565b6000602082019050818103600083015261241e816123e2565b9050919050565b7f4552433732313a2061646472657373207a65726f206973206e6f74206120766160008201527f6c6964206f776e65720000000000000000000000000000000000000000000000602082015250565b6000612481602983611bc6565b915061248c82612425565b604082019050919050565b600060208201905081810360008301526124b081612474565b9050919050565b7f596f7520646f206e6f7420686176652061636365737321000000000000000000600082015250565b60006124ed601783611bc6565b91506124f8826124b7565b602082019050919050565b6000602082019050818103600083015261251c816124e0565b9050919050565b7f54686572652063616e206265206f6e6c79203330204e46547320696e2061205460008201527f72656520436f6c6c656374696f6e210000000000000000000000000000000000602082015250565b600061257f602f83611bc6565b915061258a82612523565b604082019050919050565b600060208201905081810360008301526125ae81612572565b9050919050565b7f4552433732313a207472616e736665722066726f6d20696e636f72726563742060008201527f6f776e6572000000000000000000000000000000000000000000000000000000602082015250565b6000612611602583611bc6565b915061261c826125b5565b604082019050919050565b6000602082019050818103600083015261264081612604565b9050919050565b7f4552433732313a207472616e7366657220746f20746865207a65726f2061646460008201527f7265737300000000000000000000000000000000000000000000000000000000602082015250565b60006126a3602483611bc6565b91506126ae82612647565b604082019050919050565b600060208201905081810360008301526126d281612696565b9050919050565b7f4552433732313a20617070726f766520746f2063616c6c657200000000000000600082015250565b600061270f601983611bc6565b915061271a826126d9565b602082019050919050565b6000602082019050818103600083015261273e81612702565b9050919050565b7f4552433732313a207472616e7366657220746f206e6f6e20455243373231526560008201527f63656976657220696d706c656d656e7465720000000000000000000000000000602082015250565b60006127a1603283611bc6565b91506127ac82612745565b604082019050919050565b600060208201905081810360008301526127d081612794565b9050919050565b600081905092915050565b60006127ed82611bbb565b6127f781856127d7565b9350612807818560208601611bd7565b80840191505092915050565b600061281f82856127e2565b915061282b82846127e2565b91508190509392505050565b7f45524337323155524953746f726167653a2055524920736574206f66206e6f6e60008201527f6578697374656e7420746f6b656e000000000000000000000000000000000000602082015250565b6000612893602e83611bc6565b915061289e82612837565b604082019050919050565b600060208201905081810360008301526128c281612886565b9050919050565b60008190508160005260206000209050919050565b60006020601f8301049050919050565b600082821b905092915050565b60006008830261292b7fffffffffffffffffffffffffffffffffffffffffffffffffffffffffffffffff826128ee565b61293586836128ee565b95508019841693508086168417925050509392505050565b6000819050919050565b600061297261296d61296884611c6d565b61294d565b611c6d565b9050919050565b6000819050919050565b61298c83612957565b6129a061299882612979565b8484546128fb565b825550505050565b600090565b6129b56129a8565b6129c0818484612983565b505050565b5b818110156129e4576129d96000826129ad565b6001810190506129c6565b5050565b601f821115612a29576129fa816128c9565b612a03846128de565b81016020851015612a12578190505b612a26612a1e856128de565b8301826129c5565b50505b505050565b600082821c905092915050565b6000612a4c60001984600802612a2e565b1980831691505092915050565b6000612a658383612a3b565b9150826002028217905092915050565b612a7e82611bbb565b67ffffffffffffffff811115612a9757612a96611eb8565b5b612aa182546121d2565b612aac8282856129e8565b600060209050601f831160018114612adf5760008415612acd578287015190505b612ad78582612a59565b865550612b3f565b601f198416612aed866128c9565b60005b82811015612b1557848901518255600182019150602085019450602081019050612af0565b86831015612b325784890151612b2e601f891682612a3b565b8355505b6001600288020188555050505b505050505050565b600081519050919050565b600082825260208201905092915050565b6000612b6e82612b47565b612b788185612b52565b9350612b88818560208601611bd7565b612b9181611c01565b840191505092915050565b6000608082019050612bb16000830187611d02565b612bbe6020830186611d02565b612bcb6040830185611e18565b8181036060830152612bdd8184612b63565b905095945050505050565b600081519050612bf781611b2c565b92915050565b600060208284031215612c1357612c12611af6565b5b6000612c2184828501612be8565b91505092915050565b7f4e487b7100000000000000000000000000000000000000000000000000000000600052601260045260246000fd5b7f4552433732313a206d696e7420746f20746865207a65726f2061646472657373600082015250565b6000612c8f602083611bc6565b9150612c9a82612c59565b602082019050919050565b60006020820190508181036000830152612cbe81612c82565b9050919050565b7f4552433732313a20746f6b656e20616c7265616479206d696e74656400000000600082015250565b6000612cfb601c83611bc6565b9150612d0682612cc5565b602082019050919050565b60006020820190508181036000830152612d2a81612cee565b905091905056fea2646970667358221220db887bfa8ad700408d72bf753de162f50f085a15359fced96df368507ebdbc2d64736f6c63430008120033a2646970667358221220c473a741935ae389ffc3853b69f75e1af0868a3c9aecad9c2822739e3fd5183064736f6c63430008120033",
		"opcodes": "PUSH1 0xC0 PUSH1 0x40 MSTORE CALLVALUE DUP1 ISZERO PUSH3 0x11 JUMPI PUSH1 0x0 DUP1 REVERT JUMPDEST POP PUSH1 0x40 MLOAD PUSH3 0x6511 CODESIZE SUB DUP1 PUSH3 0x6511 DUP4 CODECOPY DUP2 DUP2 ADD PUSH1 0x40 MSTORE DUP2 ADD SWAP1 PUSH3 0x37 SWAP2 SWAP1 PUSH3 0x1A2 JUMP JUMPDEST PUSH1 0x40 MLOAD DUP1 PUSH1 0x40 ADD PUSH1 0x40 MSTORE DUP1 PUSH1 0x7 DUP2 MSTORE PUSH1 0x20 ADD PUSH32 0x47656E6573697300000000000000000000000000000000000000000000000000 DUP2 MSTORE POP PUSH1 0x40 MLOAD DUP1 PUSH1 0x40 ADD PUSH1 0x40 MSTORE DUP1 PUSH1 0x3 DUP2 MSTORE PUSH1 0x20 ADD PUSH32 0x474E450000000000000000000000000000000000000000000000000000000000 DUP2 MSTORE POP DUP2 PUSH1 0x3 SWAP1 DUP2 PUSH3 0xB4 SWAP2 SWAP1 PUSH3 0x44E JUMP JUMPDEST POP DUP1 PUSH1 0x4 SWAP1 DUP2 PUSH3 0xC6 SWAP2 SWAP1 PUSH3 0x44E JUMP JUMPDEST POP POP POP CALLER PUSH20 0xFFFFFFFFFFFFFFFFFFFFFFFFFFFFFFFFFFFFFFFF AND PUSH1 0xA0 DUP2 PUSH20 0xFFFFFFFFFFFFFFFFFFFFFFFFFFFFFFFFFFFFFFFF AND DUP2 MSTORE POP POP DUP1 PUSH20 0xFFFFFFFFFFFFFFFFFFFFFFFFFFFFFFFFFFFFFFFF AND PUSH1 0x80 DUP2 PUSH20 0xFFFFFFFFFFFFFFFFFFFFFFFFFFFFFFFFFFFFFFFF AND DUP2 MSTORE POP POP POP PUSH3 0x535 JUMP JUMPDEST PUSH1 0x0 DUP1 REVERT JUMPDEST PUSH1 0x0 PUSH20 0xFFFFFFFFFFFFFFFFFFFFFFFFFFFFFFFFFFFFFFFF DUP3 AND SWAP1 POP SWAP2 SWAP1 POP JUMP JUMPDEST PUSH1 0x0 PUSH3 0x16A DUP3 PUSH3 0x13D JUMP JUMPDEST SWAP1 POP SWAP2 SWAP1 POP JUMP JUMPDEST PUSH3 0x17C DUP2 PUSH3 0x15D JUMP JUMPDEST DUP2 EQ PUSH3 0x188 JUMPI PUSH1 0x0 DUP1 REVERT JUMPDEST POP JUMP JUMPDEST PUSH1 0x0 DUP2 MLOAD SWAP1 POP PUSH3 0x19C DUP2 PUSH3 0x171 JUMP JUMPDEST SWAP3 SWAP2 POP POP JUMP JUMPDEST PUSH1 0x0 PUSH1 0x20 DUP3 DUP5 SUB SLT ISZERO PUSH3 0x1BB JUMPI PUSH3 0x1BA PUSH3 0x138 JUMP JUMPDEST JUMPDEST PUSH1 0x0 PUSH3 0x1CB DUP5 DUP3 DUP6 ADD PUSH3 0x18B JUMP JUMPDEST SWAP2 POP POP SWAP3 SWAP2 POP POP JUMP JUMPDEST PUSH1 0x0 DUP2 MLOAD SWAP1 POP SWAP2 SWAP1 POP JUMP JUMPDEST PUSH32 0x4E487B7100000000000000000000000000000000000000000000000000000000 PUSH1 0x0 MSTORE PUSH1 0x41 PUSH1 0x4 MSTORE PUSH1 0x24 PUSH1 0x0 REVERT JUMPDEST PUSH32 0x4E487B7100000000000000000000000000000000000000000000000000000000 PUSH1 0x0 MSTORE PUSH1 0x22 PUSH1 0x4 MSTORE PUSH1 0x24 PUSH1 0x0 REVERT JUMPDEST PUSH1 0x0 PUSH1 0x2 DUP3 DIV SWAP1 POP PUSH1 0x1 DUP3 AND DUP1 PUSH3 0x256 JUMPI PUSH1 0x7F DUP3 AND SWAP2 POP JUMPDEST PUSH1 0x20 DUP3 LT DUP2 SUB PUSH3 0x26C JUMPI PUSH3 0x26B PUSH3 0x20E JUMP JUMPDEST JUMPDEST POP SWAP2 SWAP1 POP JUMP JUMPDEST PUSH1 0x0 DUP2 SWAP1 POP DUP2 PUSH1 0x0 MSTORE PUSH1 0x20 PUSH1 0x0 KECCAK256 SWAP1 POP SWAP2 SWAP1 POP JUMP JUMPDEST PUSH1 0x0 PUSH1 0x20 PUSH1 0x1F DUP4 ADD DIV SWAP1 POP SWAP2 SWAP1 POP JUMP JUMPDEST PUSH1 0x0 DUP3 DUP3 SHL SWAP1 POP SWAP3 SWAP2 POP POP JUMP JUMPDEST PUSH1 0x0 PUSH1 0x8 DUP4 MUL PUSH3 0x2D6 PUSH32 0xFFFFFFFFFFFFFFFFFFFFFFFFFFFFFFFFFFFFFFFFFFFFFFFFFFFFFFFFFFFFFFFF DUP3 PUSH3 0x297 JUMP JUMPDEST PUSH3 0x2E2 DUP7 DUP4 PUSH3 0x297 JUMP JUMPDEST SWAP6 POP DUP1 NOT DUP5 AND SWAP4 POP DUP1 DUP7 AND DUP5 OR SWAP3 POP POP POP SWAP4 SWAP3 POP POP POP JUMP JUMPDEST PUSH1 0x0 DUP2 SWAP1 POP SWAP2 SWAP1 POP JUMP JUMPDEST PUSH1 0x0 DUP2 SWAP1 POP SWAP2 SWAP1 POP JUMP JUMPDEST PUSH1 0x0 PUSH3 0x32F PUSH3 0x329 PUSH3 0x323 DUP5 PUSH3 0x2FA JUMP JUMPDEST PUSH3 0x304 JUMP JUMPDEST PUSH3 0x2FA JUMP JUMPDEST SWAP1 POP SWAP2 SWAP1 POP JUMP JUMPDEST PUSH1 0x0 DUP2 SWAP1 POP SWAP2 SWAP1 POP JUMP JUMPDEST PUSH3 0x34B DUP4 PUSH3 0x30E JUMP JUMPDEST PUSH3 0x363 PUSH3 0x35A DUP3 PUSH3 0x336 JUMP JUMPDEST DUP5 DUP5 SLOAD PUSH3 0x2A4 JUMP JUMPDEST DUP3 SSTORE POP POP POP POP JUMP JUMPDEST PUSH1 0x0 SWAP1 JUMP JUMPDEST PUSH3 0x37A PUSH3 0x36B JUMP JUMPDEST PUSH3 0x387 DUP2 DUP5 DUP5 PUSH3 0x340 JUMP JUMPDEST POP POP POP JUMP JUMPDEST JUMPDEST DUP2 DUP2 LT ISZERO PUSH3 0x3AF JUMPI PUSH3 0x3A3 PUSH1 0x0 DUP3 PUSH3 0x370 JUMP JUMPDEST PUSH1 0x1 DUP2 ADD SWAP1 POP PUSH3 0x38D JUMP JUMPDEST POP POP JUMP JUMPDEST PUSH1 0x1F DUP3 GT ISZERO PUSH3 0x3FE JUMPI PUSH3 0x3C8 DUP2 PUSH3 0x272 JUMP JUMPDEST PUSH3 0x3D3 DUP5 PUSH3 0x287 JUMP JUMPDEST DUP2 ADD PUSH1 0x20 DUP6 LT ISZERO PUSH3 0x3E3 JUMPI DUP2 SWAP1 POP JUMPDEST PUSH3 0x3FB PUSH3 0x3F2 DUP6 PUSH3 0x287 JUMP JUMPDEST DUP4 ADD DUP3 PUSH3 0x38C JUMP JUMPDEST POP POP JUMPDEST POP POP POP JUMP JUMPDEST PUSH1 0x0 DUP3 DUP3 SHR SWAP1 POP SWAP3 SWAP2 POP POP JUMP JUMPDEST PUSH1 0x0 PUSH3 0x423 PUSH1 0x0 NOT DUP5 PUSH1 0x8 MUL PUSH3 0x403 JUMP JUMPDEST NOT DUP1 DUP4 AND SWAP2 POP POP SWAP3 SWAP2 POP POP JUMP JUMPDEST PUSH1 0x0 PUSH3 0x43E DUP4 DUP4 PUSH3 0x410 JUMP JUMPDEST SWAP2 POP DUP3 PUSH1 0x2 MUL DUP3 OR SWAP1 POP SWAP3 SWAP2 POP POP JUMP JUMPDEST PUSH3 0x459 DUP3 PUSH3 0x1D4 JUMP JUMPDEST PUSH8 0xFFFFFFFFFFFFFFFF DUP2 GT ISZERO PUSH3 0x475 JUMPI PUSH3 0x474 PUSH3 0x1DF JUMP JUMPDEST JUMPDEST PUSH3 0x481 DUP3 SLOAD PUSH3 0x23D JUMP JUMPDEST PUSH3 0x48E DUP3 DUP3 DUP6 PUSH3 0x3B3 JUMP JUMPDEST PUSH1 0x0 PUSH1 0x20 SWAP1 POP PUSH1 0x1F DUP4 GT PUSH1 0x1 DUP2 EQ PUSH3 0x4C6 JUMPI PUSH1 0x0 DUP5 ISZERO PUSH3 0x4B1 JUMPI DUP3 DUP8 ADD MLOAD SWAP1 POP JUMPDEST PUSH3 0x4BD DUP6 DUP3 PUSH3 0x430 JUMP JUMPDEST DUP7 SSTORE POP PUSH3 0x52D JUMP JUMPDEST PUSH1 0x1F NOT DUP5 AND PUSH3 0x4D6 DUP7 PUSH3 0x272 JUMP JUMPDEST PUSH1 0x0 JUMPDEST DUP3 DUP2 LT ISZERO PUSH3 0x500 JUMPI DUP5 DUP10 ADD MLOAD DUP3 SSTORE PUSH1 0x1 DUP3 ADD SWAP2 POP PUSH1 0x20 DUP6 ADD SWAP5 POP PUSH1 0x20 DUP2 ADD SWAP1 POP PUSH3 0x4D9 JUMP JUMPDEST DUP7 DUP4 LT ISZERO PUSH3 0x520 JUMPI DUP5 DUP10 ADD MLOAD PUSH3 0x51C PUSH1 0x1F DUP10 AND DUP3 PUSH3 0x410 JUMP JUMPDEST DUP4 SSTORE POP JUMPDEST PUSH1 0x1 PUSH1 0x2 DUP9 MUL ADD DUP9 SSTORE POP POP POP JUMPDEST POP POP POP POP POP POP JUMP JUMPDEST PUSH1 0x80 MLOAD PUSH1 0xA0 MLOAD PUSH2 0x5FAF PUSH3 0x562 PUSH1 0x0 CODECOPY PUSH1 0x0 PUSH2 0x6BD ADD MSTORE PUSH1 0x0 DUP2 DUP2 PUSH2 0x88D ADD MSTORE PUSH2 0x1241 ADD MSTORE PUSH2 0x5FAF PUSH1 0x0 RETURN INVALID PUSH1 0x80 PUSH1 0x40 MSTORE CALLVALUE DUP1 ISZERO PUSH3 0x11 JUMPI PUSH1 0x0 DUP1 REVERT JUMPDEST POP PUSH1 0x4 CALLDATASIZE LT PUSH3 0x154 JUMPI PUSH1 0x0 CALLDATALOAD PUSH1 0xE0 SHR DUP1 PUSH4 0x622203BE GT PUSH3 0xC9 JUMPI DUP1 PUSH4 0xA85292DF GT PUSH3 0x87 JUMPI DUP1 PUSH4 0xA85292DF EQ PUSH3 0x407 JUMPI DUP1 PUSH4 0xA9059CBB EQ PUSH3 0x429 JUMPI DUP1 PUSH4 0xAEA3EE43 EQ PUSH3 0x45F JUMPI DUP1 PUSH4 0xC3490263 EQ PUSH3 0x495 JUMPI DUP1 PUSH4 0xDD62ED3E EQ PUSH3 0x4CB JUMPI DUP1 PUSH4 0xF2EE634D EQ PUSH3 0x501 JUMPI PUSH3 0x154 JUMP JUMPDEST DUP1 PUSH4 0x622203BE EQ PUSH3 0x30D JUMPI DUP1 PUSH4 0x6407019C EQ PUSH3 0x343 JUMPI DUP1 PUSH4 0x70A08231 EQ PUSH3 0x379 JUMPI DUP1 PUSH4 0x95D89B41 EQ PUSH3 0x3AF JUMPI DUP1 PUSH4 0xA457C2D7 EQ PUSH3 0x3D1 JUMPI PUSH3 0x154 JUMP JUMPDEST DUP1 PUSH4 0x2DA98181 GT PUSH3 0x117 JUMPI DUP1 PUSH4 0x2DA98181 EQ PUSH3 0x23F JUMPI DUP1 PUSH4 0x3038E8C9 EQ PUSH3 0x275 JUMPI DUP1 PUSH4 0x313CE567 EQ PUSH3 0x295 JUMPI DUP1 PUSH4 0x39509351 EQ PUSH3 0x2B7 JUMPI DUP1 PUSH4 0x43A46931 EQ PUSH3 0x2ED JUMPI PUSH3 0x154 JUMP JUMPDEST DUP1 PUSH4 0x6FDDE03 EQ PUSH3 0x159 JUMPI DUP1 PUSH4 0x95EA7B3 EQ PUSH3 0x17B JUMPI DUP1 PUSH4 0x18160DDD EQ PUSH3 0x1B1 JUMPI DUP1 PUSH4 0x2331A50E EQ PUSH3 0x1D3 JUMPI DUP1 PUSH4 0x23B872DD EQ PUSH3 0x209 JUMPI JUMPDEST PUSH1 0x0 DUP1 REVERT JUMPDEST PUSH3 0x163 PUSH3 0x537 JUMP JUMPDEST PUSH1 0x40 MLOAD PUSH3 0x172 SWAP2 SWAP1 PUSH3 0x1B0F JUMP JUMPDEST PUSH1 0x40 MLOAD DUP1 SWAP2 SUB SWAP1 RETURN JUMPDEST PUSH3 0x199 PUSH1 0x4 DUP1 CALLDATASIZE SUB DUP2 ADD SWAP1 PUSH3 0x193 SWAP2 SWAP1 PUSH3 0x1BE7 JUMP JUMPDEST PUSH3 0x5D1 JUMP JUMPDEST PUSH1 0x40 MLOAD PUSH3 0x1A8 SWAP2 SWAP1 PUSH3 0x1C4B JUMP JUMPDEST PUSH1 0x40 MLOAD DUP1 SWAP2 SUB SWAP1 RETURN JUMPDEST PUSH3 0x1BB PUSH3 0x5F8 JUMP JUMPDEST PUSH1 0x40 MLOAD PUSH3 0x1CA SWAP2 SWAP1 PUSH3 0x1C79 JUMP JUMPDEST PUSH1 0x40 MLOAD DUP1 SWAP2 SUB SWAP1 RETURN JUMPDEST PUSH3 0x1F1 PUSH1 0x4 DUP1 CALLDATASIZE SUB DUP2 ADD SWAP1 PUSH3 0x1EB SWAP2 SWAP1 PUSH3 0x1C96 JUMP JUMPDEST PUSH3 0x602 JUMP JUMPDEST PUSH1 0x40 MLOAD PUSH3 0x200 SWAP2 SWAP1 PUSH3 0x1D4B JUMP JUMPDEST PUSH1 0x40 MLOAD DUP1 SWAP2 SUB SWAP1 RETURN JUMPDEST PUSH3 0x227 PUSH1 0x4 DUP1 CALLDATASIZE SUB DUP2 ADD SWAP1 PUSH3 0x221 SWAP2 SWAP1 PUSH3 0x1D68 JUMP JUMPDEST PUSH3 0x66E JUMP JUMPDEST PUSH1 0x40 MLOAD PUSH3 0x236 SWAP2 SWAP1 PUSH3 0x1C4B JUMP JUMPDEST PUSH1 0x40 MLOAD DUP1 SWAP2 SUB SWAP1 RETURN JUMPDEST PUSH3 0x25D PUSH1 0x4 DUP1 CALLDATASIZE SUB DUP2 ADD SWAP1 PUSH3 0x257 SWAP2 SWAP1 PUSH3 0x1E09 JUMP JUMPDEST PUSH3 0x6A3 JUMP JUMPDEST PUSH1 0x40 MLOAD PUSH3 0x26C SWAP2 SWAP1 PUSH3 0x1C79 JUMP JUMPDEST PUSH1 0x40 MLOAD DUP1 SWAP2 SUB SWAP1 RETURN JUMPDEST PUSH3 0x293 PUSH1 0x4 DUP1 CALLDATASIZE SUB DUP2 ADD SWAP1 PUSH3 0x28D SWAP2 SWAP1 PUSH3 0x1F8C JUMP JUMPDEST PUSH3 0x6BB JUMP JUMPDEST STOP JUMPDEST PUSH3 0x29F PUSH3 0x843 JUMP JUMPDEST PUSH1 0x40 MLOAD PUSH3 0x2AE SWAP2 SWAP1 PUSH3 0x202F JUMP JUMPDEST PUSH1 0x40 MLOAD DUP1 SWAP2 SUB SWAP1 RETURN JUMPDEST PUSH3 0x2D5 PUSH1 0x4 DUP1 CALLDATASIZE SUB DUP2 ADD SWAP1 PUSH3 0x2CF SWAP2 SWAP1 PUSH3 0x1BE7 JUMP JUMPDEST PUSH3 0x84C JUMP JUMPDEST PUSH1 0x40 MLOAD PUSH3 0x2E4 SWAP2 SWAP1 PUSH3 0x1C4B JUMP JUMPDEST PUSH1 0x40 MLOAD DUP1 SWAP2 SUB SWAP1 RETURN JUMPDEST PUSH3 0x30B PUSH1 0x4 DUP1 CALLDATASIZE SUB DUP2 ADD SWAP1 PUSH3 0x305 SWAP2 SWAP1 PUSH3 0x204C JUMP JUMPDEST PUSH3 0x88B JUMP JUMPDEST STOP JUMPDEST PUSH3 0x32B PUSH1 0x4 DUP1 CALLDATASIZE SUB DUP2 ADD SWAP1 PUSH3 0x325 SWAP2 SWAP1 PUSH3 0x1E09 JUMP JUMPDEST PUSH3 0xB19 JUMP JUMPDEST PUSH1 0x40 MLOAD PUSH3 0x33A SWAP2 SWAP1 PUSH3 0x1C79 JUMP JUMPDEST PUSH1 0x40 MLOAD DUP1 SWAP2 SUB SWAP1 RETURN JUMPDEST PUSH3 0x361 PUSH1 0x4 DUP1 CALLDATASIZE SUB DUP2 ADD SWAP1 PUSH3 0x35B SWAP2 SWAP1 PUSH3 0x20B2 JUMP JUMPDEST PUSH3 0xB62 JUMP JUMPDEST PUSH1 0x40 MLOAD PUSH3 0x370 SWAP2 SWAP1 PUSH3 0x1C79 JUMP JUMPDEST PUSH1 0x40 MLOAD DUP1 SWAP2 SUB SWAP1 RETURN JUMPDEST PUSH3 0x397 PUSH1 0x4 DUP1 CALLDATASIZE SUB DUP2 ADD SWAP1 PUSH3 0x391 SWAP2 SWAP1 PUSH3 0x20E4 JUMP JUMPDEST PUSH3 0xC10 JUMP JUMPDEST PUSH1 0x40 MLOAD PUSH3 0x3A6 SWAP2 SWAP1 PUSH3 0x1C79 JUMP JUMPDEST PUSH1 0x40 MLOAD DUP1 SWAP2 SUB SWAP1 RETURN JUMPDEST PUSH3 0x3B9 PUSH3 0xC58 JUMP JUMPDEST PUSH1 0x40 MLOAD PUSH3 0x3C8 SWAP2 SWAP1 PUSH3 0x1B0F JUMP JUMPDEST PUSH1 0x40 MLOAD DUP1 SWAP2 SUB SWAP1 RETURN JUMPDEST PUSH3 0x3EF PUSH1 0x4 DUP1 CALLDATASIZE SUB DUP2 ADD SWAP1 PUSH3 0x3E9 SWAP2 SWAP1 PUSH3 0x1BE7 JUMP JUMPDEST PUSH3 0xCF2 JUMP JUMPDEST PUSH1 0x40 MLOAD PUSH3 0x3FE SWAP2 SWAP1 PUSH3 0x1C4B JUMP JUMPDEST PUSH1 0x40 MLOAD DUP1 SWAP2 SUB SWAP1 RETURN JUMPDEST PUSH3 0x411 PUSH3 0xD72 JUMP JUMPDEST PUSH1 0x40 MLOAD PUSH3 0x420 SWAP2 SWAP1 PUSH3 0x1C79 JUMP JUMPDEST PUSH1 0x40 MLOAD DUP1 SWAP2 SUB SWAP1 RETURN JUMPDEST PUSH3 0x447 PUSH1 0x4 DUP1 CALLDATASIZE SUB DUP2 ADD SWAP1 PUSH3 0x441 SWAP2 SWAP1 PUSH3 0x1BE7 JUMP JUMPDEST PUSH3 0xD7E JUMP JUMPDEST PUSH1 0x40 MLOAD PUSH3 0x456 SWAP2 SWAP1 PUSH3 0x1C4B JUMP JUMPDEST PUSH1 0x40 MLOAD DUP1 SWAP2 SUB SWAP1 RETURN JUMPDEST PUSH3 0x47D PUSH1 0x4 DUP1 CALLDATASIZE SUB DUP2 ADD SWAP1 PUSH3 0x477 SWAP2 SWAP1 PUSH3 0x20B2 JUMP JUMPDEST PUSH3 0xDA5 JUMP JUMPDEST PUSH1 0x40 MLOAD PUSH3 0x48C SWAP2 SWAP1 PUSH3 0x2181 JUMP JUMPDEST PUSH1 0x40 MLOAD DUP1 SWAP2 SUB SWAP1 RETURN JUMPDEST PUSH3 0x4B3 PUSH1 0x4 DUP1 CALLDATASIZE SUB DUP2 ADD SWAP1 PUSH3 0x4AD SWAP2 SWAP1 PUSH3 0x1C96 JUMP JUMPDEST PUSH3 0xDD8 JUMP JUMPDEST PUSH1 0x40 MLOAD PUSH3 0x4C2 SWAP2 SWAP1 PUSH3 0x1C4B JUMP JUMPDEST PUSH1 0x40 MLOAD DUP1 SWAP2 SUB SWAP1 RETURN JUMPDEST PUSH3 0x4E9 PUSH1 0x4 DUP1 CALLDATASIZE SUB DUP2 ADD SWAP1 PUSH3 0x4E3 SWAP2 SWAP1 PUSH3 0x219E JUMP JUMPDEST PUSH3 0x1090 JUMP JUMPDEST PUSH1 0x40 MLOAD PUSH3 0x4F8 SWAP2 SWAP1 PUSH3 0x1C79 JUMP JUMPDEST PUSH1 0x40 MLOAD DUP1 SWAP2 SUB SWAP1 RETURN JUMPDEST PUSH3 0x51F PUSH1 0x4 DUP1 CALLDATASIZE SUB DUP2 ADD SWAP1 PUSH3 0x519 SWAP2 SWAP1 PUSH3 0x1C96 JUMP JUMPDEST PUSH3 0x1117 JUMP JUMPDEST PUSH1 0x40 MLOAD PUSH3 0x52E SWAP2 SWAP1 PUSH3 0x1C4B JUMP JUMPDEST PUSH1 0x40 MLOAD DUP1 SWAP2 SUB SWAP1 RETURN JUMPDEST PUSH1 0x60 PUSH1 0x3 DUP1 SLOAD PUSH3 0x548 SWAP1 PUSH3 0x2214 JUMP JUMPDEST DUP1 PUSH1 0x1F ADD PUSH1 0x20 DUP1 SWAP2 DIV MUL PUSH1 0x20 ADD PUSH1 0x40 MLOAD SWAP1 DUP2 ADD PUSH1 0x40 MSTORE DUP1 SWAP3 SWAP2 SWAP1 DUP2 DUP2 MSTORE PUSH1 0x20 ADD DUP3 DUP1 SLOAD PUSH3 0x576 SWAP1 PUSH3 0x2214 JUMP JUMPDEST DUP1 ISZERO PUSH3 0x5C7 JUMPI DUP1 PUSH1 0x1F LT PUSH3 0x59B JUMPI PUSH2 0x100 DUP1 DUP4 SLOAD DIV MUL DUP4 MSTORE SWAP2 PUSH1 0x20 ADD SWAP2 PUSH3 0x5C7 JUMP JUMPDEST DUP3 ADD SWAP2 SWAP1 PUSH1 0x0 MSTORE PUSH1 0x20 PUSH1 0x0 KECCAK256 SWAP1 JUMPDEST DUP2 SLOAD DUP2 MSTORE SWAP1 PUSH1 0x1 ADD SWAP1 PUSH1 0x20 ADD DUP1 DUP4 GT PUSH3 0x5A9 JUMPI DUP3 SWAP1 SUB PUSH1 0x1F AND DUP3 ADD SWAP2 JUMPDEST POP POP POP POP POP SWAP1 POP SWAP1 JUMP JUMPDEST PUSH1 0x0 DUP1 PUSH3 0x5DE PUSH3 0x13AE JUMP JUMPDEST SWAP1 POP PUSH3 0x5ED DUP2 DUP6 DUP6 PUSH3 0x13B6 JUMP JUMPDEST PUSH1 0x1 SWAP2 POP POP SWAP3 SWAP2 POP POP JUMP JUMPDEST PUSH1 0x0 PUSH1 0x2 SLOAD SWAP1 POP SWAP1 JUMP JUMPDEST PUSH3 0x60C PUSH3 0x1A3F JUMP JUMPDEST PUSH1 0x8 PUSH1 0x0 DUP5 DUP2 MSTORE PUSH1 0x20 ADD SWAP1 DUP2 MSTORE PUSH1 0x20 ADD PUSH1 0x0 KECCAK256 PUSH1 0x0 ADD PUSH1 0x0 DUP4 DUP2 MSTORE PUSH1 0x20 ADD SWAP1 DUP2 MSTORE PUSH1 0x20 ADD PUSH1 0x0 KECCAK256 PUSH1 0x40 MLOAD DUP1 PUSH1 0x80 ADD PUSH1 0x40 MSTORE SWAP1 DUP2 PUSH1 0x0 DUP3 ADD SLOAD DUP2 MSTORE PUSH1 0x20 ADD PUSH1 0x1 DUP3 ADD SLOAD DUP2 MSTORE PUSH1 0x20 ADD PUSH1 0x2 DUP3 ADD SLOAD DUP2 MSTORE PUSH1 0x20 ADD PUSH1 0x3 DUP3 ADD SLOAD DUP2 MSTORE POP POP SWAP1 POP SWAP3 SWAP2 POP POP JUMP JUMPDEST PUSH1 0x0 DUP1 PUSH3 0x67B PUSH3 0x13AE JUMP JUMPDEST SWAP1 POP PUSH3 0x68A DUP6 DUP3 DUP6 PUSH3 0x1587 JUMP JUMPDEST PUSH3 0x697 DUP6 DUP6 DUP6 PUSH3 0x161B JUMP JUMPDEST PUSH1 0x1 SWAP2 POP POP SWAP4 SWAP3 POP POP POP JUMP JUMPDEST PUSH1 0x7 PUSH1 0x20 MSTORE DUP1 PUSH1 0x0 MSTORE PUSH1 0x40 PUSH1 0x0 KECCAK256 PUSH1 0x0 SWAP2 POP SWAP1 POP SLOAD DUP2 JUMP JUMPDEST PUSH32 0x0 PUSH20 0xFFFFFFFFFFFFFFFFFFFFFFFFFFFFFFFFFFFFFFFF AND CALLER PUSH20 0xFFFFFFFFFFFFFFFFFFFFFFFFFFFFFFFFFFFFFFFF AND EQ PUSH3 0x74C JUMPI PUSH1 0x40 MLOAD PUSH32 0x8C379A000000000000000000000000000000000000000000000000000000000 DUP2 MSTORE PUSH1 0x4 ADD PUSH3 0x743 SWAP1 PUSH3 0x2299 JUMP JUMPDEST PUSH1 0x40 MLOAD DUP1 SWAP2 SUB SWAP1 REVERT JUMPDEST PUSH3 0x758 PUSH1 0x5 PUSH3 0x18A0 JUMP JUMPDEST PUSH1 0x0 PUSH3 0x766 PUSH1 0x5 PUSH3 0x18B6 JUMP JUMPDEST SWAP1 POP PUSH1 0x0 DUP4 DUP4 PUSH1 0x40 MLOAD PUSH3 0x77A SWAP1 PUSH3 0x1A67 JUMP JUMPDEST PUSH3 0x787 SWAP3 SWAP2 SWAP1 PUSH3 0x22BB JUMP JUMPDEST PUSH1 0x40 MLOAD DUP1 SWAP2 SUB SWAP1 PUSH1 0x0 CREATE DUP1 ISZERO DUP1 ISZERO PUSH3 0x7A4 JUMPI RETURNDATASIZE PUSH1 0x0 DUP1 RETURNDATACOPY RETURNDATASIZE PUSH1 0x0 REVERT JUMPDEST POP SWAP1 POP DUP1 PUSH1 0x6 PUSH1 0x0 DUP5 DUP2 MSTORE PUSH1 0x20 ADD SWAP1 DUP2 MSTORE PUSH1 0x20 ADD PUSH1 0x0 KECCAK256 PUSH1 0x0 PUSH2 0x100 EXP DUP2 SLOAD DUP2 PUSH20 0xFFFFFFFFFFFFFFFFFFFFFFFFFFFFFFFFFFFFFFFF MUL NOT AND SWAP1 DUP4 PUSH20 0xFFFFFFFFFFFFFFFFFFFFFFFFFFFFFFFFFFFFFFFF AND MUL OR SWAP1 SSTORE POP DUP2 PUSH1 0x7 PUSH1 0x0 DUP4 PUSH20 0xFFFFFFFFFFFFFFFFFFFFFFFFFFFFFFFFFFFFFFFF AND PUSH20 0xFFFFFFFFFFFFFFFFFFFFFFFFFFFFFFFFFFFFFFFF AND DUP2 MSTORE PUSH1 0x20 ADD SWAP1 DUP2 MSTORE PUSH1 0x20 ADD PUSH1 0x0 KECCAK256 DUP2 SWAP1 SSTORE POP POP POP POP POP JUMP JUMPDEST PUSH1 0x0 PUSH1 0x12 SWAP1 POP SWAP1 JUMP JUMPDEST PUSH1 0x0 DUP1 PUSH3 0x859 PUSH3 0x13AE JUMP JUMPDEST SWAP1 POP PUSH3 0x880 DUP2 DUP6 DUP6 PUSH3 0x86E DUP6 DUP10 PUSH3 0x1090 JUMP JUMPDEST PUSH3 0x87A SWAP2 SWAP1 PUSH3 0x2325 JUMP JUMPDEST PUSH3 0x13B6 JUMP JUMPDEST PUSH1 0x1 SWAP2 POP POP SWAP3 SWAP2 POP POP JUMP JUMPDEST PUSH32 0x0 PUSH20 0xFFFFFFFFFFFFFFFFFFFFFFFFFFFFFFFFFFFFFFFF AND PUSH4 0x23B872DD CALLER ADDRESS PUSH11 0x422CA8B0A00A425000000 PUSH1 0x40 MLOAD DUP5 PUSH4 0xFFFFFFFF AND PUSH1 0xE0 SHL DUP2 MSTORE PUSH1 0x4 ADD PUSH3 0x8F5 SWAP4 SWAP3 SWAP2 SWAP1 PUSH3 0x23B4 JUMP JUMPDEST PUSH1 0x20 PUSH1 0x40 MLOAD DUP1 DUP4 SUB DUP2 PUSH1 0x0 DUP8 GAS CALL ISZERO DUP1 ISZERO PUSH3 0x915 JUMPI RETURNDATASIZE PUSH1 0x0 DUP1 RETURNDATACOPY RETURNDATASIZE PUSH1 0x0 REVERT JUMPDEST POP POP POP POP PUSH1 0x40 MLOAD RETURNDATASIZE PUSH1 0x1F NOT PUSH1 0x1F DUP3 ADD AND DUP3 ADD DUP1 PUSH1 0x40 MSTORE POP DUP2 ADD SWAP1 PUSH3 0x93B SWAP2 SWAP1 PUSH3 0x2422 JUMP JUMPDEST PUSH3 0x97D JUMPI PUSH1 0x40 MLOAD PUSH32 0x8C379A000000000000000000000000000000000000000000000000000000000 DUP2 MSTORE PUSH1 0x4 ADD PUSH3 0x974 SWAP1 PUSH3 0x24A4 JUMP JUMPDEST PUSH1 0x40 MLOAD DUP1 SWAP2 SUB SWAP1 REVERT JUMPDEST PUSH1 0x0 PUSH1 0x6 PUSH1 0x0 DUP5 DUP2 MSTORE PUSH1 0x20 ADD SWAP1 DUP2 MSTORE PUSH1 0x20 ADD PUSH1 0x0 KECCAK256 PUSH1 0x0 SWAP1 SLOAD SWAP1 PUSH2 0x100 EXP SWAP1 DIV PUSH20 0xFFFFFFFFFFFFFFFFFFFFFFFFFFFFFFFFFFFFFFFF AND SWAP1 POP DUP1 PUSH20 0xFFFFFFFFFFFFFFFFFFFFFFFFFFFFFFFFFFFFFFFF AND PUSH4 0xD204C45E CALLER DUP5 PUSH1 0x40 MLOAD DUP4 PUSH4 0xFFFFFFFF AND PUSH1 0xE0 SHL DUP2 MSTORE PUSH1 0x4 ADD PUSH3 0x9F2 SWAP3 SWAP2 SWAP1 PUSH3 0x24C6 JUMP JUMPDEST PUSH1 0x0 PUSH1 0x40 MLOAD DUP1 DUP4 SUB DUP2 PUSH1 0x0 DUP8 DUP1 EXTCODESIZE ISZERO DUP1 ISZERO PUSH3 0xA0D JUMPI PUSH1 0x0 DUP1 REVERT JUMPDEST POP GAS CALL ISZERO DUP1 ISZERO PUSH3 0xA22 JUMPI RETURNDATASIZE PUSH1 0x0 DUP1 RETURNDATACOPY RETURNDATASIZE PUSH1 0x0 REVERT JUMPDEST POP POP POP POP PUSH1 0x0 DUP2 PUSH20 0xFFFFFFFFFFFFFFFFFFFFFFFFFFFFFFFFFFFFFFFF AND PUSH4 0x98BDF6F5 PUSH1 0x40 MLOAD DUP2 PUSH4 0xFFFFFFFF AND PUSH1 0xE0 SHL DUP2 MSTORE PUSH1 0x4 ADD PUSH1 0x20 PUSH1 0x40 MLOAD DUP1 DUP4 SUB DUP2 DUP7 GAS STATICCALL ISZERO DUP1 ISZERO PUSH3 0xA74 JUMPI RETURNDATASIZE PUSH1 0x0 DUP1 RETURNDATACOPY RETURNDATASIZE PUSH1 0x0 REVERT JUMPDEST POP POP POP POP PUSH1 0x40 MLOAD RETURNDATASIZE PUSH1 0x1F NOT PUSH1 0x1F DUP3 ADD AND DUP3 ADD DUP1 PUSH1 0x40 MSTORE POP DUP2 ADD SWAP1 PUSH3 0xA9A SWAP2 SWAP1 PUSH3 0x2511 JUMP JUMPDEST SWAP1 POP PUSH1 0x40 MLOAD DUP1 PUSH1 0x80 ADD PUSH1 0x40 MSTORE DUP1 PUSH1 0x0 DUP2 MSTORE PUSH1 0x20 ADD PUSH1 0x0 DUP2 MSTORE PUSH1 0x20 ADD PUSH1 0x0 DUP2 MSTORE PUSH1 0x20 ADD PUSH1 0x0 DUP2 MSTORE POP PUSH1 0x8 PUSH1 0x0 DUP7 DUP2 MSTORE PUSH1 0x20 ADD SWAP1 DUP2 MSTORE PUSH1 0x20 ADD PUSH1 0x0 KECCAK256 PUSH1 0x0 ADD PUSH1 0x0 DUP4 DUP2 MSTORE PUSH1 0x20 ADD SWAP1 DUP2 MSTORE PUSH1 0x20 ADD PUSH1 0x0 KECCAK256 PUSH1 0x0 DUP3 ADD MLOAD DUP2 PUSH1 0x0 ADD SSTORE PUSH1 0x20 DUP3 ADD MLOAD DUP2 PUSH1 0x1 ADD SSTORE PUSH1 0x40 DUP3 ADD MLOAD DUP2 PUSH1 0x2 ADD SSTORE PUSH1 0x60 DUP3 ADD MLOAD DUP2 PUSH1 0x3 ADD SSTORE SWAP1 POP POP POP POP POP POP JUMP JUMPDEST PUSH1 0x0 PUSH1 0x7 PUSH1 0x0 DUP4 PUSH20 0xFFFFFFFFFFFFFFFFFFFFFFFFFFFFFFFFFFFFFFFF AND PUSH20 0xFFFFFFFFFFFFFFFFFFFFFFFFFFFFFFFFFFFFFFFF AND DUP2 MSTORE PUSH1 0x20 ADD SWAP1 DUP2 MSTORE PUSH1 0x20 ADD PUSH1 0x0 KECCAK256 SLOAD SWAP1 POP SWAP2 SWAP1 POP JUMP JUMPDEST PUSH1 0x0 PUSH1 0x6 PUSH1 0x0 DUP4 DUP2 MSTORE PUSH1 0x20 ADD SWAP1 DUP2 MSTORE PUSH1 0x20 ADD PUSH1 0x0 KECCAK256 PUSH1 0x0 SWAP1 SLOAD SWAP1 PUSH2 0x100 EXP SWAP1 DIV PUSH20 0xFFFFFFFFFFFFFFFFFFFFFFFFFFFFFFFFFFFFFFFF AND PUSH20 0xFFFFFFFFFFFFFFFFFFFFFFFFFFFFFFFFFFFFFFFF AND PUSH4 0x98BDF6F5 PUSH1 0x40 MLOAD DUP2 PUSH4 0xFFFFFFFF AND PUSH1 0xE0 SHL DUP2 MSTORE PUSH1 0x4 ADD PUSH1 0x20 PUSH1 0x40 MLOAD DUP1 DUP4 SUB DUP2 DUP7 GAS STATICCALL ISZERO DUP1 ISZERO PUSH3 0xBE3 JUMPI RETURNDATASIZE PUSH1 0x0 DUP1 RETURNDATACOPY RETURNDATASIZE PUSH1 0x0 REVERT JUMPDEST POP POP POP POP PUSH1 0x40 MLOAD RETURNDATASIZE PUSH1 0x1F NOT PUSH1 0x1F DUP3 ADD AND DUP3 ADD DUP1 PUSH1 0x40 MSTORE POP DUP2 ADD SWAP1 PUSH3 0xC09 SWAP2 SWAP1 PUSH3 0x2511 JUMP JUMPDEST SWAP1 POP SWAP2 SWAP1 POP JUMP JUMPDEST PUSH1 0x0 DUP1 PUSH1 0x0 DUP4 PUSH20 0xFFFFFFFFFFFFFFFFFFFFFFFFFFFFFFFFFFFFFFFF AND PUSH20 0xFFFFFFFFFFFFFFFFFFFFFFFFFFFFFFFFFFFFFFFF AND DUP2 MSTORE PUSH1 0x20 ADD SWAP1 DUP2 MSTORE PUSH1 0x20 ADD PUSH1 0x0 KECCAK256 SLOAD SWAP1 POP SWAP2 SWAP1 POP JUMP JUMPDEST PUSH1 0x60 PUSH1 0x4 DUP1 SLOAD PUSH3 0xC69 SWAP1 PUSH3 0x2214 JUMP JUMPDEST DUP1 PUSH1 0x1F ADD PUSH1 0x20 DUP1 SWAP2 DIV MUL PUSH1 0x20 ADD PUSH1 0x40 MLOAD SWAP1 DUP2 ADD PUSH1 0x40 MSTORE DUP1 SWAP3 SWAP2 SWAP1 DUP2 DUP2 MSTORE PUSH1 0x20 ADD DUP3 DUP1 SLOAD PUSH3 0xC97 SWAP1 PUSH3 0x2214 JUMP JUMPDEST DUP1 ISZERO PUSH3 0xCE8 JUMPI DUP1 PUSH1 0x1F LT PUSH3 0xCBC JUMPI PUSH2 0x100 DUP1 DUP4 SLOAD DIV MUL DUP4 MSTORE SWAP2 PUSH1 0x20 ADD SWAP2 PUSH3 0xCE8 JUMP JUMPDEST DUP3 ADD SWAP2 SWAP1 PUSH1 0x0 MSTORE PUSH1 0x20 PUSH1 0x0 KECCAK256 SWAP1 JUMPDEST DUP2 SLOAD DUP2 MSTORE SWAP1 PUSH1 0x1 ADD SWAP1 PUSH1 0x20 ADD DUP1 DUP4 GT PUSH3 0xCCA JUMPI DUP3 SWAP1 SUB PUSH1 0x1F AND DUP3 ADD SWAP2 JUMPDEST POP POP POP POP POP SWAP1 POP SWAP1 JUMP JUMPDEST PUSH1 0x0 DUP1 PUSH3 0xCFF PUSH3 0x13AE JUMP JUMPDEST SWAP1 POP PUSH1 0x0 PUSH3 0xD0F DUP3 DUP7 PUSH3 0x1090 JUMP JUMPDEST SWAP1 POP DUP4 DUP2 LT ISZERO PUSH3 0xD57 JUMPI PUSH1 0x40 MLOAD PUSH32 0x8C379A000000000000000000000000000000000000000000000000000000000 DUP2 MSTORE PUSH1 0x4 ADD PUSH3 0xD4E SWAP1 PUSH3 0x25B9 JUMP JUMPDEST PUSH1 0x40 MLOAD DUP1 SWAP2 SUB SWAP1 REVERT JUMPDEST PUSH3 0xD66 DUP3 DUP7 DUP7 DUP5 SUB PUSH3 0x13B6 JUMP JUMPDEST PUSH1 0x1 SWAP3 POP POP POP SWAP3 SWAP2 POP POP JUMP JUMPDEST PUSH1 0x5 DUP1 PUSH1 0x0 ADD SLOAD SWAP1 POP DUP2 JUMP JUMPDEST PUSH1 0x0 DUP1 PUSH3 0xD8B PUSH3 0x13AE JUMP JUMPDEST SWAP1 POP PUSH3 0xD9A DUP2 DUP6 DUP6 PUSH3 0x161B JUMP JUMPDEST PUSH1 0x1 SWAP2 POP POP SWAP3 SWAP2 POP POP JUMP JUMPDEST PUSH1 0x6 PUSH1 0x20 MSTORE DUP1 PUSH1 0x0 MSTORE PUSH1 0x40 PUSH1 0x0 KECCAK256 PUSH1 0x0 SWAP2 POP SLOAD SWAP1 PUSH2 0x100 EXP SWAP1 DIV PUSH20 0xFFFFFFFFFFFFFFFFFFFFFFFFFFFFFFFFFFFFFFFF AND DUP2 JUMP JUMPDEST PUSH1 0x0 DUP1 PUSH1 0x6 PUSH1 0x0 DUP6 DUP2 MSTORE PUSH1 0x20 ADD SWAP1 DUP2 MSTORE PUSH1 0x20 ADD PUSH1 0x0 KECCAK256 PUSH1 0x0 SWAP1 SLOAD SWAP1 PUSH2 0x100 EXP SWAP1 DIV PUSH20 0xFFFFFFFFFFFFFFFFFFFFFFFFFFFFFFFFFFFFFFFF AND SWAP1 POP CALLER PUSH20 0xFFFFFFFFFFFFFFFFFFFFFFFFFFFFFFFFFFFFFFFF AND DUP2 PUSH20 0xFFFFFFFFFFFFFFFFFFFFFFFFFFFFFFFFFFFFFFFF AND PUSH4 0x6352211E DUP6 PUSH1 0x40 MLOAD DUP3 PUSH4 0xFFFFFFFF AND PUSH1 0xE0 SHL DUP2 MSTORE PUSH1 0x4 ADD PUSH3 0xE63 SWAP2 SWAP1 PUSH3 0x1C79 JUMP JUMPDEST PUSH1 0x20 PUSH1 0x40 MLOAD DUP1 DUP4 SUB DUP2 DUP7 GAS STATICCALL ISZERO DUP1 ISZERO PUSH3 0xE81 JUMPI RETURNDATASIZE PUSH1 0x0 DUP1 RETURNDATACOPY RETURNDATASIZE PUSH1 0x0 REVERT JUMPDEST POP POP POP POP PUSH1 0x40 MLOAD RETURNDATASIZE PUSH1 0x1F NOT PUSH1 0x1F DUP3 ADD AND DUP3 ADD DUP1 PUSH1 0x40 MSTORE POP DUP2 ADD SWAP1 PUSH3 0xEA7 SWAP2 SWAP1 PUSH3 0x25F2 JUMP JUMPDEST PUSH20 0xFFFFFFFFFFFFFFFFFFFFFFFFFFFFFFFFFFFFFFFF AND EQ PUSH3 0xF00 JUMPI PUSH1 0x40 MLOAD PUSH32 0x8C379A000000000000000000000000000000000000000000000000000000000 DUP2 MSTORE PUSH1 0x4 ADD PUSH3 0xEF7 SWAP1 PUSH3 0x2674 JUMP JUMPDEST PUSH1 0x40 MLOAD DUP1 SWAP2 SUB SWAP1 REVERT JUMPDEST PUSH2 0xA8C0 PUSH1 0x8 PUSH1 0x0 DUP7 DUP2 MSTORE PUSH1 0x20 ADD SWAP1 DUP2 MSTORE PUSH1 0x20 ADD PUSH1 0x0 KECCAK256 PUSH1 0x0 ADD PUSH1 0x0 DUP6 DUP2 MSTORE PUSH1 0x20 ADD SWAP1 DUP2 MSTORE PUSH1 0x20 ADD PUSH1 0x0 KECCAK256 PUSH1 0x0 ADD SLOAD TIMESTAMP PUSH3 0xF3B SWAP2 SWAP1 PUSH3 0x2696 JUMP JUMPDEST GT ISZERO PUSH3 0xF7F JUMPI PUSH1 0x40 MLOAD PUSH32 0x8C379A000000000000000000000000000000000000000000000000000000000 DUP2 MSTORE PUSH1 0x4 ADD PUSH3 0xF76 SWAP1 PUSH3 0x2721 JUMP JUMPDEST PUSH1 0x40 MLOAD DUP1 SWAP2 SUB SWAP1 REVERT JUMPDEST PUSH3 0x15180 PUSH1 0x8 PUSH1 0x0 DUP7 DUP2 MSTORE PUSH1 0x20 ADD SWAP1 DUP2 MSTORE PUSH1 0x20 ADD PUSH1 0x0 KECCAK256 PUSH1 0x0 ADD PUSH1 0x0 DUP6 DUP2 MSTORE PUSH1 0x20 ADD SWAP1 DUP2 MSTORE PUSH1 0x20 ADD PUSH1 0x0 KECCAK256 PUSH1 0x1 ADD SLOAD TIMESTAMP PUSH3 0xFBB SWAP2 SWAP1 PUSH3 0x2696 JUMP JUMPDEST GT PUSH3 0xFFE JUMPI PUSH1 0x40 MLOAD PUSH32 0x8C379A000000000000000000000000000000000000000000000000000000000 DUP2 MSTORE PUSH1 0x4 ADD PUSH3 0xFF5 SWAP1 PUSH3 0x2793 JUMP JUMPDEST PUSH1 0x40 MLOAD DUP1 SWAP2 SUB SWAP1 REVERT JUMPDEST TIMESTAMP PUSH1 0x8 PUSH1 0x0 DUP7 DUP2 MSTORE PUSH1 0x20 ADD SWAP1 DUP2 MSTORE PUSH1 0x20 ADD PUSH1 0x0 KECCAK256 PUSH1 0x0 ADD PUSH1 0x0 DUP6 DUP2 MSTORE PUSH1 0x20 ADD SWAP1 DUP2 MSTORE PUSH1 0x20 ADD PUSH1 0x0 KECCAK256 PUSH1 0x1 ADD DUP2 SWAP1 SSTORE POP PUSH1 0x5 PUSH1 0x8 PUSH1 0x0 DUP7 DUP2 MSTORE PUSH1 0x20 ADD SWAP1 DUP2 MSTORE PUSH1 0x20 ADD PUSH1 0x0 KECCAK256 PUSH1 0x0 ADD PUSH1 0x0 DUP6 DUP2 MSTORE PUSH1 0x20 ADD SWAP1 DUP2 MSTORE PUSH1 0x20 ADD PUSH1 0x0 KECCAK256 PUSH1 0x3 ADD PUSH1 0x0 DUP3 DUP3 SLOAD PUSH3 0x106A SWAP2 SWAP1 PUSH3 0x2325 JUMP JUMPDEST SWAP3 POP POP DUP2 SWAP1 SSTORE POP PUSH3 0x1085 CALLER PUSH8 0x4563918244F40000 PUSH3 0x18C4 JUMP JUMPDEST PUSH1 0x1 SWAP2 POP POP SWAP3 SWAP2 POP POP JUMP JUMPDEST PUSH1 0x0 PUSH1 0x1 PUSH1 0x0 DUP5 PUSH20 0xFFFFFFFFFFFFFFFFFFFFFFFFFFFFFFFFFFFFFFFF AND PUSH20 0xFFFFFFFFFFFFFFFFFFFFFFFFFFFFFFFFFFFFFFFF AND DUP2 MSTORE PUSH1 0x20 ADD SWAP1 DUP2 MSTORE PUSH1 0x20 ADD PUSH1 0x0 KECCAK256 PUSH1 0x0 DUP4 PUSH20 0xFFFFFFFFFFFFFFFFFFFFFFFFFFFFFFFFFFFFFFFF AND PUSH20 0xFFFFFFFFFFFFFFFFFFFFFFFFFFFFFFFFFFFFFFFF AND DUP2 MSTORE PUSH1 0x20 ADD SWAP1 DUP2 MSTORE PUSH1 0x20 ADD PUSH1 0x0 KECCAK256 SLOAD SWAP1 POP SWAP3 SWAP2 POP POP JUMP JUMPDEST PUSH1 0x0 DUP1 PUSH1 0x6 PUSH1 0x0 DUP6 DUP2 MSTORE PUSH1 0x20 ADD SWAP1 DUP2 MSTORE PUSH1 0x20 ADD PUSH1 0x0 KECCAK256 PUSH1 0x0 SWAP1 SLOAD SWAP1 PUSH2 0x100 EXP SWAP1 DIV PUSH20 0xFFFFFFFFFFFFFFFFFFFFFFFFFFFFFFFFFFFFFFFF AND SWAP1 POP CALLER PUSH20 0xFFFFFFFFFFFFFFFFFFFFFFFFFFFFFFFFFFFFFFFF AND DUP2 PUSH20 0xFFFFFFFFFFFFFFFFFFFFFFFFFFFFFFFFFFFFFFFF AND PUSH4 0x6352211E DUP6 PUSH1 0x40 MLOAD DUP3 PUSH4 0xFFFFFFFF AND PUSH1 0xE0 SHL DUP2 MSTORE PUSH1 0x4 ADD PUSH3 0x11A2 SWAP2 SWAP1 PUSH3 0x1C79 JUMP JUMPDEST PUSH1 0x20 PUSH1 0x40 MLOAD DUP1 DUP4 SUB DUP2 DUP7 GAS STATICCALL ISZERO DUP1 ISZERO PUSH3 0x11C0 JUMPI RETURNDATASIZE PUSH1 0x0 DUP1 RETURNDATACOPY RETURNDATASIZE PUSH1 0x0 REVERT JUMPDEST POP POP POP POP PUSH1 0x40 MLOAD RETURNDATASIZE PUSH1 0x1F NOT PUSH1 0x1F DUP3 ADD AND DUP3 ADD DUP1 PUSH1 0x40 MSTORE POP DUP2 ADD SWAP1 PUSH3 0x11E6 SWAP2 SWAP1 PUSH3 0x25F2 JUMP JUMPDEST PUSH20 0xFFFFFFFFFFFFFFFFFFFFFFFFFFFFFFFFFFFFFFFF AND EQ PUSH3 0x123F JUMPI PUSH1 0x40 MLOAD PUSH32 0x8C379A000000000000000000000000000000000000000000000000000000000 DUP2 MSTORE PUSH1 0x4 ADD PUSH3 0x1236 SWAP1 PUSH3 0x2674 JUMP JUMPDEST PUSH1 0x40 MLOAD DUP1 SWAP2 SUB SWAP1 REVERT JUMPDEST PUSH32 0x0 PUSH20 0xFFFFFFFFFFFFFFFFFFFFFFFFFFFFFFFFFFFFFFFF AND PUSH4 0x23B872DD CALLER ADDRESS PUSH10 0xD3C21BCECCEDA1000000 PUSH1 0x40 MLOAD DUP5 PUSH4 0xFFFFFFFF AND PUSH1 0xE0 SHL DUP2 MSTORE PUSH1 0x4 ADD PUSH3 0x12A8 SWAP4 SWAP3 SWAP2 SWAP1 PUSH3 0x27F8 JUMP JUMPDEST PUSH1 0x20 PUSH1 0x40 MLOAD DUP1 DUP4 SUB DUP2 PUSH1 0x0 DUP8 GAS CALL ISZERO DUP1 ISZERO PUSH3 0x12C8 JUMPI RETURNDATASIZE PUSH1 0x0 DUP1 RETURNDATACOPY RETURNDATASIZE PUSH1 0x0 REVERT JUMPDEST POP POP POP POP PUSH1 0x40 MLOAD RETURNDATASIZE PUSH1 0x1F NOT PUSH1 0x1F DUP3 ADD AND DUP3 ADD DUP1 PUSH1 0x40 MSTORE POP DUP2 ADD SWAP1 PUSH3 0x12EE SWAP2 SWAP1 PUSH3 0x2422 JUMP JUMPDEST PUSH3 0x1330 JUMPI PUSH1 0x40 MLOAD PUSH32 0x8C379A000000000000000000000000000000000000000000000000000000000 DUP2 MSTORE PUSH1 0x4 ADD PUSH3 0x1327 SWAP1 PUSH3 0x24A4 JUMP JUMPDEST PUSH1 0x40 MLOAD DUP1 SWAP2 SUB SWAP1 REVERT JUMPDEST TIMESTAMP PUSH1 0x8 PUSH1 0x0 DUP7 DUP2 MSTORE PUSH1 0x20 ADD SWAP1 DUP2 MSTORE PUSH1 0x20 ADD PUSH1 0x0 KECCAK256 PUSH1 0x0 ADD PUSH1 0x0 DUP6 DUP2 MSTORE PUSH1 0x20 ADD SWAP1 DUP2 MSTORE PUSH1 0x20 ADD PUSH1 0x0 KECCAK256 PUSH1 0x0 ADD DUP2 SWAP1 SSTORE POP PUSH1 0x1 PUSH1 0x8 PUSH1 0x0 DUP7 DUP2 MSTORE PUSH1 0x20 ADD SWAP1 DUP2 MSTORE PUSH1 0x20 ADD PUSH1 0x0 KECCAK256 PUSH1 0x0 ADD PUSH1 0x0 DUP6 DUP2 MSTORE PUSH1 0x20 ADD SWAP1 DUP2 MSTORE PUSH1 0x20 ADD PUSH1 0x0 KECCAK256 PUSH1 0x2 ADD PUSH1 0x0 DUP3 DUP3 SLOAD PUSH3 0x139C SWAP2 SWAP1 PUSH3 0x2325 JUMP JUMPDEST SWAP3 POP POP DUP2 SWAP1 SSTORE POP PUSH1 0x1 SWAP2 POP POP SWAP3 SWAP2 POP POP JUMP JUMPDEST PUSH1 0x0 CALLER SWAP1 POP SWAP1 JUMP JUMPDEST PUSH1 0x0 PUSH20 0xFFFFFFFFFFFFFFFFFFFFFFFFFFFFFFFFFFFFFFFF AND DUP4 PUSH20 0xFFFFFFFFFFFFFFFFFFFFFFFFFFFFFFFFFFFFFFFF AND SUB PUSH3 0x1428 JUMPI PUSH1 0x40 MLOAD PUSH32 0x8C379A000000000000000000000000000000000000000000000000000000000 DUP2 MSTORE PUSH1 0x4 ADD PUSH3 0x141F SWAP1 PUSH3 0x28AB JUMP JUMPDEST PUSH1 0x40 MLOAD DUP1 SWAP2 SUB SWAP1 REVERT JUMPDEST PUSH1 0x0 PUSH20 0xFFFFFFFFFFFFFFFFFFFFFFFFFFFFFFFFFFFFFFFF AND DUP3 PUSH20 0xFFFFFFFFFFFFFFFFFFFFFFFFFFFFFFFFFFFFFFFF AND SUB PUSH3 0x149A JUMPI PUSH1 0x40 MLOAD PUSH32 0x8C379A000000000000000000000000000000000000000000000000000000000 DUP2 MSTORE PUSH1 0x4 ADD PUSH3 0x1491 SWAP1 PUSH3 0x2943 JUMP JUMPDEST PUSH1 0x40 MLOAD DUP1 SWAP2 SUB SWAP1 REVERT JUMPDEST DUP1 PUSH1 0x1 PUSH1 0x0 DUP6 PUSH20 0xFFFFFFFFFFFFFFFFFFFFFFFFFFFFFFFFFFFFFFFF AND PUSH20 0xFFFFFFFFFFFFFFFFFFFFFFFFFFFFFFFFFFFFFFFF AND DUP2 MSTORE PUSH1 0x20 ADD SWAP1 DUP2 MSTORE PUSH1 0x20 ADD PUSH1 0x0 KECCAK256 PUSH1 0x0 DUP5 PUSH20 0xFFFFFFFFFFFFFFFFFFFFFFFFFFFFFFFFFFFFFFFF AND PUSH20 0xFFFFFFFFFFFFFFFFFFFFFFFFFFFFFFFFFFFFFFFF AND DUP2 MSTORE PUSH1 0x20 ADD SWAP1 DUP2 MSTORE PUSH1 0x20 ADD PUSH1 0x0 KECCAK256 DUP2 SWAP1 SSTORE POP DUP2 PUSH20 0xFFFFFFFFFFFFFFFFFFFFFFFFFFFFFFFFFFFFFFFF AND DUP4 PUSH20 0xFFFFFFFFFFFFFFFFFFFFFFFFFFFFFFFFFFFFFFFF AND PUSH32 0x8C5BE1E5EBEC7D5BD14F71427D1E84F3DD0314C0F7B2291E5B200AC8C7C3B925 DUP4 PUSH1 0x40 MLOAD PUSH3 0x157A SWAP2 SWAP1 PUSH3 0x1C79 JUMP JUMPDEST PUSH1 0x40 MLOAD DUP1 SWAP2 SUB SWAP1 LOG3 POP POP POP JUMP JUMPDEST PUSH1 0x0 PUSH3 0x1595 DUP5 DUP5 PUSH3 0x1090 JUMP JUMPDEST SWAP1 POP PUSH32 0xFFFFFFFFFFFFFFFFFFFFFFFFFFFFFFFFFFFFFFFFFFFFFFFFFFFFFFFFFFFFFFFF DUP2 EQ PUSH3 0x1615 JUMPI DUP2 DUP2 LT ISZERO PUSH3 0x1605 JUMPI PUSH1 0x40 MLOAD PUSH32 0x8C379A000000000000000000000000000000000000000000000000000000000 DUP2 MSTORE PUSH1 0x4 ADD PUSH3 0x15FC SWAP1 PUSH3 0x29B5 JUMP JUMPDEST PUSH1 0x40 MLOAD DUP1 SWAP2 SUB SWAP1 REVERT JUMPDEST PUSH3 0x1614 DUP5 DUP5 DUP5 DUP5 SUB PUSH3 0x13B6 JUMP JUMPDEST JUMPDEST POP POP POP POP JUMP JUMPDEST PUSH1 0x0 PUSH20 0xFFFFFFFFFFFFFFFFFFFFFFFFFFFFFFFFFFFFFFFF AND DUP4 PUSH20 0xFFFFFFFFFFFFFFFFFFFFFFFFFFFFFFFFFFFFFFFF AND SUB PUSH3 0x168D JUMPI PUSH1 0x40 MLOAD PUSH32 0x8C379A000000000000000000000000000000000000000000000000000000000 DUP2 MSTORE PUSH1 0x4 ADD PUSH3 0x1684 SWAP1 PUSH3 0x2A4D JUMP JUMPDEST PUSH1 0x40 MLOAD DUP1 SWAP2 SUB SWAP1 REVERT JUMPDEST PUSH1 0x0 PUSH20 0xFFFFFFFFFFFFFFFFFFFFFFFFFFFFFFFFFFFFFFFF AND DUP3 PUSH20 0xFFFFFFFFFFFFFFFFFFFFFFFFFFFFFFFFFFFFFFFF AND SUB PUSH3 0x16FF JUMPI PUSH1 0x40 MLOAD PUSH32 0x8C379A000000000000000000000000000000000000000000000000000000000 DUP2 MSTORE PUSH1 0x4 ADD PUSH3 0x16F6 SWAP1 PUSH3 0x2AE5 JUMP JUMPDEST PUSH1 0x40 MLOAD DUP1 SWAP2 SUB SWAP1 REVERT JUMPDEST PUSH3 0x170C DUP4 DUP4 DUP4 PUSH3 0x18D4 JUMP JUMPDEST PUSH1 0x0 DUP1 PUSH1 0x0 DUP6 PUSH20 0xFFFFFFFFFFFFFFFFFFFFFFFFFFFFFFFFFFFFFFFF AND PUSH20 0xFFFFFFFFFFFFFFFFFFFFFFFFFFFFFFFFFFFFFFFF AND DUP2 MSTORE PUSH1 0x20 ADD SWAP1 DUP2 MSTORE PUSH1 0x20 ADD PUSH1 0x0 KECCAK256 SLOAD SWAP1 POP DUP2 DUP2 LT ISZERO PUSH3 0x1795 JUMPI PUSH1 0x40 MLOAD PUSH32 0x8C379A000000000000000000000000000000000000000000000000000000000 DUP2 MSTORE PUSH1 0x4 ADD PUSH3 0x178C SWAP1 PUSH3 0x2B7D JUMP JUMPDEST PUSH1 0x40 MLOAD DUP1 SWAP2 SUB SWAP1 REVERT JUMPDEST DUP2 DUP2 SUB PUSH1 0x0 DUP1 DUP7 PUSH20 0xFFFFFFFFFFFFFFFFFFFFFFFFFFFFFFFFFFFFFFFF AND PUSH20 0xFFFFFFFFFFFFFFFFFFFFFFFFFFFFFFFFFFFFFFFF AND DUP2 MSTORE PUSH1 0x20 ADD SWAP1 DUP2 MSTORE PUSH1 0x20 ADD PUSH1 0x0 KECCAK256 DUP2 SWAP1 SSTORE POP DUP2 PUSH1 0x0 DUP1 DUP6 PUSH20 0xFFFFFFFFFFFFFFFFFFFFFFFFFFFFFFFFFFFFFFFF AND PUSH20 0xFFFFFFFFFFFFFFFFFFFFFFFFFFFFFFFFFFFFFFFF AND DUP2 MSTORE PUSH1 0x20 ADD SWAP1 DUP2 MSTORE PUSH1 0x20 ADD PUSH1 0x0 KECCAK256 PUSH1 0x0 DUP3 DUP3 SLOAD ADD SWAP3 POP POP DUP2 SWAP1 SSTORE POP DUP3 PUSH20 0xFFFFFFFFFFFFFFFFFFFFFFFFFFFFFFFFFFFFFFFF AND DUP5 PUSH20 0xFFFFFFFFFFFFFFFFFFFFFFFFFFFFFFFFFFFFFFFF AND PUSH32 0xDDF252AD1BE2C89B69C2B068FC378DAA952BA7F163C4A11628F55A4DF523B3EF DUP5 PUSH1 0x40 MLOAD PUSH3 0x1885 SWAP2 SWAP1 PUSH3 0x1C79 JUMP JUMPDEST PUSH1 0x40 MLOAD DUP1 SWAP2 SUB SWAP1 LOG3 PUSH3 0x189A DUP5 DUP5 DUP5 PUSH3 0x18D9 JUMP JUMPDEST POP POP POP POP JUMP JUMPDEST PUSH1 0x1 DUP2 PUSH1 0x0 ADD PUSH1 0x0 DUP3 DUP3 SLOAD ADD SWAP3 POP POP DUP2 SWAP1 SSTORE POP POP JUMP JUMPDEST PUSH1 0x0 DUP2 PUSH1 0x0 ADD SLOAD SWAP1 POP SWAP2 SWAP1 POP JUMP JUMPDEST PUSH3 0x18D0 DUP3 DUP3 PUSH3 0x18DE JUMP JUMPDEST POP POP JUMP JUMPDEST POP POP POP JUMP JUMPDEST POP POP POP JUMP JUMPDEST PUSH1 0x0 PUSH20 0xFFFFFFFFFFFFFFFFFFFFFFFFFFFFFFFFFFFFFFFF AND DUP3 PUSH20 0xFFFFFFFFFFFFFFFFFFFFFFFFFFFFFFFFFFFFFFFF AND SUB PUSH3 0x1950 JUMPI PUSH1 0x40 MLOAD PUSH32 0x8C379A000000000000000000000000000000000000000000000000000000000 DUP2 MSTORE PUSH1 0x4 ADD PUSH3 0x1947 SWAP1 PUSH3 0x2BEF JUMP JUMPDEST PUSH1 0x40 MLOAD DUP1 SWAP2 SUB SWAP1 REVERT JUMPDEST PUSH3 0x195E PUSH1 0x0 DUP4 DUP4 PUSH3 0x18D4 JUMP JUMPDEST DUP1 PUSH1 0x2 PUSH1 0x0 DUP3 DUP3 SLOAD PUSH3 0x1972 SWAP2 SWAP1 PUSH3 0x2325 JUMP JUMPDEST SWAP3 POP POP DUP2 SWAP1 SSTORE POP DUP1 PUSH1 0x0 DUP1 DUP5 PUSH20 0xFFFFFFFFFFFFFFFFFFFFFFFFFFFFFFFFFFFFFFFF AND PUSH20 0xFFFFFFFFFFFFFFFFFFFFFFFFFFFFFFFFFFFFFFFF AND DUP2 MSTORE PUSH1 0x20 ADD SWAP1 DUP2 MSTORE PUSH1 0x20 ADD PUSH1 0x0 KECCAK256 PUSH1 0x0 DUP3 DUP3 SLOAD ADD SWAP3 POP POP DUP2 SWAP1 SSTORE POP DUP2 PUSH20 0xFFFFFFFFFFFFFFFFFFFFFFFFFFFFFFFFFFFFFFFF AND PUSH1 0x0 PUSH20 0xFFFFFFFFFFFFFFFFFFFFFFFFFFFFFFFFFFFFFFFF AND PUSH32 0xDDF252AD1BE2C89B69C2B068FC378DAA952BA7F163C4A11628F55A4DF523B3EF DUP4 PUSH1 0x40 MLOAD PUSH3 0x1A25 SWAP2 SWAP1 PUSH3 0x1C79 JUMP JUMPDEST PUSH1 0x40 MLOAD DUP1 SWAP2 SUB SWAP1 LOG3 PUSH3 0x1A3B PUSH1 0x0 DUP4 DUP4 PUSH3 0x18D9 JUMP JUMPDEST POP POP JUMP JUMPDEST PUSH1 0x40 MLOAD DUP1 PUSH1 0x80 ADD PUSH1 0x40 MSTORE DUP1 PUSH1 0x0 DUP2 MSTORE PUSH1 0x20 ADD PUSH1 0x0 DUP2 MSTORE PUSH1 0x20 ADD PUSH1 0x0 DUP2 MSTORE PUSH1 0x20 ADD PUSH1 0x0 DUP2 MSTORE POP SWAP1 JUMP JUMPDEST PUSH2 0x3368 DUP1 PUSH3 0x2C12 DUP4 CODECOPY ADD SWAP1 JUMP JUMPDEST PUSH1 0x0 DUP2 MLOAD SWAP1 POP SWAP2 SWAP1 POP JUMP JUMPDEST PUSH1 0x0 DUP3 DUP3 MSTORE PUSH1 0x20 DUP3 ADD SWAP1 POP SWAP3 SWAP2 POP POP JUMP JUMPDEST PUSH1 0x0 JUMPDEST DUP4 DUP2 LT ISZERO PUSH3 0x1AB1 JUMPI DUP1 DUP3 ADD MLOAD DUP2 DUP5 ADD MSTORE PUSH1 0x20 DUP2 ADD SWAP1 POP PUSH3 0x1A94 JUMP JUMPDEST PUSH1 0x0 DUP5 DUP5 ADD MSTORE POP POP POP POP JUMP JUMPDEST PUSH1 0x0 PUSH1 0x1F NOT PUSH1 0x1F DUP4 ADD AND SWAP1 POP SWAP2 SWAP1 POP JUMP JUMPDEST PUSH1 0x0 PUSH3 0x1ADB DUP3 PUSH3 0x1A75 JUMP JUMPDEST PUSH3 0x1AE7 DUP2 DUP6 PUSH3 0x1A80 JUMP JUMPDEST SWAP4 POP PUSH3 0x1AF9 DUP2 DUP6 PUSH1 0x20 DUP7 ADD PUSH3 0x1A91 JUMP JUMPDEST PUSH3 0x1B04 DUP2 PUSH3 0x1ABD JUMP JUMPDEST DUP5 ADD SWAP2 POP POP SWAP3 SWAP2 POP POP JUMP JUMPDEST PUSH1 0x0 PUSH1 0x20 DUP3 ADD SWAP1 POP DUP2 DUP2 SUB PUSH1 0x0 DUP4 ADD MSTORE PUSH3 0x1B2B DUP2 DUP5 PUSH3 0x1ACE JUMP JUMPDEST SWAP1 POP SWAP3 SWAP2 POP POP JUMP JUMPDEST PUSH1 0x0 PUSH1 0x40 MLOAD SWAP1 POP SWAP1 JUMP JUMPDEST PUSH1 0x0 DUP1 REVERT JUMPDEST PUSH1 0x0 DUP1 REVERT JUMPDEST PUSH1 0x0 PUSH20 0xFFFFFFFFFFFFFFFFFFFFFFFFFFFFFFFFFFFFFFFF DUP3 AND SWAP1 POP SWAP2 SWAP1 POP JUMP JUMPDEST PUSH1 0x0 PUSH3 0x1B74 DUP3 PUSH3 0x1B47 JUMP JUMPDEST SWAP1 POP SWAP2 SWAP1 POP JUMP JUMPDEST PUSH3 0x1B86 DUP2 PUSH3 0x1B67 JUMP JUMPDEST DUP2 EQ PUSH3 0x1B92 JUMPI PUSH1 0x0 DUP1 REVERT JUMPDEST POP JUMP JUMPDEST PUSH1 0x0 DUP2 CALLDATALOAD SWAP1 POP PUSH3 0x1BA6 DUP2 PUSH3 0x1B7B JUMP JUMPDEST SWAP3 SWAP2 POP POP JUMP JUMPDEST PUSH1 0x0 DUP2 SWAP1 POP SWAP2 SWAP1 POP JUMP JUMPDEST PUSH3 0x1BC1 DUP2 PUSH3 0x1BAC JUMP JUMPDEST DUP2 EQ PUSH3 0x1BCD JUMPI PUSH1 0x0 DUP1 REVERT JUMPDEST POP JUMP JUMPDEST PUSH1 0x0 DUP2 CALLDATALOAD SWAP1 POP PUSH3 0x1BE1 DUP2 PUSH3 0x1BB6 JUMP JUMPDEST SWAP3 SWAP2 POP POP JUMP JUMPDEST PUSH1 0x0 DUP1 PUSH1 0x40 DUP4 DUP6 SUB SLT ISZERO PUSH3 0x1C01 JUMPI PUSH3 0x1C00 PUSH3 0x1B3D JUMP JUMPDEST JUMPDEST PUSH1 0x0 PUSH3 0x1C11 DUP6 DUP3 DUP7 ADD PUSH3 0x1B95 JUMP JUMPDEST SWAP3 POP POP PUSH1 0x20 PUSH3 0x1C24 DUP6 DUP3 DUP7 ADD PUSH3 0x1BD0 JUMP JUMPDEST SWAP2 POP POP SWAP3 POP SWAP3 SWAP1 POP JUMP JUMPDEST PUSH1 0x0 DUP2 ISZERO ISZERO SWAP1 POP SWAP2 SWAP1 POP JUMP JUMPDEST PUSH3 0x1C45 DUP2 PUSH3 0x1C2E JUMP JUMPDEST DUP3 MSTORE POP POP JUMP JUMPDEST PUSH1 0x0 PUSH1 0x20 DUP3 ADD SWAP1 POP PUSH3 0x1C62 PUSH1 0x0 DUP4 ADD DUP5 PUSH3 0x1C3A JUMP JUMPDEST SWAP3 SWAP2 POP POP JUMP JUMPDEST PUSH3 0x1C73 DUP2 PUSH3 0x1BAC JUMP JUMPDEST DUP3 MSTORE POP POP JUMP JUMPDEST PUSH1 0x0 PUSH1 0x20 DUP3 ADD SWAP1 POP PUSH3 0x1C90 PUSH1 0x0 DUP4 ADD DUP5 PUSH3 0x1C68 JUMP JUMPDEST SWAP3 SWAP2 POP POP JUMP JUMPDEST PUSH1 0x0 DUP1 PUSH1 0x40 DUP4 DUP6 SUB SLT ISZERO PUSH3 0x1CB0 JUMPI PUSH3 0x1CAF PUSH3 0x1B3D JUMP JUMPDEST JUMPDEST PUSH1 0x0 PUSH3 0x1CC0 DUP6 DUP3 DUP7 ADD PUSH3 0x1BD0 JUMP JUMPDEST SWAP3 POP POP PUSH1 0x20 PUSH3 0x1CD3 DUP6 DUP3 DUP7 ADD PUSH3 0x1BD0 JUMP JUMPDEST SWAP2 POP POP SWAP3 POP SWAP3 SWAP1 POP JUMP JUMPDEST PUSH3 0x1CE8 DUP2 PUSH3 0x1BAC JUMP JUMPDEST DUP3 MSTORE POP POP JUMP JUMPDEST PUSH1 0x80 DUP3 ADD PUSH1 0x0 DUP3 ADD MLOAD PUSH3 0x1D06 PUSH1 0x0 DUP6 ADD DUP3 PUSH3 0x1CDD JUMP JUMPDEST POP PUSH1 0x20 DUP3 ADD MLOAD PUSH3 0x1D1B PUSH1 0x20 DUP6 ADD DUP3 PUSH3 0x1CDD JUMP JUMPDEST POP PUSH1 0x40 DUP3 ADD MLOAD PUSH3 0x1D30 PUSH1 0x40 DUP6 ADD DUP3 PUSH3 0x1CDD JUMP JUMPDEST POP PUSH1 0x60 DUP3 ADD MLOAD PUSH3 0x1D45 PUSH1 0x60 DUP6 ADD DUP3 PUSH3 0x1CDD JUMP JUMPDEST POP POP POP POP JUMP JUMPDEST PUSH1 0x0 PUSH1 0x80 DUP3 ADD SWAP1 POP PUSH3 0x1D62 PUSH1 0x0 DUP4 ADD DUP5 PUSH3 0x1CEE JUMP JUMPDEST SWAP3 SWAP2 POP POP JUMP JUMPDEST PUSH1 0x0 DUP1 PUSH1 0x0 PUSH1 0x60 DUP5 DUP7 SUB SLT ISZERO PUSH3 0x1D84 JUMPI PUSH3 0x1D83 PUSH3 0x1B3D JUMP JUMPDEST JUMPDEST PUSH1 0x0 PUSH3 0x1D94 DUP7 DUP3 DUP8 ADD PUSH3 0x1B95 JUMP JUMPDEST SWAP4 POP POP PUSH1 0x20 PUSH3 0x1DA7 DUP7 DUP3 DUP8 ADD PUSH3 0x1B95 JUMP JUMPDEST SWAP3 POP POP PUSH1 0x40 PUSH3 0x1DBA DUP7 DUP3 DUP8 ADD PUSH3 0x1BD0 JUMP JUMPDEST SWAP2 POP POP SWAP3 POP SWAP3 POP SWAP3 JUMP JUMPDEST PUSH1 0x0 PUSH3 0x1DD1 DUP3 PUSH3 0x1B67 JUMP JUMPDEST SWAP1 POP SWAP2 SWAP1 POP JUMP JUMPDEST PUSH3 0x1DE3 DUP2 PUSH3 0x1DC4 JUMP JUMPDEST DUP2 EQ PUSH3 0x1DEF JUMPI PUSH1 0x0 DUP1 REVERT JUMPDEST POP JUMP JUMPDEST PUSH1 0x0 DUP2 CALLDATALOAD SWAP1 POP PUSH3 0x1E03 DUP2 PUSH3 0x1DD8 JUMP JUMPDEST SWAP3 SWAP2 POP POP JUMP JUMPDEST PUSH1 0x0 PUSH1 0x20 DUP3 DUP5 SUB SLT ISZERO PUSH3 0x1E22 JUMPI PUSH3 0x1E21 PUSH3 0x1B3D JUMP JUMPDEST JUMPDEST PUSH1 0x0 PUSH3 0x1E32 DUP5 DUP3 DUP6 ADD PUSH3 0x1DF2 JUMP JUMPDEST SWAP2 POP POP SWAP3 SWAP2 POP POP JUMP JUMPDEST PUSH1 0x0 DUP1 REVERT JUMPDEST PUSH1 0x0 DUP1 REVERT JUMPDEST PUSH32 0x4E487B7100000000000000000000000000000000000000000000000000000000 PUSH1 0x0 MSTORE PUSH1 0x41 PUSH1 0x4 MSTORE PUSH1 0x24 PUSH1 0x0 REVERT JUMPDEST PUSH3 0x1E7F DUP3 PUSH3 0x1ABD JUMP JUMPDEST DUP2 ADD DUP2 DUP2 LT PUSH8 0xFFFFFFFFFFFFFFFF DUP3 GT OR ISZERO PUSH3 0x1EA1 JUMPI PUSH3 0x1EA0 PUSH3 0x1E45 JUMP JUMPDEST JUMPDEST DUP1 PUSH1 0x40 MSTORE POP POP POP JUMP JUMPDEST PUSH1 0x0 PUSH3 0x1EB6 PUSH3 0x1B33 JUMP JUMPDEST SWAP1 POP PUSH3 0x1EC4 DUP3 DUP3 PUSH3 0x1E74 JUMP JUMPDEST SWAP2 SWAP1 POP JUMP JUMPDEST PUSH1 0x0 PUSH8 0xFFFFFFFFFFFFFFFF DUP3 GT ISZERO PUSH3 0x1EE7 JUMPI PUSH3 0x1EE6 PUSH3 0x1E45 JUMP JUMPDEST JUMPDEST PUSH3 0x1EF2 DUP3 PUSH3 0x1ABD JUMP JUMPDEST SWAP1 POP PUSH1 0x20 DUP2 ADD SWAP1 POP SWAP2 SWAP1 POP JUMP JUMPDEST DUP3 DUP2 DUP4 CALLDATACOPY PUSH1 0x0 DUP4 DUP4 ADD MSTORE POP POP POP JUMP JUMPDEST PUSH1 0x0 PUSH3 0x1F25 PUSH3 0x1F1F DUP5 PUSH3 0x1EC9 JUMP JUMPDEST PUSH3 0x1EAA JUMP JUMPDEST SWAP1 POP DUP3 DUP2 MSTORE PUSH1 0x20 DUP2 ADD DUP5 DUP5 DUP5 ADD GT ISZERO PUSH3 0x1F44 JUMPI PUSH3 0x1F43 PUSH3 0x1E40 JUMP JUMPDEST JUMPDEST PUSH3 0x1F51 DUP5 DUP3 DUP6 PUSH3 0x1EFF JUMP JUMPDEST POP SWAP4 SWAP3 POP POP POP JUMP JUMPDEST PUSH1 0x0 DUP3 PUSH1 0x1F DUP4 ADD SLT PUSH3 0x1F71 JUMPI PUSH3 0x1F70 PUSH3 0x1E3B JUMP JUMPDEST JUMPDEST DUP2 CALLDATALOAD PUSH3 0x1F83 DUP5 DUP3 PUSH1 0x20 DUP7 ADD PUSH3 0x1F0E JUMP JUMPDEST SWAP2 POP POP SWAP3 SWAP2 POP POP JUMP JUMPDEST PUSH1 0x0 DUP1 PUSH1 0x40 DUP4 DUP6 SUB SLT ISZERO PUSH3 0x1FA6 JUMPI PUSH3 0x1FA5 PUSH3 0x1B3D JUMP JUMPDEST JUMPDEST PUSH1 0x0 DUP4 ADD CALLDATALOAD PUSH8 0xFFFFFFFFFFFFFFFF DUP2 GT ISZERO PUSH3 0x1FC7 JUMPI PUSH3 0x1FC6 PUSH3 0x1B42 JUMP JUMPDEST JUMPDEST PUSH3 0x1FD5 DUP6 DUP3 DUP7 ADD PUSH3 0x1F59 JUMP JUMPDEST SWAP3 POP POP PUSH1 0x20 DUP4 ADD CALLDATALOAD PUSH8 0xFFFFFFFFFFFFFFFF DUP2 GT ISZERO PUSH3 0x1FF9 JUMPI PUSH3 0x1FF8 PUSH3 0x1B42 JUMP JUMPDEST JUMPDEST PUSH3 0x2007 DUP6 DUP3 DUP7 ADD PUSH3 0x1F59 JUMP JUMPDEST SWAP2 POP POP SWAP3 POP SWAP3 SWAP1 POP JUMP JUMPDEST PUSH1 0x0 PUSH1 0xFF DUP3 AND SWAP1 POP SWAP2 SWAP1 POP JUMP JUMPDEST PUSH3 0x2029 DUP2 PUSH3 0x2011 JUMP JUMPDEST DUP3 MSTORE POP POP JUMP JUMPDEST PUSH1 0x0 PUSH1 0x20 DUP3 ADD SWAP1 POP PUSH3 0x2046 PUSH1 0x0 DUP4 ADD DUP5 PUSH3 0x201E JUMP JUMPDEST SWAP3 SWAP2 POP POP JUMP JUMPDEST PUSH1 0x0 DUP1 PUSH1 0x40 DUP4 DUP6 SUB SLT ISZERO PUSH3 0x2066 JUMPI PUSH3 0x2065 PUSH3 0x1B3D JUMP JUMPDEST JUMPDEST PUSH1 0x0 PUSH3 0x2076 DUP6 DUP3 DUP7 ADD PUSH3 0x1BD0 JUMP JUMPDEST SWAP3 POP POP PUSH1 0x20 DUP4 ADD CALLDATALOAD PUSH8 0xFFFFFFFFFFFFFFFF DUP2 GT ISZERO PUSH3 0x209A JUMPI PUSH3 0x2099 PUSH3 0x1B42 JUMP JUMPDEST JUMPDEST PUSH3 0x20A8 DUP6 DUP3 DUP7 ADD PUSH3 0x1F59 JUMP JUMPDEST SWAP2 POP POP SWAP3 POP SWAP3 SWAP1 POP JUMP JUMPDEST PUSH1 0x0 PUSH1 0x20 DUP3 DUP5 SUB SLT ISZERO PUSH3 0x20CB JUMPI PUSH3 0x20CA PUSH3 0x1B3D JUMP JUMPDEST JUMPDEST PUSH1 0x0 PUSH3 0x20DB DUP5 DUP3 DUP6 ADD PUSH3 0x1BD0 JUMP JUMPDEST SWAP2 POP POP SWAP3 SWAP2 POP POP JUMP JUMPDEST PUSH1 0x0 PUSH1 0x20 DUP3 DUP5 SUB SLT ISZERO PUSH3 0x20FD JUMPI PUSH3 0x20FC PUSH3 0x1B3D JUMP JUMPDEST JUMPDEST PUSH1 0x0 PUSH3 0x210D DUP5 DUP3 DUP6 ADD PUSH3 0x1B95 JUMP JUMPDEST SWAP2 POP POP SWAP3 SWAP2 POP POP JUMP JUMPDEST PUSH1 0x0 DUP2 SWAP1 POP SWAP2 SWAP1 POP JUMP JUMPDEST PUSH1 0x0 PUSH3 0x2141 PUSH3 0x213B PUSH3 0x2135 DUP5 PUSH3 0x1B47 JUMP JUMPDEST PUSH3 0x2116 JUMP JUMPDEST PUSH3 0x1B47 JUMP JUMPDEST SWAP1 POP SWAP2 SWAP1 POP JUMP JUMPDEST PUSH1 0x0 PUSH3 0x2155 DUP3 PUSH3 0x2120 JUMP JUMPDEST SWAP1 POP SWAP2 SWAP1 POP JUMP JUMPDEST PUSH1 0x0 PUSH3 0x2169 DUP3 PUSH3 0x2148 JUMP JUMPDEST SWAP1 POP SWAP2 SWAP1 POP JUMP JUMPDEST PUSH3 0x217B DUP2 PUSH3 0x215C JUMP JUMPDEST DUP3 MSTORE POP POP JUMP JUMPDEST PUSH1 0x0 PUSH1 0x20 DUP3 ADD SWAP1 POP PUSH3 0x2198 PUSH1 0x0 DUP4 ADD DUP5 PUSH3 0x2170 JUMP JUMPDEST SWAP3 SWAP2 POP POP JUMP JUMPDEST PUSH1 0x0 DUP1 PUSH1 0x40 DUP4 DUP6 SUB SLT ISZERO PUSH3 0x21B8 JUMPI PUSH3 0x21B7 PUSH3 0x1B3D JUMP JUMPDEST JUMPDEST PUSH1 0x0 PUSH3 0x21C8 DUP6 DUP3 DUP7 ADD PUSH3 0x1B95 JUMP JUMPDEST SWAP3 POP POP PUSH1 0x20 PUSH3 0x21DB DUP6 DUP3 DUP7 ADD PUSH3 0x1B95 JUMP JUMPDEST SWAP2 POP POP SWAP3 POP SWAP3 SWAP1 POP JUMP JUMPDEST PUSH32 0x4E487B7100000000000000000000000000000000000000000000000000000000 PUSH1 0x0 MSTORE PUSH1 0x22 PUSH1 0x4 MSTORE PUSH1 0x24 PUSH1 0x0 REVERT JUMPDEST PUSH1 0x0 PUSH1 0x2 DUP3 DIV SWAP1 POP PUSH1 0x1 DUP3 AND DUP1 PUSH3 0x222D JUMPI PUSH1 0x7F DUP3 AND SWAP2 POP JUMPDEST PUSH1 0x20 DUP3 LT DUP2 SUB PUSH3 0x2243 JUMPI PUSH3 0x2242 PUSH3 0x21E5 JUMP JUMPDEST JUMPDEST POP SWAP2 SWAP1 POP JUMP JUMPDEST PUSH32 0x4E6F706521000000000000000000000000000000000000000000000000000000 PUSH1 0x0 DUP3 ADD MSTORE POP JUMP JUMPDEST PUSH1 0x0 PUSH3 0x2281 PUSH1 0x5 DUP4 PUSH3 0x1A80 JUMP JUMPDEST SWAP2 POP PUSH3 0x228E DUP3 PUSH3 0x2249 JUMP JUMPDEST PUSH1 0x20 DUP3 ADD SWAP1 POP SWAP2 SWAP1 POP JUMP JUMPDEST PUSH1 0x0 PUSH1 0x20 DUP3 ADD SWAP1 POP DUP2 DUP2 SUB PUSH1 0x0 DUP4 ADD MSTORE PUSH3 0x22B4 DUP2 PUSH3 0x2272 JUMP JUMPDEST SWAP1 POP SWAP2 SWAP1 POP JUMP JUMPDEST PUSH1 0x0 PUSH1 0x40 DUP3 ADD SWAP1 POP DUP2 DUP2 SUB PUSH1 0x0 DUP4 ADD MSTORE PUSH3 0x22D7 DUP2 DUP6 PUSH3 0x1ACE JUMP JUMPDEST SWAP1 POP DUP2 DUP2 SUB PUSH1 0x20 DUP4 ADD MSTORE PUSH3 0x22ED DUP2 DUP5 PUSH3 0x1ACE JUMP JUMPDEST SWAP1 POP SWAP4 SWAP3 POP POP POP JUMP JUMPDEST PUSH32 0x4E487B7100000000000000000000000000000000000000000000000000000000 PUSH1 0x0 MSTORE PUSH1 0x11 PUSH1 0x4 MSTORE PUSH1 0x24 PUSH1 0x0 REVERT JUMPDEST PUSH1 0x0 PUSH3 0x2332 DUP3 PUSH3 0x1BAC JUMP JUMPDEST SWAP2 POP PUSH3 0x233F DUP4 PUSH3 0x1BAC JUMP JUMPDEST SWAP3 POP DUP3 DUP3 ADD SWAP1 POP DUP1 DUP3 GT ISZERO PUSH3 0x235A JUMPI PUSH3 0x2359 PUSH3 0x22F6 JUMP JUMPDEST JUMPDEST SWAP3 SWAP2 POP POP JUMP JUMPDEST PUSH3 0x236B DUP2 PUSH3 0x1B67 JUMP JUMPDEST DUP3 MSTORE POP POP JUMP JUMPDEST PUSH1 0x0 DUP2 SWAP1 POP SWAP2 SWAP1 POP JUMP JUMPDEST PUSH1 0x0 PUSH3 0x239C PUSH3 0x2396 PUSH3 0x2390 DUP5 PUSH3 0x2371 JUMP JUMPDEST PUSH3 0x2116 JUMP JUMPDEST PUSH3 0x1BAC JUMP JUMPDEST SWAP1 POP SWAP2 SWAP1 POP JUMP JUMPDEST PUSH3 0x23AE DUP2 PUSH3 0x237B JUMP JUMPDEST DUP3 MSTORE POP POP JUMP JUMPDEST PUSH1 0x0 PUSH1 0x60 DUP3 ADD SWAP1 POP PUSH3 0x23CB PUSH1 0x0 DUP4 ADD DUP7 PUSH3 0x2360 JUMP JUMPDEST PUSH3 0x23DA PUSH1 0x20 DUP4 ADD DUP6 PUSH3 0x2360 JUMP JUMPDEST PUSH3 0x23E9 PUSH1 0x40 DUP4 ADD DUP5 PUSH3 0x23A3 JUMP JUMPDEST SWAP5 SWAP4 POP POP POP POP JUMP JUMPDEST PUSH3 0x23FC DUP2 PUSH3 0x1C2E JUMP JUMPDEST DUP2 EQ PUSH3 0x2408 JUMPI PUSH1 0x0 DUP1 REVERT JUMPDEST POP JUMP JUMPDEST PUSH1 0x0 DUP2 MLOAD SWAP1 POP PUSH3 0x241C DUP2 PUSH3 0x23F1 JUMP JUMPDEST SWAP3 SWAP2 POP POP JUMP JUMPDEST PUSH1 0x0 PUSH1 0x20 DUP3 DUP5 SUB SLT ISZERO PUSH3 0x243B JUMPI PUSH3 0x243A PUSH3 0x1B3D JUMP JUMPDEST JUMPDEST PUSH1 0x0 PUSH3 0x244B DUP5 DUP3 DUP6 ADD PUSH3 0x240B JUMP JUMPDEST SWAP2 POP POP SWAP3 SWAP2 POP POP JUMP JUMPDEST PUSH32 0x53544E4541523A207472616E7366657246726F6D206661696C65640000000000 PUSH1 0x0 DUP3 ADD MSTORE POP JUMP JUMPDEST PUSH1 0x0 PUSH3 0x248C PUSH1 0x1B DUP4 PUSH3 0x1A80 JUMP JUMPDEST SWAP2 POP PUSH3 0x2499 DUP3 PUSH3 0x2454 JUMP JUMPDEST PUSH1 0x20 DUP3 ADD SWAP1 POP SWAP2 SWAP1 POP JUMP JUMPDEST PUSH1 0x0 PUSH1 0x20 DUP3 ADD SWAP1 POP DUP2 DUP2 SUB PUSH1 0x0 DUP4 ADD MSTORE PUSH3 0x24BF DUP2 PUSH3 0x247D JUMP JUMPDEST SWAP1 POP SWAP2 SWAP1 POP JUMP JUMPDEST PUSH1 0x0 PUSH1 0x40 DUP3 ADD SWAP1 POP PUSH3 0x24DD PUSH1 0x0 DUP4 ADD DUP6 PUSH3 0x2360 JUMP JUMPDEST DUP2 DUP2 SUB PUSH1 0x20 DUP4 ADD MSTORE PUSH3 0x24F1 DUP2 DUP5 PUSH3 0x1ACE JUMP JUMPDEST SWAP1 POP SWAP4 SWAP3 POP POP POP JUMP JUMPDEST PUSH1 0x0 DUP2 MLOAD SWAP1 POP PUSH3 0x250B DUP2 PUSH3 0x1BB6 JUMP JUMPDEST SWAP3 SWAP2 POP POP JUMP JUMPDEST PUSH1 0x0 PUSH1 0x20 DUP3 DUP5 SUB SLT ISZERO PUSH3 0x252A JUMPI PUSH3 0x2529 PUSH3 0x1B3D JUMP JUMPDEST JUMPDEST PUSH1 0x0 PUSH3 0x253A DUP5 DUP3 DUP6 ADD PUSH3 0x24FA JUMP JUMPDEST SWAP2 POP POP SWAP3 SWAP2 POP POP JUMP JUMPDEST PUSH32 0x45524332303A2064656372656173656420616C6C6F77616E63652062656C6F77 PUSH1 0x0 DUP3 ADD MSTORE PUSH32 0x207A65726F000000000000000000000000000000000000000000000000000000 PUSH1 0x20 DUP3 ADD MSTORE POP JUMP JUMPDEST PUSH1 0x0 PUSH3 0x25A1 PUSH1 0x25 DUP4 PUSH3 0x1A80 JUMP JUMPDEST SWAP2 POP PUSH3 0x25AE DUP3 PUSH3 0x2543 JUMP JUMPDEST PUSH1 0x40 DUP3 ADD SWAP1 POP SWAP2 SWAP1 POP JUMP JUMPDEST PUSH1 0x0 PUSH1 0x20 DUP3 ADD SWAP1 POP DUP2 DUP2 SUB PUSH1 0x0 DUP4 ADD MSTORE PUSH3 0x25D4 DUP2 PUSH3 0x2592 JUMP JUMPDEST SWAP1 POP SWAP2 SWAP1 POP JUMP JUMPDEST PUSH1 0x0 DUP2 MLOAD SWAP1 POP PUSH3 0x25EC DUP2 PUSH3 0x1B7B JUMP JUMPDEST SWAP3 SWAP2 POP POP JUMP JUMPDEST PUSH1 0x0 PUSH1 0x20 DUP3 DUP5 SUB SLT ISZERO PUSH3 0x260B JUMPI PUSH3 0x260A PUSH3 0x1B3D JUMP JUMPDEST JUMPDEST PUSH1 0x0 PUSH3 0x261B DUP5 DUP3 DUP6 ADD PUSH3 0x25DB JUMP JUMPDEST SWAP2 POP POP SWAP3 SWAP2 POP POP JUMP JUMPDEST PUSH32 0x596F7520617265206E6F7420746865206F776E65720000000000000000000000 PUSH1 0x0 DUP3 ADD MSTORE POP JUMP JUMPDEST PUSH1 0x0 PUSH3 0x265C PUSH1 0x15 DUP4 PUSH3 0x1A80 JUMP JUMPDEST SWAP2 POP PUSH3 0x2669 DUP3 PUSH3 0x2624 JUMP JUMPDEST PUSH1 0x20 DUP3 ADD SWAP1 POP SWAP2 SWAP1 POP JUMP JUMPDEST PUSH1 0x0 PUSH1 0x20 DUP3 ADD SWAP1 POP DUP2 DUP2 SUB PUSH1 0x0 DUP4 ADD MSTORE PUSH3 0x268F DUP2 PUSH3 0x264D JUMP JUMPDEST SWAP1 POP SWAP2 SWAP1 POP JUMP JUMPDEST PUSH1 0x0 PUSH3 0x26A3 DUP3 PUSH3 0x1BAC JUMP JUMPDEST SWAP2 POP PUSH3 0x26B0 DUP4 PUSH3 0x1BAC JUMP JUMPDEST SWAP3 POP DUP3 DUP3 SUB SWAP1 POP DUP2 DUP2 GT ISZERO PUSH3 0x26CB JUMPI PUSH3 0x26CA PUSH3 0x22F6 JUMP JUMPDEST JUMPDEST SWAP3 SWAP2 POP POP JUMP JUMPDEST PUSH32 0x5761746572204669727374000000000000000000000000000000000000000000 PUSH1 0x0 DUP3 ADD MSTORE POP JUMP JUMPDEST PUSH1 0x0 PUSH3 0x2709 PUSH1 0xB DUP4 PUSH3 0x1A80 JUMP JUMPDEST SWAP2 POP PUSH3 0x2716 DUP3 PUSH3 0x26D1 JUMP JUMPDEST PUSH1 0x20 DUP3 ADD SWAP1 POP SWAP2 SWAP1 POP JUMP JUMPDEST PUSH1 0x0 PUSH1 0x20 DUP3 ADD SWAP1 POP DUP2 DUP2 SUB PUSH1 0x0 DUP4 ADD MSTORE PUSH3 0x273C DUP2 PUSH3 0x26FA JUMP JUMPDEST SWAP1 POP SWAP2 SWAP1 POP JUMP JUMPDEST PUSH32 0x43616E277420436C61696D000000000000000000000000000000000000000000 PUSH1 0x0 DUP3 ADD MSTORE POP JUMP JUMPDEST PUSH1 0x0 PUSH3 0x277B PUSH1 0xB DUP4 PUSH3 0x1A80 JUMP JUMPDEST SWAP2 POP PUSH3 0x2788 DUP3 PUSH3 0x2743 JUMP JUMPDEST PUSH1 0x20 DUP3 ADD SWAP1 POP SWAP2 SWAP1 POP JUMP JUMPDEST PUSH1 0x0 PUSH1 0x20 DUP3 ADD SWAP1 POP DUP2 DUP2 SUB PUSH1 0x0 DUP4 ADD MSTORE PUSH3 0x27AE DUP2 PUSH3 0x276C JUMP JUMPDEST SWAP1 POP SWAP2 SWAP1 POP JUMP JUMPDEST PUSH1 0x0 DUP2 SWAP1 POP SWAP2 SWAP1 POP JUMP JUMPDEST PUSH1 0x0 PUSH3 0x27E0 PUSH3 0x27DA PUSH3 0x27D4 DUP5 PUSH3 0x27B5 JUMP JUMPDEST PUSH3 0x2116 JUMP JUMPDEST PUSH3 0x1BAC JUMP JUMPDEST SWAP1 POP SWAP2 SWAP1 POP JUMP JUMPDEST PUSH3 0x27F2 DUP2 PUSH3 0x27BF JUMP JUMPDEST DUP3 MSTORE POP POP JUMP JUMPDEST PUSH1 0x0 PUSH1 0x60 DUP3 ADD SWAP1 POP PUSH3 0x280F PUSH1 0x0 DUP4 ADD DUP7 PUSH3 0x2360 JUMP JUMPDEST PUSH3 0x281E PUSH1 0x20 DUP4 ADD DUP6 PUSH3 0x2360 JUMP JUMPDEST PUSH3 0x282D PUSH1 0x40 DUP4 ADD DUP5 PUSH3 0x27E7 JUMP JUMPDEST SWAP5 SWAP4 POP POP POP POP JUMP JUMPDEST PUSH32 0x45524332303A20617070726F76652066726F6D20746865207A65726F20616464 PUSH1 0x0 DUP3 ADD MSTORE PUSH32 0x7265737300000000000000000000000000000000000000000000000000000000 PUSH1 0x20 DUP3 ADD MSTORE POP JUMP JUMPDEST PUSH1 0x0 PUSH3 0x2893 PUSH1 0x24 DUP4 PUSH3 0x1A80 JUMP JUMPDEST SWAP2 POP PUSH3 0x28A0 DUP3 PUSH3 0x2835 JUMP JUMPDEST PUSH1 0x40 DUP3 ADD SWAP1 POP SWAP2 SWAP1 POP JUMP JUMPDEST PUSH1 0x0 PUSH1 0x20 DUP3 ADD SWAP1 POP DUP2 DUP2 SUB PUSH1 0x0 DUP4 ADD MSTORE PUSH3 0x28C6 DUP2 PUSH3 0x2884 JUMP JUMPDEST SWAP1 POP SWAP2 SWAP1 POP JUMP JUMPDEST PUSH32 0x45524332303A20617070726F766520746F20746865207A65726F206164647265 PUSH1 0x0 DUP3 ADD MSTORE PUSH32 0x7373000000000000000000000000000000000000000000000000000000000000 PUSH1 0x20 DUP3 ADD MSTORE POP JUMP JUMPDEST PUSH1 0x0 PUSH3 0x292B PUSH1 0x22 DUP4 PUSH3 0x1A80 JUMP JUMPDEST SWAP2 POP PUSH3 0x2938 DUP3 PUSH3 0x28CD JUMP JUMPDEST PUSH1 0x40 DUP3 ADD SWAP1 POP SWAP2 SWAP1 POP JUMP JUMPDEST PUSH1 0x0 PUSH1 0x20 DUP3 ADD SWAP1 POP DUP2 DUP2 SUB PUSH1 0x0 DUP4 ADD MSTORE PUSH3 0x295E DUP2 PUSH3 0x291C JUMP JUMPDEST SWAP1 POP SWAP2 SWAP1 POP JUMP JUMPDEST PUSH32 0x45524332303A20696E73756666696369656E7420616C6C6F77616E6365000000 PUSH1 0x0 DUP3 ADD MSTORE POP JUMP JUMPDEST PUSH1 0x0 PUSH3 0x299D PUSH1 0x1D DUP4 PUSH3 0x1A80 JUMP JUMPDEST SWAP2 POP PUSH3 0x29AA DUP3 PUSH3 0x2965 JUMP JUMPDEST PUSH1 0x20 DUP3 ADD SWAP1 POP SWAP2 SWAP1 POP JUMP JUMPDEST PUSH1 0x0 PUSH1 0x20 DUP3 ADD SWAP1 POP DUP2 DUP2 SUB PUSH1 0x0 DUP4 ADD MSTORE PUSH3 0x29D0 DUP2 PUSH3 0x298E JUMP JUMPDEST SWAP1 POP SWAP2 SWAP1 POP JUMP JUMPDEST PUSH32 0x45524332303A207472616E736665722066726F6D20746865207A65726F206164 PUSH1 0x0 DUP3 ADD MSTORE PUSH32 0x6472657373000000000000000000000000000000000000000000000000000000 PUSH1 0x20 DUP3 ADD MSTORE POP JUMP JUMPDEST PUSH1 0x0 PUSH3 0x2A35 PUSH1 0x25 DUP4 PUSH3 0x1A80 JUMP JUMPDEST SWAP2 POP PUSH3 0x2A42 DUP3 PUSH3 0x29D7 JUMP JUMPDEST PUSH1 0x40 DUP3 ADD SWAP1 POP SWAP2 SWAP1 POP JUMP JUMPDEST PUSH1 0x0 PUSH1 0x20 DUP3 ADD SWAP1 POP DUP2 DUP2 SUB PUSH1 0x0 DUP4 ADD MSTORE PUSH3 0x2A68 DUP2 PUSH3 0x2A26 JUMP JUMPDEST SWAP1 POP SWAP2 SWAP1 POP JUMP JUMPDEST PUSH32 0x45524332303A207472616E7366657220746F20746865207A65726F2061646472 PUSH1 0x0 DUP3 ADD MSTORE PUSH32 0x6573730000000000000000000000000000000000000000000000000000000000 PUSH1 0x20 DUP3 ADD MSTORE POP JUMP JUMPDEST PUSH1 0x0 PUSH3 0x2ACD PUSH1 0x23 DUP4 PUSH3 0x1A80 JUMP JUMPDEST SWAP2 POP PUSH3 0x2ADA DUP3 PUSH3 0x2A6F JUMP JUMPDEST PUSH1 0x40 DUP3 ADD SWAP1 POP SWAP2 SWAP1 POP JUMP JUMPDEST PUSH1 0x0 PUSH1 0x20 DUP3 ADD SWAP1 POP DUP2 DUP2 SUB PUSH1 0x0 DUP4 ADD MSTORE PUSH3 0x2B00 DUP2 PUSH3 0x2ABE JUMP JUMPDEST SWAP1 POP SWAP2 SWAP1 POP JUMP JUMPDEST PUSH32 0x45524332303A207472616E7366657220616D6F756E7420657863656564732062 PUSH1 0x0 DUP3 ADD MSTORE PUSH32 0x616C616E63650000000000000000000000000000000000000000000000000000 PUSH1 0x20 DUP3 ADD MSTORE POP JUMP JUMPDEST PUSH1 0x0 PUSH3 0x2B65 PUSH1 0x26 DUP4 PUSH3 0x1A80 JUMP JUMPDEST SWAP2 POP PUSH3 0x2B72 DUP3 PUSH3 0x2B07 JUMP JUMPDEST PUSH1 0x40 DUP3 ADD SWAP1 POP SWAP2 SWAP1 POP JUMP JUMPDEST PUSH1 0x0 PUSH1 0x20 DUP3 ADD SWAP1 POP DUP2 DUP2 SUB PUSH1 0x0 DUP4 ADD MSTORE PUSH3 0x2B98 DUP2 PUSH3 0x2B56 JUMP JUMPDEST SWAP1 POP SWAP2 SWAP1 POP JUMP JUMPDEST PUSH32 0x45524332303A206D696E7420746F20746865207A65726F206164647265737300 PUSH1 0x0 DUP3 ADD MSTORE POP JUMP JUMPDEST PUSH1 0x0 PUSH3 0x2BD7 PUSH1 0x1F DUP4 PUSH3 0x1A80 JUMP JUMPDEST SWAP2 POP PUSH3 0x2BE4 DUP3 PUSH3 0x2B9F JUMP JUMPDEST PUSH1 0x20 DUP3 ADD SWAP1 POP SWAP2 SWAP1 POP JUMP JUMPDEST PUSH1 0x0 PUSH1 0x20 DUP3 ADD SWAP1 POP DUP2 DUP2 SUB PUSH1 0x0 DUP4 ADD MSTORE PUSH3 0x2C0A DUP2 PUSH3 0x2BC8 JUMP JUMPDEST SWAP1 POP SWAP2 SWAP1 POP JUMP INVALID PUSH1 0xA0 PUSH1 0x40 MSTORE CALLVALUE DUP1 ISZERO PUSH3 0x11 JUMPI PUSH1 0x0 DUP1 REVERT JUMPDEST POP PUSH1 0x40 MLOAD PUSH3 0x3368 CODESIZE SUB DUP1 PUSH3 0x3368 DUP4 CODECOPY DUP2 DUP2 ADD PUSH1 0x40 MSTORE DUP2 ADD SWAP1 PUSH3 0x37 SWAP2 SWAP1 PUSH3 0x22E JUMP JUMPDEST DUP2 DUP2 DUP2 PUSH1 0x0 SWAP1 DUP2 PUSH3 0x4A SWAP2 SWAP1 PUSH3 0x4FE JUMP JUMPDEST POP DUP1 PUSH1 0x1 SWAP1 DUP2 PUSH3 0x5C SWAP2 SWAP1 PUSH3 0x4FE JUMP JUMPDEST POP POP POP CALLER PUSH20 0xFFFFFFFFFFFFFFFFFFFFFFFFFFFFFFFFFFFFFFFF AND PUSH1 0x80 DUP2 PUSH20 0xFFFFFFFFFFFFFFFFFFFFFFFFFFFFFFFFFFFFFFFF AND DUP2 MSTORE POP POP POP POP PUSH3 0x5E5 JUMP JUMPDEST PUSH1 0x0 PUSH1 0x40 MLOAD SWAP1 POP SWAP1 JUMP JUMPDEST PUSH1 0x0 DUP1 REVERT JUMPDEST PUSH1 0x0 DUP1 REVERT JUMPDEST PUSH1 0x0 DUP1 REVERT JUMPDEST PUSH1 0x0 DUP1 REVERT JUMPDEST PUSH1 0x0 PUSH1 0x1F NOT PUSH1 0x1F DUP4 ADD AND SWAP1 POP SWAP2 SWAP1 POP JUMP JUMPDEST PUSH32 0x4E487B7100000000000000000000000000000000000000000000000000000000 PUSH1 0x0 MSTORE PUSH1 0x41 PUSH1 0x4 MSTORE PUSH1 0x24 PUSH1 0x0 REVERT JUMPDEST PUSH3 0x104 DUP3 PUSH3 0xB9 JUMP JUMPDEST DUP2 ADD DUP2 DUP2 LT PUSH8 0xFFFFFFFFFFFFFFFF DUP3 GT OR ISZERO PUSH3 0x126 JUMPI PUSH3 0x125 PUSH3 0xCA JUMP JUMPDEST JUMPDEST DUP1 PUSH1 0x40 MSTORE POP POP POP JUMP JUMPDEST PUSH1 0x0 PUSH3 0x13B PUSH3 0x9B JUMP JUMPDEST SWAP1 POP PUSH3 0x149 DUP3 DUP3 PUSH3 0xF9 JUMP JUMPDEST SWAP2 SWAP1 POP JUMP JUMPDEST PUSH1 0x0 PUSH8 0xFFFFFFFFFFFFFFFF DUP3 GT ISZERO PUSH3 0x16C JUMPI PUSH3 0x16B PUSH3 0xCA JUMP JUMPDEST JUMPDEST PUSH3 0x177 DUP3 PUSH3 0xB9 JUMP JUMPDEST SWAP1 POP PUSH1 0x20 DUP2 ADD SWAP1 POP SWAP2 SWAP1 POP JUMP JUMPDEST PUSH1 0x0 JUMPDEST DUP4 DUP2 LT ISZERO PUSH3 0x1A4 JUMPI DUP1 DUP3 ADD MLOAD DUP2 DUP5 ADD MSTORE PUSH1 0x20 DUP2 ADD SWAP1 POP PUSH3 0x187 JUMP JUMPDEST PUSH1 0x0 DUP5 DUP5 ADD MSTORE POP POP POP POP JUMP JUMPDEST PUSH1 0x0 PUSH3 0x1C7 PUSH3 0x1C1 DUP5 PUSH3 0x14E JUMP JUMPDEST PUSH3 0x12F JUMP JUMPDEST SWAP1 POP DUP3 DUP2 MSTORE PUSH1 0x20 DUP2 ADD DUP5 DUP5 DUP5 ADD GT ISZERO PUSH3 0x1E6 JUMPI PUSH3 0x1E5 PUSH3 0xB4 JUMP JUMPDEST JUMPDEST PUSH3 0x1F3 DUP5 DUP3 DUP6 PUSH3 0x184 JUMP JUMPDEST POP SWAP4 SWAP3 POP POP POP JUMP JUMPDEST PUSH1 0x0 DUP3 PUSH1 0x1F DUP4 ADD SLT PUSH3 0x213 JUMPI PUSH3 0x212 PUSH3 0xAF JUMP JUMPDEST JUMPDEST DUP2 MLOAD PUSH3 0x225 DUP5 DUP3 PUSH1 0x20 DUP7 ADD PUSH3 0x1B0 JUMP JUMPDEST SWAP2 POP POP SWAP3 SWAP2 POP POP JUMP JUMPDEST PUSH1 0x0 DUP1 PUSH1 0x40 DUP4 DUP6 SUB SLT ISZERO PUSH3 0x248 JUMPI PUSH3 0x247 PUSH3 0xA5 JUMP JUMPDEST JUMPDEST PUSH1 0x0 DUP4 ADD MLOAD PUSH8 0xFFFFFFFFFFFFFFFF DUP2 GT ISZERO PUSH3 0x269 JUMPI PUSH3 0x268 PUSH3 0xAA JUMP JUMPDEST JUMPDEST PUSH3 0x277 DUP6 DUP3 DUP7 ADD PUSH3 0x1FB JUMP JUMPDEST SWAP3 POP POP PUSH1 0x20 DUP4 ADD MLOAD PUSH8 0xFFFFFFFFFFFFFFFF DUP2 GT ISZERO PUSH3 0x29B JUMPI PUSH3 0x29A PUSH3 0xAA JUMP JUMPDEST JUMPDEST PUSH3 0x2A9 DUP6 DUP3 DUP7 ADD PUSH3 0x1FB JUMP JUMPDEST SWAP2 POP POP SWAP3 POP SWAP3 SWAP1 POP JUMP JUMPDEST PUSH1 0x0 DUP2 MLOAD SWAP1 POP SWAP2 SWAP1 POP JUMP JUMPDEST PUSH32 0x4E487B7100000000000000000000000000000000000000000000000000000000 PUSH1 0x0 MSTORE PUSH1 0x22 PUSH1 0x4 MSTORE PUSH1 0x24 PUSH1 0x0 REVERT JUMPDEST PUSH1 0x0 PUSH1 0x2 DUP3 DIV SWAP1 POP PUSH1 0x1 DUP3 AND DUP1 PUSH3 0x306 JUMPI PUSH1 0x7F DUP3 AND SWAP2 POP JUMPDEST PUSH1 0x20 DUP3 LT DUP2 SUB PUSH3 0x31C JUMPI PUSH3 0x31B PUSH3 0x2BE JUMP JUMPDEST JUMPDEST POP SWAP2 SWAP1 POP JUMP JUMPDEST PUSH1 0x0 DUP2 SWAP1 POP DUP2 PUSH1 0x0 MSTORE PUSH1 0x20 PUSH1 0x0 KECCAK256 SWAP1 POP SWAP2 SWAP1 POP JUMP JUMPDEST PUSH1 0x0 PUSH1 0x20 PUSH1 0x1F DUP4 ADD DIV SWAP1 POP SWAP2 SWAP1 POP JUMP JUMPDEST PUSH1 0x0 DUP3 DUP3 SHL SWAP1 POP SWAP3 SWAP2 POP POP JUMP JUMPDEST PUSH1 0x0 PUSH1 0x8 DUP4 MUL PUSH3 0x386 PUSH32 0xFFFFFFFFFFFFFFFFFFFFFFFFFFFFFFFFFFFFFFFFFFFFFFFFFFFFFFFFFFFFFFFF DUP3 PUSH3 0x347 JUMP JUMPDEST PUSH3 0x392 DUP7 DUP4 PUSH3 0x347 JUMP JUMPDEST SWAP6 POP DUP1 NOT DUP5 AND SWAP4 POP DUP1 DUP7 AND DUP5 OR SWAP3 POP POP POP SWAP4 SWAP3 POP POP POP JUMP JUMPDEST PUSH1 0x0 DUP2 SWAP1 POP SWAP2 SWAP1 POP JUMP JUMPDEST PUSH1 0x0 DUP2 SWAP1 POP SWAP2 SWAP1 POP JUMP JUMPDEST PUSH1 0x0 PUSH3 0x3DF PUSH3 0x3D9 PUSH3 0x3D3 DUP5 PUSH3 0x3AA JUMP JUMPDEST PUSH3 0x3B4 JUMP JUMPDEST PUSH3 0x3AA JUMP JUMPDEST SWAP1 POP SWAP2 SWAP1 POP JUMP JUMPDEST PUSH1 0x0 DUP2 SWAP1 POP SWAP2 SWAP1 POP JUMP JUMPDEST PUSH3 0x3FB DUP4 PUSH3 0x3BE JUMP JUMPDEST PUSH3 0x413 PUSH3 0x40A DUP3 PUSH3 0x3E6 JUMP JUMPDEST DUP5 DUP5 SLOAD PUSH3 0x354 JUMP JUMPDEST DUP3 SSTORE POP POP POP POP JUMP JUMPDEST PUSH1 0x0 SWAP1 JUMP JUMPDEST PUSH3 0x42A PUSH3 0x41B JUMP JUMPDEST PUSH3 0x437 DUP2 DUP5 DUP5 PUSH3 0x3F0 JUMP JUMPDEST POP POP POP JUMP JUMPDEST JUMPDEST DUP2 DUP2 LT ISZERO PUSH3 0x45F JUMPI PUSH3 0x453 PUSH1 0x0 DUP3 PUSH3 0x420 JUMP JUMPDEST PUSH1 0x1 DUP2 ADD SWAP1 POP PUSH3 0x43D JUMP JUMPDEST POP POP JUMP JUMPDEST PUSH1 0x1F DUP3 GT ISZERO PUSH3 0x4AE JUMPI PUSH3 0x478 DUP2 PUSH3 0x322 JUMP JUMPDEST PUSH3 0x483 DUP5 PUSH3 0x337 JUMP JUMPDEST DUP2 ADD PUSH1 0x20 DUP6 LT ISZERO PUSH3 0x493 JUMPI DUP2 SWAP1 POP JUMPDEST PUSH3 0x4AB PUSH3 0x4A2 DUP6 PUSH3 0x337 JUMP JUMPDEST DUP4 ADD DUP3 PUSH3 0x43C JUMP JUMPDEST POP POP JUMPDEST POP POP POP JUMP JUMPDEST PUSH1 0x0 DUP3 DUP3 SHR SWAP1 POP SWAP3 SWAP2 POP POP JUMP JUMPDEST PUSH1 0x0 PUSH3 0x4D3 PUSH1 0x0 NOT DUP5 PUSH1 0x8 MUL PUSH3 0x4B3 JUMP JUMPDEST NOT DUP1 DUP4 AND SWAP2 POP POP SWAP3 SWAP2 POP POP JUMP JUMPDEST PUSH1 0x0 PUSH3 0x4EE DUP4 DUP4 PUSH3 0x4C0 JUMP JUMPDEST SWAP2 POP DUP3 PUSH1 0x2 MUL DUP3 OR SWAP1 POP SWAP3 SWAP2 POP POP JUMP JUMPDEST PUSH3 0x509 DUP3 PUSH3 0x2B3 JUMP JUMPDEST PUSH8 0xFFFFFFFFFFFFFFFF DUP2 GT ISZERO PUSH3 0x525 JUMPI PUSH3 0x524 PUSH3 0xCA JUMP JUMPDEST JUMPDEST PUSH3 0x531 DUP3 SLOAD PUSH3 0x2ED JUMP JUMPDEST PUSH3 0x53E DUP3 DUP3 DUP6 PUSH3 0x463 JUMP JUMPDEST PUSH1 0x0 PUSH1 0x20 SWAP1 POP PUSH1 0x1F DUP4 GT PUSH1 0x1 DUP2 EQ PUSH3 0x576 JUMPI PUSH1 0x0 DUP5 ISZERO PUSH3 0x561 JUMPI DUP3 DUP8 ADD MLOAD SWAP1 POP JUMPDEST PUSH3 0x56D DUP6 DUP3 PUSH3 0x4E0 JUMP JUMPDEST DUP7 SSTORE POP PUSH3 0x5DD JUMP JUMPDEST PUSH1 0x1F NOT DUP5 AND PUSH3 0x586 DUP7 PUSH3 0x322 JUMP JUMPDEST PUSH1 0x0 JUMPDEST DUP3 DUP2 LT ISZERO PUSH3 0x5B0 JUMPI DUP5 DUP10 ADD MLOAD DUP3 SSTORE PUSH1 0x1 DUP3 ADD SWAP2 POP PUSH1 0x20 DUP6 ADD SWAP5 POP PUSH1 0x20 DUP2 ADD SWAP1 POP PUSH3 0x589 JUMP JUMPDEST DUP7 DUP4 LT ISZERO PUSH3 0x5D0 JUMPI DUP5 DUP10 ADD MLOAD PUSH3 0x5CC PUSH1 0x1F DUP10 AND DUP3 PUSH3 0x4C0 JUMP JUMPDEST DUP4 SSTORE POP JUMPDEST PUSH1 0x1 PUSH1 0x2 DUP9 MUL ADD DUP9 SSTORE POP POP POP JUMPDEST POP POP POP POP POP POP JUMP JUMPDEST PUSH1 0x80 MLOAD PUSH2 0x2D67 PUSH3 0x601 PUSH1 0x0 CODECOPY PUSH1 0x0 PUSH2 0x804 ADD MSTORE PUSH2 0x2D67 PUSH1 0x0 RETURN INVALID PUSH1 0x80 PUSH1 0x40 MSTORE CALLVALUE DUP1 ISZERO PUSH2 0x10 JUMPI PUSH1 0x0 DUP1 REVERT JUMPDEST POP PUSH1 0x4 CALLDATASIZE LT PUSH2 0xF5 JUMPI PUSH1 0x0 CALLDATALOAD PUSH1 0xE0 SHR DUP1 PUSH4 0x70A08231 GT PUSH2 0x97 JUMPI DUP1 PUSH4 0xB88D4FDE GT PUSH2 0x66 JUMPI DUP1 PUSH4 0xB88D4FDE EQ PUSH2 0x284 JUMPI DUP1 PUSH4 0xC87B56DD EQ PUSH2 0x2A0 JUMPI DUP1 PUSH4 0xD204C45E EQ PUSH2 0x2D0 JUMPI DUP1 PUSH4 0xE985E9C5 EQ PUSH2 0x2EC JUMPI PUSH2 0xF5 JUMP JUMPDEST DUP1 PUSH4 0x70A08231 EQ PUSH2 0x1FC JUMPI DUP1 PUSH4 0x95D89B41 EQ PUSH2 0x22C JUMPI DUP1 PUSH4 0x98BDF6F5 EQ PUSH2 0x24A JUMPI DUP1 PUSH4 0xA22CB465 EQ PUSH2 0x268 JUMPI PUSH2 0xF5 JUMP JUMPDEST DUP1 PUSH4 0x95EA7B3 GT PUSH2 0xD3 JUMPI DUP1 PUSH4 0x95EA7B3 EQ PUSH2 0x178 JUMPI DUP1 PUSH4 0x23B872DD EQ PUSH2 0x194 JUMPI DUP1 PUSH4 0x42842E0E EQ PUSH2 0x1B0 JUMPI DUP1 PUSH4 0x6352211E EQ PUSH2 0x1CC JUMPI PUSH2 0xF5 JUMP JUMPDEST DUP1 PUSH4 0x1FFC9A7 EQ PUSH2 0xFA JUMPI DUP1 PUSH4 0x6FDDE03 EQ PUSH2 0x12A JUMPI DUP1 PUSH4 0x81812FC EQ PUSH2 0x148 JUMPI JUMPDEST PUSH1 0x0 DUP1 REVERT JUMPDEST PUSH2 0x114 PUSH1 0x4 DUP1 CALLDATASIZE SUB DUP2 ADD SWAP1 PUSH2 0x10F SWAP2 SWAP1 PUSH2 0x1B58 JUMP JUMPDEST PUSH2 0x31C JUMP JUMPDEST PUSH1 0x40 MLOAD PUSH2 0x121 SWAP2 SWAP1 PUSH2 0x1BA0 JUMP JUMPDEST PUSH1 0x40 MLOAD DUP1 SWAP2 SUB SWAP1 RETURN JUMPDEST PUSH2 0x132 PUSH2 0x32E JUMP JUMPDEST PUSH1 0x40 MLOAD PUSH2 0x13F SWAP2 SWAP1 PUSH2 0x1C4B JUMP JUMPDEST PUSH1 0x40 MLOAD DUP1 SWAP2 SUB SWAP1 RETURN JUMPDEST PUSH2 0x162 PUSH1 0x4 DUP1 CALLDATASIZE SUB DUP2 ADD SWAP1 PUSH2 0x15D SWAP2 SWAP1 PUSH2 0x1CA3 JUMP JUMPDEST PUSH2 0x3C0 JUMP JUMPDEST PUSH1 0x40 MLOAD PUSH2 0x16F SWAP2 SWAP1 PUSH2 0x1D11 JUMP JUMPDEST PUSH1 0x40 MLOAD DUP1 SWAP2 SUB SWAP1 RETURN JUMPDEST PUSH2 0x192 PUSH1 0x4 DUP1 CALLDATASIZE SUB DUP2 ADD SWAP1 PUSH2 0x18D SWAP2 SWAP1 PUSH2 0x1D58 JUMP JUMPDEST PUSH2 0x406 JUMP JUMPDEST STOP JUMPDEST PUSH2 0x1AE PUSH1 0x4 DUP1 CALLDATASIZE SUB DUP2 ADD SWAP1 PUSH2 0x1A9 SWAP2 SWAP1 PUSH2 0x1D98 JUMP JUMPDEST PUSH2 0x51D JUMP JUMPDEST STOP JUMPDEST PUSH2 0x1CA PUSH1 0x4 DUP1 CALLDATASIZE SUB DUP2 ADD SWAP1 PUSH2 0x1C5 SWAP2 SWAP1 PUSH2 0x1D98 JUMP JUMPDEST PUSH2 0x57D JUMP JUMPDEST STOP JUMPDEST PUSH2 0x1E6 PUSH1 0x4 DUP1 CALLDATASIZE SUB DUP2 ADD SWAP1 PUSH2 0x1E1 SWAP2 SWAP1 PUSH2 0x1CA3 JUMP JUMPDEST PUSH2 0x59D JUMP JUMPDEST PUSH1 0x40 MLOAD PUSH2 0x1F3 SWAP2 SWAP1 PUSH2 0x1D11 JUMP JUMPDEST PUSH1 0x40 MLOAD DUP1 SWAP2 SUB SWAP1 RETURN JUMPDEST PUSH2 0x216 PUSH1 0x4 DUP1 CALLDATASIZE SUB DUP2 ADD SWAP1 PUSH2 0x211 SWAP2 SWAP1 PUSH2 0x1DEB JUMP JUMPDEST PUSH2 0x623 JUMP JUMPDEST PUSH1 0x40 MLOAD PUSH2 0x223 SWAP2 SWAP1 PUSH2 0x1E27 JUMP JUMPDEST PUSH1 0x40 MLOAD DUP1 SWAP2 SUB SWAP1 RETURN JUMPDEST PUSH2 0x234 PUSH2 0x6DA JUMP JUMPDEST PUSH1 0x40 MLOAD PUSH2 0x241 SWAP2 SWAP1 PUSH2 0x1C4B JUMP JUMPDEST PUSH1 0x40 MLOAD DUP1 SWAP2 SUB SWAP1 RETURN JUMPDEST PUSH2 0x252 PUSH2 0x76C JUMP JUMPDEST PUSH1 0x40 MLOAD PUSH2 0x25F SWAP2 SWAP1 PUSH2 0x1E27 JUMP JUMPDEST PUSH1 0x40 MLOAD DUP1 SWAP2 SUB SWAP1 RETURN JUMPDEST PUSH2 0x282 PUSH1 0x4 DUP1 CALLDATASIZE SUB DUP2 ADD SWAP1 PUSH2 0x27D SWAP2 SWAP1 PUSH2 0x1E6E JUMP JUMPDEST PUSH2 0x778 JUMP JUMPDEST STOP JUMPDEST PUSH2 0x29E PUSH1 0x4 DUP1 CALLDATASIZE SUB DUP2 ADD SWAP1 PUSH2 0x299 SWAP2 SWAP1 PUSH2 0x1FE3 JUMP JUMPDEST PUSH2 0x78E JUMP JUMPDEST STOP JUMPDEST PUSH2 0x2BA PUSH1 0x4 DUP1 CALLDATASIZE SUB DUP2 ADD SWAP1 PUSH2 0x2B5 SWAP2 SWAP1 PUSH2 0x1CA3 JUMP JUMPDEST PUSH2 0x7F0 JUMP JUMPDEST PUSH1 0x40 MLOAD PUSH2 0x2C7 SWAP2 SWAP1 PUSH2 0x1C4B JUMP JUMPDEST PUSH1 0x40 MLOAD DUP1 SWAP2 SUB SWAP1 RETURN JUMPDEST PUSH2 0x2EA PUSH1 0x4 DUP1 CALLDATASIZE SUB DUP2 ADD SWAP1 PUSH2 0x2E5 SWAP2 SWAP1 PUSH2 0x2107 JUMP JUMPDEST PUSH2 0x802 JUMP JUMPDEST STOP JUMPDEST PUSH2 0x306 PUSH1 0x4 DUP1 CALLDATASIZE SUB DUP2 ADD SWAP1 PUSH2 0x301 SWAP2 SWAP1 PUSH2 0x2163 JUMP JUMPDEST PUSH2 0x905 JUMP JUMPDEST PUSH1 0x40 MLOAD PUSH2 0x313 SWAP2 SWAP1 PUSH2 0x1BA0 JUMP JUMPDEST PUSH1 0x40 MLOAD DUP1 SWAP2 SUB SWAP1 RETURN JUMPDEST PUSH1 0x0 PUSH2 0x327 DUP3 PUSH2 0x999 JUMP JUMPDEST SWAP1 POP SWAP2 SWAP1 POP JUMP JUMPDEST PUSH1 0x60 PUSH1 0x0 DUP1 SLOAD PUSH2 0x33D SWAP1 PUSH2 0x21D2 JUMP JUMPDEST DUP1 PUSH1 0x1F ADD PUSH1 0x20 DUP1 SWAP2 DIV MUL PUSH1 0x20 ADD PUSH1 0x40 MLOAD SWAP1 DUP2 ADD PUSH1 0x40 MSTORE DUP1 SWAP3 SWAP2 SWAP1 DUP2 DUP2 MSTORE PUSH1 0x20 ADD DUP3 DUP1 SLOAD PUSH2 0x369 SWAP1 PUSH2 0x21D2 JUMP JUMPDEST DUP1 ISZERO PUSH2 0x3B6 JUMPI DUP1 PUSH1 0x1F LT PUSH2 0x38B JUMPI PUSH2 0x100 DUP1 DUP4 SLOAD DIV MUL DUP4 MSTORE SWAP2 PUSH1 0x20 ADD SWAP2 PUSH2 0x3B6 JUMP JUMPDEST DUP3 ADD SWAP2 SWAP1 PUSH1 0x0 MSTORE PUSH1 0x20 PUSH1 0x0 KECCAK256 SWAP1 JUMPDEST DUP2 SLOAD DUP2 MSTORE SWAP1 PUSH1 0x1 ADD SWAP1 PUSH1 0x20 ADD DUP1 DUP4 GT PUSH2 0x399 JUMPI DUP3 SWAP1 SUB PUSH1 0x1F AND DUP3 ADD SWAP2 JUMPDEST POP POP POP POP POP SWAP1 POP SWAP1 JUMP JUMPDEST PUSH1 0x0 PUSH2 0x3CB DUP3 PUSH2 0x9FA JUMP JUMPDEST PUSH1 0x4 PUSH1 0x0 DUP4 DUP2 MSTORE PUSH1 0x20 ADD SWAP1 DUP2 MSTORE PUSH1 0x20 ADD PUSH1 0x0 KECCAK256 PUSH1 0x0 SWAP1 SLOAD SWAP1 PUSH2 0x100 EXP SWAP1 DIV PUSH20 0xFFFFFFFFFFFFFFFFFFFFFFFFFFFFFFFFFFFFFFFF AND SWAP1 POP SWAP2 SWAP1 POP JUMP JUMPDEST PUSH1 0x0 PUSH2 0x411 DUP3 PUSH2 0x59D JUMP JUMPDEST SWAP1 POP DUP1 PUSH20 0xFFFFFFFFFFFFFFFFFFFFFFFFFFFFFFFFFFFFFFFF AND DUP4 PUSH20 0xFFFFFFFFFFFFFFFFFFFFFFFFFFFFFFFFFFFFFFFF AND SUB PUSH2 0x481 JUMPI PUSH1 0x40 MLOAD PUSH32 0x8C379A000000000000000000000000000000000000000000000000000000000 DUP2 MSTORE PUSH1 0x4 ADD PUSH2 0x478 SWAP1 PUSH2 0x2275 JUMP JUMPDEST PUSH1 0x40 MLOAD DUP1 SWAP2 SUB SWAP1 REVERT JUMPDEST DUP1 PUSH20 0xFFFFFFFFFFFFFFFFFFFFFFFFFFFFFFFFFFFFFFFF AND PUSH2 0x4A0 PUSH2 0xA45 JUMP JUMPDEST PUSH20 0xFFFFFFFFFFFFFFFFFFFFFFFFFFFFFFFFFFFFFFFF AND EQ DUP1 PUSH2 0x4CF JUMPI POP PUSH2 0x4CE DUP2 PUSH2 0x4C9 PUSH2 0xA45 JUMP JUMPDEST PUSH2 0x905 JUMP JUMPDEST JUMPDEST PUSH2 0x50E JUMPI PUSH1 0x40 MLOAD PUSH32 0x8C379A000000000000000000000000000000000000000000000000000000000 DUP2 MSTORE PUSH1 0x4 ADD PUSH2 0x505 SWAP1 PUSH2 0x2307 JUMP JUMPDEST PUSH1 0x40 MLOAD DUP1 SWAP2 SUB SWAP1 REVERT JUMPDEST PUSH2 0x518 DUP4 DUP4 PUSH2 0xA4D JUMP JUMPDEST POP POP POP JUMP JUMPDEST PUSH2 0x52E PUSH2 0x528 PUSH2 0xA45 JUMP JUMPDEST DUP3 PUSH2 0xB06 JUMP JUMPDEST PUSH2 0x56D JUMPI PUSH1 0x40 MLOAD PUSH32 0x8C379A000000000000000000000000000000000000000000000000000000000 DUP2 MSTORE PUSH1 0x4 ADD PUSH2 0x564 SWAP1 PUSH2 0x2399 JUMP JUMPDEST PUSH1 0x40 MLOAD DUP1 SWAP2 SUB SWAP1 REVERT JUMPDEST PUSH2 0x578 DUP4 DUP4 DUP4 PUSH2 0xB9B JUMP JUMPDEST POP POP POP JUMP JUMPDEST PUSH2 0x598 DUP4 DUP4 DUP4 PUSH1 0x40 MLOAD DUP1 PUSH1 0x20 ADD PUSH1 0x40 MSTORE DUP1 PUSH1 0x0 DUP2 MSTORE POP PUSH2 0x78E JUMP JUMPDEST POP POP POP JUMP JUMPDEST PUSH1 0x0 DUP1 PUSH2 0x5A9 DUP4 PUSH2 0xE94 JUMP JUMPDEST SWAP1 POP PUSH1 0x0 PUSH20 0xFFFFFFFFFFFFFFFFFFFFFFFFFFFFFFFFFFFFFFFF AND DUP2 PUSH20 0xFFFFFFFFFFFFFFFFFFFFFFFFFFFFFFFFFFFFFFFF AND SUB PUSH2 0x61A JUMPI PUSH1 0x40 MLOAD PUSH32 0x8C379A000000000000000000000000000000000000000000000000000000000 DUP2 MSTORE PUSH1 0x4 ADD PUSH2 0x611 SWAP1 PUSH2 0x2405 JUMP JUMPDEST PUSH1 0x40 MLOAD DUP1 SWAP2 SUB SWAP1 REVERT JUMPDEST DUP1 SWAP2 POP POP SWAP2 SWAP1 POP JUMP JUMPDEST PUSH1 0x0 DUP1 PUSH20 0xFFFFFFFFFFFFFFFFFFFFFFFFFFFFFFFFFFFFFFFF AND DUP3 PUSH20 0xFFFFFFFFFFFFFFFFFFFFFFFFFFFFFFFFFFFFFFFF AND SUB PUSH2 0x693 JUMPI PUSH1 0x40 MLOAD PUSH32 0x8C379A000000000000000000000000000000000000000000000000000000000 DUP2 MSTORE PUSH1 0x4 ADD PUSH2 0x68A SWAP1 PUSH2 0x2497 JUMP JUMPDEST PUSH1 0x40 MLOAD DUP1 SWAP2 SUB SWAP1 REVERT JUMPDEST PUSH1 0x3 PUSH1 0x0 DUP4 PUSH20 0xFFFFFFFFFFFFFFFFFFFFFFFFFFFFFFFFFFFFFFFF AND PUSH20 0xFFFFFFFFFFFFFFFFFFFFFFFFFFFFFFFFFFFFFFFF AND DUP2 MSTORE PUSH1 0x20 ADD SWAP1 DUP2 MSTORE PUSH1 0x20 ADD PUSH1 0x0 KECCAK256 SLOAD SWAP1 POP SWAP2 SWAP1 POP JUMP JUMPDEST PUSH1 0x60 PUSH1 0x1 DUP1 SLOAD PUSH2 0x6E9 SWAP1 PUSH2 0x21D2 JUMP JUMPDEST DUP1 PUSH1 0x1F ADD PUSH1 0x20 DUP1 SWAP2 DIV MUL PUSH1 0x20 ADD PUSH1 0x40 MLOAD SWAP1 DUP2 ADD PUSH1 0x40 MSTORE DUP1 SWAP3 SWAP2 SWAP1 DUP2 DUP2 MSTORE PUSH1 0x20 ADD DUP3 DUP1 SLOAD PUSH2 0x715 SWAP1 PUSH2 0x21D2 JUMP JUMPDEST DUP1 ISZERO PUSH2 0x762 JUMPI DUP1 PUSH1 0x1F LT PUSH2 0x737 JUMPI PUSH2 0x100 DUP1 DUP4 SLOAD DIV MUL DUP4 MSTORE SWAP2 PUSH1 0x20 ADD SWAP2 PUSH2 0x762 JUMP JUMPDEST DUP3 ADD SWAP2 SWAP1 PUSH1 0x0 MSTORE PUSH1 0x20 PUSH1 0x0 KECCAK256 SWAP1 JUMPDEST DUP2 SLOAD DUP2 MSTORE SWAP1 PUSH1 0x1 ADD SWAP1 PUSH1 0x20 ADD DUP1 DUP4 GT PUSH2 0x745 JUMPI DUP3 SWAP1 SUB PUSH1 0x1F AND DUP3 ADD SWAP2 JUMPDEST POP POP POP POP POP SWAP1 POP SWAP1 JUMP JUMPDEST PUSH1 0x7 DUP1 PUSH1 0x0 ADD SLOAD SWAP1 POP DUP2 JUMP JUMPDEST PUSH2 0x78A PUSH2 0x783 PUSH2 0xA45 JUMP JUMPDEST DUP4 DUP4 PUSH2 0xED1 JUMP JUMPDEST POP POP JUMP JUMPDEST PUSH2 0x79F PUSH2 0x799 PUSH2 0xA45 JUMP JUMPDEST DUP4 PUSH2 0xB06 JUMP JUMPDEST PUSH2 0x7DE JUMPI PUSH1 0x40 MLOAD PUSH32 0x8C379A000000000000000000000000000000000000000000000000000000000 DUP2 MSTORE PUSH1 0x4 ADD PUSH2 0x7D5 SWAP1 PUSH2 0x2399 JUMP JUMPDEST PUSH1 0x40 MLOAD DUP1 SWAP2 SUB SWAP1 REVERT JUMPDEST PUSH2 0x7EA DUP5 DUP5 DUP5 DUP5 PUSH2 0x103D JUMP JUMPDEST POP POP POP POP JUMP JUMPDEST PUSH1 0x60 PUSH2 0x7FB DUP3 PUSH2 0x1099 JUMP JUMPDEST SWAP1 POP SWAP2 SWAP1 POP JUMP JUMPDEST PUSH32 0x0 PUSH20 0xFFFFFFFFFFFFFFFFFFFFFFFFFFFFFFFFFFFFFFFF AND CALLER PUSH20 0xFFFFFFFFFFFFFFFFFFFFFFFFFFFFFFFFFFFFFFFF AND EQ PUSH2 0x890 JUMPI PUSH1 0x40 MLOAD PUSH32 0x8C379A000000000000000000000000000000000000000000000000000000000 DUP2 MSTORE PUSH1 0x4 ADD PUSH2 0x887 SWAP1 PUSH2 0x2503 JUMP JUMPDEST PUSH1 0x40 MLOAD DUP1 SWAP2 SUB SWAP1 REVERT JUMPDEST PUSH2 0x89A PUSH1 0x7 PUSH2 0x11AB JUMP JUMPDEST PUSH1 0x0 PUSH2 0x8A6 PUSH1 0x7 PUSH2 0x11C1 JUMP JUMPDEST SWAP1 POP PUSH1 0x1E DUP2 GT ISZERO PUSH2 0x8EC JUMPI PUSH1 0x40 MLOAD PUSH32 0x8C379A000000000000000000000000000000000000000000000000000000000 DUP2 MSTORE PUSH1 0x4 ADD PUSH2 0x8E3 SWAP1 PUSH2 0x2595 JUMP JUMPDEST PUSH1 0x40 MLOAD DUP1 SWAP2 SUB SWAP1 REVERT JUMPDEST PUSH2 0x8F6 DUP4 DUP3 PUSH2 0x11CF JUMP JUMPDEST PUSH2 0x900 DUP2 DUP4 PUSH2 0x11ED JUMP JUMPDEST POP POP POP JUMP JUMPDEST PUSH1 0x0 PUSH1 0x5 PUSH1 0x0 DUP5 PUSH20 0xFFFFFFFFFFFFFFFFFFFFFFFFFFFFFFFFFFFFFFFF AND PUSH20 0xFFFFFFFFFFFFFFFFFFFFFFFFFFFFFFFFFFFFFFFF AND DUP2 MSTORE PUSH1 0x20 ADD SWAP1 DUP2 MSTORE PUSH1 0x20 ADD PUSH1 0x0 KECCAK256 PUSH1 0x0 DUP4 PUSH20 0xFFFFFFFFFFFFFFFFFFFFFFFFFFFFFFFFFFFFFFFF AND PUSH20 0xFFFFFFFFFFFFFFFFFFFFFFFFFFFFFFFFFFFFFFFF AND DUP2 MSTORE PUSH1 0x20 ADD SWAP1 DUP2 MSTORE PUSH1 0x20 ADD PUSH1 0x0 KECCAK256 PUSH1 0x0 SWAP1 SLOAD SWAP1 PUSH2 0x100 EXP SWAP1 DIV PUSH1 0xFF AND SWAP1 POP SWAP3 SWAP2 POP POP JUMP JUMPDEST PUSH1 0x0 PUSH4 0x49064906 PUSH1 0xE0 SHL PUSH28 0xFFFFFFFFFFFFFFFFFFFFFFFFFFFFFFFFFFFFFFFFFFFFFFFFFFFFFFFF NOT AND DUP3 PUSH28 0xFFFFFFFFFFFFFFFFFFFFFFFFFFFFFFFFFFFFFFFFFFFFFFFFFFFFFFFF NOT AND EQ DUP1 PUSH2 0x9F3 JUMPI POP PUSH2 0x9F2 DUP3 PUSH2 0x1291 JUMP JUMPDEST JUMPDEST SWAP1 POP SWAP2 SWAP1 POP JUMP JUMPDEST PUSH2 0xA03 DUP2 PUSH2 0x1373 JUMP JUMPDEST PUSH2 0xA42 JUMPI PUSH1 0x40 MLOAD PUSH32 0x8C379A000000000000000000000000000000000000000000000000000000000 DUP2 MSTORE PUSH1 0x4 ADD PUSH2 0xA39 SWAP1 PUSH2 0x2405 JUMP JUMPDEST PUSH1 0x40 MLOAD DUP1 SWAP2 SUB SWAP1 REVERT JUMPDEST POP JUMP JUMPDEST PUSH1 0x0 CALLER SWAP1 POP SWAP1 JUMP JUMPDEST DUP2 PUSH1 0x4 PUSH1 0x0 DUP4 DUP2 MSTORE PUSH1 0x20 ADD SWAP1 DUP2 MSTORE PUSH1 0x20 ADD PUSH1 0x0 KECCAK256 PUSH1 0x0 PUSH2 0x100 EXP DUP2 SLOAD DUP2 PUSH20 0xFFFFFFFFFFFFFFFFFFFFFFFFFFFFFFFFFFFFFFFF MUL NOT AND SWAP1 DUP4 PUSH20 0xFFFFFFFFFFFFFFFFFFFFFFFFFFFFFFFFFFFFFFFF AND MUL OR SWAP1 SSTORE POP DUP1 DUP3 PUSH20 0xFFFFFFFFFFFFFFFFFFFFFFFFFFFFFFFFFFFFFFFF AND PUSH2 0xAC0 DUP4 PUSH2 0x59D JUMP JUMPDEST PUSH20 0xFFFFFFFFFFFFFFFFFFFFFFFFFFFFFFFFFFFFFFFF AND PUSH32 0x8C5BE1E5EBEC7D5BD14F71427D1E84F3DD0314C0F7B2291E5B200AC8C7C3B925 PUSH1 0x40 MLOAD PUSH1 0x40 MLOAD DUP1 SWAP2 SUB SWAP1 LOG4 POP POP JUMP JUMPDEST PUSH1 0x0 DUP1 PUSH2 0xB12 DUP4 PUSH2 0x59D JUMP JUMPDEST SWAP1 POP DUP1 PUSH20 0xFFFFFFFFFFFFFFFFFFFFFFFFFFFFFFFFFFFFFFFF AND DUP5 PUSH20 0xFFFFFFFFFFFFFFFFFFFFFFFFFFFFFFFFFFFFFFFF AND EQ DUP1 PUSH2 0xB54 JUMPI POP PUSH2 0xB53 DUP2 DUP6 PUSH2 0x905 JUMP JUMPDEST JUMPDEST DUP1 PUSH2 0xB92 JUMPI POP DUP4 PUSH20 0xFFFFFFFFFFFFFFFFFFFFFFFFFFFFFFFFFFFFFFFF AND PUSH2 0xB7A DUP5 PUSH2 0x3C0 JUMP JUMPDEST PUSH20 0xFFFFFFFFFFFFFFFFFFFFFFFFFFFFFFFFFFFFFFFF AND EQ JUMPDEST SWAP2 POP POP SWAP3 SWAP2 POP POP JUMP JUMPDEST DUP3 PUSH20 0xFFFFFFFFFFFFFFFFFFFFFFFFFFFFFFFFFFFFFFFF AND PUSH2 0xBBB DUP3 PUSH2 0x59D JUMP JUMPDEST PUSH20 0xFFFFFFFFFFFFFFFFFFFFFFFFFFFFFFFFFFFFFFFF AND EQ PUSH2 0xC11 JUMPI PUSH1 0x40 MLOAD PUSH32 0x8C379A000000000000000000000000000000000000000000000000000000000 DUP2 MSTORE PUSH1 0x4 ADD PUSH2 0xC08 SWAP1 PUSH2 0x2627 JUMP JUMPDEST PUSH1 0x40 MLOAD DUP1 SWAP2 SUB SWAP1 REVERT JUMPDEST PUSH1 0x0 PUSH20 0xFFFFFFFFFFFFFFFFFFFFFFFFFFFFFFFFFFFFFFFF AND DUP3 PUSH20 0xFFFFFFFFFFFFFFFFFFFFFFFFFFFFFFFFFFFFFFFF AND SUB PUSH2 0xC80 JUMPI PUSH1 0x40 MLOAD PUSH32 0x8C379A000000000000000000000000000000000000000000000000000000000 DUP2 MSTORE PUSH1 0x4 ADD PUSH2 0xC77 SWAP1 PUSH2 0x26B9 JUMP JUMPDEST PUSH1 0x40 MLOAD DUP1 SWAP2 SUB SWAP1 REVERT JUMPDEST PUSH2 0xC8D DUP4 DUP4 DUP4 PUSH1 0x1 PUSH2 0x13B4 JUMP JUMPDEST DUP3 PUSH20 0xFFFFFFFFFFFFFFFFFFFFFFFFFFFFFFFFFFFFFFFF AND PUSH2 0xCAD DUP3 PUSH2 0x59D JUMP JUMPDEST PUSH20 0xFFFFFFFFFFFFFFFFFFFFFFFFFFFFFFFFFFFFFFFF AND EQ PUSH2 0xD03 JUMPI PUSH1 0x40 MLOAD PUSH32 0x8C379A000000000000000000000000000000000000000000000000000000000 DUP2 MSTORE PUSH1 0x4 ADD PUSH2 0xCFA SWAP1 PUSH2 0x2627 JUMP JUMPDEST PUSH1 0x40 MLOAD DUP1 SWAP2 SUB SWAP1 REVERT JUMPDEST PUSH1 0x4 PUSH1 0x0 DUP3 DUP2 MSTORE PUSH1 0x20 ADD SWAP1 DUP2 MSTORE PUSH1 0x20 ADD PUSH1 0x0 KECCAK256 PUSH1 0x0 PUSH2 0x100 EXP DUP2 SLOAD SWAP1 PUSH20 0xFFFFFFFFFFFFFFFFFFFFFFFFFFFFFFFFFFFFFFFF MUL NOT AND SWAP1 SSTORE PUSH1 0x1 PUSH1 0x3 PUSH1 0x0 DUP6 PUSH20 0xFFFFFFFFFFFFFFFFFFFFFFFFFFFFFFFFFFFFFFFF AND PUSH20 0xFFFFFFFFFFFFFFFFFFFFFFFFFFFFFFFFFFFFFFFF AND DUP2 MSTORE PUSH1 0x20 ADD SWAP1 DUP2 MSTORE PUSH1 0x20 ADD PUSH1 0x0 KECCAK256 PUSH1 0x0 DUP3 DUP3 SLOAD SUB SWAP3 POP POP DUP2 SWAP1 SSTORE POP PUSH1 0x1 PUSH1 0x3 PUSH1 0x0 DUP5 PUSH20 0xFFFFFFFFFFFFFFFFFFFFFFFFFFFFFFFFFFFFFFFF AND PUSH20 0xFFFFFFFFFFFFFFFFFFFFFFFFFFFFFFFFFFFFFFFF AND DUP2 MSTORE PUSH1 0x20 ADD SWAP1 DUP2 MSTORE PUSH1 0x20 ADD PUSH1 0x0 KECCAK256 PUSH1 0x0 DUP3 DUP3 SLOAD ADD SWAP3 POP POP DUP2 SWAP1 SSTORE POP DUP2 PUSH1 0x2 PUSH1 0x0 DUP4 DUP2 MSTORE PUSH1 0x20 ADD SWAP1 DUP2 MSTORE PUSH1 0x20 ADD PUSH1 0x0 KECCAK256 PUSH1 0x0 PUSH2 0x100 EXP DUP2 SLOAD DUP2 PUSH20 0xFFFFFFFFFFFFFFFFFFFFFFFFFFFFFFFFFFFFFFFF MUL NOT AND SWAP1 DUP4 PUSH20 0xFFFFFFFFFFFFFFFFFFFFFFFFFFFFFFFFFFFFFFFF AND MUL OR SWAP1 SSTORE POP DUP1 DUP3 PUSH20 0xFFFFFFFFFFFFFFFFFFFFFFFFFFFFFFFFFFFFFFFF AND DUP5 PUSH20 0xFFFFFFFFFFFFFFFFFFFFFFFFFFFFFFFFFFFFFFFF AND PUSH32 0xDDF252AD1BE2C89B69C2B068FC378DAA952BA7F163C4A11628F55A4DF523B3EF PUSH1 0x40 MLOAD PUSH1 0x40 MLOAD DUP1 SWAP2 SUB SWAP1 LOG4 PUSH2 0xE8F DUP4 DUP4 DUP4 PUSH1 0x1 PUSH2 0x13BA JUMP JUMPDEST POP POP POP JUMP JUMPDEST PUSH1 0x0 PUSH1 0x2 PUSH1 0x0 DUP4 DUP2 MSTORE PUSH1 0x20 ADD SWAP1 DUP2 MSTORE PUSH1 0x20 ADD PUSH1 0x0 KECCAK256 PUSH1 0x0 SWAP1 SLOAD SWAP1 PUSH2 0x100 EXP SWAP1 DIV PUSH20 0xFFFFFFFFFFFFFFFFFFFFFFFFFFFFFFFFFFFFFFFF AND SWAP1 POP SWAP2 SWAP1 POP JUMP JUMPDEST DUP2 PUSH20 0xFFFFFFFFFFFFFFFFFFFFFFFFFFFFFFFFFFFFFFFF AND DUP4 PUSH20 0xFFFFFFFFFFFFFFFFFFFFFFFFFFFFFFFFFFFFFFFF AND SUB PUSH2 0xF3F JUMPI PUSH1 0x40 MLOAD PUSH32 0x8C379A000000000000000000000000000000000000000000000000000000000 DUP2 MSTORE PUSH1 0x4 ADD PUSH2 0xF36 SWAP1 PUSH2 0x2725 JUMP JUMPDEST PUSH1 0x40 MLOAD DUP1 SWAP2 SUB SWAP1 REVERT JUMPDEST DUP1 PUSH1 0x5 PUSH1 0x0 DUP6 PUSH20 0xFFFFFFFFFFFFFFFFFFFFFFFFFFFFFFFFFFFFFFFF AND PUSH20 0xFFFFFFFFFFFFFFFFFFFFFFFFFFFFFFFFFFFFFFFF AND DUP2 MSTORE PUSH1 0x20 ADD SWAP1 DUP2 MSTORE PUSH1 0x20 ADD PUSH1 0x0 KECCAK256 PUSH1 0x0 DUP5 PUSH20 0xFFFFFFFFFFFFFFFFFFFFFFFFFFFFFFFFFFFFFFFF AND PUSH20 0xFFFFFFFFFFFFFFFFFFFFFFFFFFFFFFFFFFFFFFFF AND DUP2 MSTORE PUSH1 0x20 ADD SWAP1 DUP2 MSTORE PUSH1 0x20 ADD PUSH1 0x0 KECCAK256 PUSH1 0x0 PUSH2 0x100 EXP DUP2 SLOAD DUP2 PUSH1 0xFF MUL NOT AND SWAP1 DUP4 ISZERO ISZERO MUL OR SWAP1 SSTORE POP DUP2 PUSH20 0xFFFFFFFFFFFFFFFFFFFFFFFFFFFFFFFFFFFFFFFF AND DUP4 PUSH20 0xFFFFFFFFFFFFFFFFFFFFFFFFFFFFFFFFFFFFFFFF AND PUSH32 0x17307EAB39AB6107E8899845AD3D59BD9653F200F220920489CA2B5937696C31 DUP4 PUSH1 0x40 MLOAD PUSH2 0x1030 SWAP2 SWAP1 PUSH2 0x1BA0 JUMP JUMPDEST PUSH1 0x40 MLOAD DUP1 SWAP2 SUB SWAP1 LOG3 POP POP POP JUMP JUMPDEST PUSH2 0x1048 DUP5 DUP5 DUP5 PUSH2 0xB9B JUMP JUMPDEST PUSH2 0x1054 DUP5 DUP5 DUP5 DUP5 PUSH2 0x13C0 JUMP JUMPDEST PUSH2 0x1093 JUMPI PUSH1 0x40 MLOAD PUSH32 0x8C379A000000000000000000000000000000000000000000000000000000000 DUP2 MSTORE PUSH1 0x4 ADD PUSH2 0x108A SWAP1 PUSH2 0x27B7 JUMP JUMPDEST PUSH1 0x40 MLOAD DUP1 SWAP2 SUB SWAP1 REVERT JUMPDEST POP POP POP POP JUMP JUMPDEST PUSH1 0x60 PUSH2 0x10A4 DUP3 PUSH2 0x9FA JUMP JUMPDEST PUSH1 0x0 PUSH1 0x6 PUSH1 0x0 DUP5 DUP2 MSTORE PUSH1 0x20 ADD SWAP1 DUP2 MSTORE PUSH1 0x20 ADD PUSH1 0x0 KECCAK256 DUP1 SLOAD PUSH2 0x10C4 SWAP1 PUSH2 0x21D2 JUMP JUMPDEST DUP1 PUSH1 0x1F ADD PUSH1 0x20 DUP1 SWAP2 DIV MUL PUSH1 0x20 ADD PUSH1 0x40 MLOAD SWAP1 DUP2 ADD PUSH1 0x40 MSTORE DUP1 SWAP3 SWAP2 SWAP1 DUP2 DUP2 MSTORE PUSH1 0x20 ADD DUP3 DUP1 SLOAD PUSH2 0x10F0 SWAP1 PUSH2 0x21D2 JUMP JUMPDEST DUP1 ISZERO PUSH2 0x113D JUMPI DUP1 PUSH1 0x1F LT PUSH2 0x1112 JUMPI PUSH2 0x100 DUP1 DUP4 SLOAD DIV MUL DUP4 MSTORE SWAP2 PUSH1 0x20 ADD SWAP2 PUSH2 0x113D JUMP JUMPDEST DUP3 ADD SWAP2 SWAP1 PUSH1 0x0 MSTORE PUSH1 0x20 PUSH1 0x0 KECCAK256 SWAP1 JUMPDEST DUP2 SLOAD DUP2 MSTORE SWAP1 PUSH1 0x1 ADD SWAP1 PUSH1 0x20 ADD DUP1 DUP4 GT PUSH2 0x1120 JUMPI DUP3 SWAP1 SUB PUSH1 0x1F AND DUP3 ADD SWAP2 JUMPDEST POP POP POP POP POP SWAP1 POP PUSH1 0x0 PUSH2 0x114E PUSH2 0x1547 JUMP JUMPDEST SWAP1 POP PUSH1 0x0 DUP2 MLOAD SUB PUSH2 0x1163 JUMPI DUP2 SWAP3 POP POP POP PUSH2 0x11A6 JUMP JUMPDEST PUSH1 0x0 DUP3 MLOAD GT ISZERO PUSH2 0x1198 JUMPI DUP1 DUP3 PUSH1 0x40 MLOAD PUSH1 0x20 ADD PUSH2 0x1180 SWAP3 SWAP2 SWAP1 PUSH2 0x2813 JUMP JUMPDEST PUSH1 0x40 MLOAD PUSH1 0x20 DUP2 DUP4 SUB SUB DUP2 MSTORE SWAP1 PUSH1 0x40 MSTORE SWAP3 POP POP POP PUSH2 0x11A6 JUMP JUMPDEST PUSH2 0x11A1 DUP5 PUSH2 0x155E JUMP JUMPDEST SWAP3 POP POP POP JUMPDEST SWAP2 SWAP1 POP JUMP JUMPDEST PUSH1 0x1 DUP2 PUSH1 0x0 ADD PUSH1 0x0 DUP3 DUP3 SLOAD ADD SWAP3 POP POP DUP2 SWAP1 SSTORE POP POP JUMP JUMPDEST PUSH1 0x0 DUP2 PUSH1 0x0 ADD SLOAD SWAP1 POP SWAP2 SWAP1 POP JUMP JUMPDEST PUSH2 0x11E9 DUP3 DUP3 PUSH1 0x40 MLOAD DUP1 PUSH1 0x20 ADD PUSH1 0x40 MSTORE DUP1 PUSH1 0x0 DUP2 MSTORE POP PUSH2 0x15C6 JUMP JUMPDEST POP POP JUMP JUMPDEST PUSH2 0x11F6 DUP3 PUSH2 0x1373 JUMP JUMPDEST PUSH2 0x1235 JUMPI PUSH1 0x40 MLOAD PUSH32 0x8C379A000000000000000000000000000000000000000000000000000000000 DUP2 MSTORE PUSH1 0x4 ADD PUSH2 0x122C SWAP1 PUSH2 0x28A9 JUMP JUMPDEST PUSH1 0x40 MLOAD DUP1 SWAP2 SUB SWAP1 REVERT JUMPDEST DUP1 PUSH1 0x6 PUSH1 0x0 DUP5 DUP2 MSTORE PUSH1 0x20 ADD SWAP1 DUP2 MSTORE PUSH1 0x20 ADD PUSH1 0x0 KECCAK256 SWAP1 DUP2 PUSH2 0x1255 SWAP2 SWAP1 PUSH2 0x2A75 JUMP JUMPDEST POP PUSH32 0xF8E1A15ABA9398E019F0B49DF1A4FDE98EE17AE345CB5F6B5E2C27F5033E8CE7 DUP3 PUSH1 0x40 MLOAD PUSH2 0x1285 SWAP2 SWAP1 PUSH2 0x1E27 JUMP JUMPDEST PUSH1 0x40 MLOAD DUP1 SWAP2 SUB SWAP1 LOG1 POP POP JUMP JUMPDEST PUSH1 0x0 PUSH32 0x80AC58CD00000000000000000000000000000000000000000000000000000000 PUSH28 0xFFFFFFFFFFFFFFFFFFFFFFFFFFFFFFFFFFFFFFFFFFFFFFFFFFFFFFFF NOT AND DUP3 PUSH28 0xFFFFFFFFFFFFFFFFFFFFFFFFFFFFFFFFFFFFFFFFFFFFFFFFFFFFFFFF NOT AND EQ DUP1 PUSH2 0x135C JUMPI POP PUSH32 0x5B5E139F00000000000000000000000000000000000000000000000000000000 PUSH28 0xFFFFFFFFFFFFFFFFFFFFFFFFFFFFFFFFFFFFFFFFFFFFFFFFFFFFFFFF NOT AND DUP3 PUSH28 0xFFFFFFFFFFFFFFFFFFFFFFFFFFFFFFFFFFFFFFFFFFFFFFFFFFFFFFFF NOT AND EQ JUMPDEST DUP1 PUSH2 0x136C JUMPI POP PUSH2 0x136B DUP3 PUSH2 0x1621 JUMP JUMPDEST JUMPDEST SWAP1 POP SWAP2 SWAP1 POP JUMP JUMPDEST PUSH1 0x0 DUP1 PUSH20 0xFFFFFFFFFFFFFFFFFFFFFFFFFFFFFFFFFFFFFFFF AND PUSH2 0x1395 DUP4 PUSH2 0xE94 JUMP JUMPDEST PUSH20 0xFFFFFFFFFFFFFFFFFFFFFFFFFFFFFFFFFFFFFFFF AND EQ ISZERO SWAP1 POP SWAP2 SWAP1 POP JUMP JUMPDEST POP POP POP POP JUMP JUMPDEST POP POP POP POP JUMP JUMPDEST PUSH1 0x0 PUSH2 0x13E1 DUP5 PUSH20 0xFFFFFFFFFFFFFFFFFFFFFFFFFFFFFFFFFFFFFFFF AND PUSH2 0x168B JUMP JUMPDEST ISZERO PUSH2 0x153A JUMPI DUP4 PUSH20 0xFFFFFFFFFFFFFFFFFFFFFFFFFFFFFFFFFFFFFFFF AND PUSH4 0x150B7A02 PUSH2 0x140A PUSH2 0xA45 JUMP JUMPDEST DUP8 DUP7 DUP7 PUSH1 0x40 MLOAD DUP6 PUSH4 0xFFFFFFFF AND PUSH1 0xE0 SHL DUP2 MSTORE PUSH1 0x4 ADD PUSH2 0x142C SWAP5 SWAP4 SWAP3 SWAP2 SWAP1 PUSH2 0x2B9C JUMP JUMPDEST PUSH1 0x20 PUSH1 0x40 MLOAD DUP1 DUP4 SUB DUP2 PUSH1 0x0 DUP8 GAS CALL SWAP3 POP POP POP DUP1 ISZERO PUSH2 0x1468 JUMPI POP PUSH1 0x40 MLOAD RETURNDATASIZE PUSH1 0x1F NOT PUSH1 0x1F DUP3 ADD AND DUP3 ADD DUP1 PUSH1 0x40 MSTORE POP DUP2 ADD SWAP1 PUSH2 0x1465 SWAP2 SWAP1 PUSH2 0x2BFD JUMP JUMPDEST PUSH1 0x1 JUMPDEST PUSH2 0x14EA JUMPI RETURNDATASIZE DUP1 PUSH1 0x0 DUP2 EQ PUSH2 0x1498 JUMPI PUSH1 0x40 MLOAD SWAP2 POP PUSH1 0x1F NOT PUSH1 0x3F RETURNDATASIZE ADD AND DUP3 ADD PUSH1 0x40 MSTORE RETURNDATASIZE DUP3 MSTORE RETURNDATASIZE PUSH1 0x0 PUSH1 0x20 DUP5 ADD RETURNDATACOPY PUSH2 0x149D JUMP JUMPDEST PUSH1 0x60 SWAP2 POP JUMPDEST POP PUSH1 0x0 DUP2 MLOAD SUB PUSH2 0x14E2 JUMPI PUSH1 0x40 MLOAD PUSH32 0x8C379A000000000000000000000000000000000000000000000000000000000 DUP2 MSTORE PUSH1 0x4 ADD PUSH2 0x14D9 SWAP1 PUSH2 0x27B7 JUMP JUMPDEST PUSH1 0x40 MLOAD DUP1 SWAP2 SUB SWAP1 REVERT JUMPDEST DUP1 MLOAD DUP2 PUSH1 0x20 ADD REVERT JUMPDEST PUSH4 0x150B7A02 PUSH1 0xE0 SHL PUSH28 0xFFFFFFFFFFFFFFFFFFFFFFFFFFFFFFFFFFFFFFFFFFFFFFFFFFFFFFFF NOT AND DUP2 PUSH28 0xFFFFFFFFFFFFFFFFFFFFFFFFFFFFFFFFFFFFFFFFFFFFFFFFFFFFFFFF NOT AND EQ SWAP2 POP POP PUSH2 0x153F JUMP JUMPDEST PUSH1 0x1 SWAP1 POP JUMPDEST SWAP5 SWAP4 POP POP POP POP JUMP JUMPDEST PUSH1 0x60 PUSH1 0x40 MLOAD DUP1 PUSH1 0x20 ADD PUSH1 0x40 MSTORE DUP1 PUSH1 0x0 DUP2 MSTORE POP SWAP1 POP SWAP1 JUMP JUMPDEST PUSH1 0x60 PUSH2 0x1569 DUP3 PUSH2 0x9FA JUMP JUMPDEST PUSH1 0x0 PUSH2 0x1573 PUSH2 0x1547 JUMP JUMPDEST SWAP1 POP PUSH1 0x0 DUP2 MLOAD GT PUSH2 0x1593 JUMPI PUSH1 0x40 MLOAD DUP1 PUSH1 0x20 ADD PUSH1 0x40 MSTORE DUP1 PUSH1 0x0 DUP2 MSTORE POP PUSH2 0x15BE JUMP JUMPDEST DUP1 PUSH2 0x159D DUP5 PUSH2 0x16AE JUMP JUMPDEST PUSH1 0x40 MLOAD PUSH1 0x20 ADD PUSH2 0x15AE SWAP3 SWAP2 SWAP1 PUSH2 0x2813 JUMP JUMPDEST PUSH1 0x40 MLOAD PUSH1 0x20 DUP2 DUP4 SUB SUB DUP2 MSTORE SWAP1 PUSH1 0x40 MSTORE JUMPDEST SWAP2 POP POP SWAP2 SWAP1 POP JUMP JUMPDEST PUSH2 0x15D0 DUP4 DUP4 PUSH2 0x177C JUMP JUMPDEST PUSH2 0x15DD PUSH1 0x0 DUP5 DUP5 DUP5 PUSH2 0x13C0 JUMP JUMPDEST PUSH2 0x161C JUMPI PUSH1 0x40 MLOAD PUSH32 0x8C379A000000000000000000000000000000000000000000000000000000000 DUP2 MSTORE PUSH1 0x4 ADD PUSH2 0x1613 SWAP1 PUSH2 0x27B7 JUMP JUMPDEST PUSH1 0x40 MLOAD DUP1 SWAP2 SUB SWAP1 REVERT JUMPDEST POP POP POP JUMP JUMPDEST PUSH1 0x0 PUSH32 0x1FFC9A700000000000000000000000000000000000000000000000000000000 PUSH28 0xFFFFFFFFFFFFFFFFFFFFFFFFFFFFFFFFFFFFFFFFFFFFFFFFFFFFFFFF NOT AND DUP3 PUSH28 0xFFFFFFFFFFFFFFFFFFFFFFFFFFFFFFFFFFFFFFFFFFFFFFFFFFFFFFFF NOT AND EQ SWAP1 POP SWAP2 SWAP1 POP JUMP JUMPDEST PUSH1 0x0 DUP1 DUP3 PUSH20 0xFFFFFFFFFFFFFFFFFFFFFFFFFFFFFFFFFFFFFFFF AND EXTCODESIZE GT SWAP1 POP SWAP2 SWAP1 POP JUMP JUMPDEST PUSH1 0x60 PUSH1 0x0 PUSH1 0x1 PUSH2 0x16BD DUP5 PUSH2 0x1999 JUMP JUMPDEST ADD SWAP1 POP PUSH1 0x0 DUP2 PUSH8 0xFFFFFFFFFFFFFFFF DUP2 GT ISZERO PUSH2 0x16DC JUMPI PUSH2 0x16DB PUSH2 0x1EB8 JUMP JUMPDEST JUMPDEST PUSH1 0x40 MLOAD SWAP1 DUP1 DUP3 MSTORE DUP1 PUSH1 0x1F ADD PUSH1 0x1F NOT AND PUSH1 0x20 ADD DUP3 ADD PUSH1 0x40 MSTORE DUP1 ISZERO PUSH2 0x170E JUMPI DUP2 PUSH1 0x20 ADD PUSH1 0x1 DUP3 MUL DUP1 CALLDATASIZE DUP4 CALLDATACOPY DUP1 DUP3 ADD SWAP2 POP POP SWAP1 POP JUMPDEST POP SWAP1 POP PUSH1 0x0 DUP3 PUSH1 0x20 ADD DUP3 ADD SWAP1 POP JUMPDEST PUSH1 0x1 ISZERO PUSH2 0x1771 JUMPI DUP1 DUP1 PUSH1 0x1 SWAP1 SUB SWAP2 POP POP PUSH32 0x3031323334353637383961626364656600000000000000000000000000000000 PUSH1 0xA DUP7 MOD BYTE DUP2 MSTORE8 PUSH1 0xA DUP6 DUP2 PUSH2 0x1765 JUMPI PUSH2 0x1764 PUSH2 0x2C2A JUMP JUMPDEST JUMPDEST DIV SWAP5 POP PUSH1 0x0 DUP6 SUB PUSH2 0x171C JUMPI JUMPDEST DUP2 SWAP4 POP POP POP POP SWAP2 SWAP1 POP JUMP JUMPDEST PUSH1 0x0 PUSH20 0xFFFFFFFFFFFFFFFFFFFFFFFFFFFFFFFFFFFFFFFF AND DUP3 PUSH20 0xFFFFFFFFFFFFFFFFFFFFFFFFFFFFFFFFFFFFFFFF AND SUB PUSH2 0x17EB JUMPI PUSH1 0x40 MLOAD PUSH32 0x8C379A000000000000000000000000000000000000000000000000000000000 DUP2 MSTORE PUSH1 0x4 ADD PUSH2 0x17E2 SWAP1 PUSH2 0x2CA5 JUMP JUMPDEST PUSH1 0x40 MLOAD DUP1 SWAP2 SUB SWAP1 REVERT JUMPDEST PUSH2 0x17F4 DUP2 PUSH2 0x1373 JUMP JUMPDEST ISZERO PUSH2 0x1834 JUMPI PUSH1 0x40 MLOAD PUSH32 0x8C379A000000000000000000000000000000000000000000000000000000000 DUP2 MSTORE PUSH1 0x4 ADD PUSH2 0x182B SWAP1 PUSH2 0x2D11 JUMP JUMPDEST PUSH1 0x40 MLOAD DUP1 SWAP2 SUB SWAP1 REVERT JUMPDEST PUSH2 0x1842 PUSH1 0x0 DUP4 DUP4 PUSH1 0x1 PUSH2 0x13B4 JUMP JUMPDEST PUSH2 0x184B DUP2 PUSH2 0x1373 JUMP JUMPDEST ISZERO PUSH2 0x188B JUMPI PUSH1 0x40 MLOAD PUSH32 0x8C379A000000000000000000000000000000000000000000000000000000000 DUP2 MSTORE PUSH1 0x4 ADD PUSH2 0x1882 SWAP1 PUSH2 0x2D11 JUMP JUMPDEST PUSH1 0x40 MLOAD DUP1 SWAP2 SUB SWAP1 REVERT JUMPDEST PUSH1 0x1 PUSH1 0x3 PUSH1 0x0 DUP5 PUSH20 0xFFFFFFFFFFFFFFFFFFFFFFFFFFFFFFFFFFFFFFFF AND PUSH20 0xFFFFFFFFFFFFFFFFFFFFFFFFFFFFFFFFFFFFFFFF AND DUP2 MSTORE PUSH1 0x20 ADD SWAP1 DUP2 MSTORE PUSH1 0x20 ADD PUSH1 0x0 KECCAK256 PUSH1 0x0 DUP3 DUP3 SLOAD ADD SWAP3 POP POP DUP2 SWAP1 SSTORE POP DUP2 PUSH1 0x2 PUSH1 0x0 DUP4 DUP2 MSTORE PUSH1 0x20 ADD SWAP1 DUP2 MSTORE PUSH1 0x20 ADD PUSH1 0x0 KECCAK256 PUSH1 0x0 PUSH2 0x100 EXP DUP2 SLOAD DUP2 PUSH20 0xFFFFFFFFFFFFFFFFFFFFFFFFFFFFFFFFFFFFFFFF MUL NOT AND SWAP1 DUP4 PUSH20 0xFFFFFFFFFFFFFFFFFFFFFFFFFFFFFFFFFFFFFFFF AND MUL OR SWAP1 SSTORE POP DUP1 DUP3 PUSH20 0xFFFFFFFFFFFFFFFFFFFFFFFFFFFFFFFFFFFFFFFF AND PUSH1 0x0 PUSH20 0xFFFFFFFFFFFFFFFFFFFFFFFFFFFFFFFFFFFFFFFF AND PUSH32 0xDDF252AD1BE2C89B69C2B068FC378DAA952BA7F163C4A11628F55A4DF523B3EF PUSH1 0x40 MLOAD PUSH1 0x40 MLOAD DUP1 SWAP2 SUB SWAP1 LOG4 PUSH2 0x1995 PUSH1 0x0 DUP4 DUP4 PUSH1 0x1 PUSH2 0x13BA JUMP JUMPDEST POP POP JUMP JUMPDEST PUSH1 0x0 DUP1 PUSH1 0x0 SWAP1 POP PUSH27 0x184F03E93FF9F4DAA797ED6E38ED64BF6A1F010000000000000000 DUP4 LT PUSH2 0x19F7 JUMPI PUSH27 0x184F03E93FF9F4DAA797ED6E38ED64BF6A1F010000000000000000 DUP4 DUP2 PUSH2 0x19ED JUMPI PUSH2 0x19EC PUSH2 0x2C2A JUMP JUMPDEST JUMPDEST DIV SWAP3 POP PUSH1 0x40 DUP2 ADD SWAP1 POP JUMPDEST PUSH14 0x4EE2D6D415B85ACEF8100000000 DUP4 LT PUSH2 0x1A34 JUMPI PUSH14 0x4EE2D6D415B85ACEF8100000000 DUP4 DUP2 PUSH2 0x1A2A JUMPI PUSH2 0x1A29 PUSH2 0x2C2A JUMP JUMPDEST JUMPDEST DIV SWAP3 POP PUSH1 0x20 DUP2 ADD SWAP1 POP JUMPDEST PUSH7 0x2386F26FC10000 DUP4 LT PUSH2 0x1A63 JUMPI PUSH7 0x2386F26FC10000 DUP4 DUP2 PUSH2 0x1A59 JUMPI PUSH2 0x1A58 PUSH2 0x2C2A JUMP JUMPDEST JUMPDEST DIV SWAP3 POP PUSH1 0x10 DUP2 ADD SWAP1 POP JUMPDEST PUSH4 0x5F5E100 DUP4 LT PUSH2 0x1A8C JUMPI PUSH4 0x5F5E100 DUP4 DUP2 PUSH2 0x1A82 JUMPI PUSH2 0x1A81 PUSH2 0x2C2A JUMP JUMPDEST JUMPDEST DIV SWAP3 POP PUSH1 0x8 DUP2 ADD SWAP1 POP JUMPDEST PUSH2 0x2710 DUP4 LT PUSH2 0x1AB1 JUMPI PUSH2 0x2710 DUP4 DUP2 PUSH2 0x1AA7 JUMPI PUSH2 0x1AA6 PUSH2 0x2C2A JUMP JUMPDEST JUMPDEST DIV SWAP3 POP PUSH1 0x4 DUP2 ADD SWAP1 POP JUMPDEST PUSH1 0x64 DUP4 LT PUSH2 0x1AD4 JUMPI PUSH1 0x64 DUP4 DUP2 PUSH2 0x1ACA JUMPI PUSH2 0x1AC9 PUSH2 0x2C2A JUMP JUMPDEST JUMPDEST DIV SWAP3 POP PUSH1 0x2 DUP2 ADD SWAP1 POP JUMPDEST PUSH1 0xA DUP4 LT PUSH2 0x1AE3 JUMPI PUSH1 0x1 DUP2 ADD SWAP1 POP JUMPDEST DUP1 SWAP2 POP POP SWAP2 SWAP1 POP JUMP JUMPDEST PUSH1 0x0 PUSH1 0x40 MLOAD SWAP1 POP SWAP1 JUMP JUMPDEST PUSH1 0x0 DUP1 REVERT JUMPDEST PUSH1 0x0 DUP1 REVERT JUMPDEST PUSH1 0x0 PUSH32 0xFFFFFFFF00000000000000000000000000000000000000000000000000000000 DUP3 AND SWAP1 POP SWAP2 SWAP1 POP JUMP JUMPDEST PUSH2 0x1B35 DUP2 PUSH2 0x1B00 JUMP JUMPDEST DUP2 EQ PUSH2 0x1B40 JUMPI PUSH1 0x0 DUP1 REVERT JUMPDEST POP JUMP JUMPDEST PUSH1 0x0 DUP2 CALLDATALOAD SWAP1 POP PUSH2 0x1B52 DUP2 PUSH2 0x1B2C JUMP JUMPDEST SWAP3 SWAP2 POP POP JUMP JUMPDEST PUSH1 0x0 PUSH1 0x20 DUP3 DUP5 SUB SLT ISZERO PUSH2 0x1B6E JUMPI PUSH2 0x1B6D PUSH2 0x1AF6 JUMP JUMPDEST JUMPDEST PUSH1 0x0 PUSH2 0x1B7C DUP5 DUP3 DUP6 ADD PUSH2 0x1B43 JUMP JUMPDEST SWAP2 POP POP SWAP3 SWAP2 POP POP JUMP JUMPDEST PUSH1 0x0 DUP2 ISZERO ISZERO SWAP1 POP SWAP2 SWAP1 POP JUMP JUMPDEST PUSH2 0x1B9A DUP2 PUSH2 0x1B85 JUMP JUMPDEST DUP3 MSTORE POP POP JUMP JUMPDEST PUSH1 0x0 PUSH1 0x20 DUP3 ADD SWAP1 POP PUSH2 0x1BB5 PUSH1 0x0 DUP4 ADD DUP5 PUSH2 0x1B91 JUMP JUMPDEST SWAP3 SWAP2 POP POP JUMP JUMPDEST PUSH1 0x0 DUP2 MLOAD SWAP1 POP SWAP2 SWAP1 POP JUMP JUMPDEST PUSH1 0x0 DUP3 DUP3 MSTORE PUSH1 0x20 DUP3 ADD SWAP1 POP SWAP3 SWAP2 POP POP JUMP JUMPDEST PUSH1 0x0 JUMPDEST DUP4 DUP2 LT ISZERO PUSH2 0x1BF5 JUMPI DUP1 DUP3 ADD MLOAD DUP2 DUP5 ADD MSTORE PUSH1 0x20 DUP2 ADD SWAP1 POP PUSH2 0x1BDA JUMP JUMPDEST PUSH1 0x0 DUP5 DUP5 ADD MSTORE POP POP POP POP JUMP JUMPDEST PUSH1 0x0 PUSH1 0x1F NOT PUSH1 0x1F DUP4 ADD AND SWAP1 POP SWAP2 SWAP1 POP JUMP JUMPDEST PUSH1 0x0 PUSH2 0x1C1D DUP3 PUSH2 0x1BBB JUMP JUMPDEST PUSH2 0x1C27 DUP2 DUP6 PUSH2 0x1BC6 JUMP JUMPDEST SWAP4 POP PUSH2 0x1C37 DUP2 DUP6 PUSH1 0x20 DUP7 ADD PUSH2 0x1BD7 JUMP JUMPDEST PUSH2 0x1C40 DUP2 PUSH2 0x1C01 JUMP JUMPDEST DUP5 ADD SWAP2 POP POP SWAP3 SWAP2 POP POP JUMP JUMPDEST PUSH1 0x0 PUSH1 0x20 DUP3 ADD SWAP1 POP DUP2 DUP2 SUB PUSH1 0x0 DUP4 ADD MSTORE PUSH2 0x1C65 DUP2 DUP5 PUSH2 0x1C12 JUMP JUMPDEST SWAP1 POP SWAP3 SWAP2 POP POP JUMP JUMPDEST PUSH1 0x0 DUP2 SWAP1 POP SWAP2 SWAP1 POP JUMP JUMPDEST PUSH2 0x1C80 DUP2 PUSH2 0x1C6D JUMP JUMPDEST DUP2 EQ PUSH2 0x1C8B JUMPI PUSH1 0x0 DUP1 REVERT JUMPDEST POP JUMP JUMPDEST PUSH1 0x0 DUP2 CALLDATALOAD SWAP1 POP PUSH2 0x1C9D DUP2 PUSH2 0x1C77 JUMP JUMPDEST SWAP3 SWAP2 POP POP JUMP JUMPDEST PUSH1 0x0 PUSH1 0x20 DUP3 DUP5 SUB SLT ISZERO PUSH2 0x1CB9 JUMPI PUSH2 0x1CB8 PUSH2 0x1AF6 JUMP JUMPDEST JUMPDEST PUSH1 0x0 PUSH2 0x1CC7 DUP5 DUP3 DUP6 ADD PUSH2 0x1C8E JUMP JUMPDEST SWAP2 POP POP SWAP3 SWAP2 POP POP JUMP JUMPDEST PUSH1 0x0 PUSH20 0xFFFFFFFFFFFFFFFFFFFFFFFFFFFFFFFFFFFFFFFF DUP3 AND SWAP1 POP SWAP2 SWAP1 POP JUMP JUMPDEST PUSH1 0x0 PUSH2 0x1CFB DUP3 PUSH2 0x1CD0 JUMP JUMPDEST SWAP1 POP SWAP2 SWAP1 POP JUMP JUMPDEST PUSH2 0x1D0B DUP2 PUSH2 0x1CF0 JUMP JUMPDEST DUP3 MSTORE POP POP JUMP JUMPDEST PUSH1 0x0 PUSH1 0x20 DUP3 ADD SWAP1 POP PUSH2 0x1D26 PUSH1 0x0 DUP4 ADD DUP5 PUSH2 0x1D02 JUMP JUMPDEST SWAP3 SWAP2 POP POP JUMP JUMPDEST PUSH2 0x1D35 DUP2 PUSH2 0x1CF0 JUMP JUMPDEST DUP2 EQ PUSH2 0x1D40 JUMPI PUSH1 0x0 DUP1 REVERT JUMPDEST POP JUMP JUMPDEST PUSH1 0x0 DUP2 CALLDATALOAD SWAP1 POP PUSH2 0x1D52 DUP2 PUSH2 0x1D2C JUMP JUMPDEST SWAP3 SWAP2 POP POP JUMP JUMPDEST PUSH1 0x0 DUP1 PUSH1 0x40 DUP4 DUP6 SUB SLT ISZERO PUSH2 0x1D6F JUMPI PUSH2 0x1D6E PUSH2 0x1AF6 JUMP JUMPDEST JUMPDEST PUSH1 0x0 PUSH2 0x1D7D DUP6 DUP3 DUP7 ADD PUSH2 0x1D43 JUMP JUMPDEST SWAP3 POP POP PUSH1 0x20 PUSH2 0x1D8E DUP6 DUP3 DUP7 ADD PUSH2 0x1C8E JUMP JUMPDEST SWAP2 POP POP SWAP3 POP SWAP3 SWAP1 POP JUMP JUMPDEST PUSH1 0x0 DUP1 PUSH1 0x0 PUSH1 0x60 DUP5 DUP7 SUB SLT ISZERO PUSH2 0x1DB1 JUMPI PUSH2 0x1DB0 PUSH2 0x1AF6 JUMP JUMPDEST JUMPDEST PUSH1 0x0 PUSH2 0x1DBF DUP7 DUP3 DUP8 ADD PUSH2 0x1D43 JUMP JUMPDEST SWAP4 POP POP PUSH1 0x20 PUSH2 0x1DD0 DUP7 DUP3 DUP8 ADD PUSH2 0x1D43 JUMP JUMPDEST SWAP3 POP POP PUSH1 0x40 PUSH2 0x1DE1 DUP7 DUP3 DUP8 ADD PUSH2 0x1C8E JUMP JUMPDEST SWAP2 POP POP SWAP3 POP SWAP3 POP SWAP3 JUMP JUMPDEST PUSH1 0x0 PUSH1 0x20 DUP3 DUP5 SUB SLT ISZERO PUSH2 0x1E01 JUMPI PUSH2 0x1E00 PUSH2 0x1AF6 JUMP JUMPDEST JUMPDEST PUSH1 0x0 PUSH2 0x1E0F DUP5 DUP3 DUP6 ADD PUSH2 0x1D43 JUMP JUMPDEST SWAP2 POP POP SWAP3 SWAP2 POP POP JUMP JUMPDEST PUSH2 0x1E21 DUP2 PUSH2 0x1C6D JUMP JUMPDEST DUP3 MSTORE POP POP JUMP JUMPDEST PUSH1 0x0 PUSH1 0x20 DUP3 ADD SWAP1 POP PUSH2 0x1E3C PUSH1 0x0 DUP4 ADD DUP5 PUSH2 0x1E18 JUMP JUMPDEST SWAP3 SWAP2 POP POP JUMP JUMPDEST PUSH2 0x1E4B DUP2 PUSH2 0x1B85 JUMP JUMPDEST DUP2 EQ PUSH2 0x1E56 JUMPI PUSH1 0x0 DUP1 REVERT JUMPDEST POP JUMP JUMPDEST PUSH1 0x0 DUP2 CALLDATALOAD SWAP1 POP PUSH2 0x1E68 DUP2 PUSH2 0x1E42 JUMP JUMPDEST SWAP3 SWAP2 POP POP JUMP JUMPDEST PUSH1 0x0 DUP1 PUSH1 0x40 DUP4 DUP6 SUB SLT ISZERO PUSH2 0x1E85 JUMPI PUSH2 0x1E84 PUSH2 0x1AF6 JUMP JUMPDEST JUMPDEST PUSH1 0x0 PUSH2 0x1E93 DUP6 DUP3 DUP7 ADD PUSH2 0x1D43 JUMP JUMPDEST SWAP3 POP POP PUSH1 0x20 PUSH2 0x1EA4 DUP6 DUP3 DUP7 ADD PUSH2 0x1E59 JUMP JUMPDEST SWAP2 POP POP SWAP3 POP SWAP3 SWAP1 POP JUMP JUMPDEST PUSH1 0x0 DUP1 REVERT JUMPDEST PUSH1 0x0 DUP1 REVERT JUMPDEST PUSH32 0x4E487B7100000000000000000000000000000000000000000000000000000000 PUSH1 0x0 MSTORE PUSH1 0x41 PUSH1 0x4 MSTORE PUSH1 0x24 PUSH1 0x0 REVERT JUMPDEST PUSH2 0x1EF0 DUP3 PUSH2 0x1C01 JUMP JUMPDEST DUP2 ADD DUP2 DUP2 LT PUSH8 0xFFFFFFFFFFFFFFFF DUP3 GT OR ISZERO PUSH2 0x1F0F JUMPI PUSH2 0x1F0E PUSH2 0x1EB8 JUMP JUMPDEST JUMPDEST DUP1 PUSH1 0x40 MSTORE POP POP POP JUMP JUMPDEST PUSH1 0x0 PUSH2 0x1F22 PUSH2 0x1AEC JUMP JUMPDEST SWAP1 POP PUSH2 0x1F2E DUP3 DUP3 PUSH2 0x1EE7 JUMP JUMPDEST SWAP2 SWAP1 POP JUMP JUMPDEST PUSH1 0x0 PUSH8 0xFFFFFFFFFFFFFFFF DUP3 GT ISZERO PUSH2 0x1F4E JUMPI PUSH2 0x1F4D PUSH2 0x1EB8 JUMP JUMPDEST JUMPDEST PUSH2 0x1F57 DUP3 PUSH2 0x1C01 JUMP JUMPDEST SWAP1 POP PUSH1 0x20 DUP2 ADD SWAP1 POP SWAP2 SWAP1 POP JUMP JUMPDEST DUP3 DUP2 DUP4 CALLDATACOPY PUSH1 0x0 DUP4 DUP4 ADD MSTORE POP POP POP JUMP JUMPDEST PUSH1 0x0 PUSH2 0x1F86 PUSH2 0x1F81 DUP5 PUSH2 0x1F33 JUMP JUMPDEST PUSH2 0x1F18 JUMP JUMPDEST SWAP1 POP DUP3 DUP2 MSTORE PUSH1 0x20 DUP2 ADD DUP5 DUP5 DUP5 ADD GT ISZERO PUSH2 0x1FA2 JUMPI PUSH2 0x1FA1 PUSH2 0x1EB3 JUMP JUMPDEST JUMPDEST PUSH2 0x1FAD DUP5 DUP3 DUP6 PUSH2 0x1F64 JUMP JUMPDEST POP SWAP4 SWAP3 POP POP POP JUMP JUMPDEST PUSH1 0x0 DUP3 PUSH1 0x1F DUP4 ADD SLT PUSH2 0x1FCA JUMPI PUSH2 0x1FC9 PUSH2 0x1EAE JUMP JUMPDEST JUMPDEST DUP2 CALLDATALOAD PUSH2 0x1FDA DUP5 DUP3 PUSH1 0x20 DUP7 ADD PUSH2 0x1F73 JUMP JUMPDEST SWAP2 POP POP SWAP3 SWAP2 POP POP JUMP JUMPDEST PUSH1 0x0 DUP1 PUSH1 0x0 DUP1 PUSH1 0x80 DUP6 DUP8 SUB SLT ISZERO PUSH2 0x1FFD JUMPI PUSH2 0x1FFC PUSH2 0x1AF6 JUMP JUMPDEST JUMPDEST PUSH1 0x0 PUSH2 0x200B DUP8 DUP3 DUP9 ADD PUSH2 0x1D43 JUMP JUMPDEST SWAP5 POP POP PUSH1 0x20 PUSH2 0x201C DUP8 DUP3 DUP9 ADD PUSH2 0x1D43 JUMP JUMPDEST SWAP4 POP POP PUSH1 0x40 PUSH2 0x202D DUP8 DUP3 DUP9 ADD PUSH2 0x1C8E JUMP JUMPDEST SWAP3 POP POP PUSH1 0x60 DUP6 ADD CALLDATALOAD PUSH8 0xFFFFFFFFFFFFFFFF DUP2 GT ISZERO PUSH2 0x204E JUMPI PUSH2 0x204D PUSH2 0x1AFB JUMP JUMPDEST JUMPDEST PUSH2 0x205A DUP8 DUP3 DUP9 ADD PUSH2 0x1FB5 JUMP JUMPDEST SWAP2 POP POP SWAP3 SWAP6 SWAP2 SWAP5 POP SWAP3 POP JUMP JUMPDEST PUSH1 0x0 PUSH8 0xFFFFFFFFFFFFFFFF DUP3 GT ISZERO PUSH2 0x2081 JUMPI PUSH2 0x2080 PUSH2 0x1EB8 JUMP JUMPDEST JUMPDEST PUSH2 0x208A DUP3 PUSH2 0x1C01 JUMP JUMPDEST SWAP1 POP PUSH1 0x20 DUP2 ADD SWAP1 POP SWAP2 SWAP1 POP JUMP JUMPDEST PUSH1 0x0 PUSH2 0x20AA PUSH2 0x20A5 DUP5 PUSH2 0x2066 JUMP JUMPDEST PUSH2 0x1F18 JUMP JUMPDEST SWAP1 POP DUP3 DUP2 MSTORE PUSH1 0x20 DUP2 ADD DUP5 DUP5 DUP5 ADD GT ISZERO PUSH2 0x20C6 JUMPI PUSH2 0x20C5 PUSH2 0x1EB3 JUMP JUMPDEST JUMPDEST PUSH2 0x20D1 DUP5 DUP3 DUP6 PUSH2 0x1F64 JUMP JUMPDEST POP SWAP4 SWAP3 POP POP POP JUMP JUMPDEST PUSH1 0x0 DUP3 PUSH1 0x1F DUP4 ADD SLT PUSH2 0x20EE JUMPI PUSH2 0x20ED PUSH2 0x1EAE JUMP JUMPDEST JUMPDEST DUP2 CALLDATALOAD PUSH2 0x20FE DUP5 DUP3 PUSH1 0x20 DUP7 ADD PUSH2 0x2097 JUMP JUMPDEST SWAP2 POP POP SWAP3 SWAP2 POP POP JUMP JUMPDEST PUSH1 0x0 DUP1 PUSH1 0x40 DUP4 DUP6 SUB SLT ISZERO PUSH2 0x211E JUMPI PUSH2 0x211D PUSH2 0x1AF6 JUMP JUMPDEST JUMPDEST PUSH1 0x0 PUSH2 0x212C DUP6 DUP3 DUP7 ADD PUSH2 0x1D43 JUMP JUMPDEST SWAP3 POP POP PUSH1 0x20 DUP4 ADD CALLDATALOAD PUSH8 0xFFFFFFFFFFFFFFFF DUP2 GT ISZERO PUSH2 0x214D JUMPI PUSH2 0x214C PUSH2 0x1AFB JUMP JUMPDEST JUMPDEST PUSH2 0x2159 DUP6 DUP3 DUP7 ADD PUSH2 0x20D9 JUMP JUMPDEST SWAP2 POP POP SWAP3 POP SWAP3 SWAP1 POP JUMP JUMPDEST PUSH1 0x0 DUP1 PUSH1 0x40 DUP4 DUP6 SUB SLT ISZERO PUSH2 0x217A JUMPI PUSH2 0x2179 PUSH2 0x1AF6 JUMP JUMPDEST JUMPDEST PUSH1 0x0 PUSH2 0x2188 DUP6 DUP3 DUP7 ADD PUSH2 0x1D43 JUMP JUMPDEST SWAP3 POP POP PUSH1 0x20 PUSH2 0x2199 DUP6 DUP3 DUP7 ADD PUSH2 0x1D43 JUMP JUMPDEST SWAP2 POP POP SWAP3 POP SWAP3 SWAP1 POP JUMP JUMPDEST PUSH32 0x4E487B7100000000000000000000000000000000000000000000000000000000 PUSH1 0x0 MSTORE PUSH1 0x22 PUSH1 0x4 MSTORE PUSH1 0x24 PUSH1 0x0 REVERT JUMPDEST PUSH1 0x0 PUSH1 0x2 DUP3 DIV SWAP1 POP PUSH1 0x1 DUP3 AND DUP1 PUSH2 0x21EA JUMPI PUSH1 0x7F DUP3 AND SWAP2 POP JUMPDEST PUSH1 0x20 DUP3 LT DUP2 SUB PUSH2 0x21FD JUMPI PUSH2 0x21FC PUSH2 0x21A3 JUMP JUMPDEST JUMPDEST POP SWAP2 SWAP1 POP JUMP JUMPDEST PUSH32 0x4552433732313A20617070726F76616C20746F2063757272656E74206F776E65 PUSH1 0x0 DUP3 ADD MSTORE PUSH32 0x7200000000000000000000000000000000000000000000000000000000000000 PUSH1 0x20 DUP3 ADD MSTORE POP JUMP JUMPDEST PUSH1 0x0 PUSH2 0x225F PUSH1 0x21 DUP4 PUSH2 0x1BC6 JUMP JUMPDEST SWAP2 POP PUSH2 0x226A DUP3 PUSH2 0x2203 JUMP JUMPDEST PUSH1 0x40 DUP3 ADD SWAP1 POP SWAP2 SWAP1 POP JUMP JUMPDEST PUSH1 0x0 PUSH1 0x20 DUP3 ADD SWAP1 POP DUP2 DUP2 SUB PUSH1 0x0 DUP4 ADD MSTORE PUSH2 0x228E DUP2 PUSH2 0x2252 JUMP JUMPDEST SWAP1 POP SWAP2 SWAP1 POP JUMP JUMPDEST PUSH32 0x4552433732313A20617070726F76652063616C6C6572206973206E6F7420746F PUSH1 0x0 DUP3 ADD MSTORE PUSH32 0x6B656E206F776E6572206F7220617070726F76656420666F7220616C6C000000 PUSH1 0x20 DUP3 ADD MSTORE POP JUMP JUMPDEST PUSH1 0x0 PUSH2 0x22F1 PUSH1 0x3D DUP4 PUSH2 0x1BC6 JUMP JUMPDEST SWAP2 POP PUSH2 0x22FC DUP3 PUSH2 0x2295 JUMP JUMPDEST PUSH1 0x40 DUP3 ADD SWAP1 POP SWAP2 SWAP1 POP JUMP JUMPDEST PUSH1 0x0 PUSH1 0x20 DUP3 ADD SWAP1 POP DUP2 DUP2 SUB PUSH1 0x0 DUP4 ADD MSTORE PUSH2 0x2320 DUP2 PUSH2 0x22E4 JUMP JUMPDEST SWAP1 POP SWAP2 SWAP1 POP JUMP JUMPDEST PUSH32 0x4552433732313A2063616C6C6572206973206E6F7420746F6B656E206F776E65 PUSH1 0x0 DUP3 ADD MSTORE PUSH32 0x72206F7220617070726F76656400000000000000000000000000000000000000 PUSH1 0x20 DUP3 ADD MSTORE POP JUMP JUMPDEST PUSH1 0x0 PUSH2 0x2383 PUSH1 0x2D DUP4 PUSH2 0x1BC6 JUMP JUMPDEST SWAP2 POP PUSH2 0x238E DUP3 PUSH2 0x2327 JUMP JUMPDEST PUSH1 0x40 DUP3 ADD SWAP1 POP SWAP2 SWAP1 POP JUMP JUMPDEST PUSH1 0x0 PUSH1 0x20 DUP3 ADD SWAP1 POP DUP2 DUP2 SUB PUSH1 0x0 DUP4 ADD MSTORE PUSH2 0x23B2 DUP2 PUSH2 0x2376 JUMP JUMPDEST SWAP1 POP SWAP2 SWAP1 POP JUMP JUMPDEST PUSH32 0x4552433732313A20696E76616C696420746F6B656E2049440000000000000000 PUSH1 0x0 DUP3 ADD MSTORE POP JUMP JUMPDEST PUSH1 0x0 PUSH2 0x23EF PUSH1 0x18 DUP4 PUSH2 0x1BC6 JUMP JUMPDEST SWAP2 POP PUSH2 0x23FA DUP3 PUSH2 0x23B9 JUMP JUMPDEST PUSH1 0x20 DUP3 ADD SWAP1 POP SWAP2 SWAP1 POP JUMP JUMPDEST PUSH1 0x0 PUSH1 0x20 DUP3 ADD SWAP1 POP DUP2 DUP2 SUB PUSH1 0x0 DUP4 ADD MSTORE PUSH2 0x241E DUP2 PUSH2 0x23E2 JUMP JUMPDEST SWAP1 POP SWAP2 SWAP1 POP JUMP JUMPDEST PUSH32 0x4552433732313A2061646472657373207A65726F206973206E6F742061207661 PUSH1 0x0 DUP3 ADD MSTORE PUSH32 0x6C6964206F776E65720000000000000000000000000000000000000000000000 PUSH1 0x20 DUP3 ADD MSTORE POP JUMP JUMPDEST PUSH1 0x0 PUSH2 0x2481 PUSH1 0x29 DUP4 PUSH2 0x1BC6 JUMP JUMPDEST SWAP2 POP PUSH2 0x248C DUP3 PUSH2 0x2425 JUMP JUMPDEST PUSH1 0x40 DUP3 ADD SWAP1 POP SWAP2 SWAP1 POP JUMP JUMPDEST PUSH1 0x0 PUSH1 0x20 DUP3 ADD SWAP1 POP DUP2 DUP2 SUB PUSH1 0x0 DUP4 ADD MSTORE PUSH2 0x24B0 DUP2 PUSH2 0x2474 JUMP JUMPDEST SWAP1 POP SWAP2 SWAP1 POP JUMP JUMPDEST PUSH32 0x596F7520646F206E6F7420686176652061636365737321000000000000000000 PUSH1 0x0 DUP3 ADD MSTORE POP JUMP JUMPDEST PUSH1 0x0 PUSH2 0x24ED PUSH1 0x17 DUP4 PUSH2 0x1BC6 JUMP JUMPDEST SWAP2 POP PUSH2 0x24F8 DUP3 PUSH2 0x24B7 JUMP JUMPDEST PUSH1 0x20 DUP3 ADD SWAP1 POP SWAP2 SWAP1 POP JUMP JUMPDEST PUSH1 0x0 PUSH1 0x20 DUP3 ADD SWAP1 POP DUP2 DUP2 SUB PUSH1 0x0 DUP4 ADD MSTORE PUSH2 0x251C DUP2 PUSH2 0x24E0 JUMP JUMPDEST SWAP1 POP SWAP2 SWAP1 POP JUMP JUMPDEST PUSH32 0x54686572652063616E206265206F6E6C79203330204E46547320696E20612054 PUSH1 0x0 DUP3 ADD MSTORE PUSH32 0x72656520436F6C6C656374696F6E210000000000000000000000000000000000 PUSH1 0x20 DUP3 ADD MSTORE POP JUMP JUMPDEST PUSH1 0x0 PUSH2 0x257F PUSH1 0x2F DUP4 PUSH2 0x1BC6 JUMP JUMPDEST SWAP2 POP PUSH2 0x258A DUP3 PUSH2 0x2523 JUMP JUMPDEST PUSH1 0x40 DUP3 ADD SWAP1 POP SWAP2 SWAP1 POP JUMP JUMPDEST PUSH1 0x0 PUSH1 0x20 DUP3 ADD SWAP1 POP DUP2 DUP2 SUB PUSH1 0x0 DUP4 ADD MSTORE PUSH2 0x25AE DUP2 PUSH2 0x2572 JUMP JUMPDEST SWAP1 POP SWAP2 SWAP1 POP JUMP JUMPDEST PUSH32 0x4552433732313A207472616E736665722066726F6D20696E636F727265637420 PUSH1 0x0 DUP3 ADD MSTORE PUSH32 0x6F776E6572000000000000000000000000000000000000000000000000000000 PUSH1 0x20 DUP3 ADD MSTORE POP JUMP JUMPDEST PUSH1 0x0 PUSH2 0x2611 PUSH1 0x25 DUP4 PUSH2 0x1BC6 JUMP JUMPDEST SWAP2 POP PUSH2 0x261C DUP3 PUSH2 0x25B5 JUMP JUMPDEST PUSH1 0x40 DUP3 ADD SWAP1 POP SWAP2 SWAP1 POP JUMP JUMPDEST PUSH1 0x0 PUSH1 0x20 DUP3 ADD SWAP1 POP DUP2 DUP2 SUB PUSH1 0x0 DUP4 ADD MSTORE PUSH2 0x2640 DUP2 PUSH2 0x2604 JUMP JUMPDEST SWAP1 POP SWAP2 SWAP1 POP JUMP JUMPDEST PUSH32 0x4552433732313A207472616E7366657220746F20746865207A65726F20616464 PUSH1 0x0 DUP3 ADD MSTORE PUSH32 0x7265737300000000000000000000000000000000000000000000000000000000 PUSH1 0x20 DUP3 ADD MSTORE POP JUMP JUMPDEST PUSH1 0x0 PUSH2 0x26A3 PUSH1 0x24 DUP4 PUSH2 0x1BC6 JUMP JUMPDEST SWAP2 POP PUSH2 0x26AE DUP3 PUSH2 0x2647 JUMP JUMPDEST PUSH1 0x40 DUP3 ADD SWAP1 POP SWAP2 SWAP1 POP JUMP JUMPDEST PUSH1 0x0 PUSH1 0x20 DUP3 ADD SWAP1 POP DUP2 DUP2 SUB PUSH1 0x0 DUP4 ADD MSTORE PUSH2 0x26D2 DUP2 PUSH2 0x2696 JUMP JUMPDEST SWAP1 POP SWAP2 SWAP1 POP JUMP JUMPDEST PUSH32 0x4552433732313A20617070726F766520746F2063616C6C657200000000000000 PUSH1 0x0 DUP3 ADD MSTORE POP JUMP JUMPDEST PUSH1 0x0 PUSH2 0x270F PUSH1 0x19 DUP4 PUSH2 0x1BC6 JUMP JUMPDEST SWAP2 POP PUSH2 0x271A DUP3 PUSH2 0x26D9 JUMP JUMPDEST PUSH1 0x20 DUP3 ADD SWAP1 POP SWAP2 SWAP1 POP JUMP JUMPDEST PUSH1 0x0 PUSH1 0x20 DUP3 ADD SWAP1 POP DUP2 DUP2 SUB PUSH1 0x0 DUP4 ADD MSTORE PUSH2 0x273E DUP2 PUSH2 0x2702 JUMP JUMPDEST SWAP1 POP SWAP2 SWAP1 POP JUMP JUMPDEST PUSH32 0x4552433732313A207472616E7366657220746F206E6F6E204552433732315265 PUSH1 0x0 DUP3 ADD MSTORE PUSH32 0x63656976657220696D706C656D656E7465720000000000000000000000000000 PUSH1 0x20 DUP3 ADD MSTORE POP JUMP JUMPDEST PUSH1 0x0 PUSH2 0x27A1 PUSH1 0x32 DUP4 PUSH2 0x1BC6 JUMP JUMPDEST SWAP2 POP PUSH2 0x27AC DUP3 PUSH2 0x2745 JUMP JUMPDEST PUSH1 0x40 DUP3 ADD SWAP1 POP SWAP2 SWAP1 POP JUMP JUMPDEST PUSH1 0x0 PUSH1 0x20 DUP3 ADD SWAP1 POP DUP2 DUP2 SUB PUSH1 0x0 DUP4 ADD MSTORE PUSH2 0x27D0 DUP2 PUSH2 0x2794 JUMP JUMPDEST SWAP1 POP SWAP2 SWAP1 POP JUMP JUMPDEST PUSH1 0x0 DUP2 SWAP1 POP SWAP3 SWAP2 POP POP JUMP JUMPDEST PUSH1 0x0 PUSH2 0x27ED DUP3 PUSH2 0x1BBB JUMP JUMPDEST PUSH2 0x27F7 DUP2 DUP6 PUSH2 0x27D7 JUMP JUMPDEST SWAP4 POP PUSH2 0x2807 DUP2 DUP6 PUSH1 0x20 DUP7 ADD PUSH2 0x1BD7 JUMP JUMPDEST DUP1 DUP5 ADD SWAP2 POP POP SWAP3 SWAP2 POP POP JUMP JUMPDEST PUSH1 0x0 PUSH2 0x281F DUP3 DUP6 PUSH2 0x27E2 JUMP JUMPDEST SWAP2 POP PUSH2 0x282B DUP3 DUP5 PUSH2 0x27E2 JUMP JUMPDEST SWAP2 POP DUP2 SWAP1 POP SWAP4 SWAP3 POP POP POP JUMP JUMPDEST PUSH32 0x45524337323155524953746F726167653A2055524920736574206F66206E6F6E PUSH1 0x0 DUP3 ADD MSTORE PUSH32 0x6578697374656E7420746F6B656E000000000000000000000000000000000000 PUSH1 0x20 DUP3 ADD MSTORE POP JUMP JUMPDEST PUSH1 0x0 PUSH2 0x2893 PUSH1 0x2E DUP4 PUSH2 0x1BC6 JUMP JUMPDEST SWAP2 POP PUSH2 0x289E DUP3 PUSH2 0x2837 JUMP JUMPDEST PUSH1 0x40 DUP3 ADD SWAP1 POP SWAP2 SWAP1 POP JUMP JUMPDEST PUSH1 0x0 PUSH1 0x20 DUP3 ADD SWAP1 POP DUP2 DUP2 SUB PUSH1 0x0 DUP4 ADD MSTORE PUSH2 0x28C2 DUP2 PUSH2 0x2886 JUMP JUMPDEST SWAP1 POP SWAP2 SWAP1 POP JUMP JUMPDEST PUSH1 0x0 DUP2 SWAP1 POP DUP2 PUSH1 0x0 MSTORE PUSH1 0x20 PUSH1 0x0 KECCAK256 SWAP1 POP SWAP2 SWAP1 POP JUMP JUMPDEST PUSH1 0x0 PUSH1 0x20 PUSH1 0x1F DUP4 ADD DIV SWAP1 POP SWAP2 SWAP1 POP JUMP JUMPDEST PUSH1 0x0 DUP3 DUP3 SHL SWAP1 POP SWAP3 SWAP2 POP POP JUMP JUMPDEST PUSH1 0x0 PUSH1 0x8 DUP4 MUL PUSH2 0x292B PUSH32 0xFFFFFFFFFFFFFFFFFFFFFFFFFFFFFFFFFFFFFFFFFFFFFFFFFFFFFFFFFFFFFFFF DUP3 PUSH2 0x28EE JUMP JUMPDEST PUSH2 0x2935 DUP7 DUP4 PUSH2 0x28EE JUMP JUMPDEST SWAP6 POP DUP1 NOT DUP5 AND SWAP4 POP DUP1 DUP7 AND DUP5 OR SWAP3 POP POP POP SWAP4 SWAP3 POP POP POP JUMP JUMPDEST PUSH1 0x0 DUP2 SWAP1 POP SWAP2 SWAP1 POP JUMP JUMPDEST PUSH1 0x0 PUSH2 0x2972 PUSH2 0x296D PUSH2 0x2968 DUP5 PUSH2 0x1C6D JUMP JUMPDEST PUSH2 0x294D JUMP JUMPDEST PUSH2 0x1C6D JUMP JUMPDEST SWAP1 POP SWAP2 SWAP1 POP JUMP JUMPDEST PUSH1 0x0 DUP2 SWAP1 POP SWAP2 SWAP1 POP JUMP JUMPDEST PUSH2 0x298C DUP4 PUSH2 0x2957 JUMP JUMPDEST PUSH2 0x29A0 PUSH2 0x2998 DUP3 PUSH2 0x2979 JUMP JUMPDEST DUP5 DUP5 SLOAD PUSH2 0x28FB JUMP JUMPDEST DUP3 SSTORE POP POP POP POP JUMP JUMPDEST PUSH1 0x0 SWAP1 JUMP JUMPDEST PUSH2 0x29B5 PUSH2 0x29A8 JUMP JUMPDEST PUSH2 0x29C0 DUP2 DUP5 DUP5 PUSH2 0x2983 JUMP JUMPDEST POP POP POP JUMP JUMPDEST JUMPDEST DUP2 DUP2 LT ISZERO PUSH2 0x29E4 JUMPI PUSH2 0x29D9 PUSH1 0x0 DUP3 PUSH2 0x29AD JUMP JUMPDEST PUSH1 0x1 DUP2 ADD SWAP1 POP PUSH2 0x29C6 JUMP JUMPDEST POP POP JUMP JUMPDEST PUSH1 0x1F DUP3 GT ISZERO PUSH2 0x2A29 JUMPI PUSH2 0x29FA DUP2 PUSH2 0x28C9 JUMP JUMPDEST PUSH2 0x2A03 DUP5 PUSH2 0x28DE JUMP JUMPDEST DUP2 ADD PUSH1 0x20 DUP6 LT ISZERO PUSH2 0x2A12 JUMPI DUP2 SWAP1 POP JUMPDEST PUSH2 0x2A26 PUSH2 0x2A1E DUP6 PUSH2 0x28DE JUMP JUMPDEST DUP4 ADD DUP3 PUSH2 0x29C5 JUMP JUMPDEST POP POP JUMPDEST POP POP POP JUMP JUMPDEST PUSH1 0x0 DUP3 DUP3 SHR SWAP1 POP SWAP3 SWAP2 POP POP JUMP JUMPDEST PUSH1 0x0 PUSH2 0x2A4C PUSH1 0x0 NOT DUP5 PUSH1 0x8 MUL PUSH2 0x2A2E JUMP JUMPDEST NOT DUP1 DUP4 AND SWAP2 POP POP SWAP3 SWAP2 POP POP JUMP JUMPDEST PUSH1 0x0 PUSH2 0x2A65 DUP4 DUP4 PUSH2 0x2A3B JUMP JUMPDEST SWAP2 POP DUP3 PUSH1 0x2 MUL DUP3 OR SWAP1 POP SWAP3 SWAP2 POP POP JUMP JUMPDEST PUSH2 0x2A7E DUP3 PUSH2 0x1BBB JUMP JUMPDEST PUSH8 0xFFFFFFFFFFFFFFFF DUP2 GT ISZERO PUSH2 0x2A97 JUMPI PUSH2 0x2A96 PUSH2 0x1EB8 JUMP JUMPDEST JUMPDEST PUSH2 0x2AA1 DUP3 SLOAD PUSH2 0x21D2 JUMP JUMPDEST PUSH2 0x2AAC DUP3 DUP3 DUP6 PUSH2 0x29E8 JUMP JUMPDEST PUSH1 0x0 PUSH1 0x20 SWAP1 POP PUSH1 0x1F DUP4 GT PUSH1 0x1 DUP2 EQ PUSH2 0x2ADF JUMPI PUSH1 0x0 DUP5 ISZERO PUSH2 0x2ACD JUMPI DUP3 DUP8 ADD MLOAD SWAP1 POP JUMPDEST PUSH2 0x2AD7 DUP6 DUP3 PUSH2 0x2A59 JUMP JUMPDEST DUP7 SSTORE POP PUSH2 0x2B3F JUMP JUMPDEST PUSH1 0x1F NOT DUP5 AND PUSH2 0x2AED DUP7 PUSH2 0x28C9 JUMP JUMPDEST PUSH1 0x0 JUMPDEST DUP3 DUP2 LT ISZERO PUSH2 0x2B15 JUMPI DUP5 DUP10 ADD MLOAD DUP3 SSTORE PUSH1 0x1 DUP3 ADD SWAP2 POP PUSH1 0x20 DUP6 ADD SWAP5 POP PUSH1 0x20 DUP2 ADD SWAP1 POP PUSH2 0x2AF0 JUMP JUMPDEST DUP7 DUP4 LT ISZERO PUSH2 0x2B32 JUMPI DUP5 DUP10 ADD MLOAD PUSH2 0x2B2E PUSH1 0x1F DUP10 AND DUP3 PUSH2 0x2A3B JUMP JUMPDEST DUP4 SSTORE POP JUMPDEST PUSH1 0x1 PUSH1 0x2 DUP9 MUL ADD DUP9 SSTORE POP POP POP JUMPDEST POP POP POP POP POP POP JUMP JUMPDEST PUSH1 0x0 DUP2 MLOAD SWAP1 POP SWAP2 SWAP1 POP JUMP JUMPDEST PUSH1 0x0 DUP3 DUP3 MSTORE PUSH1 0x20 DUP3 ADD SWAP1 POP SWAP3 SWAP2 POP POP JUMP JUMPDEST PUSH1 0x0 PUSH2 0x2B6E DUP3 PUSH2 0x2B47 JUMP JUMPDEST PUSH2 0x2B78 DUP2 DUP6 PUSH2 0x2B52 JUMP JUMPDEST SWAP4 POP PUSH2 0x2B88 DUP2 DUP6 PUSH1 0x20 DUP7 ADD PUSH2 0x1BD7 JUMP JUMPDEST PUSH2 0x2B91 DUP2 PUSH2 0x1C01 JUMP JUMPDEST DUP5 ADD SWAP2 POP POP SWAP3 SWAP2 POP POP JUMP JUMPDEST PUSH1 0x0 PUSH1 0x80 DUP3 ADD SWAP1 POP PUSH2 0x2BB1 PUSH1 0x0 DUP4 ADD DUP8 PUSH2 0x1D02 JUMP JUMPDEST PUSH2 0x2BBE PUSH1 0x20 DUP4 ADD DUP7 PUSH2 0x1D02 JUMP JUMPDEST PUSH2 0x2BCB PUSH1 0x40 DUP4 ADD DUP6 PUSH2 0x1E18 JUMP JUMPDEST DUP2 DUP2 SUB PUSH1 0x60 DUP4 ADD MSTORE PUSH2 0x2BDD DUP2 DUP5 PUSH2 0x2B63 JUMP JUMPDEST SWAP1 POP SWAP6 SWAP5 POP POP POP POP POP JUMP JUMPDEST PUSH1 0x0 DUP2 MLOAD SWAP1 POP PUSH2 0x2BF7 DUP2 PUSH2 0x1B2C JUMP JUMPDEST SWAP3 SWAP2 POP POP JUMP JUMPDEST PUSH1 0x0 PUSH1 0x20 DUP3 DUP5 SUB SLT ISZERO PUSH2 0x2C13 JUMPI PUSH2 0x2C12 PUSH2 0x1AF6 JUMP JUMPDEST JUMPDEST PUSH1 0x0 PUSH2 0x2C21 DUP5 DUP3 DUP6 ADD PUSH2 0x2BE8 JUMP JUMPDEST SWAP2 POP POP SWAP3 SWAP2 POP POP JUMP JUMPDEST PUSH32 0x4E487B7100000000000000000000000000000000000000000000000000000000 PUSH1 0x0 MSTORE PUSH1 0x12 PUSH1 0x4 MSTORE PUSH1 0x24 PUSH1 0x0 REVERT JUMPDEST PUSH32 0x4552433732313A206D696E7420746F20746865207A65726F2061646472657373 PUSH1 0x0 DUP3 ADD MSTORE POP JUMP JUMPDEST PUSH1 0x0 PUSH2 0x2C8F PUSH1 0x20 DUP4 PUSH2 0x1BC6 JUMP JUMPDEST SWAP2 POP PUSH2 0x2C9A DUP3 PUSH2 0x2C59 JUMP JUMPDEST PUSH1 0x20 DUP3 ADD SWAP1 POP SWAP2 SWAP1 POP JUMP JUMPDEST PUSH1 0x0 PUSH1 0x20 DUP3 ADD SWAP1 POP DUP2 DUP2 SUB PUSH1 0x0 DUP4 ADD MSTORE PUSH2 0x2CBE DUP2 PUSH2 0x2C82 JUMP JUMPDEST SWAP1 POP SWAP2 SWAP1 POP JUMP JUMPDEST PUSH32 0x4552433732313A20746F6B656E20616C7265616479206D696E74656400000000 PUSH1 0x0 DUP3 ADD MSTORE POP JUMP JUMPDEST PUSH1 0x0 PUSH2 0x2CFB PUSH1 0x1C DUP4 PUSH2 0x1BC6 JUMP JUMPDEST SWAP2 POP PUSH2 0x2D06 DUP3 PUSH2 0x2CC5 JUMP JUMPDEST PUSH1 0x20 DUP3 ADD SWAP1 POP SWAP2 SWAP1 POP JUMP JUMPDEST PUSH1 0x0 PUSH1 0x20 DUP3 ADD SWAP1 POP DUP2 DUP2 SUB PUSH1 0x0 DUP4 ADD MSTORE PUSH2 0x2D2A DUP2 PUSH2 0x2CEE JUMP JUMPDEST SWAP1 POP SWAP2 SWAP1 POP JUMP INVALID LOG2 PUSH5 0x6970667358 0x22 SLT KECCAK256 0xDB DUP9 PUSH28 0xFA8AD700408D72BF753DE162F50F085A15359FCED96DF368507EBDBC 0x2D PUSH5 0x736F6C6343 STOP ADDMOD SLT STOP CALLER LOG2 PUSH5 0x6970667358 0x22 SLT KECCAK256 0xC4 PUSH20 0xA741935AE389FFC3853B69F75E1AF0868A3C9AEC 0xAD SWAP13 0x28 0x22 PUSH20 0x9E3FD5183064736F6C6343000812003300000000 "
	},
	"abi": [
		{
			"inputs": [
				{
					"internalType": "address",
					"name": "_token",
					"type": "address"
				}
			],
			"stateMutability": "nonpayable",
			"type": "constructor"
		},
		{
			"anonymous": false,
			"inputs": [
				{
					"indexed": true,
					"internalType": "address",
					"name": "owner",
					"type": "address"
				},
				{
					"indexed": true,
					"internalType": "address",
					"name": "spender",
					"type": "address"
				},
				{
					"indexed": false,
					"internalType": "uint256",
					"name": "value",
					"type": "uint256"
				}
			],
			"name": "Approval",
			"type": "event"
		},
		{
			"anonymous": false,
			"inputs": [
				{
					"indexed": true,
					"internalType": "address",
					"name": "from",
					"type": "address"
				},
				{
					"indexed": true,
					"internalType": "address",
					"name": "to",
					"type": "address"
				},
				{
					"indexed": false,
					"internalType": "uint256",
					"name": "value",
					"type": "uint256"
				}
			],
			"name": "Transfer",
			"type": "event"
		},
		{
			"inputs": [
				{
					"internalType": "contract TreeCollection",
					"name": "",
					"type": "address"
				}
			],
			"name": "CollectionToID",
			"outputs": [
				{
					"internalType": "uint256",
					"name": "",
					"type": "uint256"
				}
			],
			"stateMutability": "view",
			"type": "function"
		},
		{
			"inputs": [],
			"name": "TreeCollectionCounter",
			"outputs": [
				{
					"internalType": "uint256",
					"name": "_value",
					"type": "uint256"
				}
			],
			"stateMutability": "view",
			"type": "function"
		},
		{
			"inputs": [
				{
					"internalType": "address",
					"name": "owner",
					"type": "address"
				},
				{
					"internalType": "address",
					"name": "spender",
					"type": "address"
				}
			],
			"name": "allowance",
			"outputs": [
				{
					"internalType": "uint256",
					"name": "",
					"type": "uint256"
				}
			],
			"stateMutability": "view",
			"type": "function"
		},
		{
			"inputs": [
				{
					"internalType": "address",
					"name": "spender",
					"type": "address"
				},
				{
					"internalType": "uint256",
					"name": "amount",
					"type": "uint256"
				}
			],
			"name": "approve",
			"outputs": [
				{
					"internalType": "bool",
					"name": "",
					"type": "bool"
				}
			],
			"stateMutability": "nonpayable",
			"type": "function"
		},
		{
			"inputs": [
				{
					"internalType": "address",
					"name": "account",
					"type": "address"
				}
			],
			"name": "balanceOf",
			"outputs": [
				{
					"internalType": "uint256",
					"name": "",
					"type": "uint256"
				}
			],
			"stateMutability": "view",
			"type": "function"
		},
		{
			"inputs": [
				{
					"internalType": "uint256",
					"name": "_collectionID",
					"type": "uint256"
				},
				{
					"internalType": "uint256",
					"name": "_tokenID",
					"type": "uint256"
				}
			],
			"name": "claim",
			"outputs": [
				{
					"internalType": "bool",
					"name": "",
					"type": "bool"
				}
			],
			"stateMutability": "nonpayable",
			"type": "function"
		},
		{
			"inputs": [],
			"name": "decimals",
			"outputs": [
				{
					"internalType": "uint8",
					"name": "",
					"type": "uint8"
				}
			],
			"stateMutability": "view",
			"type": "function"
		},
		{
			"inputs": [
				{
					"internalType": "address",
					"name": "spender",
					"type": "address"
				},
				{
					"internalType": "uint256",
					"name": "subtractedValue",
					"type": "uint256"
				}
			],
			"name": "decreaseAllowance",
			"outputs": [
				{
					"internalType": "bool",
					"name": "",
					"type": "bool"
				}
			],
			"stateMutability": "nonpayable",
			"type": "function"
		},
		{
			"inputs": [
				{
					"internalType": "contract TreeCollection",
					"name": "collection",
					"type": "address"
				}
			],
			"name": "getCollectionID",
			"outputs": [
				{
					"internalType": "uint256",
					"name": "",
					"type": "uint256"
				}
			],
			"stateMutability": "view",
			"type": "function"
		},
		{
			"inputs": [
				{
					"internalType": "uint256",
					"name": "collectionId",
					"type": "uint256"
				},
				{
					"internalType": "uint256",
					"name": "tokenId",
					"type": "uint256"
				}
			],
			"name": "getTreeDetails",
			"outputs": [
				{
					"components": [
						{
							"internalType": "uint256",
							"name": "lastWatered",
							"type": "uint256"
						},
						{
							"internalType": "uint256",
							"name": "lastClaimed",
							"type": "uint256"
						},
						{
							"internalType": "uint256",
							"name": "wateredTimes",
							"type": "uint256"
						},
						{
							"internalType": "uint256",
							"name": "tokensYielded",
							"type": "uint256"
						}
					],
					"internalType": "struct Genesis.TreeDetails",
					"name": "",
					"type": "tuple"
				}
			],
			"stateMutability": "view",
			"type": "function"
		},
		{
			"inputs": [
				{
					"internalType": "address",
					"name": "spender",
					"type": "address"
				},
				{
					"internalType": "uint256",
					"name": "addedValue",
					"type": "uint256"
				}
			],
			"name": "increaseAllowance",
			"outputs": [
				{
					"internalType": "bool",
					"name": "",
					"type": "bool"
				}
			],
			"stateMutability": "nonpayable",
			"type": "function"
		},
		{
			"inputs": [
				{
					"internalType": "string",
					"name": "name",
					"type": "string"
				},
				{
					"internalType": "string",
					"name": "symbol",
					"type": "string"
				}
			],
			"name": "mintNewTreeCollection",
			"outputs": [],
			"stateMutability": "nonpayable",
			"type": "function"
		},
		{
			"inputs": [
				{
					"internalType": "uint256",
					"name": "collectionID",
					"type": "uint256"
				},
				{
					"internalType": "string",
					"name": "_uri",
					"type": "string"
				}
			],
			"name": "mintTree",
			"outputs": [],
			"stateMutability": "nonpayable",
			"type": "function"
		},
		{
			"inputs": [],
			"name": "name",
			"outputs": [
				{
					"internalType": "string",
					"name": "",
					"type": "string"
				}
			],
			"stateMutability": "view",
			"type": "function"
		},
		{
			"inputs": [
				{
					"internalType": "uint256",
					"name": "collectionID",
					"type": "uint256"
				}
			],
			"name": "returnNFTcount",
			"outputs": [
				{
					"internalType": "uint256",
					"name": "",
					"type": "uint256"
				}
			],
			"stateMutability": "view",
			"type": "function"
		},
		{
			"inputs": [],
			"name": "symbol",
			"outputs": [
				{
					"internalType": "string",
					"name": "",
					"type": "string"
				}
			],
			"stateMutability": "view",
			"type": "function"
		},
		{
			"inputs": [],
			"name": "totalSupply",
			"outputs": [
				{
					"internalType": "uint256",
					"name": "",
					"type": "uint256"
				}
			],
			"stateMutability": "view",
			"type": "function"
		},
		{
			"inputs": [
				{
					"internalType": "address",
					"name": "to",
					"type": "address"
				},
				{
					"internalType": "uint256",
					"name": "amount",
					"type": "uint256"
				}
			],
			"name": "transfer",
			"outputs": [
				{
					"internalType": "bool",
					"name": "",
					"type": "bool"
				}
			],
			"stateMutability": "nonpayable",
			"type": "function"
		},
		{
			"inputs": [
				{
					"internalType": "address",
					"name": "from",
					"type": "address"
				},
				{
					"internalType": "address",
					"name": "to",
					"type": "address"
				},
				{
					"internalType": "uint256",
					"name": "amount",
					"type": "uint256"
				}
			],
			"name": "transferFrom",
			"outputs": [
				{
					"internalType": "bool",
					"name": "",
					"type": "bool"
				}
			],
			"stateMutability": "nonpayable",
			"type": "function"
		},
		{
			"inputs": [
				{
					"internalType": "uint256",
					"name": "",
					"type": "uint256"
				}
			],
			"name": "treecollections",
			"outputs": [
				{
					"internalType": "contract TreeCollection",
					"name": "",
					"type": "address"
				}
			],
			"stateMutability": "view",
			"type": "function"
		},
		{
			"inputs": [
				{
					"internalType": "uint256",
					"name": "_collectionID",
					"type": "uint256"
				},
				{
					"internalType": "uint256",
					"name": "_tokenID",
					"type": "uint256"
				}
			],
			"name": "water",
			"outputs": [
				{
					"internalType": "bool",
					"name": "",
					"type": "bool"
				}
			],
			"stateMutability": "nonpayable",
			"type": "function"
		}
	],
	"storageLayout": {
		"storage": [
			{
				"astId": 43,
				"contract": "Genesis.sol:Genesis",
				"label": "_balances",
				"offset": 0,
				"slot": "0",
				"type": "t_mapping(t_address,t_uint256)"
			},
			{
				"astId": 49,
				"contract": "Genesis.sol:Genesis",
				"label": "_allowances",
				"offset": 0,
				"slot": "1",
				"type": "t_mapping(t_address,t_mapping(t_address,t_uint256))"
			},
			{
				"astId": 51,
				"contract": "Genesis.sol:Genesis",
				"label": "_totalSupply",
				"offset": 0,
				"slot": "2",
				"type": "t_uint256"
			},
			{
				"astId": 53,
				"contract": "Genesis.sol:Genesis",
				"label": "_name",
				"offset": 0,
				"slot": "3",
				"type": "t_string_storage"
			},
			{
				"astId": 55,
				"contract": "Genesis.sol:Genesis",
				"label": "_symbol",
				"offset": 0,
				"slot": "4",
				"type": "t_string_storage"
			},
			{
				"astId": 3636,
				"contract": "Genesis.sol:Genesis",
				"label": "TreeCollectionCounter",
				"offset": 0,
				"slot": "5",
				"type": "t_struct(Counter)2319_storage"
			},
			{
				"astId": 3695,
				"contract": "Genesis.sol:Genesis",
				"label": "treecollections",
				"offset": 0,
				"slot": "6",
				"type": "t_mapping(t_uint256,t_contract(TreeCollection)4163)"
			},
			{
				"astId": 3700,
				"contract": "Genesis.sol:Genesis",
				"label": "CollectionToID",
				"offset": 0,
				"slot": "7",
				"type": "t_mapping(t_contract(TreeCollection)4163,t_uint256)"
			},
			{
				"astId": 3705,
				"contract": "Genesis.sol:Genesis",
				"label": "userTree",
				"offset": 0,
				"slot": "8",
				"type": "t_mapping(t_uint256,t_struct(UserTreeMapping)3690_storage)"
			}
		],
		"types": {
			"t_address": {
				"encoding": "inplace",
				"label": "address",
				"numberOfBytes": "20"
			},
			"t_contract(TreeCollection)4163": {
				"encoding": "inplace",
				"label": "contract TreeCollection",
				"numberOfBytes": "20"
			},
			"t_mapping(t_address,t_mapping(t_address,t_uint256))": {
				"encoding": "mapping",
				"key": "t_address",
				"label": "mapping(address => mapping(address => uint256))",
				"numberOfBytes": "32",
				"value": "t_mapping(t_address,t_uint256)"
			},
			"t_mapping(t_address,t_uint256)": {
				"encoding": "mapping",
				"key": "t_address",
				"label": "mapping(address => uint256)",
				"numberOfBytes": "32",
				"value": "t_uint256"
			},
			"t_mapping(t_contract(TreeCollection)4163,t_uint256)": {
				"encoding": "mapping",
				"key": "t_contract(TreeCollection)4163",
				"label": "mapping(contract TreeCollection => uint256)",
				"numberOfBytes": "32",
				"value": "t_uint256"
			},
			"t_mapping(t_uint256,t_contract(TreeCollection)4163)": {
				"encoding": "mapping",
				"key": "t_uint256",
				"label": "mapping(uint256 => contract TreeCollection)",
				"numberOfBytes": "32",
				"value": "t_contract(TreeCollection)4163"
			},
			"t_mapping(t_uint256,t_struct(TreeDetails)3684_storage)": {
				"encoding": "mapping",
				"key": "t_uint256",
				"label": "mapping(uint256 => struct Genesis.TreeDetails)",
				"numberOfBytes": "32",
				"value": "t_struct(TreeDetails)3684_storage"
			},
			"t_mapping(t_uint256,t_struct(UserTreeMapping)3690_storage)": {
				"encoding": "mapping",
				"key": "t_uint256",
				"label": "mapping(uint256 => struct Genesis.UserTreeMapping)",
				"numberOfBytes": "32",
				"value": "t_struct(UserTreeMapping)3690_storage"
			},
			"t_string_storage": {
				"encoding": "bytes",
				"label": "string",
				"numberOfBytes": "32"
			},
			"t_struct(Counter)2319_storage": {
				"encoding": "inplace",
				"label": "struct Counters.Counter",
				"members": [
					{
						"astId": 2318,
						"contract": "Genesis.sol:Genesis",
						"label": "_value",
						"offset": 0,
						"slot": "0",
						"type": "t_uint256"
					}
				],
				"numberOfBytes": "32"
			},
			"t_struct(TreeDetails)3684_storage": {
				"encoding": "inplace",
				"label": "struct Genesis.TreeDetails",
				"members": [
					{
						"astId": 3677,
						"contract": "Genesis.sol:Genesis",
						"label": "lastWatered",
						"offset": 0,
						"slot": "0",
						"type": "t_uint256"
					},
					{
						"astId": 3679,
						"contract": "Genesis.sol:Genesis",
						"label": "lastClaimed",
						"offset": 0,
						"slot": "1",
						"type": "t_uint256"
					},
					{
						"astId": 3681,
						"contract": "Genesis.sol:Genesis",
						"label": "wateredTimes",
						"offset": 0,
						"slot": "2",
						"type": "t_uint256"
					},
					{
						"astId": 3683,
						"contract": "Genesis.sol:Genesis",
						"label": "tokensYielded",
						"offset": 0,
						"slot": "3",
						"type": "t_uint256"
					}
				],
				"numberOfBytes": "128"
			},
			"t_struct(UserTreeMapping)3690_storage": {
				"encoding": "inplace",
				"label": "struct Genesis.UserTreeMapping",
				"members": [
					{
						"astId": 3689,
						"contract": "Genesis.sol:Genesis",
						"label": "treeDetails",
						"offset": 0,
						"slot": "0",
						"type": "t_mapping(t_uint256,t_struct(TreeDetails)3684_storage)"
					}
				],
				"numberOfBytes": "32"
			},
			"t_uint256": {
				"encoding": "inplace",
				"label": "uint256",
				"numberOfBytes": "32"
			}
		}
	},
	"web3Deploy": "var _token = /* var of type address here */ ;\nvar genesisContract = new web3.eth.Contract([{\"inputs\":[{\"internalType\":\"address\",\"name\":\"_token\",\"type\":\"address\"}],\"stateMutability\":\"nonpayable\",\"type\":\"constructor\"},{\"anonymous\":false,\"inputs\":[{\"indexed\":true,\"internalType\":\"address\",\"name\":\"owner\",\"type\":\"address\"},{\"indexed\":true,\"internalType\":\"address\",\"name\":\"spender\",\"type\":\"address\"},{\"indexed\":false,\"internalType\":\"uint256\",\"name\":\"value\",\"type\":\"uint256\"}],\"name\":\"Approval\",\"type\":\"event\"},{\"anonymous\":false,\"inputs\":[{\"indexed\":true,\"internalType\":\"address\",\"name\":\"from\",\"type\":\"address\"},{\"indexed\":true,\"internalType\":\"address\",\"name\":\"to\",\"type\":\"address\"},{\"indexed\":false,\"internalType\":\"uint256\",\"name\":\"value\",\"type\":\"uint256\"}],\"name\":\"Transfer\",\"type\":\"event\"},{\"inputs\":[{\"internalType\":\"contract TreeCollection\",\"name\":\"\",\"type\":\"address\"}],\"name\":\"CollectionToID\",\"outputs\":[{\"internalType\":\"uint256\",\"name\":\"\",\"type\":\"uint256\"}],\"stateMutability\":\"view\",\"type\":\"function\"},{\"inputs\":[],\"name\":\"TreeCollectionCounter\",\"outputs\":[{\"internalType\":\"uint256\",\"name\":\"_value\",\"type\":\"uint256\"}],\"stateMutability\":\"view\",\"type\":\"function\"},{\"inputs\":[{\"internalType\":\"address\",\"name\":\"owner\",\"type\":\"address\"},{\"internalType\":\"address\",\"name\":\"spender\",\"type\":\"address\"}],\"name\":\"allowance\",\"outputs\":[{\"internalType\":\"uint256\",\"name\":\"\",\"type\":\"uint256\"}],\"stateMutability\":\"view\",\"type\":\"function\"},{\"inputs\":[{\"internalType\":\"address\",\"name\":\"spender\",\"type\":\"address\"},{\"internalType\":\"uint256\",\"name\":\"amount\",\"type\":\"uint256\"}],\"name\":\"approve\",\"outputs\":[{\"internalType\":\"bool\",\"name\":\"\",\"type\":\"bool\"}],\"stateMutability\":\"nonpayable\",\"type\":\"function\"},{\"inputs\":[{\"internalType\":\"address\",\"name\":\"account\",\"type\":\"address\"}],\"name\":\"balanceOf\",\"outputs\":[{\"internalType\":\"uint256\",\"name\":\"\",\"type\":\"uint256\"}],\"stateMutability\":\"view\",\"type\":\"function\"},{\"inputs\":[{\"internalType\":\"uint256\",\"name\":\"_collectionID\",\"type\":\"uint256\"},{\"internalType\":\"uint256\",\"name\":\"_tokenID\",\"type\":\"uint256\"}],\"name\":\"claim\",\"outputs\":[{\"internalType\":\"bool\",\"name\":\"\",\"type\":\"bool\"}],\"stateMutability\":\"nonpayable\",\"type\":\"function\"},{\"inputs\":[],\"name\":\"decimals\",\"outputs\":[{\"internalType\":\"uint8\",\"name\":\"\",\"type\":\"uint8\"}],\"stateMutability\":\"view\",\"type\":\"function\"},{\"inputs\":[{\"internalType\":\"address\",\"name\":\"spender\",\"type\":\"address\"},{\"internalType\":\"uint256\",\"name\":\"subtractedValue\",\"type\":\"uint256\"}],\"name\":\"decreaseAllowance\",\"outputs\":[{\"internalType\":\"bool\",\"name\":\"\",\"type\":\"bool\"}],\"stateMutability\":\"nonpayable\",\"type\":\"function\"},{\"inputs\":[{\"internalType\":\"contract TreeCollection\",\"name\":\"collection\",\"type\":\"address\"}],\"name\":\"getCollectionID\",\"outputs\":[{\"internalType\":\"uint256\",\"name\":\"\",\"type\":\"uint256\"}],\"stateMutability\":\"view\",\"type\":\"function\"},{\"inputs\":[{\"internalType\":\"uint256\",\"name\":\"collectionId\",\"type\":\"uint256\"},{\"internalType\":\"uint256\",\"name\":\"tokenId\",\"type\":\"uint256\"}],\"name\":\"getTreeDetails\",\"outputs\":[{\"components\":[{\"internalType\":\"uint256\",\"name\":\"lastWatered\",\"type\":\"uint256\"},{\"internalType\":\"uint256\",\"name\":\"lastClaimed\",\"type\":\"uint256\"},{\"internalType\":\"uint256\",\"name\":\"wateredTimes\",\"type\":\"uint256\"},{\"internalType\":\"uint256\",\"name\":\"tokensYielded\",\"type\":\"uint256\"}],\"internalType\":\"struct Genesis.TreeDetails\",\"name\":\"\",\"type\":\"tuple\"}],\"stateMutability\":\"view\",\"type\":\"function\"},{\"inputs\":[{\"internalType\":\"address\",\"name\":\"spender\",\"type\":\"address\"},{\"internalType\":\"uint256\",\"name\":\"addedValue\",\"type\":\"uint256\"}],\"name\":\"increaseAllowance\",\"outputs\":[{\"internalType\":\"bool\",\"name\":\"\",\"type\":\"bool\"}],\"stateMutability\":\"nonpayable\",\"type\":\"function\"},{\"inputs\":[{\"internalType\":\"string\",\"name\":\"name\",\"type\":\"string\"},{\"internalType\":\"string\",\"name\":\"symbol\",\"type\":\"string\"}],\"name\":\"mintNewTreeCollection\",\"outputs\":[],\"stateMutability\":\"nonpayable\",\"type\":\"function\"},{\"inputs\":[{\"internalType\":\"uint256\",\"name\":\"collectionID\",\"type\":\"uint256\"},{\"internalType\":\"string\",\"name\":\"_uri\",\"type\":\"string\"}],\"name\":\"mintTree\",\"outputs\":[],\"stateMutability\":\"nonpayable\",\"type\":\"function\"},{\"inputs\":[],\"name\":\"name\",\"outputs\":[{\"internalType\":\"string\",\"name\":\"\",\"type\":\"string\"}],\"stateMutability\":\"view\",\"type\":\"function\"},{\"inputs\":[{\"internalType\":\"uint256\",\"name\":\"collectionID\",\"type\":\"uint256\"}],\"name\":\"returnNFTcount\",\"outputs\":[{\"internalType\":\"uint256\",\"name\":\"\",\"type\":\"uint256\"}],\"stateMutability\":\"view\",\"type\":\"function\"},{\"inputs\":[],\"name\":\"symbol\",\"outputs\":[{\"internalType\":\"string\",\"name\":\"\",\"type\":\"string\"}],\"stateMutability\":\"view\",\"type\":\"function\"},{\"inputs\":[],\"name\":\"totalSupply\",\"outputs\":[{\"internalType\":\"uint256\",\"name\":\"\",\"type\":\"uint256\"}],\"stateMutability\":\"view\",\"type\":\"function\"},{\"inputs\":[{\"internalType\":\"address\",\"name\":\"to\",\"type\":\"address\"},{\"internalType\":\"uint256\",\"name\":\"amount\",\"type\":\"uint256\"}],\"name\":\"transfer\",\"outputs\":[{\"internalType\":\"bool\",\"name\":\"\",\"type\":\"bool\"}],\"stateMutability\":\"nonpayable\",\"type\":\"function\"},{\"inputs\":[{\"internalType\":\"address\",\"name\":\"from\",\"type\":\"address\"},{\"internalType\":\"address\",\"name\":\"to\",\"type\":\"address\"},{\"internalType\":\"uint256\",\"name\":\"amount\",\"type\":\"uint256\"}],\"name\":\"transferFrom\",\"outputs\":[{\"internalType\":\"bool\",\"name\":\"\",\"type\":\"bool\"}],\"stateMutability\":\"nonpayable\",\"type\":\"function\"},{\"inputs\":[{\"internalType\":\"uint256\",\"name\":\"\",\"type\":\"uint256\"}],\"name\":\"treecollections\",\"outputs\":[{\"internalType\":\"contract TreeCollection\",\"name\":\"\",\"type\":\"address\"}],\"stateMutability\":\"view\",\"type\":\"function\"},{\"inputs\":[{\"internalType\":\"uint256\",\"name\":\"_collectionID\",\"type\":\"uint256\"},{\"internalType\":\"uint256\",\"name\":\"_tokenID\",\"type\":\"uint256\"}],\"name\":\"water\",\"outputs\":[{\"internalType\":\"bool\",\"name\":\"\",\"type\":\"bool\"}],\"stateMutability\":\"nonpayable\",\"type\":\"function\"}]);\nvar genesis = genesisContract.deploy({\n     data: '0x60c06040523480156200001157600080fd5b5060405162006511380380620065118339818101604052810190620000379190620001a2565b6040518060400160405280600781526020017f47656e65736973000000000000000000000000000000000000000000000000008152506040518060400160405280600381526020017f474e4500000000000000000000000000000000000000000000000000000000008152508160039081620000b491906200044e565b508060049081620000c691906200044e565b5050503373ffffffffffffffffffffffffffffffffffffffff1660a08173ffffffffffffffffffffffffffffffffffffffff16815250508073ffffffffffffffffffffffffffffffffffffffff1660808173ffffffffffffffffffffffffffffffffffffffff16815250505062000535565b600080fd5b600073ffffffffffffffffffffffffffffffffffffffff82169050919050565b60006200016a826200013d565b9050919050565b6200017c816200015d565b81146200018857600080fd5b50565b6000815190506200019c8162000171565b92915050565b600060208284031215620001bb57620001ba62000138565b5b6000620001cb848285016200018b565b91505092915050565b600081519050919050565b7f4e487b7100000000000000000000000000000000000000000000000000000000600052604160045260246000fd5b7f4e487b7100000000000000000000000000000000000000000000000000000000600052602260045260246000fd5b600060028204905060018216806200025657607f821691505b6020821081036200026c576200026b6200020e565b5b50919050565b60008190508160005260206000209050919050565b60006020601f8301049050919050565b600082821b905092915050565b600060088302620002d67fffffffffffffffffffffffffffffffffffffffffffffffffffffffffffffffff8262000297565b620002e2868362000297565b95508019841693508086168417925050509392505050565b6000819050919050565b6000819050919050565b60006200032f620003296200032384620002fa565b62000304565b620002fa565b9050919050565b6000819050919050565b6200034b836200030e565b620003636200035a8262000336565b848454620002a4565b825550505050565b600090565b6200037a6200036b565b6200038781848462000340565b505050565b5b81811015620003af57620003a360008262000370565b6001810190506200038d565b5050565b601f821115620003fe57620003c88162000272565b620003d38462000287565b81016020851015620003e3578190505b620003fb620003f28562000287565b8301826200038c565b50505b505050565b600082821c905092915050565b6000620004236000198460080262000403565b1980831691505092915050565b60006200043e838362000410565b9150826002028217905092915050565b6200045982620001d4565b67ffffffffffffffff811115620004755762000474620001df565b5b6200048182546200023d565b6200048e828285620003b3565b600060209050601f831160018114620004c65760008415620004b1578287015190505b620004bd858262000430565b8655506200052d565b601f198416620004d68662000272565b60005b828110156200050057848901518255600182019150602085019450602081019050620004d9565b868310156200052057848901516200051c601f89168262000410565b8355505b6001600288020188555050505b505050505050565b60805160a051615faf6200056260003960006106bd01526000818161088d01526112410152615faf6000f3fe60806040523480156200001157600080fd5b5060043610620001545760003560e01c8063622203be11620000c9578063a85292df1162000087578063a85292df1462000407578063a9059cbb1462000429578063aea3ee43146200045f578063c34902631462000495578063dd62ed3e14620004cb578063f2ee634d14620005015762000154565b8063622203be146200030d5780636407019c146200034357806370a08231146200037957806395d89b4114620003af578063a457c2d714620003d15762000154565b80632da9818111620001175780632da98181146200023f5780633038e8c91462000275578063313ce56714620002955780633950935114620002b757806343a4693114620002ed5762000154565b806306fdde031462000159578063095ea7b3146200017b57806318160ddd14620001b15780632331a50e14620001d357806323b872dd1462000209575b600080fd5b6200016362000537565b60405162000172919062001b0f565b60405180910390f35b62000199600480360381019062000193919062001be7565b620005d1565b604051620001a8919062001c4b565b60405180910390f35b620001bb620005f8565b604051620001ca919062001c79565b60405180910390f35b620001f16004803603810190620001eb919062001c96565b62000602565b60405162000200919062001d4b565b60405180910390f35b62000227600480360381019062000221919062001d68565b6200066e565b60405162000236919062001c4b565b60405180910390f35b6200025d600480360381019062000257919062001e09565b620006a3565b6040516200026c919062001c79565b60405180910390f35b6200029360048036038101906200028d919062001f8c565b620006bb565b005b6200029f62000843565b604051620002ae91906200202f565b60405180910390f35b620002d56004803603810190620002cf919062001be7565b6200084c565b604051620002e4919062001c4b565b60405180910390f35b6200030b60048036038101906200030591906200204c565b6200088b565b005b6200032b600480360381019062000325919062001e09565b62000b19565b6040516200033a919062001c79565b60405180910390f35b6200036160048036038101906200035b9190620020b2565b62000b62565b60405162000370919062001c79565b60405180910390f35b620003976004803603810190620003919190620020e4565b62000c10565b604051620003a6919062001c79565b60405180910390f35b620003b962000c58565b604051620003c8919062001b0f565b60405180910390f35b620003ef6004803603810190620003e9919062001be7565b62000cf2565b604051620003fe919062001c4b565b60405180910390f35b6200041162000d72565b60405162000420919062001c79565b60405180910390f35b62000447600480360381019062000441919062001be7565b62000d7e565b60405162000456919062001c4b565b60405180910390f35b6200047d6004803603810190620004779190620020b2565b62000da5565b6040516200048c919062002181565b60405180910390f35b620004b36004803603810190620004ad919062001c96565b62000dd8565b604051620004c2919062001c4b565b60405180910390f35b620004e96004803603810190620004e391906200219e565b62001090565b604051620004f8919062001c79565b60405180910390f35b6200051f600480360381019062000519919062001c96565b62001117565b6040516200052e919062001c4b565b60405180910390f35b606060038054620005489062002214565b80601f0160208091040260200160405190810160405280929190818152602001828054620005769062002214565b8015620005c75780601f106200059b57610100808354040283529160200191620005c7565b820191906000526020600020905b815481529060010190602001808311620005a957829003601f168201915b5050505050905090565b600080620005de620013ae565b9050620005ed818585620013b6565b600191505092915050565b6000600254905090565b6200060c62001a3f565b600860008481526020019081526020016000206000016000838152602001908152602001600020604051806080016040529081600082015481526020016001820154815260200160028201548152602001600382015481525050905092915050565b6000806200067b620013ae565b90506200068a85828562001587565b620006978585856200161b565b60019150509392505050565b60076020528060005260406000206000915090505481565b7f000000000000000000000000000000000000000000000000000000000000000073ffffffffffffffffffffffffffffffffffffffff163373ffffffffffffffffffffffffffffffffffffffff16146200074c576040517f08c379a0000000000000000000000000000000000000000000000000000000008152600401620007439062002299565b60405180910390fd5b620007586005620018a0565b6000620007666005620018b6565b9050600083836040516200077a9062001a67565b62000787929190620022bb565b604051809103906000f080158015620007a4573d6000803e3d6000fd5b509050806006600084815260200190815260200160002060006101000a81548173ffffffffffffffffffffffffffffffffffffffff021916908373ffffffffffffffffffffffffffffffffffffffff16021790555081600760008373ffffffffffffffffffffffffffffffffffffffff1673ffffffffffffffffffffffffffffffffffffffff1681526020019081526020016000208190555050505050565b60006012905090565b60008062000859620013ae565b9050620008808185856200086e858962001090565b6200087a919062002325565b620013b6565b600191505092915050565b7f000000000000000000000000000000000000000000000000000000000000000073ffffffffffffffffffffffffffffffffffffffff166323b872dd33306a0422ca8b0a00a4250000006040518463ffffffff1660e01b8152600401620008f593929190620023b4565b6020604051808303816000875af115801562000915573d6000803e3d6000fd5b505050506040513d601f19601f820116820180604052508101906200093b919062002422565b6200097d576040517f08c379a00000000000000000000000000000000000000000000000000000000081526004016200097490620024a4565b60405180910390fd5b60006006600084815260200190815260200160002060009054906101000a900473ffffffffffffffffffffffffffffffffffffffff1690508073ffffffffffffffffffffffffffffffffffffffff1663d204c45e33846040518363ffffffff1660e01b8152600401620009f2929190620024c6565b600060405180830381600087803b15801562000a0d57600080fd5b505af115801562000a22573d6000803e3d6000fd5b5050505060008173ffffffffffffffffffffffffffffffffffffffff166398bdf6f56040518163ffffffff1660e01b8152600401602060405180830381865afa15801562000a74573d6000803e3d6000fd5b505050506040513d601f19601f8201168201806040525081019062000a9a919062002511565b9050604051806080016040528060008152602001600081526020016000815260200160008152506008600086815260200190815260200160002060000160008381526020019081526020016000206000820151816000015560208201518160010155604082015181600201556060820151816003015590505050505050565b6000600760008373ffffffffffffffffffffffffffffffffffffffff1673ffffffffffffffffffffffffffffffffffffffff168152602001908152602001600020549050919050565b60006006600083815260200190815260200160002060009054906101000a900473ffffffffffffffffffffffffffffffffffffffff1673ffffffffffffffffffffffffffffffffffffffff166398bdf6f56040518163ffffffff1660e01b8152600401602060405180830381865afa15801562000be3573d6000803e3d6000fd5b505050506040513d601f19601f8201168201806040525081019062000c09919062002511565b9050919050565b60008060008373ffffffffffffffffffffffffffffffffffffffff1673ffffffffffffffffffffffffffffffffffffffff168152602001908152602001600020549050919050565b60606004805462000c699062002214565b80601f016020809104026020016040519081016040528092919081815260200182805462000c979062002214565b801562000ce85780601f1062000cbc5761010080835404028352916020019162000ce8565b820191906000526020600020905b81548152906001019060200180831162000cca57829003601f168201915b5050505050905090565b60008062000cff620013ae565b9050600062000d0f828662001090565b90508381101562000d57576040517f08c379a000000000000000000000000000000000000000000000000000000000815260040162000d4e90620025b9565b60405180910390fd5b62000d668286868403620013b6565b60019250505092915050565b60058060000154905081565b60008062000d8b620013ae565b905062000d9a8185856200161b565b600191505092915050565b60066020528060005260406000206000915054906101000a900473ffffffffffffffffffffffffffffffffffffffff1681565b6000806006600085815260200190815260200160002060009054906101000a900473ffffffffffffffffffffffffffffffffffffffff1690503373ffffffffffffffffffffffffffffffffffffffff168173ffffffffffffffffffffffffffffffffffffffff16636352211e856040518263ffffffff1660e01b815260040162000e63919062001c79565b602060405180830381865afa15801562000e81573d6000803e3d6000fd5b505050506040513d601f19601f8201168201806040525081019062000ea79190620025f2565b73ffffffffffffffffffffffffffffffffffffffff161462000f00576040517f08c379a000000000000000000000000000000000000000000000000000000000815260040162000ef79062002674565b60405180910390fd5b61a8c0600860008681526020019081526020016000206000016000858152602001908152602001600020600001544262000f3b919062002696565b111562000f7f576040517f08c379a000000000000000000000000000000000000000000000000000000000815260040162000f769062002721565b60405180910390fd5b62015180600860008681526020019081526020016000206000016000858152602001908152602001600020600101544262000fbb919062002696565b1162000ffe576040517f08c379a000000000000000000000000000000000000000000000000000000000815260040162000ff59062002793565b60405180910390fd5b4260086000868152602001908152602001600020600001600085815260200190815260200160002060010181905550600560086000868152602001908152602001600020600001600085815260200190815260200160002060030160008282546200106a919062002325565b925050819055506200108533674563918244f40000620018c4565b600191505092915050565b6000600160008473ffffffffffffffffffffffffffffffffffffffff1673ffffffffffffffffffffffffffffffffffffffff16815260200190815260200160002060008373ffffffffffffffffffffffffffffffffffffffff1673ffffffffffffffffffffffffffffffffffffffff16815260200190815260200160002054905092915050565b6000806006600085815260200190815260200160002060009054906101000a900473ffffffffffffffffffffffffffffffffffffffff1690503373ffffffffffffffffffffffffffffffffffffffff168173ffffffffffffffffffffffffffffffffffffffff16636352211e856040518263ffffffff1660e01b8152600401620011a2919062001c79565b602060405180830381865afa158015620011c0573d6000803e3d6000fd5b505050506040513d601f19601f82011682018060405250810190620011e69190620025f2565b73ffffffffffffffffffffffffffffffffffffffff16146200123f576040517f08c379a0000000000000000000000000000000000000000000000000000000008152600401620012369062002674565b60405180910390fd5b7f000000000000000000000000000000000000000000000000000000000000000073ffffffffffffffffffffffffffffffffffffffff166323b872dd333069d3c21bcecceda10000006040518463ffffffff1660e01b8152600401620012a893929190620027f8565b6020604051808303816000875af1158015620012c8573d6000803e3d6000fd5b505050506040513d601f19601f82011682018060405250810190620012ee919062002422565b62001330576040517f08c379a00000000000000000000000000000000000000000000000000000000081526004016200132790620024a4565b60405180910390fd5b4260086000868152602001908152602001600020600001600085815260200190815260200160002060000181905550600160086000868152602001908152602001600020600001600085815260200190815260200160002060020160008282546200139c919062002325565b92505081905550600191505092915050565b600033905090565b600073ffffffffffffffffffffffffffffffffffffffff168373ffffffffffffffffffffffffffffffffffffffff160362001428576040517f08c379a00000000000000000000000000000000000000000000000000000000081526004016200141f90620028ab565b60405180910390fd5b600073ffffffffffffffffffffffffffffffffffffffff168273ffffffffffffffffffffffffffffffffffffffff16036200149a576040517f08c379a0000000000000000000000000000000000000000000000000000000008152600401620014919062002943565b60405180910390fd5b80600160008573ffffffffffffffffffffffffffffffffffffffff1673ffffffffffffffffffffffffffffffffffffffff16815260200190815260200160002060008473ffffffffffffffffffffffffffffffffffffffff1673ffffffffffffffffffffffffffffffffffffffff168152602001908152602001600020819055508173ffffffffffffffffffffffffffffffffffffffff168373ffffffffffffffffffffffffffffffffffffffff167f8c5be1e5ebec7d5bd14f71427d1e84f3dd0314c0f7b2291e5b200ac8c7c3b925836040516200157a919062001c79565b60405180910390a3505050565b600062001595848462001090565b90507fffffffffffffffffffffffffffffffffffffffffffffffffffffffffffffffff811462001615578181101562001605576040517f08c379a0000000000000000000000000000000000000000000000000000000008152600401620015fc90620029b5565b60405180910390fd5b620016148484848403620013b6565b5b50505050565b600073ffffffffffffffffffffffffffffffffffffffff168373ffffffffffffffffffffffffffffffffffffffff16036200168d576040517f08c379a0000000000000000000000000000000000000000000000000000000008152600401620016849062002a4d565b60405180910390fd5b600073ffffffffffffffffffffffffffffffffffffffff168273ffffffffffffffffffffffffffffffffffffffff1603620016ff576040517f08c379a0000000000000000000000000000000000000000000000000000000008152600401620016f69062002ae5565b60405180910390fd5b6200170c838383620018d4565b60008060008573ffffffffffffffffffffffffffffffffffffffff1673ffffffffffffffffffffffffffffffffffffffff1681526020019081526020016000205490508181101562001795576040517f08c379a00000000000000000000000000000000000000000000000000000000081526004016200178c9062002b7d565b60405180910390fd5b8181036000808673ffffffffffffffffffffffffffffffffffffffff1673ffffffffffffffffffffffffffffffffffffffff16815260200190815260200160002081905550816000808573ffffffffffffffffffffffffffffffffffffffff1673ffffffffffffffffffffffffffffffffffffffff168152602001908152602001600020600082825401925050819055508273ffffffffffffffffffffffffffffffffffffffff168473ffffffffffffffffffffffffffffffffffffffff167fddf252ad1be2c89b69c2b068fc378daa952ba7f163c4a11628f55a4df523b3ef8460405162001885919062001c79565b60405180910390a36200189a848484620018d9565b50505050565b6001816000016000828254019250508190555050565b600081600001549050919050565b620018d08282620018de565b5050565b505050565b505050565b600073ffffffffffffffffffffffffffffffffffffffff168273ffffffffffffffffffffffffffffffffffffffff160362001950576040517f08c379a0000000000000000000000000000000000000000000000000000000008152600401620019479062002bef565b60405180910390fd5b6200195e60008383620018d4565b806002600082825462001972919062002325565b92505081905550806000808473ffffffffffffffffffffffffffffffffffffffff1673ffffffffffffffffffffffffffffffffffffffff168152602001908152602001600020600082825401925050819055508173ffffffffffffffffffffffffffffffffffffffff16600073ffffffffffffffffffffffffffffffffffffffff167fddf252ad1be2c89b69c2b068fc378daa952ba7f163c4a11628f55a4df523b3ef8360405162001a25919062001c79565b60405180910390a362001a3b60008383620018d9565b5050565b6040518060800160405280600081526020016000815260200160008152602001600081525090565b6133688062002c1283390190565b600081519050919050565b600082825260208201905092915050565b60005b8381101562001ab157808201518184015260208101905062001a94565b60008484015250505050565b6000601f19601f8301169050919050565b600062001adb8262001a75565b62001ae7818562001a80565b935062001af981856020860162001a91565b62001b048162001abd565b840191505092915050565b6000602082019050818103600083015262001b2b818462001ace565b905092915050565b6000604051905090565b600080fd5b600080fd5b600073ffffffffffffffffffffffffffffffffffffffff82169050919050565b600062001b748262001b47565b9050919050565b62001b868162001b67565b811462001b9257600080fd5b50565b60008135905062001ba68162001b7b565b92915050565b6000819050919050565b62001bc18162001bac565b811462001bcd57600080fd5b50565b60008135905062001be18162001bb6565b92915050565b6000806040838503121562001c015762001c0062001b3d565b5b600062001c118582860162001b95565b925050602062001c248582860162001bd0565b9150509250929050565b60008115159050919050565b62001c458162001c2e565b82525050565b600060208201905062001c62600083018462001c3a565b92915050565b62001c738162001bac565b82525050565b600060208201905062001c90600083018462001c68565b92915050565b6000806040838503121562001cb05762001caf62001b3d565b5b600062001cc08582860162001bd0565b925050602062001cd38582860162001bd0565b9150509250929050565b62001ce88162001bac565b82525050565b60808201600082015162001d06600085018262001cdd565b50602082015162001d1b602085018262001cdd565b50604082015162001d30604085018262001cdd565b50606082015162001d45606085018262001cdd565b50505050565b600060808201905062001d62600083018462001cee565b92915050565b60008060006060848603121562001d845762001d8362001b3d565b5b600062001d948682870162001b95565b935050602062001da78682870162001b95565b925050604062001dba8682870162001bd0565b9150509250925092565b600062001dd18262001b67565b9050919050565b62001de38162001dc4565b811462001def57600080fd5b50565b60008135905062001e038162001dd8565b92915050565b60006020828403121562001e225762001e2162001b3d565b5b600062001e328482850162001df2565b91505092915050565b600080fd5b600080fd5b7f4e487b7100000000000000000000000000000000000000000000000000000000600052604160045260246000fd5b62001e7f8262001abd565b810181811067ffffffffffffffff8211171562001ea15762001ea062001e45565b5b80604052505050565b600062001eb662001b33565b905062001ec4828262001e74565b919050565b600067ffffffffffffffff82111562001ee75762001ee662001e45565b5b62001ef28262001abd565b9050602081019050919050565b82818337600083830152505050565b600062001f2562001f1f8462001ec9565b62001eaa565b90508281526020810184848401111562001f445762001f4362001e40565b5b62001f5184828562001eff565b509392505050565b600082601f83011262001f715762001f7062001e3b565b5b813562001f8384826020860162001f0e565b91505092915050565b6000806040838503121562001fa65762001fa562001b3d565b5b600083013567ffffffffffffffff81111562001fc75762001fc662001b42565b5b62001fd58582860162001f59565b925050602083013567ffffffffffffffff81111562001ff95762001ff862001b42565b5b620020078582860162001f59565b9150509250929050565b600060ff82169050919050565b620020298162002011565b82525050565b60006020820190506200204660008301846200201e565b92915050565b6000806040838503121562002066576200206562001b3d565b5b6000620020768582860162001bd0565b925050602083013567ffffffffffffffff8111156200209a576200209962001b42565b5b620020a88582860162001f59565b9150509250929050565b600060208284031215620020cb57620020ca62001b3d565b5b6000620020db8482850162001bd0565b91505092915050565b600060208284031215620020fd57620020fc62001b3d565b5b60006200210d8482850162001b95565b91505092915050565b6000819050919050565b6000620021416200213b620021358462001b47565b62002116565b62001b47565b9050919050565b6000620021558262002120565b9050919050565b6000620021698262002148565b9050919050565b6200217b816200215c565b82525050565b600060208201905062002198600083018462002170565b92915050565b60008060408385031215620021b857620021b762001b3d565b5b6000620021c88582860162001b95565b9250506020620021db8582860162001b95565b9150509250929050565b7f4e487b7100000000000000000000000000000000000000000000000000000000600052602260045260246000fd5b600060028204905060018216806200222d57607f821691505b602082108103620022435762002242620021e5565b5b50919050565b7f4e6f706521000000000000000000000000000000000000000000000000000000600082015250565b60006200228160058362001a80565b91506200228e8262002249565b602082019050919050565b60006020820190508181036000830152620022b48162002272565b9050919050565b60006040820190508181036000830152620022d7818562001ace565b90508181036020830152620022ed818462001ace565b90509392505050565b7f4e487b7100000000000000000000000000000000000000000000000000000000600052601160045260246000fd5b6000620023328262001bac565b91506200233f8362001bac565b92508282019050808211156200235a5762002359620022f6565b5b92915050565b6200236b8162001b67565b82525050565b6000819050919050565b60006200239c62002396620023908462002371565b62002116565b62001bac565b9050919050565b620023ae816200237b565b82525050565b6000606082019050620023cb600083018662002360565b620023da602083018562002360565b620023e96040830184620023a3565b949350505050565b620023fc8162001c2e565b81146200240857600080fd5b50565b6000815190506200241c81620023f1565b92915050565b6000602082840312156200243b576200243a62001b3d565b5b60006200244b848285016200240b565b91505092915050565b7f53544e4541523a207472616e7366657246726f6d206661696c65640000000000600082015250565b60006200248c601b8362001a80565b9150620024998262002454565b602082019050919050565b60006020820190508181036000830152620024bf816200247d565b9050919050565b6000604082019050620024dd600083018562002360565b8181036020830152620024f1818462001ace565b90509392505050565b6000815190506200250b8162001bb6565b92915050565b6000602082840312156200252a576200252962001b3d565b5b60006200253a84828501620024fa565b91505092915050565b7f45524332303a2064656372656173656420616c6c6f77616e63652062656c6f7760008201527f207a65726f000000000000000000000000000000000000000000000000000000602082015250565b6000620025a160258362001a80565b9150620025ae8262002543565b604082019050919050565b60006020820190508181036000830152620025d48162002592565b9050919050565b600081519050620025ec8162001b7b565b92915050565b6000602082840312156200260b576200260a62001b3d565b5b60006200261b84828501620025db565b91505092915050565b7f596f7520617265206e6f7420746865206f776e65720000000000000000000000600082015250565b60006200265c60158362001a80565b9150620026698262002624565b602082019050919050565b600060208201905081810360008301526200268f816200264d565b9050919050565b6000620026a38262001bac565b9150620026b08362001bac565b9250828203905081811115620026cb57620026ca620022f6565b5b92915050565b7f5761746572204669727374000000000000000000000000000000000000000000600082015250565b600062002709600b8362001a80565b91506200271682620026d1565b602082019050919050565b600060208201905081810360008301526200273c81620026fa565b9050919050565b7f43616e277420436c61696d000000000000000000000000000000000000000000600082015250565b60006200277b600b8362001a80565b9150620027888262002743565b602082019050919050565b60006020820190508181036000830152620027ae816200276c565b9050919050565b6000819050919050565b6000620027e0620027da620027d484620027b5565b62002116565b62001bac565b9050919050565b620027f281620027bf565b82525050565b60006060820190506200280f600083018662002360565b6200281e602083018562002360565b6200282d6040830184620027e7565b949350505050565b7f45524332303a20617070726f76652066726f6d20746865207a65726f2061646460008201527f7265737300000000000000000000000000000000000000000000000000000000602082015250565b60006200289360248362001a80565b9150620028a08262002835565b604082019050919050565b60006020820190508181036000830152620028c68162002884565b9050919050565b7f45524332303a20617070726f766520746f20746865207a65726f20616464726560008201527f7373000000000000000000000000000000000000000000000000000000000000602082015250565b60006200292b60228362001a80565b91506200293882620028cd565b604082019050919050565b600060208201905081810360008301526200295e816200291c565b9050919050565b7f45524332303a20696e73756666696369656e7420616c6c6f77616e6365000000600082015250565b60006200299d601d8362001a80565b9150620029aa8262002965565b602082019050919050565b60006020820190508181036000830152620029d0816200298e565b9050919050565b7f45524332303a207472616e736665722066726f6d20746865207a65726f20616460008201527f6472657373000000000000000000000000000000000000000000000000000000602082015250565b600062002a3560258362001a80565b915062002a4282620029d7565b604082019050919050565b6000602082019050818103600083015262002a688162002a26565b9050919050565b7f45524332303a207472616e7366657220746f20746865207a65726f206164647260008201527f6573730000000000000000000000000000000000000000000000000000000000602082015250565b600062002acd60238362001a80565b915062002ada8262002a6f565b604082019050919050565b6000602082019050818103600083015262002b008162002abe565b9050919050565b7f45524332303a207472616e7366657220616d6f756e742065786365656473206260008201527f616c616e63650000000000000000000000000000000000000000000000000000602082015250565b600062002b6560268362001a80565b915062002b728262002b07565b604082019050919050565b6000602082019050818103600083015262002b988162002b56565b9050919050565b7f45524332303a206d696e7420746f20746865207a65726f206164647265737300600082015250565b600062002bd7601f8362001a80565b915062002be48262002b9f565b602082019050919050565b6000602082019050818103600083015262002c0a8162002bc8565b905091905056fe60a06040523480156200001157600080fd5b50604051620033683803806200336883398181016040528101906200003791906200022e565b818181600090816200004a9190620004fe565b5080600190816200005c9190620004fe565b5050503373ffffffffffffffffffffffffffffffffffffffff1660808173ffffffffffffffffffffffffffffffffffffffff16815250505050620005e5565b6000604051905090565b600080fd5b600080fd5b600080fd5b600080fd5b6000601f19601f8301169050919050565b7f4e487b7100000000000000000000000000000000000000000000000000000000600052604160045260246000fd5b6200010482620000b9565b810181811067ffffffffffffffff82111715620001265762000125620000ca565b5b80604052505050565b60006200013b6200009b565b9050620001498282620000f9565b919050565b600067ffffffffffffffff8211156200016c576200016b620000ca565b5b6200017782620000b9565b9050602081019050919050565b60005b83811015620001a457808201518184015260208101905062000187565b60008484015250505050565b6000620001c7620001c1846200014e565b6200012f565b905082815260208101848484011115620001e657620001e5620000b4565b5b620001f384828562000184565b509392505050565b600082601f830112620002135762000212620000af565b5b815162000225848260208601620001b0565b91505092915050565b60008060408385031215620002485762000247620000a5565b5b600083015167ffffffffffffffff811115620002695762000268620000aa565b5b6200027785828601620001fb565b925050602083015167ffffffffffffffff8111156200029b576200029a620000aa565b5b620002a985828601620001fb565b9150509250929050565b600081519050919050565b7f4e487b7100000000000000000000000000000000000000000000000000000000600052602260045260246000fd5b600060028204905060018216806200030657607f821691505b6020821081036200031c576200031b620002be565b5b50919050565b60008190508160005260206000209050919050565b60006020601f8301049050919050565b600082821b905092915050565b600060088302620003867fffffffffffffffffffffffffffffffffffffffffffffffffffffffffffffffff8262000347565b62000392868362000347565b95508019841693508086168417925050509392505050565b6000819050919050565b6000819050919050565b6000620003df620003d9620003d384620003aa565b620003b4565b620003aa565b9050919050565b6000819050919050565b620003fb83620003be565b620004136200040a82620003e6565b84845462000354565b825550505050565b600090565b6200042a6200041b565b62000437818484620003f0565b505050565b5b818110156200045f576200045360008262000420565b6001810190506200043d565b5050565b601f821115620004ae57620004788162000322565b620004838462000337565b8101602085101562000493578190505b620004ab620004a28562000337565b8301826200043c565b50505b505050565b600082821c905092915050565b6000620004d360001984600802620004b3565b1980831691505092915050565b6000620004ee8383620004c0565b9150826002028217905092915050565b6200050982620002b3565b67ffffffffffffffff811115620005255762000524620000ca565b5b620005318254620002ed565b6200053e82828562000463565b600060209050601f83116001811462000576576000841562000561578287015190505b6200056d8582620004e0565b865550620005dd565b601f198416620005868662000322565b60005b82811015620005b05784890151825560018201915060208501945060208101905062000589565b86831015620005d05784890151620005cc601f891682620004c0565b8355505b6001600288020188555050505b505050505050565b608051612d676200060160003960006108040152612d676000f3fe608060405234801561001057600080fd5b50600436106100f55760003560e01c806370a0823111610097578063b88d4fde11610066578063b88d4fde14610284578063c87b56dd146102a0578063d204c45e146102d0578063e985e9c5146102ec576100f5565b806370a08231146101fc57806395d89b411461022c57806398bdf6f51461024a578063a22cb46514610268576100f5565b8063095ea7b3116100d3578063095ea7b31461017857806323b872dd1461019457806342842e0e146101b05780636352211e146101cc576100f5565b806301ffc9a7146100fa57806306fdde031461012a578063081812fc14610148575b600080fd5b610114600480360381019061010f9190611b58565b61031c565b6040516101219190611ba0565b60405180910390f35b61013261032e565b60405161013f9190611c4b565b60405180910390f35b610162600480360381019061015d9190611ca3565b6103c0565b60405161016f9190611d11565b60405180910390f35b610192600480360381019061018d9190611d58565b610406565b005b6101ae60048036038101906101a99190611d98565b61051d565b005b6101ca60048036038101906101c59190611d98565b61057d565b005b6101e660048036038101906101e19190611ca3565b61059d565b6040516101f39190611d11565b60405180910390f35b61021660048036038101906102119190611deb565b610623565b6040516102239190611e27565b60405180910390f35b6102346106da565b6040516102419190611c4b565b60405180910390f35b61025261076c565b60405161025f9190611e27565b60405180910390f35b610282600480360381019061027d9190611e6e565b610778565b005b61029e60048036038101906102999190611fe3565b61078e565b005b6102ba60048036038101906102b59190611ca3565b6107f0565b6040516102c79190611c4b565b60405180910390f35b6102ea60048036038101906102e59190612107565b610802565b005b61030660048036038101906103019190612163565b610905565b6040516103139190611ba0565b60405180910390f35b600061032782610999565b9050919050565b60606000805461033d906121d2565b80601f0160208091040260200160405190810160405280929190818152602001828054610369906121d2565b80156103b65780601f1061038b576101008083540402835291602001916103b6565b820191906000526020600020905b81548152906001019060200180831161039957829003601f168201915b5050505050905090565b60006103cb826109fa565b6004600083815260200190815260200160002060009054906101000a900473ffffffffffffffffffffffffffffffffffffffff169050919050565b60006104118261059d565b90508073ffffffffffffffffffffffffffffffffffffffff168373ffffffffffffffffffffffffffffffffffffffff1603610481576040517f08c379a000000000000000000000000000000000000000000000000000000000815260040161047890612275565b60405180910390fd5b8073ffffffffffffffffffffffffffffffffffffffff166104a0610a45565b73ffffffffffffffffffffffffffffffffffffffff1614806104cf57506104ce816104c9610a45565b610905565b5b61050e576040517f08c379a000000000000000000000000000000000000000000000000000000000815260040161050590612307565b60405180910390fd5b6105188383610a4d565b505050565b61052e610528610a45565b82610b06565b61056d576040517f08c379a000000000000000000000000000000000000000000000000000000000815260040161056490612399565b60405180910390fd5b610578838383610b9b565b505050565b6105988383836040518060200160405280600081525061078e565b505050565b6000806105a983610e94565b9050600073ffffffffffffffffffffffffffffffffffffffff168173ffffffffffffffffffffffffffffffffffffffff160361061a576040517f08c379a000000000000000000000000000000000000000000000000000000000815260040161061190612405565b60405180910390fd5b80915050919050565b60008073ffffffffffffffffffffffffffffffffffffffff168273ffffffffffffffffffffffffffffffffffffffff1603610693576040517f08c379a000000000000000000000000000000000000000000000000000000000815260040161068a90612497565b60405180910390fd5b600360008373ffffffffffffffffffffffffffffffffffffffff1673ffffffffffffffffffffffffffffffffffffffff168152602001908152602001600020549050919050565b6060600180546106e9906121d2565b80601f0160208091040260200160405190810160405280929190818152602001828054610715906121d2565b80156107625780601f1061073757610100808354040283529160200191610762565b820191906000526020600020905b81548152906001019060200180831161074557829003601f168201915b5050505050905090565b60078060000154905081565b61078a610783610a45565b8383610ed1565b5050565b61079f610799610a45565b83610b06565b6107de576040517f08c379a00000000000000000000000000000000000000000000000000000000081526004016107d590612399565b60405180910390fd5b6107ea8484848461103d565b50505050565b60606107fb82611099565b9050919050565b7f000000000000000000000000000000000000000000000000000000000000000073ffffffffffffffffffffffffffffffffffffffff163373ffffffffffffffffffffffffffffffffffffffff1614610890576040517f08c379a000000000000000000000000000000000000000000000000000000000815260040161088790612503565b60405180910390fd5b61089a60076111ab565b60006108a660076111c1565b9050601e8111156108ec576040517f08c379a00000000000000000000000000000000000000000000000000000000081526004016108e390612595565b60405180910390fd5b6108f683826111cf565b61090081836111ed565b505050565b6000600560008473ffffffffffffffffffffffffffffffffffffffff1673ffffffffffffffffffffffffffffffffffffffff16815260200190815260200160002060008373ffffffffffffffffffffffffffffffffffffffff1673ffffffffffffffffffffffffffffffffffffffff16815260200190815260200160002060009054906101000a900460ff16905092915050565b6000634906490660e01b7bffffffffffffffffffffffffffffffffffffffffffffffffffffffff1916827bffffffffffffffffffffffffffffffffffffffffffffffffffffffff191614806109f357506109f282611291565b5b9050919050565b610a0381611373565b610a42576040517f08c379a0000000000000000000000000000000000000000000000000000000008152600401610a3990612405565b60405180910390fd5b50565b600033905090565b816004600083815260200190815260200160002060006101000a81548173ffffffffffffffffffffffffffffffffffffffff021916908373ffffffffffffffffffffffffffffffffffffffff160217905550808273ffffffffffffffffffffffffffffffffffffffff16610ac08361059d565b73ffffffffffffffffffffffffffffffffffffffff167f8c5be1e5ebec7d5bd14f71427d1e84f3dd0314c0f7b2291e5b200ac8c7c3b92560405160405180910390a45050565b600080610b128361059d565b90508073ffffffffffffffffffffffffffffffffffffffff168473ffffffffffffffffffffffffffffffffffffffff161480610b545750610b538185610905565b5b80610b9257508373ffffffffffffffffffffffffffffffffffffffff16610b7a846103c0565b73ffffffffffffffffffffffffffffffffffffffff16145b91505092915050565b8273ffffffffffffffffffffffffffffffffffffffff16610bbb8261059d565b73ffffffffffffffffffffffffffffffffffffffff1614610c11576040517f08c379a0000000000000000000000000000000000000000000000000000000008152600401610c0890612627565b60405180910390fd5b600073ffffffffffffffffffffffffffffffffffffffff168273ffffffffffffffffffffffffffffffffffffffff1603610c80576040517f08c379a0000000000000000000000000000000000000000000000000000000008152600401610c77906126b9565b60405180910390fd5b610c8d83838360016113b4565b8273ffffffffffffffffffffffffffffffffffffffff16610cad8261059d565b73ffffffffffffffffffffffffffffffffffffffff1614610d03576040517f08c379a0000000000000000000000000000000000000000000000000000000008152600401610cfa90612627565b60405180910390fd5b6004600082815260200190815260200160002060006101000a81549073ffffffffffffffffffffffffffffffffffffffff02191690556001600360008573ffffffffffffffffffffffffffffffffffffffff1673ffffffffffffffffffffffffffffffffffffffff168152602001908152602001600020600082825403925050819055506001600360008473ffffffffffffffffffffffffffffffffffffffff1673ffffffffffffffffffffffffffffffffffffffff16815260200190815260200160002060008282540192505081905550816002600083815260200190815260200160002060006101000a81548173ffffffffffffffffffffffffffffffffffffffff021916908373ffffffffffffffffffffffffffffffffffffffff160217905550808273ffffffffffffffffffffffffffffffffffffffff168473ffffffffffffffffffffffffffffffffffffffff167fddf252ad1be2c89b69c2b068fc378daa952ba7f163c4a11628f55a4df523b3ef60405160405180910390a4610e8f83838360016113ba565b505050565b60006002600083815260200190815260200160002060009054906101000a900473ffffffffffffffffffffffffffffffffffffffff169050919050565b8173ffffffffffffffffffffffffffffffffffffffff168373ffffffffffffffffffffffffffffffffffffffff1603610f3f576040517f08c379a0000000000000000000000000000000000000000000000000000000008152600401610f3690612725565b60405180910390fd5b80600560008573ffffffffffffffffffffffffffffffffffffffff1673ffffffffffffffffffffffffffffffffffffffff16815260200190815260200160002060008473ffffffffffffffffffffffffffffffffffffffff1673ffffffffffffffffffffffffffffffffffffffff16815260200190815260200160002060006101000a81548160ff0219169083151502179055508173ffffffffffffffffffffffffffffffffffffffff168373ffffffffffffffffffffffffffffffffffffffff167f17307eab39ab6107e8899845ad3d59bd9653f200f220920489ca2b5937696c31836040516110309190611ba0565b60405180910390a3505050565b611048848484610b9b565b611054848484846113c0565b611093576040517f08c379a000000000000000000000000000000000000000000000000000000000815260040161108a906127b7565b60405180910390fd5b50505050565b60606110a4826109fa565b60006006600084815260200190815260200160002080546110c4906121d2565b80601f01602080910402602001604051908101604052809291908181526020018280546110f0906121d2565b801561113d5780601f106111125761010080835404028352916020019161113d565b820191906000526020600020905b81548152906001019060200180831161112057829003601f168201915b50505050509050600061114e611547565b905060008151036111635781925050506111a6565b600082511115611198578082604051602001611180929190612813565b604051602081830303815290604052925050506111a6565b6111a18461155e565b925050505b919050565b6001816000016000828254019250508190555050565b600081600001549050919050565b6111e98282604051806020016040528060008152506115c6565b5050565b6111f682611373565b611235576040517f08c379a000000000000000000000000000000000000000000000000000000000815260040161122c906128a9565b60405180910390fd5b806006600084815260200190815260200160002090816112559190612a75565b507ff8e1a15aba9398e019f0b49df1a4fde98ee17ae345cb5f6b5e2c27f5033e8ce7826040516112859190611e27565b60405180910390a15050565b60007f80ac58cd000000000000000000000000000000000000000000000000000000007bffffffffffffffffffffffffffffffffffffffffffffffffffffffff1916827bffffffffffffffffffffffffffffffffffffffffffffffffffffffff1916148061135c57507f5b5e139f000000000000000000000000000000000000000000000000000000007bffffffffffffffffffffffffffffffffffffffffffffffffffffffff1916827bffffffffffffffffffffffffffffffffffffffffffffffffffffffff1916145b8061136c575061136b82611621565b5b9050919050565b60008073ffffffffffffffffffffffffffffffffffffffff1661139583610e94565b73ffffffffffffffffffffffffffffffffffffffff1614159050919050565b50505050565b50505050565b60006113e18473ffffffffffffffffffffffffffffffffffffffff1661168b565b1561153a578373ffffffffffffffffffffffffffffffffffffffff1663150b7a0261140a610a45565b8786866040518563ffffffff1660e01b815260040161142c9493929190612b9c565b6020604051808303816000875af192505050801561146857506040513d601f19601f820116820180604052508101906114659190612bfd565b60015b6114ea573d8060008114611498576040519150601f19603f3d011682016040523d82523d6000602084013e61149d565b606091505b5060008151036114e2576040517f08c379a00000000000000000000000000000000000000000000000000000000081526004016114d9906127b7565b60405180910390fd5b805181602001fd5b63150b7a0260e01b7bffffffffffffffffffffffffffffffffffffffffffffffffffffffff1916817bffffffffffffffffffffffffffffffffffffffffffffffffffffffff19161491505061153f565b600190505b949350505050565b606060405180602001604052806000815250905090565b6060611569826109fa565b6000611573611547565b9050600081511161159357604051806020016040528060008152506115be565b8061159d846116ae565b6040516020016115ae929190612813565b6040516020818303038152906040525b915050919050565b6115d0838361177c565b6115dd60008484846113c0565b61161c576040517f08c379a0000000000000000000000000000000000000000000000000000000008152600401611613906127b7565b60405180910390fd5b505050565b60007f01ffc9a7000000000000000000000000000000000000000000000000000000007bffffffffffffffffffffffffffffffffffffffffffffffffffffffff1916827bffffffffffffffffffffffffffffffffffffffffffffffffffffffff1916149050919050565b6000808273ffffffffffffffffffffffffffffffffffffffff163b119050919050565b6060600060016116bd84611999565b01905060008167ffffffffffffffff8111156116dc576116db611eb8565b5b6040519080825280601f01601f19166020018201604052801561170e5781602001600182028036833780820191505090505b509050600082602001820190505b600115611771578080600190039150507f3031323334353637383961626364656600000000000000000000000000000000600a86061a8153600a858161176557611764612c2a565b5b0494506000850361171c575b819350505050919050565b600073ffffffffffffffffffffffffffffffffffffffff168273ffffffffffffffffffffffffffffffffffffffff16036117eb576040517f08c379a00000000000000000000000000000000000000000000000000000000081526004016117e290612ca5565b60405180910390fd5b6117f481611373565b15611834576040517f08c379a000000000000000000000000000000000000000000000000000000000815260040161182b90612d11565b60405180910390fd5b6118426000838360016113b4565b61184b81611373565b1561188b576040517f08c379a000000000000000000000000000000000000000000000000000000000815260040161188290612d11565b60405180910390fd5b6001600360008473ffffffffffffffffffffffffffffffffffffffff1673ffffffffffffffffffffffffffffffffffffffff16815260200190815260200160002060008282540192505081905550816002600083815260200190815260200160002060006101000a81548173ffffffffffffffffffffffffffffffffffffffff021916908373ffffffffffffffffffffffffffffffffffffffff160217905550808273ffffffffffffffffffffffffffffffffffffffff16600073ffffffffffffffffffffffffffffffffffffffff167fddf252ad1be2c89b69c2b068fc378daa952ba7f163c4a11628f55a4df523b3ef60405160405180910390a46119956000838360016113ba565b5050565b600080600090507a184f03e93ff9f4daa797ed6e38ed64bf6a1f01000000000000000083106119f7577a184f03e93ff9f4daa797ed6e38ed64bf6a1f01000000000000000083816119ed576119ec612c2a565b5b0492506040810190505b6d04ee2d6d415b85acef81000000008310611a34576d04ee2d6d415b85acef81000000008381611a2a57611a29612c2a565b5b0492506020810190505b662386f26fc100008310611a6357662386f26fc100008381611a5957611a58612c2a565b5b0492506010810190505b6305f5e1008310611a8c576305f5e1008381611a8257611a81612c2a565b5b0492506008810190505b6127108310611ab1576127108381611aa757611aa6612c2a565b5b0492506004810190505b60648310611ad45760648381611aca57611ac9612c2a565b5b0492506002810190505b600a8310611ae3576001810190505b80915050919050565b6000604051905090565b600080fd5b600080fd5b60007fffffffff0000000000000000000000000000000000000000000000000000000082169050919050565b611b3581611b00565b8114611b4057600080fd5b50565b600081359050611b5281611b2c565b92915050565b600060208284031215611b6e57611b6d611af6565b5b6000611b7c84828501611b43565b91505092915050565b60008115159050919050565b611b9a81611b85565b82525050565b6000602082019050611bb56000830184611b91565b92915050565b600081519050919050565b600082825260208201905092915050565b60005b83811015611bf5578082015181840152602081019050611bda565b60008484015250505050565b6000601f19601f8301169050919050565b6000611c1d82611bbb565b611c278185611bc6565b9350611c37818560208601611bd7565b611c4081611c01565b840191505092915050565b60006020820190508181036000830152611c658184611c12565b905092915050565b6000819050919050565b611c8081611c6d565b8114611c8b57600080fd5b50565b600081359050611c9d81611c77565b92915050565b600060208284031215611cb957611cb8611af6565b5b6000611cc784828501611c8e565b91505092915050565b600073ffffffffffffffffffffffffffffffffffffffff82169050919050565b6000611cfb82611cd0565b9050919050565b611d0b81611cf0565b82525050565b6000602082019050611d266000830184611d02565b92915050565b611d3581611cf0565b8114611d4057600080fd5b50565b600081359050611d5281611d2c565b92915050565b60008060408385031215611d6f57611d6e611af6565b5b6000611d7d85828601611d43565b9250506020611d8e85828601611c8e565b9150509250929050565b600080600060608486031215611db157611db0611af6565b5b6000611dbf86828701611d43565b9350506020611dd086828701611d43565b9250506040611de186828701611c8e565b9150509250925092565b600060208284031215611e0157611e00611af6565b5b6000611e0f84828501611d43565b91505092915050565b611e2181611c6d565b82525050565b6000602082019050611e3c6000830184611e18565b92915050565b611e4b81611b85565b8114611e5657600080fd5b50565b600081359050611e6881611e42565b92915050565b60008060408385031215611e8557611e84611af6565b5b6000611e9385828601611d43565b9250506020611ea485828601611e59565b9150509250929050565b600080fd5b600080fd5b7f4e487b7100000000000000000000000000000000000000000000000000000000600052604160045260246000fd5b611ef082611c01565b810181811067ffffffffffffffff82111715611f0f57611f0e611eb8565b5b80604052505050565b6000611f22611aec565b9050611f2e8282611ee7565b919050565b600067ffffffffffffffff821115611f4e57611f4d611eb8565b5b611f5782611c01565b9050602081019050919050565b82818337600083830152505050565b6000611f86611f8184611f33565b611f18565b905082815260208101848484011115611fa257611fa1611eb3565b5b611fad848285611f64565b509392505050565b600082601f830112611fca57611fc9611eae565b5b8135611fda848260208601611f73565b91505092915050565b60008060008060808587031215611ffd57611ffc611af6565b5b600061200b87828801611d43565b945050602061201c87828801611d43565b935050604061202d87828801611c8e565b925050606085013567ffffffffffffffff81111561204e5761204d611afb565b5b61205a87828801611fb5565b91505092959194509250565b600067ffffffffffffffff82111561208157612080611eb8565b5b61208a82611c01565b9050602081019050919050565b60006120aa6120a584612066565b611f18565b9050828152602081018484840111156120c6576120c5611eb3565b5b6120d1848285611f64565b509392505050565b600082601f8301126120ee576120ed611eae565b5b81356120fe848260208601612097565b91505092915050565b6000806040838503121561211e5761211d611af6565b5b600061212c85828601611d43565b925050602083013567ffffffffffffffff81111561214d5761214c611afb565b5b612159858286016120d9565b9150509250929050565b6000806040838503121561217a57612179611af6565b5b600061218885828601611d43565b925050602061219985828601611d43565b9150509250929050565b7f4e487b7100000000000000000000000000000000000000000000000000000000600052602260045260246000fd5b600060028204905060018216806121ea57607f821691505b6020821081036121fd576121fc6121a3565b5b50919050565b7f4552433732313a20617070726f76616c20746f2063757272656e74206f776e6560008201527f7200000000000000000000000000000000000000000000000000000000000000602082015250565b600061225f602183611bc6565b915061226a82612203565b604082019050919050565b6000602082019050818103600083015261228e81612252565b9050919050565b7f4552433732313a20617070726f76652063616c6c6572206973206e6f7420746f60008201527f6b656e206f776e6572206f7220617070726f76656420666f7220616c6c000000602082015250565b60006122f1603d83611bc6565b91506122fc82612295565b604082019050919050565b60006020820190508181036000830152612320816122e4565b9050919050565b7f4552433732313a2063616c6c6572206973206e6f7420746f6b656e206f776e6560008201527f72206f7220617070726f76656400000000000000000000000000000000000000602082015250565b6000612383602d83611bc6565b915061238e82612327565b604082019050919050565b600060208201905081810360008301526123b281612376565b9050919050565b7f4552433732313a20696e76616c696420746f6b656e2049440000000000000000600082015250565b60006123ef601883611bc6565b91506123fa826123b9565b602082019050919050565b6000602082019050818103600083015261241e816123e2565b9050919050565b7f4552433732313a2061646472657373207a65726f206973206e6f74206120766160008201527f6c6964206f776e65720000000000000000000000000000000000000000000000602082015250565b6000612481602983611bc6565b915061248c82612425565b604082019050919050565b600060208201905081810360008301526124b081612474565b9050919050565b7f596f7520646f206e6f7420686176652061636365737321000000000000000000600082015250565b60006124ed601783611bc6565b91506124f8826124b7565b602082019050919050565b6000602082019050818103600083015261251c816124e0565b9050919050565b7f54686572652063616e206265206f6e6c79203330204e46547320696e2061205460008201527f72656520436f6c6c656374696f6e210000000000000000000000000000000000602082015250565b600061257f602f83611bc6565b915061258a82612523565b604082019050919050565b600060208201905081810360008301526125ae81612572565b9050919050565b7f4552433732313a207472616e736665722066726f6d20696e636f72726563742060008201527f6f776e6572000000000000000000000000000000000000000000000000000000602082015250565b6000612611602583611bc6565b915061261c826125b5565b604082019050919050565b6000602082019050818103600083015261264081612604565b9050919050565b7f4552433732313a207472616e7366657220746f20746865207a65726f2061646460008201527f7265737300000000000000000000000000000000000000000000000000000000602082015250565b60006126a3602483611bc6565b91506126ae82612647565b604082019050919050565b600060208201905081810360008301526126d281612696565b9050919050565b7f4552433732313a20617070726f766520746f2063616c6c657200000000000000600082015250565b600061270f601983611bc6565b915061271a826126d9565b602082019050919050565b6000602082019050818103600083015261273e81612702565b9050919050565b7f4552433732313a207472616e7366657220746f206e6f6e20455243373231526560008201527f63656976657220696d706c656d656e7465720000000000000000000000000000602082015250565b60006127a1603283611bc6565b91506127ac82612745565b604082019050919050565b600060208201905081810360008301526127d081612794565b9050919050565b600081905092915050565b60006127ed82611bbb565b6127f781856127d7565b9350612807818560208601611bd7565b80840191505092915050565b600061281f82856127e2565b915061282b82846127e2565b91508190509392505050565b7f45524337323155524953746f726167653a2055524920736574206f66206e6f6e60008201527f6578697374656e7420746f6b656e000000000000000000000000000000000000602082015250565b6000612893602e83611bc6565b915061289e82612837565b604082019050919050565b600060208201905081810360008301526128c281612886565b9050919050565b60008190508160005260206000209050919050565b60006020601f8301049050919050565b600082821b905092915050565b60006008830261292b7fffffffffffffffffffffffffffffffffffffffffffffffffffffffffffffffff826128ee565b61293586836128ee565b95508019841693508086168417925050509392505050565b6000819050919050565b600061297261296d61296884611c6d565b61294d565b611c6d565b9050919050565b6000819050919050565b61298c83612957565b6129a061299882612979565b8484546128fb565b825550505050565b600090565b6129b56129a8565b6129c0818484612983565b505050565b5b818110156129e4576129d96000826129ad565b6001810190506129c6565b5050565b601f821115612a29576129fa816128c9565b612a03846128de565b81016020851015612a12578190505b612a26612a1e856128de565b8301826129c5565b50505b505050565b600082821c905092915050565b6000612a4c60001984600802612a2e565b1980831691505092915050565b6000612a658383612a3b565b9150826002028217905092915050565b612a7e82611bbb565b67ffffffffffffffff811115612a9757612a96611eb8565b5b612aa182546121d2565b612aac8282856129e8565b600060209050601f831160018114612adf5760008415612acd578287015190505b612ad78582612a59565b865550612b3f565b601f198416612aed866128c9565b60005b82811015612b1557848901518255600182019150602085019450602081019050612af0565b86831015612b325784890151612b2e601f891682612a3b565b8355505b6001600288020188555050505b505050505050565b600081519050919050565b600082825260208201905092915050565b6000612b6e82612b47565b612b788185612b52565b9350612b88818560208601611bd7565b612b9181611c01565b840191505092915050565b6000608082019050612bb16000830187611d02565b612bbe6020830186611d02565b612bcb6040830185611e18565b8181036060830152612bdd8184612b63565b905095945050505050565b600081519050612bf781611b2c565b92915050565b600060208284031215612c1357612c12611af6565b5b6000612c2184828501612be8565b91505092915050565b7f4e487b7100000000000000000000000000000000000000000000000000000000600052601260045260246000fd5b7f4552433732313a206d696e7420746f20746865207a65726f2061646472657373600082015250565b6000612c8f602083611bc6565b9150612c9a82612c59565b602082019050919050565b60006020820190508181036000830152612cbe81612c82565b9050919050565b7f4552433732313a20746f6b656e20616c7265616479206d696e74656400000000600082015250565b6000612cfb601c83611bc6565b9150612d0682612cc5565b602082019050919050565b60006020820190508181036000830152612d2a81612cee565b905091905056fea2646970667358221220db887bfa8ad700408d72bf753de162f50f085a15359fced96df368507ebdbc2d64736f6c63430008120033a2646970667358221220c473a741935ae389ffc3853b69f75e1af0868a3c9aecad9c2822739e3fd5183064736f6c63430008120033', \n     arguments: [\n          _token,\n     ]\n}).send({\n     from: web3.eth.accounts[0], \n     gas: '4700000'\n   }, function (e, contract){\n    console.log(e, contract);\n    if (typeof contract.address !== 'undefined') {\n         console.log('Contract mined! address: ' + contract.address + ' transactionHash: ' + contract.transactionHash);\n    }\n })",
	"functionHashes": {
		"39509351": "increaseAllowance(address,uint256)",
		"2da98181": "CollectionToID(address)",
		"a85292df": "TreeCollectionCounter()",
		"dd62ed3e": "allowance(address,address)",
		"095ea7b3": "approve(address,uint256)",
		"70a08231": "balanceOf(address)",
		"c3490263": "claim(uint256,uint256)",
		"313ce567": "decimals()",
		"a457c2d7": "decreaseAllowance(address,uint256)",
		"622203be": "getCollectionID(address)",
		"2331a50e": "getTreeDetails(uint256,uint256)",
		"3038e8c9": "mintNewTreeCollection(string,string)",
		"43a46931": "mintTree(uint256,string)",
		"06fdde03": "name()",
		"6407019c": "returnNFTcount(uint256)",
		"95d89b41": "symbol()",
		"18160ddd": "totalSupply()",
		"a9059cbb": "transfer(address,uint256)",
		"23b872dd": "transferFrom(address,address,uint256)",
		"aea3ee43": "treecollections(uint256)",
		"f2ee634d": "water(uint256,uint256)"
	},
	"gasEstimates": {
		"Creation": {
			"codeDepositCost": "4899000",
			"executionCost": "infinite",
			"totalCost": "infinite"
		},
		"External": {
			"CollectionToID(address)": "2880",
			"TreeCollectionCounter()": "2465",
			"allowance(address,address)": "infinite",
			"approve(address,uint256)": "infinite",
			"balanceOf(address)": "2908",
			"claim(uint256,uint256)": "infinite",
			"decimals()": "410",
			"decreaseAllowance(address,uint256)": "infinite",
			"getCollectionID(address)": "2907",
			"getTreeDetails(uint256,uint256)": "infinite",
			"increaseAllowance(address,uint256)": "infinite",
			"mintNewTreeCollection(string,string)": "infinite",
			"mintTree(uint256,string)": "infinite",
			"name()": "infinite",
			"returnNFTcount(uint256)": "infinite",
			"symbol()": "infinite",
			"totalSupply()": "2505",
			"transfer(address,uint256)": "infinite",
			"transferFrom(address,address,uint256)": "infinite",
			"treecollections(uint256)": "infinite",
			"water(uint256,uint256)": "infinite"
		},
		"Internal": {
			"mint(address,uint256)": "infinite"
		}
	},
	"devdoc": {
		"events": {
			"Approval(address,address,uint256)": {
				"details": "Emitted when the allowance of a `spender` for an `owner` is set by a call to {approve}. `value` is the new allowance."
			},
			"Transfer(address,address,uint256)": {
				"details": "Emitted when `value` tokens are moved from one account (`from`) to another (`to`). Note that `value` may be zero."
			}
		},
		"kind": "dev",
		"methods": {
			"allowance(address,address)": {
				"details": "See {IERC20-allowance}."
			},
			"approve(address,uint256)": {
				"details": "See {IERC20-approve}. NOTE: If `amount` is the maximum `uint256`, the allowance is not updated on `transferFrom`. This is semantically equivalent to an infinite approval. Requirements: - `spender` cannot be the zero address."
			},
			"balanceOf(address)": {
				"details": "See {IERC20-balanceOf}."
			},
			"decimals()": {
				"details": "Returns the number of decimals used to get its user representation. For example, if `decimals` equals `2`, a balance of `505` tokens should be displayed to a user as `5.05` (`505 / 10 ** 2`). Tokens usually opt for a value of 18, imitating the relationship between Ether and Wei. This is the default value returned by this function, unless it's overridden. NOTE: This information is only used for _display_ purposes: it in no way affects any of the arithmetic of the contract, including {IERC20-balanceOf} and {IERC20-transfer}."
			},
			"decreaseAllowance(address,uint256)": {
				"details": "Atomically decreases the allowance granted to `spender` by the caller. This is an alternative to {approve} that can be used as a mitigation for problems described in {IERC20-approve}. Emits an {Approval} event indicating the updated allowance. Requirements: - `spender` cannot be the zero address. - `spender` must have allowance for the caller of at least `subtractedValue`."
			},
			"increaseAllowance(address,uint256)": {
				"details": "Atomically increases the allowance granted to `spender` by the caller. This is an alternative to {approve} that can be used as a mitigation for problems described in {IERC20-approve}. Emits an {Approval} event indicating the updated allowance. Requirements: - `spender` cannot be the zero address."
			},
			"name()": {
				"details": "Returns the name of the token."
			},
			"symbol()": {
				"details": "Returns the symbol of the token, usually a shorter version of the name."
			},
			"totalSupply()": {
				"details": "See {IERC20-totalSupply}."
			},
			"transfer(address,uint256)": {
				"details": "See {IERC20-transfer}. Requirements: - `to` cannot be the zero address. - the caller must have a balance of at least `amount`."
			},
			"transferFrom(address,address,uint256)": {
				"details": "See {IERC20-transferFrom}. Emits an {Approval} event indicating the updated allowance. This is not required by the EIP. See the note at the beginning of {ERC20}. NOTE: Does not update the allowance if the current allowance is the maximum `uint256`. Requirements: - `from` and `to` cannot be the zero address. - `from` must have a balance of at least `amount`. - the caller must have allowance for ``from``'s tokens of at least `amount`."
			}
		},
		"version": 1
	},
	"userdoc": {
		"kind": "user",
		"methods": {},
		"version": 1
	},
	"Runtime Bytecode": {
		"immutableReferences": {
			"3639": [
				{
					"length": 32,
					"start": 2189
				},
				{
					"length": 32,
					"start": 4673
				}
			],
			"3641": [
				{
					"length": 32,
					"start": 1725
				}
			]
		},
		"linkReferences": {},
		"object": "60806040523480156200001157600080fd5b5060043610620001545760003560e01c8063622203be11620000c9578063a85292df1162000087578063a85292df1462000407578063a9059cbb1462000429578063aea3ee43146200045f578063c34902631462000495578063dd62ed3e14620004cb578063f2ee634d14620005015762000154565b8063622203be146200030d5780636407019c146200034357806370a08231146200037957806395d89b4114620003af578063a457c2d714620003d15762000154565b80632da9818111620001175780632da98181146200023f5780633038e8c91462000275578063313ce56714620002955780633950935114620002b757806343a4693114620002ed5762000154565b806306fdde031462000159578063095ea7b3146200017b57806318160ddd14620001b15780632331a50e14620001d357806323b872dd1462000209575b600080fd5b6200016362000537565b60405162000172919062001b0f565b60405180910390f35b62000199600480360381019062000193919062001be7565b620005d1565b604051620001a8919062001c4b565b60405180910390f35b620001bb620005f8565b604051620001ca919062001c79565b60405180910390f35b620001f16004803603810190620001eb919062001c96565b62000602565b60405162000200919062001d4b565b60405180910390f35b62000227600480360381019062000221919062001d68565b6200066e565b60405162000236919062001c4b565b60405180910390f35b6200025d600480360381019062000257919062001e09565b620006a3565b6040516200026c919062001c79565b60405180910390f35b6200029360048036038101906200028d919062001f8c565b620006bb565b005b6200029f62000843565b604051620002ae91906200202f565b60405180910390f35b620002d56004803603810190620002cf919062001be7565b6200084c565b604051620002e4919062001c4b565b60405180910390f35b6200030b60048036038101906200030591906200204c565b6200088b565b005b6200032b600480360381019062000325919062001e09565b62000b19565b6040516200033a919062001c79565b60405180910390f35b6200036160048036038101906200035b9190620020b2565b62000b62565b60405162000370919062001c79565b60405180910390f35b620003976004803603810190620003919190620020e4565b62000c10565b604051620003a6919062001c79565b60405180910390f35b620003b962000c58565b604051620003c8919062001b0f565b60405180910390f35b620003ef6004803603810190620003e9919062001be7565b62000cf2565b604051620003fe919062001c4b565b60405180910390f35b6200041162000d72565b60405162000420919062001c79565b60405180910390f35b62000447600480360381019062000441919062001be7565b62000d7e565b60405162000456919062001c4b565b60405180910390f35b6200047d6004803603810190620004779190620020b2565b62000da5565b6040516200048c919062002181565b60405180910390f35b620004b36004803603810190620004ad919062001c96565b62000dd8565b604051620004c2919062001c4b565b60405180910390f35b620004e96004803603810190620004e391906200219e565b62001090565b604051620004f8919062001c79565b60405180910390f35b6200051f600480360381019062000519919062001c96565b62001117565b6040516200052e919062001c4b565b60405180910390f35b606060038054620005489062002214565b80601f0160208091040260200160405190810160405280929190818152602001828054620005769062002214565b8015620005c75780601f106200059b57610100808354040283529160200191620005c7565b820191906000526020600020905b815481529060010190602001808311620005a957829003601f168201915b5050505050905090565b600080620005de620013ae565b9050620005ed818585620013b6565b600191505092915050565b6000600254905090565b6200060c62001a3f565b600860008481526020019081526020016000206000016000838152602001908152602001600020604051806080016040529081600082015481526020016001820154815260200160028201548152602001600382015481525050905092915050565b6000806200067b620013ae565b90506200068a85828562001587565b620006978585856200161b565b60019150509392505050565b60076020528060005260406000206000915090505481565b7f000000000000000000000000000000000000000000000000000000000000000073ffffffffffffffffffffffffffffffffffffffff163373ffffffffffffffffffffffffffffffffffffffff16146200074c576040517f08c379a0000000000000000000000000000000000000000000000000000000008152600401620007439062002299565b60405180910390fd5b620007586005620018a0565b6000620007666005620018b6565b9050600083836040516200077a9062001a67565b62000787929190620022bb565b604051809103906000f080158015620007a4573d6000803e3d6000fd5b509050806006600084815260200190815260200160002060006101000a81548173ffffffffffffffffffffffffffffffffffffffff021916908373ffffffffffffffffffffffffffffffffffffffff16021790555081600760008373ffffffffffffffffffffffffffffffffffffffff1673ffffffffffffffffffffffffffffffffffffffff1681526020019081526020016000208190555050505050565b60006012905090565b60008062000859620013ae565b9050620008808185856200086e858962001090565b6200087a919062002325565b620013b6565b600191505092915050565b7f000000000000000000000000000000000000000000000000000000000000000073ffffffffffffffffffffffffffffffffffffffff166323b872dd33306a0422ca8b0a00a4250000006040518463ffffffff1660e01b8152600401620008f593929190620023b4565b6020604051808303816000875af115801562000915573d6000803e3d6000fd5b505050506040513d601f19601f820116820180604052508101906200093b919062002422565b6200097d576040517f08c379a00000000000000000000000000000000000000000000000000000000081526004016200097490620024a4565b60405180910390fd5b60006006600084815260200190815260200160002060009054906101000a900473ffffffffffffffffffffffffffffffffffffffff1690508073ffffffffffffffffffffffffffffffffffffffff1663d204c45e33846040518363ffffffff1660e01b8152600401620009f2929190620024c6565b600060405180830381600087803b15801562000a0d57600080fd5b505af115801562000a22573d6000803e3d6000fd5b5050505060008173ffffffffffffffffffffffffffffffffffffffff166398bdf6f56040518163ffffffff1660e01b8152600401602060405180830381865afa15801562000a74573d6000803e3d6000fd5b505050506040513d601f19601f8201168201806040525081019062000a9a919062002511565b9050604051806080016040528060008152602001600081526020016000815260200160008152506008600086815260200190815260200160002060000160008381526020019081526020016000206000820151816000015560208201518160010155604082015181600201556060820151816003015590505050505050565b6000600760008373ffffffffffffffffffffffffffffffffffffffff1673ffffffffffffffffffffffffffffffffffffffff168152602001908152602001600020549050919050565b60006006600083815260200190815260200160002060009054906101000a900473ffffffffffffffffffffffffffffffffffffffff1673ffffffffffffffffffffffffffffffffffffffff166398bdf6f56040518163ffffffff1660e01b8152600401602060405180830381865afa15801562000be3573d6000803e3d6000fd5b505050506040513d601f19601f8201168201806040525081019062000c09919062002511565b9050919050565b60008060008373ffffffffffffffffffffffffffffffffffffffff1673ffffffffffffffffffffffffffffffffffffffff168152602001908152602001600020549050919050565b60606004805462000c699062002214565b80601f016020809104026020016040519081016040528092919081815260200182805462000c979062002214565b801562000ce85780601f1062000cbc5761010080835404028352916020019162000ce8565b820191906000526020600020905b81548152906001019060200180831162000cca57829003601f168201915b5050505050905090565b60008062000cff620013ae565b9050600062000d0f828662001090565b90508381101562000d57576040517f08c379a000000000000000000000000000000000000000000000000000000000815260040162000d4e90620025b9565b60405180910390fd5b62000d668286868403620013b6565b60019250505092915050565b60058060000154905081565b60008062000d8b620013ae565b905062000d9a8185856200161b565b600191505092915050565b60066020528060005260406000206000915054906101000a900473ffffffffffffffffffffffffffffffffffffffff1681565b6000806006600085815260200190815260200160002060009054906101000a900473ffffffffffffffffffffffffffffffffffffffff1690503373ffffffffffffffffffffffffffffffffffffffff168173ffffffffffffffffffffffffffffffffffffffff16636352211e856040518263ffffffff1660e01b815260040162000e63919062001c79565b602060405180830381865afa15801562000e81573d6000803e3d6000fd5b505050506040513d601f19601f8201168201806040525081019062000ea79190620025f2565b73ffffffffffffffffffffffffffffffffffffffff161462000f00576040517f08c379a000000000000000000000000000000000000000000000000000000000815260040162000ef79062002674565b60405180910390fd5b61a8c0600860008681526020019081526020016000206000016000858152602001908152602001600020600001544262000f3b919062002696565b111562000f7f576040517f08c379a000000000000000000000000000000000000000000000000000000000815260040162000f769062002721565b60405180910390fd5b62015180600860008681526020019081526020016000206000016000858152602001908152602001600020600101544262000fbb919062002696565b1162000ffe576040517f08c379a000000000000000000000000000000000000000000000000000000000815260040162000ff59062002793565b60405180910390fd5b4260086000868152602001908152602001600020600001600085815260200190815260200160002060010181905550600560086000868152602001908152602001600020600001600085815260200190815260200160002060030160008282546200106a919062002325565b925050819055506200108533674563918244f40000620018c4565b600191505092915050565b6000600160008473ffffffffffffffffffffffffffffffffffffffff1673ffffffffffffffffffffffffffffffffffffffff16815260200190815260200160002060008373ffffffffffffffffffffffffffffffffffffffff1673ffffffffffffffffffffffffffffffffffffffff16815260200190815260200160002054905092915050565b6000806006600085815260200190815260200160002060009054906101000a900473ffffffffffffffffffffffffffffffffffffffff1690503373ffffffffffffffffffffffffffffffffffffffff168173ffffffffffffffffffffffffffffffffffffffff16636352211e856040518263ffffffff1660e01b8152600401620011a2919062001c79565b602060405180830381865afa158015620011c0573d6000803e3d6000fd5b505050506040513d601f19601f82011682018060405250810190620011e69190620025f2565b73ffffffffffffffffffffffffffffffffffffffff16146200123f576040517f08c379a0000000000000000000000000000000000000000000000000000000008152600401620012369062002674565b60405180910390fd5b7f000000000000000000000000000000000000000000000000000000000000000073ffffffffffffffffffffffffffffffffffffffff166323b872dd333069d3c21bcecceda10000006040518463ffffffff1660e01b8152600401620012a893929190620027f8565b6020604051808303816000875af1158015620012c8573d6000803e3d6000fd5b505050506040513d601f19601f82011682018060405250810190620012ee919062002422565b62001330576040517f08c379a00000000000000000000000000000000000000000000000000000000081526004016200132790620024a4565b60405180910390fd5b4260086000868152602001908152602001600020600001600085815260200190815260200160002060000181905550600160086000868152602001908152602001600020600001600085815260200190815260200160002060020160008282546200139c919062002325565b92505081905550600191505092915050565b600033905090565b600073ffffffffffffffffffffffffffffffffffffffff168373ffffffffffffffffffffffffffffffffffffffff160362001428576040517f08c379a00000000000000000000000000000000000000000000000000000000081526004016200141f90620028ab565b60405180910390fd5b600073ffffffffffffffffffffffffffffffffffffffff168273ffffffffffffffffffffffffffffffffffffffff16036200149a576040517f08c379a0000000000000000000000000000000000000000000000000000000008152600401620014919062002943565b60405180910390fd5b80600160008573ffffffffffffffffffffffffffffffffffffffff1673ffffffffffffffffffffffffffffffffffffffff16815260200190815260200160002060008473ffffffffffffffffffffffffffffffffffffffff1673ffffffffffffffffffffffffffffffffffffffff168152602001908152602001600020819055508173ffffffffffffffffffffffffffffffffffffffff168373ffffffffffffffffffffffffffffffffffffffff167f8c5be1e5ebec7d5bd14f71427d1e84f3dd0314c0f7b2291e5b200ac8c7c3b925836040516200157a919062001c79565b60405180910390a3505050565b600062001595848462001090565b90507fffffffffffffffffffffffffffffffffffffffffffffffffffffffffffffffff811462001615578181101562001605576040517f08c379a0000000000000000000000000000000000000000000000000000000008152600401620015fc90620029b5565b60405180910390fd5b620016148484848403620013b6565b5b50505050565b600073ffffffffffffffffffffffffffffffffffffffff168373ffffffffffffffffffffffffffffffffffffffff16036200168d576040517f08c379a0000000000000000000000000000000000000000000000000000000008152600401620016849062002a4d565b60405180910390fd5b600073ffffffffffffffffffffffffffffffffffffffff168273ffffffffffffffffffffffffffffffffffffffff1603620016ff576040517f08c379a0000000000000000000000000000000000000000000000000000000008152600401620016f69062002ae5565b60405180910390fd5b6200170c838383620018d4565b60008060008573ffffffffffffffffffffffffffffffffffffffff1673ffffffffffffffffffffffffffffffffffffffff1681526020019081526020016000205490508181101562001795576040517f08c379a00000000000000000000000000000000000000000000000000000000081526004016200178c9062002b7d565b60405180910390fd5b8181036000808673ffffffffffffffffffffffffffffffffffffffff1673ffffffffffffffffffffffffffffffffffffffff16815260200190815260200160002081905550816000808573ffffffffffffffffffffffffffffffffffffffff1673ffffffffffffffffffffffffffffffffffffffff168152602001908152602001600020600082825401925050819055508273ffffffffffffffffffffffffffffffffffffffff168473ffffffffffffffffffffffffffffffffffffffff167fddf252ad1be2c89b69c2b068fc378daa952ba7f163c4a11628f55a4df523b3ef8460405162001885919062001c79565b60405180910390a36200189a848484620018d9565b50505050565b6001816000016000828254019250508190555050565b600081600001549050919050565b620018d08282620018de565b5050565b505050565b505050565b600073ffffffffffffffffffffffffffffffffffffffff168273ffffffffffffffffffffffffffffffffffffffff160362001950576040517f08c379a0000000000000000000000000000000000000000000000000000000008152600401620019479062002bef565b60405180910390fd5b6200195e60008383620018d4565b806002600082825462001972919062002325565b92505081905550806000808473ffffffffffffffffffffffffffffffffffffffff1673ffffffffffffffffffffffffffffffffffffffff168152602001908152602001600020600082825401925050819055508173ffffffffffffffffffffffffffffffffffffffff16600073ffffffffffffffffffffffffffffffffffffffff167fddf252ad1be2c89b69c2b068fc378daa952ba7f163c4a11628f55a4df523b3ef8360405162001a25919062001c79565b60405180910390a362001a3b60008383620018d9565b5050565b6040518060800160405280600081526020016000815260200160008152602001600081525090565b6133688062002c1283390190565b600081519050919050565b600082825260208201905092915050565b60005b8381101562001ab157808201518184015260208101905062001a94565b60008484015250505050565b6000601f19601f8301169050919050565b600062001adb8262001a75565b62001ae7818562001a80565b935062001af981856020860162001a91565b62001b048162001abd565b840191505092915050565b6000602082019050818103600083015262001b2b818462001ace565b905092915050565b6000604051905090565b600080fd5b600080fd5b600073ffffffffffffffffffffffffffffffffffffffff82169050919050565b600062001b748262001b47565b9050919050565b62001b868162001b67565b811462001b9257600080fd5b50565b60008135905062001ba68162001b7b565b92915050565b6000819050919050565b62001bc18162001bac565b811462001bcd57600080fd5b50565b60008135905062001be18162001bb6565b92915050565b6000806040838503121562001c015762001c0062001b3d565b5b600062001c118582860162001b95565b925050602062001c248582860162001bd0565b9150509250929050565b60008115159050919050565b62001c458162001c2e565b82525050565b600060208201905062001c62600083018462001c3a565b92915050565b62001c738162001bac565b82525050565b600060208201905062001c90600083018462001c68565b92915050565b6000806040838503121562001cb05762001caf62001b3d565b5b600062001cc08582860162001bd0565b925050602062001cd38582860162001bd0565b9150509250929050565b62001ce88162001bac565b82525050565b60808201600082015162001d06600085018262001cdd565b50602082015162001d1b602085018262001cdd565b50604082015162001d30604085018262001cdd565b50606082015162001d45606085018262001cdd565b50505050565b600060808201905062001d62600083018462001cee565b92915050565b60008060006060848603121562001d845762001d8362001b3d565b5b600062001d948682870162001b95565b935050602062001da78682870162001b95565b925050604062001dba8682870162001bd0565b9150509250925092565b600062001dd18262001b67565b9050919050565b62001de38162001dc4565b811462001def57600080fd5b50565b60008135905062001e038162001dd8565b92915050565b60006020828403121562001e225762001e2162001b3d565b5b600062001e328482850162001df2565b91505092915050565b600080fd5b600080fd5b7f4e487b7100000000000000000000000000000000000000000000000000000000600052604160045260246000fd5b62001e7f8262001abd565b810181811067ffffffffffffffff8211171562001ea15762001ea062001e45565b5b80604052505050565b600062001eb662001b33565b905062001ec4828262001e74565b919050565b600067ffffffffffffffff82111562001ee75762001ee662001e45565b5b62001ef28262001abd565b9050602081019050919050565b82818337600083830152505050565b600062001f2562001f1f8462001ec9565b62001eaa565b90508281526020810184848401111562001f445762001f4362001e40565b5b62001f5184828562001eff565b509392505050565b600082601f83011262001f715762001f7062001e3b565b5b813562001f8384826020860162001f0e565b91505092915050565b6000806040838503121562001fa65762001fa562001b3d565b5b600083013567ffffffffffffffff81111562001fc75762001fc662001b42565b5b62001fd58582860162001f59565b925050602083013567ffffffffffffffff81111562001ff95762001ff862001b42565b5b620020078582860162001f59565b9150509250929050565b600060ff82169050919050565b620020298162002011565b82525050565b60006020820190506200204660008301846200201e565b92915050565b6000806040838503121562002066576200206562001b3d565b5b6000620020768582860162001bd0565b925050602083013567ffffffffffffffff8111156200209a576200209962001b42565b5b620020a88582860162001f59565b9150509250929050565b600060208284031215620020cb57620020ca62001b3d565b5b6000620020db8482850162001bd0565b91505092915050565b600060208284031215620020fd57620020fc62001b3d565b5b60006200210d8482850162001b95565b91505092915050565b6000819050919050565b6000620021416200213b620021358462001b47565b62002116565b62001b47565b9050919050565b6000620021558262002120565b9050919050565b6000620021698262002148565b9050919050565b6200217b816200215c565b82525050565b600060208201905062002198600083018462002170565b92915050565b60008060408385031215620021b857620021b762001b3d565b5b6000620021c88582860162001b95565b9250506020620021db8582860162001b95565b9150509250929050565b7f4e487b7100000000000000000000000000000000000000000000000000000000600052602260045260246000fd5b600060028204905060018216806200222d57607f821691505b602082108103620022435762002242620021e5565b5b50919050565b7f4e6f706521000000000000000000000000000000000000000000000000000000600082015250565b60006200228160058362001a80565b91506200228e8262002249565b602082019050919050565b60006020820190508181036000830152620022b48162002272565b9050919050565b60006040820190508181036000830152620022d7818562001ace565b90508181036020830152620022ed818462001ace565b90509392505050565b7f4e487b7100000000000000000000000000000000000000000000000000000000600052601160045260246000fd5b6000620023328262001bac565b91506200233f8362001bac565b92508282019050808211156200235a5762002359620022f6565b5b92915050565b6200236b8162001b67565b82525050565b6000819050919050565b60006200239c62002396620023908462002371565b62002116565b62001bac565b9050919050565b620023ae816200237b565b82525050565b6000606082019050620023cb600083018662002360565b620023da602083018562002360565b620023e96040830184620023a3565b949350505050565b620023fc8162001c2e565b81146200240857600080fd5b50565b6000815190506200241c81620023f1565b92915050565b6000602082840312156200243b576200243a62001b3d565b5b60006200244b848285016200240b565b91505092915050565b7f53544e4541523a207472616e7366657246726f6d206661696c65640000000000600082015250565b60006200248c601b8362001a80565b9150620024998262002454565b602082019050919050565b60006020820190508181036000830152620024bf816200247d565b9050919050565b6000604082019050620024dd600083018562002360565b8181036020830152620024f1818462001ace565b90509392505050565b6000815190506200250b8162001bb6565b92915050565b6000602082840312156200252a576200252962001b3d565b5b60006200253a84828501620024fa565b91505092915050565b7f45524332303a2064656372656173656420616c6c6f77616e63652062656c6f7760008201527f207a65726f000000000000000000000000000000000000000000000000000000602082015250565b6000620025a160258362001a80565b9150620025ae8262002543565b604082019050919050565b60006020820190508181036000830152620025d48162002592565b9050919050565b600081519050620025ec8162001b7b565b92915050565b6000602082840312156200260b576200260a62001b3d565b5b60006200261b84828501620025db565b91505092915050565b7f596f7520617265206e6f7420746865206f776e65720000000000000000000000600082015250565b60006200265c60158362001a80565b9150620026698262002624565b602082019050919050565b600060208201905081810360008301526200268f816200264d565b9050919050565b6000620026a38262001bac565b9150620026b08362001bac565b9250828203905081811115620026cb57620026ca620022f6565b5b92915050565b7f5761746572204669727374000000000000000000000000000000000000000000600082015250565b600062002709600b8362001a80565b91506200271682620026d1565b602082019050919050565b600060208201905081810360008301526200273c81620026fa565b9050919050565b7f43616e277420436c61696d000000000000000000000000000000000000000000600082015250565b60006200277b600b8362001a80565b9150620027888262002743565b602082019050919050565b60006020820190508181036000830152620027ae816200276c565b9050919050565b6000819050919050565b6000620027e0620027da620027d484620027b5565b62002116565b62001bac565b9050919050565b620027f281620027bf565b82525050565b60006060820190506200280f600083018662002360565b6200281e602083018562002360565b6200282d6040830184620027e7565b949350505050565b7f45524332303a20617070726f76652066726f6d20746865207a65726f2061646460008201527f7265737300000000000000000000000000000000000000000000000000000000602082015250565b60006200289360248362001a80565b9150620028a08262002835565b604082019050919050565b60006020820190508181036000830152620028c68162002884565b9050919050565b7f45524332303a20617070726f766520746f20746865207a65726f20616464726560008201527f7373000000000000000000000000000000000000000000000000000000000000602082015250565b60006200292b60228362001a80565b91506200293882620028cd565b604082019050919050565b600060208201905081810360008301526200295e816200291c565b9050919050565b7f45524332303a20696e73756666696369656e7420616c6c6f77616e6365000000600082015250565b60006200299d601d8362001a80565b9150620029aa8262002965565b602082019050919050565b60006020820190508181036000830152620029d0816200298e565b9050919050565b7f45524332303a207472616e736665722066726f6d20746865207a65726f20616460008201527f6472657373000000000000000000000000000000000000000000000000000000602082015250565b600062002a3560258362001a80565b915062002a4282620029d7565b604082019050919050565b6000602082019050818103600083015262002a688162002a26565b9050919050565b7f45524332303a207472616e7366657220746f20746865207a65726f206164647260008201527f6573730000000000000000000000000000000000000000000000000000000000602082015250565b600062002acd60238362001a80565b915062002ada8262002a6f565b604082019050919050565b6000602082019050818103600083015262002b008162002abe565b9050919050565b7f45524332303a207472616e7366657220616d6f756e742065786365656473206260008201527f616c616e63650000000000000000000000000000000000000000000000000000602082015250565b600062002b6560268362001a80565b915062002b728262002b07565b604082019050919050565b6000602082019050818103600083015262002b988162002b56565b9050919050565b7f45524332303a206d696e7420746f20746865207a65726f206164647265737300600082015250565b600062002bd7601f8362001a80565b915062002be48262002b9f565b602082019050919050565b6000602082019050818103600083015262002c0a8162002bc8565b905091905056fe60a06040523480156200001157600080fd5b50604051620033683803806200336883398181016040528101906200003791906200022e565b818181600090816200004a9190620004fe565b5080600190816200005c9190620004fe565b5050503373ffffffffffffffffffffffffffffffffffffffff1660808173ffffffffffffffffffffffffffffffffffffffff16815250505050620005e5565b6000604051905090565b600080fd5b600080fd5b600080fd5b600080fd5b6000601f19601f8301169050919050565b7f4e487b7100000000000000000000000000000000000000000000000000000000600052604160045260246000fd5b6200010482620000b9565b810181811067ffffffffffffffff82111715620001265762000125620000ca565b5b80604052505050565b60006200013b6200009b565b9050620001498282620000f9565b919050565b600067ffffffffffffffff8211156200016c576200016b620000ca565b5b6200017782620000b9565b9050602081019050919050565b60005b83811015620001a457808201518184015260208101905062000187565b60008484015250505050565b6000620001c7620001c1846200014e565b6200012f565b905082815260208101848484011115620001e657620001e5620000b4565b5b620001f384828562000184565b509392505050565b600082601f830112620002135762000212620000af565b5b815162000225848260208601620001b0565b91505092915050565b60008060408385031215620002485762000247620000a5565b5b600083015167ffffffffffffffff811115620002695762000268620000aa565b5b6200027785828601620001fb565b925050602083015167ffffffffffffffff8111156200029b576200029a620000aa565b5b620002a985828601620001fb565b9150509250929050565b600081519050919050565b7f4e487b7100000000000000000000000000000000000000000000000000000000600052602260045260246000fd5b600060028204905060018216806200030657607f821691505b6020821081036200031c576200031b620002be565b5b50919050565b60008190508160005260206000209050919050565b60006020601f8301049050919050565b600082821b905092915050565b600060088302620003867fffffffffffffffffffffffffffffffffffffffffffffffffffffffffffffffff8262000347565b62000392868362000347565b95508019841693508086168417925050509392505050565b6000819050919050565b6000819050919050565b6000620003df620003d9620003d384620003aa565b620003b4565b620003aa565b9050919050565b6000819050919050565b620003fb83620003be565b620004136200040a82620003e6565b84845462000354565b825550505050565b600090565b6200042a6200041b565b62000437818484620003f0565b505050565b5b818110156200045f576200045360008262000420565b6001810190506200043d565b5050565b601f821115620004ae57620004788162000322565b620004838462000337565b8101602085101562000493578190505b620004ab620004a28562000337565b8301826200043c565b50505b505050565b600082821c905092915050565b6000620004d360001984600802620004b3565b1980831691505092915050565b6000620004ee8383620004c0565b9150826002028217905092915050565b6200050982620002b3565b67ffffffffffffffff811115620005255762000524620000ca565b5b620005318254620002ed565b6200053e82828562000463565b600060209050601f83116001811462000576576000841562000561578287015190505b6200056d8582620004e0565b865550620005dd565b601f198416620005868662000322565b60005b82811015620005b05784890151825560018201915060208501945060208101905062000589565b86831015620005d05784890151620005cc601f891682620004c0565b8355505b6001600288020188555050505b505050505050565b608051612d676200060160003960006108040152612d676000f3fe608060405234801561001057600080fd5b50600436106100f55760003560e01c806370a0823111610097578063b88d4fde11610066578063b88d4fde14610284578063c87b56dd146102a0578063d204c45e146102d0578063e985e9c5146102ec576100f5565b806370a08231146101fc57806395d89b411461022c57806398bdf6f51461024a578063a22cb46514610268576100f5565b8063095ea7b3116100d3578063095ea7b31461017857806323b872dd1461019457806342842e0e146101b05780636352211e146101cc576100f5565b806301ffc9a7146100fa57806306fdde031461012a578063081812fc14610148575b600080fd5b610114600480360381019061010f9190611b58565b61031c565b6040516101219190611ba0565b60405180910390f35b61013261032e565b60405161013f9190611c4b565b60405180910390f35b610162600480360381019061015d9190611ca3565b6103c0565b60405161016f9190611d11565b60405180910390f35b610192600480360381019061018d9190611d58565b610406565b005b6101ae60048036038101906101a99190611d98565b61051d565b005b6101ca60048036038101906101c59190611d98565b61057d565b005b6101e660048036038101906101e19190611ca3565b61059d565b6040516101f39190611d11565b60405180910390f35b61021660048036038101906102119190611deb565b610623565b6040516102239190611e27565b60405180910390f35b6102346106da565b6040516102419190611c4b565b60405180910390f35b61025261076c565b60405161025f9190611e27565b60405180910390f35b610282600480360381019061027d9190611e6e565b610778565b005b61029e60048036038101906102999190611fe3565b61078e565b005b6102ba60048036038101906102b59190611ca3565b6107f0565b6040516102c79190611c4b565b60405180910390f35b6102ea60048036038101906102e59190612107565b610802565b005b61030660048036038101906103019190612163565b610905565b6040516103139190611ba0565b60405180910390f35b600061032782610999565b9050919050565b60606000805461033d906121d2565b80601f0160208091040260200160405190810160405280929190818152602001828054610369906121d2565b80156103b65780601f1061038b576101008083540402835291602001916103b6565b820191906000526020600020905b81548152906001019060200180831161039957829003601f168201915b5050505050905090565b60006103cb826109fa565b6004600083815260200190815260200160002060009054906101000a900473ffffffffffffffffffffffffffffffffffffffff169050919050565b60006104118261059d565b90508073ffffffffffffffffffffffffffffffffffffffff168373ffffffffffffffffffffffffffffffffffffffff1603610481576040517f08c379a000000000000000000000000000000000000000000000000000000000815260040161047890612275565b60405180910390fd5b8073ffffffffffffffffffffffffffffffffffffffff166104a0610a45565b73ffffffffffffffffffffffffffffffffffffffff1614806104cf57506104ce816104c9610a45565b610905565b5b61050e576040517f08c379a000000000000000000000000000000000000000000000000000000000815260040161050590612307565b60405180910390fd5b6105188383610a4d565b505050565b61052e610528610a45565b82610b06565b61056d576040517f08c379a000000000000000000000000000000000000000000000000000000000815260040161056490612399565b60405180910390fd5b610578838383610b9b565b505050565b6105988383836040518060200160405280600081525061078e565b505050565b6000806105a983610e94565b9050600073ffffffffffffffffffffffffffffffffffffffff168173ffffffffffffffffffffffffffffffffffffffff160361061a576040517f08c379a000000000000000000000000000000000000000000000000000000000815260040161061190612405565b60405180910390fd5b80915050919050565b60008073ffffffffffffffffffffffffffffffffffffffff168273ffffffffffffffffffffffffffffffffffffffff1603610693576040517f08c379a000000000000000000000000000000000000000000000000000000000815260040161068a90612497565b60405180910390fd5b600360008373ffffffffffffffffffffffffffffffffffffffff1673ffffffffffffffffffffffffffffffffffffffff168152602001908152602001600020549050919050565b6060600180546106e9906121d2565b80601f0160208091040260200160405190810160405280929190818152602001828054610715906121d2565b80156107625780601f1061073757610100808354040283529160200191610762565b820191906000526020600020905b81548152906001019060200180831161074557829003601f168201915b5050505050905090565b60078060000154905081565b61078a610783610a45565b8383610ed1565b5050565b61079f610799610a45565b83610b06565b6107de576040517f08c379a00000000000000000000000000000000000000000000000000000000081526004016107d590612399565b60405180910390fd5b6107ea8484848461103d565b50505050565b60606107fb82611099565b9050919050565b7f000000000000000000000000000000000000000000000000000000000000000073ffffffffffffffffffffffffffffffffffffffff163373ffffffffffffffffffffffffffffffffffffffff1614610890576040517f08c379a000000000000000000000000000000000000000000000000000000000815260040161088790612503565b60405180910390fd5b61089a60076111ab565b60006108a660076111c1565b9050601e8111156108ec576040517f08c379a00000000000000000000000000000000000000000000000000000000081526004016108e390612595565b60405180910390fd5b6108f683826111cf565b61090081836111ed565b505050565b6000600560008473ffffffffffffffffffffffffffffffffffffffff1673ffffffffffffffffffffffffffffffffffffffff16815260200190815260200160002060008373ffffffffffffffffffffffffffffffffffffffff1673ffffffffffffffffffffffffffffffffffffffff16815260200190815260200160002060009054906101000a900460ff16905092915050565b6000634906490660e01b7bffffffffffffffffffffffffffffffffffffffffffffffffffffffff1916827bffffffffffffffffffffffffffffffffffffffffffffffffffffffff191614806109f357506109f282611291565b5b9050919050565b610a0381611373565b610a42576040517f08c379a0000000000000000000000000000000000000000000000000000000008152600401610a3990612405565b60405180910390fd5b50565b600033905090565b816004600083815260200190815260200160002060006101000a81548173ffffffffffffffffffffffffffffffffffffffff021916908373ffffffffffffffffffffffffffffffffffffffff160217905550808273ffffffffffffffffffffffffffffffffffffffff16610ac08361059d565b73ffffffffffffffffffffffffffffffffffffffff167f8c5be1e5ebec7d5bd14f71427d1e84f3dd0314c0f7b2291e5b200ac8c7c3b92560405160405180910390a45050565b600080610b128361059d565b90508073ffffffffffffffffffffffffffffffffffffffff168473ffffffffffffffffffffffffffffffffffffffff161480610b545750610b538185610905565b5b80610b9257508373ffffffffffffffffffffffffffffffffffffffff16610b7a846103c0565b73ffffffffffffffffffffffffffffffffffffffff16145b91505092915050565b8273ffffffffffffffffffffffffffffffffffffffff16610bbb8261059d565b73ffffffffffffffffffffffffffffffffffffffff1614610c11576040517f08c379a0000000000000000000000000000000000000000000000000000000008152600401610c0890612627565b60405180910390fd5b600073ffffffffffffffffffffffffffffffffffffffff168273ffffffffffffffffffffffffffffffffffffffff1603610c80576040517f08c379a0000000000000000000000000000000000000000000000000000000008152600401610c77906126b9565b60405180910390fd5b610c8d83838360016113b4565b8273ffffffffffffffffffffffffffffffffffffffff16610cad8261059d565b73ffffffffffffffffffffffffffffffffffffffff1614610d03576040517f08c379a0000000000000000000000000000000000000000000000000000000008152600401610cfa90612627565b60405180910390fd5b6004600082815260200190815260200160002060006101000a81549073ffffffffffffffffffffffffffffffffffffffff02191690556001600360008573ffffffffffffffffffffffffffffffffffffffff1673ffffffffffffffffffffffffffffffffffffffff168152602001908152602001600020600082825403925050819055506001600360008473ffffffffffffffffffffffffffffffffffffffff1673ffffffffffffffffffffffffffffffffffffffff16815260200190815260200160002060008282540192505081905550816002600083815260200190815260200160002060006101000a81548173ffffffffffffffffffffffffffffffffffffffff021916908373ffffffffffffffffffffffffffffffffffffffff160217905550808273ffffffffffffffffffffffffffffffffffffffff168473ffffffffffffffffffffffffffffffffffffffff167fddf252ad1be2c89b69c2b068fc378daa952ba7f163c4a11628f55a4df523b3ef60405160405180910390a4610e8f83838360016113ba565b505050565b60006002600083815260200190815260200160002060009054906101000a900473ffffffffffffffffffffffffffffffffffffffff169050919050565b8173ffffffffffffffffffffffffffffffffffffffff168373ffffffffffffffffffffffffffffffffffffffff1603610f3f576040517f08c379a0000000000000000000000000000000000000000000000000000000008152600401610f3690612725565b60405180910390fd5b80600560008573ffffffffffffffffffffffffffffffffffffffff1673ffffffffffffffffffffffffffffffffffffffff16815260200190815260200160002060008473ffffffffffffffffffffffffffffffffffffffff1673ffffffffffffffffffffffffffffffffffffffff16815260200190815260200160002060006101000a81548160ff0219169083151502179055508173ffffffffffffffffffffffffffffffffffffffff168373ffffffffffffffffffffffffffffffffffffffff167f17307eab39ab6107e8899845ad3d59bd9653f200f220920489ca2b5937696c31836040516110309190611ba0565b60405180910390a3505050565b611048848484610b9b565b611054848484846113c0565b611093576040517f08c379a000000000000000000000000000000000000000000000000000000000815260040161108a906127b7565b60405180910390fd5b50505050565b60606110a4826109fa565b60006006600084815260200190815260200160002080546110c4906121d2565b80601f01602080910402602001604051908101604052809291908181526020018280546110f0906121d2565b801561113d5780601f106111125761010080835404028352916020019161113d565b820191906000526020600020905b81548152906001019060200180831161112057829003601f168201915b50505050509050600061114e611547565b905060008151036111635781925050506111a6565b600082511115611198578082604051602001611180929190612813565b604051602081830303815290604052925050506111a6565b6111a18461155e565b925050505b919050565b6001816000016000828254019250508190555050565b600081600001549050919050565b6111e98282604051806020016040528060008152506115c6565b5050565b6111f682611373565b611235576040517f08c379a000000000000000000000000000000000000000000000000000000000815260040161122c906128a9565b60405180910390fd5b806006600084815260200190815260200160002090816112559190612a75565b507ff8e1a15aba9398e019f0b49df1a4fde98ee17ae345cb5f6b5e2c27f5033e8ce7826040516112859190611e27565b60405180910390a15050565b60007f80ac58cd000000000000000000000000000000000000000000000000000000007bffffffffffffffffffffffffffffffffffffffffffffffffffffffff1916827bffffffffffffffffffffffffffffffffffffffffffffffffffffffff1916148061135c57507f5b5e139f000000000000000000000000000000000000000000000000000000007bffffffffffffffffffffffffffffffffffffffffffffffffffffffff1916827bffffffffffffffffffffffffffffffffffffffffffffffffffffffff1916145b8061136c575061136b82611621565b5b9050919050565b60008073ffffffffffffffffffffffffffffffffffffffff1661139583610e94565b73ffffffffffffffffffffffffffffffffffffffff1614159050919050565b50505050565b50505050565b60006113e18473ffffffffffffffffffffffffffffffffffffffff1661168b565b1561153a578373ffffffffffffffffffffffffffffffffffffffff1663150b7a0261140a610a45565b8786866040518563ffffffff1660e01b815260040161142c9493929190612b9c565b6020604051808303816000875af192505050801561146857506040513d601f19601f820116820180604052508101906114659190612bfd565b60015b6114ea573d8060008114611498576040519150601f19603f3d011682016040523d82523d6000602084013e61149d565b606091505b5060008151036114e2576040517f08c379a00000000000000000000000000000000000000000000000000000000081526004016114d9906127b7565b60405180910390fd5b805181602001fd5b63150b7a0260e01b7bffffffffffffffffffffffffffffffffffffffffffffffffffffffff1916817bffffffffffffffffffffffffffffffffffffffffffffffffffffffff19161491505061153f565b600190505b949350505050565b606060405180602001604052806000815250905090565b6060611569826109fa565b6000611573611547565b9050600081511161159357604051806020016040528060008152506115be565b8061159d846116ae565b6040516020016115ae929190612813565b6040516020818303038152906040525b915050919050565b6115d0838361177c565b6115dd60008484846113c0565b61161c576040517f08c379a0000000000000000000000000000000000000000000000000000000008152600401611613906127b7565b60405180910390fd5b505050565b60007f01ffc9a7000000000000000000000000000000000000000000000000000000007bffffffffffffffffffffffffffffffffffffffffffffffffffffffff1916827bffffffffffffffffffffffffffffffffffffffffffffffffffffffff1916149050919050565b6000808273ffffffffffffffffffffffffffffffffffffffff163b119050919050565b6060600060016116bd84611999565b01905060008167ffffffffffffffff8111156116dc576116db611eb8565b5b6040519080825280601f01601f19166020018201604052801561170e5781602001600182028036833780820191505090505b509050600082602001820190505b600115611771578080600190039150507f3031323334353637383961626364656600000000000000000000000000000000600a86061a8153600a858161176557611764612c2a565b5b0494506000850361171c575b819350505050919050565b600073ffffffffffffffffffffffffffffffffffffffff168273ffffffffffffffffffffffffffffffffffffffff16036117eb576040517f08c379a00000000000000000000000000000000000000000000000000000000081526004016117e290612ca5565b60405180910390fd5b6117f481611373565b15611834576040517f08c379a000000000000000000000000000000000000000000000000000000000815260040161182b90612d11565b60405180910390fd5b6118426000838360016113b4565b61184b81611373565b1561188b576040517f08c379a000000000000000000000000000000000000000000000000000000000815260040161188290612d11565b60405180910390fd5b6001600360008473ffffffffffffffffffffffffffffffffffffffff1673ffffffffffffffffffffffffffffffffffffffff16815260200190815260200160002060008282540192505081905550816002600083815260200190815260200160002060006101000a81548173ffffffffffffffffffffffffffffffffffffffff021916908373ffffffffffffffffffffffffffffffffffffffff160217905550808273ffffffffffffffffffffffffffffffffffffffff16600073ffffffffffffffffffffffffffffffffffffffff167fddf252ad1be2c89b69c2b068fc378daa952ba7f163c4a11628f55a4df523b3ef60405160405180910390a46119956000838360016113ba565b5050565b600080600090507a184f03e93ff9f4daa797ed6e38ed64bf6a1f01000000000000000083106119f7577a184f03e93ff9f4daa797ed6e38ed64bf6a1f01000000000000000083816119ed576119ec612c2a565b5b0492506040810190505b6d04ee2d6d415b85acef81000000008310611a34576d04ee2d6d415b85acef81000000008381611a2a57611a29612c2a565b5b0492506020810190505b662386f26fc100008310611a6357662386f26fc100008381611a5957611a58612c2a565b5b0492506010810190505b6305f5e1008310611a8c576305f5e1008381611a8257611a81612c2a565b5b0492506008810190505b6127108310611ab1576127108381611aa757611aa6612c2a565b5b0492506004810190505b60648310611ad45760648381611aca57611ac9612c2a565b5b0492506002810190505b600a8310611ae3576001810190505b80915050919050565b6000604051905090565b600080fd5b600080fd5b60007fffffffff0000000000000000000000000000000000000000000000000000000082169050919050565b611b3581611b00565b8114611b4057600080fd5b50565b600081359050611b5281611b2c565b92915050565b600060208284031215611b6e57611b6d611af6565b5b6000611b7c84828501611b43565b91505092915050565b60008115159050919050565b611b9a81611b85565b82525050565b6000602082019050611bb56000830184611b91565b92915050565b600081519050919050565b600082825260208201905092915050565b60005b83811015611bf5578082015181840152602081019050611bda565b60008484015250505050565b6000601f19601f8301169050919050565b6000611c1d82611bbb565b611c278185611bc6565b9350611c37818560208601611bd7565b611c4081611c01565b840191505092915050565b60006020820190508181036000830152611c658184611c12565b905092915050565b6000819050919050565b611c8081611c6d565b8114611c8b57600080fd5b50565b600081359050611c9d81611c77565b92915050565b600060208284031215611cb957611cb8611af6565b5b6000611cc784828501611c8e565b91505092915050565b600073ffffffffffffffffffffffffffffffffffffffff82169050919050565b6000611cfb82611cd0565b9050919050565b611d0b81611cf0565b82525050565b6000602082019050611d266000830184611d02565b92915050565b611d3581611cf0565b8114611d4057600080fd5b50565b600081359050611d5281611d2c565b92915050565b60008060408385031215611d6f57611d6e611af6565b5b6000611d7d85828601611d43565b9250506020611d8e85828601611c8e565b9150509250929050565b600080600060608486031215611db157611db0611af6565b5b6000611dbf86828701611d43565b9350506020611dd086828701611d43565b9250506040611de186828701611c8e565b9150509250925092565b600060208284031215611e0157611e00611af6565b5b6000611e0f84828501611d43565b91505092915050565b611e2181611c6d565b82525050565b6000602082019050611e3c6000830184611e18565b92915050565b611e4b81611b85565b8114611e5657600080fd5b50565b600081359050611e6881611e42565b92915050565b60008060408385031215611e8557611e84611af6565b5b6000611e9385828601611d43565b9250506020611ea485828601611e59565b9150509250929050565b600080fd5b600080fd5b7f4e487b7100000000000000000000000000000000000000000000000000000000600052604160045260246000fd5b611ef082611c01565b810181811067ffffffffffffffff82111715611f0f57611f0e611eb8565b5b80604052505050565b6000611f22611aec565b9050611f2e8282611ee7565b919050565b600067ffffffffffffffff821115611f4e57611f4d611eb8565b5b611f5782611c01565b9050602081019050919050565b82818337600083830152505050565b6000611f86611f8184611f33565b611f18565b905082815260208101848484011115611fa257611fa1611eb3565b5b611fad848285611f64565b509392505050565b600082601f830112611fca57611fc9611eae565b5b8135611fda848260208601611f73565b91505092915050565b60008060008060808587031215611ffd57611ffc611af6565b5b600061200b87828801611d43565b945050602061201c87828801611d43565b935050604061202d87828801611c8e565b925050606085013567ffffffffffffffff81111561204e5761204d611afb565b5b61205a87828801611fb5565b91505092959194509250565b600067ffffffffffffffff82111561208157612080611eb8565b5b61208a82611c01565b9050602081019050919050565b60006120aa6120a584612066565b611f18565b9050828152602081018484840111156120c6576120c5611eb3565b5b6120d1848285611f64565b509392505050565b600082601f8301126120ee576120ed611eae565b5b81356120fe848260208601612097565b91505092915050565b6000806040838503121561211e5761211d611af6565b5b600061212c85828601611d43565b925050602083013567ffffffffffffffff81111561214d5761214c611afb565b5b612159858286016120d9565b9150509250929050565b6000806040838503121561217a57612179611af6565b5b600061218885828601611d43565b925050602061219985828601611d43565b9150509250929050565b7f4e487b7100000000000000000000000000000000000000000000000000000000600052602260045260246000fd5b600060028204905060018216806121ea57607f821691505b6020821081036121fd576121fc6121a3565b5b50919050565b7f4552433732313a20617070726f76616c20746f2063757272656e74206f776e6560008201527f7200000000000000000000000000000000000000000000000000000000000000602082015250565b600061225f602183611bc6565b915061226a82612203565b604082019050919050565b6000602082019050818103600083015261228e81612252565b9050919050565b7f4552433732313a20617070726f76652063616c6c6572206973206e6f7420746f60008201527f6b656e206f776e6572206f7220617070726f76656420666f7220616c6c000000602082015250565b60006122f1603d83611bc6565b91506122fc82612295565b604082019050919050565b60006020820190508181036000830152612320816122e4565b9050919050565b7f4552433732313a2063616c6c6572206973206e6f7420746f6b656e206f776e6560008201527f72206f7220617070726f76656400000000000000000000000000000000000000602082015250565b6000612383602d83611bc6565b915061238e82612327565b604082019050919050565b600060208201905081810360008301526123b281612376565b9050919050565b7f4552433732313a20696e76616c696420746f6b656e2049440000000000000000600082015250565b60006123ef601883611bc6565b91506123fa826123b9565b602082019050919050565b6000602082019050818103600083015261241e816123e2565b9050919050565b7f4552433732313a2061646472657373207a65726f206973206e6f74206120766160008201527f6c6964206f776e65720000000000000000000000000000000000000000000000602082015250565b6000612481602983611bc6565b915061248c82612425565b604082019050919050565b600060208201905081810360008301526124b081612474565b9050919050565b7f596f7520646f206e6f7420686176652061636365737321000000000000000000600082015250565b60006124ed601783611bc6565b91506124f8826124b7565b602082019050919050565b6000602082019050818103600083015261251c816124e0565b9050919050565b7f54686572652063616e206265206f6e6c79203330204e46547320696e2061205460008201527f72656520436f6c6c656374696f6e210000000000000000000000000000000000602082015250565b600061257f602f83611bc6565b915061258a82612523565b604082019050919050565b600060208201905081810360008301526125ae81612572565b9050919050565b7f4552433732313a207472616e736665722066726f6d20696e636f72726563742060008201527f6f776e6572000000000000000000000000000000000000000000000000000000602082015250565b6000612611602583611bc6565b915061261c826125b5565b604082019050919050565b6000602082019050818103600083015261264081612604565b9050919050565b7f4552433732313a207472616e7366657220746f20746865207a65726f2061646460008201527f7265737300000000000000000000000000000000000000000000000000000000602082015250565b60006126a3602483611bc6565b91506126ae82612647565b604082019050919050565b600060208201905081810360008301526126d281612696565b9050919050565b7f4552433732313a20617070726f766520746f2063616c6c657200000000000000600082015250565b600061270f601983611bc6565b915061271a826126d9565b602082019050919050565b6000602082019050818103600083015261273e81612702565b9050919050565b7f4552433732313a207472616e7366657220746f206e6f6e20455243373231526560008201527f63656976657220696d706c656d656e7465720000000000000000000000000000602082015250565b60006127a1603283611bc6565b91506127ac82612745565b604082019050919050565b600060208201905081810360008301526127d081612794565b9050919050565b600081905092915050565b60006127ed82611bbb565b6127f781856127d7565b9350612807818560208601611bd7565b80840191505092915050565b600061281f82856127e2565b915061282b82846127e2565b91508190509392505050565b7f45524337323155524953746f726167653a2055524920736574206f66206e6f6e60008201527f6578697374656e7420746f6b656e000000000000000000000000000000000000602082015250565b6000612893602e83611bc6565b915061289e82612837565b604082019050919050565b600060208201905081810360008301526128c281612886565b9050919050565b60008190508160005260206000209050919050565b60006020601f8301049050919050565b600082821b905092915050565b60006008830261292b7fffffffffffffffffffffffffffffffffffffffffffffffffffffffffffffffff826128ee565b61293586836128ee565b95508019841693508086168417925050509392505050565b6000819050919050565b600061297261296d61296884611c6d565b61294d565b611c6d565b9050919050565b6000819050919050565b61298c83612957565b6129a061299882612979565b8484546128fb565b825550505050565b600090565b6129b56129a8565b6129c0818484612983565b505050565b5b818110156129e4576129d96000826129ad565b6001810190506129c6565b5050565b601f821115612a29576129fa816128c9565b612a03846128de565b81016020851015612a12578190505b612a26612a1e856128de565b8301826129c5565b50505b505050565b600082821c905092915050565b6000612a4c60001984600802612a2e565b1980831691505092915050565b6000612a658383612a3b565b9150826002028217905092915050565b612a7e82611bbb565b67ffffffffffffffff811115612a9757612a96611eb8565b5b612aa182546121d2565b612aac8282856129e8565b600060209050601f831160018114612adf5760008415612acd578287015190505b612ad78582612a59565b865550612b3f565b601f198416612aed866128c9565b60005b82811015612b1557848901518255600182019150602085019450602081019050612af0565b86831015612b325784890151612b2e601f891682612a3b565b8355505b6001600288020188555050505b505050505050565b600081519050919050565b600082825260208201905092915050565b6000612b6e82612b47565b612b788185612b52565b9350612b88818560208601611bd7565b612b9181611c01565b840191505092915050565b6000608082019050612bb16000830187611d02565b612bbe6020830186611d02565b612bcb6040830185611e18565b8181036060830152612bdd8184612b63565b905095945050505050565b600081519050612bf781611b2c565b92915050565b600060208284031215612c1357612c12611af6565b5b6000612c2184828501612be8565b91505092915050565b7f4e487b7100000000000000000000000000000000000000000000000000000000600052601260045260246000fd5b7f4552433732313a206d696e7420746f20746865207a65726f2061646472657373600082015250565b6000612c8f602083611bc6565b9150612c9a82612c59565b602082019050919050565b60006020820190508181036000830152612cbe81612c82565b9050919050565b7f4552433732313a20746f6b656e20616c7265616479206d696e74656400000000600082015250565b6000612cfb601c83611bc6565b9150612d0682612cc5565b602082019050919050565b60006020820190508181036000830152612d2a81612cee565b905091905056fea2646970667358221220db887bfa8ad700408d72bf753de162f50f085a15359fced96df368507ebdbc2d64736f6c63430008120033a2646970667358221220c473a741935ae389ffc3853b69f75e1af0868a3c9aecad9c2822739e3fd5183064736f6c63430008120033",
		"opcodes": "PUSH1 0x80 PUSH1 0x40 MSTORE CALLVALUE DUP1 ISZERO PUSH3 0x11 JUMPI PUSH1 0x0 DUP1 REVERT JUMPDEST POP PUSH1 0x4 CALLDATASIZE LT PUSH3 0x154 JUMPI PUSH1 0x0 CALLDATALOAD PUSH1 0xE0 SHR DUP1 PUSH4 0x622203BE GT PUSH3 0xC9 JUMPI DUP1 PUSH4 0xA85292DF GT PUSH3 0x87 JUMPI DUP1 PUSH4 0xA85292DF EQ PUSH3 0x407 JUMPI DUP1 PUSH4 0xA9059CBB EQ PUSH3 0x429 JUMPI DUP1 PUSH4 0xAEA3EE43 EQ PUSH3 0x45F JUMPI DUP1 PUSH4 0xC3490263 EQ PUSH3 0x495 JUMPI DUP1 PUSH4 0xDD62ED3E EQ PUSH3 0x4CB JUMPI DUP1 PUSH4 0xF2EE634D EQ PUSH3 0x501 JUMPI PUSH3 0x154 JUMP JUMPDEST DUP1 PUSH4 0x622203BE EQ PUSH3 0x30D JUMPI DUP1 PUSH4 0x6407019C EQ PUSH3 0x343 JUMPI DUP1 PUSH4 0x70A08231 EQ PUSH3 0x379 JUMPI DUP1 PUSH4 0x95D89B41 EQ PUSH3 0x3AF JUMPI DUP1 PUSH4 0xA457C2D7 EQ PUSH3 0x3D1 JUMPI PUSH3 0x154 JUMP JUMPDEST DUP1 PUSH4 0x2DA98181 GT PUSH3 0x117 JUMPI DUP1 PUSH4 0x2DA98181 EQ PUSH3 0x23F JUMPI DUP1 PUSH4 0x3038E8C9 EQ PUSH3 0x275 JUMPI DUP1 PUSH4 0x313CE567 EQ PUSH3 0x295 JUMPI DUP1 PUSH4 0x39509351 EQ PUSH3 0x2B7 JUMPI DUP1 PUSH4 0x43A46931 EQ PUSH3 0x2ED JUMPI PUSH3 0x154 JUMP JUMPDEST DUP1 PUSH4 0x6FDDE03 EQ PUSH3 0x159 JUMPI DUP1 PUSH4 0x95EA7B3 EQ PUSH3 0x17B JUMPI DUP1 PUSH4 0x18160DDD EQ PUSH3 0x1B1 JUMPI DUP1 PUSH4 0x2331A50E EQ PUSH3 0x1D3 JUMPI DUP1 PUSH4 0x23B872DD EQ PUSH3 0x209 JUMPI JUMPDEST PUSH1 0x0 DUP1 REVERT JUMPDEST PUSH3 0x163 PUSH3 0x537 JUMP JUMPDEST PUSH1 0x40 MLOAD PUSH3 0x172 SWAP2 SWAP1 PUSH3 0x1B0F JUMP JUMPDEST PUSH1 0x40 MLOAD DUP1 SWAP2 SUB SWAP1 RETURN JUMPDEST PUSH3 0x199 PUSH1 0x4 DUP1 CALLDATASIZE SUB DUP2 ADD SWAP1 PUSH3 0x193 SWAP2 SWAP1 PUSH3 0x1BE7 JUMP JUMPDEST PUSH3 0x5D1 JUMP JUMPDEST PUSH1 0x40 MLOAD PUSH3 0x1A8 SWAP2 SWAP1 PUSH3 0x1C4B JUMP JUMPDEST PUSH1 0x40 MLOAD DUP1 SWAP2 SUB SWAP1 RETURN JUMPDEST PUSH3 0x1BB PUSH3 0x5F8 JUMP JUMPDEST PUSH1 0x40 MLOAD PUSH3 0x1CA SWAP2 SWAP1 PUSH3 0x1C79 JUMP JUMPDEST PUSH1 0x40 MLOAD DUP1 SWAP2 SUB SWAP1 RETURN JUMPDEST PUSH3 0x1F1 PUSH1 0x4 DUP1 CALLDATASIZE SUB DUP2 ADD SWAP1 PUSH3 0x1EB SWAP2 SWAP1 PUSH3 0x1C96 JUMP JUMPDEST PUSH3 0x602 JUMP JUMPDEST PUSH1 0x40 MLOAD PUSH3 0x200 SWAP2 SWAP1 PUSH3 0x1D4B JUMP JUMPDEST PUSH1 0x40 MLOAD DUP1 SWAP2 SUB SWAP1 RETURN JUMPDEST PUSH3 0x227 PUSH1 0x4 DUP1 CALLDATASIZE SUB DUP2 ADD SWAP1 PUSH3 0x221 SWAP2 SWAP1 PUSH3 0x1D68 JUMP JUMPDEST PUSH3 0x66E JUMP JUMPDEST PUSH1 0x40 MLOAD PUSH3 0x236 SWAP2 SWAP1 PUSH3 0x1C4B JUMP JUMPDEST PUSH1 0x40 MLOAD DUP1 SWAP2 SUB SWAP1 RETURN JUMPDEST PUSH3 0x25D PUSH1 0x4 DUP1 CALLDATASIZE SUB DUP2 ADD SWAP1 PUSH3 0x257 SWAP2 SWAP1 PUSH3 0x1E09 JUMP JUMPDEST PUSH3 0x6A3 JUMP JUMPDEST PUSH1 0x40 MLOAD PUSH3 0x26C SWAP2 SWAP1 PUSH3 0x1C79 JUMP JUMPDEST PUSH1 0x40 MLOAD DUP1 SWAP2 SUB SWAP1 RETURN JUMPDEST PUSH3 0x293 PUSH1 0x4 DUP1 CALLDATASIZE SUB DUP2 ADD SWAP1 PUSH3 0x28D SWAP2 SWAP1 PUSH3 0x1F8C JUMP JUMPDEST PUSH3 0x6BB JUMP JUMPDEST STOP JUMPDEST PUSH3 0x29F PUSH3 0x843 JUMP JUMPDEST PUSH1 0x40 MLOAD PUSH3 0x2AE SWAP2 SWAP1 PUSH3 0x202F JUMP JUMPDEST PUSH1 0x40 MLOAD DUP1 SWAP2 SUB SWAP1 RETURN JUMPDEST PUSH3 0x2D5 PUSH1 0x4 DUP1 CALLDATASIZE SUB DUP2 ADD SWAP1 PUSH3 0x2CF SWAP2 SWAP1 PUSH3 0x1BE7 JUMP JUMPDEST PUSH3 0x84C JUMP JUMPDEST PUSH1 0x40 MLOAD PUSH3 0x2E4 SWAP2 SWAP1 PUSH3 0x1C4B JUMP JUMPDEST PUSH1 0x40 MLOAD DUP1 SWAP2 SUB SWAP1 RETURN JUMPDEST PUSH3 0x30B PUSH1 0x4 DUP1 CALLDATASIZE SUB DUP2 ADD SWAP1 PUSH3 0x305 SWAP2 SWAP1 PUSH3 0x204C JUMP JUMPDEST PUSH3 0x88B JUMP JUMPDEST STOP JUMPDEST PUSH3 0x32B PUSH1 0x4 DUP1 CALLDATASIZE SUB DUP2 ADD SWAP1 PUSH3 0x325 SWAP2 SWAP1 PUSH3 0x1E09 JUMP JUMPDEST PUSH3 0xB19 JUMP JUMPDEST PUSH1 0x40 MLOAD PUSH3 0x33A SWAP2 SWAP1 PUSH3 0x1C79 JUMP JUMPDEST PUSH1 0x40 MLOAD DUP1 SWAP2 SUB SWAP1 RETURN JUMPDEST PUSH3 0x361 PUSH1 0x4 DUP1 CALLDATASIZE SUB DUP2 ADD SWAP1 PUSH3 0x35B SWAP2 SWAP1 PUSH3 0x20B2 JUMP JUMPDEST PUSH3 0xB62 JUMP JUMPDEST PUSH1 0x40 MLOAD PUSH3 0x370 SWAP2 SWAP1 PUSH3 0x1C79 JUMP JUMPDEST PUSH1 0x40 MLOAD DUP1 SWAP2 SUB SWAP1 RETURN JUMPDEST PUSH3 0x397 PUSH1 0x4 DUP1 CALLDATASIZE SUB DUP2 ADD SWAP1 PUSH3 0x391 SWAP2 SWAP1 PUSH3 0x20E4 JUMP JUMPDEST PUSH3 0xC10 JUMP JUMPDEST PUSH1 0x40 MLOAD PUSH3 0x3A6 SWAP2 SWAP1 PUSH3 0x1C79 JUMP JUMPDEST PUSH1 0x40 MLOAD DUP1 SWAP2 SUB SWAP1 RETURN JUMPDEST PUSH3 0x3B9 PUSH3 0xC58 JUMP JUMPDEST PUSH1 0x40 MLOAD PUSH3 0x3C8 SWAP2 SWAP1 PUSH3 0x1B0F JUMP JUMPDEST PUSH1 0x40 MLOAD DUP1 SWAP2 SUB SWAP1 RETURN JUMPDEST PUSH3 0x3EF PUSH1 0x4 DUP1 CALLDATASIZE SUB DUP2 ADD SWAP1 PUSH3 0x3E9 SWAP2 SWAP1 PUSH3 0x1BE7 JUMP JUMPDEST PUSH3 0xCF2 JUMP JUMPDEST PUSH1 0x40 MLOAD PUSH3 0x3FE SWAP2 SWAP1 PUSH3 0x1C4B JUMP JUMPDEST PUSH1 0x40 MLOAD DUP1 SWAP2 SUB SWAP1 RETURN JUMPDEST PUSH3 0x411 PUSH3 0xD72 JUMP JUMPDEST PUSH1 0x40 MLOAD PUSH3 0x420 SWAP2 SWAP1 PUSH3 0x1C79 JUMP JUMPDEST PUSH1 0x40 MLOAD DUP1 SWAP2 SUB SWAP1 RETURN JUMPDEST PUSH3 0x447 PUSH1 0x4 DUP1 CALLDATASIZE SUB DUP2 ADD SWAP1 PUSH3 0x441 SWAP2 SWAP1 PUSH3 0x1BE7 JUMP JUMPDEST PUSH3 0xD7E JUMP JUMPDEST PUSH1 0x40 MLOAD PUSH3 0x456 SWAP2 SWAP1 PUSH3 0x1C4B JUMP JUMPDEST PUSH1 0x40 MLOAD DUP1 SWAP2 SUB SWAP1 RETURN JUMPDEST PUSH3 0x47D PUSH1 0x4 DUP1 CALLDATASIZE SUB DUP2 ADD SWAP1 PUSH3 0x477 SWAP2 SWAP1 PUSH3 0x20B2 JUMP JUMPDEST PUSH3 0xDA5 JUMP JUMPDEST PUSH1 0x40 MLOAD PUSH3 0x48C SWAP2 SWAP1 PUSH3 0x2181 JUMP JUMPDEST PUSH1 0x40 MLOAD DUP1 SWAP2 SUB SWAP1 RETURN JUMPDEST PUSH3 0x4B3 PUSH1 0x4 DUP1 CALLDATASIZE SUB DUP2 ADD SWAP1 PUSH3 0x4AD SWAP2 SWAP1 PUSH3 0x1C96 JUMP JUMPDEST PUSH3 0xDD8 JUMP JUMPDEST PUSH1 0x40 MLOAD PUSH3 0x4C2 SWAP2 SWAP1 PUSH3 0x1C4B JUMP JUMPDEST PUSH1 0x40 MLOAD DUP1 SWAP2 SUB SWAP1 RETURN JUMPDEST PUSH3 0x4E9 PUSH1 0x4 DUP1 CALLDATASIZE SUB DUP2 ADD SWAP1 PUSH3 0x4E3 SWAP2 SWAP1 PUSH3 0x219E JUMP JUMPDEST PUSH3 0x1090 JUMP JUMPDEST PUSH1 0x40 MLOAD PUSH3 0x4F8 SWAP2 SWAP1 PUSH3 0x1C79 JUMP JUMPDEST PUSH1 0x40 MLOAD DUP1 SWAP2 SUB SWAP1 RETURN JUMPDEST PUSH3 0x51F PUSH1 0x4 DUP1 CALLDATASIZE SUB DUP2 ADD SWAP1 PUSH3 0x519 SWAP2 SWAP1 PUSH3 0x1C96 JUMP JUMPDEST PUSH3 0x1117 JUMP JUMPDEST PUSH1 0x40 MLOAD PUSH3 0x52E SWAP2 SWAP1 PUSH3 0x1C4B JUMP JUMPDEST PUSH1 0x40 MLOAD DUP1 SWAP2 SUB SWAP1 RETURN JUMPDEST PUSH1 0x60 PUSH1 0x3 DUP1 SLOAD PUSH3 0x548 SWAP1 PUSH3 0x2214 JUMP JUMPDEST DUP1 PUSH1 0x1F ADD PUSH1 0x20 DUP1 SWAP2 DIV MUL PUSH1 0x20 ADD PUSH1 0x40 MLOAD SWAP1 DUP2 ADD PUSH1 0x40 MSTORE DUP1 SWAP3 SWAP2 SWAP1 DUP2 DUP2 MSTORE PUSH1 0x20 ADD DUP3 DUP1 SLOAD PUSH3 0x576 SWAP1 PUSH3 0x2214 JUMP JUMPDEST DUP1 ISZERO PUSH3 0x5C7 JUMPI DUP1 PUSH1 0x1F LT PUSH3 0x59B JUMPI PUSH2 0x100 DUP1 DUP4 SLOAD DIV MUL DUP4 MSTORE SWAP2 PUSH1 0x20 ADD SWAP2 PUSH3 0x5C7 JUMP JUMPDEST DUP3 ADD SWAP2 SWAP1 PUSH1 0x0 MSTORE PUSH1 0x20 PUSH1 0x0 KECCAK256 SWAP1 JUMPDEST DUP2 SLOAD DUP2 MSTORE SWAP1 PUSH1 0x1 ADD SWAP1 PUSH1 0x20 ADD DUP1 DUP4 GT PUSH3 0x5A9 JUMPI DUP3 SWAP1 SUB PUSH1 0x1F AND DUP3 ADD SWAP2 JUMPDEST POP POP POP POP POP SWAP1 POP SWAP1 JUMP JUMPDEST PUSH1 0x0 DUP1 PUSH3 0x5DE PUSH3 0x13AE JUMP JUMPDEST SWAP1 POP PUSH3 0x5ED DUP2 DUP6 DUP6 PUSH3 0x13B6 JUMP JUMPDEST PUSH1 0x1 SWAP2 POP POP SWAP3 SWAP2 POP POP JUMP JUMPDEST PUSH1 0x0 PUSH1 0x2 SLOAD SWAP1 POP SWAP1 JUMP JUMPDEST PUSH3 0x60C PUSH3 0x1A3F JUMP JUMPDEST PUSH1 0x8 PUSH1 0x0 DUP5 DUP2 MSTORE PUSH1 0x20 ADD SWAP1 DUP2 MSTORE PUSH1 0x20 ADD PUSH1 0x0 KECCAK256 PUSH1 0x0 ADD PUSH1 0x0 DUP4 DUP2 MSTORE PUSH1 0x20 ADD SWAP1 DUP2 MSTORE PUSH1 0x20 ADD PUSH1 0x0 KECCAK256 PUSH1 0x40 MLOAD DUP1 PUSH1 0x80 ADD PUSH1 0x40 MSTORE SWAP1 DUP2 PUSH1 0x0 DUP3 ADD SLOAD DUP2 MSTORE PUSH1 0x20 ADD PUSH1 0x1 DUP3 ADD SLOAD DUP2 MSTORE PUSH1 0x20 ADD PUSH1 0x2 DUP3 ADD SLOAD DUP2 MSTORE PUSH1 0x20 ADD PUSH1 0x3 DUP3 ADD SLOAD DUP2 MSTORE POP POP SWAP1 POP SWAP3 SWAP2 POP POP JUMP JUMPDEST PUSH1 0x0 DUP1 PUSH3 0x67B PUSH3 0x13AE JUMP JUMPDEST SWAP1 POP PUSH3 0x68A DUP6 DUP3 DUP6 PUSH3 0x1587 JUMP JUMPDEST PUSH3 0x697 DUP6 DUP6 DUP6 PUSH3 0x161B JUMP JUMPDEST PUSH1 0x1 SWAP2 POP POP SWAP4 SWAP3 POP POP POP JUMP JUMPDEST PUSH1 0x7 PUSH1 0x20 MSTORE DUP1 PUSH1 0x0 MSTORE PUSH1 0x40 PUSH1 0x0 KECCAK256 PUSH1 0x0 SWAP2 POP SWAP1 POP SLOAD DUP2 JUMP JUMPDEST PUSH32 0x0 PUSH20 0xFFFFFFFFFFFFFFFFFFFFFFFFFFFFFFFFFFFFFFFF AND CALLER PUSH20 0xFFFFFFFFFFFFFFFFFFFFFFFFFFFFFFFFFFFFFFFF AND EQ PUSH3 0x74C JUMPI PUSH1 0x40 MLOAD PUSH32 0x8C379A000000000000000000000000000000000000000000000000000000000 DUP2 MSTORE PUSH1 0x4 ADD PUSH3 0x743 SWAP1 PUSH3 0x2299 JUMP JUMPDEST PUSH1 0x40 MLOAD DUP1 SWAP2 SUB SWAP1 REVERT JUMPDEST PUSH3 0x758 PUSH1 0x5 PUSH3 0x18A0 JUMP JUMPDEST PUSH1 0x0 PUSH3 0x766 PUSH1 0x5 PUSH3 0x18B6 JUMP JUMPDEST SWAP1 POP PUSH1 0x0 DUP4 DUP4 PUSH1 0x40 MLOAD PUSH3 0x77A SWAP1 PUSH3 0x1A67 JUMP JUMPDEST PUSH3 0x787 SWAP3 SWAP2 SWAP1 PUSH3 0x22BB JUMP JUMPDEST PUSH1 0x40 MLOAD DUP1 SWAP2 SUB SWAP1 PUSH1 0x0 CREATE DUP1 ISZERO DUP1 ISZERO PUSH3 0x7A4 JUMPI RETURNDATASIZE PUSH1 0x0 DUP1 RETURNDATACOPY RETURNDATASIZE PUSH1 0x0 REVERT JUMPDEST POP SWAP1 POP DUP1 PUSH1 0x6 PUSH1 0x0 DUP5 DUP2 MSTORE PUSH1 0x20 ADD SWAP1 DUP2 MSTORE PUSH1 0x20 ADD PUSH1 0x0 KECCAK256 PUSH1 0x0 PUSH2 0x100 EXP DUP2 SLOAD DUP2 PUSH20 0xFFFFFFFFFFFFFFFFFFFFFFFFFFFFFFFFFFFFFFFF MUL NOT AND SWAP1 DUP4 PUSH20 0xFFFFFFFFFFFFFFFFFFFFFFFFFFFFFFFFFFFFFFFF AND MUL OR SWAP1 SSTORE POP DUP2 PUSH1 0x7 PUSH1 0x0 DUP4 PUSH20 0xFFFFFFFFFFFFFFFFFFFFFFFFFFFFFFFFFFFFFFFF AND PUSH20 0xFFFFFFFFFFFFFFFFFFFFFFFFFFFFFFFFFFFFFFFF AND DUP2 MSTORE PUSH1 0x20 ADD SWAP1 DUP2 MSTORE PUSH1 0x20 ADD PUSH1 0x0 KECCAK256 DUP2 SWAP1 SSTORE POP POP POP POP POP JUMP JUMPDEST PUSH1 0x0 PUSH1 0x12 SWAP1 POP SWAP1 JUMP JUMPDEST PUSH1 0x0 DUP1 PUSH3 0x859 PUSH3 0x13AE JUMP JUMPDEST SWAP1 POP PUSH3 0x880 DUP2 DUP6 DUP6 PUSH3 0x86E DUP6 DUP10 PUSH3 0x1090 JUMP JUMPDEST PUSH3 0x87A SWAP2 SWAP1 PUSH3 0x2325 JUMP JUMPDEST PUSH3 0x13B6 JUMP JUMPDEST PUSH1 0x1 SWAP2 POP POP SWAP3 SWAP2 POP POP JUMP JUMPDEST PUSH32 0x0 PUSH20 0xFFFFFFFFFFFFFFFFFFFFFFFFFFFFFFFFFFFFFFFF AND PUSH4 0x23B872DD CALLER ADDRESS PUSH11 0x422CA8B0A00A425000000 PUSH1 0x40 MLOAD DUP5 PUSH4 0xFFFFFFFF AND PUSH1 0xE0 SHL DUP2 MSTORE PUSH1 0x4 ADD PUSH3 0x8F5 SWAP4 SWAP3 SWAP2 SWAP1 PUSH3 0x23B4 JUMP JUMPDEST PUSH1 0x20 PUSH1 0x40 MLOAD DUP1 DUP4 SUB DUP2 PUSH1 0x0 DUP8 GAS CALL ISZERO DUP1 ISZERO PUSH3 0x915 JUMPI RETURNDATASIZE PUSH1 0x0 DUP1 RETURNDATACOPY RETURNDATASIZE PUSH1 0x0 REVERT JUMPDEST POP POP POP POP PUSH1 0x40 MLOAD RETURNDATASIZE PUSH1 0x1F NOT PUSH1 0x1F DUP3 ADD AND DUP3 ADD DUP1 PUSH1 0x40 MSTORE POP DUP2 ADD SWAP1 PUSH3 0x93B SWAP2 SWAP1 PUSH3 0x2422 JUMP JUMPDEST PUSH3 0x97D JUMPI PUSH1 0x40 MLOAD PUSH32 0x8C379A000000000000000000000000000000000000000000000000000000000 DUP2 MSTORE PUSH1 0x4 ADD PUSH3 0x974 SWAP1 PUSH3 0x24A4 JUMP JUMPDEST PUSH1 0x40 MLOAD DUP1 SWAP2 SUB SWAP1 REVERT JUMPDEST PUSH1 0x0 PUSH1 0x6 PUSH1 0x0 DUP5 DUP2 MSTORE PUSH1 0x20 ADD SWAP1 DUP2 MSTORE PUSH1 0x20 ADD PUSH1 0x0 KECCAK256 PUSH1 0x0 SWAP1 SLOAD SWAP1 PUSH2 0x100 EXP SWAP1 DIV PUSH20 0xFFFFFFFFFFFFFFFFFFFFFFFFFFFFFFFFFFFFFFFF AND SWAP1 POP DUP1 PUSH20 0xFFFFFFFFFFFFFFFFFFFFFFFFFFFFFFFFFFFFFFFF AND PUSH4 0xD204C45E CALLER DUP5 PUSH1 0x40 MLOAD DUP4 PUSH4 0xFFFFFFFF AND PUSH1 0xE0 SHL DUP2 MSTORE PUSH1 0x4 ADD PUSH3 0x9F2 SWAP3 SWAP2 SWAP1 PUSH3 0x24C6 JUMP JUMPDEST PUSH1 0x0 PUSH1 0x40 MLOAD DUP1 DUP4 SUB DUP2 PUSH1 0x0 DUP8 DUP1 EXTCODESIZE ISZERO DUP1 ISZERO PUSH3 0xA0D JUMPI PUSH1 0x0 DUP1 REVERT JUMPDEST POP GAS CALL ISZERO DUP1 ISZERO PUSH3 0xA22 JUMPI RETURNDATASIZE PUSH1 0x0 DUP1 RETURNDATACOPY RETURNDATASIZE PUSH1 0x0 REVERT JUMPDEST POP POP POP POP PUSH1 0x0 DUP2 PUSH20 0xFFFFFFFFFFFFFFFFFFFFFFFFFFFFFFFFFFFFFFFF AND PUSH4 0x98BDF6F5 PUSH1 0x40 MLOAD DUP2 PUSH4 0xFFFFFFFF AND PUSH1 0xE0 SHL DUP2 MSTORE PUSH1 0x4 ADD PUSH1 0x20 PUSH1 0x40 MLOAD DUP1 DUP4 SUB DUP2 DUP7 GAS STATICCALL ISZERO DUP1 ISZERO PUSH3 0xA74 JUMPI RETURNDATASIZE PUSH1 0x0 DUP1 RETURNDATACOPY RETURNDATASIZE PUSH1 0x0 REVERT JUMPDEST POP POP POP POP PUSH1 0x40 MLOAD RETURNDATASIZE PUSH1 0x1F NOT PUSH1 0x1F DUP3 ADD AND DUP3 ADD DUP1 PUSH1 0x40 MSTORE POP DUP2 ADD SWAP1 PUSH3 0xA9A SWAP2 SWAP1 PUSH3 0x2511 JUMP JUMPDEST SWAP1 POP PUSH1 0x40 MLOAD DUP1 PUSH1 0x80 ADD PUSH1 0x40 MSTORE DUP1 PUSH1 0x0 DUP2 MSTORE PUSH1 0x20 ADD PUSH1 0x0 DUP2 MSTORE PUSH1 0x20 ADD PUSH1 0x0 DUP2 MSTORE PUSH1 0x20 ADD PUSH1 0x0 DUP2 MSTORE POP PUSH1 0x8 PUSH1 0x0 DUP7 DUP2 MSTORE PUSH1 0x20 ADD SWAP1 DUP2 MSTORE PUSH1 0x20 ADD PUSH1 0x0 KECCAK256 PUSH1 0x0 ADD PUSH1 0x0 DUP4 DUP2 MSTORE PUSH1 0x20 ADD SWAP1 DUP2 MSTORE PUSH1 0x20 ADD PUSH1 0x0 KECCAK256 PUSH1 0x0 DUP3 ADD MLOAD DUP2 PUSH1 0x0 ADD SSTORE PUSH1 0x20 DUP3 ADD MLOAD DUP2 PUSH1 0x1 ADD SSTORE PUSH1 0x40 DUP3 ADD MLOAD DUP2 PUSH1 0x2 ADD SSTORE PUSH1 0x60 DUP3 ADD MLOAD DUP2 PUSH1 0x3 ADD SSTORE SWAP1 POP POP POP POP POP POP JUMP JUMPDEST PUSH1 0x0 PUSH1 0x7 PUSH1 0x0 DUP4 PUSH20 0xFFFFFFFFFFFFFFFFFFFFFFFFFFFFFFFFFFFFFFFF AND PUSH20 0xFFFFFFFFFFFFFFFFFFFFFFFFFFFFFFFFFFFFFFFF AND DUP2 MSTORE PUSH1 0x20 ADD SWAP1 DUP2 MSTORE PUSH1 0x20 ADD PUSH1 0x0 KECCAK256 SLOAD SWAP1 POP SWAP2 SWAP1 POP JUMP JUMPDEST PUSH1 0x0 PUSH1 0x6 PUSH1 0x0 DUP4 DUP2 MSTORE PUSH1 0x20 ADD SWAP1 DUP2 MSTORE PUSH1 0x20 ADD PUSH1 0x0 KECCAK256 PUSH1 0x0 SWAP1 SLOAD SWAP1 PUSH2 0x100 EXP SWAP1 DIV PUSH20 0xFFFFFFFFFFFFFFFFFFFFFFFFFFFFFFFFFFFFFFFF AND PUSH20 0xFFFFFFFFFFFFFFFFFFFFFFFFFFFFFFFFFFFFFFFF AND PUSH4 0x98BDF6F5 PUSH1 0x40 MLOAD DUP2 PUSH4 0xFFFFFFFF AND PUSH1 0xE0 SHL DUP2 MSTORE PUSH1 0x4 ADD PUSH1 0x20 PUSH1 0x40 MLOAD DUP1 DUP4 SUB DUP2 DUP7 GAS STATICCALL ISZERO DUP1 ISZERO PUSH3 0xBE3 JUMPI RETURNDATASIZE PUSH1 0x0 DUP1 RETURNDATACOPY RETURNDATASIZE PUSH1 0x0 REVERT JUMPDEST POP POP POP POP PUSH1 0x40 MLOAD RETURNDATASIZE PUSH1 0x1F NOT PUSH1 0x1F DUP3 ADD AND DUP3 ADD DUP1 PUSH1 0x40 MSTORE POP DUP2 ADD SWAP1 PUSH3 0xC09 SWAP2 SWAP1 PUSH3 0x2511 JUMP JUMPDEST SWAP1 POP SWAP2 SWAP1 POP JUMP JUMPDEST PUSH1 0x0 DUP1 PUSH1 0x0 DUP4 PUSH20 0xFFFFFFFFFFFFFFFFFFFFFFFFFFFFFFFFFFFFFFFF AND PUSH20 0xFFFFFFFFFFFFFFFFFFFFFFFFFFFFFFFFFFFFFFFF AND DUP2 MSTORE PUSH1 0x20 ADD SWAP1 DUP2 MSTORE PUSH1 0x20 ADD PUSH1 0x0 KECCAK256 SLOAD SWAP1 POP SWAP2 SWAP1 POP JUMP JUMPDEST PUSH1 0x60 PUSH1 0x4 DUP1 SLOAD PUSH3 0xC69 SWAP1 PUSH3 0x2214 JUMP JUMPDEST DUP1 PUSH1 0x1F ADD PUSH1 0x20 DUP1 SWAP2 DIV MUL PUSH1 0x20 ADD PUSH1 0x40 MLOAD SWAP1 DUP2 ADD PUSH1 0x40 MSTORE DUP1 SWAP3 SWAP2 SWAP1 DUP2 DUP2 MSTORE PUSH1 0x20 ADD DUP3 DUP1 SLOAD PUSH3 0xC97 SWAP1 PUSH3 0x2214 JUMP JUMPDEST DUP1 ISZERO PUSH3 0xCE8 JUMPI DUP1 PUSH1 0x1F LT PUSH3 0xCBC JUMPI PUSH2 0x100 DUP1 DUP4 SLOAD DIV MUL DUP4 MSTORE SWAP2 PUSH1 0x20 ADD SWAP2 PUSH3 0xCE8 JUMP JUMPDEST DUP3 ADD SWAP2 SWAP1 PUSH1 0x0 MSTORE PUSH1 0x20 PUSH1 0x0 KECCAK256 SWAP1 JUMPDEST DUP2 SLOAD DUP2 MSTORE SWAP1 PUSH1 0x1 ADD SWAP1 PUSH1 0x20 ADD DUP1 DUP4 GT PUSH3 0xCCA JUMPI DUP3 SWAP1 SUB PUSH1 0x1F AND DUP3 ADD SWAP2 JUMPDEST POP POP POP POP POP SWAP1 POP SWAP1 JUMP JUMPDEST PUSH1 0x0 DUP1 PUSH3 0xCFF PUSH3 0x13AE JUMP JUMPDEST SWAP1 POP PUSH1 0x0 PUSH3 0xD0F DUP3 DUP7 PUSH3 0x1090 JUMP JUMPDEST SWAP1 POP DUP4 DUP2 LT ISZERO PUSH3 0xD57 JUMPI PUSH1 0x40 MLOAD PUSH32 0x8C379A000000000000000000000000000000000000000000000000000000000 DUP2 MSTORE PUSH1 0x4 ADD PUSH3 0xD4E SWAP1 PUSH3 0x25B9 JUMP JUMPDEST PUSH1 0x40 MLOAD DUP1 SWAP2 SUB SWAP1 REVERT JUMPDEST PUSH3 0xD66 DUP3 DUP7 DUP7 DUP5 SUB PUSH3 0x13B6 JUMP JUMPDEST PUSH1 0x1 SWAP3 POP POP POP SWAP3 SWAP2 POP POP JUMP JUMPDEST PUSH1 0x5 DUP1 PUSH1 0x0 ADD SLOAD SWAP1 POP DUP2 JUMP JUMPDEST PUSH1 0x0 DUP1 PUSH3 0xD8B PUSH3 0x13AE JUMP JUMPDEST SWAP1 POP PUSH3 0xD9A DUP2 DUP6 DUP6 PUSH3 0x161B JUMP JUMPDEST PUSH1 0x1 SWAP2 POP POP SWAP3 SWAP2 POP POP JUMP JUMPDEST PUSH1 0x6 PUSH1 0x20 MSTORE DUP1 PUSH1 0x0 MSTORE PUSH1 0x40 PUSH1 0x0 KECCAK256 PUSH1 0x0 SWAP2 POP SLOAD SWAP1 PUSH2 0x100 EXP SWAP1 DIV PUSH20 0xFFFFFFFFFFFFFFFFFFFFFFFFFFFFFFFFFFFFFFFF AND DUP2 JUMP JUMPDEST PUSH1 0x0 DUP1 PUSH1 0x6 PUSH1 0x0 DUP6 DUP2 MSTORE PUSH1 0x20 ADD SWAP1 DUP2 MSTORE PUSH1 0x20 ADD PUSH1 0x0 KECCAK256 PUSH1 0x0 SWAP1 SLOAD SWAP1 PUSH2 0x100 EXP SWAP1 DIV PUSH20 0xFFFFFFFFFFFFFFFFFFFFFFFFFFFFFFFFFFFFFFFF AND SWAP1 POP CALLER PUSH20 0xFFFFFFFFFFFFFFFFFFFFFFFFFFFFFFFFFFFFFFFF AND DUP2 PUSH20 0xFFFFFFFFFFFFFFFFFFFFFFFFFFFFFFFFFFFFFFFF AND PUSH4 0x6352211E DUP6 PUSH1 0x40 MLOAD DUP3 PUSH4 0xFFFFFFFF AND PUSH1 0xE0 SHL DUP2 MSTORE PUSH1 0x4 ADD PUSH3 0xE63 SWAP2 SWAP1 PUSH3 0x1C79 JUMP JUMPDEST PUSH1 0x20 PUSH1 0x40 MLOAD DUP1 DUP4 SUB DUP2 DUP7 GAS STATICCALL ISZERO DUP1 ISZERO PUSH3 0xE81 JUMPI RETURNDATASIZE PUSH1 0x0 DUP1 RETURNDATACOPY RETURNDATASIZE PUSH1 0x0 REVERT JUMPDEST POP POP POP POP PUSH1 0x40 MLOAD RETURNDATASIZE PUSH1 0x1F NOT PUSH1 0x1F DUP3 ADD AND DUP3 ADD DUP1 PUSH1 0x40 MSTORE POP DUP2 ADD SWAP1 PUSH3 0xEA7 SWAP2 SWAP1 PUSH3 0x25F2 JUMP JUMPDEST PUSH20 0xFFFFFFFFFFFFFFFFFFFFFFFFFFFFFFFFFFFFFFFF AND EQ PUSH3 0xF00 JUMPI PUSH1 0x40 MLOAD PUSH32 0x8C379A000000000000000000000000000000000000000000000000000000000 DUP2 MSTORE PUSH1 0x4 ADD PUSH3 0xEF7 SWAP1 PUSH3 0x2674 JUMP JUMPDEST PUSH1 0x40 MLOAD DUP1 SWAP2 SUB SWAP1 REVERT JUMPDEST PUSH2 0xA8C0 PUSH1 0x8 PUSH1 0x0 DUP7 DUP2 MSTORE PUSH1 0x20 ADD SWAP1 DUP2 MSTORE PUSH1 0x20 ADD PUSH1 0x0 KECCAK256 PUSH1 0x0 ADD PUSH1 0x0 DUP6 DUP2 MSTORE PUSH1 0x20 ADD SWAP1 DUP2 MSTORE PUSH1 0x20 ADD PUSH1 0x0 KECCAK256 PUSH1 0x0 ADD SLOAD TIMESTAMP PUSH3 0xF3B SWAP2 SWAP1 PUSH3 0x2696 JUMP JUMPDEST GT ISZERO PUSH3 0xF7F JUMPI PUSH1 0x40 MLOAD PUSH32 0x8C379A000000000000000000000000000000000000000000000000000000000 DUP2 MSTORE PUSH1 0x4 ADD PUSH3 0xF76 SWAP1 PUSH3 0x2721 JUMP JUMPDEST PUSH1 0x40 MLOAD DUP1 SWAP2 SUB SWAP1 REVERT JUMPDEST PUSH3 0x15180 PUSH1 0x8 PUSH1 0x0 DUP7 DUP2 MSTORE PUSH1 0x20 ADD SWAP1 DUP2 MSTORE PUSH1 0x20 ADD PUSH1 0x0 KECCAK256 PUSH1 0x0 ADD PUSH1 0x0 DUP6 DUP2 MSTORE PUSH1 0x20 ADD SWAP1 DUP2 MSTORE PUSH1 0x20 ADD PUSH1 0x0 KECCAK256 PUSH1 0x1 ADD SLOAD TIMESTAMP PUSH3 0xFBB SWAP2 SWAP1 PUSH3 0x2696 JUMP JUMPDEST GT PUSH3 0xFFE JUMPI PUSH1 0x40 MLOAD PUSH32 0x8C379A000000000000000000000000000000000000000000000000000000000 DUP2 MSTORE PUSH1 0x4 ADD PUSH3 0xFF5 SWAP1 PUSH3 0x2793 JUMP JUMPDEST PUSH1 0x40 MLOAD DUP1 SWAP2 SUB SWAP1 REVERT JUMPDEST TIMESTAMP PUSH1 0x8 PUSH1 0x0 DUP7 DUP2 MSTORE PUSH1 0x20 ADD SWAP1 DUP2 MSTORE PUSH1 0x20 ADD PUSH1 0x0 KECCAK256 PUSH1 0x0 ADD PUSH1 0x0 DUP6 DUP2 MSTORE PUSH1 0x20 ADD SWAP1 DUP2 MSTORE PUSH1 0x20 ADD PUSH1 0x0 KECCAK256 PUSH1 0x1 ADD DUP2 SWAP1 SSTORE POP PUSH1 0x5 PUSH1 0x8 PUSH1 0x0 DUP7 DUP2 MSTORE PUSH1 0x20 ADD SWAP1 DUP2 MSTORE PUSH1 0x20 ADD PUSH1 0x0 KECCAK256 PUSH1 0x0 ADD PUSH1 0x0 DUP6 DUP2 MSTORE PUSH1 0x20 ADD SWAP1 DUP2 MSTORE PUSH1 0x20 ADD PUSH1 0x0 KECCAK256 PUSH1 0x3 ADD PUSH1 0x0 DUP3 DUP3 SLOAD PUSH3 0x106A SWAP2 SWAP1 PUSH3 0x2325 JUMP JUMPDEST SWAP3 POP POP DUP2 SWAP1 SSTORE POP PUSH3 0x1085 CALLER PUSH8 0x4563918244F40000 PUSH3 0x18C4 JUMP JUMPDEST PUSH1 0x1 SWAP2 POP POP SWAP3 SWAP2 POP POP JUMP JUMPDEST PUSH1 0x0 PUSH1 0x1 PUSH1 0x0 DUP5 PUSH20 0xFFFFFFFFFFFFFFFFFFFFFFFFFFFFFFFFFFFFFFFF AND PUSH20 0xFFFFFFFFFFFFFFFFFFFFFFFFFFFFFFFFFFFFFFFF AND DUP2 MSTORE PUSH1 0x20 ADD SWAP1 DUP2 MSTORE PUSH1 0x20 ADD PUSH1 0x0 KECCAK256 PUSH1 0x0 DUP4 PUSH20 0xFFFFFFFFFFFFFFFFFFFFFFFFFFFFFFFFFFFFFFFF AND PUSH20 0xFFFFFFFFFFFFFFFFFFFFFFFFFFFFFFFFFFFFFFFF AND DUP2 MSTORE PUSH1 0x20 ADD SWAP1 DUP2 MSTORE PUSH1 0x20 ADD PUSH1 0x0 KECCAK256 SLOAD SWAP1 POP SWAP3 SWAP2 POP POP JUMP JUMPDEST PUSH1 0x0 DUP1 PUSH1 0x6 PUSH1 0x0 DUP6 DUP2 MSTORE PUSH1 0x20 ADD SWAP1 DUP2 MSTORE PUSH1 0x20 ADD PUSH1 0x0 KECCAK256 PUSH1 0x0 SWAP1 SLOAD SWAP1 PUSH2 0x100 EXP SWAP1 DIV PUSH20 0xFFFFFFFFFFFFFFFFFFFFFFFFFFFFFFFFFFFFFFFF AND SWAP1 POP CALLER PUSH20 0xFFFFFFFFFFFFFFFFFFFFFFFFFFFFFFFFFFFFFFFF AND DUP2 PUSH20 0xFFFFFFFFFFFFFFFFFFFFFFFFFFFFFFFFFFFFFFFF AND PUSH4 0x6352211E DUP6 PUSH1 0x40 MLOAD DUP3 PUSH4 0xFFFFFFFF AND PUSH1 0xE0 SHL DUP2 MSTORE PUSH1 0x4 ADD PUSH3 0x11A2 SWAP2 SWAP1 PUSH3 0x1C79 JUMP JUMPDEST PUSH1 0x20 PUSH1 0x40 MLOAD DUP1 DUP4 SUB DUP2 DUP7 GAS STATICCALL ISZERO DUP1 ISZERO PUSH3 0x11C0 JUMPI RETURNDATASIZE PUSH1 0x0 DUP1 RETURNDATACOPY RETURNDATASIZE PUSH1 0x0 REVERT JUMPDEST POP POP POP POP PUSH1 0x40 MLOAD RETURNDATASIZE PUSH1 0x1F NOT PUSH1 0x1F DUP3 ADD AND DUP3 ADD DUP1 PUSH1 0x40 MSTORE POP DUP2 ADD SWAP1 PUSH3 0x11E6 SWAP2 SWAP1 PUSH3 0x25F2 JUMP JUMPDEST PUSH20 0xFFFFFFFFFFFFFFFFFFFFFFFFFFFFFFFFFFFFFFFF AND EQ PUSH3 0x123F JUMPI PUSH1 0x40 MLOAD PUSH32 0x8C379A000000000000000000000000000000000000000000000000000000000 DUP2 MSTORE PUSH1 0x4 ADD PUSH3 0x1236 SWAP1 PUSH3 0x2674 JUMP JUMPDEST PUSH1 0x40 MLOAD DUP1 SWAP2 SUB SWAP1 REVERT JUMPDEST PUSH32 0x0 PUSH20 0xFFFFFFFFFFFFFFFFFFFFFFFFFFFFFFFFFFFFFFFF AND PUSH4 0x23B872DD CALLER ADDRESS PUSH10 0xD3C21BCECCEDA1000000 PUSH1 0x40 MLOAD DUP5 PUSH4 0xFFFFFFFF AND PUSH1 0xE0 SHL DUP2 MSTORE PUSH1 0x4 ADD PUSH3 0x12A8 SWAP4 SWAP3 SWAP2 SWAP1 PUSH3 0x27F8 JUMP JUMPDEST PUSH1 0x20 PUSH1 0x40 MLOAD DUP1 DUP4 SUB DUP2 PUSH1 0x0 DUP8 GAS CALL ISZERO DUP1 ISZERO PUSH3 0x12C8 JUMPI RETURNDATASIZE PUSH1 0x0 DUP1 RETURNDATACOPY RETURNDATASIZE PUSH1 0x0 REVERT JUMPDEST POP POP POP POP PUSH1 0x40 MLOAD RETURNDATASIZE PUSH1 0x1F NOT PUSH1 0x1F DUP3 ADD AND DUP3 ADD DUP1 PUSH1 0x40 MSTORE POP DUP2 ADD SWAP1 PUSH3 0x12EE SWAP2 SWAP1 PUSH3 0x2422 JUMP JUMPDEST PUSH3 0x1330 JUMPI PUSH1 0x40 MLOAD PUSH32 0x8C379A000000000000000000000000000000000000000000000000000000000 DUP2 MSTORE PUSH1 0x4 ADD PUSH3 0x1327 SWAP1 PUSH3 0x24A4 JUMP JUMPDEST PUSH1 0x40 MLOAD DUP1 SWAP2 SUB SWAP1 REVERT JUMPDEST TIMESTAMP PUSH1 0x8 PUSH1 0x0 DUP7 DUP2 MSTORE PUSH1 0x20 ADD SWAP1 DUP2 MSTORE PUSH1 0x20 ADD PUSH1 0x0 KECCAK256 PUSH1 0x0 ADD PUSH1 0x0 DUP6 DUP2 MSTORE PUSH1 0x20 ADD SWAP1 DUP2 MSTORE PUSH1 0x20 ADD PUSH1 0x0 KECCAK256 PUSH1 0x0 ADD DUP2 SWAP1 SSTORE POP PUSH1 0x1 PUSH1 0x8 PUSH1 0x0 DUP7 DUP2 MSTORE PUSH1 0x20 ADD SWAP1 DUP2 MSTORE PUSH1 0x20 ADD PUSH1 0x0 KECCAK256 PUSH1 0x0 ADD PUSH1 0x0 DUP6 DUP2 MSTORE PUSH1 0x20 ADD SWAP1 DUP2 MSTORE PUSH1 0x20 ADD PUSH1 0x0 KECCAK256 PUSH1 0x2 ADD PUSH1 0x0 DUP3 DUP3 SLOAD PUSH3 0x139C SWAP2 SWAP1 PUSH3 0x2325 JUMP JUMPDEST SWAP3 POP POP DUP2 SWAP1 SSTORE POP PUSH1 0x1 SWAP2 POP POP SWAP3 SWAP2 POP POP JUMP JUMPDEST PUSH1 0x0 CALLER SWAP1 POP SWAP1 JUMP JUMPDEST PUSH1 0x0 PUSH20 0xFFFFFFFFFFFFFFFFFFFFFFFFFFFFFFFFFFFFFFFF AND DUP4 PUSH20 0xFFFFFFFFFFFFFFFFFFFFFFFFFFFFFFFFFFFFFFFF AND SUB PUSH3 0x1428 JUMPI PUSH1 0x40 MLOAD PUSH32 0x8C379A000000000000000000000000000000000000000000000000000000000 DUP2 MSTORE PUSH1 0x4 ADD PUSH3 0x141F SWAP1 PUSH3 0x28AB JUMP JUMPDEST PUSH1 0x40 MLOAD DUP1 SWAP2 SUB SWAP1 REVERT JUMPDEST PUSH1 0x0 PUSH20 0xFFFFFFFFFFFFFFFFFFFFFFFFFFFFFFFFFFFFFFFF AND DUP3 PUSH20 0xFFFFFFFFFFFFFFFFFFFFFFFFFFFFFFFFFFFFFFFF AND SUB PUSH3 0x149A JUMPI PUSH1 0x40 MLOAD PUSH32 0x8C379A000000000000000000000000000000000000000000000000000000000 DUP2 MSTORE PUSH1 0x4 ADD PUSH3 0x1491 SWAP1 PUSH3 0x2943 JUMP JUMPDEST PUSH1 0x40 MLOAD DUP1 SWAP2 SUB SWAP1 REVERT JUMPDEST DUP1 PUSH1 0x1 PUSH1 0x0 DUP6 PUSH20 0xFFFFFFFFFFFFFFFFFFFFFFFFFFFFFFFFFFFFFFFF AND PUSH20 0xFFFFFFFFFFFFFFFFFFFFFFFFFFFFFFFFFFFFFFFF AND DUP2 MSTORE PUSH1 0x20 ADD SWAP1 DUP2 MSTORE PUSH1 0x20 ADD PUSH1 0x0 KECCAK256 PUSH1 0x0 DUP5 PUSH20 0xFFFFFFFFFFFFFFFFFFFFFFFFFFFFFFFFFFFFFFFF AND PUSH20 0xFFFFFFFFFFFFFFFFFFFFFFFFFFFFFFFFFFFFFFFF AND DUP2 MSTORE PUSH1 0x20 ADD SWAP1 DUP2 MSTORE PUSH1 0x20 ADD PUSH1 0x0 KECCAK256 DUP2 SWAP1 SSTORE POP DUP2 PUSH20 0xFFFFFFFFFFFFFFFFFFFFFFFFFFFFFFFFFFFFFFFF AND DUP4 PUSH20 0xFFFFFFFFFFFFFFFFFFFFFFFFFFFFFFFFFFFFFFFF AND PUSH32 0x8C5BE1E5EBEC7D5BD14F71427D1E84F3DD0314C0F7B2291E5B200AC8C7C3B925 DUP4 PUSH1 0x40 MLOAD PUSH3 0x157A SWAP2 SWAP1 PUSH3 0x1C79 JUMP JUMPDEST PUSH1 0x40 MLOAD DUP1 SWAP2 SUB SWAP1 LOG3 POP POP POP JUMP JUMPDEST PUSH1 0x0 PUSH3 0x1595 DUP5 DUP5 PUSH3 0x1090 JUMP JUMPDEST SWAP1 POP PUSH32 0xFFFFFFFFFFFFFFFFFFFFFFFFFFFFFFFFFFFFFFFFFFFFFFFFFFFFFFFFFFFFFFFF DUP2 EQ PUSH3 0x1615 JUMPI DUP2 DUP2 LT ISZERO PUSH3 0x1605 JUMPI PUSH1 0x40 MLOAD PUSH32 0x8C379A000000000000000000000000000000000000000000000000000000000 DUP2 MSTORE PUSH1 0x4 ADD PUSH3 0x15FC SWAP1 PUSH3 0x29B5 JUMP JUMPDEST PUSH1 0x40 MLOAD DUP1 SWAP2 SUB SWAP1 REVERT JUMPDEST PUSH3 0x1614 DUP5 DUP5 DUP5 DUP5 SUB PUSH3 0x13B6 JUMP JUMPDEST JUMPDEST POP POP POP POP JUMP JUMPDEST PUSH1 0x0 PUSH20 0xFFFFFFFFFFFFFFFFFFFFFFFFFFFFFFFFFFFFFFFF AND DUP4 PUSH20 0xFFFFFFFFFFFFFFFFFFFFFFFFFFFFFFFFFFFFFFFF AND SUB PUSH3 0x168D JUMPI PUSH1 0x40 MLOAD PUSH32 0x8C379A000000000000000000000000000000000000000000000000000000000 DUP2 MSTORE PUSH1 0x4 ADD PUSH3 0x1684 SWAP1 PUSH3 0x2A4D JUMP JUMPDEST PUSH1 0x40 MLOAD DUP1 SWAP2 SUB SWAP1 REVERT JUMPDEST PUSH1 0x0 PUSH20 0xFFFFFFFFFFFFFFFFFFFFFFFFFFFFFFFFFFFFFFFF AND DUP3 PUSH20 0xFFFFFFFFFFFFFFFFFFFFFFFFFFFFFFFFFFFFFFFF AND SUB PUSH3 0x16FF JUMPI PUSH1 0x40 MLOAD PUSH32 0x8C379A000000000000000000000000000000000000000000000000000000000 DUP2 MSTORE PUSH1 0x4 ADD PUSH3 0x16F6 SWAP1 PUSH3 0x2AE5 JUMP JUMPDEST PUSH1 0x40 MLOAD DUP1 SWAP2 SUB SWAP1 REVERT JUMPDEST PUSH3 0x170C DUP4 DUP4 DUP4 PUSH3 0x18D4 JUMP JUMPDEST PUSH1 0x0 DUP1 PUSH1 0x0 DUP6 PUSH20 0xFFFFFFFFFFFFFFFFFFFFFFFFFFFFFFFFFFFFFFFF AND PUSH20 0xFFFFFFFFFFFFFFFFFFFFFFFFFFFFFFFFFFFFFFFF AND DUP2 MSTORE PUSH1 0x20 ADD SWAP1 DUP2 MSTORE PUSH1 0x20 ADD PUSH1 0x0 KECCAK256 SLOAD SWAP1 POP DUP2 DUP2 LT ISZERO PUSH3 0x1795 JUMPI PUSH1 0x40 MLOAD PUSH32 0x8C379A000000000000000000000000000000000000000000000000000000000 DUP2 MSTORE PUSH1 0x4 ADD PUSH3 0x178C SWAP1 PUSH3 0x2B7D JUMP JUMPDEST PUSH1 0x40 MLOAD DUP1 SWAP2 SUB SWAP1 REVERT JUMPDEST DUP2 DUP2 SUB PUSH1 0x0 DUP1 DUP7 PUSH20 0xFFFFFFFFFFFFFFFFFFFFFFFFFFFFFFFFFFFFFFFF AND PUSH20 0xFFFFFFFFFFFFFFFFFFFFFFFFFFFFFFFFFFFFFFFF AND DUP2 MSTORE PUSH1 0x20 ADD SWAP1 DUP2 MSTORE PUSH1 0x20 ADD PUSH1 0x0 KECCAK256 DUP2 SWAP1 SSTORE POP DUP2 PUSH1 0x0 DUP1 DUP6 PUSH20 0xFFFFFFFFFFFFFFFFFFFFFFFFFFFFFFFFFFFFFFFF AND PUSH20 0xFFFFFFFFFFFFFFFFFFFFFFFFFFFFFFFFFFFFFFFF AND DUP2 MSTORE PUSH1 0x20 ADD SWAP1 DUP2 MSTORE PUSH1 0x20 ADD PUSH1 0x0 KECCAK256 PUSH1 0x0 DUP3 DUP3 SLOAD ADD SWAP3 POP POP DUP2 SWAP1 SSTORE POP DUP3 PUSH20 0xFFFFFFFFFFFFFFFFFFFFFFFFFFFFFFFFFFFFFFFF AND DUP5 PUSH20 0xFFFFFFFFFFFFFFFFFFFFFFFFFFFFFFFFFFFFFFFF AND PUSH32 0xDDF252AD1BE2C89B69C2B068FC378DAA952BA7F163C4A11628F55A4DF523B3EF DUP5 PUSH1 0x40 MLOAD PUSH3 0x1885 SWAP2 SWAP1 PUSH3 0x1C79 JUMP JUMPDEST PUSH1 0x40 MLOAD DUP1 SWAP2 SUB SWAP1 LOG3 PUSH3 0x189A DUP5 DUP5 DUP5 PUSH3 0x18D9 JUMP JUMPDEST POP POP POP POP JUMP JUMPDEST PUSH1 0x1 DUP2 PUSH1 0x0 ADD PUSH1 0x0 DUP3 DUP3 SLOAD ADD SWAP3 POP POP DUP2 SWAP1 SSTORE POP POP JUMP JUMPDEST PUSH1 0x0 DUP2 PUSH1 0x0 ADD SLOAD SWAP1 POP SWAP2 SWAP1 POP JUMP JUMPDEST PUSH3 0x18D0 DUP3 DUP3 PUSH3 0x18DE JUMP JUMPDEST POP POP JUMP JUMPDEST POP POP POP JUMP JUMPDEST POP POP POP JUMP JUMPDEST PUSH1 0x0 PUSH20 0xFFFFFFFFFFFFFFFFFFFFFFFFFFFFFFFFFFFFFFFF AND DUP3 PUSH20 0xFFFFFFFFFFFFFFFFFFFFFFFFFFFFFFFFFFFFFFFF AND SUB PUSH3 0x1950 JUMPI PUSH1 0x40 MLOAD PUSH32 0x8C379A000000000000000000000000000000000000000000000000000000000 DUP2 MSTORE PUSH1 0x4 ADD PUSH3 0x1947 SWAP1 PUSH3 0x2BEF JUMP JUMPDEST PUSH1 0x40 MLOAD DUP1 SWAP2 SUB SWAP1 REVERT JUMPDEST PUSH3 0x195E PUSH1 0x0 DUP4 DUP4 PUSH3 0x18D4 JUMP JUMPDEST DUP1 PUSH1 0x2 PUSH1 0x0 DUP3 DUP3 SLOAD PUSH3 0x1972 SWAP2 SWAP1 PUSH3 0x2325 JUMP JUMPDEST SWAP3 POP POP DUP2 SWAP1 SSTORE POP DUP1 PUSH1 0x0 DUP1 DUP5 PUSH20 0xFFFFFFFFFFFFFFFFFFFFFFFFFFFFFFFFFFFFFFFF AND PUSH20 0xFFFFFFFFFFFFFFFFFFFFFFFFFFFFFFFFFFFFFFFF AND DUP2 MSTORE PUSH1 0x20 ADD SWAP1 DUP2 MSTORE PUSH1 0x20 ADD PUSH1 0x0 KECCAK256 PUSH1 0x0 DUP3 DUP3 SLOAD ADD SWAP3 POP POP DUP2 SWAP1 SSTORE POP DUP2 PUSH20 0xFFFFFFFFFFFFFFFFFFFFFFFFFFFFFFFFFFFFFFFF AND PUSH1 0x0 PUSH20 0xFFFFFFFFFFFFFFFFFFFFFFFFFFFFFFFFFFFFFFFF AND PUSH32 0xDDF252AD1BE2C89B69C2B068FC378DAA952BA7F163C4A11628F55A4DF523B3EF DUP4 PUSH1 0x40 MLOAD PUSH3 0x1A25 SWAP2 SWAP1 PUSH3 0x1C79 JUMP JUMPDEST PUSH1 0x40 MLOAD DUP1 SWAP2 SUB SWAP1 LOG3 PUSH3 0x1A3B PUSH1 0x0 DUP4 DUP4 PUSH3 0x18D9 JUMP JUMPDEST POP POP JUMP JUMPDEST PUSH1 0x40 MLOAD DUP1 PUSH1 0x80 ADD PUSH1 0x40 MSTORE DUP1 PUSH1 0x0 DUP2 MSTORE PUSH1 0x20 ADD PUSH1 0x0 DUP2 MSTORE PUSH1 0x20 ADD PUSH1 0x0 DUP2 MSTORE PUSH1 0x20 ADD PUSH1 0x0 DUP2 MSTORE POP SWAP1 JUMP JUMPDEST PUSH2 0x3368 DUP1 PUSH3 0x2C12 DUP4 CODECOPY ADD SWAP1 JUMP JUMPDEST PUSH1 0x0 DUP2 MLOAD SWAP1 POP SWAP2 SWAP1 POP JUMP JUMPDEST PUSH1 0x0 DUP3 DUP3 MSTORE PUSH1 0x20 DUP3 ADD SWAP1 POP SWAP3 SWAP2 POP POP JUMP JUMPDEST PUSH1 0x0 JUMPDEST DUP4 DUP2 LT ISZERO PUSH3 0x1AB1 JUMPI DUP1 DUP3 ADD MLOAD DUP2 DUP5 ADD MSTORE PUSH1 0x20 DUP2 ADD SWAP1 POP PUSH3 0x1A94 JUMP JUMPDEST PUSH1 0x0 DUP5 DUP5 ADD MSTORE POP POP POP POP JUMP JUMPDEST PUSH1 0x0 PUSH1 0x1F NOT PUSH1 0x1F DUP4 ADD AND SWAP1 POP SWAP2 SWAP1 POP JUMP JUMPDEST PUSH1 0x0 PUSH3 0x1ADB DUP3 PUSH3 0x1A75 JUMP JUMPDEST PUSH3 0x1AE7 DUP2 DUP6 PUSH3 0x1A80 JUMP JUMPDEST SWAP4 POP PUSH3 0x1AF9 DUP2 DUP6 PUSH1 0x20 DUP7 ADD PUSH3 0x1A91 JUMP JUMPDEST PUSH3 0x1B04 DUP2 PUSH3 0x1ABD JUMP JUMPDEST DUP5 ADD SWAP2 POP POP SWAP3 SWAP2 POP POP JUMP JUMPDEST PUSH1 0x0 PUSH1 0x20 DUP3 ADD SWAP1 POP DUP2 DUP2 SUB PUSH1 0x0 DUP4 ADD MSTORE PUSH3 0x1B2B DUP2 DUP5 PUSH3 0x1ACE JUMP JUMPDEST SWAP1 POP SWAP3 SWAP2 POP POP JUMP JUMPDEST PUSH1 0x0 PUSH1 0x40 MLOAD SWAP1 POP SWAP1 JUMP JUMPDEST PUSH1 0x0 DUP1 REVERT JUMPDEST PUSH1 0x0 DUP1 REVERT JUMPDEST PUSH1 0x0 PUSH20 0xFFFFFFFFFFFFFFFFFFFFFFFFFFFFFFFFFFFFFFFF DUP3 AND SWAP1 POP SWAP2 SWAP1 POP JUMP JUMPDEST PUSH1 0x0 PUSH3 0x1B74 DUP3 PUSH3 0x1B47 JUMP JUMPDEST SWAP1 POP SWAP2 SWAP1 POP JUMP JUMPDEST PUSH3 0x1B86 DUP2 PUSH3 0x1B67 JUMP JUMPDEST DUP2 EQ PUSH3 0x1B92 JUMPI PUSH1 0x0 DUP1 REVERT JUMPDEST POP JUMP JUMPDEST PUSH1 0x0 DUP2 CALLDATALOAD SWAP1 POP PUSH3 0x1BA6 DUP2 PUSH3 0x1B7B JUMP JUMPDEST SWAP3 SWAP2 POP POP JUMP JUMPDEST PUSH1 0x0 DUP2 SWAP1 POP SWAP2 SWAP1 POP JUMP JUMPDEST PUSH3 0x1BC1 DUP2 PUSH3 0x1BAC JUMP JUMPDEST DUP2 EQ PUSH3 0x1BCD JUMPI PUSH1 0x0 DUP1 REVERT JUMPDEST POP JUMP JUMPDEST PUSH1 0x0 DUP2 CALLDATALOAD SWAP1 POP PUSH3 0x1BE1 DUP2 PUSH3 0x1BB6 JUMP JUMPDEST SWAP3 SWAP2 POP POP JUMP JUMPDEST PUSH1 0x0 DUP1 PUSH1 0x40 DUP4 DUP6 SUB SLT ISZERO PUSH3 0x1C01 JUMPI PUSH3 0x1C00 PUSH3 0x1B3D JUMP JUMPDEST JUMPDEST PUSH1 0x0 PUSH3 0x1C11 DUP6 DUP3 DUP7 ADD PUSH3 0x1B95 JUMP JUMPDEST SWAP3 POP POP PUSH1 0x20 PUSH3 0x1C24 DUP6 DUP3 DUP7 ADD PUSH3 0x1BD0 JUMP JUMPDEST SWAP2 POP POP SWAP3 POP SWAP3 SWAP1 POP JUMP JUMPDEST PUSH1 0x0 DUP2 ISZERO ISZERO SWAP1 POP SWAP2 SWAP1 POP JUMP JUMPDEST PUSH3 0x1C45 DUP2 PUSH3 0x1C2E JUMP JUMPDEST DUP3 MSTORE POP POP JUMP JUMPDEST PUSH1 0x0 PUSH1 0x20 DUP3 ADD SWAP1 POP PUSH3 0x1C62 PUSH1 0x0 DUP4 ADD DUP5 PUSH3 0x1C3A JUMP JUMPDEST SWAP3 SWAP2 POP POP JUMP JUMPDEST PUSH3 0x1C73 DUP2 PUSH3 0x1BAC JUMP JUMPDEST DUP3 MSTORE POP POP JUMP JUMPDEST PUSH1 0x0 PUSH1 0x20 DUP3 ADD SWAP1 POP PUSH3 0x1C90 PUSH1 0x0 DUP4 ADD DUP5 PUSH3 0x1C68 JUMP JUMPDEST SWAP3 SWAP2 POP POP JUMP JUMPDEST PUSH1 0x0 DUP1 PUSH1 0x40 DUP4 DUP6 SUB SLT ISZERO PUSH3 0x1CB0 JUMPI PUSH3 0x1CAF PUSH3 0x1B3D JUMP JUMPDEST JUMPDEST PUSH1 0x0 PUSH3 0x1CC0 DUP6 DUP3 DUP7 ADD PUSH3 0x1BD0 JUMP JUMPDEST SWAP3 POP POP PUSH1 0x20 PUSH3 0x1CD3 DUP6 DUP3 DUP7 ADD PUSH3 0x1BD0 JUMP JUMPDEST SWAP2 POP POP SWAP3 POP SWAP3 SWAP1 POP JUMP JUMPDEST PUSH3 0x1CE8 DUP2 PUSH3 0x1BAC JUMP JUMPDEST DUP3 MSTORE POP POP JUMP JUMPDEST PUSH1 0x80 DUP3 ADD PUSH1 0x0 DUP3 ADD MLOAD PUSH3 0x1D06 PUSH1 0x0 DUP6 ADD DUP3 PUSH3 0x1CDD JUMP JUMPDEST POP PUSH1 0x20 DUP3 ADD MLOAD PUSH3 0x1D1B PUSH1 0x20 DUP6 ADD DUP3 PUSH3 0x1CDD JUMP JUMPDEST POP PUSH1 0x40 DUP3 ADD MLOAD PUSH3 0x1D30 PUSH1 0x40 DUP6 ADD DUP3 PUSH3 0x1CDD JUMP JUMPDEST POP PUSH1 0x60 DUP3 ADD MLOAD PUSH3 0x1D45 PUSH1 0x60 DUP6 ADD DUP3 PUSH3 0x1CDD JUMP JUMPDEST POP POP POP POP JUMP JUMPDEST PUSH1 0x0 PUSH1 0x80 DUP3 ADD SWAP1 POP PUSH3 0x1D62 PUSH1 0x0 DUP4 ADD DUP5 PUSH3 0x1CEE JUMP JUMPDEST SWAP3 SWAP2 POP POP JUMP JUMPDEST PUSH1 0x0 DUP1 PUSH1 0x0 PUSH1 0x60 DUP5 DUP7 SUB SLT ISZERO PUSH3 0x1D84 JUMPI PUSH3 0x1D83 PUSH3 0x1B3D JUMP JUMPDEST JUMPDEST PUSH1 0x0 PUSH3 0x1D94 DUP7 DUP3 DUP8 ADD PUSH3 0x1B95 JUMP JUMPDEST SWAP4 POP POP PUSH1 0x20 PUSH3 0x1DA7 DUP7 DUP3 DUP8 ADD PUSH3 0x1B95 JUMP JUMPDEST SWAP3 POP POP PUSH1 0x40 PUSH3 0x1DBA DUP7 DUP3 DUP8 ADD PUSH3 0x1BD0 JUMP JUMPDEST SWAP2 POP POP SWAP3 POP SWAP3 POP SWAP3 JUMP JUMPDEST PUSH1 0x0 PUSH3 0x1DD1 DUP3 PUSH3 0x1B67 JUMP JUMPDEST SWAP1 POP SWAP2 SWAP1 POP JUMP JUMPDEST PUSH3 0x1DE3 DUP2 PUSH3 0x1DC4 JUMP JUMPDEST DUP2 EQ PUSH3 0x1DEF JUMPI PUSH1 0x0 DUP1 REVERT JUMPDEST POP JUMP JUMPDEST PUSH1 0x0 DUP2 CALLDATALOAD SWAP1 POP PUSH3 0x1E03 DUP2 PUSH3 0x1DD8 JUMP JUMPDEST SWAP3 SWAP2 POP POP JUMP JUMPDEST PUSH1 0x0 PUSH1 0x20 DUP3 DUP5 SUB SLT ISZERO PUSH3 0x1E22 JUMPI PUSH3 0x1E21 PUSH3 0x1B3D JUMP JUMPDEST JUMPDEST PUSH1 0x0 PUSH3 0x1E32 DUP5 DUP3 DUP6 ADD PUSH3 0x1DF2 JUMP JUMPDEST SWAP2 POP POP SWAP3 SWAP2 POP POP JUMP JUMPDEST PUSH1 0x0 DUP1 REVERT JUMPDEST PUSH1 0x0 DUP1 REVERT JUMPDEST PUSH32 0x4E487B7100000000000000000000000000000000000000000000000000000000 PUSH1 0x0 MSTORE PUSH1 0x41 PUSH1 0x4 MSTORE PUSH1 0x24 PUSH1 0x0 REVERT JUMPDEST PUSH3 0x1E7F DUP3 PUSH3 0x1ABD JUMP JUMPDEST DUP2 ADD DUP2 DUP2 LT PUSH8 0xFFFFFFFFFFFFFFFF DUP3 GT OR ISZERO PUSH3 0x1EA1 JUMPI PUSH3 0x1EA0 PUSH3 0x1E45 JUMP JUMPDEST JUMPDEST DUP1 PUSH1 0x40 MSTORE POP POP POP JUMP JUMPDEST PUSH1 0x0 PUSH3 0x1EB6 PUSH3 0x1B33 JUMP JUMPDEST SWAP1 POP PUSH3 0x1EC4 DUP3 DUP3 PUSH3 0x1E74 JUMP JUMPDEST SWAP2 SWAP1 POP JUMP JUMPDEST PUSH1 0x0 PUSH8 0xFFFFFFFFFFFFFFFF DUP3 GT ISZERO PUSH3 0x1EE7 JUMPI PUSH3 0x1EE6 PUSH3 0x1E45 JUMP JUMPDEST JUMPDEST PUSH3 0x1EF2 DUP3 PUSH3 0x1ABD JUMP JUMPDEST SWAP1 POP PUSH1 0x20 DUP2 ADD SWAP1 POP SWAP2 SWAP1 POP JUMP JUMPDEST DUP3 DUP2 DUP4 CALLDATACOPY PUSH1 0x0 DUP4 DUP4 ADD MSTORE POP POP POP JUMP JUMPDEST PUSH1 0x0 PUSH3 0x1F25 PUSH3 0x1F1F DUP5 PUSH3 0x1EC9 JUMP JUMPDEST PUSH3 0x1EAA JUMP JUMPDEST SWAP1 POP DUP3 DUP2 MSTORE PUSH1 0x20 DUP2 ADD DUP5 DUP5 DUP5 ADD GT ISZERO PUSH3 0x1F44 JUMPI PUSH3 0x1F43 PUSH3 0x1E40 JUMP JUMPDEST JUMPDEST PUSH3 0x1F51 DUP5 DUP3 DUP6 PUSH3 0x1EFF JUMP JUMPDEST POP SWAP4 SWAP3 POP POP POP JUMP JUMPDEST PUSH1 0x0 DUP3 PUSH1 0x1F DUP4 ADD SLT PUSH3 0x1F71 JUMPI PUSH3 0x1F70 PUSH3 0x1E3B JUMP JUMPDEST JUMPDEST DUP2 CALLDATALOAD PUSH3 0x1F83 DUP5 DUP3 PUSH1 0x20 DUP7 ADD PUSH3 0x1F0E JUMP JUMPDEST SWAP2 POP POP SWAP3 SWAP2 POP POP JUMP JUMPDEST PUSH1 0x0 DUP1 PUSH1 0x40 DUP4 DUP6 SUB SLT ISZERO PUSH3 0x1FA6 JUMPI PUSH3 0x1FA5 PUSH3 0x1B3D JUMP JUMPDEST JUMPDEST PUSH1 0x0 DUP4 ADD CALLDATALOAD PUSH8 0xFFFFFFFFFFFFFFFF DUP2 GT ISZERO PUSH3 0x1FC7 JUMPI PUSH3 0x1FC6 PUSH3 0x1B42 JUMP JUMPDEST JUMPDEST PUSH3 0x1FD5 DUP6 DUP3 DUP7 ADD PUSH3 0x1F59 JUMP JUMPDEST SWAP3 POP POP PUSH1 0x20 DUP4 ADD CALLDATALOAD PUSH8 0xFFFFFFFFFFFFFFFF DUP2 GT ISZERO PUSH3 0x1FF9 JUMPI PUSH3 0x1FF8 PUSH3 0x1B42 JUMP JUMPDEST JUMPDEST PUSH3 0x2007 DUP6 DUP3 DUP7 ADD PUSH3 0x1F59 JUMP JUMPDEST SWAP2 POP POP SWAP3 POP SWAP3 SWAP1 POP JUMP JUMPDEST PUSH1 0x0 PUSH1 0xFF DUP3 AND SWAP1 POP SWAP2 SWAP1 POP JUMP JUMPDEST PUSH3 0x2029 DUP2 PUSH3 0x2011 JUMP JUMPDEST DUP3 MSTORE POP POP JUMP JUMPDEST PUSH1 0x0 PUSH1 0x20 DUP3 ADD SWAP1 POP PUSH3 0x2046 PUSH1 0x0 DUP4 ADD DUP5 PUSH3 0x201E JUMP JUMPDEST SWAP3 SWAP2 POP POP JUMP JUMPDEST PUSH1 0x0 DUP1 PUSH1 0x40 DUP4 DUP6 SUB SLT ISZERO PUSH3 0x2066 JUMPI PUSH3 0x2065 PUSH3 0x1B3D JUMP JUMPDEST JUMPDEST PUSH1 0x0 PUSH3 0x2076 DUP6 DUP3 DUP7 ADD PUSH3 0x1BD0 JUMP JUMPDEST SWAP3 POP POP PUSH1 0x20 DUP4 ADD CALLDATALOAD PUSH8 0xFFFFFFFFFFFFFFFF DUP2 GT ISZERO PUSH3 0x209A JUMPI PUSH3 0x2099 PUSH3 0x1B42 JUMP JUMPDEST JUMPDEST PUSH3 0x20A8 DUP6 DUP3 DUP7 ADD PUSH3 0x1F59 JUMP JUMPDEST SWAP2 POP POP SWAP3 POP SWAP3 SWAP1 POP JUMP JUMPDEST PUSH1 0x0 PUSH1 0x20 DUP3 DUP5 SUB SLT ISZERO PUSH3 0x20CB JUMPI PUSH3 0x20CA PUSH3 0x1B3D JUMP JUMPDEST JUMPDEST PUSH1 0x0 PUSH3 0x20DB DUP5 DUP3 DUP6 ADD PUSH3 0x1BD0 JUMP JUMPDEST SWAP2 POP POP SWAP3 SWAP2 POP POP JUMP JUMPDEST PUSH1 0x0 PUSH1 0x20 DUP3 DUP5 SUB SLT ISZERO PUSH3 0x20FD JUMPI PUSH3 0x20FC PUSH3 0x1B3D JUMP JUMPDEST JUMPDEST PUSH1 0x0 PUSH3 0x210D DUP5 DUP3 DUP6 ADD PUSH3 0x1B95 JUMP JUMPDEST SWAP2 POP POP SWAP3 SWAP2 POP POP JUMP JUMPDEST PUSH1 0x0 DUP2 SWAP1 POP SWAP2 SWAP1 POP JUMP JUMPDEST PUSH1 0x0 PUSH3 0x2141 PUSH3 0x213B PUSH3 0x2135 DUP5 PUSH3 0x1B47 JUMP JUMPDEST PUSH3 0x2116 JUMP JUMPDEST PUSH3 0x1B47 JUMP JUMPDEST SWAP1 POP SWAP2 SWAP1 POP JUMP JUMPDEST PUSH1 0x0 PUSH3 0x2155 DUP3 PUSH3 0x2120 JUMP JUMPDEST SWAP1 POP SWAP2 SWAP1 POP JUMP JUMPDEST PUSH1 0x0 PUSH3 0x2169 DUP3 PUSH3 0x2148 JUMP JUMPDEST SWAP1 POP SWAP2 SWAP1 POP JUMP JUMPDEST PUSH3 0x217B DUP2 PUSH3 0x215C JUMP JUMPDEST DUP3 MSTORE POP POP JUMP JUMPDEST PUSH1 0x0 PUSH1 0x20 DUP3 ADD SWAP1 POP PUSH3 0x2198 PUSH1 0x0 DUP4 ADD DUP5 PUSH3 0x2170 JUMP JUMPDEST SWAP3 SWAP2 POP POP JUMP JUMPDEST PUSH1 0x0 DUP1 PUSH1 0x40 DUP4 DUP6 SUB SLT ISZERO PUSH3 0x21B8 JUMPI PUSH3 0x21B7 PUSH3 0x1B3D JUMP JUMPDEST JUMPDEST PUSH1 0x0 PUSH3 0x21C8 DUP6 DUP3 DUP7 ADD PUSH3 0x1B95 JUMP JUMPDEST SWAP3 POP POP PUSH1 0x20 PUSH3 0x21DB DUP6 DUP3 DUP7 ADD PUSH3 0x1B95 JUMP JUMPDEST SWAP2 POP POP SWAP3 POP SWAP3 SWAP1 POP JUMP JUMPDEST PUSH32 0x4E487B7100000000000000000000000000000000000000000000000000000000 PUSH1 0x0 MSTORE PUSH1 0x22 PUSH1 0x4 MSTORE PUSH1 0x24 PUSH1 0x0 REVERT JUMPDEST PUSH1 0x0 PUSH1 0x2 DUP3 DIV SWAP1 POP PUSH1 0x1 DUP3 AND DUP1 PUSH3 0x222D JUMPI PUSH1 0x7F DUP3 AND SWAP2 POP JUMPDEST PUSH1 0x20 DUP3 LT DUP2 SUB PUSH3 0x2243 JUMPI PUSH3 0x2242 PUSH3 0x21E5 JUMP JUMPDEST JUMPDEST POP SWAP2 SWAP1 POP JUMP JUMPDEST PUSH32 0x4E6F706521000000000000000000000000000000000000000000000000000000 PUSH1 0x0 DUP3 ADD MSTORE POP JUMP JUMPDEST PUSH1 0x0 PUSH3 0x2281 PUSH1 0x5 DUP4 PUSH3 0x1A80 JUMP JUMPDEST SWAP2 POP PUSH3 0x228E DUP3 PUSH3 0x2249 JUMP JUMPDEST PUSH1 0x20 DUP3 ADD SWAP1 POP SWAP2 SWAP1 POP JUMP JUMPDEST PUSH1 0x0 PUSH1 0x20 DUP3 ADD SWAP1 POP DUP2 DUP2 SUB PUSH1 0x0 DUP4 ADD MSTORE PUSH3 0x22B4 DUP2 PUSH3 0x2272 JUMP JUMPDEST SWAP1 POP SWAP2 SWAP1 POP JUMP JUMPDEST PUSH1 0x0 PUSH1 0x40 DUP3 ADD SWAP1 POP DUP2 DUP2 SUB PUSH1 0x0 DUP4 ADD MSTORE PUSH3 0x22D7 DUP2 DUP6 PUSH3 0x1ACE JUMP JUMPDEST SWAP1 POP DUP2 DUP2 SUB PUSH1 0x20 DUP4 ADD MSTORE PUSH3 0x22ED DUP2 DUP5 PUSH3 0x1ACE JUMP JUMPDEST SWAP1 POP SWAP4 SWAP3 POP POP POP JUMP JUMPDEST PUSH32 0x4E487B7100000000000000000000000000000000000000000000000000000000 PUSH1 0x0 MSTORE PUSH1 0x11 PUSH1 0x4 MSTORE PUSH1 0x24 PUSH1 0x0 REVERT JUMPDEST PUSH1 0x0 PUSH3 0x2332 DUP3 PUSH3 0x1BAC JUMP JUMPDEST SWAP2 POP PUSH3 0x233F DUP4 PUSH3 0x1BAC JUMP JUMPDEST SWAP3 POP DUP3 DUP3 ADD SWAP1 POP DUP1 DUP3 GT ISZERO PUSH3 0x235A JUMPI PUSH3 0x2359 PUSH3 0x22F6 JUMP JUMPDEST JUMPDEST SWAP3 SWAP2 POP POP JUMP JUMPDEST PUSH3 0x236B DUP2 PUSH3 0x1B67 JUMP JUMPDEST DUP3 MSTORE POP POP JUMP JUMPDEST PUSH1 0x0 DUP2 SWAP1 POP SWAP2 SWAP1 POP JUMP JUMPDEST PUSH1 0x0 PUSH3 0x239C PUSH3 0x2396 PUSH3 0x2390 DUP5 PUSH3 0x2371 JUMP JUMPDEST PUSH3 0x2116 JUMP JUMPDEST PUSH3 0x1BAC JUMP JUMPDEST SWAP1 POP SWAP2 SWAP1 POP JUMP JUMPDEST PUSH3 0x23AE DUP2 PUSH3 0x237B JUMP JUMPDEST DUP3 MSTORE POP POP JUMP JUMPDEST PUSH1 0x0 PUSH1 0x60 DUP3 ADD SWAP1 POP PUSH3 0x23CB PUSH1 0x0 DUP4 ADD DUP7 PUSH3 0x2360 JUMP JUMPDEST PUSH3 0x23DA PUSH1 0x20 DUP4 ADD DUP6 PUSH3 0x2360 JUMP JUMPDEST PUSH3 0x23E9 PUSH1 0x40 DUP4 ADD DUP5 PUSH3 0x23A3 JUMP JUMPDEST SWAP5 SWAP4 POP POP POP POP JUMP JUMPDEST PUSH3 0x23FC DUP2 PUSH3 0x1C2E JUMP JUMPDEST DUP2 EQ PUSH3 0x2408 JUMPI PUSH1 0x0 DUP1 REVERT JUMPDEST POP JUMP JUMPDEST PUSH1 0x0 DUP2 MLOAD SWAP1 POP PUSH3 0x241C DUP2 PUSH3 0x23F1 JUMP JUMPDEST SWAP3 SWAP2 POP POP JUMP JUMPDEST PUSH1 0x0 PUSH1 0x20 DUP3 DUP5 SUB SLT ISZERO PUSH3 0x243B JUMPI PUSH3 0x243A PUSH3 0x1B3D JUMP JUMPDEST JUMPDEST PUSH1 0x0 PUSH3 0x244B DUP5 DUP3 DUP6 ADD PUSH3 0x240B JUMP JUMPDEST SWAP2 POP POP SWAP3 SWAP2 POP POP JUMP JUMPDEST PUSH32 0x53544E4541523A207472616E7366657246726F6D206661696C65640000000000 PUSH1 0x0 DUP3 ADD MSTORE POP JUMP JUMPDEST PUSH1 0x0 PUSH3 0x248C PUSH1 0x1B DUP4 PUSH3 0x1A80 JUMP JUMPDEST SWAP2 POP PUSH3 0x2499 DUP3 PUSH3 0x2454 JUMP JUMPDEST PUSH1 0x20 DUP3 ADD SWAP1 POP SWAP2 SWAP1 POP JUMP JUMPDEST PUSH1 0x0 PUSH1 0x20 DUP3 ADD SWAP1 POP DUP2 DUP2 SUB PUSH1 0x0 DUP4 ADD MSTORE PUSH3 0x24BF DUP2 PUSH3 0x247D JUMP JUMPDEST SWAP1 POP SWAP2 SWAP1 POP JUMP JUMPDEST PUSH1 0x0 PUSH1 0x40 DUP3 ADD SWAP1 POP PUSH3 0x24DD PUSH1 0x0 DUP4 ADD DUP6 PUSH3 0x2360 JUMP JUMPDEST DUP2 DUP2 SUB PUSH1 0x20 DUP4 ADD MSTORE PUSH3 0x24F1 DUP2 DUP5 PUSH3 0x1ACE JUMP JUMPDEST SWAP1 POP SWAP4 SWAP3 POP POP POP JUMP JUMPDEST PUSH1 0x0 DUP2 MLOAD SWAP1 POP PUSH3 0x250B DUP2 PUSH3 0x1BB6 JUMP JUMPDEST SWAP3 SWAP2 POP POP JUMP JUMPDEST PUSH1 0x0 PUSH1 0x20 DUP3 DUP5 SUB SLT ISZERO PUSH3 0x252A JUMPI PUSH3 0x2529 PUSH3 0x1B3D JUMP JUMPDEST JUMPDEST PUSH1 0x0 PUSH3 0x253A DUP5 DUP3 DUP6 ADD PUSH3 0x24FA JUMP JUMPDEST SWAP2 POP POP SWAP3 SWAP2 POP POP JUMP JUMPDEST PUSH32 0x45524332303A2064656372656173656420616C6C6F77616E63652062656C6F77 PUSH1 0x0 DUP3 ADD MSTORE PUSH32 0x207A65726F000000000000000000000000000000000000000000000000000000 PUSH1 0x20 DUP3 ADD MSTORE POP JUMP JUMPDEST PUSH1 0x0 PUSH3 0x25A1 PUSH1 0x25 DUP4 PUSH3 0x1A80 JUMP JUMPDEST SWAP2 POP PUSH3 0x25AE DUP3 PUSH3 0x2543 JUMP JUMPDEST PUSH1 0x40 DUP3 ADD SWAP1 POP SWAP2 SWAP1 POP JUMP JUMPDEST PUSH1 0x0 PUSH1 0x20 DUP3 ADD SWAP1 POP DUP2 DUP2 SUB PUSH1 0x0 DUP4 ADD MSTORE PUSH3 0x25D4 DUP2 PUSH3 0x2592 JUMP JUMPDEST SWAP1 POP SWAP2 SWAP1 POP JUMP JUMPDEST PUSH1 0x0 DUP2 MLOAD SWAP1 POP PUSH3 0x25EC DUP2 PUSH3 0x1B7B JUMP JUMPDEST SWAP3 SWAP2 POP POP JUMP JUMPDEST PUSH1 0x0 PUSH1 0x20 DUP3 DUP5 SUB SLT ISZERO PUSH3 0x260B JUMPI PUSH3 0x260A PUSH3 0x1B3D JUMP JUMPDEST JUMPDEST PUSH1 0x0 PUSH3 0x261B DUP5 DUP3 DUP6 ADD PUSH3 0x25DB JUMP JUMPDEST SWAP2 POP POP SWAP3 SWAP2 POP POP JUMP JUMPDEST PUSH32 0x596F7520617265206E6F7420746865206F776E65720000000000000000000000 PUSH1 0x0 DUP3 ADD MSTORE POP JUMP JUMPDEST PUSH1 0x0 PUSH3 0x265C PUSH1 0x15 DUP4 PUSH3 0x1A80 JUMP JUMPDEST SWAP2 POP PUSH3 0x2669 DUP3 PUSH3 0x2624 JUMP JUMPDEST PUSH1 0x20 DUP3 ADD SWAP1 POP SWAP2 SWAP1 POP JUMP JUMPDEST PUSH1 0x0 PUSH1 0x20 DUP3 ADD SWAP1 POP DUP2 DUP2 SUB PUSH1 0x0 DUP4 ADD MSTORE PUSH3 0x268F DUP2 PUSH3 0x264D JUMP JUMPDEST SWAP1 POP SWAP2 SWAP1 POP JUMP JUMPDEST PUSH1 0x0 PUSH3 0x26A3 DUP3 PUSH3 0x1BAC JUMP JUMPDEST SWAP2 POP PUSH3 0x26B0 DUP4 PUSH3 0x1BAC JUMP JUMPDEST SWAP3 POP DUP3 DUP3 SUB SWAP1 POP DUP2 DUP2 GT ISZERO PUSH3 0x26CB JUMPI PUSH3 0x26CA PUSH3 0x22F6 JUMP JUMPDEST JUMPDEST SWAP3 SWAP2 POP POP JUMP JUMPDEST PUSH32 0x5761746572204669727374000000000000000000000000000000000000000000 PUSH1 0x0 DUP3 ADD MSTORE POP JUMP JUMPDEST PUSH1 0x0 PUSH3 0x2709 PUSH1 0xB DUP4 PUSH3 0x1A80 JUMP JUMPDEST SWAP2 POP PUSH3 0x2716 DUP3 PUSH3 0x26D1 JUMP JUMPDEST PUSH1 0x20 DUP3 ADD SWAP1 POP SWAP2 SWAP1 POP JUMP JUMPDEST PUSH1 0x0 PUSH1 0x20 DUP3 ADD SWAP1 POP DUP2 DUP2 SUB PUSH1 0x0 DUP4 ADD MSTORE PUSH3 0x273C DUP2 PUSH3 0x26FA JUMP JUMPDEST SWAP1 POP SWAP2 SWAP1 POP JUMP JUMPDEST PUSH32 0x43616E277420436C61696D000000000000000000000000000000000000000000 PUSH1 0x0 DUP3 ADD MSTORE POP JUMP JUMPDEST PUSH1 0x0 PUSH3 0x277B PUSH1 0xB DUP4 PUSH3 0x1A80 JUMP JUMPDEST SWAP2 POP PUSH3 0x2788 DUP3 PUSH3 0x2743 JUMP JUMPDEST PUSH1 0x20 DUP3 ADD SWAP1 POP SWAP2 SWAP1 POP JUMP JUMPDEST PUSH1 0x0 PUSH1 0x20 DUP3 ADD SWAP1 POP DUP2 DUP2 SUB PUSH1 0x0 DUP4 ADD MSTORE PUSH3 0x27AE DUP2 PUSH3 0x276C JUMP JUMPDEST SWAP1 POP SWAP2 SWAP1 POP JUMP JUMPDEST PUSH1 0x0 DUP2 SWAP1 POP SWAP2 SWAP1 POP JUMP JUMPDEST PUSH1 0x0 PUSH3 0x27E0 PUSH3 0x27DA PUSH3 0x27D4 DUP5 PUSH3 0x27B5 JUMP JUMPDEST PUSH3 0x2116 JUMP JUMPDEST PUSH3 0x1BAC JUMP JUMPDEST SWAP1 POP SWAP2 SWAP1 POP JUMP JUMPDEST PUSH3 0x27F2 DUP2 PUSH3 0x27BF JUMP JUMPDEST DUP3 MSTORE POP POP JUMP JUMPDEST PUSH1 0x0 PUSH1 0x60 DUP3 ADD SWAP1 POP PUSH3 0x280F PUSH1 0x0 DUP4 ADD DUP7 PUSH3 0x2360 JUMP JUMPDEST PUSH3 0x281E PUSH1 0x20 DUP4 ADD DUP6 PUSH3 0x2360 JUMP JUMPDEST PUSH3 0x282D PUSH1 0x40 DUP4 ADD DUP5 PUSH3 0x27E7 JUMP JUMPDEST SWAP5 SWAP4 POP POP POP POP JUMP JUMPDEST PUSH32 0x45524332303A20617070726F76652066726F6D20746865207A65726F20616464 PUSH1 0x0 DUP3 ADD MSTORE PUSH32 0x7265737300000000000000000000000000000000000000000000000000000000 PUSH1 0x20 DUP3 ADD MSTORE POP JUMP JUMPDEST PUSH1 0x0 PUSH3 0x2893 PUSH1 0x24 DUP4 PUSH3 0x1A80 JUMP JUMPDEST SWAP2 POP PUSH3 0x28A0 DUP3 PUSH3 0x2835 JUMP JUMPDEST PUSH1 0x40 DUP3 ADD SWAP1 POP SWAP2 SWAP1 POP JUMP JUMPDEST PUSH1 0x0 PUSH1 0x20 DUP3 ADD SWAP1 POP DUP2 DUP2 SUB PUSH1 0x0 DUP4 ADD MSTORE PUSH3 0x28C6 DUP2 PUSH3 0x2884 JUMP JUMPDEST SWAP1 POP SWAP2 SWAP1 POP JUMP JUMPDEST PUSH32 0x45524332303A20617070726F766520746F20746865207A65726F206164647265 PUSH1 0x0 DUP3 ADD MSTORE PUSH32 0x7373000000000000000000000000000000000000000000000000000000000000 PUSH1 0x20 DUP3 ADD MSTORE POP JUMP JUMPDEST PUSH1 0x0 PUSH3 0x292B PUSH1 0x22 DUP4 PUSH3 0x1A80 JUMP JUMPDEST SWAP2 POP PUSH3 0x2938 DUP3 PUSH3 0x28CD JUMP JUMPDEST PUSH1 0x40 DUP3 ADD SWAP1 POP SWAP2 SWAP1 POP JUMP JUMPDEST PUSH1 0x0 PUSH1 0x20 DUP3 ADD SWAP1 POP DUP2 DUP2 SUB PUSH1 0x0 DUP4 ADD MSTORE PUSH3 0x295E DUP2 PUSH3 0x291C JUMP JUMPDEST SWAP1 POP SWAP2 SWAP1 POP JUMP JUMPDEST PUSH32 0x45524332303A20696E73756666696369656E7420616C6C6F77616E6365000000 PUSH1 0x0 DUP3 ADD MSTORE POP JUMP JUMPDEST PUSH1 0x0 PUSH3 0x299D PUSH1 0x1D DUP4 PUSH3 0x1A80 JUMP JUMPDEST SWAP2 POP PUSH3 0x29AA DUP3 PUSH3 0x2965 JUMP JUMPDEST PUSH1 0x20 DUP3 ADD SWAP1 POP SWAP2 SWAP1 POP JUMP JUMPDEST PUSH1 0x0 PUSH1 0x20 DUP3 ADD SWAP1 POP DUP2 DUP2 SUB PUSH1 0x0 DUP4 ADD MSTORE PUSH3 0x29D0 DUP2 PUSH3 0x298E JUMP JUMPDEST SWAP1 POP SWAP2 SWAP1 POP JUMP JUMPDEST PUSH32 0x45524332303A207472616E736665722066726F6D20746865207A65726F206164 PUSH1 0x0 DUP3 ADD MSTORE PUSH32 0x6472657373000000000000000000000000000000000000000000000000000000 PUSH1 0x20 DUP3 ADD MSTORE POP JUMP JUMPDEST PUSH1 0x0 PUSH3 0x2A35 PUSH1 0x25 DUP4 PUSH3 0x1A80 JUMP JUMPDEST SWAP2 POP PUSH3 0x2A42 DUP3 PUSH3 0x29D7 JUMP JUMPDEST PUSH1 0x40 DUP3 ADD SWAP1 POP SWAP2 SWAP1 POP JUMP JUMPDEST PUSH1 0x0 PUSH1 0x20 DUP3 ADD SWAP1 POP DUP2 DUP2 SUB PUSH1 0x0 DUP4 ADD MSTORE PUSH3 0x2A68 DUP2 PUSH3 0x2A26 JUMP JUMPDEST SWAP1 POP SWAP2 SWAP1 POP JUMP JUMPDEST PUSH32 0x45524332303A207472616E7366657220746F20746865207A65726F2061646472 PUSH1 0x0 DUP3 ADD MSTORE PUSH32 0x6573730000000000000000000000000000000000000000000000000000000000 PUSH1 0x20 DUP3 ADD MSTORE POP JUMP JUMPDEST PUSH1 0x0 PUSH3 0x2ACD PUSH1 0x23 DUP4 PUSH3 0x1A80 JUMP JUMPDEST SWAP2 POP PUSH3 0x2ADA DUP3 PUSH3 0x2A6F JUMP JUMPDEST PUSH1 0x40 DUP3 ADD SWAP1 POP SWAP2 SWAP1 POP JUMP JUMPDEST PUSH1 0x0 PUSH1 0x20 DUP3 ADD SWAP1 POP DUP2 DUP2 SUB PUSH1 0x0 DUP4 ADD MSTORE PUSH3 0x2B00 DUP2 PUSH3 0x2ABE JUMP JUMPDEST SWAP1 POP SWAP2 SWAP1 POP JUMP JUMPDEST PUSH32 0x45524332303A207472616E7366657220616D6F756E7420657863656564732062 PUSH1 0x0 DUP3 ADD MSTORE PUSH32 0x616C616E63650000000000000000000000000000000000000000000000000000 PUSH1 0x20 DUP3 ADD MSTORE POP JUMP JUMPDEST PUSH1 0x0 PUSH3 0x2B65 PUSH1 0x26 DUP4 PUSH3 0x1A80 JUMP JUMPDEST SWAP2 POP PUSH3 0x2B72 DUP3 PUSH3 0x2B07 JUMP JUMPDEST PUSH1 0x40 DUP3 ADD SWAP1 POP SWAP2 SWAP1 POP JUMP JUMPDEST PUSH1 0x0 PUSH1 0x20 DUP3 ADD SWAP1 POP DUP2 DUP2 SUB PUSH1 0x0 DUP4 ADD MSTORE PUSH3 0x2B98 DUP2 PUSH3 0x2B56 JUMP JUMPDEST SWAP1 POP SWAP2 SWAP1 POP JUMP JUMPDEST PUSH32 0x45524332303A206D696E7420746F20746865207A65726F206164647265737300 PUSH1 0x0 DUP3 ADD MSTORE POP JUMP JUMPDEST PUSH1 0x0 PUSH3 0x2BD7 PUSH1 0x1F DUP4 PUSH3 0x1A80 JUMP JUMPDEST SWAP2 POP PUSH3 0x2BE4 DUP3 PUSH3 0x2B9F JUMP JUMPDEST PUSH1 0x20 DUP3 ADD SWAP1 POP SWAP2 SWAP1 POP JUMP JUMPDEST PUSH1 0x0 PUSH1 0x20 DUP3 ADD SWAP1 POP DUP2 DUP2 SUB PUSH1 0x0 DUP4 ADD MSTORE PUSH3 0x2C0A DUP2 PUSH3 0x2BC8 JUMP JUMPDEST SWAP1 POP SWAP2 SWAP1 POP JUMP INVALID PUSH1 0xA0 PUSH1 0x40 MSTORE CALLVALUE DUP1 ISZERO PUSH3 0x11 JUMPI PUSH1 0x0 DUP1 REVERT JUMPDEST POP PUSH1 0x40 MLOAD PUSH3 0x3368 CODESIZE SUB DUP1 PUSH3 0x3368 DUP4 CODECOPY DUP2 DUP2 ADD PUSH1 0x40 MSTORE DUP2 ADD SWAP1 PUSH3 0x37 SWAP2 SWAP1 PUSH3 0x22E JUMP JUMPDEST DUP2 DUP2 DUP2 PUSH1 0x0 SWAP1 DUP2 PUSH3 0x4A SWAP2 SWAP1 PUSH3 0x4FE JUMP JUMPDEST POP DUP1 PUSH1 0x1 SWAP1 DUP2 PUSH3 0x5C SWAP2 SWAP1 PUSH3 0x4FE JUMP JUMPDEST POP POP POP CALLER PUSH20 0xFFFFFFFFFFFFFFFFFFFFFFFFFFFFFFFFFFFFFFFF AND PUSH1 0x80 DUP2 PUSH20 0xFFFFFFFFFFFFFFFFFFFFFFFFFFFFFFFFFFFFFFFF AND DUP2 MSTORE POP POP POP POP PUSH3 0x5E5 JUMP JUMPDEST PUSH1 0x0 PUSH1 0x40 MLOAD SWAP1 POP SWAP1 JUMP JUMPDEST PUSH1 0x0 DUP1 REVERT JUMPDEST PUSH1 0x0 DUP1 REVERT JUMPDEST PUSH1 0x0 DUP1 REVERT JUMPDEST PUSH1 0x0 DUP1 REVERT JUMPDEST PUSH1 0x0 PUSH1 0x1F NOT PUSH1 0x1F DUP4 ADD AND SWAP1 POP SWAP2 SWAP1 POP JUMP JUMPDEST PUSH32 0x4E487B7100000000000000000000000000000000000000000000000000000000 PUSH1 0x0 MSTORE PUSH1 0x41 PUSH1 0x4 MSTORE PUSH1 0x24 PUSH1 0x0 REVERT JUMPDEST PUSH3 0x104 DUP3 PUSH3 0xB9 JUMP JUMPDEST DUP2 ADD DUP2 DUP2 LT PUSH8 0xFFFFFFFFFFFFFFFF DUP3 GT OR ISZERO PUSH3 0x126 JUMPI PUSH3 0x125 PUSH3 0xCA JUMP JUMPDEST JUMPDEST DUP1 PUSH1 0x40 MSTORE POP POP POP JUMP JUMPDEST PUSH1 0x0 PUSH3 0x13B PUSH3 0x9B JUMP JUMPDEST SWAP1 POP PUSH3 0x149 DUP3 DUP3 PUSH3 0xF9 JUMP JUMPDEST SWAP2 SWAP1 POP JUMP JUMPDEST PUSH1 0x0 PUSH8 0xFFFFFFFFFFFFFFFF DUP3 GT ISZERO PUSH3 0x16C JUMPI PUSH3 0x16B PUSH3 0xCA JUMP JUMPDEST JUMPDEST PUSH3 0x177 DUP3 PUSH3 0xB9 JUMP JUMPDEST SWAP1 POP PUSH1 0x20 DUP2 ADD SWAP1 POP SWAP2 SWAP1 POP JUMP JUMPDEST PUSH1 0x0 JUMPDEST DUP4 DUP2 LT ISZERO PUSH3 0x1A4 JUMPI DUP1 DUP3 ADD MLOAD DUP2 DUP5 ADD MSTORE PUSH1 0x20 DUP2 ADD SWAP1 POP PUSH3 0x187 JUMP JUMPDEST PUSH1 0x0 DUP5 DUP5 ADD MSTORE POP POP POP POP JUMP JUMPDEST PUSH1 0x0 PUSH3 0x1C7 PUSH3 0x1C1 DUP5 PUSH3 0x14E JUMP JUMPDEST PUSH3 0x12F JUMP JUMPDEST SWAP1 POP DUP3 DUP2 MSTORE PUSH1 0x20 DUP2 ADD DUP5 DUP5 DUP5 ADD GT ISZERO PUSH3 0x1E6 JUMPI PUSH3 0x1E5 PUSH3 0xB4 JUMP JUMPDEST JUMPDEST PUSH3 0x1F3 DUP5 DUP3 DUP6 PUSH3 0x184 JUMP JUMPDEST POP SWAP4 SWAP3 POP POP POP JUMP JUMPDEST PUSH1 0x0 DUP3 PUSH1 0x1F DUP4 ADD SLT PUSH3 0x213 JUMPI PUSH3 0x212 PUSH3 0xAF JUMP JUMPDEST JUMPDEST DUP2 MLOAD PUSH3 0x225 DUP5 DUP3 PUSH1 0x20 DUP7 ADD PUSH3 0x1B0 JUMP JUMPDEST SWAP2 POP POP SWAP3 SWAP2 POP POP JUMP JUMPDEST PUSH1 0x0 DUP1 PUSH1 0x40 DUP4 DUP6 SUB SLT ISZERO PUSH3 0x248 JUMPI PUSH3 0x247 PUSH3 0xA5 JUMP JUMPDEST JUMPDEST PUSH1 0x0 DUP4 ADD MLOAD PUSH8 0xFFFFFFFFFFFFFFFF DUP2 GT ISZERO PUSH3 0x269 JUMPI PUSH3 0x268 PUSH3 0xAA JUMP JUMPDEST JUMPDEST PUSH3 0x277 DUP6 DUP3 DUP7 ADD PUSH3 0x1FB JUMP JUMPDEST SWAP3 POP POP PUSH1 0x20 DUP4 ADD MLOAD PUSH8 0xFFFFFFFFFFFFFFFF DUP2 GT ISZERO PUSH3 0x29B JUMPI PUSH3 0x29A PUSH3 0xAA JUMP JUMPDEST JUMPDEST PUSH3 0x2A9 DUP6 DUP3 DUP7 ADD PUSH3 0x1FB JUMP JUMPDEST SWAP2 POP POP SWAP3 POP SWAP3 SWAP1 POP JUMP JUMPDEST PUSH1 0x0 DUP2 MLOAD SWAP1 POP SWAP2 SWAP1 POP JUMP JUMPDEST PUSH32 0x4E487B7100000000000000000000000000000000000000000000000000000000 PUSH1 0x0 MSTORE PUSH1 0x22 PUSH1 0x4 MSTORE PUSH1 0x24 PUSH1 0x0 REVERT JUMPDEST PUSH1 0x0 PUSH1 0x2 DUP3 DIV SWAP1 POP PUSH1 0x1 DUP3 AND DUP1 PUSH3 0x306 JUMPI PUSH1 0x7F DUP3 AND SWAP2 POP JUMPDEST PUSH1 0x20 DUP3 LT DUP2 SUB PUSH3 0x31C JUMPI PUSH3 0x31B PUSH3 0x2BE JUMP JUMPDEST JUMPDEST POP SWAP2 SWAP1 POP JUMP JUMPDEST PUSH1 0x0 DUP2 SWAP1 POP DUP2 PUSH1 0x0 MSTORE PUSH1 0x20 PUSH1 0x0 KECCAK256 SWAP1 POP SWAP2 SWAP1 POP JUMP JUMPDEST PUSH1 0x0 PUSH1 0x20 PUSH1 0x1F DUP4 ADD DIV SWAP1 POP SWAP2 SWAP1 POP JUMP JUMPDEST PUSH1 0x0 DUP3 DUP3 SHL SWAP1 POP SWAP3 SWAP2 POP POP JUMP JUMPDEST PUSH1 0x0 PUSH1 0x8 DUP4 MUL PUSH3 0x386 PUSH32 0xFFFFFFFFFFFFFFFFFFFFFFFFFFFFFFFFFFFFFFFFFFFFFFFFFFFFFFFFFFFFFFFF DUP3 PUSH3 0x347 JUMP JUMPDEST PUSH3 0x392 DUP7 DUP4 PUSH3 0x347 JUMP JUMPDEST SWAP6 POP DUP1 NOT DUP5 AND SWAP4 POP DUP1 DUP7 AND DUP5 OR SWAP3 POP POP POP SWAP4 SWAP3 POP POP POP JUMP JUMPDEST PUSH1 0x0 DUP2 SWAP1 POP SWAP2 SWAP1 POP JUMP JUMPDEST PUSH1 0x0 DUP2 SWAP1 POP SWAP2 SWAP1 POP JUMP JUMPDEST PUSH1 0x0 PUSH3 0x3DF PUSH3 0x3D9 PUSH3 0x3D3 DUP5 PUSH3 0x3AA JUMP JUMPDEST PUSH3 0x3B4 JUMP JUMPDEST PUSH3 0x3AA JUMP JUMPDEST SWAP1 POP SWAP2 SWAP1 POP JUMP JUMPDEST PUSH1 0x0 DUP2 SWAP1 POP SWAP2 SWAP1 POP JUMP JUMPDEST PUSH3 0x3FB DUP4 PUSH3 0x3BE JUMP JUMPDEST PUSH3 0x413 PUSH3 0x40A DUP3 PUSH3 0x3E6 JUMP JUMPDEST DUP5 DUP5 SLOAD PUSH3 0x354 JUMP JUMPDEST DUP3 SSTORE POP POP POP POP JUMP JUMPDEST PUSH1 0x0 SWAP1 JUMP JUMPDEST PUSH3 0x42A PUSH3 0x41B JUMP JUMPDEST PUSH3 0x437 DUP2 DUP5 DUP5 PUSH3 0x3F0 JUMP JUMPDEST POP POP POP JUMP JUMPDEST JUMPDEST DUP2 DUP2 LT ISZERO PUSH3 0x45F JUMPI PUSH3 0x453 PUSH1 0x0 DUP3 PUSH3 0x420 JUMP JUMPDEST PUSH1 0x1 DUP2 ADD SWAP1 POP PUSH3 0x43D JUMP JUMPDEST POP POP JUMP JUMPDEST PUSH1 0x1F DUP3 GT ISZERO PUSH3 0x4AE JUMPI PUSH3 0x478 DUP2 PUSH3 0x322 JUMP JUMPDEST PUSH3 0x483 DUP5 PUSH3 0x337 JUMP JUMPDEST DUP2 ADD PUSH1 0x20 DUP6 LT ISZERO PUSH3 0x493 JUMPI DUP2 SWAP1 POP JUMPDEST PUSH3 0x4AB PUSH3 0x4A2 DUP6 PUSH3 0x337 JUMP JUMPDEST DUP4 ADD DUP3 PUSH3 0x43C JUMP JUMPDEST POP POP JUMPDEST POP POP POP JUMP JUMPDEST PUSH1 0x0 DUP3 DUP3 SHR SWAP1 POP SWAP3 SWAP2 POP POP JUMP JUMPDEST PUSH1 0x0 PUSH3 0x4D3 PUSH1 0x0 NOT DUP5 PUSH1 0x8 MUL PUSH3 0x4B3 JUMP JUMPDEST NOT DUP1 DUP4 AND SWAP2 POP POP SWAP3 SWAP2 POP POP JUMP JUMPDEST PUSH1 0x0 PUSH3 0x4EE DUP4 DUP4 PUSH3 0x4C0 JUMP JUMPDEST SWAP2 POP DUP3 PUSH1 0x2 MUL DUP3 OR SWAP1 POP SWAP3 SWAP2 POP POP JUMP JUMPDEST PUSH3 0x509 DUP3 PUSH3 0x2B3 JUMP JUMPDEST PUSH8 0xFFFFFFFFFFFFFFFF DUP2 GT ISZERO PUSH3 0x525 JUMPI PUSH3 0x524 PUSH3 0xCA JUMP JUMPDEST JUMPDEST PUSH3 0x531 DUP3 SLOAD PUSH3 0x2ED JUMP JUMPDEST PUSH3 0x53E DUP3 DUP3 DUP6 PUSH3 0x463 JUMP JUMPDEST PUSH1 0x0 PUSH1 0x20 SWAP1 POP PUSH1 0x1F DUP4 GT PUSH1 0x1 DUP2 EQ PUSH3 0x576 JUMPI PUSH1 0x0 DUP5 ISZERO PUSH3 0x561 JUMPI DUP3 DUP8 ADD MLOAD SWAP1 POP JUMPDEST PUSH3 0x56D DUP6 DUP3 PUSH3 0x4E0 JUMP JUMPDEST DUP7 SSTORE POP PUSH3 0x5DD JUMP JUMPDEST PUSH1 0x1F NOT DUP5 AND PUSH3 0x586 DUP7 PUSH3 0x322 JUMP JUMPDEST PUSH1 0x0 JUMPDEST DUP3 DUP2 LT ISZERO PUSH3 0x5B0 JUMPI DUP5 DUP10 ADD MLOAD DUP3 SSTORE PUSH1 0x1 DUP3 ADD SWAP2 POP PUSH1 0x20 DUP6 ADD SWAP5 POP PUSH1 0x20 DUP2 ADD SWAP1 POP PUSH3 0x589 JUMP JUMPDEST DUP7 DUP4 LT ISZERO PUSH3 0x5D0 JUMPI DUP5 DUP10 ADD MLOAD PUSH3 0x5CC PUSH1 0x1F DUP10 AND DUP3 PUSH3 0x4C0 JUMP JUMPDEST DUP4 SSTORE POP JUMPDEST PUSH1 0x1 PUSH1 0x2 DUP9 MUL ADD DUP9 SSTORE POP POP POP JUMPDEST POP POP POP POP POP POP JUMP JUMPDEST PUSH1 0x80 MLOAD PUSH2 0x2D67 PUSH3 0x601 PUSH1 0x0 CODECOPY PUSH1 0x0 PUSH2 0x804 ADD MSTORE PUSH2 0x2D67 PUSH1 0x0 RETURN INVALID PUSH1 0x80 PUSH1 0x40 MSTORE CALLVALUE DUP1 ISZERO PUSH2 0x10 JUMPI PUSH1 0x0 DUP1 REVERT JUMPDEST POP PUSH1 0x4 CALLDATASIZE LT PUSH2 0xF5 JUMPI PUSH1 0x0 CALLDATALOAD PUSH1 0xE0 SHR DUP1 PUSH4 0x70A08231 GT PUSH2 0x97 JUMPI DUP1 PUSH4 0xB88D4FDE GT PUSH2 0x66 JUMPI DUP1 PUSH4 0xB88D4FDE EQ PUSH2 0x284 JUMPI DUP1 PUSH4 0xC87B56DD EQ PUSH2 0x2A0 JUMPI DUP1 PUSH4 0xD204C45E EQ PUSH2 0x2D0 JUMPI DUP1 PUSH4 0xE985E9C5 EQ PUSH2 0x2EC JUMPI PUSH2 0xF5 JUMP JUMPDEST DUP1 PUSH4 0x70A08231 EQ PUSH2 0x1FC JUMPI DUP1 PUSH4 0x95D89B41 EQ PUSH2 0x22C JUMPI DUP1 PUSH4 0x98BDF6F5 EQ PUSH2 0x24A JUMPI DUP1 PUSH4 0xA22CB465 EQ PUSH2 0x268 JUMPI PUSH2 0xF5 JUMP JUMPDEST DUP1 PUSH4 0x95EA7B3 GT PUSH2 0xD3 JUMPI DUP1 PUSH4 0x95EA7B3 EQ PUSH2 0x178 JUMPI DUP1 PUSH4 0x23B872DD EQ PUSH2 0x194 JUMPI DUP1 PUSH4 0x42842E0E EQ PUSH2 0x1B0 JUMPI DUP1 PUSH4 0x6352211E EQ PUSH2 0x1CC JUMPI PUSH2 0xF5 JUMP JUMPDEST DUP1 PUSH4 0x1FFC9A7 EQ PUSH2 0xFA JUMPI DUP1 PUSH4 0x6FDDE03 EQ PUSH2 0x12A JUMPI DUP1 PUSH4 0x81812FC EQ PUSH2 0x148 JUMPI JUMPDEST PUSH1 0x0 DUP1 REVERT JUMPDEST PUSH2 0x114 PUSH1 0x4 DUP1 CALLDATASIZE SUB DUP2 ADD SWAP1 PUSH2 0x10F SWAP2 SWAP1 PUSH2 0x1B58 JUMP JUMPDEST PUSH2 0x31C JUMP JUMPDEST PUSH1 0x40 MLOAD PUSH2 0x121 SWAP2 SWAP1 PUSH2 0x1BA0 JUMP JUMPDEST PUSH1 0x40 MLOAD DUP1 SWAP2 SUB SWAP1 RETURN JUMPDEST PUSH2 0x132 PUSH2 0x32E JUMP JUMPDEST PUSH1 0x40 MLOAD PUSH2 0x13F SWAP2 SWAP1 PUSH2 0x1C4B JUMP JUMPDEST PUSH1 0x40 MLOAD DUP1 SWAP2 SUB SWAP1 RETURN JUMPDEST PUSH2 0x162 PUSH1 0x4 DUP1 CALLDATASIZE SUB DUP2 ADD SWAP1 PUSH2 0x15D SWAP2 SWAP1 PUSH2 0x1CA3 JUMP JUMPDEST PUSH2 0x3C0 JUMP JUMPDEST PUSH1 0x40 MLOAD PUSH2 0x16F SWAP2 SWAP1 PUSH2 0x1D11 JUMP JUMPDEST PUSH1 0x40 MLOAD DUP1 SWAP2 SUB SWAP1 RETURN JUMPDEST PUSH2 0x192 PUSH1 0x4 DUP1 CALLDATASIZE SUB DUP2 ADD SWAP1 PUSH2 0x18D SWAP2 SWAP1 PUSH2 0x1D58 JUMP JUMPDEST PUSH2 0x406 JUMP JUMPDEST STOP JUMPDEST PUSH2 0x1AE PUSH1 0x4 DUP1 CALLDATASIZE SUB DUP2 ADD SWAP1 PUSH2 0x1A9 SWAP2 SWAP1 PUSH2 0x1D98 JUMP JUMPDEST PUSH2 0x51D JUMP JUMPDEST STOP JUMPDEST PUSH2 0x1CA PUSH1 0x4 DUP1 CALLDATASIZE SUB DUP2 ADD SWAP1 PUSH2 0x1C5 SWAP2 SWAP1 PUSH2 0x1D98 JUMP JUMPDEST PUSH2 0x57D JUMP JUMPDEST STOP JUMPDEST PUSH2 0x1E6 PUSH1 0x4 DUP1 CALLDATASIZE SUB DUP2 ADD SWAP1 PUSH2 0x1E1 SWAP2 SWAP1 PUSH2 0x1CA3 JUMP JUMPDEST PUSH2 0x59D JUMP JUMPDEST PUSH1 0x40 MLOAD PUSH2 0x1F3 SWAP2 SWAP1 PUSH2 0x1D11 JUMP JUMPDEST PUSH1 0x40 MLOAD DUP1 SWAP2 SUB SWAP1 RETURN JUMPDEST PUSH2 0x216 PUSH1 0x4 DUP1 CALLDATASIZE SUB DUP2 ADD SWAP1 PUSH2 0x211 SWAP2 SWAP1 PUSH2 0x1DEB JUMP JUMPDEST PUSH2 0x623 JUMP JUMPDEST PUSH1 0x40 MLOAD PUSH2 0x223 SWAP2 SWAP1 PUSH2 0x1E27 JUMP JUMPDEST PUSH1 0x40 MLOAD DUP1 SWAP2 SUB SWAP1 RETURN JUMPDEST PUSH2 0x234 PUSH2 0x6DA JUMP JUMPDEST PUSH1 0x40 MLOAD PUSH2 0x241 SWAP2 SWAP1 PUSH2 0x1C4B JUMP JUMPDEST PUSH1 0x40 MLOAD DUP1 SWAP2 SUB SWAP1 RETURN JUMPDEST PUSH2 0x252 PUSH2 0x76C JUMP JUMPDEST PUSH1 0x40 MLOAD PUSH2 0x25F SWAP2 SWAP1 PUSH2 0x1E27 JUMP JUMPDEST PUSH1 0x40 MLOAD DUP1 SWAP2 SUB SWAP1 RETURN JUMPDEST PUSH2 0x282 PUSH1 0x4 DUP1 CALLDATASIZE SUB DUP2 ADD SWAP1 PUSH2 0x27D SWAP2 SWAP1 PUSH2 0x1E6E JUMP JUMPDEST PUSH2 0x778 JUMP JUMPDEST STOP JUMPDEST PUSH2 0x29E PUSH1 0x4 DUP1 CALLDATASIZE SUB DUP2 ADD SWAP1 PUSH2 0x299 SWAP2 SWAP1 PUSH2 0x1FE3 JUMP JUMPDEST PUSH2 0x78E JUMP JUMPDEST STOP JUMPDEST PUSH2 0x2BA PUSH1 0x4 DUP1 CALLDATASIZE SUB DUP2 ADD SWAP1 PUSH2 0x2B5 SWAP2 SWAP1 PUSH2 0x1CA3 JUMP JUMPDEST PUSH2 0x7F0 JUMP JUMPDEST PUSH1 0x40 MLOAD PUSH2 0x2C7 SWAP2 SWAP1 PUSH2 0x1C4B JUMP JUMPDEST PUSH1 0x40 MLOAD DUP1 SWAP2 SUB SWAP1 RETURN JUMPDEST PUSH2 0x2EA PUSH1 0x4 DUP1 CALLDATASIZE SUB DUP2 ADD SWAP1 PUSH2 0x2E5 SWAP2 SWAP1 PUSH2 0x2107 JUMP JUMPDEST PUSH2 0x802 JUMP JUMPDEST STOP JUMPDEST PUSH2 0x306 PUSH1 0x4 DUP1 CALLDATASIZE SUB DUP2 ADD SWAP1 PUSH2 0x301 SWAP2 SWAP1 PUSH2 0x2163 JUMP JUMPDEST PUSH2 0x905 JUMP JUMPDEST PUSH1 0x40 MLOAD PUSH2 0x313 SWAP2 SWAP1 PUSH2 0x1BA0 JUMP JUMPDEST PUSH1 0x40 MLOAD DUP1 SWAP2 SUB SWAP1 RETURN JUMPDEST PUSH1 0x0 PUSH2 0x327 DUP3 PUSH2 0x999 JUMP JUMPDEST SWAP1 POP SWAP2 SWAP1 POP JUMP JUMPDEST PUSH1 0x60 PUSH1 0x0 DUP1 SLOAD PUSH2 0x33D SWAP1 PUSH2 0x21D2 JUMP JUMPDEST DUP1 PUSH1 0x1F ADD PUSH1 0x20 DUP1 SWAP2 DIV MUL PUSH1 0x20 ADD PUSH1 0x40 MLOAD SWAP1 DUP2 ADD PUSH1 0x40 MSTORE DUP1 SWAP3 SWAP2 SWAP1 DUP2 DUP2 MSTORE PUSH1 0x20 ADD DUP3 DUP1 SLOAD PUSH2 0x369 SWAP1 PUSH2 0x21D2 JUMP JUMPDEST DUP1 ISZERO PUSH2 0x3B6 JUMPI DUP1 PUSH1 0x1F LT PUSH2 0x38B JUMPI PUSH2 0x100 DUP1 DUP4 SLOAD DIV MUL DUP4 MSTORE SWAP2 PUSH1 0x20 ADD SWAP2 PUSH2 0x3B6 JUMP JUMPDEST DUP3 ADD SWAP2 SWAP1 PUSH1 0x0 MSTORE PUSH1 0x20 PUSH1 0x0 KECCAK256 SWAP1 JUMPDEST DUP2 SLOAD DUP2 MSTORE SWAP1 PUSH1 0x1 ADD SWAP1 PUSH1 0x20 ADD DUP1 DUP4 GT PUSH2 0x399 JUMPI DUP3 SWAP1 SUB PUSH1 0x1F AND DUP3 ADD SWAP2 JUMPDEST POP POP POP POP POP SWAP1 POP SWAP1 JUMP JUMPDEST PUSH1 0x0 PUSH2 0x3CB DUP3 PUSH2 0x9FA JUMP JUMPDEST PUSH1 0x4 PUSH1 0x0 DUP4 DUP2 MSTORE PUSH1 0x20 ADD SWAP1 DUP2 MSTORE PUSH1 0x20 ADD PUSH1 0x0 KECCAK256 PUSH1 0x0 SWAP1 SLOAD SWAP1 PUSH2 0x100 EXP SWAP1 DIV PUSH20 0xFFFFFFFFFFFFFFFFFFFFFFFFFFFFFFFFFFFFFFFF AND SWAP1 POP SWAP2 SWAP1 POP JUMP JUMPDEST PUSH1 0x0 PUSH2 0x411 DUP3 PUSH2 0x59D JUMP JUMPDEST SWAP1 POP DUP1 PUSH20 0xFFFFFFFFFFFFFFFFFFFFFFFFFFFFFFFFFFFFFFFF AND DUP4 PUSH20 0xFFFFFFFFFFFFFFFFFFFFFFFFFFFFFFFFFFFFFFFF AND SUB PUSH2 0x481 JUMPI PUSH1 0x40 MLOAD PUSH32 0x8C379A000000000000000000000000000000000000000000000000000000000 DUP2 MSTORE PUSH1 0x4 ADD PUSH2 0x478 SWAP1 PUSH2 0x2275 JUMP JUMPDEST PUSH1 0x40 MLOAD DUP1 SWAP2 SUB SWAP1 REVERT JUMPDEST DUP1 PUSH20 0xFFFFFFFFFFFFFFFFFFFFFFFFFFFFFFFFFFFFFFFF AND PUSH2 0x4A0 PUSH2 0xA45 JUMP JUMPDEST PUSH20 0xFFFFFFFFFFFFFFFFFFFFFFFFFFFFFFFFFFFFFFFF AND EQ DUP1 PUSH2 0x4CF JUMPI POP PUSH2 0x4CE DUP2 PUSH2 0x4C9 PUSH2 0xA45 JUMP JUMPDEST PUSH2 0x905 JUMP JUMPDEST JUMPDEST PUSH2 0x50E JUMPI PUSH1 0x40 MLOAD PUSH32 0x8C379A000000000000000000000000000000000000000000000000000000000 DUP2 MSTORE PUSH1 0x4 ADD PUSH2 0x505 SWAP1 PUSH2 0x2307 JUMP JUMPDEST PUSH1 0x40 MLOAD DUP1 SWAP2 SUB SWAP1 REVERT JUMPDEST PUSH2 0x518 DUP4 DUP4 PUSH2 0xA4D JUMP JUMPDEST POP POP POP JUMP JUMPDEST PUSH2 0x52E PUSH2 0x528 PUSH2 0xA45 JUMP JUMPDEST DUP3 PUSH2 0xB06 JUMP JUMPDEST PUSH2 0x56D JUMPI PUSH1 0x40 MLOAD PUSH32 0x8C379A000000000000000000000000000000000000000000000000000000000 DUP2 MSTORE PUSH1 0x4 ADD PUSH2 0x564 SWAP1 PUSH2 0x2399 JUMP JUMPDEST PUSH1 0x40 MLOAD DUP1 SWAP2 SUB SWAP1 REVERT JUMPDEST PUSH2 0x578 DUP4 DUP4 DUP4 PUSH2 0xB9B JUMP JUMPDEST POP POP POP JUMP JUMPDEST PUSH2 0x598 DUP4 DUP4 DUP4 PUSH1 0x40 MLOAD DUP1 PUSH1 0x20 ADD PUSH1 0x40 MSTORE DUP1 PUSH1 0x0 DUP2 MSTORE POP PUSH2 0x78E JUMP JUMPDEST POP POP POP JUMP JUMPDEST PUSH1 0x0 DUP1 PUSH2 0x5A9 DUP4 PUSH2 0xE94 JUMP JUMPDEST SWAP1 POP PUSH1 0x0 PUSH20 0xFFFFFFFFFFFFFFFFFFFFFFFFFFFFFFFFFFFFFFFF AND DUP2 PUSH20 0xFFFFFFFFFFFFFFFFFFFFFFFFFFFFFFFFFFFFFFFF AND SUB PUSH2 0x61A JUMPI PUSH1 0x40 MLOAD PUSH32 0x8C379A000000000000000000000000000000000000000000000000000000000 DUP2 MSTORE PUSH1 0x4 ADD PUSH2 0x611 SWAP1 PUSH2 0x2405 JUMP JUMPDEST PUSH1 0x40 MLOAD DUP1 SWAP2 SUB SWAP1 REVERT JUMPDEST DUP1 SWAP2 POP POP SWAP2 SWAP1 POP JUMP JUMPDEST PUSH1 0x0 DUP1 PUSH20 0xFFFFFFFFFFFFFFFFFFFFFFFFFFFFFFFFFFFFFFFF AND DUP3 PUSH20 0xFFFFFFFFFFFFFFFFFFFFFFFFFFFFFFFFFFFFFFFF AND SUB PUSH2 0x693 JUMPI PUSH1 0x40 MLOAD PUSH32 0x8C379A000000000000000000000000000000000000000000000000000000000 DUP2 MSTORE PUSH1 0x4 ADD PUSH2 0x68A SWAP1 PUSH2 0x2497 JUMP JUMPDEST PUSH1 0x40 MLOAD DUP1 SWAP2 SUB SWAP1 REVERT JUMPDEST PUSH1 0x3 PUSH1 0x0 DUP4 PUSH20 0xFFFFFFFFFFFFFFFFFFFFFFFFFFFFFFFFFFFFFFFF AND PUSH20 0xFFFFFFFFFFFFFFFFFFFFFFFFFFFFFFFFFFFFFFFF AND DUP2 MSTORE PUSH1 0x20 ADD SWAP1 DUP2 MSTORE PUSH1 0x20 ADD PUSH1 0x0 KECCAK256 SLOAD SWAP1 POP SWAP2 SWAP1 POP JUMP JUMPDEST PUSH1 0x60 PUSH1 0x1 DUP1 SLOAD PUSH2 0x6E9 SWAP1 PUSH2 0x21D2 JUMP JUMPDEST DUP1 PUSH1 0x1F ADD PUSH1 0x20 DUP1 SWAP2 DIV MUL PUSH1 0x20 ADD PUSH1 0x40 MLOAD SWAP1 DUP2 ADD PUSH1 0x40 MSTORE DUP1 SWAP3 SWAP2 SWAP1 DUP2 DUP2 MSTORE PUSH1 0x20 ADD DUP3 DUP1 SLOAD PUSH2 0x715 SWAP1 PUSH2 0x21D2 JUMP JUMPDEST DUP1 ISZERO PUSH2 0x762 JUMPI DUP1 PUSH1 0x1F LT PUSH2 0x737 JUMPI PUSH2 0x100 DUP1 DUP4 SLOAD DIV MUL DUP4 MSTORE SWAP2 PUSH1 0x20 ADD SWAP2 PUSH2 0x762 JUMP JUMPDEST DUP3 ADD SWAP2 SWAP1 PUSH1 0x0 MSTORE PUSH1 0x20 PUSH1 0x0 KECCAK256 SWAP1 JUMPDEST DUP2 SLOAD DUP2 MSTORE SWAP1 PUSH1 0x1 ADD SWAP1 PUSH1 0x20 ADD DUP1 DUP4 GT PUSH2 0x745 JUMPI DUP3 SWAP1 SUB PUSH1 0x1F AND DUP3 ADD SWAP2 JUMPDEST POP POP POP POP POP SWAP1 POP SWAP1 JUMP JUMPDEST PUSH1 0x7 DUP1 PUSH1 0x0 ADD SLOAD SWAP1 POP DUP2 JUMP JUMPDEST PUSH2 0x78A PUSH2 0x783 PUSH2 0xA45 JUMP JUMPDEST DUP4 DUP4 PUSH2 0xED1 JUMP JUMPDEST POP POP JUMP JUMPDEST PUSH2 0x79F PUSH2 0x799 PUSH2 0xA45 JUMP JUMPDEST DUP4 PUSH2 0xB06 JUMP JUMPDEST PUSH2 0x7DE JUMPI PUSH1 0x40 MLOAD PUSH32 0x8C379A000000000000000000000000000000000000000000000000000000000 DUP2 MSTORE PUSH1 0x4 ADD PUSH2 0x7D5 SWAP1 PUSH2 0x2399 JUMP JUMPDEST PUSH1 0x40 MLOAD DUP1 SWAP2 SUB SWAP1 REVERT JUMPDEST PUSH2 0x7EA DUP5 DUP5 DUP5 DUP5 PUSH2 0x103D JUMP JUMPDEST POP POP POP POP JUMP JUMPDEST PUSH1 0x60 PUSH2 0x7FB DUP3 PUSH2 0x1099 JUMP JUMPDEST SWAP1 POP SWAP2 SWAP1 POP JUMP JUMPDEST PUSH32 0x0 PUSH20 0xFFFFFFFFFFFFFFFFFFFFFFFFFFFFFFFFFFFFFFFF AND CALLER PUSH20 0xFFFFFFFFFFFFFFFFFFFFFFFFFFFFFFFFFFFFFFFF AND EQ PUSH2 0x890 JUMPI PUSH1 0x40 MLOAD PUSH32 0x8C379A000000000000000000000000000000000000000000000000000000000 DUP2 MSTORE PUSH1 0x4 ADD PUSH2 0x887 SWAP1 PUSH2 0x2503 JUMP JUMPDEST PUSH1 0x40 MLOAD DUP1 SWAP2 SUB SWAP1 REVERT JUMPDEST PUSH2 0x89A PUSH1 0x7 PUSH2 0x11AB JUMP JUMPDEST PUSH1 0x0 PUSH2 0x8A6 PUSH1 0x7 PUSH2 0x11C1 JUMP JUMPDEST SWAP1 POP PUSH1 0x1E DUP2 GT ISZERO PUSH2 0x8EC JUMPI PUSH1 0x40 MLOAD PUSH32 0x8C379A000000000000000000000000000000000000000000000000000000000 DUP2 MSTORE PUSH1 0x4 ADD PUSH2 0x8E3 SWAP1 PUSH2 0x2595 JUMP JUMPDEST PUSH1 0x40 MLOAD DUP1 SWAP2 SUB SWAP1 REVERT JUMPDEST PUSH2 0x8F6 DUP4 DUP3 PUSH2 0x11CF JUMP JUMPDEST PUSH2 0x900 DUP2 DUP4 PUSH2 0x11ED JUMP JUMPDEST POP POP POP JUMP JUMPDEST PUSH1 0x0 PUSH1 0x5 PUSH1 0x0 DUP5 PUSH20 0xFFFFFFFFFFFFFFFFFFFFFFFFFFFFFFFFFFFFFFFF AND PUSH20 0xFFFFFFFFFFFFFFFFFFFFFFFFFFFFFFFFFFFFFFFF AND DUP2 MSTORE PUSH1 0x20 ADD SWAP1 DUP2 MSTORE PUSH1 0x20 ADD PUSH1 0x0 KECCAK256 PUSH1 0x0 DUP4 PUSH20 0xFFFFFFFFFFFFFFFFFFFFFFFFFFFFFFFFFFFFFFFF AND PUSH20 0xFFFFFFFFFFFFFFFFFFFFFFFFFFFFFFFFFFFFFFFF AND DUP2 MSTORE PUSH1 0x20 ADD SWAP1 DUP2 MSTORE PUSH1 0x20 ADD PUSH1 0x0 KECCAK256 PUSH1 0x0 SWAP1 SLOAD SWAP1 PUSH2 0x100 EXP SWAP1 DIV PUSH1 0xFF AND SWAP1 POP SWAP3 SWAP2 POP POP JUMP JUMPDEST PUSH1 0x0 PUSH4 0x49064906 PUSH1 0xE0 SHL PUSH28 0xFFFFFFFFFFFFFFFFFFFFFFFFFFFFFFFFFFFFFFFFFFFFFFFFFFFFFFFF NOT AND DUP3 PUSH28 0xFFFFFFFFFFFFFFFFFFFFFFFFFFFFFFFFFFFFFFFFFFFFFFFFFFFFFFFF NOT AND EQ DUP1 PUSH2 0x9F3 JUMPI POP PUSH2 0x9F2 DUP3 PUSH2 0x1291 JUMP JUMPDEST JUMPDEST SWAP1 POP SWAP2 SWAP1 POP JUMP JUMPDEST PUSH2 0xA03 DUP2 PUSH2 0x1373 JUMP JUMPDEST PUSH2 0xA42 JUMPI PUSH1 0x40 MLOAD PUSH32 0x8C379A000000000000000000000000000000000000000000000000000000000 DUP2 MSTORE PUSH1 0x4 ADD PUSH2 0xA39 SWAP1 PUSH2 0x2405 JUMP JUMPDEST PUSH1 0x40 MLOAD DUP1 SWAP2 SUB SWAP1 REVERT JUMPDEST POP JUMP JUMPDEST PUSH1 0x0 CALLER SWAP1 POP SWAP1 JUMP JUMPDEST DUP2 PUSH1 0x4 PUSH1 0x0 DUP4 DUP2 MSTORE PUSH1 0x20 ADD SWAP1 DUP2 MSTORE PUSH1 0x20 ADD PUSH1 0x0 KECCAK256 PUSH1 0x0 PUSH2 0x100 EXP DUP2 SLOAD DUP2 PUSH20 0xFFFFFFFFFFFFFFFFFFFFFFFFFFFFFFFFFFFFFFFF MUL NOT AND SWAP1 DUP4 PUSH20 0xFFFFFFFFFFFFFFFFFFFFFFFFFFFFFFFFFFFFFFFF AND MUL OR SWAP1 SSTORE POP DUP1 DUP3 PUSH20 0xFFFFFFFFFFFFFFFFFFFFFFFFFFFFFFFFFFFFFFFF AND PUSH2 0xAC0 DUP4 PUSH2 0x59D JUMP JUMPDEST PUSH20 0xFFFFFFFFFFFFFFFFFFFFFFFFFFFFFFFFFFFFFFFF AND PUSH32 0x8C5BE1E5EBEC7D5BD14F71427D1E84F3DD0314C0F7B2291E5B200AC8C7C3B925 PUSH1 0x40 MLOAD PUSH1 0x40 MLOAD DUP1 SWAP2 SUB SWAP1 LOG4 POP POP JUMP JUMPDEST PUSH1 0x0 DUP1 PUSH2 0xB12 DUP4 PUSH2 0x59D JUMP JUMPDEST SWAP1 POP DUP1 PUSH20 0xFFFFFFFFFFFFFFFFFFFFFFFFFFFFFFFFFFFFFFFF AND DUP5 PUSH20 0xFFFFFFFFFFFFFFFFFFFFFFFFFFFFFFFFFFFFFFFF AND EQ DUP1 PUSH2 0xB54 JUMPI POP PUSH2 0xB53 DUP2 DUP6 PUSH2 0x905 JUMP JUMPDEST JUMPDEST DUP1 PUSH2 0xB92 JUMPI POP DUP4 PUSH20 0xFFFFFFFFFFFFFFFFFFFFFFFFFFFFFFFFFFFFFFFF AND PUSH2 0xB7A DUP5 PUSH2 0x3C0 JUMP JUMPDEST PUSH20 0xFFFFFFFFFFFFFFFFFFFFFFFFFFFFFFFFFFFFFFFF AND EQ JUMPDEST SWAP2 POP POP SWAP3 SWAP2 POP POP JUMP JUMPDEST DUP3 PUSH20 0xFFFFFFFFFFFFFFFFFFFFFFFFFFFFFFFFFFFFFFFF AND PUSH2 0xBBB DUP3 PUSH2 0x59D JUMP JUMPDEST PUSH20 0xFFFFFFFFFFFFFFFFFFFFFFFFFFFFFFFFFFFFFFFF AND EQ PUSH2 0xC11 JUMPI PUSH1 0x40 MLOAD PUSH32 0x8C379A000000000000000000000000000000000000000000000000000000000 DUP2 MSTORE PUSH1 0x4 ADD PUSH2 0xC08 SWAP1 PUSH2 0x2627 JUMP JUMPDEST PUSH1 0x40 MLOAD DUP1 SWAP2 SUB SWAP1 REVERT JUMPDEST PUSH1 0x0 PUSH20 0xFFFFFFFFFFFFFFFFFFFFFFFFFFFFFFFFFFFFFFFF AND DUP3 PUSH20 0xFFFFFFFFFFFFFFFFFFFFFFFFFFFFFFFFFFFFFFFF AND SUB PUSH2 0xC80 JUMPI PUSH1 0x40 MLOAD PUSH32 0x8C379A000000000000000000000000000000000000000000000000000000000 DUP2 MSTORE PUSH1 0x4 ADD PUSH2 0xC77 SWAP1 PUSH2 0x26B9 JUMP JUMPDEST PUSH1 0x40 MLOAD DUP1 SWAP2 SUB SWAP1 REVERT JUMPDEST PUSH2 0xC8D DUP4 DUP4 DUP4 PUSH1 0x1 PUSH2 0x13B4 JUMP JUMPDEST DUP3 PUSH20 0xFFFFFFFFFFFFFFFFFFFFFFFFFFFFFFFFFFFFFFFF AND PUSH2 0xCAD DUP3 PUSH2 0x59D JUMP JUMPDEST PUSH20 0xFFFFFFFFFFFFFFFFFFFFFFFFFFFFFFFFFFFFFFFF AND EQ PUSH2 0xD03 JUMPI PUSH1 0x40 MLOAD PUSH32 0x8C379A000000000000000000000000000000000000000000000000000000000 DUP2 MSTORE PUSH1 0x4 ADD PUSH2 0xCFA SWAP1 PUSH2 0x2627 JUMP JUMPDEST PUSH1 0x40 MLOAD DUP1 SWAP2 SUB SWAP1 REVERT JUMPDEST PUSH1 0x4 PUSH1 0x0 DUP3 DUP2 MSTORE PUSH1 0x20 ADD SWAP1 DUP2 MSTORE PUSH1 0x20 ADD PUSH1 0x0 KECCAK256 PUSH1 0x0 PUSH2 0x100 EXP DUP2 SLOAD SWAP1 PUSH20 0xFFFFFFFFFFFFFFFFFFFFFFFFFFFFFFFFFFFFFFFF MUL NOT AND SWAP1 SSTORE PUSH1 0x1 PUSH1 0x3 PUSH1 0x0 DUP6 PUSH20 0xFFFFFFFFFFFFFFFFFFFFFFFFFFFFFFFFFFFFFFFF AND PUSH20 0xFFFFFFFFFFFFFFFFFFFFFFFFFFFFFFFFFFFFFFFF AND DUP2 MSTORE PUSH1 0x20 ADD SWAP1 DUP2 MSTORE PUSH1 0x20 ADD PUSH1 0x0 KECCAK256 PUSH1 0x0 DUP3 DUP3 SLOAD SUB SWAP3 POP POP DUP2 SWAP1 SSTORE POP PUSH1 0x1 PUSH1 0x3 PUSH1 0x0 DUP5 PUSH20 0xFFFFFFFFFFFFFFFFFFFFFFFFFFFFFFFFFFFFFFFF AND PUSH20 0xFFFFFFFFFFFFFFFFFFFFFFFFFFFFFFFFFFFFFFFF AND DUP2 MSTORE PUSH1 0x20 ADD SWAP1 DUP2 MSTORE PUSH1 0x20 ADD PUSH1 0x0 KECCAK256 PUSH1 0x0 DUP3 DUP3 SLOAD ADD SWAP3 POP POP DUP2 SWAP1 SSTORE POP DUP2 PUSH1 0x2 PUSH1 0x0 DUP4 DUP2 MSTORE PUSH1 0x20 ADD SWAP1 DUP2 MSTORE PUSH1 0x20 ADD PUSH1 0x0 KECCAK256 PUSH1 0x0 PUSH2 0x100 EXP DUP2 SLOAD DUP2 PUSH20 0xFFFFFFFFFFFFFFFFFFFFFFFFFFFFFFFFFFFFFFFF MUL NOT AND SWAP1 DUP4 PUSH20 0xFFFFFFFFFFFFFFFFFFFFFFFFFFFFFFFFFFFFFFFF AND MUL OR SWAP1 SSTORE POP DUP1 DUP3 PUSH20 0xFFFFFFFFFFFFFFFFFFFFFFFFFFFFFFFFFFFFFFFF AND DUP5 PUSH20 0xFFFFFFFFFFFFFFFFFFFFFFFFFFFFFFFFFFFFFFFF AND PUSH32 0xDDF252AD1BE2C89B69C2B068FC378DAA952BA7F163C4A11628F55A4DF523B3EF PUSH1 0x40 MLOAD PUSH1 0x40 MLOAD DUP1 SWAP2 SUB SWAP1 LOG4 PUSH2 0xE8F DUP4 DUP4 DUP4 PUSH1 0x1 PUSH2 0x13BA JUMP JUMPDEST POP POP POP JUMP JUMPDEST PUSH1 0x0 PUSH1 0x2 PUSH1 0x0 DUP4 DUP2 MSTORE PUSH1 0x20 ADD SWAP1 DUP2 MSTORE PUSH1 0x20 ADD PUSH1 0x0 KECCAK256 PUSH1 0x0 SWAP1 SLOAD SWAP1 PUSH2 0x100 EXP SWAP1 DIV PUSH20 0xFFFFFFFFFFFFFFFFFFFFFFFFFFFFFFFFFFFFFFFF AND SWAP1 POP SWAP2 SWAP1 POP JUMP JUMPDEST DUP2 PUSH20 0xFFFFFFFFFFFFFFFFFFFFFFFFFFFFFFFFFFFFFFFF AND DUP4 PUSH20 0xFFFFFFFFFFFFFFFFFFFFFFFFFFFFFFFFFFFFFFFF AND SUB PUSH2 0xF3F JUMPI PUSH1 0x40 MLOAD PUSH32 0x8C379A000000000000000000000000000000000000000000000000000000000 DUP2 MSTORE PUSH1 0x4 ADD PUSH2 0xF36 SWAP1 PUSH2 0x2725 JUMP JUMPDEST PUSH1 0x40 MLOAD DUP1 SWAP2 SUB SWAP1 REVERT JUMPDEST DUP1 PUSH1 0x5 PUSH1 0x0 DUP6 PUSH20 0xFFFFFFFFFFFFFFFFFFFFFFFFFFFFFFFFFFFFFFFF AND PUSH20 0xFFFFFFFFFFFFFFFFFFFFFFFFFFFFFFFFFFFFFFFF AND DUP2 MSTORE PUSH1 0x20 ADD SWAP1 DUP2 MSTORE PUSH1 0x20 ADD PUSH1 0x0 KECCAK256 PUSH1 0x0 DUP5 PUSH20 0xFFFFFFFFFFFFFFFFFFFFFFFFFFFFFFFFFFFFFFFF AND PUSH20 0xFFFFFFFFFFFFFFFFFFFFFFFFFFFFFFFFFFFFFFFF AND DUP2 MSTORE PUSH1 0x20 ADD SWAP1 DUP2 MSTORE PUSH1 0x20 ADD PUSH1 0x0 KECCAK256 PUSH1 0x0 PUSH2 0x100 EXP DUP2 SLOAD DUP2 PUSH1 0xFF MUL NOT AND SWAP1 DUP4 ISZERO ISZERO MUL OR SWAP1 SSTORE POP DUP2 PUSH20 0xFFFFFFFFFFFFFFFFFFFFFFFFFFFFFFFFFFFFFFFF AND DUP4 PUSH20 0xFFFFFFFFFFFFFFFFFFFFFFFFFFFFFFFFFFFFFFFF AND PUSH32 0x17307EAB39AB6107E8899845AD3D59BD9653F200F220920489CA2B5937696C31 DUP4 PUSH1 0x40 MLOAD PUSH2 0x1030 SWAP2 SWAP1 PUSH2 0x1BA0 JUMP JUMPDEST PUSH1 0x40 MLOAD DUP1 SWAP2 SUB SWAP1 LOG3 POP POP POP JUMP JUMPDEST PUSH2 0x1048 DUP5 DUP5 DUP5 PUSH2 0xB9B JUMP JUMPDEST PUSH2 0x1054 DUP5 DUP5 DUP5 DUP5 PUSH2 0x13C0 JUMP JUMPDEST PUSH2 0x1093 JUMPI PUSH1 0x40 MLOAD PUSH32 0x8C379A000000000000000000000000000000000000000000000000000000000 DUP2 MSTORE PUSH1 0x4 ADD PUSH2 0x108A SWAP1 PUSH2 0x27B7 JUMP JUMPDEST PUSH1 0x40 MLOAD DUP1 SWAP2 SUB SWAP1 REVERT JUMPDEST POP POP POP POP JUMP JUMPDEST PUSH1 0x60 PUSH2 0x10A4 DUP3 PUSH2 0x9FA JUMP JUMPDEST PUSH1 0x0 PUSH1 0x6 PUSH1 0x0 DUP5 DUP2 MSTORE PUSH1 0x20 ADD SWAP1 DUP2 MSTORE PUSH1 0x20 ADD PUSH1 0x0 KECCAK256 DUP1 SLOAD PUSH2 0x10C4 SWAP1 PUSH2 0x21D2 JUMP JUMPDEST DUP1 PUSH1 0x1F ADD PUSH1 0x20 DUP1 SWAP2 DIV MUL PUSH1 0x20 ADD PUSH1 0x40 MLOAD SWAP1 DUP2 ADD PUSH1 0x40 MSTORE DUP1 SWAP3 SWAP2 SWAP1 DUP2 DUP2 MSTORE PUSH1 0x20 ADD DUP3 DUP1 SLOAD PUSH2 0x10F0 SWAP1 PUSH2 0x21D2 JUMP JUMPDEST DUP1 ISZERO PUSH2 0x113D JUMPI DUP1 PUSH1 0x1F LT PUSH2 0x1112 JUMPI PUSH2 0x100 DUP1 DUP4 SLOAD DIV MUL DUP4 MSTORE SWAP2 PUSH1 0x20 ADD SWAP2 PUSH2 0x113D JUMP JUMPDEST DUP3 ADD SWAP2 SWAP1 PUSH1 0x0 MSTORE PUSH1 0x20 PUSH1 0x0 KECCAK256 SWAP1 JUMPDEST DUP2 SLOAD DUP2 MSTORE SWAP1 PUSH1 0x1 ADD SWAP1 PUSH1 0x20 ADD DUP1 DUP4 GT PUSH2 0x1120 JUMPI DUP3 SWAP1 SUB PUSH1 0x1F AND DUP3 ADD SWAP2 JUMPDEST POP POP POP POP POP SWAP1 POP PUSH1 0x0 PUSH2 0x114E PUSH2 0x1547 JUMP JUMPDEST SWAP1 POP PUSH1 0x0 DUP2 MLOAD SUB PUSH2 0x1163 JUMPI DUP2 SWAP3 POP POP POP PUSH2 0x11A6 JUMP JUMPDEST PUSH1 0x0 DUP3 MLOAD GT ISZERO PUSH2 0x1198 JUMPI DUP1 DUP3 PUSH1 0x40 MLOAD PUSH1 0x20 ADD PUSH2 0x1180 SWAP3 SWAP2 SWAP1 PUSH2 0x2813 JUMP JUMPDEST PUSH1 0x40 MLOAD PUSH1 0x20 DUP2 DUP4 SUB SUB DUP2 MSTORE SWAP1 PUSH1 0x40 MSTORE SWAP3 POP POP POP PUSH2 0x11A6 JUMP JUMPDEST PUSH2 0x11A1 DUP5 PUSH2 0x155E JUMP JUMPDEST SWAP3 POP POP POP JUMPDEST SWAP2 SWAP1 POP JUMP JUMPDEST PUSH1 0x1 DUP2 PUSH1 0x0 ADD PUSH1 0x0 DUP3 DUP3 SLOAD ADD SWAP3 POP POP DUP2 SWAP1 SSTORE POP POP JUMP JUMPDEST PUSH1 0x0 DUP2 PUSH1 0x0 ADD SLOAD SWAP1 POP SWAP2 SWAP1 POP JUMP JUMPDEST PUSH2 0x11E9 DUP3 DUP3 PUSH1 0x40 MLOAD DUP1 PUSH1 0x20 ADD PUSH1 0x40 MSTORE DUP1 PUSH1 0x0 DUP2 MSTORE POP PUSH2 0x15C6 JUMP JUMPDEST POP POP JUMP JUMPDEST PUSH2 0x11F6 DUP3 PUSH2 0x1373 JUMP JUMPDEST PUSH2 0x1235 JUMPI PUSH1 0x40 MLOAD PUSH32 0x8C379A000000000000000000000000000000000000000000000000000000000 DUP2 MSTORE PUSH1 0x4 ADD PUSH2 0x122C SWAP1 PUSH2 0x28A9 JUMP JUMPDEST PUSH1 0x40 MLOAD DUP1 SWAP2 SUB SWAP1 REVERT JUMPDEST DUP1 PUSH1 0x6 PUSH1 0x0 DUP5 DUP2 MSTORE PUSH1 0x20 ADD SWAP1 DUP2 MSTORE PUSH1 0x20 ADD PUSH1 0x0 KECCAK256 SWAP1 DUP2 PUSH2 0x1255 SWAP2 SWAP1 PUSH2 0x2A75 JUMP JUMPDEST POP PUSH32 0xF8E1A15ABA9398E019F0B49DF1A4FDE98EE17AE345CB5F6B5E2C27F5033E8CE7 DUP3 PUSH1 0x40 MLOAD PUSH2 0x1285 SWAP2 SWAP1 PUSH2 0x1E27 JUMP JUMPDEST PUSH1 0x40 MLOAD DUP1 SWAP2 SUB SWAP1 LOG1 POP POP JUMP JUMPDEST PUSH1 0x0 PUSH32 0x80AC58CD00000000000000000000000000000000000000000000000000000000 PUSH28 0xFFFFFFFFFFFFFFFFFFFFFFFFFFFFFFFFFFFFFFFFFFFFFFFFFFFFFFFF NOT AND DUP3 PUSH28 0xFFFFFFFFFFFFFFFFFFFFFFFFFFFFFFFFFFFFFFFFFFFFFFFFFFFFFFFF NOT AND EQ DUP1 PUSH2 0x135C JUMPI POP PUSH32 0x5B5E139F00000000000000000000000000000000000000000000000000000000 PUSH28 0xFFFFFFFFFFFFFFFFFFFFFFFFFFFFFFFFFFFFFFFFFFFFFFFFFFFFFFFF NOT AND DUP3 PUSH28 0xFFFFFFFFFFFFFFFFFFFFFFFFFFFFFFFFFFFFFFFFFFFFFFFFFFFFFFFF NOT AND EQ JUMPDEST DUP1 PUSH2 0x136C JUMPI POP PUSH2 0x136B DUP3 PUSH2 0x1621 JUMP JUMPDEST JUMPDEST SWAP1 POP SWAP2 SWAP1 POP JUMP JUMPDEST PUSH1 0x0 DUP1 PUSH20 0xFFFFFFFFFFFFFFFFFFFFFFFFFFFFFFFFFFFFFFFF AND PUSH2 0x1395 DUP4 PUSH2 0xE94 JUMP JUMPDEST PUSH20 0xFFFFFFFFFFFFFFFFFFFFFFFFFFFFFFFFFFFFFFFF AND EQ ISZERO SWAP1 POP SWAP2 SWAP1 POP JUMP JUMPDEST POP POP POP POP JUMP JUMPDEST POP POP POP POP JUMP JUMPDEST PUSH1 0x0 PUSH2 0x13E1 DUP5 PUSH20 0xFFFFFFFFFFFFFFFFFFFFFFFFFFFFFFFFFFFFFFFF AND PUSH2 0x168B JUMP JUMPDEST ISZERO PUSH2 0x153A JUMPI DUP4 PUSH20 0xFFFFFFFFFFFFFFFFFFFFFFFFFFFFFFFFFFFFFFFF AND PUSH4 0x150B7A02 PUSH2 0x140A PUSH2 0xA45 JUMP JUMPDEST DUP8 DUP7 DUP7 PUSH1 0x40 MLOAD DUP6 PUSH4 0xFFFFFFFF AND PUSH1 0xE0 SHL DUP2 MSTORE PUSH1 0x4 ADD PUSH2 0x142C SWAP5 SWAP4 SWAP3 SWAP2 SWAP1 PUSH2 0x2B9C JUMP JUMPDEST PUSH1 0x20 PUSH1 0x40 MLOAD DUP1 DUP4 SUB DUP2 PUSH1 0x0 DUP8 GAS CALL SWAP3 POP POP POP DUP1 ISZERO PUSH2 0x1468 JUMPI POP PUSH1 0x40 MLOAD RETURNDATASIZE PUSH1 0x1F NOT PUSH1 0x1F DUP3 ADD AND DUP3 ADD DUP1 PUSH1 0x40 MSTORE POP DUP2 ADD SWAP1 PUSH2 0x1465 SWAP2 SWAP1 PUSH2 0x2BFD JUMP JUMPDEST PUSH1 0x1 JUMPDEST PUSH2 0x14EA JUMPI RETURNDATASIZE DUP1 PUSH1 0x0 DUP2 EQ PUSH2 0x1498 JUMPI PUSH1 0x40 MLOAD SWAP2 POP PUSH1 0x1F NOT PUSH1 0x3F RETURNDATASIZE ADD AND DUP3 ADD PUSH1 0x40 MSTORE RETURNDATASIZE DUP3 MSTORE RETURNDATASIZE PUSH1 0x0 PUSH1 0x20 DUP5 ADD RETURNDATACOPY PUSH2 0x149D JUMP JUMPDEST PUSH1 0x60 SWAP2 POP JUMPDEST POP PUSH1 0x0 DUP2 MLOAD SUB PUSH2 0x14E2 JUMPI PUSH1 0x40 MLOAD PUSH32 0x8C379A000000000000000000000000000000000000000000000000000000000 DUP2 MSTORE PUSH1 0x4 ADD PUSH2 0x14D9 SWAP1 PUSH2 0x27B7 JUMP JUMPDEST PUSH1 0x40 MLOAD DUP1 SWAP2 SUB SWAP1 REVERT JUMPDEST DUP1 MLOAD DUP2 PUSH1 0x20 ADD REVERT JUMPDEST PUSH4 0x150B7A02 PUSH1 0xE0 SHL PUSH28 0xFFFFFFFFFFFFFFFFFFFFFFFFFFFFFFFFFFFFFFFFFFFFFFFFFFFFFFFF NOT AND DUP2 PUSH28 0xFFFFFFFFFFFFFFFFFFFFFFFFFFFFFFFFFFFFFFFFFFFFFFFFFFFFFFFF NOT AND EQ SWAP2 POP POP PUSH2 0x153F JUMP JUMPDEST PUSH1 0x1 SWAP1 POP JUMPDEST SWAP5 SWAP4 POP POP POP POP JUMP JUMPDEST PUSH1 0x60 PUSH1 0x40 MLOAD DUP1 PUSH1 0x20 ADD PUSH1 0x40 MSTORE DUP1 PUSH1 0x0 DUP2 MSTORE POP SWAP1 POP SWAP1 JUMP JUMPDEST PUSH1 0x60 PUSH2 0x1569 DUP3 PUSH2 0x9FA JUMP JUMPDEST PUSH1 0x0 PUSH2 0x1573 PUSH2 0x1547 JUMP JUMPDEST SWAP1 POP PUSH1 0x0 DUP2 MLOAD GT PUSH2 0x1593 JUMPI PUSH1 0x40 MLOAD DUP1 PUSH1 0x20 ADD PUSH1 0x40 MSTORE DUP1 PUSH1 0x0 DUP2 MSTORE POP PUSH2 0x15BE JUMP JUMPDEST DUP1 PUSH2 0x159D DUP5 PUSH2 0x16AE JUMP JUMPDEST PUSH1 0x40 MLOAD PUSH1 0x20 ADD PUSH2 0x15AE SWAP3 SWAP2 SWAP1 PUSH2 0x2813 JUMP JUMPDEST PUSH1 0x40 MLOAD PUSH1 0x20 DUP2 DUP4 SUB SUB DUP2 MSTORE SWAP1 PUSH1 0x40 MSTORE JUMPDEST SWAP2 POP POP SWAP2 SWAP1 POP JUMP JUMPDEST PUSH2 0x15D0 DUP4 DUP4 PUSH2 0x177C JUMP JUMPDEST PUSH2 0x15DD PUSH1 0x0 DUP5 DUP5 DUP5 PUSH2 0x13C0 JUMP JUMPDEST PUSH2 0x161C JUMPI PUSH1 0x40 MLOAD PUSH32 0x8C379A000000000000000000000000000000000000000000000000000000000 DUP2 MSTORE PUSH1 0x4 ADD PUSH2 0x1613 SWAP1 PUSH2 0x27B7 JUMP JUMPDEST PUSH1 0x40 MLOAD DUP1 SWAP2 SUB SWAP1 REVERT JUMPDEST POP POP POP JUMP JUMPDEST PUSH1 0x0 PUSH32 0x1FFC9A700000000000000000000000000000000000000000000000000000000 PUSH28 0xFFFFFFFFFFFFFFFFFFFFFFFFFFFFFFFFFFFFFFFFFFFFFFFFFFFFFFFF NOT AND DUP3 PUSH28 0xFFFFFFFFFFFFFFFFFFFFFFFFFFFFFFFFFFFFFFFFFFFFFFFFFFFFFFFF NOT AND EQ SWAP1 POP SWAP2 SWAP1 POP JUMP JUMPDEST PUSH1 0x0 DUP1 DUP3 PUSH20 0xFFFFFFFFFFFFFFFFFFFFFFFFFFFFFFFFFFFFFFFF AND EXTCODESIZE GT SWAP1 POP SWAP2 SWAP1 POP JUMP JUMPDEST PUSH1 0x60 PUSH1 0x0 PUSH1 0x1 PUSH2 0x16BD DUP5 PUSH2 0x1999 JUMP JUMPDEST ADD SWAP1 POP PUSH1 0x0 DUP2 PUSH8 0xFFFFFFFFFFFFFFFF DUP2 GT ISZERO PUSH2 0x16DC JUMPI PUSH2 0x16DB PUSH2 0x1EB8 JUMP JUMPDEST JUMPDEST PUSH1 0x40 MLOAD SWAP1 DUP1 DUP3 MSTORE DUP1 PUSH1 0x1F ADD PUSH1 0x1F NOT AND PUSH1 0x20 ADD DUP3 ADD PUSH1 0x40 MSTORE DUP1 ISZERO PUSH2 0x170E JUMPI DUP2 PUSH1 0x20 ADD PUSH1 0x1 DUP3 MUL DUP1 CALLDATASIZE DUP4 CALLDATACOPY DUP1 DUP3 ADD SWAP2 POP POP SWAP1 POP JUMPDEST POP SWAP1 POP PUSH1 0x0 DUP3 PUSH1 0x20 ADD DUP3 ADD SWAP1 POP JUMPDEST PUSH1 0x1 ISZERO PUSH2 0x1771 JUMPI DUP1 DUP1 PUSH1 0x1 SWAP1 SUB SWAP2 POP POP PUSH32 0x3031323334353637383961626364656600000000000000000000000000000000 PUSH1 0xA DUP7 MOD BYTE DUP2 MSTORE8 PUSH1 0xA DUP6 DUP2 PUSH2 0x1765 JUMPI PUSH2 0x1764 PUSH2 0x2C2A JUMP JUMPDEST JUMPDEST DIV SWAP5 POP PUSH1 0x0 DUP6 SUB PUSH2 0x171C JUMPI JUMPDEST DUP2 SWAP4 POP POP POP POP SWAP2 SWAP1 POP JUMP JUMPDEST PUSH1 0x0 PUSH20 0xFFFFFFFFFFFFFFFFFFFFFFFFFFFFFFFFFFFFFFFF AND DUP3 PUSH20 0xFFFFFFFFFFFFFFFFFFFFFFFFFFFFFFFFFFFFFFFF AND SUB PUSH2 0x17EB JUMPI PUSH1 0x40 MLOAD PUSH32 0x8C379A000000000000000000000000000000000000000000000000000000000 DUP2 MSTORE PUSH1 0x4 ADD PUSH2 0x17E2 SWAP1 PUSH2 0x2CA5 JUMP JUMPDEST PUSH1 0x40 MLOAD DUP1 SWAP2 SUB SWAP1 REVERT JUMPDEST PUSH2 0x17F4 DUP2 PUSH2 0x1373 JUMP JUMPDEST ISZERO PUSH2 0x1834 JUMPI PUSH1 0x40 MLOAD PUSH32 0x8C379A000000000000000000000000000000000000000000000000000000000 DUP2 MSTORE PUSH1 0x4 ADD PUSH2 0x182B SWAP1 PUSH2 0x2D11 JUMP JUMPDEST PUSH1 0x40 MLOAD DUP1 SWAP2 SUB SWAP1 REVERT JUMPDEST PUSH2 0x1842 PUSH1 0x0 DUP4 DUP4 PUSH1 0x1 PUSH2 0x13B4 JUMP JUMPDEST PUSH2 0x184B DUP2 PUSH2 0x1373 JUMP JUMPDEST ISZERO PUSH2 0x188B JUMPI PUSH1 0x40 MLOAD PUSH32 0x8C379A000000000000000000000000000000000000000000000000000000000 DUP2 MSTORE PUSH1 0x4 ADD PUSH2 0x1882 SWAP1 PUSH2 0x2D11 JUMP JUMPDEST PUSH1 0x40 MLOAD DUP1 SWAP2 SUB SWAP1 REVERT JUMPDEST PUSH1 0x1 PUSH1 0x3 PUSH1 0x0 DUP5 PUSH20 0xFFFFFFFFFFFFFFFFFFFFFFFFFFFFFFFFFFFFFFFF AND PUSH20 0xFFFFFFFFFFFFFFFFFFFFFFFFFFFFFFFFFFFFFFFF AND DUP2 MSTORE PUSH1 0x20 ADD SWAP1 DUP2 MSTORE PUSH1 0x20 ADD PUSH1 0x0 KECCAK256 PUSH1 0x0 DUP3 DUP3 SLOAD ADD SWAP3 POP POP DUP2 SWAP1 SSTORE POP DUP2 PUSH1 0x2 PUSH1 0x0 DUP4 DUP2 MSTORE PUSH1 0x20 ADD SWAP1 DUP2 MSTORE PUSH1 0x20 ADD PUSH1 0x0 KECCAK256 PUSH1 0x0 PUSH2 0x100 EXP DUP2 SLOAD DUP2 PUSH20 0xFFFFFFFFFFFFFFFFFFFFFFFFFFFFFFFFFFFFFFFF MUL NOT AND SWAP1 DUP4 PUSH20 0xFFFFFFFFFFFFFFFFFFFFFFFFFFFFFFFFFFFFFFFF AND MUL OR SWAP1 SSTORE POP DUP1 DUP3 PUSH20 0xFFFFFFFFFFFFFFFFFFFFFFFFFFFFFFFFFFFFFFFF AND PUSH1 0x0 PUSH20 0xFFFFFFFFFFFFFFFFFFFFFFFFFFFFFFFFFFFFFFFF AND PUSH32 0xDDF252AD1BE2C89B69C2B068FC378DAA952BA7F163C4A11628F55A4DF523B3EF PUSH1 0x40 MLOAD PUSH1 0x40 MLOAD DUP1 SWAP2 SUB SWAP1 LOG4 PUSH2 0x1995 PUSH1 0x0 DUP4 DUP4 PUSH1 0x1 PUSH2 0x13BA JUMP JUMPDEST POP POP JUMP JUMPDEST PUSH1 0x0 DUP1 PUSH1 0x0 SWAP1 POP PUSH27 0x184F03E93FF9F4DAA797ED6E38ED64BF6A1F010000000000000000 DUP4 LT PUSH2 0x19F7 JUMPI PUSH27 0x184F03E93FF9F4DAA797ED6E38ED64BF6A1F010000000000000000 DUP4 DUP2 PUSH2 0x19ED JUMPI PUSH2 0x19EC PUSH2 0x2C2A JUMP JUMPDEST JUMPDEST DIV SWAP3 POP PUSH1 0x40 DUP2 ADD SWAP1 POP JUMPDEST PUSH14 0x4EE2D6D415B85ACEF8100000000 DUP4 LT PUSH2 0x1A34 JUMPI PUSH14 0x4EE2D6D415B85ACEF8100000000 DUP4 DUP2 PUSH2 0x1A2A JUMPI PUSH2 0x1A29 PUSH2 0x2C2A JUMP JUMPDEST JUMPDEST DIV SWAP3 POP PUSH1 0x20 DUP2 ADD SWAP1 POP JUMPDEST PUSH7 0x2386F26FC10000 DUP4 LT PUSH2 0x1A63 JUMPI PUSH7 0x2386F26FC10000 DUP4 DUP2 PUSH2 0x1A59 JUMPI PUSH2 0x1A58 PUSH2 0x2C2A JUMP JUMPDEST JUMPDEST DIV SWAP3 POP PUSH1 0x10 DUP2 ADD SWAP1 POP JUMPDEST PUSH4 0x5F5E100 DUP4 LT PUSH2 0x1A8C JUMPI PUSH4 0x5F5E100 DUP4 DUP2 PUSH2 0x1A82 JUMPI PUSH2 0x1A81 PUSH2 0x2C2A JUMP JUMPDEST JUMPDEST DIV SWAP3 POP PUSH1 0x8 DUP2 ADD SWAP1 POP JUMPDEST PUSH2 0x2710 DUP4 LT PUSH2 0x1AB1 JUMPI PUSH2 0x2710 DUP4 DUP2 PUSH2 0x1AA7 JUMPI PUSH2 0x1AA6 PUSH2 0x2C2A JUMP JUMPDEST JUMPDEST DIV SWAP3 POP PUSH1 0x4 DUP2 ADD SWAP1 POP JUMPDEST PUSH1 0x64 DUP4 LT PUSH2 0x1AD4 JUMPI PUSH1 0x64 DUP4 DUP2 PUSH2 0x1ACA JUMPI PUSH2 0x1AC9 PUSH2 0x2C2A JUMP JUMPDEST JUMPDEST DIV SWAP3 POP PUSH1 0x2 DUP2 ADD SWAP1 POP JUMPDEST PUSH1 0xA DUP4 LT PUSH2 0x1AE3 JUMPI PUSH1 0x1 DUP2 ADD SWAP1 POP JUMPDEST DUP1 SWAP2 POP POP SWAP2 SWAP1 POP JUMP JUMPDEST PUSH1 0x0 PUSH1 0x40 MLOAD SWAP1 POP SWAP1 JUMP JUMPDEST PUSH1 0x0 DUP1 REVERT JUMPDEST PUSH1 0x0 DUP1 REVERT JUMPDEST PUSH1 0x0 PUSH32 0xFFFFFFFF00000000000000000000000000000000000000000000000000000000 DUP3 AND SWAP1 POP SWAP2 SWAP1 POP JUMP JUMPDEST PUSH2 0x1B35 DUP2 PUSH2 0x1B00 JUMP JUMPDEST DUP2 EQ PUSH2 0x1B40 JUMPI PUSH1 0x0 DUP1 REVERT JUMPDEST POP JUMP JUMPDEST PUSH1 0x0 DUP2 CALLDATALOAD SWAP1 POP PUSH2 0x1B52 DUP2 PUSH2 0x1B2C JUMP JUMPDEST SWAP3 SWAP2 POP POP JUMP JUMPDEST PUSH1 0x0 PUSH1 0x20 DUP3 DUP5 SUB SLT ISZERO PUSH2 0x1B6E JUMPI PUSH2 0x1B6D PUSH2 0x1AF6 JUMP JUMPDEST JUMPDEST PUSH1 0x0 PUSH2 0x1B7C DUP5 DUP3 DUP6 ADD PUSH2 0x1B43 JUMP JUMPDEST SWAP2 POP POP SWAP3 SWAP2 POP POP JUMP JUMPDEST PUSH1 0x0 DUP2 ISZERO ISZERO SWAP1 POP SWAP2 SWAP1 POP JUMP JUMPDEST PUSH2 0x1B9A DUP2 PUSH2 0x1B85 JUMP JUMPDEST DUP3 MSTORE POP POP JUMP JUMPDEST PUSH1 0x0 PUSH1 0x20 DUP3 ADD SWAP1 POP PUSH2 0x1BB5 PUSH1 0x0 DUP4 ADD DUP5 PUSH2 0x1B91 JUMP JUMPDEST SWAP3 SWAP2 POP POP JUMP JUMPDEST PUSH1 0x0 DUP2 MLOAD SWAP1 POP SWAP2 SWAP1 POP JUMP JUMPDEST PUSH1 0x0 DUP3 DUP3 MSTORE PUSH1 0x20 DUP3 ADD SWAP1 POP SWAP3 SWAP2 POP POP JUMP JUMPDEST PUSH1 0x0 JUMPDEST DUP4 DUP2 LT ISZERO PUSH2 0x1BF5 JUMPI DUP1 DUP3 ADD MLOAD DUP2 DUP5 ADD MSTORE PUSH1 0x20 DUP2 ADD SWAP1 POP PUSH2 0x1BDA JUMP JUMPDEST PUSH1 0x0 DUP5 DUP5 ADD MSTORE POP POP POP POP JUMP JUMPDEST PUSH1 0x0 PUSH1 0x1F NOT PUSH1 0x1F DUP4 ADD AND SWAP1 POP SWAP2 SWAP1 POP JUMP JUMPDEST PUSH1 0x0 PUSH2 0x1C1D DUP3 PUSH2 0x1BBB JUMP JUMPDEST PUSH2 0x1C27 DUP2 DUP6 PUSH2 0x1BC6 JUMP JUMPDEST SWAP4 POP PUSH2 0x1C37 DUP2 DUP6 PUSH1 0x20 DUP7 ADD PUSH2 0x1BD7 JUMP JUMPDEST PUSH2 0x1C40 DUP2 PUSH2 0x1C01 JUMP JUMPDEST DUP5 ADD SWAP2 POP POP SWAP3 SWAP2 POP POP JUMP JUMPDEST PUSH1 0x0 PUSH1 0x20 DUP3 ADD SWAP1 POP DUP2 DUP2 SUB PUSH1 0x0 DUP4 ADD MSTORE PUSH2 0x1C65 DUP2 DUP5 PUSH2 0x1C12 JUMP JUMPDEST SWAP1 POP SWAP3 SWAP2 POP POP JUMP JUMPDEST PUSH1 0x0 DUP2 SWAP1 POP SWAP2 SWAP1 POP JUMP JUMPDEST PUSH2 0x1C80 DUP2 PUSH2 0x1C6D JUMP JUMPDEST DUP2 EQ PUSH2 0x1C8B JUMPI PUSH1 0x0 DUP1 REVERT JUMPDEST POP JUMP JUMPDEST PUSH1 0x0 DUP2 CALLDATALOAD SWAP1 POP PUSH2 0x1C9D DUP2 PUSH2 0x1C77 JUMP JUMPDEST SWAP3 SWAP2 POP POP JUMP JUMPDEST PUSH1 0x0 PUSH1 0x20 DUP3 DUP5 SUB SLT ISZERO PUSH2 0x1CB9 JUMPI PUSH2 0x1CB8 PUSH2 0x1AF6 JUMP JUMPDEST JUMPDEST PUSH1 0x0 PUSH2 0x1CC7 DUP5 DUP3 DUP6 ADD PUSH2 0x1C8E JUMP JUMPDEST SWAP2 POP POP SWAP3 SWAP2 POP POP JUMP JUMPDEST PUSH1 0x0 PUSH20 0xFFFFFFFFFFFFFFFFFFFFFFFFFFFFFFFFFFFFFFFF DUP3 AND SWAP1 POP SWAP2 SWAP1 POP JUMP JUMPDEST PUSH1 0x0 PUSH2 0x1CFB DUP3 PUSH2 0x1CD0 JUMP JUMPDEST SWAP1 POP SWAP2 SWAP1 POP JUMP JUMPDEST PUSH2 0x1D0B DUP2 PUSH2 0x1CF0 JUMP JUMPDEST DUP3 MSTORE POP POP JUMP JUMPDEST PUSH1 0x0 PUSH1 0x20 DUP3 ADD SWAP1 POP PUSH2 0x1D26 PUSH1 0x0 DUP4 ADD DUP5 PUSH2 0x1D02 JUMP JUMPDEST SWAP3 SWAP2 POP POP JUMP JUMPDEST PUSH2 0x1D35 DUP2 PUSH2 0x1CF0 JUMP JUMPDEST DUP2 EQ PUSH2 0x1D40 JUMPI PUSH1 0x0 DUP1 REVERT JUMPDEST POP JUMP JUMPDEST PUSH1 0x0 DUP2 CALLDATALOAD SWAP1 POP PUSH2 0x1D52 DUP2 PUSH2 0x1D2C JUMP JUMPDEST SWAP3 SWAP2 POP POP JUMP JUMPDEST PUSH1 0x0 DUP1 PUSH1 0x40 DUP4 DUP6 SUB SLT ISZERO PUSH2 0x1D6F JUMPI PUSH2 0x1D6E PUSH2 0x1AF6 JUMP JUMPDEST JUMPDEST PUSH1 0x0 PUSH2 0x1D7D DUP6 DUP3 DUP7 ADD PUSH2 0x1D43 JUMP JUMPDEST SWAP3 POP POP PUSH1 0x20 PUSH2 0x1D8E DUP6 DUP3 DUP7 ADD PUSH2 0x1C8E JUMP JUMPDEST SWAP2 POP POP SWAP3 POP SWAP3 SWAP1 POP JUMP JUMPDEST PUSH1 0x0 DUP1 PUSH1 0x0 PUSH1 0x60 DUP5 DUP7 SUB SLT ISZERO PUSH2 0x1DB1 JUMPI PUSH2 0x1DB0 PUSH2 0x1AF6 JUMP JUMPDEST JUMPDEST PUSH1 0x0 PUSH2 0x1DBF DUP7 DUP3 DUP8 ADD PUSH2 0x1D43 JUMP JUMPDEST SWAP4 POP POP PUSH1 0x20 PUSH2 0x1DD0 DUP7 DUP3 DUP8 ADD PUSH2 0x1D43 JUMP JUMPDEST SWAP3 POP POP PUSH1 0x40 PUSH2 0x1DE1 DUP7 DUP3 DUP8 ADD PUSH2 0x1C8E JUMP JUMPDEST SWAP2 POP POP SWAP3 POP SWAP3 POP SWAP3 JUMP JUMPDEST PUSH1 0x0 PUSH1 0x20 DUP3 DUP5 SUB SLT ISZERO PUSH2 0x1E01 JUMPI PUSH2 0x1E00 PUSH2 0x1AF6 JUMP JUMPDEST JUMPDEST PUSH1 0x0 PUSH2 0x1E0F DUP5 DUP3 DUP6 ADD PUSH2 0x1D43 JUMP JUMPDEST SWAP2 POP POP SWAP3 SWAP2 POP POP JUMP JUMPDEST PUSH2 0x1E21 DUP2 PUSH2 0x1C6D JUMP JUMPDEST DUP3 MSTORE POP POP JUMP JUMPDEST PUSH1 0x0 PUSH1 0x20 DUP3 ADD SWAP1 POP PUSH2 0x1E3C PUSH1 0x0 DUP4 ADD DUP5 PUSH2 0x1E18 JUMP JUMPDEST SWAP3 SWAP2 POP POP JUMP JUMPDEST PUSH2 0x1E4B DUP2 PUSH2 0x1B85 JUMP JUMPDEST DUP2 EQ PUSH2 0x1E56 JUMPI PUSH1 0x0 DUP1 REVERT JUMPDEST POP JUMP JUMPDEST PUSH1 0x0 DUP2 CALLDATALOAD SWAP1 POP PUSH2 0x1E68 DUP2 PUSH2 0x1E42 JUMP JUMPDEST SWAP3 SWAP2 POP POP JUMP JUMPDEST PUSH1 0x0 DUP1 PUSH1 0x40 DUP4 DUP6 SUB SLT ISZERO PUSH2 0x1E85 JUMPI PUSH2 0x1E84 PUSH2 0x1AF6 JUMP JUMPDEST JUMPDEST PUSH1 0x0 PUSH2 0x1E93 DUP6 DUP3 DUP7 ADD PUSH2 0x1D43 JUMP JUMPDEST SWAP3 POP POP PUSH1 0x20 PUSH2 0x1EA4 DUP6 DUP3 DUP7 ADD PUSH2 0x1E59 JUMP JUMPDEST SWAP2 POP POP SWAP3 POP SWAP3 SWAP1 POP JUMP JUMPDEST PUSH1 0x0 DUP1 REVERT JUMPDEST PUSH1 0x0 DUP1 REVERT JUMPDEST PUSH32 0x4E487B7100000000000000000000000000000000000000000000000000000000 PUSH1 0x0 MSTORE PUSH1 0x41 PUSH1 0x4 MSTORE PUSH1 0x24 PUSH1 0x0 REVERT JUMPDEST PUSH2 0x1EF0 DUP3 PUSH2 0x1C01 JUMP JUMPDEST DUP2 ADD DUP2 DUP2 LT PUSH8 0xFFFFFFFFFFFFFFFF DUP3 GT OR ISZERO PUSH2 0x1F0F JUMPI PUSH2 0x1F0E PUSH2 0x1EB8 JUMP JUMPDEST JUMPDEST DUP1 PUSH1 0x40 MSTORE POP POP POP JUMP JUMPDEST PUSH1 0x0 PUSH2 0x1F22 PUSH2 0x1AEC JUMP JUMPDEST SWAP1 POP PUSH2 0x1F2E DUP3 DUP3 PUSH2 0x1EE7 JUMP JUMPDEST SWAP2 SWAP1 POP JUMP JUMPDEST PUSH1 0x0 PUSH8 0xFFFFFFFFFFFFFFFF DUP3 GT ISZERO PUSH2 0x1F4E JUMPI PUSH2 0x1F4D PUSH2 0x1EB8 JUMP JUMPDEST JUMPDEST PUSH2 0x1F57 DUP3 PUSH2 0x1C01 JUMP JUMPDEST SWAP1 POP PUSH1 0x20 DUP2 ADD SWAP1 POP SWAP2 SWAP1 POP JUMP JUMPDEST DUP3 DUP2 DUP4 CALLDATACOPY PUSH1 0x0 DUP4 DUP4 ADD MSTORE POP POP POP JUMP JUMPDEST PUSH1 0x0 PUSH2 0x1F86 PUSH2 0x1F81 DUP5 PUSH2 0x1F33 JUMP JUMPDEST PUSH2 0x1F18 JUMP JUMPDEST SWAP1 POP DUP3 DUP2 MSTORE PUSH1 0x20 DUP2 ADD DUP5 DUP5 DUP5 ADD GT ISZERO PUSH2 0x1FA2 JUMPI PUSH2 0x1FA1 PUSH2 0x1EB3 JUMP JUMPDEST JUMPDEST PUSH2 0x1FAD DUP5 DUP3 DUP6 PUSH2 0x1F64 JUMP JUMPDEST POP SWAP4 SWAP3 POP POP POP JUMP JUMPDEST PUSH1 0x0 DUP3 PUSH1 0x1F DUP4 ADD SLT PUSH2 0x1FCA JUMPI PUSH2 0x1FC9 PUSH2 0x1EAE JUMP JUMPDEST JUMPDEST DUP2 CALLDATALOAD PUSH2 0x1FDA DUP5 DUP3 PUSH1 0x20 DUP7 ADD PUSH2 0x1F73 JUMP JUMPDEST SWAP2 POP POP SWAP3 SWAP2 POP POP JUMP JUMPDEST PUSH1 0x0 DUP1 PUSH1 0x0 DUP1 PUSH1 0x80 DUP6 DUP8 SUB SLT ISZERO PUSH2 0x1FFD JUMPI PUSH2 0x1FFC PUSH2 0x1AF6 JUMP JUMPDEST JUMPDEST PUSH1 0x0 PUSH2 0x200B DUP8 DUP3 DUP9 ADD PUSH2 0x1D43 JUMP JUMPDEST SWAP5 POP POP PUSH1 0x20 PUSH2 0x201C DUP8 DUP3 DUP9 ADD PUSH2 0x1D43 JUMP JUMPDEST SWAP4 POP POP PUSH1 0x40 PUSH2 0x202D DUP8 DUP3 DUP9 ADD PUSH2 0x1C8E JUMP JUMPDEST SWAP3 POP POP PUSH1 0x60 DUP6 ADD CALLDATALOAD PUSH8 0xFFFFFFFFFFFFFFFF DUP2 GT ISZERO PUSH2 0x204E JUMPI PUSH2 0x204D PUSH2 0x1AFB JUMP JUMPDEST JUMPDEST PUSH2 0x205A DUP8 DUP3 DUP9 ADD PUSH2 0x1FB5 JUMP JUMPDEST SWAP2 POP POP SWAP3 SWAP6 SWAP2 SWAP5 POP SWAP3 POP JUMP JUMPDEST PUSH1 0x0 PUSH8 0xFFFFFFFFFFFFFFFF DUP3 GT ISZERO PUSH2 0x2081 JUMPI PUSH2 0x2080 PUSH2 0x1EB8 JUMP JUMPDEST JUMPDEST PUSH2 0x208A DUP3 PUSH2 0x1C01 JUMP JUMPDEST SWAP1 POP PUSH1 0x20 DUP2 ADD SWAP1 POP SWAP2 SWAP1 POP JUMP JUMPDEST PUSH1 0x0 PUSH2 0x20AA PUSH2 0x20A5 DUP5 PUSH2 0x2066 JUMP JUMPDEST PUSH2 0x1F18 JUMP JUMPDEST SWAP1 POP DUP3 DUP2 MSTORE PUSH1 0x20 DUP2 ADD DUP5 DUP5 DUP5 ADD GT ISZERO PUSH2 0x20C6 JUMPI PUSH2 0x20C5 PUSH2 0x1EB3 JUMP JUMPDEST JUMPDEST PUSH2 0x20D1 DUP5 DUP3 DUP6 PUSH2 0x1F64 JUMP JUMPDEST POP SWAP4 SWAP3 POP POP POP JUMP JUMPDEST PUSH1 0x0 DUP3 PUSH1 0x1F DUP4 ADD SLT PUSH2 0x20EE JUMPI PUSH2 0x20ED PUSH2 0x1EAE JUMP JUMPDEST JUMPDEST DUP2 CALLDATALOAD PUSH2 0x20FE DUP5 DUP3 PUSH1 0x20 DUP7 ADD PUSH2 0x2097 JUMP JUMPDEST SWAP2 POP POP SWAP3 SWAP2 POP POP JUMP JUMPDEST PUSH1 0x0 DUP1 PUSH1 0x40 DUP4 DUP6 SUB SLT ISZERO PUSH2 0x211E JUMPI PUSH2 0x211D PUSH2 0x1AF6 JUMP JUMPDEST JUMPDEST PUSH1 0x0 PUSH2 0x212C DUP6 DUP3 DUP7 ADD PUSH2 0x1D43 JUMP JUMPDEST SWAP3 POP POP PUSH1 0x20 DUP4 ADD CALLDATALOAD PUSH8 0xFFFFFFFFFFFFFFFF DUP2 GT ISZERO PUSH2 0x214D JUMPI PUSH2 0x214C PUSH2 0x1AFB JUMP JUMPDEST JUMPDEST PUSH2 0x2159 DUP6 DUP3 DUP7 ADD PUSH2 0x20D9 JUMP JUMPDEST SWAP2 POP POP SWAP3 POP SWAP3 SWAP1 POP JUMP JUMPDEST PUSH1 0x0 DUP1 PUSH1 0x40 DUP4 DUP6 SUB SLT ISZERO PUSH2 0x217A JUMPI PUSH2 0x2179 PUSH2 0x1AF6 JUMP JUMPDEST JUMPDEST PUSH1 0x0 PUSH2 0x2188 DUP6 DUP3 DUP7 ADD PUSH2 0x1D43 JUMP JUMPDEST SWAP3 POP POP PUSH1 0x20 PUSH2 0x2199 DUP6 DUP3 DUP7 ADD PUSH2 0x1D43 JUMP JUMPDEST SWAP2 POP POP SWAP3 POP SWAP3 SWAP1 POP JUMP JUMPDEST PUSH32 0x4E487B7100000000000000000000000000000000000000000000000000000000 PUSH1 0x0 MSTORE PUSH1 0x22 PUSH1 0x4 MSTORE PUSH1 0x24 PUSH1 0x0 REVERT JUMPDEST PUSH1 0x0 PUSH1 0x2 DUP3 DIV SWAP1 POP PUSH1 0x1 DUP3 AND DUP1 PUSH2 0x21EA JUMPI PUSH1 0x7F DUP3 AND SWAP2 POP JUMPDEST PUSH1 0x20 DUP3 LT DUP2 SUB PUSH2 0x21FD JUMPI PUSH2 0x21FC PUSH2 0x21A3 JUMP JUMPDEST JUMPDEST POP SWAP2 SWAP1 POP JUMP JUMPDEST PUSH32 0x4552433732313A20617070726F76616C20746F2063757272656E74206F776E65 PUSH1 0x0 DUP3 ADD MSTORE PUSH32 0x7200000000000000000000000000000000000000000000000000000000000000 PUSH1 0x20 DUP3 ADD MSTORE POP JUMP JUMPDEST PUSH1 0x0 PUSH2 0x225F PUSH1 0x21 DUP4 PUSH2 0x1BC6 JUMP JUMPDEST SWAP2 POP PUSH2 0x226A DUP3 PUSH2 0x2203 JUMP JUMPDEST PUSH1 0x40 DUP3 ADD SWAP1 POP SWAP2 SWAP1 POP JUMP JUMPDEST PUSH1 0x0 PUSH1 0x20 DUP3 ADD SWAP1 POP DUP2 DUP2 SUB PUSH1 0x0 DUP4 ADD MSTORE PUSH2 0x228E DUP2 PUSH2 0x2252 JUMP JUMPDEST SWAP1 POP SWAP2 SWAP1 POP JUMP JUMPDEST PUSH32 0x4552433732313A20617070726F76652063616C6C6572206973206E6F7420746F PUSH1 0x0 DUP3 ADD MSTORE PUSH32 0x6B656E206F776E6572206F7220617070726F76656420666F7220616C6C000000 PUSH1 0x20 DUP3 ADD MSTORE POP JUMP JUMPDEST PUSH1 0x0 PUSH2 0x22F1 PUSH1 0x3D DUP4 PUSH2 0x1BC6 JUMP JUMPDEST SWAP2 POP PUSH2 0x22FC DUP3 PUSH2 0x2295 JUMP JUMPDEST PUSH1 0x40 DUP3 ADD SWAP1 POP SWAP2 SWAP1 POP JUMP JUMPDEST PUSH1 0x0 PUSH1 0x20 DUP3 ADD SWAP1 POP DUP2 DUP2 SUB PUSH1 0x0 DUP4 ADD MSTORE PUSH2 0x2320 DUP2 PUSH2 0x22E4 JUMP JUMPDEST SWAP1 POP SWAP2 SWAP1 POP JUMP JUMPDEST PUSH32 0x4552433732313A2063616C6C6572206973206E6F7420746F6B656E206F776E65 PUSH1 0x0 DUP3 ADD MSTORE PUSH32 0x72206F7220617070726F76656400000000000000000000000000000000000000 PUSH1 0x20 DUP3 ADD MSTORE POP JUMP JUMPDEST PUSH1 0x0 PUSH2 0x2383 PUSH1 0x2D DUP4 PUSH2 0x1BC6 JUMP JUMPDEST SWAP2 POP PUSH2 0x238E DUP3 PUSH2 0x2327 JUMP JUMPDEST PUSH1 0x40 DUP3 ADD SWAP1 POP SWAP2 SWAP1 POP JUMP JUMPDEST PUSH1 0x0 PUSH1 0x20 DUP3 ADD SWAP1 POP DUP2 DUP2 SUB PUSH1 0x0 DUP4 ADD MSTORE PUSH2 0x23B2 DUP2 PUSH2 0x2376 JUMP JUMPDEST SWAP1 POP SWAP2 SWAP1 POP JUMP JUMPDEST PUSH32 0x4552433732313A20696E76616C696420746F6B656E2049440000000000000000 PUSH1 0x0 DUP3 ADD MSTORE POP JUMP JUMPDEST PUSH1 0x0 PUSH2 0x23EF PUSH1 0x18 DUP4 PUSH2 0x1BC6 JUMP JUMPDEST SWAP2 POP PUSH2 0x23FA DUP3 PUSH2 0x23B9 JUMP JUMPDEST PUSH1 0x20 DUP3 ADD SWAP1 POP SWAP2 SWAP1 POP JUMP JUMPDEST PUSH1 0x0 PUSH1 0x20 DUP3 ADD SWAP1 POP DUP2 DUP2 SUB PUSH1 0x0 DUP4 ADD MSTORE PUSH2 0x241E DUP2 PUSH2 0x23E2 JUMP JUMPDEST SWAP1 POP SWAP2 SWAP1 POP JUMP JUMPDEST PUSH32 0x4552433732313A2061646472657373207A65726F206973206E6F742061207661 PUSH1 0x0 DUP3 ADD MSTORE PUSH32 0x6C6964206F776E65720000000000000000000000000000000000000000000000 PUSH1 0x20 DUP3 ADD MSTORE POP JUMP JUMPDEST PUSH1 0x0 PUSH2 0x2481 PUSH1 0x29 DUP4 PUSH2 0x1BC6 JUMP JUMPDEST SWAP2 POP PUSH2 0x248C DUP3 PUSH2 0x2425 JUMP JUMPDEST PUSH1 0x40 DUP3 ADD SWAP1 POP SWAP2 SWAP1 POP JUMP JUMPDEST PUSH1 0x0 PUSH1 0x20 DUP3 ADD SWAP1 POP DUP2 DUP2 SUB PUSH1 0x0 DUP4 ADD MSTORE PUSH2 0x24B0 DUP2 PUSH2 0x2474 JUMP JUMPDEST SWAP1 POP SWAP2 SWAP1 POP JUMP JUMPDEST PUSH32 0x596F7520646F206E6F7420686176652061636365737321000000000000000000 PUSH1 0x0 DUP3 ADD MSTORE POP JUMP JUMPDEST PUSH1 0x0 PUSH2 0x24ED PUSH1 0x17 DUP4 PUSH2 0x1BC6 JUMP JUMPDEST SWAP2 POP PUSH2 0x24F8 DUP3 PUSH2 0x24B7 JUMP JUMPDEST PUSH1 0x20 DUP3 ADD SWAP1 POP SWAP2 SWAP1 POP JUMP JUMPDEST PUSH1 0x0 PUSH1 0x20 DUP3 ADD SWAP1 POP DUP2 DUP2 SUB PUSH1 0x0 DUP4 ADD MSTORE PUSH2 0x251C DUP2 PUSH2 0x24E0 JUMP JUMPDEST SWAP1 POP SWAP2 SWAP1 POP JUMP JUMPDEST PUSH32 0x54686572652063616E206265206F6E6C79203330204E46547320696E20612054 PUSH1 0x0 DUP3 ADD MSTORE PUSH32 0x72656520436F6C6C656374696F6E210000000000000000000000000000000000 PUSH1 0x20 DUP3 ADD MSTORE POP JUMP JUMPDEST PUSH1 0x0 PUSH2 0x257F PUSH1 0x2F DUP4 PUSH2 0x1BC6 JUMP JUMPDEST SWAP2 POP PUSH2 0x258A DUP3 PUSH2 0x2523 JUMP JUMPDEST PUSH1 0x40 DUP3 ADD SWAP1 POP SWAP2 SWAP1 POP JUMP JUMPDEST PUSH1 0x0 PUSH1 0x20 DUP3 ADD SWAP1 POP DUP2 DUP2 SUB PUSH1 0x0 DUP4 ADD MSTORE PUSH2 0x25AE DUP2 PUSH2 0x2572 JUMP JUMPDEST SWAP1 POP SWAP2 SWAP1 POP JUMP JUMPDEST PUSH32 0x4552433732313A207472616E736665722066726F6D20696E636F727265637420 PUSH1 0x0 DUP3 ADD MSTORE PUSH32 0x6F776E6572000000000000000000000000000000000000000000000000000000 PUSH1 0x20 DUP3 ADD MSTORE POP JUMP JUMPDEST PUSH1 0x0 PUSH2 0x2611 PUSH1 0x25 DUP4 PUSH2 0x1BC6 JUMP JUMPDEST SWAP2 POP PUSH2 0x261C DUP3 PUSH2 0x25B5 JUMP JUMPDEST PUSH1 0x40 DUP3 ADD SWAP1 POP SWAP2 SWAP1 POP JUMP JUMPDEST PUSH1 0x0 PUSH1 0x20 DUP3 ADD SWAP1 POP DUP2 DUP2 SUB PUSH1 0x0 DUP4 ADD MSTORE PUSH2 0x2640 DUP2 PUSH2 0x2604 JUMP JUMPDEST SWAP1 POP SWAP2 SWAP1 POP JUMP JUMPDEST PUSH32 0x4552433732313A207472616E7366657220746F20746865207A65726F20616464 PUSH1 0x0 DUP3 ADD MSTORE PUSH32 0x7265737300000000000000000000000000000000000000000000000000000000 PUSH1 0x20 DUP3 ADD MSTORE POP JUMP JUMPDEST PUSH1 0x0 PUSH2 0x26A3 PUSH1 0x24 DUP4 PUSH2 0x1BC6 JUMP JUMPDEST SWAP2 POP PUSH2 0x26AE DUP3 PUSH2 0x2647 JUMP JUMPDEST PUSH1 0x40 DUP3 ADD SWAP1 POP SWAP2 SWAP1 POP JUMP JUMPDEST PUSH1 0x0 PUSH1 0x20 DUP3 ADD SWAP1 POP DUP2 DUP2 SUB PUSH1 0x0 DUP4 ADD MSTORE PUSH2 0x26D2 DUP2 PUSH2 0x2696 JUMP JUMPDEST SWAP1 POP SWAP2 SWAP1 POP JUMP JUMPDEST PUSH32 0x4552433732313A20617070726F766520746F2063616C6C657200000000000000 PUSH1 0x0 DUP3 ADD MSTORE POP JUMP JUMPDEST PUSH1 0x0 PUSH2 0x270F PUSH1 0x19 DUP4 PUSH2 0x1BC6 JUMP JUMPDEST SWAP2 POP PUSH2 0x271A DUP3 PUSH2 0x26D9 JUMP JUMPDEST PUSH1 0x20 DUP3 ADD SWAP1 POP SWAP2 SWAP1 POP JUMP JUMPDEST PUSH1 0x0 PUSH1 0x20 DUP3 ADD SWAP1 POP DUP2 DUP2 SUB PUSH1 0x0 DUP4 ADD MSTORE PUSH2 0x273E DUP2 PUSH2 0x2702 JUMP JUMPDEST SWAP1 POP SWAP2 SWAP1 POP JUMP JUMPDEST PUSH32 0x4552433732313A207472616E7366657220746F206E6F6E204552433732315265 PUSH1 0x0 DUP3 ADD MSTORE PUSH32 0x63656976657220696D706C656D656E7465720000000000000000000000000000 PUSH1 0x20 DUP3 ADD MSTORE POP JUMP JUMPDEST PUSH1 0x0 PUSH2 0x27A1 PUSH1 0x32 DUP4 PUSH2 0x1BC6 JUMP JUMPDEST SWAP2 POP PUSH2 0x27AC DUP3 PUSH2 0x2745 JUMP JUMPDEST PUSH1 0x40 DUP3 ADD SWAP1 POP SWAP2 SWAP1 POP JUMP JUMPDEST PUSH1 0x0 PUSH1 0x20 DUP3 ADD SWAP1 POP DUP2 DUP2 SUB PUSH1 0x0 DUP4 ADD MSTORE PUSH2 0x27D0 DUP2 PUSH2 0x2794 JUMP JUMPDEST SWAP1 POP SWAP2 SWAP1 POP JUMP JUMPDEST PUSH1 0x0 DUP2 SWAP1 POP SWAP3 SWAP2 POP POP JUMP JUMPDEST PUSH1 0x0 PUSH2 0x27ED DUP3 PUSH2 0x1BBB JUMP JUMPDEST PUSH2 0x27F7 DUP2 DUP6 PUSH2 0x27D7 JUMP JUMPDEST SWAP4 POP PUSH2 0x2807 DUP2 DUP6 PUSH1 0x20 DUP7 ADD PUSH2 0x1BD7 JUMP JUMPDEST DUP1 DUP5 ADD SWAP2 POP POP SWAP3 SWAP2 POP POP JUMP JUMPDEST PUSH1 0x0 PUSH2 0x281F DUP3 DUP6 PUSH2 0x27E2 JUMP JUMPDEST SWAP2 POP PUSH2 0x282B DUP3 DUP5 PUSH2 0x27E2 JUMP JUMPDEST SWAP2 POP DUP2 SWAP1 POP SWAP4 SWAP3 POP POP POP JUMP JUMPDEST PUSH32 0x45524337323155524953746F726167653A2055524920736574206F66206E6F6E PUSH1 0x0 DUP3 ADD MSTORE PUSH32 0x6578697374656E7420746F6B656E000000000000000000000000000000000000 PUSH1 0x20 DUP3 ADD MSTORE POP JUMP JUMPDEST PUSH1 0x0 PUSH2 0x2893 PUSH1 0x2E DUP4 PUSH2 0x1BC6 JUMP JUMPDEST SWAP2 POP PUSH2 0x289E DUP3 PUSH2 0x2837 JUMP JUMPDEST PUSH1 0x40 DUP3 ADD SWAP1 POP SWAP2 SWAP1 POP JUMP JUMPDEST PUSH1 0x0 PUSH1 0x20 DUP3 ADD SWAP1 POP DUP2 DUP2 SUB PUSH1 0x0 DUP4 ADD MSTORE PUSH2 0x28C2 DUP2 PUSH2 0x2886 JUMP JUMPDEST SWAP1 POP SWAP2 SWAP1 POP JUMP JUMPDEST PUSH1 0x0 DUP2 SWAP1 POP DUP2 PUSH1 0x0 MSTORE PUSH1 0x20 PUSH1 0x0 KECCAK256 SWAP1 POP SWAP2 SWAP1 POP JUMP JUMPDEST PUSH1 0x0 PUSH1 0x20 PUSH1 0x1F DUP4 ADD DIV SWAP1 POP SWAP2 SWAP1 POP JUMP JUMPDEST PUSH1 0x0 DUP3 DUP3 SHL SWAP1 POP SWAP3 SWAP2 POP POP JUMP JUMPDEST PUSH1 0x0 PUSH1 0x8 DUP4 MUL PUSH2 0x292B PUSH32 0xFFFFFFFFFFFFFFFFFFFFFFFFFFFFFFFFFFFFFFFFFFFFFFFFFFFFFFFFFFFFFFFF DUP3 PUSH2 0x28EE JUMP JUMPDEST PUSH2 0x2935 DUP7 DUP4 PUSH2 0x28EE JUMP JUMPDEST SWAP6 POP DUP1 NOT DUP5 AND SWAP4 POP DUP1 DUP7 AND DUP5 OR SWAP3 POP POP POP SWAP4 SWAP3 POP POP POP JUMP JUMPDEST PUSH1 0x0 DUP2 SWAP1 POP SWAP2 SWAP1 POP JUMP JUMPDEST PUSH1 0x0 PUSH2 0x2972 PUSH2 0x296D PUSH2 0x2968 DUP5 PUSH2 0x1C6D JUMP JUMPDEST PUSH2 0x294D JUMP JUMPDEST PUSH2 0x1C6D JUMP JUMPDEST SWAP1 POP SWAP2 SWAP1 POP JUMP JUMPDEST PUSH1 0x0 DUP2 SWAP1 POP SWAP2 SWAP1 POP JUMP JUMPDEST PUSH2 0x298C DUP4 PUSH2 0x2957 JUMP JUMPDEST PUSH2 0x29A0 PUSH2 0x2998 DUP3 PUSH2 0x2979 JUMP JUMPDEST DUP5 DUP5 SLOAD PUSH2 0x28FB JUMP JUMPDEST DUP3 SSTORE POP POP POP POP JUMP JUMPDEST PUSH1 0x0 SWAP1 JUMP JUMPDEST PUSH2 0x29B5 PUSH2 0x29A8 JUMP JUMPDEST PUSH2 0x29C0 DUP2 DUP5 DUP5 PUSH2 0x2983 JUMP JUMPDEST POP POP POP JUMP JUMPDEST JUMPDEST DUP2 DUP2 LT ISZERO PUSH2 0x29E4 JUMPI PUSH2 0x29D9 PUSH1 0x0 DUP3 PUSH2 0x29AD JUMP JUMPDEST PUSH1 0x1 DUP2 ADD SWAP1 POP PUSH2 0x29C6 JUMP JUMPDEST POP POP JUMP JUMPDEST PUSH1 0x1F DUP3 GT ISZERO PUSH2 0x2A29 JUMPI PUSH2 0x29FA DUP2 PUSH2 0x28C9 JUMP JUMPDEST PUSH2 0x2A03 DUP5 PUSH2 0x28DE JUMP JUMPDEST DUP2 ADD PUSH1 0x20 DUP6 LT ISZERO PUSH2 0x2A12 JUMPI DUP2 SWAP1 POP JUMPDEST PUSH2 0x2A26 PUSH2 0x2A1E DUP6 PUSH2 0x28DE JUMP JUMPDEST DUP4 ADD DUP3 PUSH2 0x29C5 JUMP JUMPDEST POP POP JUMPDEST POP POP POP JUMP JUMPDEST PUSH1 0x0 DUP3 DUP3 SHR SWAP1 POP SWAP3 SWAP2 POP POP JUMP JUMPDEST PUSH1 0x0 PUSH2 0x2A4C PUSH1 0x0 NOT DUP5 PUSH1 0x8 MUL PUSH2 0x2A2E JUMP JUMPDEST NOT DUP1 DUP4 AND SWAP2 POP POP SWAP3 SWAP2 POP POP JUMP JUMPDEST PUSH1 0x0 PUSH2 0x2A65 DUP4 DUP4 PUSH2 0x2A3B JUMP JUMPDEST SWAP2 POP DUP3 PUSH1 0x2 MUL DUP3 OR SWAP1 POP SWAP3 SWAP2 POP POP JUMP JUMPDEST PUSH2 0x2A7E DUP3 PUSH2 0x1BBB JUMP JUMPDEST PUSH8 0xFFFFFFFFFFFFFFFF DUP2 GT ISZERO PUSH2 0x2A97 JUMPI PUSH2 0x2A96 PUSH2 0x1EB8 JUMP JUMPDEST JUMPDEST PUSH2 0x2AA1 DUP3 SLOAD PUSH2 0x21D2 JUMP JUMPDEST PUSH2 0x2AAC DUP3 DUP3 DUP6 PUSH2 0x29E8 JUMP JUMPDEST PUSH1 0x0 PUSH1 0x20 SWAP1 POP PUSH1 0x1F DUP4 GT PUSH1 0x1 DUP2 EQ PUSH2 0x2ADF JUMPI PUSH1 0x0 DUP5 ISZERO PUSH2 0x2ACD JUMPI DUP3 DUP8 ADD MLOAD SWAP1 POP JUMPDEST PUSH2 0x2AD7 DUP6 DUP3 PUSH2 0x2A59 JUMP JUMPDEST DUP7 SSTORE POP PUSH2 0x2B3F JUMP JUMPDEST PUSH1 0x1F NOT DUP5 AND PUSH2 0x2AED DUP7 PUSH2 0x28C9 JUMP JUMPDEST PUSH1 0x0 JUMPDEST DUP3 DUP2 LT ISZERO PUSH2 0x2B15 JUMPI DUP5 DUP10 ADD MLOAD DUP3 SSTORE PUSH1 0x1 DUP3 ADD SWAP2 POP PUSH1 0x20 DUP6 ADD SWAP5 POP PUSH1 0x20 DUP2 ADD SWAP1 POP PUSH2 0x2AF0 JUMP JUMPDEST DUP7 DUP4 LT ISZERO PUSH2 0x2B32 JUMPI DUP5 DUP10 ADD MLOAD PUSH2 0x2B2E PUSH1 0x1F DUP10 AND DUP3 PUSH2 0x2A3B JUMP JUMPDEST DUP4 SSTORE POP JUMPDEST PUSH1 0x1 PUSH1 0x2 DUP9 MUL ADD DUP9 SSTORE POP POP POP JUMPDEST POP POP POP POP POP POP JUMP JUMPDEST PUSH1 0x0 DUP2 MLOAD SWAP1 POP SWAP2 SWAP1 POP JUMP JUMPDEST PUSH1 0x0 DUP3 DUP3 MSTORE PUSH1 0x20 DUP3 ADD SWAP1 POP SWAP3 SWAP2 POP POP JUMP JUMPDEST PUSH1 0x0 PUSH2 0x2B6E DUP3 PUSH2 0x2B47 JUMP JUMPDEST PUSH2 0x2B78 DUP2 DUP6 PUSH2 0x2B52 JUMP JUMPDEST SWAP4 POP PUSH2 0x2B88 DUP2 DUP6 PUSH1 0x20 DUP7 ADD PUSH2 0x1BD7 JUMP JUMPDEST PUSH2 0x2B91 DUP2 PUSH2 0x1C01 JUMP JUMPDEST DUP5 ADD SWAP2 POP POP SWAP3 SWAP2 POP POP JUMP JUMPDEST PUSH1 0x0 PUSH1 0x80 DUP3 ADD SWAP1 POP PUSH2 0x2BB1 PUSH1 0x0 DUP4 ADD DUP8 PUSH2 0x1D02 JUMP JUMPDEST PUSH2 0x2BBE PUSH1 0x20 DUP4 ADD DUP7 PUSH2 0x1D02 JUMP JUMPDEST PUSH2 0x2BCB PUSH1 0x40 DUP4 ADD DUP6 PUSH2 0x1E18 JUMP JUMPDEST DUP2 DUP2 SUB PUSH1 0x60 DUP4 ADD MSTORE PUSH2 0x2BDD DUP2 DUP5 PUSH2 0x2B63 JUMP JUMPDEST SWAP1 POP SWAP6 SWAP5 POP POP POP POP POP JUMP JUMPDEST PUSH1 0x0 DUP2 MLOAD SWAP1 POP PUSH2 0x2BF7 DUP2 PUSH2 0x1B2C JUMP JUMPDEST SWAP3 SWAP2 POP POP JUMP JUMPDEST PUSH1 0x0 PUSH1 0x20 DUP3 DUP5 SUB SLT ISZERO PUSH2 0x2C13 JUMPI PUSH2 0x2C12 PUSH2 0x1AF6 JUMP JUMPDEST JUMPDEST PUSH1 0x0 PUSH2 0x2C21 DUP5 DUP3 DUP6 ADD PUSH2 0x2BE8 JUMP JUMPDEST SWAP2 POP POP SWAP3 SWAP2 POP POP JUMP JUMPDEST PUSH32 0x4E487B7100000000000000000000000000000000000000000000000000000000 PUSH1 0x0 MSTORE PUSH1 0x12 PUSH1 0x4 MSTORE PUSH1 0x24 PUSH1 0x0 REVERT JUMPDEST PUSH32 0x4552433732313A206D696E7420746F20746865207A65726F2061646472657373 PUSH1 0x0 DUP3 ADD MSTORE POP JUMP JUMPDEST PUSH1 0x0 PUSH2 0x2C8F PUSH1 0x20 DUP4 PUSH2 0x1BC6 JUMP JUMPDEST SWAP2 POP PUSH2 0x2C9A DUP3 PUSH2 0x2C59 JUMP JUMPDEST PUSH1 0x20 DUP3 ADD SWAP1 POP SWAP2 SWAP1 POP JUMP JUMPDEST PUSH1 0x0 PUSH1 0x20 DUP3 ADD SWAP1 POP DUP2 DUP2 SUB PUSH1 0x0 DUP4 ADD MSTORE PUSH2 0x2CBE DUP2 PUSH2 0x2C82 JUMP JUMPDEST SWAP1 POP SWAP2 SWAP1 POP JUMP JUMPDEST PUSH32 0x4552433732313A20746F6B656E20616C7265616479206D696E74656400000000 PUSH1 0x0 DUP3 ADD MSTORE POP JUMP JUMPDEST PUSH1 0x0 PUSH2 0x2CFB PUSH1 0x1C DUP4 PUSH2 0x1BC6 JUMP JUMPDEST SWAP2 POP PUSH2 0x2D06 DUP3 PUSH2 0x2CC5 JUMP JUMPDEST PUSH1 0x20 DUP3 ADD SWAP1 POP SWAP2 SWAP1 POP JUMP JUMPDEST PUSH1 0x0 PUSH1 0x20 DUP3 ADD SWAP1 POP DUP2 DUP2 SUB PUSH1 0x0 DUP4 ADD MSTORE PUSH2 0x2D2A DUP2 PUSH2 0x2CEE JUMP JUMPDEST SWAP1 POP SWAP2 SWAP1 POP JUMP INVALID LOG2 PUSH5 0x6970667358 0x22 SLT KECCAK256 0xDB DUP9 PUSH28 0xFA8AD700408D72BF753DE162F50F085A15359FCED96DF368507EBDBC 0x2D PUSH5 0x736F6C6343 STOP ADDMOD SLT STOP CALLER LOG2 PUSH5 0x6970667358 0x22 SLT KECCAK256 0xC4 PUSH20 0xA741935AE389FFC3853B69F75E1AF0868A3C9AEC 0xAD SWAP13 0x28 0x22 PUSH20 0x9E3FD5183064736F6C6343000812003300000000 "
	},
	"Assembly": ".code\n  PUSH C0\t\t\tcontract Genesis is ERC20 {\\r\\...\n  PUSH 40\t\t\tcontract Genesis is ERC20 {\\r\\...\n  MSTORE \t\t\tcontract Genesis is ERC20 {\\r\\...\n  CALLVALUE \t\t\tconstructor(address _token) ER...\n  DUP1 \t\t\tconstructor(address _token) ER...\n  ISZERO \t\t\tconstructor(address _token) ER...\n  PUSH [tag] 1\t\t\tconstructor(address _token) ER...\n  JUMPI \t\t\tconstructor(address _token) ER...\n  PUSH 0\t\t\tconstructor(address _token) ER...\n  DUP1 \t\t\tconstructor(address _token) ER...\n  REVERT \t\t\tconstructor(address _token) ER...\ntag 1\t\t\tconstructor(address _token) ER...\n  JUMPDEST \t\t\tconstructor(address _token) ER...\n  POP \t\t\tconstructor(address _token) ER...\n  PUSH 40\t\t\tconstructor(address _token) ER...\n  MLOAD \t\t\tconstructor(address _token) ER...\n  PUSHSIZE \t\t\tconstructor(address _token) ER...\n  CODESIZE \t\t\tconstructor(address _token) ER...\n  SUB \t\t\tconstructor(address _token) ER...\n  DUP1 \t\t\tconstructor(address _token) ER...\n  PUSHSIZE \t\t\tconstructor(address _token) ER...\n  DUP4 \t\t\tconstructor(address _token) ER...\n  CODECOPY \t\t\tconstructor(address _token) ER...\n  DUP2 \t\t\tconstructor(address _token) ER...\n  DUP2 \t\t\tconstructor(address _token) ER...\n  ADD \t\t\tconstructor(address _token) ER...\n  PUSH 40\t\t\tconstructor(address _token) ER...\n  MSTORE \t\t\tconstructor(address _token) ER...\n  DUP2 \t\t\tconstructor(address _token) ER...\n  ADD \t\t\tconstructor(address _token) ER...\n  SWAP1 \t\t\tconstructor(address _token) ER...\n  PUSH [tag] 2\t\t\tconstructor(address _token) ER...\n  SWAP2 \t\t\tconstructor(address _token) ER...\n  SWAP1 \t\t\tconstructor(address _token) ER...\n  PUSH [tag] 3\t\t\tconstructor(address _token) ER...\n  JUMP \t\t\tconstructor(address _token) ER...\ntag 2\t\t\tconstructor(address _token) ER...\n  JUMPDEST \t\t\tconstructor(address _token) ER...\n  PUSH 40\t\t\tlection.tokenIdCounter();\\r\\n ...\n  MLOAD \t\t\tlection.tokenIdCounter();\\r\\n ...\n  DUP1 \t\t\tlection.tokenIdCounter();\\r\\n ...\n  PUSH 40\t\t\tlection.tokenIdCounter();\\r\\n ...\n  ADD \t\t\tlection.tokenIdCounter();\\r\\n ...\n  PUSH 40\t\t\tlection.tokenIdCounter();\\r\\n ...\n  MSTORE \t\t\tlection.tokenIdCounter();\\r\\n ...\n  DUP1 \t\t\tlection.tokenIdCounter();\\r\\n ...\n  PUSH 7\t\t\tlection.tokenIdCounter();\\r\\n ...\n  DUP2 \t\t\tlection.tokenIdCounter();\\r\\n ...\n  MSTORE \t\t\tlection.tokenIdCounter();\\r\\n ...\n  PUSH 20\t\t\tlection.tokenIdCounter();\\r\\n ...\n  ADD \t\t\tlection.tokenIdCounter();\\r\\n ...\n  PUSH 47656E6573697300000000000000000000000000000000000000000000000000\t\t\tlection.tokenIdCounter();\\r\\n ...\n  DUP2 \t\t\tlection.tokenIdCounter();\\r\\n ...\n  MSTORE \t\t\tlection.tokenIdCounter();\\r\\n ...\n  POP \t\t\tlection.tokenIdCounter();\\r\\n ...\n  PUSH 40\t\t\tlection.tokenIdCounter();\\r\\n ...\n  MLOAD \t\t\tlection.tokenIdCounter();\\r\\n ...\n  DUP1 \t\t\tlection.tokenIdCounter();\\r\\n ...\n  PUSH 40\t\t\tlection.tokenIdCounter();\\r\\n ...\n  ADD \t\t\tlection.tokenIdCounter();\\r\\n ...\n  PUSH 40\t\t\tlection.tokenIdCounter();\\r\\n ...\n  MSTORE \t\t\tlection.tokenIdCounter();\\r\\n ...\n  DUP1 \t\t\tlection.tokenIdCounter();\\r\\n ...\n  PUSH 3\t\t\tlection.tokenIdCounter();\\r\\n ...\n  DUP2 \t\t\tlection.tokenIdCounter();\\r\\n ...\n  MSTORE \t\t\tlection.tokenIdCounter();\\r\\n ...\n  PUSH 20\t\t\tlection.tokenIdCounter();\\r\\n ...\n  ADD \t\t\tlection.tokenIdCounter();\\r\\n ...\n  PUSH 474E450000000000000000000000000000000000000000000000000000000000\t\t\tlection.tokenIdCounter();\\r\\n ...\n  DUP2 \t\t\tlection.tokenIdCounter();\\r\\n ...\n  MSTORE \t\t\tlection.tokenIdCounter();\\r\\n ...\n  POP \t\t\tlection.tokenIdCounter();\\r\\n ...\n  DUP2 \t\t\tnID] \n  PUSH 3\t\t\tils[t\n  SWAP1 \t\t\tils[tokenID] \n  DUP2 \t\t\tils[tokenID] \n  PUSH [tag] 7\t\t\tils[tokenID] \n  SWAP2 \t\t\tils[tokenID] \n  SWAP1 \t\t\tils[tokenID] \n  PUSH [tag] 8\t\t\tils[tokenID] \n  JUMP \t\t\tils[tokenID] \ntag 7\t\t\tils[tokenID] \n  JUMPDEST \t\t\tils[tokenID] \n  POP \t\t\tils[tokenID] \n  DUP1 \t\t\t0, 0);\\r\n  PUSH 4\t\t\tils(0, \n  SWAP1 \t\t\tils(0, 0, 0, 0);\\r\n  DUP2 \t\t\tils(0, 0, 0, 0);\\r\n  PUSH [tag] 9\t\t\tils(0, 0, 0, 0);\\r\n  SWAP2 \t\t\tils(0, 0, 0, 0);\\r\n  SWAP1 \t\t\tils(0, 0, 0, 0);\\r\n  PUSH [tag] 8\t\t\tils(0, 0, 0, 0);\\r\n  JUMP \t\t\tils(0, 0, 0, 0);\\r\ntag 9\t\t\tils(0, 0, 0, 0);\\r\n  JUMPDEST \t\t\tils(0, 0, 0, 0);\\r\n  POP \t\t\tils(0, 0, 0, 0);\\r\n  POP \t\t\tlection.tokenIdCounter();\\r\\n ...\n  POP \t\t\tlection.tokenIdCounter();\\r\\n ...\n  CALLER \t\t\tmsg.sender\n  PUSH FFFFFFFFFFFFFFFFFFFFFFFFFFFFFFFFFFFFFFFF\t\t\tadmin = msg.sender\n  AND \t\t\tadmin = msg.sender\n  PUSH A0\t\t\tadmin = msg.sender\n  DUP2 \t\t\tadmin = msg.sender\n  PUSH FFFFFFFFFFFFFFFFFFFFFFFFFFFFFFFFFFFFFFFF\t\t\tadmin = msg.sender\n  AND \t\t\tadmin = msg.sender\n  DUP2 \t\t\tadmin = msg.sender\n  MSTORE \t\t\tadmin = msg.sender\n  POP \t\t\tadmin = msg.sender\n  POP \t\t\tadmin = msg.sender\n  DUP1 \t\t\t_token\n  PUSH FFFFFFFFFFFFFFFFFFFFFFFFFFFFFFFFFFFFFFFF\t\t\tSTNEAR = ERC20(_token)\n  AND \t\t\tSTNEAR = ERC20(_token)\n  PUSH 80\t\t\tSTNEAR = ERC20(_token)\n  DUP2 \t\t\tSTNEAR = ERC20(_token)\n  PUSH FFFFFFFFFFFFFFFFFFFFFFFFFFFFFFFFFFFFFFFF\t\t\tSTNEAR = ERC20(_token)\n  AND \t\t\tSTNEAR = ERC20(_token)\n  DUP2 \t\t\tSTNEAR = ERC20(_token)\n  MSTORE \t\t\tSTNEAR = ERC20(_token)\n  POP \t\t\tSTNEAR = ERC20(_token)\n  POP \t\t\tSTNEAR = ERC20(_token)\n  POP \t\t\tconstructor(address _token) ER...\n  PUSH [tag] 11\t\t\tcontract Genesis is ERC20 {\\r\\...\n  JUMP \t\t\tcontract Genesis is ERC20 {\\r\\...\ntag 13\t\t\tcts/token/ERC20/ERC20.sol\";\\r\\...\n  JUMPDEST \t\t\tcts/token/ERC20/ERC20.sol\";\\r\\...\n  PUSH 0\t\t\te\n  DUP1 \t\t\tu\n  REVERT \t\t\tsing Counter\ntag 15\t\t\t;\\r\\n\\r\\n    constructor(addre...\n  JUMPDEST \t\t\t;\\r\\n\\r\\n    constructor(addre...\n  PUSH 0\t\t\tERC20(\"\n  PUSH FFFFFFFFFFFFFFFFFFFFFFFFFFFFFFFFFFFFFFFF\t\t\t= msg.sender;\\r\\n        STNEA...\n  DUP3 \t\t\t admi\n  AND \t\t\t     admin = msg.sender;\\r\\n  ...\n  SWAP1 \t\t\tGNE\"){\\r\\n        admin = msg....\n  POP \t\t\tGNE\"){\\r\\n        admin = msg....\n  SWAP2 \t\t\t;\\r\\n\\r\\n    constructor(addre...\n  SWAP1 \t\t\t;\\r\\n\\r\\n    constructor(addre...\n  POP \t\t\t;\\r\\n\\r\\n    constructor(addre...\n  JUMP \t\t\t;\\r\\n\\r\\n    constructor(addre...\ntag 16\t\t\t\\r\\n    function mint(address ...\n  JUMPDEST \t\t\t\\r\\n    function mint(address ...\n  PUSH 0\t\t\t56 amou\n  PUSH [tag] 45\t\t\t _mint(to, amount);\\r\\n   \n  DUP3 \t\t\t;\\r\\n  \n  PUSH [tag] 15\t\t\t _mint(to, amount);\\r\\n   \n  JUMP \t\t\t _mint(to, amount);\\r\\n   \ntag 45\t\t\t _mint(to, amount);\\r\\n   \n  JUMPDEST \t\t\t _mint(to, amount);\\r\\n   \n  SWAP1 \t\t\tl{\\r\\n        _mint(to, amount...\n  POP \t\t\tl{\\r\\n        _mint(to, amount...\n  SWAP2 \t\t\t\\r\\n    function mint(address ...\n  SWAP1 \t\t\t\\r\\n    function mint(address ...\n  POP \t\t\t\\r\\n    function mint(address ...\n  JUMP \t\t\t\\r\\n    function mint(address ...\ntag 17\t\t\truct TreeDetails{\\r\\n        u...\n  JUMPDEST \t\t\truct TreeDetails{\\r\\n        u...\n  PUSH [tag] 47\t\t\tmed;\\r\\n        uint256 wa\n  DUP2 \t\t\t256 w\n  PUSH [tag] 16\t\t\tmed;\\r\\n        uint256 wa\n  JUMP \t\t\tmed;\\r\\n        uint256 wa\ntag 47\t\t\tmed;\\r\\n        uint256 wa\n  JUMPDEST \t\t\tmed;\\r\\n        uint256 wa\n  DUP2 \t\t\tastCl\n  EQ \t\t\t6 lastClaimed;\\r\\n        uint...\n  PUSH [tag] 48\t\t\t    uint256 lastClaimed;\\r\\n  ...\n  JUMPI \t\t\t    uint256 lastClaimed;\\r\\n  ...\n  PUSH 0\t\t\t \n  DUP1 \t\t\t\\n\n  REVERT \t\t\tTimes;\\r\\n    \ntag 48\t\t\t    uint256 lastClaimed;\\r\\n  ...\n  JUMPDEST \t\t\t    uint256 lastClaimed;\\r\\n  ...\n  POP \t\t\truct TreeDetails{\\r\\n        u...\n  JUMP \t\t\truct TreeDetails{\\r\\n        u...\ntag 18\t\t\tkensYielded;\\r\\n    }\\r\\n\\r\\n ...\n  JUMPDEST \t\t\tkensYielded;\\r\\n    }\\r\\n\\r\\n ...\n  PUSH 0\t\t\t    m\n  DUP2 \t\t\tils) t\n  MLOAD \t\t\teeDetails) tr\n  SWAP1 \t\t\t256 => TreeDetails) tr\n  POP \t\t\t256 => TreeDetails) tr\n  PUSH [tag] 50\t\t\t; // mapping to store user det...\n  DUP2 \t\t\tdetai\n  PUSH [tag] 17\t\t\t; // mapping to store user det...\n  JUMP \t\t\t; // mapping to store user det...\ntag 50\t\t\t; // mapping to store user det...\n  JUMPDEST \t\t\t; // mapping to store user det...\n  SWAP3 \t\t\tkensYielded;\\r\\n    }\\r\\n\\r\\n ...\n  SWAP2 \t\t\tkensYielded;\\r\\n    }\\r\\n\\r\\n ...\n  POP \t\t\tkensYielded;\\r\\n    }\\r\\n\\r\\n ...\n  POP \t\t\tkensYielded;\\r\\n    }\\r\\n\\r\\n ...\n  JUMP \t\t\tkensYielded;\\r\\n    }\\r\\n\\r\\n ...\ntag 3\t\t\tokenID\\r\\n    }\\r\\n\\r\\n    map...\n  JUMPDEST \t\t\tokenID\\r\\n    }\\r\\n\\r\\n    map...\n  PUSH 0\t\t\tlectio\n  PUSH 20\t\t\tei\n  DUP3 \t\t\ttion with\n  DUP5 \t\t\tof coll\n  SUB \t\t\tord of collection with \n  SLT \t\t\t record of collection with the...\n  ISZERO \t\t\teep record of collection with ...\n  PUSH [tag] 52\t\t\teep record of collection with ...\n  JUMPI \t\t\teep record of collection with ...\n  PUSH [tag] 53\t\t\ts\\r\\n    mapping(TreeCollectio...\n  PUSH [tag] 13\t\t\ts\\r\\n    mapping(TreeCollectio...\n  JUMP \t\t\ts\\r\\n    mapping(TreeCollectio...\ntag 53\t\t\ts\\r\\n    mapping(TreeCollectio...\n  JUMPDEST \t\t\ts\\r\\n    mapping(TreeCollectio...\ntag 52\t\t\teep record of collection with ...\n  JUMPDEST \t\t\teep record of collection with ...\n  PUSH 0\t\t\tg\n  PUSH [tag] 54\t\t\ting) userTree; // mapping of a...\n  DUP5 \t\t\t\\n\\r\\n    \n  DUP3 \t\t\tllecti\n  DUP6 \t\t\twith its \n  ADD \t\t\tree with its collectio\n  PUSH [tag] 18\t\t\ting) userTree; // mapping of a...\n  JUMP \t\t\ting) userTree; // mapping of a...\ntag 54\t\t\ting) userTree; // mapping of a...\n  JUMPDEST \t\t\ting) userTree; // mapping of a...\n  SWAP2 \t\t\terTreeMapping) userTree; // ma...\n  POP \t\t\terTreeMapping) userTree; // ma...\n  POP \t\t\te using their IDs\\r\\n    mappi...\n  SWAP3 \t\t\tokenID\\r\\n    }\\r\\n\\r\\n    map...\n  SWAP2 \t\t\tokenID\\r\\n    }\\r\\n\\r\\n    map...\n  POP \t\t\tokenID\\r\\n    }\\r\\n\\r\\n    map...\n  POP \t\t\tokenID\\r\\n    }\\r\\n\\r\\n    map...\n  JUMP \t\t\tokenID\\r\\n    }\\r\\n\\r\\n    map...\ntag 19\t\t\tection(string memory name, str...\n  JUMPDEST \t\t\tection(string memory name, str...\n  PUSH 0\t\t\tlic {\\r\n  DUP2 \t\t\tr == \n  MLOAD \t\t\t.sender == a\n  SWAP1 \t\t\tequire(msg.sender == a\n  POP \t\t\tequire(msg.sender == a\n  SWAP2 \t\t\tection(string memory name, str...\n  SWAP1 \t\t\tection(string memory name, str...\n  POP \t\t\tection(string memory name, str...\n  JUMP \t\t\tection(string memory name, str...\ntag 20\t\t\t);\\r\\n\\r\\n        TreeCollecti...\n  JUMPDEST \t\t\t);\\r\\n\\r\\n        TreeCollecti...\n  PUSH 4E487B7100000000000000000000000000000000000000000000000000000000\t\t\t\\r\\n        uint256 collection...\n  PUSH 0\t\t\t(\n  MSTORE \t\t\tcrement();\\r\\n        uint256 ...\n  PUSH 41\t\t\tecti\n  PUSH 4\t\t\to\n  MSTORE \t\t\ton newCollectio\n  PUSH 24\t\t\tion(\n  PUSH 0\t\t\te\n  REVERT \t\t\treeCollection(n\ntag 21\t\t\t;\\r\\n        treecollections[c...\n  JUMPDEST \t\t\t;\\r\\n        treecollections[c...\n  PUSH 4E487B7100000000000000000000000000000000000000000000000000000000\t\t\tllection;\\r\\n        Collectio...\n  PUSH 0\t\t\tw\n  MSTORE \t\t\tD] = newCollection;\\r\\n       ...\n  PUSH 22\t\t\tuint\n  PUSH 4\t\t\te\n  MSTORE \t\t\t mintTree(uint2\n  PUSH 24\t\t\tring\n  PUSH 0\t\t\t \n  REVERT \t\t\ttionID, string \ntag 22\t\t\t public {\\r\\n\\r\\n        requi...\n  JUMPDEST \t\t\t public {\\r\\n\\r\\n        requi...\n  PUSH 0\t\t\tFrom(m\n  PUSH 2\t\t\t0\n  DUP3 \t\t\t 5 *\n  DIV \t\t\tis), 5 * 10 \n  SWAP1 \t\t\taddress(this), 5 * 10 \n  POP \t\t\taddress(this), 5 * 10 \n  PUSH 1\t\t\t \n  DUP3 \t\t\t \\r\\n\\r\n  AND \t\t\td\"); \\r\\n\\r\\n   \n  DUP1 \t\t\t treecollection = \n  PUSH [tag] 59\t\t\tCollection treecollection = Tr...\n  JUMPI \t\t\tCollection treecollection = Tr...\n  PUSH 7F\t\t\tionI\n  DUP3 \t\t\t[colle\n  AND \t\t\tions[collectionID\n  SWAP2 \t\t\treecollections[collectionID\n  POP \t\t\treecollections[collectionID\ntag 59\t\t\tCollection treecollection = Tr...\n  JUMPDEST \t\t\tCollection treecollection = Tr...\n  PUSH 20\t\t\t\\n \n  DUP3 \t\t\t_uri);\n  LT \t\t\tr, _uri); \\r\\n  \n  DUP2 \t\t\tn.safeMint(msg.sen\n  SUB \t\t\ttion.safeMint(msg.sender, _uri...\n  PUSH [tag] 60\t\t\tlection.safeMint(msg.sender, _...\n  JUMPI \t\t\tlection.safeMint(msg.sender, _...\n  PUSH [tag] 61\t\t\tkenID = treecollec\n  PUSH [tag] 21\t\t\tkenID = treecollec\n  JUMP \t\t\tkenID = treecollec\ntag 61\t\t\tkenID = treecollec\n  JUMPDEST \t\t\tkenID = treecollec\ntag 60\t\t\tlection.safeMint(msg.sender, _...\n  JUMPDEST \t\t\tlection.safeMint(msg.sender, _...\n  POP \t\t\tg.sender, address(this), 5 * 1...\n  SWAP2 \t\t\t public {\\r\\n\\r\\n        requi...\n  SWAP1 \t\t\t public {\\r\\n\\r\\n        requi...\n  POP \t\t\t public {\\r\\n\\r\\n        requi...\n  JUMP \t\t\t public {\\r\\n\\r\\n        requi...\ntag 23\t\t\t\\r\\n        userTree[collectio...\n  JUMPDEST \t\t\t\\r\\n        userTree[collectio...\n  PUSH 0\t\t\tnID]\n  DUP2 \t\t\t, 0\n  SWAP1 \t\t\tils(0, 0, 0\n  POP \t\t\tils(0, 0, 0\n  DUP2 \t\t\tfun\n  PUSH 0\t\t\t \n  MSTORE \t\t\t }\\r\\n\\r\\n    func\n  PUSH 20\t\t\tID, \n  PUSH 0\t\t\ti\n  KECCAK256 \t\t\t6 _collectionID, u\n  SWAP1 \t\t\tr(uint256 _collectionID, u\n  POP \t\t\tr(uint256 _collectionID, u\n  SWAP2 \t\t\t\\r\\n        userTree[collectio...\n  SWAP1 \t\t\t\\r\\n        userTree[collectio...\n  POP \t\t\t\\r\\n        userTree[collectio...\n  JUMP \t\t\t\\r\\n        userTree[collectio...\ntag 24\t\t\tID) public returns(bool) {\\r\\n...\n  JUMPDEST \t\t\tID) public returns(bool) {\\r\\n...\n  PUSH 0\t\t\t TreeC\n  PUSH 20\t\t\t(t\n  PUSH 1F\t\t\tct\n  DUP4 \t\t\teeCol\n  ADD \t\t\t= TreeCollecti\n  DIV \t\t\tion = TreeCollection(tr\n  SWAP1 \t\t\treecollection = TreeCollection...\n  POP \t\t\treecollection = TreeCollection...\n  SWAP2 \t\t\tID) public returns(bool) {\\r\\n...\n  SWAP1 \t\t\tID) public returns(bool) {\\r\\n...\n  POP \t\t\tID) public returns(bool) {\\r\\n...\n  JUMP \t\t\tID) public returns(bool) {\\r\\n...\ntag 25\t\t\ts[_collectionID]);\\r\\n\\r\\n    ...\n  JUMPDEST \t\t\ts[_collectionID]);\\r\\n\\r\\n    ...\n  PUSH 0\t\t\tllection\n  DUP3 \t\t\t not \n  DUP3 \t\t\tou a\n  SHL \t\t\t, \"You are not t\n  SWAP1 \t\t\tokenID) == msg.sender, \"You ar...\n  POP \t\t\tokenID) == msg.sender, \"You ar...\n  SWAP3 \t\t\ts[_collectionID]);\\r\\n\\r\\n    ...\n  SWAP2 \t\t\ts[_collectionID]);\\r\\n\\r\\n    ...\n  POP \t\t\ts[_collectionID]);\\r\\n\\r\\n    ...\n  POP \t\t\ts[_collectionID]);\\r\\n\\r\\n    ...\n  JUMP \t\t\ts[_collectionID]);\\r\\n\\r\\n    ...\ntag 26\t\t\t\\r\\n        require(STNEAR.tra...\n  JUMPDEST \t\t\t\\r\\n        require(STNEAR.tra...\n  PUSH 0\t\t\t10 ** \n  PUSH 8\t\t\t \n  DUP4 \t\t\td\"); \\r\\n\\r\\n \n  MUL \t\t\tailed\"); \\r\\n\\r\\n     \n  PUSH [tag] 66\t\t\tonID].treeDetails[_tokenID].la...\n  PUSH FFFFFFFFFFFFFFFFFFFFFFFFFFFFFFFFFFFFFFFFFFFFFFFFFFFFFFFFFFFFFFFF\t\t\tstWatered = block.timestamp;\\r...\n  DUP3 \t\t\ttokenID].\n  PUSH [tag] 25\t\t\tonID].treeDetails[_tokenID].la...\n  JUMP \t\t\tonID].treeDetails[_tokenID].la...\ntag 66\t\t\tonID].treeDetails[_tokenID].la...\n  JUMPDEST \t\t\tonID].treeDetails[_tokenID].la...\n  PUSH [tag] 67\t\t\tredTimes += 1;\\r\\n\\r\\n        ...\n  DUP7 \t\t\trn true;\n  DUP4 \t\t\t       re\n  PUSH [tag] 25\t\t\tredTimes += 1;\\r\\n\\r\\n        ...\n  JUMP \t\t\tredTimes += 1;\\r\\n\\r\\n        ...\ntag 67\t\t\tredTimes += 1;\\r\\n\\r\\n        ...\n  JUMPDEST \t\t\tredTimes += 1;\\r\\n\\r\\n        ...\n  SWAP6 \t\t\tokenID].wateredTimes += 1;\\r\\n...\n  POP \t\t\tokenID].wateredTimes += 1;\\r\\n...\n  DUP1 \t\t\t256 \n  NOT \t\t\tuint256 _\n  DUP5 \t\t\t clai\n  AND \t\t\ttion claim(uint256 _c\n  SWAP4 \t\t\t\\n    function claim(uint256 _...\n  POP \t\t\t\\n    function claim(uint256 _...\n  DUP1 \t\t\tns(b\n  DUP7 \t\t\tblic ret\n  AND \t\t\t) public returns(bo\n  DUP5 \t\t\ttoken\n  OR \t\t\t6 _tokenID) public returns(boo\n  SWAP3 \t\t\tID, uint256 _tokenID) public r...\n  POP \t\t\tID, uint256 _tokenID) public r...\n  POP \t\t\t4), \"STNEAR: transferFrom fail...\n  POP \t\t\t4), \"STNEAR: transferFrom fail...\n  SWAP4 \t\t\t\\r\\n        require(STNEAR.tra...\n  SWAP3 \t\t\t\\r\\n        require(STNEAR.tra...\n  POP \t\t\t\\r\\n        require(STNEAR.tra...\n  POP \t\t\t\\r\\n        require(STNEAR.tra...\n  POP \t\t\t\\r\\n        require(STNEAR.tra...\n  JUMP \t\t\t\\r\\n        require(STNEAR.tra...\ntag 27\t\t\t    TreeCollection treecollect...\n  JUMPDEST \t\t\t    TreeCollection treecollect...\n  PUSH 0\t\t\treeColl\n  DUP2 \t\t\t[_col\n  SWAP1 \t\t\tcollections[_col\n  POP \t\t\tcollections[_col\n  SWAP2 \t\t\t    TreeCollection treecollect...\n  SWAP1 \t\t\t    TreeCollection treecollect...\n  POP \t\t\t    TreeCollection treecollect...\n  JUMP \t\t\t    TreeCollection treecollect...\ntag 28\t\t\t\\r\\n\\r\\n        require(treeco...\n  JUMPDEST \t\t\t\\r\\n\\r\\n        require(treeco...\n  PUSH 0\t\t\tect\n  DUP2 \t\t\tID) =\n  SWAP1 \t\t\t(_tokenID) =\n  POP \t\t\t(_tokenID) =\n  SWAP2 \t\t\t\\r\\n\\r\\n        require(treeco...\n  SWAP1 \t\t\t\\r\\n\\r\\n        require(treeco...\n  POP \t\t\t\\r\\n\\r\\n        require(treeco...\n  JUMP \t\t\t\\r\\n\\r\\n        require(treeco...\ntag 29\t\t\t, \"You are not the owner\");\\r\\...\n  JUMPDEST \t\t\t, \"You are not the owner\");\\r\\...\n  PUSH 0\t\t\tck.timest\n  PUSH [tag] 71\t\t\tonID].treeDetails[_tokenID].la...\n  PUSH [tag] 72\t\t\t_tokenID].lastWatered <= 43200...\n  PUSH [tag] 73\t\t\t.lastWatered <= 43200, \"\n  DUP5 \t\t\t200, \n  PUSH [tag] 27\t\t\t.lastWatered <= 43200, \"\n  JUMP \t\t\t.lastWatered <= 43200, \"\ntag 73\t\t\t.lastWatered <= 43200, \"\n  JUMPDEST \t\t\t.lastWatered <= 43200, \"\n  PUSH [tag] 28\t\t\t_tokenID].lastWatered <= 43200...\n  JUMP \t\t\t_tokenID].lastWatered <= 43200...\ntag 72\t\t\t_tokenID].lastWatered <= 43200...\n  JUMPDEST \t\t\t_tokenID].lastWatered <= 43200...\n  PUSH [tag] 27\t\t\tonID].treeDetails[_tokenID].la...\n  JUMP \t\t\tonID].treeDetails[_tokenID].la...\ntag 71\t\t\tonID].treeDetails[_tokenID].la...\n  JUMPDEST \t\t\tonID].treeDetails[_tokenID].la...\n  SWAP1 \t\t\tree[_collectionID].treeDetails...\n  POP \t\t\tree[_collectionID].treeDetails...\n  SWAP2 \t\t\t, \"You are not the owner\");\\r\\...\n  SWAP1 \t\t\t, \"You are not the owner\");\\r\\...\n  POP \t\t\t, \"You are not the owner\");\\r\\...\n  JUMP \t\t\t, \"You are not the owner\");\\r\\...\ntag 30\t\t\t\\r\\n        require(block.time...\n  JUMPDEST \t\t\t\\r\\n        require(block.time...\n  PUSH 0\t\t\te[_\n  DUP2 \t\t\tDetai\n  SWAP1 \t\t\tD].treeDetai\n  POP \t\t\tD].treeDetai\n  SWAP2 \t\t\t\\r\\n        require(block.time...\n  SWAP1 \t\t\t\\r\\n        require(block.time...\n  POP \t\t\t\\r\\n        require(block.time...\n  JUMP \t\t\t\\r\\n        require(block.time...\ntag 31\t\t\t.lastClaimed > 86400, \"Can't C...\n  JUMPDEST \t\t\t.lastClaimed > 86400, \"Can't C...\n  PUSH [tag] 76\t\t\tlock.timestamp;\\r\\n        use...\n  DUP4 \t\t\tee[_col\n  PUSH [tag] 29\t\t\tlock.timestamp;\\r\\n        use...\n  JUMP \t\t\tlock.timestamp;\\r\\n        use...\ntag 76\t\t\tlock.timestamp;\\r\\n        use...\n  JUMPDEST \t\t\tlock.timestamp;\\r\\n        use...\n  PUSH [tag] 77\t\t\t_tokenID].tokensYielded += 5;\\...\n  PUSH [tag] 78\t\t\tender, 5 * 10 ** 18);\\r\\n\\r\\n ...\n  DUP3 \t\t\t\\n        return \n  PUSH [tag] 30\t\t\tender, 5 * 10 ** 18);\\r\\n\\r\\n ...\n  JUMP \t\t\tender, 5 * 10 ** 18);\\r\\n\\r\\n ...\ntag 78\t\t\tender, 5 * 10 ** 18);\\r\\n\\r\\n ...\n  JUMPDEST \t\t\tender, 5 * 10 ** 18);\\r\\n\\r\\n ...\n  DUP5 \t\t\tnt(msg\n  DUP5 \t\t\t    \n  SLOAD \t\t\t;\\r\\n        \n  PUSH [tag] 26\t\t\t_tokenID].tokensYielded += 5;\\...\n  JUMP \t\t\t_tokenID].tokensYielded += 5;\\...\ntag 77\t\t\t_tokenID].tokensYielded += 5;\\...\n  JUMPDEST \t\t\t_tokenID].tokensYielded += 5;\\...\n  DUP3 \t\t\ttail\n  SSTORE \t\t\t.treeDetails[_tokenID].tokensY...\n  POP \t\t\teDetails[_tokenID].lastClaimed...\n  POP \t\t\t.lastClaimed > 86400, \"Can't C...\n  POP \t\t\t.lastClaimed > 86400, \"Can't C...\n  POP \t\t\t.lastClaimed > 86400, \"Can't C...\n  JUMP \t\t\t.lastClaimed > 86400, \"Can't C...\ntag 32\t\t\t\\n    function getTreeDetails(...\n  JUMPDEST \t\t\t\\n    function getTreeDetails(...\n  PUSH 0\t\t\tonI\n  SWAP1 \t\t\t\\n    function getTreeDetails(...\n  JUMP \t\t\t\\n    function getTreeDetails(...\ntag 33\t\t\t returns(TreeDetails memory) {...\n  JUMPDEST \t\t\t returns(TreeDetails memory) {...\n  PUSH [tag] 81\t\t\tails[tokenId];\\r\\n        //re...\n  PUSH [tag] 32\t\t\tails[tokenId];\\r\\n        //re...\n  JUMP \t\t\tails[tokenId];\\r\\n        //re...\ntag 81\t\t\tails[tokenId];\\r\\n        //re...\n  JUMPDEST \t\t\tails[tokenId];\\r\\n        //re...\n  PUSH [tag] 82\t\t\t related to a particula NFT(Tr...\n  DUP2 \t\t\teturnN\n  DUP5 \t\t\tnction\n  DUP5 \t\t\t    \n  PUSH [tag] 31\t\t\t related to a particula NFT(Tr...\n  JUMP \t\t\t related to a particula NFT(Tr...\ntag 82\t\t\t related to a particula NFT(Tr...\n  JUMPDEST \t\t\t related to a particula NFT(Tr...\n  POP \t\t\tee[collectionId].treeDetails[t...\n  POP \t\t\t returns(TreeDetails memory) {...\n  POP \t\t\t returns(TreeDetails memory) {...\n  JUMP \t\t\t returns(TreeDetails memory) {...\ntag 34\t\t\t56 collectionID) public view r...\n  JUMPDEST \t\t\t56 collectionID) public view r...\ntag 84\t\t\turn (treecollections[collectio...\n  JUMPDEST \t\t\turn (treecollections[collectio...\n  DUP2 \t\t\tons\n  DUP2 \t\t\tollec\n  LT \t\t\teecollections[\n  ISZERO \t\t\turn (treecollections[collectio...\n  PUSH [tag] 86\t\t\turn (treecollections[collectio...\n  JUMPI \t\t\turn (treecollections[collectio...\n  PUSH [tag] 87\t\t\ts NFTs minted in a particular ...\n  PUSH 0\t\t\ti\n  DUP3 \t\t\tcolle\n  PUSH [tag] 33\t\t\ts NFTs minted in a particular ...\n  JUMP \t\t\ts NFTs minted in a particular ...\ntag 87\t\t\ts NFTs minted in a particular ...\n  JUMPDEST \t\t\ts NFTs minted in a particular ...\n  PUSH 1\t\t\tu\n  DUP2 \t\t\tkenId\n  ADD \t\t\t].tokenIdCoun\n  SWAP1 \t\t\tlectionID].tokenIdCoun\n  POP \t\t\tlectionID].tokenIdCoun\n  PUSH [tag] 84\t\t\turn (treecollections[collectio...\n  JUMP \t\t\turn (treecollections[collectio...\ntag 86\t\t\turn (treecollections[collectio...\n  JUMPDEST \t\t\turn (treecollections[collectio...\n  POP \t\t\t56 collectionID) public view r...\n  POP \t\t\t56 collectionID) public view r...\n  JUMP \t\t\t56 collectionID) public view r...\ntag 35\t\t\ton getCollectionID(TreeCollect...\n  JUMPDEST \t\t\ton getCollectionID(TreeCollect...\n  PUSH 1F\t\t\tio\n  DUP3 \t\t\tlle\n  GT \t\t\t Collection\n  ISZERO \t\t\turn CollectionToID[collection]...\n  PUSH [tag] 89\t\t\turn CollectionToID[collection]...\n  JUMPI \t\t\turn CollectionToID[collection]...\n  PUSH [tag] 90\t\t\to get particular collection ID...\n  DUP2 \t\t\tsing \n  PUSH [tag] 23\t\t\to get particular collection ID...\n  JUMP \t\t\to get particular collection ID...\ntag 90\t\t\to get particular collection ID...\n  JUMPDEST \t\t\to get particular collection ID...\n  PUSH [tag] 91\t\t\t\n  DUP5 \t\t\t\n  PUSH [tag] 24\t\t\t\n  JUMP \t\t\t\ntag 91\t\t\t\n  JUMPDEST \t\t\t\n  DUP2 \t\t\t\n  ADD \t\t\t\n  PUSH 20\t\t\t\n  DUP6 \t\t\t\n  LT \t\t\t\n  ISZERO \t\t\t\n  PUSH [tag] 92\t\t\t\n  JUMPI \t\t\t\n  DUP2 \t\t\t\n  SWAP1 \t\t\t\n  POP \t\t\t\ntag 92\t\t\t\n  JUMPDEST \t\t\t\n  PUSH [tag] 93\t\t\t\n  PUSH [tag] 94\t\t\t\n  DUP6 \t\t\t\n  PUSH [tag] 24\t\t\t\n  JUMP \t\t\t\ntag 94\t\t\t\n  JUMPDEST \t\t\t\n  DUP4 \t\t\t\n  ADD \t\t\t\n  DUP3 \t\t\t\n  PUSH [tag] 34\t\t\t\n  JUMP \t\t\t\ntag 93\t\t\t\n  JUMPDEST \t\t\t\n  POP \t\t\toID[collection];\\r\\n        //...\n  POP \t\t\toID[collection];\\r\\n        //...\ntag 89\t\t\turn CollectionToID[collection]...\n  JUMPDEST \t\t\turn CollectionToID[collection]...\n  POP \t\t\ton getCollectionID(TreeCollect...\n  POP \t\t\ton getCollectionID(TreeCollect...\n  POP \t\t\ton getCollectionID(TreeCollect...\n  JUMP \t\t\ton getCollectionID(TreeCollect...\ntag 36\t\t\t\n  JUMPDEST \t\t\t\n  PUSH 0\t\t\t\n  DUP3 \t\t\t\n  DUP3 \t\t\t\n  SHR \t\t\t\n  SWAP1 \t\t\t\n  POP \t\t\t\n  SWAP3 \t\t\t\n  SWAP2 \t\t\t\n  POP \t\t\t\n  POP \t\t\t\n  JUMP \t\t\t\ntag 37\t\t\t\n  JUMPDEST \t\t\t\n  PUSH 0\t\t\t\n  PUSH [tag] 97\t\t\t\n  PUSH 0\t\t\t\n  NOT \t\t\t\n  DUP5 \t\t\t\n  PUSH 8\t\t\t\n  MUL \t\t\t\n  PUSH [tag] 36\t\t\t\n  JUMP \t\t\t\ntag 97\t\t\t\n  JUMPDEST \t\t\t\n  NOT \t\t\t\n  DUP1 \t\t\t\n  DUP4 \t\t\t\n  AND \t\t\t\n  SWAP2 \t\t\t\n  POP \t\t\t\n  POP \t\t\t\n  SWAP3 \t\t\t\n  SWAP2 \t\t\t\n  POP \t\t\t\n  POP \t\t\t\n  JUMP \t\t\t\ntag 38\t\t\t\n  JUMPDEST \t\t\t\n  PUSH 0\t\t\t\n  PUSH [tag] 99\t\t\t\n  DUP4 \t\t\t\n  DUP4 \t\t\t\n  PUSH [tag] 37\t\t\t\n  JUMP \t\t\t\ntag 99\t\t\t\n  JUMPDEST \t\t\t\n  SWAP2 \t\t\t\n  POP \t\t\t\n  DUP3 \t\t\t\n  PUSH 2\t\t\t\n  MUL \t\t\t\n  DUP3 \t\t\t\n  OR \t\t\t\n  SWAP1 \t\t\t\n  POP \t\t\t\n  SWAP3 \t\t\t\n  SWAP2 \t\t\t\n  POP \t\t\t\n  POP \t\t\t\n  JUMP \t\t\t\ntag 8\t\t\t\n  JUMPDEST \t\t\t\n  PUSH [tag] 101\t\t\t\n  DUP3 \t\t\t\n  PUSH [tag] 19\t\t\t\n  JUMP \t\t\t\ntag 101\t\t\t\n  JUMPDEST \t\t\t\n  PUSH FFFFFFFFFFFFFFFF\t\t\t\n  DUP2 \t\t\t\n  GT \t\t\t\n  ISZERO \t\t\t\n  PUSH [tag] 102\t\t\t\n  JUMPI \t\t\t\n  PUSH [tag] 103\t\t\t\n  PUSH [tag] 20\t\t\t\n  JUMP \t\t\t\ntag 103\t\t\t\n  JUMPDEST \t\t\t\ntag 102\t\t\t\n  JUMPDEST \t\t\t\n  PUSH [tag] 104\t\t\t\n  DUP3 \t\t\t\n  SLOAD \t\t\t\n  PUSH [tag] 22\t\t\t\n  JUMP \t\t\t\ntag 104\t\t\t\n  JUMPDEST \t\t\t\n  PUSH [tag] 105\t\t\t\n  DUP3 \t\t\t\n  DUP3 \t\t\t\n  DUP6 \t\t\t\n  PUSH [tag] 35\t\t\t\n  JUMP \t\t\t\ntag 105\t\t\t\n  JUMPDEST \t\t\t\n  PUSH 0\t\t\t\n  PUSH 20\t\t\t\n  SWAP1 \t\t\t\n  POP \t\t\t\n  PUSH 1F\t\t\t\n  DUP4 \t\t\t\n  GT \t\t\t\n  PUSH 1\t\t\t\n  DUP2 \t\t\t\n  EQ \t\t\t\n  PUSH [tag] 107\t\t\t\n  JUMPI \t\t\t\n  PUSH 0\t\t\t\n  DUP5 \t\t\t\n  ISZERO \t\t\t\n  PUSH [tag] 108\t\t\t\n  JUMPI \t\t\t\n  DUP3 \t\t\t\n  DUP8 \t\t\t\n  ADD \t\t\t\n  MLOAD \t\t\t\n  SWAP1 \t\t\t\n  POP \t\t\t\ntag 108\t\t\t\n  JUMPDEST \t\t\t\n  PUSH [tag] 109\t\t\t\n  DUP6 \t\t\t\n  DUP3 \t\t\t\n  PUSH [tag] 38\t\t\t\n  JUMP \t\t\t\ntag 109\t\t\t\n  JUMPDEST \t\t\t\n  DUP7 \t\t\t\n  SSTORE \t\t\t\n  POP \t\t\t\n  PUSH [tag] 106\t\t\t\n  JUMP \t\t\t\ntag 107\t\t\t\n  JUMPDEST \t\t\t\n  PUSH 1F\t\t\t\n  NOT \t\t\t\n  DUP5 \t\t\t\n  AND \t\t\t\n  PUSH [tag] 110\t\t\t\n  DUP7 \t\t\t\n  PUSH [tag] 23\t\t\t\n  JUMP \t\t\t\ntag 110\t\t\t\n  JUMPDEST \t\t\t\n  PUSH 0\t\t\t\ntag 111\t\t\t\n  JUMPDEST \t\t\t\n  DUP3 \t\t\t\n  DUP2 \t\t\t\n  LT \t\t\t\n  ISZERO \t\t\t\n  PUSH [tag] 113\t\t\t\n  JUMPI \t\t\t\n  DUP5 \t\t\t\n  DUP10 \t\t\t\n  ADD \t\t\t\n  MLOAD \t\t\t\n  DUP3 \t\t\t\n  SSTORE \t\t\t\n  PUSH 1\t\t\t\n  DUP3 \t\t\t\n  ADD \t\t\t\n  SWAP2 \t\t\t\n  POP \t\t\t\n  PUSH 20\t\t\t\n  DUP6 \t\t\t\n  ADD \t\t\t\n  SWAP5 \t\t\t\n  POP \t\t\t\n  PUSH 20\t\t\t\n  DUP2 \t\t\t\n  ADD \t\t\t\n  SWAP1 \t\t\t\n  POP \t\t\t\n  PUSH [tag] 111\t\t\t\n  JUMP \t\t\t\ntag 113\t\t\t\n  JUMPDEST \t\t\t\n  DUP7 \t\t\t\n  DUP4 \t\t\t\n  LT \t\t\t\n  ISZERO \t\t\t\n  PUSH [tag] 114\t\t\t\n  JUMPI \t\t\t\n  DUP5 \t\t\t\n  DUP10 \t\t\t\n  ADD \t\t\t\n  MLOAD \t\t\t\n  PUSH [tag] 115\t\t\t\n  PUSH 1F\t\t\t\n  DUP10 \t\t\t\n  AND \t\t\t\n  DUP3 \t\t\t\n  PUSH [tag] 37\t\t\t\n  JUMP \t\t\t\ntag 115\t\t\t\n  JUMPDEST \t\t\t\n  DUP4 \t\t\t\n  SSTORE \t\t\t\n  POP \t\t\t\ntag 114\t\t\t\n  JUMPDEST \t\t\t\n  PUSH 1\t\t\t\n  PUSH 2\t\t\t\n  DUP9 \t\t\t\n  MUL \t\t\t\n  ADD \t\t\t\n  DUP9 \t\t\t\n  SSTORE \t\t\t\n  POP \t\t\t\n  POP \t\t\t\n  POP \t\t\t\ntag 106\t\t\t\n  JUMPDEST \t\t\t\n  POP \t\t\t\n  POP \t\t\t\n  POP \t\t\t\n  POP \t\t\t\n  POP \t\t\t\n  POP \t\t\t\n  JUMP \t\t\t\ntag 11\t\t\tcontract Genesis is ERC20 {\\r\\...\n  JUMPDEST \t\t\tcontract Genesis is ERC20 {\\r\\...\n  PUSH 80\t\t\tcontract Genesis is ERC20 {\\r\\...\n  MLOAD \t\t\tcontract Genesis is ERC20 {\\r\\...\n  PUSH A0\t\t\tcontract Genesis is ERC20 {\\r\\...\n  MLOAD \t\t\tcontract Genesis is ERC20 {\\r\\...\n  PUSH #[$] 0000000000000000000000000000000000000000000000000000000000000000\t\t\tcontract Genesis is ERC20 {\\r\\...\n  PUSH [$] 0000000000000000000000000000000000000000000000000000000000000000\t\t\tcontract Genesis is ERC20 {\\r\\...\n  PUSH 0\t\t\tcontract Genesis is ERC20 {\\r\\...\n  CODECOPY \t\t\tcontract Genesis is ERC20 {\\r\\...\n  PUSH 0\t\t\tcontract Genesis is ERC20 {\\r\\...\n  ASSIGNIMMUTABLE 3641\t\t\tcontract Genesis is ERC20 {\\r\\...\n  PUSH 0\t\t\tcontract Genesis is ERC20 {\\r\\...\n  ASSIGNIMMUTABLE 3639\t\t\tcontract Genesis is ERC20 {\\r\\...\n  PUSH #[$] 0000000000000000000000000000000000000000000000000000000000000000\t\t\tcontract Genesis is ERC20 {\\r\\...\n  PUSH 0\t\t\tcontract Genesis is ERC20 {\\r\\...\n  RETURN \t\t\tcontract Genesis is ERC20 {\\r\\...\n.data\n  0:\n    .code\n      PUSH 80\t\t\tcontract Genesis is ERC20 {\\r\\...\n      PUSH 40\t\t\tcontract Genesis is ERC20 {\\r\\...\n      MSTORE \t\t\tcontract Genesis is ERC20 {\\r\\...\n      CALLVALUE \t\t\tcontract Genesis is ERC20 {\\r\\...\n      DUP1 \t\t\tcontract Genesis is ERC20 {\\r\\...\n      ISZERO \t\t\tcontract Genesis is ERC20 {\\r\\...\n      PUSH [tag] 1\t\t\tcontract Genesis is ERC20 {\\r\\...\n      JUMPI \t\t\tcontract Genesis is ERC20 {\\r\\...\n      PUSH 0\t\t\tcontract Genesis is ERC20 {\\r\\...\n      DUP1 \t\t\tcontract Genesis is ERC20 {\\r\\...\n      REVERT \t\t\tcontract Genesis is ERC20 {\\r\\...\n    tag 1\t\t\tcontract Genesis is ERC20 {\\r\\...\n      JUMPDEST \t\t\tcontract Genesis is ERC20 {\\r\\...\n      POP \t\t\tcontract Genesis is ERC20 {\\r\\...\n      PUSH 4\t\t\tcontract Genesis is ERC20 {\\r\\...\n      CALLDATASIZE \t\t\tcontract Genesis is ERC20 {\\r\\...\n      LT \t\t\tcontract Genesis is ERC20 {\\r\\...\n      PUSH [tag] 2\t\t\tcontract Genesis is ERC20 {\\r\\...\n      JUMPI \t\t\tcontract Genesis is ERC20 {\\r\\...\n      PUSH 0\t\t\tcontract Genesis is ERC20 {\\r\\...\n      CALLDATALOAD \t\t\tcontract Genesis is ERC20 {\\r\\...\n      PUSH E0\t\t\tcontract Genesis is ERC20 {\\r\\...\n      SHR \t\t\tcontract Genesis is ERC20 {\\r\\...\n      DUP1 \t\t\tcontract Genesis is ERC20 {\\r\\...\n      PUSH 622203BE\t\t\tcontract Genesis is ERC20 {\\r\\...\n      GT \t\t\tcontract Genesis is ERC20 {\\r\\...\n      PUSH [tag] 24\t\t\tcontract Genesis is ERC20 {\\r\\...\n      JUMPI \t\t\tcontract Genesis is ERC20 {\\r\\...\n      DUP1 \t\t\tcontract Genesis is ERC20 {\\r\\...\n      PUSH A85292DF\t\t\tcontract Genesis is ERC20 {\\r\\...\n      GT \t\t\tcontract Genesis is ERC20 {\\r\\...\n      PUSH [tag] 25\t\t\tcontract Genesis is ERC20 {\\r\\...\n      JUMPI \t\t\tcontract Genesis is ERC20 {\\r\\...\n      DUP1 \t\t\tcontract Genesis is ERC20 {\\r\\...\n      PUSH A85292DF\t\t\tcontract Genesis is ERC20 {\\r\\...\n      EQ \t\t\tcontract Genesis is ERC20 {\\r\\...\n      PUSH [tag] 18\t\t\tcontract Genesis is ERC20 {\\r\\...\n      JUMPI \t\t\tcontract Genesis is ERC20 {\\r\\...\n      DUP1 \t\t\tcontract Genesis is ERC20 {\\r\\...\n      PUSH A9059CBB\t\t\tcontract Genesis is ERC20 {\\r\\...\n      EQ \t\t\tcontract Genesis is ERC20 {\\r\\...\n      PUSH [tag] 19\t\t\tcontract Genesis is ERC20 {\\r\\...\n      JUMPI \t\t\tcontract Genesis is ERC20 {\\r\\...\n      DUP1 \t\t\tcontract Genesis is ERC20 {\\r\\...\n      PUSH AEA3EE43\t\t\tcontract Genesis is ERC20 {\\r\\...\n      EQ \t\t\tcontract Genesis is ERC20 {\\r\\...\n      PUSH [tag] 20\t\t\tcontract Genesis is ERC20 {\\r\\...\n      JUMPI \t\t\tcontract Genesis is ERC20 {\\r\\...\n      DUP1 \t\t\tcontract Genesis is ERC20 {\\r\\...\n      PUSH C3490263\t\t\tcontract Genesis is ERC20 {\\r\\...\n      EQ \t\t\tcontract Genesis is ERC20 {\\r\\...\n      PUSH [tag] 21\t\t\tcontract Genesis is ERC20 {\\r\\...\n      JUMPI \t\t\tcontract Genesis is ERC20 {\\r\\...\n      DUP1 \t\t\tcontract Genesis is ERC20 {\\r\\...\n      PUSH DD62ED3E\t\t\tcontract Genesis is ERC20 {\\r\\...\n      EQ \t\t\tcontract Genesis is ERC20 {\\r\\...\n      PUSH [tag] 22\t\t\tcontract Genesis is ERC20 {\\r\\...\n      JUMPI \t\t\tcontract Genesis is ERC20 {\\r\\...\n      DUP1 \t\t\tcontract Genesis is ERC20 {\\r\\...\n      PUSH F2EE634D\t\t\tcontract Genesis is ERC20 {\\r\\...\n      EQ \t\t\tcontract Genesis is ERC20 {\\r\\...\n      PUSH [tag] 23\t\t\tcontract Genesis is ERC20 {\\r\\...\n      JUMPI \t\t\tcontract Genesis is ERC20 {\\r\\...\n      PUSH [tag] 2\t\t\tcontract Genesis is ERC20 {\\r\\...\n      JUMP \t\t\tcontract Genesis is ERC20 {\\r\\...\n    tag 25\t\t\tcontract Genesis is ERC20 {\\r\\...\n      JUMPDEST \t\t\tcontract Genesis is ERC20 {\\r\\...\n      DUP1 \t\t\tcontract Genesis is ERC20 {\\r\\...\n      PUSH 622203BE\t\t\tcontract Genesis is ERC20 {\\r\\...\n      EQ \t\t\tcontract Genesis is ERC20 {\\r\\...\n      PUSH [tag] 13\t\t\tcontract Genesis is ERC20 {\\r\\...\n      JUMPI \t\t\tcontract Genesis is ERC20 {\\r\\...\n      DUP1 \t\t\tcontract Genesis is ERC20 {\\r\\...\n      PUSH 6407019C\t\t\tcontract Genesis is ERC20 {\\r\\...\n      EQ \t\t\tcontract Genesis is ERC20 {\\r\\...\n      PUSH [tag] 14\t\t\tcontract Genesis is ERC20 {\\r\\...\n      JUMPI \t\t\tcontract Genesis is ERC20 {\\r\\...\n      DUP1 \t\t\tcontract Genesis is ERC20 {\\r\\...\n      PUSH 70A08231\t\t\tcontract Genesis is ERC20 {\\r\\...\n      EQ \t\t\tcontract Genesis is ERC20 {\\r\\...\n      PUSH [tag] 15\t\t\tcontract Genesis is ERC20 {\\r\\...\n      JUMPI \t\t\tcontract Genesis is ERC20 {\\r\\...\n      DUP1 \t\t\tcontract Genesis is ERC20 {\\r\\...\n      PUSH 95D89B41\t\t\tcontract Genesis is ERC20 {\\r\\...\n      EQ \t\t\tcontract Genesis is ERC20 {\\r\\...\n      PUSH [tag] 16\t\t\tcontract Genesis is ERC20 {\\r\\...\n      JUMPI \t\t\tcontract Genesis is ERC20 {\\r\\...\n      DUP1 \t\t\tcontract Genesis is ERC20 {\\r\\...\n      PUSH A457C2D7\t\t\tcontract Genesis is ERC20 {\\r\\...\n      EQ \t\t\tcontract Genesis is ERC20 {\\r\\...\n      PUSH [tag] 17\t\t\tcontract Genesis is ERC20 {\\r\\...\n      JUMPI \t\t\tcontract Genesis is ERC20 {\\r\\...\n      PUSH [tag] 2\t\t\tcontract Genesis is ERC20 {\\r\\...\n      JUMP \t\t\tcontract Genesis is ERC20 {\\r\\...\n    tag 24\t\t\tcontract Genesis is ERC20 {\\r\\...\n      JUMPDEST \t\t\tcontract Genesis is ERC20 {\\r\\...\n      DUP1 \t\t\tcontract Genesis is ERC20 {\\r\\...\n      PUSH 2DA98181\t\t\tcontract Genesis is ERC20 {\\r\\...\n      GT \t\t\tcontract Genesis is ERC20 {\\r\\...\n      PUSH [tag] 26\t\t\tcontract Genesis is ERC20 {\\r\\...\n      JUMPI \t\t\tcontract Genesis is ERC20 {\\r\\...\n      DUP1 \t\t\tcontract Genesis is ERC20 {\\r\\...\n      PUSH 2DA98181\t\t\tcontract Genesis is ERC20 {\\r\\...\n      EQ \t\t\tcontract Genesis is ERC20 {\\r\\...\n      PUSH [tag] 8\t\t\tcontract Genesis is ERC20 {\\r\\...\n      JUMPI \t\t\tcontract Genesis is ERC20 {\\r\\...\n      DUP1 \t\t\tcontract Genesis is ERC20 {\\r\\...\n      PUSH 3038E8C9\t\t\tcontract Genesis is ERC20 {\\r\\...\n      EQ \t\t\tcontract Genesis is ERC20 {\\r\\...\n      PUSH [tag] 9\t\t\tcontract Genesis is ERC20 {\\r\\...\n      JUMPI \t\t\tcontract Genesis is ERC20 {\\r\\...\n      DUP1 \t\t\tcontract Genesis is ERC20 {\\r\\...\n      PUSH 313CE567\t\t\tcontract Genesis is ERC20 {\\r\\...\n      EQ \t\t\tcontract Genesis is ERC20 {\\r\\...\n      PUSH [tag] 10\t\t\tcontract Genesis is ERC20 {\\r\\...\n      JUMPI \t\t\tcontract Genesis is ERC20 {\\r\\...\n      DUP1 \t\t\tcontract Genesis is ERC20 {\\r\\...\n      PUSH 39509351\t\t\tcontract Genesis is ERC20 {\\r\\...\n      EQ \t\t\tcontract Genesis is ERC20 {\\r\\...\n      PUSH [tag] 11\t\t\tcontract Genesis is ERC20 {\\r\\...\n      JUMPI \t\t\tcontract Genesis is ERC20 {\\r\\...\n      DUP1 \t\t\tcontract Genesis is ERC20 {\\r\\...\n      PUSH 43A46931\t\t\tcontract Genesis is ERC20 {\\r\\...\n      EQ \t\t\tcontract Genesis is ERC20 {\\r\\...\n      PUSH [tag] 12\t\t\tcontract Genesis is ERC20 {\\r\\...\n      JUMPI \t\t\tcontract Genesis is ERC20 {\\r\\...\n      PUSH [tag] 2\t\t\tcontract Genesis is ERC20 {\\r\\...\n      JUMP \t\t\tcontract Genesis is ERC20 {\\r\\...\n    tag 26\t\t\tcontract Genesis is ERC20 {\\r\\...\n      JUMPDEST \t\t\tcontract Genesis is ERC20 {\\r\\...\n      DUP1 \t\t\tcontract Genesis is ERC20 {\\r\\...\n      PUSH 6FDDE03\t\t\tcontract Genesis is ERC20 {\\r\\...\n      EQ \t\t\tcontract Genesis is ERC20 {\\r\\...\n      PUSH [tag] 3\t\t\tcontract Genesis is ERC20 {\\r\\...\n      JUMPI \t\t\tcontract Genesis is ERC20 {\\r\\...\n      DUP1 \t\t\tcontract Genesis is ERC20 {\\r\\...\n      PUSH 95EA7B3\t\t\tcontract Genesis is ERC20 {\\r\\...\n      EQ \t\t\tcontract Genesis is ERC20 {\\r\\...\n      PUSH [tag] 4\t\t\tcontract Genesis is ERC20 {\\r\\...\n      JUMPI \t\t\tcontract Genesis is ERC20 {\\r\\...\n      DUP1 \t\t\tcontract Genesis is ERC20 {\\r\\...\n      PUSH 18160DDD\t\t\tcontract Genesis is ERC20 {\\r\\...\n      EQ \t\t\tcontract Genesis is ERC20 {\\r\\...\n      PUSH [tag] 5\t\t\tcontract Genesis is ERC20 {\\r\\...\n      JUMPI \t\t\tcontract Genesis is ERC20 {\\r\\...\n      DUP1 \t\t\tcontract Genesis is ERC20 {\\r\\...\n      PUSH 2331A50E\t\t\tcontract Genesis is ERC20 {\\r\\...\n      EQ \t\t\tcontract Genesis is ERC20 {\\r\\...\n      PUSH [tag] 6\t\t\tcontract Genesis is ERC20 {\\r\\...\n      JUMPI \t\t\tcontract Genesis is ERC20 {\\r\\...\n      DUP1 \t\t\tcontract Genesis is ERC20 {\\r\\...\n      PUSH 23B872DD\t\t\tcontract Genesis is ERC20 {\\r\\...\n      EQ \t\t\tcontract Genesis is ERC20 {\\r\\...\n      PUSH [tag] 7\t\t\tcontract Genesis is ERC20 {\\r\\...\n      JUMPI \t\t\tcontract Genesis is ERC20 {\\r\\...\n    tag 2\t\t\tcontract Genesis is ERC20 {\\r\\...\n      JUMPDEST \t\t\tcontract Genesis is ERC20 {\\r\\...\n      PUSH 0\t\t\tcontract Genesis is ERC20 {\\r\\...\n      DUP1 \t\t\tcontract Genesis is ERC20 {\\r\\...\n      REVERT \t\t\tcontract Genesis is ERC20 {\\r\\...\n    tag 3\t\t\tblic returns(bool) {\\r\\n\\r\\n  ...\n      JUMPDEST \t\t\tblic returns(bool) {\\r\\n\\r\\n  ...\n      PUSH [tag] 27\t\t\tblic returns(bool) {\\r\\n\\r\\n  ...\n      PUSH [tag] 28\t\t\tblic returns(bool) {\\r\\n\\r\\n  ...\n      JUMP \t\t\tblic returns(bool) {\\r\\n\\r\\n  ...\n    tag 27\t\t\tblic returns(bool) {\\r\\n\\r\\n  ...\n      JUMPDEST \t\t\tblic returns(bool) {\\r\\n\\r\\n  ...\n      PUSH 40\t\t\tblic returns(bool) {\\r\\n\\r\\n  ...\n      MLOAD \t\t\tblic returns(bool) {\\r\\n\\r\\n  ...\n      PUSH [tag] 29\t\t\tblic returns(bool) {\\r\\n\\r\\n  ...\n      SWAP2 \t\t\tblic returns(bool) {\\r\\n\\r\\n  ...\n      SWAP1 \t\t\tblic returns(bool) {\\r\\n\\r\\n  ...\n      PUSH [tag] 30\t\t\tblic returns(bool) {\\r\\n\\r\\n  ...\n      JUMP \t\t\tblic returns(bool) {\\r\\n\\r\\n  ...\n    tag 29\t\t\tblic returns(bool) {\\r\\n\\r\\n  ...\n      JUMPDEST \t\t\tblic returns(bool) {\\r\\n\\r\\n  ...\n      PUSH 40\t\t\tblic returns(bool) {\\r\\n\\r\\n  ...\n      MLOAD \t\t\tblic returns(bool) {\\r\\n\\r\\n  ...\n      DUP1 \t\t\tblic returns(bool) {\\r\\n\\r\\n  ...\n      SWAP2 \t\t\tblic returns(bool) {\\r\\n\\r\\n  ...\n      SUB \t\t\tblic returns(bool) {\\r\\n\\r\\n  ...\n      SWAP1 \t\t\tblic returns(bool) {\\r\\n\\r\\n  ...\n      RETURN \t\t\tblic returns(bool) {\\r\\n\\r\\n  ...\n    tag 4\t\t\t\n      JUMPDEST \t\t\t\n      PUSH [tag] 31\t\t\t\n      PUSH 4\t\t\t\n      DUP1 \t\t\t\n      CALLDATASIZE \t\t\t\n      SUB \t\t\t\n      DUP2 \t\t\t\n      ADD \t\t\t\n      SWAP1 \t\t\t\n      PUSH [tag] 32\t\t\t\n      SWAP2 \t\t\t\n      SWAP1 \t\t\t\n      PUSH [tag] 33\t\t\t\n      JUMP \t\t\t\n    tag 32\t\t\t\n      JUMPDEST \t\t\t\n      PUSH [tag] 34\t\t\t\n      JUMP \t\t\t\n    tag 31\t\t\t\n      JUMPDEST \t\t\t\n      PUSH 40\t\t\t\n      MLOAD \t\t\t\n      PUSH [tag] 35\t\t\t\n      SWAP2 \t\t\t\n      SWAP1 \t\t\t\n      PUSH [tag] 36\t\t\t\n      JUMP \t\t\t\n    tag 35\t\t\t\n      JUMPDEST \t\t\t\n      PUSH 40\t\t\t\n      MLOAD \t\t\t\n      DUP1 \t\t\t\n      SWAP2 \t\t\t\n      SUB \t\t\t\n      SWAP1 \t\t\t\n      RETURN \t\t\t\n    tag 5\t\t\t.timestamp;\\r\\n        userTre...\n      JUMPDEST \t\t\t.timestamp;\\r\\n        userTre...\n      PUSH [tag] 37\t\t\t.timestamp;\\r\\n        userTre...\n      PUSH [tag] 38\t\t\t.timestamp;\\r\\n        userTre...\n      JUMP \t\t\t.timestamp;\\r\\n        userTre...\n    tag 37\t\t\t.timestamp;\\r\\n        userTre...\n      JUMPDEST \t\t\t.timestamp;\\r\\n        userTre...\n      PUSH 40\t\t\t.timestamp;\\r\\n        userTre...\n      MLOAD \t\t\t.timestamp;\\r\\n        userTre...\n      PUSH [tag] 39\t\t\t.timestamp;\\r\\n        userTre...\n      SWAP2 \t\t\t.timestamp;\\r\\n        userTre...\n      SWAP1 \t\t\t.timestamp;\\r\\n        userTre...\n      PUSH [tag] 40\t\t\t.timestamp;\\r\\n        userTre...\n      JUMP \t\t\t.timestamp;\\r\\n        userTre...\n    tag 39\t\t\t.timestamp;\\r\\n        userTre...\n      JUMPDEST \t\t\t.timestamp;\\r\\n        userTre...\n      PUSH 40\t\t\t.timestamp;\\r\\n        userTre...\n      MLOAD \t\t\t.timestamp;\\r\\n        userTre...\n      DUP1 \t\t\t.timestamp;\\r\\n        userTre...\n      SWAP2 \t\t\t.timestamp;\\r\\n        userTre...\n      SUB \t\t\t.timestamp;\\r\\n        userTre...\n      SWAP1 \t\t\t.timestamp;\\r\\n        userTre...\n      RETURN \t\t\t.timestamp;\\r\\n        userTre...\n    tag 6\t\t\tfunction getTreeDetails(uint25...\n      JUMPDEST \t\t\tfunction getTreeDetails(uint25...\n      PUSH [tag] 41\t\t\tfunction getTreeDetails(uint25...\n      PUSH 4\t\t\tfunction getTreeDetails(uint25...\n      DUP1 \t\t\tfunction getTreeDetails(uint25...\n      CALLDATASIZE \t\t\tfunction getTreeDetails(uint25...\n      SUB \t\t\tfunction getTreeDetails(uint25...\n      DUP2 \t\t\tfunction getTreeDetails(uint25...\n      ADD \t\t\tfunction getTreeDetails(uint25...\n      SWAP1 \t\t\tfunction getTreeDetails(uint25...\n      PUSH [tag] 42\t\t\tfunction getTreeDetails(uint25...\n      SWAP2 \t\t\tfunction getTreeDetails(uint25...\n      SWAP1 \t\t\tfunction getTreeDetails(uint25...\n      PUSH [tag] 43\t\t\tfunction getTreeDetails(uint25...\n      JUMP \t\t\tfunction getTreeDetails(uint25...\n    tag 42\t\t\tfunction getTreeDetails(uint25...\n      JUMPDEST \t\t\tfunction getTreeDetails(uint25...\n      PUSH [tag] 44\t\t\tfunction getTreeDetails(uint25...\n      JUMP \t\t\tfunction getTreeDetails(uint25...\n    tag 41\t\t\tfunction getTreeDetails(uint25...\n      JUMPDEST \t\t\tfunction getTreeDetails(uint25...\n      PUSH 40\t\t\tfunction getTreeDetails(uint25...\n      MLOAD \t\t\tfunction getTreeDetails(uint25...\n      PUSH [tag] 45\t\t\tfunction getTreeDetails(uint25...\n      SWAP2 \t\t\tfunction getTreeDetails(uint25...\n      SWAP1 \t\t\tfunction getTreeDetails(uint25...\n      PUSH [tag] 46\t\t\tfunction getTreeDetails(uint25...\n      JUMP \t\t\tfunction getTreeDetails(uint25...\n    tag 45\t\t\tfunction getTreeDetails(uint25...\n      JUMPDEST \t\t\tfunction getTreeDetails(uint25...\n      PUSH 40\t\t\tfunction getTreeDetails(uint25...\n      MLOAD \t\t\tfunction getTreeDetails(uint25...\n      DUP1 \t\t\tfunction getTreeDetails(uint25...\n      SWAP2 \t\t\tfunction getTreeDetails(uint25...\n      SUB \t\t\tfunction getTreeDetails(uint25...\n      SWAP1 \t\t\tfunction getTreeDetails(uint25...\n      RETURN \t\t\tfunction getTreeDetails(uint25...\n    tag 7\t\t\t\n      JUMPDEST \t\t\t\n      PUSH [tag] 47\t\t\t\n      PUSH 4\t\t\t\n      DUP1 \t\t\t\n      CALLDATASIZE \t\t\t\n      SUB \t\t\t\n      DUP2 \t\t\t\n      ADD \t\t\t\n      SWAP1 \t\t\t\n      PUSH [tag] 48\t\t\t\n      SWAP2 \t\t\t\n      SWAP1 \t\t\t\n      PUSH [tag] 49\t\t\t\n      JUMP \t\t\t\n    tag 48\t\t\t\n      JUMPDEST \t\t\t\n      PUSH [tag] 50\t\t\t\n      JUMP \t\t\t\n    tag 47\t\t\t\n      JUMPDEST \t\t\t\n      PUSH 40\t\t\t\n      MLOAD \t\t\t\n      PUSH [tag] 51\t\t\t\n      SWAP2 \t\t\t\n      SWAP1 \t\t\t\n      PUSH [tag] 36\t\t\t\n      JUMP \t\t\t\n    tag 51\t\t\t\n      JUMPDEST \t\t\t\n      PUSH 40\t\t\t\n      MLOAD \t\t\t\n      DUP1 \t\t\t\n      SWAP2 \t\t\t\n      SUB \t\t\t\n      SWAP1 \t\t\t\n      RETURN \t\t\t\n    tag 8\t\t\tmapping(TreeCollection => uint...\n      JUMPDEST \t\t\tmapping(TreeCollection => uint...\n      PUSH [tag] 52\t\t\tmapping(TreeCollection => uint...\n      PUSH 4\t\t\tmapping(TreeCollection => uint...\n      DUP1 \t\t\tmapping(TreeCollection => uint...\n      CALLDATASIZE \t\t\tmapping(TreeCollection => uint...\n      SUB \t\t\tmapping(TreeCollection => uint...\n      DUP2 \t\t\tmapping(TreeCollection => uint...\n      ADD \t\t\tmapping(TreeCollection => uint...\n      SWAP1 \t\t\tmapping(TreeCollection => uint...\n      PUSH [tag] 53\t\t\tmapping(TreeCollection => uint...\n      SWAP2 \t\t\tmapping(TreeCollection => uint...\n      SWAP1 \t\t\tmapping(TreeCollection => uint...\n      PUSH [tag] 54\t\t\tmapping(TreeCollection => uint...\n      JUMP \t\t\tmapping(TreeCollection => uint...\n    tag 53\t\t\tmapping(TreeCollection => uint...\n      JUMPDEST \t\t\tmapping(TreeCollection => uint...\n      PUSH [tag] 55\t\t\tmapping(TreeCollection => uint...\n      JUMP \t\t\tmapping(TreeCollection => uint...\n    tag 52\t\t\tmapping(TreeCollection => uint...\n      JUMPDEST \t\t\tmapping(TreeCollection => uint...\n      PUSH 40\t\t\tmapping(TreeCollection => uint...\n      MLOAD \t\t\tmapping(TreeCollection => uint...\n      PUSH [tag] 56\t\t\tmapping(TreeCollection => uint...\n      SWAP2 \t\t\tmapping(TreeCollection => uint...\n      SWAP1 \t\t\tmapping(TreeCollection => uint...\n      PUSH [tag] 40\t\t\tmapping(TreeCollection => uint...\n      JUMP \t\t\tmapping(TreeCollection => uint...\n    tag 56\t\t\tmapping(TreeCollection => uint...\n      JUMPDEST \t\t\tmapping(TreeCollection => uint...\n      PUSH 40\t\t\tmapping(TreeCollection => uint...\n      MLOAD \t\t\tmapping(TreeCollection => uint...\n      DUP1 \t\t\tmapping(TreeCollection => uint...\n      SWAP2 \t\t\tmapping(TreeCollection => uint...\n      SUB \t\t\tmapping(TreeCollection => uint...\n      SWAP1 \t\t\tmapping(TreeCollection => uint...\n      RETURN \t\t\tmapping(TreeCollection => uint...\n    tag 9\t\t\tfunction mintNewTreeCollection...\n      JUMPDEST \t\t\tfunction mintNewTreeCollection...\n      PUSH [tag] 57\t\t\tfunction mintNewTreeCollection...\n      PUSH 4\t\t\tfunction mintNewTreeCollection...\n      DUP1 \t\t\tfunction mintNewTreeCollection...\n      CALLDATASIZE \t\t\tfunction mintNewTreeCollection...\n      SUB \t\t\tfunction mintNewTreeCollection...\n      DUP2 \t\t\tfunction mintNewTreeCollection...\n      ADD \t\t\tfunction mintNewTreeCollection...\n      SWAP1 \t\t\tfunction mintNewTreeCollection...\n      PUSH [tag] 58\t\t\tfunction mintNewTreeCollection...\n      SWAP2 \t\t\tfunction mintNewTreeCollection...\n      SWAP1 \t\t\tfunction mintNewTreeCollection...\n      PUSH [tag] 59\t\t\tfunction mintNewTreeCollection...\n      JUMP \t\t\tfunction mintNewTreeCollection...\n    tag 58\t\t\tfunction mintNewTreeCollection...\n      JUMPDEST \t\t\tfunction mintNewTreeCollection...\n      PUSH [tag] 60\t\t\tfunction mintNewTreeCollection...\n      JUMP \t\t\tfunction mintNewTreeCollection...\n    tag 57\t\t\tfunction mintNewTreeCollection...\n      JUMPDEST \t\t\tfunction mintNewTreeCollection...\n      STOP \t\t\tfunction mintNewTreeCollection...\n    tag 10\t\t\t[_collectionID].treeDetails[_t...\n      JUMPDEST \t\t\t[_collectionID].treeDetails[_t...\n      PUSH [tag] 61\t\t\t[_collectionID].treeDetails[_t...\n      PUSH [tag] 62\t\t\t[_collectionID].treeDetails[_t...\n      JUMP \t\t\t[_collectionID].treeDetails[_t...\n    tag 61\t\t\t[_collectionID].treeDetails[_t...\n      JUMPDEST \t\t\t[_collectionID].treeDetails[_t...\n      PUSH 40\t\t\t[_collectionID].treeDetails[_t...\n      MLOAD \t\t\t[_collectionID].treeDetails[_t...\n      PUSH [tag] 63\t\t\t[_collectionID].treeDetails[_t...\n      SWAP2 \t\t\t[_collectionID].treeDetails[_t...\n      SWAP1 \t\t\t[_collectionID].treeDetails[_t...\n      PUSH [tag] 64\t\t\t[_collectionID].treeDetails[_t...\n      JUMP \t\t\t[_collectionID].treeDetails[_t...\n    tag 63\t\t\t[_collectionID].treeDetails[_t...\n      JUMPDEST \t\t\t[_collectionID].treeDetails[_t...\n      PUSH 40\t\t\t[_collectionID].treeDetails[_t...\n      MLOAD \t\t\t[_collectionID].treeDetails[_t...\n      DUP1 \t\t\t[_collectionID].treeDetails[_t...\n      SWAP2 \t\t\t[_collectionID].treeDetails[_t...\n      SUB \t\t\t[_collectionID].treeDetails[_t...\n      SWAP1 \t\t\t[_collectionID].treeDetails[_t...\n      RETURN \t\t\t[_collectionID].treeDetails[_t...\n    tag 11\t\t\t\n      JUMPDEST \t\t\t\n      PUSH [tag] 65\t\t\t\n      PUSH 4\t\t\t\n      DUP1 \t\t\t\n      CALLDATASIZE \t\t\t\n      SUB \t\t\t\n      DUP2 \t\t\t\n      ADD \t\t\t\n      SWAP1 \t\t\t\n      PUSH [tag] 66\t\t\t\n      SWAP2 \t\t\t\n      SWAP1 \t\t\t\n      PUSH [tag] 33\t\t\t\n      JUMP \t\t\t\n    tag 66\t\t\t\n      JUMPDEST \t\t\t\n      PUSH [tag] 67\t\t\t\n      JUMP \t\t\t\n    tag 65\t\t\t\n      JUMPDEST \t\t\t\n      PUSH 40\t\t\t\n      MLOAD \t\t\t\n      PUSH [tag] 68\t\t\t\n      SWAP2 \t\t\t\n      SWAP1 \t\t\t\n      PUSH [tag] 36\t\t\t\n      JUMP \t\t\t\n    tag 68\t\t\t\n      JUMPDEST \t\t\t\n      PUSH 40\t\t\t\n      MLOAD \t\t\t\n      DUP1 \t\t\t\n      SWAP2 \t\t\t\n      SUB \t\t\t\n      SWAP1 \t\t\t\n      RETURN \t\t\t\n    tag 12\t\t\tfunction mintTree(uint256 coll...\n      JUMPDEST \t\t\tfunction mintTree(uint256 coll...\n      PUSH [tag] 69\t\t\tfunction mintTree(uint256 coll...\n      PUSH 4\t\t\tfunction mintTree(uint256 coll...\n      DUP1 \t\t\tfunction mintTree(uint256 coll...\n      CALLDATASIZE \t\t\tfunction mintTree(uint256 coll...\n      SUB \t\t\tfunction mintTree(uint256 coll...\n      DUP2 \t\t\tfunction mintTree(uint256 coll...\n      ADD \t\t\tfunction mintTree(uint256 coll...\n      SWAP1 \t\t\tfunction mintTree(uint256 coll...\n      PUSH [tag] 70\t\t\tfunction mintTree(uint256 coll...\n      SWAP2 \t\t\tfunction mintTree(uint256 coll...\n      SWAP1 \t\t\tfunction mintTree(uint256 coll...\n      PUSH [tag] 71\t\t\tfunction mintTree(uint256 coll...\n      JUMP \t\t\tfunction mintTree(uint256 coll...\n    tag 70\t\t\tfunction mintTree(uint256 coll...\n      JUMPDEST \t\t\tfunction mintTree(uint256 coll...\n      PUSH [tag] 72\t\t\tfunction mintTree(uint256 coll...\n      JUMP \t\t\tfunction mintTree(uint256 coll...\n    tag 69\t\t\tfunction mintTree(uint256 coll...\n      JUMPDEST \t\t\tfunction mintTree(uint256 coll...\n      STOP \t\t\tfunction mintTree(uint256 coll...\n    tag 13\t\t\tfunction getCollectionID(TreeC...\n      JUMPDEST \t\t\tfunction getCollectionID(TreeC...\n      PUSH [tag] 73\t\t\tfunction getCollectionID(TreeC...\n      PUSH 4\t\t\tfunction getCollectionID(TreeC...\n      DUP1 \t\t\tfunction getCollectionID(TreeC...\n      CALLDATASIZE \t\t\tfunction getCollectionID(TreeC...\n      SUB \t\t\tfunction getCollectionID(TreeC...\n      DUP2 \t\t\tfunction getCollectionID(TreeC...\n      ADD \t\t\tfunction getCollectionID(TreeC...\n      SWAP1 \t\t\tfunction getCollectionID(TreeC...\n      PUSH [tag] 74\t\t\tfunction getCollectionID(TreeC...\n      SWAP2 \t\t\tfunction getCollectionID(TreeC...\n      SWAP1 \t\t\tfunction getCollectionID(TreeC...\n      PUSH [tag] 54\t\t\tfunction getCollectionID(TreeC...\n      JUMP \t\t\tfunction getCollectionID(TreeC...\n    tag 74\t\t\tfunction getCollectionID(TreeC...\n      JUMPDEST \t\t\tfunction getCollectionID(TreeC...\n      PUSH [tag] 75\t\t\tfunction getCollectionID(TreeC...\n      JUMP \t\t\tfunction getCollectionID(TreeC...\n    tag 73\t\t\tfunction getCollectionID(TreeC...\n      JUMPDEST \t\t\tfunction getCollectionID(TreeC...\n      PUSH 40\t\t\tfunction getCollectionID(TreeC...\n      MLOAD \t\t\tfunction getCollectionID(TreeC...\n      PUSH [tag] 76\t\t\tfunction getCollectionID(TreeC...\n      SWAP2 \t\t\tfunction getCollectionID(TreeC...\n      SWAP1 \t\t\tfunction getCollectionID(TreeC...\n      PUSH [tag] 40\t\t\tfunction getCollectionID(TreeC...\n      JUMP \t\t\tfunction getCollectionID(TreeC...\n    tag 76\t\t\tfunction getCollectionID(TreeC...\n      JUMPDEST \t\t\tfunction getCollectionID(TreeC...\n      PUSH 40\t\t\tfunction getCollectionID(TreeC...\n      MLOAD \t\t\tfunction getCollectionID(TreeC...\n      DUP1 \t\t\tfunction getCollectionID(TreeC...\n      SWAP2 \t\t\tfunction getCollectionID(TreeC...\n      SUB \t\t\tfunction getCollectionID(TreeC...\n      SWAP1 \t\t\tfunction getCollectionID(TreeC...\n      RETURN \t\t\tfunction getCollectionID(TreeC...\n    tag 14\t\t\tfunction returnNFTcount(uint25...\n      JUMPDEST \t\t\tfunction returnNFTcount(uint25...\n      PUSH [tag] 77\t\t\tfunction returnNFTcount(uint25...\n      PUSH 4\t\t\tfunction returnNFTcount(uint25...\n      DUP1 \t\t\tfunction returnNFTcount(uint25...\n      CALLDATASIZE \t\t\tfunction returnNFTcount(uint25...\n      SUB \t\t\tfunction returnNFTcount(uint25...\n      DUP2 \t\t\tfunction returnNFTcount(uint25...\n      ADD \t\t\tfunction returnNFTcount(uint25...\n      SWAP1 \t\t\tfunction returnNFTcount(uint25...\n      PUSH [tag] 78\t\t\tfunction returnNFTcount(uint25...\n      SWAP2 \t\t\tfunction returnNFTcount(uint25...\n      SWAP1 \t\t\tfunction returnNFTcount(uint25...\n      PUSH [tag] 79\t\t\tfunction returnNFTcount(uint25...\n      JUMP \t\t\tfunction returnNFTcount(uint25...\n    tag 78\t\t\tfunction returnNFTcount(uint25...\n      JUMPDEST \t\t\tfunction returnNFTcount(uint25...\n      PUSH [tag] 80\t\t\tfunction returnNFTcount(uint25...\n      JUMP \t\t\tfunction returnNFTcount(uint25...\n    tag 77\t\t\tfunction returnNFTcount(uint25...\n      JUMPDEST \t\t\tfunction returnNFTcount(uint25...\n      PUSH 40\t\t\tfunction returnNFTcount(uint25...\n      MLOAD \t\t\tfunction returnNFTcount(uint25...\n      PUSH [tag] 81\t\t\tfunction returnNFTcount(uint25...\n      SWAP2 \t\t\tfunction returnNFTcount(uint25...\n      SWAP1 \t\t\tfunction returnNFTcount(uint25...\n      PUSH [tag] 40\t\t\tfunction returnNFTcount(uint25...\n      JUMP \t\t\tfunction returnNFTcount(uint25...\n    tag 81\t\t\tfunction returnNFTcount(uint25...\n      JUMPDEST \t\t\tfunction returnNFTcount(uint25...\n      PUSH 40\t\t\tfunction returnNFTcount(uint25...\n      MLOAD \t\t\tfunction returnNFTcount(uint25...\n      DUP1 \t\t\tfunction returnNFTcount(uint25...\n      SWAP2 \t\t\tfunction returnNFTcount(uint25...\n      SUB \t\t\tfunction returnNFTcount(uint25...\n      SWAP1 \t\t\tfunction returnNFTcount(uint25...\n      RETURN \t\t\tfunction returnNFTcount(uint25...\n    tag 15\t\t\t  function getTreeDetails(uint...\n      JUMPDEST \t\t\t  function getTreeDetails(uint...\n      PUSH [tag] 82\t\t\t  function getTreeDetails(uint...\n      PUSH 4\t\t\t  function getTreeDetails(uint...\n      DUP1 \t\t\t  function getTreeDetails(uint...\n      CALLDATASIZE \t\t\t  function getTreeDetails(uint...\n      SUB \t\t\t  function getTreeDetails(uint...\n      DUP2 \t\t\t  function getTreeDetails(uint...\n      ADD \t\t\t  function getTreeDetails(uint...\n      SWAP1 \t\t\t  function getTreeDetails(uint...\n      PUSH [tag] 83\t\t\t  function getTreeDetails(uint...\n      SWAP2 \t\t\t  function getTreeDetails(uint...\n      SWAP1 \t\t\t  function getTreeDetails(uint...\n      PUSH [tag] 84\t\t\t  function getTreeDetails(uint...\n      JUMP \t\t\t  function getTreeDetails(uint...\n    tag 83\t\t\t  function getTreeDetails(uint...\n      JUMPDEST \t\t\t  function getTreeDetails(uint...\n      PUSH [tag] 85\t\t\t  function getTreeDetails(uint...\n      JUMP \t\t\t  function getTreeDetails(uint...\n    tag 82\t\t\t  function getTreeDetails(uint...\n      JUMPDEST \t\t\t  function getTreeDetails(uint...\n      PUSH 40\t\t\t  function getTreeDetails(uint...\n      MLOAD \t\t\t  function getTreeDetails(uint...\n      PUSH [tag] 86\t\t\t  function getTreeDetails(uint...\n      SWAP2 \t\t\t  function getTreeDetails(uint...\n      SWAP1 \t\t\t  function getTreeDetails(uint...\n      PUSH [tag] 40\t\t\t  function getTreeDetails(uint...\n      JUMP \t\t\t  function getTreeDetails(uint...\n    tag 86\t\t\t  function getTreeDetails(uint...\n      JUMPDEST \t\t\t  function getTreeDetails(uint...\n      PUSH 40\t\t\t  function getTreeDetails(uint...\n      MLOAD \t\t\t  function getTreeDetails(uint...\n      DUP1 \t\t\t  function getTreeDetails(uint...\n      SWAP2 \t\t\t  function getTreeDetails(uint...\n      SUB \t\t\t  function getTreeDetails(uint...\n      SWAP1 \t\t\t  function getTreeDetails(uint...\n      RETURN \t\t\t  function getTreeDetails(uint...\n    tag 16\t\t\t     require(STNEAR.transferFr...\n      JUMPDEST \t\t\t     require(STNEAR.transferFr...\n      PUSH [tag] 87\t\t\t     require(STNEAR.transferFr...\n      PUSH [tag] 88\t\t\t     require(STNEAR.transferFr...\n      JUMP \t\t\t     require(STNEAR.transferFr...\n    tag 87\t\t\t     require(STNEAR.transferFr...\n      JUMPDEST \t\t\t     require(STNEAR.transferFr...\n      PUSH 40\t\t\t     require(STNEAR.transferFr...\n      MLOAD \t\t\t     require(STNEAR.transferFr...\n      PUSH [tag] 89\t\t\t     require(STNEAR.transferFr...\n      SWAP2 \t\t\t     require(STNEAR.transferFr...\n      SWAP1 \t\t\t     require(STNEAR.transferFr...\n      PUSH [tag] 30\t\t\t     require(STNEAR.transferFr...\n      JUMP \t\t\t     require(STNEAR.transferFr...\n    tag 89\t\t\t     require(STNEAR.transferFr...\n      JUMPDEST \t\t\t     require(STNEAR.transferFr...\n      PUSH 40\t\t\t     require(STNEAR.transferFr...\n      MLOAD \t\t\t     require(STNEAR.transferFr...\n      DUP1 \t\t\t     require(STNEAR.transferFr...\n      SWAP2 \t\t\t     require(STNEAR.transferFr...\n      SUB \t\t\t     require(STNEAR.transferFr...\n      SWAP1 \t\t\t     require(STNEAR.transferFr...\n      RETURN \t\t\t     require(STNEAR.transferFr...\n    tag 17\t\t\t\n      JUMPDEST \t\t\t\n      PUSH [tag] 90\t\t\t\n      PUSH 4\t\t\t\n      DUP1 \t\t\t\n      CALLDATASIZE \t\t\t\n      SUB \t\t\t\n      DUP2 \t\t\t\n      ADD \t\t\t\n      SWAP1 \t\t\t\n      PUSH [tag] 91\t\t\t\n      SWAP2 \t\t\t\n      SWAP1 \t\t\t\n      PUSH [tag] 33\t\t\t\n      JUMP \t\t\t\n    tag 91\t\t\t\n      JUMPDEST \t\t\t\n      PUSH [tag] 92\t\t\t\n      JUMP \t\t\t\n    tag 90\t\t\t\n      JUMPDEST \t\t\t\n      PUSH 40\t\t\t\n      MLOAD \t\t\t\n      PUSH [tag] 93\t\t\t\n      SWAP2 \t\t\t\n      SWAP1 \t\t\t\n      PUSH [tag] 36\t\t\t\n      JUMP \t\t\t\n    tag 93\t\t\t\n      JUMPDEST \t\t\t\n      PUSH 40\t\t\t\n      MLOAD \t\t\t\n      DUP1 \t\t\t\n      SWAP2 \t\t\t\n      SUB \t\t\t\n      SWAP1 \t\t\t\n      RETURN \t\t\t\n    tag 18\t\t\tCounters.Counter public TreeCo...\n      JUMPDEST \t\t\tCounters.Counter public TreeCo...\n      PUSH [tag] 94\t\t\tCounters.Counter public TreeCo...\n      PUSH [tag] 95\t\t\tCounters.Counter public TreeCo...\n      JUMP \t\t\tCounters.Counter public TreeCo...\n    tag 94\t\t\tCounters.Counter public TreeCo...\n      JUMPDEST \t\t\tCounters.Counter public TreeCo...\n      PUSH 40\t\t\tCounters.Counter public TreeCo...\n      MLOAD \t\t\tCounters.Counter public TreeCo...\n      PUSH [tag] 96\t\t\tCounters.Counter public TreeCo...\n      SWAP2 \t\t\tCounters.Counter public TreeCo...\n      SWAP1 \t\t\tCounters.Counter public TreeCo...\n      PUSH [tag] 40\t\t\tCounters.Counter public TreeCo...\n      JUMP \t\t\tCounters.Counter public TreeCo...\n    tag 96\t\t\tCounters.Counter public TreeCo...\n      JUMPDEST \t\t\tCounters.Counter public TreeCo...\n      PUSH 40\t\t\tCounters.Counter public TreeCo...\n      MLOAD \t\t\tCounters.Counter public TreeCo...\n      DUP1 \t\t\tCounters.Counter public TreeCo...\n      SWAP2 \t\t\tCounters.Counter public TreeCo...\n      SUB \t\t\tCounters.Counter public TreeCo...\n      SWAP1 \t\t\tCounters.Counter public TreeCo...\n      RETURN \t\t\tCounters.Counter public TreeCo...\n    tag 19\t\t\t       return (treecollections...\n      JUMPDEST \t\t\t       return (treecollections...\n      PUSH [tag] 97\t\t\t       return (treecollections...\n      PUSH 4\t\t\t       return (treecollections...\n      DUP1 \t\t\t       return (treecollections...\n      CALLDATASIZE \t\t\t       return (treecollections...\n      SUB \t\t\t       return (treecollections...\n      DUP2 \t\t\t       return (treecollections...\n      ADD \t\t\t       return (treecollections...\n      SWAP1 \t\t\t       return (treecollections...\n      PUSH [tag] 98\t\t\t       return (treecollections...\n      SWAP2 \t\t\t       return (treecollections...\n      SWAP1 \t\t\t       return (treecollections...\n      PUSH [tag] 33\t\t\t       return (treecollections...\n      JUMP \t\t\t       return (treecollections...\n    tag 98\t\t\t       return (treecollections...\n      JUMPDEST \t\t\t       return (treecollections...\n      PUSH [tag] 99\t\t\t       return (treecollections...\n      JUMP \t\t\t       return (treecollections...\n    tag 97\t\t\t       return (treecollections...\n      JUMPDEST \t\t\t       return (treecollections...\n      PUSH 40\t\t\t       return (treecollections...\n      MLOAD \t\t\t       return (treecollections...\n      PUSH [tag] 100\t\t\t       return (treecollections...\n      SWAP2 \t\t\t       return (treecollections...\n      SWAP1 \t\t\t       return (treecollections...\n      PUSH [tag] 36\t\t\t       return (treecollections...\n      JUMP \t\t\t       return (treecollections...\n    tag 100\t\t\t       return (treecollections...\n      JUMPDEST \t\t\t       return (treecollections...\n      PUSH 40\t\t\t       return (treecollections...\n      MLOAD \t\t\t       return (treecollections...\n      DUP1 \t\t\t       return (treecollections...\n      SWAP2 \t\t\t       return (treecollections...\n      SUB \t\t\t       return (treecollections...\n      SWAP1 \t\t\t       return (treecollections...\n      RETURN \t\t\t       return (treecollections...\n    tag 20\t\t\tmapping(uint256 => TreeCollect...\n      JUMPDEST \t\t\tmapping(uint256 => TreeCollect...\n      PUSH [tag] 101\t\t\tmapping(uint256 => TreeCollect...\n      PUSH 4\t\t\tmapping(uint256 => TreeCollect...\n      DUP1 \t\t\tmapping(uint256 => TreeCollect...\n      CALLDATASIZE \t\t\tmapping(uint256 => TreeCollect...\n      SUB \t\t\tmapping(uint256 => TreeCollect...\n      DUP2 \t\t\tmapping(uint256 => TreeCollect...\n      ADD \t\t\tmapping(uint256 => TreeCollect...\n      SWAP1 \t\t\tmapping(uint256 => TreeCollect...\n      PUSH [tag] 102\t\t\tmapping(uint256 => TreeCollect...\n      SWAP2 \t\t\tmapping(uint256 => TreeCollect...\n      SWAP1 \t\t\tmapping(uint256 => TreeCollect...\n      PUSH [tag] 79\t\t\tmapping(uint256 => TreeCollect...\n      JUMP \t\t\tmapping(uint256 => TreeCollect...\n    tag 102\t\t\tmapping(uint256 => TreeCollect...\n      JUMPDEST \t\t\tmapping(uint256 => TreeCollect...\n      PUSH [tag] 103\t\t\tmapping(uint256 => TreeCollect...\n      JUMP \t\t\tmapping(uint256 => TreeCollect...\n    tag 101\t\t\tmapping(uint256 => TreeCollect...\n      JUMPDEST \t\t\tmapping(uint256 => TreeCollect...\n      PUSH 40\t\t\tmapping(uint256 => TreeCollect...\n      MLOAD \t\t\tmapping(uint256 => TreeCollect...\n      PUSH [tag] 104\t\t\tmapping(uint256 => TreeCollect...\n      SWAP2 \t\t\tmapping(uint256 => TreeCollect...\n      SWAP1 \t\t\tmapping(uint256 => TreeCollect...\n      PUSH [tag] 105\t\t\tmapping(uint256 => TreeCollect...\n      JUMP \t\t\tmapping(uint256 => TreeCollect...\n    tag 104\t\t\tmapping(uint256 => TreeCollect...\n      JUMPDEST \t\t\tmapping(uint256 => TreeCollect...\n      PUSH 40\t\t\tmapping(uint256 => TreeCollect...\n      MLOAD \t\t\tmapping(uint256 => TreeCollect...\n      DUP1 \t\t\tmapping(uint256 => TreeCollect...\n      SWAP2 \t\t\tmapping(uint256 => TreeCollect...\n      SUB \t\t\tmapping(uint256 => TreeCollect...\n      SWAP1 \t\t\tmapping(uint256 => TreeCollect...\n      RETURN \t\t\tmapping(uint256 => TreeCollect...\n    tag 21\t\t\tfunction claim(uint256 _collec...\n      JUMPDEST \t\t\tfunction claim(uint256 _collec...\n      PUSH [tag] 106\t\t\tfunction claim(uint256 _collec...\n      PUSH 4\t\t\tfunction claim(uint256 _collec...\n      DUP1 \t\t\tfunction claim(uint256 _collec...\n      CALLDATASIZE \t\t\tfunction claim(uint256 _collec...\n      SUB \t\t\tfunction claim(uint256 _collec...\n      DUP2 \t\t\tfunction claim(uint256 _collec...\n      ADD \t\t\tfunction claim(uint256 _collec...\n      SWAP1 \t\t\tfunction claim(uint256 _collec...\n      PUSH [tag] 107\t\t\tfunction claim(uint256 _collec...\n      SWAP2 \t\t\tfunction claim(uint256 _collec...\n      SWAP1 \t\t\tfunction claim(uint256 _collec...\n      PUSH [tag] 43\t\t\tfunction claim(uint256 _collec...\n      JUMP \t\t\tfunction claim(uint256 _collec...\n    tag 107\t\t\tfunction claim(uint256 _collec...\n      JUMPDEST \t\t\tfunction claim(uint256 _collec...\n      PUSH [tag] 108\t\t\tfunction claim(uint256 _collec...\n      JUMP \t\t\tfunction claim(uint256 _collec...\n    tag 106\t\t\tfunction claim(uint256 _collec...\n      JUMPDEST \t\t\tfunction claim(uint256 _collec...\n      PUSH 40\t\t\tfunction claim(uint256 _collec...\n      MLOAD \t\t\tfunction claim(uint256 _collec...\n      PUSH [tag] 109\t\t\tfunction claim(uint256 _collec...\n      SWAP2 \t\t\tfunction claim(uint256 _collec...\n      SWAP1 \t\t\tfunction claim(uint256 _collec...\n      PUSH [tag] 36\t\t\tfunction claim(uint256 _collec...\n      JUMP \t\t\tfunction claim(uint256 _collec...\n    tag 109\t\t\tfunction claim(uint256 _collec...\n      JUMPDEST \t\t\tfunction claim(uint256 _collec...\n      PUSH 40\t\t\tfunction claim(uint256 _collec...\n      MLOAD \t\t\tfunction claim(uint256 _collec...\n      DUP1 \t\t\tfunction claim(uint256 _collec...\n      SWAP2 \t\t\tfunction claim(uint256 _collec...\n      SUB \t\t\tfunction claim(uint256 _collec...\n      SWAP1 \t\t\tfunction claim(uint256 _collec...\n      RETURN \t\t\tfunction claim(uint256 _collec...\n    tag 22\t\t\toID[collection];\\r\\n        //...\n      JUMPDEST \t\t\toID[collection];\\r\\n        //...\n      PUSH [tag] 110\t\t\toID[collection];\\r\\n        //...\n      PUSH 4\t\t\toID[collection];\\r\\n        //...\n      DUP1 \t\t\toID[collection];\\r\\n        //...\n      CALLDATASIZE \t\t\toID[collection];\\r\\n        //...\n      SUB \t\t\toID[collection];\\r\\n        //...\n      DUP2 \t\t\toID[collection];\\r\\n        //...\n      ADD \t\t\toID[collection];\\r\\n        //...\n      SWAP1 \t\t\toID[collection];\\r\\n        //...\n      PUSH [tag] 111\t\t\toID[collection];\\r\\n        //...\n      SWAP2 \t\t\toID[collection];\\r\\n        //...\n      SWAP1 \t\t\toID[collection];\\r\\n        //...\n      PUSH [tag] 112\t\t\toID[collection];\\r\\n        //...\n      JUMP \t\t\toID[collection];\\r\\n        //...\n    tag 111\t\t\toID[collection];\\r\\n        //...\n      JUMPDEST \t\t\toID[collection];\\r\\n        //...\n      PUSH [tag] 113\t\t\toID[collection];\\r\\n        //...\n      JUMP \t\t\toID[collection];\\r\\n        //...\n    tag 110\t\t\toID[collection];\\r\\n        //...\n      JUMPDEST \t\t\toID[collection];\\r\\n        //...\n      PUSH 40\t\t\toID[collection];\\r\\n        //...\n      MLOAD \t\t\toID[collection];\\r\\n        //...\n      PUSH [tag] 114\t\t\toID[collection];\\r\\n        //...\n      SWAP2 \t\t\toID[collection];\\r\\n        //...\n      SWAP1 \t\t\toID[collection];\\r\\n        //...\n      PUSH [tag] 40\t\t\toID[collection];\\r\\n        //...\n      JUMP \t\t\toID[collection];\\r\\n        //...\n    tag 114\t\t\toID[collection];\\r\\n        //...\n      JUMPDEST \t\t\toID[collection];\\r\\n        //...\n      PUSH 40\t\t\toID[collection];\\r\\n        //...\n      MLOAD \t\t\toID[collection];\\r\\n        //...\n      DUP1 \t\t\toID[collection];\\r\\n        //...\n      SWAP2 \t\t\toID[collection];\\r\\n        //...\n      SUB \t\t\toID[collection];\\r\\n        //...\n      SWAP1 \t\t\toID[collection];\\r\\n        //...\n      RETURN \t\t\toID[collection];\\r\\n        //...\n    tag 23\t\t\tfunction water(uint256 _collec...\n      JUMPDEST \t\t\tfunction water(uint256 _collec...\n      PUSH [tag] 115\t\t\tfunction water(uint256 _collec...\n      PUSH 4\t\t\tfunction water(uint256 _collec...\n      DUP1 \t\t\tfunction water(uint256 _collec...\n      CALLDATASIZE \t\t\tfunction water(uint256 _collec...\n      SUB \t\t\tfunction water(uint256 _collec...\n      DUP2 \t\t\tfunction water(uint256 _collec...\n      ADD \t\t\tfunction water(uint256 _collec...\n      SWAP1 \t\t\tfunction water(uint256 _collec...\n      PUSH [tag] 116\t\t\tfunction water(uint256 _collec...\n      SWAP2 \t\t\tfunction water(uint256 _collec...\n      SWAP1 \t\t\tfunction water(uint256 _collec...\n      PUSH [tag] 43\t\t\tfunction water(uint256 _collec...\n      JUMP \t\t\tfunction water(uint256 _collec...\n    tag 116\t\t\tfunction water(uint256 _collec...\n      JUMPDEST \t\t\tfunction water(uint256 _collec...\n      PUSH [tag] 117\t\t\tfunction water(uint256 _collec...\n      JUMP \t\t\tfunction water(uint256 _collec...\n    tag 115\t\t\tfunction water(uint256 _collec...\n      JUMPDEST \t\t\tfunction water(uint256 _collec...\n      PUSH 40\t\t\tfunction water(uint256 _collec...\n      MLOAD \t\t\tfunction water(uint256 _collec...\n      PUSH [tag] 118\t\t\tfunction water(uint256 _collec...\n      SWAP2 \t\t\tfunction water(uint256 _collec...\n      SWAP1 \t\t\tfunction water(uint256 _collec...\n      PUSH [tag] 36\t\t\tfunction water(uint256 _collec...\n      JUMP \t\t\tfunction water(uint256 _collec...\n    tag 118\t\t\tfunction water(uint256 _collec...\n      JUMPDEST \t\t\tfunction water(uint256 _collec...\n      PUSH 40\t\t\tfunction water(uint256 _collec...\n      MLOAD \t\t\tfunction water(uint256 _collec...\n      DUP1 \t\t\tfunction water(uint256 _collec...\n      SWAP2 \t\t\tfunction water(uint256 _collec...\n      SUB \t\t\tfunction water(uint256 _collec...\n      SWAP1 \t\t\tfunction water(uint256 _collec...\n      RETURN \t\t\tfunction water(uint256 _collec...\n    tag 28\t\t\tblic returns(bool) {\\r\\n\\r\\n  ...\n      JUMPDEST \t\t\tblic returns(bool) {\\r\\n\\r\\n  ...\n      PUSH 60\t\t\tlection = Tre\n      PUSH 3\t\t\tlecti\n      DUP1 \t\t\ttreecollecti\n      SLOAD \t\t\ttreecollecti\n      PUSH [tag] 120\t\t\ttreecollecti\n      SWAP1 \t\t\ttreecollecti\n      PUSH [tag] 121\t\t\ttreecollecti\n      JUMP \t\t\ttreecollecti\n    tag 120\t\t\ttreecollecti\n      JUMPDEST \t\t\ttreecollecti\n      DUP1 \t\t\ttreecollecti\n      PUSH 1F\t\t\ttreecollecti\n      ADD \t\t\ttreecollecti\n      PUSH 20\t\t\ttreecollecti\n      DUP1 \t\t\ttreecollecti\n      SWAP2 \t\t\ttreecollecti\n      DIV \t\t\ttreecollecti\n      MUL \t\t\ttreecollecti\n      PUSH 20\t\t\ttreecollecti\n      ADD \t\t\ttreecollecti\n      PUSH 40\t\t\ttreecollecti\n      MLOAD \t\t\ttreecollecti\n      SWAP1 \t\t\ttreecollecti\n      DUP2 \t\t\ttreecollecti\n      ADD \t\t\ttreecollecti\n      PUSH 40\t\t\ttreecollecti\n      MSTORE \t\t\ttreecollecti\n      DUP1 \t\t\ttreecollecti\n      SWAP3 \t\t\ttreecollecti\n      SWAP2 \t\t\ttreecollecti\n      SWAP1 \t\t\ttreecollecti\n      DUP2 \t\t\ttreecollecti\n      DUP2 \t\t\ttreecollecti\n      MSTORE \t\t\ttreecollecti\n      PUSH 20\t\t\ttreecollecti\n      ADD \t\t\ttreecollecti\n      DUP3 \t\t\ttreecollecti\n      DUP1 \t\t\ttreecollecti\n      SLOAD \t\t\ttreecollecti\n      PUSH [tag] 122\t\t\ttreecollecti\n      SWAP1 \t\t\ttreecollecti\n      PUSH [tag] 121\t\t\ttreecollecti\n      JUMP \t\t\ttreecollecti\n    tag 122\t\t\ttreecollecti\n      JUMPDEST \t\t\ttreecollecti\n      DUP1 \t\t\ttreecollecti\n      ISZERO \t\t\ttreecollecti\n      PUSH [tag] 123\t\t\ttreecollecti\n      JUMPI \t\t\ttreecollecti\n      DUP1 \t\t\ttreecollecti\n      PUSH 1F\t\t\ttreecollecti\n      LT \t\t\ttreecollecti\n      PUSH [tag] 124\t\t\ttreecollecti\n      JUMPI \t\t\ttreecollecti\n      PUSH 100\t\t\ttreecollecti\n      DUP1 \t\t\ttreecollecti\n      DUP4 \t\t\ttreecollecti\n      SLOAD \t\t\ttreecollecti\n      DIV \t\t\ttreecollecti\n      MUL \t\t\ttreecollecti\n      DUP4 \t\t\ttreecollecti\n      MSTORE \t\t\ttreecollecti\n      SWAP2 \t\t\ttreecollecti\n      PUSH 20\t\t\ttreecollecti\n      ADD \t\t\ttreecollecti\n      SWAP2 \t\t\ttreecollecti\n      PUSH [tag] 123\t\t\ttreecollecti\n      JUMP \t\t\ttreecollecti\n    tag 124\t\t\ttreecollecti\n      JUMPDEST \t\t\ttreecollecti\n      DUP3 \t\t\ttreecollecti\n      ADD \t\t\ttreecollecti\n      SWAP2 \t\t\ttreecollecti\n      SWAP1 \t\t\ttreecollecti\n      PUSH 0\t\t\ttreecollecti\n      MSTORE \t\t\ttreecollecti\n      PUSH 20\t\t\ttreecollecti\n      PUSH 0\t\t\ttreecollecti\n      KECCAK256 \t\t\ttreecollecti\n      SWAP1 \t\t\ttreecollecti\n    tag 125\t\t\ttreecollecti\n      JUMPDEST \t\t\ttreecollecti\n      DUP2 \t\t\ttreecollecti\n      SLOAD \t\t\ttreecollecti\n      DUP2 \t\t\ttreecollecti\n      MSTORE \t\t\ttreecollecti\n      SWAP1 \t\t\ttreecollecti\n      PUSH 1\t\t\ttreecollecti\n      ADD \t\t\ttreecollecti\n      SWAP1 \t\t\ttreecollecti\n      PUSH 20\t\t\ttreecollecti\n      ADD \t\t\ttreecollecti\n      DUP1 \t\t\ttreecollecti\n      DUP4 \t\t\ttreecollecti\n      GT \t\t\ttreecollecti\n      PUSH [tag] 125\t\t\ttreecollecti\n      JUMPI \t\t\ttreecollecti\n      DUP3 \t\t\ttreecollecti\n      SWAP1 \t\t\ttreecollecti\n      SUB \t\t\ttreecollecti\n      PUSH 1F\t\t\ttreecollecti\n      AND \t\t\ttreecollecti\n      DUP3 \t\t\ttreecollecti\n      ADD \t\t\ttreecollecti\n      SWAP2 \t\t\ttreecollecti\n    tag 123\t\t\ttreecollecti\n      JUMPDEST \t\t\ttreecollecti\n      POP \t\t\ttreecollecti\n      POP \t\t\ttreecollecti\n      POP \t\t\ttreecollecti\n      POP \t\t\ttreecollecti\n      POP \t\t\ttreecollecti\n      SWAP1 \t\t\ttreecollecti\n      POP \t\t\ttreecollecti\n      SWAP1 \t\t\tblic returns(bool) {\\r\\n\\r\\n  ...\n      JUMP \t\t\tblic returns(bool) {\\r\\n\\r\\n  ...\n    tag 34\t\t\t\n      JUMPDEST \t\t\t\n      PUSH 0\t\t\t\n      DUP1 \t\t\t\n      PUSH [tag] 127\t\t\t\n      PUSH [tag] 128\t\t\t\n      JUMP \t\t\t\n    tag 127\t\t\t\n      JUMPDEST \t\t\t\n      SWAP1 \t\t\t\n      POP \t\t\t\n      PUSH [tag] 129\t\t\t\n      DUP2 \t\t\t\n      DUP6 \t\t\t\n      DUP6 \t\t\t\n      PUSH [tag] 130\t\t\t\n      JUMP \t\t\t\n    tag 129\t\t\t\n      JUMPDEST \t\t\t\n      PUSH 1\t\t\t\n      SWAP2 \t\t\t\n      POP \t\t\t\n      POP \t\t\t\n      SWAP3 \t\t\t\n      SWAP2 \t\t\t\n      POP \t\t\t\n      POP \t\t\t\n      JUMP \t\t\t\n    tag 38\t\t\t.timestamp;\\r\\n        userTre...\n      JUMPDEST \t\t\t.timestamp;\\r\\n        userTre...\n      PUSH 0\t\t\tenID].t\n      PUSH 2\t\t\t\\n        min\n      SLOAD \t\t\t\\n        min\n      SWAP1 \t\t\t += 5;\\r\\n        min\n      POP \t\t\t += 5;\\r\\n        min\n      SWAP1 \t\t\t.timestamp;\\r\\n        userTre...\n      JUMP \t\t\t.timestamp;\\r\\n        userTre...\n    tag 44\t\t\tfunction getTreeDetails(uint25...\n      JUMPDEST \t\t\tfunction getTreeDetails(uint25...\n      PUSH [tag] 132\t\t\tTreeDetails memory\n      PUSH [tag] 133\t\t\tTreeDetails memory\n      JUMP \t\t\tTreeDetails memory\n    tag 132\t\t\tTreeDetails memory\n      JUMPDEST \t\t\tTreeDetails memory\n      PUSH 8\t\t\tuserTree\n      PUSH 0\t\t\tuserTree[collectionId]\n      DUP5 \t\t\tcollectionId\n      DUP2 \t\t\tuserTree[collectionId]\n      MSTORE \t\t\tuserTree[collectionId]\n      PUSH 20\t\t\tuserTree[collectionId]\n      ADD \t\t\tuserTree[collectionId]\n      SWAP1 \t\t\tuserTree[collectionId]\n      DUP2 \t\t\tuserTree[collectionId]\n      MSTORE \t\t\tuserTree[collectionId]\n      PUSH 20\t\t\tuserTree[collectionId]\n      ADD \t\t\tuserTree[collectionId]\n      PUSH 0\t\t\tuserTree[collectionId]\n      KECCAK256 \t\t\tuserTree[collectionId]\n      PUSH 0\t\t\tuserTree[collectionId].treeDet...\n      ADD \t\t\tuserTree[collectionId].treeDet...\n      PUSH 0\t\t\tuserTree[collectionId].treeDet...\n      DUP4 \t\t\ttokenId\n      DUP2 \t\t\tuserTree[collectionId].treeDet...\n      MSTORE \t\t\tuserTree[collectionId].treeDet...\n      PUSH 20\t\t\tuserTree[collectionId].treeDet...\n      ADD \t\t\tuserTree[collectionId].treeDet...\n      SWAP1 \t\t\tuserTree[collectionId].treeDet...\n      DUP2 \t\t\tuserTree[collectionId].treeDet...\n      MSTORE \t\t\tuserTree[collectionId].treeDet...\n      PUSH 20\t\t\tuserTree[collectionId].treeDet...\n      ADD \t\t\tuserTree[collectionId].treeDet...\n      PUSH 0\t\t\tuserTree[collectionId].treeDet...\n      KECCAK256 \t\t\tuserTree[collectionId].treeDet...\n      PUSH 40\t\t\treturn userTree[collectionId]....\n      MLOAD \t\t\treturn userTree[collectionId]....\n      DUP1 \t\t\treturn userTree[collectionId]....\n      PUSH 80\t\t\treturn userTree[collectionId]....\n      ADD \t\t\treturn userTree[collectionId]....\n      PUSH 40\t\t\treturn userTree[collectionId]....\n      MSTORE \t\t\treturn userTree[collectionId]....\n      SWAP1 \t\t\treturn userTree[collectionId]....\n      DUP2 \t\t\treturn userTree[collectionId]....\n      PUSH 0\t\t\treturn userTree[collectionId]....\n      DUP3 \t\t\treturn userTree[collectionId]....\n      ADD \t\t\treturn userTree[collectionId]....\n      SLOAD \t\t\treturn userTree[collectionId]....\n      DUP2 \t\t\treturn userTree[collectionId]....\n      MSTORE \t\t\treturn userTree[collectionId]....\n      PUSH 20\t\t\treturn userTree[collectionId]....\n      ADD \t\t\treturn userTree[collectionId]....\n      PUSH 1\t\t\treturn userTree[collectionId]....\n      DUP3 \t\t\treturn userTree[collectionId]....\n      ADD \t\t\treturn userTree[collectionId]....\n      SLOAD \t\t\treturn userTree[collectionId]....\n      DUP2 \t\t\treturn userTree[collectionId]....\n      MSTORE \t\t\treturn userTree[collectionId]....\n      PUSH 20\t\t\treturn userTree[collectionId]....\n      ADD \t\t\treturn userTree[collectionId]....\n      PUSH 2\t\t\treturn userTree[collectionId]....\n      DUP3 \t\t\treturn userTree[collectionId]....\n      ADD \t\t\treturn userTree[collectionId]....\n      SLOAD \t\t\treturn userTree[collectionId]....\n      DUP2 \t\t\treturn userTree[collectionId]....\n      MSTORE \t\t\treturn userTree[collectionId]....\n      PUSH 20\t\t\treturn userTree[collectionId]....\n      ADD \t\t\treturn userTree[collectionId]....\n      PUSH 3\t\t\treturn userTree[collectionId]....\n      DUP3 \t\t\treturn userTree[collectionId]....\n      ADD \t\t\treturn userTree[collectionId]....\n      SLOAD \t\t\treturn userTree[collectionId]....\n      DUP2 \t\t\treturn userTree[collectionId]....\n      MSTORE \t\t\treturn userTree[collectionId]....\n      POP \t\t\treturn userTree[collectionId]....\n      POP \t\t\treturn userTree[collectionId]....\n      SWAP1 \t\t\treturn userTree[collectionId]....\n      POP \t\t\treturn userTree[collectionId]....\n      SWAP3 \t\t\tfunction getTreeDetails(uint25...\n      SWAP2 \t\t\tfunction getTreeDetails(uint25...\n      POP \t\t\tfunction getTreeDetails(uint25...\n      POP \t\t\tfunction getTreeDetails(uint25...\n      JUMP \t\t\tfunction getTreeDetails(uint25...\n    tag 50\t\t\t\n      JUMPDEST \t\t\t\n      PUSH 0\t\t\t\n      DUP1 \t\t\t\n      PUSH [tag] 136\t\t\t\n      PUSH [tag] 128\t\t\t\n      JUMP \t\t\t\n    tag 136\t\t\t\n      JUMPDEST \t\t\t\n      SWAP1 \t\t\t\n      POP \t\t\t\n      PUSH [tag] 137\t\t\t\n      DUP6 \t\t\t\n      DUP3 \t\t\t\n      DUP6 \t\t\t\n      PUSH [tag] 138\t\t\t\n      JUMP \t\t\t\n    tag 137\t\t\t\n      JUMPDEST \t\t\t\n      PUSH [tag] 139\t\t\t\n      DUP6 \t\t\t\n      DUP6 \t\t\t\n      DUP6 \t\t\t\n      PUSH [tag] 140\t\t\t\n      JUMP \t\t\t\n    tag 139\t\t\t\n      JUMPDEST \t\t\t\n      PUSH 1\t\t\t\n      SWAP2 \t\t\t\n      POP \t\t\t\n      POP \t\t\t\n      SWAP4 \t\t\t\n      SWAP3 \t\t\t\n      POP \t\t\t\n      POP \t\t\t\n      POP \t\t\t\n      JUMP \t\t\t\n    tag 55\t\t\tmapping(TreeCollection => uint...\n      JUMPDEST \t\t\tmapping(TreeCollection => uint...\n      PUSH 7\t\t\tmapping(TreeCollection => uint...\n      PUSH 20\t\t\tmapping(TreeCollection => uint...\n      MSTORE \t\t\tmapping(TreeCollection => uint...\n      DUP1 \t\t\tmapping(TreeCollection => uint...\n      PUSH 0\t\t\tmapping(TreeCollection => uint...\n      MSTORE \t\t\tmapping(TreeCollection => uint...\n      PUSH 40\t\t\tmapping(TreeCollection => uint...\n      PUSH 0\t\t\tmapping(TreeCollection => uint...\n      KECCAK256 \t\t\tmapping(TreeCollection => uint...\n      PUSH 0\t\t\tmapping(TreeCollection => uint...\n      SWAP2 \t\t\tmapping(TreeCollection => uint...\n      POP \t\t\tmapping(TreeCollection => uint...\n      SWAP1 \t\t\tmapping(TreeCollection => uint...\n      POP \t\t\tmapping(TreeCollection => uint...\n      SLOAD \t\t\tmapping(TreeCollection => uint...\n      DUP2 \t\t\tmapping(TreeCollection => uint...\n      JUMP \t\t\tmapping(TreeCollection => uint...\n    tag 60\t\t\tfunction mintNewTreeCollection...\n      JUMPDEST \t\t\tfunction mintNewTreeCollection...\n      PUSHIMMUTABLE 3641\t\t\tadmin\n      PUSH FFFFFFFFFFFFFFFFFFFFFFFFFFFFFFFFFFFFFFFF\t\t\tmsg.sender == admin\n      AND \t\t\tmsg.sender == admin\n      CALLER \t\t\tmsg.sender\n      PUSH FFFFFFFFFFFFFFFFFFFFFFFFFFFFFFFFFFFFFFFF\t\t\tmsg.sender == admin\n      AND \t\t\tmsg.sender == admin\n      EQ \t\t\tmsg.sender == admin\n      PUSH [tag] 142\t\t\trequire(msg.sender == admin, \"...\n      JUMPI \t\t\trequire(msg.sender == admin, \"...\n      PUSH 40\t\t\trequire(msg.sender == admin, \"...\n      MLOAD \t\t\trequire(msg.sender == admin, \"...\n      PUSH 8C379A000000000000000000000000000000000000000000000000000000000\t\t\trequire(msg.sender == admin, \"...\n      DUP2 \t\t\trequire(msg.sender == admin, \"...\n      MSTORE \t\t\trequire(msg.sender == admin, \"...\n      PUSH 4\t\t\trequire(msg.sender == admin, \"...\n      ADD \t\t\trequire(msg.sender == admin, \"...\n      PUSH [tag] 143\t\t\trequire(msg.sender == admin, \"...\n      SWAP1 \t\t\trequire(msg.sender == admin, \"...\n      PUSH [tag] 144\t\t\trequire(msg.sender == admin, \"...\n      JUMP \t\t\trequire(msg.sender == admin, \"...\n    tag 143\t\t\trequire(msg.sender == admin, \"...\n      JUMPDEST \t\t\trequire(msg.sender == admin, \"...\n      PUSH 40\t\t\trequire(msg.sender == admin, \"...\n      MLOAD \t\t\trequire(msg.sender == admin, \"...\n      DUP1 \t\t\trequire(msg.sender == admin, \"...\n      SWAP2 \t\t\trequire(msg.sender == admin, \"...\n      SUB \t\t\trequire(msg.sender == admin, \"...\n      SWAP1 \t\t\trequire(msg.sender == admin, \"...\n      REVERT \t\t\trequire(msg.sender == admin, \"...\n    tag 142\t\t\trequire(msg.sender == admin, \"...\n      JUMPDEST \t\t\trequire(msg.sender == admin, \"...\n      PUSH [tag] 145\t\t\tTreeCollectionCounter.incremen...\n      PUSH 5\t\t\tTreeCollectionCounter\n      PUSH [tag] 146\t\t\tTreeCollectionCounter.incremen...\n      JUMP \t\t\tTreeCollectionCounter.incremen...\n    tag 145\t\t\tTreeCollectionCounter.incremen...\n      JUMPDEST \t\t\tTreeCollectionCounter.incremen...\n      PUSH 0\t\t\tuint256 collectionID\n      PUSH [tag] 147\t\t\tTreeCollectionCounter.current(...\n      PUSH 5\t\t\tTreeCollectionCounter\n      PUSH [tag] 148\t\t\tTreeCollectionCounter.current\n      JUMP \t\t\tTreeCollectionCounter.current(...\n    tag 147\t\t\tTreeCollectionCounter.current(...\n      JUMPDEST \t\t\tTreeCollectionCounter.current(...\n      SWAP1 \t\t\tuint256 collectionID = TreeCol...\n      POP \t\t\tuint256 collectionID = TreeCol...\n      PUSH 0\t\t\tTreeCollection newCollection\n      DUP4 \t\t\tname\n      DUP4 \t\t\tsymbol\n      PUSH 40\t\t\tnew TreeCollection(name, symbo...\n      MLOAD \t\t\tnew TreeCollection(name, symbo...\n      PUSH [tag] 149\t\t\tnew TreeCollection(name, symbo...\n      SWAP1 \t\t\tnew TreeCollection(name, symbo...\n      PUSH [tag] 150\t\t\tnew TreeCollection(name, symbo...\n      JUMP \t\t\tnew TreeCollection(name, symbo...\n    tag 149\t\t\tnew TreeCollection(name, symbo...\n      JUMPDEST \t\t\tnew TreeCollection(name, symbo...\n      PUSH [tag] 151\t\t\tnew TreeCollection(name, symbo...\n      SWAP3 \t\t\tnew TreeCollection(name, symbo...\n      SWAP2 \t\t\tnew TreeCollection(name, symbo...\n      SWAP1 \t\t\tnew TreeCollection(name, symbo...\n      PUSH [tag] 152\t\t\tnew TreeCollection(name, symbo...\n      JUMP \t\t\tnew TreeCollection(name, symbo...\n    tag 151\t\t\tnew TreeCollection(name, symbo...\n      JUMPDEST \t\t\tnew TreeCollection(name, symbo...\n      PUSH 40\t\t\tnew TreeCollection(name, symbo...\n      MLOAD \t\t\tnew TreeCollection(name, symbo...\n      DUP1 \t\t\tnew TreeCollection(name, symbo...\n      SWAP2 \t\t\tnew TreeCollection(name, symbo...\n      SUB \t\t\tnew TreeCollection(name, symbo...\n      SWAP1 \t\t\tnew TreeCollection(name, symbo...\n      PUSH 0\t\t\tnew TreeCollection(name, symbo...\n      CREATE \t\t\tnew TreeCollection(name, symbo...\n      DUP1 \t\t\tnew TreeCollection(name, symbo...\n      ISZERO \t\t\tnew TreeCollection(name, symbo...\n      DUP1 \t\t\tnew TreeCollection(name, symbo...\n      ISZERO \t\t\tnew TreeCollection(name, symbo...\n      PUSH [tag] 153\t\t\tnew TreeCollection(name, symbo...\n      JUMPI \t\t\tnew TreeCollection(name, symbo...\n      RETURNDATASIZE \t\t\tnew TreeCollection(name, symbo...\n      PUSH 0\t\t\tnew TreeCollection(name, symbo...\n      DUP1 \t\t\tnew TreeCollection(name, symbo...\n      RETURNDATACOPY \t\t\tnew TreeCollection(name, symbo...\n      RETURNDATASIZE \t\t\tnew TreeCollection(name, symbo...\n      PUSH 0\t\t\tnew TreeCollection(name, symbo...\n      REVERT \t\t\tnew TreeCollection(name, symbo...\n    tag 153\t\t\tnew TreeCollection(name, symbo...\n      JUMPDEST \t\t\tnew TreeCollection(name, symbo...\n      POP \t\t\tnew TreeCollection(name, symbo...\n      SWAP1 \t\t\tTreeCollection newCollection =...\n      POP \t\t\tTreeCollection newCollection =...\n      DUP1 \t\t\tnewCollection\n      PUSH 6\t\t\ttreecollections\n      PUSH 0\t\t\ttreecollections[collectionID]\n      DUP5 \t\t\tcollectionID\n      DUP2 \t\t\ttreecollections[collectionID]\n      MSTORE \t\t\ttreecollections[collectionID]\n      PUSH 20\t\t\ttreecollections[collectionID]\n      ADD \t\t\ttreecollections[collectionID]\n      SWAP1 \t\t\ttreecollections[collectionID]\n      DUP2 \t\t\ttreecollections[collectionID]\n      MSTORE \t\t\ttreecollections[collectionID]\n      PUSH 20\t\t\ttreecollections[collectionID]\n      ADD \t\t\ttreecollections[collectionID]\n      PUSH 0\t\t\ttreecollections[collectionID]\n      KECCAK256 \t\t\ttreecollections[collectionID]\n      PUSH 0\t\t\ttreecollections[collectionID]\n      PUSH 100\t\t\ttreecollections[collectionID] ...\n      EXP \t\t\ttreecollections[collectionID] ...\n      DUP2 \t\t\ttreecollections[collectionID] ...\n      SLOAD \t\t\ttreecollections[collectionID] ...\n      DUP2 \t\t\ttreecollections[collectionID] ...\n      PUSH FFFFFFFFFFFFFFFFFFFFFFFFFFFFFFFFFFFFFFFF\t\t\ttreecollections[collectionID] ...\n      MUL \t\t\ttreecollections[collectionID] ...\n      NOT \t\t\ttreecollections[collectionID] ...\n      AND \t\t\ttreecollections[collectionID] ...\n      SWAP1 \t\t\ttreecollections[collectionID] ...\n      DUP4 \t\t\ttreecollections[collectionID] ...\n      PUSH FFFFFFFFFFFFFFFFFFFFFFFFFFFFFFFFFFFFFFFF\t\t\ttreecollections[collectionID] ...\n      AND \t\t\ttreecollections[collectionID] ...\n      MUL \t\t\ttreecollections[collectionID] ...\n      OR \t\t\ttreecollections[collectionID] ...\n      SWAP1 \t\t\ttreecollections[collectionID] ...\n      SSTORE \t\t\ttreecollections[collectionID] ...\n      POP \t\t\ttreecollections[collectionID] ...\n      DUP2 \t\t\tcollectionID\n      PUSH 7\t\t\tCollectionToID\n      PUSH 0\t\t\tCollectionToID[newCollection]\n      DUP4 \t\t\tnewCollection\n      PUSH FFFFFFFFFFFFFFFFFFFFFFFFFFFFFFFFFFFFFFFF\t\t\tCollectionToID[newCollection]\n      AND \t\t\tCollectionToID[newCollection]\n      PUSH FFFFFFFFFFFFFFFFFFFFFFFFFFFFFFFFFFFFFFFF\t\t\tCollectionToID[newCollection]\n      AND \t\t\tCollectionToID[newCollection]\n      DUP2 \t\t\tCollectionToID[newCollection]\n      MSTORE \t\t\tCollectionToID[newCollection]\n      PUSH 20\t\t\tCollectionToID[newCollection]\n      ADD \t\t\tCollectionToID[newCollection]\n      SWAP1 \t\t\tCollectionToID[newCollection]\n      DUP2 \t\t\tCollectionToID[newCollection]\n      MSTORE \t\t\tCollectionToID[newCollection]\n      PUSH 20\t\t\tCollectionToID[newCollection]\n      ADD \t\t\tCollectionToID[newCollection]\n      PUSH 0\t\t\tCollectionToID[newCollection]\n      KECCAK256 \t\t\tCollectionToID[newCollection]\n      DUP2 \t\t\tCollectionToID[newCollection] ...\n      SWAP1 \t\t\tCollectionToID[newCollection] ...\n      SSTORE \t\t\tCollectionToID[newCollection] ...\n      POP \t\t\tCollectionToID[newCollection] ...\n      POP \t\t\t{\\r\\n\\r\\n        require(msg.s...\n      POP \t\t\t{\\r\\n\\r\\n        require(msg.s...\n      POP \t\t\tfunction mintNewTreeCollection...\n      POP \t\t\tfunction mintNewTreeCollection...\n      JUMP \t\t\tfunction mintNewTreeCollection...\n    tag 62\t\t\t[_collectionID].treeDetails[_t...\n      JUMPDEST \t\t\t[_collectionID].treeDetails[_t...\n      PUSH 0\t\t\t \"Can\n      PUSH 12\t\t\t  \n      SWAP1 \t\t\t\\n\\r\\n      \n      POP \t\t\t\\n\\r\\n      \n      SWAP1 \t\t\t[_collectionID].treeDetails[_t...\n      JUMP \t\t\t[_collectionID].treeDetails[_t...\n    tag 67\t\t\t\n      JUMPDEST \t\t\t\n      PUSH 0\t\t\t\n      DUP1 \t\t\t\n      PUSH [tag] 156\t\t\t\n      PUSH [tag] 128\t\t\t\n      JUMP \t\t\t\n    tag 156\t\t\t\n      JUMPDEST \t\t\t\n      SWAP1 \t\t\t\n      POP \t\t\t\n      PUSH [tag] 157\t\t\t\n      DUP2 \t\t\t\n      DUP6 \t\t\t\n      DUP6 \t\t\t\n      PUSH [tag] 158\t\t\t\n      DUP6 \t\t\t\n      DUP10 \t\t\t\n      PUSH [tag] 113\t\t\t\n      JUMP \t\t\t\n    tag 158\t\t\t\n      JUMPDEST \t\t\t\n      PUSH [tag] 159\t\t\t\n      SWAP2 \t\t\t\n      SWAP1 \t\t\t\n      PUSH [tag] 160\t\t\t\n      JUMP \t\t\t\n    tag 159\t\t\t\n      JUMPDEST \t\t\t\n      PUSH [tag] 130\t\t\t\n      JUMP \t\t\t\n    tag 157\t\t\t\n      JUMPDEST \t\t\t\n      PUSH 1\t\t\t\n      SWAP2 \t\t\t\n      POP \t\t\t\n      POP \t\t\t\n      SWAP3 \t\t\t\n      SWAP2 \t\t\t\n      POP \t\t\t\n      POP \t\t\t\n      JUMP \t\t\t\n    tag 72\t\t\tfunction mintTree(uint256 coll...\n      JUMPDEST \t\t\tfunction mintTree(uint256 coll...\n      PUSHIMMUTABLE 3639\t\t\tSTNEAR\n      PUSH FFFFFFFFFFFFFFFFFFFFFFFFFFFFFFFFFFFFFFFF\t\t\tSTNEAR.transferFrom\n      AND \t\t\tSTNEAR.transferFrom\n      PUSH 23B872DD\t\t\tSTNEAR.transferFrom\n      CALLER \t\t\tmsg.sender\n      ADDRESS \t\t\tthis\n      PUSH 422CA8B0A00A425000000\t\t\t5 * 10 ** 24\n      PUSH 40\t\t\tSTNEAR.transferFrom(msg.sender...\n      MLOAD \t\t\tSTNEAR.transferFrom(msg.sender...\n      DUP5 \t\t\tSTNEAR.transferFrom(msg.sender...\n      PUSH FFFFFFFF\t\t\tSTNEAR.transferFrom(msg.sender...\n      AND \t\t\tSTNEAR.transferFrom(msg.sender...\n      PUSH E0\t\t\tSTNEAR.transferFrom(msg.sender...\n      SHL \t\t\tSTNEAR.transferFrom(msg.sender...\n      DUP2 \t\t\tSTNEAR.transferFrom(msg.sender...\n      MSTORE \t\t\tSTNEAR.transferFrom(msg.sender...\n      PUSH 4\t\t\tSTNEAR.transferFrom(msg.sender...\n      ADD \t\t\tSTNEAR.transferFrom(msg.sender...\n      PUSH [tag] 162\t\t\tSTNEAR.transferFrom(msg.sender...\n      SWAP4 \t\t\tSTNEAR.transferFrom(msg.sender...\n      SWAP3 \t\t\tSTNEAR.transferFrom(msg.sender...\n      SWAP2 \t\t\tSTNEAR.transferFrom(msg.sender...\n      SWAP1 \t\t\tSTNEAR.transferFrom(msg.sender...\n      PUSH [tag] 163\t\t\tSTNEAR.transferFrom(msg.sender...\n      JUMP \t\t\tSTNEAR.transferFrom(msg.sender...\n    tag 162\t\t\tSTNEAR.transferFrom(msg.sender...\n      JUMPDEST \t\t\tSTNEAR.transferFrom(msg.sender...\n      PUSH 20\t\t\tSTNEAR.transferFrom(msg.sender...\n      PUSH 40\t\t\tSTNEAR.transferFrom(msg.sender...\n      MLOAD \t\t\tSTNEAR.transferFrom(msg.sender...\n      DUP1 \t\t\tSTNEAR.transferFrom(msg.sender...\n      DUP4 \t\t\tSTNEAR.transferFrom(msg.sender...\n      SUB \t\t\tSTNEAR.transferFrom(msg.sender...\n      DUP2 \t\t\tSTNEAR.transferFrom(msg.sender...\n      PUSH 0\t\t\tSTNEAR.transferFrom(msg.sender...\n      DUP8 \t\t\tSTNEAR.transferFrom(msg.sender...\n      GAS \t\t\tSTNEAR.transferFrom(msg.sender...\n      CALL \t\t\tSTNEAR.transferFrom(msg.sender...\n      ISZERO \t\t\tSTNEAR.transferFrom(msg.sender...\n      DUP1 \t\t\tSTNEAR.transferFrom(msg.sender...\n      ISZERO \t\t\tSTNEAR.transferFrom(msg.sender...\n      PUSH [tag] 165\t\t\tSTNEAR.transferFrom(msg.sender...\n      JUMPI \t\t\tSTNEAR.transferFrom(msg.sender...\n      RETURNDATASIZE \t\t\tSTNEAR.transferFrom(msg.sender...\n      PUSH 0\t\t\tSTNEAR.transferFrom(msg.sender...\n      DUP1 \t\t\tSTNEAR.transferFrom(msg.sender...\n      RETURNDATACOPY \t\t\tSTNEAR.transferFrom(msg.sender...\n      RETURNDATASIZE \t\t\tSTNEAR.transferFrom(msg.sender...\n      PUSH 0\t\t\tSTNEAR.transferFrom(msg.sender...\n      REVERT \t\t\tSTNEAR.transferFrom(msg.sender...\n    tag 165\t\t\tSTNEAR.transferFrom(msg.sender...\n      JUMPDEST \t\t\tSTNEAR.transferFrom(msg.sender...\n      POP \t\t\tSTNEAR.transferFrom(msg.sender...\n      POP \t\t\tSTNEAR.transferFrom(msg.sender...\n      POP \t\t\tSTNEAR.transferFrom(msg.sender...\n      POP \t\t\tSTNEAR.transferFrom(msg.sender...\n      PUSH 40\t\t\tSTNEAR.transferFrom(msg.sender...\n      MLOAD \t\t\tSTNEAR.transferFrom(msg.sender...\n      RETURNDATASIZE \t\t\tSTNEAR.transferFrom(msg.sender...\n      PUSH 1F\t\t\tSTNEAR.transferFrom(msg.sender...\n      NOT \t\t\tSTNEAR.transferFrom(msg.sender...\n      PUSH 1F\t\t\tSTNEAR.transferFrom(msg.sender...\n      DUP3 \t\t\tSTNEAR.transferFrom(msg.sender...\n      ADD \t\t\tSTNEAR.transferFrom(msg.sender...\n      AND \t\t\tSTNEAR.transferFrom(msg.sender...\n      DUP3 \t\t\tSTNEAR.transferFrom(msg.sender...\n      ADD \t\t\tSTNEAR.transferFrom(msg.sender...\n      DUP1 \t\t\tSTNEAR.transferFrom(msg.sender...\n      PUSH 40\t\t\tSTNEAR.transferFrom(msg.sender...\n      MSTORE \t\t\tSTNEAR.transferFrom(msg.sender...\n      POP \t\t\tSTNEAR.transferFrom(msg.sender...\n      DUP2 \t\t\tSTNEAR.transferFrom(msg.sender...\n      ADD \t\t\tSTNEAR.transferFrom(msg.sender...\n      SWAP1 \t\t\tSTNEAR.transferFrom(msg.sender...\n      PUSH [tag] 166\t\t\tSTNEAR.transferFrom(msg.sender...\n      SWAP2 \t\t\tSTNEAR.transferFrom(msg.sender...\n      SWAP1 \t\t\tSTNEAR.transferFrom(msg.sender...\n      PUSH [tag] 167\t\t\tSTNEAR.transferFrom(msg.sender...\n      JUMP \t\t\tSTNEAR.transferFrom(msg.sender...\n    tag 166\t\t\tSTNEAR.transferFrom(msg.sender...\n      JUMPDEST \t\t\tSTNEAR.transferFrom(msg.sender...\n      PUSH [tag] 168\t\t\trequire(STNEAR.transferFrom(ms...\n      JUMPI \t\t\trequire(STNEAR.transferFrom(ms...\n      PUSH 40\t\t\trequire(STNEAR.transferFrom(ms...\n      MLOAD \t\t\trequire(STNEAR.transferFrom(ms...\n      PUSH 8C379A000000000000000000000000000000000000000000000000000000000\t\t\trequire(STNEAR.transferFrom(ms...\n      DUP2 \t\t\trequire(STNEAR.transferFrom(ms...\n      MSTORE \t\t\trequire(STNEAR.transferFrom(ms...\n      PUSH 4\t\t\trequire(STNEAR.transferFrom(ms...\n      ADD \t\t\trequire(STNEAR.transferFrom(ms...\n      PUSH [tag] 169\t\t\trequire(STNEAR.transferFrom(ms...\n      SWAP1 \t\t\trequire(STNEAR.transferFrom(ms...\n      PUSH [tag] 170\t\t\trequire(STNEAR.transferFrom(ms...\n      JUMP \t\t\trequire(STNEAR.transferFrom(ms...\n    tag 169\t\t\trequire(STNEAR.transferFrom(ms...\n      JUMPDEST \t\t\trequire(STNEAR.transferFrom(ms...\n      PUSH 40\t\t\trequire(STNEAR.transferFrom(ms...\n      MLOAD \t\t\trequire(STNEAR.transferFrom(ms...\n      DUP1 \t\t\trequire(STNEAR.transferFrom(ms...\n      SWAP2 \t\t\trequire(STNEAR.transferFrom(ms...\n      SUB \t\t\trequire(STNEAR.transferFrom(ms...\n      SWAP1 \t\t\trequire(STNEAR.transferFrom(ms...\n      REVERT \t\t\trequire(STNEAR.transferFrom(ms...\n    tag 168\t\t\trequire(STNEAR.transferFrom(ms...\n      JUMPDEST \t\t\trequire(STNEAR.transferFrom(ms...\n      PUSH 0\t\t\tTreeCollection treecollection\n      PUSH 6\t\t\ttreecollections\n      PUSH 0\t\t\ttreecollections[collectionID]\n      DUP5 \t\t\tcollectionID\n      DUP2 \t\t\ttreecollections[collectionID]\n      MSTORE \t\t\ttreecollections[collectionID]\n      PUSH 20\t\t\ttreecollections[collectionID]\n      ADD \t\t\ttreecollections[collectionID]\n      SWAP1 \t\t\ttreecollections[collectionID]\n      DUP2 \t\t\ttreecollections[collectionID]\n      MSTORE \t\t\ttreecollections[collectionID]\n      PUSH 20\t\t\ttreecollections[collectionID]\n      ADD \t\t\ttreecollections[collectionID]\n      PUSH 0\t\t\ttreecollections[collectionID]\n      KECCAK256 \t\t\ttreecollections[collectionID]\n      PUSH 0\t\t\ttreecollections[collectionID]\n      SWAP1 \t\t\ttreecollections[collectionID]\n      SLOAD \t\t\ttreecollections[collectionID]\n      SWAP1 \t\t\ttreecollections[collectionID]\n      PUSH 100\t\t\ttreecollections[collectionID]\n      EXP \t\t\ttreecollections[collectionID]\n      SWAP1 \t\t\ttreecollections[collectionID]\n      DIV \t\t\ttreecollections[collectionID]\n      PUSH FFFFFFFFFFFFFFFFFFFFFFFFFFFFFFFFFFFFFFFF\t\t\ttreecollections[collectionID]\n      AND \t\t\ttreecollections[collectionID]\n      SWAP1 \t\t\tTreeCollection treecollection ...\n      POP \t\t\tTreeCollection treecollection ...\n      DUP1 \t\t\ttreecollection\n      PUSH FFFFFFFFFFFFFFFFFFFFFFFFFFFFFFFFFFFFFFFF\t\t\ttreecollection.safeMint\n      AND \t\t\ttreecollection.safeMint\n      PUSH D204C45E\t\t\ttreecollection.safeMint\n      CALLER \t\t\tmsg.sender\n      DUP5 \t\t\t_uri\n      PUSH 40\t\t\ttreecollection.safeMint(msg.se...\n      MLOAD \t\t\ttreecollection.safeMint(msg.se...\n      DUP4 \t\t\ttreecollection.safeMint(msg.se...\n      PUSH FFFFFFFF\t\t\ttreecollection.safeMint(msg.se...\n      AND \t\t\ttreecollection.safeMint(msg.se...\n      PUSH E0\t\t\ttreecollection.safeMint(msg.se...\n      SHL \t\t\ttreecollection.safeMint(msg.se...\n      DUP2 \t\t\ttreecollection.safeMint(msg.se...\n      MSTORE \t\t\ttreecollection.safeMint(msg.se...\n      PUSH 4\t\t\ttreecollection.safeMint(msg.se...\n      ADD \t\t\ttreecollection.safeMint(msg.se...\n      PUSH [tag] 171\t\t\ttreecollection.safeMint(msg.se...\n      SWAP3 \t\t\ttreecollection.safeMint(msg.se...\n      SWAP2 \t\t\ttreecollection.safeMint(msg.se...\n      SWAP1 \t\t\ttreecollection.safeMint(msg.se...\n      PUSH [tag] 172\t\t\ttreecollection.safeMint(msg.se...\n      JUMP \t\t\ttreecollection.safeMint(msg.se...\n    tag 171\t\t\ttreecollection.safeMint(msg.se...\n      JUMPDEST \t\t\ttreecollection.safeMint(msg.se...\n      PUSH 0\t\t\ttreecollection.safeMint(msg.se...\n      PUSH 40\t\t\ttreecollection.safeMint(msg.se...\n      MLOAD \t\t\ttreecollection.safeMint(msg.se...\n      DUP1 \t\t\ttreecollection.safeMint(msg.se...\n      DUP4 \t\t\ttreecollection.safeMint(msg.se...\n      SUB \t\t\ttreecollection.safeMint(msg.se...\n      DUP2 \t\t\ttreecollection.safeMint(msg.se...\n      PUSH 0\t\t\ttreecollection.safeMint(msg.se...\n      DUP8 \t\t\ttreecollection.safeMint(msg.se...\n      DUP1 \t\t\ttreecollection.safeMint(msg.se...\n      EXTCODESIZE \t\t\ttreecollection.safeMint(msg.se...\n      ISZERO \t\t\ttreecollection.safeMint(msg.se...\n      DUP1 \t\t\ttreecollection.safeMint(msg.se...\n      ISZERO \t\t\ttreecollection.safeMint(msg.se...\n      PUSH [tag] 173\t\t\ttreecollection.safeMint(msg.se...\n      JUMPI \t\t\ttreecollection.safeMint(msg.se...\n      PUSH 0\t\t\ttreecollection.safeMint(msg.se...\n      DUP1 \t\t\ttreecollection.safeMint(msg.se...\n      REVERT \t\t\ttreecollection.safeMint(msg.se...\n    tag 173\t\t\ttreecollection.safeMint(msg.se...\n      JUMPDEST \t\t\ttreecollection.safeMint(msg.se...\n      POP \t\t\ttreecollection.safeMint(msg.se...\n      GAS \t\t\ttreecollection.safeMint(msg.se...\n      CALL \t\t\ttreecollection.safeMint(msg.se...\n      ISZERO \t\t\ttreecollection.safeMint(msg.se...\n      DUP1 \t\t\ttreecollection.safeMint(msg.se...\n      ISZERO \t\t\ttreecollection.safeMint(msg.se...\n      PUSH [tag] 175\t\t\ttreecollection.safeMint(msg.se...\n      JUMPI \t\t\ttreecollection.safeMint(msg.se...\n      RETURNDATASIZE \t\t\ttreecollection.safeMint(msg.se...\n      PUSH 0\t\t\ttreecollection.safeMint(msg.se...\n      DUP1 \t\t\ttreecollection.safeMint(msg.se...\n      RETURNDATACOPY \t\t\ttreecollection.safeMint(msg.se...\n      RETURNDATASIZE \t\t\ttreecollection.safeMint(msg.se...\n      PUSH 0\t\t\ttreecollection.safeMint(msg.se...\n      REVERT \t\t\ttreecollection.safeMint(msg.se...\n    tag 175\t\t\ttreecollection.safeMint(msg.se...\n      JUMPDEST \t\t\ttreecollection.safeMint(msg.se...\n      POP \t\t\ttreecollection.safeMint(msg.se...\n      POP \t\t\ttreecollection.safeMint(msg.se...\n      POP \t\t\ttreecollection.safeMint(msg.se...\n      POP \t\t\ttreecollection.safeMint(msg.se...\n      PUSH 0\t\t\tuint256 tokenID\n      DUP2 \t\t\ttreecollection\n      PUSH FFFFFFFFFFFFFFFFFFFFFFFFFFFFFFFFFFFFFFFF\t\t\ttreecollection.tokenIdCounter\n      AND \t\t\ttreecollection.tokenIdCounter\n      PUSH 98BDF6F5\t\t\ttreecollection.tokenIdCounter\n      PUSH 40\t\t\ttreecollection.tokenIdCounter(...\n      MLOAD \t\t\ttreecollection.tokenIdCounter(...\n      DUP2 \t\t\ttreecollection.tokenIdCounter(...\n      PUSH FFFFFFFF\t\t\ttreecollection.tokenIdCounter(...\n      AND \t\t\ttreecollection.tokenIdCounter(...\n      PUSH E0\t\t\ttreecollection.tokenIdCounter(...\n      SHL \t\t\ttreecollection.tokenIdCounter(...\n      DUP2 \t\t\ttreecollection.tokenIdCounter(...\n      MSTORE \t\t\ttreecollection.tokenIdCounter(...\n      PUSH 4\t\t\ttreecollection.tokenIdCounter(...\n      ADD \t\t\ttreecollection.tokenIdCounter(...\n      PUSH 20\t\t\ttreecollection.tokenIdCounter(...\n      PUSH 40\t\t\ttreecollection.tokenIdCounter(...\n      MLOAD \t\t\ttreecollection.tokenIdCounter(...\n      DUP1 \t\t\ttreecollection.tokenIdCounter(...\n      DUP4 \t\t\ttreecollection.tokenIdCounter(...\n      SUB \t\t\ttreecollection.tokenIdCounter(...\n      DUP2 \t\t\ttreecollection.tokenIdCounter(...\n      DUP7 \t\t\ttreecollection.tokenIdCounter(...\n      GAS \t\t\ttreecollection.tokenIdCounter(...\n      STATICCALL \t\t\ttreecollection.tokenIdCounter(...\n      ISZERO \t\t\ttreecollection.tokenIdCounter(...\n      DUP1 \t\t\ttreecollection.tokenIdCounter(...\n      ISZERO \t\t\ttreecollection.tokenIdCounter(...\n      PUSH [tag] 177\t\t\ttreecollection.tokenIdCounter(...\n      JUMPI \t\t\ttreecollection.tokenIdCounter(...\n      RETURNDATASIZE \t\t\ttreecollection.tokenIdCounter(...\n      PUSH 0\t\t\ttreecollection.tokenIdCounter(...\n      DUP1 \t\t\ttreecollection.tokenIdCounter(...\n      RETURNDATACOPY \t\t\ttreecollection.tokenIdCounter(...\n      RETURNDATASIZE \t\t\ttreecollection.tokenIdCounter(...\n      PUSH 0\t\t\ttreecollection.tokenIdCounter(...\n      REVERT \t\t\ttreecollection.tokenIdCounter(...\n    tag 177\t\t\ttreecollection.tokenIdCounter(...\n      JUMPDEST \t\t\ttreecollection.tokenIdCounter(...\n      POP \t\t\ttreecollection.tokenIdCounter(...\n      POP \t\t\ttreecollection.tokenIdCounter(...\n      POP \t\t\ttreecollection.tokenIdCounter(...\n      POP \t\t\ttreecollection.tokenIdCounter(...\n      PUSH 40\t\t\ttreecollection.tokenIdCounter(...\n      MLOAD \t\t\ttreecollection.tokenIdCounter(...\n      RETURNDATASIZE \t\t\ttreecollection.tokenIdCounter(...\n      PUSH 1F\t\t\ttreecollection.tokenIdCounter(...\n      NOT \t\t\ttreecollection.tokenIdCounter(...\n      PUSH 1F\t\t\ttreecollection.tokenIdCounter(...\n      DUP3 \t\t\ttreecollection.tokenIdCounter(...\n      ADD \t\t\ttreecollection.tokenIdCounter(...\n      AND \t\t\ttreecollection.tokenIdCounter(...\n      DUP3 \t\t\ttreecollection.tokenIdCounter(...\n      ADD \t\t\ttreecollection.tokenIdCounter(...\n      DUP1 \t\t\ttreecollection.tokenIdCounter(...\n      PUSH 40\t\t\ttreecollection.tokenIdCounter(...\n      MSTORE \t\t\ttreecollection.tokenIdCounter(...\n      POP \t\t\ttreecollection.tokenIdCounter(...\n      DUP2 \t\t\ttreecollection.tokenIdCounter(...\n      ADD \t\t\ttreecollection.tokenIdCounter(...\n      SWAP1 \t\t\ttreecollection.tokenIdCounter(...\n      PUSH [tag] 178\t\t\ttreecollection.tokenIdCounter(...\n      SWAP2 \t\t\ttreecollection.tokenIdCounter(...\n      SWAP1 \t\t\ttreecollection.tokenIdCounter(...\n      PUSH [tag] 179\t\t\ttreecollection.tokenIdCounter(...\n      JUMP \t\t\ttreecollection.tokenIdCounter(...\n    tag 178\t\t\ttreecollection.tokenIdCounter(...\n      JUMPDEST \t\t\ttreecollection.tokenIdCounter(...\n      SWAP1 \t\t\tuint256 tokenID = treecollecti...\n      POP \t\t\tuint256 tokenID = treecollecti...\n      PUSH 40\t\t\tTreeDetails(0, 0, 0, 0)\n      MLOAD \t\t\tTreeDetails(0, 0, 0, 0)\n      DUP1 \t\t\tTreeDetails(0, 0, 0, 0)\n      PUSH 80\t\t\tTreeDetails(0, 0, 0, 0)\n      ADD \t\t\tTreeDetails(0, 0, 0, 0)\n      PUSH 40\t\t\tTreeDetails(0, 0, 0, 0)\n      MSTORE \t\t\tTreeDetails(0, 0, 0, 0)\n      DUP1 \t\t\tTreeDetails(0, 0, 0, 0)\n      PUSH 0\t\t\t0\n      DUP2 \t\t\tTreeDetails(0, 0, 0, 0)\n      MSTORE \t\t\tTreeDetails(0, 0, 0, 0)\n      PUSH 20\t\t\tTreeDetails(0, 0, 0, 0)\n      ADD \t\t\tTreeDetails(0, 0, 0, 0)\n      PUSH 0\t\t\t0\n      DUP2 \t\t\tTreeDetails(0, 0, 0, 0)\n      MSTORE \t\t\tTreeDetails(0, 0, 0, 0)\n      PUSH 20\t\t\tTreeDetails(0, 0, 0, 0)\n      ADD \t\t\tTreeDetails(0, 0, 0, 0)\n      PUSH 0\t\t\t0\n      DUP2 \t\t\tTreeDetails(0, 0, 0, 0)\n      MSTORE \t\t\tTreeDetails(0, 0, 0, 0)\n      PUSH 20\t\t\tTreeDetails(0, 0, 0, 0)\n      ADD \t\t\tTreeDetails(0, 0, 0, 0)\n      PUSH 0\t\t\t0\n      DUP2 \t\t\tTreeDetails(0, 0, 0, 0)\n      MSTORE \t\t\tTreeDetails(0, 0, 0, 0)\n      POP \t\t\tTreeDetails(0, 0, 0, 0)\n      PUSH 8\t\t\tuserTree\n      PUSH 0\t\t\tuserTree[collectionID]\n      DUP7 \t\t\tcollectionID\n      DUP2 \t\t\tuserTree[collectionID]\n      MSTORE \t\t\tuserTree[collectionID]\n      PUSH 20\t\t\tuserTree[collectionID]\n      ADD \t\t\tuserTree[collectionID]\n      SWAP1 \t\t\tuserTree[collectionID]\n      DUP2 \t\t\tuserTree[collectionID]\n      MSTORE \t\t\tuserTree[collectionID]\n      PUSH 20\t\t\tuserTree[collectionID]\n      ADD \t\t\tuserTree[collectionID]\n      PUSH 0\t\t\tuserTree[collectionID]\n      KECCAK256 \t\t\tuserTree[collectionID]\n      PUSH 0\t\t\tuserTree[collectionID].treeDet...\n      ADD \t\t\tuserTree[collectionID].treeDet...\n      PUSH 0\t\t\tuserTree[collectionID].treeDet...\n      DUP4 \t\t\ttokenID\n      DUP2 \t\t\tuserTree[collectionID].treeDet...\n      MSTORE \t\t\tuserTree[collectionID].treeDet...\n      PUSH 20\t\t\tuserTree[collectionID].treeDet...\n      ADD \t\t\tuserTree[collectionID].treeDet...\n      SWAP1 \t\t\tuserTree[collectionID].treeDet...\n      DUP2 \t\t\tuserTree[collectionID].treeDet...\n      MSTORE \t\t\tuserTree[collectionID].treeDet...\n      PUSH 20\t\t\tuserTree[collectionID].treeDet...\n      ADD \t\t\tuserTree[collectionID].treeDet...\n      PUSH 0\t\t\tuserTree[collectionID].treeDet...\n      KECCAK256 \t\t\tuserTree[collectionID].treeDet...\n      PUSH 0\t\t\tuserTree[collectionID].treeDet...\n      DUP3 \t\t\tuserTree[collectionID].treeDet...\n      ADD \t\t\tuserTree[collectionID].treeDet...\n      MLOAD \t\t\tuserTree[collectionID].treeDet...\n      DUP2 \t\t\tuserTree[collectionID].treeDet...\n      PUSH 0\t\t\tuserTree[collectionID].treeDet...\n      ADD \t\t\tuserTree[collectionID].treeDet...\n      SSTORE \t\t\tuserTree[collectionID].treeDet...\n      PUSH 20\t\t\tuserTree[collectionID].treeDet...\n      DUP3 \t\t\tuserTree[collectionID].treeDet...\n      ADD \t\t\tuserTree[collectionID].treeDet...\n      MLOAD \t\t\tuserTree[collectionID].treeDet...\n      DUP2 \t\t\tuserTree[collectionID].treeDet...\n      PUSH 1\t\t\tuserTree[collectionID].treeDet...\n      ADD \t\t\tuserTree[collectionID].treeDet...\n      SSTORE \t\t\tuserTree[collectionID].treeDet...\n      PUSH 40\t\t\tuserTree[collectionID].treeDet...\n      DUP3 \t\t\tuserTree[collectionID].treeDet...\n      ADD \t\t\tuserTree[collectionID].treeDet...\n      MLOAD \t\t\tuserTree[collectionID].treeDet...\n      DUP2 \t\t\tuserTree[collectionID].treeDet...\n      PUSH 2\t\t\tuserTree[collectionID].treeDet...\n      ADD \t\t\tuserTree[collectionID].treeDet...\n      SSTORE \t\t\tuserTree[collectionID].treeDet...\n      PUSH 60\t\t\tuserTree[collectionID].treeDet...\n      DUP3 \t\t\tuserTree[collectionID].treeDet...\n      ADD \t\t\tuserTree[collectionID].treeDet...\n      MLOAD \t\t\tuserTree[collectionID].treeDet...\n      DUP2 \t\t\tuserTree[collectionID].treeDet...\n      PUSH 3\t\t\tuserTree[collectionID].treeDet...\n      ADD \t\t\tuserTree[collectionID].treeDet...\n      SSTORE \t\t\tuserTree[collectionID].treeDet...\n      SWAP1 \t\t\tuserTree[collectionID].treeDet...\n      POP \t\t\tuserTree[collectionID].treeDet...\n      POP \t\t\tuserTree[collectionID].treeDet...\n      POP \t\t\t{\\r\\n\\r\\n        require(STNEA...\n      POP \t\t\t{\\r\\n\\r\\n        require(STNEA...\n      POP \t\t\tfunction mintTree(uint256 coll...\n      POP \t\t\tfunction mintTree(uint256 coll...\n      JUMP \t\t\tfunction mintTree(uint256 coll...\n    tag 75\t\t\tfunction getCollectionID(TreeC...\n      JUMPDEST \t\t\tfunction getCollectionID(TreeC...\n      PUSH 0\t\t\tuint256\n      PUSH 7\t\t\tCollectionToID\n      PUSH 0\t\t\tCollectionToID[collection]\n      DUP4 \t\t\tcollection\n      PUSH FFFFFFFFFFFFFFFFFFFFFFFFFFFFFFFFFFFFFFFF\t\t\tCollectionToID[collection]\n      AND \t\t\tCollectionToID[collection]\n      PUSH FFFFFFFFFFFFFFFFFFFFFFFFFFFFFFFFFFFFFFFF\t\t\tCollectionToID[collection]\n      AND \t\t\tCollectionToID[collection]\n      DUP2 \t\t\tCollectionToID[collection]\n      MSTORE \t\t\tCollectionToID[collection]\n      PUSH 20\t\t\tCollectionToID[collection]\n      ADD \t\t\tCollectionToID[collection]\n      SWAP1 \t\t\tCollectionToID[collection]\n      DUP2 \t\t\tCollectionToID[collection]\n      MSTORE \t\t\tCollectionToID[collection]\n      PUSH 20\t\t\tCollectionToID[collection]\n      ADD \t\t\tCollectionToID[collection]\n      PUSH 0\t\t\tCollectionToID[collection]\n      KECCAK256 \t\t\tCollectionToID[collection]\n      SLOAD \t\t\tCollectionToID[collection]\n      SWAP1 \t\t\treturn CollectionToID[collecti...\n      POP \t\t\treturn CollectionToID[collecti...\n      SWAP2 \t\t\tfunction getCollectionID(TreeC...\n      SWAP1 \t\t\tfunction getCollectionID(TreeC...\n      POP \t\t\tfunction getCollectionID(TreeC...\n      JUMP \t\t\tfunction getCollectionID(TreeC...\n    tag 80\t\t\tfunction returnNFTcount(uint25...\n      JUMPDEST \t\t\tfunction returnNFTcount(uint25...\n      PUSH 0\t\t\tuint256\n      PUSH 6\t\t\ttreecollections\n      PUSH 0\t\t\ttreecollections[collectionID]\n      DUP4 \t\t\tcollectionID\n      DUP2 \t\t\ttreecollections[collectionID]\n      MSTORE \t\t\ttreecollections[collectionID]\n      PUSH 20\t\t\ttreecollections[collectionID]\n      ADD \t\t\ttreecollections[collectionID]\n      SWAP1 \t\t\ttreecollections[collectionID]\n      DUP2 \t\t\ttreecollections[collectionID]\n      MSTORE \t\t\ttreecollections[collectionID]\n      PUSH 20\t\t\ttreecollections[collectionID]\n      ADD \t\t\ttreecollections[collectionID]\n      PUSH 0\t\t\ttreecollections[collectionID]\n      KECCAK256 \t\t\ttreecollections[collectionID]\n      PUSH 0\t\t\ttreecollections[collectionID]\n      SWAP1 \t\t\ttreecollections[collectionID]\n      SLOAD \t\t\ttreecollections[collectionID]\n      SWAP1 \t\t\ttreecollections[collectionID]\n      PUSH 100\t\t\ttreecollections[collectionID]\n      EXP \t\t\ttreecollections[collectionID]\n      SWAP1 \t\t\ttreecollections[collectionID]\n      DIV \t\t\ttreecollections[collectionID]\n      PUSH FFFFFFFFFFFFFFFFFFFFFFFFFFFFFFFFFFFFFFFF\t\t\ttreecollections[collectionID]\n      AND \t\t\ttreecollections[collectionID]\n      PUSH FFFFFFFFFFFFFFFFFFFFFFFFFFFFFFFFFFFFFFFF\t\t\ttreecollections[collectionID]....\n      AND \t\t\ttreecollections[collectionID]....\n      PUSH 98BDF6F5\t\t\ttreecollections[collectionID]....\n      PUSH 40\t\t\ttreecollections[collectionID]....\n      MLOAD \t\t\ttreecollections[collectionID]....\n      DUP2 \t\t\ttreecollections[collectionID]....\n      PUSH FFFFFFFF\t\t\ttreecollections[collectionID]....\n      AND \t\t\ttreecollections[collectionID]....\n      PUSH E0\t\t\ttreecollections[collectionID]....\n      SHL \t\t\ttreecollections[collectionID]....\n      DUP2 \t\t\ttreecollections[collectionID]....\n      MSTORE \t\t\ttreecollections[collectionID]....\n      PUSH 4\t\t\ttreecollections[collectionID]....\n      ADD \t\t\ttreecollections[collectionID]....\n      PUSH 20\t\t\ttreecollections[collectionID]....\n      PUSH 40\t\t\ttreecollections[collectionID]....\n      MLOAD \t\t\ttreecollections[collectionID]....\n      DUP1 \t\t\ttreecollections[collectionID]....\n      DUP4 \t\t\ttreecollections[collectionID]....\n      SUB \t\t\ttreecollections[collectionID]....\n      DUP2 \t\t\ttreecollections[collectionID]....\n      DUP7 \t\t\ttreecollections[collectionID]....\n      GAS \t\t\ttreecollections[collectionID]....\n      STATICCALL \t\t\ttreecollections[collectionID]....\n      ISZERO \t\t\ttreecollections[collectionID]....\n      DUP1 \t\t\ttreecollections[collectionID]....\n      ISZERO \t\t\ttreecollections[collectionID]....\n      PUSH [tag] 183\t\t\ttreecollections[collectionID]....\n      JUMPI \t\t\ttreecollections[collectionID]....\n      RETURNDATASIZE \t\t\ttreecollections[collectionID]....\n      PUSH 0\t\t\ttreecollections[collectionID]....\n      DUP1 \t\t\ttreecollections[collectionID]....\n      RETURNDATACOPY \t\t\ttreecollections[collectionID]....\n      RETURNDATASIZE \t\t\ttreecollections[collectionID]....\n      PUSH 0\t\t\ttreecollections[collectionID]....\n      REVERT \t\t\ttreecollections[collectionID]....\n    tag 183\t\t\ttreecollections[collectionID]....\n      JUMPDEST \t\t\ttreecollections[collectionID]....\n      POP \t\t\ttreecollections[collectionID]....\n      POP \t\t\ttreecollections[collectionID]....\n      POP \t\t\ttreecollections[collectionID]....\n      POP \t\t\ttreecollections[collectionID]....\n      PUSH 40\t\t\ttreecollections[collectionID]....\n      MLOAD \t\t\ttreecollections[collectionID]....\n      RETURNDATASIZE \t\t\ttreecollections[collectionID]....\n      PUSH 1F\t\t\ttreecollections[collectionID]....\n      NOT \t\t\ttreecollections[collectionID]....\n      PUSH 1F\t\t\ttreecollections[collectionID]....\n      DUP3 \t\t\ttreecollections[collectionID]....\n      ADD \t\t\ttreecollections[collectionID]....\n      AND \t\t\ttreecollections[collectionID]....\n      DUP3 \t\t\ttreecollections[collectionID]....\n      ADD \t\t\ttreecollections[collectionID]....\n      DUP1 \t\t\ttreecollections[collectionID]....\n      PUSH 40\t\t\ttreecollections[collectionID]....\n      MSTORE \t\t\ttreecollections[collectionID]....\n      POP \t\t\ttreecollections[collectionID]....\n      DUP2 \t\t\ttreecollections[collectionID]....\n      ADD \t\t\ttreecollections[collectionID]....\n      SWAP1 \t\t\ttreecollections[collectionID]....\n      PUSH [tag] 184\t\t\ttreecollections[collectionID]....\n      SWAP2 \t\t\ttreecollections[collectionID]....\n      SWAP1 \t\t\ttreecollections[collectionID]....\n      PUSH [tag] 179\t\t\ttreecollections[collectionID]....\n      JUMP \t\t\ttreecollections[collectionID]....\n    tag 184\t\t\ttreecollections[collectionID]....\n      JUMPDEST \t\t\ttreecollections[collectionID]....\n      SWAP1 \t\t\treturn (treecollections[collec...\n      POP \t\t\treturn (treecollections[collec...\n      SWAP2 \t\t\tfunction returnNFTcount(uint25...\n      SWAP1 \t\t\tfunction returnNFTcount(uint25...\n      POP \t\t\tfunction returnNFTcount(uint25...\n      JUMP \t\t\tfunction returnNFTcount(uint25...\n    tag 85\t\t\t  function getTreeDetails(uint...\n      JUMPDEST \t\t\t  function getTreeDetails(uint...\n      PUSH 0\t\t\tew retu\n      DUP1 \t\t\tory) {\\r\\n \n      PUSH 0\t\t\tory) {\\r\\n        re\n      DUP4 \t\t\t      r\n      PUSH FFFFFFFFFFFFFFFFFFFFFFFFFFFFFFFFFFFFFFFF\t\t\tory) {\\r\\n        re\n      AND \t\t\tory) {\\r\\n        re\n      PUSH FFFFFFFFFFFFFFFFFFFFFFFFFFFFFFFFFFFFFFFF\t\t\tory) {\\r\\n        re\n      AND \t\t\tory) {\\r\\n        re\n      DUP2 \t\t\tory) {\\r\\n        re\n      MSTORE \t\t\tory) {\\r\\n        re\n      PUSH 20\t\t\tory) {\\r\\n        re\n      ADD \t\t\tory) {\\r\\n        re\n      SWAP1 \t\t\tory) {\\r\\n        re\n      DUP2 \t\t\tory) {\\r\\n        re\n      MSTORE \t\t\tory) {\\r\\n        re\n      PUSH 20\t\t\tory) {\\r\\n        re\n      ADD \t\t\tory) {\\r\\n        re\n      PUSH 0\t\t\tory) {\\r\\n        re\n      KECCAK256 \t\t\tory) {\\r\\n        re\n      SLOAD \t\t\tory) {\\r\\n        re\n      SWAP1 \t\t\tils memory) {\\r\\n        re\n      POP \t\t\tils memory) {\\r\\n        re\n      SWAP2 \t\t\t  function getTreeDetails(uint...\n      SWAP1 \t\t\t  function getTreeDetails(uint...\n      POP \t\t\t  function getTreeDetails(uint...\n      JUMP \t\t\t  function getTreeDetails(uint...\n    tag 88\t\t\t     require(STNEAR.transferFr...\n      JUMPDEST \t\t\t     require(STNEAR.transferFr...\n      PUSH 60\t\t\ts), 1 * 10 **\n      PUSH 4\t\t\tsferFro\n      DUP1 \t\t\tR: transferFro\n      SLOAD \t\t\tR: transferFro\n      PUSH [tag] 187\t\t\tR: transferFro\n      SWAP1 \t\t\tR: transferFro\n      PUSH [tag] 121\t\t\tR: transferFro\n      JUMP \t\t\tR: transferFro\n    tag 187\t\t\tR: transferFro\n      JUMPDEST \t\t\tR: transferFro\n      DUP1 \t\t\tR: transferFro\n      PUSH 1F\t\t\tR: transferFro\n      ADD \t\t\tR: transferFro\n      PUSH 20\t\t\tR: transferFro\n      DUP1 \t\t\tR: transferFro\n      SWAP2 \t\t\tR: transferFro\n      DIV \t\t\tR: transferFro\n      MUL \t\t\tR: transferFro\n      PUSH 20\t\t\tR: transferFro\n      ADD \t\t\tR: transferFro\n      PUSH 40\t\t\tR: transferFro\n      MLOAD \t\t\tR: transferFro\n      SWAP1 \t\t\tR: transferFro\n      DUP2 \t\t\tR: transferFro\n      ADD \t\t\tR: transferFro\n      PUSH 40\t\t\tR: transferFro\n      MSTORE \t\t\tR: transferFro\n      DUP1 \t\t\tR: transferFro\n      SWAP3 \t\t\tR: transferFro\n      SWAP2 \t\t\tR: transferFro\n      SWAP1 \t\t\tR: transferFro\n      DUP2 \t\t\tR: transferFro\n      DUP2 \t\t\tR: transferFro\n      MSTORE \t\t\tR: transferFro\n      PUSH 20\t\t\tR: transferFro\n      ADD \t\t\tR: transferFro\n      DUP3 \t\t\tR: transferFro\n      DUP1 \t\t\tR: transferFro\n      SLOAD \t\t\tR: transferFro\n      PUSH [tag] 188\t\t\tR: transferFro\n      SWAP1 \t\t\tR: transferFro\n      PUSH [tag] 121\t\t\tR: transferFro\n      JUMP \t\t\tR: transferFro\n    tag 188\t\t\tR: transferFro\n      JUMPDEST \t\t\tR: transferFro\n      DUP1 \t\t\tR: transferFro\n      ISZERO \t\t\tR: transferFro\n      PUSH [tag] 189\t\t\tR: transferFro\n      JUMPI \t\t\tR: transferFro\n      DUP1 \t\t\tR: transferFro\n      PUSH 1F\t\t\tR: transferFro\n      LT \t\t\tR: transferFro\n      PUSH [tag] 190\t\t\tR: transferFro\n      JUMPI \t\t\tR: transferFro\n      PUSH 100\t\t\tR: transferFro\n      DUP1 \t\t\tR: transferFro\n      DUP4 \t\t\tR: transferFro\n      SLOAD \t\t\tR: transferFro\n      DIV \t\t\tR: transferFro\n      MUL \t\t\tR: transferFro\n      DUP4 \t\t\tR: transferFro\n      MSTORE \t\t\tR: transferFro\n      SWAP2 \t\t\tR: transferFro\n      PUSH 20\t\t\tR: transferFro\n      ADD \t\t\tR: transferFro\n      SWAP2 \t\t\tR: transferFro\n      PUSH [tag] 189\t\t\tR: transferFro\n      JUMP \t\t\tR: transferFro\n    tag 190\t\t\tR: transferFro\n      JUMPDEST \t\t\tR: transferFro\n      DUP3 \t\t\tR: transferFro\n      ADD \t\t\tR: transferFro\n      SWAP2 \t\t\tR: transferFro\n      SWAP1 \t\t\tR: transferFro\n      PUSH 0\t\t\tR: transferFro\n      MSTORE \t\t\tR: transferFro\n      PUSH 20\t\t\tR: transferFro\n      PUSH 0\t\t\tR: transferFro\n      KECCAK256 \t\t\tR: transferFro\n      SWAP1 \t\t\tR: transferFro\n    tag 191\t\t\tR: transferFro\n      JUMPDEST \t\t\tR: transferFro\n      DUP2 \t\t\tR: transferFro\n      SLOAD \t\t\tR: transferFro\n      DUP2 \t\t\tR: transferFro\n      MSTORE \t\t\tR: transferFro\n      SWAP1 \t\t\tR: transferFro\n      PUSH 1\t\t\tR: transferFro\n      ADD \t\t\tR: transferFro\n      SWAP1 \t\t\tR: transferFro\n      PUSH 20\t\t\tR: transferFro\n      ADD \t\t\tR: transferFro\n      DUP1 \t\t\tR: transferFro\n      DUP4 \t\t\tR: transferFro\n      GT \t\t\tR: transferFro\n      PUSH [tag] 191\t\t\tR: transferFro\n      JUMPI \t\t\tR: transferFro\n      DUP3 \t\t\tR: transferFro\n      SWAP1 \t\t\tR: transferFro\n      SUB \t\t\tR: transferFro\n      PUSH 1F\t\t\tR: transferFro\n      AND \t\t\tR: transferFro\n      DUP3 \t\t\tR: transferFro\n      ADD \t\t\tR: transferFro\n      SWAP2 \t\t\tR: transferFro\n    tag 189\t\t\tR: transferFro\n      JUMPDEST \t\t\tR: transferFro\n      POP \t\t\tR: transferFro\n      POP \t\t\tR: transferFro\n      POP \t\t\tR: transferFro\n      POP \t\t\tR: transferFro\n      POP \t\t\tR: transferFro\n      SWAP1 \t\t\tR: transferFro\n      POP \t\t\tR: transferFro\n      SWAP1 \t\t\t     require(STNEAR.transferFr...\n      JUMP \t\t\t     require(STNEAR.transferFr...\n    tag 92\t\t\t\n      JUMPDEST \t\t\t\n      PUSH 0\t\t\t\n      DUP1 \t\t\t\n      PUSH [tag] 193\t\t\t\n      PUSH [tag] 128\t\t\t\n      JUMP \t\t\t\n    tag 193\t\t\t\n      JUMPDEST \t\t\t\n      SWAP1 \t\t\t\n      POP \t\t\t\n      PUSH 0\t\t\t\n      PUSH [tag] 194\t\t\t\n      DUP3 \t\t\t\n      DUP7 \t\t\t\n      PUSH [tag] 113\t\t\t\n      JUMP \t\t\t\n    tag 194\t\t\t\n      JUMPDEST \t\t\t\n      SWAP1 \t\t\t\n      POP \t\t\t\n      DUP4 \t\t\t\n      DUP2 \t\t\t\n      LT \t\t\t\n      ISZERO \t\t\t\n      PUSH [tag] 195\t\t\t\n      JUMPI \t\t\t\n      PUSH 40\t\t\t\n      MLOAD \t\t\t\n      PUSH 8C379A000000000000000000000000000000000000000000000000000000000\t\t\t\n      DUP2 \t\t\t\n      MSTORE \t\t\t\n      PUSH 4\t\t\t\n      ADD \t\t\t\n      PUSH [tag] 196\t\t\t\n      SWAP1 \t\t\t\n      PUSH [tag] 197\t\t\t\n      JUMP \t\t\t\n    tag 196\t\t\t\n      JUMPDEST \t\t\t\n      PUSH 40\t\t\t\n      MLOAD \t\t\t\n      DUP1 \t\t\t\n      SWAP2 \t\t\t\n      SUB \t\t\t\n      SWAP1 \t\t\t\n      REVERT \t\t\t\n    tag 195\t\t\t\n      JUMPDEST \t\t\t\n      PUSH [tag] 198\t\t\t\n      DUP3 \t\t\t\n      DUP7 \t\t\t\n      DUP7 \t\t\t\n      DUP5 \t\t\t\n      SUB \t\t\t\n      PUSH [tag] 130\t\t\t\n      JUMP \t\t\t\n    tag 198\t\t\t\n      JUMPDEST \t\t\t\n      PUSH 1\t\t\t\n      SWAP3 \t\t\t\n      POP \t\t\t\n      POP \t\t\t\n      POP \t\t\t\n      SWAP3 \t\t\t\n      SWAP2 \t\t\t\n      POP \t\t\t\n      POP \t\t\t\n      JUMP \t\t\t\n    tag 95\t\t\tCounters.Counter public TreeCo...\n      JUMPDEST \t\t\tCounters.Counter public TreeCo...\n      PUSH 5\t\t\tCounters.Counter public TreeCo...\n      DUP1 \t\t\tCounters.Counter public TreeCo...\n      PUSH 0\t\t\tCounters.Counter public TreeCo...\n      ADD \t\t\tCounters.Counter public TreeCo...\n      SLOAD \t\t\tCounters.Counter public TreeCo...\n      SWAP1 \t\t\tCounters.Counter public TreeCo...\n      POP \t\t\tCounters.Counter public TreeCo...\n      DUP2 \t\t\tCounters.Counter public TreeCo...\n      JUMP \t\t\tCounters.Counter public TreeCo...\n    tag 99\t\t\t       return (treecollections...\n      JUMPDEST \t\t\t       return (treecollections...\n      PUSH 0\t\t\trns \n      DUP1 \t\t\tin a particul\n      PUSH [tag] 200\t\t\tcollection\\r\\n\n      PUSH [tag] 128\t\t\tcollection\n      JUMP \t\t\tcollection\\r\\n\n    tag 200\t\t\tcollection\\r\\n\n      JUMPDEST \t\t\tcollection\\r\\n\n      SWAP1 \t\t\tin a particular collection\\r\\n\n      POP \t\t\tin a particular collection\\r\\n\n      PUSH [tag] 201\t\t\t   function getCollectionID(\n      DUP2 \t\t\tn get\n      DUP6 \t\t\tll\n      DUP6 \t\t\ttionID\n      PUSH [tag] 140\t\t\t   functi\n      JUMP \t\t\t   function getCollectionID(\n    tag 201\t\t\t   function getCollectionID(\n      JUMPDEST \t\t\t   function getCollectionID(\n      PUSH 1\t\t\tllec\n      SWAP2 \t\t\ttion collec\n      POP \t\t\ttion collec\n      POP \t\t\ttion collec\n      SWAP3 \t\t\t       return (treecollections...\n      SWAP2 \t\t\t       return (treecollections...\n      POP \t\t\t       return (treecollections...\n      POP \t\t\t       return (treecollections...\n      JUMP \t\t\t       return (treecollections...\n    tag 103\t\t\tmapping(uint256 => TreeCollect...\n      JUMPDEST \t\t\tmapping(uint256 => TreeCollect...\n      PUSH 6\t\t\tmapping(uint256 => TreeCollect...\n      PUSH 20\t\t\tmapping(uint256 => TreeCollect...\n      MSTORE \t\t\tmapping(uint256 => TreeCollect...\n      DUP1 \t\t\tmapping(uint256 => TreeCollect...\n      PUSH 0\t\t\tmapping(uint256 => TreeCollect...\n      MSTORE \t\t\tmapping(uint256 => TreeCollect...\n      PUSH 40\t\t\tmapping(uint256 => TreeCollect...\n      PUSH 0\t\t\tmapping(uint256 => TreeCollect...\n      KECCAK256 \t\t\tmapping(uint256 => TreeCollect...\n      PUSH 0\t\t\tmapping(uint256 => TreeCollect...\n      SWAP2 \t\t\tmapping(uint256 => TreeCollect...\n      POP \t\t\tmapping(uint256 => TreeCollect...\n      SLOAD \t\t\tmapping(uint256 => TreeCollect...\n      SWAP1 \t\t\tmapping(uint256 => TreeCollect...\n      PUSH 100\t\t\tmapping(uint256 => TreeCollect...\n      EXP \t\t\tmapping(uint256 => TreeCollect...\n      SWAP1 \t\t\tmapping(uint256 => TreeCollect...\n      DIV \t\t\tmapping(uint256 => TreeCollect...\n      PUSH FFFFFFFFFFFFFFFFFFFFFFFFFFFFFFFFFFFFFFFF\t\t\tmapping(uint256 => TreeCollect...\n      AND \t\t\tmapping(uint256 => TreeCollect...\n      DUP2 \t\t\tmapping(uint256 => TreeCollect...\n      JUMP \t\t\tmapping(uint256 => TreeCollect...\n    tag 108\t\t\tfunction claim(uint256 _collec...\n      JUMPDEST \t\t\tfunction claim(uint256 _collec...\n      PUSH 0\t\t\tbool\n      DUP1 \t\t\tTreeCollection treecollection\n      PUSH 6\t\t\ttreecollections\n      PUSH 0\t\t\ttreecollections[_collectionID]\n      DUP6 \t\t\t_collectionID\n      DUP2 \t\t\ttreecollections[_collectionID]\n      MSTORE \t\t\ttreecollections[_collectionID]\n      PUSH 20\t\t\ttreecollections[_collectionID]\n      ADD \t\t\ttreecollections[_collectionID]\n      SWAP1 \t\t\ttreecollections[_collectionID]\n      DUP2 \t\t\ttreecollections[_collectionID]\n      MSTORE \t\t\ttreecollections[_collectionID]\n      PUSH 20\t\t\ttreecollections[_collectionID]\n      ADD \t\t\ttreecollections[_collectionID]\n      PUSH 0\t\t\ttreecollections[_collectionID]\n      KECCAK256 \t\t\ttreecollections[_collectionID]\n      PUSH 0\t\t\ttreecollections[_collectionID]\n      SWAP1 \t\t\ttreecollections[_collectionID]\n      SLOAD \t\t\ttreecollections[_collectionID]\n      SWAP1 \t\t\ttreecollections[_collectionID]\n      PUSH 100\t\t\ttreecollections[_collectionID]\n      EXP \t\t\ttreecollections[_collectionID]\n      SWAP1 \t\t\ttreecollections[_collectionID]\n      DIV \t\t\ttreecollections[_collectionID]\n      PUSH FFFFFFFFFFFFFFFFFFFFFFFFFFFFFFFFFFFFFFFF\t\t\ttreecollections[_collectionID]\n      AND \t\t\ttreecollections[_collectionID]\n      SWAP1 \t\t\tTreeCollection treecollection ...\n      POP \t\t\tTreeCollection treecollection ...\n      CALLER \t\t\tmsg.sender\n      PUSH FFFFFFFFFFFFFFFFFFFFFFFFFFFFFFFFFFFFFFFF\t\t\ttreecollection.ownerOf(_tokenI...\n      AND \t\t\ttreecollection.ownerOf(_tokenI...\n      DUP2 \t\t\ttreecollection\n      PUSH FFFFFFFFFFFFFFFFFFFFFFFFFFFFFFFFFFFFFFFF\t\t\ttreecollection.ownerOf\n      AND \t\t\ttreecollection.ownerOf\n      PUSH 6352211E\t\t\ttreecollection.ownerOf\n      DUP6 \t\t\t_tokenID\n      PUSH 40\t\t\ttreecollection.ownerOf(_tokenI...\n      MLOAD \t\t\ttreecollection.ownerOf(_tokenI...\n      DUP3 \t\t\ttreecollection.ownerOf(_tokenI...\n      PUSH FFFFFFFF\t\t\ttreecollection.ownerOf(_tokenI...\n      AND \t\t\ttreecollection.ownerOf(_tokenI...\n      PUSH E0\t\t\ttreecollection.ownerOf(_tokenI...\n      SHL \t\t\ttreecollection.ownerOf(_tokenI...\n      DUP2 \t\t\ttreecollection.ownerOf(_tokenI...\n      MSTORE \t\t\ttreecollection.ownerOf(_tokenI...\n      PUSH 4\t\t\ttreecollection.ownerOf(_tokenI...\n      ADD \t\t\ttreecollection.ownerOf(_tokenI...\n      PUSH [tag] 203\t\t\ttreecollection.ownerOf(_tokenI...\n      SWAP2 \t\t\ttreecollection.ownerOf(_tokenI...\n      SWAP1 \t\t\ttreecollection.ownerOf(_tokenI...\n      PUSH [tag] 40\t\t\ttreecollection.ownerOf(_tokenI...\n      JUMP \t\t\ttreecollection.ownerOf(_tokenI...\n    tag 203\t\t\ttreecollection.ownerOf(_tokenI...\n      JUMPDEST \t\t\ttreecollection.ownerOf(_tokenI...\n      PUSH 20\t\t\ttreecollection.ownerOf(_tokenI...\n      PUSH 40\t\t\ttreecollection.ownerOf(_tokenI...\n      MLOAD \t\t\ttreecollection.ownerOf(_tokenI...\n      DUP1 \t\t\ttreecollection.ownerOf(_tokenI...\n      DUP4 \t\t\ttreecollection.ownerOf(_tokenI...\n      SUB \t\t\ttreecollection.ownerOf(_tokenI...\n      DUP2 \t\t\ttreecollection.ownerOf(_tokenI...\n      DUP7 \t\t\ttreecollection.ownerOf(_tokenI...\n      GAS \t\t\ttreecollection.ownerOf(_tokenI...\n      STATICCALL \t\t\ttreecollection.ownerOf(_tokenI...\n      ISZERO \t\t\ttreecollection.ownerOf(_tokenI...\n      DUP1 \t\t\ttreecollection.ownerOf(_tokenI...\n      ISZERO \t\t\ttreecollection.ownerOf(_tokenI...\n      PUSH [tag] 205\t\t\ttreecollection.ownerOf(_tokenI...\n      JUMPI \t\t\ttreecollection.ownerOf(_tokenI...\n      RETURNDATASIZE \t\t\ttreecollection.ownerOf(_tokenI...\n      PUSH 0\t\t\ttreecollection.ownerOf(_tokenI...\n      DUP1 \t\t\ttreecollection.ownerOf(_tokenI...\n      RETURNDATACOPY \t\t\ttreecollection.ownerOf(_tokenI...\n      RETURNDATASIZE \t\t\ttreecollection.ownerOf(_tokenI...\n      PUSH 0\t\t\ttreecollection.ownerOf(_tokenI...\n      REVERT \t\t\ttreecollection.ownerOf(_tokenI...\n    tag 205\t\t\ttreecollection.ownerOf(_tokenI...\n      JUMPDEST \t\t\ttreecollection.ownerOf(_tokenI...\n      POP \t\t\ttreecollection.ownerOf(_tokenI...\n      POP \t\t\ttreecollection.ownerOf(_tokenI...\n      POP \t\t\ttreecollection.ownerOf(_tokenI...\n      POP \t\t\ttreecollection.ownerOf(_tokenI...\n      PUSH 40\t\t\ttreecollection.ownerOf(_tokenI...\n      MLOAD \t\t\ttreecollection.ownerOf(_tokenI...\n      RETURNDATASIZE \t\t\ttreecollection.ownerOf(_tokenI...\n      PUSH 1F\t\t\ttreecollection.ownerOf(_tokenI...\n      NOT \t\t\ttreecollection.ownerOf(_tokenI...\n      PUSH 1F\t\t\ttreecollection.ownerOf(_tokenI...\n      DUP3 \t\t\ttreecollection.ownerOf(_tokenI...\n      ADD \t\t\ttreecollection.ownerOf(_tokenI...\n      AND \t\t\ttreecollection.ownerOf(_tokenI...\n      DUP3 \t\t\ttreecollection.ownerOf(_tokenI...\n      ADD \t\t\ttreecollection.ownerOf(_tokenI...\n      DUP1 \t\t\ttreecollection.ownerOf(_tokenI...\n      PUSH 40\t\t\ttreecollection.ownerOf(_tokenI...\n      MSTORE \t\t\ttreecollection.ownerOf(_tokenI...\n      POP \t\t\ttreecollection.ownerOf(_tokenI...\n      DUP2 \t\t\ttreecollection.ownerOf(_tokenI...\n      ADD \t\t\ttreecollection.ownerOf(_tokenI...\n      SWAP1 \t\t\ttreecollection.ownerOf(_tokenI...\n      PUSH [tag] 206\t\t\ttreecollection.ownerOf(_tokenI...\n      SWAP2 \t\t\ttreecollection.ownerOf(_tokenI...\n      SWAP1 \t\t\ttreecollection.ownerOf(_tokenI...\n      PUSH [tag] 207\t\t\ttreecollection.ownerOf(_tokenI...\n      JUMP \t\t\ttreecollection.ownerOf(_tokenI...\n    tag 206\t\t\ttreecollection.ownerOf(_tokenI...\n      JUMPDEST \t\t\ttreecollection.ownerOf(_tokenI...\n      PUSH FFFFFFFFFFFFFFFFFFFFFFFFFFFFFFFFFFFFFFFF\t\t\ttreecollection.ownerOf(_tokenI...\n      AND \t\t\ttreecollection.ownerOf(_tokenI...\n      EQ \t\t\ttreecollection.ownerOf(_tokenI...\n      PUSH [tag] 208\t\t\trequire(treecollection.ownerOf...\n      JUMPI \t\t\trequire(treecollection.ownerOf...\n      PUSH 40\t\t\trequire(treecollection.ownerOf...\n      MLOAD \t\t\trequire(treecollection.ownerOf...\n      PUSH 8C379A000000000000000000000000000000000000000000000000000000000\t\t\trequire(treecollection.ownerOf...\n      DUP2 \t\t\trequire(treecollection.ownerOf...\n      MSTORE \t\t\trequire(treecollection.ownerOf...\n      PUSH 4\t\t\trequire(treecollection.ownerOf...\n      ADD \t\t\trequire(treecollection.ownerOf...\n      PUSH [tag] 209\t\t\trequire(treecollection.ownerOf...\n      SWAP1 \t\t\trequire(treecollection.ownerOf...\n      PUSH [tag] 210\t\t\trequire(treecollection.ownerOf...\n      JUMP \t\t\trequire(treecollection.ownerOf...\n    tag 209\t\t\trequire(treecollection.ownerOf...\n      JUMPDEST \t\t\trequire(treecollection.ownerOf...\n      PUSH 40\t\t\trequire(treecollection.ownerOf...\n      MLOAD \t\t\trequire(treecollection.ownerOf...\n      DUP1 \t\t\trequire(treecollection.ownerOf...\n      SWAP2 \t\t\trequire(treecollection.ownerOf...\n      SUB \t\t\trequire(treecollection.ownerOf...\n      SWAP1 \t\t\trequire(treecollection.ownerOf...\n      REVERT \t\t\trequire(treecollection.ownerOf...\n    tag 208\t\t\trequire(treecollection.ownerOf...\n      JUMPDEST \t\t\trequire(treecollection.ownerOf...\n      PUSH A8C0\t\t\t43200\n      PUSH 8\t\t\tuserTree\n      PUSH 0\t\t\tuserTree[_collectionID]\n      DUP7 \t\t\t_collectionID\n      DUP2 \t\t\tuserTree[_collectionID]\n      MSTORE \t\t\tuserTree[_collectionID]\n      PUSH 20\t\t\tuserTree[_collectionID]\n      ADD \t\t\tuserTree[_collectionID]\n      SWAP1 \t\t\tuserTree[_collectionID]\n      DUP2 \t\t\tuserTree[_collectionID]\n      MSTORE \t\t\tuserTree[_collectionID]\n      PUSH 20\t\t\tuserTree[_collectionID]\n      ADD \t\t\tuserTree[_collectionID]\n      PUSH 0\t\t\tuserTree[_collectionID]\n      KECCAK256 \t\t\tuserTree[_collectionID]\n      PUSH 0\t\t\tuserTree[_collectionID].treeDe...\n      ADD \t\t\tuserTree[_collectionID].treeDe...\n      PUSH 0\t\t\tuserTree[_collectionID].treeDe...\n      DUP6 \t\t\t_tokenID\n      DUP2 \t\t\tuserTree[_collectionID].treeDe...\n      MSTORE \t\t\tuserTree[_collectionID].treeDe...\n      PUSH 20\t\t\tuserTree[_collectionID].treeDe...\n      ADD \t\t\tuserTree[_collectionID].treeDe...\n      SWAP1 \t\t\tuserTree[_collectionID].treeDe...\n      DUP2 \t\t\tuserTree[_collectionID].treeDe...\n      MSTORE \t\t\tuserTree[_collectionID].treeDe...\n      PUSH 20\t\t\tuserTree[_collectionID].treeDe...\n      ADD \t\t\tuserTree[_collectionID].treeDe...\n      PUSH 0\t\t\tuserTree[_collectionID].treeDe...\n      KECCAK256 \t\t\tuserTree[_collectionID].treeDe...\n      PUSH 0\t\t\tuserTree[_collectionID].treeDe...\n      ADD \t\t\tuserTree[_collectionID].treeDe...\n      SLOAD \t\t\tuserTree[_collectionID].treeDe...\n      TIMESTAMP \t\t\tblock.timestamp\n      PUSH [tag] 211\t\t\tblock.timestamp - userTree[_co...\n      SWAP2 \t\t\tblock.timestamp - userTree[_co...\n      SWAP1 \t\t\tblock.timestamp - userTree[_co...\n      PUSH [tag] 212\t\t\tblock.timestamp - userTree[_co...\n      JUMP \t\t\tblock.timestamp - userTree[_co...\n    tag 211\t\t\tblock.timestamp - userTree[_co...\n      JUMPDEST \t\t\tblock.timestamp - userTree[_co...\n      GT \t\t\tblock.timestamp - userTree[_co...\n      ISZERO \t\t\tblock.timestamp - userTree[_co...\n      PUSH [tag] 213\t\t\trequire(block.timestamp - user...\n      JUMPI \t\t\trequire(block.timestamp - user...\n      PUSH 40\t\t\trequire(block.timestamp - user...\n      MLOAD \t\t\trequire(block.timestamp - user...\n      PUSH 8C379A000000000000000000000000000000000000000000000000000000000\t\t\trequire(block.timestamp - user...\n      DUP2 \t\t\trequire(block.timestamp - user...\n      MSTORE \t\t\trequire(block.timestamp - user...\n      PUSH 4\t\t\trequire(block.timestamp - user...\n      ADD \t\t\trequire(block.timestamp - user...\n      PUSH [tag] 214\t\t\trequire(block.timestamp - user...\n      SWAP1 \t\t\trequire(block.timestamp - user...\n      PUSH [tag] 215\t\t\trequire(block.timestamp - user...\n      JUMP \t\t\trequire(block.timestamp - user...\n    tag 214\t\t\trequire(block.timestamp - user...\n      JUMPDEST \t\t\trequire(block.timestamp - user...\n      PUSH 40\t\t\trequire(block.timestamp - user...\n      MLOAD \t\t\trequire(block.timestamp - user...\n      DUP1 \t\t\trequire(block.timestamp - user...\n      SWAP2 \t\t\trequire(block.timestamp - user...\n      SUB \t\t\trequire(block.timestamp - user...\n      SWAP1 \t\t\trequire(block.timestamp - user...\n      REVERT \t\t\trequire(block.timestamp - user...\n    tag 213\t\t\trequire(block.timestamp - user...\n      JUMPDEST \t\t\trequire(block.timestamp - user...\n      PUSH 15180\t\t\t86400\n      PUSH 8\t\t\tuserTree\n      PUSH 0\t\t\tuserTree[_collectionID]\n      DUP7 \t\t\t_collectionID\n      DUP2 \t\t\tuserTree[_collectionID]\n      MSTORE \t\t\tuserTree[_collectionID]\n      PUSH 20\t\t\tuserTree[_collectionID]\n      ADD \t\t\tuserTree[_collectionID]\n      SWAP1 \t\t\tuserTree[_collectionID]\n      DUP2 \t\t\tuserTree[_collectionID]\n      MSTORE \t\t\tuserTree[_collectionID]\n      PUSH 20\t\t\tuserTree[_collectionID]\n      ADD \t\t\tuserTree[_collectionID]\n      PUSH 0\t\t\tuserTree[_collectionID]\n      KECCAK256 \t\t\tuserTree[_collectionID]\n      PUSH 0\t\t\tuserTree[_collectionID].treeDe...\n      ADD \t\t\tuserTree[_collectionID].treeDe...\n      PUSH 0\t\t\tuserTree[_collectionID].treeDe...\n      DUP6 \t\t\t_tokenID\n      DUP2 \t\t\tuserTree[_collectionID].treeDe...\n      MSTORE \t\t\tuserTree[_collectionID].treeDe...\n      PUSH 20\t\t\tuserTree[_collectionID].treeDe...\n      ADD \t\t\tuserTree[_collectionID].treeDe...\n      SWAP1 \t\t\tuserTree[_collectionID].treeDe...\n      DUP2 \t\t\tuserTree[_collectionID].treeDe...\n      MSTORE \t\t\tuserTree[_collectionID].treeDe...\n      PUSH 20\t\t\tuserTree[_collectionID].treeDe...\n      ADD \t\t\tuserTree[_collectionID].treeDe...\n      PUSH 0\t\t\tuserTree[_collectionID].treeDe...\n      KECCAK256 \t\t\tuserTree[_collectionID].treeDe...\n      PUSH 1\t\t\tuserTree[_collectionID].treeDe...\n      ADD \t\t\tuserTree[_collectionID].treeDe...\n      SLOAD \t\t\tuserTree[_collectionID].treeDe...\n      TIMESTAMP \t\t\tblock.timestamp\n      PUSH [tag] 216\t\t\tblock.timestamp - userTree[_co...\n      SWAP2 \t\t\tblock.timestamp - userTree[_co...\n      SWAP1 \t\t\tblock.timestamp - userTree[_co...\n      PUSH [tag] 212\t\t\tblock.timestamp - userTree[_co...\n      JUMP \t\t\tblock.timestamp - userTree[_co...\n    tag 216\t\t\tblock.timestamp - userTree[_co...\n      JUMPDEST \t\t\tblock.timestamp - userTree[_co...\n      GT \t\t\tblock.timestamp - userTree[_co...\n      PUSH [tag] 217\t\t\trequire(block.timestamp - user...\n      JUMPI \t\t\trequire(block.timestamp - user...\n      PUSH 40\t\t\trequire(block.timestamp - user...\n      MLOAD \t\t\trequire(block.timestamp - user...\n      PUSH 8C379A000000000000000000000000000000000000000000000000000000000\t\t\trequire(block.timestamp - user...\n      DUP2 \t\t\trequire(block.timestamp - user...\n      MSTORE \t\t\trequire(block.timestamp - user...\n      PUSH 4\t\t\trequire(block.timestamp - user...\n      ADD \t\t\trequire(block.timestamp - user...\n      PUSH [tag] 218\t\t\trequire(block.timestamp - user...\n      SWAP1 \t\t\trequire(block.timestamp - user...\n      PUSH [tag] 219\t\t\trequire(block.timestamp - user...\n      JUMP \t\t\trequire(block.timestamp - user...\n    tag 218\t\t\trequire(block.timestamp - user...\n      JUMPDEST \t\t\trequire(block.timestamp - user...\n      PUSH 40\t\t\trequire(block.timestamp - user...\n      MLOAD \t\t\trequire(block.timestamp - user...\n      DUP1 \t\t\trequire(block.timestamp - user...\n      SWAP2 \t\t\trequire(block.timestamp - user...\n      SUB \t\t\trequire(block.timestamp - user...\n      SWAP1 \t\t\trequire(block.timestamp - user...\n      REVERT \t\t\trequire(block.timestamp - user...\n    tag 217\t\t\trequire(block.timestamp - user...\n      JUMPDEST \t\t\trequire(block.timestamp - user...\n      TIMESTAMP \t\t\tblock.timestamp\n      PUSH 8\t\t\tuserTree\n      PUSH 0\t\t\tuserTree[_collectionID]\n      DUP7 \t\t\t_collectionID\n      DUP2 \t\t\tuserTree[_collectionID]\n      MSTORE \t\t\tuserTree[_collectionID]\n      PUSH 20\t\t\tuserTree[_collectionID]\n      ADD \t\t\tuserTree[_collectionID]\n      SWAP1 \t\t\tuserTree[_collectionID]\n      DUP2 \t\t\tuserTree[_collectionID]\n      MSTORE \t\t\tuserTree[_collectionID]\n      PUSH 20\t\t\tuserTree[_collectionID]\n      ADD \t\t\tuserTree[_collectionID]\n      PUSH 0\t\t\tuserTree[_collectionID]\n      KECCAK256 \t\t\tuserTree[_collectionID]\n      PUSH 0\t\t\tuserTree[_collectionID].treeDe...\n      ADD \t\t\tuserTree[_collectionID].treeDe...\n      PUSH 0\t\t\tuserTree[_collectionID].treeDe...\n      DUP6 \t\t\t_tokenID\n      DUP2 \t\t\tuserTree[_collectionID].treeDe...\n      MSTORE \t\t\tuserTree[_collectionID].treeDe...\n      PUSH 20\t\t\tuserTree[_collectionID].treeDe...\n      ADD \t\t\tuserTree[_collectionID].treeDe...\n      SWAP1 \t\t\tuserTree[_collectionID].treeDe...\n      DUP2 \t\t\tuserTree[_collectionID].treeDe...\n      MSTORE \t\t\tuserTree[_collectionID].treeDe...\n      PUSH 20\t\t\tuserTree[_collectionID].treeDe...\n      ADD \t\t\tuserTree[_collectionID].treeDe...\n      PUSH 0\t\t\tuserTree[_collectionID].treeDe...\n      KECCAK256 \t\t\tuserTree[_collectionID].treeDe...\n      PUSH 1\t\t\tuserTree[_collectionID].treeDe...\n      ADD \t\t\tuserTree[_collectionID].treeDe...\n      DUP2 \t\t\tuserTree[_collectionID].treeDe...\n      SWAP1 \t\t\tuserTree[_collectionID].treeDe...\n      SSTORE \t\t\tuserTree[_collectionID].treeDe...\n      POP \t\t\tuserTree[_collectionID].treeDe...\n      PUSH 5\t\t\t5\n      PUSH 8\t\t\tuserTree\n      PUSH 0\t\t\tuserTree[_collectionID]\n      DUP7 \t\t\t_collectionID\n      DUP2 \t\t\tuserTree[_collectionID]\n      MSTORE \t\t\tuserTree[_collectionID]\n      PUSH 20\t\t\tuserTree[_collectionID]\n      ADD \t\t\tuserTree[_collectionID]\n      SWAP1 \t\t\tuserTree[_collectionID]\n      DUP2 \t\t\tuserTree[_collectionID]\n      MSTORE \t\t\tuserTree[_collectionID]\n      PUSH 20\t\t\tuserTree[_collectionID]\n      ADD \t\t\tuserTree[_collectionID]\n      PUSH 0\t\t\tuserTree[_collectionID]\n      KECCAK256 \t\t\tuserTree[_collectionID]\n      PUSH 0\t\t\tuserTree[_collectionID].treeDe...\n      ADD \t\t\tuserTree[_collectionID].treeDe...\n      PUSH 0\t\t\tuserTree[_collectionID].treeDe...\n      DUP6 \t\t\t_tokenID\n      DUP2 \t\t\tuserTree[_collectionID].treeDe...\n      MSTORE \t\t\tuserTree[_collectionID].treeDe...\n      PUSH 20\t\t\tuserTree[_collectionID].treeDe...\n      ADD \t\t\tuserTree[_collectionID].treeDe...\n      SWAP1 \t\t\tuserTree[_collectionID].treeDe...\n      DUP2 \t\t\tuserTree[_collectionID].treeDe...\n      MSTORE \t\t\tuserTree[_collectionID].treeDe...\n      PUSH 20\t\t\tuserTree[_collectionID].treeDe...\n      ADD \t\t\tuserTree[_collectionID].treeDe...\n      PUSH 0\t\t\tuserTree[_collectionID].treeDe...\n      KECCAK256 \t\t\tuserTree[_collectionID].treeDe...\n      PUSH 3\t\t\tuserTree[_collectionID].treeDe...\n      ADD \t\t\tuserTree[_collectionID].treeDe...\n      PUSH 0\t\t\tuserTree[_collectionID].treeDe...\n      DUP3 \t\t\tuserTree[_collectionID].treeDe...\n      DUP3 \t\t\tuserTree[_collectionID].treeDe...\n      SLOAD \t\t\tuserTree[_collectionID].treeDe...\n      PUSH [tag] 220\t\t\tuserTree[_collectionID].treeDe...\n      SWAP2 \t\t\tuserTree[_collectionID].treeDe...\n      SWAP1 \t\t\tuserTree[_collectionID].treeDe...\n      PUSH [tag] 160\t\t\tuserTree[_collectionID].treeDe...\n      JUMP \t\t\tuserTree[_collectionID].treeDe...\n    tag 220\t\t\tuserTree[_collectionID].treeDe...\n      JUMPDEST \t\t\tuserTree[_collectionID].treeDe...\n      SWAP3 \t\t\tuserTree[_collectionID].treeDe...\n      POP \t\t\tuserTree[_collectionID].treeDe...\n      POP \t\t\tuserTree[_collectionID].treeDe...\n      DUP2 \t\t\tuserTree[_collectionID].treeDe...\n      SWAP1 \t\t\tuserTree[_collectionID].treeDe...\n      SSTORE \t\t\tuserTree[_collectionID].treeDe...\n      POP \t\t\tuserTree[_collectionID].treeDe...\n      PUSH [tag] 221\t\t\tmint(msg.sender, 5 * 10 ** 18)\n      CALLER \t\t\tmsg.sender\n      PUSH 4563918244F40000\t\t\t5 * 10 ** 18\n      PUSH [tag] 222\t\t\tmint\n      JUMP \t\t\tmint(msg.sender, 5 * 10 ** 18)\n    tag 221\t\t\tmint(msg.sender, 5 * 10 ** 18)\n      JUMPDEST \t\t\tmint(msg.sender, 5 * 10 ** 18)\n      PUSH 1\t\t\ttrue\n      SWAP2 \t\t\treturn true\n      POP \t\t\treturn true\n      POP \t\t\treturn true\n      SWAP3 \t\t\tfunction claim(uint256 _collec...\n      SWAP2 \t\t\tfunction claim(uint256 _collec...\n      POP \t\t\tfunction claim(uint256 _collec...\n      POP \t\t\tfunction claim(uint256 _collec...\n      JUMP \t\t\tfunction claim(uint256 _collec...\n    tag 113\t\t\toID[collection];\\r\\n        //...\n      JUMPDEST \t\t\toID[collection];\\r\\n        //...\n      PUSH 0\t\t\t\n      PUSH 1\t\t\t\n      PUSH 0\t\t\t\n      DUP5 \t\t\t\n      PUSH FFFFFFFFFFFFFFFFFFFFFFFFFFFFFFFFFFFFFFFF\t\t\t\n      AND \t\t\t\n      PUSH FFFFFFFFFFFFFFFFFFFFFFFFFFFFFFFFFFFFFFFF\t\t\t\n      AND \t\t\t\n      DUP2 \t\t\t\n      MSTORE \t\t\t\n      PUSH 20\t\t\t\n      ADD \t\t\t\n      SWAP1 \t\t\t\n      DUP2 \t\t\t\n      MSTORE \t\t\t\n      PUSH 20\t\t\t\n      ADD \t\t\t\n      PUSH 0\t\t\t\n      KECCAK256 \t\t\t\n      PUSH 0\t\t\t\n      DUP4 \t\t\t\n      PUSH FFFFFFFFFFFFFFFFFFFFFFFFFFFFFFFFFFFFFFFF\t\t\t\n      AND \t\t\t\n      PUSH FFFFFFFFFFFFFFFFFFFFFFFFFFFFFFFFFFFFFFFF\t\t\t\n      AND \t\t\t\n      DUP2 \t\t\t\n      MSTORE \t\t\t\n      PUSH 20\t\t\t\n      ADD \t\t\t\n      SWAP1 \t\t\t\n      DUP2 \t\t\t\n      MSTORE \t\t\t\n      PUSH 20\t\t\t\n      ADD \t\t\t\n      PUSH 0\t\t\t\n      KECCAK256 \t\t\t\n      SLOAD \t\t\t\n      SWAP1 \t\t\t\n      POP \t\t\t\n      SWAP3 \t\t\toID[collection];\\r\\n        //...\n      SWAP2 \t\t\toID[collection];\\r\\n        //...\n      POP \t\t\toID[collection];\\r\\n        //...\n      POP \t\t\toID[collection];\\r\\n        //...\n      JUMP \t\t\toID[collection];\\r\\n        //...\n    tag 117\t\t\tfunction water(uint256 _collec...\n      JUMPDEST \t\t\tfunction water(uint256 _collec...\n      PUSH 0\t\t\tbool\n      DUP1 \t\t\tTreeCollection treecollection\n      PUSH 6\t\t\ttreecollections\n      PUSH 0\t\t\ttreecollections[_collectionID]\n      DUP6 \t\t\t_collectionID\n      DUP2 \t\t\ttreecollections[_collectionID]\n      MSTORE \t\t\ttreecollections[_collectionID]\n      PUSH 20\t\t\ttreecollections[_collectionID]\n      ADD \t\t\ttreecollections[_collectionID]\n      SWAP1 \t\t\ttreecollections[_collectionID]\n      DUP2 \t\t\ttreecollections[_collectionID]\n      MSTORE \t\t\ttreecollections[_collectionID]\n      PUSH 20\t\t\ttreecollections[_collectionID]\n      ADD \t\t\ttreecollections[_collectionID]\n      PUSH 0\t\t\ttreecollections[_collectionID]\n      KECCAK256 \t\t\ttreecollections[_collectionID]\n      PUSH 0\t\t\ttreecollections[_collectionID]\n      SWAP1 \t\t\ttreecollections[_collectionID]\n      SLOAD \t\t\ttreecollections[_collectionID]\n      SWAP1 \t\t\ttreecollections[_collectionID]\n      PUSH 100\t\t\ttreecollections[_collectionID]\n      EXP \t\t\ttreecollections[_collectionID]\n      SWAP1 \t\t\ttreecollections[_collectionID]\n      DIV \t\t\ttreecollections[_collectionID]\n      PUSH FFFFFFFFFFFFFFFFFFFFFFFFFFFFFFFFFFFFFFFF\t\t\ttreecollections[_collectionID]\n      AND \t\t\ttreecollections[_collectionID]\n      SWAP1 \t\t\tTreeCollection treecollection ...\n      POP \t\t\tTreeCollection treecollection ...\n      CALLER \t\t\tmsg.sender\n      PUSH FFFFFFFFFFFFFFFFFFFFFFFFFFFFFFFFFFFFFFFF\t\t\ttreecollection.ownerOf(_tokenI...\n      AND \t\t\ttreecollection.ownerOf(_tokenI...\n      DUP2 \t\t\ttreecollection\n      PUSH FFFFFFFFFFFFFFFFFFFFFFFFFFFFFFFFFFFFFFFF\t\t\ttreecollection.ownerOf\n      AND \t\t\ttreecollection.ownerOf\n      PUSH 6352211E\t\t\ttreecollection.ownerOf\n      DUP6 \t\t\t_tokenID\n      PUSH 40\t\t\ttreecollection.ownerOf(_tokenI...\n      MLOAD \t\t\ttreecollection.ownerOf(_tokenI...\n      DUP3 \t\t\ttreecollection.ownerOf(_tokenI...\n      PUSH FFFFFFFF\t\t\ttreecollection.ownerOf(_tokenI...\n      AND \t\t\ttreecollection.ownerOf(_tokenI...\n      PUSH E0\t\t\ttreecollection.ownerOf(_tokenI...\n      SHL \t\t\ttreecollection.ownerOf(_tokenI...\n      DUP2 \t\t\ttreecollection.ownerOf(_tokenI...\n      MSTORE \t\t\ttreecollection.ownerOf(_tokenI...\n      PUSH 4\t\t\ttreecollection.ownerOf(_tokenI...\n      ADD \t\t\ttreecollection.ownerOf(_tokenI...\n      PUSH [tag] 225\t\t\ttreecollection.ownerOf(_tokenI...\n      SWAP2 \t\t\ttreecollection.ownerOf(_tokenI...\n      SWAP1 \t\t\ttreecollection.ownerOf(_tokenI...\n      PUSH [tag] 40\t\t\ttreecollection.ownerOf(_tokenI...\n      JUMP \t\t\ttreecollection.ownerOf(_tokenI...\n    tag 225\t\t\ttreecollection.ownerOf(_tokenI...\n      JUMPDEST \t\t\ttreecollection.ownerOf(_tokenI...\n      PUSH 20\t\t\ttreecollection.ownerOf(_tokenI...\n      PUSH 40\t\t\ttreecollection.ownerOf(_tokenI...\n      MLOAD \t\t\ttreecollection.ownerOf(_tokenI...\n      DUP1 \t\t\ttreecollection.ownerOf(_tokenI...\n      DUP4 \t\t\ttreecollection.ownerOf(_tokenI...\n      SUB \t\t\ttreecollection.ownerOf(_tokenI...\n      DUP2 \t\t\ttreecollection.ownerOf(_tokenI...\n      DUP7 \t\t\ttreecollection.ownerOf(_tokenI...\n      GAS \t\t\ttreecollection.ownerOf(_tokenI...\n      STATICCALL \t\t\ttreecollection.ownerOf(_tokenI...\n      ISZERO \t\t\ttreecollection.ownerOf(_tokenI...\n      DUP1 \t\t\ttreecollection.ownerOf(_tokenI...\n      ISZERO \t\t\ttreecollection.ownerOf(_tokenI...\n      PUSH [tag] 227\t\t\ttreecollection.ownerOf(_tokenI...\n      JUMPI \t\t\ttreecollection.ownerOf(_tokenI...\n      RETURNDATASIZE \t\t\ttreecollection.ownerOf(_tokenI...\n      PUSH 0\t\t\ttreecollection.ownerOf(_tokenI...\n      DUP1 \t\t\ttreecollection.ownerOf(_tokenI...\n      RETURNDATACOPY \t\t\ttreecollection.ownerOf(_tokenI...\n      RETURNDATASIZE \t\t\ttreecollection.ownerOf(_tokenI...\n      PUSH 0\t\t\ttreecollection.ownerOf(_tokenI...\n      REVERT \t\t\ttreecollection.ownerOf(_tokenI...\n    tag 227\t\t\ttreecollection.ownerOf(_tokenI...\n      JUMPDEST \t\t\ttreecollection.ownerOf(_tokenI...\n      POP \t\t\ttreecollection.ownerOf(_tokenI...\n      POP \t\t\ttreecollection.ownerOf(_tokenI...\n      POP \t\t\ttreecollection.ownerOf(_tokenI...\n      POP \t\t\ttreecollection.ownerOf(_tokenI...\n      PUSH 40\t\t\ttreecollection.ownerOf(_tokenI...\n      MLOAD \t\t\ttreecollection.ownerOf(_tokenI...\n      RETURNDATASIZE \t\t\ttreecollection.ownerOf(_tokenI...\n      PUSH 1F\t\t\ttreecollection.ownerOf(_tokenI...\n      NOT \t\t\ttreecollection.ownerOf(_tokenI...\n      PUSH 1F\t\t\ttreecollection.ownerOf(_tokenI...\n      DUP3 \t\t\ttreecollection.ownerOf(_tokenI...\n      ADD \t\t\ttreecollection.ownerOf(_tokenI...\n      AND \t\t\ttreecollection.ownerOf(_tokenI...\n      DUP3 \t\t\ttreecollection.ownerOf(_tokenI...\n      ADD \t\t\ttreecollection.ownerOf(_tokenI...\n      DUP1 \t\t\ttreecollection.ownerOf(_tokenI...\n      PUSH 40\t\t\ttreecollection.ownerOf(_tokenI...\n      MSTORE \t\t\ttreecollection.ownerOf(_tokenI...\n      POP \t\t\ttreecollection.ownerOf(_tokenI...\n      DUP2 \t\t\ttreecollection.ownerOf(_tokenI...\n      ADD \t\t\ttreecollection.ownerOf(_tokenI...\n      SWAP1 \t\t\ttreecollection.ownerOf(_tokenI...\n      PUSH [tag] 228\t\t\ttreecollection.ownerOf(_tokenI...\n      SWAP2 \t\t\ttreecollection.ownerOf(_tokenI...\n      SWAP1 \t\t\ttreecollection.ownerOf(_tokenI...\n      PUSH [tag] 207\t\t\ttreecollection.ownerOf(_tokenI...\n      JUMP \t\t\ttreecollection.ownerOf(_tokenI...\n    tag 228\t\t\ttreecollection.ownerOf(_tokenI...\n      JUMPDEST \t\t\ttreecollection.ownerOf(_tokenI...\n      PUSH FFFFFFFFFFFFFFFFFFFFFFFFFFFFFFFFFFFFFFFF\t\t\ttreecollection.ownerOf(_tokenI...\n      AND \t\t\ttreecollection.ownerOf(_tokenI...\n      EQ \t\t\ttreecollection.ownerOf(_tokenI...\n      PUSH [tag] 229\t\t\trequire(treecollection.ownerOf...\n      JUMPI \t\t\trequire(treecollection.ownerOf...\n      PUSH 40\t\t\trequire(treecollection.ownerOf...\n      MLOAD \t\t\trequire(treecollection.ownerOf...\n      PUSH 8C379A000000000000000000000000000000000000000000000000000000000\t\t\trequire(treecollection.ownerOf...\n      DUP2 \t\t\trequire(treecollection.ownerOf...\n      MSTORE \t\t\trequire(treecollection.ownerOf...\n      PUSH 4\t\t\trequire(treecollection.ownerOf...\n      ADD \t\t\trequire(treecollection.ownerOf...\n      PUSH [tag] 230\t\t\trequire(treecollection.ownerOf...\n      SWAP1 \t\t\trequire(treecollection.ownerOf...\n      PUSH [tag] 210\t\t\trequire(treecollection.ownerOf...\n      JUMP \t\t\trequire(treecollection.ownerOf...\n    tag 230\t\t\trequire(treecollection.ownerOf...\n      JUMPDEST \t\t\trequire(treecollection.ownerOf...\n      PUSH 40\t\t\trequire(treecollection.ownerOf...\n      MLOAD \t\t\trequire(treecollection.ownerOf...\n      DUP1 \t\t\trequire(treecollection.ownerOf...\n      SWAP2 \t\t\trequire(treecollection.ownerOf...\n      SUB \t\t\trequire(treecollection.ownerOf...\n      SWAP1 \t\t\trequire(treecollection.ownerOf...\n      REVERT \t\t\trequire(treecollection.ownerOf...\n    tag 229\t\t\trequire(treecollection.ownerOf...\n      JUMPDEST \t\t\trequire(treecollection.ownerOf...\n      PUSHIMMUTABLE 3639\t\t\tSTNEAR\n      PUSH FFFFFFFFFFFFFFFFFFFFFFFFFFFFFFFFFFFFFFFF\t\t\tSTNEAR.transferFrom\n      AND \t\t\tSTNEAR.transferFrom\n      PUSH 23B872DD\t\t\tSTNEAR.transferFrom\n      CALLER \t\t\tmsg.sender\n      ADDRESS \t\t\tthis\n      PUSH D3C21BCECCEDA1000000\t\t\t1 * 10 ** 24\n      PUSH 40\t\t\tSTNEAR.transferFrom(msg.sender...\n      MLOAD \t\t\tSTNEAR.transferFrom(msg.sender...\n      DUP5 \t\t\tSTNEAR.transferFrom(msg.sender...\n      PUSH FFFFFFFF\t\t\tSTNEAR.transferFrom(msg.sender...\n      AND \t\t\tSTNEAR.transferFrom(msg.sender...\n      PUSH E0\t\t\tSTNEAR.transferFrom(msg.sender...\n      SHL \t\t\tSTNEAR.transferFrom(msg.sender...\n      DUP2 \t\t\tSTNEAR.transferFrom(msg.sender...\n      MSTORE \t\t\tSTNEAR.transferFrom(msg.sender...\n      PUSH 4\t\t\tSTNEAR.transferFrom(msg.sender...\n      ADD \t\t\tSTNEAR.transferFrom(msg.sender...\n      PUSH [tag] 231\t\t\tSTNEAR.transferFrom(msg.sender...\n      SWAP4 \t\t\tSTNEAR.transferFrom(msg.sender...\n      SWAP3 \t\t\tSTNEAR.transferFrom(msg.sender...\n      SWAP2 \t\t\tSTNEAR.transferFrom(msg.sender...\n      SWAP1 \t\t\tSTNEAR.transferFrom(msg.sender...\n      PUSH [tag] 232\t\t\tSTNEAR.transferFrom(msg.sender...\n      JUMP \t\t\tSTNEAR.transferFrom(msg.sender...\n    tag 231\t\t\tSTNEAR.transferFrom(msg.sender...\n      JUMPDEST \t\t\tSTNEAR.transferFrom(msg.sender...\n      PUSH 20\t\t\tSTNEAR.transferFrom(msg.sender...\n      PUSH 40\t\t\tSTNEAR.transferFrom(msg.sender...\n      MLOAD \t\t\tSTNEAR.transferFrom(msg.sender...\n      DUP1 \t\t\tSTNEAR.transferFrom(msg.sender...\n      DUP4 \t\t\tSTNEAR.transferFrom(msg.sender...\n      SUB \t\t\tSTNEAR.transferFrom(msg.sender...\n      DUP2 \t\t\tSTNEAR.transferFrom(msg.sender...\n      PUSH 0\t\t\tSTNEAR.transferFrom(msg.sender...\n      DUP8 \t\t\tSTNEAR.transferFrom(msg.sender...\n      GAS \t\t\tSTNEAR.transferFrom(msg.sender...\n      CALL \t\t\tSTNEAR.transferFrom(msg.sender...\n      ISZERO \t\t\tSTNEAR.transferFrom(msg.sender...\n      DUP1 \t\t\tSTNEAR.transferFrom(msg.sender...\n      ISZERO \t\t\tSTNEAR.transferFrom(msg.sender...\n      PUSH [tag] 234\t\t\tSTNEAR.transferFrom(msg.sender...\n      JUMPI \t\t\tSTNEAR.transferFrom(msg.sender...\n      RETURNDATASIZE \t\t\tSTNEAR.transferFrom(msg.sender...\n      PUSH 0\t\t\tSTNEAR.transferFrom(msg.sender...\n      DUP1 \t\t\tSTNEAR.transferFrom(msg.sender...\n      RETURNDATACOPY \t\t\tSTNEAR.transferFrom(msg.sender...\n      RETURNDATASIZE \t\t\tSTNEAR.transferFrom(msg.sender...\n      PUSH 0\t\t\tSTNEAR.transferFrom(msg.sender...\n      REVERT \t\t\tSTNEAR.transferFrom(msg.sender...\n    tag 234\t\t\tSTNEAR.transferFrom(msg.sender...\n      JUMPDEST \t\t\tSTNEAR.transferFrom(msg.sender...\n      POP \t\t\tSTNEAR.transferFrom(msg.sender...\n      POP \t\t\tSTNEAR.transferFrom(msg.sender...\n      POP \t\t\tSTNEAR.transferFrom(msg.sender...\n      POP \t\t\tSTNEAR.transferFrom(msg.sender...\n      PUSH 40\t\t\tSTNEAR.transferFrom(msg.sender...\n      MLOAD \t\t\tSTNEAR.transferFrom(msg.sender...\n      RETURNDATASIZE \t\t\tSTNEAR.transferFrom(msg.sender...\n      PUSH 1F\t\t\tSTNEAR.transferFrom(msg.sender...\n      NOT \t\t\tSTNEAR.transferFrom(msg.sender...\n      PUSH 1F\t\t\tSTNEAR.transferFrom(msg.sender...\n      DUP3 \t\t\tSTNEAR.transferFrom(msg.sender...\n      ADD \t\t\tSTNEAR.transferFrom(msg.sender...\n      AND \t\t\tSTNEAR.transferFrom(msg.sender...\n      DUP3 \t\t\tSTNEAR.transferFrom(msg.sender...\n      ADD \t\t\tSTNEAR.transferFrom(msg.sender...\n      DUP1 \t\t\tSTNEAR.transferFrom(msg.sender...\n      PUSH 40\t\t\tSTNEAR.transferFrom(msg.sender...\n      MSTORE \t\t\tSTNEAR.transferFrom(msg.sender...\n      POP \t\t\tSTNEAR.transferFrom(msg.sender...\n      DUP2 \t\t\tSTNEAR.transferFrom(msg.sender...\n      ADD \t\t\tSTNEAR.transferFrom(msg.sender...\n      SWAP1 \t\t\tSTNEAR.transferFrom(msg.sender...\n      PUSH [tag] 235\t\t\tSTNEAR.transferFrom(msg.sender...\n      SWAP2 \t\t\tSTNEAR.transferFrom(msg.sender...\n      SWAP1 \t\t\tSTNEAR.transferFrom(msg.sender...\n      PUSH [tag] 167\t\t\tSTNEAR.transferFrom(msg.sender...\n      JUMP \t\t\tSTNEAR.transferFrom(msg.sender...\n    tag 235\t\t\tSTNEAR.transferFrom(msg.sender...\n      JUMPDEST \t\t\tSTNEAR.transferFrom(msg.sender...\n      PUSH [tag] 236\t\t\trequire(STNEAR.transferFrom(ms...\n      JUMPI \t\t\trequire(STNEAR.transferFrom(ms...\n      PUSH 40\t\t\trequire(STNEAR.transferFrom(ms...\n      MLOAD \t\t\trequire(STNEAR.transferFrom(ms...\n      PUSH 8C379A000000000000000000000000000000000000000000000000000000000\t\t\trequire(STNEAR.transferFrom(ms...\n      DUP2 \t\t\trequire(STNEAR.transferFrom(ms...\n      MSTORE \t\t\trequire(STNEAR.transferFrom(ms...\n      PUSH 4\t\t\trequire(STNEAR.transferFrom(ms...\n      ADD \t\t\trequire(STNEAR.transferFrom(ms...\n      PUSH [tag] 237\t\t\trequire(STNEAR.transferFrom(ms...\n      SWAP1 \t\t\trequire(STNEAR.transferFrom(ms...\n      PUSH [tag] 170\t\t\trequire(STNEAR.transferFrom(ms...\n      JUMP \t\t\trequire(STNEAR.transferFrom(ms...\n    tag 237\t\t\trequire(STNEAR.transferFrom(ms...\n      JUMPDEST \t\t\trequire(STNEAR.transferFrom(ms...\n      PUSH 40\t\t\trequire(STNEAR.transferFrom(ms...\n      MLOAD \t\t\trequire(STNEAR.transferFrom(ms...\n      DUP1 \t\t\trequire(STNEAR.transferFrom(ms...\n      SWAP2 \t\t\trequire(STNEAR.transferFrom(ms...\n      SUB \t\t\trequire(STNEAR.transferFrom(ms...\n      SWAP1 \t\t\trequire(STNEAR.transferFrom(ms...\n      REVERT \t\t\trequire(STNEAR.transferFrom(ms...\n    tag 236\t\t\trequire(STNEAR.transferFrom(ms...\n      JUMPDEST \t\t\trequire(STNEAR.transferFrom(ms...\n      TIMESTAMP \t\t\tblock.timestamp\n      PUSH 8\t\t\tuserTree\n      PUSH 0\t\t\tuserTree[_collectionID]\n      DUP7 \t\t\t_collectionID\n      DUP2 \t\t\tuserTree[_collectionID]\n      MSTORE \t\t\tuserTree[_collectionID]\n      PUSH 20\t\t\tuserTree[_collectionID]\n      ADD \t\t\tuserTree[_collectionID]\n      SWAP1 \t\t\tuserTree[_collectionID]\n      DUP2 \t\t\tuserTree[_collectionID]\n      MSTORE \t\t\tuserTree[_collectionID]\n      PUSH 20\t\t\tuserTree[_collectionID]\n      ADD \t\t\tuserTree[_collectionID]\n      PUSH 0\t\t\tuserTree[_collectionID]\n      KECCAK256 \t\t\tuserTree[_collectionID]\n      PUSH 0\t\t\tuserTree[_collectionID].treeDe...\n      ADD \t\t\tuserTree[_collectionID].treeDe...\n      PUSH 0\t\t\tuserTree[_collectionID].treeDe...\n      DUP6 \t\t\t_tokenID\n      DUP2 \t\t\tuserTree[_collectionID].treeDe...\n      MSTORE \t\t\tuserTree[_collectionID].treeDe...\n      PUSH 20\t\t\tuserTree[_collectionID].treeDe...\n      ADD \t\t\tuserTree[_collectionID].treeDe...\n      SWAP1 \t\t\tuserTree[_collectionID].treeDe...\n      DUP2 \t\t\tuserTree[_collectionID].treeDe...\n      MSTORE \t\t\tuserTree[_collectionID].treeDe...\n      PUSH 20\t\t\tuserTree[_collectionID].treeDe...\n      ADD \t\t\tuserTree[_collectionID].treeDe...\n      PUSH 0\t\t\tuserTree[_collectionID].treeDe...\n      KECCAK256 \t\t\tuserTree[_collectionID].treeDe...\n      PUSH 0\t\t\tuserTree[_collectionID].treeDe...\n      ADD \t\t\tuserTree[_collectionID].treeDe...\n      DUP2 \t\t\tuserTree[_collectionID].treeDe...\n      SWAP1 \t\t\tuserTree[_collectionID].treeDe...\n      SSTORE \t\t\tuserTree[_collectionID].treeDe...\n      POP \t\t\tuserTree[_collectionID].treeDe...\n      PUSH 1\t\t\t1\n      PUSH 8\t\t\tuserTree\n      PUSH 0\t\t\tuserTree[_collectionID]\n      DUP7 \t\t\t_collectionID\n      DUP2 \t\t\tuserTree[_collectionID]\n      MSTORE \t\t\tuserTree[_collectionID]\n      PUSH 20\t\t\tuserTree[_collectionID]\n      ADD \t\t\tuserTree[_collectionID]\n      SWAP1 \t\t\tuserTree[_collectionID]\n      DUP2 \t\t\tuserTree[_collectionID]\n      MSTORE \t\t\tuserTree[_collectionID]\n      PUSH 20\t\t\tuserTree[_collectionID]\n      ADD \t\t\tuserTree[_collectionID]\n      PUSH 0\t\t\tuserTree[_collectionID]\n      KECCAK256 \t\t\tuserTree[_collectionID]\n      PUSH 0\t\t\tuserTree[_collectionID].treeDe...\n      ADD \t\t\tuserTree[_collectionID].treeDe...\n      PUSH 0\t\t\tuserTree[_collectionID].treeDe...\n      DUP6 \t\t\t_tokenID\n      DUP2 \t\t\tuserTree[_collectionID].treeDe...\n      MSTORE \t\t\tuserTree[_collectionID].treeDe...\n      PUSH 20\t\t\tuserTree[_collectionID].treeDe...\n      ADD \t\t\tuserTree[_collectionID].treeDe...\n      SWAP1 \t\t\tuserTree[_collectionID].treeDe...\n      DUP2 \t\t\tuserTree[_collectionID].treeDe...\n      MSTORE \t\t\tuserTree[_collectionID].treeDe...\n      PUSH 20\t\t\tuserTree[_collectionID].treeDe...\n      ADD \t\t\tuserTree[_collectionID].treeDe...\n      PUSH 0\t\t\tuserTree[_collectionID].treeDe...\n      KECCAK256 \t\t\tuserTree[_collectionID].treeDe...\n      PUSH 2\t\t\tuserTree[_collectionID].treeDe...\n      ADD \t\t\tuserTree[_collectionID].treeDe...\n      PUSH 0\t\t\tuserTree[_collectionID].treeDe...\n      DUP3 \t\t\tuserTree[_collectionID].treeDe...\n      DUP3 \t\t\tuserTree[_collectionID].treeDe...\n      SLOAD \t\t\tuserTree[_collectionID].treeDe...\n      PUSH [tag] 238\t\t\tuserTree[_collectionID].treeDe...\n      SWAP2 \t\t\tuserTree[_collectionID].treeDe...\n      SWAP1 \t\t\tuserTree[_collectionID].treeDe...\n      PUSH [tag] 160\t\t\tuserTree[_collectionID].treeDe...\n      JUMP \t\t\tuserTree[_collectionID].treeDe...\n    tag 238\t\t\tuserTree[_collectionID].treeDe...\n      JUMPDEST \t\t\tuserTree[_collectionID].treeDe...\n      SWAP3 \t\t\tuserTree[_collectionID].treeDe...\n      POP \t\t\tuserTree[_collectionID].treeDe...\n      POP \t\t\tuserTree[_collectionID].treeDe...\n      DUP2 \t\t\tuserTree[_collectionID].treeDe...\n      SWAP1 \t\t\tuserTree[_collectionID].treeDe...\n      SSTORE \t\t\tuserTree[_collectionID].treeDe...\n      POP \t\t\tuserTree[_collectionID].treeDe...\n      PUSH 1\t\t\ttrue\n      SWAP2 \t\t\treturn true\n      POP \t\t\treturn true\n      POP \t\t\treturn true\n      SWAP3 \t\t\tfunction water(uint256 _collec...\n      SWAP2 \t\t\tfunction water(uint256 _collec...\n      POP \t\t\tfunction water(uint256 _collec...\n      POP \t\t\tfunction water(uint256 _collec...\n      JUMP \t\t\tfunction water(uint256 _collec...\n    tag 128\t\t\timed;\\r\\n        uint256 water...\n      JUMPDEST \t\t\timed;\\r\\n        uint256 water...\n      PUSH 0\t\t\t tokens\n      CALLER \t\t\t    struct\n      SWAP1 \t\t\t  }\\r\\n\\r\\n    struct\n      POP \t\t\t  }\\r\\n\\r\\n    struct\n      SWAP1 \t\t\timed;\\r\\n        uint256 water...\n      JUMP \t\t\timed;\\r\\n        uint256 water...\n    tag 130\t\t\t\n      JUMPDEST \t\t\t\n      PUSH 0\t\t\t\n      PUSH FFFFFFFFFFFFFFFFFFFFFFFFFFFFFFFFFFFFFFFF\t\t\t\n      AND \t\t\t\n      DUP4 \t\t\t\n      PUSH FFFFFFFFFFFFFFFFFFFFFFFFFFFFFFFFFFFFFFFF\t\t\t\n      AND \t\t\t\n      SUB \t\t\t\n      PUSH [tag] 241\t\t\t\n      JUMPI \t\t\t\n      PUSH 40\t\t\t\n      MLOAD \t\t\t\n      PUSH 8C379A000000000000000000000000000000000000000000000000000000000\t\t\t\n      DUP2 \t\t\t\n      MSTORE \t\t\t\n      PUSH 4\t\t\t\n      ADD \t\t\t\n      PUSH [tag] 242\t\t\t\n      SWAP1 \t\t\t\n      PUSH [tag] 243\t\t\t\n      JUMP \t\t\t\n    tag 242\t\t\t\n      JUMPDEST \t\t\t\n      PUSH 40\t\t\t\n      MLOAD \t\t\t\n      DUP1 \t\t\t\n      SWAP2 \t\t\t\n      SUB \t\t\t\n      SWAP1 \t\t\t\n      REVERT \t\t\t\n    tag 241\t\t\t\n      JUMPDEST \t\t\t\n      PUSH 0\t\t\t\n      PUSH FFFFFFFFFFFFFFFFFFFFFFFFFFFFFFFFFFFFFFFF\t\t\t\n      AND \t\t\t\n      DUP3 \t\t\t\n      PUSH FFFFFFFFFFFFFFFFFFFFFFFFFFFFFFFFFFFFFFFF\t\t\t\n      AND \t\t\t\n      SUB \t\t\t\n      PUSH [tag] 244\t\t\t\n      JUMPI \t\t\t\n      PUSH 40\t\t\t\n      MLOAD \t\t\t\n      PUSH 8C379A000000000000000000000000000000000000000000000000000000000\t\t\t\n      DUP2 \t\t\t\n      MSTORE \t\t\t\n      PUSH 4\t\t\t\n      ADD \t\t\t\n      PUSH [tag] 245\t\t\t\n      SWAP1 \t\t\t\n      PUSH [tag] 246\t\t\t\n      JUMP \t\t\t\n    tag 245\t\t\t\n      JUMPDEST \t\t\t\n      PUSH 40\t\t\t\n      MLOAD \t\t\t\n      DUP1 \t\t\t\n      SWAP2 \t\t\t\n      SUB \t\t\t\n      SWAP1 \t\t\t\n      REVERT \t\t\t\n    tag 244\t\t\t\n      JUMPDEST \t\t\t\n      DUP1 \t\t\t\n      PUSH 1\t\t\t\n      PUSH 0\t\t\t\n      DUP6 \t\t\t\n      PUSH FFFFFFFFFFFFFFFFFFFFFFFFFFFFFFFFFFFFFFFF\t\t\t\n      AND \t\t\t\n      PUSH FFFFFFFFFFFFFFFFFFFFFFFFFFFFFFFFFFFFFFFF\t\t\t\n      AND \t\t\t\n      DUP2 \t\t\t\n      MSTORE \t\t\t\n      PUSH 20\t\t\t\n      ADD \t\t\t\n      SWAP1 \t\t\t\n      DUP2 \t\t\t\n      MSTORE \t\t\t\n      PUSH 20\t\t\t\n      ADD \t\t\t\n      PUSH 0\t\t\t\n      KECCAK256 \t\t\t\n      PUSH 0\t\t\t\n      DUP5 \t\t\t\n      PUSH FFFFFFFFFFFFFFFFFFFFFFFFFFFFFFFFFFFFFFFF\t\t\t\n      AND \t\t\t\n      PUSH FFFFFFFFFFFFFFFFFFFFFFFFFFFFFFFFFFFFFFFF\t\t\t\n      AND \t\t\t\n      DUP2 \t\t\t\n      MSTORE \t\t\t\n      PUSH 20\t\t\t\n      ADD \t\t\t\n      SWAP1 \t\t\t\n      DUP2 \t\t\t\n      MSTORE \t\t\t\n      PUSH 20\t\t\t\n      ADD \t\t\t\n      PUSH 0\t\t\t\n      KECCAK256 \t\t\t\n      DUP2 \t\t\t\n      SWAP1 \t\t\t\n      SSTORE \t\t\t\n      POP \t\t\t\n      DUP2 \t\t\t\n      PUSH FFFFFFFFFFFFFFFFFFFFFFFFFFFFFFFFFFFFFFFF\t\t\t\n      AND \t\t\t\n      DUP4 \t\t\t\n      PUSH FFFFFFFFFFFFFFFFFFFFFFFFFFFFFFFFFFFFFFFF\t\t\t\n      AND \t\t\t\n      PUSH 8C5BE1E5EBEC7D5BD14F71427D1E84F3DD0314C0F7B2291E5B200AC8C7C3B925\t\t\t\n      DUP4 \t\t\t\n      PUSH 40\t\t\t\n      MLOAD \t\t\t\n      PUSH [tag] 247\t\t\t\n      SWAP2 \t\t\t\n      SWAP1 \t\t\t\n      PUSH [tag] 40\t\t\t\n      JUMP \t\t\t\n    tag 247\t\t\t\n      JUMPDEST \t\t\t\n      PUSH 40\t\t\t\n      MLOAD \t\t\t\n      DUP1 \t\t\t\n      SWAP2 \t\t\t\n      SUB \t\t\t\n      SWAP1 \t\t\t\n      LOG3 \t\t\t\n      POP \t\t\t\n      POP \t\t\t\n      POP \t\t\t\n      JUMP \t\t\t\n    tag 138\t\t\t\n      JUMPDEST \t\t\t\n      PUSH 0\t\t\t\n      PUSH [tag] 249\t\t\t\n      DUP5 \t\t\t\n      DUP5 \t\t\t\n      PUSH [tag] 113\t\t\t\n      JUMP \t\t\t\n    tag 249\t\t\t\n      JUMPDEST \t\t\t\n      SWAP1 \t\t\t\n      POP \t\t\t\n      PUSH FFFFFFFFFFFFFFFFFFFFFFFFFFFFFFFFFFFFFFFFFFFFFFFFFFFFFFFFFFFFFFFF\t\t\t\n      DUP2 \t\t\t\n      EQ \t\t\t\n      PUSH [tag] 250\t\t\t\n      JUMPI \t\t\t\n      DUP2 \t\t\t\n      DUP2 \t\t\t\n      LT \t\t\t\n      ISZERO \t\t\t\n      PUSH [tag] 251\t\t\t\n      JUMPI \t\t\t\n      PUSH 40\t\t\t\n      MLOAD \t\t\t\n      PUSH 8C379A000000000000000000000000000000000000000000000000000000000\t\t\t\n      DUP2 \t\t\t\n      MSTORE \t\t\t\n      PUSH 4\t\t\t\n      ADD \t\t\t\n      PUSH [tag] 252\t\t\t\n      SWAP1 \t\t\t\n      PUSH [tag] 253\t\t\t\n      JUMP \t\t\t\n    tag 252\t\t\t\n      JUMPDEST \t\t\t\n      PUSH 40\t\t\t\n      MLOAD \t\t\t\n      DUP1 \t\t\t\n      SWAP2 \t\t\t\n      SUB \t\t\t\n      SWAP1 \t\t\t\n      REVERT \t\t\t\n    tag 251\t\t\t\n      JUMPDEST \t\t\t\n      PUSH [tag] 254\t\t\t\n      DUP5 \t\t\t\n      DUP5 \t\t\t\n      DUP5 \t\t\t\n      DUP5 \t\t\t\n      SUB \t\t\t\n      PUSH [tag] 130\t\t\t\n      JUMP \t\t\t\n    tag 254\t\t\t\n      JUMPDEST \t\t\t\n    tag 250\t\t\t\n      JUMPDEST \t\t\t\n      POP \t\t\t\n      POP \t\t\t\n      POP \t\t\t\n      POP \t\t\t\n      JUMP \t\t\t\n    tag 140\t\t\t\n      JUMPDEST \t\t\t\n      PUSH 0\t\t\t\n      PUSH FFFFFFFFFFFFFFFFFFFFFFFFFFFFFFFFFFFFFFFF\t\t\t\n      AND \t\t\t\n      DUP4 \t\t\t\n      PUSH FFFFFFFFFFFFFFFFFFFFFFFFFFFFFFFFFFFFFFFF\t\t\t\n      AND \t\t\t\n      SUB \t\t\t\n      PUSH [tag] 256\t\t\t\n      JUMPI \t\t\t\n      PUSH 40\t\t\t\n      MLOAD \t\t\t\n      PUSH 8C379A000000000000000000000000000000000000000000000000000000000\t\t\t\n      DUP2 \t\t\t\n      MSTORE \t\t\t\n      PUSH 4\t\t\t\n      ADD \t\t\t\n      PUSH [tag] 257\t\t\t\n      SWAP1 \t\t\t\n      PUSH [tag] 258\t\t\t\n      JUMP \t\t\t\n    tag 257\t\t\t\n      JUMPDEST \t\t\t\n      PUSH 40\t\t\t\n      MLOAD \t\t\t\n      DUP1 \t\t\t\n      SWAP2 \t\t\t\n      SUB \t\t\t\n      SWAP1 \t\t\t\n      REVERT \t\t\t\n    tag 256\t\t\t\n      JUMPDEST \t\t\t\n      PUSH 0\t\t\t\n      PUSH FFFFFFFFFFFFFFFFFFFFFFFFFFFFFFFFFFFFFFFF\t\t\t\n      AND \t\t\t\n      DUP3 \t\t\t\n      PUSH FFFFFFFFFFFFFFFFFFFFFFFFFFFFFFFFFFFFFFFF\t\t\t\n      AND \t\t\t\n      SUB \t\t\t\n      PUSH [tag] 259\t\t\t\n      JUMPI \t\t\t\n      PUSH 40\t\t\t\n      MLOAD \t\t\t\n      PUSH 8C379A000000000000000000000000000000000000000000000000000000000\t\t\t\n      DUP2 \t\t\t\n      MSTORE \t\t\t\n      PUSH 4\t\t\t\n      ADD \t\t\t\n      PUSH [tag] 260\t\t\t\n      SWAP1 \t\t\t\n      PUSH [tag] 261\t\t\t\n      JUMP \t\t\t\n    tag 260\t\t\t\n      JUMPDEST \t\t\t\n      PUSH 40\t\t\t\n      MLOAD \t\t\t\n      DUP1 \t\t\t\n      SWAP2 \t\t\t\n      SUB \t\t\t\n      SWAP1 \t\t\t\n      REVERT \t\t\t\n    tag 259\t\t\t\n      JUMPDEST \t\t\t\n      PUSH [tag] 262\t\t\t\n      DUP4 \t\t\t\n      DUP4 \t\t\t\n      DUP4 \t\t\t\n      PUSH [tag] 263\t\t\t\n      JUMP \t\t\t\n    tag 262\t\t\t\n      JUMPDEST \t\t\t\n      PUSH 0\t\t\t\n      DUP1 \t\t\t\n      PUSH 0\t\t\t\n      DUP6 \t\t\t\n      PUSH FFFFFFFFFFFFFFFFFFFFFFFFFFFFFFFFFFFFFFFF\t\t\t\n      AND \t\t\t\n      PUSH FFFFFFFFFFFFFFFFFFFFFFFFFFFFFFFFFFFFFFFF\t\t\t\n      AND \t\t\t\n      DUP2 \t\t\t\n      MSTORE \t\t\t\n      PUSH 20\t\t\t\n      ADD \t\t\t\n      SWAP1 \t\t\t\n      DUP2 \t\t\t\n      MSTORE \t\t\t\n      PUSH 20\t\t\t\n      ADD \t\t\t\n      PUSH 0\t\t\t\n      KECCAK256 \t\t\t\n      SLOAD \t\t\t\n      SWAP1 \t\t\t\n      POP \t\t\t\n      DUP2 \t\t\t\n      DUP2 \t\t\t\n      LT \t\t\t\n      ISZERO \t\t\t\n      PUSH [tag] 264\t\t\t\n      JUMPI \t\t\t\n      PUSH 40\t\t\t\n      MLOAD \t\t\t\n      PUSH 8C379A000000000000000000000000000000000000000000000000000000000\t\t\t\n      DUP2 \t\t\t\n      MSTORE \t\t\t\n      PUSH 4\t\t\t\n      ADD \t\t\t\n      PUSH [tag] 265\t\t\t\n      SWAP1 \t\t\t\n      PUSH [tag] 266\t\t\t\n      JUMP \t\t\t\n    tag 265\t\t\t\n      JUMPDEST \t\t\t\n      PUSH 40\t\t\t\n      MLOAD \t\t\t\n      DUP1 \t\t\t\n      SWAP2 \t\t\t\n      SUB \t\t\t\n      SWAP1 \t\t\t\n      REVERT \t\t\t\n    tag 264\t\t\t\n      JUMPDEST \t\t\t\n      DUP2 \t\t\t\n      DUP2 \t\t\t\n      SUB \t\t\t\n      PUSH 0\t\t\t\n      DUP1 \t\t\t\n      DUP7 \t\t\t\n      PUSH FFFFFFFFFFFFFFFFFFFFFFFFFFFFFFFFFFFFFFFF\t\t\t\n      AND \t\t\t\n      PUSH FFFFFFFFFFFFFFFFFFFFFFFFFFFFFFFFFFFFFFFF\t\t\t\n      AND \t\t\t\n      DUP2 \t\t\t\n      MSTORE \t\t\t\n      PUSH 20\t\t\t\n      ADD \t\t\t\n      SWAP1 \t\t\t\n      DUP2 \t\t\t\n      MSTORE \t\t\t\n      PUSH 20\t\t\t\n      ADD \t\t\t\n      PUSH 0\t\t\t\n      KECCAK256 \t\t\t\n      DUP2 \t\t\t\n      SWAP1 \t\t\t\n      SSTORE \t\t\t\n      POP \t\t\t\n      DUP2 \t\t\t\n      PUSH 0\t\t\t\n      DUP1 \t\t\t\n      DUP6 \t\t\t\n      PUSH FFFFFFFFFFFFFFFFFFFFFFFFFFFFFFFFFFFFFFFF\t\t\t\n      AND \t\t\t\n      PUSH FFFFFFFFFFFFFFFFFFFFFFFFFFFFFFFFFFFFFFFF\t\t\t\n      AND \t\t\t\n      DUP2 \t\t\t\n      MSTORE \t\t\t\n      PUSH 20\t\t\t\n      ADD \t\t\t\n      SWAP1 \t\t\t\n      DUP2 \t\t\t\n      MSTORE \t\t\t\n      PUSH 20\t\t\t\n      ADD \t\t\t\n      PUSH 0\t\t\t\n      KECCAK256 \t\t\t\n      PUSH 0\t\t\t\n      DUP3 \t\t\t\n      DUP3 \t\t\t\n      SLOAD \t\t\t\n      ADD \t\t\t\n      SWAP3 \t\t\t\n      POP \t\t\t\n      POP \t\t\t\n      DUP2 \t\t\t\n      SWAP1 \t\t\t\n      SSTORE \t\t\t\n      POP \t\t\t\n      DUP3 \t\t\t\n      PUSH FFFFFFFFFFFFFFFFFFFFFFFFFFFFFFFFFFFFFFFF\t\t\t\n      AND \t\t\t\n      DUP5 \t\t\t\n      PUSH FFFFFFFFFFFFFFFFFFFFFFFFFFFFFFFFFFFFFFFF\t\t\t\n      AND \t\t\t\n      PUSH DDF252AD1BE2C89B69C2B068FC378DAA952BA7F163C4A11628F55A4DF523B3EF\t\t\t\n      DUP5 \t\t\t\n      PUSH 40\t\t\t\n      MLOAD \t\t\t\n      PUSH [tag] 267\t\t\t\n      SWAP2 \t\t\t\n      SWAP1 \t\t\t\n      PUSH [tag] 40\t\t\t\n      JUMP \t\t\t\n    tag 267\t\t\t\n      JUMPDEST \t\t\t\n      PUSH 40\t\t\t\n      MLOAD \t\t\t\n      DUP1 \t\t\t\n      SWAP2 \t\t\t\n      SUB \t\t\t\n      SWAP1 \t\t\t\n      LOG3 \t\t\t\n      PUSH [tag] 268\t\t\t\n      DUP5 \t\t\t\n      DUP5 \t\t\t\n      DUP5 \t\t\t\n      PUSH [tag] 269\t\t\t\n      JUMP \t\t\t\n    tag 268\t\t\t\n      JUMPDEST \t\t\t\n      POP \t\t\t\n      POP \t\t\t\n      POP \t\t\t\n      POP \t\t\t\n      JUMP \t\t\t\n    tag 146\t\t\t collection with their IDs\\r\\n...\n      JUMPDEST \t\t\t collection with their IDs\\r\\n...\n      PUSH 1\t\t\ta\n      DUP2 \t\t\tD; // t\n      PUSH 0\t\t\tD; // to get c\n      ADD \t\t\tD; // to get c\n      PUSH 0\t\t\tD; // to get c\n      DUP3 \t\t\tD; // to get contra\n      DUP3 \t\t\tD; // to get contra\n      SLOAD \t\t\tD; // to get contra\n      ADD \t\t\tD; // to get contra\n      SWAP3 \t\t\tD; // to get contra\n      POP \t\t\tD; // to get contra\n      POP \t\t\tD; // to get contra\n      DUP2 \t\t\tD; // to get contra\n      SWAP1 \t\t\tD; // to get contra\n      SSTORE \t\t\tD; // to get contra\n      POP \t\t\tD; // to get contra\n      POP \t\t\t collection with their IDs\\r\\n...\n      JUMP \t\t\t collection with their IDs\\r\\n...\n    tag 148\t\t\tdetails with its tokenID\\r\\n  ...\n      JUMPDEST \t\t\tdetails with its tokenID\\r\\n  ...\n      PUSH 0\t\t\tlection\n      DUP2 \t\t\ttions; \n      PUSH 0\t\t\ttions; // to k\n      ADD \t\t\ttions; // to k\n      SLOAD \t\t\ttions; // to k\n      SWAP1 \t\t\tecollections; // to k\n      POP \t\t\tecollections; // to k\n      SWAP2 \t\t\tdetails with its tokenID\\r\\n  ...\n      SWAP1 \t\t\tdetails with its tokenID\\r\\n  ...\n      POP \t\t\tdetails with its tokenID\\r\\n  ...\n      JUMP \t\t\tdetails with its tokenID\\r\\n  ...\n    tag 222\t\t\tfunction mint(address to, uint...\n      JUMPDEST \t\t\tfunction mint(address to, uint...\n      PUSH [tag] 273\t\t\t_mint(to, amount)\n      DUP3 \t\t\tto\n      DUP3 \t\t\tamount\n      PUSH [tag] 274\t\t\t_mint\n      JUMP \t\t\t_mint(to, amount)\n    tag 273\t\t\t_mint(to, amount)\n      JUMPDEST \t\t\t_mint(to, amount)\n      POP \t\t\tfunction mint(address to, uint...\n      POP \t\t\tfunction mint(address to, uint...\n      JUMP \t\t\tfunction mint(address to, uint...\n    tag 263\t\t\t\n      JUMPDEST \t\t\t\n      POP \t\t\t\n      POP \t\t\t\n      POP \t\t\t\n      JUMP \t\t\t\n    tag 269\t\t\t\n      JUMPDEST \t\t\t\n      POP \t\t\t\n      POP \t\t\t\n      POP \t\t\t\n      JUMP \t\t\t\n    tag 274\t\t\t\n      JUMPDEST \t\t\t\n      PUSH 0\t\t\t\n      PUSH FFFFFFFFFFFFFFFFFFFFFFFFFFFFFFFFFFFFFFFF\t\t\t\n      AND \t\t\t\n      DUP3 \t\t\t\n      PUSH FFFFFFFFFFFFFFFFFFFFFFFFFFFFFFFFFFFFFFFF\t\t\t\n      AND \t\t\t\n      SUB \t\t\t\n      PUSH [tag] 278\t\t\t\n      JUMPI \t\t\t\n      PUSH 40\t\t\t\n      MLOAD \t\t\t\n      PUSH 8C379A000000000000000000000000000000000000000000000000000000000\t\t\t\n      DUP2 \t\t\t\n      MSTORE \t\t\t\n      PUSH 4\t\t\t\n      ADD \t\t\t\n      PUSH [tag] 279\t\t\t\n      SWAP1 \t\t\t\n      PUSH [tag] 280\t\t\t\n      JUMP \t\t\t\n    tag 279\t\t\t\n      JUMPDEST \t\t\t\n      PUSH 40\t\t\t\n      MLOAD \t\t\t\n      DUP1 \t\t\t\n      SWAP2 \t\t\t\n      SUB \t\t\t\n      SWAP1 \t\t\t\n      REVERT \t\t\t\n    tag 278\t\t\t\n      JUMPDEST \t\t\t\n      PUSH [tag] 281\t\t\t\n      PUSH 0\t\t\t\n      DUP4 \t\t\t\n      DUP4 \t\t\t\n      PUSH [tag] 263\t\t\t\n      JUMP \t\t\t\n    tag 281\t\t\t\n      JUMPDEST \t\t\t\n      DUP1 \t\t\t\n      PUSH 2\t\t\t\n      PUSH 0\t\t\t\n      DUP3 \t\t\t\n      DUP3 \t\t\t\n      SLOAD \t\t\t\n      PUSH [tag] 282\t\t\t\n      SWAP2 \t\t\t\n      SWAP1 \t\t\t\n      PUSH [tag] 160\t\t\t\n      JUMP \t\t\t\n    tag 282\t\t\t\n      JUMPDEST \t\t\t\n      SWAP3 \t\t\t\n      POP \t\t\t\n      POP \t\t\t\n      DUP2 \t\t\t\n      SWAP1 \t\t\t\n      SSTORE \t\t\t\n      POP \t\t\t\n      DUP1 \t\t\t\n      PUSH 0\t\t\t\n      DUP1 \t\t\t\n      DUP5 \t\t\t\n      PUSH FFFFFFFFFFFFFFFFFFFFFFFFFFFFFFFFFFFFFFFF\t\t\t\n      AND \t\t\t\n      PUSH FFFFFFFFFFFFFFFFFFFFFFFFFFFFFFFFFFFFFFFF\t\t\t\n      AND \t\t\t\n      DUP2 \t\t\t\n      MSTORE \t\t\t\n      PUSH 20\t\t\t\n      ADD \t\t\t\n      SWAP1 \t\t\t\n      DUP2 \t\t\t\n      MSTORE \t\t\t\n      PUSH 20\t\t\t\n      ADD \t\t\t\n      PUSH 0\t\t\t\n      KECCAK256 \t\t\t\n      PUSH 0\t\t\t\n      DUP3 \t\t\t\n      DUP3 \t\t\t\n      SLOAD \t\t\t\n      ADD \t\t\t\n      SWAP3 \t\t\t\n      POP \t\t\t\n      POP \t\t\t\n      DUP2 \t\t\t\n      SWAP1 \t\t\t\n      SSTORE \t\t\t\n      POP \t\t\t\n      DUP2 \t\t\t\n      PUSH FFFFFFFFFFFFFFFFFFFFFFFFFFFFFFFFFFFFFFFF\t\t\t\n      AND \t\t\t\n      PUSH 0\t\t\t\n      PUSH FFFFFFFFFFFFFFFFFFFFFFFFFFFFFFFFFFFFFFFF\t\t\t\n      AND \t\t\t\n      PUSH DDF252AD1BE2C89B69C2B068FC378DAA952BA7F163C4A11628F55A4DF523B3EF\t\t\t\n      DUP4 \t\t\t\n      PUSH 40\t\t\t\n      MLOAD \t\t\t\n      PUSH [tag] 283\t\t\t\n      SWAP2 \t\t\t\n      SWAP1 \t\t\t\n      PUSH [tag] 40\t\t\t\n      JUMP \t\t\t\n    tag 283\t\t\t\n      JUMPDEST \t\t\t\n      PUSH 40\t\t\t\n      MLOAD \t\t\t\n      DUP1 \t\t\t\n      SWAP2 \t\t\t\n      SUB \t\t\t\n      SWAP1 \t\t\t\n      LOG3 \t\t\t\n      PUSH [tag] 284\t\t\t\n      PUSH 0\t\t\t\n      DUP4 \t\t\t\n      DUP4 \t\t\t\n      PUSH [tag] 269\t\t\t\n      JUMP \t\t\t\n    tag 284\t\t\t\n      JUMPDEST \t\t\t\n      POP \t\t\t\n      POP \t\t\t\n      JUMP \t\t\t\n    tag 133\t\t\t\n      JUMPDEST \t\t\t\n      PUSH 40\t\t\t\n      MLOAD \t\t\t\n      DUP1 \t\t\t\n      PUSH 80\t\t\t\n      ADD \t\t\t\n      PUSH 40\t\t\t\n      MSTORE \t\t\t\n      DUP1 \t\t\t\n      PUSH 0\t\t\t\n      DUP2 \t\t\t\n      MSTORE \t\t\t\n      PUSH 20\t\t\t\n      ADD \t\t\t\n      PUSH 0\t\t\t\n      DUP2 \t\t\t\n      MSTORE \t\t\t\n      PUSH 20\t\t\t\n      ADD \t\t\t\n      PUSH 0\t\t\t\n      DUP2 \t\t\t\n      MSTORE \t\t\t\n      PUSH 20\t\t\t\n      ADD \t\t\t\n      PUSH 0\t\t\t\n      DUP2 \t\t\t\n      MSTORE \t\t\t\n      POP \t\t\t\n      SWAP1 \t\t\t\n      JUMP \t\t\t\n    tag 150\t\t\t\n      JUMPDEST \t\t\t\n      PUSH #[$] 0000000000000000000000000000000000000000000000000000000000000000\t\t\t\n      DUP1 \t\t\t\n      PUSH [$] 0000000000000000000000000000000000000000000000000000000000000000\t\t\t\n      DUP4 \t\t\t\n      CODECOPY \t\t\t\n      ADD \t\t\t\n      SWAP1 \t\t\t\n      JUMP \t\t\t\n    tag 285\t\t\t-License-Identifier: MIT\\r\\npr...\n      JUMPDEST \t\t\t-License-Identifier: MIT\\r\\npr...\n      PUSH 0\t\t\t\\nimpor\n      DUP2 \t\t\token/\n      MLOAD \t\t\tacts/token/E\n      SWAP1 \t\t\telin/contracts/token/E\n      POP \t\t\telin/contracts/token/E\n      SWAP2 \t\t\t-License-Identifier: MIT\\r\\npr...\n      SWAP1 \t\t\t-License-Identifier: MIT\\r\\npr...\n      POP \t\t\t-License-Identifier: MIT\\r\\npr...\n      JUMP \t\t\t-License-Identifier: MIT\\r\\npr...\n    tag 286\t\t\tl\";\\r\\nimport \"./TreeCollectio...\n      JUMPDEST \t\t\tl\";\\r\\nimport \"./TreeCollectio...\n      PUSH 0\t\t\tters for Co\n      DUP3 \t\t\tunters\n      DUP3 \t\t\t   \n      MSTORE \t\t\tter;\\r\\n    Counters.\n      PUSH 20\t\t\tter;\n      DUP3 \t\t\tnCo\n      ADD \t\t\tctionCounter;\\r\n      SWAP1 \t\t\tublic TreeCollectionCounter;\\r\n      POP \t\t\tublic TreeCollectionCounter;\\r\n      SWAP3 \t\t\tl\";\\r\\nimport \"./TreeCollectio...\n      SWAP2 \t\t\tl\";\\r\\nimport \"./TreeCollectio...\n      POP \t\t\tl\";\\r\\nimport \"./TreeCollectio...\n      POP \t\t\tl\";\\r\\nimport \"./TreeCollectio...\n      JUMP \t\t\tl\";\\r\\nimport \"./TreeCollectio...\n    tag 287\t\t\t immutable STNEAR;\\r\\n    addr...\n      JUMPDEST \t\t\t immutable STNEAR;\\r\\n    addr...\n      PUSH 0\t\t\tn\n    tag 367\t\t\tGenesis\", \"GNE\"){\\r\\n        a...\n      JUMPDEST \t\t\tGenesis\", \"GNE\"){\\r\\n        a...\n      DUP4 \t\t\t\"){\\r\\n \n      DUP2 \t\t\tG\n      LT \t\t\t, \"GNE\"){\\r\\n  \n      ISZERO \t\t\tGenesis\", \"GNE\"){\\r\\n        a...\n      PUSH [tag] 369\t\t\tGenesis\", \"GNE\"){\\r\\n        a...\n      JUMPI \t\t\tGenesis\", \"GNE\"){\\r\\n        a...\n      DUP1 \t\t\ti\n      DUP3 \t\t\tfun\n      ADD \t\t\t    functio\n      MLOAD \t\t\t }\\r\\n\\r\\n    function\n      DUP2 \t\t\t\\n\n      DUP5 \t\t\ten)\n      ADD \t\t\t_token);\\r\\n \n      MSTORE \t\t\t ERC20(_token);\\r\\n    }\\r\\n\\r...\n      PUSH 20\t\t\tsg\n      DUP2 \t\t\t=\n      ADD \t\t\tmin = msg.\n      SWAP1 \t\t\t   admin = msg.\n      POP \t\t\t   admin = msg.\n      PUSH [tag] 367\t\t\tGenesis\", \"GNE\"){\\r\\n        a...\n      JUMP \t\t\tGenesis\", \"GNE\"){\\r\\n        a...\n    tag 369\t\t\tGenesis\", \"GNE\"){\\r\\n        a...\n      JUMPDEST \t\t\tGenesis\", \"GNE\"){\\r\\n        a...\n      PUSH 0\t\t\t \n      DUP5 \t\t\tternal\n      DUP5 \t\t\tt) \n      ADD \t\t\tmount) internal{\n      MSTORE \t\t\tnt256 amount) internal{\\r\\n  \n      POP \t\t\tuctor(address _token) ERC20(\"G...\n      POP \t\t\t immutable STNEAR;\\r\\n    addr...\n      POP \t\t\t immutable STNEAR;\\r\\n    addr...\n      POP \t\t\t immutable STNEAR;\\r\\n    addr...\n      JUMP \t\t\t immutable STNEAR;\\r\\n    addr...\n    tag 288\t\t\tto, amount);\\r\\n    }\\r\\n\\r\\n ...\n      JUMPDEST \t\t\tto, amount);\\r\\n    }\\r\\n\\r\\n ...\n      PUSH 0\t\t\tails{\\r\n      PUSH 1F\t\t\t6 \n      NOT \t\t\tnt256 l\n      PUSH 1F\t\t\t  \n      DUP4 \t\t\t\\r\\n   \n      ADD \t\t\tred;\\r\\n        \n      AND \t\t\tWatered;\\r\\n        uint256 la\n      SWAP1 \t\t\tnt256 lastWatered;\\r\\n        ...\n      POP \t\t\tnt256 lastWatered;\\r\\n        ...\n      SWAP2 \t\t\tto, amount);\\r\\n    }\\r\\n\\r\\n ...\n      SWAP1 \t\t\tto, amount);\\r\\n    }\\r\\n\\r\\n ...\n      POP \t\t\tto, amount);\\r\\n    }\\r\\n\\r\\n ...\n      JUMP \t\t\tto, amount);\\r\\n    }\\r\\n\\r\\n ...\n    tag 289\t\t\t        uint256 wateredTimes;\\...\n      JUMPDEST \t\t\t        uint256 wateredTimes;\\...\n      PUSH 0\t\t\tree\n      PUSH [tag] 372\t\t\tg(uint256 => TreeDetails) tree...\n      DUP3 \t\t\tails;\n      PUSH [tag] 285\t\t\tg(uint256 => TreeDetails) tree...\n      JUMP \t\t\tg(uint256 => TreeDetails) tree...\n    tag 372\t\t\tg(uint256 => TreeDetails) tree...\n      JUMPDEST \t\t\tg(uint256 => TreeDetails) tree...\n      PUSH [tag] 373\t\t\tore user details with its toke...\n      DUP2 \t\t\t=> Tre\n      DUP6 \t\t\tt25\n      PUSH [tag] 286\t\t\tore user details with its toke...\n      JUMP \t\t\tore user details with its toke...\n    tag 373\t\t\tore user details with its toke...\n      JUMPDEST \t\t\tore user details with its toke...\n      SWAP4 \t\t\tg to store user details with i...\n      POP \t\t\tg to store user details with i...\n      PUSH [tag] 374\t\t\tn) public treecollections; // ...\n      DUP2 \t\t\t with \n      DUP6 \t\t\tcti\n      PUSH 20\t\t\tf co\n      DUP7 \t\t\tecord\n      ADD \t\t\tep record of col\n      PUSH [tag] 287\t\t\tn) public treecollections; // ...\n      JUMP \t\t\tn) public treecollections; // ...\n    tag 374\t\t\tn) public treecollections; // ...\n      JUMPDEST \t\t\tn) public treecollections; // ...\n      PUSH [tag] 375\t\t\teCollection => uint256) publi\n      DUP2 \t\t\t) publ\n      PUSH [tag] 288\t\t\teCollection => uint256) publi\n      JUMP \t\t\teCollection => uint256) publi\n    tag 375\t\t\teCollection => uint256) publi\n      JUMPDEST \t\t\teCollection => uint256) publi\n      DUP5 \t\t\tg(T\n      ADD \t\t\tpping(TreeCollection => uint25...\n      SWAP2 \t\t\t\\n    mapping(TreeCollection =...\n      POP \t\t\t\\n    mapping(TreeCollection =...\n      POP \t\t\tapping {\\r\\n        mapping(ui...\n      SWAP3 \t\t\t        uint256 wateredTimes;\\...\n      SWAP2 \t\t\t        uint256 wateredTimes;\\...\n      POP \t\t\t        uint256 wateredTimes;\\...\n      POP \t\t\t        uint256 wateredTimes;\\...\n      JUMP \t\t\t        uint256 wateredTimes;\\...\n    tag 30\t\t\toID; // to get contract instan...\n      JUMPDEST \t\t\toID; // to get contract instan...\n      PUSH 0\t\t\t a T\n      PUSH 20\t\t\tct\n      DUP3 \t\t\t\\r\\n\\r\\n    f\n      ADD \t\t\ttion\\r\\n\\r\\n    functi\n      SWAP1 \t\t\ts collection\\r\\n\\r\\n    functi\n      POP \t\t\ts collection\\r\\n\\r\\n    functi\n      DUP2 \t\t\ttring mem\n      DUP2 \t\t\tame,\n      SUB \t\t\try name, string memo\n      PUSH 0\t\t\tm\n      DUP4 \t\t\tion(strin\n      ADD \t\t\tlection(string me\n      MSTORE \t\t\tTreeCollection(string memory n...\n      PUSH [tag] 377\t\t\t{\\r\\n\\r\\n        require(msg.s...\n      DUP2 \t\t\ttion\n      DUP5 \t\t\treeCol\n      PUSH [tag] 289\t\t\t{\\r\\n\\r\\n        require(msg.s...\n      JUMP \t\t\t{\\r\\n\\r\\n        require(msg.s...\n    tag 377\t\t\t{\\r\\n\\r\\n        require(msg.s...\n      JUMPDEST \t\t\t{\\r\\n\\r\\n        require(msg.s...\n      SWAP1 \t\t\t public {\\r\\n\\r\\n        requi...\n      POP \t\t\t public {\\r\\n\\r\\n        requi...\n      SWAP3 \t\t\toID; // to get contract instan...\n      SWAP2 \t\t\toID; // to get contract instan...\n      POP \t\t\toID; // to get contract instan...\n      POP \t\t\toID; // to get contract instan...\n      JUMP \t\t\toID; // to get contract instan...\n    tag 290\t\t\tent();\\r\\n        uint256 coll...\n      JUMPDEST \t\t\tent();\\r\\n        uint256 coll...\n      PUSH 0\t\t\tnID = \n      PUSH 40\t\t\tnt\n      MLOAD \t\t\t.current(\n      SWAP1 \t\t\tionCounter.current(\n      POP \t\t\tionCounter.current(\n      SWAP1 \t\t\tent();\\r\\n        uint256 coll...\n      JUMP \t\t\tent();\\r\\n        uint256 coll...\n    tag 291\t\t\tTreeCollection newCollection =...\n      JUMPDEST \t\t\tTreeCollection newCollection =...\n      PUSH 0\t\t\tC\n      DUP1 \t\t\tn\n      REVERT \t\t\tnID] = newCo\n    tag 292\t\t\t       CollectionToID[newColle...\n      JUMPDEST \t\t\t       CollectionToID[newColle...\n      PUSH 0\t\t\tr\n      DUP1 \t\t\t \n      REVERT \t\t\ttionID, stri\n    tag 293\t\t\tri) public {\\r\\n\\r\\n        re...\n      JUMPDEST \t\t\tri) public {\\r\\n\\r\\n        re...\n      PUSH 0\t\t\tR.trans\n      PUSH FFFFFFFFFFFFFFFFFFFFFFFFFFFFFFFFFFFFFFFF\t\t\t, 5 * 10 ** 24), \"STNEAR: tran...\n      DUP3 \t\t\ts(thi\n      AND \t\t\tdress(this), 5 * 10 ** 24), \"S...\n      SWAP1 \t\t\t.sender, address(this), 5 * 10...\n      POP \t\t\t.sender, address(this), 5 * 10...\n      SWAP2 \t\t\tri) public {\\r\\n\\r\\n        re...\n      SWAP1 \t\t\tri) public {\\r\\n\\r\\n        re...\n      POP \t\t\tri) public {\\r\\n\\r\\n        re...\n      JUMP \t\t\tri) public {\\r\\n\\r\\n        re...\n    tag 294\t\t\t      TreeCollection treecolle...\n      JUMPDEST \t\t\t      TreeCollection treecolle...\n      PUSH 0\t\t\t TreeCo\n      PUSH [tag] 383\t\t\tns[collectionID]);\\r\\n    \n      DUP3 \t\t\t\\r\\n   \n      PUSH [tag] 293\t\t\tns[collectionID]);\\r\\n    \n      JUMP \t\t\tns[collectionID]);\\r\\n    \n    tag 383\t\t\tns[collectionID]);\\r\\n    \n      JUMPDEST \t\t\tns[collectionID]);\\r\\n    \n      SWAP1 \t\t\teecollections[collectionID]);\\...\n      POP \t\t\teecollections[collectionID]);\\...\n      SWAP2 \t\t\t      TreeCollection treecolle...\n      SWAP1 \t\t\t      TreeCollection treecolle...\n      POP \t\t\t      TreeCollection treecolle...\n      JUMP \t\t\t      TreeCollection treecolle...\n    tag 295\t\t\tection.safeMint(msg.sender, _u...\n      JUMPDEST \t\t\tection.safeMint(msg.sender, _u...\n      PUSH [tag] 385\t\t\ttion.tokenIdCounter();\\r\\n\n      DUP2 \t\t\tr();\\r\n      PUSH [tag] 294\t\t\ttion.tokenIdCounter();\\r\\n\n      JUMP \t\t\ttion.tokenIdCounter();\\r\\n\n    tag 385\t\t\ttion.tokenIdCounter();\\r\\n\n      JUMPDEST \t\t\ttion.tokenIdCounter();\\r\\n\n      DUP2 \t\t\tecoll\n      EQ \t\t\ttreecollection.tokenIdCounter(...\n      PUSH [tag] 386\t\t\ttokenID = treecollection.token...\n      JUMPI \t\t\ttokenID = treecollection.token...\n      PUSH 0\t\t\te\n      DUP1 \t\t\tT\n      REVERT \t\t\t   userTree[\n    tag 386\t\t\ttokenID = treecollection.token...\n      JUMPDEST \t\t\ttokenID = treecollection.token...\n      POP \t\t\tection.safeMint(msg.sender, _u...\n      JUMP \t\t\tection.safeMint(msg.sender, _u...\n    tag 296\t\t\ttreeDetails[tokenID] = TreeDet...\n      JUMPDEST \t\t\ttreeDetails[tokenID] = TreeDet...\n      PUSH 0\t\t\t;\\r\\n  \n      DUP2 \t\t\t _coll\n      CALLDATALOAD \t\t\twater(uint256 _colle\n      SWAP1 \t\t\tfunction water(uint256 _colle\n      POP \t\t\tfunction water(uint256 _colle\n      PUSH [tag] 388\t\t\tuint256 _tokenID) public retur...\n      DUP2 \t\t\tturns\n      PUSH [tag] 295\t\t\tuint256 _tokenID) public retur...\n      JUMP \t\t\tuint256 _tokenID) public retur...\n    tag 388\t\t\tuint256 _tokenID) public retur...\n      JUMPDEST \t\t\tuint256 _tokenID) public retur...\n      SWAP3 \t\t\ttreeDetails[tokenID] = TreeDet...\n      SWAP2 \t\t\ttreeDetails[tokenID] = TreeDet...\n      POP \t\t\ttreeDetails[tokenID] = TreeDet...\n      POP \t\t\ttreeDetails[tokenID] = TreeDet...\n      JUMP \t\t\ttreeDetails[tokenID] = TreeDet...\n    tag 297\t\t\t       TreeCollection treecoll...\n      JUMPDEST \t\t\t       TreeCollection treecoll...\n      PUSH 0\t\t\t= TreeC\n      DUP2 \t\t\tons[_\n      SWAP1 \t\t\treecollections[_\n      POP \t\t\treecollections[_\n      SWAP2 \t\t\t       TreeCollection treecoll...\n      SWAP1 \t\t\t       TreeCollection treecoll...\n      POP \t\t\t       TreeCollection treecoll...\n      JUMP \t\t\t       TreeCollection treecoll...\n    tag 298\t\t\t]);\\r\\n\\r\\n        require(tre...\n      JUMPDEST \t\t\t]);\\r\\n\\r\\n        require(tre...\n      PUSH [tag] 391\t\t\tou are not the owner\");\\r\n      DUP2 \t\t\ter\");\n      PUSH [tag] 297\t\t\tou are not the owner\");\\r\n      JUMP \t\t\tou are not the owner\");\\r\n    tag 391\t\t\tou are not the owner\");\\r\n      JUMPDEST \t\t\tou are not the owner\");\\r\n      DUP2 \t\t\tder, \n      EQ \t\t\tsender, \"You are not the owner...\n      PUSH [tag] 392\t\t\tD) == msg.sender, \"You are not...\n      JUMPI \t\t\tD) == msg.sender, \"You are not...\n      PUSH 0\t\t\ti\n      DUP1 \t\t\te\n      REVERT \t\t\t      requir\n    tag 392\t\t\tD) == msg.sender, \"You are not...\n      JUMPDEST \t\t\tD) == msg.sender, \"You are not...\n      POP \t\t\t]);\\r\\n\\r\\n        require(tre...\n      JUMP \t\t\t]);\\r\\n\\r\\n        require(tre...\n    tag 299\t\t\tferFrom(msg.sender, address(th...\n      JUMPDEST \t\t\tferFrom(msg.sender, address(th...\n      PUSH 0\t\t\t4), \"\n      DUP2 \t\t\t\\r\\n    \n      CALLDATALOAD \t\t\t failed\"); \\r\\n\\r\\n     \n      SWAP1 \t\t\tnsferFrom failed\"); \\r\\n\\r\\n  ...\n      POP \t\t\tnsferFrom failed\"); \\r\\n\\r\\n  ...\n      PUSH [tag] 394\t\t\tee[_collectionID].treeDetails[...\n      DUP2 \t\t\tls[_t\n      PUSH [tag] 298\t\t\tee[_collectionID].treeDetails[...\n      JUMP \t\t\tee[_collectionID].treeDetails[...\n    tag 394\t\t\tee[_collectionID].treeDetails[...\n      JUMPDEST \t\t\tee[_collectionID].treeDetails[...\n      SWAP3 \t\t\tferFrom(msg.sender, address(th...\n      SWAP2 \t\t\tferFrom(msg.sender, address(th...\n      POP \t\t\tferFrom(msg.sender, address(th...\n      POP \t\t\tferFrom(msg.sender, address(th...\n      JUMP \t\t\tferFrom(msg.sender, address(th...\n    tag 33\t\t\tatered = block.timestamp;\\r\\n ...\n      JUMPDEST \t\t\tatered = block.timestamp;\\r\\n ...\n      PUSH 0\t\t\tls[_to\n      DUP1 \t\t\tnID].w\n      PUSH 40\t\t\t  \n      DUP4 \t\t\tturn true\n      DUP6 \t\t\t       \n      SUB \t\t\t\\n\\r\\n        return true;\n      SLT \t\t\t 1;\\r\\n\\r\\n        return true...\n      ISZERO \t\t\t += 1;\\r\\n\\r\\n        return t...\n      PUSH [tag] 396\t\t\t += 1;\\r\\n\\r\\n        return t...\n      JUMPI \t\t\t += 1;\\r\\n\\r\\n        return t...\n      PUSH [tag] 397\t\t\t\\n\\r\\n    function claim(uint2...\n      PUSH [tag] 291\t\t\t\\n\\r\\n    function claim(uint2...\n      JUMP \t\t\t\\n\\r\\n    function claim(uint2...\n    tag 397\t\t\t\\n\\r\\n    function claim(uint2...\n      JUMPDEST \t\t\t\\n\\r\\n    function claim(uint2...\n    tag 396\t\t\t += 1;\\r\\n\\r\\n        return t...\n      JUMPDEST \t\t\t += 1;\\r\\n\\r\\n        return t...\n      PUSH 0\t\t\te\n      PUSH [tag] 398\t\t\treecollections[_collectionID])...\n      DUP6 \t\t\tquire(t\n      DUP3 \t\t\t      \n      DUP7 \t\t\tnID]);\\r\\n\\r\n      ADD \t\t\tctionID]);\\r\\n\\r\\n        \n      PUSH [tag] 296\t\t\treecollections[_collectionID])...\n      JUMP \t\t\treecollections[_collectionID])...\n    tag 398\t\t\treecollections[_collectionID])...\n      JUMPDEST \t\t\treecollections[_collectionID])...\n      SWAP3 \t\t\tllection(treecollections[_coll...\n      POP \t\t\tllection(treecollections[_coll...\n      POP \t\t\t      TreeCollection treecolle...\n      PUSH 20\t\t\tu \n      PUSH [tag] 399\t\t\t        require(block.timestam...\n      DUP6 \t\t\tollecti\n      DUP3 \t\t\terTree\n      DUP7 \t\t\testamp - \n      ADD \t\t\t.timestamp - userTree[\n      PUSH [tag] 299\t\t\t        require(block.timestam...\n      JUMP \t\t\t        require(block.timestam...\n    tag 399\t\t\t        require(block.timestam...\n      JUMPDEST \t\t\t        require(block.timestam...\n      SWAP2 \t\t\tner\");\\r\\n\\r\\n        require(...\n      POP \t\t\tner\");\\r\\n\\r\\n        require(...\n      POP \t\t\t(_tokenID) == msg.sender, \"You...\n      SWAP3 \t\t\tatered = block.timestamp;\\r\\n ...\n      POP \t\t\tatered = block.timestamp;\\r\\n ...\n      SWAP3 \t\t\tatered = block.timestamp;\\r\\n ...\n      SWAP1 \t\t\tatered = block.timestamp;\\r\\n ...\n      POP \t\t\tatered = block.timestamp;\\r\\n ...\n      JUMP \t\t\tatered = block.timestamp;\\r\\n ...\n    tag 300\t\t\tID].lastWatered <= 43200, \"Wat...\n      JUMPDEST \t\t\tID].lastWatered <= 43200, \"Wat...\n      PUSH 0\t\t\tirst\");\n      DUP2 \t\t\tuserT\n      ISZERO \t\t\ttamp - userTr\n      ISZERO \t\t\tk.timestamp - userTre\n      SWAP1 \t\t\tequire(block.timestamp - userT...\n      POP \t\t\tequire(block.timestamp - userT...\n      SWAP2 \t\t\tID].lastWatered <= 43200, \"Wat...\n      SWAP1 \t\t\tID].lastWatered <= 43200, \"Wat...\n      POP \t\t\tID].lastWatered <= 43200, \"Wat...\n      JUMP \t\t\tID].lastWatered <= 43200, \"Wat...\n    tag 301\t\t\tnID].treeDetails[_tokenID].las...\n      JUMPDEST \t\t\tnID].treeDetails[_tokenID].las...\n      PUSH [tag] 402\t\t\tee[_collectionID].tre\n      DUP2 \t\t\tD].tr\n      PUSH [tag] 300\t\t\tee[_collectionID].tre\n      JUMP \t\t\tee[_collectionID].tre\n    tag 402\t\t\tee[_collectionID].tre\n      JUMPDEST \t\t\tee[_collectionID].tre\n      DUP3 \t\t\tser\n      MSTORE \t\t\t      userTree[_collectionID]....\n      POP \t\t\tnID].treeDetails[_tokenID].las...\n      POP \t\t\tnID].treeDetails[_tokenID].las...\n      JUMP \t\t\tnID].treeDetails[_tokenID].las...\n    tag 36\t\t\tenID].lastClaimed = block.time...\n      JUMPDEST \t\t\tenID].lastClaimed = block.time...\n      PUSH 0\t\t\tnID]\n      PUSH 20\t\t\t(m\n      DUP3 \t\t\t       mi\n      ADD \t\t\t;\\r\\n        mint(ms\n      SWAP1 \t\t\tded += 5;\\r\\n        mint(ms\n      POP \t\t\tded += 5;\\r\\n        mint(ms\n      PUSH [tag] 404\t\t\t5 * 10 ** 18);\\r\\n\\r\\n        ...\n      PUSH 0\t\t\tg\n      DUP4 \t\t\t  functio\n      ADD \t\t\t\\r\\n    function ge\n      DUP5 \t\t\t\\r\\n    \n      PUSH [tag] 301\t\t\t5 * 10 ** 18);\\r\\n\\r\\n        ...\n      JUMP \t\t\t5 * 10 ** 18);\\r\\n\\r\\n        ...\n    tag 404\t\t\t5 * 10 ** 18);\\r\\n\\r\\n        ...\n      JUMPDEST \t\t\t5 * 10 ** 18);\\r\\n\\r\\n        ...\n      SWAP3 \t\t\tenID].lastClaimed = block.time...\n      SWAP2 \t\t\tenID].lastClaimed = block.time...\n      POP \t\t\tenID].lastClaimed = block.time...\n      POP \t\t\tenID].lastClaimed = block.time...\n      JUMP \t\t\tenID].lastClaimed = block.time...\n    tag 302\t\t\tint256 collectionId, uint256 t...\n      JUMPDEST \t\t\tint256 collectionId, uint256 t...\n      PUSH [tag] 406\t\t\t  return userTree[collec\n      DUP2 \t\t\tcolle\n      PUSH [tag] 297\t\t\t  return userTree[collec\n      JUMP \t\t\t  return userTree[collec\n    tag 406\t\t\t  return userTree[collec\n      JUMPDEST \t\t\t  return userTree[collec\n      DUP3 \t\t\t   \n      MSTORE \t\t\ty) {\\r\\n        return userTre...\n      POP \t\t\tint256 collectionId, uint256 t...\n      POP \t\t\tint256 collectionId, uint256 t...\n      JUMP \t\t\tint256 collectionId, uint256 t...\n    tag 40\t\t\tetails[tokenId];\\r\\n        //...\n      JUMPDEST \t\t\tetails[tokenId];\\r\\n        //...\n      PUSH 0\t\t\tncti\n      PUSH 20\t\t\ton\n      DUP3 \t\t\t56 collec\n      ADD \t\t\tint256 collectionI\n      SWAP1 \t\t\tTcount(uint256 collectionI\n      POP \t\t\tTcount(uint256 collectionI\n      PUSH [tag] 408\t\t\tview returns(uint256) {\\r\\n   ...\n      PUSH 0\t\t\tD\n      DUP4 \t\t\tcollectio\n      ADD \t\t\tons[collectionID]\n      DUP5 \t\t\tecolle\n      PUSH [tag] 302\t\t\tview returns(uint256) {\\r\\n   ...\n      JUMP \t\t\tview returns(uint256) {\\r\\n   ...\n    tag 408\t\t\tview returns(uint256) {\\r\\n   ...\n      JUMPDEST \t\t\tview returns(uint256) {\\r\\n   ...\n      SWAP3 \t\t\tetails[tokenId];\\r\\n        //...\n      SWAP2 \t\t\tetails[tokenId];\\r\\n        //...\n      POP \t\t\tetails[tokenId];\\r\\n        //...\n      POP \t\t\tetails[tokenId];\\r\\n        //...\n      JUMP \t\t\tetails[tokenId];\\r\\n        //...\n    tag 43\t\t\tr());\\r\\n        //returns NFT...\n      JUMPDEST \t\t\tr());\\r\\n        //returns NFT...\n      PUSH 0\t\t\t }\\r\\n\\r\\n\n      DUP1 \t\t\t  func\n      PUSH 40\t\t\tio\n      DUP4 \t\t\ttion coll\n      DUP6 \t\t\treeColl\n      SUB \t\t\tID(TreeCollection colle\n      SLT \t\t\ttionID(TreeCollection collecti...\n      ISZERO \t\t\tlectionID(TreeCollection colle...\n      PUSH [tag] 410\t\t\tlectionID(TreeCollection colle...\n      JUMPI \t\t\tlectionID(TreeCollection colle...\n      PUSH [tag] 411\t\t\tublic view returns (uint256) {...\n      PUSH [tag] 291\t\t\tublic view returns (uint256) {...\n      JUMP \t\t\tublic view returns (uint256) {...\n    tag 411\t\t\tublic view returns (uint256) {...\n      JUMPDEST \t\t\tublic view returns (uint256) {...\n    tag 410\t\t\tlectionID(TreeCollection colle...\n      JUMPDEST \t\t\tlectionID(TreeCollection colle...\n      PUSH 0\t\t\ts\n      PUSH [tag] 412\t\t\t\\n}\n      DUP6 \t\t\t\n      DUP3 \t\t\t\n      DUP7 \t\t\t\n      ADD \t\t\t\n      PUSH [tag] 299\t\t\t\\n}\n      JUMP \t\t\t\\n}\n    tag 412\t\t\t\\n}\n      JUMPDEST \t\t\t\\n}\n      SWAP3 \t\t\tce\\r\\n    }\\r\\n}\n      POP \t\t\tce\\r\\n    }\\r\\n}\n      POP \t\t\tet particular collection ID us...\n      PUSH 20\t\t\t\n      PUSH [tag] 413\t\t\t\n      DUP6 \t\t\t\n      DUP3 \t\t\t\n      DUP7 \t\t\t\n      ADD \t\t\t\n      PUSH [tag] 299\t\t\t\n      JUMP \t\t\t\n    tag 413\t\t\t\n      JUMPDEST \t\t\t\n      SWAP2 \t\t\t\n      POP \t\t\t\n      POP \t\t\t\n      SWAP3 \t\t\tr());\\r\\n        //returns NFT...\n      POP \t\t\tr());\\r\\n        //returns NFT...\n      SWAP3 \t\t\tr());\\r\\n        //returns NFT...\n      SWAP1 \t\t\tr());\\r\\n        //returns NFT...\n      POP \t\t\tr());\\r\\n        //returns NFT...\n      JUMP \t\t\tr());\\r\\n        //returns NFT...\n    tag 303\t\t\t\n      JUMPDEST \t\t\t\n      PUSH [tag] 415\t\t\t\n      DUP2 \t\t\t\n      PUSH [tag] 297\t\t\t\n      JUMP \t\t\t\n    tag 415\t\t\t\n      JUMPDEST \t\t\t\n      DUP3 \t\t\t\n      MSTORE \t\t\t\n      POP \t\t\t\n      POP \t\t\t\n      JUMP \t\t\t\n    tag 304\t\t\t\n      JUMPDEST \t\t\t\n      PUSH 80\t\t\t\n      DUP3 \t\t\t\n      ADD \t\t\t\n      PUSH 0\t\t\t\n      DUP3 \t\t\t\n      ADD \t\t\t\n      MLOAD \t\t\t\n      PUSH [tag] 417\t\t\t\n      PUSH 0\t\t\t\n      DUP6 \t\t\t\n      ADD \t\t\t\n      DUP3 \t\t\t\n      PUSH [tag] 303\t\t\t\n      JUMP \t\t\t\n    tag 417\t\t\t\n      JUMPDEST \t\t\t\n      POP \t\t\t\n      PUSH 20\t\t\t\n      DUP3 \t\t\t\n      ADD \t\t\t\n      MLOAD \t\t\t\n      PUSH [tag] 418\t\t\t\n      PUSH 20\t\t\t\n      DUP6 \t\t\t\n      ADD \t\t\t\n      DUP3 \t\t\t\n      PUSH [tag] 303\t\t\t\n      JUMP \t\t\t\n    tag 418\t\t\t\n      JUMPDEST \t\t\t\n      POP \t\t\t\n      PUSH 40\t\t\t\n      DUP3 \t\t\t\n      ADD \t\t\t\n      MLOAD \t\t\t\n      PUSH [tag] 419\t\t\t\n      PUSH 40\t\t\t\n      DUP6 \t\t\t\n      ADD \t\t\t\n      DUP3 \t\t\t\n      PUSH [tag] 303\t\t\t\n      JUMP \t\t\t\n    tag 419\t\t\t\n      JUMPDEST \t\t\t\n      POP \t\t\t\n      PUSH 60\t\t\t\n      DUP3 \t\t\t\n      ADD \t\t\t\n      MLOAD \t\t\t\n      PUSH [tag] 420\t\t\t\n      PUSH 60\t\t\t\n      DUP6 \t\t\t\n      ADD \t\t\t\n      DUP3 \t\t\t\n      PUSH [tag] 303\t\t\t\n      JUMP \t\t\t\n    tag 420\t\t\t\n      JUMPDEST \t\t\t\n      POP \t\t\t\n      POP \t\t\t\n      POP \t\t\t\n      POP \t\t\t\n      JUMP \t\t\t\n    tag 46\t\t\t\n      JUMPDEST \t\t\t\n      PUSH 0\t\t\t\n      PUSH 80\t\t\t\n      DUP3 \t\t\t\n      ADD \t\t\t\n      SWAP1 \t\t\t\n      POP \t\t\t\n      PUSH [tag] 422\t\t\t\n      PUSH 0\t\t\t\n      DUP4 \t\t\t\n      ADD \t\t\t\n      DUP5 \t\t\t\n      PUSH [tag] 304\t\t\t\n      JUMP \t\t\t\n    tag 422\t\t\t\n      JUMPDEST \t\t\t\n      SWAP3 \t\t\t\n      SWAP2 \t\t\t\n      POP \t\t\t\n      POP \t\t\t\n      JUMP \t\t\t\n    tag 49\t\t\t\n      JUMPDEST \t\t\t\n      PUSH 0\t\t\t\n      DUP1 \t\t\t\n      PUSH 0\t\t\t\n      PUSH 60\t\t\t\n      DUP5 \t\t\t\n      DUP7 \t\t\t\n      SUB \t\t\t\n      SLT \t\t\t\n      ISZERO \t\t\t\n      PUSH [tag] 424\t\t\t\n      JUMPI \t\t\t\n      PUSH [tag] 425\t\t\t\n      PUSH [tag] 291\t\t\t\n      JUMP \t\t\t\n    tag 425\t\t\t\n      JUMPDEST \t\t\t\n    tag 424\t\t\t\n      JUMPDEST \t\t\t\n      PUSH 0\t\t\t\n      PUSH [tag] 426\t\t\t\n      DUP7 \t\t\t\n      DUP3 \t\t\t\n      DUP8 \t\t\t\n      ADD \t\t\t\n      PUSH [tag] 296\t\t\t\n      JUMP \t\t\t\n    tag 426\t\t\t\n      JUMPDEST \t\t\t\n      SWAP4 \t\t\t\n      POP \t\t\t\n      POP \t\t\t\n      PUSH 20\t\t\t\n      PUSH [tag] 427\t\t\t\n      DUP7 \t\t\t\n      DUP3 \t\t\t\n      DUP8 \t\t\t\n      ADD \t\t\t\n      PUSH [tag] 296\t\t\t\n      JUMP \t\t\t\n    tag 427\t\t\t\n      JUMPDEST \t\t\t\n      SWAP3 \t\t\t\n      POP \t\t\t\n      POP \t\t\t\n      PUSH 40\t\t\t\n      PUSH [tag] 428\t\t\t\n      DUP7 \t\t\t\n      DUP3 \t\t\t\n      DUP8 \t\t\t\n      ADD \t\t\t\n      PUSH [tag] 299\t\t\t\n      JUMP \t\t\t\n    tag 428\t\t\t\n      JUMPDEST \t\t\t\n      SWAP2 \t\t\t\n      POP \t\t\t\n      POP \t\t\t\n      SWAP3 \t\t\t\n      POP \t\t\t\n      SWAP3 \t\t\t\n      POP \t\t\t\n      SWAP3 \t\t\t\n      JUMP \t\t\t\n    tag 305\t\t\t\n      JUMPDEST \t\t\t\n      PUSH 0\t\t\t\n      PUSH [tag] 430\t\t\t\n      DUP3 \t\t\t\n      PUSH [tag] 294\t\t\t\n      JUMP \t\t\t\n    tag 430\t\t\t\n      JUMPDEST \t\t\t\n      SWAP1 \t\t\t\n      POP \t\t\t\n      SWAP2 \t\t\t\n      SWAP1 \t\t\t\n      POP \t\t\t\n      JUMP \t\t\t\n    tag 306\t\t\t\n      JUMPDEST \t\t\t\n      PUSH [tag] 432\t\t\t\n      DUP2 \t\t\t\n      PUSH [tag] 305\t\t\t\n      JUMP \t\t\t\n    tag 432\t\t\t\n      JUMPDEST \t\t\t\n      DUP2 \t\t\t\n      EQ \t\t\t\n      PUSH [tag] 433\t\t\t\n      JUMPI \t\t\t\n      PUSH 0\t\t\t\n      DUP1 \t\t\t\n      REVERT \t\t\t\n    tag 433\t\t\t\n      JUMPDEST \t\t\t\n      POP \t\t\t\n      JUMP \t\t\t\n    tag 307\t\t\t\n      JUMPDEST \t\t\t\n      PUSH 0\t\t\t\n      DUP2 \t\t\t\n      CALLDATALOAD \t\t\t\n      SWAP1 \t\t\t\n      POP \t\t\t\n      PUSH [tag] 435\t\t\t\n      DUP2 \t\t\t\n      PUSH [tag] 306\t\t\t\n      JUMP \t\t\t\n    tag 435\t\t\t\n      JUMPDEST \t\t\t\n      SWAP3 \t\t\t\n      SWAP2 \t\t\t\n      POP \t\t\t\n      POP \t\t\t\n      JUMP \t\t\t\n    tag 54\t\t\t\n      JUMPDEST \t\t\t\n      PUSH 0\t\t\t\n      PUSH 20\t\t\t\n      DUP3 \t\t\t\n      DUP5 \t\t\t\n      SUB \t\t\t\n      SLT \t\t\t\n      ISZERO \t\t\t\n      PUSH [tag] 437\t\t\t\n      JUMPI \t\t\t\n      PUSH [tag] 438\t\t\t\n      PUSH [tag] 291\t\t\t\n      JUMP \t\t\t\n    tag 438\t\t\t\n      JUMPDEST \t\t\t\n    tag 437\t\t\t\n      JUMPDEST \t\t\t\n      PUSH 0\t\t\t\n      PUSH [tag] 439\t\t\t\n      DUP5 \t\t\t\n      DUP3 \t\t\t\n      DUP6 \t\t\t\n      ADD \t\t\t\n      PUSH [tag] 307\t\t\t\n      JUMP \t\t\t\n    tag 439\t\t\t\n      JUMPDEST \t\t\t\n      SWAP2 \t\t\t\n      POP \t\t\t\n      POP \t\t\t\n      SWAP3 \t\t\t\n      SWAP2 \t\t\t\n      POP \t\t\t\n      POP \t\t\t\n      JUMP \t\t\t\n    tag 308\t\t\t\n      JUMPDEST \t\t\t\n      PUSH 0\t\t\t\n      DUP1 \t\t\t\n      REVERT \t\t\t\n    tag 309\t\t\t\n      JUMPDEST \t\t\t\n      PUSH 0\t\t\t\n      DUP1 \t\t\t\n      REVERT \t\t\t\n    tag 310\t\t\t\n      JUMPDEST \t\t\t\n      PUSH 4E487B7100000000000000000000000000000000000000000000000000000000\t\t\t\n      PUSH 0\t\t\t\n      MSTORE \t\t\t\n      PUSH 41\t\t\t\n      PUSH 4\t\t\t\n      MSTORE \t\t\t\n      PUSH 24\t\t\t\n      PUSH 0\t\t\t\n      REVERT \t\t\t\n    tag 311\t\t\t\n      JUMPDEST \t\t\t\n      PUSH [tag] 444\t\t\t\n      DUP3 \t\t\t\n      PUSH [tag] 288\t\t\t\n      JUMP \t\t\t\n    tag 444\t\t\t\n      JUMPDEST \t\t\t\n      DUP2 \t\t\t\n      ADD \t\t\t\n      DUP2 \t\t\t\n      DUP2 \t\t\t\n      LT \t\t\t\n      PUSH FFFFFFFFFFFFFFFF\t\t\t\n      DUP3 \t\t\t\n      GT \t\t\t\n      OR \t\t\t\n      ISZERO \t\t\t\n      PUSH [tag] 445\t\t\t\n      JUMPI \t\t\t\n      PUSH [tag] 446\t\t\t\n      PUSH [tag] 310\t\t\t\n      JUMP \t\t\t\n    tag 446\t\t\t\n      JUMPDEST \t\t\t\n    tag 445\t\t\t\n      JUMPDEST \t\t\t\n      DUP1 \t\t\t\n      PUSH 40\t\t\t\n      MSTORE \t\t\t\n      POP \t\t\t\n      POP \t\t\t\n      POP \t\t\t\n      JUMP \t\t\t\n    tag 312\t\t\t\n      JUMPDEST \t\t\t\n      PUSH 0\t\t\t\n      PUSH [tag] 448\t\t\t\n      PUSH [tag] 290\t\t\t\n      JUMP \t\t\t\n    tag 448\t\t\t\n      JUMPDEST \t\t\t\n      SWAP1 \t\t\t\n      POP \t\t\t\n      PUSH [tag] 449\t\t\t\n      DUP3 \t\t\t\n      DUP3 \t\t\t\n      PUSH [tag] 311\t\t\t\n      JUMP \t\t\t\n    tag 449\t\t\t\n      JUMPDEST \t\t\t\n      SWAP2 \t\t\t\n      SWAP1 \t\t\t\n      POP \t\t\t\n      JUMP \t\t\t\n    tag 313\t\t\t\n      JUMPDEST \t\t\t\n      PUSH 0\t\t\t\n      PUSH FFFFFFFFFFFFFFFF\t\t\t\n      DUP3 \t\t\t\n      GT \t\t\t\n      ISZERO \t\t\t\n      PUSH [tag] 451\t\t\t\n      JUMPI \t\t\t\n      PUSH [tag] 452\t\t\t\n      PUSH [tag] 310\t\t\t\n      JUMP \t\t\t\n    tag 452\t\t\t\n      JUMPDEST \t\t\t\n    tag 451\t\t\t\n      JUMPDEST \t\t\t\n      PUSH [tag] 453\t\t\t\n      DUP3 \t\t\t\n      PUSH [tag] 288\t\t\t\n      JUMP \t\t\t\n    tag 453\t\t\t\n      JUMPDEST \t\t\t\n      SWAP1 \t\t\t\n      POP \t\t\t\n      PUSH 20\t\t\t\n      DUP2 \t\t\t\n      ADD \t\t\t\n      SWAP1 \t\t\t\n      POP \t\t\t\n      SWAP2 \t\t\t\n      SWAP1 \t\t\t\n      POP \t\t\t\n      JUMP \t\t\t\n    tag 314\t\t\t\n      JUMPDEST \t\t\t\n      DUP3 \t\t\t\n      DUP2 \t\t\t\n      DUP4 \t\t\t\n      CALLDATACOPY \t\t\t\n      PUSH 0\t\t\t\n      DUP4 \t\t\t\n      DUP4 \t\t\t\n      ADD \t\t\t\n      MSTORE \t\t\t\n      POP \t\t\t\n      POP \t\t\t\n      POP \t\t\t\n      JUMP \t\t\t\n    tag 315\t\t\t\n      JUMPDEST \t\t\t\n      PUSH 0\t\t\t\n      PUSH [tag] 456\t\t\t\n      PUSH [tag] 457\t\t\t\n      DUP5 \t\t\t\n      PUSH [tag] 313\t\t\t\n      JUMP \t\t\t\n    tag 457\t\t\t\n      JUMPDEST \t\t\t\n      PUSH [tag] 312\t\t\t\n      JUMP \t\t\t\n    tag 456\t\t\t\n      JUMPDEST \t\t\t\n      SWAP1 \t\t\t\n      POP \t\t\t\n      DUP3 \t\t\t\n      DUP2 \t\t\t\n      MSTORE \t\t\t\n      PUSH 20\t\t\t\n      DUP2 \t\t\t\n      ADD \t\t\t\n      DUP5 \t\t\t\n      DUP5 \t\t\t\n      DUP5 \t\t\t\n      ADD \t\t\t\n      GT \t\t\t\n      ISZERO \t\t\t\n      PUSH [tag] 458\t\t\t\n      JUMPI \t\t\t\n      PUSH [tag] 459\t\t\t\n      PUSH [tag] 309\t\t\t\n      JUMP \t\t\t\n    tag 459\t\t\t\n      JUMPDEST \t\t\t\n    tag 458\t\t\t\n      JUMPDEST \t\t\t\n      PUSH [tag] 460\t\t\t\n      DUP5 \t\t\t\n      DUP3 \t\t\t\n      DUP6 \t\t\t\n      PUSH [tag] 314\t\t\t\n      JUMP \t\t\t\n    tag 460\t\t\t\n      JUMPDEST \t\t\t\n      POP \t\t\t\n      SWAP4 \t\t\t\n      SWAP3 \t\t\t\n      POP \t\t\t\n      POP \t\t\t\n      POP \t\t\t\n      JUMP \t\t\t\n    tag 316\t\t\t\n      JUMPDEST \t\t\t\n      PUSH 0\t\t\t\n      DUP3 \t\t\t\n      PUSH 1F\t\t\t\n      DUP4 \t\t\t\n      ADD \t\t\t\n      SLT \t\t\t\n      PUSH [tag] 462\t\t\t\n      JUMPI \t\t\t\n      PUSH [tag] 463\t\t\t\n      PUSH [tag] 308\t\t\t\n      JUMP \t\t\t\n    tag 463\t\t\t\n      JUMPDEST \t\t\t\n    tag 462\t\t\t\n      JUMPDEST \t\t\t\n      DUP2 \t\t\t\n      CALLDATALOAD \t\t\t\n      PUSH [tag] 464\t\t\t\n      DUP5 \t\t\t\n      DUP3 \t\t\t\n      PUSH 20\t\t\t\n      DUP7 \t\t\t\n      ADD \t\t\t\n      PUSH [tag] 315\t\t\t\n      JUMP \t\t\t\n    tag 464\t\t\t\n      JUMPDEST \t\t\t\n      SWAP2 \t\t\t\n      POP \t\t\t\n      POP \t\t\t\n      SWAP3 \t\t\t\n      SWAP2 \t\t\t\n      POP \t\t\t\n      POP \t\t\t\n      JUMP \t\t\t\n    tag 59\t\t\t\n      JUMPDEST \t\t\t\n      PUSH 0\t\t\t\n      DUP1 \t\t\t\n      PUSH 40\t\t\t\n      DUP4 \t\t\t\n      DUP6 \t\t\t\n      SUB \t\t\t\n      SLT \t\t\t\n      ISZERO \t\t\t\n      PUSH [tag] 466\t\t\t\n      JUMPI \t\t\t\n      PUSH [tag] 467\t\t\t\n      PUSH [tag] 291\t\t\t\n      JUMP \t\t\t\n    tag 467\t\t\t\n      JUMPDEST \t\t\t\n    tag 466\t\t\t\n      JUMPDEST \t\t\t\n      PUSH 0\t\t\t\n      DUP4 \t\t\t\n      ADD \t\t\t\n      CALLDATALOAD \t\t\t\n      PUSH FFFFFFFFFFFFFFFF\t\t\t\n      DUP2 \t\t\t\n      GT \t\t\t\n      ISZERO \t\t\t\n      PUSH [tag] 468\t\t\t\n      JUMPI \t\t\t\n      PUSH [tag] 469\t\t\t\n      PUSH [tag] 292\t\t\t\n      JUMP \t\t\t\n    tag 469\t\t\t\n      JUMPDEST \t\t\t\n    tag 468\t\t\t\n      JUMPDEST \t\t\t\n      PUSH [tag] 470\t\t\t\n      DUP6 \t\t\t\n      DUP3 \t\t\t\n      DUP7 \t\t\t\n      ADD \t\t\t\n      PUSH [tag] 316\t\t\t\n      JUMP \t\t\t\n    tag 470\t\t\t\n      JUMPDEST \t\t\t\n      SWAP3 \t\t\t\n      POP \t\t\t\n      POP \t\t\t\n      PUSH 20\t\t\t\n      DUP4 \t\t\t\n      ADD \t\t\t\n      CALLDATALOAD \t\t\t\n      PUSH FFFFFFFFFFFFFFFF\t\t\t\n      DUP2 \t\t\t\n      GT \t\t\t\n      ISZERO \t\t\t\n      PUSH [tag] 471\t\t\t\n      JUMPI \t\t\t\n      PUSH [tag] 472\t\t\t\n      PUSH [tag] 292\t\t\t\n      JUMP \t\t\t\n    tag 472\t\t\t\n      JUMPDEST \t\t\t\n    tag 471\t\t\t\n      JUMPDEST \t\t\t\n      PUSH [tag] 473\t\t\t\n      DUP6 \t\t\t\n      DUP3 \t\t\t\n      DUP7 \t\t\t\n      ADD \t\t\t\n      PUSH [tag] 316\t\t\t\n      JUMP \t\t\t\n    tag 473\t\t\t\n      JUMPDEST \t\t\t\n      SWAP2 \t\t\t\n      POP \t\t\t\n      POP \t\t\t\n      SWAP3 \t\t\t\n      POP \t\t\t\n      SWAP3 \t\t\t\n      SWAP1 \t\t\t\n      POP \t\t\t\n      JUMP \t\t\t\n    tag 317\t\t\t\n      JUMPDEST \t\t\t\n      PUSH 0\t\t\t\n      PUSH FF\t\t\t\n      DUP3 \t\t\t\n      AND \t\t\t\n      SWAP1 \t\t\t\n      POP \t\t\t\n      SWAP2 \t\t\t\n      SWAP1 \t\t\t\n      POP \t\t\t\n      JUMP \t\t\t\n    tag 318\t\t\t\n      JUMPDEST \t\t\t\n      PUSH [tag] 476\t\t\t\n      DUP2 \t\t\t\n      PUSH [tag] 317\t\t\t\n      JUMP \t\t\t\n    tag 476\t\t\t\n      JUMPDEST \t\t\t\n      DUP3 \t\t\t\n      MSTORE \t\t\t\n      POP \t\t\t\n      POP \t\t\t\n      JUMP \t\t\t\n    tag 64\t\t\t\n      JUMPDEST \t\t\t\n      PUSH 0\t\t\t\n      PUSH 20\t\t\t\n      DUP3 \t\t\t\n      ADD \t\t\t\n      SWAP1 \t\t\t\n      POP \t\t\t\n      PUSH [tag] 478\t\t\t\n      PUSH 0\t\t\t\n      DUP4 \t\t\t\n      ADD \t\t\t\n      DUP5 \t\t\t\n      PUSH [tag] 318\t\t\t\n      JUMP \t\t\t\n    tag 478\t\t\t\n      JUMPDEST \t\t\t\n      SWAP3 \t\t\t\n      SWAP2 \t\t\t\n      POP \t\t\t\n      POP \t\t\t\n      JUMP \t\t\t\n    tag 71\t\t\t\n      JUMPDEST \t\t\t\n      PUSH 0\t\t\t\n      DUP1 \t\t\t\n      PUSH 40\t\t\t\n      DUP4 \t\t\t\n      DUP6 \t\t\t\n      SUB \t\t\t\n      SLT \t\t\t\n      ISZERO \t\t\t\n      PUSH [tag] 480\t\t\t\n      JUMPI \t\t\t\n      PUSH [tag] 481\t\t\t\n      PUSH [tag] 291\t\t\t\n      JUMP \t\t\t\n    tag 481\t\t\t\n      JUMPDEST \t\t\t\n    tag 480\t\t\t\n      JUMPDEST \t\t\t\n      PUSH 0\t\t\t\n      PUSH [tag] 482\t\t\t\n      DUP6 \t\t\t\n      DUP3 \t\t\t\n      DUP7 \t\t\t\n      ADD \t\t\t\n      PUSH [tag] 299\t\t\t\n      JUMP \t\t\t\n    tag 482\t\t\t\n      JUMPDEST \t\t\t\n      SWAP3 \t\t\t\n      POP \t\t\t\n      POP \t\t\t\n      PUSH 20\t\t\t\n      DUP4 \t\t\t\n      ADD \t\t\t\n      CALLDATALOAD \t\t\t\n      PUSH FFFFFFFFFFFFFFFF\t\t\t\n      DUP2 \t\t\t\n      GT \t\t\t\n      ISZERO \t\t\t\n      PUSH [tag] 483\t\t\t\n      JUMPI \t\t\t\n      PUSH [tag] 484\t\t\t\n      PUSH [tag] 292\t\t\t\n      JUMP \t\t\t\n    tag 484\t\t\t\n      JUMPDEST \t\t\t\n    tag 483\t\t\t\n      JUMPDEST \t\t\t\n      PUSH [tag] 485\t\t\t\n      DUP6 \t\t\t\n      DUP3 \t\t\t\n      DUP7 \t\t\t\n      ADD \t\t\t\n      PUSH [tag] 316\t\t\t\n      JUMP \t\t\t\n    tag 485\t\t\t\n      JUMPDEST \t\t\t\n      SWAP2 \t\t\t\n      POP \t\t\t\n      POP \t\t\t\n      SWAP3 \t\t\t\n      POP \t\t\t\n      SWAP3 \t\t\t\n      SWAP1 \t\t\t\n      POP \t\t\t\n      JUMP \t\t\t\n    tag 79\t\t\t\n      JUMPDEST \t\t\t\n      PUSH 0\t\t\t\n      PUSH 20\t\t\t\n      DUP3 \t\t\t\n      DUP5 \t\t\t\n      SUB \t\t\t\n      SLT \t\t\t\n      ISZERO \t\t\t\n      PUSH [tag] 487\t\t\t\n      JUMPI \t\t\t\n      PUSH [tag] 488\t\t\t\n      PUSH [tag] 291\t\t\t\n      JUMP \t\t\t\n    tag 488\t\t\t\n      JUMPDEST \t\t\t\n    tag 487\t\t\t\n      JUMPDEST \t\t\t\n      PUSH 0\t\t\t\n      PUSH [tag] 489\t\t\t\n      DUP5 \t\t\t\n      DUP3 \t\t\t\n      DUP6 \t\t\t\n      ADD \t\t\t\n      PUSH [tag] 299\t\t\t\n      JUMP \t\t\t\n    tag 489\t\t\t\n      JUMPDEST \t\t\t\n      SWAP2 \t\t\t\n      POP \t\t\t\n      POP \t\t\t\n      SWAP3 \t\t\t\n      SWAP2 \t\t\t\n      POP \t\t\t\n      POP \t\t\t\n      JUMP \t\t\t\n    tag 84\t\t\t\n      JUMPDEST \t\t\t\n      PUSH 0\t\t\t\n      PUSH 20\t\t\t\n      DUP3 \t\t\t\n      DUP5 \t\t\t\n      SUB \t\t\t\n      SLT \t\t\t\n      ISZERO \t\t\t\n      PUSH [tag] 491\t\t\t\n      JUMPI \t\t\t\n      PUSH [tag] 492\t\t\t\n      PUSH [tag] 291\t\t\t\n      JUMP \t\t\t\n    tag 492\t\t\t\n      JUMPDEST \t\t\t\n    tag 491\t\t\t\n      JUMPDEST \t\t\t\n      PUSH 0\t\t\t\n      PUSH [tag] 493\t\t\t\n      DUP5 \t\t\t\n      DUP3 \t\t\t\n      DUP6 \t\t\t\n      ADD \t\t\t\n      PUSH [tag] 296\t\t\t\n      JUMP \t\t\t\n    tag 493\t\t\t\n      JUMPDEST \t\t\t\n      SWAP2 \t\t\t\n      POP \t\t\t\n      POP \t\t\t\n      SWAP3 \t\t\t\n      SWAP2 \t\t\t\n      POP \t\t\t\n      POP \t\t\t\n      JUMP \t\t\t\n    tag 319\t\t\t\n      JUMPDEST \t\t\t\n      PUSH 0\t\t\t\n      DUP2 \t\t\t\n      SWAP1 \t\t\t\n      POP \t\t\t\n      SWAP2 \t\t\t\n      SWAP1 \t\t\t\n      POP \t\t\t\n      JUMP \t\t\t\n    tag 320\t\t\t\n      JUMPDEST \t\t\t\n      PUSH 0\t\t\t\n      PUSH [tag] 496\t\t\t\n      PUSH [tag] 497\t\t\t\n      PUSH [tag] 498\t\t\t\n      DUP5 \t\t\t\n      PUSH [tag] 293\t\t\t\n      JUMP \t\t\t\n    tag 498\t\t\t\n      JUMPDEST \t\t\t\n      PUSH [tag] 319\t\t\t\n      JUMP \t\t\t\n    tag 497\t\t\t\n      JUMPDEST \t\t\t\n      PUSH [tag] 293\t\t\t\n      JUMP \t\t\t\n    tag 496\t\t\t\n      JUMPDEST \t\t\t\n      SWAP1 \t\t\t\n      POP \t\t\t\n      SWAP2 \t\t\t\n      SWAP1 \t\t\t\n      POP \t\t\t\n      JUMP \t\t\t\n    tag 321\t\t\t\n      JUMPDEST \t\t\t\n      PUSH 0\t\t\t\n      PUSH [tag] 500\t\t\t\n      DUP3 \t\t\t\n      PUSH [tag] 320\t\t\t\n      JUMP \t\t\t\n    tag 500\t\t\t\n      JUMPDEST \t\t\t\n      SWAP1 \t\t\t\n      POP \t\t\t\n      SWAP2 \t\t\t\n      SWAP1 \t\t\t\n      POP \t\t\t\n      JUMP \t\t\t\n    tag 322\t\t\t\n      JUMPDEST \t\t\t\n      PUSH 0\t\t\t\n      PUSH [tag] 502\t\t\t\n      DUP3 \t\t\t\n      PUSH [tag] 321\t\t\t\n      JUMP \t\t\t\n    tag 502\t\t\t\n      JUMPDEST \t\t\t\n      SWAP1 \t\t\t\n      POP \t\t\t\n      SWAP2 \t\t\t\n      SWAP1 \t\t\t\n      POP \t\t\t\n      JUMP \t\t\t\n    tag 323\t\t\t\n      JUMPDEST \t\t\t\n      PUSH [tag] 504\t\t\t\n      DUP2 \t\t\t\n      PUSH [tag] 322\t\t\t\n      JUMP \t\t\t\n    tag 504\t\t\t\n      JUMPDEST \t\t\t\n      DUP3 \t\t\t\n      MSTORE \t\t\t\n      POP \t\t\t\n      POP \t\t\t\n      JUMP \t\t\t\n    tag 105\t\t\t\n      JUMPDEST \t\t\t\n      PUSH 0\t\t\t\n      PUSH 20\t\t\t\n      DUP3 \t\t\t\n      ADD \t\t\t\n      SWAP1 \t\t\t\n      POP \t\t\t\n      PUSH [tag] 506\t\t\t\n      PUSH 0\t\t\t\n      DUP4 \t\t\t\n      ADD \t\t\t\n      DUP5 \t\t\t\n      PUSH [tag] 323\t\t\t\n      JUMP \t\t\t\n    tag 506\t\t\t\n      JUMPDEST \t\t\t\n      SWAP3 \t\t\t\n      SWAP2 \t\t\t\n      POP \t\t\t\n      POP \t\t\t\n      JUMP \t\t\t\n    tag 112\t\t\t\n      JUMPDEST \t\t\t\n      PUSH 0\t\t\t\n      DUP1 \t\t\t\n      PUSH 40\t\t\t\n      DUP4 \t\t\t\n      DUP6 \t\t\t\n      SUB \t\t\t\n      SLT \t\t\t\n      ISZERO \t\t\t\n      PUSH [tag] 508\t\t\t\n      JUMPI \t\t\t\n      PUSH [tag] 509\t\t\t\n      PUSH [tag] 291\t\t\t\n      JUMP \t\t\t\n    tag 509\t\t\t\n      JUMPDEST \t\t\t\n    tag 508\t\t\t\n      JUMPDEST \t\t\t\n      PUSH 0\t\t\t\n      PUSH [tag] 510\t\t\t\n      DUP6 \t\t\t\n      DUP3 \t\t\t\n      DUP7 \t\t\t\n      ADD \t\t\t\n      PUSH [tag] 296\t\t\t\n      JUMP \t\t\t\n    tag 510\t\t\t\n      JUMPDEST \t\t\t\n      SWAP3 \t\t\t\n      POP \t\t\t\n      POP \t\t\t\n      PUSH 20\t\t\t\n      PUSH [tag] 511\t\t\t\n      DUP6 \t\t\t\n      DUP3 \t\t\t\n      DUP7 \t\t\t\n      ADD \t\t\t\n      PUSH [tag] 296\t\t\t\n      JUMP \t\t\t\n    tag 511\t\t\t\n      JUMPDEST \t\t\t\n      SWAP2 \t\t\t\n      POP \t\t\t\n      POP \t\t\t\n      SWAP3 \t\t\t\n      POP \t\t\t\n      SWAP3 \t\t\t\n      SWAP1 \t\t\t\n      POP \t\t\t\n      JUMP \t\t\t\n    tag 324\t\t\t\n      JUMPDEST \t\t\t\n      PUSH 4E487B7100000000000000000000000000000000000000000000000000000000\t\t\t\n      PUSH 0\t\t\t\n      MSTORE \t\t\t\n      PUSH 22\t\t\t\n      PUSH 4\t\t\t\n      MSTORE \t\t\t\n      PUSH 24\t\t\t\n      PUSH 0\t\t\t\n      REVERT \t\t\t\n    tag 121\t\t\t\n      JUMPDEST \t\t\t\n      PUSH 0\t\t\t\n      PUSH 2\t\t\t\n      DUP3 \t\t\t\n      DIV \t\t\t\n      SWAP1 \t\t\t\n      POP \t\t\t\n      PUSH 1\t\t\t\n      DUP3 \t\t\t\n      AND \t\t\t\n      DUP1 \t\t\t\n      PUSH [tag] 514\t\t\t\n      JUMPI \t\t\t\n      PUSH 7F\t\t\t\n      DUP3 \t\t\t\n      AND \t\t\t\n      SWAP2 \t\t\t\n      POP \t\t\t\n    tag 514\t\t\t\n      JUMPDEST \t\t\t\n      PUSH 20\t\t\t\n      DUP3 \t\t\t\n      LT \t\t\t\n      DUP2 \t\t\t\n      SUB \t\t\t\n      PUSH [tag] 515\t\t\t\n      JUMPI \t\t\t\n      PUSH [tag] 516\t\t\t\n      PUSH [tag] 324\t\t\t\n      JUMP \t\t\t\n    tag 516\t\t\t\n      JUMPDEST \t\t\t\n    tag 515\t\t\t\n      JUMPDEST \t\t\t\n      POP \t\t\t\n      SWAP2 \t\t\t\n      SWAP1 \t\t\t\n      POP \t\t\t\n      JUMP \t\t\t\n    tag 325\t\t\t\n      JUMPDEST \t\t\t\n      PUSH 4E6F706521000000000000000000000000000000000000000000000000000000\t\t\t\n      PUSH 0\t\t\t\n      DUP3 \t\t\t\n      ADD \t\t\t\n      MSTORE \t\t\t\n      POP \t\t\t\n      JUMP \t\t\t\n    tag 326\t\t\t\n      JUMPDEST \t\t\t\n      PUSH 0\t\t\t\n      PUSH [tag] 519\t\t\t\n      PUSH 5\t\t\t\n      DUP4 \t\t\t\n      PUSH [tag] 286\t\t\t\n      JUMP \t\t\t\n    tag 519\t\t\t\n      JUMPDEST \t\t\t\n      SWAP2 \t\t\t\n      POP \t\t\t\n      PUSH [tag] 520\t\t\t\n      DUP3 \t\t\t\n      PUSH [tag] 325\t\t\t\n      JUMP \t\t\t\n    tag 520\t\t\t\n      JUMPDEST \t\t\t\n      PUSH 20\t\t\t\n      DUP3 \t\t\t\n      ADD \t\t\t\n      SWAP1 \t\t\t\n      POP \t\t\t\n      SWAP2 \t\t\t\n      SWAP1 \t\t\t\n      POP \t\t\t\n      JUMP \t\t\t\n    tag 144\t\t\t\n      JUMPDEST \t\t\t\n      PUSH 0\t\t\t\n      PUSH 20\t\t\t\n      DUP3 \t\t\t\n      ADD \t\t\t\n      SWAP1 \t\t\t\n      POP \t\t\t\n      DUP2 \t\t\t\n      DUP2 \t\t\t\n      SUB \t\t\t\n      PUSH 0\t\t\t\n      DUP4 \t\t\t\n      ADD \t\t\t\n      MSTORE \t\t\t\n      PUSH [tag] 522\t\t\t\n      DUP2 \t\t\t\n      PUSH [tag] 326\t\t\t\n      JUMP \t\t\t\n    tag 522\t\t\t\n      JUMPDEST \t\t\t\n      SWAP1 \t\t\t\n      POP \t\t\t\n      SWAP2 \t\t\t\n      SWAP1 \t\t\t\n      POP \t\t\t\n      JUMP \t\t\t\n    tag 152\t\t\t\n      JUMPDEST \t\t\t\n      PUSH 0\t\t\t\n      PUSH 40\t\t\t\n      DUP3 \t\t\t\n      ADD \t\t\t\n      SWAP1 \t\t\t\n      POP \t\t\t\n      DUP2 \t\t\t\n      DUP2 \t\t\t\n      SUB \t\t\t\n      PUSH 0\t\t\t\n      DUP4 \t\t\t\n      ADD \t\t\t\n      MSTORE \t\t\t\n      PUSH [tag] 524\t\t\t\n      DUP2 \t\t\t\n      DUP6 \t\t\t\n      PUSH [tag] 289\t\t\t\n      JUMP \t\t\t\n    tag 524\t\t\t\n      JUMPDEST \t\t\t\n      SWAP1 \t\t\t\n      POP \t\t\t\n      DUP2 \t\t\t\n      DUP2 \t\t\t\n      SUB \t\t\t\n      PUSH 20\t\t\t\n      DUP4 \t\t\t\n      ADD \t\t\t\n      MSTORE \t\t\t\n      PUSH [tag] 525\t\t\t\n      DUP2 \t\t\t\n      DUP5 \t\t\t\n      PUSH [tag] 289\t\t\t\n      JUMP \t\t\t\n    tag 525\t\t\t\n      JUMPDEST \t\t\t\n      SWAP1 \t\t\t\n      POP \t\t\t\n      SWAP4 \t\t\t\n      SWAP3 \t\t\t\n      POP \t\t\t\n      POP \t\t\t\n      POP \t\t\t\n      JUMP \t\t\t\n    tag 327\t\t\t\n      JUMPDEST \t\t\t\n      PUSH 4E487B7100000000000000000000000000000000000000000000000000000000\t\t\t\n      PUSH 0\t\t\t\n      MSTORE \t\t\t\n      PUSH 11\t\t\t\n      PUSH 4\t\t\t\n      MSTORE \t\t\t\n      PUSH 24\t\t\t\n      PUSH 0\t\t\t\n      REVERT \t\t\t\n    tag 160\t\t\t\n      JUMPDEST \t\t\t\n      PUSH 0\t\t\t\n      PUSH [tag] 528\t\t\t\n      DUP3 \t\t\t\n      PUSH [tag] 297\t\t\t\n      JUMP \t\t\t\n    tag 528\t\t\t\n      JUMPDEST \t\t\t\n      SWAP2 \t\t\t\n      POP \t\t\t\n      PUSH [tag] 529\t\t\t\n      DUP4 \t\t\t\n      PUSH [tag] 297\t\t\t\n      JUMP \t\t\t\n    tag 529\t\t\t\n      JUMPDEST \t\t\t\n      SWAP3 \t\t\t\n      POP \t\t\t\n      DUP3 \t\t\t\n      DUP3 \t\t\t\n      ADD \t\t\t\n      SWAP1 \t\t\t\n      POP \t\t\t\n      DUP1 \t\t\t\n      DUP3 \t\t\t\n      GT \t\t\t\n      ISZERO \t\t\t\n      PUSH [tag] 530\t\t\t\n      JUMPI \t\t\t\n      PUSH [tag] 531\t\t\t\n      PUSH [tag] 327\t\t\t\n      JUMP \t\t\t\n    tag 531\t\t\t\n      JUMPDEST \t\t\t\n    tag 530\t\t\t\n      JUMPDEST \t\t\t\n      SWAP3 \t\t\t\n      SWAP2 \t\t\t\n      POP \t\t\t\n      POP \t\t\t\n      JUMP \t\t\t\n    tag 328\t\t\t\n      JUMPDEST \t\t\t\n      PUSH [tag] 533\t\t\t\n      DUP2 \t\t\t\n      PUSH [tag] 294\t\t\t\n      JUMP \t\t\t\n    tag 533\t\t\t\n      JUMPDEST \t\t\t\n      DUP3 \t\t\t\n      MSTORE \t\t\t\n      POP \t\t\t\n      POP \t\t\t\n      JUMP \t\t\t\n    tag 329\t\t\t\n      JUMPDEST \t\t\t\n      PUSH 0\t\t\t\n      DUP2 \t\t\t\n      SWAP1 \t\t\t\n      POP \t\t\t\n      SWAP2 \t\t\t\n      SWAP1 \t\t\t\n      POP \t\t\t\n      JUMP \t\t\t\n    tag 330\t\t\t\n      JUMPDEST \t\t\t\n      PUSH 0\t\t\t\n      PUSH [tag] 536\t\t\t\n      PUSH [tag] 537\t\t\t\n      PUSH [tag] 538\t\t\t\n      DUP5 \t\t\t\n      PUSH [tag] 329\t\t\t\n      JUMP \t\t\t\n    tag 538\t\t\t\n      JUMPDEST \t\t\t\n      PUSH [tag] 319\t\t\t\n      JUMP \t\t\t\n    tag 537\t\t\t\n      JUMPDEST \t\t\t\n      PUSH [tag] 297\t\t\t\n      JUMP \t\t\t\n    tag 536\t\t\t\n      JUMPDEST \t\t\t\n      SWAP1 \t\t\t\n      POP \t\t\t\n      SWAP2 \t\t\t\n      SWAP1 \t\t\t\n      POP \t\t\t\n      JUMP \t\t\t\n    tag 331\t\t\t\n      JUMPDEST \t\t\t\n      PUSH [tag] 540\t\t\t\n      DUP2 \t\t\t\n      PUSH [tag] 330\t\t\t\n      JUMP \t\t\t\n    tag 540\t\t\t\n      JUMPDEST \t\t\t\n      DUP3 \t\t\t\n      MSTORE \t\t\t\n      POP \t\t\t\n      POP \t\t\t\n      JUMP \t\t\t\n    tag 163\t\t\t\n      JUMPDEST \t\t\t\n      PUSH 0\t\t\t\n      PUSH 60\t\t\t\n      DUP3 \t\t\t\n      ADD \t\t\t\n      SWAP1 \t\t\t\n      POP \t\t\t\n      PUSH [tag] 542\t\t\t\n      PUSH 0\t\t\t\n      DUP4 \t\t\t\n      ADD \t\t\t\n      DUP7 \t\t\t\n      PUSH [tag] 328\t\t\t\n      JUMP \t\t\t\n    tag 542\t\t\t\n      JUMPDEST \t\t\t\n      PUSH [tag] 543\t\t\t\n      PUSH 20\t\t\t\n      DUP4 \t\t\t\n      ADD \t\t\t\n      DUP6 \t\t\t\n      PUSH [tag] 328\t\t\t\n      JUMP \t\t\t\n    tag 543\t\t\t\n      JUMPDEST \t\t\t\n      PUSH [tag] 544\t\t\t\n      PUSH 40\t\t\t\n      DUP4 \t\t\t\n      ADD \t\t\t\n      DUP5 \t\t\t\n      PUSH [tag] 331\t\t\t\n      JUMP \t\t\t\n    tag 544\t\t\t\n      JUMPDEST \t\t\t\n      SWAP5 \t\t\t\n      SWAP4 \t\t\t\n      POP \t\t\t\n      POP \t\t\t\n      POP \t\t\t\n      POP \t\t\t\n      JUMP \t\t\t\n    tag 332\t\t\t\n      JUMPDEST \t\t\t\n      PUSH [tag] 546\t\t\t\n      DUP2 \t\t\t\n      PUSH [tag] 300\t\t\t\n      JUMP \t\t\t\n    tag 546\t\t\t\n      JUMPDEST \t\t\t\n      DUP2 \t\t\t\n      EQ \t\t\t\n      PUSH [tag] 547\t\t\t\n      JUMPI \t\t\t\n      PUSH 0\t\t\t\n      DUP1 \t\t\t\n      REVERT \t\t\t\n    tag 547\t\t\t\n      JUMPDEST \t\t\t\n      POP \t\t\t\n      JUMP \t\t\t\n    tag 333\t\t\t\n      JUMPDEST \t\t\t\n      PUSH 0\t\t\t\n      DUP2 \t\t\t\n      MLOAD \t\t\t\n      SWAP1 \t\t\t\n      POP \t\t\t\n      PUSH [tag] 549\t\t\t\n      DUP2 \t\t\t\n      PUSH [tag] 332\t\t\t\n      JUMP \t\t\t\n    tag 549\t\t\t\n      JUMPDEST \t\t\t\n      SWAP3 \t\t\t\n      SWAP2 \t\t\t\n      POP \t\t\t\n      POP \t\t\t\n      JUMP \t\t\t\n    tag 167\t\t\t\n      JUMPDEST \t\t\t\n      PUSH 0\t\t\t\n      PUSH 20\t\t\t\n      DUP3 \t\t\t\n      DUP5 \t\t\t\n      SUB \t\t\t\n      SLT \t\t\t\n      ISZERO \t\t\t\n      PUSH [tag] 551\t\t\t\n      JUMPI \t\t\t\n      PUSH [tag] 552\t\t\t\n      PUSH [tag] 291\t\t\t\n      JUMP \t\t\t\n    tag 552\t\t\t\n      JUMPDEST \t\t\t\n    tag 551\t\t\t\n      JUMPDEST \t\t\t\n      PUSH 0\t\t\t\n      PUSH [tag] 553\t\t\t\n      DUP5 \t\t\t\n      DUP3 \t\t\t\n      DUP6 \t\t\t\n      ADD \t\t\t\n      PUSH [tag] 333\t\t\t\n      JUMP \t\t\t\n    tag 553\t\t\t\n      JUMPDEST \t\t\t\n      SWAP2 \t\t\t\n      POP \t\t\t\n      POP \t\t\t\n      SWAP3 \t\t\t\n      SWAP2 \t\t\t\n      POP \t\t\t\n      POP \t\t\t\n      JUMP \t\t\t\n    tag 334\t\t\t\n      JUMPDEST \t\t\t\n      PUSH 53544E4541523A207472616E7366657246726F6D206661696C65640000000000\t\t\t\n      PUSH 0\t\t\t\n      DUP3 \t\t\t\n      ADD \t\t\t\n      MSTORE \t\t\t\n      POP \t\t\t\n      JUMP \t\t\t\n    tag 335\t\t\t\n      JUMPDEST \t\t\t\n      PUSH 0\t\t\t\n      PUSH [tag] 556\t\t\t\n      PUSH 1B\t\t\t\n      DUP4 \t\t\t\n      PUSH [tag] 286\t\t\t\n      JUMP \t\t\t\n    tag 556\t\t\t\n      JUMPDEST \t\t\t\n      SWAP2 \t\t\t\n      POP \t\t\t\n      PUSH [tag] 557\t\t\t\n      DUP3 \t\t\t\n      PUSH [tag] 334\t\t\t\n      JUMP \t\t\t\n    tag 557\t\t\t\n      JUMPDEST \t\t\t\n      PUSH 20\t\t\t\n      DUP3 \t\t\t\n      ADD \t\t\t\n      SWAP1 \t\t\t\n      POP \t\t\t\n      SWAP2 \t\t\t\n      SWAP1 \t\t\t\n      POP \t\t\t\n      JUMP \t\t\t\n    tag 170\t\t\t\n      JUMPDEST \t\t\t\n      PUSH 0\t\t\t\n      PUSH 20\t\t\t\n      DUP3 \t\t\t\n      ADD \t\t\t\n      SWAP1 \t\t\t\n      POP \t\t\t\n      DUP2 \t\t\t\n      DUP2 \t\t\t\n      SUB \t\t\t\n      PUSH 0\t\t\t\n      DUP4 \t\t\t\n      ADD \t\t\t\n      MSTORE \t\t\t\n      PUSH [tag] 559\t\t\t\n      DUP2 \t\t\t\n      PUSH [tag] 335\t\t\t\n      JUMP \t\t\t\n    tag 559\t\t\t\n      JUMPDEST \t\t\t\n      SWAP1 \t\t\t\n      POP \t\t\t\n      SWAP2 \t\t\t\n      SWAP1 \t\t\t\n      POP \t\t\t\n      JUMP \t\t\t\n    tag 172\t\t\t\n      JUMPDEST \t\t\t\n      PUSH 0\t\t\t\n      PUSH 40\t\t\t\n      DUP3 \t\t\t\n      ADD \t\t\t\n      SWAP1 \t\t\t\n      POP \t\t\t\n      PUSH [tag] 561\t\t\t\n      PUSH 0\t\t\t\n      DUP4 \t\t\t\n      ADD \t\t\t\n      DUP6 \t\t\t\n      PUSH [tag] 328\t\t\t\n      JUMP \t\t\t\n    tag 561\t\t\t\n      JUMPDEST \t\t\t\n      DUP2 \t\t\t\n      DUP2 \t\t\t\n      SUB \t\t\t\n      PUSH 20\t\t\t\n      DUP4 \t\t\t\n      ADD \t\t\t\n      MSTORE \t\t\t\n      PUSH [tag] 562\t\t\t\n      DUP2 \t\t\t\n      DUP5 \t\t\t\n      PUSH [tag] 289\t\t\t\n      JUMP \t\t\t\n    tag 562\t\t\t\n      JUMPDEST \t\t\t\n      SWAP1 \t\t\t\n      POP \t\t\t\n      SWAP4 \t\t\t\n      SWAP3 \t\t\t\n      POP \t\t\t\n      POP \t\t\t\n      POP \t\t\t\n      JUMP \t\t\t\n    tag 336\t\t\t\n      JUMPDEST \t\t\t\n      PUSH 0\t\t\t\n      DUP2 \t\t\t\n      MLOAD \t\t\t\n      SWAP1 \t\t\t\n      POP \t\t\t\n      PUSH [tag] 564\t\t\t\n      DUP2 \t\t\t\n      PUSH [tag] 298\t\t\t\n      JUMP \t\t\t\n    tag 564\t\t\t\n      JUMPDEST \t\t\t\n      SWAP3 \t\t\t\n      SWAP2 \t\t\t\n      POP \t\t\t\n      POP \t\t\t\n      JUMP \t\t\t\n    tag 179\t\t\t\n      JUMPDEST \t\t\t\n      PUSH 0\t\t\t\n      PUSH 20\t\t\t\n      DUP3 \t\t\t\n      DUP5 \t\t\t\n      SUB \t\t\t\n      SLT \t\t\t\n      ISZERO \t\t\t\n      PUSH [tag] 566\t\t\t\n      JUMPI \t\t\t\n      PUSH [tag] 567\t\t\t\n      PUSH [tag] 291\t\t\t\n      JUMP \t\t\t\n    tag 567\t\t\t\n      JUMPDEST \t\t\t\n    tag 566\t\t\t\n      JUMPDEST \t\t\t\n      PUSH 0\t\t\t\n      PUSH [tag] 568\t\t\t\n      DUP5 \t\t\t\n      DUP3 \t\t\t\n      DUP6 \t\t\t\n      ADD \t\t\t\n      PUSH [tag] 336\t\t\t\n      JUMP \t\t\t\n    tag 568\t\t\t\n      JUMPDEST \t\t\t\n      SWAP2 \t\t\t\n      POP \t\t\t\n      POP \t\t\t\n      SWAP3 \t\t\t\n      SWAP2 \t\t\t\n      POP \t\t\t\n      POP \t\t\t\n      JUMP \t\t\t\n    tag 337\t\t\t\n      JUMPDEST \t\t\t\n      PUSH 45524332303A2064656372656173656420616C6C6F77616E63652062656C6F77\t\t\t\n      PUSH 0\t\t\t\n      DUP3 \t\t\t\n      ADD \t\t\t\n      MSTORE \t\t\t\n      PUSH 207A65726F000000000000000000000000000000000000000000000000000000\t\t\t\n      PUSH 20\t\t\t\n      DUP3 \t\t\t\n      ADD \t\t\t\n      MSTORE \t\t\t\n      POP \t\t\t\n      JUMP \t\t\t\n    tag 338\t\t\t\n      JUMPDEST \t\t\t\n      PUSH 0\t\t\t\n      PUSH [tag] 571\t\t\t\n      PUSH 25\t\t\t\n      DUP4 \t\t\t\n      PUSH [tag] 286\t\t\t\n      JUMP \t\t\t\n    tag 571\t\t\t\n      JUMPDEST \t\t\t\n      SWAP2 \t\t\t\n      POP \t\t\t\n      PUSH [tag] 572\t\t\t\n      DUP3 \t\t\t\n      PUSH [tag] 337\t\t\t\n      JUMP \t\t\t\n    tag 572\t\t\t\n      JUMPDEST \t\t\t\n      PUSH 40\t\t\t\n      DUP3 \t\t\t\n      ADD \t\t\t\n      SWAP1 \t\t\t\n      POP \t\t\t\n      SWAP2 \t\t\t\n      SWAP1 \t\t\t\n      POP \t\t\t\n      JUMP \t\t\t\n    tag 197\t\t\t\n      JUMPDEST \t\t\t\n      PUSH 0\t\t\t\n      PUSH 20\t\t\t\n      DUP3 \t\t\t\n      ADD \t\t\t\n      SWAP1 \t\t\t\n      POP \t\t\t\n      DUP2 \t\t\t\n      DUP2 \t\t\t\n      SUB \t\t\t\n      PUSH 0\t\t\t\n      DUP4 \t\t\t\n      ADD \t\t\t\n      MSTORE \t\t\t\n      PUSH [tag] 574\t\t\t\n      DUP2 \t\t\t\n      PUSH [tag] 338\t\t\t\n      JUMP \t\t\t\n    tag 574\t\t\t\n      JUMPDEST \t\t\t\n      SWAP1 \t\t\t\n      POP \t\t\t\n      SWAP2 \t\t\t\n      SWAP1 \t\t\t\n      POP \t\t\t\n      JUMP \t\t\t\n    tag 339\t\t\t\n      JUMPDEST \t\t\t\n      PUSH 0\t\t\t\n      DUP2 \t\t\t\n      MLOAD \t\t\t\n      SWAP1 \t\t\t\n      POP \t\t\t\n      PUSH [tag] 576\t\t\t\n      DUP2 \t\t\t\n      PUSH [tag] 295\t\t\t\n      JUMP \t\t\t\n    tag 576\t\t\t\n      JUMPDEST \t\t\t\n      SWAP3 \t\t\t\n      SWAP2 \t\t\t\n      POP \t\t\t\n      POP \t\t\t\n      JUMP \t\t\t\n    tag 207\t\t\t\n      JUMPDEST \t\t\t\n      PUSH 0\t\t\t\n      PUSH 20\t\t\t\n      DUP3 \t\t\t\n      DUP5 \t\t\t\n      SUB \t\t\t\n      SLT \t\t\t\n      ISZERO \t\t\t\n      PUSH [tag] 578\t\t\t\n      JUMPI \t\t\t\n      PUSH [tag] 579\t\t\t\n      PUSH [tag] 291\t\t\t\n      JUMP \t\t\t\n    tag 579\t\t\t\n      JUMPDEST \t\t\t\n    tag 578\t\t\t\n      JUMPDEST \t\t\t\n      PUSH 0\t\t\t\n      PUSH [tag] 580\t\t\t\n      DUP5 \t\t\t\n      DUP3 \t\t\t\n      DUP6 \t\t\t\n      ADD \t\t\t\n      PUSH [tag] 339\t\t\t\n      JUMP \t\t\t\n    tag 580\t\t\t\n      JUMPDEST \t\t\t\n      SWAP2 \t\t\t\n      POP \t\t\t\n      POP \t\t\t\n      SWAP3 \t\t\t\n      SWAP2 \t\t\t\n      POP \t\t\t\n      POP \t\t\t\n      JUMP \t\t\t\n    tag 340\t\t\t\n      JUMPDEST \t\t\t\n      PUSH 596F7520617265206E6F7420746865206F776E65720000000000000000000000\t\t\t\n      PUSH 0\t\t\t\n      DUP3 \t\t\t\n      ADD \t\t\t\n      MSTORE \t\t\t\n      POP \t\t\t\n      JUMP \t\t\t\n    tag 341\t\t\t\n      JUMPDEST \t\t\t\n      PUSH 0\t\t\t\n      PUSH [tag] 583\t\t\t\n      PUSH 15\t\t\t\n      DUP4 \t\t\t\n      PUSH [tag] 286\t\t\t\n      JUMP \t\t\t\n    tag 583\t\t\t\n      JUMPDEST \t\t\t\n      SWAP2 \t\t\t\n      POP \t\t\t\n      PUSH [tag] 584\t\t\t\n      DUP3 \t\t\t\n      PUSH [tag] 340\t\t\t\n      JUMP \t\t\t\n    tag 584\t\t\t\n      JUMPDEST \t\t\t\n      PUSH 20\t\t\t\n      DUP3 \t\t\t\n      ADD \t\t\t\n      SWAP1 \t\t\t\n      POP \t\t\t\n      SWAP2 \t\t\t\n      SWAP1 \t\t\t\n      POP \t\t\t\n      JUMP \t\t\t\n    tag 210\t\t\t\n      JUMPDEST \t\t\t\n      PUSH 0\t\t\t\n      PUSH 20\t\t\t\n      DUP3 \t\t\t\n      ADD \t\t\t\n      SWAP1 \t\t\t\n      POP \t\t\t\n      DUP2 \t\t\t\n      DUP2 \t\t\t\n      SUB \t\t\t\n      PUSH 0\t\t\t\n      DUP4 \t\t\t\n      ADD \t\t\t\n      MSTORE \t\t\t\n      PUSH [tag] 586\t\t\t\n      DUP2 \t\t\t\n      PUSH [tag] 341\t\t\t\n      JUMP \t\t\t\n    tag 586\t\t\t\n      JUMPDEST \t\t\t\n      SWAP1 \t\t\t\n      POP \t\t\t\n      SWAP2 \t\t\t\n      SWAP1 \t\t\t\n      POP \t\t\t\n      JUMP \t\t\t\n    tag 212\t\t\t\n      JUMPDEST \t\t\t\n      PUSH 0\t\t\t\n      PUSH [tag] 588\t\t\t\n      DUP3 \t\t\t\n      PUSH [tag] 297\t\t\t\n      JUMP \t\t\t\n    tag 588\t\t\t\n      JUMPDEST \t\t\t\n      SWAP2 \t\t\t\n      POP \t\t\t\n      PUSH [tag] 589\t\t\t\n      DUP4 \t\t\t\n      PUSH [tag] 297\t\t\t\n      JUMP \t\t\t\n    tag 589\t\t\t\n      JUMPDEST \t\t\t\n      SWAP3 \t\t\t\n      POP \t\t\t\n      DUP3 \t\t\t\n      DUP3 \t\t\t\n      SUB \t\t\t\n      SWAP1 \t\t\t\n      POP \t\t\t\n      DUP2 \t\t\t\n      DUP2 \t\t\t\n      GT \t\t\t\n      ISZERO \t\t\t\n      PUSH [tag] 590\t\t\t\n      JUMPI \t\t\t\n      PUSH [tag] 591\t\t\t\n      PUSH [tag] 327\t\t\t\n      JUMP \t\t\t\n    tag 591\t\t\t\n      JUMPDEST \t\t\t\n    tag 590\t\t\t\n      JUMPDEST \t\t\t\n      SWAP3 \t\t\t\n      SWAP2 \t\t\t\n      POP \t\t\t\n      POP \t\t\t\n      JUMP \t\t\t\n    tag 342\t\t\t\n      JUMPDEST \t\t\t\n      PUSH 5761746572204669727374000000000000000000000000000000000000000000\t\t\t\n      PUSH 0\t\t\t\n      DUP3 \t\t\t\n      ADD \t\t\t\n      MSTORE \t\t\t\n      POP \t\t\t\n      JUMP \t\t\t\n    tag 343\t\t\t\n      JUMPDEST \t\t\t\n      PUSH 0\t\t\t\n      PUSH [tag] 594\t\t\t\n      PUSH B\t\t\t\n      DUP4 \t\t\t\n      PUSH [tag] 286\t\t\t\n      JUMP \t\t\t\n    tag 594\t\t\t\n      JUMPDEST \t\t\t\n      SWAP2 \t\t\t\n      POP \t\t\t\n      PUSH [tag] 595\t\t\t\n      DUP3 \t\t\t\n      PUSH [tag] 342\t\t\t\n      JUMP \t\t\t\n    tag 595\t\t\t\n      JUMPDEST \t\t\t\n      PUSH 20\t\t\t\n      DUP3 \t\t\t\n      ADD \t\t\t\n      SWAP1 \t\t\t\n      POP \t\t\t\n      SWAP2 \t\t\t\n      SWAP1 \t\t\t\n      POP \t\t\t\n      JUMP \t\t\t\n    tag 215\t\t\t\n      JUMPDEST \t\t\t\n      PUSH 0\t\t\t\n      PUSH 20\t\t\t\n      DUP3 \t\t\t\n      ADD \t\t\t\n      SWAP1 \t\t\t\n      POP \t\t\t\n      DUP2 \t\t\t\n      DUP2 \t\t\t\n      SUB \t\t\t\n      PUSH 0\t\t\t\n      DUP4 \t\t\t\n      ADD \t\t\t\n      MSTORE \t\t\t\n      PUSH [tag] 597\t\t\t\n      DUP2 \t\t\t\n      PUSH [tag] 343\t\t\t\n      JUMP \t\t\t\n    tag 597\t\t\t\n      JUMPDEST \t\t\t\n      SWAP1 \t\t\t\n      POP \t\t\t\n      SWAP2 \t\t\t\n      SWAP1 \t\t\t\n      POP \t\t\t\n      JUMP \t\t\t\n    tag 344\t\t\t\n      JUMPDEST \t\t\t\n      PUSH 43616E277420436C61696D000000000000000000000000000000000000000000\t\t\t\n      PUSH 0\t\t\t\n      DUP3 \t\t\t\n      ADD \t\t\t\n      MSTORE \t\t\t\n      POP \t\t\t\n      JUMP \t\t\t\n    tag 345\t\t\t\n      JUMPDEST \t\t\t\n      PUSH 0\t\t\t\n      PUSH [tag] 600\t\t\t\n      PUSH B\t\t\t\n      DUP4 \t\t\t\n      PUSH [tag] 286\t\t\t\n      JUMP \t\t\t\n    tag 600\t\t\t\n      JUMPDEST \t\t\t\n      SWAP2 \t\t\t\n      POP \t\t\t\n      PUSH [tag] 601\t\t\t\n      DUP3 \t\t\t\n      PUSH [tag] 344\t\t\t\n      JUMP \t\t\t\n    tag 601\t\t\t\n      JUMPDEST \t\t\t\n      PUSH 20\t\t\t\n      DUP3 \t\t\t\n      ADD \t\t\t\n      SWAP1 \t\t\t\n      POP \t\t\t\n      SWAP2 \t\t\t\n      SWAP1 \t\t\t\n      POP \t\t\t\n      JUMP \t\t\t\n    tag 219\t\t\t\n      JUMPDEST \t\t\t\n      PUSH 0\t\t\t\n      PUSH 20\t\t\t\n      DUP3 \t\t\t\n      ADD \t\t\t\n      SWAP1 \t\t\t\n      POP \t\t\t\n      DUP2 \t\t\t\n      DUP2 \t\t\t\n      SUB \t\t\t\n      PUSH 0\t\t\t\n      DUP4 \t\t\t\n      ADD \t\t\t\n      MSTORE \t\t\t\n      PUSH [tag] 603\t\t\t\n      DUP2 \t\t\t\n      PUSH [tag] 345\t\t\t\n      JUMP \t\t\t\n    tag 603\t\t\t\n      JUMPDEST \t\t\t\n      SWAP1 \t\t\t\n      POP \t\t\t\n      SWAP2 \t\t\t\n      SWAP1 \t\t\t\n      POP \t\t\t\n      JUMP \t\t\t\n    tag 346\t\t\t\n      JUMPDEST \t\t\t\n      PUSH 0\t\t\t\n      DUP2 \t\t\t\n      SWAP1 \t\t\t\n      POP \t\t\t\n      SWAP2 \t\t\t\n      SWAP1 \t\t\t\n      POP \t\t\t\n      JUMP \t\t\t\n    tag 347\t\t\t\n      JUMPDEST \t\t\t\n      PUSH 0\t\t\t\n      PUSH [tag] 606\t\t\t\n      PUSH [tag] 607\t\t\t\n      PUSH [tag] 608\t\t\t\n      DUP5 \t\t\t\n      PUSH [tag] 346\t\t\t\n      JUMP \t\t\t\n    tag 608\t\t\t\n      JUMPDEST \t\t\t\n      PUSH [tag] 319\t\t\t\n      JUMP \t\t\t\n    tag 607\t\t\t\n      JUMPDEST \t\t\t\n      PUSH [tag] 297\t\t\t\n      JUMP \t\t\t\n    tag 606\t\t\t\n      JUMPDEST \t\t\t\n      SWAP1 \t\t\t\n      POP \t\t\t\n      SWAP2 \t\t\t\n      SWAP1 \t\t\t\n      POP \t\t\t\n      JUMP \t\t\t\n    tag 348\t\t\t\n      JUMPDEST \t\t\t\n      PUSH [tag] 610\t\t\t\n      DUP2 \t\t\t\n      PUSH [tag] 347\t\t\t\n      JUMP \t\t\t\n    tag 610\t\t\t\n      JUMPDEST \t\t\t\n      DUP3 \t\t\t\n      MSTORE \t\t\t\n      POP \t\t\t\n      POP \t\t\t\n      JUMP \t\t\t\n    tag 232\t\t\t\n      JUMPDEST \t\t\t\n      PUSH 0\t\t\t\n      PUSH 60\t\t\t\n      DUP3 \t\t\t\n      ADD \t\t\t\n      SWAP1 \t\t\t\n      POP \t\t\t\n      PUSH [tag] 612\t\t\t\n      PUSH 0\t\t\t\n      DUP4 \t\t\t\n      ADD \t\t\t\n      DUP7 \t\t\t\n      PUSH [tag] 328\t\t\t\n      JUMP \t\t\t\n    tag 612\t\t\t\n      JUMPDEST \t\t\t\n      PUSH [tag] 613\t\t\t\n      PUSH 20\t\t\t\n      DUP4 \t\t\t\n      ADD \t\t\t\n      DUP6 \t\t\t\n      PUSH [tag] 328\t\t\t\n      JUMP \t\t\t\n    tag 613\t\t\t\n      JUMPDEST \t\t\t\n      PUSH [tag] 614\t\t\t\n      PUSH 40\t\t\t\n      DUP4 \t\t\t\n      ADD \t\t\t\n      DUP5 \t\t\t\n      PUSH [tag] 348\t\t\t\n      JUMP \t\t\t\n    tag 614\t\t\t\n      JUMPDEST \t\t\t\n      SWAP5 \t\t\t\n      SWAP4 \t\t\t\n      POP \t\t\t\n      POP \t\t\t\n      POP \t\t\t\n      POP \t\t\t\n      JUMP \t\t\t\n    tag 349\t\t\t\n      JUMPDEST \t\t\t\n      PUSH 45524332303A20617070726F76652066726F6D20746865207A65726F20616464\t\t\t\n      PUSH 0\t\t\t\n      DUP3 \t\t\t\n      ADD \t\t\t\n      MSTORE \t\t\t\n      PUSH 7265737300000000000000000000000000000000000000000000000000000000\t\t\t\n      PUSH 20\t\t\t\n      DUP3 \t\t\t\n      ADD \t\t\t\n      MSTORE \t\t\t\n      POP \t\t\t\n      JUMP \t\t\t\n    tag 350\t\t\t\n      JUMPDEST \t\t\t\n      PUSH 0\t\t\t\n      PUSH [tag] 617\t\t\t\n      PUSH 24\t\t\t\n      DUP4 \t\t\t\n      PUSH [tag] 286\t\t\t\n      JUMP \t\t\t\n    tag 617\t\t\t\n      JUMPDEST \t\t\t\n      SWAP2 \t\t\t\n      POP \t\t\t\n      PUSH [tag] 618\t\t\t\n      DUP3 \t\t\t\n      PUSH [tag] 349\t\t\t\n      JUMP \t\t\t\n    tag 618\t\t\t\n      JUMPDEST \t\t\t\n      PUSH 40\t\t\t\n      DUP3 \t\t\t\n      ADD \t\t\t\n      SWAP1 \t\t\t\n      POP \t\t\t\n      SWAP2 \t\t\t\n      SWAP1 \t\t\t\n      POP \t\t\t\n      JUMP \t\t\t\n    tag 243\t\t\t\n      JUMPDEST \t\t\t\n      PUSH 0\t\t\t\n      PUSH 20\t\t\t\n      DUP3 \t\t\t\n      ADD \t\t\t\n      SWAP1 \t\t\t\n      POP \t\t\t\n      DUP2 \t\t\t\n      DUP2 \t\t\t\n      SUB \t\t\t\n      PUSH 0\t\t\t\n      DUP4 \t\t\t\n      ADD \t\t\t\n      MSTORE \t\t\t\n      PUSH [tag] 620\t\t\t\n      DUP2 \t\t\t\n      PUSH [tag] 350\t\t\t\n      JUMP \t\t\t\n    tag 620\t\t\t\n      JUMPDEST \t\t\t\n      SWAP1 \t\t\t\n      POP \t\t\t\n      SWAP2 \t\t\t\n      SWAP1 \t\t\t\n      POP \t\t\t\n      JUMP \t\t\t\n    tag 351\t\t\t\n      JUMPDEST \t\t\t\n      PUSH 45524332303A20617070726F766520746F20746865207A65726F206164647265\t\t\t\n      PUSH 0\t\t\t\n      DUP3 \t\t\t\n      ADD \t\t\t\n      MSTORE \t\t\t\n      PUSH 7373000000000000000000000000000000000000000000000000000000000000\t\t\t\n      PUSH 20\t\t\t\n      DUP3 \t\t\t\n      ADD \t\t\t\n      MSTORE \t\t\t\n      POP \t\t\t\n      JUMP \t\t\t\n    tag 352\t\t\t\n      JUMPDEST \t\t\t\n      PUSH 0\t\t\t\n      PUSH [tag] 623\t\t\t\n      PUSH 22\t\t\t\n      DUP4 \t\t\t\n      PUSH [tag] 286\t\t\t\n      JUMP \t\t\t\n    tag 623\t\t\t\n      JUMPDEST \t\t\t\n      SWAP2 \t\t\t\n      POP \t\t\t\n      PUSH [tag] 624\t\t\t\n      DUP3 \t\t\t\n      PUSH [tag] 351\t\t\t\n      JUMP \t\t\t\n    tag 624\t\t\t\n      JUMPDEST \t\t\t\n      PUSH 40\t\t\t\n      DUP3 \t\t\t\n      ADD \t\t\t\n      SWAP1 \t\t\t\n      POP \t\t\t\n      SWAP2 \t\t\t\n      SWAP1 \t\t\t\n      POP \t\t\t\n      JUMP \t\t\t\n    tag 246\t\t\t\n      JUMPDEST \t\t\t\n      PUSH 0\t\t\t\n      PUSH 20\t\t\t\n      DUP3 \t\t\t\n      ADD \t\t\t\n      SWAP1 \t\t\t\n      POP \t\t\t\n      DUP2 \t\t\t\n      DUP2 \t\t\t\n      SUB \t\t\t\n      PUSH 0\t\t\t\n      DUP4 \t\t\t\n      ADD \t\t\t\n      MSTORE \t\t\t\n      PUSH [tag] 626\t\t\t\n      DUP2 \t\t\t\n      PUSH [tag] 352\t\t\t\n      JUMP \t\t\t\n    tag 626\t\t\t\n      JUMPDEST \t\t\t\n      SWAP1 \t\t\t\n      POP \t\t\t\n      SWAP2 \t\t\t\n      SWAP1 \t\t\t\n      POP \t\t\t\n      JUMP \t\t\t\n    tag 353\t\t\t\n      JUMPDEST \t\t\t\n      PUSH 45524332303A20696E73756666696369656E7420616C6C6F77616E6365000000\t\t\t\n      PUSH 0\t\t\t\n      DUP3 \t\t\t\n      ADD \t\t\t\n      MSTORE \t\t\t\n      POP \t\t\t\n      JUMP \t\t\t\n    tag 354\t\t\t\n      JUMPDEST \t\t\t\n      PUSH 0\t\t\t\n      PUSH [tag] 629\t\t\t\n      PUSH 1D\t\t\t\n      DUP4 \t\t\t\n      PUSH [tag] 286\t\t\t\n      JUMP \t\t\t\n    tag 629\t\t\t\n      JUMPDEST \t\t\t\n      SWAP2 \t\t\t\n      POP \t\t\t\n      PUSH [tag] 630\t\t\t\n      DUP3 \t\t\t\n      PUSH [tag] 353\t\t\t\n      JUMP \t\t\t\n    tag 630\t\t\t\n      JUMPDEST \t\t\t\n      PUSH 20\t\t\t\n      DUP3 \t\t\t\n      ADD \t\t\t\n      SWAP1 \t\t\t\n      POP \t\t\t\n      SWAP2 \t\t\t\n      SWAP1 \t\t\t\n      POP \t\t\t\n      JUMP \t\t\t\n    tag 253\t\t\t\n      JUMPDEST \t\t\t\n      PUSH 0\t\t\t\n      PUSH 20\t\t\t\n      DUP3 \t\t\t\n      ADD \t\t\t\n      SWAP1 \t\t\t\n      POP \t\t\t\n      DUP2 \t\t\t\n      DUP2 \t\t\t\n      SUB \t\t\t\n      PUSH 0\t\t\t\n      DUP4 \t\t\t\n      ADD \t\t\t\n      MSTORE \t\t\t\n      PUSH [tag] 632\t\t\t\n      DUP2 \t\t\t\n      PUSH [tag] 354\t\t\t\n      JUMP \t\t\t\n    tag 632\t\t\t\n      JUMPDEST \t\t\t\n      SWAP1 \t\t\t\n      POP \t\t\t\n      SWAP2 \t\t\t\n      SWAP1 \t\t\t\n      POP \t\t\t\n      JUMP \t\t\t\n    tag 355\t\t\t\n      JUMPDEST \t\t\t\n      PUSH 45524332303A207472616E736665722066726F6D20746865207A65726F206164\t\t\t\n      PUSH 0\t\t\t\n      DUP3 \t\t\t\n      ADD \t\t\t\n      MSTORE \t\t\t\n      PUSH 6472657373000000000000000000000000000000000000000000000000000000\t\t\t\n      PUSH 20\t\t\t\n      DUP3 \t\t\t\n      ADD \t\t\t\n      MSTORE \t\t\t\n      POP \t\t\t\n      JUMP \t\t\t\n    tag 356\t\t\t\n      JUMPDEST \t\t\t\n      PUSH 0\t\t\t\n      PUSH [tag] 635\t\t\t\n      PUSH 25\t\t\t\n      DUP4 \t\t\t\n      PUSH [tag] 286\t\t\t\n      JUMP \t\t\t\n    tag 635\t\t\t\n      JUMPDEST \t\t\t\n      SWAP2 \t\t\t\n      POP \t\t\t\n      PUSH [tag] 636\t\t\t\n      DUP3 \t\t\t\n      PUSH [tag] 355\t\t\t\n      JUMP \t\t\t\n    tag 636\t\t\t\n      JUMPDEST \t\t\t\n      PUSH 40\t\t\t\n      DUP3 \t\t\t\n      ADD \t\t\t\n      SWAP1 \t\t\t\n      POP \t\t\t\n      SWAP2 \t\t\t\n      SWAP1 \t\t\t\n      POP \t\t\t\n      JUMP \t\t\t\n    tag 258\t\t\t\n      JUMPDEST \t\t\t\n      PUSH 0\t\t\t\n      PUSH 20\t\t\t\n      DUP3 \t\t\t\n      ADD \t\t\t\n      SWAP1 \t\t\t\n      POP \t\t\t\n      DUP2 \t\t\t\n      DUP2 \t\t\t\n      SUB \t\t\t\n      PUSH 0\t\t\t\n      DUP4 \t\t\t\n      ADD \t\t\t\n      MSTORE \t\t\t\n      PUSH [tag] 638\t\t\t\n      DUP2 \t\t\t\n      PUSH [tag] 356\t\t\t\n      JUMP \t\t\t\n    tag 638\t\t\t\n      JUMPDEST \t\t\t\n      SWAP1 \t\t\t\n      POP \t\t\t\n      SWAP2 \t\t\t\n      SWAP1 \t\t\t\n      POP \t\t\t\n      JUMP \t\t\t\n    tag 357\t\t\t\n      JUMPDEST \t\t\t\n      PUSH 45524332303A207472616E7366657220746F20746865207A65726F2061646472\t\t\t\n      PUSH 0\t\t\t\n      DUP3 \t\t\t\n      ADD \t\t\t\n      MSTORE \t\t\t\n      PUSH 6573730000000000000000000000000000000000000000000000000000000000\t\t\t\n      PUSH 20\t\t\t\n      DUP3 \t\t\t\n      ADD \t\t\t\n      MSTORE \t\t\t\n      POP \t\t\t\n      JUMP \t\t\t\n    tag 358\t\t\t\n      JUMPDEST \t\t\t\n      PUSH 0\t\t\t\n      PUSH [tag] 641\t\t\t\n      PUSH 23\t\t\t\n      DUP4 \t\t\t\n      PUSH [tag] 286\t\t\t\n      JUMP \t\t\t\n    tag 641\t\t\t\n      JUMPDEST \t\t\t\n      SWAP2 \t\t\t\n      POP \t\t\t\n      PUSH [tag] 642\t\t\t\n      DUP3 \t\t\t\n      PUSH [tag] 357\t\t\t\n      JUMP \t\t\t\n    tag 642\t\t\t\n      JUMPDEST \t\t\t\n      PUSH 40\t\t\t\n      DUP3 \t\t\t\n      ADD \t\t\t\n      SWAP1 \t\t\t\n      POP \t\t\t\n      SWAP2 \t\t\t\n      SWAP1 \t\t\t\n      POP \t\t\t\n      JUMP \t\t\t\n    tag 261\t\t\t\n      JUMPDEST \t\t\t\n      PUSH 0\t\t\t\n      PUSH 20\t\t\t\n      DUP3 \t\t\t\n      ADD \t\t\t\n      SWAP1 \t\t\t\n      POP \t\t\t\n      DUP2 \t\t\t\n      DUP2 \t\t\t\n      SUB \t\t\t\n      PUSH 0\t\t\t\n      DUP4 \t\t\t\n      ADD \t\t\t\n      MSTORE \t\t\t\n      PUSH [tag] 644\t\t\t\n      DUP2 \t\t\t\n      PUSH [tag] 358\t\t\t\n      JUMP \t\t\t\n    tag 644\t\t\t\n      JUMPDEST \t\t\t\n      SWAP1 \t\t\t\n      POP \t\t\t\n      SWAP2 \t\t\t\n      SWAP1 \t\t\t\n      POP \t\t\t\n      JUMP \t\t\t\n    tag 359\t\t\t\n      JUMPDEST \t\t\t\n      PUSH 45524332303A207472616E7366657220616D6F756E7420657863656564732062\t\t\t\n      PUSH 0\t\t\t\n      DUP3 \t\t\t\n      ADD \t\t\t\n      MSTORE \t\t\t\n      PUSH 616C616E63650000000000000000000000000000000000000000000000000000\t\t\t\n      PUSH 20\t\t\t\n      DUP3 \t\t\t\n      ADD \t\t\t\n      MSTORE \t\t\t\n      POP \t\t\t\n      JUMP \t\t\t\n    tag 360\t\t\t\n      JUMPDEST \t\t\t\n      PUSH 0\t\t\t\n      PUSH [tag] 647\t\t\t\n      PUSH 26\t\t\t\n      DUP4 \t\t\t\n      PUSH [tag] 286\t\t\t\n      JUMP \t\t\t\n    tag 647\t\t\t\n      JUMPDEST \t\t\t\n      SWAP2 \t\t\t\n      POP \t\t\t\n      PUSH [tag] 648\t\t\t\n      DUP3 \t\t\t\n      PUSH [tag] 359\t\t\t\n      JUMP \t\t\t\n    tag 648\t\t\t\n      JUMPDEST \t\t\t\n      PUSH 40\t\t\t\n      DUP3 \t\t\t\n      ADD \t\t\t\n      SWAP1 \t\t\t\n      POP \t\t\t\n      SWAP2 \t\t\t\n      SWAP1 \t\t\t\n      POP \t\t\t\n      JUMP \t\t\t\n    tag 266\t\t\t\n      JUMPDEST \t\t\t\n      PUSH 0\t\t\t\n      PUSH 20\t\t\t\n      DUP3 \t\t\t\n      ADD \t\t\t\n      SWAP1 \t\t\t\n      POP \t\t\t\n      DUP2 \t\t\t\n      DUP2 \t\t\t\n      SUB \t\t\t\n      PUSH 0\t\t\t\n      DUP4 \t\t\t\n      ADD \t\t\t\n      MSTORE \t\t\t\n      PUSH [tag] 650\t\t\t\n      DUP2 \t\t\t\n      PUSH [tag] 360\t\t\t\n      JUMP \t\t\t\n    tag 650\t\t\t\n      JUMPDEST \t\t\t\n      SWAP1 \t\t\t\n      POP \t\t\t\n      SWAP2 \t\t\t\n      SWAP1 \t\t\t\n      POP \t\t\t\n      JUMP \t\t\t\n    tag 361\t\t\t\n      JUMPDEST \t\t\t\n      PUSH 45524332303A206D696E7420746F20746865207A65726F206164647265737300\t\t\t\n      PUSH 0\t\t\t\n      DUP3 \t\t\t\n      ADD \t\t\t\n      MSTORE \t\t\t\n      POP \t\t\t\n      JUMP \t\t\t\n    tag 362\t\t\t\n      JUMPDEST \t\t\t\n      PUSH 0\t\t\t\n      PUSH [tag] 653\t\t\t\n      PUSH 1F\t\t\t\n      DUP4 \t\t\t\n      PUSH [tag] 286\t\t\t\n      JUMP \t\t\t\n    tag 653\t\t\t\n      JUMPDEST \t\t\t\n      SWAP2 \t\t\t\n      POP \t\t\t\n      PUSH [tag] 654\t\t\t\n      DUP3 \t\t\t\n      PUSH [tag] 361\t\t\t\n      JUMP \t\t\t\n    tag 654\t\t\t\n      JUMPDEST \t\t\t\n      PUSH 20\t\t\t\n      DUP3 \t\t\t\n      ADD \t\t\t\n      SWAP1 \t\t\t\n      POP \t\t\t\n      SWAP2 \t\t\t\n      SWAP1 \t\t\t\n      POP \t\t\t\n      JUMP \t\t\t\n    tag 280\t\t\t\n      JUMPDEST \t\t\t\n      PUSH 0\t\t\t\n      PUSH 20\t\t\t\n      DUP3 \t\t\t\n      ADD \t\t\t\n      SWAP1 \t\t\t\n      POP \t\t\t\n      DUP2 \t\t\t\n      DUP2 \t\t\t\n      SUB \t\t\t\n      PUSH 0\t\t\t\n      DUP4 \t\t\t\n      ADD \t\t\t\n      MSTORE \t\t\t\n      PUSH [tag] 656\t\t\t\n      DUP2 \t\t\t\n      PUSH [tag] 362\t\t\t\n      JUMP \t\t\t\n    tag 656\t\t\t\n      JUMPDEST \t\t\t\n      SWAP1 \t\t\t\n      POP \t\t\t\n      SWAP2 \t\t\t\n      SWAP1 \t\t\t\n      POP \t\t\t\n      JUMP \t\t\t\n    .data\n      0:\n        .code\n          PUSH A0\t\t\treeCollectionCounter;\\r\\n\\r\\n ...\n          PUSH 40\t\t\treeCollectionCounter;\\r\\n\\r\\n ...\n          MSTORE \t\t\treeCollectionCounter;\\r\\n\\r\\n ...\n          CALLVALUE \t\t\t\\r\\n    }\\r\\n\\r\\n    struct Tr...\n          DUP1 \t\t\t\\r\\n    }\\r\\n\\r\\n    struct Tr...\n          ISZERO \t\t\t\\r\\n    }\\r\\n\\r\\n    struct Tr...\n          PUSH [tag] 1\t\t\t\\r\\n    }\\r\\n\\r\\n    struct Tr...\n          JUMPI \t\t\t\\r\\n    }\\r\\n\\r\\n    struct Tr...\n          PUSH 0\t\t\t\\r\\n    }\\r\\n\\r\\n    struct Tr...\n          DUP1 \t\t\t\\r\\n    }\\r\\n\\r\\n    struct Tr...\n          REVERT \t\t\t\\r\\n    }\\r\\n\\r\\n    struct Tr...\n        tag 1\t\t\t\\r\\n    }\\r\\n\\r\\n    struct Tr...\n          JUMPDEST \t\t\t\\r\\n    }\\r\\n\\r\\n    struct Tr...\n          POP \t\t\t\\r\\n    }\\r\\n\\r\\n    struct Tr...\n          PUSH 40\t\t\t\\r\\n    }\\r\\n\\r\\n    struct Tr...\n          MLOAD \t\t\t\\r\\n    }\\r\\n\\r\\n    struct Tr...\n          PUSHSIZE \t\t\t\\r\\n    }\\r\\n\\r\\n    struct Tr...\n          CODESIZE \t\t\t\\r\\n    }\\r\\n\\r\\n    struct Tr...\n          SUB \t\t\t\\r\\n    }\\r\\n\\r\\n    struct Tr...\n          DUP1 \t\t\t\\r\\n    }\\r\\n\\r\\n    struct Tr...\n          PUSHSIZE \t\t\t\\r\\n    }\\r\\n\\r\\n    struct Tr...\n          DUP4 \t\t\t\\r\\n    }\\r\\n\\r\\n    struct Tr...\n          CODECOPY \t\t\t\\r\\n    }\\r\\n\\r\\n    struct Tr...\n          DUP2 \t\t\t\\r\\n    }\\r\\n\\r\\n    struct Tr...\n          DUP2 \t\t\t\\r\\n    }\\r\\n\\r\\n    struct Tr...\n          ADD \t\t\t\\r\\n    }\\r\\n\\r\\n    struct Tr...\n          PUSH 40\t\t\t\\r\\n    }\\r\\n\\r\\n    struct Tr...\n          MSTORE \t\t\t\\r\\n    }\\r\\n\\r\\n    struct Tr...\n          DUP2 \t\t\t\\r\\n    }\\r\\n\\r\\n    struct Tr...\n          ADD \t\t\t\\r\\n    }\\r\\n\\r\\n    struct Tr...\n          SWAP1 \t\t\t\\r\\n    }\\r\\n\\r\\n    struct Tr...\n          PUSH [tag] 2\t\t\t\\r\\n    }\\r\\n\\r\\n    struct Tr...\n          SWAP2 \t\t\t\\r\\n    }\\r\\n\\r\\n    struct Tr...\n          SWAP1 \t\t\t\\r\\n    }\\r\\n\\r\\n    struct Tr...\n          PUSH [tag] 3\t\t\t\\r\\n    }\\r\\n\\r\\n    struct Tr...\n          JUMP \t\t\t\\r\\n    }\\r\\n\\r\\n    struct Tr...\n        tag 2\t\t\t\\r\\n    }\\r\\n\\r\\n    struct Tr...\n          JUMPDEST \t\t\t\\r\\n    }\\r\\n\\r\\n    struct Tr...\n          DUP2 \t\t\ted;\\r\n          DUP2 \t\t\t      \n          DUP2 \t\t\t Tree\n          PUSH 0\t\t\ton = \n          SWAP1 \t\t\ton = new Tree\n          DUP2 \t\t\ton = new Tree\n          PUSH [tag] 7\t\t\ton = new Tree\n          SWAP2 \t\t\ton = new Tree\n          SWAP1 \t\t\ton = new Tree\n          PUSH [tag] 8\t\t\ton = new Tree\n          JUMP \t\t\ton = new Tree\n        tag 7\t\t\ton = new Tree\n          JUMPDEST \t\t\ton = new Tree\n          POP \t\t\ton = new Tree\n          DUP1 \t\t\tbol);\\r\\n\n          PUSH 1\t\t\t(name, \n          SWAP1 \t\t\t(name, symbol);\\r\\n\n          DUP2 \t\t\t(name, symbol);\\r\\n\n          PUSH [tag] 9\t\t\t(name, symbol);\\r\\n\n          SWAP2 \t\t\t(name, symbol);\\r\\n\n          SWAP1 \t\t\t(name, symbol);\\r\\n\n          PUSH [tag] 8\t\t\t(name, symbol);\\r\\n\n          JUMP \t\t\t(name, symbol);\\r\\n\n        tag 9\t\t\t(name, symbol);\\r\\n\n          JUMPDEST \t\t\t(name, symbol);\\r\\n\n          POP \t\t\t(name, symbol);\\r\\n\n          POP \t\t\teeCollectionCounter.current();...\n          POP \t\t\teeCollectionCounter.current();...\n          CALLER \t\t\t\\n        u\n          PUSH FFFFFFFFFFFFFFFFFFFFFFFFFFFFFFFFFFFFFFFF\t\t\tClaimed;\\r\\n        u\n          AND \t\t\tClaimed;\\r\\n        u\n          PUSH 80\t\t\tClaimed;\\r\\n        u\n          DUP2 \t\t\tClaimed;\\r\\n        u\n          PUSH FFFFFFFFFFFFFFFFFFFFFFFFFFFFFFFFFFFFFFFF\t\t\tClaimed;\\r\\n        u\n          AND \t\t\tClaimed;\\r\\n        u\n          DUP2 \t\t\tClaimed;\\r\\n        u\n          MSTORE \t\t\tClaimed;\\r\\n        u\n          POP \t\t\tClaimed;\\r\\n        u\n          POP \t\t\tClaimed;\\r\\n        u\n          POP \t\t\t\\r\\n    }\\r\\n\\r\\n    struct Tr...\n          POP \t\t\t\\r\\n    }\\r\\n\\r\\n    struct Tr...\n          PUSH [tag] 11\t\t\treeCollectionCounter;\\r\\n\\r\\n ...\n          JUMP \t\t\treeCollectionCounter;\\r\\n\\r\\n ...\n        tag 12\t\t\t-License-Identifier: MIT\\r\\npr...\n          JUMPDEST \t\t\t-License-Identifier: MIT\\r\\npr...\n          PUSH 0\t\t\tsolidi\n          PUSH 40\t\t\tze\n          MLOAD \t\t\t\"@openzep\n          SWAP1 \t\t\t\\n\\r\\nimport \"@openzep\n          POP \t\t\t\\n\\r\\nimport \"@openzep\n          SWAP1 \t\t\t-License-Identifier: MIT\\r\\npr...\n          JUMP \t\t\t-License-Identifier: MIT\\r\\npr...\n        tag 13\t\t\tcts/token/ERC20/ERC20.sol\";\\r\\...\n          JUMPDEST \t\t\tcts/token/ERC20/ERC20.sol\";\\r\\...\n          PUSH 0\t\t\te\n          DUP1 \t\t\tu\n          REVERT \t\t\tsing Counter\n        tag 14\t\t\trs.Counter;\\r\\n    Counters.Co...\n          JUMPDEST \t\t\trs.Counter;\\r\\n    Counters.Co...\n          PUSH 0\t\t\tm\n          DUP1 \t\t\ts\n          REVERT \t\t\t address imm\n        tag 15\t\t\t;\\r\\n\\r\\n    constructor(addre...\n          JUMPDEST \t\t\t;\\r\\n\\r\\n    constructor(addre...\n          PUSH 0\t\t\tE\n          DUP1 \t\t\t \n          REVERT \t\t\t STNEAR = ER\n        tag 16\t\t\t\\r\\n    }\\r\\n\\r\\n    function ...\n          JUMPDEST \t\t\t\\r\\n    }\\r\\n\\r\\n    function ...\n          PUSH 0\t\t\ts\n          DUP1 \t\t\t \n          REVERT \t\t\t }\\r\\n\\r\\n    st\n        tag 17\t\t\tails{\\r\\n        uint256 lastW...\n          JUMPDEST \t\t\tails{\\r\\n        uint256 lastW...\n          PUSH 0\t\t\t    ui\n          PUSH 1F\t\t\tme\n          NOT \t\t\tedTimes\n          PUSH 1F\t\t\twa\n          DUP4 \t\t\tint25\n          ADD \t\t\t   uint256 wat\n          AND \t\t\t       uint256 wateredTimes;\n          SWAP1 \t\t\tlaimed;\\r\\n        uint256 wat...\n          POP \t\t\tlaimed;\\r\\n        uint256 wat...\n          SWAP2 \t\t\tails{\\r\\n        uint256 lastW...\n          SWAP1 \t\t\tails{\\r\\n        uint256 lastW...\n          POP \t\t\tails{\\r\\n        uint256 lastW...\n          JUMP \t\t\tails{\\r\\n        uint256 lastW...\n        tag 18\t\t\tnt256 tokensYielded;\\r\\n    }\\...\n          JUMPDEST \t\t\tnt256 tokensYielded;\\r\\n    }\\...\n          PUSH 4E487B7100000000000000000000000000000000000000000000000000000000\t\t\teeMapping {\\r\\n        mapping...\n          PUSH 0\t\t\tr\n          MSTORE \t\t\tuct UserTreeMapping {\\r\\n     ...\n          PUSH 41\t\t\ts wi\n          PUSH 4\t\t\ta\n          MSTORE \t\t\tser details wit\n          PUSH 24\t\t\t}\\r\\n\\r\n          PUSH 0\t\t\t \n          REVERT \t\t\tenID\\r\\n    }\\r\\n\\r\\n\n        tag 19\t\t\tuint256 => TreeCollection) pub...\n          JUMPDEST \t\t\tuint256 => TreeCollection) pub...\n          PUSH [tag] 53\t\t\twith their IDs\\r\\n    mapping\n          DUP3 \t\t\tppin\n          PUSH [tag] 17\t\t\twith their IDs\\r\\n    mapping\n          JUMP \t\t\twith their IDs\\r\\n    mapping\n        tag 53\t\t\twith their IDs\\r\\n    mapping\n          JUMPDEST \t\t\twith their IDs\\r\\n    mapping\n          DUP2 \t\t\tlectio\n          ADD \t\t\t collection with their IDs\\r\\n...\n          DUP2 \t\t\tping(u\n          DUP2 \t\t\tIDs\\r\\n    m\n          LT \t\t\tir IDs\\r\\n    mapping(ui\n          PUSH FFFFFFFFFFFFFFFF\t\t\tct instance using \n          DUP3 \t\t\to get cont\n          GT \t\t\t/ to get contract instance usi...\n          OR \t\t\t; // to get contract instance ...\n          ISZERO \t\t\toID; // to get contract instan...\n          PUSH [tag] 54\t\t\toID; // to get contract instan...\n          JUMPI \t\t\toID; // to get contract instan...\n          PUSH [tag] 55\t\t\t6 => UserTreeMappi\n          PUSH [tag] 18\t\t\t6 => UserTreeMappi\n          JUMP \t\t\t6 => UserTreeMappi\n        tag 55\t\t\t6 => UserTreeMappi\n          JUMPDEST \t\t\t6 => UserTreeMappi\n        tag 54\t\t\toID; // to get contract instan...\n          JUMPDEST \t\t\toID; // to get contract instan...\n          DUP1 \t\t\tng of a Tr\n          PUSH 40\t\t\tap\n          MSTORE \t\t\te; // mapping of a Tre\n          POP \t\t\tctions; // to keep record of c...\n          POP \t\t\tuint256 => TreeCollection) pub...\n          POP \t\t\tuint256 => TreeCollection) pub...\n          JUMP \t\t\tuint256 => TreeCollection) pub...\n        tag 20\t\t\tollection\\r\\n\\r\\n    function ...\n          JUMPDEST \t\t\tollection\\r\\n\\r\\n    function ...\n          PUSH 0\t\t\treeCol\n          PUSH [tag] 57\t\t\t name, string memory\n          PUSH [tag] 12\t\t\t name, string memory\n          JUMP \t\t\t name, string memory\n        tag 57\t\t\t name, string memory\n          JUMPDEST \t\t\t name, string memory\n          SWAP1 \t\t\ting memory name, string memory\n          POP \t\t\ting memory name, string memory\n          PUSH [tag] 58\t\t\tpublic {\\r\\n\\r\\n        requir...\n          DUP3 \t\t\tmsg.\n          DUP3 \t\t\trequir\n          PUSH [tag] 19\t\t\tpublic {\\r\\n\\r\\n        requir...\n          JUMP \t\t\tpublic {\\r\\n\\r\\n        requir...\n        tag 58\t\t\tpublic {\\r\\n\\r\\n        requir...\n          JUMPDEST \t\t\tpublic {\\r\\n\\r\\n        requir...\n          SWAP2 \t\t\tollection\\r\\n\\r\\n    function ...\n          SWAP1 \t\t\tollection\\r\\n\\r\\n    function ...\n          POP \t\t\tollection\\r\\n\\r\\n    function ...\n          JUMP \t\t\tollection\\r\\n\\r\\n    function ...\n        tag 21\t\t\tin, \"Nope!\");\\r\\n\\r\\n        T...\n          JUMPDEST \t\t\tin, \"Nope!\");\\r\\n\\r\\n        T...\n          PUSH 0\t\t\t    \n          PUSH FFFFFFFFFFFFFFFF\t\t\tCollection = new T\n          DUP3 \t\t\ttion n\n          GT \t\t\tlection newCollection = new Tr\n          ISZERO \t\t\tCollection newCollection = new...\n          PUSH [tag] 60\t\t\tCollection newCollection = new...\n          JUMPI \t\t\tCollection newCollection = new...\n          PUSH [tag] 61\t\t\tollection(name, sy\n          PUSH [tag] 18\t\t\tollection(name, sy\n          JUMP \t\t\tollection(name, sy\n        tag 61\t\t\tollection(name, sy\n          JUMPDEST \t\t\tollection(name, sy\n        tag 60\t\t\tCollection newCollection = new...\n          JUMPDEST \t\t\tCollection newCollection = new...\n          PUSH [tag] 62\t\t\tcollections[collectionID] = n\n          DUP3 \t\t\tID] = \n          PUSH [tag] 17\t\t\tcollections[collectionID] = n\n          JUMP \t\t\tcollections[collectionID] = n\n        tag 62\t\t\tcollections[collectionID] = n\n          JUMPDEST \t\t\tcollections[collectionID] = n\n          SWAP1 \t\t\t    treecollections[collection...\n          POP \t\t\t    treecollections[collection...\n          PUSH 20\t\t\tcoll\n          DUP2 \t\t\ton] \n          ADD \t\t\tection] = colle\n          SWAP1 \t\t\t[newCollection] = colle\n          POP \t\t\t[newCollection] = colle\n          SWAP2 \t\t\tin, \"Nope!\");\\r\\n\\r\\n        T...\n          SWAP1 \t\t\tin, \"Nope!\");\\r\\n\\r\\n        T...\n          POP \t\t\tin, \"Nope!\");\\r\\n\\r\\n        T...\n          JUMP \t\t\tin, \"Nope!\");\\r\\n\\r\\n        T...\n        tag 22\t\t\t }\\r\\n\\r\\n    function mintTre...\n          JUMPDEST \t\t\t }\\r\\n\\r\\n    function mintTre...\n          PUSH 0\t\t\t\\n\n        tag 64\t\t\tequire(STNEAR.transferFrom(msg...\n          JUMPDEST \t\t\tequire(STNEAR.transferFrom(msg...\n          DUP4 \t\t\ttransf\n          DUP2 \t\t\tA\n          LT \t\t\tTNEAR.transfe\n          ISZERO \t\t\tequire(STNEAR.transferFrom(msg...\n          PUSH [tag] 66\t\t\tequire(STNEAR.transferFrom(msg...\n          JUMPI \t\t\tequire(STNEAR.transferFrom(msg...\n          DUP1 \t\t\t;\n          DUP3 \t\t\tled\n          ADD \t\t\t failed\"); \n          MLOAD \t\t\terFrom failed\"); \\r\n          DUP2 \t\t\ta\n          DUP5 \t\t\tR: \n          ADD \t\t\tTNEAR: tran\n          MSTORE \t\t\t24), \"STNEAR: transferFrom fai...\n          PUSH 20\t\t\tr,\n          DUP2 \t\t\tn\n          ADD \t\t\tg.sender, \n          SWAP1 \t\t\tom(msg.sender, \n          POP \t\t\tom(msg.sender, \n          PUSH [tag] 64\t\t\tequire(STNEAR.transferFrom(msg...\n          JUMP \t\t\tequire(STNEAR.transferFrom(msg...\n        tag 66\t\t\tequire(STNEAR.transferFrom(msg...\n          JUMPDEST \t\t\tequire(STNEAR.transferFrom(msg...\n          PUSH 0\t\t\te\n          DUP5 \t\t\ttion =\n          DUP5 \t\t\toll\n          ADD \t\t\treecollection = \n          MSTORE \t\t\tction treecollection = Tree\n          POP \t\t\ty _uri) public {\\r\\n\\r\\n      ...\n          POP \t\t\t }\\r\\n\\r\\n    function mintTre...\n          POP \t\t\t }\\r\\n\\r\\n    function mintTre...\n          POP \t\t\t }\\r\\n\\r\\n    function mintTre...\n          JUMP \t\t\t }\\r\\n\\r\\n    function mintTre...\n        tag 23\t\t\treecollections[collectionID]);...\n          JUMPDEST \t\t\treecollections[collectionID]);...\n          PUSH 0\t\t\t    u\n          PUSH [tag] 68\t\t\tecollection.tokenIdCounter();\\...\n          PUSH [tag] 69\t\t\tnIdCounter();\\r\\n        userT...\n          DUP5 \t\t\tID].tr\n          PUSH [tag] 21\t\t\tnIdCounter();\\r\\n        userT...\n          JUMP \t\t\tnIdCounter();\\r\\n        userT...\n        tag 69\t\t\tnIdCounter();\\r\\n        userT...\n          JUMPDEST \t\t\tnIdCounter();\\r\\n        userT...\n          PUSH [tag] 20\t\t\tecollection.tokenIdCounter();\\...\n          JUMP \t\t\tecollection.tokenIdCounter();\\...\n        tag 68\t\t\tecollection.tokenIdCounter();\\...\n          JUMPDEST \t\t\tecollection.tokenIdCounter();\\...\n          SWAP1 \t\t\tnID = treecollection.tokenIdCo...\n          POP \t\t\tnID = treecollection.tokenIdCo...\n          DUP3 \t\t\tDetail\n          DUP2 \t\t\t = Tr\n          MSTORE \t\t\tokenID] = TreeDetails\n          PUSH 20\t\t\tctio\n          DUP2 \t\t\t    f\n          ADD \t\t\t\\r\\n\\r\\n    function\n          DUP5 \t\t\tt25\n          DUP5 \t\t\tonID, \n          DUP5 \t\t\tlec\n          ADD \t\t\t_collectionID, u\n          GT \t\t\t56 _collectionID, uint256\n          ISZERO \t\t\tnt256 _collectionID, uint256 _...\n          PUSH [tag] 70\t\t\tnt256 _collectionID, uint256 _...\n          JUMPI \t\t\tnt256 _collectionID, uint256 _...\n          PUSH [tag] 71\t\t\tokenID) public returns(bool) {...\n          PUSH [tag] 16\t\t\tokenID) public returns(bool) {...\n          JUMP \t\t\tokenID) public returns(bool) {...\n        tag 71\t\t\tokenID) public returns(bool) {...\n          JUMPDEST \t\t\tokenID) public returns(bool) {...\n        tag 70\t\t\tnt256 _collectionID, uint256 _...\n          JUMPDEST \t\t\tnt256 _collectionID, uint256 _...\n          PUSH [tag] 72\t\t\treecollections[_collectionID])...\n          DUP5 \t\t\tquire(\n          DUP3 \t\t\t   \n          DUP6 \t\t\t   \n          PUSH [tag] 22\t\t\treecollections[_collectionID])...\n          JUMP \t\t\treecollections[_collectionID])...\n        tag 72\t\t\treecollections[_collectionID])...\n          JUMPDEST \t\t\treecollections[_collectionID])...\n          POP \t\t\tnt256 tokenID = treecollection...\n          SWAP4 \t\t\treecollections[collectionID]);...\n          SWAP3 \t\t\treecollections[collectionID]);...\n          POP \t\t\treecollections[collectionID]);...\n          POP \t\t\treecollections[collectionID]);...\n          POP \t\t\treecollections[collectionID]);...\n          JUMP \t\t\treecollections[collectionID]);...\n        tag 24\t\t\tenID) == msg.sender, \"You are ...\n          JUMPDEST \t\t\tenID) == msg.sender, \"You are ...\n          PUSH 0\t\t\tTNEAR\n          DUP3 \t\t\t 10\n          PUSH 1F\t\t\ts), \n          DUP4 \t\t\tress(t\n          ADD \t\t\t address(this), 1\n          SLT \t\t\tder, address(this), 1 * 10 \n          PUSH [tag] 74\t\t\tom(msg.sender, address(this), ...\n          JUMPI \t\t\tom(msg.sender, address(this), ...\n          PUSH [tag] 75\t\t\t4), \"STNEAR: transferFrom fail...\n          PUSH [tag] 15\t\t\t4), \"STNEAR: transferFrom fail...\n          JUMP \t\t\t4), \"STNEAR: transferFrom fail...\n        tag 75\t\t\t4), \"STNEAR: transferFrom fail...\n          JUMPDEST \t\t\t4), \"STNEAR: transferFrom fail...\n        tag 74\t\t\tom(msg.sender, address(this), ...\n          JUMPDEST \t\t\tom(msg.sender, address(this), ...\n          DUP2 \t\t\tock.ti\n          MLOAD \t\t\td = block.tim\n          PUSH [tag] 76\t\t\tserTree[_collectionID].treeDet...\n          DUP5 \t\t\t;\\r\\n\n          DUP3 \t\t\turn tr\n          PUSH 20\t\t\t    \n          DUP7 \t\t\t\\r\\n\\r\\n  \n          ADD \t\t\t= 1;\\r\\n\\r\\n        r\n          PUSH [tag] 23\t\t\tserTree[_collectionID].treeDet...\n          JUMP \t\t\tserTree[_collectionID].treeDet...\n        tag 76\t\t\tserTree[_collectionID].treeDet...\n          JUMPDEST \t\t\tserTree[_collectionID].treeDet...\n          SWAP2 \t\t\t        userTree[_collectionID...\n          POP \t\t\t        userTree[_collectionID...\n          POP \t\t\ttransferFrom(msg.sender, addre...\n          SWAP3 \t\t\tenID) == msg.sender, \"You are ...\n          SWAP2 \t\t\tenID) == msg.sender, \"You are ...\n          POP \t\t\tenID) == msg.sender, \"You are ...\n          POP \t\t\tenID) == msg.sender, \"You are ...\n          JUMP \t\t\tenID) == msg.sender, \"You are ...\n        tag 3\t\t\tfunction claim(uint256 _collec...\n          JUMPDEST \t\t\tfunction claim(uint256 _collec...\n          PUSH 0\t\t\tction \n          DUP1 \t\t\teecoll\n          PUSH 40\t\t\tll\n          DUP4 \t\t\tlections[\n          DUP6 \t\t\tn(treec\n          SUB \t\t\tction(treecollections[_\n          SLT \t\t\tollection(treecollections[_col...\n          ISZERO \t\t\teeCollection(treecollections[_...\n          PUSH [tag] 78\t\t\teeCollection(treecollections[_...\n          JUMPI \t\t\teeCollection(treecollections[_...\n          PUSH [tag] 79\t\t\tonID]);\\r\\n\\r\\n        require...\n          PUSH [tag] 13\t\t\tonID]);\\r\\n\\r\\n        require...\n          JUMP \t\t\tonID]);\\r\\n\\r\\n        require...\n        tag 79\t\t\tonID]);\\r\\n\\r\\n        require...\n          JUMPDEST \t\t\tonID]);\\r\\n\\r\\n        require...\n        tag 78\t\t\teeCollection(treecollections[_...\n          JUMPDEST \t\t\teeCollection(treecollections[_...\n          PUSH 0\t\t\tr\n          DUP4 \t\t\tstamp - u\n          ADD \t\t\ttimestamp - userT\n          MLOAD \t\t\tblock.timestamp - userTr\n          PUSH FFFFFFFFFFFFFFFF\t\t\tls[_tokenID].lastW\n          DUP2 \t\t\treeDet\n          GT \t\t\t].treeDetails[_tokenID].lastWa\n          ISZERO \t\t\tnID].treeDetails[_tokenID].las...\n          PUSH [tag] 80\t\t\tnID].treeDetails[_tokenID].las...\n          JUMPI \t\t\tnID].treeDetails[_tokenID].las...\n          PUSH [tag] 81\t\t\ted <= 43200, \"Water First\");\\r...\n          PUSH [tag] 14\t\t\ted <= 43200, \"Water First\");\\r...\n          JUMP \t\t\ted <= 43200, \"Water First\");\\r...\n        tag 81\t\t\ted <= 43200, \"Water First\");\\r...\n          JUMPDEST \t\t\ted <= 43200, \"Water First\");\\r...\n        tag 80\t\t\tnID].treeDetails[_tokenID].las...\n          JUMPDEST \t\t\tnID].treeDetails[_tokenID].las...\n          PUSH [tag] 82\t\t\tnID].lastClaimed > 86400, \"Can...\n          DUP6 \t\t\tlection\n          DUP3 \t\t\tTree[_\n          DUP7 \t\t\t       us\n          ADD \t\t\t\\n\\r\\n        userTree[_c\n          PUSH [tag] 24\t\t\tnID].lastClaimed > 86400, \"Can...\n          JUMP \t\t\tnID].lastClaimed > 86400, \"Can...\n        tag 82\t\t\tnID].lastClaimed > 86400, \"Can...\n          JUMPDEST \t\t\tnID].lastClaimed > 86400, \"Can...\n          SWAP3 \t\t\tails[_tokenID].lastClaimed > 8...\n          POP \t\t\tails[_tokenID].lastClaimed > 8...\n          POP \t\t\t owner\");\\r\\n\\r\\n        requi...\n          PUSH 20\t\t\tre\n          DUP4 \t\t\t      use\n          ADD \t\t\t\\r\\n        userTree\n          MLOAD \t\t\tstamp;\\r\\n        userTree[\n          PUSH FFFFFFFFFFFFFFFF\t\t\t_tokenID].tokensYi\n          DUP2 \t\t\tDetail\n          GT \t\t\treeDetails[_tokenID].tokensYie\n          ISZERO \t\t\t].treeDetails[_tokenID].tokens...\n          PUSH [tag] 83\t\t\t].treeDetails[_tokenID].tokens...\n          JUMPI \t\t\t].treeDetails[_tokenID].tokens...\n          PUSH [tag] 84\t\t\td += 5;\\r\\n        mint(msg.se...\n          PUSH [tag] 14\t\t\td += 5;\\r\\n        mint(msg.se...\n          JUMP \t\t\td += 5;\\r\\n        mint(msg.se...\n        tag 84\t\t\td += 5;\\r\\n        mint(msg.se...\n          JUMPDEST \t\t\td += 5;\\r\\n        mint(msg.se...\n        tag 83\t\t\t].treeDetails[_tokenID].tokens...\n          JUMPDEST \t\t\t].treeDetails[_tokenID].tokens...\n          PUSH [tag] 85\t\t\ttails(uint256 collectionId, ui...\n          DUP6 \t\t\treeDeta\n          DUP3 \t\t\treturn\n          DUP7 \t\t\tublic vie\n          ADD \t\t\td) public view returns\n          PUSH [tag] 24\t\t\ttails(uint256 collectionId, ui...\n          JUMP \t\t\ttails(uint256 collectionId, ui...\n        tag 85\t\t\ttails(uint256 collectionId, ui...\n          JUMPDEST \t\t\ttails(uint256 collectionId, ui...\n          SWAP2 \t\t\t getTreeDetails(uint256 collec...\n          POP \t\t\t getTreeDetails(uint256 collec...\n          POP \t\t\tnID].lastClaimed = block.times...\n          SWAP3 \t\t\tfunction claim(uint256 _collec...\n          POP \t\t\tfunction claim(uint256 _collec...\n          SWAP3 \t\t\tfunction claim(uint256 _collec...\n          SWAP1 \t\t\tfunction claim(uint256 _collec...\n          POP \t\t\tfunction claim(uint256 _collec...\n          JUMP \t\t\tfunction claim(uint256 _collec...\n        tag 25\t\t\teturn userTree[collectionId].t...\n          JUMPDEST \t\t\teturn userTree[collectionId].t...\n          PUSH 0\t\t\t      \n          DUP2 \t\t\tto a \n          MLOAD \t\t\tlated to a p\n          SWAP1 \t\t\tdetails related to a p\n          POP \t\t\tdetails related to a p\n          SWAP2 \t\t\teturn userTree[collectionId].t...\n          SWAP1 \t\t\teturn userTree[collectionId].t...\n          POP \t\t\teturn userTree[collectionId].t...\n          JUMP \t\t\teturn userTree[collectionId].t...\n        tag 26\t\t\tTree)\\r\\n    }\\r\\n\\r\\n    func...\n          JUMPDEST \t\t\tTree)\\r\\n    }\\r\\n\\r\\n    func...\n          PUSH 4E487B7100000000000000000000000000000000000000000000000000000000\t\t\t256 collectionID) public view ...\n          PUSH 0\t\t\ti\n          MSTORE \t\t\tcount(uint256 collectionID) pu...\n          PUSH 22\t\t\token\n          PUSH 4\t\t\t]\n          MSTORE \t\t\tctionID].tokenI\n          PUSH 24\t\t\t   /\n          PUSH 0\t\t\t \n          REVERT \t\t\t));\\r\\n        //\n        tag 27\t\t\t minted in a particular collec...\n          JUMPDEST \t\t\t minted in a particular collec...\n          PUSH 0\t\t\t\\n    f\n          PUSH 2\t\t\tl\n          DUP3 \t\t\treeC\n          DIV \t\t\tID(TreeColle\n          SWAP1 \t\t\tCollectionID(TreeColle\n          POP \t\t\tCollectionID(TreeColle\n          PUSH 1\t\t\t6\n          DUP3 \t\t\tuint\n          AND \t\t\tns (uint256)\n          DUP1 \t\t\tCollectionToID[col\n          PUSH [tag] 89\t\t\t   return CollectionToID[colle...\n          JUMPI \t\t\t   return CollectionToID[colle...\n          PUSH 7F\t\t\tr co\n          DUP3 \t\t\tarticu\n          AND \t\t\tet particular col\n          SWAP2 \t\t\t   // to get particular col\n          POP \t\t\t   // to get particular col\n        tag 89\t\t\t   return CollectionToID[colle...\n          JUMPDEST \t\t\t   return CollectionToID[colle...\n          PUSH 20\t\t\t\n          DUP3 \t\t\t\n          LT \t\t\t\n          DUP2 \t\t\tnce\\r\\n    }\\r\\n}\n          SUB \t\t\tstance\\r\\n    }\\r\\n}\n          PUSH [tag] 90\t\t\t instance\\r\\n    }\\r\\n}\n          JUMPI \t\t\t instance\\r\\n    }\\r\\n}\n          PUSH [tag] 91\t\t\t\n          PUSH [tag] 26\t\t\t\n          JUMP \t\t\t\n        tag 91\t\t\t\n          JUMPDEST \t\t\t\n        tag 90\t\t\t instance\\r\\n    }\\r\\n}\n          JUMPDEST \t\t\t instance\\r\\n    }\\r\\n}\n          POP \t\t\tnction getCollectionID(TreeCol...\n          SWAP2 \t\t\t minted in a particular collec...\n          SWAP1 \t\t\t minted in a particular collec...\n          POP \t\t\t minted in a particular collec...\n          JUMP \t\t\t minted in a particular collec...\n        tag 28\t\t\t\n          JUMPDEST \t\t\t\n          PUSH 0\t\t\t\n          DUP2 \t\t\t\n          SWAP1 \t\t\t\n          POP \t\t\t\n          DUP2 \t\t\t\n          PUSH 0\t\t\t\n          MSTORE \t\t\t\n          PUSH 20\t\t\t\n          PUSH 0\t\t\t\n          KECCAK256 \t\t\t\n          SWAP1 \t\t\t\n          POP \t\t\t\n          SWAP2 \t\t\t\n          SWAP1 \t\t\t\n          POP \t\t\t\n          JUMP \t\t\t\n        tag 29\t\t\t\n          JUMPDEST \t\t\t\n          PUSH 0\t\t\t\n          PUSH 20\t\t\t\n          PUSH 1F\t\t\t\n          DUP4 \t\t\t\n          ADD \t\t\t\n          DIV \t\t\t\n          SWAP1 \t\t\t\n          POP \t\t\t\n          SWAP2 \t\t\t\n          SWAP1 \t\t\t\n          POP \t\t\t\n          JUMP \t\t\t\n        tag 30\t\t\t\n          JUMPDEST \t\t\t\n          PUSH 0\t\t\t\n          DUP3 \t\t\t\n          DUP3 \t\t\t\n          SHL \t\t\t\n          SWAP1 \t\t\t\n          POP \t\t\t\n          SWAP3 \t\t\t\n          SWAP2 \t\t\t\n          POP \t\t\t\n          POP \t\t\t\n          JUMP \t\t\t\n        tag 31\t\t\t\n          JUMPDEST \t\t\t\n          PUSH 0\t\t\t\n          PUSH 8\t\t\t\n          DUP4 \t\t\t\n          MUL \t\t\t\n          PUSH [tag] 96\t\t\t\n          PUSH FFFFFFFFFFFFFFFFFFFFFFFFFFFFFFFFFFFFFFFFFFFFFFFFFFFFFFFFFFFFFFFF\t\t\t\n          DUP3 \t\t\t\n          PUSH [tag] 30\t\t\t\n          JUMP \t\t\t\n        tag 96\t\t\t\n          JUMPDEST \t\t\t\n          PUSH [tag] 97\t\t\t\n          DUP7 \t\t\t\n          DUP4 \t\t\t\n          PUSH [tag] 30\t\t\t\n          JUMP \t\t\t\n        tag 97\t\t\t\n          JUMPDEST \t\t\t\n          SWAP6 \t\t\t\n          POP \t\t\t\n          DUP1 \t\t\t\n          NOT \t\t\t\n          DUP5 \t\t\t\n          AND \t\t\t\n          SWAP4 \t\t\t\n          POP \t\t\t\n          DUP1 \t\t\t\n          DUP7 \t\t\t\n          AND \t\t\t\n          DUP5 \t\t\t\n          OR \t\t\t\n          SWAP3 \t\t\t\n          POP \t\t\t\n          POP \t\t\t\n          POP \t\t\t\n          SWAP4 \t\t\t\n          SWAP3 \t\t\t\n          POP \t\t\t\n          POP \t\t\t\n          POP \t\t\t\n          JUMP \t\t\t\n        tag 32\t\t\t\n          JUMPDEST \t\t\t\n          PUSH 0\t\t\t\n          DUP2 \t\t\t\n          SWAP1 \t\t\t\n          POP \t\t\t\n          SWAP2 \t\t\t\n          SWAP1 \t\t\t\n          POP \t\t\t\n          JUMP \t\t\t\n        tag 33\t\t\t\n          JUMPDEST \t\t\t\n          PUSH 0\t\t\t\n          DUP2 \t\t\t\n          SWAP1 \t\t\t\n          POP \t\t\t\n          SWAP2 \t\t\t\n          SWAP1 \t\t\t\n          POP \t\t\t\n          JUMP \t\t\t\n        tag 34\t\t\t\n          JUMPDEST \t\t\t\n          PUSH 0\t\t\t\n          PUSH [tag] 101\t\t\t\n          PUSH [tag] 102\t\t\t\n          PUSH [tag] 103\t\t\t\n          DUP5 \t\t\t\n          PUSH [tag] 32\t\t\t\n          JUMP \t\t\t\n        tag 103\t\t\t\n          JUMPDEST \t\t\t\n          PUSH [tag] 33\t\t\t\n          JUMP \t\t\t\n        tag 102\t\t\t\n          JUMPDEST \t\t\t\n          PUSH [tag] 32\t\t\t\n          JUMP \t\t\t\n        tag 101\t\t\t\n          JUMPDEST \t\t\t\n          SWAP1 \t\t\t\n          POP \t\t\t\n          SWAP2 \t\t\t\n          SWAP1 \t\t\t\n          POP \t\t\t\n          JUMP \t\t\t\n        tag 35\t\t\t\n          JUMPDEST \t\t\t\n          PUSH 0\t\t\t\n          DUP2 \t\t\t\n          SWAP1 \t\t\t\n          POP \t\t\t\n          SWAP2 \t\t\t\n          SWAP1 \t\t\t\n          POP \t\t\t\n          JUMP \t\t\t\n        tag 36\t\t\t\n          JUMPDEST \t\t\t\n          PUSH [tag] 106\t\t\t\n          DUP4 \t\t\t\n          PUSH [tag] 34\t\t\t\n          JUMP \t\t\t\n        tag 106\t\t\t\n          JUMPDEST \t\t\t\n          PUSH [tag] 107\t\t\t\n          PUSH [tag] 108\t\t\t\n          DUP3 \t\t\t\n          PUSH [tag] 35\t\t\t\n          JUMP \t\t\t\n        tag 108\t\t\t\n          JUMPDEST \t\t\t\n          DUP5 \t\t\t\n          DUP5 \t\t\t\n          SLOAD \t\t\t\n          PUSH [tag] 31\t\t\t\n          JUMP \t\t\t\n        tag 107\t\t\t\n          JUMPDEST \t\t\t\n          DUP3 \t\t\t\n          SSTORE \t\t\t\n          POP \t\t\t\n          POP \t\t\t\n          POP \t\t\t\n          POP \t\t\t\n          JUMP \t\t\t\n        tag 37\t\t\t\n          JUMPDEST \t\t\t\n          PUSH 0\t\t\t\n          SWAP1 \t\t\t\n          JUMP \t\t\t\n        tag 38\t\t\t\n          JUMPDEST \t\t\t\n          PUSH [tag] 111\t\t\t\n          PUSH [tag] 37\t\t\t\n          JUMP \t\t\t\n        tag 111\t\t\t\n          JUMPDEST \t\t\t\n          PUSH [tag] 112\t\t\t\n          DUP2 \t\t\t\n          DUP5 \t\t\t\n          DUP5 \t\t\t\n          PUSH [tag] 36\t\t\t\n          JUMP \t\t\t\n        tag 112\t\t\t\n          JUMPDEST \t\t\t\n          POP \t\t\t\n          POP \t\t\t\n          POP \t\t\t\n          JUMP \t\t\t\n        tag 39\t\t\t\n          JUMPDEST \t\t\t\n        tag 114\t\t\t\n          JUMPDEST \t\t\t\n          DUP2 \t\t\t\n          DUP2 \t\t\t\n          LT \t\t\t\n          ISZERO \t\t\t\n          PUSH [tag] 116\t\t\t\n          JUMPI \t\t\t\n          PUSH [tag] 117\t\t\t\n          PUSH 0\t\t\t\n          DUP3 \t\t\t\n          PUSH [tag] 38\t\t\t\n          JUMP \t\t\t\n        tag 117\t\t\t\n          JUMPDEST \t\t\t\n          PUSH 1\t\t\t\n          DUP2 \t\t\t\n          ADD \t\t\t\n          SWAP1 \t\t\t\n          POP \t\t\t\n          PUSH [tag] 114\t\t\t\n          JUMP \t\t\t\n        tag 116\t\t\t\n          JUMPDEST \t\t\t\n          POP \t\t\t\n          POP \t\t\t\n          JUMP \t\t\t\n        tag 40\t\t\t\n          JUMPDEST \t\t\t\n          PUSH 1F\t\t\t\n          DUP3 \t\t\t\n          GT \t\t\t\n          ISZERO \t\t\t\n          PUSH [tag] 119\t\t\t\n          JUMPI \t\t\t\n          PUSH [tag] 120\t\t\t\n          DUP2 \t\t\t\n          PUSH [tag] 28\t\t\t\n          JUMP \t\t\t\n        tag 120\t\t\t\n          JUMPDEST \t\t\t\n          PUSH [tag] 121\t\t\t\n          DUP5 \t\t\t\n          PUSH [tag] 29\t\t\t\n          JUMP \t\t\t\n        tag 121\t\t\t\n          JUMPDEST \t\t\t\n          DUP2 \t\t\t\n          ADD \t\t\t\n          PUSH 20\t\t\t\n          DUP6 \t\t\t\n          LT \t\t\t\n          ISZERO \t\t\t\n          PUSH [tag] 122\t\t\t\n          JUMPI \t\t\t\n          DUP2 \t\t\t\n          SWAP1 \t\t\t\n          POP \t\t\t\n        tag 122\t\t\t\n          JUMPDEST \t\t\t\n          PUSH [tag] 123\t\t\t\n          PUSH [tag] 124\t\t\t\n          DUP6 \t\t\t\n          PUSH [tag] 29\t\t\t\n          JUMP \t\t\t\n        tag 124\t\t\t\n          JUMPDEST \t\t\t\n          DUP4 \t\t\t\n          ADD \t\t\t\n          DUP3 \t\t\t\n          PUSH [tag] 39\t\t\t\n          JUMP \t\t\t\n        tag 123\t\t\t\n          JUMPDEST \t\t\t\n          POP \t\t\t\n          POP \t\t\t\n        tag 119\t\t\t\n          JUMPDEST \t\t\t\n          POP \t\t\t\n          POP \t\t\t\n          POP \t\t\t\n          JUMP \t\t\t\n        tag 41\t\t\t\n          JUMPDEST \t\t\t\n          PUSH 0\t\t\t\n          DUP3 \t\t\t\n          DUP3 \t\t\t\n          SHR \t\t\t\n          SWAP1 \t\t\t\n          POP \t\t\t\n          SWAP3 \t\t\t\n          SWAP2 \t\t\t\n          POP \t\t\t\n          POP \t\t\t\n          JUMP \t\t\t\n        tag 42\t\t\t\n          JUMPDEST \t\t\t\n          PUSH 0\t\t\t\n          PUSH [tag] 127\t\t\t\n          PUSH 0\t\t\t\n          NOT \t\t\t\n          DUP5 \t\t\t\n          PUSH 8\t\t\t\n          MUL \t\t\t\n          PUSH [tag] 41\t\t\t\n          JUMP \t\t\t\n        tag 127\t\t\t\n          JUMPDEST \t\t\t\n          NOT \t\t\t\n          DUP1 \t\t\t\n          DUP4 \t\t\t\n          AND \t\t\t\n          SWAP2 \t\t\t\n          POP \t\t\t\n          POP \t\t\t\n          SWAP3 \t\t\t\n          SWAP2 \t\t\t\n          POP \t\t\t\n          POP \t\t\t\n          JUMP \t\t\t\n        tag 43\t\t\t\n          JUMPDEST \t\t\t\n          PUSH 0\t\t\t\n          PUSH [tag] 129\t\t\t\n          DUP4 \t\t\t\n          DUP4 \t\t\t\n          PUSH [tag] 42\t\t\t\n          JUMP \t\t\t\n        tag 129\t\t\t\n          JUMPDEST \t\t\t\n          SWAP2 \t\t\t\n          POP \t\t\t\n          DUP3 \t\t\t\n          PUSH 2\t\t\t\n          MUL \t\t\t\n          DUP3 \t\t\t\n          OR \t\t\t\n          SWAP1 \t\t\t\n          POP \t\t\t\n          SWAP3 \t\t\t\n          SWAP2 \t\t\t\n          POP \t\t\t\n          POP \t\t\t\n          JUMP \t\t\t\n        tag 8\t\t\t\n          JUMPDEST \t\t\t\n          PUSH [tag] 131\t\t\t\n          DUP3 \t\t\t\n          PUSH [tag] 25\t\t\t\n          JUMP \t\t\t\n        tag 131\t\t\t\n          JUMPDEST \t\t\t\n          PUSH FFFFFFFFFFFFFFFF\t\t\t\n          DUP2 \t\t\t\n          GT \t\t\t\n          ISZERO \t\t\t\n          PUSH [tag] 132\t\t\t\n          JUMPI \t\t\t\n          PUSH [tag] 133\t\t\t\n          PUSH [tag] 18\t\t\t\n          JUMP \t\t\t\n        tag 133\t\t\t\n          JUMPDEST \t\t\t\n        tag 132\t\t\t\n          JUMPDEST \t\t\t\n          PUSH [tag] 134\t\t\t\n          DUP3 \t\t\t\n          SLOAD \t\t\t\n          PUSH [tag] 27\t\t\t\n          JUMP \t\t\t\n        tag 134\t\t\t\n          JUMPDEST \t\t\t\n          PUSH [tag] 135\t\t\t\n          DUP3 \t\t\t\n          DUP3 \t\t\t\n          DUP6 \t\t\t\n          PUSH [tag] 40\t\t\t\n          JUMP \t\t\t\n        tag 135\t\t\t\n          JUMPDEST \t\t\t\n          PUSH 0\t\t\t\n          PUSH 20\t\t\t\n          SWAP1 \t\t\t\n          POP \t\t\t\n          PUSH 1F\t\t\t\n          DUP4 \t\t\t\n          GT \t\t\t\n          PUSH 1\t\t\t\n          DUP2 \t\t\t\n          EQ \t\t\t\n          PUSH [tag] 137\t\t\t\n          JUMPI \t\t\t\n          PUSH 0\t\t\t\n          DUP5 \t\t\t\n          ISZERO \t\t\t\n          PUSH [tag] 138\t\t\t\n          JUMPI \t\t\t\n          DUP3 \t\t\t\n          DUP8 \t\t\t\n          ADD \t\t\t\n          MLOAD \t\t\t\n          SWAP1 \t\t\t\n          POP \t\t\t\n        tag 138\t\t\t\n          JUMPDEST \t\t\t\n          PUSH [tag] 139\t\t\t\n          DUP6 \t\t\t\n          DUP3 \t\t\t\n          PUSH [tag] 43\t\t\t\n          JUMP \t\t\t\n        tag 139\t\t\t\n          JUMPDEST \t\t\t\n          DUP7 \t\t\t\n          SSTORE \t\t\t\n          POP \t\t\t\n          PUSH [tag] 136\t\t\t\n          JUMP \t\t\t\n        tag 137\t\t\t\n          JUMPDEST \t\t\t\n          PUSH 1F\t\t\t\n          NOT \t\t\t\n          DUP5 \t\t\t\n          AND \t\t\t\n          PUSH [tag] 140\t\t\t\n          DUP7 \t\t\t\n          PUSH [tag] 28\t\t\t\n          JUMP \t\t\t\n        tag 140\t\t\t\n          JUMPDEST \t\t\t\n          PUSH 0\t\t\t\n        tag 141\t\t\t\n          JUMPDEST \t\t\t\n          DUP3 \t\t\t\n          DUP2 \t\t\t\n          LT \t\t\t\n          ISZERO \t\t\t\n          PUSH [tag] 143\t\t\t\n          JUMPI \t\t\t\n          DUP5 \t\t\t\n          DUP10 \t\t\t\n          ADD \t\t\t\n          MLOAD \t\t\t\n          DUP3 \t\t\t\n          SSTORE \t\t\t\n          PUSH 1\t\t\t\n          DUP3 \t\t\t\n          ADD \t\t\t\n          SWAP2 \t\t\t\n          POP \t\t\t\n          PUSH 20\t\t\t\n          DUP6 \t\t\t\n          ADD \t\t\t\n          SWAP5 \t\t\t\n          POP \t\t\t\n          PUSH 20\t\t\t\n          DUP2 \t\t\t\n          ADD \t\t\t\n          SWAP1 \t\t\t\n          POP \t\t\t\n          PUSH [tag] 141\t\t\t\n          JUMP \t\t\t\n        tag 143\t\t\t\n          JUMPDEST \t\t\t\n          DUP7 \t\t\t\n          DUP4 \t\t\t\n          LT \t\t\t\n          ISZERO \t\t\t\n          PUSH [tag] 144\t\t\t\n          JUMPI \t\t\t\n          DUP5 \t\t\t\n          DUP10 \t\t\t\n          ADD \t\t\t\n          MLOAD \t\t\t\n          PUSH [tag] 145\t\t\t\n          PUSH 1F\t\t\t\n          DUP10 \t\t\t\n          AND \t\t\t\n          DUP3 \t\t\t\n          PUSH [tag] 42\t\t\t\n          JUMP \t\t\t\n        tag 145\t\t\t\n          JUMPDEST \t\t\t\n          DUP4 \t\t\t\n          SSTORE \t\t\t\n          POP \t\t\t\n        tag 144\t\t\t\n          JUMPDEST \t\t\t\n          PUSH 1\t\t\t\n          PUSH 2\t\t\t\n          DUP9 \t\t\t\n          MUL \t\t\t\n          ADD \t\t\t\n          DUP9 \t\t\t\n          SSTORE \t\t\t\n          POP \t\t\t\n          POP \t\t\t\n          POP \t\t\t\n        tag 136\t\t\t\n          JUMPDEST \t\t\t\n          POP \t\t\t\n          POP \t\t\t\n          POP \t\t\t\n          POP \t\t\t\n          POP \t\t\t\n          POP \t\t\t\n          JUMP \t\t\t\n        tag 11\t\t\treeCollectionCounter;\\r\\n\\r\\n ...\n          JUMPDEST \t\t\treeCollectionCounter;\\r\\n\\r\\n ...\n          PUSH 80\t\t\treeCollectionCounter;\\r\\n\\r\\n ...\n          MLOAD \t\t\treeCollectionCounter;\\r\\n\\r\\n ...\n          PUSH #[$] 0000000000000000000000000000000000000000000000000000000000000000\t\t\treeCollectionCounter;\\r\\n\\r\\n ...\n          PUSH [$] 0000000000000000000000000000000000000000000000000000000000000000\t\t\treeCollectionCounter;\\r\\n\\r\\n ...\n          PUSH 0\t\t\treeCollectionCounter;\\r\\n\\r\\n ...\n          CODECOPY \t\t\treeCollectionCounter;\\r\\n\\r\\n ...\n          PUSH 0\t\t\treeCollectionCounter;\\r\\n\\r\\n ...\n          ASSIGNIMMUTABLE 4041\t\t\treeCollectionCounter;\\r\\n\\r\\n ...\n          PUSH #[$] 0000000000000000000000000000000000000000000000000000000000000000\t\t\treeCollectionCounter;\\r\\n\\r\\n ...\n          PUSH 0\t\t\treeCollectionCounter;\\r\\n\\r\\n ...\n          RETURN \t\t\treeCollectionCounter;\\r\\n\\r\\n ...\n        .data\n          0:\n            .code\n              PUSH 80\t\t\treeCollectionCounter;\\r\\n\\r\\n ...\n              PUSH 40\t\t\treeCollectionCounter;\\r\\n\\r\\n ...\n              MSTORE \t\t\treeCollectionCounter;\\r\\n\\r\\n ...\n              CALLVALUE \t\t\treeCollectionCounter;\\r\\n\\r\\n ...\n              DUP1 \t\t\treeCollectionCounter;\\r\\n\\r\\n ...\n              ISZERO \t\t\treeCollectionCounter;\\r\\n\\r\\n ...\n              PUSH [tag] 1\t\t\treeCollectionCounter;\\r\\n\\r\\n ...\n              JUMPI \t\t\treeCollectionCounter;\\r\\n\\r\\n ...\n              PUSH 0\t\t\treeCollectionCounter;\\r\\n\\r\\n ...\n              DUP1 \t\t\treeCollectionCounter;\\r\\n\\r\\n ...\n              REVERT \t\t\treeCollectionCounter;\\r\\n\\r\\n ...\n            tag 1\t\t\treeCollectionCounter;\\r\\n\\r\\n ...\n              JUMPDEST \t\t\treeCollectionCounter;\\r\\n\\r\\n ...\n              POP \t\t\treeCollectionCounter;\\r\\n\\r\\n ...\n              PUSH 4\t\t\treeCollectionCounter;\\r\\n\\r\\n ...\n              CALLDATASIZE \t\t\treeCollectionCounter;\\r\\n\\r\\n ...\n              LT \t\t\treeCollectionCounter;\\r\\n\\r\\n ...\n              PUSH [tag] 2\t\t\treeCollectionCounter;\\r\\n\\r\\n ...\n              JUMPI \t\t\treeCollectionCounter;\\r\\n\\r\\n ...\n              PUSH 0\t\t\treeCollectionCounter;\\r\\n\\r\\n ...\n              CALLDATALOAD \t\t\treeCollectionCounter;\\r\\n\\r\\n ...\n              PUSH E0\t\t\treeCollectionCounter;\\r\\n\\r\\n ...\n              SHR \t\t\treeCollectionCounter;\\r\\n\\r\\n ...\n              DUP1 \t\t\treeCollectionCounter;\\r\\n\\r\\n ...\n              PUSH 70A08231\t\t\treeCollectionCounter;\\r\\n\\r\\n ...\n              GT \t\t\treeCollectionCounter;\\r\\n\\r\\n ...\n              PUSH [tag] 18\t\t\treeCollectionCounter;\\r\\n\\r\\n ...\n              JUMPI \t\t\treeCollectionCounter;\\r\\n\\r\\n ...\n              DUP1 \t\t\treeCollectionCounter;\\r\\n\\r\\n ...\n              PUSH B88D4FDE\t\t\treeCollectionCounter;\\r\\n\\r\\n ...\n              GT \t\t\treeCollectionCounter;\\r\\n\\r\\n ...\n              PUSH [tag] 19\t\t\treeCollectionCounter;\\r\\n\\r\\n ...\n              JUMPI \t\t\treeCollectionCounter;\\r\\n\\r\\n ...\n              DUP1 \t\t\treeCollectionCounter;\\r\\n\\r\\n ...\n              PUSH B88D4FDE\t\t\treeCollectionCounter;\\r\\n\\r\\n ...\n              EQ \t\t\treeCollectionCounter;\\r\\n\\r\\n ...\n              PUSH [tag] 14\t\t\treeCollectionCounter;\\r\\n\\r\\n ...\n              JUMPI \t\t\treeCollectionCounter;\\r\\n\\r\\n ...\n              DUP1 \t\t\treeCollectionCounter;\\r\\n\\r\\n ...\n              PUSH C87B56DD\t\t\treeCollectionCounter;\\r\\n\\r\\n ...\n              EQ \t\t\treeCollectionCounter;\\r\\n\\r\\n ...\n              PUSH [tag] 15\t\t\treeCollectionCounter;\\r\\n\\r\\n ...\n              JUMPI \t\t\treeCollectionCounter;\\r\\n\\r\\n ...\n              DUP1 \t\t\treeCollectionCounter;\\r\\n\\r\\n ...\n              PUSH D204C45E\t\t\treeCollectionCounter;\\r\\n\\r\\n ...\n              EQ \t\t\treeCollectionCounter;\\r\\n\\r\\n ...\n              PUSH [tag] 16\t\t\treeCollectionCounter;\\r\\n\\r\\n ...\n              JUMPI \t\t\treeCollectionCounter;\\r\\n\\r\\n ...\n              DUP1 \t\t\treeCollectionCounter;\\r\\n\\r\\n ...\n              PUSH E985E9C5\t\t\treeCollectionCounter;\\r\\n\\r\\n ...\n              EQ \t\t\treeCollectionCounter;\\r\\n\\r\\n ...\n              PUSH [tag] 17\t\t\treeCollectionCounter;\\r\\n\\r\\n ...\n              JUMPI \t\t\treeCollectionCounter;\\r\\n\\r\\n ...\n              PUSH [tag] 2\t\t\treeCollectionCounter;\\r\\n\\r\\n ...\n              JUMP \t\t\treeCollectionCounter;\\r\\n\\r\\n ...\n            tag 19\t\t\treeCollectionCounter;\\r\\n\\r\\n ...\n              JUMPDEST \t\t\treeCollectionCounter;\\r\\n\\r\\n ...\n              DUP1 \t\t\treeCollectionCounter;\\r\\n\\r\\n ...\n              PUSH 70A08231\t\t\treeCollectionCounter;\\r\\n\\r\\n ...\n              EQ \t\t\treeCollectionCounter;\\r\\n\\r\\n ...\n              PUSH [tag] 10\t\t\treeCollectionCounter;\\r\\n\\r\\n ...\n              JUMPI \t\t\treeCollectionCounter;\\r\\n\\r\\n ...\n              DUP1 \t\t\treeCollectionCounter;\\r\\n\\r\\n ...\n              PUSH 95D89B41\t\t\treeCollectionCounter;\\r\\n\\r\\n ...\n              EQ \t\t\treeCollectionCounter;\\r\\n\\r\\n ...\n              PUSH [tag] 11\t\t\treeCollectionCounter;\\r\\n\\r\\n ...\n              JUMPI \t\t\treeCollectionCounter;\\r\\n\\r\\n ...\n              DUP1 \t\t\treeCollectionCounter;\\r\\n\\r\\n ...\n              PUSH 98BDF6F5\t\t\treeCollectionCounter;\\r\\n\\r\\n ...\n              EQ \t\t\treeCollectionCounter;\\r\\n\\r\\n ...\n              PUSH [tag] 12\t\t\treeCollectionCounter;\\r\\n\\r\\n ...\n              JUMPI \t\t\treeCollectionCounter;\\r\\n\\r\\n ...\n              DUP1 \t\t\treeCollectionCounter;\\r\\n\\r\\n ...\n              PUSH A22CB465\t\t\treeCollectionCounter;\\r\\n\\r\\n ...\n              EQ \t\t\treeCollectionCounter;\\r\\n\\r\\n ...\n              PUSH [tag] 13\t\t\treeCollectionCounter;\\r\\n\\r\\n ...\n              JUMPI \t\t\treeCollectionCounter;\\r\\n\\r\\n ...\n              PUSH [tag] 2\t\t\treeCollectionCounter;\\r\\n\\r\\n ...\n              JUMP \t\t\treeCollectionCounter;\\r\\n\\r\\n ...\n            tag 18\t\t\treeCollectionCounter;\\r\\n\\r\\n ...\n              JUMPDEST \t\t\treeCollectionCounter;\\r\\n\\r\\n ...\n              DUP1 \t\t\treeCollectionCounter;\\r\\n\\r\\n ...\n              PUSH 95EA7B3\t\t\treeCollectionCounter;\\r\\n\\r\\n ...\n              GT \t\t\treeCollectionCounter;\\r\\n\\r\\n ...\n              PUSH [tag] 20\t\t\treeCollectionCounter;\\r\\n\\r\\n ...\n              JUMPI \t\t\treeCollectionCounter;\\r\\n\\r\\n ...\n              DUP1 \t\t\treeCollectionCounter;\\r\\n\\r\\n ...\n              PUSH 95EA7B3\t\t\treeCollectionCounter;\\r\\n\\r\\n ...\n              EQ \t\t\treeCollectionCounter;\\r\\n\\r\\n ...\n              PUSH [tag] 6\t\t\treeCollectionCounter;\\r\\n\\r\\n ...\n              JUMPI \t\t\treeCollectionCounter;\\r\\n\\r\\n ...\n              DUP1 \t\t\treeCollectionCounter;\\r\\n\\r\\n ...\n              PUSH 23B872DD\t\t\treeCollectionCounter;\\r\\n\\r\\n ...\n              EQ \t\t\treeCollectionCounter;\\r\\n\\r\\n ...\n              PUSH [tag] 7\t\t\treeCollectionCounter;\\r\\n\\r\\n ...\n              JUMPI \t\t\treeCollectionCounter;\\r\\n\\r\\n ...\n              DUP1 \t\t\treeCollectionCounter;\\r\\n\\r\\n ...\n              PUSH 42842E0E\t\t\treeCollectionCounter;\\r\\n\\r\\n ...\n              EQ \t\t\treeCollectionCounter;\\r\\n\\r\\n ...\n              PUSH [tag] 8\t\t\treeCollectionCounter;\\r\\n\\r\\n ...\n              JUMPI \t\t\treeCollectionCounter;\\r\\n\\r\\n ...\n              DUP1 \t\t\treeCollectionCounter;\\r\\n\\r\\n ...\n              PUSH 6352211E\t\t\treeCollectionCounter;\\r\\n\\r\\n ...\n              EQ \t\t\treeCollectionCounter;\\r\\n\\r\\n ...\n              PUSH [tag] 9\t\t\treeCollectionCounter;\\r\\n\\r\\n ...\n              JUMPI \t\t\treeCollectionCounter;\\r\\n\\r\\n ...\n              PUSH [tag] 2\t\t\treeCollectionCounter;\\r\\n\\r\\n ...\n              JUMP \t\t\treeCollectionCounter;\\r\\n\\r\\n ...\n            tag 20\t\t\treeCollectionCounter;\\r\\n\\r\\n ...\n              JUMPDEST \t\t\treeCollectionCounter;\\r\\n\\r\\n ...\n              DUP1 \t\t\treeCollectionCounter;\\r\\n\\r\\n ...\n              PUSH 1FFC9A7\t\t\treeCollectionCounter;\\r\\n\\r\\n ...\n              EQ \t\t\treeCollectionCounter;\\r\\n\\r\\n ...\n              PUSH [tag] 3\t\t\treeCollectionCounter;\\r\\n\\r\\n ...\n              JUMPI \t\t\treeCollectionCounter;\\r\\n\\r\\n ...\n              DUP1 \t\t\treeCollectionCounter;\\r\\n\\r\\n ...\n              PUSH 6FDDE03\t\t\treeCollectionCounter;\\r\\n\\r\\n ...\n              EQ \t\t\treeCollectionCounter;\\r\\n\\r\\n ...\n              PUSH [tag] 4\t\t\treeCollectionCounter;\\r\\n\\r\\n ...\n              JUMPI \t\t\treeCollectionCounter;\\r\\n\\r\\n ...\n              DUP1 \t\t\treeCollectionCounter;\\r\\n\\r\\n ...\n              PUSH 81812FC\t\t\treeCollectionCounter;\\r\\n\\r\\n ...\n              EQ \t\t\treeCollectionCounter;\\r\\n\\r\\n ...\n              PUSH [tag] 5\t\t\treeCollectionCounter;\\r\\n\\r\\n ...\n              JUMPI \t\t\treeCollectionCounter;\\r\\n\\r\\n ...\n            tag 2\t\t\treeCollectionCounter;\\r\\n\\r\\n ...\n              JUMPDEST \t\t\treeCollectionCounter;\\r\\n\\r\\n ...\n              PUSH 0\t\t\treeCollectionCounter;\\r\\n\\r\\n ...\n              DUP1 \t\t\treeCollectionCounter;\\r\\n\\r\\n ...\n              REVERT \t\t\treeCollectionCounter;\\r\\n\\r\\n ...\n            tag 3\t\t\tder == admin, \"Nope!\");\\r\\n\\r\\...\n              JUMPDEST \t\t\tder == admin, \"Nope!\");\\r\\n\\r\\...\n              PUSH [tag] 21\t\t\tder == admin, \"Nope!\");\\r\\n\\r\\...\n              PUSH 4\t\t\tder == admin, \"Nope!\");\\r\\n\\r\\...\n              DUP1 \t\t\tder == admin, \"Nope!\");\\r\\n\\r\\...\n              CALLDATASIZE \t\t\tder == admin, \"Nope!\");\\r\\n\\r\\...\n              SUB \t\t\tder == admin, \"Nope!\");\\r\\n\\r\\...\n              DUP2 \t\t\tder == admin, \"Nope!\");\\r\\n\\r\\...\n              ADD \t\t\tder == admin, \"Nope!\");\\r\\n\\r\\...\n              SWAP1 \t\t\tder == admin, \"Nope!\");\\r\\n\\r\\...\n              PUSH [tag] 22\t\t\tder == admin, \"Nope!\");\\r\\n\\r\\...\n              SWAP2 \t\t\tder == admin, \"Nope!\");\\r\\n\\r\\...\n              SWAP1 \t\t\tder == admin, \"Nope!\");\\r\\n\\r\\...\n              PUSH [tag] 23\t\t\tder == admin, \"Nope!\");\\r\\n\\r\\...\n              JUMP \t\t\tder == admin, \"Nope!\");\\r\\n\\r\\...\n            tag 22\t\t\tder == admin, \"Nope!\");\\r\\n\\r\\...\n              JUMPDEST \t\t\tder == admin, \"Nope!\");\\r\\n\\r\\...\n              PUSH [tag] 24\t\t\tder == admin, \"Nope!\");\\r\\n\\r\\...\n              JUMP \t\t\tder == admin, \"Nope!\");\\r\\n\\r\\...\n            tag 21\t\t\tder == admin, \"Nope!\");\\r\\n\\r\\...\n              JUMPDEST \t\t\tder == admin, \"Nope!\");\\r\\n\\r\\...\n              PUSH 40\t\t\tder == admin, \"Nope!\");\\r\\n\\r\\...\n              MLOAD \t\t\tder == admin, \"Nope!\");\\r\\n\\r\\...\n              PUSH [tag] 25\t\t\tder == admin, \"Nope!\");\\r\\n\\r\\...\n              SWAP2 \t\t\tder == admin, \"Nope!\");\\r\\n\\r\\...\n              SWAP1 \t\t\tder == admin, \"Nope!\");\\r\\n\\r\\...\n              PUSH [tag] 26\t\t\tder == admin, \"Nope!\");\\r\\n\\r\\...\n              JUMP \t\t\tder == admin, \"Nope!\");\\r\\n\\r\\...\n            tag 25\t\t\tder == admin, \"Nope!\");\\r\\n\\r\\...\n              JUMPDEST \t\t\tder == admin, \"Nope!\");\\r\\n\\r\\...\n              PUSH 40\t\t\tder == admin, \"Nope!\");\\r\\n\\r\\...\n              MLOAD \t\t\tder == admin, \"Nope!\");\\r\\n\\r\\...\n              DUP1 \t\t\tder == admin, \"Nope!\");\\r\\n\\r\\...\n              SWAP2 \t\t\tder == admin, \"Nope!\");\\r\\n\\r\\...\n              SUB \t\t\tder == admin, \"Nope!\");\\r\\n\\r\\...\n              SWAP1 \t\t\tder == admin, \"Nope!\");\\r\\n\\r\\...\n              RETURN \t\t\tder == admin, \"Nope!\");\\r\\n\\r\\...\n            tag 4\t\t\td\"); \\r\\n\\r\\n        userTree[...\n              JUMPDEST \t\t\td\"); \\r\\n\\r\\n        userTree[...\n              PUSH [tag] 27\t\t\td\"); \\r\\n\\r\\n        userTree[...\n              PUSH [tag] 28\t\t\td\"); \\r\\n\\r\\n        userTree[...\n              JUMP \t\t\td\"); \\r\\n\\r\\n        userTree[...\n            tag 27\t\t\td\"); \\r\\n\\r\\n        userTree[...\n              JUMPDEST \t\t\td\"); \\r\\n\\r\\n        userTree[...\n              PUSH 40\t\t\td\"); \\r\\n\\r\\n        userTree[...\n              MLOAD \t\t\td\"); \\r\\n\\r\\n        userTree[...\n              PUSH [tag] 29\t\t\td\"); \\r\\n\\r\\n        userTree[...\n              SWAP2 \t\t\td\"); \\r\\n\\r\\n        userTree[...\n              SWAP1 \t\t\td\"); \\r\\n\\r\\n        userTree[...\n              PUSH [tag] 30\t\t\td\"); \\r\\n\\r\\n        userTree[...\n              JUMP \t\t\td\"); \\r\\n\\r\\n        userTree[...\n            tag 29\t\t\td\"); \\r\\n\\r\\n        userTree[...\n              JUMPDEST \t\t\td\"); \\r\\n\\r\\n        userTree[...\n              PUSH 40\t\t\td\"); \\r\\n\\r\\n        userTree[...\n              MLOAD \t\t\td\"); \\r\\n\\r\\n        userTree[...\n              DUP1 \t\t\td\"); \\r\\n\\r\\n        userTree[...\n              SWAP2 \t\t\td\"); \\r\\n\\r\\n        userTree[...\n              SUB \t\t\td\"); \\r\\n\\r\\n        userTree[...\n              SWAP1 \t\t\td\"); \\r\\n\\r\\n        userTree[...\n              RETURN \t\t\td\"); \\r\\n\\r\\n        userTree[...\n            tag 5\t\t\tview returns (uint256) {\\r\\n  ...\n              JUMPDEST \t\t\tview returns (uint256) {\\r\\n  ...\n              PUSH [tag] 31\t\t\tview returns (uint256) {\\r\\n  ...\n              PUSH 4\t\t\tview returns (uint256) {\\r\\n  ...\n              DUP1 \t\t\tview returns (uint256) {\\r\\n  ...\n              CALLDATASIZE \t\t\tview returns (uint256) {\\r\\n  ...\n              SUB \t\t\tview returns (uint256) {\\r\\n  ...\n              DUP2 \t\t\tview returns (uint256) {\\r\\n  ...\n              ADD \t\t\tview returns (uint256) {\\r\\n  ...\n              SWAP1 \t\t\tview returns (uint256) {\\r\\n  ...\n              PUSH [tag] 32\t\t\tview returns (uint256) {\\r\\n  ...\n              SWAP2 \t\t\tview returns (uint256) {\\r\\n  ...\n              SWAP1 \t\t\tview returns (uint256) {\\r\\n  ...\n              PUSH [tag] 33\t\t\tview returns (uint256) {\\r\\n  ...\n              JUMP \t\t\tview returns (uint256) {\\r\\n  ...\n            tag 32\t\t\tview returns (uint256) {\\r\\n  ...\n              JUMPDEST \t\t\tview returns (uint256) {\\r\\n  ...\n              PUSH [tag] 34\t\t\tview returns (uint256) {\\r\\n  ...\n              JUMP \t\t\tview returns (uint256) {\\r\\n  ...\n            tag 31\t\t\tview returns (uint256) {\\r\\n  ...\n              JUMPDEST \t\t\tview returns (uint256) {\\r\\n  ...\n              PUSH 40\t\t\tview returns (uint256) {\\r\\n  ...\n              MLOAD \t\t\tview returns (uint256) {\\r\\n  ...\n              PUSH [tag] 35\t\t\tview returns (uint256) {\\r\\n  ...\n              SWAP2 \t\t\tview returns (uint256) {\\r\\n  ...\n              SWAP1 \t\t\tview returns (uint256) {\\r\\n  ...\n              PUSH [tag] 36\t\t\tview returns (uint256) {\\r\\n  ...\n              JUMP \t\t\tview returns (uint256) {\\r\\n  ...\n            tag 35\t\t\tview returns (uint256) {\\r\\n  ...\n              JUMPDEST \t\t\tview returns (uint256) {\\r\\n  ...\n              PUSH 40\t\t\tview returns (uint256) {\\r\\n  ...\n              MLOAD \t\t\tview returns (uint256) {\\r\\n  ...\n              DUP1 \t\t\tview returns (uint256) {\\r\\n  ...\n              SWAP2 \t\t\tview returns (uint256) {\\r\\n  ...\n              SUB \t\t\tview returns (uint256) {\\r\\n  ...\n              SWAP1 \t\t\tview returns (uint256) {\\r\\n  ...\n              RETURN \t\t\tview returns (uint256) {\\r\\n  ...\n            tag 6\t\t\tint256 tokenId) public view re...\n              JUMPDEST \t\t\tint256 tokenId) public view re...\n              PUSH [tag] 37\t\t\tint256 tokenId) public view re...\n              PUSH 4\t\t\tint256 tokenId) public view re...\n              DUP1 \t\t\tint256 tokenId) public view re...\n              CALLDATASIZE \t\t\tint256 tokenId) public view re...\n              SUB \t\t\tint256 tokenId) public view re...\n              DUP2 \t\t\tint256 tokenId) public view re...\n              ADD \t\t\tint256 tokenId) public view re...\n              SWAP1 \t\t\tint256 tokenId) public view re...\n              PUSH [tag] 38\t\t\tint256 tokenId) public view re...\n              SWAP2 \t\t\tint256 tokenId) public view re...\n              SWAP1 \t\t\tint256 tokenId) public view re...\n              PUSH [tag] 39\t\t\tint256 tokenId) public view re...\n              JUMP \t\t\tint256 tokenId) public view re...\n            tag 38\t\t\tint256 tokenId) public view re...\n              JUMPDEST \t\t\tint256 tokenId) public view re...\n              PUSH [tag] 40\t\t\tint256 tokenId) public view re...\n              JUMP \t\t\tint256 tokenId) public view re...\n            tag 37\t\t\tint256 tokenId) public view re...\n              JUMPDEST \t\t\tint256 tokenId) public view re...\n              STOP \t\t\tint256 tokenId) public view re...\n            tag 7\t\t\t\n              JUMPDEST \t\t\t\n              PUSH [tag] 41\t\t\t\n              PUSH 4\t\t\t\n              DUP1 \t\t\t\n              CALLDATASIZE \t\t\t\n              SUB \t\t\t\n              DUP2 \t\t\t\n              ADD \t\t\t\n              SWAP1 \t\t\t\n              PUSH [tag] 42\t\t\t\n              SWAP2 \t\t\t\n              SWAP1 \t\t\t\n              PUSH [tag] 43\t\t\t\n              JUMP \t\t\t\n            tag 42\t\t\t\n              JUMPDEST \t\t\t\n              PUSH [tag] 44\t\t\t\n              JUMP \t\t\t\n            tag 41\t\t\t\n              JUMPDEST \t\t\t\n              STOP \t\t\t\n            tag 8\t\t\t\n              JUMPDEST \t\t\t\n              PUSH [tag] 45\t\t\t\n              PUSH 4\t\t\t\n              DUP1 \t\t\t\n              CALLDATASIZE \t\t\t\n              SUB \t\t\t\n              DUP2 \t\t\t\n              ADD \t\t\t\n              SWAP1 \t\t\t\n              PUSH [tag] 46\t\t\t\n              SWAP2 \t\t\t\n              SWAP1 \t\t\t\n              PUSH [tag] 43\t\t\t\n              JUMP \t\t\t\n            tag 46\t\t\t\n              JUMPDEST \t\t\t\n              PUSH [tag] 47\t\t\t\n              JUMP \t\t\t\n            tag 45\t\t\t\n              JUMPDEST \t\t\t\n              STOP \t\t\t\n            tag 9\t\t\tTreeCollection treecollection ...\n              JUMPDEST \t\t\tTreeCollection treecollection ...\n              PUSH [tag] 48\t\t\tTreeCollection treecollection ...\n              PUSH 4\t\t\tTreeCollection treecollection ...\n              DUP1 \t\t\tTreeCollection treecollection ...\n              CALLDATASIZE \t\t\tTreeCollection treecollection ...\n              SUB \t\t\tTreeCollection treecollection ...\n              DUP2 \t\t\tTreeCollection treecollection ...\n              ADD \t\t\tTreeCollection treecollection ...\n              SWAP1 \t\t\tTreeCollection treecollection ...\n              PUSH [tag] 49\t\t\tTreeCollection treecollection ...\n              SWAP2 \t\t\tTreeCollection treecollection ...\n              SWAP1 \t\t\tTreeCollection treecollection ...\n              PUSH [tag] 33\t\t\tTreeCollection treecollection ...\n              JUMP \t\t\tTreeCollection treecollection ...\n            tag 49\t\t\tTreeCollection treecollection ...\n              JUMPDEST \t\t\tTreeCollection treecollection ...\n              PUSH [tag] 50\t\t\tTreeCollection treecollection ...\n              JUMP \t\t\tTreeCollection treecollection ...\n            tag 48\t\t\tTreeCollection treecollection ...\n              JUMPDEST \t\t\tTreeCollection treecollection ...\n              PUSH 40\t\t\tTreeCollection treecollection ...\n              MLOAD \t\t\tTreeCollection treecollection ...\n              PUSH [tag] 51\t\t\tTreeCollection treecollection ...\n              SWAP2 \t\t\tTreeCollection treecollection ...\n              SWAP1 \t\t\tTreeCollection treecollection ...\n              PUSH [tag] 36\t\t\tTreeCollection treecollection ...\n              JUMP \t\t\tTreeCollection treecollection ...\n            tag 51\t\t\tTreeCollection treecollection ...\n              JUMPDEST \t\t\tTreeCollection treecollection ...\n              PUSH 40\t\t\tTreeCollection treecollection ...\n              MLOAD \t\t\tTreeCollection treecollection ...\n              DUP1 \t\t\tTreeCollection treecollection ...\n              SWAP2 \t\t\tTreeCollection treecollection ...\n              SUB \t\t\tTreeCollection treecollection ...\n              SWAP1 \t\t\tTreeCollection treecollection ...\n              RETURN \t\t\tTreeCollection treecollection ...\n            tag 10\t\t\t.sender, _uri); \\r\\n        ui...\n              JUMPDEST \t\t\t.sender, _uri); \\r\\n        ui...\n              PUSH [tag] 52\t\t\t.sender, _uri); \\r\\n        ui...\n              PUSH 4\t\t\t.sender, _uri); \\r\\n        ui...\n              DUP1 \t\t\t.sender, _uri); \\r\\n        ui...\n              CALLDATASIZE \t\t\t.sender, _uri); \\r\\n        ui...\n              SUB \t\t\t.sender, _uri); \\r\\n        ui...\n              DUP2 \t\t\t.sender, _uri); \\r\\n        ui...\n              ADD \t\t\t.sender, _uri); \\r\\n        ui...\n              SWAP1 \t\t\t.sender, _uri); \\r\\n        ui...\n              PUSH [tag] 53\t\t\t.sender, _uri); \\r\\n        ui...\n              SWAP2 \t\t\t.sender, _uri); \\r\\n        ui...\n              SWAP1 \t\t\t.sender, _uri); \\r\\n        ui...\n              PUSH [tag] 54\t\t\t.sender, _uri); \\r\\n        ui...\n              JUMP \t\t\t.sender, _uri); \\r\\n        ui...\n            tag 53\t\t\t.sender, _uri); \\r\\n        ui...\n              JUMPDEST \t\t\t.sender, _uri); \\r\\n        ui...\n              PUSH [tag] 55\t\t\t.sender, _uri); \\r\\n        ui...\n              JUMP \t\t\t.sender, _uri); \\r\\n        ui...\n            tag 52\t\t\t.sender, _uri); \\r\\n        ui...\n              JUMPDEST \t\t\t.sender, _uri); \\r\\n        ui...\n              PUSH 40\t\t\t.sender, _uri); \\r\\n        ui...\n              MLOAD \t\t\t.sender, _uri); \\r\\n        ui...\n              PUSH [tag] 56\t\t\t.sender, _uri); \\r\\n        ui...\n              SWAP2 \t\t\t.sender, _uri); \\r\\n        ui...\n              SWAP1 \t\t\t.sender, _uri); \\r\\n        ui...\n              PUSH [tag] 57\t\t\t.sender, _uri); \\r\\n        ui...\n              JUMP \t\t\t.sender, _uri); \\r\\n        ui...\n            tag 56\t\t\t.sender, _uri); \\r\\n        ui...\n              JUMPDEST \t\t\t.sender, _uri); \\r\\n        ui...\n              PUSH 40\t\t\t.sender, _uri); \\r\\n        ui...\n              MLOAD \t\t\t.sender, _uri); \\r\\n        ui...\n              DUP1 \t\t\t.sender, _uri); \\r\\n        ui...\n              SWAP2 \t\t\t.sender, _uri); \\r\\n        ui...\n              SUB \t\t\t.sender, _uri); \\r\\n        ui...\n              SWAP1 \t\t\t.sender, _uri); \\r\\n        ui...\n              RETURN \t\t\t.sender, _uri); \\r\\n        ui...\n            tag 11\t\t\t+= 1;\\r\\n\\r\\n        return tr...\n              JUMPDEST \t\t\t+= 1;\\r\\n\\r\\n        return tr...\n              PUSH [tag] 58\t\t\t+= 1;\\r\\n\\r\\n        return tr...\n              PUSH [tag] 59\t\t\t+= 1;\\r\\n\\r\\n        return tr...\n              JUMP \t\t\t+= 1;\\r\\n\\r\\n        return tr...\n            tag 58\t\t\t+= 1;\\r\\n\\r\\n        return tr...\n              JUMPDEST \t\t\t+= 1;\\r\\n\\r\\n        return tr...\n              PUSH 40\t\t\t+= 1;\\r\\n\\r\\n        return tr...\n              MLOAD \t\t\t+= 1;\\r\\n\\r\\n        return tr...\n              PUSH [tag] 60\t\t\t+= 1;\\r\\n\\r\\n        return tr...\n              SWAP2 \t\t\t+= 1;\\r\\n\\r\\n        return tr...\n              SWAP1 \t\t\t+= 1;\\r\\n\\r\\n        return tr...\n              PUSH [tag] 30\t\t\t+= 1;\\r\\n\\r\\n        return tr...\n              JUMP \t\t\t+= 1;\\r\\n\\r\\n        return tr...\n            tag 60\t\t\t+= 1;\\r\\n\\r\\n        return tr...\n              JUMPDEST \t\t\t+= 1;\\r\\n\\r\\n        return tr...\n              PUSH 40\t\t\t+= 1;\\r\\n\\r\\n        return tr...\n              MLOAD \t\t\t+= 1;\\r\\n\\r\\n        return tr...\n              DUP1 \t\t\t+= 1;\\r\\n\\r\\n        return tr...\n              SWAP2 \t\t\t+= 1;\\r\\n\\r\\n        return tr...\n              SUB \t\t\t+= 1;\\r\\n\\r\\n        return tr...\n              SWAP1 \t\t\t+= 1;\\r\\n\\r\\n        return tr...\n              RETURN \t\t\t+= 1;\\r\\n\\r\\n        return tr...\n            tag 12\t\t\t6 amount) internal{\\r\\n       ...\n              JUMPDEST \t\t\t6 amount) internal{\\r\\n       ...\n              PUSH [tag] 61\t\t\t6 amount) internal{\\r\\n       ...\n              PUSH [tag] 62\t\t\t6 amount) internal{\\r\\n       ...\n              JUMP \t\t\t6 amount) internal{\\r\\n       ...\n            tag 61\t\t\t6 amount) internal{\\r\\n       ...\n              JUMPDEST \t\t\t6 amount) internal{\\r\\n       ...\n              PUSH 40\t\t\t6 amount) internal{\\r\\n       ...\n              MLOAD \t\t\t6 amount) internal{\\r\\n       ...\n              PUSH [tag] 63\t\t\t6 amount) internal{\\r\\n       ...\n              SWAP2 \t\t\t6 amount) internal{\\r\\n       ...\n              SWAP1 \t\t\t6 amount) internal{\\r\\n       ...\n              PUSH [tag] 57\t\t\t6 amount) internal{\\r\\n       ...\n              JUMP \t\t\t6 amount) internal{\\r\\n       ...\n            tag 63\t\t\t6 amount) internal{\\r\\n       ...\n              JUMPDEST \t\t\t6 amount) internal{\\r\\n       ...\n              PUSH 40\t\t\t6 amount) internal{\\r\\n       ...\n              MLOAD \t\t\t6 amount) internal{\\r\\n       ...\n              DUP1 \t\t\t6 amount) internal{\\r\\n       ...\n              SWAP2 \t\t\t6 amount) internal{\\r\\n       ...\n              SUB \t\t\t6 amount) internal{\\r\\n       ...\n              SWAP1 \t\t\t6 amount) internal{\\r\\n       ...\n              RETURN \t\t\t6 amount) internal{\\r\\n       ...\n            tag 13\t\t\t\n              JUMPDEST \t\t\t\n              PUSH [tag] 64\t\t\t\n              PUSH 4\t\t\t\n              DUP1 \t\t\t\n              CALLDATASIZE \t\t\t\n              SUB \t\t\t\n              DUP2 \t\t\t\n              ADD \t\t\t\n              SWAP1 \t\t\t\n              PUSH [tag] 65\t\t\t\n              SWAP2 \t\t\t\n              SWAP1 \t\t\t\n              PUSH [tag] 66\t\t\t\n              JUMP \t\t\t\n            tag 65\t\t\t\n              JUMPDEST \t\t\t\n              PUSH [tag] 67\t\t\t\n              JUMP \t\t\t\n            tag 64\t\t\t\n              JUMPDEST \t\t\t\n              STOP \t\t\t\n            tag 14\t\t\t\n              JUMPDEST \t\t\t\n              PUSH [tag] 68\t\t\t\n              PUSH 4\t\t\t\n              DUP1 \t\t\t\n              CALLDATASIZE \t\t\t\n              SUB \t\t\t\n              DUP2 \t\t\t\n              ADD \t\t\t\n              SWAP1 \t\t\t\n              PUSH [tag] 69\t\t\t\n              SWAP2 \t\t\t\n              SWAP1 \t\t\t\n              PUSH [tag] 70\t\t\t\n              JUMP \t\t\t\n            tag 69\t\t\t\n              JUMPDEST \t\t\t\n              PUSH [tag] 71\t\t\t\n              JUMP \t\t\t\n            tag 68\t\t\t\n              JUMPDEST \t\t\t\n              STOP \t\t\t\n            tag 15\t\t\trTree; // mapping of a Tree wi...\n              JUMPDEST \t\t\trTree; // mapping of a Tree wi...\n              PUSH [tag] 72\t\t\trTree; // mapping of a Tree wi...\n              PUSH 4\t\t\trTree; // mapping of a Tree wi...\n              DUP1 \t\t\trTree; // mapping of a Tree wi...\n              CALLDATASIZE \t\t\trTree; // mapping of a Tree wi...\n              SUB \t\t\trTree; // mapping of a Tree wi...\n              DUP2 \t\t\trTree; // mapping of a Tree wi...\n              ADD \t\t\trTree; // mapping of a Tree wi...\n              SWAP1 \t\t\trTree; // mapping of a Tree wi...\n              PUSH [tag] 73\t\t\trTree; // mapping of a Tree wi...\n              SWAP2 \t\t\trTree; // mapping of a Tree wi...\n              SWAP1 \t\t\trTree; // mapping of a Tree wi...\n              PUSH [tag] 33\t\t\trTree; // mapping of a Tree wi...\n              JUMP \t\t\trTree; // mapping of a Tree wi...\n            tag 73\t\t\trTree; // mapping of a Tree wi...\n              JUMPDEST \t\t\trTree; // mapping of a Tree wi...\n              PUSH [tag] 74\t\t\trTree; // mapping of a Tree wi...\n              JUMP \t\t\trTree; // mapping of a Tree wi...\n            tag 72\t\t\trTree; // mapping of a Tree wi...\n              JUMPDEST \t\t\trTree; // mapping of a Tree wi...\n              PUSH 40\t\t\trTree; // mapping of a Tree wi...\n              MLOAD \t\t\trTree; // mapping of a Tree wi...\n              PUSH [tag] 75\t\t\trTree; // mapping of a Tree wi...\n              SWAP2 \t\t\trTree; // mapping of a Tree wi...\n              SWAP1 \t\t\trTree; // mapping of a Tree wi...\n              PUSH [tag] 30\t\t\trTree; // mapping of a Tree wi...\n              JUMP \t\t\trTree; // mapping of a Tree wi...\n            tag 75\t\t\trTree; // mapping of a Tree wi...\n              JUMPDEST \t\t\trTree; // mapping of a Tree wi...\n              PUSH 40\t\t\trTree; // mapping of a Tree wi...\n              MLOAD \t\t\trTree; // mapping of a Tree wi...\n              DUP1 \t\t\trTree; // mapping of a Tree wi...\n              SWAP2 \t\t\trTree; // mapping of a Tree wi...\n              SUB \t\t\trTree; // mapping of a Tree wi...\n              SWAP1 \t\t\trTree; // mapping of a Tree wi...\n              RETURN \t\t\trTree; // mapping of a Tree wi...\n            tag 16\t\t\tmes;\\r\\n        uint256 tokens...\n              JUMPDEST \t\t\tmes;\\r\\n        uint256 tokens...\n              PUSH [tag] 76\t\t\tmes;\\r\\n        uint256 tokens...\n              PUSH 4\t\t\tmes;\\r\\n        uint256 tokens...\n              DUP1 \t\t\tmes;\\r\\n        uint256 tokens...\n              CALLDATASIZE \t\t\tmes;\\r\\n        uint256 tokens...\n              SUB \t\t\tmes;\\r\\n        uint256 tokens...\n              DUP2 \t\t\tmes;\\r\\n        uint256 tokens...\n              ADD \t\t\tmes;\\r\\n        uint256 tokens...\n              SWAP1 \t\t\tmes;\\r\\n        uint256 tokens...\n              PUSH [tag] 77\t\t\tmes;\\r\\n        uint256 tokens...\n              SWAP2 \t\t\tmes;\\r\\n        uint256 tokens...\n              SWAP1 \t\t\tmes;\\r\\n        uint256 tokens...\n              PUSH [tag] 78\t\t\tmes;\\r\\n        uint256 tokens...\n              JUMP \t\t\tmes;\\r\\n        uint256 tokens...\n            tag 77\t\t\tmes;\\r\\n        uint256 tokens...\n              JUMPDEST \t\t\tmes;\\r\\n        uint256 tokens...\n              PUSH [tag] 79\t\t\tmes;\\r\\n        uint256 tokens...\n              JUMP \t\t\tmes;\\r\\n        uint256 tokens...\n            tag 76\t\t\tmes;\\r\\n        uint256 tokens...\n              JUMPDEST \t\t\tmes;\\r\\n        uint256 tokens...\n              STOP \t\t\tmes;\\r\\n        uint256 tokens...\n            tag 17\t\t\t\n              JUMPDEST \t\t\t\n              PUSH [tag] 80\t\t\t\n              PUSH 4\t\t\t\n              DUP1 \t\t\t\n              CALLDATASIZE \t\t\t\n              SUB \t\t\t\n              DUP2 \t\t\t\n              ADD \t\t\t\n              SWAP1 \t\t\t\n              PUSH [tag] 81\t\t\t\n              SWAP2 \t\t\t\n              SWAP1 \t\t\t\n              PUSH [tag] 82\t\t\t\n              JUMP \t\t\t\n            tag 81\t\t\t\n              JUMPDEST \t\t\t\n              PUSH [tag] 83\t\t\t\n              JUMP \t\t\t\n            tag 80\t\t\t\n              JUMPDEST \t\t\t\n              PUSH 40\t\t\t\n              MLOAD \t\t\t\n              PUSH [tag] 84\t\t\t\n              SWAP2 \t\t\t\n              SWAP1 \t\t\t\n              PUSH [tag] 26\t\t\t\n              JUMP \t\t\t\n            tag 84\t\t\t\n              JUMPDEST \t\t\t\n              PUSH 40\t\t\t\n              MLOAD \t\t\t\n              DUP1 \t\t\t\n              SWAP2 \t\t\t\n              SUB \t\t\t\n              SWAP1 \t\t\t\n              RETURN \t\t\t\n            tag 24\t\t\tder == admin, \"Nope!\");\\r\\n\\r\\...\n              JUMPDEST \t\t\tder == admin, \"Nope!\");\\r\\n\\r\\...\n              PUSH 0\t\t\treeC\n              PUSH [tag] 86\t\t\trent();\\r\\n        TreeCollect...\n              DUP3 \t\t\tlection new\n              PUSH [tag] 87\t\t\trent();\\r\\n        TreeCo\n              JUMP \t\t\trent();\\r\\n        TreeCollect...\n            tag 86\t\t\trent();\\r\\n        TreeCollect...\n              JUMPDEST \t\t\trent();\\r\\n        TreeCollect...\n              SWAP1 \t\t\tter.current();\\r\\n        Tree...\n              POP \t\t\tter.current();\\r\\n        Tree...\n              SWAP2 \t\t\tder == admin, \"Nope!\");\\r\\n\\r\\...\n              SWAP1 \t\t\tder == admin, \"Nope!\");\\r\\n\\r\\...\n              POP \t\t\tder == admin, \"Nope!\");\\r\\n\\r\\...\n              JUMP \t\t\tder == admin, \"Nope!\");\\r\\n\\r\\...\n            tag 28\t\t\td\"); \\r\\n\\r\\n        userTree[...\n              JUMPDEST \t\t\td\"); \\r\\n\\r\\n        userTree[...\n              PUSH 60\t\t\ttokenID].last\n              PUSH 0\t\t\testam\n              DUP1 \t\t\tock.timestam\n              SLOAD \t\t\tock.timestam\n              PUSH [tag] 89\t\t\tock.timestam\n              SWAP1 \t\t\tock.timestam\n              PUSH [tag] 90\t\t\tock.timestam\n              JUMP \t\t\tock.timestam\n            tag 89\t\t\tock.timestam\n              JUMPDEST \t\t\tock.timestam\n              DUP1 \t\t\tock.timestam\n              PUSH 1F\t\t\tock.timestam\n              ADD \t\t\tock.timestam\n              PUSH 20\t\t\tock.timestam\n              DUP1 \t\t\tock.timestam\n              SWAP2 \t\t\tock.timestam\n              DIV \t\t\tock.timestam\n              MUL \t\t\tock.timestam\n              PUSH 20\t\t\tock.timestam\n              ADD \t\t\tock.timestam\n              PUSH 40\t\t\tock.timestam\n              MLOAD \t\t\tock.timestam\n              SWAP1 \t\t\tock.timestam\n              DUP2 \t\t\tock.timestam\n              ADD \t\t\tock.timestam\n              PUSH 40\t\t\tock.timestam\n              MSTORE \t\t\tock.timestam\n              DUP1 \t\t\tock.timestam\n              SWAP3 \t\t\tock.timestam\n              SWAP2 \t\t\tock.timestam\n              SWAP1 \t\t\tock.timestam\n              DUP2 \t\t\tock.timestam\n              DUP2 \t\t\tock.timestam\n              MSTORE \t\t\tock.timestam\n              PUSH 20\t\t\tock.timestam\n              ADD \t\t\tock.timestam\n              DUP3 \t\t\tock.timestam\n              DUP1 \t\t\tock.timestam\n              SLOAD \t\t\tock.timestam\n              PUSH [tag] 91\t\t\tock.timestam\n              SWAP1 \t\t\tock.timestam\n              PUSH [tag] 90\t\t\tock.timestam\n              JUMP \t\t\tock.timestam\n            tag 91\t\t\tock.timestam\n              JUMPDEST \t\t\tock.timestam\n              DUP1 \t\t\tock.timestam\n              ISZERO \t\t\tock.timestam\n              PUSH [tag] 92\t\t\tock.timestam\n              JUMPI \t\t\tock.timestam\n              DUP1 \t\t\tock.timestam\n              PUSH 1F\t\t\tock.timestam\n              LT \t\t\tock.timestam\n              PUSH [tag] 93\t\t\tock.timestam\n              JUMPI \t\t\tock.timestam\n              PUSH 100\t\t\tock.timestam\n              DUP1 \t\t\tock.timestam\n              DUP4 \t\t\tock.timestam\n              SLOAD \t\t\tock.timestam\n              DIV \t\t\tock.timestam\n              MUL \t\t\tock.timestam\n              DUP4 \t\t\tock.timestam\n              MSTORE \t\t\tock.timestam\n              SWAP2 \t\t\tock.timestam\n              PUSH 20\t\t\tock.timestam\n              ADD \t\t\tock.timestam\n              SWAP2 \t\t\tock.timestam\n              PUSH [tag] 92\t\t\tock.timestam\n              JUMP \t\t\tock.timestam\n            tag 93\t\t\tock.timestam\n              JUMPDEST \t\t\tock.timestam\n              DUP3 \t\t\tock.timestam\n              ADD \t\t\tock.timestam\n              SWAP2 \t\t\tock.timestam\n              SWAP1 \t\t\tock.timestam\n              PUSH 0\t\t\tock.timestam\n              MSTORE \t\t\tock.timestam\n              PUSH 20\t\t\tock.timestam\n              PUSH 0\t\t\tock.timestam\n              KECCAK256 \t\t\tock.timestam\n              SWAP1 \t\t\tock.timestam\n            tag 94\t\t\tock.timestam\n              JUMPDEST \t\t\tock.timestam\n              DUP2 \t\t\tock.timestam\n              SLOAD \t\t\tock.timestam\n              DUP2 \t\t\tock.timestam\n              MSTORE \t\t\tock.timestam\n              SWAP1 \t\t\tock.timestam\n              PUSH 1\t\t\tock.timestam\n              ADD \t\t\tock.timestam\n              SWAP1 \t\t\tock.timestam\n              PUSH 20\t\t\tock.timestam\n              ADD \t\t\tock.timestam\n              DUP1 \t\t\tock.timestam\n              DUP4 \t\t\tock.timestam\n              GT \t\t\tock.timestam\n              PUSH [tag] 94\t\t\tock.timestam\n              JUMPI \t\t\tock.timestam\n              DUP3 \t\t\tock.timestam\n              SWAP1 \t\t\tock.timestam\n              SUB \t\t\tock.timestam\n              PUSH 1F\t\t\tock.timestam\n              AND \t\t\tock.timestam\n              DUP3 \t\t\tock.timestam\n              ADD \t\t\tock.timestam\n              SWAP2 \t\t\tock.timestam\n            tag 92\t\t\tock.timestam\n              JUMPDEST \t\t\tock.timestam\n              POP \t\t\tock.timestam\n              POP \t\t\tock.timestam\n              POP \t\t\tock.timestam\n              POP \t\t\tock.timestam\n              POP \t\t\tock.timestam\n              SWAP1 \t\t\tock.timestam\n              POP \t\t\tock.timestam\n              SWAP1 \t\t\td\"); \\r\\n\\r\\n        userTree[...\n              JUMP \t\t\td\"); \\r\\n\\r\\n        userTree[...\n            tag 34\t\t\tview returns (uint256) {\\r\\n  ...\n              JUMPDEST \t\t\tview returns (uint256) {\\r\\n  ...\n              PUSH 0\t\t\t  // to\n              PUSH [tag] 96\t\t\tlar collection ID using\n              DUP3 \t\t\tID usin\n              PUSH [tag] 97\t\t\tlar collection\n              JUMP \t\t\tlar collection ID using\n            tag 96\t\t\tlar collection ID using\n              JUMPDEST \t\t\tlar collection ID using\n              PUSH 4\t\t\t }\\r\\n}\n              PUSH 0\t\t\t }\\r\\n}\n              DUP4 \t\t\t\n              DUP2 \t\t\t }\\r\\n}\n              MSTORE \t\t\t }\\r\\n}\n              PUSH 20\t\t\t }\\r\\n}\n              ADD \t\t\t }\\r\\n}\n              SWAP1 \t\t\t }\\r\\n}\n              DUP2 \t\t\t }\\r\\n}\n              MSTORE \t\t\t }\\r\\n}\n              PUSH 20\t\t\t }\\r\\n}\n              ADD \t\t\t }\\r\\n}\n              PUSH 0\t\t\t }\\r\\n}\n              KECCAK256 \t\t\t }\\r\\n}\n              PUSH 0\t\t\t }\\r\\n}\n              SWAP1 \t\t\t }\\r\\n}\n              SLOAD \t\t\t }\\r\\n}\n              SWAP1 \t\t\t }\\r\\n}\n              PUSH 100\t\t\t }\\r\\n}\n              EXP \t\t\t }\\r\\n}\n              SWAP1 \t\t\t }\\r\\n}\n              DIV \t\t\t }\\r\\n}\n              PUSH FFFFFFFFFFFFFFFFFFFFFFFFFFFFFFFFFFFFFFFF\t\t\t }\\r\\n}\n              AND \t\t\t }\\r\\n}\n              SWAP1 \t\t\tce\\r\\n    }\\r\\n}\n              POP \t\t\tce\\r\\n    }\\r\\n}\n              SWAP2 \t\t\tview returns (uint256) {\\r\\n  ...\n              SWAP1 \t\t\tview returns (uint256) {\\r\\n  ...\n              POP \t\t\tview returns (uint256) {\\r\\n  ...\n              JUMP \t\t\tview returns (uint256) {\\r\\n  ...\n            tag 40\t\t\tint256 tokenId) public view re...\n              JUMPDEST \t\t\tint256 tokenId) public view re...\n              PUSH 0\t\t\tee[collection\n              PUSH [tag] 99\t\t\t.treeDetails[tokenId];\\r\n              DUP3 \t\t\tkenId];\n              PUSH [tag] 50\t\t\t.treeDetails[t\n              JUMP \t\t\t.treeDetails[tokenId];\\r\n            tag 99\t\t\t.treeDetails[tokenId];\\r\n              JUMPDEST \t\t\t.treeDetails[tokenId];\\r\n              SWAP1 \t\t\tee[collectionId].treeDetails[t...\n              POP \t\t\tee[collectionId].treeDetails[t...\n              DUP1 \t\t\tls re\n              PUSH FFFFFFFFFFFFFFFFFFFFFFFFFFFFFFFFFFFFFFFF\t\t\t details re\n              AND \t\t\t details re\n              DUP4 \t\t\t d\n              PUSH FFFFFFFFFFFFFFFFFFFFFFFFFFFFFFFFFFFFFFFF\t\t\t details re\n              AND \t\t\t details re\n              SUB \t\t\t details re\n              PUSH [tag] 100\t\t\t/returns details related to a ...\n              JUMPI \t\t\t/returns details related to a ...\n              PUSH 40\t\t\t/returns details related to a ...\n              MLOAD \t\t\t/returns details related to a ...\n              PUSH 8C379A000000000000000000000000000000000000000000000000000000000\t\t\t/returns details related to a ...\n              DUP2 \t\t\t/returns details related to a ...\n              MSTORE \t\t\t/returns details related to a ...\n              PUSH 4\t\t\t/returns details related to a ...\n              ADD \t\t\t/returns details related to a ...\n              PUSH [tag] 101\t\t\t/returns details related to a ...\n              SWAP1 \t\t\t/returns details related to a ...\n              PUSH [tag] 102\t\t\t/returns details related to a ...\n              JUMP \t\t\t/returns details related to a ...\n            tag 101\t\t\t/returns details related to a ...\n              JUMPDEST \t\t\t/returns details related to a ...\n              PUSH 40\t\t\t/returns details related to a ...\n              MLOAD \t\t\t/returns details related to a ...\n              DUP1 \t\t\t/returns details related to a ...\n              SWAP2 \t\t\t/returns details related to a ...\n              SUB \t\t\t/returns details related to a ...\n              SWAP1 \t\t\t/returns details related to a ...\n              REVERT \t\t\t/returns details related to a ...\n            tag 100\t\t\t/returns details related to a ...\n              JUMPDEST \t\t\t/returns details related to a ...\n              DUP1 \t\t\tnID) \n              PUSH FFFFFFFFFFFFFFFFFFFFFFFFFFFFFFFFFFFFFFFF\t\t\tint256 collectionID) \n              AND \t\t\tint256 collectionID) \n              PUSH [tag] 103\t\t\tint256 colle\n              PUSH [tag] 104\t\t\tint256 col\n              JUMP \t\t\tint256 colle\n            tag 103\t\t\tint256 colle\n              JUMPDEST \t\t\tint256 colle\n              PUSH FFFFFFFFFFFFFFFFFFFFFFFFFFFFFFFFFFFFFFFF\t\t\tint256 collectionID) \n              AND \t\t\tint256 collectionID) \n              EQ \t\t\tint256 collectionID) \n              DUP1 \t\t\tint256 collectionID) public vi...\n              PUSH [tag] 105\t\t\tint256 collectionID) public vi...\n              JUMPI \t\t\tint256 collectionID) public vi...\n              POP \t\t\tint256 collectionID) public vi...\n              PUSH [tag] 106\t\t\tic view returns(uint256) {\\r\\n...\n              DUP2 \t\t\tint25\n              PUSH [tag] 107\t\t\t {\\r\\n        \n              PUSH [tag] 104\t\t\t {\\r\\n      \n              JUMP \t\t\t {\\r\\n        \n            tag 107\t\t\t {\\r\\n        \n              JUMPDEST \t\t\t {\\r\\n        \n              PUSH [tag] 83\t\t\tic view returns(\n              JUMP \t\t\tic view returns(uint256) {\\r\\n...\n            tag 106\t\t\tic view returns(uint256) {\\r\\n...\n              JUMPDEST \t\t\tic view returns(uint256) {\\r\\n...\n            tag 105\t\t\tint256 collectionID) public vi...\n              JUMPDEST \t\t\tint256 collectionID) public vi...\n              PUSH [tag] 108\t\t\ttion returnNFTcount(uint256 co...\n              JUMPI \t\t\ttion returnNFTcount(uint256 co...\n              PUSH 40\t\t\ttion returnNFTcount(uint256 co...\n              MLOAD \t\t\ttion returnNFTcount(uint256 co...\n              PUSH 8C379A000000000000000000000000000000000000000000000000000000000\t\t\ttion returnNFTcount(uint256 co...\n              DUP2 \t\t\ttion returnNFTcount(uint256 co...\n              MSTORE \t\t\ttion returnNFTcount(uint256 co...\n              PUSH 4\t\t\ttion returnNFTcount(uint256 co...\n              ADD \t\t\ttion returnNFTcount(uint256 co...\n              PUSH [tag] 109\t\t\ttion returnNFTcount(uint256 co...\n              SWAP1 \t\t\ttion returnNFTcount(uint256 co...\n              PUSH [tag] 110\t\t\ttion returnNFTcount(uint256 co...\n              JUMP \t\t\ttion returnNFTcount(uint256 co...\n            tag 109\t\t\ttion returnNFTcount(uint256 co...\n              JUMPDEST \t\t\ttion returnNFTcount(uint256 co...\n              PUSH 40\t\t\ttion returnNFTcount(uint256 co...\n              MLOAD \t\t\ttion returnNFTcount(uint256 co...\n              DUP1 \t\t\ttion returnNFTcount(uint256 co...\n              SWAP2 \t\t\ttion returnNFTcount(uint256 co...\n              SUB \t\t\ttion returnNFTcount(uint256 co...\n              SWAP1 \t\t\ttion returnNFTcount(uint256 co...\n              REVERT \t\t\ttion returnNFTcount(uint256 co...\n            tag 108\t\t\ttion returnNFTcount(uint256 co...\n              JUMPDEST \t\t\ttion returnNFTcount(uint256 co...\n              PUSH [tag] 111\t\t\tular collection\\r\\n    \n              DUP4 \t\t\tec\n              DUP4 \t\t\ton\\r\\n   \n              PUSH [tag] 112\t\t\tular col\n              JUMP \t\t\tular collection\\r\\n    \n            tag 111\t\t\tular collection\\r\\n    \n              JUMPDEST \t\t\tular collection\\r\\n    \n              POP \t\t\turn userTree[collectionId].tre...\n              POP \t\t\tint256 tokenId) public view re...\n              POP \t\t\tint256 tokenId) public view re...\n              JUMP \t\t\tint256 tokenId) public view re...\n            tag 44\t\t\t\n              JUMPDEST \t\t\t\n              PUSH [tag] 114\t\t\t\n              PUSH [tag] 115\t\t\t\n              PUSH [tag] 104\t\t\t\n              JUMP \t\t\t\n            tag 115\t\t\t\n              JUMPDEST \t\t\t\n              DUP3 \t\t\t\n              PUSH [tag] 116\t\t\t\n              JUMP \t\t\t\n            tag 114\t\t\t\n              JUMPDEST \t\t\t\n              PUSH [tag] 117\t\t\t\n              JUMPI \t\t\t\n              PUSH 40\t\t\t\n              MLOAD \t\t\t\n              PUSH 8C379A000000000000000000000000000000000000000000000000000000000\t\t\t\n              DUP2 \t\t\t\n              MSTORE \t\t\t\n              PUSH 4\t\t\t\n              ADD \t\t\t\n              PUSH [tag] 118\t\t\t\n              SWAP1 \t\t\t\n              PUSH [tag] 119\t\t\t\n              JUMP \t\t\t\n            tag 118\t\t\t\n              JUMPDEST \t\t\t\n              PUSH 40\t\t\t\n              MLOAD \t\t\t\n              DUP1 \t\t\t\n              SWAP2 \t\t\t\n              SUB \t\t\t\n              SWAP1 \t\t\t\n              REVERT \t\t\t\n            tag 117\t\t\t\n              JUMPDEST \t\t\t\n              PUSH [tag] 120\t\t\t\n              DUP4 \t\t\t\n              DUP4 \t\t\t\n              DUP4 \t\t\t\n              PUSH [tag] 121\t\t\t\n              JUMP \t\t\t\n            tag 120\t\t\t\n              JUMPDEST \t\t\t\n              POP \t\t\t\n              POP \t\t\t\n              POP \t\t\t\n              JUMP \t\t\t\n            tag 47\t\t\t\n              JUMPDEST \t\t\t\n              PUSH [tag] 123\t\t\t\n              DUP4 \t\t\t\n              DUP4 \t\t\t\n              DUP4 \t\t\t\n              PUSH 40\t\t\t\n              MLOAD \t\t\t\n              DUP1 \t\t\t\n              PUSH 20\t\t\t\n              ADD \t\t\t\n              PUSH 40\t\t\t\n              MSTORE \t\t\t\n              DUP1 \t\t\t\n              PUSH 0\t\t\t\n              DUP2 \t\t\t\n              MSTORE \t\t\t\n              POP \t\t\t\n              PUSH [tag] 71\t\t\t\n              JUMP \t\t\t\n            tag 123\t\t\t\n              JUMPDEST \t\t\t\n              POP \t\t\t\n              POP \t\t\t\n              POP \t\t\t\n              JUMP \t\t\t\n            tag 50\t\t\tTreeCollection treecollection ...\n              JUMPDEST \t\t\tTreeCollection treecollection ...\n              PUSH 0\t\t\tonID]);\n              DUP1 \t\t\trequire(treec\n              PUSH [tag] 125\t\t\tection.ownerOf(_t\n              DUP4 \t\t\tnerOf(_\n              PUSH [tag] 126\t\t\tection.o\n              JUMP \t\t\tection.ownerOf(_t\n            tag 125\t\t\tection.ownerOf(_t\n              JUMPDEST \t\t\tection.ownerOf(_t\n              SWAP1 \t\t\trequire(treecollection.ownerOf...\n              POP \t\t\trequire(treecollection.ownerOf...\n              PUSH 0\t\t\t \n              PUSH FFFFFFFFFFFFFFFFFFFFFFFFFFFFFFFFFFFFFFFF\t\t\tder, \"You are not t\n              AND \t\t\tder, \"You are not t\n              DUP2 \t\t\tder, \n              PUSH FFFFFFFFFFFFFFFFFFFFFFFFFFFFFFFFFFFFFFFF\t\t\tder, \"You are not t\n              AND \t\t\tder, \"You are not t\n              SUB \t\t\tder, \"You are not t\n              PUSH [tag] 127\t\t\t msg.sender, \"You are not the ...\n              JUMPI \t\t\t msg.sender, \"You are not the ...\n              PUSH 40\t\t\t msg.sender, \"You are not the ...\n              MLOAD \t\t\t msg.sender, \"You are not the ...\n              PUSH 8C379A000000000000000000000000000000000000000000000000000000000\t\t\t msg.sender, \"You are not the ...\n              DUP2 \t\t\t msg.sender, \"You are not the ...\n              MSTORE \t\t\t msg.sender, \"You are not the ...\n              PUSH 4\t\t\t msg.sender, \"You are not the ...\n              ADD \t\t\t msg.sender, \"You are not the ...\n              PUSH [tag] 128\t\t\t msg.sender, \"You are not the ...\n              SWAP1 \t\t\t msg.sender, \"You are not the ...\n              PUSH [tag] 129\t\t\t msg.sender, \"You are not the ...\n              JUMP \t\t\t msg.sender, \"You are not the ...\n            tag 128\t\t\t msg.sender, \"You are not the ...\n              JUMPDEST \t\t\t msg.sender, \"You are not the ...\n              PUSH 40\t\t\t msg.sender, \"You are not the ...\n              MLOAD \t\t\t msg.sender, \"You are not the ...\n              DUP1 \t\t\t msg.sender, \"You are not the ...\n              SWAP2 \t\t\t msg.sender, \"You are not the ...\n              SUB \t\t\t msg.sender, \"You are not the ...\n              SWAP1 \t\t\t msg.sender, \"You are not the ...\n              REVERT \t\t\t msg.sender, \"You are not the ...\n            tag 127\t\t\t msg.sender, \"You are not the ...\n              JUMPDEST \t\t\t msg.sender, \"You are not the ...\n              DUP1 \t\t\tFrom(\n              SWAP2 \t\t\transferFrom(\n              POP \t\t\transferFrom(\n              POP \t\t\transferFrom(\n              SWAP2 \t\t\tTreeCollection treecollection ...\n              SWAP1 \t\t\tTreeCollection treecollection ...\n              POP \t\t\tTreeCollection treecollection ...\n              JUMP \t\t\tTreeCollection treecollection ...\n            tag 55\t\t\t.sender, _uri); \\r\\n        ui...\n              JUMPDEST \t\t\t.sender, _uri); \\r\\n        ui...\n              PUSH 0\t\t\tr();\\r\\n \n              DUP1 \t\t\ta\n              PUSH FFFFFFFFFFFFFFFFFFFFFFFFFFFFFFFFFFFFFFFF\t\t\tectionID].treeDetai\n              AND \t\t\tectionID].treeDetai\n              DUP3 \t\t\tectio\n              PUSH FFFFFFFFFFFFFFFFFFFFFFFFFFFFFFFFFFFFFFFF\t\t\tectionID].treeDetai\n              AND \t\t\tectionID].treeDetai\n              SUB \t\t\tectionID].treeDetai\n              PUSH [tag] 131\t\t\tree[collectionID].treeDetails[...\n              JUMPI \t\t\tree[collectionID].treeDetails[...\n              PUSH 40\t\t\tree[collectionID].treeDetails[...\n              MLOAD \t\t\tree[collectionID].treeDetails[...\n              PUSH 8C379A000000000000000000000000000000000000000000000000000000000\t\t\tree[collectionID].treeDetails[...\n              DUP2 \t\t\tree[collectionID].treeDetails[...\n              MSTORE \t\t\tree[collectionID].treeDetails[...\n              PUSH 4\t\t\tree[collectionID].treeDetails[...\n              ADD \t\t\tree[collectionID].treeDetails[...\n              PUSH [tag] 132\t\t\tree[collectionID].treeDetails[...\n              SWAP1 \t\t\tree[collectionID].treeDetails[...\n              PUSH [tag] 133\t\t\tree[collectionID].treeDetails[...\n              JUMP \t\t\tree[collectionID].treeDetails[...\n            tag 132\t\t\tree[collectionID].treeDetails[...\n              JUMPDEST \t\t\tree[collectionID].treeDetails[...\n              PUSH 40\t\t\tree[collectionID].treeDetails[...\n              MLOAD \t\t\tree[collectionID].treeDetails[...\n              DUP1 \t\t\tree[collectionID].treeDetails[...\n              SWAP2 \t\t\tree[collectionID].treeDetails[...\n              SUB \t\t\tree[collectionID].treeDetails[...\n              SWAP1 \t\t\tree[collectionID].treeDetails[...\n              REVERT \t\t\tree[collectionID].treeDetails[...\n            tag 131\t\t\tree[collectionID].treeDetails[...\n              JUMPDEST \t\t\tree[collectionID].treeDetails[...\n              PUSH 3\t\t\tater(uint\n              PUSH 0\t\t\tater(uint256 _co\n              DUP4 \t\t\t56 _c\n              PUSH FFFFFFFFFFFFFFFFFFFFFFFFFFFFFFFFFFFFFFFF\t\t\tater(uint256 _co\n              AND \t\t\tater(uint256 _co\n              PUSH FFFFFFFFFFFFFFFFFFFFFFFFFFFFFFFFFFFFFFFF\t\t\tater(uint256 _co\n              AND \t\t\tater(uint256 _co\n              DUP2 \t\t\tater(uint256 _co\n              MSTORE \t\t\tater(uint256 _co\n              PUSH 20\t\t\tater(uint256 _co\n              ADD \t\t\tater(uint256 _co\n              SWAP1 \t\t\tater(uint256 _co\n              DUP2 \t\t\tater(uint256 _co\n              MSTORE \t\t\tater(uint256 _co\n              PUSH 20\t\t\tater(uint256 _co\n              ADD \t\t\tater(uint256 _co\n              PUSH 0\t\t\tater(uint256 _co\n              KECCAK256 \t\t\tater(uint256 _co\n              SLOAD \t\t\tater(uint256 _co\n              SWAP1 \t\t\tction water(uint256 _co\n              POP \t\t\tction water(uint256 _co\n              SWAP2 \t\t\t.sender, _uri); \\r\\n        ui...\n              SWAP1 \t\t\t.sender, _uri); \\r\\n        ui...\n              POP \t\t\t.sender, _uri); \\r\\n        ui...\n              JUMP \t\t\t.sender, _uri); \\r\\n        ui...\n            tag 59\t\t\t+= 1;\\r\\n\\r\\n        return tr...\n              JUMPDEST \t\t\t+= 1;\\r\\n\\r\\n        return tr...\n              PUSH 60\t\t\tim(uint256 _c\n              PUSH 1\t\t\t6 _toke\n              DUP1 \t\t\t uint256 _toke\n              SLOAD \t\t\t uint256 _toke\n              PUSH [tag] 135\t\t\t uint256 _toke\n              SWAP1 \t\t\t uint256 _toke\n              PUSH [tag] 90\t\t\t uint256 _toke\n              JUMP \t\t\t uint256 _toke\n            tag 135\t\t\t uint256 _toke\n              JUMPDEST \t\t\t uint256 _toke\n              DUP1 \t\t\t uint256 _toke\n              PUSH 1F\t\t\t uint256 _toke\n              ADD \t\t\t uint256 _toke\n              PUSH 20\t\t\t uint256 _toke\n              DUP1 \t\t\t uint256 _toke\n              SWAP2 \t\t\t uint256 _toke\n              DIV \t\t\t uint256 _toke\n              MUL \t\t\t uint256 _toke\n              PUSH 20\t\t\t uint256 _toke\n              ADD \t\t\t uint256 _toke\n              PUSH 40\t\t\t uint256 _toke\n              MLOAD \t\t\t uint256 _toke\n              SWAP1 \t\t\t uint256 _toke\n              DUP2 \t\t\t uint256 _toke\n              ADD \t\t\t uint256 _toke\n              PUSH 40\t\t\t uint256 _toke\n              MSTORE \t\t\t uint256 _toke\n              DUP1 \t\t\t uint256 _toke\n              SWAP3 \t\t\t uint256 _toke\n              SWAP2 \t\t\t uint256 _toke\n              SWAP1 \t\t\t uint256 _toke\n              DUP2 \t\t\t uint256 _toke\n              DUP2 \t\t\t uint256 _toke\n              MSTORE \t\t\t uint256 _toke\n              PUSH 20\t\t\t uint256 _toke\n              ADD \t\t\t uint256 _toke\n              DUP3 \t\t\t uint256 _toke\n              DUP1 \t\t\t uint256 _toke\n              SLOAD \t\t\t uint256 _toke\n              PUSH [tag] 136\t\t\t uint256 _toke\n              SWAP1 \t\t\t uint256 _toke\n              PUSH [tag] 90\t\t\t uint256 _toke\n              JUMP \t\t\t uint256 _toke\n            tag 136\t\t\t uint256 _toke\n              JUMPDEST \t\t\t uint256 _toke\n              DUP1 \t\t\t uint256 _toke\n              ISZERO \t\t\t uint256 _toke\n              PUSH [tag] 137\t\t\t uint256 _toke\n              JUMPI \t\t\t uint256 _toke\n              DUP1 \t\t\t uint256 _toke\n              PUSH 1F\t\t\t uint256 _toke\n              LT \t\t\t uint256 _toke\n              PUSH [tag] 138\t\t\t uint256 _toke\n              JUMPI \t\t\t uint256 _toke\n              PUSH 100\t\t\t uint256 _toke\n              DUP1 \t\t\t uint256 _toke\n              DUP4 \t\t\t uint256 _toke\n              SLOAD \t\t\t uint256 _toke\n              DIV \t\t\t uint256 _toke\n              MUL \t\t\t uint256 _toke\n              DUP4 \t\t\t uint256 _toke\n              MSTORE \t\t\t uint256 _toke\n              SWAP2 \t\t\t uint256 _toke\n              PUSH 20\t\t\t uint256 _toke\n              ADD \t\t\t uint256 _toke\n              SWAP2 \t\t\t uint256 _toke\n              PUSH [tag] 137\t\t\t uint256 _toke\n              JUMP \t\t\t uint256 _toke\n            tag 138\t\t\t uint256 _toke\n              JUMPDEST \t\t\t uint256 _toke\n              DUP3 \t\t\t uint256 _toke\n              ADD \t\t\t uint256 _toke\n              SWAP2 \t\t\t uint256 _toke\n              SWAP1 \t\t\t uint256 _toke\n              PUSH 0\t\t\t uint256 _toke\n              MSTORE \t\t\t uint256 _toke\n              PUSH 20\t\t\t uint256 _toke\n              PUSH 0\t\t\t uint256 _toke\n              KECCAK256 \t\t\t uint256 _toke\n              SWAP1 \t\t\t uint256 _toke\n            tag 139\t\t\t uint256 _toke\n              JUMPDEST \t\t\t uint256 _toke\n              DUP2 \t\t\t uint256 _toke\n              SLOAD \t\t\t uint256 _toke\n              DUP2 \t\t\t uint256 _toke\n              MSTORE \t\t\t uint256 _toke\n              SWAP1 \t\t\t uint256 _toke\n              PUSH 1\t\t\t uint256 _toke\n              ADD \t\t\t uint256 _toke\n              SWAP1 \t\t\t uint256 _toke\n              PUSH 20\t\t\t uint256 _toke\n              ADD \t\t\t uint256 _toke\n              DUP1 \t\t\t uint256 _toke\n              DUP4 \t\t\t uint256 _toke\n              GT \t\t\t uint256 _toke\n              PUSH [tag] 139\t\t\t uint256 _toke\n              JUMPI \t\t\t uint256 _toke\n              DUP3 \t\t\t uint256 _toke\n              SWAP1 \t\t\t uint256 _toke\n              SUB \t\t\t uint256 _toke\n              PUSH 1F\t\t\t uint256 _toke\n              AND \t\t\t uint256 _toke\n              DUP3 \t\t\t uint256 _toke\n              ADD \t\t\t uint256 _toke\n              SWAP2 \t\t\t uint256 _toke\n            tag 137\t\t\t uint256 _toke\n              JUMPDEST \t\t\t uint256 _toke\n              POP \t\t\t uint256 _toke\n              POP \t\t\t uint256 _toke\n              POP \t\t\t uint256 _toke\n              POP \t\t\t uint256 _toke\n              POP \t\t\t uint256 _toke\n              SWAP1 \t\t\t uint256 _toke\n              POP \t\t\t uint256 _toke\n              SWAP1 \t\t\t+= 1;\\r\\n\\r\\n        return tr...\n              JUMP \t\t\t+= 1;\\r\\n\\r\\n        return tr...\n            tag 62\t\t\t6 amount) internal{\\r\\n       ...\n              JUMPDEST \t\t\t6 amount) internal{\\r\\n       ...\n              PUSH 7\t\t\t6 amount) internal{\\r\\n       ...\n              DUP1 \t\t\t6 amount) internal{\\r\\n       ...\n              PUSH 0\t\t\t6 amount) internal{\\r\\n       ...\n              ADD \t\t\t6 amount) internal{\\r\\n       ...\n              SLOAD \t\t\t6 amount) internal{\\r\\n       ...\n              SWAP1 \t\t\t6 amount) internal{\\r\\n       ...\n              POP \t\t\t6 amount) internal{\\r\\n       ...\n              DUP2 \t\t\t6 amount) internal{\\r\\n       ...\n              JUMP \t\t\t6 amount) internal{\\r\\n       ...\n            tag 67\t\t\t\n              JUMPDEST \t\t\t\n              PUSH [tag] 141\t\t\t\n              PUSH [tag] 142\t\t\t\n              PUSH [tag] 104\t\t\t\n              JUMP \t\t\t\n            tag 142\t\t\t\n              JUMPDEST \t\t\t\n              DUP4 \t\t\t\n              DUP4 \t\t\t\n              PUSH [tag] 143\t\t\t\n              JUMP \t\t\t\n            tag 141\t\t\t\n              JUMPDEST \t\t\t\n              POP \t\t\t\n              POP \t\t\t\n              JUMP \t\t\t\n            tag 71\t\t\t\n              JUMPDEST \t\t\t\n              PUSH [tag] 145\t\t\t\n              PUSH [tag] 146\t\t\t\n              PUSH [tag] 104\t\t\t\n              JUMP \t\t\t\n            tag 146\t\t\t\n              JUMPDEST \t\t\t\n              DUP4 \t\t\t\n              PUSH [tag] 116\t\t\t\n              JUMP \t\t\t\n            tag 145\t\t\t\n              JUMPDEST \t\t\t\n              PUSH [tag] 147\t\t\t\n              JUMPI \t\t\t\n              PUSH 40\t\t\t\n              MLOAD \t\t\t\n              PUSH 8C379A000000000000000000000000000000000000000000000000000000000\t\t\t\n              DUP2 \t\t\t\n              MSTORE \t\t\t\n              PUSH 4\t\t\t\n              ADD \t\t\t\n              PUSH [tag] 148\t\t\t\n              SWAP1 \t\t\t\n              PUSH [tag] 119\t\t\t\n              JUMP \t\t\t\n            tag 148\t\t\t\n              JUMPDEST \t\t\t\n              PUSH 40\t\t\t\n              MLOAD \t\t\t\n              DUP1 \t\t\t\n              SWAP2 \t\t\t\n              SUB \t\t\t\n              SWAP1 \t\t\t\n              REVERT \t\t\t\n            tag 147\t\t\t\n              JUMPDEST \t\t\t\n              PUSH [tag] 149\t\t\t\n              DUP5 \t\t\t\n              DUP5 \t\t\t\n              DUP5 \t\t\t\n              DUP5 \t\t\t\n              PUSH [tag] 150\t\t\t\n              JUMP \t\t\t\n            tag 149\t\t\t\n              JUMPDEST \t\t\t\n              POP \t\t\t\n              POP \t\t\t\n              POP \t\t\t\n              POP \t\t\t\n              JUMP \t\t\t\n            tag 74\t\t\trTree; // mapping of a Tree wi...\n              JUMPDEST \t\t\trTree; // mapping of a Tree wi...\n              PUSH 60\t\t\tg memory name\n              PUSH [tag] 152\t\t\tol) public {\\r\\n\\r\\n       \n              DUP3 \t\t\t\\n      \n              PUSH [tag] 153\t\t\tol) public {\\r\\n\n              JUMP \t\t\tol) public {\\r\\n\\r\\n       \n            tag 152\t\t\tol) public {\\r\\n\\r\\n       \n              JUMPDEST \t\t\tol) public {\\r\\n\\r\\n       \n              SWAP1 \t\t\try symbol) public {\\r\\n\\r\\n   ...\n              POP \t\t\try symbol) public {\\r\\n\\r\\n   ...\n              SWAP2 \t\t\trTree; // mapping of a Tree wi...\n              SWAP1 \t\t\trTree; // mapping of a Tree wi...\n              POP \t\t\trTree; // mapping of a Tree wi...\n              JUMP \t\t\trTree; // mapping of a Tree wi...\n            tag 79\t\t\tmes;\\r\\n        uint256 tokens...\n              JUMPDEST \t\t\tmes;\\r\\n        uint256 tokens...\n              PUSHIMMUTABLE 4041\t\t\t     a\n              PUSH FFFFFFFFFFFFFFFFFFFFFFFFFFFFFFFFFFFFFFFF\t\t\t, \"GNE\"){\\r\\n        a\n              AND \t\t\t, \"GNE\"){\\r\\n        a\n              CALLER \t\t\t, \"GNE\"){\\r\n              PUSH FFFFFFFFFFFFFFFFFFFFFFFFFFFFFFFFFFFFFFFF\t\t\t, \"GNE\"){\\r\\n        a\n              AND \t\t\t, \"GNE\"){\\r\\n        a\n              EQ \t\t\t, \"GNE\"){\\r\\n        a\n              PUSH [tag] 155\t\t\tGenesis\", \"GNE\"){\\r\\n        a...\n              JUMPI \t\t\tGenesis\", \"GNE\"){\\r\\n        a...\n              PUSH 40\t\t\tGenesis\", \"GNE\"){\\r\\n        a...\n              MLOAD \t\t\tGenesis\", \"GNE\"){\\r\\n        a...\n              PUSH 8C379A000000000000000000000000000000000000000000000000000000000\t\t\tGenesis\", \"GNE\"){\\r\\n        a...\n              DUP2 \t\t\tGenesis\", \"GNE\"){\\r\\n        a...\n              MSTORE \t\t\tGenesis\", \"GNE\"){\\r\\n        a...\n              PUSH 4\t\t\tGenesis\", \"GNE\"){\\r\\n        a...\n              ADD \t\t\tGenesis\", \"GNE\"){\\r\\n        a...\n              PUSH [tag] 156\t\t\tGenesis\", \"GNE\"){\\r\\n        a...\n              SWAP1 \t\t\tGenesis\", \"GNE\"){\\r\\n        a...\n              PUSH [tag] 157\t\t\tGenesis\", \"GNE\"){\\r\\n        a...\n              JUMP \t\t\tGenesis\", \"GNE\"){\\r\\n        a...\n            tag 156\t\t\tGenesis\", \"GNE\"){\\r\\n        a...\n              JUMPDEST \t\t\tGenesis\", \"GNE\"){\\r\\n        a...\n              PUSH 40\t\t\tGenesis\", \"GNE\"){\\r\\n        a...\n              MLOAD \t\t\tGenesis\", \"GNE\"){\\r\\n        a...\n              DUP1 \t\t\tGenesis\", \"GNE\"){\\r\\n        a...\n              SWAP2 \t\t\tGenesis\", \"GNE\"){\\r\\n        a...\n              SUB \t\t\tGenesis\", \"GNE\"){\\r\\n        a...\n              SWAP1 \t\t\tGenesis\", \"GNE\"){\\r\\n        a...\n              REVERT \t\t\tGenesis\", \"GNE\"){\\r\\n        a...\n            tag 155\t\t\tGenesis\", \"GNE\"){\\r\\n        a...\n              JUMPDEST \t\t\tGenesis\", \"GNE\"){\\r\\n        a...\n              PUSH [tag] 159\t\t\t      mapping(uint256 => T\n              PUSH 7\t\t\t      mapping(\n              PUSH [tag] 160\t\t\t      mapping(uint256 =>\n              JUMP \t\t\t      mapping(uint256 => T\n            tag 159\t\t\t      mapping(uint256 => T\n              JUMPDEST \t\t\t      mapping(uint256 => T\n              PUSH 0\t\t\t treeDetails; /\n              PUSH [tag] 161\t\t\tapping to store user det\n              PUSH 7\t\t\tapping to stor\n              PUSH [tag] 162\t\t\tapping to store user d\n              JUMP \t\t\tapping to store user det\n            tag 161\t\t\tapping to store user det\n              JUMPDEST \t\t\tapping to store user det\n              SWAP1 \t\t\t treeDetails; // mapping to st...\n              POP \t\t\t treeDetails; // mapping to st...\n              PUSH 1E\t\t\t\\r\\n\n              DUP2 \t\t\tID\\r\\n   \n              GT \t\t\tID\\r\\n    }\\r\\n\\r\\n\n              ISZERO \t\t\tID\\r\\n    }\\r\\n\\r\\n\n              PUSH [tag] 163\t\t\tts tokenID\\r\\n    }\\r\\n\\r\\n   ...\n              JUMPI \t\t\tts tokenID\\r\\n    }\\r\\n\\r\\n   ...\n              PUSH 40\t\t\tts tokenID\\r\\n    }\\r\\n\\r\\n   ...\n              MLOAD \t\t\tts tokenID\\r\\n    }\\r\\n\\r\\n   ...\n              PUSH 8C379A000000000000000000000000000000000000000000000000000000000\t\t\tts tokenID\\r\\n    }\\r\\n\\r\\n   ...\n              DUP2 \t\t\tts tokenID\\r\\n    }\\r\\n\\r\\n   ...\n              MSTORE \t\t\tts tokenID\\r\\n    }\\r\\n\\r\\n   ...\n              PUSH 4\t\t\tts tokenID\\r\\n    }\\r\\n\\r\\n   ...\n              ADD \t\t\tts tokenID\\r\\n    }\\r\\n\\r\\n   ...\n              PUSH [tag] 164\t\t\tts tokenID\\r\\n    }\\r\\n\\r\\n   ...\n              SWAP1 \t\t\tts tokenID\\r\\n    }\\r\\n\\r\\n   ...\n              PUSH [tag] 165\t\t\tts tokenID\\r\\n    }\\r\\n\\r\\n   ...\n              JUMP \t\t\tts tokenID\\r\\n    }\\r\\n\\r\\n   ...\n            tag 164\t\t\tts tokenID\\r\\n    }\\r\\n\\r\\n   ...\n              JUMPDEST \t\t\tts tokenID\\r\\n    }\\r\\n\\r\\n   ...\n              PUSH 40\t\t\tts tokenID\\r\\n    }\\r\\n\\r\\n   ...\n              MLOAD \t\t\tts tokenID\\r\\n    }\\r\\n\\r\\n   ...\n              DUP1 \t\t\tts tokenID\\r\\n    }\\r\\n\\r\\n   ...\n              SWAP2 \t\t\tts tokenID\\r\\n    }\\r\\n\\r\\n   ...\n              SUB \t\t\tts tokenID\\r\\n    }\\r\\n\\r\\n   ...\n              SWAP1 \t\t\tts tokenID\\r\\n    }\\r\\n\\r\\n   ...\n              REVERT \t\t\tts tokenID\\r\\n    }\\r\\n\\r\\n   ...\n            tag 163\t\t\tts tokenID\\r\\n    }\\r\\n\\r\\n   ...\n              JUMPDEST \t\t\tts tokenID\\r\\n    }\\r\\n\\r\\n   ...\n              PUSH [tag] 166\t\t\t// to keep record of c\n              DUP4 \t\t\t r\n              DUP3 \t\t\tord of \n              PUSH [tag] 167\t\t\t// to kee\n              JUMP \t\t\t// to keep record of c\n            tag 166\t\t\t// to keep record of c\n              JUMPDEST \t\t\t// to keep record of c\n              PUSH [tag] 168\t\t\tith their IDs\\r\\n    mapping\n              DUP2 \t\t\t\\r\\n    m\n              DUP4 \t\t\tpin\n              PUSH [tag] 169\t\t\tith their ID\n              JUMP \t\t\tith their IDs\\r\\n    mapping\n            tag 168\t\t\tith their IDs\\r\\n    mapping\n              JUMPDEST \t\t\tith their IDs\\r\\n    mapping\n              POP \t\t\tpping {\\r\\n        mapping(uin...\n              POP \t\t\tmes;\\r\\n        uint256 tokens...\n              POP \t\t\tmes;\\r\\n        uint256 tokens...\n              JUMP \t\t\tmes;\\r\\n        uint256 tokens...\n            tag 83\t\t\t\n              JUMPDEST \t\t\t\n              PUSH 0\t\t\t\n              PUSH 5\t\t\t\n              PUSH 0\t\t\t\n              DUP5 \t\t\t\n              PUSH FFFFFFFFFFFFFFFFFFFFFFFFFFFFFFFFFFFFFFFF\t\t\t\n              AND \t\t\t\n              PUSH FFFFFFFFFFFFFFFFFFFFFFFFFFFFFFFFFFFFFFFF\t\t\t\n              AND \t\t\t\n              DUP2 \t\t\t\n              MSTORE \t\t\t\n              PUSH 20\t\t\t\n              ADD \t\t\t\n              SWAP1 \t\t\t\n              DUP2 \t\t\t\n              MSTORE \t\t\t\n              PUSH 20\t\t\t\n              ADD \t\t\t\n              PUSH 0\t\t\t\n              KECCAK256 \t\t\t\n              PUSH 0\t\t\t\n              DUP4 \t\t\t\n              PUSH FFFFFFFFFFFFFFFFFFFFFFFFFFFFFFFFFFFFFFFF\t\t\t\n              AND \t\t\t\n              PUSH FFFFFFFFFFFFFFFFFFFFFFFFFFFFFFFFFFFFFFFF\t\t\t\n              AND \t\t\t\n              DUP2 \t\t\t\n              MSTORE \t\t\t\n              PUSH 20\t\t\t\n              ADD \t\t\t\n              SWAP1 \t\t\t\n              DUP2 \t\t\t\n              MSTORE \t\t\t\n              PUSH 20\t\t\t\n              ADD \t\t\t\n              PUSH 0\t\t\t\n              KECCAK256 \t\t\t\n              PUSH 0\t\t\t\n              SWAP1 \t\t\t\n              SLOAD \t\t\t\n              SWAP1 \t\t\t\n              PUSH 100\t\t\t\n              EXP \t\t\t\n              SWAP1 \t\t\t\n              DIV \t\t\t\n              PUSH FF\t\t\t\n              AND \t\t\t\n              SWAP1 \t\t\t\n              POP \t\t\t\n              SWAP3 \t\t\t\n              SWAP2 \t\t\t\n              POP \t\t\t\n              POP \t\t\t\n              JUMP \t\t\t\n            tag 87\t\t\tint(to, amount);\\r\\n    }\\r\\n\\...\n              JUMPDEST \t\t\tint(to, amount);\\r\\n    }\\r\\n\\...\n              PUSH 0\t\t\tClai\n              PUSH 49064906\t\t\t    uint25\n              PUSH E0\t\t\t;\\r\\n        uint256\n              SHL \t\t\t;\\r\\n        uint256\n              PUSH FFFFFFFFFFFFFFFFFFFFFFFFFFFFFFFFFFFFFFFFFFFFFFFFFFFFFFFF\t\t\t56 wateredTimes;\\r\\n        ui...\n              NOT \t\t\t56 wateredTimes;\\r\\n        ui...\n              AND \t\t\t56 wateredTimes;\\r\\n        ui...\n              DUP3 \t\t\t56 wateredT\n              PUSH FFFFFFFFFFFFFFFFFFFFFFFFFFFFFFFFFFFFFFFFFFFFFFFFFFFFFFFF\t\t\t56 wateredTimes;\\r\\n        ui...\n              NOT \t\t\t56 wateredTimes;\\r\\n        ui...\n              AND \t\t\t56 wateredTimes;\\r\\n        ui...\n              EQ \t\t\t56 wateredTimes;\\r\\n        ui...\n              DUP1 \t\t\t56 wateredTimes;\\r\\n        ui...\n              PUSH [tag] 172\t\t\t56 wateredTimes;\\r\\n        ui...\n              JUMPI \t\t\t56 wateredTimes;\\r\\n        ui...\n              POP \t\t\t56 wateredTimes;\\r\\n        ui...\n              PUSH [tag] 173\t\t\tensYielded;\\r\\n    }\\r\\n\\r\\n  ...\n              DUP3 \t\t\t  struct Us\n              PUSH [tag] 174\t\t\tensYielded;\\r\\n    }\\r\\n\\r\\n \n              JUMP \t\t\tensYielded;\\r\\n    }\\r\\n\\r\\n  ...\n            tag 173\t\t\tensYielded;\\r\\n    }\\r\\n\\r\\n  ...\n              JUMPDEST \t\t\tensYielded;\\r\\n    }\\r\\n\\r\\n  ...\n            tag 172\t\t\t56 wateredTimes;\\r\\n        ui...\n              JUMPDEST \t\t\t56 wateredTimes;\\r\\n        ui...\n              SWAP1 \t\t\t  uint256 wateredTimes;\\r\\n   ...\n              POP \t\t\t  uint256 wateredTimes;\\r\\n   ...\n              SWAP2 \t\t\tint(to, amount);\\r\\n    }\\r\\n\\...\n              SWAP1 \t\t\tint(to, amount);\\r\\n    }\\r\\n\\...\n              POP \t\t\tint(to, amount);\\r\\n    }\\r\\n\\...\n              JUMP \t\t\tint(to, amount);\\r\\n    }\\r\\n\\...\n            tag 97\t\t\t\n              JUMPDEST \t\t\t\n              PUSH [tag] 176\t\t\t\n              DUP2 \t\t\t\n              PUSH [tag] 177\t\t\t\n              JUMP \t\t\t\n            tag 176\t\t\t\n              JUMPDEST \t\t\t\n              PUSH [tag] 178\t\t\t\n              JUMPI \t\t\t\n              PUSH 40\t\t\t\n              MLOAD \t\t\t\n              PUSH 8C379A000000000000000000000000000000000000000000000000000000000\t\t\t\n              DUP2 \t\t\t\n              MSTORE \t\t\t\n              PUSH 4\t\t\t\n              ADD \t\t\t\n              PUSH [tag] 179\t\t\t\n              SWAP1 \t\t\t\n              PUSH [tag] 129\t\t\t\n              JUMP \t\t\t\n            tag 179\t\t\t\n              JUMPDEST \t\t\t\n              PUSH 40\t\t\t\n              MLOAD \t\t\t\n              DUP1 \t\t\t\n              SWAP2 \t\t\t\n              SUB \t\t\t\n              SWAP1 \t\t\t\n              REVERT \t\t\t\n            tag 178\t\t\t\n              JUMPDEST \t\t\t\n              POP \t\t\t\n              JUMP \t\t\t\n            tag 104\t\t\timed;\\r\\n        uint256 water...\n              JUMPDEST \t\t\timed;\\r\\n        uint256 water...\n              PUSH 0\t\t\t tokens\n              CALLER \t\t\t    struct\n              SWAP1 \t\t\t  }\\r\\n\\r\\n    struct\n              POP \t\t\t  }\\r\\n\\r\\n    struct\n              SWAP1 \t\t\timed;\\r\\n        uint256 water...\n              JUMP \t\t\timed;\\r\\n        uint256 water...\n            tag 112\t\t\t\n              JUMPDEST \t\t\t\n              DUP2 \t\t\t\n              PUSH 4\t\t\t\n              PUSH 0\t\t\t\n              DUP4 \t\t\t\n              DUP2 \t\t\t\n              MSTORE \t\t\t\n              PUSH 20\t\t\t\n              ADD \t\t\t\n              SWAP1 \t\t\t\n              DUP2 \t\t\t\n              MSTORE \t\t\t\n              PUSH 20\t\t\t\n              ADD \t\t\t\n              PUSH 0\t\t\t\n              KECCAK256 \t\t\t\n              PUSH 0\t\t\t\n              PUSH 100\t\t\t\n              EXP \t\t\t\n              DUP2 \t\t\t\n              SLOAD \t\t\t\n              DUP2 \t\t\t\n              PUSH FFFFFFFFFFFFFFFFFFFFFFFFFFFFFFFFFFFFFFFF\t\t\t\n              MUL \t\t\t\n              NOT \t\t\t\n              AND \t\t\t\n              SWAP1 \t\t\t\n              DUP4 \t\t\t\n              PUSH FFFFFFFFFFFFFFFFFFFFFFFFFFFFFFFFFFFFFFFF\t\t\t\n              AND \t\t\t\n              MUL \t\t\t\n              OR \t\t\t\n              SWAP1 \t\t\t\n              SSTORE \t\t\t\n              POP \t\t\t\n              DUP1 \t\t\t\n              DUP3 \t\t\t\n              PUSH FFFFFFFFFFFFFFFFFFFFFFFFFFFFFFFFFFFFFFFF\t\t\t\n              AND \t\t\t\n              PUSH [tag] 182\t\t\t\n              DUP4 \t\t\t\n              PUSH [tag] 50\t\t\t\n              JUMP \t\t\t\n            tag 182\t\t\t\n              JUMPDEST \t\t\t\n              PUSH FFFFFFFFFFFFFFFFFFFFFFFFFFFFFFFFFFFFFFFF\t\t\t\n              AND \t\t\t\n              PUSH 8C5BE1E5EBEC7D5BD14F71427D1E84F3DD0314C0F7B2291E5B200AC8C7C3B925\t\t\t\n              PUSH 40\t\t\t\n              MLOAD \t\t\t\n              PUSH 40\t\t\t\n              MLOAD \t\t\t\n              DUP1 \t\t\t\n              SWAP2 \t\t\t\n              SUB \t\t\t\n              SWAP1 \t\t\t\n              LOG4 \t\t\t\n              POP \t\t\t\n              POP \t\t\t\n              JUMP \t\t\t\n            tag 116\t\t\t\n              JUMPDEST \t\t\t\n              PUSH 0\t\t\t\n              DUP1 \t\t\t\n              PUSH [tag] 184\t\t\t\n              DUP4 \t\t\t\n              PUSH [tag] 50\t\t\t\n              JUMP \t\t\t\n            tag 184\t\t\t\n              JUMPDEST \t\t\t\n              SWAP1 \t\t\t\n              POP \t\t\t\n              DUP1 \t\t\t\n              PUSH FFFFFFFFFFFFFFFFFFFFFFFFFFFFFFFFFFFFFFFF\t\t\t\n              AND \t\t\t\n              DUP5 \t\t\t\n              PUSH FFFFFFFFFFFFFFFFFFFFFFFFFFFFFFFFFFFFFFFF\t\t\t\n              AND \t\t\t\n              EQ \t\t\t\n              DUP1 \t\t\t\n              PUSH [tag] 185\t\t\t\n              JUMPI \t\t\t\n              POP \t\t\t\n              PUSH [tag] 186\t\t\t\n              DUP2 \t\t\t\n              DUP6 \t\t\t\n              PUSH [tag] 83\t\t\t\n              JUMP \t\t\t\n            tag 186\t\t\t\n              JUMPDEST \t\t\t\n            tag 185\t\t\t\n              JUMPDEST \t\t\t\n              DUP1 \t\t\t\n              PUSH [tag] 187\t\t\t\n              JUMPI \t\t\t\n              POP \t\t\t\n              DUP4 \t\t\t\n              PUSH FFFFFFFFFFFFFFFFFFFFFFFFFFFFFFFFFFFFFFFF\t\t\t\n              AND \t\t\t\n              PUSH [tag] 188\t\t\t\n              DUP5 \t\t\t\n              PUSH [tag] 34\t\t\t\n              JUMP \t\t\t\n            tag 188\t\t\t\n              JUMPDEST \t\t\t\n              PUSH FFFFFFFFFFFFFFFFFFFFFFFFFFFFFFFFFFFFFFFF\t\t\t\n              AND \t\t\t\n              EQ \t\t\t\n            tag 187\t\t\t\n              JUMPDEST \t\t\t\n              SWAP2 \t\t\t\n              POP \t\t\t\n              POP \t\t\t\n              SWAP3 \t\t\t\n              SWAP2 \t\t\t\n              POP \t\t\t\n              POP \t\t\t\n              JUMP \t\t\t\n            tag 121\t\t\t\n              JUMPDEST \t\t\t\n              DUP3 \t\t\t\n              PUSH FFFFFFFFFFFFFFFFFFFFFFFFFFFFFFFFFFFFFFFF\t\t\t\n              AND \t\t\t\n              PUSH [tag] 190\t\t\t\n              DUP3 \t\t\t\n              PUSH [tag] 50\t\t\t\n              JUMP \t\t\t\n            tag 190\t\t\t\n              JUMPDEST \t\t\t\n              PUSH FFFFFFFFFFFFFFFFFFFFFFFFFFFFFFFFFFFFFFFF\t\t\t\n              AND \t\t\t\n              EQ \t\t\t\n              PUSH [tag] 191\t\t\t\n              JUMPI \t\t\t\n              PUSH 40\t\t\t\n              MLOAD \t\t\t\n              PUSH 8C379A000000000000000000000000000000000000000000000000000000000\t\t\t\n              DUP2 \t\t\t\n              MSTORE \t\t\t\n              PUSH 4\t\t\t\n              ADD \t\t\t\n              PUSH [tag] 192\t\t\t\n              SWAP1 \t\t\t\n              PUSH [tag] 193\t\t\t\n              JUMP \t\t\t\n            tag 192\t\t\t\n              JUMPDEST \t\t\t\n              PUSH 40\t\t\t\n              MLOAD \t\t\t\n              DUP1 \t\t\t\n              SWAP2 \t\t\t\n              SUB \t\t\t\n              SWAP1 \t\t\t\n              REVERT \t\t\t\n            tag 191\t\t\t\n              JUMPDEST \t\t\t\n              PUSH 0\t\t\t\n              PUSH FFFFFFFFFFFFFFFFFFFFFFFFFFFFFFFFFFFFFFFF\t\t\t\n              AND \t\t\t\n              DUP3 \t\t\t\n              PUSH FFFFFFFFFFFFFFFFFFFFFFFFFFFFFFFFFFFFFFFF\t\t\t\n              AND \t\t\t\n              SUB \t\t\t\n              PUSH [tag] 194\t\t\t\n              JUMPI \t\t\t\n              PUSH 40\t\t\t\n              MLOAD \t\t\t\n              PUSH 8C379A000000000000000000000000000000000000000000000000000000000\t\t\t\n              DUP2 \t\t\t\n              MSTORE \t\t\t\n              PUSH 4\t\t\t\n              ADD \t\t\t\n              PUSH [tag] 195\t\t\t\n              SWAP1 \t\t\t\n              PUSH [tag] 196\t\t\t\n              JUMP \t\t\t\n            tag 195\t\t\t\n              JUMPDEST \t\t\t\n              PUSH 40\t\t\t\n              MLOAD \t\t\t\n              DUP1 \t\t\t\n              SWAP2 \t\t\t\n              SUB \t\t\t\n              SWAP1 \t\t\t\n              REVERT \t\t\t\n            tag 194\t\t\t\n              JUMPDEST \t\t\t\n              PUSH [tag] 197\t\t\t\n              DUP4 \t\t\t\n              DUP4 \t\t\t\n              DUP4 \t\t\t\n              PUSH 1\t\t\t\n              PUSH [tag] 198\t\t\t\n              JUMP \t\t\t\n            tag 197\t\t\t\n              JUMPDEST \t\t\t\n              DUP3 \t\t\t\n              PUSH FFFFFFFFFFFFFFFFFFFFFFFFFFFFFFFFFFFFFFFF\t\t\t\n              AND \t\t\t\n              PUSH [tag] 199\t\t\t\n              DUP3 \t\t\t\n              PUSH [tag] 50\t\t\t\n              JUMP \t\t\t\n            tag 199\t\t\t\n              JUMPDEST \t\t\t\n              PUSH FFFFFFFFFFFFFFFFFFFFFFFFFFFFFFFFFFFFFFFF\t\t\t\n              AND \t\t\t\n              EQ \t\t\t\n              PUSH [tag] 200\t\t\t\n              JUMPI \t\t\t\n              PUSH 40\t\t\t\n              MLOAD \t\t\t\n              PUSH 8C379A000000000000000000000000000000000000000000000000000000000\t\t\t\n              DUP2 \t\t\t\n              MSTORE \t\t\t\n              PUSH 4\t\t\t\n              ADD \t\t\t\n              PUSH [tag] 201\t\t\t\n              SWAP1 \t\t\t\n              PUSH [tag] 193\t\t\t\n              JUMP \t\t\t\n            tag 201\t\t\t\n              JUMPDEST \t\t\t\n              PUSH 40\t\t\t\n              MLOAD \t\t\t\n              DUP1 \t\t\t\n              SWAP2 \t\t\t\n              SUB \t\t\t\n              SWAP1 \t\t\t\n              REVERT \t\t\t\n            tag 200\t\t\t\n              JUMPDEST \t\t\t\n              PUSH 4\t\t\t\n              PUSH 0\t\t\t\n              DUP3 \t\t\t\n              DUP2 \t\t\t\n              MSTORE \t\t\t\n              PUSH 20\t\t\t\n              ADD \t\t\t\n              SWAP1 \t\t\t\n              DUP2 \t\t\t\n              MSTORE \t\t\t\n              PUSH 20\t\t\t\n              ADD \t\t\t\n              PUSH 0\t\t\t\n              KECCAK256 \t\t\t\n              PUSH 0\t\t\t\n              PUSH 100\t\t\t\n              EXP \t\t\t\n              DUP2 \t\t\t\n              SLOAD \t\t\t\n              SWAP1 \t\t\t\n              PUSH FFFFFFFFFFFFFFFFFFFFFFFFFFFFFFFFFFFFFFFF\t\t\t\n              MUL \t\t\t\n              NOT \t\t\t\n              AND \t\t\t\n              SWAP1 \t\t\t\n              SSTORE \t\t\t\n              PUSH 1\t\t\t\n              PUSH 3\t\t\t\n              PUSH 0\t\t\t\n              DUP6 \t\t\t\n              PUSH FFFFFFFFFFFFFFFFFFFFFFFFFFFFFFFFFFFFFFFF\t\t\t\n              AND \t\t\t\n              PUSH FFFFFFFFFFFFFFFFFFFFFFFFFFFFFFFFFFFFFFFF\t\t\t\n              AND \t\t\t\n              DUP2 \t\t\t\n              MSTORE \t\t\t\n              PUSH 20\t\t\t\n              ADD \t\t\t\n              SWAP1 \t\t\t\n              DUP2 \t\t\t\n              MSTORE \t\t\t\n              PUSH 20\t\t\t\n              ADD \t\t\t\n              PUSH 0\t\t\t\n              KECCAK256 \t\t\t\n              PUSH 0\t\t\t\n              DUP3 \t\t\t\n              DUP3 \t\t\t\n              SLOAD \t\t\t\n              SUB \t\t\t\n              SWAP3 \t\t\t\n              POP \t\t\t\n              POP \t\t\t\n              DUP2 \t\t\t\n              SWAP1 \t\t\t\n              SSTORE \t\t\t\n              POP \t\t\t\n              PUSH 1\t\t\t\n              PUSH 3\t\t\t\n              PUSH 0\t\t\t\n              DUP5 \t\t\t\n              PUSH FFFFFFFFFFFFFFFFFFFFFFFFFFFFFFFFFFFFFFFF\t\t\t\n              AND \t\t\t\n              PUSH FFFFFFFFFFFFFFFFFFFFFFFFFFFFFFFFFFFFFFFF\t\t\t\n              AND \t\t\t\n              DUP2 \t\t\t\n              MSTORE \t\t\t\n              PUSH 20\t\t\t\n              ADD \t\t\t\n              SWAP1 \t\t\t\n              DUP2 \t\t\t\n              MSTORE \t\t\t\n              PUSH 20\t\t\t\n              ADD \t\t\t\n              PUSH 0\t\t\t\n              KECCAK256 \t\t\t\n              PUSH 0\t\t\t\n              DUP3 \t\t\t\n              DUP3 \t\t\t\n              SLOAD \t\t\t\n              ADD \t\t\t\n              SWAP3 \t\t\t\n              POP \t\t\t\n              POP \t\t\t\n              DUP2 \t\t\t\n              SWAP1 \t\t\t\n              SSTORE \t\t\t\n              POP \t\t\t\n              DUP2 \t\t\t\n              PUSH 2\t\t\t\n              PUSH 0\t\t\t\n              DUP4 \t\t\t\n              DUP2 \t\t\t\n              MSTORE \t\t\t\n              PUSH 20\t\t\t\n              ADD \t\t\t\n              SWAP1 \t\t\t\n              DUP2 \t\t\t\n              MSTORE \t\t\t\n              PUSH 20\t\t\t\n              ADD \t\t\t\n              PUSH 0\t\t\t\n              KECCAK256 \t\t\t\n              PUSH 0\t\t\t\n              PUSH 100\t\t\t\n              EXP \t\t\t\n              DUP2 \t\t\t\n              SLOAD \t\t\t\n              DUP2 \t\t\t\n              PUSH FFFFFFFFFFFFFFFFFFFFFFFFFFFFFFFFFFFFFFFF\t\t\t\n              MUL \t\t\t\n              NOT \t\t\t\n              AND \t\t\t\n              SWAP1 \t\t\t\n              DUP4 \t\t\t\n              PUSH FFFFFFFFFFFFFFFFFFFFFFFFFFFFFFFFFFFFFFFF\t\t\t\n              AND \t\t\t\n              MUL \t\t\t\n              OR \t\t\t\n              SWAP1 \t\t\t\n              SSTORE \t\t\t\n              POP \t\t\t\n              DUP1 \t\t\t\n              DUP3 \t\t\t\n              PUSH FFFFFFFFFFFFFFFFFFFFFFFFFFFFFFFFFFFFFFFF\t\t\t\n              AND \t\t\t\n              DUP5 \t\t\t\n              PUSH FFFFFFFFFFFFFFFFFFFFFFFFFFFFFFFFFFFFFFFF\t\t\t\n              AND \t\t\t\n              PUSH DDF252AD1BE2C89B69C2B068FC378DAA952BA7F163C4A11628F55A4DF523B3EF\t\t\t\n              PUSH 40\t\t\t\n              MLOAD \t\t\t\n              PUSH 40\t\t\t\n              MLOAD \t\t\t\n              DUP1 \t\t\t\n              SWAP2 \t\t\t\n              SUB \t\t\t\n              SWAP1 \t\t\t\n              LOG4 \t\t\t\n              PUSH [tag] 202\t\t\t\n              DUP4 \t\t\t\n              DUP4 \t\t\t\n              DUP4 \t\t\t\n              PUSH 1\t\t\t\n              PUSH [tag] 203\t\t\t\n              JUMP \t\t\t\n            tag 202\t\t\t\n              JUMPDEST \t\t\t\n              POP \t\t\t\n              POP \t\t\t\n              POP \t\t\t\n              JUMP \t\t\t\n            tag 126\t\t\t\n              JUMPDEST \t\t\t\n              PUSH 0\t\t\t\n              PUSH 2\t\t\t\n              PUSH 0\t\t\t\n              DUP4 \t\t\t\n              DUP2 \t\t\t\n              MSTORE \t\t\t\n              PUSH 20\t\t\t\n              ADD \t\t\t\n              SWAP1 \t\t\t\n              DUP2 \t\t\t\n              MSTORE \t\t\t\n              PUSH 20\t\t\t\n              ADD \t\t\t\n              PUSH 0\t\t\t\n              KECCAK256 \t\t\t\n              PUSH 0\t\t\t\n              SWAP1 \t\t\t\n              SLOAD \t\t\t\n              SWAP1 \t\t\t\n              PUSH 100\t\t\t\n              EXP \t\t\t\n              SWAP1 \t\t\t\n              DIV \t\t\t\n              PUSH FFFFFFFFFFFFFFFFFFFFFFFFFFFFFFFFFFFFFFFF\t\t\t\n              AND \t\t\t\n              SWAP1 \t\t\t\n              POP \t\t\t\n              SWAP2 \t\t\t\n              SWAP1 \t\t\t\n              POP \t\t\t\n              JUMP \t\t\t\n            tag 143\t\t\t\n              JUMPDEST \t\t\t\n              DUP2 \t\t\t\n              PUSH FFFFFFFFFFFFFFFFFFFFFFFFFFFFFFFFFFFFFFFF\t\t\t\n              AND \t\t\t\n              DUP4 \t\t\t\n              PUSH FFFFFFFFFFFFFFFFFFFFFFFFFFFFFFFFFFFFFFFF\t\t\t\n              AND \t\t\t\n              SUB \t\t\t\n              PUSH [tag] 206\t\t\t\n              JUMPI \t\t\t\n              PUSH 40\t\t\t\n              MLOAD \t\t\t\n              PUSH 8C379A000000000000000000000000000000000000000000000000000000000\t\t\t\n              DUP2 \t\t\t\n              MSTORE \t\t\t\n              PUSH 4\t\t\t\n              ADD \t\t\t\n              PUSH [tag] 207\t\t\t\n              SWAP1 \t\t\t\n              PUSH [tag] 208\t\t\t\n              JUMP \t\t\t\n            tag 207\t\t\t\n              JUMPDEST \t\t\t\n              PUSH 40\t\t\t\n              MLOAD \t\t\t\n              DUP1 \t\t\t\n              SWAP2 \t\t\t\n              SUB \t\t\t\n              SWAP1 \t\t\t\n              REVERT \t\t\t\n            tag 206\t\t\t\n              JUMPDEST \t\t\t\n              DUP1 \t\t\t\n              PUSH 5\t\t\t\n              PUSH 0\t\t\t\n              DUP6 \t\t\t\n              PUSH FFFFFFFFFFFFFFFFFFFFFFFFFFFFFFFFFFFFFFFF\t\t\t\n              AND \t\t\t\n              PUSH FFFFFFFFFFFFFFFFFFFFFFFFFFFFFFFFFFFFFFFF\t\t\t\n              AND \t\t\t\n              DUP2 \t\t\t\n              MSTORE \t\t\t\n              PUSH 20\t\t\t\n              ADD \t\t\t\n              SWAP1 \t\t\t\n              DUP2 \t\t\t\n              MSTORE \t\t\t\n              PUSH 20\t\t\t\n              ADD \t\t\t\n              PUSH 0\t\t\t\n              KECCAK256 \t\t\t\n              PUSH 0\t\t\t\n              DUP5 \t\t\t\n              PUSH FFFFFFFFFFFFFFFFFFFFFFFFFFFFFFFFFFFFFFFF\t\t\t\n              AND \t\t\t\n              PUSH FFFFFFFFFFFFFFFFFFFFFFFFFFFFFFFFFFFFFFFF\t\t\t\n              AND \t\t\t\n              DUP2 \t\t\t\n              MSTORE \t\t\t\n              PUSH 20\t\t\t\n              ADD \t\t\t\n              SWAP1 \t\t\t\n              DUP2 \t\t\t\n              MSTORE \t\t\t\n              PUSH 20\t\t\t\n              ADD \t\t\t\n              PUSH 0\t\t\t\n              KECCAK256 \t\t\t\n              PUSH 0\t\t\t\n              PUSH 100\t\t\t\n              EXP \t\t\t\n              DUP2 \t\t\t\n              SLOAD \t\t\t\n              DUP2 \t\t\t\n              PUSH FF\t\t\t\n              MUL \t\t\t\n              NOT \t\t\t\n              AND \t\t\t\n              SWAP1 \t\t\t\n              DUP4 \t\t\t\n              ISZERO \t\t\t\n              ISZERO \t\t\t\n              MUL \t\t\t\n              OR \t\t\t\n              SWAP1 \t\t\t\n              SSTORE \t\t\t\n              POP \t\t\t\n              DUP2 \t\t\t\n              PUSH FFFFFFFFFFFFFFFFFFFFFFFFFFFFFFFFFFFFFFFF\t\t\t\n              AND \t\t\t\n              DUP4 \t\t\t\n              PUSH FFFFFFFFFFFFFFFFFFFFFFFFFFFFFFFFFFFFFFFF\t\t\t\n              AND \t\t\t\n              PUSH 17307EAB39AB6107E8899845AD3D59BD9653F200F220920489CA2B5937696C31\t\t\t\n              DUP4 \t\t\t\n              PUSH 40\t\t\t\n              MLOAD \t\t\t\n              PUSH [tag] 209\t\t\t\n              SWAP2 \t\t\t\n              SWAP1 \t\t\t\n              PUSH [tag] 26\t\t\t\n              JUMP \t\t\t\n            tag 209\t\t\t\n              JUMPDEST \t\t\t\n              PUSH 40\t\t\t\n              MLOAD \t\t\t\n              DUP1 \t\t\t\n              SWAP2 \t\t\t\n              SUB \t\t\t\n              SWAP1 \t\t\t\n              LOG3 \t\t\t\n              POP \t\t\t\n              POP \t\t\t\n              POP \t\t\t\n              JUMP \t\t\t\n            tag 150\t\t\t\n              JUMPDEST \t\t\t\n              PUSH [tag] 211\t\t\t\n              DUP5 \t\t\t\n              DUP5 \t\t\t\n              DUP5 \t\t\t\n              PUSH [tag] 121\t\t\t\n              JUMP \t\t\t\n            tag 211\t\t\t\n              JUMPDEST \t\t\t\n              PUSH [tag] 212\t\t\t\n              DUP5 \t\t\t\n              DUP5 \t\t\t\n              DUP5 \t\t\t\n              DUP5 \t\t\t\n              PUSH [tag] 213\t\t\t\n              JUMP \t\t\t\n            tag 212\t\t\t\n              JUMPDEST \t\t\t\n              PUSH [tag] 214\t\t\t\n              JUMPI \t\t\t\n              PUSH 40\t\t\t\n              MLOAD \t\t\t\n              PUSH 8C379A000000000000000000000000000000000000000000000000000000000\t\t\t\n              DUP2 \t\t\t\n              MSTORE \t\t\t\n              PUSH 4\t\t\t\n              ADD \t\t\t\n              PUSH [tag] 215\t\t\t\n              SWAP1 \t\t\t\n              PUSH [tag] 216\t\t\t\n              JUMP \t\t\t\n            tag 215\t\t\t\n              JUMPDEST \t\t\t\n              PUSH 40\t\t\t\n              MLOAD \t\t\t\n              DUP1 \t\t\t\n              SWAP2 \t\t\t\n              SUB \t\t\t\n              SWAP1 \t\t\t\n              REVERT \t\t\t\n            tag 214\t\t\t\n              JUMPDEST \t\t\t\n              POP \t\t\t\n              POP \t\t\t\n              POP \t\t\t\n              POP \t\t\t\n              JUMP \t\t\t\n            tag 153\t\t\tapping to store user details w...\n              JUMPDEST \t\t\tapping to store user details w...\n              PUSH 60\t\t\t56 => TreeCol\n              PUSH [tag] 218\t\t\tlic treecollections; //\n              DUP3 \t\t\tions; /\n              PUSH [tag] 97\t\t\tlic treecollec\n              JUMP \t\t\tlic treecollections; //\n            tag 218\t\t\tlic treecollections; //\n              JUMPDEST \t\t\tlic treecollections; //\n              PUSH 0\t\t\tcord of collection with\n              PUSH 6\t\t\teir IDs\\r\\n \n              PUSH 0\t\t\teir IDs\\r\\n    mappin\n              DUP5 \t\t\t  mappi\n              DUP2 \t\t\teir IDs\\r\\n    mappin\n              MSTORE \t\t\teir IDs\\r\\n    mappin\n              PUSH 20\t\t\teir IDs\\r\\n    mappin\n              ADD \t\t\teir IDs\\r\\n    mappin\n              SWAP1 \t\t\teir IDs\\r\\n    mappin\n              DUP2 \t\t\teir IDs\\r\\n    mappin\n              MSTORE \t\t\teir IDs\\r\\n    mappin\n              PUSH 20\t\t\teir IDs\\r\\n    mappin\n              ADD \t\t\teir IDs\\r\\n    mappin\n              PUSH 0\t\t\teir IDs\\r\\n    mappin\n              KECCAK256 \t\t\teir IDs\\r\\n    mappin\n              DUP1 \t\t\tcord of collection with their ...\n              SLOAD \t\t\tcord of collection with their ...\n              PUSH [tag] 219\t\t\tcord of collection with their ...\n              SWAP1 \t\t\tcord of collection with their ...\n              PUSH [tag] 90\t\t\tcord of collection with their ...\n              JUMP \t\t\tcord of collection with their ...\n            tag 219\t\t\tcord of collection with their ...\n              JUMPDEST \t\t\tcord of collection with their ...\n              DUP1 \t\t\tcord of collection with their ...\n              PUSH 1F\t\t\tcord of collection with their ...\n              ADD \t\t\tcord of collection with their ...\n              PUSH 20\t\t\tcord of collection with their ...\n              DUP1 \t\t\tcord of collection with their ...\n              SWAP2 \t\t\tcord of collection with their ...\n              DIV \t\t\tcord of collection with their ...\n              MUL \t\t\tcord of collection with their ...\n              PUSH 20\t\t\tcord of collection with their ...\n              ADD \t\t\tcord of collection with their ...\n              PUSH 40\t\t\tcord of collection with their ...\n              MLOAD \t\t\tcord of collection with their ...\n              SWAP1 \t\t\tcord of collection with their ...\n              DUP2 \t\t\tcord of collection with their ...\n              ADD \t\t\tcord of collection with their ...\n              PUSH 40\t\t\tcord of collection with their ...\n              MSTORE \t\t\tcord of collection with their ...\n              DUP1 \t\t\tcord of collection with their ...\n              SWAP3 \t\t\tcord of collection with their ...\n              SWAP2 \t\t\tcord of collection with their ...\n              SWAP1 \t\t\tcord of collection with their ...\n              DUP2 \t\t\tcord of collection with their ...\n              DUP2 \t\t\tcord of collection with their ...\n              MSTORE \t\t\tcord of collection with their ...\n              PUSH 20\t\t\tcord of collection with their ...\n              ADD \t\t\tcord of collection with their ...\n              DUP3 \t\t\tcord of collection with their ...\n              DUP1 \t\t\tcord of collection with their ...\n              SLOAD \t\t\tcord of collection with their ...\n              PUSH [tag] 220\t\t\tcord of collection with their ...\n              SWAP1 \t\t\tcord of collection with their ...\n              PUSH [tag] 90\t\t\tcord of collection with their ...\n              JUMP \t\t\tcord of collection with their ...\n            tag 220\t\t\tcord of collection with their ...\n              JUMPDEST \t\t\tcord of collection with their ...\n              DUP1 \t\t\tcord of collection with their ...\n              ISZERO \t\t\tcord of collection with their ...\n              PUSH [tag] 221\t\t\tcord of collection with their ...\n              JUMPI \t\t\tcord of collection with their ...\n              DUP1 \t\t\tcord of collection with their ...\n              PUSH 1F\t\t\tcord of collection with their ...\n              LT \t\t\tcord of collection with their ...\n              PUSH [tag] 222\t\t\tcord of collection with their ...\n              JUMPI \t\t\tcord of collection with their ...\n              PUSH 100\t\t\tcord of collection with their ...\n              DUP1 \t\t\tcord of collection with their ...\n              DUP4 \t\t\tcord of collection with their ...\n              SLOAD \t\t\tcord of collection with their ...\n              DIV \t\t\tcord of collection with their ...\n              MUL \t\t\tcord of collection with their ...\n              DUP4 \t\t\tcord of collection with their ...\n              MSTORE \t\t\tcord of collection with their ...\n              SWAP2 \t\t\tcord of collection with their ...\n              PUSH 20\t\t\tcord of collection with their ...\n              ADD \t\t\tcord of collection with their ...\n              SWAP2 \t\t\tcord of collection with their ...\n              PUSH [tag] 221\t\t\tcord of collection with their ...\n              JUMP \t\t\tcord of collection with their ...\n            tag 222\t\t\tcord of collection with their ...\n              JUMPDEST \t\t\tcord of collection with their ...\n              DUP3 \t\t\tcord of collection with their ...\n              ADD \t\t\tcord of collection with their ...\n              SWAP2 \t\t\tcord of collection with their ...\n              SWAP1 \t\t\tcord of collection with their ...\n              PUSH 0\t\t\tcord of collection with their ...\n              MSTORE \t\t\tcord of collection with their ...\n              PUSH 20\t\t\tcord of collection with their ...\n              PUSH 0\t\t\tcord of collection with their ...\n              KECCAK256 \t\t\tcord of collection with their ...\n              SWAP1 \t\t\tcord of collection with their ...\n            tag 223\t\t\tcord of collection with their ...\n              JUMPDEST \t\t\tcord of collection with their ...\n              DUP2 \t\t\tcord of collection with their ...\n              SLOAD \t\t\tcord of collection with their ...\n              DUP2 \t\t\tcord of collection with their ...\n              MSTORE \t\t\tcord of collection with their ...\n              SWAP1 \t\t\tcord of collection with their ...\n              PUSH 1\t\t\tcord of collection with their ...\n              ADD \t\t\tcord of collection with their ...\n              SWAP1 \t\t\tcord of collection with their ...\n              PUSH 20\t\t\tcord of collection with their ...\n              ADD \t\t\tcord of collection with their ...\n              DUP1 \t\t\tcord of collection with their ...\n              DUP4 \t\t\tcord of collection with their ...\n              GT \t\t\tcord of collection with their ...\n              PUSH [tag] 223\t\t\tcord of collection with their ...\n              JUMPI \t\t\tcord of collection with their ...\n              DUP3 \t\t\tcord of collection with their ...\n              SWAP1 \t\t\tcord of collection with their ...\n              SUB \t\t\tcord of collection with their ...\n              PUSH 1F\t\t\tcord of collection with their ...\n              AND \t\t\tcord of collection with their ...\n              DUP3 \t\t\tcord of collection with their ...\n              ADD \t\t\tcord of collection with their ...\n              SWAP2 \t\t\tcord of collection with their ...\n            tag 221\t\t\tcord of collection with their ...\n              JUMPDEST \t\t\tcord of collection with their ...\n              POP \t\t\tcord of collection with their ...\n              POP \t\t\tcord of collection with their ...\n              POP \t\t\tcord of collection with their ...\n              POP \t\t\tcord of collection with their ...\n              POP \t\t\tcord of collection with their ...\n              SWAP1 \t\t\tcord of collection with their ...\n              POP \t\t\tcord of collection with their ...\n              PUSH 0\t\t\tection => uint256)\n              PUSH [tag] 224\t\t\tblic Colle\n              PUSH [tag] 225\t\t\tblic Col\n              JUMP \t\t\tblic Colle\n            tag 224\t\t\tblic Colle\n              JUMPDEST \t\t\tblic Colle\n              SWAP1 \t\t\tection => uint256) public Coll...\n              POP \t\t\tection => uint256) public Coll...\n              PUSH 0\t\t\t \n              DUP2 \t\t\tUser\n              MLOAD \t\t\t56 => UserTreeMapp\n              SUB \t\t\t56 => UserTreeMapping) \n              PUSH [tag] 226\t\t\tint256 => UserTreeMapping) use...\n              JUMPI \t\t\tint256 => UserTreeMapping) use...\n              DUP2 \t\t\t a Tree w\n              SWAP3 \t\t\tping of a Tree w\n              POP \t\t\tping of a Tree w\n              POP \t\t\tping of a Tree w\n              POP \t\t\tping of a Tree w\n              PUSH [tag] 217\t\t\tping of a Tree w\n              JUMP \t\t\tping of a Tree w\n            tag 226\t\t\tint256 => UserTreeMapping) use...\n              JUMPDEST \t\t\tint256 => UserTreeMapping) use...\n              PUSH 0\t\t\t=\n              DUP3 \t\t\trequire(m\n              MLOAD \t\t\t      require(msg.sende\n              GT \t\t\t      require(msg.sender ==\n              ISZERO \t\t\t\\r\\n        require(msg.sender...\n              PUSH [tag] 227\t\t\t\\r\\n        require(msg.sender...\n              JUMPI \t\t\t\\r\\n        require(msg.sender...\n              DUP1 \t\t\tter.\n              DUP3 \t\t\tcrement()\n              PUSH 40\t\t\treeCollectionCounter.increment...\n              MLOAD \t\t\treeCollectionCounter.increment...\n              PUSH 20\t\t\treeCollectionCounter.increment...\n              ADD \t\t\treeCollectionCounter.increment...\n              PUSH [tag] 228\t\t\treeCollectionCounter.increment...\n              SWAP3 \t\t\treeCollectionCounter.increment...\n              SWAP2 \t\t\treeCollectionCounter.increment...\n              SWAP1 \t\t\treeCollectionCounter.increment...\n              PUSH [tag] 229\t\t\treeCollectionCounter.increment...\n              JUMP \t\t\treeCollectionCounter.increment...\n            tag 228\t\t\treeCollectionCounter.increment...\n              JUMPDEST \t\t\treeCollectionCounter.increment...\n              PUSH 40\t\t\treeCollectionCounter.increment...\n              MLOAD \t\t\treeCollectionCounter.increment...\n              PUSH 20\t\t\treeCollectionCounter.increment...\n              DUP2 \t\t\treeCollectionCounter.increment...\n              DUP4 \t\t\treeCollectionCounter.increment...\n              SUB \t\t\treeCollectionCounter.increment...\n              SUB \t\t\treeCollectionCounter.increment...\n              DUP2 \t\t\treeCollectionCounter.increment...\n              MSTORE \t\t\treeCollectionCounter.increment...\n              SWAP1 \t\t\treeCollectionCounter.increment...\n              PUSH 40\t\t\treeCollectionCounter.increment...\n              MSTORE \t\t\treeCollectionCounter.increment...\n              SWAP3 \t\t\t;\\r\\n\\r\\n        TreeCollectio...\n              POP \t\t\t;\\r\\n\\r\\n        TreeCollectio...\n              POP \t\t\t;\\r\\n\\r\\n        TreeCollectio...\n              POP \t\t\t;\\r\\n\\r\\n        TreeCollectio...\n              PUSH [tag] 217\t\t\t;\\r\\n\\r\\n        TreeCollectio...\n              JUMP \t\t\t;\\r\\n\\r\\n        TreeCollectio...\n            tag 227\t\t\t\\r\\n        require(msg.sender...\n              JUMPDEST \t\t\t\\r\\n        require(msg.sender...\n              PUSH [tag] 230\t\t\tD = TreeCollectionCount\n              DUP5 \t\t\tionCoun\n              PUSH [tag] 231\t\t\tD = TreeCollec\n              JUMP \t\t\tD = TreeCollectionCount\n            tag 230\t\t\tD = TreeCollectionCount\n              JUMPDEST \t\t\tD = TreeCollectionCount\n              SWAP3 \t\t\tectionID = TreeCollectionCount\n              POP \t\t\tectionID = TreeCollectionCount\n              POP \t\t\tectionID = TreeCollectionCount\n              POP \t\t\tectionID = TreeCollectionCount\n            tag 217\t\t\tapping to store user details w...\n              JUMPDEST \t\t\tapping to store user details w...\n              SWAP2 \t\t\tapping to store user details w...\n              SWAP1 \t\t\tapping to store user details w...\n              POP \t\t\tapping to store user details w...\n              JUMP \t\t\tapping to store user details w...\n            tag 160\t\t\t collection with their IDs\\r\\n...\n              JUMPDEST \t\t\t collection with their IDs\\r\\n...\n              PUSH 1\t\t\ta\n              DUP2 \t\t\tD; // t\n              PUSH 0\t\t\tD; // to get c\n              ADD \t\t\tD; // to get c\n              PUSH 0\t\t\tD; // to get c\n              DUP3 \t\t\tD; // to get contra\n              DUP3 \t\t\tD; // to get contra\n              SLOAD \t\t\tD; // to get contra\n              ADD \t\t\tD; // to get contra\n              SWAP3 \t\t\tD; // to get contra\n              POP \t\t\tD; // to get contra\n              POP \t\t\tD; // to get contra\n              DUP2 \t\t\tD; // to get contra\n              SWAP1 \t\t\tD; // to get contra\n              SSTORE \t\t\tD; // to get contra\n              POP \t\t\tD; // to get contra\n              POP \t\t\t collection with their IDs\\r\\n...\n              JUMP \t\t\t collection with their IDs\\r\\n...\n            tag 162\t\t\tdetails with its tokenID\\r\\n  ...\n              JUMPDEST \t\t\tdetails with its tokenID\\r\\n  ...\n              PUSH 0\t\t\tlection\n              DUP2 \t\t\ttions; \n              PUSH 0\t\t\ttions; // to k\n              ADD \t\t\ttions; // to k\n              SLOAD \t\t\ttions; // to k\n              SWAP1 \t\t\tecollections; // to k\n              POP \t\t\tecollections; // to k\n              SWAP2 \t\t\tdetails with its tokenID\\r\\n  ...\n              SWAP1 \t\t\tdetails with its tokenID\\r\\n  ...\n              POP \t\t\tdetails with its tokenID\\r\\n  ...\n              JUMP \t\t\tdetails with its tokenID\\r\\n  ...\n            tag 167\t\t\t\n              JUMPDEST \t\t\t\n              PUSH [tag] 235\t\t\t\n              DUP3 \t\t\t\n              DUP3 \t\t\t\n              PUSH 40\t\t\t\n              MLOAD \t\t\t\n              DUP1 \t\t\t\n              PUSH 20\t\t\t\n              ADD \t\t\t\n              PUSH 40\t\t\t\n              MSTORE \t\t\t\n              DUP1 \t\t\t\n              PUSH 0\t\t\t\n              DUP2 \t\t\t\n              MSTORE \t\t\t\n              POP \t\t\t\n              PUSH [tag] 236\t\t\t\n              JUMP \t\t\t\n            tag 235\t\t\t\n              JUMPDEST \t\t\t\n              POP \t\t\t\n              POP \t\t\t\n              JUMP \t\t\t\n            tag 169\t\t\tionID;\\r\\n    }\\r\\n\\r\\n    fun...\n              JUMPDEST \t\t\tionID;\\r\\n    }\\r\\n\\r\\n    fun...\n              PUSH [tag] 238\t\t\t  require(STNEAR\n              DUP3 \t\t\te(STNEA\n              PUSH [tag] 177\t\t\t  requi\n              JUMP \t\t\t  require(STNEAR\n            tag 238\t\t\t  require(STNEAR\n              JUMPDEST \t\t\t  require(STNEAR\n              PUSH [tag] 239\t\t\t\\r\\n        require(STNEAR.tra...\n              JUMPI \t\t\t\\r\\n        require(STNEAR.tra...\n              PUSH 40\t\t\t\\r\\n        require(STNEAR.tra...\n              MLOAD \t\t\t\\r\\n        require(STNEAR.tra...\n              PUSH 8C379A000000000000000000000000000000000000000000000000000000000\t\t\t\\r\\n        require(STNEAR.tra...\n              DUP2 \t\t\t\\r\\n        require(STNEAR.tra...\n              MSTORE \t\t\t\\r\\n        require(STNEAR.tra...\n              PUSH 4\t\t\t\\r\\n        require(STNEAR.tra...\n              ADD \t\t\t\\r\\n        require(STNEAR.tra...\n              PUSH [tag] 240\t\t\t\\r\\n        require(STNEAR.tra...\n              SWAP1 \t\t\t\\r\\n        require(STNEAR.tra...\n              PUSH [tag] 241\t\t\t\\r\\n        require(STNEAR.tra...\n              JUMP \t\t\t\\r\\n        require(STNEAR.tra...\n            tag 240\t\t\t\\r\\n        require(STNEAR.tra...\n              JUMPDEST \t\t\t\\r\\n        require(STNEAR.tra...\n              PUSH 40\t\t\t\\r\\n        require(STNEAR.tra...\n              MLOAD \t\t\t\\r\\n        require(STNEAR.tra...\n              DUP1 \t\t\t\\r\\n        require(STNEAR.tra...\n              SWAP2 \t\t\t\\r\\n        require(STNEAR.tra...\n              SUB \t\t\t\\r\\n        require(STNEAR.tra...\n              SWAP1 \t\t\t\\r\\n        require(STNEAR.tra...\n              REVERT \t\t\t\\r\\n        require(STNEAR.tra...\n            tag 239\t\t\t\\r\\n        require(STNEAR.tra...\n              JUMPDEST \t\t\t\\r\\n        require(STNEAR.tra...\n              DUP1 \t\t\td\"); \\r\\n\\r\\n\n              PUSH 6\t\t\tAR: transf\n              PUSH 0\t\t\tAR: transferFrom fa\n              DUP5 \t\t\trFrom f\n              DUP2 \t\t\tAR: transferFrom fa\n              MSTORE \t\t\tAR: transferFrom fa\n              PUSH 20\t\t\tAR: transferFrom fa\n              ADD \t\t\tAR: transferFrom fa\n              SWAP1 \t\t\tAR: transferFrom fa\n              DUP2 \t\t\tAR: transferFrom fa\n              MSTORE \t\t\tAR: transferFrom fa\n              PUSH 20\t\t\tAR: transferFrom fa\n              ADD \t\t\tAR: transferFrom fa\n              PUSH 0\t\t\tAR: transferFrom fa\n              KECCAK256 \t\t\tAR: transferFrom fa\n              SWAP1 \t\t\tAR: transferFrom failed\"); \\r\\...\n              DUP2 \t\t\tAR: transferFrom failed\"); \\r\\...\n              PUSH [tag] 242\t\t\tAR: transferFrom failed\"); \\r\\...\n              SWAP2 \t\t\tAR: transferFrom failed\"); \\r\\...\n              SWAP1 \t\t\tAR: transferFrom failed\"); \\r\\...\n              PUSH [tag] 243\t\t\tAR: transferFrom failed\"); \\r\\...\n              JUMP \t\t\tAR: transferFrom failed\"); \\r\\...\n            tag 242\t\t\tAR: transferFrom failed\"); \\r\\...\n              JUMPDEST \t\t\tAR: transferFrom failed\"); \\r\\...\n              POP \t\t\tAR: transferFrom failed\"); \\r\\...\n              PUSH F8E1A15ABA9398E019F0B49DF1A4FDE98EE17AE345CB5F6B5E2C27F5033E8CE7\t\t\tection treecollection =\n              DUP3 \t\t\tection \n              PUSH 40\t\t\tection treecollection =\n              MLOAD \t\t\tection treecollection =\n              PUSH [tag] 244\t\t\tection treecollection =\n              SWAP2 \t\t\tection treecollection =\n              SWAP1 \t\t\tection treecollection =\n              PUSH [tag] 57\t\t\tection treecollection =\n              JUMP \t\t\tection treecollection =\n            tag 244\t\t\tection treecollection =\n              JUMPDEST \t\t\tection treecollection =\n              PUSH 40\t\t\tection treecollection =\n              MLOAD \t\t\tection treecollection =\n              DUP1 \t\t\tection treecollection =\n              SWAP2 \t\t\tection treecollection =\n              SUB \t\t\tection treecollection =\n              SWAP1 \t\t\tection treecollection =\n              LOG1 \t\t\tection treecollection =\n              POP \t\t\tionID;\\r\\n    }\\r\\n\\r\\n    fun...\n              POP \t\t\tionID;\\r\\n    }\\r\\n\\r\\n    fun...\n              JUMP \t\t\tionID;\\r\\n    }\\r\\n\\r\\n    fun...\n            tag 174\t\t\tToID[newCollection] = collecti...\n              JUMPDEST \t\t\tToID[newCollection] = collecti...\n              PUSH 0\t\t\ty _u\n              PUSH 80AC58CD00000000000000000000000000000000000000000000000000000000\t\t\trFrom(msg.sender, address\n              PUSH FFFFFFFFFFFFFFFFFFFFFFFFFFFFFFFFFFFFFFFFFFFFFFFFFFFFFFFF\t\t\t(STNEAR.transferFrom(msg.sende...\n              NOT \t\t\t(STNEAR.transferFrom(msg.sende...\n              AND \t\t\t(STNEAR.transferFrom(msg.sende...\n              DUP3 \t\t\t(STNEAR.tra\n              PUSH FFFFFFFFFFFFFFFFFFFFFFFFFFFFFFFFFFFFFFFFFFFFFFFFFFFFFFFF\t\t\t(STNEAR.transferFrom(msg.sende...\n              NOT \t\t\t(STNEAR.transferFrom(msg.sende...\n              AND \t\t\t(STNEAR.transferFrom(msg.sende...\n              EQ \t\t\t(STNEAR.transferFrom(msg.sende...\n              DUP1 \t\t\t(STNEAR.transferFrom(msg.sende...\n              PUSH [tag] 246\t\t\t(STNEAR.transferFrom(msg.sende...\n              JUMPI \t\t\t(STNEAR.transferFrom(msg.sende...\n              POP \t\t\t(STNEAR.transferFrom(msg.sende...\n              PUSH 5B5E139F00000000000000000000000000000000000000000000000000000000\t\t\t transferFrom failed\"); \\r\\n\\r...\n              PUSH FFFFFFFFFFFFFFFFFFFFFFFFFFFFFFFFFFFFFFFFFFFFFFFFFFFFFFFF\t\t\t* 24), \"STNEAR: transferFrom f...\n              NOT \t\t\t* 24), \"STNEAR: transferFrom f...\n              AND \t\t\t* 24), \"STNEAR: transferFrom f...\n              DUP3 \t\t\t* 24), \"STN\n              PUSH FFFFFFFFFFFFFFFFFFFFFFFFFFFFFFFFFFFFFFFFFFFFFFFFFFFFFFFF\t\t\t* 24), \"STNEAR: transferFrom f...\n              NOT \t\t\t* 24), \"STNEAR: transferFrom f...\n              AND \t\t\t* 24), \"STNEAR: transferFrom f...\n              EQ \t\t\t* 24), \"STNEAR: transferFrom f...\n            tag 246\t\t\t(STNEAR.transferFrom(msg.sende...\n              JUMPDEST \t\t\t(STNEAR.transferFrom(msg.sende...\n              DUP1 \t\t\t(STNEAR.transferFrom(msg.sende...\n              PUSH [tag] 247\t\t\t(STNEAR.transferFrom(msg.sende...\n              JUMPI \t\t\t(STNEAR.transferFrom(msg.sende...\n              POP \t\t\t(STNEAR.transferFrom(msg.sende...\n              PUSH [tag] 248\t\t\tn treecollection = TreeCollect...\n              DUP3 \t\t\tollection(t\n              PUSH [tag] 249\t\t\tn treecollection = Tree\n              JUMP \t\t\tn treecollection = TreeCollect...\n            tag 248\t\t\tn treecollection = TreeCollect...\n              JUMPDEST \t\t\tn treecollection = TreeCollect...\n            tag 247\t\t\t(STNEAR.transferFrom(msg.sende...\n              JUMPDEST \t\t\t(STNEAR.transferFrom(msg.sende...\n              SWAP1 \t\t\t\\r\\n\\r\\n        require(STNEAR...\n              POP \t\t\t\\r\\n\\r\\n        require(STNEAR...\n              SWAP2 \t\t\tToID[newCollection] = collecti...\n              SWAP1 \t\t\tToID[newCollection] = collecti...\n              POP \t\t\tToID[newCollection] = collecti...\n              JUMP \t\t\tToID[newCollection] = collecti...\n            tag 177\t\t\t\n              JUMPDEST \t\t\t\n              PUSH 0\t\t\t\n              DUP1 \t\t\t\n              PUSH FFFFFFFFFFFFFFFFFFFFFFFFFFFFFFFFFFFFFFFF\t\t\t\n              AND \t\t\t\n              PUSH [tag] 251\t\t\t\n              DUP4 \t\t\t\n              PUSH [tag] 126\t\t\t\n              JUMP \t\t\t\n            tag 251\t\t\t\n              JUMPDEST \t\t\t\n              PUSH FFFFFFFFFFFFFFFFFFFFFFFFFFFFFFFFFFFFFFFF\t\t\t\n              AND \t\t\t\n              EQ \t\t\t\n              ISZERO \t\t\t\n              SWAP1 \t\t\t\n              POP \t\t\t\n              SWAP2 \t\t\t\n              SWAP1 \t\t\t\n              POP \t\t\t\n              JUMP \t\t\t\n            tag 198\t\t\t\n              JUMPDEST \t\t\t\n              POP \t\t\t\n              POP \t\t\t\n              POP \t\t\t\n              POP \t\t\t\n              JUMP \t\t\t\n            tag 203\t\t\t\n              JUMPDEST \t\t\t\n              POP \t\t\t\n              POP \t\t\t\n              POP \t\t\t\n              POP \t\t\t\n              JUMP \t\t\t\n            tag 213\t\t\t\n              JUMPDEST \t\t\t\n              PUSH 0\t\t\t\n              PUSH [tag] 255\t\t\t\n              DUP5 \t\t\t\n              PUSH FFFFFFFFFFFFFFFFFFFFFFFFFFFFFFFFFFFFFFFF\t\t\t\n              AND \t\t\t\n              PUSH [tag] 256\t\t\t\n              JUMP \t\t\t\n            tag 255\t\t\t\n              JUMPDEST \t\t\t\n              ISZERO \t\t\t\n              PUSH [tag] 257\t\t\t\n              JUMPI \t\t\t\n              DUP4 \t\t\t\n              PUSH FFFFFFFFFFFFFFFFFFFFFFFFFFFFFFFFFFFFFFFF\t\t\t\n              AND \t\t\t\n              PUSH 150B7A02\t\t\t\n              PUSH [tag] 258\t\t\t\n              PUSH [tag] 104\t\t\t\n              JUMP \t\t\t\n            tag 258\t\t\t\n              JUMPDEST \t\t\t\n              DUP8 \t\t\t\n              DUP7 \t\t\t\n              DUP7 \t\t\t\n              PUSH 40\t\t\t\n              MLOAD \t\t\t\n              DUP6 \t\t\t\n              PUSH FFFFFFFF\t\t\t\n              AND \t\t\t\n              PUSH E0\t\t\t\n              SHL \t\t\t\n              DUP2 \t\t\t\n              MSTORE \t\t\t\n              PUSH 4\t\t\t\n              ADD \t\t\t\n              PUSH [tag] 259\t\t\t\n              SWAP5 \t\t\t\n              SWAP4 \t\t\t\n              SWAP3 \t\t\t\n              SWAP2 \t\t\t\n              SWAP1 \t\t\t\n              PUSH [tag] 260\t\t\t\n              JUMP \t\t\t\n            tag 259\t\t\t\n              JUMPDEST \t\t\t\n              PUSH 20\t\t\t\n              PUSH 40\t\t\t\n              MLOAD \t\t\t\n              DUP1 \t\t\t\n              DUP4 \t\t\t\n              SUB \t\t\t\n              DUP2 \t\t\t\n              PUSH 0\t\t\t\n              DUP8 \t\t\t\n              GAS \t\t\t\n              CALL \t\t\t\n              SWAP3 \t\t\t\n              POP \t\t\t\n              POP \t\t\t\n              POP \t\t\t\n              DUP1 \t\t\t\n              ISZERO \t\t\t\n              PUSH [tag] 261\t\t\t\n              JUMPI \t\t\t\n              POP \t\t\t\n              PUSH 40\t\t\t\n              MLOAD \t\t\t\n              RETURNDATASIZE \t\t\t\n              PUSH 1F\t\t\t\n              NOT \t\t\t\n              PUSH 1F\t\t\t\n              DUP3 \t\t\t\n              ADD \t\t\t\n              AND \t\t\t\n              DUP3 \t\t\t\n              ADD \t\t\t\n              DUP1 \t\t\t\n              PUSH 40\t\t\t\n              MSTORE \t\t\t\n              POP \t\t\t\n              DUP2 \t\t\t\n              ADD \t\t\t\n              SWAP1 \t\t\t\n              PUSH [tag] 262\t\t\t\n              SWAP2 \t\t\t\n              SWAP1 \t\t\t\n              PUSH [tag] 263\t\t\t\n              JUMP \t\t\t\n            tag 262\t\t\t\n              JUMPDEST \t\t\t\n              PUSH 1\t\t\t\n            tag 261\t\t\t\n              JUMPDEST \t\t\t\n              PUSH [tag] 264\t\t\t\n              JUMPI \t\t\t\n              RETURNDATASIZE \t\t\t\n              DUP1 \t\t\t\n              PUSH 0\t\t\t\n              DUP2 \t\t\t\n              EQ \t\t\t\n              PUSH [tag] 269\t\t\t\n              JUMPI \t\t\t\n              PUSH 40\t\t\t\n              MLOAD \t\t\t\n              SWAP2 \t\t\t\n              POP \t\t\t\n              PUSH 1F\t\t\t\n              NOT \t\t\t\n              PUSH 3F\t\t\t\n              RETURNDATASIZE \t\t\t\n              ADD \t\t\t\n              AND \t\t\t\n              DUP3 \t\t\t\n              ADD \t\t\t\n              PUSH 40\t\t\t\n              MSTORE \t\t\t\n              RETURNDATASIZE \t\t\t\n              DUP3 \t\t\t\n              MSTORE \t\t\t\n              RETURNDATASIZE \t\t\t\n              PUSH 0\t\t\t\n              PUSH 20\t\t\t\n              DUP5 \t\t\t\n              ADD \t\t\t\n              RETURNDATACOPY \t\t\t\n              PUSH [tag] 268\t\t\t\n              JUMP \t\t\t\n            tag 269\t\t\t\n              JUMPDEST \t\t\t\n              PUSH 60\t\t\t\n              SWAP2 \t\t\t\n              POP \t\t\t\n            tag 268\t\t\t\n              JUMPDEST \t\t\t\n              POP \t\t\t\n              PUSH 0\t\t\t\n              DUP2 \t\t\t\n              MLOAD \t\t\t\n              SUB \t\t\t\n              PUSH [tag] 270\t\t\t\n              JUMPI \t\t\t\n              PUSH 40\t\t\t\n              MLOAD \t\t\t\n              PUSH 8C379A000000000000000000000000000000000000000000000000000000000\t\t\t\n              DUP2 \t\t\t\n              MSTORE \t\t\t\n              PUSH 4\t\t\t\n              ADD \t\t\t\n              PUSH [tag] 271\t\t\t\n              SWAP1 \t\t\t\n              PUSH [tag] 216\t\t\t\n              JUMP \t\t\t\n            tag 271\t\t\t\n              JUMPDEST \t\t\t\n              PUSH 40\t\t\t\n              MLOAD \t\t\t\n              DUP1 \t\t\t\n              SWAP2 \t\t\t\n              SUB \t\t\t\n              SWAP1 \t\t\t\n              REVERT \t\t\t\n            tag 270\t\t\t\n              JUMPDEST \t\t\t\n              DUP1 \t\t\t\n              MLOAD \t\t\t\n              DUP2 \t\t\t\n              PUSH 20\t\t\t\n              ADD \t\t\t\n              REVERT \t\t\t\n            tag 264\t\t\t\n              JUMPDEST \t\t\t\n              PUSH 150B7A02\t\t\t\n              PUSH E0\t\t\t\n              SHL \t\t\t\n              PUSH FFFFFFFFFFFFFFFFFFFFFFFFFFFFFFFFFFFFFFFFFFFFFFFFFFFFFFFF\t\t\t\n              NOT \t\t\t\n              AND \t\t\t\n              DUP2 \t\t\t\n              PUSH FFFFFFFFFFFFFFFFFFFFFFFFFFFFFFFFFFFFFFFFFFFFFFFFFFFFFFFF\t\t\t\n              NOT \t\t\t\n              AND \t\t\t\n              EQ \t\t\t\n              SWAP2 \t\t\t\n              POP \t\t\t\n              POP \t\t\t\n              PUSH [tag] 254\t\t\t\n              JUMP \t\t\t\n            tag 257\t\t\t\n              JUMPDEST \t\t\t\n              PUSH 1\t\t\t\n              SWAP1 \t\t\t\n              POP \t\t\t\n            tag 254\t\t\t\n              JUMPDEST \t\t\t\n              SWAP5 \t\t\t\n              SWAP4 \t\t\t\n              POP \t\t\t\n              POP \t\t\t\n              POP \t\t\t\n              POP \t\t\t\n              JUMP \t\t\t\n            tag 225\t\t\tD].tokensYielded += 5;\\r\\n    ...\n              JUMPDEST \t\t\tD].tokensYielded += 5;\\r\\n    ...\n              PUSH 60\t\t\t* 10 ** 18);\\r\n              PUSH 40\t\t\teturn tru\n              MLOAD \t\t\teturn tru\n              DUP1 \t\t\teturn tru\n              PUSH 20\t\t\teturn tru\n              ADD \t\t\teturn tru\n              PUSH 40\t\t\teturn tru\n              MSTORE \t\t\teturn tru\n              DUP1 \t\t\teturn tru\n              PUSH 0\t\t\teturn tru\n              DUP2 \t\t\teturn tru\n              MSTORE \t\t\teturn tru\n              POP \t\t\teturn tru\n              SWAP1 \t\t\teturn tru\n              POP \t\t\teturn tru\n              SWAP1 \t\t\tD].tokensYielded += 5;\\r\\n    ...\n              JUMP \t\t\tD].tokensYielded += 5;\\r\\n    ...\n            tag 231\t\t\teeCollection(treecollections[_...\n              JUMPDEST \t\t\teeCollection(treecollections[_...\n              PUSH 60\t\t\tection.ownerO\n              PUSH [tag] 277\t\t\t== msg.sender, \"You are\n              DUP3 \t\t\t\"You ar\n              PUSH [tag] 97\t\t\t== msg.sender,\n              JUMP \t\t\t== msg.sender, \"You are\n            tag 277\t\t\t== msg.sender, \"You are\n              JUMPDEST \t\t\t== msg.sender, \"You are\n              PUSH 0\t\t\tner\");\\r\\n\\r\\n        req\n              PUSH [tag] 278\t\t\te(block.ti\n              PUSH [tag] 225\t\t\te(block.\n              JUMP \t\t\te(block.ti\n            tag 278\t\t\te(block.ti\n              JUMPDEST \t\t\te(block.ti\n              SWAP1 \t\t\tner\");\\r\\n\\r\\n        require(...\n              POP \t\t\tner\");\\r\\n\\r\\n        require(...\n              PUSH 0\t\t\ta\n              DUP2 \t\t\tlection\n              MLOAD \t\t\te[_collectionID].tree\n              GT \t\t\te[_collectionID].treeDeta\n              PUSH [tag] 279\t\t\te[_collectionID].treeDetails[_...\n              JUMPI \t\t\te[_collectionID].treeDetails[_...\n              PUSH 40\t\t\te[_collectionID].treeDetails[_...\n              MLOAD \t\t\te[_collectionID].treeDetails[_...\n              DUP1 \t\t\te[_collectionID].treeDetails[_...\n              PUSH 20\t\t\te[_collectionID].treeDetails[_...\n              ADD \t\t\te[_collectionID].treeDetails[_...\n              PUSH 40\t\t\te[_collectionID].treeDetails[_...\n              MSTORE \t\t\te[_collectionID].treeDetails[_...\n              DUP1 \t\t\te[_collectionID].treeDetails[_...\n              PUSH 0\t\t\te[_collectionID].treeDetails[_...\n              DUP2 \t\t\te[_collectionID].treeDetails[_...\n              MSTORE \t\t\te[_collectionID].treeDetails[_...\n              POP \t\t\te[_collectionID].treeDetails[_...\n              PUSH [tag] 280\t\t\te[_collectionID].treeDetails[_...\n              JUMP \t\t\te[_collectionID].treeDetails[_...\n            tag 279\t\t\te[_collectionID].treeDetails[_...\n              JUMPDEST \t\t\te[_collectionID].treeDetails[_...\n              DUP1 \t\t\t= 43200\n              PUSH [tag] 281\t\t\t\"Water First\");\\r\\n \n              DUP5 \t\t\t\"Water \n              PUSH [tag] 282\t\t\t\"Water First\");\\r\n              JUMP \t\t\t\"Water First\");\\r\\n \n            tag 281\t\t\t\"Water First\");\\r\\n \n              JUMPDEST \t\t\t\"Water First\");\\r\\n \n              PUSH 40\t\t\tID].lastWatered <= 43200, \"Wat...\n              MLOAD \t\t\tID].lastWatered <= 43200, \"Wat...\n              PUSH 20\t\t\tID].lastWatered <= 43200, \"Wat...\n              ADD \t\t\tID].lastWatered <= 43200, \"Wat...\n              PUSH [tag] 283\t\t\tID].lastWatered <= 43200, \"Wat...\n              SWAP3 \t\t\tID].lastWatered <= 43200, \"Wat...\n              SWAP2 \t\t\tID].lastWatered <= 43200, \"Wat...\n              SWAP1 \t\t\tID].lastWatered <= 43200, \"Wat...\n              PUSH [tag] 229\t\t\tID].lastWatered <= 43200, \"Wat...\n              JUMP \t\t\tID].lastWatered <= 43200, \"Wat...\n            tag 283\t\t\tID].lastWatered <= 43200, \"Wat...\n              JUMPDEST \t\t\tID].lastWatered <= 43200, \"Wat...\n              PUSH 40\t\t\tID].lastWatered <= 43200, \"Wat...\n              MLOAD \t\t\tID].lastWatered <= 43200, \"Wat...\n              PUSH 20\t\t\tID].lastWatered <= 43200, \"Wat...\n              DUP2 \t\t\tID].lastWatered <= 43200, \"Wat...\n              DUP4 \t\t\tID].lastWatered <= 43200, \"Wat...\n              SUB \t\t\tID].lastWatered <= 43200, \"Wat...\n              SUB \t\t\tID].lastWatered <= 43200, \"Wat...\n              DUP2 \t\t\tID].lastWatered <= 43200, \"Wat...\n              MSTORE \t\t\tID].lastWatered <= 43200, \"Wat...\n              SWAP1 \t\t\tID].lastWatered <= 43200, \"Wat...\n              PUSH 40\t\t\tID].lastWatered <= 43200, \"Wat...\n              MSTORE \t\t\tID].lastWatered <= 43200, \"Wat...\n            tag 280\t\t\te[_collectionID].treeDetails[_...\n              JUMPDEST \t\t\te[_collectionID].treeDetails[_...\n              SWAP2 \t\t\tuserTree[_collectionID].treeDe...\n              POP \t\t\tuserTree[_collectionID].treeDe...\n              POP \t\t\tuserTree[_collectionID].treeDe...\n              SWAP2 \t\t\teeCollection(treecollections[_...\n              SWAP1 \t\t\teeCollection(treecollections[_...\n              POP \t\t\teeCollection(treecollections[_...\n              JUMP \t\t\teeCollection(treecollections[_...\n            tag 236\t\t\t\n              JUMPDEST \t\t\t\n              PUSH [tag] 285\t\t\t\n              DUP4 \t\t\t\n              DUP4 \t\t\t\n              PUSH [tag] 286\t\t\t\n              JUMP \t\t\t\n            tag 285\t\t\t\n              JUMPDEST \t\t\t\n              PUSH [tag] 287\t\t\t\n              PUSH 0\t\t\t\n              DUP5 \t\t\t\n              DUP5 \t\t\t\n              DUP5 \t\t\t\n              PUSH [tag] 213\t\t\t\n              JUMP \t\t\t\n            tag 287\t\t\t\n              JUMPDEST \t\t\t\n              PUSH [tag] 288\t\t\t\n              JUMPI \t\t\t\n              PUSH 40\t\t\t\n              MLOAD \t\t\t\n              PUSH 8C379A000000000000000000000000000000000000000000000000000000000\t\t\t\n              DUP2 \t\t\t\n              MSTORE \t\t\t\n              PUSH 4\t\t\t\n              ADD \t\t\t\n              PUSH [tag] 289\t\t\t\n              SWAP1 \t\t\t\n              PUSH [tag] 216\t\t\t\n              JUMP \t\t\t\n            tag 289\t\t\t\n              JUMPDEST \t\t\t\n              PUSH 40\t\t\t\n              MLOAD \t\t\t\n              DUP1 \t\t\t\n              SWAP2 \t\t\t\n              SUB \t\t\t\n              SWAP1 \t\t\t\n              REVERT \t\t\t\n            tag 288\t\t\t\n              JUMPDEST \t\t\t\n              POP \t\t\t\n              POP \t\t\t\n              POP \t\t\t\n              JUMP \t\t\t\n            tag 249\t\t\ttails with its tokenID\\r\\n    ...\n              JUMPDEST \t\t\ttails with its tokenID\\r\\n    ...\n              PUSH 0\t\t\tllec\n              PUSH 1FFC9A700000000000000000000000000000000000000000000000000000000\t\t\ttion with their IDs\\r\\n    \n              PUSH FFFFFFFFFFFFFFFFFFFFFFFFFFFFFFFFFFFFFFFFFFFFFFFFFFFFFFFF\t\t\tecord of collection with their...\n              NOT \t\t\tecord of collection with their...\n              AND \t\t\tecord of collection with their...\n              DUP3 \t\t\tecord of co\n              PUSH FFFFFFFFFFFFFFFFFFFFFFFFFFFFFFFFFFFFFFFFFFFFFFFFFFFFFFFF\t\t\tecord of collection with their...\n              NOT \t\t\tecord of collection with their...\n              AND \t\t\tecord of collection with their...\n              EQ \t\t\tecord of collection with their...\n              SWAP1 \t\t\t keep record of collection wit...\n              POP \t\t\t keep record of collection wit...\n              SWAP2 \t\t\ttails with its tokenID\\r\\n    ...\n              SWAP1 \t\t\ttails with its tokenID\\r\\n    ...\n              POP \t\t\ttails with its tokenID\\r\\n    ...\n              JUMP \t\t\ttails with its tokenID\\r\\n    ...\n            tag 256\t\t\trrent();\\r\\n        TreeCollec...\n              JUMPDEST \t\t\trrent();\\r\\n        TreeCollec...\n              PUSH 0\t\t\tlect\n              DUP1 \t\t\tr\n              DUP3 \t\t\tquire(S\n              PUSH FFFFFFFFFFFFFFFFFFFFFFFFFFFFFFFFFFFFFFFF\t\t\tquire(STNEAR.transf\n              AND \t\t\tquire(STNEAR.transf\n              EXTCODESIZE \t\t\tquire(STNEAR.transf\n              GT \t\t\tquire(STNEAR.transferFr\n              SWAP1 \t\t\t     require(STNEAR.transferFr\n              POP \t\t\t     require(STNEAR.transferFr\n              SWAP2 \t\t\trrent();\\r\\n        TreeCollec...\n              SWAP1 \t\t\trrent();\\r\\n        TreeCollec...\n              POP \t\t\trrent();\\r\\n        TreeCollec...\n              JUMP \t\t\trrent();\\r\\n        TreeCollec...\n            tag 282\t\t\t0(_token);\\r\\n    }\\r\\n\\r\\n   ...\n              JUMPDEST \t\t\t0(_token);\\r\\n    }\\r\\n\\r\\n   ...\n              PUSH 60\t\t\t56 amount) in\n              PUSH 0\t\t\t\\n    }\\r\\n\\r\\n    \n              PUSH 1\t\t\t \n              PUSH [tag] 293\t\t\tuct TreeDetails{\\r\n              DUP5 \t\t\tails{\n              PUSH [tag] 294\t\t\tuct TreeDe\n              JUMP \t\t\tuct TreeDetails{\\r\n            tag 293\t\t\tuct TreeDetails{\\r\n              JUMPDEST \t\t\tuct TreeDetails{\\r\n              ADD \t\t\tuct TreeDetails{\\r\\n   \n              SWAP1 \t\t\t\\n    }\\r\\n\\r\\n    struct Tree...\n              POP \t\t\t\\n    }\\r\\n\\r\\n    struct Tree...\n              PUSH 0\t\t\tastWatered;\\r\\n       \n              DUP2 \t\t\tlaimed\n              PUSH FFFFFFFFFFFFFFFF\t\t\tnt256 lastClaimed;\n              DUP2 \t\t\tnt256 lastClaimed;\n              GT \t\t\tnt256 lastClaimed;\n              ISZERO \t\t\tnt256 lastClaimed;\n              PUSH [tag] 295\t\t\tnt256 lastClaimed;\n              JUMPI \t\t\tnt256 lastClaimed;\n              PUSH [tag] 296\t\t\tnt256 lastClaimed;\n              PUSH [tag] 297\t\t\tnt256 lastClaimed;\n              JUMP \t\t\tnt256 lastClaimed;\n            tag 296\t\t\tnt256 lastClaimed;\n              JUMPDEST \t\t\tnt256 lastClaimed;\n            tag 295\t\t\tnt256 lastClaimed;\n              JUMPDEST \t\t\tnt256 lastClaimed;\n              PUSH 40\t\t\tnt256 lastClaimed;\n              MLOAD \t\t\tnt256 lastClaimed;\n              SWAP1 \t\t\tnt256 lastClaimed;\n              DUP1 \t\t\tnt256 lastClaimed;\n              DUP3 \t\t\tnt256 lastClaimed;\n              MSTORE \t\t\tnt256 lastClaimed;\n              DUP1 \t\t\tnt256 lastClaimed;\n              PUSH 1F\t\t\tnt256 lastClaimed;\n              ADD \t\t\tnt256 lastClaimed;\n              PUSH 1F\t\t\tnt256 lastClaimed;\n              NOT \t\t\tnt256 lastClaimed;\n              AND \t\t\tnt256 lastClaimed;\n              PUSH 20\t\t\tnt256 lastClaimed;\n              ADD \t\t\tnt256 lastClaimed;\n              DUP3 \t\t\tnt256 lastClaimed;\n              ADD \t\t\tnt256 lastClaimed;\n              PUSH 40\t\t\tnt256 lastClaimed;\n              MSTORE \t\t\tnt256 lastClaimed;\n              DUP1 \t\t\tnt256 lastClaimed;\n              ISZERO \t\t\tnt256 lastClaimed;\n              PUSH [tag] 298\t\t\tnt256 lastClaimed;\n              JUMPI \t\t\tnt256 lastClaimed;\n              DUP2 \t\t\tnt256 lastClaimed;\n              PUSH 20\t\t\tnt256 lastClaimed;\n              ADD \t\t\tnt256 lastClaimed;\n              PUSH 1\t\t\tnt256 lastClaimed;\n              DUP3 \t\t\tnt256 lastClaimed;\n              MUL \t\t\tnt256 lastClaimed;\n              DUP1 \t\t\tnt256 lastClaimed;\n              CALLDATASIZE \t\t\tnt256 lastClaimed;\n              DUP4 \t\t\tnt256 lastClaimed;\n              CALLDATACOPY \t\t\tnt256 lastClaimed;\n              DUP1 \t\t\tnt256 lastClaimed;\n              DUP3 \t\t\tnt256 lastClaimed;\n              ADD \t\t\tnt256 lastClaimed;\n              SWAP2 \t\t\tnt256 lastClaimed;\n              POP \t\t\tnt256 lastClaimed;\n              POP \t\t\tnt256 lastClaimed;\n              SWAP1 \t\t\tnt256 lastClaimed;\n              POP \t\t\tnt256 lastClaimed;\n            tag 298\t\t\tnt256 lastClaimed;\n              JUMPDEST \t\t\tnt256 lastClaimed;\n              POP \t\t\tnt256 lastClaimed;\n              SWAP1 \t\t\tastWatered;\\r\\n        uint256...\n              POP \t\t\tastWatered;\\r\\n        uint256...\n              PUSH 0\t\t\t256 watered\n              DUP3 \t\t\tls) tr\n              PUSH 20\t\t\tet\n              ADD \t\t\treeDetails) tre\n              DUP3 \t\t\t256 =>\n              ADD \t\t\tuint256 => TreeDetails) tree\n              SWAP1 \t\t\tapping(uint256 => TreeDetails)...\n              POP \t\t\tapping(uint256 => TreeDetails)...\n            tag 299\t\t\te user details with its tokenI...\n              JUMPDEST \t\t\te user details with its tokenI...\n              PUSH 1\t\t\tdeta\n              ISZERO \t\t\te user details with its tokenI...\n              PUSH [tag] 300\t\t\te user details with its tokenI...\n              JUMPI \t\t\te user details with its tokenI...\n              DUP1 \t\t\t\\r\\n   \n              DUP1 \t\t\t\\r\\n   \n              PUSH 1\t\t\t\\r\\n   \n              SWAP1 \t\t\t\\r\\n   \n              SUB \t\t\t\\r\\n   \n              SWAP2 \t\t\t\\r\\n   \n              POP \t\t\t\\r\\n   \n              POP \t\t\t\\r\\n   \n              PUSH 3031323334353637383961626364656600000000000000000000000000000000\t\t\tollectio\n              PUSH A\t\t\tTr\n              DUP7 \t\t\tappin\n              MOD \t\t\t   mapping(Tre\n              BYTE \t\t\tDs\\r\\n    mapping(TreeCollecti...\n              DUP2 \t\t\teir\n              MSTORE8 \t\t\t with their IDs\\r\\n    mapping...\n              PUSH A\t\t\t c\n              DUP6 \t\t\t// to get c\n              DUP2 \t\t\t// to get c\n              PUSH [tag] 301\t\t\t// to get c\n              JUMPI \t\t\t// to get c\n              PUSH [tag] 302\t\t\t// to get c\n              PUSH [tag] 303\t\t\t// to get c\n              JUMP \t\t\t// to get c\n            tag 302\t\t\t// to get c\n              JUMPDEST \t\t\t// to get c\n            tag 301\t\t\t// to get c\n              JUMPDEST \t\t\t// to get c\n              DIV \t\t\t// to get c\n              SWAP5 \t\t\t// to get c\n              POP \t\t\t// to get c\n              PUSH 0\t\t\ts\n              DUP6 \t\t\t thei\n              SUB \t\t\t their IDs\n              PUSH [tag] 299\t\t\te user details with its tokenI...\n              JUMPI \t\t\tsing their IDs\\r\\n    m\n            tag 300\t\t\te user details with its tokenI...\n              JUMPDEST \t\t\te user details with its tokenI...\n              DUP2 \t\t\tuserTr\n              SWAP4 \t\t\tpping) userTr\n              POP \t\t\tpping) userTr\n              POP \t\t\tpping) userTr\n              POP \t\t\tpping) userTr\n              POP \t\t\tpping) userTr\n              SWAP2 \t\t\t0(_token);\\r\\n    }\\r\\n\\r\\n   ...\n              SWAP1 \t\t\t0(_token);\\r\\n    }\\r\\n\\r\\n   ...\n              POP \t\t\t0(_token);\\r\\n    }\\r\\n\\r\\n   ...\n              JUMP \t\t\t0(_token);\\r\\n    }\\r\\n\\r\\n   ...\n            tag 286\t\t\t\n              JUMPDEST \t\t\t\n              PUSH 0\t\t\t\n              PUSH FFFFFFFFFFFFFFFFFFFFFFFFFFFFFFFFFFFFFFFF\t\t\t\n              AND \t\t\t\n              DUP3 \t\t\t\n              PUSH FFFFFFFFFFFFFFFFFFFFFFFFFFFFFFFFFFFFFFFF\t\t\t\n              AND \t\t\t\n              SUB \t\t\t\n              PUSH [tag] 306\t\t\t\n              JUMPI \t\t\t\n              PUSH 40\t\t\t\n              MLOAD \t\t\t\n              PUSH 8C379A000000000000000000000000000000000000000000000000000000000\t\t\t\n              DUP2 \t\t\t\n              MSTORE \t\t\t\n              PUSH 4\t\t\t\n              ADD \t\t\t\n              PUSH [tag] 307\t\t\t\n              SWAP1 \t\t\t\n              PUSH [tag] 308\t\t\t\n              JUMP \t\t\t\n            tag 307\t\t\t\n              JUMPDEST \t\t\t\n              PUSH 40\t\t\t\n              MLOAD \t\t\t\n              DUP1 \t\t\t\n              SWAP2 \t\t\t\n              SUB \t\t\t\n              SWAP1 \t\t\t\n              REVERT \t\t\t\n            tag 306\t\t\t\n              JUMPDEST \t\t\t\n              PUSH [tag] 309\t\t\t\n              DUP2 \t\t\t\n              PUSH [tag] 177\t\t\t\n              JUMP \t\t\t\n            tag 309\t\t\t\n              JUMPDEST \t\t\t\n              ISZERO \t\t\t\n              PUSH [tag] 310\t\t\t\n              JUMPI \t\t\t\n              PUSH 40\t\t\t\n              MLOAD \t\t\t\n              PUSH 8C379A000000000000000000000000000000000000000000000000000000000\t\t\t\n              DUP2 \t\t\t\n              MSTORE \t\t\t\n              PUSH 4\t\t\t\n              ADD \t\t\t\n              PUSH [tag] 311\t\t\t\n              SWAP1 \t\t\t\n              PUSH [tag] 312\t\t\t\n              JUMP \t\t\t\n            tag 311\t\t\t\n              JUMPDEST \t\t\t\n              PUSH 40\t\t\t\n              MLOAD \t\t\t\n              DUP1 \t\t\t\n              SWAP2 \t\t\t\n              SUB \t\t\t\n              SWAP1 \t\t\t\n              REVERT \t\t\t\n            tag 310\t\t\t\n              JUMPDEST \t\t\t\n              PUSH [tag] 313\t\t\t\n              PUSH 0\t\t\t\n              DUP4 \t\t\t\n              DUP4 \t\t\t\n              PUSH 1\t\t\t\n              PUSH [tag] 198\t\t\t\n              JUMP \t\t\t\n            tag 313\t\t\t\n              JUMPDEST \t\t\t\n              PUSH [tag] 314\t\t\t\n              DUP2 \t\t\t\n              PUSH [tag] 177\t\t\t\n              JUMP \t\t\t\n            tag 314\t\t\t\n              JUMPDEST \t\t\t\n              ISZERO \t\t\t\n              PUSH [tag] 315\t\t\t\n              JUMPI \t\t\t\n              PUSH 40\t\t\t\n              MLOAD \t\t\t\n              PUSH 8C379A000000000000000000000000000000000000000000000000000000000\t\t\t\n              DUP2 \t\t\t\n              MSTORE \t\t\t\n              PUSH 4\t\t\t\n              ADD \t\t\t\n              PUSH [tag] 316\t\t\t\n              SWAP1 \t\t\t\n              PUSH [tag] 312\t\t\t\n              JUMP \t\t\t\n            tag 316\t\t\t\n              JUMPDEST \t\t\t\n              PUSH 40\t\t\t\n              MLOAD \t\t\t\n              DUP1 \t\t\t\n              SWAP2 \t\t\t\n              SUB \t\t\t\n              SWAP1 \t\t\t\n              REVERT \t\t\t\n            tag 315\t\t\t\n              JUMPDEST \t\t\t\n              PUSH 1\t\t\t\n              PUSH 3\t\t\t\n              PUSH 0\t\t\t\n              DUP5 \t\t\t\n              PUSH FFFFFFFFFFFFFFFFFFFFFFFFFFFFFFFFFFFFFFFF\t\t\t\n              AND \t\t\t\n              PUSH FFFFFFFFFFFFFFFFFFFFFFFFFFFFFFFFFFFFFFFF\t\t\t\n              AND \t\t\t\n              DUP2 \t\t\t\n              MSTORE \t\t\t\n              PUSH 20\t\t\t\n              ADD \t\t\t\n              SWAP1 \t\t\t\n              DUP2 \t\t\t\n              MSTORE \t\t\t\n              PUSH 20\t\t\t\n              ADD \t\t\t\n              PUSH 0\t\t\t\n              KECCAK256 \t\t\t\n              PUSH 0\t\t\t\n              DUP3 \t\t\t\n              DUP3 \t\t\t\n              SLOAD \t\t\t\n              ADD \t\t\t\n              SWAP3 \t\t\t\n              POP \t\t\t\n              POP \t\t\t\n              DUP2 \t\t\t\n              SWAP1 \t\t\t\n              SSTORE \t\t\t\n              POP \t\t\t\n              DUP2 \t\t\t\n              PUSH 2\t\t\t\n              PUSH 0\t\t\t\n              DUP4 \t\t\t\n              DUP2 \t\t\t\n              MSTORE \t\t\t\n              PUSH 20\t\t\t\n              ADD \t\t\t\n              SWAP1 \t\t\t\n              DUP2 \t\t\t\n              MSTORE \t\t\t\n              PUSH 20\t\t\t\n              ADD \t\t\t\n              PUSH 0\t\t\t\n              KECCAK256 \t\t\t\n              PUSH 0\t\t\t\n              PUSH 100\t\t\t\n              EXP \t\t\t\n              DUP2 \t\t\t\n              SLOAD \t\t\t\n              DUP2 \t\t\t\n              PUSH FFFFFFFFFFFFFFFFFFFFFFFFFFFFFFFFFFFFFFFF\t\t\t\n              MUL \t\t\t\n              NOT \t\t\t\n              AND \t\t\t\n              SWAP1 \t\t\t\n              DUP4 \t\t\t\n              PUSH FFFFFFFFFFFFFFFFFFFFFFFFFFFFFFFFFFFFFFFF\t\t\t\n              AND \t\t\t\n              MUL \t\t\t\n              OR \t\t\t\n              SWAP1 \t\t\t\n              SSTORE \t\t\t\n              POP \t\t\t\n              DUP1 \t\t\t\n              DUP3 \t\t\t\n              PUSH FFFFFFFFFFFFFFFFFFFFFFFFFFFFFFFFFFFFFFFF\t\t\t\n              AND \t\t\t\n              PUSH 0\t\t\t\n              PUSH FFFFFFFFFFFFFFFFFFFFFFFFFFFFFFFFFFFFFFFF\t\t\t\n              AND \t\t\t\n              PUSH DDF252AD1BE2C89B69C2B068FC378DAA952BA7F163C4A11628F55A4DF523B3EF\t\t\t\n              PUSH 40\t\t\t\n              MLOAD \t\t\t\n              PUSH 40\t\t\t\n              MLOAD \t\t\t\n              DUP1 \t\t\t\n              SWAP2 \t\t\t\n              SUB \t\t\t\n              SWAP1 \t\t\t\n              LOG4 \t\t\t\n              PUSH [tag] 317\t\t\t\n              PUSH 0\t\t\t\n              DUP4 \t\t\t\n              DUP4 \t\t\t\n              PUSH 1\t\t\t\n              PUSH [tag] 203\t\t\t\n              JUMP \t\t\t\n            tag 317\t\t\t\n              JUMPDEST \t\t\t\n              POP \t\t\t\n              POP \t\t\t\n              JUMP \t\t\t\n            tag 294\t\t\t\n              JUMPDEST \t\t\t\n              PUSH 0\t\t\t\n              DUP1 \t\t\t\n              PUSH 0\t\t\t\n              SWAP1 \t\t\t\n              POP \t\t\t\n              PUSH 184F03E93FF9F4DAA797ED6E38ED64BF6A1F010000000000000000\t\t\t\n              DUP4 \t\t\t\n              LT \t\t\t\n              PUSH [tag] 319\t\t\t\n              JUMPI \t\t\t\n              PUSH 184F03E93FF9F4DAA797ED6E38ED64BF6A1F010000000000000000\t\t\t\n              DUP4 \t\t\t\n              DUP2 \t\t\t\n              PUSH [tag] 320\t\t\t\n              JUMPI \t\t\t\n              PUSH [tag] 321\t\t\t\n              PUSH [tag] 303\t\t\t\n              JUMP \t\t\t\n            tag 321\t\t\t\n              JUMPDEST \t\t\t\n            tag 320\t\t\t\n              JUMPDEST \t\t\t\n              DIV \t\t\t\n              SWAP3 \t\t\t\n              POP \t\t\t\n              PUSH 40\t\t\t\n              DUP2 \t\t\t\n              ADD \t\t\t\n              SWAP1 \t\t\t\n              POP \t\t\t\n            tag 319\t\t\t\n              JUMPDEST \t\t\t\n              PUSH 4EE2D6D415B85ACEF8100000000\t\t\t\n              DUP4 \t\t\t\n              LT \t\t\t\n              PUSH [tag] 322\t\t\t\n              JUMPI \t\t\t\n              PUSH 4EE2D6D415B85ACEF8100000000\t\t\t\n              DUP4 \t\t\t\n              DUP2 \t\t\t\n              PUSH [tag] 323\t\t\t\n              JUMPI \t\t\t\n              PUSH [tag] 324\t\t\t\n              PUSH [tag] 303\t\t\t\n              JUMP \t\t\t\n            tag 324\t\t\t\n              JUMPDEST \t\t\t\n            tag 323\t\t\t\n              JUMPDEST \t\t\t\n              DIV \t\t\t\n              SWAP3 \t\t\t\n              POP \t\t\t\n              PUSH 20\t\t\t\n              DUP2 \t\t\t\n              ADD \t\t\t\n              SWAP1 \t\t\t\n              POP \t\t\t\n            tag 322\t\t\t\n              JUMPDEST \t\t\t\n              PUSH 2386F26FC10000\t\t\t\n              DUP4 \t\t\t\n              LT \t\t\t\n              PUSH [tag] 325\t\t\t\n              JUMPI \t\t\t\n              PUSH 2386F26FC10000\t\t\t\n              DUP4 \t\t\t\n              DUP2 \t\t\t\n              PUSH [tag] 326\t\t\t\n              JUMPI \t\t\t\n              PUSH [tag] 327\t\t\t\n              PUSH [tag] 303\t\t\t\n              JUMP \t\t\t\n            tag 327\t\t\t\n              JUMPDEST \t\t\t\n            tag 326\t\t\t\n              JUMPDEST \t\t\t\n              DIV \t\t\t\n              SWAP3 \t\t\t\n              POP \t\t\t\n              PUSH 10\t\t\t\n              DUP2 \t\t\t\n              ADD \t\t\t\n              SWAP1 \t\t\t\n              POP \t\t\t\n            tag 325\t\t\t\n              JUMPDEST \t\t\t\n              PUSH 5F5E100\t\t\t\n              DUP4 \t\t\t\n              LT \t\t\t\n              PUSH [tag] 328\t\t\t\n              JUMPI \t\t\t\n              PUSH 5F5E100\t\t\t\n              DUP4 \t\t\t\n              DUP2 \t\t\t\n              PUSH [tag] 329\t\t\t\n              JUMPI \t\t\t\n              PUSH [tag] 330\t\t\t\n              PUSH [tag] 303\t\t\t\n              JUMP \t\t\t\n            tag 330\t\t\t\n              JUMPDEST \t\t\t\n            tag 329\t\t\t\n              JUMPDEST \t\t\t\n              DIV \t\t\t\n              SWAP3 \t\t\t\n              POP \t\t\t\n              PUSH 8\t\t\t\n              DUP2 \t\t\t\n              ADD \t\t\t\n              SWAP1 \t\t\t\n              POP \t\t\t\n            tag 328\t\t\t\n              JUMPDEST \t\t\t\n              PUSH 2710\t\t\t\n              DUP4 \t\t\t\n              LT \t\t\t\n              PUSH [tag] 331\t\t\t\n              JUMPI \t\t\t\n              PUSH 2710\t\t\t\n              DUP4 \t\t\t\n              DUP2 \t\t\t\n              PUSH [tag] 332\t\t\t\n              JUMPI \t\t\t\n              PUSH [tag] 333\t\t\t\n              PUSH [tag] 303\t\t\t\n              JUMP \t\t\t\n            tag 333\t\t\t\n              JUMPDEST \t\t\t\n            tag 332\t\t\t\n              JUMPDEST \t\t\t\n              DIV \t\t\t\n              SWAP3 \t\t\t\n              POP \t\t\t\n              PUSH 4\t\t\t\n              DUP2 \t\t\t\n              ADD \t\t\t\n              SWAP1 \t\t\t\n              POP \t\t\t\n            tag 331\t\t\t\n              JUMPDEST \t\t\t\n              PUSH 64\t\t\t\n              DUP4 \t\t\t\n              LT \t\t\t\n              PUSH [tag] 334\t\t\t\n              JUMPI \t\t\t\n              PUSH 64\t\t\t\n              DUP4 \t\t\t\n              DUP2 \t\t\t\n              PUSH [tag] 335\t\t\t\n              JUMPI \t\t\t\n              PUSH [tag] 336\t\t\t\n              PUSH [tag] 303\t\t\t\n              JUMP \t\t\t\n            tag 336\t\t\t\n              JUMPDEST \t\t\t\n            tag 335\t\t\t\n              JUMPDEST \t\t\t\n              DIV \t\t\t\n              SWAP3 \t\t\t\n              POP \t\t\t\n              PUSH 2\t\t\t\n              DUP2 \t\t\t\n              ADD \t\t\t\n              SWAP1 \t\t\t\n              POP \t\t\t\n            tag 334\t\t\t\n              JUMPDEST \t\t\t\n              PUSH A\t\t\t\n              DUP4 \t\t\t\n              LT \t\t\t\n              PUSH [tag] 337\t\t\t\n              JUMPI \t\t\t\n              PUSH 1\t\t\t\n              DUP2 \t\t\t\n              ADD \t\t\t\n              SWAP1 \t\t\t\n              POP \t\t\t\n            tag 337\t\t\t\n              JUMPDEST \t\t\t\n              DUP1 \t\t\t\n              SWAP2 \t\t\t\n              POP \t\t\t\n              POP \t\t\t\n              SWAP2 \t\t\t\n              SWAP1 \t\t\t\n              POP \t\t\t\n              JUMP \t\t\t\n            tag 338\t\t\t-License-Identifier: MIT\\r\\npr...\n              JUMPDEST \t\t\t-License-Identifier: MIT\\r\\npr...\n              PUSH 0\t\t\tsolidi\n              PUSH 40\t\t\tze\n              MLOAD \t\t\t\"@openzep\n              SWAP1 \t\t\t\\n\\r\\nimport \"@openzep\n              POP \t\t\t\\n\\r\\nimport \"@openzep\n              SWAP1 \t\t\t-License-Identifier: MIT\\r\\npr...\n              JUMP \t\t\t-License-Identifier: MIT\\r\\npr...\n            tag 339\t\t\tcts/token/ERC20/ERC20.sol\";\\r\\...\n              JUMPDEST \t\t\tcts/token/ERC20/ERC20.sol\";\\r\\...\n              PUSH 0\t\t\te\n              DUP1 \t\t\tu\n              REVERT \t\t\tsing Counter\n            tag 340\t\t\trs.Counter;\\r\\n    Counters.Co...\n              JUMPDEST \t\t\trs.Counter;\\r\\n    Counters.Co...\n              PUSH 0\t\t\tm\n              DUP1 \t\t\ts\n              REVERT \t\t\t address imm\n            tag 341\t\t\t;\\r\\n\\r\\n    constructor(addre...\n              JUMPDEST \t\t\t;\\r\\n\\r\\n    constructor(addre...\n              PUSH 0\t\t\t ERC20(\n              PUSH FFFFFFFF00000000000000000000000000000000000000000000000000000000\t\t\t = msg.sender;\\r\\n        STNE...\n              DUP3 \t\t\t  adm\n              AND \t\t\t      admin = msg.sender;\\r\\n ...\n              SWAP1 \t\t\t\"GNE\"){\\r\\n        admin = msg...\n              POP \t\t\t\"GNE\"){\\r\\n        admin = msg...\n              SWAP2 \t\t\t;\\r\\n\\r\\n    constructor(addre...\n              SWAP1 \t\t\t;\\r\\n\\r\\n    constructor(addre...\n              POP \t\t\t;\\r\\n\\r\\n    constructor(addre...\n              JUMP \t\t\t;\\r\\n\\r\\n    constructor(addre...\n            tag 342\t\t\tress to, uint256 amount) inter...\n              JUMPDEST \t\t\tress to, uint256 amount) inter...\n              PUSH [tag] 429\t\t\t\\n    struct TreeDetails\n              DUP2 \t\t\tetail\n              PUSH [tag] 341\t\t\t\\n    struct TreeDetails\n              JUMP \t\t\t\\n    struct TreeDetails\n            tag 429\t\t\t\\n    struct TreeDetails\n              JUMPDEST \t\t\t\\n    struct TreeDetails\n              DUP2 \t\t\t   }\\r\n              EQ \t\t\t\\r\\n    }\\r\\n\\r\\n    struct Tr...\n              PUSH [tag] 430\t\t\t, amount);\\r\\n    }\\r\\n\\r\\n   ...\n              JUMPI \t\t\t, amount);\\r\\n    }\\r\\n\\r\\n   ...\n              PUSH 0\t\t\t2\n              DUP1 \t\t\ti\n              REVERT \t\t\t      uint25\n            tag 430\t\t\t, amount);\\r\\n    }\\r\\n\\r\\n   ...\n              JUMPDEST \t\t\t, amount);\\r\\n    }\\r\\n\\r\\n   ...\n              POP \t\t\tress to, uint256 amount) inter...\n              JUMP \t\t\tress to, uint256 amount) inter...\n            tag 343\t\t\t\\r\\n        uint256 lastClaime...\n              JUMPDEST \t\t\t\\r\\n        uint256 lastClaime...\n              PUSH 0\t\t\t56 wa\n              DUP2 \t\t\tnsYiel\n              CALLDATALOAD \t\t\t uint256 tokensYield\n              SWAP1 \t\t\t\\r\\n        uint256 tokensYiel...\n              POP \t\t\t\\r\\n        uint256 tokensYiel...\n              PUSH [tag] 432\t\t\t}\\r\\n\\r\\n    struct UserTreeMa...\n              DUP2 \t\t\tpping\n              PUSH [tag] 342\t\t\t}\\r\\n\\r\\n    struct UserTreeMa...\n              JUMP \t\t\t}\\r\\n\\r\\n    struct UserTreeMa...\n            tag 432\t\t\t}\\r\\n\\r\\n    struct UserTreeMa...\n              JUMPDEST \t\t\t}\\r\\n\\r\\n    struct UserTreeMa...\n              SWAP3 \t\t\t\\r\\n        uint256 lastClaime...\n              SWAP2 \t\t\t\\r\\n        uint256 lastClaime...\n              POP \t\t\t\\r\\n        uint256 lastClaime...\n              POP \t\t\t\\r\\n        uint256 lastClaime...\n              JUMP \t\t\t\\r\\n        uint256 lastClaime...\n            tag 23\t\t\tapping(uint256 => TreeDetails)...\n              JUMPDEST \t\t\tapping(uint256 => TreeDetails)...\n              PUSH 0\t\t\tstore \n              PUSH 20\t\t\t m\n              DUP3 \t\t\t    }\\r\\n\\r\\n\n              DUP5 \t\t\ttokenID\n              SUB \t\t\tits tokenID\\r\\n    }\\r\\n\\r\\n \n              SLT \t\t\tith its tokenID\\r\\n    }\\r\\n\\r...\n              ISZERO \t\t\ts with its tokenID\\r\\n    }\\r\\...\n              PUSH [tag] 434\t\t\ts with its tokenID\\r\\n    }\\r\\...\n              JUMPI \t\t\ts with its tokenID\\r\\n    }\\r\\...\n              PUSH [tag] 435\t\t\tng(uint256 => TreeCollection) ...\n              PUSH [tag] 339\t\t\tng(uint256 => TreeCollection) ...\n              JUMP \t\t\tng(uint256 => TreeCollection) ...\n            tag 435\t\t\tng(uint256 => TreeCollection) ...\n              JUMPDEST \t\t\tng(uint256 => TreeCollection) ...\n            tag 434\t\t\ts with its tokenID\\r\\n    }\\r\\...\n              JUMPDEST \t\t\ts with its tokenID\\r\\n    }\\r\\...\n              PUSH 0\t\t\tl\n              PUSH [tag] 436\t\t\tic CollectionToID; // to get c...\n              DUP5 \t\t\tce usin\n              DUP3 \t\t\tct ins\n              DUP6 \t\t\t get cont\n              ADD \t\t\t/ to get contract inst\n              PUSH [tag] 343\t\t\tic CollectionToID; // to get c...\n              JUMP \t\t\tic CollectionToID; // to get c...\n            tag 436\t\t\tic CollectionToID; // to get c...\n              JUMPDEST \t\t\tic CollectionToID; // to get c...\n              SWAP2 \t\t\tt256) public CollectionToID; /...\n              POP \t\t\tt256) public CollectionToID; /...\n              POP \t\t\ttheir IDs\\r\\n    mapping(TreeC...\n              SWAP3 \t\t\tapping(uint256 => TreeDetails)...\n              SWAP2 \t\t\tapping(uint256 => TreeDetails)...\n              POP \t\t\tapping(uint256 => TreeDetails)...\n              POP \t\t\tapping(uint256 => TreeDetails)...\n              JUMP \t\t\tapping(uint256 => TreeDetails)...\n            tag 344\t\t\t(uint256 => UserTreeMapping) u...\n              JUMPDEST \t\t\t(uint256 => UserTreeMapping) u...\n              PUSH 0\t\t\tree; //\n              DUP2 \t\t\ton\\r\\n\\r\n              ISZERO \t\t\tollection\\r\\n\\r\\n\n              ISZERO \t\t\th its collection\\r\\n\\r\\n \n              SWAP1 \t\t\t a Tree with its collection\\r\\...\n              POP \t\t\t a Tree with its collection\\r\\...\n              SWAP2 \t\t\t(uint256 => UserTreeMapping) u...\n              SWAP1 \t\t\t(uint256 => UserTreeMapping) u...\n              POP \t\t\t(uint256 => UserTreeMapping) u...\n              JUMP \t\t\t(uint256 => UserTreeMapping) u...\n            tag 345\t\t\tmintNewTreeCollection(string m...\n              JUMPDEST \t\t\tmintNewTreeCollection(string m...\n              PUSH [tag] 439\t\t\t   require(msg.sender\n              DUP2 \t\t\tsende\n              PUSH [tag] 344\t\t\t   require(msg.sender\n              JUMP \t\t\t   require(msg.sender\n            tag 439\t\t\t   require(msg.sender\n              JUMPDEST \t\t\t   require(msg.sender\n              DUP3 \t\t\t   \n              MSTORE \t\t\tc {\\r\\n\\r\\n        require(msg...\n              POP \t\t\tmintNewTreeCollection(string m...\n              POP \t\t\tmintNewTreeCollection(string m...\n              JUMP \t\t\tmintNewTreeCollection(string m...\n            tag 26\t\t\tope!\");\\r\\n\\r\\n        TreeCol...\n              JUMPDEST \t\t\tope!\");\\r\\n\\r\\n        TreeCol...\n              PUSH 0\t\t\treeC\n              PUSH 20\t\t\t  \n              DUP3 \t\t\tt();\\r\\n   \n              ADD \t\t\trrent();\\r\\n        \n              SWAP1 \t\t\tunter.current();\\r\\n        \n              POP \t\t\tunter.current();\\r\\n        \n              PUSH [tag] 441\t\t\ttion newCollection = new TreeC...\n              PUSH 0\t\t\t \n              DUP4 \t\t\tl);\\r\\n    \n              ADD \t\t\tymbol);\\r\\n        \n              DUP5 \t\t\tn(name\n              PUSH [tag] 345\t\t\ttion newCollection = new TreeC...\n              JUMP \t\t\ttion newCollection = new TreeC...\n            tag 441\t\t\ttion newCollection = new TreeC...\n              JUMPDEST \t\t\ttion newCollection = new TreeC...\n              SWAP3 \t\t\tope!\");\\r\\n\\r\\n        TreeCol...\n              SWAP2 \t\t\tope!\");\\r\\n\\r\\n        TreeCol...\n              POP \t\t\tope!\");\\r\\n\\r\\n        TreeCol...\n              POP \t\t\tope!\");\\r\\n\\r\\n        TreeCol...\n              JUMP \t\t\tope!\");\\r\\n\\r\\n        TreeCol...\n            tag 346\t\t\ts[collectionID] = newCollectio...\n              JUMPDEST \t\t\ts[collectionID] = newCollectio...\n              PUSH 0\t\t\tToID[n\n              DUP2 \t\t\t;\\r\\n  \n              MLOAD \t\t\ttionID;\\r\\n   \n              SWAP1 \t\t\t] = collectionID;\\r\\n   \n              POP \t\t\t] = collectionID;\\r\\n   \n              SWAP2 \t\t\ts[collectionID] = newCollectio...\n              SWAP1 \t\t\ts[collectionID] = newCollectio...\n              POP \t\t\ts[collectionID] = newCollectio...\n              JUMP \t\t\ts[collectionID] = newCollectio...\n            tag 347\t\t\tction mintTree(uint256 collect...\n              JUMPDEST \t\t\tction mintTree(uint256 collect...\n              PUSH 0\t\t\t(STNEAR.tra\n              DUP3 \t\t\tddress\n              DUP3 \t\t\ter,\n              MSTORE \t\t\tsg.sender, address(\n              PUSH 20\t\t\tansf\n              DUP3 \t\t\tR: \n              ADD \t\t\tTNEAR: transfe\n              SWAP1 \t\t\t* 10 ** 24), \"STNEAR: transfe\n              POP \t\t\t* 10 ** 24), \"STNEAR: transfe\n              SWAP3 \t\t\tction mintTree(uint256 collect...\n              SWAP2 \t\t\tction mintTree(uint256 collect...\n              POP \t\t\tction mintTree(uint256 collect...\n              POP \t\t\tction mintTree(uint256 collect...\n              JUMP \t\t\tction mintTree(uint256 collect...\n            tag 348\t\t\t\"); \\r\\n\\r\\n        TreeCollec...\n              JUMPDEST \t\t\t\"); \\r\\n\\r\\n        TreeCollec...\n              PUSH 0\t\t\tl\n            tag 445\t\t\t]);\\r\\n        treecollection....\n              JUMPDEST \t\t\t]);\\r\\n        treecollection....\n              DUP4 \t\t\treecol\n              DUP2 \t\t\t \n              LT \t\t\t     treecoll\n              ISZERO \t\t\t]);\\r\\n        treecollection....\n              PUSH [tag] 447\t\t\t]);\\r\\n        treecollection....\n              JUMPI \t\t\t]);\\r\\n        treecollection....\n              DUP1 \t\t\tt\n              DUP3 \t\t\ttio\n              ADD \t\t\tllection.to\n              MLOAD \t\t\ttreecollection.tok\n              DUP2 \t\t\tD\n              DUP5 \t\t\toke\n              ADD \t\t\t56 tokenID \n              MSTORE \t\t\t  uint256 tokenID = treecollec...\n              PUSH 20\t\t\t(m\n              DUP2 \t\t\ti\n              ADD \t\t\tafeMint(ms\n              SWAP1 \t\t\tion.safeMint(ms\n              POP \t\t\tion.safeMint(ms\n              PUSH [tag] 445\t\t\t]);\\r\\n        treecollection....\n              JUMP \t\t\t]);\\r\\n        treecollection....\n            tag 447\t\t\t]);\\r\\n        treecollection....\n              JUMPDEST \t\t\t]);\\r\\n        treecollection....\n              PUSH 0\t\t\t]\n              DUP5 \t\t\tlectio\n              DUP5 \t\t\te[c\n              ADD \t\t\trTree[collection\n              MSTORE \t\t\t    userTree[collectionID].\n              POP \t\t\t(treecollections[collectionID]...\n              POP \t\t\t\"); \\r\\n\\r\\n        TreeCollec...\n              POP \t\t\t\"); \\r\\n\\r\\n        TreeCollec...\n              POP \t\t\t\"); \\r\\n\\r\\n        TreeCollec...\n              JUMP \t\t\t\"); \\r\\n\\r\\n        TreeCollec...\n            tag 349\t\t\ttokenID] = TreeDetails(0, 0, 0...\n              JUMPDEST \t\t\ttokenID] = TreeDetails(0, 0, 0...\n              PUSH 0\t\t\t}\\r\\n\\r\\n \n              PUSH 1F\t\t\t25\n              NOT \t\t\tuint256\n              PUSH 1F\t\t\tnI\n              DUP4 \t\t\tllect\n              ADD \t\t\t _collectionID\n              AND \t\t\tt256 _collectionID, uint256 \n              SWAP1 \t\t\t water(uint256 _collectionID, ...\n              POP \t\t\t water(uint256 _collectionID, ...\n              SWAP2 \t\t\ttokenID] = TreeDetails(0, 0, 0...\n              SWAP1 \t\t\ttokenID] = TreeDetails(0, 0, 0...\n              POP \t\t\ttokenID] = TreeDetails(0, 0, 0...\n              JUMP \t\t\ttokenID] = TreeDetails(0, 0, 0...\n            tag 350\t\t\tblic returns(bool) {\\r\\n\\r\\n  ...\n              JUMPDEST \t\t\tblic returns(bool) {\\r\\n\\r\\n  ...\n              PUSH 0\t\t\tcti\n              PUSH [tag] 450\t\t\t       require(treecollection....\n              DUP3 \t\t\terOf(\n              PUSH [tag] 346\t\t\t       require(treecollection....\n              JUMP \t\t\t       require(treecollection....\n            tag 450\t\t\t       require(treecollection....\n              JUMPDEST \t\t\t       require(treecollection....\n              PUSH [tag] 451\t\t\tsender, \"You are not the owner...\n              DUP2 \t\t\tsferFr\n              DUP6 \t\t\t.tr\n              PUSH [tag] 347\t\t\tsender, \"You are not the owner...\n              JUMP \t\t\tsender, \"You are not the owner...\n            tag 451\t\t\tsender, \"You are not the owner...\n              JUMPDEST \t\t\tsender, \"You are not the owner...\n              SWAP4 \t\t\t== msg.sender, \"You are not th...\n              POP \t\t\t== msg.sender, \"You are not th...\n              PUSH [tag] 452\t\t\tder, address(this), 1 * 10 ** ...\n              DUP2 \t\t\tailed\"\n              DUP6 \t\t\trom\n              PUSH 20\t\t\tansf\n              DUP7 \t\t\tEAR: \n              ADD \t\t\t\"STNEAR: transfe\n              PUSH [tag] 348\t\t\tder, address(this), 1 * 10 ** ...\n              JUMP \t\t\tder, address(this), 1 * 10 ** ...\n            tag 452\t\t\tder, address(this), 1 * 10 ** ...\n              JUMPDEST \t\t\tder, address(this), 1 * 10 ** ...\n              PUSH [tag] 453\t\t\tollectionID].treeDetails[_tok\n              DUP2 \t\t\tls[_to\n              PUSH [tag] 349\t\t\tollectionID].treeDetails[_tok\n              JUMP \t\t\tollectionID].treeDetails[_tok\n            tag 453\t\t\tollectionID].treeDetails[_tok\n              JUMPDEST \t\t\tollectionID].treeDetails[_tok\n              DUP5 \t\t\tee[\n              ADD \t\t\terTree[_collectionID].treeDeta...\n              SWAP2 \t\t\t     userTree[_collectionID].t...\n              POP \t\t\t     userTree[_collectionID].t...\n              POP \t\t\tns[_collectionID]);\\r\\n\\r\\n   ...\n              SWAP3 \t\t\tblic returns(bool) {\\r\\n\\r\\n  ...\n              SWAP2 \t\t\tblic returns(bool) {\\r\\n\\r\\n  ...\n              POP \t\t\tblic returns(bool) {\\r\\n\\r\\n  ...\n              POP \t\t\tblic returns(bool) {\\r\\n\\r\\n  ...\n              JUMP \t\t\tblic returns(bool) {\\r\\n\\r\\n  ...\n            tag 30\t\t\tered = block.timestamp;\\r\\n   ...\n              JUMPDEST \t\t\tered = block.timestamp;\\r\\n   ...\n              PUSH 0\t\t\trn t\n              PUSH 20\t\t\tui\n              DUP3 \t\t\ttion clai\n              ADD \t\t\tfunction claim(uin\n              SWAP1 \t\t\t\\r\\n\\r\\n    function claim(uin\n              POP \t\t\t\\r\\n\\r\\n    function claim(uin\n              DUP2 \t\t\teturns(bo\n              DUP2 \t\t\tblic\n              SUB \t\t\t) public returns(boo\n              PUSH 0\t\t\te\n              DUP4 \t\t\tint256 _t\n              ADD \t\t\tD, uint256 _token\n              MSTORE \t\t\tectionID, uint256 _tokenID) pu...\n              PUSH [tag] 455\t\t\teeCollection treecollection = ...\n              DUP2 \t\t\tD]);\n              DUP5 \t\t\tllecti\n              PUSH [tag] 350\t\t\teeCollection treecollection = ...\n              JUMP \t\t\teeCollection treecollection = ...\n            tag 455\t\t\teeCollection treecollection = ...\n              JUMPDEST \t\t\teeCollection treecollection = ...\n              SWAP1 \t\t\t      TreeCollection treecolle...\n              POP \t\t\t      TreeCollection treecolle...\n              SWAP3 \t\t\tered = block.timestamp;\\r\\n   ...\n              SWAP2 \t\t\tered = block.timestamp;\\r\\n   ...\n              POP \t\t\tered = block.timestamp;\\r\\n   ...\n              POP \t\t\tered = block.timestamp;\\r\\n   ...\n              JUMP \t\t\tered = block.timestamp;\\r\\n   ...\n            tag 351\t\t\tquire(treecollection.ownerOf(_...\n              JUMPDEST \t\t\tquire(treecollection.ownerOf(_...\n              PUSH 0\t\t\t) == ms\n              DUP2 \t\t\t the \n              SWAP1 \t\t\tYou are not the \n              POP \t\t\tYou are not the \n              SWAP2 \t\t\tquire(treecollection.ownerOf(_...\n              SWAP1 \t\t\tquire(treecollection.ownerOf(_...\n              POP \t\t\tquire(treecollection.ownerOf(_...\n              JUMP \t\t\tquire(treecollection.ownerOf(_...\n            tag 352\t\t\t        require(block.timestam...\n              JUMPDEST \t\t\t        require(block.timestam...\n              PUSH [tag] 458\t\t\tkenID].lastWatered <= 43\n              DUP2 \t\t\t <= 4\n              PUSH [tag] 351\t\t\tkenID].lastWatered <= 43\n              JUMP \t\t\tkenID].lastWatered <= 43\n            tag 458\t\t\tkenID].lastWatered <= 43\n              JUMPDEST \t\t\tkenID].lastWatered <= 43\n              DUP2 \t\t\tils[_\n              EQ \t\t\tetails[_tokenID].lastWatered <...\n              PUSH [tag] 459\t\t\tnID].treeDetails[_tokenID].las...\n              JUMPI \t\t\tnID].treeDetails[_tokenID].las...\n              PUSH 0\t\t\ts\n              DUP1 \t\t\tF\n              REVERT \t\t\t\"Water First\n            tag 459\t\t\tnID].treeDetails[_tokenID].las...\n              JUMPDEST \t\t\tnID].treeDetails[_tokenID].las...\n              POP \t\t\t        require(block.timestam...\n              JUMP \t\t\t        require(block.timestam...\n            tag 353\t\t\tequire(block.timestamp - userT...\n              JUMPDEST \t\t\tequire(block.timestamp - userT...\n              PUSH 0\t\t\tD].tr\n              DUP2 \t\t\t 86400\n              CALLDATALOAD \t\t\tlastClaimed > 86400,\n              SWAP1 \t\t\ttokenID].lastClaimed > 86400,\n              POP \t\t\ttokenID].lastClaimed > 86400,\n              PUSH [tag] 461\t\t\tlaim\");\\r\\n\\r\\n        userTre...\n              DUP2 \t\t\t[_col\n              PUSH [tag] 352\t\t\tlaim\");\\r\\n\\r\\n        userTre...\n              JUMP \t\t\tlaim\");\\r\\n\\r\\n        userTre...\n            tag 461\t\t\tlaim\");\\r\\n\\r\\n        userTre...\n              JUMPDEST \t\t\tlaim\");\\r\\n\\r\\n        userTre...\n              SWAP3 \t\t\tequire(block.timestamp - userT...\n              SWAP2 \t\t\tequire(block.timestamp - userT...\n              POP \t\t\tequire(block.timestamp - userT...\n              POP \t\t\tequire(block.timestamp - userT...\n              JUMP \t\t\tequire(block.timestamp - userT...\n            tag 33\t\t\teeDetails[_tokenID].lastClaime...\n              JUMPDEST \t\t\teeDetails[_tokenID].lastClaime...\n              PUSH 0\t\t\t userT\n              PUSH 20\t\t\tke\n              DUP3 \t\t\t_tokenID]\n              DUP5 \t\t\teDetail\n              SUB \t\t\t.treeDetails[_tokenID].\n              SLT \t\t\tnID].treeDetails[_tokenID].tok...\n              ISZERO \t\t\ttionID].treeDetails[_tokenID]....\n              PUSH [tag] 463\t\t\ttionID].treeDetails[_tokenID]....\n              JUMPI \t\t\ttionID].treeDetails[_tokenID]....\n              PUSH [tag] 464\t\t\telded += 5;\\r\\n        mint(ms...\n              PUSH [tag] 339\t\t\telded += 5;\\r\\n        mint(ms...\n              JUMP \t\t\telded += 5;\\r\\n        mint(ms...\n            tag 464\t\t\telded += 5;\\r\\n        mint(ms...\n              JUMPDEST \t\t\telded += 5;\\r\\n        mint(ms...\n            tag 463\t\t\ttionID].treeDetails[_tokenID]....\n              JUMPDEST \t\t\ttionID].treeDetails[_tokenID]....\n              PUSH 0\t\t\t5\n              PUSH [tag] 465\t\t\ttokenId) public view returns(T...\n              DUP5 \t\t\try) {\\r\\n\n              DUP3 \t\t\tails m\n              DUP6 \t\t\trns(TreeD\n              ADD \t\t\treturns(TreeDetails me\n              PUSH [tag] 353\t\t\ttokenId) public view returns(T...\n              JUMP \t\t\ttokenId) public view returns(T...\n            tag 465\t\t\ttokenId) public view returns(T...\n              JUMPDEST \t\t\ttokenId) public view returns(T...\n              SWAP2 \t\t\t, uint256 tokenId) public view...\n              POP \t\t\t, uint256 tokenId) public view...\n              POP \t\t\tfunction getTreeDetails(uint25...\n              SWAP3 \t\t\teeDetails[_tokenID].lastClaime...\n              SWAP2 \t\t\teeDetails[_tokenID].lastClaime...\n              POP \t\t\teeDetails[_tokenID].lastClaime...\n              POP \t\t\teeDetails[_tokenID].lastClaime...\n              JUMP \t\t\teeDetails[_tokenID].lastClaime...\n            tag 354\t\t\tcollectionId].treeDetails[toke...\n              JUMPDEST \t\t\tcollectionId].treeDetails[toke...\n              PUSH 0\t\t\t       \n              PUSH FFFFFFFFFFFFFFFFFFFFFFFFFFFFFFFFFFFFFFFF\t\t\tarticula NFT(Tree)\\r\\n    }\\r\\...\n              DUP3 \t\t\t to a\n              AND \t\t\tated to a particula NFT(Tree)\\...\n              SWAP1 \t\t\tdetails related to a particula...\n              POP \t\t\tdetails related to a particula...\n              SWAP2 \t\t\tcollectionId].treeDetails[toke...\n              SWAP1 \t\t\tcollectionId].treeDetails[toke...\n              POP \t\t\tcollectionId].treeDetails[toke...\n              JUMP \t\t\tcollectionId].treeDetails[toke...\n            tag 355\t\t\tt(uint256 collectionID) public...\n              JUMPDEST \t\t\tt(uint256 collectionID) public...\n              PUSH 0\t\t\teturns(\n              PUSH [tag] 468\t\t\tturn (treecollections[co\n              DUP3 \t\t\tons[c\n              PUSH [tag] 354\t\t\tturn (treecollections[co\n              JUMP \t\t\tturn (treecollections[co\n            tag 468\t\t\tturn (treecollections[co\n              JUMPDEST \t\t\tturn (treecollections[co\n              SWAP1 \t\t\t\\n        return (treecollecti...\n              POP \t\t\t\\n        return (treecollecti...\n              SWAP2 \t\t\tt(uint256 collectionID) public...\n              SWAP1 \t\t\tt(uint256 collectionID) public...\n              POP \t\t\tt(uint256 collectionID) public...\n              JUMP \t\t\tt(uint256 collectionID) public...\n            tag 356\t\t\ttokenIdCounter());\\r\\n        ...\n              JUMPDEST \t\t\ttokenIdCounter());\\r\\n        ...\n              PUSH [tag] 470\t\t\t    function getCollecti\n              DUP2 \t\t\tllect\n              PUSH [tag] 355\t\t\t    function getCollecti\n              JUMP \t\t\t    function getCollecti\n            tag 470\t\t\t    function getCollecti\n              JUMPDEST \t\t\t    function getCollecti\n              DUP3 \t\t\t}\\r\\n\n              MSTORE \t\t\tn\\r\\n    }\\r\\n\\r\\n    function...\n              POP \t\t\ttokenIdCounter());\\r\\n        ...\n              POP \t\t\ttokenIdCounter());\\r\\n        ...\n              JUMP \t\t\ttokenIdCounter());\\r\\n        ...\n            tag 36\t\t\tection collection) public view...\n              JUMPDEST \t\t\tection collection) public view...\n              PUSH 0\t\t\t;\\r\\n \n              PUSH 20\t\t\tti\n              DUP3 \t\t\tular coll\n              ADD \t\t\trticular collectio\n              SWAP1 \t\t\to get particular collectio\n              POP \t\t\to get particular collectio\n              PUSH [tag] 472\t\t\t its instance\\r\\n    }\\r\\n}\n              PUSH 0\t\t\t\n              DUP4 \t\t\t\n              ADD \t\t\t\n              DUP5 \t\t\t\n              PUSH [tag] 356\t\t\t its instance\\r\\n    }\\r\\n}\n              JUMP \t\t\t its instance\\r\\n    }\\r\\n}\n            tag 472\t\t\t its instance\\r\\n    }\\r\\n}\n              JUMPDEST \t\t\t its instance\\r\\n    }\\r\\n}\n              SWAP3 \t\t\tection collection) public view...\n              SWAP2 \t\t\tection collection) public view...\n              POP \t\t\tection collection) public view...\n              POP \t\t\tection collection) public view...\n              JUMP \t\t\tection collection) public view...\n            tag 357\t\t\t\n              JUMPDEST \t\t\t\n              PUSH [tag] 474\t\t\t\n              DUP2 \t\t\t\n              PUSH [tag] 355\t\t\t\n              JUMP \t\t\t\n            tag 474\t\t\t\n              JUMPDEST \t\t\t\n              DUP2 \t\t\t\n              EQ \t\t\t\n              PUSH [tag] 475\t\t\t\n              JUMPI \t\t\t\n              PUSH 0\t\t\t\n              DUP1 \t\t\t\n              REVERT \t\t\t\n            tag 475\t\t\t\n              JUMPDEST \t\t\t\n              POP \t\t\t\n              JUMP \t\t\t\n            tag 358\t\t\t\n              JUMPDEST \t\t\t\n              PUSH 0\t\t\t\n              DUP2 \t\t\t\n              CALLDATALOAD \t\t\t\n              SWAP1 \t\t\t\n              POP \t\t\t\n              PUSH [tag] 477\t\t\t\n              DUP2 \t\t\t\n              PUSH [tag] 357\t\t\t\n              JUMP \t\t\t\n            tag 477\t\t\t\n              JUMPDEST \t\t\t\n              SWAP3 \t\t\t\n              SWAP2 \t\t\t\n              POP \t\t\t\n              POP \t\t\t\n              JUMP \t\t\t\n            tag 39\t\t\t\n              JUMPDEST \t\t\t\n              PUSH 0\t\t\t\n              DUP1 \t\t\t\n              PUSH 40\t\t\t\n              DUP4 \t\t\t\n              DUP6 \t\t\t\n              SUB \t\t\t\n              SLT \t\t\t\n              ISZERO \t\t\t\n              PUSH [tag] 479\t\t\t\n              JUMPI \t\t\t\n              PUSH [tag] 480\t\t\t\n              PUSH [tag] 339\t\t\t\n              JUMP \t\t\t\n            tag 480\t\t\t\n              JUMPDEST \t\t\t\n            tag 479\t\t\t\n              JUMPDEST \t\t\t\n              PUSH 0\t\t\t\n              PUSH [tag] 481\t\t\t\n              DUP6 \t\t\t\n              DUP3 \t\t\t\n              DUP7 \t\t\t\n              ADD \t\t\t\n              PUSH [tag] 358\t\t\t\n              JUMP \t\t\t\n            tag 481\t\t\t\n              JUMPDEST \t\t\t\n              SWAP3 \t\t\t\n              POP \t\t\t\n              POP \t\t\t\n              PUSH 20\t\t\t\n              PUSH [tag] 482\t\t\t\n              DUP6 \t\t\t\n              DUP3 \t\t\t\n              DUP7 \t\t\t\n              ADD \t\t\t\n              PUSH [tag] 353\t\t\t\n              JUMP \t\t\t\n            tag 482\t\t\t\n              JUMPDEST \t\t\t\n              SWAP2 \t\t\t\n              POP \t\t\t\n              POP \t\t\t\n              SWAP3 \t\t\t\n              POP \t\t\t\n              SWAP3 \t\t\t\n              SWAP1 \t\t\t\n              POP \t\t\t\n              JUMP \t\t\t\n            tag 43\t\t\t\n              JUMPDEST \t\t\t\n              PUSH 0\t\t\t\n              DUP1 \t\t\t\n              PUSH 0\t\t\t\n              PUSH 60\t\t\t\n              DUP5 \t\t\t\n              DUP7 \t\t\t\n              SUB \t\t\t\n              SLT \t\t\t\n              ISZERO \t\t\t\n              PUSH [tag] 484\t\t\t\n              JUMPI \t\t\t\n              PUSH [tag] 485\t\t\t\n              PUSH [tag] 339\t\t\t\n              JUMP \t\t\t\n            tag 485\t\t\t\n              JUMPDEST \t\t\t\n            tag 484\t\t\t\n              JUMPDEST \t\t\t\n              PUSH 0\t\t\t\n              PUSH [tag] 486\t\t\t\n              DUP7 \t\t\t\n              DUP3 \t\t\t\n              DUP8 \t\t\t\n              ADD \t\t\t\n              PUSH [tag] 358\t\t\t\n              JUMP \t\t\t\n            tag 486\t\t\t\n              JUMPDEST \t\t\t\n              SWAP4 \t\t\t\n              POP \t\t\t\n              POP \t\t\t\n              PUSH 20\t\t\t\n              PUSH [tag] 487\t\t\t\n              DUP7 \t\t\t\n              DUP3 \t\t\t\n              DUP8 \t\t\t\n              ADD \t\t\t\n              PUSH [tag] 358\t\t\t\n              JUMP \t\t\t\n            tag 487\t\t\t\n              JUMPDEST \t\t\t\n              SWAP3 \t\t\t\n              POP \t\t\t\n              POP \t\t\t\n              PUSH 40\t\t\t\n              PUSH [tag] 488\t\t\t\n              DUP7 \t\t\t\n              DUP3 \t\t\t\n              DUP8 \t\t\t\n              ADD \t\t\t\n              PUSH [tag] 353\t\t\t\n              JUMP \t\t\t\n            tag 488\t\t\t\n              JUMPDEST \t\t\t\n              SWAP2 \t\t\t\n              POP \t\t\t\n              POP \t\t\t\n              SWAP3 \t\t\t\n              POP \t\t\t\n              SWAP3 \t\t\t\n              POP \t\t\t\n              SWAP3 \t\t\t\n              JUMP \t\t\t\n            tag 54\t\t\t\n              JUMPDEST \t\t\t\n              PUSH 0\t\t\t\n              PUSH 20\t\t\t\n              DUP3 \t\t\t\n              DUP5 \t\t\t\n              SUB \t\t\t\n              SLT \t\t\t\n              ISZERO \t\t\t\n              PUSH [tag] 490\t\t\t\n              JUMPI \t\t\t\n              PUSH [tag] 491\t\t\t\n              PUSH [tag] 339\t\t\t\n              JUMP \t\t\t\n            tag 491\t\t\t\n              JUMPDEST \t\t\t\n            tag 490\t\t\t\n              JUMPDEST \t\t\t\n              PUSH 0\t\t\t\n              PUSH [tag] 492\t\t\t\n              DUP5 \t\t\t\n              DUP3 \t\t\t\n              DUP6 \t\t\t\n              ADD \t\t\t\n              PUSH [tag] 358\t\t\t\n              JUMP \t\t\t\n            tag 492\t\t\t\n              JUMPDEST \t\t\t\n              SWAP2 \t\t\t\n              POP \t\t\t\n              POP \t\t\t\n              SWAP3 \t\t\t\n              SWAP2 \t\t\t\n              POP \t\t\t\n              POP \t\t\t\n              JUMP \t\t\t\n            tag 359\t\t\t\n              JUMPDEST \t\t\t\n              PUSH [tag] 494\t\t\t\n              DUP2 \t\t\t\n              PUSH [tag] 351\t\t\t\n              JUMP \t\t\t\n            tag 494\t\t\t\n              JUMPDEST \t\t\t\n              DUP3 \t\t\t\n              MSTORE \t\t\t\n              POP \t\t\t\n              POP \t\t\t\n              JUMP \t\t\t\n            tag 57\t\t\t\n              JUMPDEST \t\t\t\n              PUSH 0\t\t\t\n              PUSH 20\t\t\t\n              DUP3 \t\t\t\n              ADD \t\t\t\n              SWAP1 \t\t\t\n              POP \t\t\t\n              PUSH [tag] 496\t\t\t\n              PUSH 0\t\t\t\n              DUP4 \t\t\t\n              ADD \t\t\t\n              DUP5 \t\t\t\n              PUSH [tag] 359\t\t\t\n              JUMP \t\t\t\n            tag 496\t\t\t\n              JUMPDEST \t\t\t\n              SWAP3 \t\t\t\n              SWAP2 \t\t\t\n              POP \t\t\t\n              POP \t\t\t\n              JUMP \t\t\t\n            tag 360\t\t\t\n              JUMPDEST \t\t\t\n              PUSH [tag] 498\t\t\t\n              DUP2 \t\t\t\n              PUSH [tag] 344\t\t\t\n              JUMP \t\t\t\n            tag 498\t\t\t\n              JUMPDEST \t\t\t\n              DUP2 \t\t\t\n              EQ \t\t\t\n              PUSH [tag] 499\t\t\t\n              JUMPI \t\t\t\n              PUSH 0\t\t\t\n              DUP1 \t\t\t\n              REVERT \t\t\t\n            tag 499\t\t\t\n              JUMPDEST \t\t\t\n              POP \t\t\t\n              JUMP \t\t\t\n            tag 361\t\t\t\n              JUMPDEST \t\t\t\n              PUSH 0\t\t\t\n              DUP2 \t\t\t\n              CALLDATALOAD \t\t\t\n              SWAP1 \t\t\t\n              POP \t\t\t\n              PUSH [tag] 501\t\t\t\n              DUP2 \t\t\t\n              PUSH [tag] 360\t\t\t\n              JUMP \t\t\t\n            tag 501\t\t\t\n              JUMPDEST \t\t\t\n              SWAP3 \t\t\t\n              SWAP2 \t\t\t\n              POP \t\t\t\n              POP \t\t\t\n              JUMP \t\t\t\n            tag 66\t\t\t\n              JUMPDEST \t\t\t\n              PUSH 0\t\t\t\n              DUP1 \t\t\t\n              PUSH 40\t\t\t\n              DUP4 \t\t\t\n              DUP6 \t\t\t\n              SUB \t\t\t\n              SLT \t\t\t\n              ISZERO \t\t\t\n              PUSH [tag] 503\t\t\t\n              JUMPI \t\t\t\n              PUSH [tag] 504\t\t\t\n              PUSH [tag] 339\t\t\t\n              JUMP \t\t\t\n            tag 504\t\t\t\n              JUMPDEST \t\t\t\n            tag 503\t\t\t\n              JUMPDEST \t\t\t\n              PUSH 0\t\t\t\n              PUSH [tag] 505\t\t\t\n              DUP6 \t\t\t\n              DUP3 \t\t\t\n              DUP7 \t\t\t\n              ADD \t\t\t\n              PUSH [tag] 358\t\t\t\n              JUMP \t\t\t\n            tag 505\t\t\t\n              JUMPDEST \t\t\t\n              SWAP3 \t\t\t\n              POP \t\t\t\n              POP \t\t\t\n              PUSH 20\t\t\t\n              PUSH [tag] 506\t\t\t\n              DUP6 \t\t\t\n              DUP3 \t\t\t\n              DUP7 \t\t\t\n              ADD \t\t\t\n              PUSH [tag] 361\t\t\t\n              JUMP \t\t\t\n            tag 506\t\t\t\n              JUMPDEST \t\t\t\n              SWAP2 \t\t\t\n              POP \t\t\t\n              POP \t\t\t\n              SWAP3 \t\t\t\n              POP \t\t\t\n              SWAP3 \t\t\t\n              SWAP1 \t\t\t\n              POP \t\t\t\n              JUMP \t\t\t\n            tag 362\t\t\t\n              JUMPDEST \t\t\t\n              PUSH 0\t\t\t\n              DUP1 \t\t\t\n              REVERT \t\t\t\n            tag 363\t\t\t\n              JUMPDEST \t\t\t\n              PUSH 0\t\t\t\n              DUP1 \t\t\t\n              REVERT \t\t\t\n            tag 297\t\t\t\n              JUMPDEST \t\t\t\n              PUSH 4E487B7100000000000000000000000000000000000000000000000000000000\t\t\t\n              PUSH 0\t\t\t\n              MSTORE \t\t\t\n              PUSH 41\t\t\t\n              PUSH 4\t\t\t\n              MSTORE \t\t\t\n              PUSH 24\t\t\t\n              PUSH 0\t\t\t\n              REVERT \t\t\t\n            tag 364\t\t\t\n              JUMPDEST \t\t\t\n              PUSH [tag] 511\t\t\t\n              DUP3 \t\t\t\n              PUSH [tag] 349\t\t\t\n              JUMP \t\t\t\n            tag 511\t\t\t\n              JUMPDEST \t\t\t\n              DUP2 \t\t\t\n              ADD \t\t\t\n              DUP2 \t\t\t\n              DUP2 \t\t\t\n              LT \t\t\t\n              PUSH FFFFFFFFFFFFFFFF\t\t\t\n              DUP3 \t\t\t\n              GT \t\t\t\n              OR \t\t\t\n              ISZERO \t\t\t\n              PUSH [tag] 512\t\t\t\n              JUMPI \t\t\t\n              PUSH [tag] 513\t\t\t\n              PUSH [tag] 297\t\t\t\n              JUMP \t\t\t\n            tag 513\t\t\t\n              JUMPDEST \t\t\t\n            tag 512\t\t\t\n              JUMPDEST \t\t\t\n              DUP1 \t\t\t\n              PUSH 40\t\t\t\n              MSTORE \t\t\t\n              POP \t\t\t\n              POP \t\t\t\n              POP \t\t\t\n              JUMP \t\t\t\n            tag 365\t\t\t\n              JUMPDEST \t\t\t\n              PUSH 0\t\t\t\n              PUSH [tag] 515\t\t\t\n              PUSH [tag] 338\t\t\t\n              JUMP \t\t\t\n            tag 515\t\t\t\n              JUMPDEST \t\t\t\n              SWAP1 \t\t\t\n              POP \t\t\t\n              PUSH [tag] 516\t\t\t\n              DUP3 \t\t\t\n              DUP3 \t\t\t\n              PUSH [tag] 364\t\t\t\n              JUMP \t\t\t\n            tag 516\t\t\t\n              JUMPDEST \t\t\t\n              SWAP2 \t\t\t\n              SWAP1 \t\t\t\n              POP \t\t\t\n              JUMP \t\t\t\n            tag 366\t\t\t\n              JUMPDEST \t\t\t\n              PUSH 0\t\t\t\n              PUSH FFFFFFFFFFFFFFFF\t\t\t\n              DUP3 \t\t\t\n              GT \t\t\t\n              ISZERO \t\t\t\n              PUSH [tag] 518\t\t\t\n              JUMPI \t\t\t\n              PUSH [tag] 519\t\t\t\n              PUSH [tag] 297\t\t\t\n              JUMP \t\t\t\n            tag 519\t\t\t\n              JUMPDEST \t\t\t\n            tag 518\t\t\t\n              JUMPDEST \t\t\t\n              PUSH [tag] 520\t\t\t\n              DUP3 \t\t\t\n              PUSH [tag] 349\t\t\t\n              JUMP \t\t\t\n            tag 520\t\t\t\n              JUMPDEST \t\t\t\n              SWAP1 \t\t\t\n              POP \t\t\t\n              PUSH 20\t\t\t\n              DUP2 \t\t\t\n              ADD \t\t\t\n              SWAP1 \t\t\t\n              POP \t\t\t\n              SWAP2 \t\t\t\n              SWAP1 \t\t\t\n              POP \t\t\t\n              JUMP \t\t\t\n            tag 367\t\t\t\n              JUMPDEST \t\t\t\n              DUP3 \t\t\t\n              DUP2 \t\t\t\n              DUP4 \t\t\t\n              CALLDATACOPY \t\t\t\n              PUSH 0\t\t\t\n              DUP4 \t\t\t\n              DUP4 \t\t\t\n              ADD \t\t\t\n              MSTORE \t\t\t\n              POP \t\t\t\n              POP \t\t\t\n              POP \t\t\t\n              JUMP \t\t\t\n            tag 368\t\t\t\n              JUMPDEST \t\t\t\n              PUSH 0\t\t\t\n              PUSH [tag] 523\t\t\t\n              PUSH [tag] 524\t\t\t\n              DUP5 \t\t\t\n              PUSH [tag] 366\t\t\t\n              JUMP \t\t\t\n            tag 524\t\t\t\n              JUMPDEST \t\t\t\n              PUSH [tag] 365\t\t\t\n              JUMP \t\t\t\n            tag 523\t\t\t\n              JUMPDEST \t\t\t\n              SWAP1 \t\t\t\n              POP \t\t\t\n              DUP3 \t\t\t\n              DUP2 \t\t\t\n              MSTORE \t\t\t\n              PUSH 20\t\t\t\n              DUP2 \t\t\t\n              ADD \t\t\t\n              DUP5 \t\t\t\n              DUP5 \t\t\t\n              DUP5 \t\t\t\n              ADD \t\t\t\n              GT \t\t\t\n              ISZERO \t\t\t\n              PUSH [tag] 525\t\t\t\n              JUMPI \t\t\t\n              PUSH [tag] 526\t\t\t\n              PUSH [tag] 363\t\t\t\n              JUMP \t\t\t\n            tag 526\t\t\t\n              JUMPDEST \t\t\t\n            tag 525\t\t\t\n              JUMPDEST \t\t\t\n              PUSH [tag] 527\t\t\t\n              DUP5 \t\t\t\n              DUP3 \t\t\t\n              DUP6 \t\t\t\n              PUSH [tag] 367\t\t\t\n              JUMP \t\t\t\n            tag 527\t\t\t\n              JUMPDEST \t\t\t\n              POP \t\t\t\n              SWAP4 \t\t\t\n              SWAP3 \t\t\t\n              POP \t\t\t\n              POP \t\t\t\n              POP \t\t\t\n              JUMP \t\t\t\n            tag 369\t\t\t\n              JUMPDEST \t\t\t\n              PUSH 0\t\t\t\n              DUP3 \t\t\t\n              PUSH 1F\t\t\t\n              DUP4 \t\t\t\n              ADD \t\t\t\n              SLT \t\t\t\n              PUSH [tag] 529\t\t\t\n              JUMPI \t\t\t\n              PUSH [tag] 530\t\t\t\n              PUSH [tag] 362\t\t\t\n              JUMP \t\t\t\n            tag 530\t\t\t\n              JUMPDEST \t\t\t\n            tag 529\t\t\t\n              JUMPDEST \t\t\t\n              DUP2 \t\t\t\n              CALLDATALOAD \t\t\t\n              PUSH [tag] 531\t\t\t\n              DUP5 \t\t\t\n              DUP3 \t\t\t\n              PUSH 20\t\t\t\n              DUP7 \t\t\t\n              ADD \t\t\t\n              PUSH [tag] 368\t\t\t\n              JUMP \t\t\t\n            tag 531\t\t\t\n              JUMPDEST \t\t\t\n              SWAP2 \t\t\t\n              POP \t\t\t\n              POP \t\t\t\n              SWAP3 \t\t\t\n              SWAP2 \t\t\t\n              POP \t\t\t\n              POP \t\t\t\n              JUMP \t\t\t\n            tag 70\t\t\t\n              JUMPDEST \t\t\t\n              PUSH 0\t\t\t\n              DUP1 \t\t\t\n              PUSH 0\t\t\t\n              DUP1 \t\t\t\n              PUSH 80\t\t\t\n              DUP6 \t\t\t\n              DUP8 \t\t\t\n              SUB \t\t\t\n              SLT \t\t\t\n              ISZERO \t\t\t\n              PUSH [tag] 533\t\t\t\n              JUMPI \t\t\t\n              PUSH [tag] 534\t\t\t\n              PUSH [tag] 339\t\t\t\n              JUMP \t\t\t\n            tag 534\t\t\t\n              JUMPDEST \t\t\t\n            tag 533\t\t\t\n              JUMPDEST \t\t\t\n              PUSH 0\t\t\t\n              PUSH [tag] 535\t\t\t\n              DUP8 \t\t\t\n              DUP3 \t\t\t\n              DUP9 \t\t\t\n              ADD \t\t\t\n              PUSH [tag] 358\t\t\t\n              JUMP \t\t\t\n            tag 535\t\t\t\n              JUMPDEST \t\t\t\n              SWAP5 \t\t\t\n              POP \t\t\t\n              POP \t\t\t\n              PUSH 20\t\t\t\n              PUSH [tag] 536\t\t\t\n              DUP8 \t\t\t\n              DUP3 \t\t\t\n              DUP9 \t\t\t\n              ADD \t\t\t\n              PUSH [tag] 358\t\t\t\n              JUMP \t\t\t\n            tag 536\t\t\t\n              JUMPDEST \t\t\t\n              SWAP4 \t\t\t\n              POP \t\t\t\n              POP \t\t\t\n              PUSH 40\t\t\t\n              PUSH [tag] 537\t\t\t\n              DUP8 \t\t\t\n              DUP3 \t\t\t\n              DUP9 \t\t\t\n              ADD \t\t\t\n              PUSH [tag] 353\t\t\t\n              JUMP \t\t\t\n            tag 537\t\t\t\n              JUMPDEST \t\t\t\n              SWAP3 \t\t\t\n              POP \t\t\t\n              POP \t\t\t\n              PUSH 60\t\t\t\n              DUP6 \t\t\t\n              ADD \t\t\t\n              CALLDATALOAD \t\t\t\n              PUSH FFFFFFFFFFFFFFFF\t\t\t\n              DUP2 \t\t\t\n              GT \t\t\t\n              ISZERO \t\t\t\n              PUSH [tag] 538\t\t\t\n              JUMPI \t\t\t\n              PUSH [tag] 539\t\t\t\n              PUSH [tag] 340\t\t\t\n              JUMP \t\t\t\n            tag 539\t\t\t\n              JUMPDEST \t\t\t\n            tag 538\t\t\t\n              JUMPDEST \t\t\t\n              PUSH [tag] 540\t\t\t\n              DUP8 \t\t\t\n              DUP3 \t\t\t\n              DUP9 \t\t\t\n              ADD \t\t\t\n              PUSH [tag] 369\t\t\t\n              JUMP \t\t\t\n            tag 540\t\t\t\n              JUMPDEST \t\t\t\n              SWAP2 \t\t\t\n              POP \t\t\t\n              POP \t\t\t\n              SWAP3 \t\t\t\n              SWAP6 \t\t\t\n              SWAP2 \t\t\t\n              SWAP5 \t\t\t\n              POP \t\t\t\n              SWAP3 \t\t\t\n              POP \t\t\t\n              JUMP \t\t\t\n            tag 370\t\t\t\n              JUMPDEST \t\t\t\n              PUSH 0\t\t\t\n              PUSH FFFFFFFFFFFFFFFF\t\t\t\n              DUP3 \t\t\t\n              GT \t\t\t\n              ISZERO \t\t\t\n              PUSH [tag] 542\t\t\t\n              JUMPI \t\t\t\n              PUSH [tag] 543\t\t\t\n              PUSH [tag] 297\t\t\t\n              JUMP \t\t\t\n            tag 543\t\t\t\n              JUMPDEST \t\t\t\n            tag 542\t\t\t\n              JUMPDEST \t\t\t\n              PUSH [tag] 544\t\t\t\n              DUP3 \t\t\t\n              PUSH [tag] 349\t\t\t\n              JUMP \t\t\t\n            tag 544\t\t\t\n              JUMPDEST \t\t\t\n              SWAP1 \t\t\t\n              POP \t\t\t\n              PUSH 20\t\t\t\n              DUP2 \t\t\t\n              ADD \t\t\t\n              SWAP1 \t\t\t\n              POP \t\t\t\n              SWAP2 \t\t\t\n              SWAP1 \t\t\t\n              POP \t\t\t\n              JUMP \t\t\t\n            tag 371\t\t\t\n              JUMPDEST \t\t\t\n              PUSH 0\t\t\t\n              PUSH [tag] 546\t\t\t\n              PUSH [tag] 547\t\t\t\n              DUP5 \t\t\t\n              PUSH [tag] 370\t\t\t\n              JUMP \t\t\t\n            tag 547\t\t\t\n              JUMPDEST \t\t\t\n              PUSH [tag] 365\t\t\t\n              JUMP \t\t\t\n            tag 546\t\t\t\n              JUMPDEST \t\t\t\n              SWAP1 \t\t\t\n              POP \t\t\t\n              DUP3 \t\t\t\n              DUP2 \t\t\t\n              MSTORE \t\t\t\n              PUSH 20\t\t\t\n              DUP2 \t\t\t\n              ADD \t\t\t\n              DUP5 \t\t\t\n              DUP5 \t\t\t\n              DUP5 \t\t\t\n              ADD \t\t\t\n              GT \t\t\t\n              ISZERO \t\t\t\n              PUSH [tag] 548\t\t\t\n              JUMPI \t\t\t\n              PUSH [tag] 549\t\t\t\n              PUSH [tag] 363\t\t\t\n              JUMP \t\t\t\n            tag 549\t\t\t\n              JUMPDEST \t\t\t\n            tag 548\t\t\t\n              JUMPDEST \t\t\t\n              PUSH [tag] 550\t\t\t\n              DUP5 \t\t\t\n              DUP3 \t\t\t\n              DUP6 \t\t\t\n              PUSH [tag] 367\t\t\t\n              JUMP \t\t\t\n            tag 550\t\t\t\n              JUMPDEST \t\t\t\n              POP \t\t\t\n              SWAP4 \t\t\t\n              SWAP3 \t\t\t\n              POP \t\t\t\n              POP \t\t\t\n              POP \t\t\t\n              JUMP \t\t\t\n            tag 372\t\t\t\n              JUMPDEST \t\t\t\n              PUSH 0\t\t\t\n              DUP3 \t\t\t\n              PUSH 1F\t\t\t\n              DUP4 \t\t\t\n              ADD \t\t\t\n              SLT \t\t\t\n              PUSH [tag] 552\t\t\t\n              JUMPI \t\t\t\n              PUSH [tag] 553\t\t\t\n              PUSH [tag] 362\t\t\t\n              JUMP \t\t\t\n            tag 553\t\t\t\n              JUMPDEST \t\t\t\n            tag 552\t\t\t\n              JUMPDEST \t\t\t\n              DUP2 \t\t\t\n              CALLDATALOAD \t\t\t\n              PUSH [tag] 554\t\t\t\n              DUP5 \t\t\t\n              DUP3 \t\t\t\n              PUSH 20\t\t\t\n              DUP7 \t\t\t\n              ADD \t\t\t\n              PUSH [tag] 371\t\t\t\n              JUMP \t\t\t\n            tag 554\t\t\t\n              JUMPDEST \t\t\t\n              SWAP2 \t\t\t\n              POP \t\t\t\n              POP \t\t\t\n              SWAP3 \t\t\t\n              SWAP2 \t\t\t\n              POP \t\t\t\n              POP \t\t\t\n              JUMP \t\t\t\n            tag 78\t\t\t\n              JUMPDEST \t\t\t\n              PUSH 0\t\t\t\n              DUP1 \t\t\t\n              PUSH 40\t\t\t\n              DUP4 \t\t\t\n              DUP6 \t\t\t\n              SUB \t\t\t\n              SLT \t\t\t\n              ISZERO \t\t\t\n              PUSH [tag] 556\t\t\t\n              JUMPI \t\t\t\n              PUSH [tag] 557\t\t\t\n              PUSH [tag] 339\t\t\t\n              JUMP \t\t\t\n            tag 557\t\t\t\n              JUMPDEST \t\t\t\n            tag 556\t\t\t\n              JUMPDEST \t\t\t\n              PUSH 0\t\t\t\n              PUSH [tag] 558\t\t\t\n              DUP6 \t\t\t\n              DUP3 \t\t\t\n              DUP7 \t\t\t\n              ADD \t\t\t\n              PUSH [tag] 358\t\t\t\n              JUMP \t\t\t\n            tag 558\t\t\t\n              JUMPDEST \t\t\t\n              SWAP3 \t\t\t\n              POP \t\t\t\n              POP \t\t\t\n              PUSH 20\t\t\t\n              DUP4 \t\t\t\n              ADD \t\t\t\n              CALLDATALOAD \t\t\t\n              PUSH FFFFFFFFFFFFFFFF\t\t\t\n              DUP2 \t\t\t\n              GT \t\t\t\n              ISZERO \t\t\t\n              PUSH [tag] 559\t\t\t\n              JUMPI \t\t\t\n              PUSH [tag] 560\t\t\t\n              PUSH [tag] 340\t\t\t\n              JUMP \t\t\t\n            tag 560\t\t\t\n              JUMPDEST \t\t\t\n            tag 559\t\t\t\n              JUMPDEST \t\t\t\n              PUSH [tag] 561\t\t\t\n              DUP6 \t\t\t\n              DUP3 \t\t\t\n              DUP7 \t\t\t\n              ADD \t\t\t\n              PUSH [tag] 372\t\t\t\n              JUMP \t\t\t\n            tag 561\t\t\t\n              JUMPDEST \t\t\t\n              SWAP2 \t\t\t\n              POP \t\t\t\n              POP \t\t\t\n              SWAP3 \t\t\t\n              POP \t\t\t\n              SWAP3 \t\t\t\n              SWAP1 \t\t\t\n              POP \t\t\t\n              JUMP \t\t\t\n            tag 82\t\t\t\n              JUMPDEST \t\t\t\n              PUSH 0\t\t\t\n              DUP1 \t\t\t\n              PUSH 40\t\t\t\n              DUP4 \t\t\t\n              DUP6 \t\t\t\n              SUB \t\t\t\n              SLT \t\t\t\n              ISZERO \t\t\t\n              PUSH [tag] 563\t\t\t\n              JUMPI \t\t\t\n              PUSH [tag] 564\t\t\t\n              PUSH [tag] 339\t\t\t\n              JUMP \t\t\t\n            tag 564\t\t\t\n              JUMPDEST \t\t\t\n            tag 563\t\t\t\n              JUMPDEST \t\t\t\n              PUSH 0\t\t\t\n              PUSH [tag] 565\t\t\t\n              DUP6 \t\t\t\n              DUP3 \t\t\t\n              DUP7 \t\t\t\n              ADD \t\t\t\n              PUSH [tag] 358\t\t\t\n              JUMP \t\t\t\n            tag 565\t\t\t\n              JUMPDEST \t\t\t\n              SWAP3 \t\t\t\n              POP \t\t\t\n              POP \t\t\t\n              PUSH 20\t\t\t\n              PUSH [tag] 566\t\t\t\n              DUP6 \t\t\t\n              DUP3 \t\t\t\n              DUP7 \t\t\t\n              ADD \t\t\t\n              PUSH [tag] 358\t\t\t\n              JUMP \t\t\t\n            tag 566\t\t\t\n              JUMPDEST \t\t\t\n              SWAP2 \t\t\t\n              POP \t\t\t\n              POP \t\t\t\n              SWAP3 \t\t\t\n              POP \t\t\t\n              SWAP3 \t\t\t\n              SWAP1 \t\t\t\n              POP \t\t\t\n              JUMP \t\t\t\n            tag 373\t\t\t\n              JUMPDEST \t\t\t\n              PUSH 4E487B7100000000000000000000000000000000000000000000000000000000\t\t\t\n              PUSH 0\t\t\t\n              MSTORE \t\t\t\n              PUSH 22\t\t\t\n              PUSH 4\t\t\t\n              MSTORE \t\t\t\n              PUSH 24\t\t\t\n              PUSH 0\t\t\t\n              REVERT \t\t\t\n            tag 90\t\t\t\n              JUMPDEST \t\t\t\n              PUSH 0\t\t\t\n              PUSH 2\t\t\t\n              DUP3 \t\t\t\n              DIV \t\t\t\n              SWAP1 \t\t\t\n              POP \t\t\t\n              PUSH 1\t\t\t\n              DUP3 \t\t\t\n              AND \t\t\t\n              DUP1 \t\t\t\n              PUSH [tag] 569\t\t\t\n              JUMPI \t\t\t\n              PUSH 7F\t\t\t\n              DUP3 \t\t\t\n              AND \t\t\t\n              SWAP2 \t\t\t\n              POP \t\t\t\n            tag 569\t\t\t\n              JUMPDEST \t\t\t\n              PUSH 20\t\t\t\n              DUP3 \t\t\t\n              LT \t\t\t\n              DUP2 \t\t\t\n              SUB \t\t\t\n              PUSH [tag] 570\t\t\t\n              JUMPI \t\t\t\n              PUSH [tag] 571\t\t\t\n              PUSH [tag] 373\t\t\t\n              JUMP \t\t\t\n            tag 571\t\t\t\n              JUMPDEST \t\t\t\n            tag 570\t\t\t\n              JUMPDEST \t\t\t\n              POP \t\t\t\n              SWAP2 \t\t\t\n              SWAP1 \t\t\t\n              POP \t\t\t\n              JUMP \t\t\t\n            tag 374\t\t\t\n              JUMPDEST \t\t\t\n              PUSH 4552433732313A20617070726F76616C20746F2063757272656E74206F776E65\t\t\t\n              PUSH 0\t\t\t\n              DUP3 \t\t\t\n              ADD \t\t\t\n              MSTORE \t\t\t\n              PUSH 7200000000000000000000000000000000000000000000000000000000000000\t\t\t\n              PUSH 20\t\t\t\n              DUP3 \t\t\t\n              ADD \t\t\t\n              MSTORE \t\t\t\n              POP \t\t\t\n              JUMP \t\t\t\n            tag 375\t\t\t\n              JUMPDEST \t\t\t\n              PUSH 0\t\t\t\n              PUSH [tag] 574\t\t\t\n              PUSH 21\t\t\t\n              DUP4 \t\t\t\n              PUSH [tag] 347\t\t\t\n              JUMP \t\t\t\n            tag 574\t\t\t\n              JUMPDEST \t\t\t\n              SWAP2 \t\t\t\n              POP \t\t\t\n              PUSH [tag] 575\t\t\t\n              DUP3 \t\t\t\n              PUSH [tag] 374\t\t\t\n              JUMP \t\t\t\n            tag 575\t\t\t\n              JUMPDEST \t\t\t\n              PUSH 40\t\t\t\n              DUP3 \t\t\t\n              ADD \t\t\t\n              SWAP1 \t\t\t\n              POP \t\t\t\n              SWAP2 \t\t\t\n              SWAP1 \t\t\t\n              POP \t\t\t\n              JUMP \t\t\t\n            tag 102\t\t\t\n              JUMPDEST \t\t\t\n              PUSH 0\t\t\t\n              PUSH 20\t\t\t\n              DUP3 \t\t\t\n              ADD \t\t\t\n              SWAP1 \t\t\t\n              POP \t\t\t\n              DUP2 \t\t\t\n              DUP2 \t\t\t\n              SUB \t\t\t\n              PUSH 0\t\t\t\n              DUP4 \t\t\t\n              ADD \t\t\t\n              MSTORE \t\t\t\n              PUSH [tag] 577\t\t\t\n              DUP2 \t\t\t\n              PUSH [tag] 375\t\t\t\n              JUMP \t\t\t\n            tag 577\t\t\t\n              JUMPDEST \t\t\t\n              SWAP1 \t\t\t\n              POP \t\t\t\n              SWAP2 \t\t\t\n              SWAP1 \t\t\t\n              POP \t\t\t\n              JUMP \t\t\t\n            tag 376\t\t\t\n              JUMPDEST \t\t\t\n              PUSH 4552433732313A20617070726F76652063616C6C6572206973206E6F7420746F\t\t\t\n              PUSH 0\t\t\t\n              DUP3 \t\t\t\n              ADD \t\t\t\n              MSTORE \t\t\t\n              PUSH 6B656E206F776E6572206F7220617070726F76656420666F7220616C6C000000\t\t\t\n              PUSH 20\t\t\t\n              DUP3 \t\t\t\n              ADD \t\t\t\n              MSTORE \t\t\t\n              POP \t\t\t\n              JUMP \t\t\t\n            tag 377\t\t\t\n              JUMPDEST \t\t\t\n              PUSH 0\t\t\t\n              PUSH [tag] 580\t\t\t\n              PUSH 3D\t\t\t\n              DUP4 \t\t\t\n              PUSH [tag] 347\t\t\t\n              JUMP \t\t\t\n            tag 580\t\t\t\n              JUMPDEST \t\t\t\n              SWAP2 \t\t\t\n              POP \t\t\t\n              PUSH [tag] 581\t\t\t\n              DUP3 \t\t\t\n              PUSH [tag] 376\t\t\t\n              JUMP \t\t\t\n            tag 581\t\t\t\n              JUMPDEST \t\t\t\n              PUSH 40\t\t\t\n              DUP3 \t\t\t\n              ADD \t\t\t\n              SWAP1 \t\t\t\n              POP \t\t\t\n              SWAP2 \t\t\t\n              SWAP1 \t\t\t\n              POP \t\t\t\n              JUMP \t\t\t\n            tag 110\t\t\t\n              JUMPDEST \t\t\t\n              PUSH 0\t\t\t\n              PUSH 20\t\t\t\n              DUP3 \t\t\t\n              ADD \t\t\t\n              SWAP1 \t\t\t\n              POP \t\t\t\n              DUP2 \t\t\t\n              DUP2 \t\t\t\n              SUB \t\t\t\n              PUSH 0\t\t\t\n              DUP4 \t\t\t\n              ADD \t\t\t\n              MSTORE \t\t\t\n              PUSH [tag] 583\t\t\t\n              DUP2 \t\t\t\n              PUSH [tag] 377\t\t\t\n              JUMP \t\t\t\n            tag 583\t\t\t\n              JUMPDEST \t\t\t\n              SWAP1 \t\t\t\n              POP \t\t\t\n              SWAP2 \t\t\t\n              SWAP1 \t\t\t\n              POP \t\t\t\n              JUMP \t\t\t\n            tag 378\t\t\t\n              JUMPDEST \t\t\t\n              PUSH 4552433732313A2063616C6C6572206973206E6F7420746F6B656E206F776E65\t\t\t\n              PUSH 0\t\t\t\n              DUP3 \t\t\t\n              ADD \t\t\t\n              MSTORE \t\t\t\n              PUSH 72206F7220617070726F76656400000000000000000000000000000000000000\t\t\t\n              PUSH 20\t\t\t\n              DUP3 \t\t\t\n              ADD \t\t\t\n              MSTORE \t\t\t\n              POP \t\t\t\n              JUMP \t\t\t\n            tag 379\t\t\t\n              JUMPDEST \t\t\t\n              PUSH 0\t\t\t\n              PUSH [tag] 586\t\t\t\n              PUSH 2D\t\t\t\n              DUP4 \t\t\t\n              PUSH [tag] 347\t\t\t\n              JUMP \t\t\t\n            tag 586\t\t\t\n              JUMPDEST \t\t\t\n              SWAP2 \t\t\t\n              POP \t\t\t\n              PUSH [tag] 587\t\t\t\n              DUP3 \t\t\t\n              PUSH [tag] 378\t\t\t\n              JUMP \t\t\t\n            tag 587\t\t\t\n              JUMPDEST \t\t\t\n              PUSH 40\t\t\t\n              DUP3 \t\t\t\n              ADD \t\t\t\n              SWAP1 \t\t\t\n              POP \t\t\t\n              SWAP2 \t\t\t\n              SWAP1 \t\t\t\n              POP \t\t\t\n              JUMP \t\t\t\n            tag 119\t\t\t\n              JUMPDEST \t\t\t\n              PUSH 0\t\t\t\n              PUSH 20\t\t\t\n              DUP3 \t\t\t\n              ADD \t\t\t\n              SWAP1 \t\t\t\n              POP \t\t\t\n              DUP2 \t\t\t\n              DUP2 \t\t\t\n              SUB \t\t\t\n              PUSH 0\t\t\t\n              DUP4 \t\t\t\n              ADD \t\t\t\n              MSTORE \t\t\t\n              PUSH [tag] 589\t\t\t\n              DUP2 \t\t\t\n              PUSH [tag] 379\t\t\t\n              JUMP \t\t\t\n            tag 589\t\t\t\n              JUMPDEST \t\t\t\n              SWAP1 \t\t\t\n              POP \t\t\t\n              SWAP2 \t\t\t\n              SWAP1 \t\t\t\n              POP \t\t\t\n              JUMP \t\t\t\n            tag 380\t\t\t\n              JUMPDEST \t\t\t\n              PUSH 4552433732313A20696E76616C696420746F6B656E2049440000000000000000\t\t\t\n              PUSH 0\t\t\t\n              DUP3 \t\t\t\n              ADD \t\t\t\n              MSTORE \t\t\t\n              POP \t\t\t\n              JUMP \t\t\t\n            tag 381\t\t\t\n              JUMPDEST \t\t\t\n              PUSH 0\t\t\t\n              PUSH [tag] 592\t\t\t\n              PUSH 18\t\t\t\n              DUP4 \t\t\t\n              PUSH [tag] 347\t\t\t\n              JUMP \t\t\t\n            tag 592\t\t\t\n              JUMPDEST \t\t\t\n              SWAP2 \t\t\t\n              POP \t\t\t\n              PUSH [tag] 593\t\t\t\n              DUP3 \t\t\t\n              PUSH [tag] 380\t\t\t\n              JUMP \t\t\t\n            tag 593\t\t\t\n              JUMPDEST \t\t\t\n              PUSH 20\t\t\t\n              DUP3 \t\t\t\n              ADD \t\t\t\n              SWAP1 \t\t\t\n              POP \t\t\t\n              SWAP2 \t\t\t\n              SWAP1 \t\t\t\n              POP \t\t\t\n              JUMP \t\t\t\n            tag 129\t\t\t\n              JUMPDEST \t\t\t\n              PUSH 0\t\t\t\n              PUSH 20\t\t\t\n              DUP3 \t\t\t\n              ADD \t\t\t\n              SWAP1 \t\t\t\n              POP \t\t\t\n              DUP2 \t\t\t\n              DUP2 \t\t\t\n              SUB \t\t\t\n              PUSH 0\t\t\t\n              DUP4 \t\t\t\n              ADD \t\t\t\n              MSTORE \t\t\t\n              PUSH [tag] 595\t\t\t\n              DUP2 \t\t\t\n              PUSH [tag] 381\t\t\t\n              JUMP \t\t\t\n            tag 595\t\t\t\n              JUMPDEST \t\t\t\n              SWAP1 \t\t\t\n              POP \t\t\t\n              SWAP2 \t\t\t\n              SWAP1 \t\t\t\n              POP \t\t\t\n              JUMP \t\t\t\n            tag 382\t\t\t\n              JUMPDEST \t\t\t\n              PUSH 4552433732313A2061646472657373207A65726F206973206E6F742061207661\t\t\t\n              PUSH 0\t\t\t\n              DUP3 \t\t\t\n              ADD \t\t\t\n              MSTORE \t\t\t\n              PUSH 6C6964206F776E65720000000000000000000000000000000000000000000000\t\t\t\n              PUSH 20\t\t\t\n              DUP3 \t\t\t\n              ADD \t\t\t\n              MSTORE \t\t\t\n              POP \t\t\t\n              JUMP \t\t\t\n            tag 383\t\t\t\n              JUMPDEST \t\t\t\n              PUSH 0\t\t\t\n              PUSH [tag] 598\t\t\t\n              PUSH 29\t\t\t\n              DUP4 \t\t\t\n              PUSH [tag] 347\t\t\t\n              JUMP \t\t\t\n            tag 598\t\t\t\n              JUMPDEST \t\t\t\n              SWAP2 \t\t\t\n              POP \t\t\t\n              PUSH [tag] 599\t\t\t\n              DUP3 \t\t\t\n              PUSH [tag] 382\t\t\t\n              JUMP \t\t\t\n            tag 599\t\t\t\n              JUMPDEST \t\t\t\n              PUSH 40\t\t\t\n              DUP3 \t\t\t\n              ADD \t\t\t\n              SWAP1 \t\t\t\n              POP \t\t\t\n              SWAP2 \t\t\t\n              SWAP1 \t\t\t\n              POP \t\t\t\n              JUMP \t\t\t\n            tag 133\t\t\t\n              JUMPDEST \t\t\t\n              PUSH 0\t\t\t\n              PUSH 20\t\t\t\n              DUP3 \t\t\t\n              ADD \t\t\t\n              SWAP1 \t\t\t\n              POP \t\t\t\n              DUP2 \t\t\t\n              DUP2 \t\t\t\n              SUB \t\t\t\n              PUSH 0\t\t\t\n              DUP4 \t\t\t\n              ADD \t\t\t\n              MSTORE \t\t\t\n              PUSH [tag] 601\t\t\t\n              DUP2 \t\t\t\n              PUSH [tag] 383\t\t\t\n              JUMP \t\t\t\n            tag 601\t\t\t\n              JUMPDEST \t\t\t\n              SWAP1 \t\t\t\n              POP \t\t\t\n              SWAP2 \t\t\t\n              SWAP1 \t\t\t\n              POP \t\t\t\n              JUMP \t\t\t\n            tag 384\t\t\t\n              JUMPDEST \t\t\t\n              PUSH 596F7520646F206E6F7420686176652061636365737321000000000000000000\t\t\t\n              PUSH 0\t\t\t\n              DUP3 \t\t\t\n              ADD \t\t\t\n              MSTORE \t\t\t\n              POP \t\t\t\n              JUMP \t\t\t\n            tag 385\t\t\t\n              JUMPDEST \t\t\t\n              PUSH 0\t\t\t\n              PUSH [tag] 604\t\t\t\n              PUSH 17\t\t\t\n              DUP4 \t\t\t\n              PUSH [tag] 347\t\t\t\n              JUMP \t\t\t\n            tag 604\t\t\t\n              JUMPDEST \t\t\t\n              SWAP2 \t\t\t\n              POP \t\t\t\n              PUSH [tag] 605\t\t\t\n              DUP3 \t\t\t\n              PUSH [tag] 384\t\t\t\n              JUMP \t\t\t\n            tag 605\t\t\t\n              JUMPDEST \t\t\t\n              PUSH 20\t\t\t\n              DUP3 \t\t\t\n              ADD \t\t\t\n              SWAP1 \t\t\t\n              POP \t\t\t\n              SWAP2 \t\t\t\n              SWAP1 \t\t\t\n              POP \t\t\t\n              JUMP \t\t\t\n            tag 157\t\t\t\n              JUMPDEST \t\t\t\n              PUSH 0\t\t\t\n              PUSH 20\t\t\t\n              DUP3 \t\t\t\n              ADD \t\t\t\n              SWAP1 \t\t\t\n              POP \t\t\t\n              DUP2 \t\t\t\n              DUP2 \t\t\t\n              SUB \t\t\t\n              PUSH 0\t\t\t\n              DUP4 \t\t\t\n              ADD \t\t\t\n              MSTORE \t\t\t\n              PUSH [tag] 607\t\t\t\n              DUP2 \t\t\t\n              PUSH [tag] 385\t\t\t\n              JUMP \t\t\t\n            tag 607\t\t\t\n              JUMPDEST \t\t\t\n              SWAP1 \t\t\t\n              POP \t\t\t\n              SWAP2 \t\t\t\n              SWAP1 \t\t\t\n              POP \t\t\t\n              JUMP \t\t\t\n            tag 386\t\t\t\n              JUMPDEST \t\t\t\n              PUSH 54686572652063616E206265206F6E6C79203330204E46547320696E20612054\t\t\t\n              PUSH 0\t\t\t\n              DUP3 \t\t\t\n              ADD \t\t\t\n              MSTORE \t\t\t\n              PUSH 72656520436F6C6C656374696F6E210000000000000000000000000000000000\t\t\t\n              PUSH 20\t\t\t\n              DUP3 \t\t\t\n              ADD \t\t\t\n              MSTORE \t\t\t\n              POP \t\t\t\n              JUMP \t\t\t\n            tag 387\t\t\t\n              JUMPDEST \t\t\t\n              PUSH 0\t\t\t\n              PUSH [tag] 610\t\t\t\n              PUSH 2F\t\t\t\n              DUP4 \t\t\t\n              PUSH [tag] 347\t\t\t\n              JUMP \t\t\t\n            tag 610\t\t\t\n              JUMPDEST \t\t\t\n              SWAP2 \t\t\t\n              POP \t\t\t\n              PUSH [tag] 611\t\t\t\n              DUP3 \t\t\t\n              PUSH [tag] 386\t\t\t\n              JUMP \t\t\t\n            tag 611\t\t\t\n              JUMPDEST \t\t\t\n              PUSH 40\t\t\t\n              DUP3 \t\t\t\n              ADD \t\t\t\n              SWAP1 \t\t\t\n              POP \t\t\t\n              SWAP2 \t\t\t\n              SWAP1 \t\t\t\n              POP \t\t\t\n              JUMP \t\t\t\n            tag 165\t\t\t\n              JUMPDEST \t\t\t\n              PUSH 0\t\t\t\n              PUSH 20\t\t\t\n              DUP3 \t\t\t\n              ADD \t\t\t\n              SWAP1 \t\t\t\n              POP \t\t\t\n              DUP2 \t\t\t\n              DUP2 \t\t\t\n              SUB \t\t\t\n              PUSH 0\t\t\t\n              DUP4 \t\t\t\n              ADD \t\t\t\n              MSTORE \t\t\t\n              PUSH [tag] 613\t\t\t\n              DUP2 \t\t\t\n              PUSH [tag] 387\t\t\t\n              JUMP \t\t\t\n            tag 613\t\t\t\n              JUMPDEST \t\t\t\n              SWAP1 \t\t\t\n              POP \t\t\t\n              SWAP2 \t\t\t\n              SWAP1 \t\t\t\n              POP \t\t\t\n              JUMP \t\t\t\n            tag 388\t\t\t\n              JUMPDEST \t\t\t\n              PUSH 4552433732313A207472616E736665722066726F6D20696E636F727265637420\t\t\t\n              PUSH 0\t\t\t\n              DUP3 \t\t\t\n              ADD \t\t\t\n              MSTORE \t\t\t\n              PUSH 6F776E6572000000000000000000000000000000000000000000000000000000\t\t\t\n              PUSH 20\t\t\t\n              DUP3 \t\t\t\n              ADD \t\t\t\n              MSTORE \t\t\t\n              POP \t\t\t\n              JUMP \t\t\t\n            tag 389\t\t\t\n              JUMPDEST \t\t\t\n              PUSH 0\t\t\t\n              PUSH [tag] 616\t\t\t\n              PUSH 25\t\t\t\n              DUP4 \t\t\t\n              PUSH [tag] 347\t\t\t\n              JUMP \t\t\t\n            tag 616\t\t\t\n              JUMPDEST \t\t\t\n              SWAP2 \t\t\t\n              POP \t\t\t\n              PUSH [tag] 617\t\t\t\n              DUP3 \t\t\t\n              PUSH [tag] 388\t\t\t\n              JUMP \t\t\t\n            tag 617\t\t\t\n              JUMPDEST \t\t\t\n              PUSH 40\t\t\t\n              DUP3 \t\t\t\n              ADD \t\t\t\n              SWAP1 \t\t\t\n              POP \t\t\t\n              SWAP2 \t\t\t\n              SWAP1 \t\t\t\n              POP \t\t\t\n              JUMP \t\t\t\n            tag 193\t\t\t\n              JUMPDEST \t\t\t\n              PUSH 0\t\t\t\n              PUSH 20\t\t\t\n              DUP3 \t\t\t\n              ADD \t\t\t\n              SWAP1 \t\t\t\n              POP \t\t\t\n              DUP2 \t\t\t\n              DUP2 \t\t\t\n              SUB \t\t\t\n              PUSH 0\t\t\t\n              DUP4 \t\t\t\n              ADD \t\t\t\n              MSTORE \t\t\t\n              PUSH [tag] 619\t\t\t\n              DUP2 \t\t\t\n              PUSH [tag] 389\t\t\t\n              JUMP \t\t\t\n            tag 619\t\t\t\n              JUMPDEST \t\t\t\n              SWAP1 \t\t\t\n              POP \t\t\t\n              SWAP2 \t\t\t\n              SWAP1 \t\t\t\n              POP \t\t\t\n              JUMP \t\t\t\n            tag 390\t\t\t\n              JUMPDEST \t\t\t\n              PUSH 4552433732313A207472616E7366657220746F20746865207A65726F20616464\t\t\t\n              PUSH 0\t\t\t\n              DUP3 \t\t\t\n              ADD \t\t\t\n              MSTORE \t\t\t\n              PUSH 7265737300000000000000000000000000000000000000000000000000000000\t\t\t\n              PUSH 20\t\t\t\n              DUP3 \t\t\t\n              ADD \t\t\t\n              MSTORE \t\t\t\n              POP \t\t\t\n              JUMP \t\t\t\n            tag 391\t\t\t\n              JUMPDEST \t\t\t\n              PUSH 0\t\t\t\n              PUSH [tag] 622\t\t\t\n              PUSH 24\t\t\t\n              DUP4 \t\t\t\n              PUSH [tag] 347\t\t\t\n              JUMP \t\t\t\n            tag 622\t\t\t\n              JUMPDEST \t\t\t\n              SWAP2 \t\t\t\n              POP \t\t\t\n              PUSH [tag] 623\t\t\t\n              DUP3 \t\t\t\n              PUSH [tag] 390\t\t\t\n              JUMP \t\t\t\n            tag 623\t\t\t\n              JUMPDEST \t\t\t\n              PUSH 40\t\t\t\n              DUP3 \t\t\t\n              ADD \t\t\t\n              SWAP1 \t\t\t\n              POP \t\t\t\n              SWAP2 \t\t\t\n              SWAP1 \t\t\t\n              POP \t\t\t\n              JUMP \t\t\t\n            tag 196\t\t\t\n              JUMPDEST \t\t\t\n              PUSH 0\t\t\t\n              PUSH 20\t\t\t\n              DUP3 \t\t\t\n              ADD \t\t\t\n              SWAP1 \t\t\t\n              POP \t\t\t\n              DUP2 \t\t\t\n              DUP2 \t\t\t\n              SUB \t\t\t\n              PUSH 0\t\t\t\n              DUP4 \t\t\t\n              ADD \t\t\t\n              MSTORE \t\t\t\n              PUSH [tag] 625\t\t\t\n              DUP2 \t\t\t\n              PUSH [tag] 391\t\t\t\n              JUMP \t\t\t\n            tag 625\t\t\t\n              JUMPDEST \t\t\t\n              SWAP1 \t\t\t\n              POP \t\t\t\n              SWAP2 \t\t\t\n              SWAP1 \t\t\t\n              POP \t\t\t\n              JUMP \t\t\t\n            tag 392\t\t\t\n              JUMPDEST \t\t\t\n              PUSH 4552433732313A20617070726F766520746F2063616C6C657200000000000000\t\t\t\n              PUSH 0\t\t\t\n              DUP3 \t\t\t\n              ADD \t\t\t\n              MSTORE \t\t\t\n              POP \t\t\t\n              JUMP \t\t\t\n            tag 393\t\t\t\n              JUMPDEST \t\t\t\n              PUSH 0\t\t\t\n              PUSH [tag] 628\t\t\t\n              PUSH 19\t\t\t\n              DUP4 \t\t\t\n              PUSH [tag] 347\t\t\t\n              JUMP \t\t\t\n            tag 628\t\t\t\n              JUMPDEST \t\t\t\n              SWAP2 \t\t\t\n              POP \t\t\t\n              PUSH [tag] 629\t\t\t\n              DUP3 \t\t\t\n              PUSH [tag] 392\t\t\t\n              JUMP \t\t\t\n            tag 629\t\t\t\n              JUMPDEST \t\t\t\n              PUSH 20\t\t\t\n              DUP3 \t\t\t\n              ADD \t\t\t\n              SWAP1 \t\t\t\n              POP \t\t\t\n              SWAP2 \t\t\t\n              SWAP1 \t\t\t\n              POP \t\t\t\n              JUMP \t\t\t\n            tag 208\t\t\t\n              JUMPDEST \t\t\t\n              PUSH 0\t\t\t\n              PUSH 20\t\t\t\n              DUP3 \t\t\t\n              ADD \t\t\t\n              SWAP1 \t\t\t\n              POP \t\t\t\n              DUP2 \t\t\t\n              DUP2 \t\t\t\n              SUB \t\t\t\n              PUSH 0\t\t\t\n              DUP4 \t\t\t\n              ADD \t\t\t\n              MSTORE \t\t\t\n              PUSH [tag] 631\t\t\t\n              DUP2 \t\t\t\n              PUSH [tag] 393\t\t\t\n              JUMP \t\t\t\n            tag 631\t\t\t\n              JUMPDEST \t\t\t\n              SWAP1 \t\t\t\n              POP \t\t\t\n              SWAP2 \t\t\t\n              SWAP1 \t\t\t\n              POP \t\t\t\n              JUMP \t\t\t\n            tag 394\t\t\t\n              JUMPDEST \t\t\t\n              PUSH 4552433732313A207472616E7366657220746F206E6F6E204552433732315265\t\t\t\n              PUSH 0\t\t\t\n              DUP3 \t\t\t\n              ADD \t\t\t\n              MSTORE \t\t\t\n              PUSH 63656976657220696D706C656D656E7465720000000000000000000000000000\t\t\t\n              PUSH 20\t\t\t\n              DUP3 \t\t\t\n              ADD \t\t\t\n              MSTORE \t\t\t\n              POP \t\t\t\n              JUMP \t\t\t\n            tag 395\t\t\t\n              JUMPDEST \t\t\t\n              PUSH 0\t\t\t\n              PUSH [tag] 634\t\t\t\n              PUSH 32\t\t\t\n              DUP4 \t\t\t\n              PUSH [tag] 347\t\t\t\n              JUMP \t\t\t\n            tag 634\t\t\t\n              JUMPDEST \t\t\t\n              SWAP2 \t\t\t\n              POP \t\t\t\n              PUSH [tag] 635\t\t\t\n              DUP3 \t\t\t\n              PUSH [tag] 394\t\t\t\n              JUMP \t\t\t\n            tag 635\t\t\t\n              JUMPDEST \t\t\t\n              PUSH 40\t\t\t\n              DUP3 \t\t\t\n              ADD \t\t\t\n              SWAP1 \t\t\t\n              POP \t\t\t\n              SWAP2 \t\t\t\n              SWAP1 \t\t\t\n              POP \t\t\t\n              JUMP \t\t\t\n            tag 216\t\t\t\n              JUMPDEST \t\t\t\n              PUSH 0\t\t\t\n              PUSH 20\t\t\t\n              DUP3 \t\t\t\n              ADD \t\t\t\n              SWAP1 \t\t\t\n              POP \t\t\t\n              DUP2 \t\t\t\n              DUP2 \t\t\t\n              SUB \t\t\t\n              PUSH 0\t\t\t\n              DUP4 \t\t\t\n              ADD \t\t\t\n              MSTORE \t\t\t\n              PUSH [tag] 637\t\t\t\n              DUP2 \t\t\t\n              PUSH [tag] 395\t\t\t\n              JUMP \t\t\t\n            tag 637\t\t\t\n              JUMPDEST \t\t\t\n              SWAP1 \t\t\t\n              POP \t\t\t\n              SWAP2 \t\t\t\n              SWAP1 \t\t\t\n              POP \t\t\t\n              JUMP \t\t\t\n            tag 396\t\t\t\n              JUMPDEST \t\t\t\n              PUSH 0\t\t\t\n              DUP2 \t\t\t\n              SWAP1 \t\t\t\n              POP \t\t\t\n              SWAP3 \t\t\t\n              SWAP2 \t\t\t\n              POP \t\t\t\n              POP \t\t\t\n              JUMP \t\t\t\n            tag 397\t\t\t\n              JUMPDEST \t\t\t\n              PUSH 0\t\t\t\n              PUSH [tag] 640\t\t\t\n              DUP3 \t\t\t\n              PUSH [tag] 346\t\t\t\n              JUMP \t\t\t\n            tag 640\t\t\t\n              JUMPDEST \t\t\t\n              PUSH [tag] 641\t\t\t\n              DUP2 \t\t\t\n              DUP6 \t\t\t\n              PUSH [tag] 396\t\t\t\n              JUMP \t\t\t\n            tag 641\t\t\t\n              JUMPDEST \t\t\t\n              SWAP4 \t\t\t\n              POP \t\t\t\n              PUSH [tag] 642\t\t\t\n              DUP2 \t\t\t\n              DUP6 \t\t\t\n              PUSH 20\t\t\t\n              DUP7 \t\t\t\n              ADD \t\t\t\n              PUSH [tag] 348\t\t\t\n              JUMP \t\t\t\n            tag 642\t\t\t\n              JUMPDEST \t\t\t\n              DUP1 \t\t\t\n              DUP5 \t\t\t\n              ADD \t\t\t\n              SWAP2 \t\t\t\n              POP \t\t\t\n              POP \t\t\t\n              SWAP3 \t\t\t\n              SWAP2 \t\t\t\n              POP \t\t\t\n              POP \t\t\t\n              JUMP \t\t\t\n            tag 229\t\t\t\n              JUMPDEST \t\t\t\n              PUSH 0\t\t\t\n              PUSH [tag] 644\t\t\t\n              DUP3 \t\t\t\n              DUP6 \t\t\t\n              PUSH [tag] 397\t\t\t\n              JUMP \t\t\t\n            tag 644\t\t\t\n              JUMPDEST \t\t\t\n              SWAP2 \t\t\t\n              POP \t\t\t\n              PUSH [tag] 645\t\t\t\n              DUP3 \t\t\t\n              DUP5 \t\t\t\n              PUSH [tag] 397\t\t\t\n              JUMP \t\t\t\n            tag 645\t\t\t\n              JUMPDEST \t\t\t\n              SWAP2 \t\t\t\n              POP \t\t\t\n              DUP2 \t\t\t\n              SWAP1 \t\t\t\n              POP \t\t\t\n              SWAP4 \t\t\t\n              SWAP3 \t\t\t\n              POP \t\t\t\n              POP \t\t\t\n              POP \t\t\t\n              JUMP \t\t\t\n            tag 398\t\t\t\n              JUMPDEST \t\t\t\n              PUSH 45524337323155524953746F726167653A2055524920736574206F66206E6F6E\t\t\t\n              PUSH 0\t\t\t\n              DUP3 \t\t\t\n              ADD \t\t\t\n              MSTORE \t\t\t\n              PUSH 6578697374656E7420746F6B656E000000000000000000000000000000000000\t\t\t\n              PUSH 20\t\t\t\n              DUP3 \t\t\t\n              ADD \t\t\t\n              MSTORE \t\t\t\n              POP \t\t\t\n              JUMP \t\t\t\n            tag 399\t\t\t\n              JUMPDEST \t\t\t\n              PUSH 0\t\t\t\n              PUSH [tag] 648\t\t\t\n              PUSH 2E\t\t\t\n              DUP4 \t\t\t\n              PUSH [tag] 347\t\t\t\n              JUMP \t\t\t\n            tag 648\t\t\t\n              JUMPDEST \t\t\t\n              SWAP2 \t\t\t\n              POP \t\t\t\n              PUSH [tag] 649\t\t\t\n              DUP3 \t\t\t\n              PUSH [tag] 398\t\t\t\n              JUMP \t\t\t\n            tag 649\t\t\t\n              JUMPDEST \t\t\t\n              PUSH 40\t\t\t\n              DUP3 \t\t\t\n              ADD \t\t\t\n              SWAP1 \t\t\t\n              POP \t\t\t\n              SWAP2 \t\t\t\n              SWAP1 \t\t\t\n              POP \t\t\t\n              JUMP \t\t\t\n            tag 241\t\t\t\n              JUMPDEST \t\t\t\n              PUSH 0\t\t\t\n              PUSH 20\t\t\t\n              DUP3 \t\t\t\n              ADD \t\t\t\n              SWAP1 \t\t\t\n              POP \t\t\t\n              DUP2 \t\t\t\n              DUP2 \t\t\t\n              SUB \t\t\t\n              PUSH 0\t\t\t\n              DUP4 \t\t\t\n              ADD \t\t\t\n              MSTORE \t\t\t\n              PUSH [tag] 651\t\t\t\n              DUP2 \t\t\t\n              PUSH [tag] 399\t\t\t\n              JUMP \t\t\t\n            tag 651\t\t\t\n              JUMPDEST \t\t\t\n              SWAP1 \t\t\t\n              POP \t\t\t\n              SWAP2 \t\t\t\n              SWAP1 \t\t\t\n              POP \t\t\t\n              JUMP \t\t\t\n            tag 400\t\t\t\n              JUMPDEST \t\t\t\n              PUSH 0\t\t\t\n              DUP2 \t\t\t\n              SWAP1 \t\t\t\n              POP \t\t\t\n              DUP2 \t\t\t\n              PUSH 0\t\t\t\n              MSTORE \t\t\t\n              PUSH 20\t\t\t\n              PUSH 0\t\t\t\n              KECCAK256 \t\t\t\n              SWAP1 \t\t\t\n              POP \t\t\t\n              SWAP2 \t\t\t\n              SWAP1 \t\t\t\n              POP \t\t\t\n              JUMP \t\t\t\n            tag 401\t\t\t\n              JUMPDEST \t\t\t\n              PUSH 0\t\t\t\n              PUSH 20\t\t\t\n              PUSH 1F\t\t\t\n              DUP4 \t\t\t\n              ADD \t\t\t\n              DIV \t\t\t\n              SWAP1 \t\t\t\n              POP \t\t\t\n              SWAP2 \t\t\t\n              SWAP1 \t\t\t\n              POP \t\t\t\n              JUMP \t\t\t\n            tag 402\t\t\t\n              JUMPDEST \t\t\t\n              PUSH 0\t\t\t\n              DUP3 \t\t\t\n              DUP3 \t\t\t\n              SHL \t\t\t\n              SWAP1 \t\t\t\n              POP \t\t\t\n              SWAP3 \t\t\t\n              SWAP2 \t\t\t\n              POP \t\t\t\n              POP \t\t\t\n              JUMP \t\t\t\n            tag 403\t\t\t\n              JUMPDEST \t\t\t\n              PUSH 0\t\t\t\n              PUSH 8\t\t\t\n              DUP4 \t\t\t\n              MUL \t\t\t\n              PUSH [tag] 656\t\t\t\n              PUSH FFFFFFFFFFFFFFFFFFFFFFFFFFFFFFFFFFFFFFFFFFFFFFFFFFFFFFFFFFFFFFFF\t\t\t\n              DUP3 \t\t\t\n              PUSH [tag] 402\t\t\t\n              JUMP \t\t\t\n            tag 656\t\t\t\n              JUMPDEST \t\t\t\n              PUSH [tag] 657\t\t\t\n              DUP7 \t\t\t\n              DUP4 \t\t\t\n              PUSH [tag] 402\t\t\t\n              JUMP \t\t\t\n            tag 657\t\t\t\n              JUMPDEST \t\t\t\n              SWAP6 \t\t\t\n              POP \t\t\t\n              DUP1 \t\t\t\n              NOT \t\t\t\n              DUP5 \t\t\t\n              AND \t\t\t\n              SWAP4 \t\t\t\n              POP \t\t\t\n              DUP1 \t\t\t\n              DUP7 \t\t\t\n              AND \t\t\t\n              DUP5 \t\t\t\n              OR \t\t\t\n              SWAP3 \t\t\t\n              POP \t\t\t\n              POP \t\t\t\n              POP \t\t\t\n              SWAP4 \t\t\t\n              SWAP3 \t\t\t\n              POP \t\t\t\n              POP \t\t\t\n              POP \t\t\t\n              JUMP \t\t\t\n            tag 404\t\t\t\n              JUMPDEST \t\t\t\n              PUSH 0\t\t\t\n              DUP2 \t\t\t\n              SWAP1 \t\t\t\n              POP \t\t\t\n              SWAP2 \t\t\t\n              SWAP1 \t\t\t\n              POP \t\t\t\n              JUMP \t\t\t\n            tag 405\t\t\t\n              JUMPDEST \t\t\t\n              PUSH 0\t\t\t\n              PUSH [tag] 660\t\t\t\n              PUSH [tag] 661\t\t\t\n              PUSH [tag] 662\t\t\t\n              DUP5 \t\t\t\n              PUSH [tag] 351\t\t\t\n              JUMP \t\t\t\n            tag 662\t\t\t\n              JUMPDEST \t\t\t\n              PUSH [tag] 404\t\t\t\n              JUMP \t\t\t\n            tag 661\t\t\t\n              JUMPDEST \t\t\t\n              PUSH [tag] 351\t\t\t\n              JUMP \t\t\t\n            tag 660\t\t\t\n              JUMPDEST \t\t\t\n              SWAP1 \t\t\t\n              POP \t\t\t\n              SWAP2 \t\t\t\n              SWAP1 \t\t\t\n              POP \t\t\t\n              JUMP \t\t\t\n            tag 406\t\t\t\n              JUMPDEST \t\t\t\n              PUSH 0\t\t\t\n              DUP2 \t\t\t\n              SWAP1 \t\t\t\n              POP \t\t\t\n              SWAP2 \t\t\t\n              SWAP1 \t\t\t\n              POP \t\t\t\n              JUMP \t\t\t\n            tag 407\t\t\t\n              JUMPDEST \t\t\t\n              PUSH [tag] 665\t\t\t\n              DUP4 \t\t\t\n              PUSH [tag] 405\t\t\t\n              JUMP \t\t\t\n            tag 665\t\t\t\n              JUMPDEST \t\t\t\n              PUSH [tag] 666\t\t\t\n              PUSH [tag] 667\t\t\t\n              DUP3 \t\t\t\n              PUSH [tag] 406\t\t\t\n              JUMP \t\t\t\n            tag 667\t\t\t\n              JUMPDEST \t\t\t\n              DUP5 \t\t\t\n              DUP5 \t\t\t\n              SLOAD \t\t\t\n              PUSH [tag] 403\t\t\t\n              JUMP \t\t\t\n            tag 666\t\t\t\n              JUMPDEST \t\t\t\n              DUP3 \t\t\t\n              SSTORE \t\t\t\n              POP \t\t\t\n              POP \t\t\t\n              POP \t\t\t\n              POP \t\t\t\n              JUMP \t\t\t\n            tag 408\t\t\t\n              JUMPDEST \t\t\t\n              PUSH 0\t\t\t\n              SWAP1 \t\t\t\n              JUMP \t\t\t\n            tag 409\t\t\t\n              JUMPDEST \t\t\t\n              PUSH [tag] 670\t\t\t\n              PUSH [tag] 408\t\t\t\n              JUMP \t\t\t\n            tag 670\t\t\t\n              JUMPDEST \t\t\t\n              PUSH [tag] 671\t\t\t\n              DUP2 \t\t\t\n              DUP5 \t\t\t\n              DUP5 \t\t\t\n              PUSH [tag] 407\t\t\t\n              JUMP \t\t\t\n            tag 671\t\t\t\n              JUMPDEST \t\t\t\n              POP \t\t\t\n              POP \t\t\t\n              POP \t\t\t\n              JUMP \t\t\t\n            tag 410\t\t\t\n              JUMPDEST \t\t\t\n            tag 673\t\t\t\n              JUMPDEST \t\t\t\n              DUP2 \t\t\t\n              DUP2 \t\t\t\n              LT \t\t\t\n              ISZERO \t\t\t\n              PUSH [tag] 675\t\t\t\n              JUMPI \t\t\t\n              PUSH [tag] 676\t\t\t\n              PUSH 0\t\t\t\n              DUP3 \t\t\t\n              PUSH [tag] 409\t\t\t\n              JUMP \t\t\t\n            tag 676\t\t\t\n              JUMPDEST \t\t\t\n              PUSH 1\t\t\t\n              DUP2 \t\t\t\n              ADD \t\t\t\n              SWAP1 \t\t\t\n              POP \t\t\t\n              PUSH [tag] 673\t\t\t\n              JUMP \t\t\t\n            tag 675\t\t\t\n              JUMPDEST \t\t\t\n              POP \t\t\t\n              POP \t\t\t\n              JUMP \t\t\t\n            tag 411\t\t\t\n              JUMPDEST \t\t\t\n              PUSH 1F\t\t\t\n              DUP3 \t\t\t\n              GT \t\t\t\n              ISZERO \t\t\t\n              PUSH [tag] 678\t\t\t\n              JUMPI \t\t\t\n              PUSH [tag] 679\t\t\t\n              DUP2 \t\t\t\n              PUSH [tag] 400\t\t\t\n              JUMP \t\t\t\n            tag 679\t\t\t\n              JUMPDEST \t\t\t\n              PUSH [tag] 680\t\t\t\n              DUP5 \t\t\t\n              PUSH [tag] 401\t\t\t\n              JUMP \t\t\t\n            tag 680\t\t\t\n              JUMPDEST \t\t\t\n              DUP2 \t\t\t\n              ADD \t\t\t\n              PUSH 20\t\t\t\n              DUP6 \t\t\t\n              LT \t\t\t\n              ISZERO \t\t\t\n              PUSH [tag] 681\t\t\t\n              JUMPI \t\t\t\n              DUP2 \t\t\t\n              SWAP1 \t\t\t\n              POP \t\t\t\n            tag 681\t\t\t\n              JUMPDEST \t\t\t\n              PUSH [tag] 682\t\t\t\n              PUSH [tag] 683\t\t\t\n              DUP6 \t\t\t\n              PUSH [tag] 401\t\t\t\n              JUMP \t\t\t\n            tag 683\t\t\t\n              JUMPDEST \t\t\t\n              DUP4 \t\t\t\n              ADD \t\t\t\n              DUP3 \t\t\t\n              PUSH [tag] 410\t\t\t\n              JUMP \t\t\t\n            tag 682\t\t\t\n              JUMPDEST \t\t\t\n              POP \t\t\t\n              POP \t\t\t\n            tag 678\t\t\t\n              JUMPDEST \t\t\t\n              POP \t\t\t\n              POP \t\t\t\n              POP \t\t\t\n              JUMP \t\t\t\n            tag 412\t\t\t\n              JUMPDEST \t\t\t\n              PUSH 0\t\t\t\n              DUP3 \t\t\t\n              DUP3 \t\t\t\n              SHR \t\t\t\n              SWAP1 \t\t\t\n              POP \t\t\t\n              SWAP3 \t\t\t\n              SWAP2 \t\t\t\n              POP \t\t\t\n              POP \t\t\t\n              JUMP \t\t\t\n            tag 413\t\t\t\n              JUMPDEST \t\t\t\n              PUSH 0\t\t\t\n              PUSH [tag] 686\t\t\t\n              PUSH 0\t\t\t\n              NOT \t\t\t\n              DUP5 \t\t\t\n              PUSH 8\t\t\t\n              MUL \t\t\t\n              PUSH [tag] 412\t\t\t\n              JUMP \t\t\t\n            tag 686\t\t\t\n              JUMPDEST \t\t\t\n              NOT \t\t\t\n              DUP1 \t\t\t\n              DUP4 \t\t\t\n              AND \t\t\t\n              SWAP2 \t\t\t\n              POP \t\t\t\n              POP \t\t\t\n              SWAP3 \t\t\t\n              SWAP2 \t\t\t\n              POP \t\t\t\n              POP \t\t\t\n              JUMP \t\t\t\n            tag 414\t\t\t\n              JUMPDEST \t\t\t\n              PUSH 0\t\t\t\n              PUSH [tag] 688\t\t\t\n              DUP4 \t\t\t\n              DUP4 \t\t\t\n              PUSH [tag] 413\t\t\t\n              JUMP \t\t\t\n            tag 688\t\t\t\n              JUMPDEST \t\t\t\n              SWAP2 \t\t\t\n              POP \t\t\t\n              DUP3 \t\t\t\n              PUSH 2\t\t\t\n              MUL \t\t\t\n              DUP3 \t\t\t\n              OR \t\t\t\n              SWAP1 \t\t\t\n              POP \t\t\t\n              SWAP3 \t\t\t\n              SWAP2 \t\t\t\n              POP \t\t\t\n              POP \t\t\t\n              JUMP \t\t\t\n            tag 243\t\t\t\n              JUMPDEST \t\t\t\n              PUSH [tag] 690\t\t\t\n              DUP3 \t\t\t\n              PUSH [tag] 346\t\t\t\n              JUMP \t\t\t\n            tag 690\t\t\t\n              JUMPDEST \t\t\t\n              PUSH FFFFFFFFFFFFFFFF\t\t\t\n              DUP2 \t\t\t\n              GT \t\t\t\n              ISZERO \t\t\t\n              PUSH [tag] 691\t\t\t\n              JUMPI \t\t\t\n              PUSH [tag] 692\t\t\t\n              PUSH [tag] 297\t\t\t\n              JUMP \t\t\t\n            tag 692\t\t\t\n              JUMPDEST \t\t\t\n            tag 691\t\t\t\n              JUMPDEST \t\t\t\n              PUSH [tag] 693\t\t\t\n              DUP3 \t\t\t\n              SLOAD \t\t\t\n              PUSH [tag] 90\t\t\t\n              JUMP \t\t\t\n            tag 693\t\t\t\n              JUMPDEST \t\t\t\n              PUSH [tag] 694\t\t\t\n              DUP3 \t\t\t\n              DUP3 \t\t\t\n              DUP6 \t\t\t\n              PUSH [tag] 411\t\t\t\n              JUMP \t\t\t\n            tag 694\t\t\t\n              JUMPDEST \t\t\t\n              PUSH 0\t\t\t\n              PUSH 20\t\t\t\n              SWAP1 \t\t\t\n              POP \t\t\t\n              PUSH 1F\t\t\t\n              DUP4 \t\t\t\n              GT \t\t\t\n              PUSH 1\t\t\t\n              DUP2 \t\t\t\n              EQ \t\t\t\n              PUSH [tag] 696\t\t\t\n              JUMPI \t\t\t\n              PUSH 0\t\t\t\n              DUP5 \t\t\t\n              ISZERO \t\t\t\n              PUSH [tag] 697\t\t\t\n              JUMPI \t\t\t\n              DUP3 \t\t\t\n              DUP8 \t\t\t\n              ADD \t\t\t\n              MLOAD \t\t\t\n              SWAP1 \t\t\t\n              POP \t\t\t\n            tag 697\t\t\t\n              JUMPDEST \t\t\t\n              PUSH [tag] 698\t\t\t\n              DUP6 \t\t\t\n              DUP3 \t\t\t\n              PUSH [tag] 414\t\t\t\n              JUMP \t\t\t\n            tag 698\t\t\t\n              JUMPDEST \t\t\t\n              DUP7 \t\t\t\n              SSTORE \t\t\t\n              POP \t\t\t\n              PUSH [tag] 695\t\t\t\n              JUMP \t\t\t\n            tag 696\t\t\t\n              JUMPDEST \t\t\t\n              PUSH 1F\t\t\t\n              NOT \t\t\t\n              DUP5 \t\t\t\n              AND \t\t\t\n              PUSH [tag] 699\t\t\t\n              DUP7 \t\t\t\n              PUSH [tag] 400\t\t\t\n              JUMP \t\t\t\n            tag 699\t\t\t\n              JUMPDEST \t\t\t\n              PUSH 0\t\t\t\n            tag 700\t\t\t\n              JUMPDEST \t\t\t\n              DUP3 \t\t\t\n              DUP2 \t\t\t\n              LT \t\t\t\n              ISZERO \t\t\t\n              PUSH [tag] 702\t\t\t\n              JUMPI \t\t\t\n              DUP5 \t\t\t\n              DUP10 \t\t\t\n              ADD \t\t\t\n              MLOAD \t\t\t\n              DUP3 \t\t\t\n              SSTORE \t\t\t\n              PUSH 1\t\t\t\n              DUP3 \t\t\t\n              ADD \t\t\t\n              SWAP2 \t\t\t\n              POP \t\t\t\n              PUSH 20\t\t\t\n              DUP6 \t\t\t\n              ADD \t\t\t\n              SWAP5 \t\t\t\n              POP \t\t\t\n              PUSH 20\t\t\t\n              DUP2 \t\t\t\n              ADD \t\t\t\n              SWAP1 \t\t\t\n              POP \t\t\t\n              PUSH [tag] 700\t\t\t\n              JUMP \t\t\t\n            tag 702\t\t\t\n              JUMPDEST \t\t\t\n              DUP7 \t\t\t\n              DUP4 \t\t\t\n              LT \t\t\t\n              ISZERO \t\t\t\n              PUSH [tag] 703\t\t\t\n              JUMPI \t\t\t\n              DUP5 \t\t\t\n              DUP10 \t\t\t\n              ADD \t\t\t\n              MLOAD \t\t\t\n              PUSH [tag] 704\t\t\t\n              PUSH 1F\t\t\t\n              DUP10 \t\t\t\n              AND \t\t\t\n              DUP3 \t\t\t\n              PUSH [tag] 413\t\t\t\n              JUMP \t\t\t\n            tag 704\t\t\t\n              JUMPDEST \t\t\t\n              DUP4 \t\t\t\n              SSTORE \t\t\t\n              POP \t\t\t\n            tag 703\t\t\t\n              JUMPDEST \t\t\t\n              PUSH 1\t\t\t\n              PUSH 2\t\t\t\n              DUP9 \t\t\t\n              MUL \t\t\t\n              ADD \t\t\t\n              DUP9 \t\t\t\n              SSTORE \t\t\t\n              POP \t\t\t\n              POP \t\t\t\n              POP \t\t\t\n            tag 695\t\t\t\n              JUMPDEST \t\t\t\n              POP \t\t\t\n              POP \t\t\t\n              POP \t\t\t\n              POP \t\t\t\n              POP \t\t\t\n              POP \t\t\t\n              JUMP \t\t\t\n            tag 415\t\t\t\n              JUMPDEST \t\t\t\n              PUSH 0\t\t\t\n              DUP2 \t\t\t\n              MLOAD \t\t\t\n              SWAP1 \t\t\t\n              POP \t\t\t\n              SWAP2 \t\t\t\n              SWAP1 \t\t\t\n              POP \t\t\t\n              JUMP \t\t\t\n            tag 416\t\t\t\n              JUMPDEST \t\t\t\n              PUSH 0\t\t\t\n              DUP3 \t\t\t\n              DUP3 \t\t\t\n              MSTORE \t\t\t\n              PUSH 20\t\t\t\n              DUP3 \t\t\t\n              ADD \t\t\t\n              SWAP1 \t\t\t\n              POP \t\t\t\n              SWAP3 \t\t\t\n              SWAP2 \t\t\t\n              POP \t\t\t\n              POP \t\t\t\n              JUMP \t\t\t\n            tag 417\t\t\t\n              JUMPDEST \t\t\t\n              PUSH 0\t\t\t\n              PUSH [tag] 708\t\t\t\n              DUP3 \t\t\t\n              PUSH [tag] 415\t\t\t\n              JUMP \t\t\t\n            tag 708\t\t\t\n              JUMPDEST \t\t\t\n              PUSH [tag] 709\t\t\t\n              DUP2 \t\t\t\n              DUP6 \t\t\t\n              PUSH [tag] 416\t\t\t\n              JUMP \t\t\t\n            tag 709\t\t\t\n              JUMPDEST \t\t\t\n              SWAP4 \t\t\t\n              POP \t\t\t\n              PUSH [tag] 710\t\t\t\n              DUP2 \t\t\t\n              DUP6 \t\t\t\n              PUSH 20\t\t\t\n              DUP7 \t\t\t\n              ADD \t\t\t\n              PUSH [tag] 348\t\t\t\n              JUMP \t\t\t\n            tag 710\t\t\t\n              JUMPDEST \t\t\t\n              PUSH [tag] 711\t\t\t\n              DUP2 \t\t\t\n              PUSH [tag] 349\t\t\t\n              JUMP \t\t\t\n            tag 711\t\t\t\n              JUMPDEST \t\t\t\n              DUP5 \t\t\t\n              ADD \t\t\t\n              SWAP2 \t\t\t\n              POP \t\t\t\n              POP \t\t\t\n              SWAP3 \t\t\t\n              SWAP2 \t\t\t\n              POP \t\t\t\n              POP \t\t\t\n              JUMP \t\t\t\n            tag 260\t\t\t\n              JUMPDEST \t\t\t\n              PUSH 0\t\t\t\n              PUSH 80\t\t\t\n              DUP3 \t\t\t\n              ADD \t\t\t\n              SWAP1 \t\t\t\n              POP \t\t\t\n              PUSH [tag] 713\t\t\t\n              PUSH 0\t\t\t\n              DUP4 \t\t\t\n              ADD \t\t\t\n              DUP8 \t\t\t\n              PUSH [tag] 356\t\t\t\n              JUMP \t\t\t\n            tag 713\t\t\t\n              JUMPDEST \t\t\t\n              PUSH [tag] 714\t\t\t\n              PUSH 20\t\t\t\n              DUP4 \t\t\t\n              ADD \t\t\t\n              DUP7 \t\t\t\n              PUSH [tag] 356\t\t\t\n              JUMP \t\t\t\n            tag 714\t\t\t\n              JUMPDEST \t\t\t\n              PUSH [tag] 715\t\t\t\n              PUSH 40\t\t\t\n              DUP4 \t\t\t\n              ADD \t\t\t\n              DUP6 \t\t\t\n              PUSH [tag] 359\t\t\t\n              JUMP \t\t\t\n            tag 715\t\t\t\n              JUMPDEST \t\t\t\n              DUP2 \t\t\t\n              DUP2 \t\t\t\n              SUB \t\t\t\n              PUSH 60\t\t\t\n              DUP4 \t\t\t\n              ADD \t\t\t\n              MSTORE \t\t\t\n              PUSH [tag] 716\t\t\t\n              DUP2 \t\t\t\n              DUP5 \t\t\t\n              PUSH [tag] 417\t\t\t\n              JUMP \t\t\t\n            tag 716\t\t\t\n              JUMPDEST \t\t\t\n              SWAP1 \t\t\t\n              POP \t\t\t\n              SWAP6 \t\t\t\n              SWAP5 \t\t\t\n              POP \t\t\t\n              POP \t\t\t\n              POP \t\t\t\n              POP \t\t\t\n              POP \t\t\t\n              JUMP \t\t\t\n            tag 418\t\t\t\n              JUMPDEST \t\t\t\n              PUSH 0\t\t\t\n              DUP2 \t\t\t\n              MLOAD \t\t\t\n              SWAP1 \t\t\t\n              POP \t\t\t\n              PUSH [tag] 718\t\t\t\n              DUP2 \t\t\t\n              PUSH [tag] 342\t\t\t\n              JUMP \t\t\t\n            tag 718\t\t\t\n              JUMPDEST \t\t\t\n              SWAP3 \t\t\t\n              SWAP2 \t\t\t\n              POP \t\t\t\n              POP \t\t\t\n              JUMP \t\t\t\n            tag 263\t\t\t\n              JUMPDEST \t\t\t\n              PUSH 0\t\t\t\n              PUSH 20\t\t\t\n              DUP3 \t\t\t\n              DUP5 \t\t\t\n              SUB \t\t\t\n              SLT \t\t\t\n              ISZERO \t\t\t\n              PUSH [tag] 720\t\t\t\n              JUMPI \t\t\t\n              PUSH [tag] 721\t\t\t\n              PUSH [tag] 339\t\t\t\n              JUMP \t\t\t\n            tag 721\t\t\t\n              JUMPDEST \t\t\t\n            tag 720\t\t\t\n              JUMPDEST \t\t\t\n              PUSH 0\t\t\t\n              PUSH [tag] 722\t\t\t\n              DUP5 \t\t\t\n              DUP3 \t\t\t\n              DUP6 \t\t\t\n              ADD \t\t\t\n              PUSH [tag] 418\t\t\t\n              JUMP \t\t\t\n            tag 722\t\t\t\n              JUMPDEST \t\t\t\n              SWAP2 \t\t\t\n              POP \t\t\t\n              POP \t\t\t\n              SWAP3 \t\t\t\n              SWAP2 \t\t\t\n              POP \t\t\t\n              POP \t\t\t\n              JUMP \t\t\t\n            tag 303\t\t\t\n              JUMPDEST \t\t\t\n              PUSH 4E487B7100000000000000000000000000000000000000000000000000000000\t\t\t\n              PUSH 0\t\t\t\n              MSTORE \t\t\t\n              PUSH 12\t\t\t\n              PUSH 4\t\t\t\n              MSTORE \t\t\t\n              PUSH 24\t\t\t\n              PUSH 0\t\t\t\n              REVERT \t\t\t\n            tag 419\t\t\t\n              JUMPDEST \t\t\t\n              PUSH 4552433732313A206D696E7420746F20746865207A65726F2061646472657373\t\t\t\n              PUSH 0\t\t\t\n              DUP3 \t\t\t\n              ADD \t\t\t\n              MSTORE \t\t\t\n              POP \t\t\t\n              JUMP \t\t\t\n            tag 420\t\t\t\n              JUMPDEST \t\t\t\n              PUSH 0\t\t\t\n              PUSH [tag] 726\t\t\t\n              PUSH 20\t\t\t\n              DUP4 \t\t\t\n              PUSH [tag] 347\t\t\t\n              JUMP \t\t\t\n            tag 726\t\t\t\n              JUMPDEST \t\t\t\n              SWAP2 \t\t\t\n              POP \t\t\t\n              PUSH [tag] 727\t\t\t\n              DUP3 \t\t\t\n              PUSH [tag] 419\t\t\t\n              JUMP \t\t\t\n            tag 727\t\t\t\n              JUMPDEST \t\t\t\n              PUSH 20\t\t\t\n              DUP3 \t\t\t\n              ADD \t\t\t\n              SWAP1 \t\t\t\n              POP \t\t\t\n              SWAP2 \t\t\t\n              SWAP1 \t\t\t\n              POP \t\t\t\n              JUMP \t\t\t\n            tag 308\t\t\t\n              JUMPDEST \t\t\t\n              PUSH 0\t\t\t\n              PUSH 20\t\t\t\n              DUP3 \t\t\t\n              ADD \t\t\t\n              SWAP1 \t\t\t\n              POP \t\t\t\n              DUP2 \t\t\t\n              DUP2 \t\t\t\n              SUB \t\t\t\n              PUSH 0\t\t\t\n              DUP4 \t\t\t\n              ADD \t\t\t\n              MSTORE \t\t\t\n              PUSH [tag] 729\t\t\t\n              DUP2 \t\t\t\n              PUSH [tag] 420\t\t\t\n              JUMP \t\t\t\n            tag 729\t\t\t\n              JUMPDEST \t\t\t\n              SWAP1 \t\t\t\n              POP \t\t\t\n              SWAP2 \t\t\t\n              SWAP1 \t\t\t\n              POP \t\t\t\n              JUMP \t\t\t\n            tag 421\t\t\t\n              JUMPDEST \t\t\t\n              PUSH 4552433732313A20746F6B656E20616C7265616479206D696E74656400000000\t\t\t\n              PUSH 0\t\t\t\n              DUP3 \t\t\t\n              ADD \t\t\t\n              MSTORE \t\t\t\n              POP \t\t\t\n              JUMP \t\t\t\n            tag 422\t\t\t\n              JUMPDEST \t\t\t\n              PUSH 0\t\t\t\n              PUSH [tag] 732\t\t\t\n              PUSH 1C\t\t\t\n              DUP4 \t\t\t\n              PUSH [tag] 347\t\t\t\n              JUMP \t\t\t\n            tag 732\t\t\t\n              JUMPDEST \t\t\t\n              SWAP2 \t\t\t\n              POP \t\t\t\n              PUSH [tag] 733\t\t\t\n              DUP3 \t\t\t\n              PUSH [tag] 421\t\t\t\n              JUMP \t\t\t\n            tag 733\t\t\t\n              JUMPDEST \t\t\t\n              PUSH 20\t\t\t\n              DUP3 \t\t\t\n              ADD \t\t\t\n              SWAP1 \t\t\t\n              POP \t\t\t\n              SWAP2 \t\t\t\n              SWAP1 \t\t\t\n              POP \t\t\t\n              JUMP \t\t\t\n            tag 312\t\t\t\n              JUMPDEST \t\t\t\n              PUSH 0\t\t\t\n              PUSH 20\t\t\t\n              DUP3 \t\t\t\n              ADD \t\t\t\n              SWAP1 \t\t\t\n              POP \t\t\t\n              DUP2 \t\t\t\n              DUP2 \t\t\t\n              SUB \t\t\t\n              PUSH 0\t\t\t\n              DUP4 \t\t\t\n              ADD \t\t\t\n              MSTORE \t\t\t\n              PUSH [tag] 735\t\t\t\n              DUP2 \t\t\t\n              PUSH [tag] 422\t\t\t\n              JUMP \t\t\t\n            tag 735\t\t\t\n              JUMPDEST \t\t\t\n              SWAP1 \t\t\t\n              POP \t\t\t\n              SWAP2 \t\t\t\n              SWAP1 \t\t\t\n              POP \t\t\t\n              JUMP \t\t\t\n            .data\n"
}